{
  "_format": "hh-sol-artifact-1",
  "contractName": "UniswapV2LPTOracle",
  "sourceName": "contracts/oracles/UniswapV2LPTOracle.sol",
  "abi": [
    {
      "inputs": [
        {
          "internalType": "address",
          "name": "_roles",
          "type": "address"
        }
      ],
      "stateMutability": "nonpayable",
      "type": "constructor"
    },
    {
      "anonymous": false,
      "inputs": [
        {
          "indexed": false,
          "internalType": "string",
          "name": "param",
          "type": "string"
        },
        {
          "indexed": false,
          "internalType": "uint256",
          "name": "value",
          "type": "uint256"
        }
      ],
      "name": "ParameterUpdated",
      "type": "event"
    },
    {
      "anonymous": false,
      "inputs": [
        {
          "indexed": false,
          "internalType": "string",
          "name": "param",
          "type": "string"
        },
        {
          "indexed": false,
          "internalType": "address",
          "name": "subject",
          "type": "address"
        },
        {
          "indexed": false,
          "internalType": "uint256",
          "name": "value",
          "type": "uint256"
        }
      ],
      "name": "SubjectParameterUpdated",
      "type": "event"
    },
    {
      "anonymous": false,
      "inputs": [
        {
          "indexed": false,
          "internalType": "string",
          "name": "param",
          "type": "string"
        },
        {
          "indexed": false,
          "internalType": "address",
          "name": "subject",
          "type": "address"
        }
      ],
      "name": "SubjectUpdated",
      "type": "event"
    },
    {
      "inputs": [
        {
          "internalType": "uint256",
          "name": "",
          "type": "uint256"
        }
      ],
      "name": "_charactersPlayed",
      "outputs": [
        {
          "internalType": "uint256",
          "name": "",
          "type": "uint256"
        }
      ],
      "stateMutability": "view",
      "type": "function"
    },
    {
      "inputs": [
        {
          "internalType": "uint256",
          "name": "",
          "type": "uint256"
        }
      ],
      "name": "_dependsOnCharacters",
      "outputs": [
        {
          "internalType": "uint256",
          "name": "",
          "type": "uint256"
        }
      ],
      "stateMutability": "view",
      "type": "function"
    },
    {
      "inputs": [
        {
          "internalType": "uint256",
          "name": "",
          "type": "uint256"
        }
      ],
      "name": "_dependsOnRoles",
      "outputs": [
        {
          "internalType": "uint256",
          "name": "",
          "type": "uint256"
        }
      ],
      "stateMutability": "view",
      "type": "function"
    },
    {
      "inputs": [
        {
          "internalType": "address",
          "name": "",
          "type": "address"
        },
        {
          "internalType": "address",
          "name": "",
          "type": "address"
        }
      ],
      "name": "_oracleCache",
      "outputs": [
        {
          "internalType": "address",
          "name": "",
          "type": "address"
        }
      ],
      "stateMutability": "view",
      "type": "function"
    },
    {
      "inputs": [
        {
          "internalType": "uint256",
          "name": "",
          "type": "uint256"
        }
      ],
      "name": "_rolesPlayed",
      "outputs": [
        {
          "internalType": "uint256",
          "name": "",
          "type": "uint256"
        }
      ],
      "stateMutability": "view",
      "type": "function"
    },
    {
      "inputs": [],
      "name": "charactersPlayed",
      "outputs": [
        {
          "internalType": "uint256[]",
          "name": "",
          "type": "uint256[]"
        }
      ],
      "stateMutability": "view",
      "type": "function"
    },
    {
      "inputs": [],
      "name": "dependsOnCharacters",
      "outputs": [
        {
          "internalType": "uint256[]",
          "name": "",
          "type": "uint256[]"
        }
      ],
      "stateMutability": "view",
      "type": "function"
    },
    {
      "inputs": [],
      "name": "dependsOnRoles",
      "outputs": [
        {
          "internalType": "uint256[]",
          "name": "",
          "type": "uint256[]"
        }
      ],
      "stateMutability": "view",
      "type": "function"
    },
    {
      "inputs": [
        {
          "internalType": "address",
          "name": "token",
          "type": "address"
        },
        {
          "internalType": "address",
          "name": "",
          "type": "address"
        },
        {
          "internalType": "address",
          "name": "singleSideToken",
          "type": "address"
        }
      ],
      "name": "encodeAndCheckOracleParams",
      "outputs": [
        {
          "internalType": "bool",
          "name": "",
          "type": "bool"
        },
        {
          "internalType": "bytes",
          "name": "",
          "type": "bytes"
        }
      ],
      "stateMutability": "view",
      "type": "function"
    },
    {
      "inputs": [
        {
          "internalType": "address",
          "name": "token",
          "type": "address"
        },
        {
          "internalType": "uint256",
          "name": "inAmount",
          "type": "uint256"
        },
        {
          "internalType": "address",
          "name": "pegCurrency",
          "type": "address"
        }
      ],
      "name": "getAmountInPeg",
      "outputs": [
        {
          "internalType": "uint256",
          "name": "",
          "type": "uint256"
        }
      ],
      "stateMutability": "nonpayable",
      "type": "function"
    },
    {
      "inputs": [
        {
          "internalType": "address",
          "name": "token",
          "type": "address"
        },
        {
          "internalType": "uint256",
          "name": "inAmount",
          "type": "uint256"
        },
        {
          "internalType": "address",
          "name": "pegCurrency",
          "type": "address"
        }
      ],
      "name": "getPegAmountAndBorrowable",
      "outputs": [
        {
          "internalType": "uint256",
          "name": "",
          "type": "uint256"
        },
        {
          "internalType": "uint256",
          "name": "",
          "type": "uint256"
        }
      ],
      "stateMutability": "nonpayable",
      "type": "function"
    },
    {
      "inputs": [
        {
          "internalType": "uint256",
          "name": "",
          "type": "uint256"
        }
      ],
      "name": "mainCharacterCache",
      "outputs": [
        {
          "internalType": "address",
          "name": "",
          "type": "address"
        }
      ],
      "stateMutability": "view",
      "type": "function"
    },
    {
      "inputs": [
        {
          "internalType": "address",
          "name": "token",
          "type": "address"
        },
        {
          "internalType": "address",
          "name": "pegCurrency",
          "type": "address"
        }
      ],
      "name": "newCurrentOracle",
      "outputs": [],
      "stateMutability": "nonpayable",
      "type": "function"
    },
    {
      "inputs": [
        {
          "internalType": "address",
          "name": "",
          "type": "address"
        },
        {
          "internalType": "uint256",
          "name": "",
          "type": "uint256"
        }
      ],
      "name": "roleCache",
      "outputs": [
        {
          "internalType": "bool",
          "name": "",
          "type": "bool"
        }
      ],
      "stateMutability": "view",
      "type": "function"
    },
    {
      "inputs": [],
      "name": "roles",
      "outputs": [
        {
          "internalType": "contract Roles",
          "name": "",
          "type": "address"
        }
      ],
      "stateMutability": "view",
      "type": "function"
    },
    {
      "inputs": [],
      "name": "rolesPlayed",
      "outputs": [
        {
          "internalType": "uint256[]",
          "name": "",
          "type": "uint256[]"
        }
      ],
      "stateMutability": "view",
      "type": "function"
    },
    {
      "inputs": [
        {
          "internalType": "address",
          "name": "token",
          "type": "address"
        },
        {
          "internalType": "address",
          "name": "pegCurrency",
          "type": "address"
        },
        {
          "internalType": "bytes",
          "name": "data",
          "type": "bytes"
        }
      ],
      "name": "setOracleParams",
      "outputs": [],
      "stateMutability": "nonpayable",
      "type": "function"
    },
    {
      "inputs": [
        {
          "internalType": "address",
          "name": "token",
          "type": "address"
        },
        {
          "internalType": "address",
          "name": "pegCurrency",
          "type": "address"
        },
        {
          "internalType": "address",
          "name": "singleSideToken",
          "type": "address"
        }
      ],
      "name": "setOracleSpecificParams",
      "outputs": [],
      "stateMutability": "nonpayable",
      "type": "function"
    },
    {
      "inputs": [
        {
          "internalType": "address",
          "name": "",
          "type": "address"
        }
      ],
      "name": "singleSideValuation",
      "outputs": [
        {
          "internalType": "address",
          "name": "",
          "type": "address"
        }
      ],
      "stateMutability": "view",
      "type": "function"
    },
    {
      "inputs": [
        {
          "internalType": "uint256",
          "name": "role",
          "type": "uint256"
        }
      ],
      "name": "updateMainCharacterCache",
      "outputs": [],
      "stateMutability": "nonpayable",
      "type": "function"
    },
    {
      "inputs": [
        {
          "internalType": "uint256",
          "name": "role",
          "type": "uint256"
        },
        {
          "internalType": "address",
          "name": "contr",
          "type": "address"
        }
      ],
      "name": "updateRoleCache",
      "outputs": [],
      "stateMutability": "nonpayable",
      "type": "function"
    },
    {
      "inputs": [
        {
          "internalType": "address",
          "name": "token",
          "type": "address"
        },
        {
          "internalType": "uint256",
          "name": "inAmount",
          "type": "uint256"
        },
        {
          "internalType": "address",
          "name": "pegCurrency",
          "type": "address"
        }
      ],
      "name": "viewAmountInPeg",
      "outputs": [
        {
          "internalType": "uint256",
          "name": "",
          "type": "uint256"
        }
      ],
      "stateMutability": "view",
      "type": "function"
    },
    {
      "inputs": [
        {
          "internalType": "address",
          "name": "token",
          "type": "address"
        },
        {
          "internalType": "uint256",
          "name": "inAmount",
          "type": "uint256"
        },
        {
          "internalType": "address",
          "name": "pegCurrency",
          "type": "address"
        }
      ],
      "name": "viewPegAmountAndBorrowable",
      "outputs": [
        {
          "internalType": "uint256",
          "name": "",
          "type": "uint256"
        },
        {
          "internalType": "uint256",
          "name": "",
          "type": "uint256"
        }
      ],
      "stateMutability": "view",
      "type": "function"
    }
  ],
  "bytecode": "0x60a060405234801561001057600080fd5b50604051611b49380380611b4983398101604081905261002f91610120565b806001600160a01b0381166100955760405162461bcd60e51b815260206004820152602260248201527f506c656173652070726f766964652076616c696420726f6c6573206164647265604482015261737360f01b606482015260840160405180910390fd5b60601b6001600160601b031916608052506002805460018082018355606a7f405787fa12a823e0f2b7631cc41b3ba8828b3321ca811111fa75cd3aa3bb5ace928301556005805480830190915560047f036b6384b5eca791c62761152d0c79bb0604c104a5fb6f4eb0703f3154bb3db09091015582549081018355600092909252606c91015561014e565b600060208284031215610131578081fd5b81516001600160a01b0381168114610147578182fd5b9392505050565b60805160601c6119c1610188600039600081816101ac015281816103a30152818161066301528181611068015261110001526119c16000f3fe608060405234801561001057600080fd5b506004361061011d5760003560e01c8063071060a6146101225780632642b6061461013757806328f3fc731461018157806332f42fe614610194578063392f5f64146101a7578063447d52ba146101ce5780634a7a7f41146101e15780634fcd54a4146101f6578063576cbc301461021e5780636caa9c111461023f5780637a1a04df146102525780637dad209b14610290578063885fa056146102985780638b0b2b92146102ab5780638eaab58c146102d4578063a4870df2146102e7578063abcbc4fc14610308578063aeb38d8b1461031b578063bf184ea41461032e578063cb9aa42514610341578063dc94cb7d14610354578063e8ea4fae1461035c578063e9c3f77d14610364575b600080fd5b610135610130366004611762565b61038d565b005b61016b6101453660046114ea565b60066020908152600092835260408084209091529082529020546001600160a01b031681565b60405161017891906117b6565b60405180910390f35b61013561018f3660046114ea565b610453565b6101356101a236600461156c565b610546565b61016b7f000000000000000000000000000000000000000000000000000000000000000081565b6101356101dc366004611792565b61063d565b6101e9610715565b6040516101789190611807565b610209610204366004611680565b61076d565b60408051928352602083019190915201610178565b61023161022c366004611680565b61080a565b604051908152602001610178565b61023161024d366004611762565b610996565b610280610260366004611655565b600160209081526000928352604080842090915290825290205460ff1681565b6040519015158152602001610178565b6101e96109b7565b6102096102a6366004611680565b610a0d565b61016b6102b93660046114ab565b6007602052600090815260409020546001600160a01b031681565b6102316102e2366004611680565b610a1b565b6102fa6102f5366004611522565b610b5b565b60405161017892919061184b565b610231610316366004611762565b610c50565b610231610329366004611762565b610c60565b61023161033c366004611762565b610c70565b61013561034f366004611522565b610c80565b6101e9610d71565b6101e9610dc7565b61016b610372366004611762565b6000602081905290815260409020546001600160a01b031681565b60405163b4ed0b6d60e01b8152600481018290527f00000000000000000000000000000000000000000000000000000000000000006001600160a01b03169063b4ed0b6d9060240160206040518083038186803b1580156103ed57600080fd5b505afa158015610401573d6000803e3d6000fd5b505050506040513d601f19601f8201168201806040525081019061042591906114ce565b60009182526020829052604090912080546001600160a01b0319166001600160a01b03909216919091179055565b6001600160a01b0382811660009081526006602090815260408083208585168452909152902054161561054257610488610e1d565b6001600160a01b0316635e73a03483836040518363ffffffff1660e01b81526004016104b59291906117ca565b60206040518083038186803b1580156104cd57600080fd5b505afa1580156104e1573d6000803e3d6000fd5b505050506040513d601f19601f8201168201806040525081019061050591906114ce565b6001600160a01b0383811660009081526006602090815260408083208685168452909152902080546001600160a01b031916929091169190911790555b5050565b3361054f610e1d565b6001600160a01b0316146105aa5760405162461bcd60e51b815260206004820152601d60248201527f4e6f7420617574686f72697a656420746f20696e6974206f7261636c6500000060448201526064015b60405180910390fd5b6105eb848484848080601f016020809104026020016040519081016040528093929190818152602001838380828437600092019190915250610e5592505050565b60408051818152600d818301526c6f7261636c6520706172616d7360981b60608201526001600160a01b0386166020820152905160008051602061196c8339815191529181900360800190a150505050565b60405163f0723d9760e01b81526001600160a01b038281166004830152602482018490527f0000000000000000000000000000000000000000000000000000000000000000169063f0723d979060440160206040518083038186803b1580156106a557600080fd5b505afa1580156106b9573d6000803e3d6000fd5b505050506040513d601f19601f820116820180604052508101906106dd91906116b6565b6001600160a01b0391909116600090815260016020908152604080832094835293905291909120805460ff1916911515919091179055565b6060600380548060200260200160405190810160405280929190818152602001828054801561076357602002820191906000526020600020905b81548152602001906001019080831161074f575b5050505050905090565b60008061077b858585610a1b565b610783610e1d565b6001600160a01b03166315c2ba50876040518263ffffffff1660e01b81526004016107ae91906117b6565b60206040518083038186803b1580156107c657600080fd5b505afa1580156107da573d6000803e3d6000fd5b505050506040513d601f19601f820116820180604052508101906107fe919061177a565b91509150935093915050565b60008060008060008061081b610e7e565b6001600160a01b031663e4f50de28a6040518263ffffffff1660e01b815260040161084691906117b6565b60c060405180830381600087803b15801561086057600080fd5b505af1158015610874573d6000803e3d6000fd5b505050506040513d601f19601f8201168201806040525081019061089891906115f8565b95505094509450945094506000600760008b6001600160a01b03166001600160a01b0316815260200190815260200160002060009054906101000a90046001600160a01b031690506000866001600160a01b0316826001600160a01b0316141561091e57600061090988878c610eb6565b905061091681600261191e565b915050610972565b856001600160a01b0316826001600160a01b0316141561094557600061090987868c610eb6565b600061095288878c610eb6565b9050600061096188878d610eb6565b905061096d81836118e6565b925050505b8261097d828c61191e565b61098791906118fe565b9b9a5050505050505050505050565b600581815481106109a657600080fd5b600091825260209091200154905081565b60606004805480602002602001604051908101604052809291908181526020018280548015610763576020028201919060005260206000209081548152602001906001019080831161074f575050505050905090565b60008061077b85858561080a565b600080600080600080610a2c610e7e565b6001600160a01b03166384686ff68a6040518263ffffffff1660e01b8152600401610a5791906117b6565b60c06040518083038186803b158015610a6f57600080fd5b505afa158015610a83573d6000803e3d6000fd5b505050506040513d601f19601f82011682018060405250810190610aa791906115f8565b95505094509450945094506000600760008b6001600160a01b03166001600160a01b0316815260200190815260200160002060009054906101000a90046001600160a01b031690506000866001600160a01b0316826001600160a01b03161415610b1857600061090988878c610f51565b856001600160a01b0316826001600160a01b03161415610b3f57600061090987868c610f51565b6000610b4c88878c610f51565b9050600061096188878d610f51565b600060606000610b69610e7e565b6001600160a01b0316622d5f1c876040518263ffffffff1660e01b8152600401610b9391906117b6565b6101206040518083038186803b158015610bac57600080fd5b505afa158015610bc0573d6000803e3d6000fd5b505050506040513d601f19601f82011682018060405250810190610be491906116d6565b80519091506000906001600160a01b031615801590610c1f57506001600160a01b038781166000908152600760205260409020548116908616145b90508085604051602001610c3391906117b6565b604051602081830303815290604052935093505050935093915050565b600281815481106109a657600080fd5b600481815481106109a657600080fd5b600381815481106109a657600080fd5b33610c89611064565b6001600160a01b03161480610cad575033610ca26110fc565b6001600160a01b0316145b610d0c5760405162461bcd60e51b815260206004820152602a60248201527f526f6c65733a2063616c6c6572206973206e6f7420746865206f776e6572206f604482015269391032bc32b1baba37b960b11b60648201526084016105a1565b610d1783838361116d565b60408051818152601681830152756f7261636c6520737065636966696320706172616d7360501b60608201526001600160a01b0385166020820152905160008051602061196c8339815191529181900360800190a1505050565b60606002805480602002602001604051908101604052809291908181526020018280548015610763576020028201919060005260206000209081548152602001906001019080831161074f575050505050905090565b60606005805480602002602001604051908101604052809291908181526020018280548015610763576020028201919060005260206000209081548152602001906001019080831161074f575050505050905090565b606a60009081526020527ff3261457f4fd0b7c00a1511877ab27b74183ac470be8db3a7ecdc64335f6f979546001600160a01b031690565b600081806020019051810190610e6b91906114ce565b9050610e7884848361116d565b50505050565b606c60009081526020527f3c1fcba39712202dbd455253568bf32dd0a3bedb5c3ff0de4b22d4e45e50dc92546001600160a01b031690565b600080610ec385846113de565b604051630576cbc360e41b81529091506001600160a01b0382169063576cbc3090610ef6908890889088906004016117e4565b602060405180830381600087803b158015610f1057600080fd5b505af1158015610f24573d6000803e3d6000fd5b505050506040513d601f19601f82011682018060405250810190610f48919061177a565b95945050505050565b6001600160a01b03808416600090815260066020908152604080832085851684529091528120549091168061100857610f88610e1d565b6001600160a01b0316635e73a03486856040518363ffffffff1660e01b8152600401610fb59291906117ca565b60206040518083038186803b158015610fcd57600080fd5b505afa158015610fe1573d6000803e3d6000fd5b505050506040513d601f19601f8201168201806040525081019061100591906114ce565b90505b6040516323aaad6360e21b81526001600160a01b03821690638eaab58c90611038908890889088906004016117e4565b60206040518083038186803b15801561105057600080fd5b505afa158015610f24573d6000803e3d6000fd5b60007f00000000000000000000000000000000000000000000000000000000000000006001600160a01b0316638da5cb5b6040518163ffffffff1660e01b815260040160206040518083038186803b1580156110bf57600080fd5b505afa1580156110d3573d6000803e3d6000fd5b505050506040513d601f19601f820116820180604052508101906110f791906114ce565b905090565b60007f00000000000000000000000000000000000000000000000000000000000000006001600160a01b031663c34c08e56040518163ffffffff1660e01b8152600401602060405180830381600087803b15801561115957600080fd5b505af11580156110d3573d6000803e3d6000fd5b6000611177610e7e565b6001600160a01b031663ef6eeded856040518263ffffffff1660e01b81526004016111a291906117b6565b61012060405180830381600087803b1580156111bd57600080fd5b505af11580156111d1573d6000803e3d6000fd5b505050506040513d601f19601f820116820180604052508101906111f591906116d6565b905080600001516001600160a01b0316826001600160a01b03161480611230575080602001516001600160a01b0316826001600160a01b0316145b8061124257506001600160a01b038216155b61128e5760405162461bcd60e51b815260206004820152601d60248201527f4e6f7420612076616c69642073696e676c65207369646520746f6b656e00000060448201526064016105a1565b80516001600160a01b038381169116146113195760006112bb8260200151670de0b6b3a764000086610eb6565b116113195760405162461bcd60e51b815260206004820152602860248201527f436f6e7374697475656e74206f7261636c6520666f7220746f6b656e31206e6f604482015267074207365742075760c41b60648201526084016105a1565b80602001516001600160a01b0316826001600160a01b0316146113ad57600061134f8260000151670de0b6b3a764000086610eb6565b116113ad5760405162461bcd60e51b815260206004820152602860248201527f436f6e7374697475656e74206f7261636c6520666f7220746f6b656e30206e6f604482015267074207365742075760c41b60648201526084016105a1565b506001600160a01b03928316600090815260076020526040902080546001600160a01b031916919093161790915550565b6001600160a01b0380831660009081526006602090815260408083208585168452909152902054168061149557611413610e1d565b6001600160a01b0316631757616884846040518363ffffffff1660e01b81526004016114409291906117ca565b602060405180830381600087803b15801561145a57600080fd5b505af115801561146e573d6000803e3d6000fd5b505050506040513d601f19601f8201168201806040525081019061149291906114ce565b90505b92915050565b80516114a681611953565b919050565b6000602082840312156114bc578081fd5b81356114c781611953565b9392505050565b6000602082840312156114df578081fd5b81516114c781611953565b600080604083850312156114fc578081fd5b823561150781611953565b9150602083013561151781611953565b809150509250929050565b600080600060608486031215611536578081fd5b833561154181611953565b9250602084013561155181611953565b9150604084013561156181611953565b809150509250925092565b60008060008060608587031215611581578081fd5b843561158c81611953565b9350602085013561159c81611953565b925060408501356001600160401b03808211156115b7578283fd5b818701915087601f8301126115ca578283fd5b8135818111156115d8578384fd5b8860208285010111156115e9578384fd5b95989497505060200194505050565b60008060008060008060c08789031215611610578182fd5b865161161b81611953565b602088015190965061162c81611953565b6040880151606089015160808a015160a0909a0151989b929a5090989097909650945092505050565b60008060408385031215611667578182fd5b823561167281611953565b946020939093013593505050565b600080600060608486031215611694578283fd5b833561169f81611953565b925060208401359150604084013561156181611953565b6000602082840312156116c7578081fd5b815180151581146114c7578182fd5b60006101208083850312156116e9578182fd5b6116f2816118a8565b90506116fd8361149b565b815261170b6020840161149b565b602082015260408301516040820152606083015160608201526080830151608082015260a083015160a082015260c083015160c082015260e083015160e08201526101008084015181830152508091505092915050565b600060208284031215611773578081fd5b5035919050565b60006020828403121561178b578081fd5b5051919050565b600080604083850312156117a4578182fd5b82359150602083013561151781611953565b6001600160a01b0391909116815260200190565b6001600160a01b0392831681529116602082015260400190565b6001600160a01b0393841681526020810192909252909116604082015260600190565b6020808252825182820181905260009190848201906040850190845b8181101561183f57835183529284019291840191600101611823565b50909695505050505050565b6000831515825260206040818401528351806040850152825b8181101561188057858101830151858201606001528201611864565b818111156118915783606083870101525b50601f01601f191692909201606001949350505050565b604051601f8201601f191681016001600160401b03811182821017156118de57634e487b7160e01b600052604160045260246000fd5b604052919050565b600082198211156118f9576118f961193d565b500190565b60008261191957634e487b7160e01b81526012600452602481fd5b500490565b60008160001904831182151516156119385761193861193d565b500290565b634e487b7160e01b600052601160045260246000fd5b6001600160a01b038116811461196857600080fd5b5056febd64fae90eab1019a6c354538cfa598ad3d642c5b1bc8a8613bcb716723fa2d7a26469706673582212206f4e40634d7e47fc1032adfb0dd345ec3090f3317a92d379b0d532cfa385ae2c64736f6c63430008030033",
  "linkReferences": {},
  "deployedLinkReferences": {}
}