{
  "_format": "hh-sol-artifact-1",
  "contractName": "StrategyTokenActivation",
  "sourceName": "contracts/controller-actions/StrategyTokenActivation.sol",
  "abi": [
    {
      "inputs": [
        {
          "internalType": "address[]",
          "name": "_tokens",
          "type": "address[]"
        },
        {
          "internalType": "address payable[]",
          "name": "_strategies",
          "type": "address[]"
        },
        {
          "internalType": "bytes[]",
          "name": "_data",
          "type": "bytes[]"
        },
        {
          "internalType": "address",
          "name": "_roles",
          "type": "address"
        }
      ],
      "stateMutability": "nonpayable",
      "type": "constructor"
    },
    {
      "anonymous": false,
      "inputs": [
        {
          "indexed": false,
          "internalType": "string",
          "name": "param",
          "type": "string"
        },
        {
          "indexed": false,
          "internalType": "uint256",
          "name": "value",
          "type": "uint256"
        }
      ],
      "name": "ParameterUpdated",
      "type": "event"
    },
    {
      "anonymous": false,
      "inputs": [
        {
          "indexed": false,
          "internalType": "string",
          "name": "param",
          "type": "string"
        },
        {
          "indexed": false,
          "internalType": "address",
          "name": "subject",
          "type": "address"
        },
        {
          "indexed": false,
          "internalType": "uint256",
          "name": "value",
          "type": "uint256"
        }
      ],
      "name": "SubjectParameterUpdated",
      "type": "event"
    },
    {
      "anonymous": false,
      "inputs": [
        {
          "indexed": false,
          "internalType": "string",
          "name": "param",
          "type": "string"
        },
        {
          "indexed": false,
          "internalType": "address",
          "name": "subject",
          "type": "address"
        }
      ],
      "name": "SubjectUpdated",
      "type": "event"
    },
    {
      "inputs": [
        {
          "internalType": "uint256",
          "name": "",
          "type": "uint256"
        }
      ],
      "name": "_charactersPlayed",
      "outputs": [
        {
          "internalType": "uint256",
          "name": "",
          "type": "uint256"
        }
      ],
      "stateMutability": "view",
      "type": "function"
    },
    {
      "inputs": [
        {
          "internalType": "uint256",
          "name": "",
          "type": "uint256"
        }
      ],
      "name": "_dependsOnCharacters",
      "outputs": [
        {
          "internalType": "uint256",
          "name": "",
          "type": "uint256"
        }
      ],
      "stateMutability": "view",
      "type": "function"
    },
    {
      "inputs": [
        {
          "internalType": "uint256",
          "name": "",
          "type": "uint256"
        }
      ],
      "name": "_dependsOnRoles",
      "outputs": [
        {
          "internalType": "uint256",
          "name": "",
          "type": "uint256"
        }
      ],
      "stateMutability": "view",
      "type": "function"
    },
    {
      "inputs": [
        {
          "internalType": "uint256",
          "name": "",
          "type": "uint256"
        }
      ],
      "name": "_rolesPlayed",
      "outputs": [
        {
          "internalType": "uint256",
          "name": "",
          "type": "uint256"
        }
      ],
      "stateMutability": "view",
      "type": "function"
    },
    {
      "inputs": [],
      "name": "charactersPlayed",
      "outputs": [
        {
          "internalType": "uint256[]",
          "name": "",
          "type": "uint256[]"
        }
      ],
      "stateMutability": "view",
      "type": "function"
    },
    {
      "inputs": [
        {
          "internalType": "uint256",
          "name": "",
          "type": "uint256"
        }
      ],
      "name": "data",
      "outputs": [
        {
          "internalType": "bytes",
          "name": "",
          "type": "bytes"
        }
      ],
      "stateMutability": "view",
      "type": "function"
    },
    {
      "inputs": [],
      "name": "dependsOnCharacters",
      "outputs": [
        {
          "internalType": "uint256[]",
          "name": "",
          "type": "uint256[]"
        }
      ],
      "stateMutability": "view",
      "type": "function"
    },
    {
      "inputs": [],
      "name": "dependsOnRoles",
      "outputs": [
        {
          "internalType": "uint256[]",
          "name": "",
          "type": "uint256[]"
        }
      ],
      "stateMutability": "view",
      "type": "function"
    },
    {
      "inputs": [],
      "name": "execute",
      "outputs": [],
      "stateMutability": "nonpayable",
      "type": "function"
    },
    {
      "inputs": [
        {
          "internalType": "uint256",
          "name": "",
          "type": "uint256"
        }
      ],
      "name": "mainCharacterCache",
      "outputs": [
        {
          "internalType": "address",
          "name": "",
          "type": "address"
        }
      ],
      "stateMutability": "view",
      "type": "function"
    },
    {
      "inputs": [
        {
          "internalType": "address",
          "name": "",
          "type": "address"
        },
        {
          "internalType": "uint256",
          "name": "",
          "type": "uint256"
        }
      ],
      "name": "roleCache",
      "outputs": [
        {
          "internalType": "bool",
          "name": "",
          "type": "bool"
        }
      ],
      "stateMutability": "view",
      "type": "function"
    },
    {
      "inputs": [],
      "name": "roles",
      "outputs": [
        {
          "internalType": "contract Roles",
          "name": "",
          "type": "address"
        }
      ],
      "stateMutability": "view",
      "type": "function"
    },
    {
      "inputs": [],
      "name": "rolesPlayed",
      "outputs": [
        {
          "internalType": "uint256[]",
          "name": "",
          "type": "uint256[]"
        }
      ],
      "stateMutability": "view",
      "type": "function"
    },
    {
      "inputs": [
        {
          "internalType": "uint256",
          "name": "",
          "type": "uint256"
        }
      ],
      "name": "strategies",
      "outputs": [
        {
          "internalType": "address payable",
          "name": "",
          "type": "address"
        }
      ],
      "stateMutability": "view",
      "type": "function"
    },
    {
      "inputs": [
        {
          "internalType": "uint256",
          "name": "",
          "type": "uint256"
        }
      ],
      "name": "tokens",
      "outputs": [
        {
          "internalType": "address",
          "name": "",
          "type": "address"
        }
      ],
      "stateMutability": "view",
      "type": "function"
    },
    {
      "inputs": [
        {
          "internalType": "uint256",
          "name": "role",
          "type": "uint256"
        }
      ],
      "name": "updateMainCharacterCache",
      "outputs": [],
      "stateMutability": "nonpayable",
      "type": "function"
    },
    {
      "inputs": [
        {
          "internalType": "uint256",
          "name": "role",
          "type": "uint256"
        },
        {
          "internalType": "address",
          "name": "contr",
          "type": "address"
        }
      ],
      "name": "updateRoleCache",
      "outputs": [],
      "stateMutability": "nonpayable",
      "type": "function"
    }
  ],
  "bytecode": "0x60a06040523480156200001157600080fd5b50604051620012e7380380620012e78339810160408190526200003491620004d2565b806001600160a01b0381166200009c5760405162461bcd60e51b815260206004820152602260248201527f506c656173652070726f766964652076616c696420726f6c6573206164647265604482015261737360f01b60648201526084015b60405180910390fd5b60601b6001600160601b03191660805260028054600181018255600091909152606a7f405787fa12a823e0f2b7631cc41b3ba8828b3321ca811111fa75cd3aa3bb5ace909101558351835181148015620000f65750808351145b620001445760405162461bcd60e51b815260206004820152601360248201527f4c656e6774687320646f6e2774206d6174636800000000000000000000000000604482015260640162000093565b84516200015990600690602088019062000191565b5083516200016f90600790602087019062000191565b50825162000185906008906020860190620001fb565b505050505050620006a0565b828054828255906000526020600020908101928215620001e9579160200282015b82811115620001e957825182546001600160a01b0319166001600160a01b03909116178255602090920191600190910190620001b2565b50620001f79291506200025b565b5090565b8280548282559060005260206000209081019282156200024d579160200282015b828111156200024d57825180516200023c91849160209091019062000272565b50916020019190600101906200021c565b50620001f7929150620002ef565b5b80821115620001f757600081556001016200025c565b828054620002809062000637565b90600052602060002090601f016020900481019282620002a45760008555620001e9565b82601f10620002bf57805160ff1916838001178555620001e9565b82800160010185558215620001e9579182015b82811115620001e9578251825591602001919060010190620002d2565b80821115620001f757600062000306828262000310565b50600101620002ef565b5080546200031e9062000637565b6000825580601f1062000332575062000352565b601f0160209004906000526020600020908101906200035291906200025b565b50565b805162000362816200068a565b919050565b600082601f83011262000378578081fd5b81516020620003916200038b8362000611565b620005de565b80838252828201915082860187848660051b8901011115620003b1578586fd5b855b85811015620003dc578151620003c9816200068a565b84529284019290840190600101620003b3565b5090979650505050505050565b6000601f8381840112620003fb578182fd5b825160206200040e6200038b8362000611565b82815281810190868301865b85811015620004c457815189018a603f82011262000436578889fd5b808601516001600160401b0381111562000454576200045462000674565b62000467818a01601f19168801620005de565b81815260408d818486010111156200047d578b8cfd5b8b5b838110156200049c578481018201518382018b015289016200047f565b83811115620004ad578c8a85850101525b50508652505092840192908401906001016200041a565b509098975050505050505050565b60008060008060808587031215620004e8578384fd5b84516001600160401b0380821115620004ff578586fd5b818701915087601f83011262000513578586fd5b81516020620005266200038b8362000611565b8083825282820191508286018c848660051b890101111562000546578a8bfd5b8a96505b848710156200057557805162000560816200068a565b8352600196909601959183019183016200054a565b50918a01519198509093505050808211156200058f578485fd5b6200059d8883890162000367565b94506040870151915080821115620005b3578384fd5b50620005c287828801620003e9565b925050620005d36060860162000355565b905092959194509250565b604051601f8201601f191681016001600160401b038111828210171562000609576200060962000674565b604052919050565b60006001600160401b038211156200062d576200062d62000674565b5060051b60200190565b600181811c908216806200064c57607f821691505b602082108114156200066e57634e487b7160e01b600052602260045260246000fd5b50919050565b634e487b7160e01b600052604160045260246000fd5b6001600160a01b03811681146200035257600080fd5b60805160601c610c1b620006cc6000396000818160fa01528181610297015261036d0152610c1b6000f3fe608060405234801561001057600080fd5b50600436106100db5760003560e01c8063071060a6146100e0578063392f5f64146100f5578063447d52ba146101325780634a7a7f41146101455780634f64b2be1461015a578063614619541461016d5780636caa9c11146101755780637a1a04df146101965780637dad209b146101d4578063abcbc4fc146101dc578063aeb38d8b146101ef578063bf184ea414610202578063d574ea3d14610215578063dc94cb7d14610228578063e8ea4fae14610230578063e9c3f77d14610238578063f0ba844014610261575b600080fd5b6100f36100ee3660046109c5565b610281565b005b61011c7f000000000000000000000000000000000000000000000000000000000000000081565b6040516101299190610a0c565b60405180910390f35b6100f36101403660046109dd565b610347565b61014d61041f565b6040516101299190610ad7565b61011c6101683660046109c5565b610477565b6100f36104a1565b6101886101833660046109c5565b610697565b604051908152602001610129565b6101c46101a436600461097a565b600160209081526000928352604080842090915290825290205460ff1681565b6040519015158152602001610129565b61014d6106b8565b6101886101ea3660046109c5565b61070e565b6101886101fd3660046109c5565b61071e565b6101886102103660046109c5565b61072e565b61011c6102233660046109c5565b61073e565b61014d61074e565b61014d6107a4565b61011c6102463660046109c5565b6000602081905290815260409020546001600160a01b031681565b61027461026f3660046109c5565b6107fa565b6040516101299190610b1b565b60405163b4ed0b6d60e01b8152600481018290527f00000000000000000000000000000000000000000000000000000000000000006001600160a01b03169063b4ed0b6d9060240160206040518083038186803b1580156102e157600080fd5b505afa1580156102f5573d6000803e3d6000fd5b505050506040513d601f19601f820116820180604052508101906103199190610957565b60009182526020829052604090912080546001600160a01b0319166001600160a01b03909216919091179055565b60405163f0723d9760e01b81526001600160a01b038281166004830152602482018490527f0000000000000000000000000000000000000000000000000000000000000000169063f0723d979060440160206040518083038186803b1580156103af57600080fd5b505afa1580156103c3573d6000803e3d6000fd5b505050506040513d601f19601f820116820180604052508101906103e791906109a5565b6001600160a01b0391909116600090815260016020908152604080832094835293905291909120805460ff1916911515919091179055565b6060600380548060200260200160405190810160405280929190818152602001828054801561046d57602002820191906000526020600020905b815481526020019060010190808311610459575b5050505050905090565b6006818154811061048757600080fd5b6000918252602090912001546001600160a01b0316905081565b60065460005b8082111561066f576000600682815481106104d257634e487b7160e01b600052603260045260246000fd5b6000918252602082200154600780546001600160a01b039092169350908490811061050d57634e487b7160e01b600052603260045260246000fd5b600091825260209091200154604051634df87c0960e01b81526001600160a01b0390911691508190634df87c0990610549908590600401610a0c565b60206040518083038186803b15801561056157600080fd5b505afa158015610575573d6000803e3d6000fd5b505050506040513d601f19601f8201168201806040525081019061059991906109a5565b61065a57600783815481106105be57634e487b7160e01b600052603260045260246000fd5b600091825260209091200154600880546001600160a01b0390921691631f7ea8819185918790811061060057634e487b7160e01b600052603260045260246000fd5b906000526020600020016040518363ffffffff1660e01b8152600401610627929190610a20565b600060405180830381600087803b15801561064157600080fd5b505af1158015610655573d6000803e3d6000fd5b505050505b5050808061066790610ba9565b9150506104a7565b5061067c600660006108a6565b610688600760006108a6565b610694600860006108c7565b32ff5b600581815481106106a757600080fd5b600091825260209091200154905081565b6060600480548060200260200160405190810160405280929190818152602001828054801561046d5760200282019190600052602060002090815481526020019060010190808311610459575050505050905090565b600281815481106106a757600080fd5b600481815481106106a757600080fd5b600381815481106106a757600080fd5b6007818154811061048757600080fd5b6060600280548060200260200160405190810160405280929190818152602001828054801561046d5760200282019190600052602060002090815481526020019060010190808311610459575050505050905090565b6060600580548060200260200160405190810160405280929190818152602001828054801561046d5760200282019190600052602060002090815481526020019060010190808311610459575050505050905090565b6008818154811061080a57600080fd5b90600052602060002001600091509050805461082590610b6e565b80601f016020809104026020016040519081016040528092919081815260200182805461085190610b6e565b801561089e5780601f106108735761010080835404028352916020019161089e565b820191906000526020600020905b81548152906001019060200180831161088157829003601f168201915b505050505081565b50805460008255906000526020600020908101906108c491906108e5565b50565b50805460008255906000526020600020908101906108c491906108fe565b5b808211156108fa57600081556001016108e6565b5090565b808211156108fa576000610912828261091b565b506001016108fe565b50805461092790610b6e565b6000825580601f1061093957506108c4565b601f0160209004906000526020600020908101906108c491906108e5565b600060208284031215610968578081fd5b815161097381610bd0565b9392505050565b6000806040838503121561098c578081fd5b823561099781610bd0565b946020939093013593505050565b6000602082840312156109b6578081fd5b81518015158114610973578182fd5b6000602082840312156109d6578081fd5b5035919050565b600080604083850312156109ef578182fd5b823591506020830135610a0181610bd0565b809150509250929050565b6001600160a01b0391909116815260200190565b600060018060a01b0384168252602060408184015281845483600182811c915080831680610a4f57607f831692505b858310811415610a6d57634e487b7160e01b87526022600452602487fd5b6040880183905260608801818015610a8c5760018114610a9d57610ac7565b60ff19861682528782019650610ac7565b60008b815260209020895b86811015610ac157815484820152908501908901610aa8565b83019750505b50949a9950505050505050505050565b6020808252825182820181905260009190848201906040850190845b81811015610b0f57835183529284019291840191600101610af3565b50909695505050505050565b6000602080835283518082850152825b81811015610b4757858101830151858201604001528201610b2b565b81811115610b585783604083870101525b50601f01601f1916929092016040019392505050565b600181811c90821680610b8257607f821691505b60208210811415610ba357634e487b7160e01b600052602260045260246000fd5b50919050565b6000600019821415610bc957634e487b7160e01b81526011600452602481fd5b5060010190565b6001600160a01b03811681146108c457600080fdfea2646970667358221220707e5a056cccd5629925750475b8892e5c04eed0798febfdeda24a1fa7022ae564736f6c63430008030033",
  "linkReferences": {},
  "deployedLinkReferences": {}
}