{
  "_format": "hh-sol-artifact-1",
  "contractName": "IsolatedLendingLiquidation",
  "sourceName": "contracts/liquidation/IsolatedLendingLiquidation.sol",
  "abi": [
    {
      "inputs": [
        {
          "internalType": "address",
          "name": "_roles",
          "type": "address"
        }
      ],
      "stateMutability": "nonpayable",
      "type": "constructor"
    },
    {
      "anonymous": false,
      "inputs": [
        {
          "indexed": false,
          "internalType": "string",
          "name": "param",
          "type": "string"
        },
        {
          "indexed": false,
          "internalType": "uint256",
          "name": "value",
          "type": "uint256"
        }
      ],
      "name": "ParameterUpdated",
      "type": "event"
    },
    {
      "anonymous": false,
      "inputs": [
        {
          "indexed": false,
          "internalType": "string",
          "name": "param",
          "type": "string"
        },
        {
          "indexed": false,
          "internalType": "address",
          "name": "subject",
          "type": "address"
        },
        {
          "indexed": false,
          "internalType": "uint256",
          "name": "value",
          "type": "uint256"
        }
      ],
      "name": "SubjectParameterUpdated",
      "type": "event"
    },
    {
      "anonymous": false,
      "inputs": [
        {
          "indexed": false,
          "internalType": "string",
          "name": "param",
          "type": "string"
        },
        {
          "indexed": false,
          "internalType": "address",
          "name": "subject",
          "type": "address"
        }
      ],
      "name": "SubjectUpdated",
      "type": "event"
    },
    {
      "inputs": [
        {
          "internalType": "uint256",
          "name": "",
          "type": "uint256"
        }
      ],
      "name": "_charactersPlayed",
      "outputs": [
        {
          "internalType": "uint256",
          "name": "",
          "type": "uint256"
        }
      ],
      "stateMutability": "view",
      "type": "function"
    },
    {
      "inputs": [
        {
          "internalType": "uint256",
          "name": "",
          "type": "uint256"
        }
      ],
      "name": "_dependsOnCharacters",
      "outputs": [
        {
          "internalType": "uint256",
          "name": "",
          "type": "uint256"
        }
      ],
      "stateMutability": "view",
      "type": "function"
    },
    {
      "inputs": [
        {
          "internalType": "uint256",
          "name": "",
          "type": "uint256"
        }
      ],
      "name": "_dependsOnRoles",
      "outputs": [
        {
          "internalType": "uint256",
          "name": "",
          "type": "uint256"
        }
      ],
      "stateMutability": "view",
      "type": "function"
    },
    {
      "inputs": [
        {
          "internalType": "address",
          "name": "",
          "type": "address"
        },
        {
          "internalType": "address",
          "name": "",
          "type": "address"
        }
      ],
      "name": "_oracleCache",
      "outputs": [
        {
          "internalType": "address",
          "name": "",
          "type": "address"
        }
      ],
      "stateMutability": "view",
      "type": "function"
    },
    {
      "inputs": [
        {
          "internalType": "uint256",
          "name": "",
          "type": "uint256"
        }
      ],
      "name": "_rolesPlayed",
      "outputs": [
        {
          "internalType": "uint256",
          "name": "",
          "type": "uint256"
        }
      ],
      "stateMutability": "view",
      "type": "function"
    },
    {
      "inputs": [],
      "name": "charactersPlayed",
      "outputs": [
        {
          "internalType": "uint256[]",
          "name": "",
          "type": "uint256[]"
        }
      ],
      "stateMutability": "view",
      "type": "function"
    },
    {
      "inputs": [],
      "name": "defaultLiquidationRewardPer10k",
      "outputs": [
        {
          "internalType": "uint256",
          "name": "",
          "type": "uint256"
        }
      ],
      "stateMutability": "view",
      "type": "function"
    },
    {
      "inputs": [],
      "name": "defaultProtocolFeePer10k",
      "outputs": [
        {
          "internalType": "uint256",
          "name": "",
          "type": "uint256"
        }
      ],
      "stateMutability": "view",
      "type": "function"
    },
    {
      "inputs": [],
      "name": "dependsOnCharacters",
      "outputs": [
        {
          "internalType": "uint256[]",
          "name": "",
          "type": "uint256[]"
        }
      ],
      "stateMutability": "view",
      "type": "function"
    },
    {
      "inputs": [],
      "name": "dependsOnRoles",
      "outputs": [
        {
          "internalType": "uint256[]",
          "name": "",
          "type": "uint256[]"
        }
      ],
      "stateMutability": "view",
      "type": "function"
    },
    {
      "inputs": [
        {
          "internalType": "uint256",
          "name": "trancheId",
          "type": "uint256"
        },
        {
          "internalType": "uint256",
          "name": "collateralRequested",
          "type": "uint256"
        }
      ],
      "name": "getBidTargetAndProtocolCut",
      "outputs": [
        {
          "internalType": "uint256",
          "name": "",
          "type": "uint256"
        },
        {
          "internalType": "uint256",
          "name": "",
          "type": "uint256"
        }
      ],
      "stateMutability": "nonpayable",
      "type": "function"
    },
    {
      "inputs": [
        {
          "internalType": "uint256",
          "name": "trancheId",
          "type": "uint256"
        },
        {
          "internalType": "uint256",
          "name": "collateralRequested",
          "type": "uint256"
        },
        {
          "internalType": "uint256",
          "name": "rebalancingBid",
          "type": "uint256"
        },
        {
          "internalType": "address",
          "name": "recipient",
          "type": "address"
        }
      ],
      "name": "liquidate",
      "outputs": [],
      "stateMutability": "nonpayable",
      "type": "function"
    },
    {
      "inputs": [
        {
          "internalType": "uint256",
          "name": "trancheId",
          "type": "uint256"
        },
        {
          "internalType": "address",
          "name": "recipient",
          "type": "address"
        },
        {
          "internalType": "bytes",
          "name": "_data",
          "type": "bytes"
        }
      ],
      "name": "liquidateUnderwater",
      "outputs": [],
      "stateMutability": "nonpayable",
      "type": "function"
    },
    {
      "inputs": [
        {
          "internalType": "address",
          "name": "",
          "type": "address"
        }
      ],
      "name": "liquidationRewardPer10k",
      "outputs": [
        {
          "internalType": "uint256",
          "name": "",
          "type": "uint256"
        }
      ],
      "stateMutability": "view",
      "type": "function"
    },
    {
      "inputs": [
        {
          "internalType": "uint256",
          "name": "",
          "type": "uint256"
        }
      ],
      "name": "liquidationTstamp",
      "outputs": [
        {
          "internalType": "uint256",
          "name": "",
          "type": "uint256"
        }
      ],
      "stateMutability": "view",
      "type": "function"
    },
    {
      "inputs": [
        {
          "internalType": "uint256",
          "name": "",
          "type": "uint256"
        }
      ],
      "name": "mainCharacterCache",
      "outputs": [
        {
          "internalType": "address",
          "name": "",
          "type": "address"
        }
      ],
      "stateMutability": "view",
      "type": "function"
    },
    {
      "inputs": [
        {
          "internalType": "address",
          "name": "token",
          "type": "address"
        },
        {
          "internalType": "address",
          "name": "pegCurrency",
          "type": "address"
        }
      ],
      "name": "newCurrentOracle",
      "outputs": [],
      "stateMutability": "nonpayable",
      "type": "function"
    },
    {
      "inputs": [
        {
          "internalType": "address",
          "name": "",
          "type": "address"
        },
        {
          "internalType": "address",
          "name": "",
          "type": "address"
        },
        {
          "internalType": "uint256",
          "name": "",
          "type": "uint256"
        },
        {
          "internalType": "bytes",
          "name": "",
          "type": "bytes"
        }
      ],
      "name": "onERC721Received",
      "outputs": [
        {
          "internalType": "bytes4",
          "name": "",
          "type": "bytes4"
        }
      ],
      "stateMutability": "nonpayable",
      "type": "function"
    },
    {
      "inputs": [
        {
          "internalType": "address",
          "name": "",
          "type": "address"
        }
      ],
      "name": "protocolFeePer10k",
      "outputs": [
        {
          "internalType": "uint256",
          "name": "",
          "type": "uint256"
        }
      ],
      "stateMutability": "view",
      "type": "function"
    },
    {
      "inputs": [
        {
          "internalType": "uint256",
          "name": "amount",
          "type": "uint256"
        },
        {
          "internalType": "address",
          "name": "recipient",
          "type": "address"
        }
      ],
      "name": "rescueNative",
      "outputs": [],
      "stateMutability": "nonpayable",
      "type": "function"
    },
    {
      "inputs": [
        {
          "internalType": "address",
          "name": "token",
          "type": "address"
        },
        {
          "internalType": "uint256",
          "name": "amount",
          "type": "uint256"
        },
        {
          "internalType": "address",
          "name": "recipient",
          "type": "address"
        }
      ],
      "name": "rescueStrandedTokens",
      "outputs": [],
      "stateMutability": "nonpayable",
      "type": "function"
    },
    {
      "inputs": [
        {
          "internalType": "address",
          "name": "",
          "type": "address"
        },
        {
          "internalType": "uint256",
          "name": "",
          "type": "uint256"
        }
      ],
      "name": "roleCache",
      "outputs": [
        {
          "internalType": "bool",
          "name": "",
          "type": "bool"
        }
      ],
      "stateMutability": "view",
      "type": "function"
    },
    {
      "inputs": [],
      "name": "roles",
      "outputs": [
        {
          "internalType": "contract Roles",
          "name": "",
          "type": "address"
        }
      ],
      "stateMutability": "view",
      "type": "function"
    },
    {
      "inputs": [],
      "name": "rolesPlayed",
      "outputs": [
        {
          "internalType": "uint256[]",
          "name": "",
          "type": "uint256[]"
        }
      ],
      "stateMutability": "view",
      "type": "function"
    },
    {
      "inputs": [
        {
          "internalType": "uint256",
          "name": "liqSharePer10k",
          "type": "uint256"
        }
      ],
      "name": "setDefaultLiquidationRewardPer10k",
      "outputs": [],
      "stateMutability": "nonpayable",
      "type": "function"
    },
    {
      "inputs": [
        {
          "internalType": "address",
          "name": "token",
          "type": "address"
        },
        {
          "internalType": "uint256",
          "name": "liqSharePer10k",
          "type": "uint256"
        }
      ],
      "name": "setLiquidationRewardPer10k",
      "outputs": [],
      "stateMutability": "nonpayable",
      "type": "function"
    },
    {
      "inputs": [
        {
          "internalType": "address",
          "name": "token",
          "type": "address"
        },
        {
          "internalType": "uint256",
          "name": "protFeePer10k",
          "type": "uint256"
        }
      ],
      "name": "setProtcolFeePer10k",
      "outputs": [],
      "stateMutability": "nonpayable",
      "type": "function"
    },
    {
      "inputs": [
        {
          "internalType": "uint256",
          "name": "protFeePer10k",
          "type": "uint256"
        }
      ],
      "name": "setProtocolFeePer10k",
      "outputs": [],
      "stateMutability": "nonpayable",
      "type": "function"
    },
    {
      "inputs": [
        {
          "internalType": "uint256",
          "name": "role",
          "type": "uint256"
        }
      ],
      "name": "updateMainCharacterCache",
      "outputs": [],
      "stateMutability": "nonpayable",
      "type": "function"
    },
    {
      "inputs": [
        {
          "internalType": "uint256",
          "name": "role",
          "type": "uint256"
        },
        {
          "internalType": "address",
          "name": "contr",
          "type": "address"
        }
      ],
      "name": "updateRoleCache",
      "outputs": [],
      "stateMutability": "nonpayable",
      "type": "function"
    },
    {
      "inputs": [],
      "name": "viewAllFeesEver",
      "outputs": [
        {
          "internalType": "uint256",
          "name": "",
          "type": "uint256"
        }
      ],
      "stateMutability": "view",
      "type": "function"
    },
    {
      "inputs": [
        {
          "internalType": "uint256",
          "name": "trancheId",
          "type": "uint256"
        },
        {
          "internalType": "uint256",
          "name": "requestedCollateralValue",
          "type": "uint256"
        }
      ],
      "name": "viewBidTarget",
      "outputs": [
        {
          "internalType": "uint256",
          "name": "",
          "type": "uint256"
        }
      ],
      "stateMutability": "view",
      "type": "function"
    },
    {
      "inputs": [
        {
          "internalType": "address",
          "name": "token",
          "type": "address"
        }
      ],
      "name": "viewLiqSharePer10k",
      "outputs": [
        {
          "internalType": "uint256",
          "name": "liqShare",
          "type": "uint256"
        }
      ],
      "stateMutability": "view",
      "type": "function"
    },
    {
      "inputs": [
        {
          "internalType": "address",
          "name": "token",
          "type": "address"
        }
      ],
      "name": "viewLiquidationFeePer10k",
      "outputs": [
        {
          "internalType": "uint256",
          "name": "",
          "type": "uint256"
        }
      ],
      "stateMutability": "view",
      "type": "function"
    },
    {
      "inputs": [
        {
          "internalType": "address",
          "name": "token",
          "type": "address"
        }
      ],
      "name": "viewProtocolSharePer10k",
      "outputs": [
        {
          "internalType": "uint256",
          "name": "protocolShare",
          "type": "uint256"
        }
      ],
      "stateMutability": "view",
      "type": "function"
    }
  ],
  "bytecode": "0x60a06040526103e86009556096600a553480156200001c57600080fd5b5060405162002913380380620029138339810160408190526200003f91620001e6565b806001600160a01b038116620000a65760405162461bcd60e51b815260206004820152602260248201527f506c656173652070726f766964652076616c696420726f6c6573206164647265604482015261737360f01b606482015260840160405180910390fd5b60601b6001600160601b03191660805250600280546001808201835560667f405787fa12a823e0f2b7631cc41b3ba8828b3321ca811111fa75cd3aa3bb5ace9283015582548082018455606b908301558254808201845560679083015560038054808301825560067fc2575a0e9e593c00f959f8c92f12db2869c3395a3b0502d05e2516446f71f85b91820181905585548085018755606a950194909455815480840190925560079101559081905560058054808301825560047f036b6384b5eca791c62761152d0c79bb0604c104a5fb6f4eb0703f3154bb3db09182018190558254808501845582019490945581548084018355810182905581548084019092550181905581549081018255600091909152606e7f8a35acfbc15ff81a39ae7d344fd709f28e8600b4aa8c65c6b64bfe7fe36bd19b9091015562000216565b600060208284031215620001f8578081fd5b81516001600160a01b03811681146200020f578182fd5b9392505050565b60805160601c6126bb62000258600039600081816102de015281816109fe0152818161123301528181611a1001528181611aa80152611b2f01526126bb6000f3fe608060405234801561001057600080fd5b50600436106101a15760003560e01c80630380b4ed146101a657806304a75a2a146101bb57806306398a5e146101ce578063071060a6146102015780630cb1975c146102145780630d74962814610227578063150b7a021461023057806318af4c9e146102675780632642b6061461027a57806328f3fc73146102c6578063392f5f64146102d9578063420612de14610300578063447d52ba146103135780634524029f1461032657806349d4f22e1461032f5780634a7a7f41146103425780634ab5a0471461035757806354b47176146103605780636caa9c1114610373578063717d6ef814610386578063776140671461039957806379ac442e146103ac5780637a1a04df146103bf5780637ae3c7a6146103fd5780637dad209b14610410578063929460f414610418578063a1f4e93c1461042b578063abcbc4fc1461044b578063aeb38d8b1461045e578063bf184ea414610471578063dc94cb7d14610484578063e42f0c951461048c578063e8ea4fae146104ac578063e9c3f77d146104b4578063f7726d28146104dd575b600080fd5b6101b96101b436600461217b565b610505565b005b6101b96101c936600461225b565b6105de565b6101ee6101dc366004612033565b600b6020526000908152604090205481565b6040519081526020015b60405180910390f35b6101b961020f366004612207565b6109e8565b6101b96102223660046122ff565b610aae565b6101ee600d5481565b61024e61023e3660046120a3565b630a85bd0160e11b949350505050565b6040516001600160e01b031990911681526020016101f8565b6101b9610275366004612237565b610fe0565b6102ae61028836600461206b565b60076020908152600092835260408084209091529082529020546001600160a01b031681565b6040516001600160a01b0390911681526020016101f8565b6101b96102d436600461206b565b61108a565b6102ae7f000000000000000000000000000000000000000000000000000000000000000081565b6101b961030e366004612207565b61117d565b6101b9610321366004612237565b61121c565b6101ee60095481565b6101b961033d3660046121a6565b6112f2565b61034a611375565b6040516101f891906123df565b6101ee600a5481565b6101ee61036e366004612033565b6113cd565b6101ee610381366004612207565b6113f5565b6101ee610394366004612033565b611416565b6101ee6103a7366004612033565b61143a565b6101b96103ba366004612207565b611460565b6103ed6103cd36600461217b565b600160209081526000928352604080842090915290825290205460ff1681565b60405190151581526020016101f8565b6101b961040b36600461217b565b6114fa565b61034a6115c0565b6101ee6104263660046122de565b611616565b6101ee610439366004612207565b600c6020526000908152604090205481565b6101ee610459366004612207565b6116d3565b6101ee61046c366004612207565b6116e3565b6101ee61047f366004612207565b6116f3565b61034a611703565b6101ee61049a366004612033565b60086020526000908152604090205481565b61034a611759565b6102ae6104c2366004612207565b6000602081905290815260409020546001600160a01b031681565b6104f06104eb3660046122de565b6117af565b604080519283526020830191909152016101f8565b3361050e611a0c565b6001600160a01b03161480610532575033610527611aa4565b6001600160a01b0316145b8061054c575033610541611b15565b6001600160a01b0316145b6105715760405162461bcd60e51b8152600401610568906124d4565b60405180910390fd5b6001600160a01b0382166000818152600b602090815260409182902084905581516060808252600c908201526b70726f746f636f6c2066656560a01b60808201529081019290925281018290526000805160206126668339815191529060a0015b60405180910390a15050565b600260065414156106015760405162461bcd60e51b81526004016105689061252c565b60026006908155336000908152600160209081526040808320938352929052205460ff168061063f575033610634611b15565b6001600160a01b0316145b8061065957503361064e611a0c565b6001600160a01b0316145b80610673575033610668611aa4565b6001600160a01b0316145b6106d55760405162461bcd60e51b815260206004820152602d60248201527f43616c6c6572206e6f7420617574686f72697a656420746f206c69717569646160448201526c3a32903ab73232b93bb0ba32b960991b6064820152608401610568565b60006106df611b79565b604051630358e41160e21b8152600481018790529091506000906001600160a01b03831690630d6390449060240160206040518083038186803b15801561072557600080fd5b505afa158015610739573d6000803e3d6000fd5b505050506040513d601f19601f8201168201806040525081019061075d919061221f565b60405163f6ee21bd60e01b8152600481018890529091506000906001600160a01b0384169063f6ee21bd9060240160206040518083038186803b1580156107a357600080fd5b505afa1580156107b7573d6000803e3d6000fd5b505050506040513d601f19601f820116820180604052508101906107db919061221f565b604051632c97897d60e21b8152600481018990529091506001600160a01b0384169063b25e25f49060240160206040518083038186803b15801561081e57600080fd5b505afa158015610832573d6000803e3d6000fd5b505050506040513d601f19601f8201168201806040525081019061085691906121e7565b156108a15760405162461bcd60e51b815260206004820152601b60248201527a5472616e636865206973206e6f74206c6971756964617461626c6560281b6044820152606401610568565b8082116108e95760405162461bcd60e51b81526020600482015260166024820152752a3930b731b432903737ba103ab73232b93bb0ba32b960511b6044820152606401610568565b6108f1611b79565b6001600160a01b031663b88d4fde610907611b79565b6001600160a01b0316636352211e8a6040518263ffffffff1660e01b815260040161093491815260200190565b60206040518083038186803b15801561094c57600080fd5b505afa158015610960573d6000803e3d6000fd5b505050506040513d601f19601f82011682018060405250810190610984919061204f565b888a89896040518663ffffffff1660e01b81526004016109a8959493929190612375565b600060405180830381600087803b1580156109c257600080fd5b505af11580156109d6573d6000803e3d6000fd5b50506001600655505050505050505050565b60405163b4ed0b6d60e01b8152600481018290527f00000000000000000000000000000000000000000000000000000000000000006001600160a01b03169063b4ed0b6d9060240160206040518083038186803b158015610a4857600080fd5b505afa158015610a5c573d6000803e3d6000fd5b505050506040513d601f19601f82011682018060405250810190610a80919061204f565b60009182526020829052604090912080546001600160a01b0319166001600160a01b03909216919091179055565b60026006541415610ad15760405162461bcd60e51b81526004016105689061252c565b60026006556001600160a01b038116610afc5760405162461bcd60e51b8152600401610568906124a0565b6000610b06611b79565b90506000610b12611bb1565b6040516331a9108f60e11b8152600481018890529091506000906001600160a01b03841690636352211e9060240160206040518083038186803b158015610b5857600080fd5b505afa158015610b6c573d6000803e3d6000fd5b505050506040513d601f19601f82011682018060405250810190610b90919061204f565b9050610bc0816001600160a01b031660009081526001602090815260408083206007845290915290205460ff1690565b15610c0d5760405162461bcd60e51b815260206004820152601e60248201527f4f776e6572206973206c69717569646174696f6e2070726f74656374656400006044820152606401610568565b60405163f8903fb760e01b8152600481018890526001600160a01b038381166024830152828116604483015284169063f8903fb790606401602060405180830381600087803b158015610c5f57600080fd5b505af1158015610c73573d6000803e3d6000fd5b505050506040513d601f19601f82011682018060405250810190610c97919061221f565b50604051632c97897d60e21b8152600481018890526001600160a01b0384169063b25e25f49060240160206040518083038186803b158015610cd857600080fd5b505afa158015610cec573d6000803e3d6000fd5b505050506040513d601f19601f82011682018060405250810190610d1091906121e7565b15610d585760405162461bcd60e51b81526020600482015260186024820152775472616e636865206e6f74206c6971756964617461626c6560401b6044820152606401610568565b600080610d6589896117af565b9150915081871015610db95760405162461bcd60e51b815260206004820181905260248201527f496e737566696369656e74206465627420726562616c616e63696e67206269646044820152606401610568565b604051632770a7eb60e21b81526001600160a01b03851690639dc29fac90610de79033908b906004016123c6565b600060405180830381600087803b158015610e0157600080fd5b505af1158015610e15573d6000803e3d6000fd5b50505050836001600160a01b03166340c10f1930838a610e3591906125ba565b6040518363ffffffff1660e01b8152600401610e529291906123c6565b600060405180830381600087803b158015610e6c57600080fd5b505af1158015610e80573d6000803e3d6000fd5b50505050846001600160a01b03166379bc3efa8a8a848b610ea191906125ba565b6040516001600160e01b031960e086901b1681526004810193909352602483019190915260448201526001600160a01b0389166064820152608401600060405180830381600087803b158015610ef657600080fd5b505af1158015610f0a573d6000803e3d6000fd5b50505050836001600160a01b03166340c10f19610f58606760009081526020527f682158d08466d11c566d5712d4396197fdd67e65be71d83c97ef719ec468867b546001600160a01b031690565b836040518363ffffffff1660e01b8152600401610f769291906123c6565b600060405180830381600087803b158015610f9057600080fd5b505af1158015610fa4573d6000803e3d6000fd5b5050505080600d6000828254610fba9190612563565b90915550505060009788525050600c602052505060409093204290555050600160065550565b33610fe9611a0c565b6001600160a01b0316148061100d575033611002611aa4565b6001600160a01b0316145b6110295760405162461bcd60e51b815260040161056890612456565b6001600160a01b03811661104f5760405162461bcd60e51b8152600401610568906124a0565b6040516001600160a01b0382169083156108fc029084906000818181858888f19350505050158015611085573d6000803e3d6000fd5b505050565b6001600160a01b03828116600090815260076020908152604080832085851684529091529020541615611179576110bf611be9565b6001600160a01b0316635e73a03483836040518363ffffffff1660e01b81526004016110ec92919061235b565b60206040518083038186803b15801561110457600080fd5b505afa158015611118573d6000803e3d6000fd5b505050506040513d601f19601f8201168201806040525081019061113c919061204f565b6001600160a01b0383811660009081526007602090815260408083208685168452909152902080546001600160a01b031916929091169190911790555b5050565b33611186611a0c565b6001600160a01b031614806111aa57503361119f611aa4565b6001600160a01b0316145b6111c65760405162461bcd60e51b815260040161056890612456565b60098190556040805181815260129181019190915271191959985d5b1d081b1a5c481c995dd85c9960721b606082015260208101829052600080516020612646833981519152906080015b60405180910390a150565b60405163f0723d9760e01b81526001600160a01b037f0000000000000000000000000000000000000000000000000000000000000000169063f0723d979061126a90849086906004016123c6565b60206040518083038186803b15801561128257600080fd5b505afa158015611296573d6000803e3d6000fd5b505050506040513d601f19601f820116820180604052508101906112ba91906121e7565b6001600160a01b0391909116600090815260016020908152604080832094835293905291909120805460ff1916911515919091179055565b336112fb611a0c565b6001600160a01b0316148061131f575033611314611aa4565b6001600160a01b0316145b61133b5760405162461bcd60e51b815260040161056890612456565b6001600160a01b0381166113615760405162461bcd60e51b8152600401610568906124a0565b6110856001600160a01b0384168284611c21565b606060038054806020026020016040519081016040528092919081815260200182805480156113c357602002820191906000526020600020905b8154815260200190600101908083116113af575b5050505050905090565b6001600160a01b038116600090815260086020526040902054806113f057506009545b919050565b6005818154811061140557600080fd5b600091825260209091200154905081565b6000611421826113cd565b61142a8361143a565b6114349190612563565b92915050565b6001600160a01b0381166000908152600b6020526040902054806113f0575050600a5490565b33611469611a0c565b6001600160a01b0316148061148d575033611482611aa4565b6001600160a01b0316145b6114a95760405162461bcd60e51b815260040161056890612456565b600a819055604080518181526014918101919091527364656661756c742070726f746f636f6c2066656560601b60608201526020810182905260008051602061264683398151915290608001611211565b33611503611a0c565b6001600160a01b0316148061152757503361151c611aa4565b6001600160a01b0316145b80611541575033611536611b15565b6001600160a01b0316145b61155d5760405162461bcd60e51b8152600401610568906124d4565b6001600160a01b03821660008181526008602090815260409182902084905581516060808252600a90820152691b1a5c481c995dd85c9960b21b60808201529081019290925281018290526000805160206126668339815191529060a0016105d2565b606060048054806020026020016040519081016040528092919081815260200182805480156113c357602002820191906000526020600020908154815260200190600101908083116113af575050505050905090565b600080611621611b79565b90506000612710846116aa846001600160a01b031663fabee7db896040518263ffffffff1660e01b815260040161165a91815260200190565b60206040518083038186803b15801561167257600080fd5b505afa158015611686573d6000803e3d6000fd5b505050506040513d601f19601f8201168201806040525081019061036e919061204f565b6116b6906127106125ba565b6116c0919061259b565b6116ca919061257b565b95945050505050565b6002818154811061140557600080fd5b6004818154811061140557600080fd5b6003818154811061140557600080fd5b606060028054806020026020016040519081016040528092919081815260200182805480156113c357602002820191906000526020600020908154815260200190600101908083116113af575050505050905090565b606060058054806020026020016040519081016040528092919081815260200182805480156113c357602002820191906000526020600020908154815260200190600101908083116113af575050505050905090565b60008060006117bc611b79565b60405163fabee7db60e01b8152600481018790529091506000906001600160a01b0383169063fabee7db9060240160206040518083038186803b15801561180257600080fd5b505afa158015611816573d6000803e3d6000fd5b505050506040513d601f19601f8201168201806040525081019061183a919061204f565b90506000611850828761184b611bb1565b611c77565b905060008682856001600160a01b031663c5c72dc38b6040518263ffffffff1660e01b815260040161188491815260200190565b60206040518083038186803b15801561189c57600080fd5b505afa1580156118b0573d6000803e3d6000fd5b505050506040513d601f19601f820116820180604052508101906118d4919061221f565b6118de919061259b565b6118e8919061257b565b905060006118f68984611616565b604051630358e41160e21b8152600481018b90529091506000906001600160a01b03871690630d6390449060240160206040518083038186803b15801561193c57600080fd5b505afa158015611950573d6000803e3d6000fd5b505050506040513d601f19601f82011682018060405250810190611974919061221f565b905060006119818661143a565b905060006119f9612710611995888561259b565b61199f919061257b565b6119a986866125ba565b6119b389896125ba565b116119bf5760006119f4565b60646119cb87876125ba565b6119d58a8a6125ba565b6119df91906125ba565b6119ea90602861259b565b6119f4919061257b565b611d1d565b939c939b50929950505050505050505050565b60007f00000000000000000000000000000000000000000000000000000000000000006001600160a01b0316638da5cb5b6040518163ffffffff1660e01b815260040160206040518083038186803b158015611a6757600080fd5b505afa158015611a7b573d6000803e3d6000fd5b505050506040513d601f19601f82011682018060405250810190611a9f919061204f565b905090565b60007f00000000000000000000000000000000000000000000000000000000000000006001600160a01b031663c34c08e56040518163ffffffff1660e01b8152600401602060405180830381600087803b158015611b0157600080fd5b505af1158015611a7b573d6000803e3d6000fd5b60405163b4ed0b6d60e01b81526103e960048201526000907f00000000000000000000000000000000000000000000000000000000000000006001600160a01b03169063b4ed0b6d9060240160206040518083038186803b158015611a6757600080fd5b606b60009081526020527f2dc7a963308417ad45132da282495eb244f38a7db03940a4d808be607669c622546001600160a01b031690565b606660009081526020527f422cccb7cea5c0e46f340bb7b21b81debac329f72e31669c20ff0f3a05cc2b5b546001600160a01b031690565b606a60009081526020527ff3261457f4fd0b7c00a1511877ab27b74183ac470be8db3a7ecdc64335f6f979546001600160a01b031690565b6110858363a9059cbb60e01b8484604051602401611c409291906123c6565b60408051601f198184030181529190526020810180516001600160e01b03166001600160e01b031990931692909217909152611d35565b600080611c848584611e07565b604051630576cbc360e41b81526001600160a01b0387811660048301526024820187905285811660448301529192509082169063576cbc3090606401602060405180830381600087803b158015611cda57600080fd5b505af1158015611cee573d6000803e3d6000fd5b505050506040513d601f19601f82011682018060405250810190611d12919061221f565b9150505b9392505050565b600081831115611d2e575080611434565b5081611434565b6000611d8a826040518060400160405280602081526020017f5361666545524332303a206c6f772d6c6576656c2063616c6c206661696c6564815250856001600160a01b0316611ebb9092919063ffffffff16565b8051909150156110855780806020019051810190611da891906121e7565b6110855760405162461bcd60e51b815260206004820152602a60248201527f5361666545524332303a204552433230206f7065726174696f6e20646964206e6044820152691bdd081cdd58d8d9595960b21b6064820152608401610568565b6001600160a01b0380831660009081526007602090815260408083208585168452909152902054168061143457611e3c611be9565b6001600160a01b0316631757616884846040518363ffffffff1660e01b8152600401611e6992919061235b565b602060405180830381600087803b158015611e8357600080fd5b505af1158015611e97573d6000803e3d6000fd5b505050506040513d601f19601f82011682018060405250810190611d16919061204f565b6060611eca8484600085611ed2565b949350505050565b606082471015611f335760405162461bcd60e51b815260206004820152602660248201527f416464726573733a20696e73756666696369656e742062616c616e636520666f6044820152651c8818d85b1b60d21b6064820152608401610568565b843b611f815760405162461bcd60e51b815260206004820152601d60248201527f416464726573733a2063616c6c20746f206e6f6e2d636f6e74726163740000006044820152606401610568565b600080866001600160a01b03168587604051611f9d919061233f565b60006040518083038185875af1925050503d8060008114611fda576040519150601f19603f3d011682016040523d82523d6000602084013e611fdf565b606091505b5091509150611fef828286611ffa565b979650505050505050565b60608315612009575081611d16565b8251156120195782518084602001fd5b8160405162461bcd60e51b81526004016105689190612423565b600060208284031215612044578081fd5b8135611d168161262d565b600060208284031215612060578081fd5b8151611d168161262d565b6000806040838503121561207d578081fd5b82356120888161262d565b915060208301356120988161262d565b809150509250929050565b600080600080608085870312156120b8578182fd5b84356120c38161262d565b935060208501356120d38161262d565b92506040850135915060608501356001600160401b03808211156120f5578283fd5b818701915087601f830112612108578283fd5b81358181111561211a5761211a612617565b604051601f8201601f19908116603f0116810190838211818310171561214257612142612617565b816040528281528a602084870101111561215a578586fd5b82602086016020830137918201602001949094529598949750929550505050565b6000806040838503121561218d578182fd5b82356121988161262d565b946020939093013593505050565b6000806000606084860312156121ba578283fd5b83356121c58161262d565b92506020840135915060408401356121dc8161262d565b809150509250925092565b6000602082840312156121f8578081fd5b81518015158114611d16578182fd5b600060208284031215612218578081fd5b5035919050565b600060208284031215612230578081fd5b5051919050565b60008060408385031215612249578182fd5b8235915060208301356120988161262d565b60008060008060608587031215612270578384fd5b8435935060208501356122828161262d565b925060408501356001600160401b038082111561229d578384fd5b818701915087601f8301126122b0578384fd5b8135818111156122be578485fd5b8860208285010111156122cf578485fd5b95989497505060200194505050565b600080604083850312156122f0578182fd5b50508035926020909101359150565b60008060008060808587031215612314578384fd5b84359350602085013592506040850135915060608501356123348161262d565b939692955090935050565b600082516123518184602087016125d1565b9190910192915050565b6001600160a01b0392831681529116602082015260400190565b6001600160a01b038681168252851660208201526040810184905260806060820181905281018290526000828460a084013781830160a090810191909152601f909201601f19160101949350505050565b6001600160a01b03929092168252602082015260400190565b6020808252825182820181905260009190848201906040850190845b81811015612417578351835292840192918401916001016123fb565b50909695505050505050565b60006020825282518060208401526124428160408501602087016125d1565b601f01601f19169190910160400192915050565b6020808252602a908201527f526f6c65733a2063616c6c6572206973206e6f7420746865206f776e6572206f604082015269391032bc32b1baba37b960b11b606082015260800190565b6020808252601a9082015279446f6e27742073656e6420746f207a65726f206164647265737360301b604082015260600190565b60208082526038908201527f43616c6c6572206973206e6f7420746865206f776e65722c206578656375746f604082015277391037b91030baba3437b934bd32b2103234b9b0b13632b960411b606082015260800190565b6020808252601f908201527f5265656e7472616e637947756172643a207265656e7472616e742063616c6c00604082015260600190565b6000821982111561257657612576612601565b500190565b60008261259657634e487b7160e01b81526012600452602481fd5b500490565b60008160001904831182151516156125b5576125b5612601565b500290565b6000828210156125cc576125cc612601565b500390565b60005b838110156125ec5781810151838201526020016125d4565b838111156125fb576000848401525b50505050565b634e487b7160e01b600052601160045260246000fd5b634e487b7160e01b600052604160045260246000fd5b6001600160a01b038116811461264257600080fd5b5056fe3a64504f0bc0c335e2aecb78638a257e0351a3fe0370861fd54ee4190b9209332cc0b19d71980380c7a99113dc265ee16b9f7f394e2a42085ab6877482a7f822a264697066735822122044ce6eab9696b04b6185b3a000e74137e3fb0060cb045972a111b8601943dac764736f6c63430008030033",
  "linkReferences": {},
  "deployedLinkReferences": {}
}