{
  "_format": "hh-sol-artifact-1",
  "contractName": "StakingRewardsStrategy",
  "sourceName": "contracts/strategies/StakingRewardsStrategy.sol",
  "abi": [
    {
      "inputs": [
        {
          "internalType": "bytes32",
          "name": "stratName",
          "type": "bytes32"
        },
        {
          "internalType": "address",
          "name": "_rewardToken",
          "type": "address"
        },
        {
          "internalType": "address",
          "name": "_roles",
          "type": "address"
        }
      ],
      "stateMutability": "nonpayable",
      "type": "constructor"
    },
    {
      "anonymous": false,
      "inputs": [
        {
          "indexed": false,
          "internalType": "string",
          "name": "param",
          "type": "string"
        },
        {
          "indexed": false,
          "internalType": "uint256",
          "name": "value",
          "type": "uint256"
        }
      ],
      "name": "ParameterUpdated",
      "type": "event"
    },
    {
      "anonymous": false,
      "inputs": [
        {
          "indexed": false,
          "internalType": "string",
          "name": "param",
          "type": "string"
        },
        {
          "indexed": false,
          "internalType": "address",
          "name": "subject",
          "type": "address"
        },
        {
          "indexed": false,
          "internalType": "uint256",
          "name": "value",
          "type": "uint256"
        }
      ],
      "name": "SubjectParameterUpdated",
      "type": "event"
    },
    {
      "anonymous": false,
      "inputs": [
        {
          "indexed": false,
          "internalType": "string",
          "name": "param",
          "type": "string"
        },
        {
          "indexed": false,
          "internalType": "address",
          "name": "subject",
          "type": "address"
        }
      ],
      "name": "SubjectUpdated",
      "type": "event"
    },
    {
      "stateMutability": "payable",
      "type": "fallback"
    },
    {
      "inputs": [
        {
          "internalType": "uint256",
          "name": "",
          "type": "uint256"
        }
      ],
      "name": "_accounts",
      "outputs": [
        {
          "internalType": "uint256",
          "name": "collateral",
          "type": "uint256"
        },
        {
          "internalType": "uint256",
          "name": "yieldCheckptIdx",
          "type": "uint256"
        },
        {
          "internalType": "address",
          "name": "trancheToken",
          "type": "address"
        }
      ],
      "stateMutability": "view",
      "type": "function"
    },
    {
      "inputs": [
        {
          "internalType": "uint256",
          "name": "",
          "type": "uint256"
        }
      ],
      "name": "_charactersPlayed",
      "outputs": [
        {
          "internalType": "uint256",
          "name": "",
          "type": "uint256"
        }
      ],
      "stateMutability": "view",
      "type": "function"
    },
    {
      "inputs": [
        {
          "internalType": "uint256",
          "name": "",
          "type": "uint256"
        }
      ],
      "name": "_dependsOnCharacters",
      "outputs": [
        {
          "internalType": "uint256",
          "name": "",
          "type": "uint256"
        }
      ],
      "stateMutability": "view",
      "type": "function"
    },
    {
      "inputs": [
        {
          "internalType": "uint256",
          "name": "",
          "type": "uint256"
        }
      ],
      "name": "_dependsOnRoles",
      "outputs": [
        {
          "internalType": "uint256",
          "name": "",
          "type": "uint256"
        }
      ],
      "stateMutability": "view",
      "type": "function"
    },
    {
      "inputs": [
        {
          "internalType": "address",
          "name": "",
          "type": "address"
        },
        {
          "internalType": "address",
          "name": "",
          "type": "address"
        }
      ],
      "name": "_oracleCache",
      "outputs": [
        {
          "internalType": "address",
          "name": "",
          "type": "address"
        }
      ],
      "stateMutability": "view",
      "type": "function"
    },
    {
      "inputs": [
        {
          "internalType": "uint256",
          "name": "",
          "type": "uint256"
        }
      ],
      "name": "_rolesPlayed",
      "outputs": [
        {
          "internalType": "uint256",
          "name": "",
          "type": "uint256"
        }
      ],
      "stateMutability": "view",
      "type": "function"
    },
    {
      "inputs": [
        {
          "internalType": "address",
          "name": "token",
          "type": "address"
        }
      ],
      "name": "_viewTVL",
      "outputs": [
        {
          "internalType": "uint256",
          "name": "",
          "type": "uint256"
        }
      ],
      "stateMutability": "view",
      "type": "function"
    },
    {
      "inputs": [
        {
          "internalType": "uint256",
          "name": "trancheId",
          "type": "uint256"
        },
        {
          "internalType": "address",
          "name": "sourceStrategy",
          "type": "address"
        },
        {
          "internalType": "address",
          "name": "tokenContract",
          "type": "address"
        },
        {
          "internalType": "uint256",
          "name": "",
          "type": "uint256"
        },
        {
          "internalType": "uint256",
          "name": "amount",
          "type": "uint256"
        }
      ],
      "name": "acceptMigration",
      "outputs": [],
      "stateMutability": "nonpayable",
      "type": "function"
    },
    {
      "inputs": [],
      "name": "apfSmoothingPer10k",
      "outputs": [
        {
          "internalType": "uint256",
          "name": "",
          "type": "uint256"
        }
      ],
      "stateMutability": "view",
      "type": "function"
    },
    {
      "inputs": [
        {
          "internalType": "address",
          "name": "token",
          "type": "address"
        },
        {
          "internalType": "bytes",
          "name": "data",
          "type": "bytes"
        }
      ],
      "name": "approveToken",
      "outputs": [],
      "stateMutability": "nonpayable",
      "type": "function"
    },
    {
      "inputs": [
        {
          "internalType": "address",
          "name": "token",
          "type": "address"
        }
      ],
      "name": "approvedToken",
      "outputs": [
        {
          "internalType": "bool",
          "name": "",
          "type": "bool"
        }
      ],
      "stateMutability": "view",
      "type": "function"
    },
    {
      "inputs": [],
      "name": "approvedTokensCount",
      "outputs": [
        {
          "internalType": "uint256",
          "name": "",
          "type": "uint256"
        }
      ],
      "stateMutability": "view",
      "type": "function"
    },
    {
      "inputs": [],
      "name": "charactersPlayed",
      "outputs": [
        {
          "internalType": "uint256[]",
          "name": "",
          "type": "uint256[]"
        }
      ],
      "stateMutability": "view",
      "type": "function"
    },
    {
      "inputs": [
        {
          "internalType": "address",
          "name": "token",
          "type": "address"
        },
        {
          "internalType": "address",
          "name": "stakingContract",
          "type": "address"
        }
      ],
      "name": "checkApprovedAndEncode",
      "outputs": [
        {
          "internalType": "bool",
          "name": "",
          "type": "bool"
        },
        {
          "internalType": "bytes",
          "name": "",
          "type": "bytes"
        }
      ],
      "stateMutability": "view",
      "type": "function"
    },
    {
      "inputs": [
        {
          "internalType": "uint256",
          "name": "trancheId",
          "type": "uint256"
        },
        {
          "internalType": "address",
          "name": "currency",
          "type": "address"
        },
        {
          "internalType": "address",
          "name": "recipient",
          "type": "address"
        }
      ],
      "name": "collectYield",
      "outputs": [
        {
          "internalType": "uint256",
          "name": "",
          "type": "uint256"
        }
      ],
      "stateMutability": "nonpayable",
      "type": "function"
    },
    {
      "inputs": [
        {
          "internalType": "uint256",
          "name": "trancheId",
          "type": "uint256"
        },
        {
          "internalType": "address",
          "name": "_yieldCurrency",
          "type": "address"
        },
        {
          "internalType": "address",
          "name": "valueCurrency",
          "type": "address"
        },
        {
          "internalType": "address",
          "name": "recipient",
          "type": "address"
        }
      ],
      "name": "collectYieldValueBorrowable",
      "outputs": [
        {
          "internalType": "uint256",
          "name": "yield",
          "type": "uint256"
        },
        {
          "internalType": "uint256",
          "name": "value",
          "type": "uint256"
        },
        {
          "internalType": "uint256",
          "name": "borrowablePer10k",
          "type": "uint256"
        }
      ],
      "stateMutability": "nonpayable",
      "type": "function"
    },
    {
      "inputs": [
        {
          "internalType": "uint256",
          "name": "rewardAmount",
          "type": "uint256"
        },
        {
          "internalType": "uint256",
          "name": "targetBid",
          "type": "uint256"
        }
      ],
      "name": "convertReward2Stable",
      "outputs": [],
      "stateMutability": "nonpayable",
      "type": "function"
    },
    {
      "inputs": [
        {
          "internalType": "address",
          "name": "",
          "type": "address"
        }
      ],
      "name": "cumulHarvestedStableTallied",
      "outputs": [
        {
          "internalType": "uint256",
          "name": "",
          "type": "uint256"
        }
      ],
      "stateMutability": "view",
      "type": "function"
    },
    {
      "inputs": [],
      "name": "cumulRewardAllAssets",
      "outputs": [
        {
          "internalType": "uint256",
          "name": "",
          "type": "uint256"
        }
      ],
      "stateMutability": "view",
      "type": "function"
    },
    {
      "inputs": [
        {
          "internalType": "address",
          "name": "",
          "type": "address"
        }
      ],
      "name": "cumulRewardPerAsset",
      "outputs": [
        {
          "internalType": "uint256",
          "name": "",
          "type": "uint256"
        }
      ],
      "stateMutability": "view",
      "type": "function"
    },
    {
      "inputs": [],
      "name": "cumulStableConvertedFromReward",
      "outputs": [
        {
          "internalType": "uint256",
          "name": "",
          "type": "uint256"
        }
      ],
      "stateMutability": "view",
      "type": "function"
    },
    {
      "inputs": [],
      "name": "dependsOnCharacters",
      "outputs": [
        {
          "internalType": "uint256[]",
          "name": "",
          "type": "uint256[]"
        }
      ],
      "stateMutability": "view",
      "type": "function"
    },
    {
      "inputs": [],
      "name": "dependsOnRoles",
      "outputs": [
        {
          "internalType": "uint256[]",
          "name": "",
          "type": "uint256[]"
        }
      ],
      "stateMutability": "view",
      "type": "function"
    },
    {
      "inputs": [
        {
          "internalType": "address",
          "name": "token",
          "type": "address"
        },
        {
          "internalType": "bytes",
          "name": "",
          "type": "bytes"
        }
      ],
      "name": "disapproveToken",
      "outputs": [],
      "stateMutability": "nonpayable",
      "type": "function"
    },
    {
      "inputs": [],
      "name": "disapprovedTokensCount",
      "outputs": [
        {
          "internalType": "uint256",
          "name": "",
          "type": "uint256"
        }
      ],
      "stateMutability": "view",
      "type": "function"
    },
    {
      "inputs": [],
      "name": "feePer10k",
      "outputs": [
        {
          "internalType": "uint256",
          "name": "",
          "type": "uint256"
        }
      ],
      "stateMutability": "view",
      "type": "function"
    },
    {
      "inputs": [
        {
          "internalType": "address",
          "name": "token",
          "type": "address"
        }
      ],
      "name": "harvestPartially",
      "outputs": [],
      "stateMutability": "nonpayable",
      "type": "function"
    },
    {
      "inputs": [],
      "name": "isActive",
      "outputs": [
        {
          "internalType": "bool",
          "name": "",
          "type": "bool"
        }
      ],
      "stateMutability": "view",
      "type": "function"
    },
    {
      "inputs": [
        {
          "internalType": "uint256",
          "name": "",
          "type": "uint256"
        }
      ],
      "name": "mainCharacterCache",
      "outputs": [
        {
          "internalType": "address",
          "name": "",
          "type": "address"
        }
      ],
      "stateMutability": "view",
      "type": "function"
    },
    {
      "inputs": [
        {
          "internalType": "address",
          "name": "destination",
          "type": "address"
        }
      ],
      "name": "migrateAllTo",
      "outputs": [],
      "stateMutability": "nonpayable",
      "type": "function"
    },
    {
      "inputs": [
        {
          "internalType": "uint256",
          "name": "trancheId",
          "type": "uint256"
        },
        {
          "internalType": "address",
          "name": "targetStrategy",
          "type": "address"
        },
        {
          "internalType": "address",
          "name": "yieldToken",
          "type": "address"
        },
        {
          "internalType": "address",
          "name": "yieldRecipient",
          "type": "address"
        }
      ],
      "name": "migrateStrategy",
      "outputs": [
        {
          "internalType": "address",
          "name": "",
          "type": "address"
        },
        {
          "internalType": "uint256",
          "name": "",
          "type": "uint256"
        },
        {
          "internalType": "uint256",
          "name": "",
          "type": "uint256"
        }
      ],
      "stateMutability": "nonpayable",
      "type": "function"
    },
    {
      "inputs": [],
      "name": "minimumBidPer10k",
      "outputs": [
        {
          "internalType": "uint256",
          "name": "",
          "type": "uint256"
        }
      ],
      "stateMutability": "view",
      "type": "function"
    },
    {
      "inputs": [
        {
          "internalType": "address",
          "name": "token",
          "type": "address"
        },
        {
          "internalType": "address",
          "name": "pegCurrency",
          "type": "address"
        }
      ],
      "name": "newCurrentOracle",
      "outputs": [],
      "stateMutability": "nonpayable",
      "type": "function"
    },
    {
      "inputs": [
        {
          "internalType": "address",
          "name": "depositor",
          "type": "address"
        },
        {
          "internalType": "uint256",
          "name": "trancheId",
          "type": "uint256"
        },
        {
          "internalType": "uint256",
          "name": "amount",
          "type": "uint256"
        },
        {
          "internalType": "address",
          "name": "yieldRecipient",
          "type": "address"
        }
      ],
      "name": "registerDepositFor",
      "outputs": [],
      "stateMutability": "nonpayable",
      "type": "function"
    },
    {
      "inputs": [
        {
          "internalType": "address",
          "name": "minter",
          "type": "address"
        },
        {
          "internalType": "uint256",
          "name": "trancheId",
          "type": "uint256"
        },
        {
          "internalType": "address",
          "name": "assetToken",
          "type": "address"
        },
        {
          "internalType": "uint256",
          "name": "",
          "type": "uint256"
        },
        {
          "internalType": "uint256",
          "name": "assetAmount",
          "type": "uint256"
        }
      ],
      "name": "registerMintTranche",
      "outputs": [],
      "stateMutability": "nonpayable",
      "type": "function"
    },
    {
      "inputs": [
        {
          "internalType": "address",
          "name": "token",
          "type": "address"
        },
        {
          "internalType": "uint256",
          "name": "amount",
          "type": "uint256"
        },
        {
          "internalType": "address",
          "name": "recipient",
          "type": "address"
        }
      ],
      "name": "rescueCollateral",
      "outputs": [],
      "stateMutability": "nonpayable",
      "type": "function"
    },
    {
      "inputs": [
        {
          "internalType": "uint256",
          "name": "amount",
          "type": "uint256"
        },
        {
          "internalType": "address",
          "name": "recipient",
          "type": "address"
        }
      ],
      "name": "rescueNative",
      "outputs": [],
      "stateMutability": "nonpayable",
      "type": "function"
    },
    {
      "inputs": [
        {
          "internalType": "address",
          "name": "token",
          "type": "address"
        },
        {
          "internalType": "uint256",
          "name": "amount",
          "type": "uint256"
        },
        {
          "internalType": "address",
          "name": "recipient",
          "type": "address"
        }
      ],
      "name": "rescueStrandedTokens",
      "outputs": [],
      "stateMutability": "nonpayable",
      "type": "function"
    },
    {
      "inputs": [],
      "name": "rewardBalanceAccountedFor",
      "outputs": [
        {
          "internalType": "uint256",
          "name": "",
          "type": "uint256"
        }
      ],
      "stateMutability": "view",
      "type": "function"
    },
    {
      "inputs": [],
      "name": "rewardToken",
      "outputs": [
        {
          "internalType": "contract IERC20",
          "name": "",
          "type": "address"
        }
      ],
      "stateMutability": "view",
      "type": "function"
    },
    {
      "inputs": [
        {
          "internalType": "address",
          "name": "",
          "type": "address"
        },
        {
          "internalType": "uint256",
          "name": "",
          "type": "uint256"
        }
      ],
      "name": "roleCache",
      "outputs": [
        {
          "internalType": "bool",
          "name": "",
          "type": "bool"
        }
      ],
      "stateMutability": "view",
      "type": "function"
    },
    {
      "inputs": [],
      "name": "roles",
      "outputs": [
        {
          "internalType": "contract Roles",
          "name": "",
          "type": "address"
        }
      ],
      "stateMutability": "view",
      "type": "function"
    },
    {
      "inputs": [],
      "name": "rolesPlayed",
      "outputs": [
        {
          "internalType": "uint256[]",
          "name": "",
          "type": "uint256[]"
        }
      ],
      "stateMutability": "view",
      "type": "function"
    },
    {
      "inputs": [
        {
          "internalType": "uint256",
          "name": "smoothing",
          "type": "uint256"
        }
      ],
      "name": "setApfSmoothingPer10k",
      "outputs": [],
      "stateMutability": "nonpayable",
      "type": "function"
    },
    {
      "inputs": [
        {
          "internalType": "uint256",
          "name": "fee",
          "type": "uint256"
        }
      ],
      "name": "setFeePer10k",
      "outputs": [],
      "stateMutability": "nonpayable",
      "type": "function"
    },
    {
      "inputs": [
        {
          "internalType": "uint256",
          "name": "bidmin",
          "type": "uint256"
        }
      ],
      "name": "setMinimumBidPer10k",
      "outputs": [],
      "stateMutability": "nonpayable",
      "type": "function"
    },
    {
      "inputs": [
        {
          "internalType": "address",
          "name": "",
          "type": "address"
        }
      ],
      "name": "stabilityFeePer10k",
      "outputs": [
        {
          "internalType": "uint256",
          "name": "",
          "type": "uint256"
        }
      ],
      "stateMutability": "view",
      "type": "function"
    },
    {
      "inputs": [
        {
          "internalType": "address",
          "name": "",
          "type": "address"
        }
      ],
      "name": "stakingContracts",
      "outputs": [
        {
          "internalType": "address",
          "name": "",
          "type": "address"
        }
      ],
      "stateMutability": "view",
      "type": "function"
    },
    {
      "inputs": [],
      "name": "strategyName",
      "outputs": [
        {
          "internalType": "bytes32",
          "name": "",
          "type": "bytes32"
        }
      ],
      "stateMutability": "view",
      "type": "function"
    },
    {
      "inputs": [
        {
          "internalType": "address",
          "name": "token",
          "type": "address"
        }
      ],
      "name": "tallyHarvestBalance",
      "outputs": [
        {
          "internalType": "uint256",
          "name": "balance",
          "type": "uint256"
        }
      ],
      "stateMutability": "nonpayable",
      "type": "function"
    },
    {
      "inputs": [
        {
          "internalType": "address",
          "name": "token",
          "type": "address"
        }
      ],
      "name": "tallyReward",
      "outputs": [],
      "stateMutability": "nonpayable",
      "type": "function"
    },
    {
      "inputs": [
        {
          "internalType": "address",
          "name": "",
          "type": "address"
        }
      ],
      "name": "tokenMetadata",
      "outputs": [
        {
          "internalType": "uint256",
          "name": "totalCollateralThisPhase",
          "type": "uint256"
        },
        {
          "internalType": "uint256",
          "name": "totalCollateralNow",
          "type": "uint256"
        },
        {
          "internalType": "uint256",
          "name": "apfLastUpdated",
          "type": "uint256"
        },
        {
          "internalType": "uint256",
          "name": "apf",
          "type": "uint256"
        }
      ],
      "stateMutability": "view",
      "type": "function"
    },
    {
      "inputs": [
        {
          "internalType": "uint256",
          "name": "trancheId",
          "type": "uint256"
        }
      ],
      "name": "tranche",
      "outputs": [
        {
          "internalType": "address",
          "name": "",
          "type": "address"
        }
      ],
      "stateMutability": "view",
      "type": "function"
    },
    {
      "inputs": [
        {
          "internalType": "uint256",
          "name": "trancheId",
          "type": "uint256"
        }
      ],
      "name": "trancheToken",
      "outputs": [
        {
          "internalType": "address",
          "name": "token",
          "type": "address"
        }
      ],
      "stateMutability": "view",
      "type": "function"
    },
    {
      "inputs": [
        {
          "internalType": "uint256",
          "name": "",
          "type": "uint256"
        }
      ],
      "name": "trancheTokenID",
      "outputs": [
        {
          "internalType": "uint256",
          "name": "",
          "type": "uint256"
        }
      ],
      "stateMutability": "pure",
      "type": "function"
    },
    {
      "inputs": [
        {
          "internalType": "uint256",
          "name": "role",
          "type": "uint256"
        }
      ],
      "name": "updateMainCharacterCache",
      "outputs": [],
      "stateMutability": "nonpayable",
      "type": "function"
    },
    {
      "inputs": [
        {
          "internalType": "uint256",
          "name": "role",
          "type": "uint256"
        },
        {
          "internalType": "address",
          "name": "contr",
          "type": "address"
        }
      ],
      "name": "updateRoleCache",
      "outputs": [],
      "stateMutability": "nonpayable",
      "type": "function"
    },
    {
      "inputs": [
        {
          "internalType": "address",
          "name": "token",
          "type": "address"
        }
      ],
      "name": "viewAPF",
      "outputs": [
        {
          "internalType": "uint256",
          "name": "",
          "type": "uint256"
        }
      ],
      "stateMutability": "view",
      "type": "function"
    },
    {
      "inputs": [],
      "name": "viewAllApprovedTokens",
      "outputs": [
        {
          "internalType": "address[]",
          "name": "",
          "type": "address[]"
        }
      ],
      "stateMutability": "view",
      "type": "function"
    },
    {
      "inputs": [],
      "name": "viewAllDisapprovedTokenStrategyMetadata",
      "outputs": [
        {
          "components": [
            {
              "internalType": "address",
              "name": "strategy",
              "type": "address"
            },
            {
              "internalType": "address",
              "name": "token",
              "type": "address"
            },
            {
              "internalType": "uint256",
              "name": "APF",
              "type": "uint256"
            },
            {
              "internalType": "uint256",
              "name": "totalCollateral",
              "type": "uint256"
            },
            {
              "internalType": "uint256",
              "name": "borrowablePer10k",
              "type": "uint256"
            },
            {
              "internalType": "uint256",
              "name": "valuePer1e18",
              "type": "uint256"
            },
            {
              "internalType": "bytes32",
              "name": "strategyName",
              "type": "bytes32"
            },
            {
              "internalType": "uint256",
              "name": "tvl",
              "type": "uint256"
            },
            {
              "internalType": "uint256",
              "name": "harvestBalance2Tally",
              "type": "uint256"
            },
            {
              "internalType": "enum IStrategy.YieldType",
              "name": "yieldType",
              "type": "uint8"
            },
            {
              "internalType": "uint256",
              "name": "stabilityFee",
              "type": "uint256"
            },
            {
              "internalType": "address",
              "name": "underlyingStrategy",
              "type": "address"
            }
          ],
          "internalType": "struct IStrategy.StrategyMetadata[]",
          "name": "",
          "type": "tuple[]"
        }
      ],
      "stateMutability": "view",
      "type": "function"
    },
    {
      "inputs": [],
      "name": "viewAllDisapprovedTokens",
      "outputs": [
        {
          "internalType": "address[]",
          "name": "",
          "type": "address[]"
        }
      ],
      "stateMutability": "view",
      "type": "function"
    },
    {
      "inputs": [],
      "name": "viewAllFeesEver",
      "outputs": [
        {
          "internalType": "uint256",
          "name": "",
          "type": "uint256"
        }
      ],
      "stateMutability": "view",
      "type": "function"
    },
    {
      "inputs": [],
      "name": "viewAllStrategyMetadata",
      "outputs": [
        {
          "components": [
            {
              "internalType": "address",
              "name": "strategy",
              "type": "address"
            },
            {
              "internalType": "address",
              "name": "token",
              "type": "address"
            },
            {
              "internalType": "uint256",
              "name": "APF",
              "type": "uint256"
            },
            {
              "internalType": "uint256",
              "name": "totalCollateral",
              "type": "uint256"
            },
            {
              "internalType": "uint256",
              "name": "borrowablePer10k",
              "type": "uint256"
            },
            {
              "internalType": "uint256",
              "name": "valuePer1e18",
              "type": "uint256"
            },
            {
              "internalType": "bytes32",
              "name": "strategyName",
              "type": "bytes32"
            },
            {
              "internalType": "uint256",
              "name": "tvl",
              "type": "uint256"
            },
            {
              "internalType": "uint256",
              "name": "harvestBalance2Tally",
              "type": "uint256"
            },
            {
              "internalType": "enum IStrategy.YieldType",
              "name": "yieldType",
              "type": "uint8"
            },
            {
              "internalType": "uint256",
              "name": "stabilityFee",
              "type": "uint256"
            },
            {
              "internalType": "address",
              "name": "underlyingStrategy",
              "type": "address"
            }
          ],
          "internalType": "struct IStrategy.StrategyMetadata[]",
          "name": "",
          "type": "tuple[]"
        }
      ],
      "stateMutability": "view",
      "type": "function"
    },
    {
      "inputs": [],
      "name": "viewAllTokensEver",
      "outputs": [
        {
          "internalType": "address[]",
          "name": "",
          "type": "address[]"
        }
      ],
      "stateMutability": "view",
      "type": "function"
    },
    {
      "inputs": [
        {
          "internalType": "uint256",
          "name": "trancheId",
          "type": "uint256"
        }
      ],
      "name": "viewBorrowable",
      "outputs": [
        {
          "internalType": "uint256",
          "name": "borrowablePer10k",
          "type": "uint256"
        }
      ],
      "stateMutability": "view",
      "type": "function"
    },
    {
      "inputs": [
        {
          "internalType": "address",
          "name": "token",
          "type": "address"
        }
      ],
      "name": "viewEstimatedHarvestable",
      "outputs": [
        {
          "internalType": "uint256",
          "name": "",
          "type": "uint256"
        }
      ],
      "stateMutability": "view",
      "type": "function"
    },
    {
      "inputs": [
        {
          "internalType": "address",
          "name": "token",
          "type": "address"
        }
      ],
      "name": "viewHarvestBalance2Tally",
      "outputs": [
        {
          "internalType": "uint256",
          "name": "",
          "type": "uint256"
        }
      ],
      "stateMutability": "view",
      "type": "function"
    },
    {
      "inputs": [
        {
          "internalType": "address",
          "name": "token",
          "type": "address"
        }
      ],
      "name": "viewSourceHarvestable",
      "outputs": [
        {
          "internalType": "uint256",
          "name": "",
          "type": "uint256"
        }
      ],
      "stateMutability": "view",
      "type": "function"
    },
    {
      "inputs": [
        {
          "internalType": "address",
          "name": "token",
          "type": "address"
        }
      ],
      "name": "viewStrategyMetadata",
      "outputs": [
        {
          "components": [
            {
              "internalType": "address",
              "name": "strategy",
              "type": "address"
            },
            {
              "internalType": "address",
              "name": "token",
              "type": "address"
            },
            {
              "internalType": "uint256",
              "name": "APF",
              "type": "uint256"
            },
            {
              "internalType": "uint256",
              "name": "totalCollateral",
              "type": "uint256"
            },
            {
              "internalType": "uint256",
              "name": "borrowablePer10k",
              "type": "uint256"
            },
            {
              "internalType": "uint256",
              "name": "valuePer1e18",
              "type": "uint256"
            },
            {
              "internalType": "bytes32",
              "name": "strategyName",
              "type": "bytes32"
            },
            {
              "internalType": "uint256",
              "name": "tvl",
              "type": "uint256"
            },
            {
              "internalType": "uint256",
              "name": "harvestBalance2Tally",
              "type": "uint256"
            },
            {
              "internalType": "enum IStrategy.YieldType",
              "name": "yieldType",
              "type": "uint8"
            },
            {
              "internalType": "uint256",
              "name": "stabilityFee",
              "type": "uint256"
            },
            {
              "internalType": "address",
              "name": "underlyingStrategy",
              "type": "address"
            }
          ],
          "internalType": "struct IStrategy.StrategyMetadata",
          "name": "",
          "type": "tuple"
        }
      ],
      "stateMutability": "view",
      "type": "function"
    },
    {
      "inputs": [
        {
          "internalType": "uint256",
          "name": "trancheId",
          "type": "uint256"
        }
      ],
      "name": "viewTargetCollateralAmount",
      "outputs": [
        {
          "internalType": "uint256",
          "name": "",
          "type": "uint256"
        }
      ],
      "stateMutability": "view",
      "type": "function"
    },
    {
      "inputs": [
        {
          "internalType": "address",
          "name": "token",
          "type": "address"
        }
      ],
      "name": "viewUnderlyingStrategy",
      "outputs": [
        {
          "internalType": "address",
          "name": "",
          "type": "address"
        }
      ],
      "stateMutability": "view",
      "type": "function"
    },
    {
      "inputs": [
        {
          "internalType": "uint256",
          "name": "trancheId",
          "type": "uint256"
        },
        {
          "internalType": "address",
          "name": "valueCurrency",
          "type": "address"
        }
      ],
      "name": "viewValue",
      "outputs": [
        {
          "internalType": "uint256",
          "name": "value",
          "type": "uint256"
        }
      ],
      "stateMutability": "view",
      "type": "function"
    },
    {
      "inputs": [
        {
          "internalType": "uint256",
          "name": "trancheId",
          "type": "uint256"
        },
        {
          "internalType": "address",
          "name": "valueCurrency",
          "type": "address"
        }
      ],
      "name": "viewValueBorrowable",
      "outputs": [
        {
          "internalType": "uint256",
          "name": "value",
          "type": "uint256"
        },
        {
          "internalType": "uint256",
          "name": "borrowable",
          "type": "uint256"
        }
      ],
      "stateMutability": "view",
      "type": "function"
    },
    {
      "inputs": [
        {
          "internalType": "uint256",
          "name": "trancheId",
          "type": "uint256"
        },
        {
          "internalType": "address",
          "name": "currency",
          "type": "address"
        }
      ],
      "name": "viewYield",
      "outputs": [
        {
          "internalType": "uint256",
          "name": "",
          "type": "uint256"
        }
      ],
      "stateMutability": "view",
      "type": "function"
    },
    {
      "inputs": [
        {
          "internalType": "uint256",
          "name": "trancheId",
          "type": "uint256"
        },
        {
          "internalType": "address",
          "name": "_yieldCurrency",
          "type": "address"
        },
        {
          "internalType": "address",
          "name": "valueCurrency",
          "type": "address"
        }
      ],
      "name": "viewYieldValueBorrowable",
      "outputs": [
        {
          "internalType": "uint256",
          "name": "yield",
          "type": "uint256"
        },
        {
          "internalType": "uint256",
          "name": "value",
          "type": "uint256"
        },
        {
          "internalType": "uint256",
          "name": "borrowablePer10k",
          "type": "uint256"
        }
      ],
      "stateMutability": "view",
      "type": "function"
    },
    {
      "inputs": [
        {
          "internalType": "uint256",
          "name": "trancheId",
          "type": "uint256"
        },
        {
          "internalType": "uint256",
          "name": "amount",
          "type": "uint256"
        },
        {
          "internalType": "address",
          "name": "yieldToken",
          "type": "address"
        },
        {
          "internalType": "address",
          "name": "recipient",
          "type": "address"
        }
      ],
      "name": "withdraw",
      "outputs": [],
      "stateMutability": "nonpayable",
      "type": "function"
    },
    {
      "inputs": [],
      "name": "yieldCurrency",
      "outputs": [
        {
          "internalType": "address",
          "name": "",
          "type": "address"
        }
      ],
      "stateMutability": "view",
      "type": "function"
    },
    {
      "inputs": [],
      "name": "yieldType",
      "outputs": [
        {
          "internalType": "enum IStrategy.YieldType",
          "name": "",
          "type": "uint8"
        }
      ],
      "stateMutability": "pure",
      "type": "function"
    },
    {
      "stateMutability": "payable",
      "type": "receive"
    }
  ],
  "bytecode": "0x6101006040526009805460ff191660011790556113886011556125e46018556103e86019553480156200003157600080fd5b50604051620052a7380380620052a7833981016040819052620000549162000313565b818382806001600160a01b038116620000be5760405162461bcd60e51b815260206004820152602260248201527f506c656173652070726f766964652076616c696420726f6c6573206164647265604482015261737360f01b606482015260840160405180910390fd5b60601b6001600160601b0319166080526002805460018082018355606a600080516020620052878339815191529283015560058054808301825560047f036b6384b5eca791c62761152d0c79bb0604c104a5fb6f4eb0703f3154bb3db09182018190558554808501875560669086015582548085019093559101849055835480830185556068908401556003805480840182557fc2575a0e9e593c00f959f8c92f12db2869c3395a3b0502d05e2516446f71f85b908101829055815480850190925501829055835491820184556000939093526069910181905560405163b4ed0b6d60e01b8152918201526001600160a01b0382169063b4ed0b6d9060240160206040518083038186803b158015620001d657600080fd5b505afa158015620001eb573d6000803e3d6000fd5b505050506040513d601f19601f82011682018060405250810190620002119190620002ef565b6001600160a01b031663fae794e66040518163ffffffff1660e01b815260040160206040518083038186803b1580156200024a57600080fd5b505afa1580156200025f573d6000803e3d6000fd5b505050506040513d601f19601f8201168201806040525081019062000285919062000353565b60a052506001600881905560c0919091526002805491820181556000526067600080516020620052878339815191529091015560601b6001600160601b03191660e052506200036c915050565b80516001600160a01b0381168114620002ea57600080fd5b919050565b60006020828403121562000301578081fd5b6200030c82620002d2565b9392505050565b60008060006060848603121562000328578182fd5b835192506200033a60208501620002d2565b91506200034a60408501620002d2565b90509250925092565b60006020828403121562000365578081fd5b5051919050565b60805160601c60a05160c05160e05160601c614e876200040060003960008181610d7301528181610ec80152818161190f01528181611c1101528181611e030152613462015260008181610c4b015261117f0152600061267e0152600081816105cd01528181610f8b0152818161169101528181612f0b01528181612f9e015281816132780152613b430152614e876000f3fe6080604052600436106103715760003560e01c806301c7b9f81461037a5780630581f3b5146103ad57806306b8ce99146103cd578063071060a6146103e25780630a3017d9146104025780630ccc5bd6146104225780630d74962814610442578063110acb231461045857806318af4c9e146104855780631dc3a759146104a55780631f7ea881146104c657806321fa0f1f146104e657806322f3e2d4146105085780632642b6061461053257806326473a8f1461058057806328f3fc731461059b578063392f5f64146105bb5780633a3db435146105ef5780633ace96ec1461060f5780634320d4dd1461062f578063447d52ba14610645578063459ba1271461066557806349d4f22e146106855780634a7a7f41146106a55780634d578359146106c75780634d9d01b2146106f55780634df87c091461070a578063525e82691461072a5780636caa9c111461074a5780636fecdf241461076a578063709bb7b6146107cf578063719e99b0146107fc57806371b3177a146108125780637268d1c0146108325780637a1a04df146108525780637b2c92791461088d5780637dad209b146108a25780637dbf0b7c146108b75780638496e891146108d757806388a382a71461091257806389f117b31461093f5780638a31b98f1461095f5780639470505f1461097f5780639b0f09ae1461099f5780639bc181d2146109bb578063a4d77f90146109f1578063a50233c914610a26578063a51c8fab14610a46578063abcbc4fc14610a68578063ad89b79414610a88578063aeb38d8b14610a9d578063b06ea8f014610abd578063b23d66c214610ad3578063b832799314610b18578063bf184ea414610b38578063c17dfa6114610b58578063c5c72dc314610b6e578063d0d9ab5914610b8e578063d0e1b89714610ba3578063d241c9c014610bc3578063d2d719d614610be3578063d7fb7b3114610bf9578063d9cb512c14610c0f578063dc94cb7d14610c24578063e173ad2514610c39578063e22d284514610c6d578063e2e730f614610cd6578063e8ea4fae14610cf6578063e9c3f77d14610d0b578063f725ed1014610d41578063f7c618c114610d61578063f8903fb714610d95578063f8d6a05d14610db5578063fa98a4ba14610dd5578063fabee7db14610df5578063fac82e8c14610e15578063fd80d0c314610e35578063fe65a5b414610e5557610378565b3661037857005b005b34801561038657600080fd5b5061039a6103953660046147e8565b610e75565b6040519081526020015b60405180910390f35b3480156103b957600080fd5b5061039a6103c83660046145a3565b610e9a565b3480156103d957600080fd5b5061039a610f64565b3480156103ee57600080fd5b506103786103fd3660046147b8565b610f75565b34801561040e57600080fd5b5061039a61041d3660046145a3565b61103b565b34801561042e57600080fd5b5061037861043d3660046146bd565b611059565b34801561044e57600080fd5b5061039a601a5481565b34801561046457600080fd5b506104786104733660046145a3565b6110e2565b6040516103a49190614d01565b34801561049157600080fd5b506103786104a03660046147e8565b6111e9565b3480156104b157600080fd5b5061039a6104c03660046147b8565b50600090565b3480156104d257600080fd5b506103786104e1366004614613565b611293565b3480156104f257600080fd5b506104fb611350565b6040516103a49190614afb565b34801561051457600080fd5b506009546105229060ff1681565b60405190151581526020016103a4565b34801561053e57600080fd5b5061057361054d3660046145db565b60066020908152600092835260408084209091529082529020546001600160a01b031681565b6040516103a49190614a44565b34801561058c57600080fd5b5061039a6104c03660046145a3565b3480156105a757600080fd5b506103786105b63660046145db565b611422565b3480156105c757600080fd5b506105737f000000000000000000000000000000000000000000000000000000000000000081565b3480156105fb57600080fd5b5061037861060a3660046147b8565b611515565b34801561061b57600080fd5b5061037861062a366004614613565b6115af565b34801561063b57600080fd5b5061039a60145481565b34801561065157600080fd5b506103786106603660046147e8565b61167a565b34801561067157600080fd5b50610378610680366004614889565b611750565b34801561069157600080fd5b506103786106a03660046146bd565b6117c9565b3480156106b157600080fd5b506106ba61184c565b6040516103a49190614b3e565b3480156106d357600080fd5b506106e76106e23660046145db565b6118a4565b6040516103a4929190614b76565b34801561070157600080fd5b5061039a6118dc565b34801561071657600080fd5b506105226107253660046145a3565b6118e8565b34801561073657600080fd5b506103786107453660046145a3565b6118f5565b34801561075657600080fd5b5061039a6107653660046147b8565b6119ff565b34801561077657600080fd5b506107af6107853660046145a3565b60126020526000908152604090206001810154600282015460038301546004909301549192909184565b6040805194855260208501939093529183015260608201526080016103a4565b3480156107db57600080fd5b5061039a6107ea3660046145a3565b60166020526000908152604090205481565b34801561080857600080fd5b5061039a60175481565b34801561081e57600080fd5b5061037861082d366004614906565b611a20565b34801561083e57600080fd5b5061039a61084d3660046147b8565b611af9565b34801561085e57600080fd5b5061052261086d366004614692565b600160209081526000928352604080842090915290825290205460ff1681565b34801561089957600080fd5b50610573611b1f565b3480156108ae57600080fd5b506106ba611b29565b3480156108c357600080fd5b506103786108d23660046148c2565b611b7f565b3480156108e357600080fd5b506108f76108f2366004614842565b611e4e565b604080519384526020840192909252908201526060016103a4565b34801561091e57600080fd5b5061039a61092d3660046145a3565b60136020526000908152604090205481565b34801561094b57600080fd5b5061037861095a3660046145a3565b611f69565b34801561096b57600080fd5b5061039a61097a3660046145a3565b61200a565b34801561098b57600080fd5b5061039a61099a3660046145a3565b6121a8565b3480156109ab57600080fd5b5060006040516103a49190614b91565b3480156109c757600080fd5b506105736109d63660046145a3565b601b602052600090815260409020546001600160a01b031681565b3480156109fd57600080fd5b50610a11610a0c3660046147e8565b61220a565b604080519283526020830191909152016103a4565b348015610a3257600080fd5b50610378610a4136600461474f565b612233565b348015610a5257600080fd5b50610a5b6122f4565b6040516103a49190614aae565b348015610a7457600080fd5b5061039a610a833660046147b8565b612300565b348015610a9457600080fd5b506104fb612310565b348015610aa957600080fd5b5061039a610ab83660046147b8565b6123db565b348015610ac957600080fd5b5061039a60115481565b348015610adf57600080fd5b50610af3610aee366004614842565b6123eb565b604080516001600160a01b0390941684526020840192909252908201526060016103a4565b348015610b2457600080fd5b50610378610b333660046146fe565b6124fe565b348015610b4457600080fd5b5061039a610b533660046147b8565b6125b7565b348015610b6457600080fd5b5061039a60155481565b348015610b7a57600080fd5b5061039a610b893660046147b8565b6125c7565b348015610b9a57600080fd5b50610a5b6125d9565b348015610baf57600080fd5b50610378610bbe3660046147b8565b6125e5565b348015610bcf57600080fd5b50610573610bde3660046147b8565b612676565b348015610bef57600080fd5b5061039a60195481565b348015610c0557600080fd5b5061039a60185481565b348015610c1b57600080fd5b50610a5b612770565b348015610c3057600080fd5b506106ba61277c565b348015610c4557600080fd5b5061039a7f000000000000000000000000000000000000000000000000000000000000000081565b348015610c7957600080fd5b50610cb2610c883660046147b8565b6010602052600090815260409020805460018201546002909201549091906001600160a01b031683565b6040805193845260208401929092526001600160a01b0316908201526060016103a4565b348015610ce257600080fd5b5061039a610cf13660046145a3565b6127d2565b348015610d0257600080fd5b506106ba6127f0565b348015610d1757600080fd5b50610573610d263660046147b8565b6000602081905290815260409020546001600160a01b031681565b348015610d4d57600080fd5b50610573610d5c3660046145a3565b612846565b348015610d6d57600080fd5b506105737f000000000000000000000000000000000000000000000000000000000000000081565b348015610da157600080fd5b5061039a610db036600461480c565b612864565b348015610dc157600080fd5b5061039a610dd03660046145a3565b612957565b348015610de157600080fd5b506108f7610df036600461480c565b612975565b348015610e0157600080fd5b50610573610e103660046147b8565b6129b0565b348015610e2157600080fd5b50610378610e303660046145a3565b6129ce565b348015610e4157600080fd5b5061039a610e503660046147e8565b612b92565b348015610e6157600080fd5b50610378610e703660046147b8565b612be0565b6000610e92610e83846129b0565b610e8c856125c7565b84612c78565b509392505050565b6001600160a01b038082166000908152601b60205260408082205490516246613160e11b81529192610f5c927f00000000000000000000000000000000000000000000000000000000000000009290911690628cc26290610eff903090600401614a44565b60206040518083038186803b158015610f1757600080fd5b505afa158015610f2b573d6000803e3d6000fd5b505050506040513d601f19601f82011682018060405250810190610f4f91906147d0565b610f57611b1f565b612dbd565b90505b919050565b6000610f70600c612efd565b905090565b60405163b4ed0b6d60e01b8152600481018290527f00000000000000000000000000000000000000000000000000000000000000006001600160a01b03169063b4ed0b6d9060240160206040518083038186803b158015610fd557600080fd5b505afa158015610fe9573d6000803e3d6000fd5b505050506040513d601f19601f8201168201806040525081019061100d91906145bf565b60009182526020829052604090912080546001600160a01b0319166001600160a01b03909216919091179055565b6001600160a01b031660009081526012602052604090206004015490565b33611062612f07565b6001600160a01b0316148061108657503361107b612f9a565b6001600160a01b0316145b6110ab5760405162461bcd60e51b81526004016110a290614bb2565b60405180910390fd5b6001600160a01b0381166110d15760405162461bcd60e51b81526004016110a290614c5f565b6110dc81848461300b565b50505050565b6110ea61450e565b60008061110784670de0b6b3a7640000611102613226565b612c78565b91509150604051806101800160405280306001600160a01b03168152602001856001600160a01b0316815260200161113e8661103b565b815260200160126000876001600160a01b03166001600160a01b031681526020019081526020016000206002015481526020018281526020018381526020017f000000000000000000000000000000000000000000000000000000000000000081526020016111ac866127d2565b81526020016111ba866121a8565b815260200160008152602001600081526020016111d686612846565b6001600160a01b03169052949350505050565b336111f2612f07565b6001600160a01b0316148061121657503361120b612f9a565b6001600160a01b0316145b6112325760405162461bcd60e51b81526004016110a290614bb2565b6001600160a01b0381166112585760405162461bcd60e51b81526004016110a290614c5f565b6040516001600160a01b0382169083156108fc029084906000818181858888f1935050505015801561128e573d6000803e3d6000fd5b505050565b3361129c612f07565b6001600160a01b031614806112c05750336112b5612f9a565b6001600160a01b0316145b806112cf57506112cf3361325e565b61132b5760405162461bcd60e51b81526020600482015260396024820152600080516020614e32833981519152604482015278391037b91030baba3437b934bd32b21030b1ba34bb30ba37b960391b60648201526084016110a2565b611336838383613301565b6110dc83670de0b6b3a764000061134b613226565b613518565b6060600061135e600a612efd565b90506000816001600160401b0381111561138857634e487b7160e01b600052604160045260246000fd5b6040519080825280602002602001820160405280156113c157816020015b6113ae61450e565b8152602001906001900390816113a65790505b50905060005b8083111561141b576113dd610473600a83613586565b8282815181106113fd57634e487b7160e01b600052603260045260246000fd5b6020026020010181905250808061141390614d9e565b9150506113c7565b5091505090565b6001600160a01b0382811660009081526006602090815260408083208585168452909152902054161561151157611457613592565b6001600160a01b0316635e73a03483836040518363ffffffff1660e01b8152600401611484929190614a58565b60206040518083038186803b15801561149c57600080fd5b505afa1580156114b0573d6000803e3d6000fd5b505050506040513d601f19601f820116820180604052508101906114d491906145bf565b6001600160a01b0383811660009081526006602090815260408083208685168452909152902080546001600160a01b031916929091169190911790555b5050565b3361151e612f07565b6001600160a01b03161480611542575033611537612f9a565b6001600160a01b0316145b61155e5760405162461bcd60e51b81526004016110a290614bb2565b601181905560408051818152600d918101919091526c61706620736d6f6f7468696e6760981b606082015260208101829052600080516020614e12833981519152906080015b60405180910390a150565b336115b8612f07565b6001600160a01b031614806115dc5750336115d1612f9a565b6001600160a01b0316145b6115f85760405162461bcd60e51b81526004016110a290614bb2565b611603600a846135ca565b5061160f600c846135df565b506116186135f4565b6001600160a01b03166311848c45306040518263ffffffff1660e01b81526004016116439190614a44565b600060405180830381600087803b15801561165d57600080fd5b505af1158015611671573d6000803e3d6000fd5b50505050505050565b60405163f0723d9760e01b81526001600160a01b037f0000000000000000000000000000000000000000000000000000000000000000169063f0723d97906116c89084908690600401614a72565b60206040518083038186803b1580156116e057600080fd5b505afa1580156116f4573d6000803e3d6000fd5b505050506040513d601f19601f820116820180604052508101906117189190614798565b6001600160a01b0391909116600090815260016020908152604080832094835293905291909120805460ff1916911515919091179055565b600260085414156117735760405162461bcd60e51b81526004016110a290614c93565b600260085561178185612676565b6001600160a01b0316336001600160a01b0316146117b15760405162461bcd60e51b81526004016110a290614c2c565b6117bd8486858461362c565b50506001600855505050565b336117d2612f07565b6001600160a01b031614806117f65750336117eb612f9a565b6001600160a01b0316145b6118125760405162461bcd60e51b81526004016110a290614bb2565b6001600160a01b0381166118385760405162461bcd60e51b81526004016110a290614c5f565b61128e6001600160a01b038416828461367c565b6060600380548060200260200160405190810160405280929190818152602001828054801561189a57602002820191906000526020600020905b815481526020019060010190808311611886575b5050505050905090565b600060606118b1846118e8565b836040516020016118c29190614a44565b604051602081830303815290604052915091509250929050565b6000610f70600a612efd565b6000610f5c600a836136d2565b6040516370a0823160e01b81526000906001600160a01b037f000000000000000000000000000000000000000000000000000000000000000016906370a0823190611944903090600401614a44565b60206040518083038186803b15801561195c57600080fd5b505afa158015611970573d6000803e3d6000fd5b505050506040513d601f19601f8201168201806040525081019061199491906147d0565b90506000601554826119a69190614d5b565b9050801561128e576001600160a01b038316600090815260136020526040812080548392906119d6908490614d10565b90915550506015829055601480548291906000906119f5908490614d10565b9091555050505050565b60058181548110611a0f57600080fd5b600091825260209091200154905081565b60095460ff16611a425760405162461bcd60e51b81526004016110a290614bfc565b60026008541415611a655760405162461bcd60e51b81526004016110a290614c93565b6002600855611a73336136e7565b611abc5760405162461bcd60e51b815260206004820152601a6024820152794e6f7420617574686f72697a656420746f20776974686472617760301b60448201526064016110a2565b6001600160a01b038116611ae25760405162461bcd60e51b81526004016110a290614c5f565b611aee84848484613710565b505060016008555050565b6000611b18611b07836129b0565b611b10846125c7565b611102611b1f565b9392505050565b6000610f70613226565b6060600480548060200260200160405190810160405280929190818152602001828054801561189a5760200282019190600052602060002090815481526020019060010190808311611886575050505050905090565b60026008541415611ba25760405162461bcd60e51b81526004016110a290614c93565b60026008819055506000611bb8836015546137cd565b905060008111611c0a5760405162461bcd60e51b815260206004820152601f60248201527f4e6f2063757272656e746c7920636f6e7665727469626c65207265776172640060448201526064016110a2565b6000611c397f00000000000000000000000000000000000000000000000000000000000000008561134b611b1f565b905060185481611c499190614d3c565b611c5584612710614d3c565b1015611c965760405162461bcd60e51b815260206004820152601060248201526f125b9cdd59999a58da595b9d08189a5960821b60448201526064016110a2565b600084611ca38585614d3c565b611cad9190614d28565b9050611cb7611b1f565b6001600160a01b0316639dc29fac33836040518363ffffffff1660e01b8152600401611ce4929190614a72565b600060405180830381600087803b158015611cfe57600080fd5b505af1158015611d12573d6000803e3d6000fd5b50505050600061271082601954611d299190614d3c565b611d339190614d28565b9050611d3d611b1f565b6001600160a01b03166340c10f19611d536137e5565b836040518363ffffffff1660e01b8152600401611d71929190614a72565b600060405180830381600087803b158015611d8b57600080fd5b505af1158015611d9f573d6000803e3d6000fd5b5050505080601a6000828254611db59190614d10565b909155505060195461271090611dcb9082614d5b565b611dd59084614d3c565b611ddf9190614d28565b60176000828254611df09190614d10565b90915550611e2a90506001600160a01b037f000000000000000000000000000000000000000000000000000000000000000016338661367c565b8360156000828254611e3c9190614d5b565b90915550506001600855505050505050565b600080600060026008541415611e765760405162461bcd60e51b81526004016110a290614c93565b6002600855611e84336136e7565b80611f105750611e9387612676565b6001600160a01b0316632972b0f033896040518363ffffffff1660e01b8152600401611ec0929190614a72565b60206040518083038186803b158015611ed857600080fd5b505afa158015611eec573d6000803e3d6000fd5b505050506040513d601f19601f82011682018060405250810190611f109190614798565b611f2c5760405162461bcd60e51b81526004016110a290614cca565b611f3787878661381d565b9250611f54611f45886129b0565b611f4e896125c7565b87613968565b60016008559398909750929550919350505050565b60026008541415611f8c5760405162461bcd60e51b81526004016110a290614c93565b60026008556001600160a01b038082166000908152601b6020526040808220548151631e8c5c8960e11b81529151931692633d18b9129260048084019391929182900301818387803b158015611fe157600080fd5b505af1158015611ff5573d6000803e3d6000fd5b50505050612002816118f5565b506001600855565b6000612015826121a8565b6001600160a01b038316600090815260126020526040812080549293509161203e576000612078565b8154829061204e90600190614d5b565b8154811061206c57634e487b7160e01b600052603260045260246000fd5b90600052602060002001545b6001830154909150156120ce57600182015460009061209b600160401b86614d3c565b6120a59190614d28565b9050826120b28284614d10565b8154600181018355600092835260209092209091015550612169565b8154600181018355600083815260209020018190556120eb611b1f565b6001600160a01b03166340c10f196121016137e5565b856040518363ffffffff1660e01b815260040161211f929190614a72565b600060405180830381600087803b15801561213957600080fd5b505af115801561214d573d6000803e3d6000fd5b5050505082601a60008282546121639190614d10565b90915550505b600282015460018301556001600160a01b0384166000908152601660205260408120805485929061219b908490614d10565b9091555092949350505050565b60145460009015612202576001600160a01b03821660009081526016602090815260408083205460145460139093529220546017546121e79190614d3c565b6121f19190614d28565b6121fb9190614d5b565b9050610f5f565b506000610f5f565b600080612228612219856129b0565b612222866125c7565b85612c78565b915091509250929050565b60095460ff166122555760405162461bcd60e51b81526004016110a290614bfc565b600260085414156122785760405162461bcd60e51b81526004016110a290614c93565b6002600855612286336136e7565b6122e05760405162461bcd60e51b815260206004820152602560248201527f4e6f7420617574686f72697a656420746f207472616e7366657220757365722060448201526466756e647360d81b60648201526084016110a2565b611aee8484846122ee611b1f565b856139d7565b6060610f70600a613a70565b60028181548110611a0f57600080fd5b6060600061231e600c612efd565b90506000816001600160401b0381111561234857634e487b7160e01b600052604160045260246000fd5b60405190808252806020026020018201604052801561238157816020015b61236e61450e565b8152602001906001900390816123665790505b50905060005b8083111561141b5761239d610473600c83613586565b8282815181106123bd57634e487b7160e01b600052603260045260246000fd5b602002602001018190525080806123d390614d9e565b915050612387565b60048181548110611a0f57600080fd5b6009546000908190819060ff166124145760405162461bcd60e51b81526004016110a290614bfc565b61241d87612676565b6001600160a01b0316336001600160a01b03161461244d5760405162461bcd60e51b81526004016110a290614c2c565b6000612458886129b0565b90506000612465896125c7565b905061247289888861381d565b50600061248030848461300b565b90506124966001600160a01b0384168a83613a7d565b6001600160a01b038316600090815260126020526040812060020180548392906124c1908490614d5b565b90915550506000998a52601060205260408a208a8155600181018b905560020180546001600160a01b031916905591999197509095505050505050565b60095460ff166125205760405162461bcd60e51b81526004016110a290614bfc565b600260085414156125435760405162461bcd60e51b81526004016110a290614c93565b6002600855612551336136e7565b801561256d57503361256285612676565b6001600160a01b0316145b6125ab5760405162461bcd60e51b815260206004820152600f60248201526e496e76616c6964207472616e63686560881b60448201526064016110a2565b6117bd8585858461362c565b60038181548110611a0f57600080fd5b60009081526010602052604090205490565b6060610f70600c613a70565b336125ee612f07565b6001600160a01b03161480612612575033612607612f9a565b6001600160a01b0316145b61262e5760405162461bcd60e51b81526004016110a290614bb2565b601881905560408051818152600b918101919091526a135a5b9a5b5d5b48189a5960aa1b606082015260208101829052600080516020614e12833981519152906080016115a4565b6000806126a37f000000000000000000000000000000000000000000000000000000000000000084614db9565b6000818152600760205260409020549091506001600160a01b031680611b1857606960009081526020527f366a7b92acda364086cc991f618bf9f10b629ec0f7ae94543f96b691b69ec9925460405163043b4d2f60e51b8152600481018490526001600160a01b0390911690638769a5e09060240160206040518083038186803b15801561273057600080fd5b505afa158015612744573d6000803e3d6000fd5b505050506040513d601f19601f8201168201806040525081019061276891906145bf565b949350505050565b6060610f70600e613a70565b6060600280548060200260200160405190810160405280929190818152602001828054801561189a5760200282019190600052602060002090815481526020019060010190808311611886575050505050905090565b6001600160a01b031660009081526012602052604090206002015490565b6060600580548060200260200160405190810160405280929190818152602001828054801561189a5760200282019190600052602060002090815481526020019060010190808311611886575050505050905090565b6001600160a01b039081166000908152601b60205260409020541690565b6000600260085414156128895760405162461bcd60e51b81526004016110a290614c93565b6002600855612897336136e7565b8061292357506128a684612676565b6001600160a01b0316632972b0f033866040518363ffffffff1660e01b81526004016128d3929190614a72565b60206040518083038186803b1580156128eb57600080fd5b505afa1580156128ff573d6000803e3d6000fd5b505050506040513d601f19601f820116820180604052508101906129239190614798565b61293f5760405162461bcd60e51b81526004016110a290614cca565b61294a84848461381d565b6001600855949350505050565b600061296282610e9a565b61296b836121a8565b610f5c9190614d10565b60008060006129848686612b92565b92506129a1612992876129b0565b61299b886125c7565b86612c78565b93979096509294509192505050565b6000908152601060205260409020600201546001600160a01b031690565b60095460ff166129f05760405162461bcd60e51b81526004016110a290614bfc565b336129f9612f07565b6001600160a01b03161480612a1d575033612a12612f9a565b6001600160a01b0316145b80612a37575033612a2c613b29565b6001600160a01b0316145b612a925760405162461bcd60e51b81526020600482015260386024820152600080516020614e32833981519152604482015277391037b91030baba3437b934bd32b2103234b9b0b13632b960411b60648201526084016110a2565b612a9a613b8d565b5060005b80612aa9600e612efd565b1115612b84576000612abc600e83613586565b90506000612ac9826127d2565b90506000612ad56135f4565b9050612ae281848461300b565b50612af86001600160a01b038416826000613bde565b612b0e6001600160a01b03841682600019613bde565b60405163269974d160e21b81526001600160a01b03821690639a65d34490612b3c9088908790600401614a58565b600060405180830381600087803b158015612b5657600080fd5b505af1158015612b6a573d6000803e3d6000fd5b505050505050508080612b7c90614d9e565b915050612a9e565b50506009805460ff19169055565b6000828152601060205260408120612bd681601284612bb0886129b0565b6001600160a01b03166001600160a01b0316815260200190815260200160002085613cf0565b9150505b92915050565b33612be9612f07565b6001600160a01b03161480612c0d575033612c02612f9a565b6001600160a01b0316145b612c295760405162461bcd60e51b81526004016110a290614bb2565b6019819055604080518181526012918101919091527150726f746f636f6c207969656c642066656560701b606082015260208101829052600080516020614e12833981519152906080016115a4565b6001600160a01b0380841660009081526006602090815260408083208585168452909152812054909182911680612d3157612cb1613592565b6001600160a01b0316635e73a03487866040518363ffffffff1660e01b8152600401612cde929190614a58565b60206040518083038186803b158015612cf657600080fd5b505afa158015612d0a573d6000803e3d6000fd5b505050506040513d601f19601f82011682018060405250810190612d2e91906145bf565b90505b6040516313f3552960e21b81526001600160a01b03821690634fcd54a490612d6190899089908990600401614a8b565b604080518083038186803b158015612d7857600080fd5b505afa158015612d8c573d6000803e3d6000fd5b505050506040513d601f19601f82011682018060405250810190612db091906148e3565b9097909650945050505050565b6001600160a01b038084166000908152600660209081526040808320858516845290915281205490911680612e7457612df4613592565b6001600160a01b0316635e73a03486856040518363ffffffff1660e01b8152600401612e21929190614a58565b60206040518083038186803b158015612e3957600080fd5b505afa158015612e4d573d6000803e3d6000fd5b505050506040513d601f19601f82011682018060405250810190612e7191906145bf565b90505b6040516323aaad6360e21b81526001600160a01b03821690638eaab58c90612ea490889088908890600401614a8b565b60206040518083038186803b158015612ebc57600080fd5b505afa158015612ed0573d6000803e3d6000fd5b505050506040513d601f19601f82011682018060405250810190612ef491906147d0565b95945050505050565b6000610f5c825490565b60007f00000000000000000000000000000000000000000000000000000000000000006001600160a01b0316638da5cb5b6040518163ffffffff1660e01b815260040160206040518083038186803b158015612f6257600080fd5b505afa158015612f76573d6000803e3d6000fd5b505050506040513d601f19601f82011682018060405250810190610f7091906145bf565b60007f00000000000000000000000000000000000000000000000000000000000000006001600160a01b031663c34c08e56040518163ffffffff1660e01b8152600401602060405180830381600087803b158015612ff757600080fd5b505af1158015612f76573d6000803e3d6000fd5b60006001600160a01b0384166130335760405162461bcd60e51b81526004016110a290614c5f565b6001600160a01b038084166000818152601b60205260408082205490516370a0823160e01b81529316929091906370a0823190613074903090600401614a44565b60206040518083038186803b15801561308c57600080fd5b505afa1580156130a0573d6000803e3d6000fd5b505050506040513d601f19601f820116820180604052508101906130c491906147d0565b604051632e1a7d4d60e01b8152600481018690529091506001600160a01b03831690632e1a7d4d90602401600060405180830381600087803b15801561310957600080fd5b505af115801561311d573d6000803e3d6000fd5b50505050600081866001600160a01b03166370a08231306040518263ffffffff1660e01b81526004016131509190614a44565b60206040518083038186803b15801561316857600080fd5b505afa15801561317c573d6000803e3d6000fd5b505050506040513d601f19601f820116820180604052508101906131a091906147d0565b6131aa9190614d5b565b90506131c06001600160a01b038716888361367c565b826001600160a01b0316633d18b9126040518163ffffffff1660e01b8152600401600060405180830381600087803b1580156131fb57600080fd5b505af115801561320f573d6000803e3d6000fd5b5050505061321c866118f5565b9695505050505050565b606660009081526020527f422cccb7cea5c0e46f340bb7b21b81debac329f72e31669c20ff0f3a05cc2b5b546001600160a01b031690565b60405163f0723d9760e01b81526000906001600160a01b037f0000000000000000000000000000000000000000000000000000000000000000169063f0723d97906132b19085906103eb90600401614a72565b60206040518083038186803b1580156132c957600080fd5b505afa1580156132dd573d6000803e3d6000fd5b505050506040513d601f19601f82011682018060405250810190610f5c9190614798565b600061330f828401846145a3565b905060008190506000816001600160a01b031663d1af0c7d6040518163ffffffff1660e01b815260040160206040518083038186803b15801561335157600080fd5b505afa158015613365573d6000803e3d6000fd5b505050506040513d601f19601f8201168201806040525081019061338991906145bf565b90506000826001600160a01b03166372f702f36040518163ffffffff1660e01b815260040160206040518083038186803b1580156133c657600080fd5b505afa1580156133da573d6000803e3d6000fd5b505050506040513d601f19601f820116820180604052508101906133fe91906145bf565b9050866001600160a01b0316816001600160a01b0316146134605760405162461bcd60e51b815260206004820152601c60248201527b0a6e8c2d6d2dcce40e8ded6cadc40c8decae640dcdee840dac2e8c6d60231b60448201526064016110a2565b7f00000000000000000000000000000000000000000000000000000000000000006001600160a01b0316826001600160a01b0316146134df5760405162461bcd60e51b815260206004820152601b60248201527a0a4caeec2e4c840e8ded6cadc40c8decae640dcdee840dac2e8c6d602b1b60448201526064016110a2565b6001600160a01b038781166000908152601b6020526040902080546001600160a01b031916918616919091179055611671878787613e0a565b6000806135258584613e5d565b604051630576cbc360e41b81529091506001600160a01b0382169063576cbc309061355890889088908890600401614a8b565b602060405180830381600087803b15801561357257600080fd5b505af1158015612ed0573d6000803e3d6000fd5b6000611b188383613f11565b606a60009081526020527ff3261457f4fd0b7c00a1511877ab27b74183ac470be8db3a7ecdc64335f6f979546001600160a01b031690565b6000611b18836001600160a01b038416613f49565b6000611b18836001600160a01b038416614066565b606860009081526020527faa071f48f62aaaa1f6320aaa7bd2ad2d552d05160892c14d699d38c9920d5f99546001600160a01b031690565b6001600160a01b03821660009081526012602090815260408083208054878552601090935292206001015561366184846140b0565b61367585858461366f611b1f565b896139d7565b5050505050565b61128e8363a9059cbb60e01b848460405160240161369b929190614a72565b60408051601f198184030181529190526020810180516001600160e01b03166001600160e01b031990931692909217909152614130565b6000611b18836001600160a01b038416614202565b6001600160a01b0316600090815260016020818152604080842092845291905290205460ff1690565b600084815260106020526040812090613728866129b0565b905061373586858561381d565b5061374885613743886125c7565b6137cd565b945061375583828761300b565b508482600001600082825461376a9190614d5b565b90915550506001600160a01b03811660009081526012602052604081206002810180549192889261379c908490614d5b565b90915550506001830154815411156137c857858160010160008282546137c29190614d5b565b90915550505b611671565b6000818311156137de575080612bda565b5081612bda565b606760009081526020527f682158d08466d11c566d5712d4396197fdd67e65be71d83c97ef719ec468867b546001600160a01b031690565b60006001600160a01b0382166138455760405162461bcd60e51b81526004016110a290614c5f565b61384d611b1f565b6001600160a01b0316836001600160a01b0316146138ad5760405162461bcd60e51b815260206004820181905260248201527f4f6e6c7920757365206f6666696369616c207969656c642063757272656e637960448201526064016110a2565b6000848152601060205260408120906012816138c8886129b0565b6001600160a01b03168152602081019190915260400160002082549091501561395a576138f6828287613cf0565b6040516340c10f1960e01b81529093506001600160a01b038616906340c10f19906139279087908790600401614a72565b600060405180830381600087803b15801561394157600080fd5b505af1158015613955573d6000803e3d6000fd5b505050505b546001909101559392505050565b60008060006139778685613e5d565b60405163442fd02b60e11b81529091506001600160a01b0382169063885fa056906139aa90899089908990600401614a8b565b6040805180830381600087803b1580156139c357600080fd5b505af1158015612d8c573d6000803e3d6000fd5b60006139e2856129b0565b90506139ef85848461381d565b506139fb86828661421a565b600085815260106020526040902054613a148582614d10565b6000878152601060209081526040808320939093556001600160a01b03851682526012905290812060028101805491928892613a51908490614d10565b90915550613a669050878461128e8986614d10565b5050505050505050565b60606000611b188361430a565b600081846001600160a01b031663dd62ed3e30866040518363ffffffff1660e01b8152600401613aae929190614a58565b60206040518083038186803b158015613ac657600080fd5b505afa158015613ada573d6000803e3d6000fd5b505050506040513d601f19601f82011682018060405250810190613afe91906147d0565b613b089190614d10565b90506110dc8463095ea7b360e01b858460405160240161369b929190614a72565b60405163b4ed0b6d60e01b81526103e960048201526000907f00000000000000000000000000000000000000000000000000000000000000006001600160a01b03169063b4ed0b6d9060240160206040518083038186803b158015612f6257600080fd5b6000805b80613b9c600e612efd565b1115613bda576000613baf600e83613586565b9050613bba8161200a565b613bc49084614d10565b9250508080613bd290614d9e565b915050613b91565b5090565b801580613c665750604051636eb1769f60e11b81526001600160a01b0384169063dd62ed3e90613c149030908690600401614a58565b60206040518083038186803b158015613c2c57600080fd5b505afa158015613c40573d6000803e3d6000fd5b505050506040513d601f19601f82011682018060405250810190613c6491906147d0565b155b613cd15760405162461bcd60e51b815260206004820152603660248201527f5361666545524332303a20617070726f76652066726f6d206e6f6e2d7a65726f60448201527520746f206e6f6e2d7a65726f20616c6c6f77616e636560501b60648201526084016110a2565b61128e8363095ea7b360e01b848460405160240161369b929190614a72565b6000613cfa611b1f565b6001600160a01b0316826001600160a01b031614613d515760405162461bcd60e51b815260206004820152601460248201527357726f6e67207969656c642063757272656e637960601b60448201526064016110a2565b6001840154835484911015613e0057600081866001015481548110613d8657634e487b7160e01b600052603260045260246000fd5b90600052602060002001548260018480549050613da39190614d5b565b81548110613dc157634e487b7160e01b600052603260045260246000fd5b9060005260206000200154613dd69190614d5b565b9050600160401b818760000154613ded9190614d3c565b613df79190614d28565b92505050611b18565b6000915050611b18565b613e15600a846135df565b50613e21600c846135ca565b50613e2d600e846135df565b506001600160a01b03831660009081526012602052604090206127106004820155426003909101556116186135f4565b6001600160a01b03808316600090815260066020908152604080832085851684529091529020541680612bda57613e92613592565b6001600160a01b0316631757616884846040518363ffffffff1660e01b8152600401613ebf929190614a58565b602060405180830381600087803b158015613ed957600080fd5b505af1158015613eed573d6000803e3d6000fd5b505050506040513d601f19601f82011682018060405250810190611b1891906145bf565b6000826000018281548110613f3657634e487b7160e01b600052603260045260246000fd5b9060005260206000200154905092915050565b6000818152600183016020526040812054801561405c576000613f6d600183614d5b565b8554909150600090613f8190600190614d5b565b9050818114614002576000866000018281548110613faf57634e487b7160e01b600052603260045260246000fd5b9060005260206000200154905080876000018481548110613fe057634e487b7160e01b600052603260045260246000fd5b6000918252602080832090910192909255918252600188019052604090208390555b855486908061402157634e487b7160e01b600052603160045260246000fd5b600190038181906000526020600020016000905590558560010160008681526020019081526020016000206000905560019350505050612bda565b6000915050612bda565b60006140728383614202565b6140a857508154600181810184556000848152602080822090930184905584548482528286019093526040902091909155612bda565b506000612bda565b6140bb600a826136d2565b6140ff5760405162461bcd60e51b81526020600482015260156024820152742737ba1030b71030b8383937bb32b2103a37b5b2b760591b60448201526064016110a2565b60009182526010602052604090912060020180546001600160a01b0319166001600160a01b03909216919091179055565b6000614185826040518060400160405280602081526020017f5361666545524332303a206c6f772d6c6576656c2063616c6c206661696c6564815250856001600160a01b03166143669092919063ffffffff16565b80519091501561128e57808060200190518101906141a39190614798565b61128e5760405162461bcd60e51b815260206004820152602a60248201527f5361666545524332303a204552433230206f7065726174696f6e20646964206e6044820152691bdd081cdd58d8d9595960b21b60648201526084016110a2565b60009081526001919091016020526040902054151590565b6001600160a01b038083166000908152601b6020526040808220548151631e8c5c8960e11b815291519316928392633d18b912926004808201939182900301818387803b15801561426a57600080fd5b505af115801561427e573d6000803e3d6000fd5b5050505061428b836118f5565b6142a06001600160a01b038416853085614375565b6142b46001600160a01b0384168284613a7d565b60405163534a7e1d60e11b8152600481018390526001600160a01b0382169063a694fc3a90602401600060405180830381600087803b1580156142f657600080fd5b505af1158015613a66573d6000803e3d6000fd5b60608160000180548060200260200160405190810160405280929190818152602001828054801561435a57602002820191906000526020600020905b815481526020019060010190808311614346575b50505050509050919050565b606061276884846000856143ad565b6040516001600160a01b03808516602483015283166044820152606481018290526110dc9085906323b872dd60e01b9060840161369b565b60608247101561440e5760405162461bcd60e51b815260206004820152602660248201527f416464726573733a20696e73756666696369656e742062616c616e636520666f6044820152651c8818d85b1b60d21b60648201526084016110a2565b843b61445c5760405162461bcd60e51b815260206004820152601d60248201527f416464726573733a2063616c6c20746f206e6f6e2d636f6e747261637400000060448201526064016110a2565b600080866001600160a01b031685876040516144789190614a28565b60006040518083038185875af1925050503d80600081146144b5576040519150601f19603f3d011682016040523d82523d6000602084013e6144ba565b606091505b50915091506144ca8282866144d5565b979650505050505050565b606083156144e4575081611b18565b8251156144f45782518084602001fd5b8160405162461bcd60e51b81526004016110a29190614b9f565b60405180610180016040528060006001600160a01b0316815260200160006001600160a01b03168152602001600081526020016000815260200160008152602001600081526020016000801916815260200160008152602001600081526020016000600281111561458f57634e487b7160e01b600052602160045260246000fd5b815260006020820181905260409091015290565b6000602082840312156145b4578081fd5b8135611b1881614df9565b6000602082840312156145d0578081fd5b8151611b1881614df9565b600080604083850312156145ed578081fd5b82356145f881614df9565b9150602083013561460881614df9565b809150509250929050565b600080600060408486031215614627578081fd5b833561463281614df9565b925060208401356001600160401b038082111561464d578283fd5b818601915086601f830112614660578283fd5b81358181111561466e578384fd5b87602082850101111561467f578384fd5b6020830194508093505050509250925092565b600080604083850312156146a4578182fd5b82356146af81614df9565b946020939093013593505050565b6000806000606084860312156146d1578283fd5b83356146dc81614df9565b92506020840135915060408401356146f381614df9565b809150509250925092565b600080600080600060a08688031215614715578081fd5b853561472081614df9565b945060208601359350604086013561473781614df9565b94979396509394606081013594506080013592915050565b60008060008060808587031215614764578384fd5b843561476f81614df9565b93506020850135925060408501359150606085013561478d81614df9565b939692955090935050565b6000602082840312156147a9578081fd5b81518015158114611b18578182fd5b6000602082840312156147c9578081fd5b5035919050565b6000602082840312156147e1578081fd5b5051919050565b600080604083850312156147fa578182fd5b82359150602083013561460881614df9565b600080600060608486031215614820578081fd5b83359250602084013561483281614df9565b915060408401356146f381614df9565b60008060008060808587031215614857578182fd5b84359350602085013561486981614df9565b9250604085013561487981614df9565b9150606085013561478d81614df9565b600080600080600060a086880312156148a0578283fd5b8535945060208601356148b281614df9565b9350604086013561473781614df9565b600080604083850312156148d4578182fd5b50508035926020909101359150565b600080604083850312156148f5578182fd5b505080516020909101519092909150565b6000806000806080858703121561491b578182fd5b8435935060208501359250604085013561487981614df9565b6001600160a01b03169052565b60008151808452614959816020860160208601614d72565b601f01601f19169290920160200192915050565b6003811061498b57634e487b7160e01b600052602160045260246000fd5b9052565b61499a828251614934565b60208101516149ac6020840182614934565b5060408101516040830152606081015160608301526080810151608083015260a081015160a083015260c081015160c083015260e081015160e083015261010080820151818401525061012080820151614a088285018261496d565b50506101408181015190830152610160808201516110dc82850182614934565b60008251614a3a818460208701614d72565b9190910192915050565b6001600160a01b0391909116815260200190565b6001600160a01b0392831681529116602082015260400190565b6001600160a01b03929092168252602082015260400190565b6001600160a01b0393841681526020810192909252909116604082015260600190565b6020808252825182820181905260009190848201906040850190845b81811015614aef5783516001600160a01b031683529284019291840191600101614aca565b50909695505050505050565b6020808252825182820181905260009190848201906040850190845b81811015614aef57614b2a83855161498f565b928401926101809290920191600101614b17565b6020808252825182820181905260009190848201906040850190845b81811015614aef57835183529284019291840191600101614b5a565b60008315158252604060208301526127686040830184614941565b60208101612bda828461496d565b600060208252611b186020830184614941565b6020808252602a908201527f526f6c65733a2063616c6c6572206973206e6f7420746865206f776e6572206f604082015269391032bc32b1baba37b960b11b606082015260800190565b6020808252601690820152755374726174656779206973206e6f742061637469766560501b604082015260600190565b6020808252601990820152784e6f7420617574686f72697a656420746f206d69677261746560381b604082015260600190565b6020808252601a9082015279446f6e27742073656e6420746f207a65726f206164647265737360301b604082015260600190565b6020808252601f908201527f5265656e7472616e637947756172643a207265656e7472616e742063616c6c00604082015260600190565b6020808252601f908201527f4e6f7420617574686f72697a656420746f20636f6c6c656374207969656c6400604082015260600190565b6101808101612bda828461498f565b60008219821115614d2357614d23614dcd565b500190565b600082614d3757614d37614de3565b500490565b6000816000190483118215151615614d5657614d56614dcd565b500290565b600082821015614d6d57614d6d614dcd565b500390565b60005b83811015614d8d578181015183820152602001614d75565b838111156110dc5750506000910152565b6000600019821415614db257614db2614dcd565b5060010190565b600082614dc857614dc8614de3565b500690565b634e487b7160e01b600052601160045260246000fd5b634e487b7160e01b600052601260045260246000fd5b6001600160a01b0381168114614e0e57600080fd5b5056fe3a64504f0bc0c335e2aecb78638a257e0351a3fe0370861fd54ee4190b92093343616c6c6572206973206e6f7420746865206f776e65722c206578656375746fa2646970667358221220a9f2da811a606ac86e5229335f49387d009c0473c49d89a49aeba28df30a73d364736f6c63430008030033405787fa12a823e0f2b7631cc41b3ba8828b3321ca811111fa75cd3aa3bb5ace",
  "linkReferences": {},
  "deployedLinkReferences": {}
}