{
  "_format": "hh-sol-artifact-1",
  "contractName": "TrancheIDService",
  "sourceName": "contracts/TrancheIDService.sol",
  "abi": [
    {
      "inputs": [
        {
          "internalType": "address",
          "name": "_roles",
          "type": "address"
        }
      ],
      "stateMutability": "nonpayable",
      "type": "constructor"
    },
    {
      "anonymous": false,
      "inputs": [
        {
          "indexed": false,
          "internalType": "string",
          "name": "param",
          "type": "string"
        },
        {
          "indexed": false,
          "internalType": "uint256",
          "name": "value",
          "type": "uint256"
        }
      ],
      "name": "ParameterUpdated",
      "type": "event"
    },
    {
      "anonymous": false,
      "inputs": [
        {
          "indexed": false,
          "internalType": "string",
          "name": "param",
          "type": "string"
        },
        {
          "indexed": false,
          "internalType": "address",
          "name": "subject",
          "type": "address"
        },
        {
          "indexed": false,
          "internalType": "uint256",
          "name": "value",
          "type": "uint256"
        }
      ],
      "name": "SubjectParameterUpdated",
      "type": "event"
    },
    {
      "anonymous": false,
      "inputs": [
        {
          "indexed": false,
          "internalType": "string",
          "name": "param",
          "type": "string"
        },
        {
          "indexed": false,
          "internalType": "address",
          "name": "subject",
          "type": "address"
        }
      ],
      "name": "SubjectUpdated",
      "type": "event"
    },
    {
      "inputs": [
        {
          "internalType": "uint256",
          "name": "",
          "type": "uint256"
        }
      ],
      "name": "_charactersPlayed",
      "outputs": [
        {
          "internalType": "uint256",
          "name": "",
          "type": "uint256"
        }
      ],
      "stateMutability": "view",
      "type": "function"
    },
    {
      "inputs": [
        {
          "internalType": "uint256",
          "name": "",
          "type": "uint256"
        }
      ],
      "name": "_dependsOnCharacters",
      "outputs": [
        {
          "internalType": "uint256",
          "name": "",
          "type": "uint256"
        }
      ],
      "stateMutability": "view",
      "type": "function"
    },
    {
      "inputs": [
        {
          "internalType": "uint256",
          "name": "",
          "type": "uint256"
        }
      ],
      "name": "_dependsOnRoles",
      "outputs": [
        {
          "internalType": "uint256",
          "name": "",
          "type": "uint256"
        }
      ],
      "stateMutability": "view",
      "type": "function"
    },
    {
      "inputs": [
        {
          "internalType": "uint256",
          "name": "",
          "type": "uint256"
        }
      ],
      "name": "_rolesPlayed",
      "outputs": [
        {
          "internalType": "uint256",
          "name": "",
          "type": "uint256"
        }
      ],
      "stateMutability": "view",
      "type": "function"
    },
    {
      "inputs": [],
      "name": "charactersPlayed",
      "outputs": [
        {
          "internalType": "uint256[]",
          "name": "",
          "type": "uint256[]"
        }
      ],
      "stateMutability": "view",
      "type": "function"
    },
    {
      "inputs": [],
      "name": "dependsOnCharacters",
      "outputs": [
        {
          "internalType": "uint256[]",
          "name": "",
          "type": "uint256[]"
        }
      ],
      "stateMutability": "view",
      "type": "function"
    },
    {
      "inputs": [],
      "name": "dependsOnRoles",
      "outputs": [
        {
          "internalType": "uint256[]",
          "name": "",
          "type": "uint256[]"
        }
      ],
      "stateMutability": "view",
      "type": "function"
    },
    {
      "inputs": [],
      "name": "getNextTrancheId",
      "outputs": [
        {
          "internalType": "uint256",
          "name": "id",
          "type": "uint256"
        }
      ],
      "stateMutability": "nonpayable",
      "type": "function"
    },
    {
      "inputs": [
        {
          "internalType": "uint256",
          "name": "",
          "type": "uint256"
        }
      ],
      "name": "mainCharacterCache",
      "outputs": [
        {
          "internalType": "address",
          "name": "",
          "type": "address"
        }
      ],
      "stateMutability": "view",
      "type": "function"
    },
    {
      "inputs": [],
      "name": "nextTrancheSlot",
      "outputs": [
        {
          "internalType": "uint256",
          "name": "",
          "type": "uint256"
        }
      ],
      "stateMutability": "view",
      "type": "function"
    },
    {
      "inputs": [
        {
          "internalType": "address",
          "name": "",
          "type": "address"
        },
        {
          "internalType": "uint256",
          "name": "",
          "type": "uint256"
        }
      ],
      "name": "roleCache",
      "outputs": [
        {
          "internalType": "bool",
          "name": "",
          "type": "bool"
        }
      ],
      "stateMutability": "view",
      "type": "function"
    },
    {
      "inputs": [],
      "name": "roles",
      "outputs": [
        {
          "internalType": "contract Roles",
          "name": "",
          "type": "address"
        }
      ],
      "stateMutability": "view",
      "type": "function"
    },
    {
      "inputs": [],
      "name": "rolesPlayed",
      "outputs": [
        {
          "internalType": "uint256[]",
          "name": "",
          "type": "uint256[]"
        }
      ],
      "stateMutability": "view",
      "type": "function"
    },
    {
      "inputs": [],
      "name": "setupTrancheSlot",
      "outputs": [
        {
          "components": [
            {
              "internalType": "uint256",
              "name": "nextTrancheIdRange",
              "type": "uint256"
            },
            {
              "internalType": "uint256",
              "name": "trancheSlot",
              "type": "uint256"
            }
          ],
          "internalType": "struct TrancheIDService.TrancheSlot",
          "name": "",
          "type": "tuple"
        }
      ],
      "stateMutability": "nonpayable",
      "type": "function"
    },
    {
      "inputs": [
        {
          "internalType": "uint256",
          "name": "",
          "type": "uint256"
        }
      ],
      "name": "slotTranches",
      "outputs": [
        {
          "internalType": "address",
          "name": "",
          "type": "address"
        }
      ],
      "stateMutability": "view",
      "type": "function"
    },
    {
      "inputs": [],
      "name": "totalTrancheSlots",
      "outputs": [
        {
          "internalType": "uint256",
          "name": "",
          "type": "uint256"
        }
      ],
      "stateMutability": "view",
      "type": "function"
    },
    {
      "inputs": [
        {
          "internalType": "address",
          "name": "",
          "type": "address"
        }
      ],
      "name": "trancheSlots",
      "outputs": [
        {
          "internalType": "uint256",
          "name": "nextTrancheIdRange",
          "type": "uint256"
        },
        {
          "internalType": "uint256",
          "name": "trancheSlot",
          "type": "uint256"
        }
      ],
      "stateMutability": "view",
      "type": "function"
    },
    {
      "inputs": [
        {
          "internalType": "uint256",
          "name": "role",
          "type": "uint256"
        }
      ],
      "name": "updateMainCharacterCache",
      "outputs": [],
      "stateMutability": "nonpayable",
      "type": "function"
    },
    {
      "inputs": [
        {
          "internalType": "uint256",
          "name": "role",
          "type": "uint256"
        },
        {
          "internalType": "address",
          "name": "contr",
          "type": "address"
        }
      ],
      "name": "updateRoleCache",
      "outputs": [],
      "stateMutability": "nonpayable",
      "type": "function"
    },
    {
      "inputs": [
        {
          "internalType": "address",
          "name": "trancheContract",
          "type": "address"
        }
      ],
      "name": "viewNextTrancheId",
      "outputs": [
        {
          "internalType": "uint256",
          "name": "",
          "type": "uint256"
        }
      ],
      "stateMutability": "view",
      "type": "function"
    },
    {
      "inputs": [
        {
          "internalType": "address",
          "name": "tranche",
          "type": "address"
        }
      ],
      "name": "viewSlotByTrancheContract",
      "outputs": [
        {
          "internalType": "uint256",
          "name": "",
          "type": "uint256"
        }
      ],
      "stateMutability": "view",
      "type": "function"
    },
    {
      "inputs": [
        {
          "internalType": "uint256",
          "name": "trancheId",
          "type": "uint256"
        }
      ],
      "name": "viewTrancheContractByID",
      "outputs": [
        {
          "internalType": "address",
          "name": "",
          "type": "address"
        }
      ],
      "stateMutability": "view",
      "type": "function"
    }
  ],
  "bytecode": "0x60a0604052600160065534801561001557600080fd5b50604051610cc4380380610cc483398101604081905261003491610116565b806001600160a01b03811661009a5760405162461bcd60e51b815260206004820152602260248201527f506c656173652070726f766964652076616c696420726f6c6573206164647265604482015261737360f01b606482015260840160405180910390fd5b60601b6001600160601b0319166080525060038054600180820183557fc2575a0e9e593c00f959f8c92f12db2869c3395a3b0502d05e2516446f71f85b9091019190915560048054918201815560005260697f8a35acfbc15ff81a39ae7d344fd709f28e8600b4aa8c65c6b64bfe7fe36bd19b90910155610144565b600060208284031215610127578081fd5b81516001600160a01b038116811461013d578182fd5b9392505050565b60805160601c610b54610170600039600081816101310152818161037d01526104530152610b546000f3fe608060405234801561001057600080fd5b50600436106101125760003560e01c8063071060a614610117578063392f5f641461012c578063447d52ba146101705780634a7a7f41146101835780636758bffe146101985780636caa9c11146101ab57806370a06105146101cc5780637a1a04df146101f85780637dad209b146102365780638769a5e01461023e578063abcbc4fc14610267578063aeb38d8b1461027a578063bf184ea41461028d578063bf25ed53146102a0578063d83f0283146102dc578063dc94cb7d146102e5578063e670309c146102ed578063e8ea4fae14610310578063e9c3f77d14610318578063ed6aaa3514610341578063fae794e614610354578063ff1883481461035f575b600080fd5b61012a6101253660046109bc565b610367565b005b6101537f000000000000000000000000000000000000000000000000000000000000000081565b6040516001600160a01b0390911681526020015b60405180910390f35b61012a61017e3660046109d4565b61042d565b61018b610505565b6040516101679190610a03565b6101536101a63660046109bc565b61055d565b6101be6101b93660046109bc565b610590565b604051908152602001610167565b6101be6101da366004610939565b6001600160a01b031660009081526007602052604090206001015490565b610226610206366004610971565b600160209081526000928352604080842090915290825290205460ff1681565b6040519015158152602001610167565b61018b6105b1565b61015361024c3660046109bc565b6008602052600090815260409020546001600160a01b031681565b6101be6102753660046109bc565b610607565b6101be6102883660046109bc565b610617565b6101be61029b3660046109bc565b610627565b6102c76102ae366004610939565b6007602052600090815260409020805460019091015482565b60408051928352602083019190915201610167565b6101be60065481565b61018b610637565b6102f561068d565b60408051825181526020928301519281019290925201610167565b61018b6107bc565b6101536103263660046109bc565b6000602081905290815260409020546001600160a01b031681565b6101be61034f366004610939565b610812565b6101be6305f5e10081565b6101be610851565b60405163b4ed0b6d60e01b8152600481018290527f00000000000000000000000000000000000000000000000000000000000000006001600160a01b03169063b4ed0b6d9060240160206040518083038186803b1580156103c757600080fd5b505afa1580156103db573d6000803e3d6000fd5b505050506040513d601f19601f820116820180604052508101906103ff9190610955565b60009182526020829052604090912080546001600160a01b0319166001600160a01b03909216919091179055565b60405163f0723d9760e01b81526001600160a01b038281166004830152602482018490527f0000000000000000000000000000000000000000000000000000000000000000169063f0723d979060440160206040518083038186803b15801561049557600080fd5b505afa1580156104a9573d6000803e3d6000fd5b505050506040513d601f19601f820116820180604052508101906104cd919061099c565b6001600160a01b0391909116600090815260016020908152604080832094835293905291909120805460ff1916911515919091179055565b6060600380548060200260200160405190810160405280929190818152602001828054801561055357602002820191906000526020600020905b81548152602001906001019080831161053f575b5050505050905090565b60006008816105706305f5e10085610ad0565b81526020810191909152604001600020546001600160a01b031692915050565b600581815481106105a057600080fd5b600091825260209091200154905081565b60606004805480602002602001604051908101604052809291908181526020018280548015610553576020028201919060005260206000209081548152602001906001019080831161053f575050505050905090565b600281815481106105a057600080fd5b600481815481106105a057600080fd5b600381815481106105a057600080fd5b60606002805480602002602001604051908101604052809291908181526020018280548015610553576020028201919060005260206000209081548152602001906001019080831161053f575050505050905090565b60408051808201909152600080825260208201526106aa3361090f565b6106cf5760405162461bcd60e51b81526004016106c690610a47565b60405180910390fd5b336000908152600760205260409020600101541561072c5760405162461bcd60e51b815260206004820152601a602482015279151c985b98da1948185b1c9958591e481a185cc818481cdb1bdd60321b60448201526064016106c6565b604080518082018252600180825260068054602080850191825233600081815260078352878120965187559251959094019490945581548152600890935292822080546001600160a01b03191690911790558154919061078b83610ab5565b9091555050336000908152600760209081526040918290208251808401909352805483526001015490820152905090565b60606005805480602002602001604051908101604052809291908181526020018280548015610553576020028201919060005260206000209081548152602001906001019080831161053f575050505050905090565b6001600160a01b038116600090815260076020526040812060018101548154610840906305f5e10090610a96565b61084a9190610a7e565b9392505050565b600061085c3361090f565b6108785760405162461bcd60e51b81526004016106c690610a47565b33600090815260076020526040902060018101546108d55760405162461bcd60e51b815260206004820152601a60248201527910d85b1b195c88191bd95cdb89dd081a185d994818481cdb1bdd60321b60448201526064016106c6565b600181015481546108eb906305f5e10090610a96565b6108f59190610a7e565b815490925081600061090683610ab5565b91905055505090565b6001600160a01b031660009081526001602090815260408083206003845290915290205460ff1690565b60006020828403121561094a578081fd5b813561084a81610b06565b600060208284031215610966578081fd5b815161084a81610b06565b60008060408385031215610983578081fd5b823561098e81610b06565b946020939093013593505050565b6000602082840312156109ad578081fd5b8151801515811461084a578182fd5b6000602082840312156109cd578081fd5b5035919050565b600080604083850312156109e6578182fd5b8235915060208301356109f881610b06565b809150509250929050565b6020808252825182820181905260009190848201906040850190845b81811015610a3b57835183529284019291840191600101610a1f565b50909695505050505050565b6020808252601d908201527f43616c6c6572206e6f742061207472616e63686520636f6e7472616374000000604082015260600190565b60008219821115610a9157610a91610af0565b500190565b6000816000190483118215151615610ab057610ab0610af0565b500290565b6000600019821415610ac957610ac9610af0565b5060010190565b600082610aeb57634e487b7160e01b81526012600452602481fd5b500690565b634e487b7160e01b600052601160045260246000fd5b6001600160a01b0381168114610b1b57600080fd5b5056fea26469706673582212202f2c7d025198426bc9bbca579c78749a896ef2930b3314fb22a60d882091226c64736f6c63430008030033",
  "linkReferences": {},
  "deployedLinkReferences": {}
}