{
  "_format": "hh-sol-artifact-1",
  "contractName": "MultiTraderJoeMasterChef2Strategy",
  "sourceName": "contracts/strategies/MultiTraderJoeMasterChef2Strategy.sol",
  "abi": [
    {
      "inputs": [
        {
          "internalType": "address",
          "name": "_wrappedNative",
          "type": "address"
        },
        {
          "internalType": "address",
          "name": "_roles",
          "type": "address"
        }
      ],
      "stateMutability": "nonpayable",
      "type": "constructor"
    },
    {
      "anonymous": false,
      "inputs": [
        {
          "indexed": false,
          "internalType": "string",
          "name": "param",
          "type": "string"
        },
        {
          "indexed": false,
          "internalType": "uint256",
          "name": "value",
          "type": "uint256"
        }
      ],
      "name": "ParameterUpdated",
      "type": "event"
    },
    {
      "anonymous": false,
      "inputs": [
        {
          "indexed": false,
          "internalType": "string",
          "name": "param",
          "type": "string"
        },
        {
          "indexed": false,
          "internalType": "address",
          "name": "subject",
          "type": "address"
        },
        {
          "indexed": false,
          "internalType": "uint256",
          "name": "value",
          "type": "uint256"
        }
      ],
      "name": "SubjectParameterUpdated",
      "type": "event"
    },
    {
      "anonymous": false,
      "inputs": [
        {
          "indexed": false,
          "internalType": "string",
          "name": "param",
          "type": "string"
        },
        {
          "indexed": false,
          "internalType": "address",
          "name": "subject",
          "type": "address"
        }
      ],
      "name": "SubjectUpdated",
      "type": "event"
    },
    {
      "stateMutability": "payable",
      "type": "fallback"
    },
    {
      "inputs": [
        {
          "internalType": "uint256",
          "name": "",
          "type": "uint256"
        }
      ],
      "name": "_accounts",
      "outputs": [
        {
          "internalType": "uint256",
          "name": "collateral",
          "type": "uint256"
        },
        {
          "internalType": "uint256",
          "name": "yieldCheckptIdx",
          "type": "uint256"
        },
        {
          "internalType": "address",
          "name": "trancheToken",
          "type": "address"
        }
      ],
      "stateMutability": "view",
      "type": "function"
    },
    {
      "inputs": [
        {
          "internalType": "uint256",
          "name": "",
          "type": "uint256"
        }
      ],
      "name": "_charactersPlayed",
      "outputs": [
        {
          "internalType": "uint256",
          "name": "",
          "type": "uint256"
        }
      ],
      "stateMutability": "view",
      "type": "function"
    },
    {
      "inputs": [
        {
          "internalType": "uint256",
          "name": "",
          "type": "uint256"
        }
      ],
      "name": "_dependsOnCharacters",
      "outputs": [
        {
          "internalType": "uint256",
          "name": "",
          "type": "uint256"
        }
      ],
      "stateMutability": "view",
      "type": "function"
    },
    {
      "inputs": [
        {
          "internalType": "uint256",
          "name": "",
          "type": "uint256"
        }
      ],
      "name": "_dependsOnRoles",
      "outputs": [
        {
          "internalType": "uint256",
          "name": "",
          "type": "uint256"
        }
      ],
      "stateMutability": "view",
      "type": "function"
    },
    {
      "inputs": [
        {
          "internalType": "address",
          "name": "",
          "type": "address"
        },
        {
          "internalType": "address",
          "name": "",
          "type": "address"
        }
      ],
      "name": "_oracleCache",
      "outputs": [
        {
          "internalType": "address",
          "name": "",
          "type": "address"
        }
      ],
      "stateMutability": "view",
      "type": "function"
    },
    {
      "inputs": [
        {
          "internalType": "uint256",
          "name": "",
          "type": "uint256"
        }
      ],
      "name": "_rolesPlayed",
      "outputs": [
        {
          "internalType": "uint256",
          "name": "",
          "type": "uint256"
        }
      ],
      "stateMutability": "view",
      "type": "function"
    },
    {
      "inputs": [
        {
          "internalType": "address",
          "name": "token",
          "type": "address"
        }
      ],
      "name": "_viewTVL",
      "outputs": [
        {
          "internalType": "uint256",
          "name": "",
          "type": "uint256"
        }
      ],
      "stateMutability": "view",
      "type": "function"
    },
    {
      "inputs": [
        {
          "internalType": "uint256",
          "name": "trancheId",
          "type": "uint256"
        },
        {
          "internalType": "address",
          "name": "sourceStrategy",
          "type": "address"
        },
        {
          "internalType": "address",
          "name": "tokenContract",
          "type": "address"
        },
        {
          "internalType": "uint256",
          "name": "",
          "type": "uint256"
        },
        {
          "internalType": "uint256",
          "name": "amount",
          "type": "uint256"
        }
      ],
      "name": "acceptMigration",
      "outputs": [],
      "stateMutability": "nonpayable",
      "type": "function"
    },
    {
      "inputs": [
        {
          "internalType": "address",
          "name": "yieldBearingToken",
          "type": "address"
        },
        {
          "internalType": "address",
          "name": "rewardToken",
          "type": "address"
        }
      ],
      "name": "addRewardToken",
      "outputs": [],
      "stateMutability": "nonpayable",
      "type": "function"
    },
    {
      "inputs": [],
      "name": "apfSmoothingPer10k",
      "outputs": [
        {
          "internalType": "uint256",
          "name": "",
          "type": "uint256"
        }
      ],
      "stateMutability": "view",
      "type": "function"
    },
    {
      "inputs": [
        {
          "internalType": "address",
          "name": "token",
          "type": "address"
        },
        {
          "internalType": "bytes",
          "name": "data",
          "type": "bytes"
        }
      ],
      "name": "approveToken",
      "outputs": [],
      "stateMutability": "nonpayable",
      "type": "function"
    },
    {
      "inputs": [
        {
          "internalType": "address",
          "name": "token",
          "type": "address"
        }
      ],
      "name": "approvedToken",
      "outputs": [
        {
          "internalType": "bool",
          "name": "",
          "type": "bool"
        }
      ],
      "stateMutability": "view",
      "type": "function"
    },
    {
      "inputs": [],
      "name": "approvedTokensCount",
      "outputs": [
        {
          "internalType": "uint256",
          "name": "",
          "type": "uint256"
        }
      ],
      "stateMutability": "view",
      "type": "function"
    },
    {
      "inputs": [
        {
          "internalType": "contract IERC20",
          "name": "",
          "type": "address"
        },
        {
          "internalType": "address",
          "name": "",
          "type": "address"
        }
      ],
      "name": "assetYieldMeta",
      "outputs": [
        {
          "internalType": "uint256",
          "name": "cumulConvCheckpt",
          "type": "uint256"
        },
        {
          "internalType": "uint256",
          "name": "rewardsSinceCheckpt",
          "type": "uint256"
        }
      ],
      "stateMutability": "view",
      "type": "function"
    },
    {
      "inputs": [],
      "name": "charactersPlayed",
      "outputs": [
        {
          "internalType": "uint256[]",
          "name": "",
          "type": "uint256[]"
        }
      ],
      "stateMutability": "view",
      "type": "function"
    },
    {
      "inputs": [
        {
          "internalType": "address",
          "name": "token",
          "type": "address"
        },
        {
          "internalType": "uint256",
          "name": "pid",
          "type": "uint256"
        },
        {
          "internalType": "address[]",
          "name": "_rewardTokens",
          "type": "address[]"
        }
      ],
      "name": "checkApprovedAndEncode",
      "outputs": [
        {
          "internalType": "bool",
          "name": "",
          "type": "bool"
        },
        {
          "internalType": "bytes",
          "name": "",
          "type": "bytes"
        }
      ],
      "stateMutability": "view",
      "type": "function"
    },
    {
      "inputs": [],
      "name": "chef",
      "outputs": [
        {
          "internalType": "contract IMasterChefJoeV3",
          "name": "",
          "type": "address"
        }
      ],
      "stateMutability": "view",
      "type": "function"
    },
    {
      "inputs": [
        {
          "internalType": "uint256",
          "name": "trancheId",
          "type": "uint256"
        },
        {
          "internalType": "address",
          "name": "currency",
          "type": "address"
        },
        {
          "internalType": "address",
          "name": "recipient",
          "type": "address"
        }
      ],
      "name": "collectYield",
      "outputs": [
        {
          "internalType": "uint256",
          "name": "",
          "type": "uint256"
        }
      ],
      "stateMutability": "nonpayable",
      "type": "function"
    },
    {
      "inputs": [
        {
          "internalType": "uint256",
          "name": "trancheId",
          "type": "uint256"
        },
        {
          "internalType": "address",
          "name": "_yieldCurrency",
          "type": "address"
        },
        {
          "internalType": "address",
          "name": "valueCurrency",
          "type": "address"
        },
        {
          "internalType": "address",
          "name": "recipient",
          "type": "address"
        }
      ],
      "name": "collectYieldValueBorrowable",
      "outputs": [
        {
          "internalType": "uint256",
          "name": "yield",
          "type": "uint256"
        },
        {
          "internalType": "uint256",
          "name": "value",
          "type": "uint256"
        },
        {
          "internalType": "uint256",
          "name": "borrowablePer10k",
          "type": "uint256"
        }
      ],
      "stateMutability": "nonpayable",
      "type": "function"
    },
    {
      "inputs": [
        {
          "internalType": "contract IERC20",
          "name": "rewardToken",
          "type": "address"
        },
        {
          "internalType": "uint256",
          "name": "rewardAmount",
          "type": "uint256"
        },
        {
          "internalType": "uint256",
          "name": "targetBid",
          "type": "uint256"
        }
      ],
      "name": "convertReward2Stable",
      "outputs": [],
      "stateMutability": "nonpayable",
      "type": "function"
    },
    {
      "inputs": [],
      "name": "dependsOnCharacters",
      "outputs": [
        {
          "internalType": "uint256[]",
          "name": "",
          "type": "uint256[]"
        }
      ],
      "stateMutability": "view",
      "type": "function"
    },
    {
      "inputs": [],
      "name": "dependsOnRoles",
      "outputs": [
        {
          "internalType": "uint256[]",
          "name": "",
          "type": "uint256[]"
        }
      ],
      "stateMutability": "view",
      "type": "function"
    },
    {
      "inputs": [
        {
          "internalType": "address",
          "name": "token",
          "type": "address"
        },
        {
          "internalType": "bytes",
          "name": "",
          "type": "bytes"
        }
      ],
      "name": "disapproveToken",
      "outputs": [],
      "stateMutability": "nonpayable",
      "type": "function"
    },
    {
      "inputs": [],
      "name": "disapprovedTokensCount",
      "outputs": [
        {
          "internalType": "uint256",
          "name": "",
          "type": "uint256"
        }
      ],
      "stateMutability": "view",
      "type": "function"
    },
    {
      "inputs": [],
      "name": "feePer10k",
      "outputs": [
        {
          "internalType": "uint256",
          "name": "",
          "type": "uint256"
        }
      ],
      "stateMutability": "view",
      "type": "function"
    },
    {
      "inputs": [
        {
          "internalType": "address",
          "name": "token",
          "type": "address"
        }
      ],
      "name": "harvestPartially",
      "outputs": [],
      "stateMutability": "nonpayable",
      "type": "function"
    },
    {
      "inputs": [],
      "name": "isActive",
      "outputs": [
        {
          "internalType": "bool",
          "name": "",
          "type": "bool"
        }
      ],
      "stateMutability": "view",
      "type": "function"
    },
    {
      "inputs": [
        {
          "internalType": "uint256",
          "name": "",
          "type": "uint256"
        }
      ],
      "name": "mainCharacterCache",
      "outputs": [
        {
          "internalType": "address",
          "name": "",
          "type": "address"
        }
      ],
      "stateMutability": "view",
      "type": "function"
    },
    {
      "inputs": [],
      "name": "mainRewardToken",
      "outputs": [
        {
          "internalType": "address",
          "name": "",
          "type": "address"
        }
      ],
      "stateMutability": "view",
      "type": "function"
    },
    {
      "inputs": [
        {
          "internalType": "address",
          "name": "destination",
          "type": "address"
        }
      ],
      "name": "migrateAllTo",
      "outputs": [],
      "stateMutability": "nonpayable",
      "type": "function"
    },
    {
      "inputs": [
        {
          "internalType": "uint256",
          "name": "trancheId",
          "type": "uint256"
        },
        {
          "internalType": "address",
          "name": "targetStrategy",
          "type": "address"
        },
        {
          "internalType": "address",
          "name": "yieldToken",
          "type": "address"
        },
        {
          "internalType": "address",
          "name": "yieldRecipient",
          "type": "address"
        }
      ],
      "name": "migrateStrategy",
      "outputs": [
        {
          "internalType": "address",
          "name": "",
          "type": "address"
        },
        {
          "internalType": "uint256",
          "name": "",
          "type": "uint256"
        },
        {
          "internalType": "uint256",
          "name": "",
          "type": "uint256"
        }
      ],
      "stateMutability": "nonpayable",
      "type": "function"
    },
    {
      "inputs": [],
      "name": "minimumBidPer10k",
      "outputs": [
        {
          "internalType": "uint256",
          "name": "",
          "type": "uint256"
        }
      ],
      "stateMutability": "view",
      "type": "function"
    },
    {
      "inputs": [
        {
          "internalType": "address",
          "name": "token",
          "type": "address"
        },
        {
          "internalType": "address",
          "name": "pegCurrency",
          "type": "address"
        }
      ],
      "name": "newCurrentOracle",
      "outputs": [],
      "stateMutability": "nonpayable",
      "type": "function"
    },
    {
      "inputs": [
        {
          "internalType": "contract IERC20",
          "name": "",
          "type": "address"
        },
        {
          "internalType": "uint256",
          "name": "",
          "type": "uint256"
        }
      ],
      "name": "pendingConvertedReward",
      "outputs": [
        {
          "internalType": "uint256",
          "name": "convertedStable",
          "type": "uint256"
        },
        {
          "internalType": "uint256",
          "name": "sourceRewards",
          "type": "uint256"
        }
      ],
      "stateMutability": "view",
      "type": "function"
    },
    {
      "inputs": [
        {
          "internalType": "address",
          "name": "depositor",
          "type": "address"
        },
        {
          "internalType": "uint256",
          "name": "trancheId",
          "type": "uint256"
        },
        {
          "internalType": "uint256",
          "name": "amount",
          "type": "uint256"
        },
        {
          "internalType": "address",
          "name": "yieldRecipient",
          "type": "address"
        }
      ],
      "name": "registerDepositFor",
      "outputs": [],
      "stateMutability": "nonpayable",
      "type": "function"
    },
    {
      "inputs": [
        {
          "internalType": "address",
          "name": "minter",
          "type": "address"
        },
        {
          "internalType": "uint256",
          "name": "trancheId",
          "type": "uint256"
        },
        {
          "internalType": "address",
          "name": "assetToken",
          "type": "address"
        },
        {
          "internalType": "uint256",
          "name": "",
          "type": "uint256"
        },
        {
          "internalType": "uint256",
          "name": "assetAmount",
          "type": "uint256"
        }
      ],
      "name": "registerMintTranche",
      "outputs": [],
      "stateMutability": "nonpayable",
      "type": "function"
    },
    {
      "inputs": [
        {
          "internalType": "address",
          "name": "yieldBearingToken",
          "type": "address"
        },
        {
          "internalType": "address",
          "name": "rewardToken",
          "type": "address"
        }
      ],
      "name": "removeRewardToken",
      "outputs": [],
      "stateMutability": "nonpayable",
      "type": "function"
    },
    {
      "inputs": [
        {
          "internalType": "address",
          "name": "token",
          "type": "address"
        },
        {
          "internalType": "uint256",
          "name": "amount",
          "type": "uint256"
        },
        {
          "internalType": "address",
          "name": "recipient",
          "type": "address"
        }
      ],
      "name": "rescueCollateral",
      "outputs": [],
      "stateMutability": "nonpayable",
      "type": "function"
    },
    {
      "inputs": [
        {
          "internalType": "uint256",
          "name": "amount",
          "type": "uint256"
        },
        {
          "internalType": "address",
          "name": "recipient",
          "type": "address"
        }
      ],
      "name": "rescueNative",
      "outputs": [],
      "stateMutability": "nonpayable",
      "type": "function"
    },
    {
      "inputs": [
        {
          "internalType": "address",
          "name": "token",
          "type": "address"
        },
        {
          "internalType": "uint256",
          "name": "amount",
          "type": "uint256"
        },
        {
          "internalType": "address",
          "name": "recipient",
          "type": "address"
        }
      ],
      "name": "rescueStrandedTokens",
      "outputs": [],
      "stateMutability": "nonpayable",
      "type": "function"
    },
    {
      "inputs": [
        {
          "internalType": "contract IERC20",
          "name": "",
          "type": "address"
        }
      ],
      "name": "rewardBalanceAccountedFor",
      "outputs": [
        {
          "internalType": "uint256",
          "name": "",
          "type": "uint256"
        }
      ],
      "stateMutability": "view",
      "type": "function"
    },
    {
      "inputs": [
        {
          "internalType": "address",
          "name": "",
          "type": "address"
        },
        {
          "internalType": "uint256",
          "name": "",
          "type": "uint256"
        }
      ],
      "name": "roleCache",
      "outputs": [
        {
          "internalType": "bool",
          "name": "",
          "type": "bool"
        }
      ],
      "stateMutability": "view",
      "type": "function"
    },
    {
      "inputs": [],
      "name": "roles",
      "outputs": [
        {
          "internalType": "contract Roles",
          "name": "",
          "type": "address"
        }
      ],
      "stateMutability": "view",
      "type": "function"
    },
    {
      "inputs": [],
      "name": "rolesPlayed",
      "outputs": [
        {
          "internalType": "uint256[]",
          "name": "",
          "type": "uint256[]"
        }
      ],
      "stateMutability": "view",
      "type": "function"
    },
    {
      "inputs": [
        {
          "internalType": "uint256",
          "name": "smoothing",
          "type": "uint256"
        }
      ],
      "name": "setApfSmoothingPer10k",
      "outputs": [],
      "stateMutability": "nonpayable",
      "type": "function"
    },
    {
      "inputs": [
        {
          "internalType": "uint256",
          "name": "fee",
          "type": "uint256"
        }
      ],
      "name": "setFeePer10k",
      "outputs": [],
      "stateMutability": "nonpayable",
      "type": "function"
    },
    {
      "inputs": [
        {
          "internalType": "uint256",
          "name": "bidmin",
          "type": "uint256"
        }
      ],
      "name": "setMinimumBidPer10k",
      "outputs": [],
      "stateMutability": "nonpayable",
      "type": "function"
    },
    {
      "inputs": [
        {
          "internalType": "address",
          "name": "",
          "type": "address"
        }
      ],
      "name": "stabilityFeePer10k",
      "outputs": [
        {
          "internalType": "uint256",
          "name": "",
          "type": "uint256"
        }
      ],
      "stateMutability": "view",
      "type": "function"
    },
    {
      "inputs": [],
      "name": "strategyName",
      "outputs": [
        {
          "internalType": "bytes32",
          "name": "",
          "type": "bytes32"
        }
      ],
      "stateMutability": "view",
      "type": "function"
    },
    {
      "inputs": [
        {
          "internalType": "address",
          "name": "token",
          "type": "address"
        }
      ],
      "name": "tallyHarvestBalance",
      "outputs": [
        {
          "internalType": "uint256",
          "name": "balance",
          "type": "uint256"
        }
      ],
      "stateMutability": "nonpayable",
      "type": "function"
    },
    {
      "inputs": [
        {
          "internalType": "contract IERC20",
          "name": "rewardToken",
          "type": "address"
        },
        {
          "internalType": "address",
          "name": "token",
          "type": "address"
        }
      ],
      "name": "tallyHarvestBalance",
      "outputs": [
        {
          "internalType": "uint256",
          "name": "balance",
          "type": "uint256"
        }
      ],
      "stateMutability": "nonpayable",
      "type": "function"
    },
    {
      "inputs": [
        {
          "internalType": "address",
          "name": "token",
          "type": "address"
        }
      ],
      "name": "tallyReward",
      "outputs": [],
      "stateMutability": "nonpayable",
      "type": "function"
    },
    {
      "inputs": [
        {
          "internalType": "contract IERC20",
          "name": "rewardToken",
          "type": "address"
        },
        {
          "internalType": "address",
          "name": "token",
          "type": "address"
        }
      ],
      "name": "tallyReward",
      "outputs": [],
      "stateMutability": "nonpayable",
      "type": "function"
    },
    {
      "inputs": [
        {
          "internalType": "address",
          "name": "",
          "type": "address"
        }
      ],
      "name": "tokenMetadata",
      "outputs": [
        {
          "internalType": "uint256",
          "name": "totalCollateralThisPhase",
          "type": "uint256"
        },
        {
          "internalType": "uint256",
          "name": "totalCollateralNow",
          "type": "uint256"
        },
        {
          "internalType": "uint256",
          "name": "apfLastUpdated",
          "type": "uint256"
        },
        {
          "internalType": "uint256",
          "name": "apf",
          "type": "uint256"
        }
      ],
      "stateMutability": "view",
      "type": "function"
    },
    {
      "inputs": [
        {
          "internalType": "uint256",
          "name": "trancheId",
          "type": "uint256"
        }
      ],
      "name": "tranche",
      "outputs": [
        {
          "internalType": "address",
          "name": "",
          "type": "address"
        }
      ],
      "stateMutability": "view",
      "type": "function"
    },
    {
      "inputs": [
        {
          "internalType": "uint256",
          "name": "trancheId",
          "type": "uint256"
        }
      ],
      "name": "trancheToken",
      "outputs": [
        {
          "internalType": "address",
          "name": "token",
          "type": "address"
        }
      ],
      "stateMutability": "view",
      "type": "function"
    },
    {
      "inputs": [
        {
          "internalType": "uint256",
          "name": "",
          "type": "uint256"
        }
      ],
      "name": "trancheTokenID",
      "outputs": [
        {
          "internalType": "uint256",
          "name": "",
          "type": "uint256"
        }
      ],
      "stateMutability": "pure",
      "type": "function"
    },
    {
      "inputs": [
        {
          "internalType": "uint256",
          "name": "role",
          "type": "uint256"
        }
      ],
      "name": "updateMainCharacterCache",
      "outputs": [],
      "stateMutability": "nonpayable",
      "type": "function"
    },
    {
      "inputs": [
        {
          "internalType": "uint256",
          "name": "role",
          "type": "uint256"
        },
        {
          "internalType": "address",
          "name": "contr",
          "type": "address"
        }
      ],
      "name": "updateRoleCache",
      "outputs": [],
      "stateMutability": "nonpayable",
      "type": "function"
    },
    {
      "inputs": [
        {
          "internalType": "address",
          "name": "token",
          "type": "address"
        }
      ],
      "name": "viewAPF",
      "outputs": [
        {
          "internalType": "uint256",
          "name": "",
          "type": "uint256"
        }
      ],
      "stateMutability": "view",
      "type": "function"
    },
    {
      "inputs": [],
      "name": "viewAllApprovedTokens",
      "outputs": [
        {
          "internalType": "address[]",
          "name": "",
          "type": "address[]"
        }
      ],
      "stateMutability": "view",
      "type": "function"
    },
    {
      "inputs": [],
      "name": "viewAllDisapprovedTokenStrategyMetadata",
      "outputs": [
        {
          "components": [
            {
              "internalType": "address",
              "name": "strategy",
              "type": "address"
            },
            {
              "internalType": "address",
              "name": "token",
              "type": "address"
            },
            {
              "internalType": "uint256",
              "name": "APF",
              "type": "uint256"
            },
            {
              "internalType": "uint256",
              "name": "totalCollateral",
              "type": "uint256"
            },
            {
              "internalType": "uint256",
              "name": "borrowablePer10k",
              "type": "uint256"
            },
            {
              "internalType": "uint256",
              "name": "valuePer1e18",
              "type": "uint256"
            },
            {
              "internalType": "bytes32",
              "name": "strategyName",
              "type": "bytes32"
            },
            {
              "internalType": "uint256",
              "name": "tvl",
              "type": "uint256"
            },
            {
              "internalType": "uint256",
              "name": "harvestBalance2Tally",
              "type": "uint256"
            },
            {
              "internalType": "enum IStrategy.YieldType",
              "name": "yieldType",
              "type": "uint8"
            },
            {
              "internalType": "uint256",
              "name": "stabilityFee",
              "type": "uint256"
            },
            {
              "internalType": "address",
              "name": "underlyingStrategy",
              "type": "address"
            }
          ],
          "internalType": "struct IStrategy.StrategyMetadata[]",
          "name": "",
          "type": "tuple[]"
        }
      ],
      "stateMutability": "view",
      "type": "function"
    },
    {
      "inputs": [],
      "name": "viewAllDisapprovedTokens",
      "outputs": [
        {
          "internalType": "address[]",
          "name": "",
          "type": "address[]"
        }
      ],
      "stateMutability": "view",
      "type": "function"
    },
    {
      "inputs": [],
      "name": "viewAllFeesEver",
      "outputs": [
        {
          "internalType": "uint256",
          "name": "",
          "type": "uint256"
        }
      ],
      "stateMutability": "view",
      "type": "function"
    },
    {
      "inputs": [],
      "name": "viewAllStrategyMetadata",
      "outputs": [
        {
          "components": [
            {
              "internalType": "address",
              "name": "strategy",
              "type": "address"
            },
            {
              "internalType": "address",
              "name": "token",
              "type": "address"
            },
            {
              "internalType": "uint256",
              "name": "APF",
              "type": "uint256"
            },
            {
              "internalType": "uint256",
              "name": "totalCollateral",
              "type": "uint256"
            },
            {
              "internalType": "uint256",
              "name": "borrowablePer10k",
              "type": "uint256"
            },
            {
              "internalType": "uint256",
              "name": "valuePer1e18",
              "type": "uint256"
            },
            {
              "internalType": "bytes32",
              "name": "strategyName",
              "type": "bytes32"
            },
            {
              "internalType": "uint256",
              "name": "tvl",
              "type": "uint256"
            },
            {
              "internalType": "uint256",
              "name": "harvestBalance2Tally",
              "type": "uint256"
            },
            {
              "internalType": "enum IStrategy.YieldType",
              "name": "yieldType",
              "type": "uint8"
            },
            {
              "internalType": "uint256",
              "name": "stabilityFee",
              "type": "uint256"
            },
            {
              "internalType": "address",
              "name": "underlyingStrategy",
              "type": "address"
            }
          ],
          "internalType": "struct IStrategy.StrategyMetadata[]",
          "name": "",
          "type": "tuple[]"
        }
      ],
      "stateMutability": "view",
      "type": "function"
    },
    {
      "inputs": [],
      "name": "viewAllTokensEver",
      "outputs": [
        {
          "internalType": "address[]",
          "name": "",
          "type": "address[]"
        }
      ],
      "stateMutability": "view",
      "type": "function"
    },
    {
      "inputs": [
        {
          "internalType": "uint256",
          "name": "trancheId",
          "type": "uint256"
        }
      ],
      "name": "viewBorrowable",
      "outputs": [
        {
          "internalType": "uint256",
          "name": "borrowablePer10k",
          "type": "uint256"
        }
      ],
      "stateMutability": "view",
      "type": "function"
    },
    {
      "inputs": [
        {
          "internalType": "address",
          "name": "token",
          "type": "address"
        }
      ],
      "name": "viewEstimatedHarvestable",
      "outputs": [
        {
          "internalType": "uint256",
          "name": "",
          "type": "uint256"
        }
      ],
      "stateMutability": "view",
      "type": "function"
    },
    {
      "inputs": [
        {
          "internalType": "address",
          "name": "token",
          "type": "address"
        }
      ],
      "name": "viewHarvestBalance2Tally",
      "outputs": [
        {
          "internalType": "uint256",
          "name": "balance",
          "type": "uint256"
        }
      ],
      "stateMutability": "view",
      "type": "function"
    },
    {
      "inputs": [
        {
          "internalType": "contract IERC20",
          "name": "rewardToken",
          "type": "address"
        },
        {
          "internalType": "address",
          "name": "token",
          "type": "address"
        }
      ],
      "name": "viewHarvestBalance2Tally",
      "outputs": [
        {
          "internalType": "uint256",
          "name": "",
          "type": "uint256"
        }
      ],
      "stateMutability": "view",
      "type": "function"
    },
    {
      "inputs": [
        {
          "internalType": "address",
          "name": "token",
          "type": "address"
        }
      ],
      "name": "viewPid",
      "outputs": [
        {
          "internalType": "uint256",
          "name": "",
          "type": "uint256"
        }
      ],
      "stateMutability": "view",
      "type": "function"
    },
    {
      "inputs": [
        {
          "internalType": "address",
          "name": "yieldBearingToken",
          "type": "address"
        }
      ],
      "name": "viewRewardTokens",
      "outputs": [
        {
          "internalType": "address[]",
          "name": "",
          "type": "address[]"
        }
      ],
      "stateMutability": "view",
      "type": "function"
    },
    {
      "inputs": [
        {
          "internalType": "address",
          "name": "token",
          "type": "address"
        }
      ],
      "name": "viewSourceHarvestable",
      "outputs": [
        {
          "internalType": "uint256",
          "name": "",
          "type": "uint256"
        }
      ],
      "stateMutability": "view",
      "type": "function"
    },
    {
      "inputs": [
        {
          "internalType": "address",
          "name": "token",
          "type": "address"
        }
      ],
      "name": "viewStrategyMetadata",
      "outputs": [
        {
          "components": [
            {
              "internalType": "address",
              "name": "strategy",
              "type": "address"
            },
            {
              "internalType": "address",
              "name": "token",
              "type": "address"
            },
            {
              "internalType": "uint256",
              "name": "APF",
              "type": "uint256"
            },
            {
              "internalType": "uint256",
              "name": "totalCollateral",
              "type": "uint256"
            },
            {
              "internalType": "uint256",
              "name": "borrowablePer10k",
              "type": "uint256"
            },
            {
              "internalType": "uint256",
              "name": "valuePer1e18",
              "type": "uint256"
            },
            {
              "internalType": "bytes32",
              "name": "strategyName",
              "type": "bytes32"
            },
            {
              "internalType": "uint256",
              "name": "tvl",
              "type": "uint256"
            },
            {
              "internalType": "uint256",
              "name": "harvestBalance2Tally",
              "type": "uint256"
            },
            {
              "internalType": "enum IStrategy.YieldType",
              "name": "yieldType",
              "type": "uint8"
            },
            {
              "internalType": "uint256",
              "name": "stabilityFee",
              "type": "uint256"
            },
            {
              "internalType": "address",
              "name": "underlyingStrategy",
              "type": "address"
            }
          ],
          "internalType": "struct IStrategy.StrategyMetadata",
          "name": "",
          "type": "tuple"
        }
      ],
      "stateMutability": "view",
      "type": "function"
    },
    {
      "inputs": [
        {
          "internalType": "uint256",
          "name": "trancheId",
          "type": "uint256"
        }
      ],
      "name": "viewTargetCollateralAmount",
      "outputs": [
        {
          "internalType": "uint256",
          "name": "",
          "type": "uint256"
        }
      ],
      "stateMutability": "view",
      "type": "function"
    },
    {
      "inputs": [
        {
          "internalType": "address",
          "name": "",
          "type": "address"
        }
      ],
      "name": "viewUnderlyingStrategy",
      "outputs": [
        {
          "internalType": "address",
          "name": "",
          "type": "address"
        }
      ],
      "stateMutability": "view",
      "type": "function"
    },
    {
      "inputs": [
        {
          "internalType": "uint256",
          "name": "trancheId",
          "type": "uint256"
        },
        {
          "internalType": "address",
          "name": "valueCurrency",
          "type": "address"
        }
      ],
      "name": "viewValue",
      "outputs": [
        {
          "internalType": "uint256",
          "name": "value",
          "type": "uint256"
        }
      ],
      "stateMutability": "view",
      "type": "function"
    },
    {
      "inputs": [
        {
          "internalType": "uint256",
          "name": "trancheId",
          "type": "uint256"
        },
        {
          "internalType": "address",
          "name": "valueCurrency",
          "type": "address"
        }
      ],
      "name": "viewValueBorrowable",
      "outputs": [
        {
          "internalType": "uint256",
          "name": "value",
          "type": "uint256"
        },
        {
          "internalType": "uint256",
          "name": "borrowable",
          "type": "uint256"
        }
      ],
      "stateMutability": "view",
      "type": "function"
    },
    {
      "inputs": [
        {
          "internalType": "uint256",
          "name": "trancheId",
          "type": "uint256"
        },
        {
          "internalType": "address",
          "name": "currency",
          "type": "address"
        }
      ],
      "name": "viewYield",
      "outputs": [
        {
          "internalType": "uint256",
          "name": "",
          "type": "uint256"
        }
      ],
      "stateMutability": "view",
      "type": "function"
    },
    {
      "inputs": [
        {
          "internalType": "uint256",
          "name": "trancheId",
          "type": "uint256"
        },
        {
          "internalType": "address",
          "name": "_yieldCurrency",
          "type": "address"
        },
        {
          "internalType": "address",
          "name": "valueCurrency",
          "type": "address"
        }
      ],
      "name": "viewYieldValueBorrowable",
      "outputs": [
        {
          "internalType": "uint256",
          "name": "yield",
          "type": "uint256"
        },
        {
          "internalType": "uint256",
          "name": "value",
          "type": "uint256"
        },
        {
          "internalType": "uint256",
          "name": "borrowablePer10k",
          "type": "uint256"
        }
      ],
      "stateMutability": "view",
      "type": "function"
    },
    {
      "inputs": [
        {
          "internalType": "uint256",
          "name": "trancheId",
          "type": "uint256"
        },
        {
          "internalType": "uint256",
          "name": "amount",
          "type": "uint256"
        },
        {
          "internalType": "address",
          "name": "yieldToken",
          "type": "address"
        },
        {
          "internalType": "address",
          "name": "recipient",
          "type": "address"
        }
      ],
      "name": "withdraw",
      "outputs": [],
      "stateMutability": "nonpayable",
      "type": "function"
    },
    {
      "inputs": [],
      "name": "wrappedNative",
      "outputs": [
        {
          "internalType": "contract IWETH",
          "name": "",
          "type": "address"
        }
      ],
      "stateMutability": "view",
      "type": "function"
    },
    {
      "inputs": [],
      "name": "yieldCurrency",
      "outputs": [
        {
          "internalType": "address",
          "name": "",
          "type": "address"
        }
      ],
      "stateMutability": "view",
      "type": "function"
    },
    {
      "inputs": [],
      "name": "yieldType",
      "outputs": [
        {
          "internalType": "enum IStrategy.YieldType",
          "name": "",
          "type": "uint8"
        }
      ],
      "stateMutability": "pure",
      "type": "function"
    },
    {
      "stateMutability": "payable",
      "type": "receive"
    }
  ],
  "bytecode": "0x6101206040526009805460ff191660011790556113886011556125e46018556103e86019553480156200003157600080fd5b5060405162005e9738038062005e97833981016040819052620000549162000390565b7f547261646572204a6f652073656c662d7265706179696e67000000000000000073d6a4f121ca35509af06a0be99093d08462f53052736e84a6216ea6dacc71ee8e6b0a5b7322eebc0fdd8484818582806001600160a01b0381166200010b5760405162461bcd60e51b815260206004820152602260248201527f506c656173652070726f766964652076616c696420726f6c6573206164647265604482015261737360f01b606482015260840160405180910390fd5b60601b6001600160601b0319166080526002805460018082018355606a60008051602062005e778339815191529283015560058054808301825560047f036b6384b5eca791c62761152d0c79bb0604c104a5fb6f4eb0703f3154bb3db09182018190558554808501875560669086015582548085019093559101849055835480830185556068908401556003805480840182557fc2575a0e9e593c00f959f8c92f12db2869c3395a3b0502d05e2516446f71f85b908101829055815480850190925501829055835491820184556000939093526069910181905560405163b4ed0b6d60e01b8152918201526001600160a01b0382169063b4ed0b6d9060240160206040518083038186803b1580156200022357600080fd5b505afa15801562000238573d6000803e3d6000fd5b505050506040513d601f19601f820116820180604052508101906200025e91906200036c565b6001600160a01b031663fae794e66040518163ffffffff1660e01b815260040160206040518083038186803b1580156200029757600080fd5b505afa158015620002ac573d6000803e3d6000fd5b505050506040513d601f19601f82011682018060405250810190620002d29190620003c7565b60a052506001600881905560c091909152600280549182018155600052606760008051602062005e7783398151915290910155606090811b6001600160601b031990811660e05294901b9093166101005250601c80546001600160a01b0319166001600160a01b039290921691909117905550620003e092505050565b80516001600160a01b03811681146200036757600080fd5b919050565b6000602082840312156200037e578081fd5b62000389826200034f565b9392505050565b60008060408385031215620003a3578081fd5b620003ae836200034f565b9150620003be602084016200034f565b90509250929050565b600060208284031215620003d9578081fd5b5051919050565b60805160601c60a05160c05160e05160601c6101005160601c6159c4620004b3600039600081816105aa01528181611026015281816111b50152818161126301528181611329015281816113ae015281816124b30152818161305a015281816139ba01528181613cf601528181614ac70152614aee015260008181610e300152612097015260008181610d2801526115c101526000612a84015260008181610712015281816110db01528181611e450152818161380f015281816138a201528181613c4e01526143cc01526159c46000f3fe6080604052600436106103b25760003560e01c8062df88b4146103bb57806301c7b9f8146104115780630581f3b51461043f57806306b8ce991461045f578063071060a6146104745780630a3017d9146104945780630ccc5bd6146104b45780630d749628146104d4578063110acb23146104ea57806313710eb81461051757806318af4c9e146105375780631dc3a759146105575780631f7ea881146105785780631fc8bc5d1461059857806321fa0f1f146105d957806322f3e2d4146105fb57806323cb2390146106255780632642b6061461064557806326473a8f1461068657806328f3fc73146106a15780632d9c4546146106c1578063392f5f64146107005780633a3db435146107345780633ace96ec14610754578063447d52ba14610774578063459ba1271461079457806349d4f22e146107b45780634a7a7f41146107d45780634d9d01b2146107f65780634df87c091461080b578063525e82691461082b5780636caa9c111461084b5780636fecdf241461086b57806371b3177a146108d05780637268d1c0146108f057806379251d8814610910578063794a41cc146109305780637a1a04df1461095d5780637b2c9279146109985780637dad209b146109ad5780638496e891146109c257806385f7ca24146109fd57806389f117b314610a1d5780638a31b98f14610a3d5780639470505f14610a5d5780639b0f09ae14610a7d578063a4d77f9014610a99578063a50233c914610ab9578063a51c8fab14610ad9578063abcbc4fc14610afb578063ad89b79414610b1b578063aeb38d8b14610b30578063b06ea8f014610b50578063b23d66c214610b66578063b832799314610bab578063b9bcce1c14610bcb578063bf184ea414610beb578063c5c72dc314610c0b578063d0d9ab5914610c2b578063d0e1b89714610c40578063d241c9c014610c60578063d2d719d614610c80578063d6e113ab14610c96578063d7fb7b3114610cb6578063d9cb512c14610ccc578063dc94cb7d14610ce1578063e12c11d514610cf6578063e173ad2514610d16578063e22d284514610d4a578063e2e730f614610db3578063e8ea4fae14610dd3578063e9c3f77d14610de8578063eb6d3a1114610e1e578063efc1e45914610e52578063f3fc7c2b14610e72578063f725ed1014610e92578063f8903fb714610eb2578063f8d6a05d14610ed2578063fa98a4ba14610ef2578063fabee7db14610f12578063fac82e8c14610f32578063fb875ece14610f52578063fd80d0c314610f80578063fe65a5b414610fa0576103b9565b366103b957005b005b3480156103c757600080fd5b506103fa6103d63660046150b1565b60146020908152600092835260408084209091529082529020805460019091015482565b6040516104089291906157f9565b60405180910390f35b34801561041d57600080fd5b5061043161042c3660046151db565b610fc0565b604051908152602001610408565b34801561044b57600080fd5b5061043161045a366004614e16565b610fe5565b34801561046b57600080fd5b506104316110b4565b34801561048057600080fd5b506103b961048f3660046151ab565b6110c5565b3480156104a057600080fd5b506104316104af366004614e16565b61118b565b3480156104c057600080fd5b506103b96104cf366004614f30565b61149b565b3480156104e057600080fd5b50610431601a5481565b3480156104f657600080fd5b5061050a610505366004614e16565b611524565b6040516104089190615792565b34801561052357600080fd5b506103b96105323660046150c3565b61162b565b34801561054357600080fd5b506103b96105523660046151db565b611937565b34801561056357600080fd5b506104316105723660046151ab565b50600090565b34801561058457600080fd5b506103b9610593366004614e86565b6119e1565b3480156105a457600080fd5b506105cc7f000000000000000000000000000000000000000000000000000000000000000081565b60405161040891906154d5565b3480156105e557600080fd5b506105ee611a99565b604051610408919061558c565b34801561060757600080fd5b506009546106159060ff1681565b6040519015158152602001610408565b34801561063157600080fd5b506103b9610640366004614e4e565b611b6b565b34801561065157600080fd5b506105cc610660366004614e4e565b60066020908152600092835260408084209091529082529020546001600160a01b031681565b34801561069257600080fd5b50610431610572366004614e16565b3480156106ad57600080fd5b506103b96106bc366004614e4e565b611bd6565b3480156106cd57600080fd5b506103fa6106dc366004614f05565b60156020908152600092835260408084209091529082529020805460019091015482565b34801561070c57600080fd5b506105cc7f000000000000000000000000000000000000000000000000000000000000000081565b34801561074057600080fd5b506103b961074f3660046151ab565b611cc9565b34801561076057600080fd5b506103b961076f366004614e86565b611d63565b34801561078057600080fd5b506103b961078f3660046151db565b611e2e565b3480156107a057600080fd5b506103b96107af36600461527c565b611f04565b3480156107c057600080fd5b506103b96107cf366004614f30565b611f7d565b3480156107e057600080fd5b506107e9612000565b60405161040891906155cf565b34801561080257600080fd5b50610431612058565b34801561081757600080fd5b50610615610826366004614e16565b612064565b34801561083757600080fd5b506103b9610846366004614e16565b612077565b34801561085757600080fd5b506104316108663660046151ab565b612142565b34801561087757600080fd5b506108b0610886366004614e16565b60126020526000908152604090206001810154600282015460038301546004909301549192909184565b604080519485526020850193909352918301526060820152608001610408565b3480156108dc57600080fd5b506103b96108eb366004615397565b612163565b3480156108fc57600080fd5b5061043161090b3660046151ab565b61223c565b34801561091c57600080fd5b506103b961092b366004614e4e565b61225b565b34801561093c57600080fd5b5061043161094b366004614e16565b60166020526000908152604090205481565b34801561096957600080fd5b50610615610978366004614f05565b600160209081526000928352604080842090915290825290205460ff1681565b3480156109a457600080fd5b506105cc6122c6565b3480156109b957600080fd5b506107e96122d0565b3480156109ce57600080fd5b506109e26109dd366004615235565b612326565b60408051938452602084019290925290820152606001610408565b348015610a0957600080fd5b50610431610a18366004614e16565b612441565b348015610a2957600080fd5b506103b9610a38366004614e16565b612466565b348015610a4957600080fd5b50610431610a58366004614e16565b61252f565b348015610a6957600080fd5b50610431610a78366004614e16565b612591565b348015610a8957600080fd5b5060006040516104089190615622565b348015610aa557600080fd5b506103fa610ab43660046151db565b6125ec565b348015610ac557600080fd5b506103b9610ad4366004615048565b612615565b348015610ae557600080fd5b50610aee6126d6565b604051610408919061553f565b348015610b0757600080fd5b50610431610b163660046151ab565b6126e2565b348015610b2757600080fd5b506105ee6126f2565b348015610b3c57600080fd5b50610431610b4b3660046151ab565b6127bd565b348015610b5c57600080fd5b5061043160115481565b348015610b7257600080fd5b50610b86610b81366004615235565b6127cd565b604080516001600160a01b039094168452602084019290925290820152606001610408565b348015610bb757600080fd5b506103b9610bc6366004614f71565b6128e0565b348015610bd757600080fd5b50610aee610be6366004614e16565b612999565b348015610bf757600080fd5b50610431610c063660046151ab565b6129bd565b348015610c1757600080fd5b50610431610c263660046151ab565b6129cd565b348015610c3757600080fd5b50610aee6129df565b348015610c4c57600080fd5b506103b9610c5b3660046151ab565b6129eb565b348015610c6c57600080fd5b506105cc610c7b3660046151ab565b612a7c565b348015610c8c57600080fd5b5061043160195481565b348015610ca257600080fd5b50610431610cb13660046150b1565b612b76565b348015610cc257600080fd5b5061043160185481565b348015610cd857600080fd5b50610aee612da0565b348015610ced57600080fd5b506107e9612dac565b348015610d0257600080fd5b506103b9610d113660046150b1565b612e02565b348015610d2257600080fd5b506104317f000000000000000000000000000000000000000000000000000000000000000081565b348015610d5657600080fd5b50610d8f610d653660046151ab565b6010602052600090815260409020805460018201546002909201549091906001600160a01b031683565b6040805193845260208401929092526001600160a01b031690820152606001610408565b348015610dbf57600080fd5b50610431610dce366004614e16565b612f4d565b348015610ddf57600080fd5b506107e9612f6b565b348015610df457600080fd5b506105cc610e033660046151ab565b6000602081905290815260409020546001600160a01b031681565b348015610e2a57600080fd5b506105cc7f000000000000000000000000000000000000000000000000000000000000000081565b348015610e5e57600080fd5b50610431610e6d3660046150b1565b612fc1565b348015610e7e57600080fd5b50601c546105cc906001600160a01b031681565b348015610e9e57600080fd5b506105cc610ead366004614e16565b613057565b348015610ebe57600080fd5b50610431610ecd3660046151ff565b61307c565b348015610ede57600080fd5b50610431610eed366004614e16565b61316f565b348015610efe57600080fd5b506109e2610f0d3660046151ff565b61318d565b348015610f1e57600080fd5b506105cc610f2d3660046151ab565b6131c8565b348015610f3e57600080fd5b506103b9610f4d366004614e16565b6131e6565b348015610f5e57600080fd5b50610f72610f6d366004614fc2565b6133aa565b604051610408929190615607565b348015610f8c57600080fd5b50610431610f9b3660046151db565b6134a0565b348015610fac57600080fd5b506103b9610fbb3660046151ab565b6134e4565b6000610fdd610fce846131c8565b610fd7856129cd565b8461357c565b509392505050565b600080610ff183612441565b601c5460405160016232bd9d60e01b03198152600481018390523060248201529192506110ad916001600160a01b03918216917f0000000000000000000000000000000000000000000000000000000000000000169063ffcd42639060440160206040518083038186803b15801561106857600080fd5b505afa15801561107c573d6000803e3d6000fd5b505050506040513d601f19601f820116820180604052508101906110a091906151c3565b6110a86122c6565b6136c1565b9392505050565b60006110c0600c613801565b905090565b60405163b4ed0b6d60e01b8152600481018290527f00000000000000000000000000000000000000000000000000000000000000006001600160a01b03169063b4ed0b6d9060240160206040518083038186803b15801561112557600080fd5b505afa158015611139573d6000803e3d6000fd5b505050506040513d601f19601f8201168201806040525081019061115d9190614e32565b60009182526020829052604090912080546001600160a01b0319166001600160a01b03909216919091179055565b6000806111966122c6565b9050600061124a601c60009054906101000a90046001600160a01b03167f00000000000000000000000000000000000000000000000000000000000000006001600160a01b031663ca418d236040518163ffffffff1660e01b815260040160206040518083038186803b15801561120c57600080fd5b505afa158015611220573d6000803e3d6000fd5b505050506040513d601f19601f8201168201806040525081019061124491906151c3565b846136c1565b905060006112f485866001600160a01b03166370a082317f00000000000000000000000000000000000000000000000000000000000000006040518263ffffffff1660e01b815260040161129e91906154d5565b60206040518083038186803b1580156112b657600080fd5b505afa1580156112ca573d6000803e3d6000fd5b505050506040513d601f19601f820116820180604052508101906112ee91906151c3565b856136c1565b6001600160a01b038681166000908152601b6020526040808220549051631526fe2760e01b81526004810191909152929350917f000000000000000000000000000000000000000000000000000000000000000090911690631526fe279060240160a06040518083038186803b15801561136d57600080fd5b505afa158015611381573d6000803e3d6000fd5b505050506040513d601f19601f820116820180604052508101906113a591906150f7565b602001519050817f00000000000000000000000000000000000000000000000000000000000000006001600160a01b03166317caf6f16040518163ffffffff1660e01b815260040160206040518083038186803b15801561140557600080fd5b505afa158015611419573d6000803e3d6000fd5b505050506040513d601f19601f8201168201806040525081019061143d91906151c3565b828560195461271061144f9190615882565b61145d906301e13380615863565b6114679190615863565b6114719190615863565b61147b919061584f565b611485919061584f565b61149190612710615837565b9695505050505050565b336114a461380b565b6001600160a01b031614806114c85750336114bd61389e565b6001600160a01b0316145b6114ed5760405162461bcd60e51b81526004016114e490615643565b60405180910390fd5b6001600160a01b0381166115135760405162461bcd60e51b81526004016114e4906156f0565b61151e81848461390f565b50505050565b61152c614d81565b60008061154984670de0b6b3a7640000611544613ae8565b61357c565b91509150604051806101800160405280306001600160a01b03168152602001856001600160a01b031681526020016115808661118b565b815260200160126000876001600160a01b03166001600160a01b031681526020019081526020016000206002015481526020018281526020018381526020017f000000000000000000000000000000000000000000000000000000000000000081526020016115ee86612f4d565b81526020016115fc86612591565b8152602001600081526020016000815260200161161886613057565b6001600160a01b03169052949350505050565b6002600854141561164e5760405162461bcd60e51b81526004016114e490615724565b60026008556001600160a01b038316600090815260166020526040812054611677908490613b20565b9050600081116116c95760405162461bcd60e51b815260206004820152601f60248201527f4e6f2063757272656e746c7920636f6e7665727469626c65207265776172640060448201526064016114e4565b60006116dd85856116d86122c6565b613b38565b9050601854816116ed9190615863565b6116f984612710615863565b101561173a5760405162461bcd60e51b815260206004820152601060248201526f125b9cdd59999a58da595b9d08189a5960821b60448201526064016114e4565b6000846117478585615863565b611751919061584f565b905061175b6122c6565b6001600160a01b0316639dc29fac33836040518363ffffffff1660e01b8152600401611788929190615503565b600060405180830381600087803b1580156117a257600080fd5b505af11580156117b6573d6000803e3d6000fd5b505050506000612710826019546117cd9190615863565b6117d7919061584f565b90506117e16122c6565b6001600160a01b03166340c10f196117f7613ba6565b836040518363ffffffff1660e01b8152600401611815929190615503565b600060405180830381600087803b15801561182f57600080fd5b505af1158015611843573d6000803e3d6000fd5b5050505080601a60008282546118599190615837565b90915550506001600160a01b03871660009081526015602090815260408083206013835281842054845290915281206019549091906127109061189c9082615882565b6118a69086615863565b6118b0919061584f565b8083556001600160a01b038a166000908152601360205260408120805492935083929091906118e0908490615837565b909155506118fa90506001600160a01b038a163388613bde565b6001600160a01b03891660009081526016602052604081208054889290611922908490615882565b90915550506001600855505050505050505050565b3361194061380b565b6001600160a01b0316148061196457503361195961389e565b6001600160a01b0316145b6119805760405162461bcd60e51b81526004016114e490615643565b6001600160a01b0381166119a65760405162461bcd60e51b81526004016114e4906156f0565b6040516001600160a01b0382169083156108fc029084906000818181858888f193505050501580156119dc573d6000803e3d6000fd5b505050565b336119ea61380b565b6001600160a01b03161480611a0e575033611a0361389e565b6001600160a01b0316145b80611a1d5750611a1d33613c34565b611a795760405162461bcd60e51b8152602060048201526039602482015260008051602061596f833981519152604482015278391037b91030baba3437b934bd32b21030b1ba34bb30ba37b960391b60648201526084016114e4565b611a84838383613cd7565b61151e83670de0b6b3a76400006116d8613ae8565b60606000611aa7600a613801565b90506000816001600160401b03811115611ad157634e487b7160e01b600052604160045260246000fd5b604051908082528060200260200182016040528015611b0a57816020015b611af7614d81565b815260200190600190039081611aef5790505b50905060005b80831115611b6457611b26610505600a83613eb5565b828281518110611b4657634e487b7160e01b600052603260045260246000fd5b60200260200101819052508080611b5c906158c5565b915050611b10565b5091505090565b33611b7461380b565b6001600160a01b03161480611b98575033611b8d61389e565b6001600160a01b0316145b611bb45760405162461bcd60e51b81526004016114e490615643565b6001600160a01b03821660009081526017602052604090206119dc9082613ec1565b6001600160a01b03828116600090815260066020908152604080832085851684529091529020541615611cc557611c0b613ed6565b6001600160a01b0316635e73a03483836040518363ffffffff1660e01b8152600401611c389291906154e9565b60206040518083038186803b158015611c5057600080fd5b505afa158015611c64573d6000803e3d6000fd5b505050506040513d601f19601f82011682018060405250810190611c889190614e32565b6001600160a01b0383811660009081526006602090815260408083208685168452909152902080546001600160a01b031916929091169190911790555b5050565b33611cd261380b565b6001600160a01b03161480611cf6575033611ceb61389e565b6001600160a01b0316145b611d125760405162461bcd60e51b81526004016114e490615643565b601181905560408051818152600d918101919091526c61706620736d6f6f7468696e6760981b60608201526020810182905260008051602061594f833981519152906080015b60405180910390a150565b33611d6c61380b565b6001600160a01b03161480611d90575033611d8561389e565b6001600160a01b0316145b611dac5760405162461bcd60e51b81526004016114e490615643565b611db7600a84613f0e565b50611dc3600c84613ec1565b50611dcc613f23565b6001600160a01b03166311848c45306040518263ffffffff1660e01b8152600401611df791906154d5565b600060405180830381600087803b158015611e1157600080fd5b505af1158015611e25573d6000803e3d6000fd5b50505050505050565b60405163f0723d9760e01b81526001600160a01b037f0000000000000000000000000000000000000000000000000000000000000000169063f0723d9790611e7c9084908690600401615503565b60206040518083038186803b158015611e9457600080fd5b505afa158015611ea8573d6000803e3d6000fd5b505050506040513d601f19601f82011682018060405250810190611ecc9190615091565b6001600160a01b0391909116600090815260016020908152604080832094835293905291909120805460ff1916911515919091179055565b60026008541415611f275760405162461bcd60e51b81526004016114e490615724565b6002600855611f3585612a7c565b6001600160a01b0316336001600160a01b031614611f655760405162461bcd60e51b81526004016114e4906156bd565b611f7184868584613f5b565b50506001600855505050565b33611f8661380b565b6001600160a01b03161480611faa575033611f9f61389e565b6001600160a01b0316145b611fc65760405162461bcd60e51b81526004016114e490615643565b6001600160a01b038116611fec5760405162461bcd60e51b81526004016114e4906156f0565b6119dc6001600160a01b0384168284613bde565b6060600380548060200260200160405190810160405280929190818152602001828054801561204e57602002820191906000526020600020905b81548152602001906001019080831161203a575b5050505050905090565b60006110c0600a613801565b6000612071600a83613fab565b92915050565b6001600160a01b0381166000908152601760205260409020471561210a577f00000000000000000000000000000000000000000000000000000000000000006001600160a01b031663d0e30db0476040518263ffffffff1660e01b81526004016000604051808303818588803b1580156120f057600080fd5b505af1158015612104573d6000803e3d6000fd5b50505050505b60005b8061211783613801565b11156119dc5761213061212a8383613eb5565b84612e02565b8061213a816158c5565b91505061210d565b6005818154811061215257600080fd5b600091825260209091200154905081565b60095460ff166121855760405162461bcd60e51b81526004016114e49061568d565b600260085414156121a85760405162461bcd60e51b81526004016114e490615724565b60026008556121b633613fc0565b6121ff5760405162461bcd60e51b815260206004820152601a6024820152794e6f7420617574686f72697a656420746f20776974686472617760301b60448201526064016114e4565b6001600160a01b0381166122255760405162461bcd60e51b81526004016114e4906156f0565b61223184848484613fe9565b505060016008555050565b60006110ad61224a836131c8565b612253846129cd565b6115446122c6565b3361226461380b565b6001600160a01b0316148061228857503361227d61389e565b6001600160a01b0316145b6122a45760405162461bcd60e51b81526004016114e490615643565b6001600160a01b03821660009081526017602052604090206119dc9082613f0e565b60006110c0613ae8565b6060600480548060200260200160405190810160405280929190818152602001828054801561204e576020028201919060005260206000209081548152602001906001019080831161203a575050505050905090565b60008060006002600854141561234e5760405162461bcd60e51b81526004016114e490615724565b600260085561235c33613fc0565b806123e8575061236b87612a7c565b6001600160a01b0316632972b0f033896040518363ffffffff1660e01b8152600401612398929190615503565b60206040518083038186803b1580156123b057600080fd5b505afa1580156123c4573d6000803e3d6000fd5b505050506040513d601f19601f820116820180604052508101906123e89190615091565b6124045760405162461bcd60e51b81526004016114e49061575b565b61240f8787866140a6565b925061242c61241d886131c8565b612426896129cd565b876141f1565b60016008559398909750929550919350505050565b6001600160a01b0381166000908152601b602052604081205461207190600190615882565b600260085414156124895760405162461bcd60e51b81526004016114e490615724565b6002600855600061249982612441565b604051630441a3e760e41b81529091506001600160a01b037f0000000000000000000000000000000000000000000000000000000000000000169063441a3e70906124eb9084906000906004016157f9565b600060405180830381600087803b15801561250557600080fd5b505af1158015612519573d6000803e3d6000fd5b5050505061252682612077565b50506001600855565b6001600160a01b0381166000908152601760205260408120815b8061255383613801565b111561258a5761256c6125668383613eb5565b85612b76565b6125769084615837565b925080612582816158c5565b915050612549565b5050919050565b6001600160a01b0381166000908152601760205260408120815b806125b583613801565b111561258a576125ce6125c88383613eb5565b85612fc1565b6125d89084615837565b9250806125e4816158c5565b9150506125ab565b60008061260a6125fb856131c8565b612604866129cd565b8561357c565b915091509250929050565b60095460ff166126375760405162461bcd60e51b81526004016114e49061568d565b6002600854141561265a5760405162461bcd60e51b81526004016114e490615724565b600260085561266833613fc0565b6126c25760405162461bcd60e51b815260206004820152602560248201527f4e6f7420617574686f72697a656420746f207472616e7366657220757365722060448201526466756e647360d81b60648201526084016114e4565b6122318484846126d06122c6565b85614260565b60606110c0600a6142f9565b6002818154811061215257600080fd5b60606000612700600c613801565b90506000816001600160401b0381111561272a57634e487b7160e01b600052604160045260246000fd5b60405190808252806020026020018201604052801561276357816020015b612750614d81565b8152602001906001900390816127485790505b50905060005b80831115611b645761277f610505600c83613eb5565b82828151811061279f57634e487b7160e01b600052603260045260246000fd5b602002602001018190525080806127b5906158c5565b915050612769565b6004818154811061215257600080fd5b6009546000908190819060ff166127f65760405162461bcd60e51b81526004016114e49061568d565b6127ff87612a7c565b6001600160a01b0316336001600160a01b03161461282f5760405162461bcd60e51b81526004016114e4906156bd565b600061283a886131c8565b90506000612847896129cd565b90506128548988886140a6565b50600061286230848461390f565b90506128786001600160a01b0384168a83614306565b6001600160a01b038316600090815260126020526040812060020180548392906128a3908490615882565b90915550506000998a52601060205260408a208a8155600181018b905560020180546001600160a01b031916905591999197509095505050505050565b60095460ff166129025760405162461bcd60e51b81526004016114e49061568d565b600260085414156129255760405162461bcd60e51b81526004016114e490615724565b600260085561293333613fc0565b801561294f57503361294485612a7c565b6001600160a01b0316145b61298d5760405162461bcd60e51b815260206004820152600f60248201526e496e76616c6964207472616e63686560881b60448201526064016114e4565b611f7185858584613f5b565b6001600160a01b0381166000908152601760205260409020606090612071906142f9565b6003818154811061215257600080fd5b60009081526010602052604090205490565b60606110c0600c6142f9565b336129f461380b565b6001600160a01b03161480612a18575033612a0d61389e565b6001600160a01b0316145b612a345760405162461bcd60e51b81526004016114e490615643565b601881905560408051818152600b918101919091526a135a5b9a5b5d5b48189a5960aa1b60608201526020810182905260008051602061594f83398151915290608001611d58565b600080612aa97f0000000000000000000000000000000000000000000000000000000000000000846158e0565b6000818152600760205260409020549091506001600160a01b0316806110ad57606960009081526020527f366a7b92acda364086cc991f618bf9f10b629ec0f7ae94543f96b691b69ec9925460405163043b4d2f60e51b8152600481018490526001600160a01b0390911690638769a5e09060240160206040518083038186803b158015612b3657600080fd5b505afa158015612b4a573d6000803e3d6000fd5b505050506040513d601f19601f82011682018060405250810190612b6e9190614e32565b949350505050565b6000612b828383612fc1565b6001600160a01b038085166000818152601460209081526040808320948816835293815283822083835260158252848320815480855290835285842094845260139092529390912054939450919290911015612d98578215612d765782816000016000828254612bf29190615882565b925050819055508160010154816001016000828254612c119190615882565b90915550506001600160a01b03841660009081526012602052604081208054909190612c3e576000612c78565b81548290612c4e90600190615882565b81548110612c6c57634e487b7160e01b600052603260045260246000fd5b90600052602060002001545b600183015490915015612cce576001820154600090612c9b600160401b88615863565b612ca5919061584f565b905082612cb28284615837565b8154600181018355600092835260209092209091015550612d69565b815460018101835560008381526020902001819055612ceb6122c6565b6001600160a01b03166340c10f19612d01613ba6565b876040518363ffffffff1660e01b8152600401612d1f929190615503565b600060405180830381600087803b158015612d3957600080fd5b505af1158015612d4d573d6000803e3d6000fd5b5050505084601a6000828254612d639190615837565b90915550505b5060028101546001909101555b6000600183018190556001600160a01b03861681526013602052604090205482555b505092915050565b60606110c0600e6142f9565b6060600280548060200260200160405190810160405280929190818152602001828054801561204e576020028201919060005260206000209081548152602001906001019080831161203a575050505050905090565b612e0b8161252f565b506040516370a0823160e01b81526000906001600160a01b038416906370a0823190612e3b9030906004016154d5565b60206040518083038186803b158015612e5357600080fd5b505afa158015612e67573d6000803e3d6000fd5b505050506040513d601f19601f82011682018060405250810190612e8b91906151c3565b6001600160a01b03841660009081526016602052604081205491925090612eb29083615882565b9050801561151e576001600160a01b03808516600081815260146020908152604080832094881683529381528382209282526015815283822083548352905291822060018201805492939192859290612f0c908490615837565b9250508190555082816001016000828254612f279190615837565b909155505050506001600160a01b03939093166000908152601660205260409020555050565b6001600160a01b031660009081526012602052604090206002015490565b6060600580548060200260200160405190810160405280929190818152602001828054801561204e576020028201919060005260206000209081548152602001906001019080831161203a575050505050905090565b6001600160a01b03808316600081815260146020908152604080832094861683529381528382208383526015825284832081548085529083528584209484526013909252938220549193929111801561301e575060008160010154115b1561304c576001808201549083015482546130399190615863565b613043919061584f565b92505050612071565b506000949350505050565b507f000000000000000000000000000000000000000000000000000000000000000090565b6000600260085414156130a15760405162461bcd60e51b81526004016114e490615724565b60026008556130af33613fc0565b8061313b57506130be84612a7c565b6001600160a01b0316632972b0f033866040518363ffffffff1660e01b81526004016130eb929190615503565b60206040518083038186803b15801561310357600080fd5b505afa158015613117573d6000803e3d6000fd5b505050506040513d601f19601f8201168201806040525081019061313b9190615091565b6131575760405162461bcd60e51b81526004016114e49061575b565b6131628484846140a6565b6001600855949350505050565b600061317a82610fe5565b61318383612591565b6120719190615837565b600080600061319c86866134a0565b92506131b96131aa876131c8565b6131b3886129cd565b8661357c565b93979096509294509192505050565b6000908152601060205260409020600201546001600160a01b031690565b60095460ff166132085760405162461bcd60e51b81526004016114e49061568d565b3361321161380b565b6001600160a01b0316148061323557503361322a61389e565b6001600160a01b0316145b8061324f5750336132446143b2565b6001600160a01b0316145b6132aa5760405162461bcd60e51b8152602060048201526038602482015260008051602061596f833981519152604482015277391037b91030baba3437b934bd32b2103234b9b0b13632b960411b60648201526084016114e4565b6132b2614416565b5060005b806132c1600e613801565b111561339c5760006132d4600e83613eb5565b905060006132e182612f4d565b905060006132ed613f23565b90506132fa81848461390f565b506133106001600160a01b038416826000614467565b6133266001600160a01b03841682600019614467565b60405163269974d160e21b81526001600160a01b03821690639a65d3449061335490889087906004016154e9565b600060405180830381600087803b15801561336e57600080fd5b505af1158015613382573d6000803e3d6000fd5b505050505050508080613394906158c5565b9150506132b6565b50506009805460ff19169055565b6001600160a01b0384166000908152601760205260408120606090600190835b8086111561342d5782801561341957506134198787838181106133fd57634e487b7160e01b600052603260045260246000fd5b90506020020160208101906134129190614e16565b8390613fab565b925080613425816158c5565b9150506133ca565b5061343788612064565b80156134645750613449876001615837565b6001600160a01b0389166000908152601b6020526040902054145b801561346d5750815b878787604051602001613482939291906157a1565b60405160208183030381529060405293509350505094509492505050565b6000828152601060205260408120612b6e816012846134be886131c8565b6001600160a01b03166001600160a01b0316815260200190815260200160002085614579565b336134ed61380b565b6001600160a01b0316148061351157503361350661389e565b6001600160a01b0316145b61352d5760405162461bcd60e51b81526004016114e490615643565b6019819055604080518181526012918101919091527150726f746f636f6c207969656c642066656560701b60608201526020810182905260008051602061594f83398151915290608001611d58565b6001600160a01b0380841660009081526006602090815260408083208585168452909152812054909182911680613635576135b5613ed6565b6001600160a01b0316635e73a03487866040518363ffffffff1660e01b81526004016135e29291906154e9565b60206040518083038186803b1580156135fa57600080fd5b505afa15801561360e573d6000803e3d6000fd5b505050506040513d601f19601f820116820180604052508101906136329190614e32565b90505b6040516313f3552960e21b81526001600160a01b03821690634fcd54a4906136659089908990899060040161551c565b604080518083038186803b15801561367c57600080fd5b505afa158015613690573d6000803e3d6000fd5b505050506040513d601f19601f820116820180604052508101906136b49190615374565b9097909650945050505050565b6001600160a01b038084166000908152600660209081526040808320858516845290915281205490911680613778576136f8613ed6565b6001600160a01b0316635e73a03486856040518363ffffffff1660e01b81526004016137259291906154e9565b60206040518083038186803b15801561373d57600080fd5b505afa158015613751573d6000803e3d6000fd5b505050506040513d601f19601f820116820180604052508101906137759190614e32565b90505b6040516323aaad6360e21b81526001600160a01b03821690638eaab58c906137a89088908890889060040161551c565b60206040518083038186803b1580156137c057600080fd5b505afa1580156137d4573d6000803e3d6000fd5b505050506040513d601f19601f820116820180604052508101906137f891906151c3565b95945050505050565b6000612071825490565b60007f00000000000000000000000000000000000000000000000000000000000000006001600160a01b0316638da5cb5b6040518163ffffffff1660e01b815260040160206040518083038186803b15801561386657600080fd5b505afa15801561387a573d6000803e3d6000fd5b505050506040513d601f19601f820116820180604052508101906110c09190614e32565b60007f00000000000000000000000000000000000000000000000000000000000000006001600160a01b031663c34c08e56040518163ffffffff1660e01b8152600401602060405180830381600087803b1580156138fb57600080fd5b505af115801561387a573d6000803e3d6000fd5b60006001600160a01b0384166139375760405162461bcd60e51b81526004016114e4906156f0565b6040516370a0823160e01b81526000906001600160a01b038516906370a08231906139669030906004016154d5565b60206040518083038186803b15801561397e57600080fd5b505afa158015613992573d6000803e3d6000fd5b505050506040513d601f19601f820116820180604052508101906139b691906151c3565b90507f00000000000000000000000000000000000000000000000000000000000000006001600160a01b031663441a3e706139f086612441565b856040518363ffffffff1660e01b8152600401613a0e9291906157f9565b600060405180830381600087803b158015613a2857600080fd5b505af1158015613a3c573d6000803e3d6000fd5b50505050600081856001600160a01b03166370a08231306040518263ffffffff1660e01b8152600401613a6f91906154d5565b60206040518083038186803b158015613a8757600080fd5b505afa158015613a9b573d6000803e3d6000fd5b505050506040513d601f19601f82011682018060405250810190613abf91906151c3565b613ac99190615882565b9050613ad485612077565b6137f86001600160a01b0386168783613bde565b606660009081526020527f422cccb7cea5c0e46f340bb7b21b81debac329f72e31669c20ff0f3a05cc2b5b546001600160a01b031690565b600081831115613b31575080612071565b5081612071565b600080613b458584614693565b604051630576cbc360e41b81529091506001600160a01b0382169063576cbc3090613b789088908890889060040161551c565b602060405180830381600087803b158015613b9257600080fd5b505af11580156137d4573d6000803e3d6000fd5b606760009081526020527f682158d08466d11c566d5712d4396197fdd67e65be71d83c97ef719ec468867b546001600160a01b031690565b6119dc8363a9059cbb60e01b8484604051602401613bfd929190615503565b60408051601f198184030181529190526020810180516001600160e01b03166001600160e01b031990931692909217909152614747565b60405163f0723d9760e01b81526000906001600160a01b037f0000000000000000000000000000000000000000000000000000000000000000169063f0723d9790613c879085906103eb90600401615503565b60206040518083038186803b158015613c9f57600080fd5b505afa158015613cb3573d6000803e3d6000fd5b505050506040513d601f19601f820116820180604052508101906120719190615091565b600080613ce6838501856152b5565b91509150846001600160a01b03167f00000000000000000000000000000000000000000000000000000000000000006001600160a01b0316631526fe27846040518263ffffffff1660e01b8152600401613d4291815260200190565b60806040518083038186803b158015613d5a57600080fd5b505afa158015613d6e573d6000803e3d6000fd5b505050506040513d601f19601f82011682018060405250810190613d929190615159565b516001600160a01b031614613e005760405162461bcd60e51b815260206004820152602e60248201527f50726f76696465642050494420646f6573206e6f7420636f72726573706f6e6460448201526d103a379026b0b9ba32b921b432b360911b60648201526084016114e4565b613e0b826001615837565b6001600160a01b0386166000908152601b602090815260408083209390935560179052908120905b8083511115613e8957613e76838281518110613e5f57634e487b7160e01b600052603260045260246000fd5b602002602001015183613ec190919063ffffffff16565b5080613e81816158c5565b915050613e33565b50601c54613ea19082906001600160a01b0316613ec1565b50613ead868686614819565b505050505050565b60006110ad838361486c565b60006110ad836001600160a01b0384166148a4565b606a60009081526020527ff3261457f4fd0b7c00a1511877ab27b74183ac470be8db3a7ecdc64335f6f979546001600160a01b031690565b60006110ad836001600160a01b0384166148ee565b606860009081526020527faa071f48f62aaaa1f6320aaa7bd2ad2d552d05160892c14d699d38c9920d5f99546001600160a01b031690565b6001600160a01b038216600090815260126020908152604080832080548785526010909352922060010155613f908484614a0b565b613fa4858584613f9e6122c6565b89614260565b5050505050565b60006110ad836001600160a01b038416614a8b565b6001600160a01b0316600090815260016020818152604080842092845291905290205460ff1690565b600084815260106020526040812090614001866131c8565b905061400e8685856140a6565b506140218561401c886129cd565b613b20565b945061402e83828761390f565b50848260000160008282546140439190615882565b90915550506001600160a01b038116600090815260126020526040812060028101805491928892614075908490615882565b90915550506001830154815411156140a1578581600101600082825461409b9190615882565b90915550505b611e25565b60006001600160a01b0382166140ce5760405162461bcd60e51b81526004016114e4906156f0565b6140d66122c6565b6001600160a01b0316836001600160a01b0316146141365760405162461bcd60e51b815260206004820181905260248201527f4f6e6c7920757365206f6666696369616c207969656c642063757272656e637960448201526064016114e4565b600084815260106020526040812090601281614151886131c8565b6001600160a01b0316815260208101919091526040016000208254909150156141e35761417f828287614579565b6040516340c10f1960e01b81529093506001600160a01b038616906340c10f19906141b09087908790600401615503565b600060405180830381600087803b1580156141ca57600080fd5b505af11580156141de573d6000803e3d6000fd5b505050505b546001909101559392505050565b60008060006142008685614693565b60405163442fd02b60e11b81529091506001600160a01b0382169063885fa056906142339089908990899060040161551c565b6040805180830381600087803b15801561424c57600080fd5b505af1158015613690573d6000803e3d6000fd5b600061426b856131c8565b90506142788584846140a6565b50614284868286614aa3565b60008581526010602052604090205461429d8582615837565b6000878152601060209081526040808320939093556001600160a01b038516825260129052908120600281018054919288926142da908490615837565b909155506142ef905087846119dc8986615837565b5050505050505050565b606060006110ad83614b7d565b600081846001600160a01b031663dd62ed3e30866040518363ffffffff1660e01b81526004016143379291906154e9565b60206040518083038186803b15801561434f57600080fd5b505afa158015614363573d6000803e3d6000fd5b505050506040513d601f19601f8201168201806040525081019061438791906151c3565b6143919190615837565b905061151e8463095ea7b360e01b8584604051602401613bfd929190615503565b60405163b4ed0b6d60e01b81526103e960048201526000907f00000000000000000000000000000000000000000000000000000000000000006001600160a01b03169063b4ed0b6d9060240160206040518083038186803b15801561386657600080fd5b6000805b80614425600e613801565b1115614463576000614438600e83613eb5565b90506144438161252f565b61444d9084615837565b925050808061445b906158c5565b91505061441a565b5090565b8015806144ef5750604051636eb1769f60e11b81526001600160a01b0384169063dd62ed3e9061449d90309086906004016154e9565b60206040518083038186803b1580156144b557600080fd5b505afa1580156144c9573d6000803e3d6000fd5b505050506040513d601f19601f820116820180604052508101906144ed91906151c3565b155b61455a5760405162461bcd60e51b815260206004820152603660248201527f5361666545524332303a20617070726f76652066726f6d206e6f6e2d7a65726f60448201527520746f206e6f6e2d7a65726f20616c6c6f77616e636560501b60648201526084016114e4565b6119dc8363095ea7b360e01b8484604051602401613bfd929190615503565b60006145836122c6565b6001600160a01b0316826001600160a01b0316146145da5760405162461bcd60e51b815260206004820152601460248201527357726f6e67207969656c642063757272656e637960601b60448201526064016114e4565b60018401548354849110156146895760008186600101548154811061460f57634e487b7160e01b600052603260045260246000fd5b9060005260206000200154826001848054905061462c9190615882565b8154811061464a57634e487b7160e01b600052603260045260246000fd5b906000526020600020015461465f9190615882565b9050600160401b8187600001546146769190615863565b614680919061584f565b925050506110ad565b60009150506110ad565b6001600160a01b03808316600090815260066020908152604080832085851684529091529020541680612071576146c8613ed6565b6001600160a01b0316631757616884846040518363ffffffff1660e01b81526004016146f59291906154e9565b602060405180830381600087803b15801561470f57600080fd5b505af1158015614723573d6000803e3d6000fd5b505050506040513d601f19601f820116820180604052508101906110ad9190614e32565b600061479c826040518060400160405280602081526020017f5361666545524332303a206c6f772d6c6576656c2063616c6c206661696c6564815250856001600160a01b0316614bd99092919063ffffffff16565b8051909150156119dc57808060200190518101906147ba9190615091565b6119dc5760405162461bcd60e51b815260206004820152602a60248201527f5361666545524332303a204552433230206f7065726174696f6e20646964206e6044820152691bdd081cdd58d8d9595960b21b60648201526084016114e4565b614824600a84613ec1565b50614830600c84613f0e565b5061483c600e84613ec1565b506001600160a01b0383166000908152601260205260409020612710600482015542600390910155611dcc613f23565b600082600001828154811061489157634e487b7160e01b600052603260045260246000fd5b9060005260206000200154905092915050565b60006148b08383614a8b565b6148e657508154600181810184556000848152602080822090930184905584548482528286019093526040902091909155612071565b506000612071565b60008181526001830160205260408120548015614a01576000614912600183615882565b855490915060009061492690600190615882565b90508181146149a757600086600001828154811061495457634e487b7160e01b600052603260045260246000fd5b906000526020600020015490508087600001848154811061498557634e487b7160e01b600052603260045260246000fd5b6000918252602080832090910192909255918252600188019052604090208390555b85548690806149c657634e487b7160e01b600052603160045260246000fd5b600190038181906000526020600020016000905590558560010160008681526020019081526020016000206000905560019350505050612071565b6000915050612071565b614a16600a82613fab565b614a5a5760405162461bcd60e51b81526020600482015260156024820152742737ba1030b71030b8383937bb32b2103a37b5b2b760591b60448201526064016114e4565b60009182526010602052604090912060020180546001600160a01b0319166001600160a01b03909216919091179055565b60009081526001919091016020526040902054151590565b614ab86001600160a01b038316843084614be8565b614aec6001600160a01b0383167f000000000000000000000000000000000000000000000000000000000000000083614306565b7f00000000000000000000000000000000000000000000000000000000000000006001600160a01b031663e2bbb158614b2484612441565b836040518363ffffffff1660e01b8152600401614b429291906157f9565b600060405180830381600087803b158015614b5c57600080fd5b505af1158015614b70573d6000803e3d6000fd5b505050506119dc82612077565b606081600001805480602002602001604051908101604052809291908181526020018280548015614bcd57602002820191906000526020600020905b815481526020019060010190808311614bb9575b50505050509050919050565b6060612b6e8484600085614c20565b6040516001600160a01b038085166024830152831660448201526064810182905261151e9085906323b872dd60e01b90608401613bfd565b606082471015614c815760405162461bcd60e51b815260206004820152602660248201527f416464726573733a20696e73756666696369656e742062616c616e636520666f6044820152651c8818d85b1b60d21b60648201526084016114e4565b843b614ccf5760405162461bcd60e51b815260206004820152601d60248201527f416464726573733a2063616c6c20746f206e6f6e2d636f6e747261637400000060448201526064016114e4565b600080866001600160a01b03168587604051614ceb91906154b9565b60006040518083038185875af1925050503d8060008114614d28576040519150601f19603f3d011682016040523d82523d6000602084013e614d2d565b606091505b5091509150614d3d828286614d48565b979650505050505050565b60608315614d575750816110ad565b825115614d675782518084602001fd5b8160405162461bcd60e51b81526004016114e49190615630565b60405180610180016040528060006001600160a01b0316815260200160006001600160a01b031681526020016000815260200160008152602001600081526020016000815260200160008019168152602001600081526020016000815260200160006002811115614e0257634e487b7160e01b600052602160045260246000fd5b815260006020820181905260409091015290565b600060208284031215614e27578081fd5b81356110ad81615936565b600060208284031215614e43578081fd5b81516110ad81615936565b60008060408385031215614e60578081fd5b8235614e6b81615936565b91506020830135614e7b81615936565b809150509250929050565b600080600060408486031215614e9a578081fd5b8335614ea581615936565b925060208401356001600160401b0380821115614ec0578283fd5b818601915086601f830112614ed3578283fd5b813581811115614ee1578384fd5b876020828501011115614ef2578384fd5b6020830194508093505050509250925092565b60008060408385031215614f17578182fd5b8235614f2281615936565b946020939093013593505050565b600080600060608486031215614f44578283fd5b8335614f4f81615936565b9250602084013591506040840135614f6681615936565b809150509250925092565b600080600080600060a08688031215614f88578081fd5b8535614f9381615936565b9450602086013593506040860135614faa81615936565b94979396509394606081013594506080013592915050565b60008060008060608587031215614fd7578384fd5b8435614fe281615936565b93506020850135925060408501356001600160401b0380821115615004578384fd5b818701915087601f830112615017578384fd5b813581811115615025578485fd5b8860208260051b8501011115615039578485fd5b95989497505060200194505050565b6000806000806080858703121561505d578182fd5b843561506881615936565b93506020850135925060408501359150606085013561508681615936565b939692955090935050565b6000602082840312156150a2578081fd5b815180151581146110ad578182fd5b60008060408385031215614e60578182fd5b6000806000606084860312156150d7578081fd5b83356150e281615936565b95602085013595506040909401359392505050565b600060a08284031215615108578081fd5b61511260a0615807565b825161511d81615936565b80825250602083015160208201526040830151604082015260608301516060820152608083015161514d81615936565b60808201529392505050565b60006080828403121561516a578081fd5b6151746080615807565b825161517f81615936565b808252506020830151602082015260408301516040820152606083015160608201528091505092915050565b6000602082840312156151bc578081fd5b5035919050565b6000602082840312156151d4578081fd5b5051919050565b600080604083850312156151ed578182fd5b823591506020830135614e7b81615936565b600080600060608486031215615213578081fd5b83359250602084013561522581615936565b91506040840135614f6681615936565b6000806000806080858703121561524a578182fd5b84359350602085013561525c81615936565b9250604085013561526c81615936565b9150606085013561508681615936565b600080600080600060a08688031215615293578283fd5b8535945060208601356152a581615936565b93506040860135614faa81615936565b600080604083850312156152c7578182fd5b823591506020808401356001600160401b03808211156152e5578384fd5b818601915086601f8301126152f8578384fd5b81358181111561530a5761530a615920565b8060051b915061531b848301615807565b8181528481019084860184860187018b1015615335578788fd5b8795505b83861015615363578035945061534e85615936565b84835260019590950194918601918601615339565b508096505050505050509250929050565b60008060408385031215615386578182fd5b505080516020909101519092909150565b600080600080608085870312156153ac578182fd5b8435935060208501359250604085013561526c81615936565b6001600160a01b03169052565b600081518084526153ea816020860160208601615899565b601f01601f19169290920160200192915050565b6003811061541c57634e487b7160e01b600052602160045260246000fd5b9052565b61542b8282516153c5565b602081015161543d60208401826153c5565b5060408101516040830152606081015160608301526080810151608083015260a081015160a083015260c081015160c083015260e081015160e083015261010080820151818401525061012080820151615499828501826153fe565b505061014081810151908301526101608082015161151e828501826153c5565b600082516154cb818460208701615899565b9190910192915050565b6001600160a01b0391909116815260200190565b6001600160a01b0392831681529116602082015260400190565b6001600160a01b03929092168252602082015260400190565b6001600160a01b0393841681526020810192909252909116604082015260600190565b6020808252825182820181905260009190848201906040850190845b818110156155805783516001600160a01b03168352928401929184019160010161555b565b50909695505050505050565b6020808252825182820181905260009190848201906040850190845b81811015615580576155bb838551615420565b9284019261018092909201916001016155a8565b6020808252825182820181905260009190848201906040850190845b81811015615580578351835292840192918401916001016155eb565b6000831515825260406020830152612b6e60408301846153d2565b6020810161207182846153fe565b6000602082526110ad60208301846153d2565b6020808252602a908201527f526f6c65733a2063616c6c6572206973206e6f7420746865206f776e6572206f604082015269391032bc32b1baba37b960b11b606082015260800190565b6020808252601690820152755374726174656779206973206e6f742061637469766560501b604082015260600190565b6020808252601990820152784e6f7420617574686f72697a656420746f206d69677261746560381b604082015260600190565b6020808252601a9082015279446f6e27742073656e6420746f207a65726f206164647265737360301b604082015260600190565b6020808252601f908201527f5265656e7472616e637947756172643a207265656e7472616e742063616c6c00604082015260600190565b6020808252601f908201527f4e6f7420617574686f72697a656420746f20636f6c6c656374207969656c6400604082015260600190565b61018081016120718284615420565b83815260406020808301829052908201839052600090849060608401835b868110156157ed5783356157d281615936565b6001600160a01b0316825292820192908201906001016157bf565b50979650505050505050565b918252602082015260400190565b604051601f8201601f191681016001600160401b038111828210171561582f5761582f615920565b604052919050565b6000821982111561584a5761584a6158f4565b500190565b60008261585e5761585e61590a565b500490565b600081600019048311821515161561587d5761587d6158f4565b500290565b600082821015615894576158946158f4565b500390565b60005b838110156158b457818101518382015260200161589c565b8381111561151e5750506000910152565b60006000198214156158d9576158d96158f4565b5060010190565b6000826158ef576158ef61590a565b500690565b634e487b7160e01b600052601160045260246000fd5b634e487b7160e01b600052601260045260246000fd5b634e487b7160e01b600052604160045260246000fd5b6001600160a01b038116811461594b57600080fd5b5056fe3a64504f0bc0c335e2aecb78638a257e0351a3fe0370861fd54ee4190b92093343616c6c6572206973206e6f7420746865206f776e65722c206578656375746fa264697066735822122042e952e5162689c7940057a96e3d6f9f9a934f8a64edf5510745c92904355d9464736f6c63430008030033405787fa12a823e0f2b7631cc41b3ba8828b3321ca811111fa75cd3aa3bb5ace",
  "linkReferences": {},
  "deployedLinkReferences": {}
}