{
  "_format": "hh-sol-artifact-1",
  "contractName": "MasterMore",
  "sourceName": "contracts/governance/MasterMore.sol",
  "abi": [
    {
      "anonymous": false,
      "inputs": [
        {
          "indexed": true,
          "internalType": "uint256",
          "name": "pid",
          "type": "uint256"
        },
        {
          "indexed": false,
          "internalType": "uint256",
          "name": "baseAllocPoint",
          "type": "uint256"
        },
        {
          "indexed": true,
          "internalType": "contract IAssetERC20",
          "name": "lpToken",
          "type": "address"
        },
        {
          "indexed": true,
          "internalType": "contract IRewarder",
          "name": "rewarder",
          "type": "address"
        }
      ],
      "name": "Add",
      "type": "event"
    },
    {
      "anonymous": false,
      "inputs": [
        {
          "indexed": true,
          "internalType": "address",
          "name": "user",
          "type": "address"
        },
        {
          "indexed": true,
          "internalType": "uint256",
          "name": "pid",
          "type": "uint256"
        },
        {
          "indexed": false,
          "internalType": "uint256",
          "name": "amount",
          "type": "uint256"
        }
      ],
      "name": "Deposit",
      "type": "event"
    },
    {
      "anonymous": false,
      "inputs": [
        {
          "indexed": true,
          "internalType": "address",
          "name": "user",
          "type": "address"
        },
        {
          "indexed": true,
          "internalType": "uint256",
          "name": "pid",
          "type": "uint256"
        },
        {
          "indexed": false,
          "internalType": "uint256",
          "name": "amount",
          "type": "uint256"
        }
      ],
      "name": "DepositFor",
      "type": "event"
    },
    {
      "anonymous": false,
      "inputs": [
        {
          "indexed": true,
          "internalType": "address",
          "name": "user",
          "type": "address"
        },
        {
          "indexed": true,
          "internalType": "uint256",
          "name": "pid",
          "type": "uint256"
        },
        {
          "indexed": false,
          "internalType": "uint256",
          "name": "amount",
          "type": "uint256"
        }
      ],
      "name": "EmergencyWithdraw",
      "type": "event"
    },
    {
      "anonymous": false,
      "inputs": [
        {
          "indexed": true,
          "internalType": "address",
          "name": "user",
          "type": "address"
        },
        {
          "indexed": true,
          "internalType": "uint256",
          "name": "pid",
          "type": "uint256"
        },
        {
          "indexed": false,
          "internalType": "uint256",
          "name": "amount",
          "type": "uint256"
        }
      ],
      "name": "Harvest",
      "type": "event"
    },
    {
      "anonymous": false,
      "inputs": [
        {
          "indexed": true,
          "internalType": "address",
          "name": "previousOwner",
          "type": "address"
        },
        {
          "indexed": true,
          "internalType": "address",
          "name": "newOwner",
          "type": "address"
        }
      ],
      "name": "OwnershipTransferred",
      "type": "event"
    },
    {
      "anonymous": false,
      "inputs": [
        {
          "indexed": false,
          "internalType": "address",
          "name": "account",
          "type": "address"
        }
      ],
      "name": "Paused",
      "type": "event"
    },
    {
      "anonymous": false,
      "inputs": [
        {
          "indexed": true,
          "internalType": "uint256",
          "name": "pid",
          "type": "uint256"
        },
        {
          "indexed": false,
          "internalType": "uint256",
          "name": "baseAllocPoint",
          "type": "uint256"
        },
        {
          "indexed": true,
          "internalType": "contract IRewarder",
          "name": "rewarder",
          "type": "address"
        },
        {
          "indexed": false,
          "internalType": "bool",
          "name": "overwrite",
          "type": "bool"
        }
      ],
      "name": "Set",
      "type": "event"
    },
    {
      "anonymous": false,
      "inputs": [
        {
          "indexed": false,
          "internalType": "address",
          "name": "account",
          "type": "address"
        }
      ],
      "name": "Unpaused",
      "type": "event"
    },
    {
      "anonymous": false,
      "inputs": [
        {
          "indexed": true,
          "internalType": "address",
          "name": "user",
          "type": "address"
        },
        {
          "indexed": false,
          "internalType": "uint256",
          "name": "morePerSec",
          "type": "uint256"
        }
      ],
      "name": "UpdateEmissionRate",
      "type": "event"
    },
    {
      "anonymous": false,
      "inputs": [
        {
          "indexed": true,
          "internalType": "address",
          "name": "user",
          "type": "address"
        },
        {
          "indexed": false,
          "internalType": "uint256",
          "name": "dialutingRepartition",
          "type": "uint256"
        },
        {
          "indexed": false,
          "internalType": "uint256",
          "name": "nonDialutingRepartition",
          "type": "uint256"
        }
      ],
      "name": "UpdateEmissionRepartition",
      "type": "event"
    },
    {
      "anonymous": false,
      "inputs": [
        {
          "indexed": true,
          "internalType": "uint256",
          "name": "pid",
          "type": "uint256"
        },
        {
          "indexed": false,
          "internalType": "uint256",
          "name": "lastRewardTimestamp",
          "type": "uint256"
        },
        {
          "indexed": false,
          "internalType": "uint256",
          "name": "lpSupply",
          "type": "uint256"
        },
        {
          "indexed": false,
          "internalType": "uint256",
          "name": "accPtpPerShare",
          "type": "uint256"
        }
      ],
      "name": "UpdatePool",
      "type": "event"
    },
    {
      "anonymous": false,
      "inputs": [
        {
          "indexed": true,
          "internalType": "address",
          "name": "user",
          "type": "address"
        },
        {
          "indexed": false,
          "internalType": "address",
          "name": "oldVePTP",
          "type": "address"
        },
        {
          "indexed": false,
          "internalType": "address",
          "name": "newVePTP",
          "type": "address"
        }
      ],
      "name": "UpdateVePTP",
      "type": "event"
    },
    {
      "anonymous": false,
      "inputs": [
        {
          "indexed": true,
          "internalType": "address",
          "name": "user",
          "type": "address"
        },
        {
          "indexed": true,
          "internalType": "uint256",
          "name": "pid",
          "type": "uint256"
        },
        {
          "indexed": false,
          "internalType": "uint256",
          "name": "amount",
          "type": "uint256"
        }
      ],
      "name": "Withdraw",
      "type": "event"
    },
    {
      "inputs": [],
      "name": "acceptOwnership",
      "outputs": [],
      "stateMutability": "nonpayable",
      "type": "function"
    },
    {
      "inputs": [
        {
          "internalType": "uint256",
          "name": "_baseAllocPoint",
          "type": "uint256"
        },
        {
          "internalType": "contract IAssetERC20",
          "name": "_lpToken",
          "type": "address"
        },
        {
          "internalType": "contract IRewarder",
          "name": "_rewarder",
          "type": "address"
        }
      ],
      "name": "add",
      "outputs": [],
      "stateMutability": "nonpayable",
      "type": "function"
    },
    {
      "inputs": [
        {
          "internalType": "uint256",
          "name": "",
          "type": "uint256"
        },
        {
          "internalType": "address",
          "name": "",
          "type": "address"
        }
      ],
      "name": "claimablePtp",
      "outputs": [
        {
          "internalType": "uint256",
          "name": "",
          "type": "uint256"
        }
      ],
      "stateMutability": "view",
      "type": "function"
    },
    {
      "inputs": [
        {
          "internalType": "uint256",
          "name": "_pid",
          "type": "uint256"
        },
        {
          "internalType": "uint256",
          "name": "_amount",
          "type": "uint256"
        }
      ],
      "name": "deposit",
      "outputs": [
        {
          "internalType": "uint256",
          "name": "",
          "type": "uint256"
        },
        {
          "internalType": "uint256",
          "name": "",
          "type": "uint256"
        }
      ],
      "stateMutability": "nonpayable",
      "type": "function"
    },
    {
      "inputs": [
        {
          "internalType": "uint256",
          "name": "_pid",
          "type": "uint256"
        },
        {
          "internalType": "uint256",
          "name": "_amount",
          "type": "uint256"
        },
        {
          "internalType": "address",
          "name": "_user",
          "type": "address"
        }
      ],
      "name": "depositFor",
      "outputs": [],
      "stateMutability": "nonpayable",
      "type": "function"
    },
    {
      "inputs": [],
      "name": "dialutingRepartition",
      "outputs": [
        {
          "internalType": "uint256",
          "name": "",
          "type": "uint256"
        }
      ],
      "stateMutability": "view",
      "type": "function"
    },
    {
      "inputs": [],
      "name": "emergencyPtpWithdraw",
      "outputs": [],
      "stateMutability": "nonpayable",
      "type": "function"
    },
    {
      "inputs": [
        {
          "internalType": "uint256",
          "name": "_pid",
          "type": "uint256"
        }
      ],
      "name": "emergencyWithdraw",
      "outputs": [],
      "stateMutability": "nonpayable",
      "type": "function"
    },
    {
      "inputs": [
        {
          "internalType": "contract IERC20",
          "name": "_more",
          "type": "address"
        },
        {
          "internalType": "contract IVeMoreToken",
          "name": "_veMoreToken",
          "type": "address"
        },
        {
          "internalType": "uint256",
          "name": "_morePerSec",
          "type": "uint256"
        },
        {
          "internalType": "uint256",
          "name": "_dialutingRepartition",
          "type": "uint256"
        },
        {
          "internalType": "uint256",
          "name": "_startTimestamp",
          "type": "uint256"
        }
      ],
      "name": "initialize",
      "outputs": [],
      "stateMutability": "nonpayable",
      "type": "function"
    },
    {
      "inputs": [],
      "name": "massUpdatePools",
      "outputs": [],
      "stateMutability": "nonpayable",
      "type": "function"
    },
    {
      "inputs": [],
      "name": "maxPoolLength",
      "outputs": [
        {
          "internalType": "uint256",
          "name": "",
          "type": "uint256"
        }
      ],
      "stateMutability": "view",
      "type": "function"
    },
    {
      "inputs": [
        {
          "internalType": "uint256[]",
          "name": "_pids",
          "type": "uint256[]"
        }
      ],
      "name": "migrate",
      "outputs": [],
      "stateMutability": "nonpayable",
      "type": "function"
    },
    {
      "inputs": [],
      "name": "more",
      "outputs": [
        {
          "internalType": "contract IERC20",
          "name": "",
          "type": "address"
        }
      ],
      "stateMutability": "view",
      "type": "function"
    },
    {
      "inputs": [],
      "name": "morePerSec",
      "outputs": [
        {
          "internalType": "uint256",
          "name": "",
          "type": "uint256"
        }
      ],
      "stateMutability": "view",
      "type": "function"
    },
    {
      "inputs": [
        {
          "internalType": "uint256[]",
          "name": "_pids",
          "type": "uint256[]"
        }
      ],
      "name": "multiClaim",
      "outputs": [
        {
          "internalType": "uint256",
          "name": "",
          "type": "uint256"
        },
        {
          "internalType": "uint256[]",
          "name": "",
          "type": "uint256[]"
        },
        {
          "internalType": "uint256[]",
          "name": "",
          "type": "uint256[]"
        }
      ],
      "stateMutability": "nonpayable",
      "type": "function"
    },
    {
      "inputs": [],
      "name": "newMasterPlatypus",
      "outputs": [
        {
          "internalType": "contract IMasterMore",
          "name": "",
          "type": "address"
        }
      ],
      "stateMutability": "view",
      "type": "function"
    },
    {
      "inputs": [],
      "name": "nonDialutingRepartition",
      "outputs": [
        {
          "internalType": "uint256",
          "name": "",
          "type": "uint256"
        }
      ],
      "stateMutability": "view",
      "type": "function"
    },
    {
      "inputs": [],
      "name": "owner",
      "outputs": [
        {
          "internalType": "address",
          "name": "",
          "type": "address"
        }
      ],
      "stateMutability": "view",
      "type": "function"
    },
    {
      "inputs": [],
      "name": "ownerCandidate",
      "outputs": [
        {
          "internalType": "address",
          "name": "",
          "type": "address"
        }
      ],
      "stateMutability": "view",
      "type": "function"
    },
    {
      "inputs": [],
      "name": "pause",
      "outputs": [],
      "stateMutability": "nonpayable",
      "type": "function"
    },
    {
      "inputs": [],
      "name": "paused",
      "outputs": [
        {
          "internalType": "bool",
          "name": "",
          "type": "bool"
        }
      ],
      "stateMutability": "view",
      "type": "function"
    },
    {
      "inputs": [
        {
          "internalType": "uint256",
          "name": "_pid",
          "type": "uint256"
        },
        {
          "internalType": "address",
          "name": "_user",
          "type": "address"
        }
      ],
      "name": "pendingTokens",
      "outputs": [
        {
          "internalType": "uint256",
          "name": "pendingPtp",
          "type": "uint256"
        },
        {
          "internalType": "address",
          "name": "bonusTokenAddress",
          "type": "address"
        },
        {
          "internalType": "string",
          "name": "bonusTokenSymbol",
          "type": "string"
        },
        {
          "internalType": "uint256",
          "name": "pendingBonusToken",
          "type": "uint256"
        }
      ],
      "stateMutability": "view",
      "type": "function"
    },
    {
      "inputs": [
        {
          "internalType": "uint256",
          "name": "pid",
          "type": "uint256"
        }
      ],
      "name": "poolAdjustFactor",
      "outputs": [
        {
          "internalType": "uint256",
          "name": "",
          "type": "uint256"
        }
      ],
      "stateMutability": "view",
      "type": "function"
    },
    {
      "inputs": [
        {
          "internalType": "uint256",
          "name": "",
          "type": "uint256"
        }
      ],
      "name": "poolInfo",
      "outputs": [
        {
          "internalType": "contract IAssetERC20",
          "name": "lpToken",
          "type": "address"
        },
        {
          "internalType": "uint256",
          "name": "baseAllocPoint",
          "type": "uint256"
        },
        {
          "internalType": "uint256",
          "name": "lastRewardTimestamp",
          "type": "uint256"
        },
        {
          "internalType": "uint256",
          "name": "accPtpPerShare",
          "type": "uint256"
        },
        {
          "internalType": "contract IRewarder",
          "name": "rewarder",
          "type": "address"
        },
        {
          "internalType": "uint256",
          "name": "sumOfFactors",
          "type": "uint256"
        },
        {
          "internalType": "uint256",
          "name": "accPtpPerFactorShare",
          "type": "uint256"
        },
        {
          "internalType": "uint256",
          "name": "adjustedAllocPoint",
          "type": "uint256"
        }
      ],
      "stateMutability": "view",
      "type": "function"
    },
    {
      "inputs": [],
      "name": "poolLength",
      "outputs": [
        {
          "internalType": "uint256",
          "name": "",
          "type": "uint256"
        }
      ],
      "stateMutability": "view",
      "type": "function"
    },
    {
      "inputs": [
        {
          "internalType": "address",
          "name": "newOwner",
          "type": "address"
        }
      ],
      "name": "proposeOwner",
      "outputs": [],
      "stateMutability": "nonpayable",
      "type": "function"
    },
    {
      "inputs": [],
      "name": "renounceOwnership",
      "outputs": [],
      "stateMutability": "nonpayable",
      "type": "function"
    },
    {
      "inputs": [
        {
          "internalType": "uint256",
          "name": "_pid",
          "type": "uint256"
        }
      ],
      "name": "rewarderBonusTokenInfo",
      "outputs": [
        {
          "internalType": "address",
          "name": "bonusTokenAddress",
          "type": "address"
        },
        {
          "internalType": "string",
          "name": "bonusTokenSymbol",
          "type": "string"
        }
      ],
      "stateMutability": "view",
      "type": "function"
    },
    {
      "inputs": [
        {
          "internalType": "uint256",
          "name": "_pid",
          "type": "uint256"
        },
        {
          "internalType": "uint256",
          "name": "_baseAllocPoint",
          "type": "uint256"
        },
        {
          "internalType": "contract IRewarder",
          "name": "_rewarder",
          "type": "address"
        },
        {
          "internalType": "bool",
          "name": "overwrite",
          "type": "bool"
        }
      ],
      "name": "set",
      "outputs": [],
      "stateMutability": "nonpayable",
      "type": "function"
    },
    {
      "inputs": [
        {
          "internalType": "uint256",
          "name": "_maxPoolLength",
          "type": "uint256"
        }
      ],
      "name": "setMaxPoolLength",
      "outputs": [],
      "stateMutability": "nonpayable",
      "type": "function"
    },
    {
      "inputs": [
        {
          "internalType": "contract IMasterMore",
          "name": "_newMasterPlatypus",
          "type": "address"
        }
      ],
      "name": "setNewMasterPlatypus",
      "outputs": [],
      "stateMutability": "nonpayable",
      "type": "function"
    },
    {
      "inputs": [
        {
          "internalType": "contract IVeMoreToken",
          "name": "_newVeMoreToken",
          "type": "address"
        }
      ],
      "name": "setVeMoreToken",
      "outputs": [],
      "stateMutability": "nonpayable",
      "type": "function"
    },
    {
      "inputs": [],
      "name": "startTimestamp",
      "outputs": [
        {
          "internalType": "uint256",
          "name": "",
          "type": "uint256"
        }
      ],
      "stateMutability": "view",
      "type": "function"
    },
    {
      "inputs": [],
      "name": "totalAdjustedAllocPoint",
      "outputs": [
        {
          "internalType": "uint256",
          "name": "",
          "type": "uint256"
        }
      ],
      "stateMutability": "view",
      "type": "function"
    },
    {
      "inputs": [],
      "name": "totalBaseAllocPoint",
      "outputs": [
        {
          "internalType": "uint256",
          "name": "",
          "type": "uint256"
        }
      ],
      "stateMutability": "view",
      "type": "function"
    },
    {
      "inputs": [],
      "name": "unpause",
      "outputs": [],
      "stateMutability": "nonpayable",
      "type": "function"
    },
    {
      "inputs": [
        {
          "internalType": "uint256",
          "name": "_morePerSec",
          "type": "uint256"
        }
      ],
      "name": "updateEmissionRate",
      "outputs": [],
      "stateMutability": "nonpayable",
      "type": "function"
    },
    {
      "inputs": [
        {
          "internalType": "uint256",
          "name": "_dialutingRepartition",
          "type": "uint256"
        }
      ],
      "name": "updateEmissionRepartition",
      "outputs": [],
      "stateMutability": "nonpayable",
      "type": "function"
    },
    {
      "inputs": [
        {
          "internalType": "address",
          "name": "_user",
          "type": "address"
        },
        {
          "internalType": "uint256",
          "name": "_newVeMoreTokenBalance",
          "type": "uint256"
        }
      ],
      "name": "updateFactor",
      "outputs": [],
      "stateMutability": "nonpayable",
      "type": "function"
    },
    {
      "inputs": [
        {
          "internalType": "uint256",
          "name": "_pid",
          "type": "uint256"
        }
      ],
      "name": "updatePool",
      "outputs": [],
      "stateMutability": "nonpayable",
      "type": "function"
    },
    {
      "inputs": [
        {
          "internalType": "uint256",
          "name": "",
          "type": "uint256"
        },
        {
          "internalType": "address",
          "name": "",
          "type": "address"
        }
      ],
      "name": "userInfo",
      "outputs": [
        {
          "internalType": "uint256",
          "name": "amount",
          "type": "uint256"
        },
        {
          "internalType": "uint256",
          "name": "rewardDebt",
          "type": "uint256"
        },
        {
          "internalType": "uint256",
          "name": "factor",
          "type": "uint256"
        }
      ],
      "stateMutability": "view",
      "type": "function"
    },
    {
      "inputs": [],
      "name": "veMoreToken",
      "outputs": [
        {
          "internalType": "contract IVeMoreToken",
          "name": "",
          "type": "address"
        }
      ],
      "stateMutability": "view",
      "type": "function"
    },
    {
      "inputs": [
        {
          "internalType": "uint256",
          "name": "_pid",
          "type": "uint256"
        },
        {
          "internalType": "uint256",
          "name": "_amount",
          "type": "uint256"
        }
      ],
      "name": "withdraw",
      "outputs": [
        {
          "internalType": "uint256",
          "name": "",
          "type": "uint256"
        },
        {
          "internalType": "uint256",
          "name": "",
          "type": "uint256"
        }
      ],
      "stateMutability": "nonpayable",
      "type": "function"
    }
  ],
  "bytecode": "0x608060405234801561001057600080fd5b50614348806100206000396000f3fe608060405234801561001057600080fd5b50600436106101f95760003560e01c806301126816146101fe57806305ed1de414610227578063081e3eda1461023e5780630ba84cd2146102465780631526fe271461025b57806315e72270146102bd5780632b685580146102d057806333e045fc146102e35780633f4ba83a146102ec578063428f39a0146102f4578063441a3e70146103075780634ed73d281461032f5780634f00a93e1461035157806351eb05a6146103645780635312ea8e1461037757806353c5eb441461038a5780635c975abb1461039d5780635f504a82146103b3578063630b5ba1146103bb578063715018a6146103c357806379ba5097146103cb5780637b261591146103d35780637b62a738146103e65780637dd38dcc146103ef5780638456cb59146103f757806388bba42f146103ff5780638b4d83a3146104125780638da5cb5b1461043d57806390210d7e1461044557806391ea1d681461045857806393f1a40b146104615780639ef3c2d7146104aa578063a5c758ac146104bd578063ab7de098146104c6578063b5ed298a146104d9578063bc70fdbc146104ec578063d13f90b41461050d578063d93bf4fe14610520578063e0a4ed4314610533578063e2bbb15814610546578063e6fd48bc14610559578063f87bbc5614610562578063ffcd42631461056b575b600080fd5b60cb54610211906001600160a01b031681565b60405161021e9190613fa5565b60405180910390f35b61023060cd5481565b60405190815260200161021e565b60d154610230565b610259610254366004613dec565b61058e565b005b61026e610269366004613dec565b61060c565b604080516001600160a01b03998a168152602081019890985287019590955260608601939093529416608084015260a083019390935260c082019290925260e08101919091526101000161021e565b60c954610211906001600160a01b031681565b6102306102de366004613dec565b61066e565b61023060cf5481565b610259610720565b610259610302366004613b78565b610759565b61031a610315366004613e8c565b610806565b6040805192835260208301919091520161021e565b61034261033d366004613c2e565b610c02565b60405161021e93929190614173565b61025961035f366004613b94565b610c6d565b610259610372366004613dec565b610e5f565b610259610385366004613dec565b610e6b565b610259610398366004613dec565b610f6b565b60975460ff16604051901515815260200161021e565b603454610211565b610259610fae565b610259610fd9565b610259611012565b6102596103e1366004613b78565b61106a565b61023060d75481565b6102596110bb565b610259611183565b61025961040d366004613eda565b6111ba565b610230610420366004613e1c565b60d560209081526000928352604080842090915290825290205481565b610211611358565b610259610453366004613ead565b611367565b61023060d65481565b61049b61046f366004613e1c565b60d460209081526000928352604080842090915290825290208054600182015460029092015490919083565b60405161021e939291906141a8565b60ca54610211906001600160a01b031681565b61023060cc5481565b6102596104d4366004613e4b565b611745565b6102596104e7366004613b78565b611b5b565b6104ff6104fa366004613dec565b611bdc565b60405161021e929190613fd2565b61025961051b366004613d0d565b611dac565b61025961052e366004613bbf565b611fec565b610259610541366004613dec565b612282565b61031a610554366004613e8c565b612320565b61023060d05481565b61023060ce5481565b61057e610579366004613e1c565b61266f565b60405161021e9493929190614138565b33610597611358565b6001600160a01b0316146105c65760405162461bcd60e51b81526004016105bd90614081565b60405180910390fd5b6105ce610fae565b60cc81905560405181815233907fe2492e003bbe8afa53088b406f0c1cb5d9e280370fc72a74cf116ffd343c4053906020015b60405180910390a250565b60d1818154811061061c57600080fd5b6000918252602090912060089091020180546001820154600283015460038401546004850154600586015460068701546007909701546001600160a01b03968716985094969395929491909216929088565b60008060d1838154811061069257634e487b7160e01b600052603260045260246000fd5b60009182526020918290206040805161010081018252600890930290910180546001600160a01b039081168085526001830154958501959095526002820154928401929092526003810154606084015260048101549091166080830152600581015460a0830152600681015460c08301526007015460e0820152915061071790612968565b9150505b919050565b33610729611358565b6001600160a01b03161461074f5760405162461bcd60e51b81526004016105bd90614081565b610757612a96565b565b33610762611358565b6001600160a01b0316146107885760405162461bcd60e51b81526004016105bd90614081565b6001600160a01b03811661079b57600080fd5b6107a3610fae565b60ca80546001600160a01b038381166001600160a01b0319831681179093556040805191909216808252602082019390935233917fcdc066eb512c135b027caebc803aa836c938e3e26bb2756b395da32ce0139e47910160405180910390a25050565b6000806002606554141561082c5760405162461bcd60e51b81526004016105bd90614101565b600260655560975460ff16156108545760405162461bcd60e51b81526004016105bd90614009565b600060d1858154811061087757634e487b7160e01b600052603260045260246000fd5b6000918252602080832088845260d48252604080852033865290925292208054600890920290920192508511156108e55760405162461bcd60e51b81526020600482015260126024820152711dda5d1a191c985dce881b9bdd0819dbdbd960721b60448201526064016105bd565b6108ee86612b23565b6001810154600087815260d5602090815260408083203384529091528120546006850154600285015492939264e8d4a510009161092a91614226565b6003870154865461093b9190614226565b61094591906141ee565b61094f9190614206565b61095991906141ee565b6109639190614245565b600088815260d56020908152604080832033808552925282209190915590915061098d9082612d3f565b905086336001600160a01b03166000805160206142f3833981519152836040516109b991815260200190565b60405180910390a3600282015482546109d3908890614245565b835560ca546040516370a0823160e01b8152610a68916001600160a01b0316906370a0823190610a07903390600401613fa5565b60206040518083038186803b158015610a1f57600080fd5b505afa158015610a33573d6000803e3d6000fd5b505050506040513d601f19601f82011682018060405250810190610a579190613e04565b8454610a639190614226565b612f34565b6002840181905560058501548291610a7f916141ee565b610a899190614245565b60058501556006840154600284015464e8d4a5100091610aa891614226565b60038601548554610ab99190614226565b610ac391906141ee565b610acd9190614206565b8360010181905550600060d18981548110610af857634e487b7160e01b600052603260045260246000fd5b600091825260208220600460089092020101546001600160a01b031691508115610b9f578454604051637135edff60e11b81526001600160a01b0384169163e26bdbfe91610b4a913391600401613fb9565b602060405180830381600087803b158015610b6457600080fd5b505af1158015610b78573d6000803e3d6000fd5b505050506040513d601f19601f82011682018060405250810190610b9c9190613e04565b90505b8554610bb5906001600160a01b0316338b612fa3565b6040518981528a9033907ff279e6a1f5e320cca91135676d9cb6e44ca8a08c0b88342bcdb1144f6511b568906020015b60405180910390a360016065559299929850919650505050505050565b600060608060026065541415610c2a5760405162461bcd60e51b81526004016105bd90614101565b600260655560975460ff1615610c525760405162461bcd60e51b81526004016105bd90614009565b610c5b84612ffe565b92509250925060016065559193909250565b60ca546001600160a01b03163314610cb95760405162461bcd60e51b815260206004820152600f60248201526e6e6f7456654d6f72653a207775743f60881b60448201526064016105bd565b60d15460005b81811015610e5957600081815260d4602090815260408083206001600160a01b038816845290915290208054610cf55750610e49565b600060d18381548110610d1857634e487b7160e01b600052603260045260246000fd5b90600052602060002090600802019050610d3183612b23565b6000826001015464e8d4a5100083600601548560020154610d529190614226565b60038501548654610d639190614226565b610d6d91906141ee565b610d779190614206565b610d819190614245565b600085815260d5602090815260408083206001600160a01b038c168452909152812080549293508392909190610db89084906141ee565b909155505060028301548354600090610dd590610a63908a614226565b60028601819055600685015490915064e8d4a5100090610df59083614226565b60038601548754610e069190614226565b610e1091906141ee565b610e1a9190614206565b600186015560058401548290610e319083906141ee565b610e3b9190614245565b846005018190555050505050505b610e5281614288565b9050610cbf565b50505050565b610e6881612b23565b50565b60026065541415610e8e5760405162461bcd60e51b81526004016105bd90614101565b6002606581905550600060d18281548110610eb957634e487b7160e01b600052603260045260246000fd5b6000918252602080832085845260d482526040808520338087529352909320805460089093029093018054909450610efe926001600160a01b03919091169190612fa3565b80600201548260050154610f129190614245565b600583015560006002820181905580825560018201819055604051908152839033907fbb757047c2b5f3974fe26b7c10f732e7bce710b0952a71082702781e62ae05959060200160405180910390a35050600160655550565b33610f74611358565b6001600160a01b031614610f9a5760405162461bcd60e51b81526004016105bd90614081565b60d154811015610fa957600080fd5b60d755565b60d15460005b81811015610fd557610fc581612b23565b610fce81614288565b9050610fb4565b5050565b33610fe2611358565b6001600160a01b0316146110085760405162461bcd60e51b81526004016105bd90614081565b61075760006135c2565b3361101c60345490565b6001600160a01b0316146110615760405162461bcd60e51b815260206004820152600c60248201526b155b985d5d1a1bdc9a5e995960a21b60448201526064016105bd565b610757336135c2565b33611073611358565b6001600160a01b0316146110995760405162461bcd60e51b81526004016105bd90614081565b60cb80546001600160a01b0319166001600160a01b0392909216919091179055565b336110c4611358565b6001600160a01b0316146110ea5760405162461bcd60e51b81526004016105bd90614081565b60c9546040516370a0823160e01b81526107579133916001600160a01b03909116906370a0823190611120903090600401613fa5565b60206040518083038186803b15801561113857600080fd5b505afa15801561114c573d6000803e3d6000fd5b505050506040513d601f19601f820116820180604052508101906111709190613e04565b60c9546001600160a01b03169190612fa3565b3361118c611358565b6001600160a01b0316146111b25760405162461bcd60e51b81526004016105bd90614081565b610757613614565b336111c3611358565b6001600160a01b0316146111e95760405162461bcd60e51b81526004016105bd90614081565b813b1515806111ff57506001600160a01b038216155b61125a5760405162461bcd60e51b815260206004820152602660248201527f7365743a207265776172646572206d75737420626520636f6e7472616374206f60448201526572207a65726f60d01b60648201526084016105bd565b611262610fae565b600060d1858154811061128557634e487b7160e01b600052603260045260246000fd5b9060005260206000209060080201905083816001015460cf546112a89190614245565b6112b291906141ee565b60cf55600181018490556112c58161366c565b81156112e9576004810180546001600160a01b0319166001600160a01b0385161790555b816113015760048101546001600160a01b0316611303565b825b6001600160a01b0316857fa54644aae5c48c5971516f334e4fe8ecbc7930e23f34877d4203c6551e67ffaa86856040516113499291909182521515602082015260400190565b60405180910390a35050505050565b6033546001600160a01b031690565b6002606554141561138a5760405162461bcd60e51b81526004016105bd90614101565b600260655560975460ff16156113b25760405162461bcd60e51b81526004016105bd90614009565b600060d184815481106113d557634e487b7160e01b600052603260045260246000fd5b6000918252602080832087845260d4825260408085206001600160a01b038816865290925292206008909102909101915061140f85612b23565b8054156114f9576001810154600086815260d5602090815260408083206001600160a01b03881684529091528120546006850154600285015492939264e8d4a510009161145b91614226565b6003870154865461146c9190614226565b61147691906141ee565b6114809190614206565b61148a91906141ee565b6114949190614245565b600087815260d5602090815260408083206001600160a01b038916845290915281205590506114c38482612d3f565b905085846001600160a01b03166000805160206142f3833981519152836040516114ef91815260200190565b60405180910390a3505b8381600001600082825461150d91906141ee565b9091555050600281015460ca546040516370a0823160e01b81526115a5916001600160a01b0316906370a0823190611549908890600401613fa5565b60206040518083038186803b15801561156157600080fd5b505afa158015611575573d6000803e3d6000fd5b505050506040513d601f19601f820116820180604052508101906115999190613e04565b8354610a639190614226565b60028301819055600584015482916115bc916141ee565b6115c69190614245565b60058401556006830154600283015464e8d4a51000916115e591614226565b600385015484546115f69190614226565b61160091906141ee565b61160a9190614206565b8260010181905550600060d1878154811061163557634e487b7160e01b600052603260045260246000fd5b60009182526020909120600460089092020101546001600160a01b0316905080156116dc578254604051637135edff60e11b81526001600160a01b0383169163e26bdbfe91611688918991600401613fb9565b602060405180830381600087803b1580156116a257600080fd5b505af11580156116b6573d6000803e3d6000fd5b505050506040513d601f19601f820116820180604052508101906116da9190613e04565b505b83546116f3906001600160a01b03163330896136bc565b86856001600160a01b03167f16f3fbfd4bcc50a5cecb2e53e398a1ad77d89f63288ef540d862b264ed57eb1f8860405161172f91815260200190565b60405180910390a3505060016065555050505050565b3361174e611358565b6001600160a01b0316146117745760405162461bcd60e51b81526004016105bd90614081565b813b6117d15760405162461bcd60e51b815260206004820152602660248201527f6164643a204c5020746f6b656e206d75737420626520612076616c696420636f6044820152651b9d1c9858dd60d21b60648201526084016105bd565b803b1515806117e757506001600160a01b038116155b6118425760405162461bcd60e51b815260206004820152602660248201527f6164643a207265776172646572206d75737420626520636f6e7472616374206f60448201526572207a65726f60d01b60648201526084016105bd565b61184d60d2836136f4565b156118925760405162461bcd60e51b81526020600482015260156024820152741859190e88131408185b1c9958591e481859191959605a1b60448201526064016105bd565b60d75460d154106118dc5760405162461bcd60e51b81526020600482015260146024820152731859190e88195e18d95959081b585e081c1bdbdb60621b60448201526064016105bd565b6118e4610fae565b600060d05442116118f75760d0546118f9565b425b9050600061190684612968565b6119109086614226565b90508460cf600082825461192491906141ee565b925050819055508060d6600082825461193d91906141ee565b909155505060408051610100810182526001600160a01b038087168252602082018881529282018581526000606084018181528884166080860190815260a0860183815260c0870184815260e088018a815260d180546001810182559652975160089095027f695fb3134ad82c3b8022bc5464edd0bcc9424ef672b52245dcb6ab2374327ce3810180549689166001600160a01b031997881617905598517f695fb3134ad82c3b8022bc5464edd0bcc9424ef672b52245dcb6ab2374327ce48a015594517f695fb3134ad82c3b8022bc5464edd0bcc9424ef672b52245dcb6ab2374327ce589015591517f695fb3134ad82c3b8022bc5464edd0bcc9424ef672b52245dcb6ab2374327ce6880155517f695fb3134ad82c3b8022bc5464edd0bcc9424ef672b52245dcb6ab2374327ce7870180549190951692169190911790925590517f695fb3134ad82c3b8022bc5464edd0bcc9424ef672b52245dcb6ab2374327ce8840155517f695fb3134ad82c3b8022bc5464edd0bcc9424ef672b52245dcb6ab2374327ce9830155517f695fb3134ad82c3b8022bc5464edd0bcc9424ef672b52245dcb6ab2374327cea90910155611afa60d285613710565b50826001600160a01b0316846001600160a01b0316600160d180549050611b219190614245565b6040518881527f4b16bd2431ad24dc020ab0e1de7fcb6563dead6a24fb10089d6c23e97a70381f9060200160405180910390a45050505050565b33611b64611358565b6001600160a01b031614611b8a5760405162461bcd60e51b81526004016105bd90614081565b6001600160a01b038116611bce5760405162461bcd60e51b815260206004820152600b60248201526a5a65726f4164647265737360a81b60448201526064016105bd565b6001600160a01b0316603455565b60006060600060d18481548110611c0357634e487b7160e01b600052603260045260246000fd5b6000918252602090912060089091020160048101549091506001600160a01b031615611da6576004808201546040805163f7c618c160e01b815290516001600160a01b039092169263f7c618c1928282019260209290829003018186803b158015611c6d57600080fd5b505afa158015611c81573d6000803e3d6000fd5b505050506040513d601f19601f82011682018060405250810190611ca59190613cf1565b92508060040160009054906101000a90046001600160a01b03166001600160a01b031663f7c618c16040518163ffffffff1660e01b815260040160206040518083038186803b158015611cf757600080fd5b505afa158015611d0b573d6000803e3d6000fd5b505050506040513d601f19601f82011682018060405250810190611d2f9190613cf1565b6001600160a01b03166395d89b416040518163ffffffff1660e01b815260040160006040518083038186803b158015611d6757600080fd5b505afa158015611d7b573d6000803e3d6000fd5b505050506040513d6000823e601f3d908101601f19168201604052611da39190810190613d5d565b91505b50915091565b600054610100900460ff16611dc75760005460ff1615611dcb565b303b155b611de75760405162461bcd60e51b81526004016105bd90614033565b600054610100900460ff16158015611e09576000805461ffff19166101011790555b6001600160a01b038616611e5d5760405162461bcd60e51b815260206004820152601b60248201527a6d6f726520616464726573732063616e6e6f74206265207a65726f60281b60448201526064016105bd565b6001600160a01b038516611eb35760405162461bcd60e51b815260206004820152601d60248201527f76654d6f726520616464726573732063616e6e6f74206265207a65726f00000060448201526064016105bd565b83611efe5760405162461bcd60e51b815260206004820152601b60248201527a6d6f726520706572207365632063616e6e6f74206265207a65726f60281b60448201526064016105bd565b6103e8831115611f675760405162461bcd60e51b815260206004820152602e60248201527f6469616c7574696e67207265706172746974696f6e206d75737420626520696e60448201526d02072616e676520302c20313030360941b60648201526084016105bd565b611f6f613725565b611f776137a6565b611f7f6137d4565b60c980546001600160a01b038089166001600160a01b03199283161790925560ca80549288169290911691909117905560cc84905560cd839055611fc5836103e8614245565b60ce5560d0829055603260d7558015611fe4576000805461ff00191690555b505050505050565b6002606554141561200f5760405162461bcd60e51b81526004016105bd90614101565b600260655560cb546001600160a01b03166120585760405162461bcd60e51b8152602060048201526009602482015268746f2077686572653f60b81b60448201526064016105bd565b612094828280806020026020016040519081016040528093929190818152602001838360200280828437600092019190915250612ffe92505050565b50505060005b818110156122785760008383838181106120c457634e487b7160e01b600052603260045260246000fd5b60209081029290920135600081815260d4845260408082203383529094529290922080549293509115905061226557600060d1838154811061211657634e487b7160e01b600052603260045260246000fd5b60009182526020909120600890910201805460cb54845460405163095ea7b360e01b81529394506001600160a01b039283169363095ea7b39361215e93169190600401613fb9565b602060405180830381600087803b15801561217857600080fd5b505af115801561218c573d6000803e3d6000fd5b505050506040513d601f19601f820116820180604052508101906121b09190613cd5565b5060cb54825460405163481086bf60e11b81526004810186905260248101919091523360448201526001600160a01b03909116906390210d7e90606401600060405180830381600087803b15801561220757600080fd5b505af115801561221b573d6000803e3d6000fd5b5050505081600201548160050160008282546122379190614245565b909155505050600082815260d460209081526040808320338452909152812081815560018101829055600201555b50508061227190614288565b905061209a565b5050600160655550565b3361228b611358565b6001600160a01b0316146122b15760405162461bcd60e51b81526004016105bd90614081565b6103e88111156122c057600080fd5b6122c8610fae565b60cd8190556122d9816103e8614245565b60ce55337fb24c3afbe477581b073ec4a6f19df34024e917cee6bb519129629defa718f6308261230b816103e8614245565b60408051928352602083019190915201610601565b600080600260655414156123465760405162461bcd60e51b81526004016105bd90614101565b600260655560975460ff161561236e5760405162461bcd60e51b81526004016105bd90614009565b600060d1858154811061239157634e487b7160e01b600052603260045260246000fd5b6000918252602080832088845260d4825260408085203386529092529220600890910290910191506123c286612b23565b80546000901561249d576001820154600088815260d5602090815260408083203384529091529020546006850154600285015464e8d4a510009161240591614226565b600387015486546124169190614226565b61242091906141ee565b61242a9190614206565b61243491906141ee565b61243e9190614245565b600088815260d5602090815260408083203380855292528220919091559091506124689082612d3f565b905086336001600160a01b03166000805160206142f38339815191528360405161249491815260200190565b60405180910390a35b858260000160008282546124b191906141ee565b9091555050600282015460ca546040516370a0823160e01b81526124ed916001600160a01b0316906370a0823190610a07903390600401613fa5565b6002840181905560058501548291612504916141ee565b61250e9190614245565b60058501556006840154600284015464e8d4a510009161252d91614226565b6003860154855461253e9190614226565b61254891906141ee565b6125529190614206565b8360010181905550600060d1898154811061257d57634e487b7160e01b600052603260045260246000fd5b600091825260208220600460089092020101546001600160a01b031691508115612624578454604051637135edff60e11b81526001600160a01b0384169163e26bdbfe916125cf913391600401613fb9565b602060405180830381600087803b1580156125e957600080fd5b505af11580156125fd573d6000803e3d6000fd5b505050506040513d601f19601f820116820180604052508101906126219190613e04565b90505b855461263b906001600160a01b031633308c6136bc565b6040518981528a9033907f90890809c654f11d6e72a28fa60149770a0d11ec6c92319d6ceb2bb0a4ea1a1590602001610be5565b600080606060008060d1878154811061269857634e487b7160e01b600052603260045260246000fd5b600091825260208083208a845260d4825260408085206001600160a01b038c81168752935280852060089490940290910160038101546006820154825493516370a0823160e01b81529297509495909493909216906370a0823190612701903090600401613fa5565b60206040518083038186803b15801561271957600080fd5b505afa15801561272d573d6000803e3d6000fd5b505050506040513d601f19601f820116820180604052508101906127519190613e04565b905084600201544211801561276557508015155b1561283d57600085600201544261277c9190614245565b9050600060d654876007015460cc54846127969190614226565b6127a09190614226565b6127aa9190614206565b90506127b8836103e8614226565b60cd546127ca8364e8d4a51000614226565b6127d49190614226565b6127de9190614206565b6127e890866141ee565b9450866005015460001461283a576005870154612807906103e8614226565b60ce546128198364e8d4a51000614226565b6128239190614226565b61282d9190614206565b61283790856141ee565b93505b50505b600184015460008c815260d5602090815260408083206001600160a01b038f168452909152902054600286015464e8d4a510009061287c908690614226565b8754612889908890614226565b61289391906141ee565b61289d9190614206565b6128a791906141ee565b6128b19190614245565b60048601549099506001600160a01b03161561295a576128d08b611bdc565b60048088015460405163c031a66f60e01b8152939b509199506001600160a01b039091169163c031a66f91612907918e9101613fa5565b60206040518083038186803b15801561291f57600080fd5b505afa158015612933573d6000803e3d6000fd5b505050506040513d601f19601f820116820180604052508101906129579190613e04565b95505b505050505092959194509250565b600080826001600160a01b031663705727b56040518163ffffffff1660e01b815260040160206040518083038186803b1580156129a457600080fd5b505afa1580156129b8573d6000803e3d6000fd5b505050506040513d601f19601f820116820180604052508101906129dc9190613e04565b905060008115612a795781846001600160a01b031663961be3916040518163ffffffff1660e01b815260040160206040518083038186803b158015612a2057600080fd5b505afa158015612a34573d6000803e3d6000fd5b505050506040513d601f19601f82011682018060405250810190612a589190613e04565b612a6a90670de0b6b3a7640000614226565b612a749190614206565b612a83565b670de0b6b3a76400005b9050612a8e81613807565b949350505050565b60975460ff16612adf5760405162461bcd60e51b815260206004820152601460248201527314185d5cd8589b194e881b9bdd081c185d5cd95960621b60448201526064016105bd565b6097805460ff191690557f5db9ee0a495bf2e6ff9c91a7834c1ba4fdd244a5e8aa4e537bd38aeae4b073aa335b604051612b199190613fa5565b60405180910390a1565b600060d18281548110612b4657634e487b7160e01b600052603260045260246000fd5b906000526020600020906008020190508060020154421115610fd55780546040516370a0823160e01b81526000916001600160a01b0316906370a0823190612b92903090600401613fa5565b60206040518083038186803b158015612baa57600080fd5b505afa158015612bbe573d6000803e3d6000fd5b505050506040513d601f19601f82011682018060405250810190612be29190613e04565b905080612bf6575042600290910155610e68565b6000826002015442612c089190614245565b9050600060d654846007015460cc5484612c229190614226565b612c2c9190614226565b612c369190614206565b9050612c44836103e8614226565b60cd54612c568364e8d4a51000614226565b612c609190614226565b612c6a9190614206565b846003016000828254612c7d91906141ee565b90915550506005840154612c975760006006850155612ce7565b6005840154612ca8906103e8614226565b60ce54612cba8364e8d4a51000614226565b612cc49190614226565b612cce9190614206565b846006016000828254612ce191906141ee565b90915550505b612cf08461366c565b4260028501819055600385015460405187927f3be3541fc42237d611b30329040bfa4569541d156560acdbbae57640d20b8f4692612d30928891906141a8565b60405180910390a25050505050565b60c9546040516370a0823160e01b815260009182916001600160a01b03909116906370a0823190612d74903090600401613fa5565b60206040518083038186803b158015612d8c57600080fd5b505afa158015612da0573d6000803e3d6000fd5b505050506040513d601f19601f82011682018060405250810190612dc49190613e04565b905060008111612e105760405162461bcd60e51b81526020600482015260176024820152764e6f20746f6b656e7320746f206469737472696275746560481b60448201526064016105bd565b80831115612ea45760c95460405163a9059cbb60e01b81526001600160a01b039091169063a9059cbb90612e4a9087908590600401613fb9565b602060405180830381600087803b158015612e6457600080fd5b505af1158015612e78573d6000803e3d6000fd5b505050506040513d601f19601f82011682018060405250810190612e9c9190613cd5565b509050612f2e565b60c95460405163a9059cbb60e01b81526001600160a01b039091169063a9059cbb90612ed69087908790600401613fb9565b602060405180830381600087803b158015612ef057600080fd5b505af1158015612f04573d6000803e3d6000fd5b505050506040513d601f19601f82011682018060405250810190612f289190613cd5565b50829150505b92915050565b60006003821115612f955750806000612f4e600283614206565b612f599060016141ee565b90505b81811015612f8f57905080600281612f748186614206565b612f7e91906141ee565b612f889190614206565b9050612f5c565b5061071b565b811561071b57506001919050565b612ff98363a9059cbb60e01b8484604051602401612fc2929190613fb9565b60408051601f198184030181529190526020810180516001600160e01b03166001600160e01b031990931692909217909152613858565b505050565b600060608060008085516001600160401b0381111561302d57634e487b7160e01b600052604160045260246000fd5b604051908082528060200260200182016040528015613056578160200160208202803683370190505b509050600086516001600160401b0381111561308257634e487b7160e01b600052604160045260246000fd5b6040519080825280602002602001820160405280156130ab578160200160208202803683370190505b50905060005b87518110156133f6576130ea8882815181106130dd57634e487b7160e01b600052603260045260246000fd5b6020026020010151612b23565b600060d189838151811061310e57634e487b7160e01b600052603260045260246000fd5b60200260200101518154811061313457634e487b7160e01b600052603260045260246000fd5b90600052602060002090600802019050600060d460008b858151811061316a57634e487b7160e01b600052603260045260246000fd5b6020908102919091018101518252818101929092526040908101600090812033825290925290208054909150156133e3576000816001015460d560008d87815181106131c657634e487b7160e01b600052603260045260246000fd5b602002602001015181526020019081526020016000206000336001600160a01b03166001600160a01b031681526020019081526020016000205464e8d4a510008560060154856002015461321a9190614226565b6003870154865461322b9190614226565b61323591906141ee565b61323f9190614206565b61324991906141ee565b6132539190614245565b9050600060d560008d878151811061327b57634e487b7160e01b600052603260045260246000fd5b602090810291909101810151825281810192909252604090810160009081203382529092529020556006830154600283015464e8d4a51000916132bd91614226565b600385015484546132ce9190614226565b6132d891906141ee565b6132e29190614206565b60018301556132f181886141ee565b96508086858151811061331457634e487b7160e01b600052603260045260246000fd5b602090810291909101015260048301546001600160a01b031680156133e0578254604051637135edff60e11b81526001600160a01b0383169163e26bdbfe91613361913391600401613fb9565b602060405180830381600087803b15801561337b57600080fd5b505af115801561338f573d6000803e3d6000fd5b505050506040513d601f19601f820116820180604052508101906133b39190613e04565b8686815181106133d357634e487b7160e01b600052603260045260246000fd5b6020026020010181815250505b50505b5050806133ef90614288565b90506130b1565b5060006134033385612d3f565b90508381146135185760005b8851811015613512578484828151811061343957634e487b7160e01b600052603260045260246000fd5b60200260200101518361344c9190614226565b6134569190614206565b84828151811061347657634e487b7160e01b600052603260045260246000fd5b6020026020010181815250508881815181106134a257634e487b7160e01b600052603260045260246000fd5b6020026020010151336001600160a01b03166000805160206142f38339815191528684815181106134e357634e487b7160e01b600052603260045260246000fd5b60200260200101516040516134fa91815260200190565b60405180910390a361350b81614288565b905061340f565b506135b6565b60005b88518110156135b45788818151811061354457634e487b7160e01b600052603260045260246000fd5b6020026020010151336001600160a01b03166000805160206142f383398151915286848151811061358557634e487b7160e01b600052603260045260246000fd5b602002602001015160405161359c91815260200190565b60405180910390a36135ad81614288565b905061351b565b505b97919650945092505050565b603380546001600160a01b038381166001600160a01b0319831681179093556040519116919082907f8be0079c531659141344cd1fd0a4f28419497f9722a3daafe3b4186f6b6457e090600090a35050565b60975460ff16156136375760405162461bcd60e51b81526004016105bd90614009565b6097805460ff191660011790557f62e78cea01bee320cd4e420270b5ea74000d11b0c9f74754ebdbfc544b05a258612b0c3390565b8054600090613683906001600160a01b0316612968565b82600101546136929190614226565b905081600701548160d6546136a791906141ee565b6136b19190614245565b60d655600790910155565b6040516001600160a01b0380851660248301528316604482015260648101829052610e599085906323b872dd60e01b90608401612fc2565b6000613709836001600160a01b03841661392a565b9392505050565b6000613709836001600160a01b038416613942565b600054610100900460ff166137405760005460ff1615613744565b303b155b6137605760405162461bcd60e51b81526004016105bd90614033565b600054610100900460ff16158015613782576000805461ffff19166101011790555b61378a61398c565b6137926139b3565b8015610e68576000805461ff001916905550565b600054610100900460ff166137cd5760405162461bcd60e51b81526004016105bd906140b6565b6001606555565b600054610100900460ff166137fb5760405162461bcd60e51b81526004016105bd906140b6565b6097805460ff19169055565b6000816138165750600161071b565b612f2e670de0b6b3a7640000613846670de0b6b3a76400006138418661383c8889613a19565b613a19565b613a4d565b613841906702c68af0bb1400006141ee565b60006138ad826040518060400160405280602081526020017f5361666545524332303a206c6f772d6c6576656c2063616c6c206661696c6564815250856001600160a01b0316613a6d9092919063ffffffff16565b805190915015612ff957808060200190518101906138cb9190613cd5565b612ff95760405162461bcd60e51b815260206004820152602a60248201527f5361666545524332303a204552433230206f7065726174696f6e20646964206e6044820152691bdd081cdd58d8d9595960b21b60648201526084016105bd565b60009081526001919091016020526040902054151590565b600061394e838361392a565b61398457508154600181810184556000848152602080822090930184905584548482528286019093526040902091909155612f2e565b506000612f2e565b600054610100900460ff166107575760405162461bcd60e51b81526004016105bd906140b6565b600054610100900460ff166139ce5760005460ff16156139d2565b303b155b6139ee5760405162461bcd60e51b81526004016105bd90614033565b600054610100900460ff16158015613a10576000805461ffff19166101011790555b613792336135c2565b6000670de0b6b3a7640000613a2f600282614206565b613a398486614226565b613a4391906141ee565b6137099190614206565b600081613a5b600282614206565b613a39670de0b6b3a764000086614226565b6060612a8e848460008585843b613ac65760405162461bcd60e51b815260206004820152601d60248201527f416464726573733a2063616c6c20746f206e6f6e2d636f6e747261637400000060448201526064016105bd565b600080866001600160a01b03168587604051613ae29190613f89565b60006040518083038185875af1925050503d8060008114613b1f576040519150601f19603f3d011682016040523d82523d6000602084013e613b24565b606091505b5091509150613b34828286613b3f565b979650505050505050565b60608315613b4e575081613709565b825115613b5e5782518084602001fd5b8160405162461bcd60e51b81526004016105bd9190613ff6565b600060208284031215613b89578081fd5b8135613709816142cf565b60008060408385031215613ba6578081fd5b8235613bb1816142cf565b946020939093013593505050565b60008060208385031215613bd1578182fd5b82356001600160401b0380821115613be7578384fd5b818501915085601f830112613bfa578384fd5b813581811115613c08578485fd5b8660208260051b8501011115613c1c578485fd5b60209290920196919550909350505050565b60006020808385031215613c40578182fd5b82356001600160401b0380821115613c56578384fd5b818501915085601f830112613c69578384fd5b813581811115613c7b57613c7b6142b9565b8060051b9150613c8c8483016141be565b8181528481019084860184860187018a1015613ca6578788fd5b8795505b83861015613cc8578035835260019590950194918601918601613caa565b5098975050505050505050565b600060208284031215613ce6578081fd5b8151613709816142e4565b600060208284031215613d02578081fd5b8151613709816142cf565b600080600080600060a08688031215613d24578081fd5b8535613d2f816142cf565b94506020860135613d3f816142cf565b94979496505050506040830135926060810135926080909101359150565b600060208284031215613d6e578081fd5b81516001600160401b0380821115613d84578283fd5b818401915084601f830112613d97578283fd5b815181811115613da957613da96142b9565b613dbc601f8201601f19166020016141be565b9150808252856020828501011115613dd2578384fd5b613de381602084016020860161425c565b50949350505050565b600060208284031215613dfd578081fd5b5035919050565b600060208284031215613e15578081fd5b5051919050565b60008060408385031215613e2e578182fd5b823591506020830135613e40816142cf565b809150509250929050565b600080600060608486031215613e5f578081fd5b833592506020840135613e71816142cf565b91506040840135613e81816142cf565b809150509250925092565b60008060408385031215613e9e578182fd5b50508035926020909101359150565b600080600060608486031215613ec1578081fd5b83359250602084013591506040840135613e81816142cf565b60008060008060808587031215613eef578182fd5b84359350602085013592506040850135613f08816142cf565b91506060850135613f18816142e4565b939692955090935050565b6000815180845260208085019450808401835b83811015613f5257815187529582019590820190600101613f36565b509495945050505050565b60008151808452613f7581602086016020860161425c565b601f01601f19169290920160200192915050565b60008251613f9b81846020870161425c565b9190910192915050565b6001600160a01b0391909116815260200190565b6001600160a01b03929092168252602082015260400190565b6001600160a01b0383168152604060208201819052600090612a8e90830184613f5d565b6000602082526137096020830184613f5d565b60208082526010908201526f14185d5cd8589b194e881c185d5cd95960821b604082015260600190565b6020808252602e908201527f496e697469616c697a61626c653a20636f6e747261637420697320616c72656160408201526d191e481a5b9a5d1a585b1a5e995960921b606082015260800190565b6020808252818101527f4f776e61626c653a2063616c6c6572206973206e6f7420746865206f776e6572604082015260600190565b6020808252602b908201527f496e697469616c697a61626c653a20636f6e7472616374206973206e6f74206960408201526a6e697469616c697a696e6760a81b606082015260800190565b6020808252601f908201527f5265656e7472616e637947756172643a207265656e7472616e742063616c6c00604082015260600190565b8481526001600160a01b038416602082015260806040820181905260009061416290830185613f5d565b905082606083015295945050505050565b60008482526060602083015261418c6060830185613f23565b828103604084015261419e8185613f23565b9695505050505050565b9283526020830191909152604082015260600190565b604051601f8201601f191681016001600160401b03811182821017156141e6576141e66142b9565b604052919050565b60008219821115614201576142016142a3565b500190565b60008261422157634e487b7160e01b81526012600452602481fd5b500490565b6000816000190483118215151615614240576142406142a3565b500290565b600082821015614257576142576142a3565b500390565b60005b8381101561427757818101518382015260200161425f565b83811115610e595750506000910152565b600060001982141561429c5761429c6142a3565b5060010190565b634e487b7160e01b600052601160045260246000fd5b634e487b7160e01b600052604160045260246000fd5b6001600160a01b0381168114610e6857600080fd5b8015158114610e6857600080fdfe71bab65ced2e5750775a0613be067df48ef06cf92a496ebf7663ae0660924954a2646970667358221220a73b519dd43a7b7e3843d624ec6dab1792e1bb05ccdf028a520018870faefa0964736f6c63430008030033",
  "linkReferences": {},
  "deployedLinkReferences": {}
}