{
  "_format": "hh-sol-artifact-1",
  "contractName": "LyRebalancer",
  "sourceName": "contracts/liquid-yield/LyRebalancer.sol",
  "abi": [
    {
      "inputs": [
        {
          "internalType": "address",
          "name": "msAVAX",
          "type": "address"
        },
        {
          "internalType": "address",
          "name": "mAVAX",
          "type": "address"
        },
        {
          "internalType": "address",
          "name": "_lyLptHolder",
          "type": "address"
        },
        {
          "internalType": "address",
          "name": "_roles",
          "type": "address"
        }
      ],
      "stateMutability": "nonpayable",
      "type": "constructor"
    },
    {
      "anonymous": false,
      "inputs": [
        {
          "indexed": false,
          "internalType": "string",
          "name": "param",
          "type": "string"
        },
        {
          "indexed": false,
          "internalType": "uint256",
          "name": "value",
          "type": "uint256"
        }
      ],
      "name": "ParameterUpdated",
      "type": "event"
    },
    {
      "anonymous": false,
      "inputs": [
        {
          "indexed": false,
          "internalType": "string",
          "name": "param",
          "type": "string"
        },
        {
          "indexed": false,
          "internalType": "address",
          "name": "subject",
          "type": "address"
        },
        {
          "indexed": false,
          "internalType": "uint256",
          "name": "value",
          "type": "uint256"
        }
      ],
      "name": "SubjectParameterUpdated",
      "type": "event"
    },
    {
      "anonymous": false,
      "inputs": [
        {
          "indexed": false,
          "internalType": "string",
          "name": "param",
          "type": "string"
        },
        {
          "indexed": false,
          "internalType": "address",
          "name": "subject",
          "type": "address"
        }
      ],
      "name": "SubjectUpdated",
      "type": "event"
    },
    {
      "stateMutability": "payable",
      "type": "fallback"
    },
    {
      "inputs": [
        {
          "internalType": "uint256",
          "name": "",
          "type": "uint256"
        }
      ],
      "name": "_charactersPlayed",
      "outputs": [
        {
          "internalType": "uint256",
          "name": "",
          "type": "uint256"
        }
      ],
      "stateMutability": "view",
      "type": "function"
    },
    {
      "inputs": [
        {
          "internalType": "uint256",
          "name": "",
          "type": "uint256"
        }
      ],
      "name": "_dependsOnCharacters",
      "outputs": [
        {
          "internalType": "uint256",
          "name": "",
          "type": "uint256"
        }
      ],
      "stateMutability": "view",
      "type": "function"
    },
    {
      "inputs": [
        {
          "internalType": "uint256",
          "name": "",
          "type": "uint256"
        }
      ],
      "name": "_dependsOnRoles",
      "outputs": [
        {
          "internalType": "uint256",
          "name": "",
          "type": "uint256"
        }
      ],
      "stateMutability": "view",
      "type": "function"
    },
    {
      "inputs": [
        {
          "internalType": "uint256",
          "name": "",
          "type": "uint256"
        }
      ],
      "name": "_rolesPlayed",
      "outputs": [
        {
          "internalType": "uint256",
          "name": "",
          "type": "uint256"
        }
      ],
      "stateMutability": "view",
      "type": "function"
    },
    {
      "inputs": [],
      "name": "arbitrage",
      "outputs": [],
      "stateMutability": "nonpayable",
      "type": "function"
    },
    {
      "inputs": [
        {
          "internalType": "uint256",
          "name": "amount",
          "type": "uint256"
        },
        {
          "internalType": "address",
          "name": "recipient",
          "type": "address"
        }
      ],
      "name": "burnMAvax2Avax",
      "outputs": [],
      "stateMutability": "nonpayable",
      "type": "function"
    },
    {
      "inputs": [
        {
          "internalType": "uint256",
          "name": "amount",
          "type": "uint256"
        },
        {
          "internalType": "address",
          "name": "recipient",
          "type": "address"
        }
      ],
      "name": "burnMAvax2wAvax",
      "outputs": [],
      "stateMutability": "nonpayable",
      "type": "function"
    },
    {
      "inputs": [
        {
          "internalType": "uint256",
          "name": "amount",
          "type": "uint256"
        },
        {
          "internalType": "address",
          "name": "recipient",
          "type": "address"
        }
      ],
      "name": "burnMsAvax",
      "outputs": [],
      "stateMutability": "nonpayable",
      "type": "function"
    },
    {
      "inputs": [],
      "name": "charactersPlayed",
      "outputs": [
        {
          "internalType": "uint256[]",
          "name": "",
          "type": "uint256[]"
        }
      ],
      "stateMutability": "view",
      "type": "function"
    },
    {
      "inputs": [],
      "name": "dependsOnCharacters",
      "outputs": [
        {
          "internalType": "uint256[]",
          "name": "",
          "type": "uint256[]"
        }
      ],
      "stateMutability": "view",
      "type": "function"
    },
    {
      "inputs": [],
      "name": "dependsOnRoles",
      "outputs": [
        {
          "internalType": "uint256[]",
          "name": "",
          "type": "uint256[]"
        }
      ],
      "stateMutability": "view",
      "type": "function"
    },
    {
      "inputs": [],
      "name": "depositBalances",
      "outputs": [],
      "stateMutability": "nonpayable",
      "type": "function"
    },
    {
      "inputs": [],
      "name": "lyLptHolder",
      "outputs": [
        {
          "internalType": "contract LyLptHolder",
          "name": "",
          "type": "address"
        }
      ],
      "stateMutability": "view",
      "type": "function"
    },
    {
      "inputs": [],
      "name": "mAvax",
      "outputs": [
        {
          "internalType": "address",
          "name": "",
          "type": "address"
        }
      ],
      "stateMutability": "view",
      "type": "function"
    },
    {
      "inputs": [
        {
          "internalType": "uint256",
          "name": "",
          "type": "uint256"
        }
      ],
      "name": "mainCharacterCache",
      "outputs": [
        {
          "internalType": "address",
          "name": "",
          "type": "address"
        }
      ],
      "stateMutability": "view",
      "type": "function"
    },
    {
      "inputs": [],
      "name": "minBalancePer10k",
      "outputs": [
        {
          "internalType": "uint256",
          "name": "",
          "type": "uint256"
        }
      ],
      "stateMutability": "view",
      "type": "function"
    },
    {
      "inputs": [
        {
          "internalType": "uint256",
          "name": "amount",
          "type": "uint256"
        }
      ],
      "name": "mintMAvax",
      "outputs": [],
      "stateMutability": "nonpayable",
      "type": "function"
    },
    {
      "inputs": [],
      "name": "mintMAvax",
      "outputs": [],
      "stateMutability": "payable",
      "type": "function"
    },
    {
      "inputs": [
        {
          "internalType": "uint256",
          "name": "amount",
          "type": "uint256"
        }
      ],
      "name": "mintMsAvax",
      "outputs": [],
      "stateMutability": "nonpayable",
      "type": "function"
    },
    {
      "inputs": [],
      "name": "msAvax",
      "outputs": [
        {
          "internalType": "address",
          "name": "",
          "type": "address"
        }
      ],
      "stateMutability": "view",
      "type": "function"
    },
    {
      "inputs": [],
      "name": "pair",
      "outputs": [
        {
          "internalType": "contract IUniswapV2Pair",
          "name": "",
          "type": "address"
        }
      ],
      "stateMutability": "view",
      "type": "function"
    },
    {
      "inputs": [],
      "name": "pullAllFunds",
      "outputs": [],
      "stateMutability": "nonpayable",
      "type": "function"
    },
    {
      "inputs": [
        {
          "internalType": "address",
          "name": "token",
          "type": "address"
        },
        {
          "internalType": "address",
          "name": "recipient",
          "type": "address"
        },
        {
          "internalType": "uint256",
          "name": "amount",
          "type": "uint256"
        }
      ],
      "name": "rescueFunds",
      "outputs": [],
      "stateMutability": "nonpayable",
      "type": "function"
    },
    {
      "inputs": [
        {
          "internalType": "address",
          "name": "",
          "type": "address"
        },
        {
          "internalType": "uint256",
          "name": "",
          "type": "uint256"
        }
      ],
      "name": "roleCache",
      "outputs": [
        {
          "internalType": "bool",
          "name": "",
          "type": "bool"
        }
      ],
      "stateMutability": "view",
      "type": "function"
    },
    {
      "inputs": [],
      "name": "roles",
      "outputs": [
        {
          "internalType": "contract Roles",
          "name": "",
          "type": "address"
        }
      ],
      "stateMutability": "view",
      "type": "function"
    },
    {
      "inputs": [],
      "name": "rolesPlayed",
      "outputs": [
        {
          "internalType": "uint256[]",
          "name": "",
          "type": "uint256[]"
        }
      ],
      "stateMutability": "view",
      "type": "function"
    },
    {
      "inputs": [],
      "name": "sAvax",
      "outputs": [
        {
          "internalType": "contract IsAvax",
          "name": "",
          "type": "address"
        }
      ],
      "stateMutability": "view",
      "type": "function"
    },
    {
      "inputs": [
        {
          "internalType": "uint256",
          "name": "minbalance",
          "type": "uint256"
        }
      ],
      "name": "setMinBalancePer10k",
      "outputs": [],
      "stateMutability": "nonpayable",
      "type": "function"
    },
    {
      "inputs": [
        {
          "internalType": "uint256",
          "name": "window",
          "type": "uint256"
        }
      ],
      "name": "setWindowPer10k",
      "outputs": [],
      "stateMutability": "nonpayable",
      "type": "function"
    },
    {
      "inputs": [
        {
          "internalType": "uint256",
          "name": "role",
          "type": "uint256"
        }
      ],
      "name": "updateMainCharacterCache",
      "outputs": [],
      "stateMutability": "nonpayable",
      "type": "function"
    },
    {
      "inputs": [
        {
          "internalType": "uint256",
          "name": "role",
          "type": "uint256"
        },
        {
          "internalType": "address",
          "name": "contr",
          "type": "address"
        }
      ],
      "name": "updateRoleCache",
      "outputs": [],
      "stateMutability": "nonpayable",
      "type": "function"
    },
    {
      "inputs": [],
      "name": "wAvax",
      "outputs": [
        {
          "internalType": "contract IWETH",
          "name": "",
          "type": "address"
        }
      ],
      "stateMutability": "view",
      "type": "function"
    },
    {
      "inputs": [],
      "name": "windowPer10k",
      "outputs": [
        {
          "internalType": "uint256",
          "name": "",
          "type": "uint256"
        }
      ],
      "stateMutability": "view",
      "type": "function"
    },
    {
      "stateMutability": "payable",
      "type": "receive"
    }
  ],
  "bytecode": "0x60e06040526023600855610bb86009553480156200001c57600080fd5b5060405162003845380380620038458339810160408190526200003f916200017a565b806001600160a01b038116620000a65760405162461bcd60e51b815260206004820152602260248201527f506c656173652070726f766964652076616c696420726f6c6573206164647265604482015261737360f01b606482015260840160405180910390fd5b606090811b6001600160601b03199081166080526001600681905595821b811660a05293901b90921660c052600780546001600160a01b0319166001600160a01b0392909216919091179055506005805480830190915560097f036b6384b5eca791c62761152d0c79bb0604c104a5fb6f4eb0703f3154bb3db09091015560048054918201815560005260737f8a35acfbc15ff81a39ae7d344fd709f28e8600b4aa8c65c6b64bfe7fe36bd19b90910155620001d6565b80516001600160a01b03811681146200017557600080fd5b919050565b6000806000806080858703121562000190578384fd5b6200019b856200015d565b9350620001ab602086016200015d565b9250620001bb604086016200015d565b9150620001cb606086016200015d565b905092959194509250565b60805160601c60a05160601c60c05160601c61353a6200030b60003960008181610486015281816105fb0152818161063f0152818161099b01528181610b1301528181610e7d01528181610f1201528181610fbc015281816114520152818161149a015281816115d80152818161166d0152818161171201528181611ab001528181611cfc01528181611e5a015281816122e2015281816125df0152612ea501526000818161043001528181610786015281816107ca015281816108f401528181610a7701528181611140015281816111d50152818161127f01528181611b5701528181611f0f015281816120cf0152818161222d015281816125220152612efc01526000818161028e015281816106c101528181610cba0152818161184c015281816118e401526128d7015261353a6000f3fe6080604052600436106101825760003560e01c806301b59cd21461018b578063071060a6146101ab57806323194fda146101cb5780632396242014610203578063262c1e741461022357806331eeec11146102475780633574758914610267578063392f5f641461027c5780633d05f2c3146102b0578063447d52ba146102d25780634a7a7f41146102f257806369c8d338146103145780636caa9c11146103295780636ccae054146103495780637a1a04df146103695780637bd176e5146103b45780637dad209b146103d45780637fa725b6146103e957806386a57046146104095780638d373e651461041e578063a8aa1b3114610452578063ab926ef314610474578063abcbc4fc146104a8578063aeb38d8b146104c8578063b9dcfb1c146104e8578063bf184ea4146104f0578063cc4efafe14610510578063cc86e7c314610526578063dc94cb7d14610546578063e8ea4fae1461055b578063e9c3f77d14610570578063e9d97a0f146105a6578063f2f42220146105c657610189565b3661018957005b005b34801561019757600080fd5b506101896101a63660046131b9565b6105e6565b3480156101b757600080fd5b506101896101c63660046131b9565b6106ab565b3480156101d757600080fd5b506101ed6000805160206134e583398151915281565b6040516101fa9190613257565b60405180910390f35b34801561020f57600080fd5b5061018961021e3660046131b9565b610771565b34801561022f57600080fd5b5061023960095481565b6040519081526020016101fa565b34801561025357600080fd5b506101896102623660046131b9565b610801565b34801561027357600080fd5b50610189610858565b34801561028857600080fd5b506101ed7f000000000000000000000000000000000000000000000000000000000000000081565b3480156102bc57600080fd5b506101ed6000805160206134c583398151915281565b3480156102de57600080fd5b506101896102ed3660046131e9565b610ca3565b3480156102fe57600080fd5b50610307610d79565b6040516101fa91906132a8565b34801561032057600080fd5b50610189610dd1565b34801561033557600080fd5b506102396103443660046131b9565b610de3565b34801561035557600080fd5b506101896103643660046130e0565b610e04565b34801561037557600080fd5b506103a4610384366004613120565b600160209081526000928352604080842090915290825290205460ff1681565b60405190151581526020016101fa565b3480156103c057600080fd5b506101896103cf3660046131e9565b610e66565b3480156103e057600080fd5b506103076110d3565b3480156103f557600080fd5b506101896104043660046131e9565b611129565b34801561041557600080fd5b50610189611300565b34801561042a57600080fd5b506101ed7f000000000000000000000000000000000000000000000000000000000000000081565b34801561045e57600080fd5b506101ed6000805160206134a583398151915281565b34801561048057600080fd5b506101ed7f000000000000000000000000000000000000000000000000000000000000000081565b3480156104b457600080fd5b506102396104c33660046131b9565b6113bc565b3480156104d457600080fd5b506102396104e33660046131b9565b6113cc565b6101896113dc565b3480156104fc57600080fd5b5061023961050b3660046131b9565b611505565b34801561051c57600080fd5b5061023960085481565b34801561053257600080fd5b506007546101ed906001600160a01b031681565b34801561055257600080fd5b50610307611515565b34801561056757600080fd5b5061030761156b565b34801561057c57600080fd5b506101ed61058b3660046131b9565b6000602081905290815260409020546001600160a01b031681565b3480156105b257600080fd5b506101896105c13660046131e9565b6115c1565b3480156105d257600080fd5b506101896105e13660046131b9565b611759565b6106206000805160206134e5833981519152337f0000000000000000000000000000000000000000000000000000000000000000846117f0565b610628610858565b6040516340c10f1960e01b81526001600160a01b037f000000000000000000000000000000000000000000000000000000000000000016906340c10f1990610676903390859060040161328f565b600060405180830381600087803b15801561069057600080fd5b505af11580156106a4573d6000803e3d6000fd5b5050505050565b60405163b4ed0b6d60e01b8152600481018290527f00000000000000000000000000000000000000000000000000000000000000006001600160a01b03169063b4ed0b6d9060240160206040518083038186803b15801561070b57600080fd5b505afa15801561071f573d6000803e3d6000fd5b505050506040513d601f19601f8201168201806040525081019061074391906130c4565b60009182526020829052604090912080546001600160a01b0319166001600160a01b03909216919091179055565b6107ab6000805160206134c5833981519152337f0000000000000000000000000000000000000000000000000000000000000000846117f0565b6107b3610858565b6040516340c10f1960e01b81526001600160a01b037f000000000000000000000000000000000000000000000000000000000000000016906340c10f1990610676903390859060040161328f565b3361080a611848565b6001600160a01b0316148061082e5750336108236118e0565b6001600160a01b0316145b6108535760405162461bcd60e51b815260040161084a9061334d565b60405180910390fd5b600955565b600260065414156108ab5760405162461bcd60e51b815260206004820152601f60248201527f5265656e7472616e637947756172643a207265656e7472616e742063616c6c00604482015260640161084a565b6002600655600080806108bc611951565b9250925092508215610c99576040516370a0823160e01b81526000906000805160206134c5833981519152906370a082319061091c907f000000000000000000000000000000000000000000000000000000000000000090600401613257565b60206040518083038186803b15801561093457600080fd5b505afa158015610948573d6000803e3d6000fd5b505050506040513d601f19601f8201168201806040525081019061096c91906131d1565b6040516370a0823160e01b81529091506000906000805160206134e5833981519152906370a08231906109c3907f000000000000000000000000000000000000000000000000000000000000000090600401613257565b60206040518083038186803b1580156109db57600080fd5b505afa1580156109ef573d6000803e3d6000fd5b505050506040513d601f19601f82011682018060405250810190610a1391906131d1565b9050600082118015610a255750600081115b15610c96576000610a4a8385610a3b8886613417565b610a4591906133f7565b612378565b90506000610a5d8387610a3b8888613417565b604051631501bf0360e01b81529091506001600160a01b037f00000000000000000000000000000000000000000000000000000000000000001690631501bf0390610acc906000805160206134c5833981519152906000805160206134a583398151915290879060040161326b565b600060405180830381600087803b158015610ae657600080fd5b505af1158015610afa573d6000803e3d6000fd5b5050604051631501bf0360e01b81526001600160a01b037f0000000000000000000000000000000000000000000000000000000000000000169250631501bf039150610b6a906000805160206134e5833981519152906000805160206134a583398151915290869060040161326b565b600060405180830381600087803b158015610b8457600080fd5b505af1158015610b98573d6000803e3d6000fd5b50506007546040516335313c2160e11b81526000805160206134a58339815191529350636a6278429250610bd8916001600160a01b031690600401613257565b602060405180830381600087803b158015610bf257600080fd5b505af1158015610c06573d6000803e3d6000fd5b505050506040513d601f19601f82011682018060405250810190610c2a91906131d1565b50600760009054906101000a90046001600160a01b03166001600160a01b031663d0e30db06040518163ffffffff1660e01b8152600401600060405180830381600087803b158015610c7b57600080fd5b505af1158015610c8f573d6000803e3d6000fd5b5050505050505b50505b5050600160065550565b60405163f0723d9760e01b81526001600160a01b037f0000000000000000000000000000000000000000000000000000000000000000169063f0723d9790610cf1908490869060040161328f565b60206040518083038186803b158015610d0957600080fd5b505afa158015610d1d573d6000803e3d6000fd5b505050506040513d601f19601f82011682018060405250810190610d41919061314b565b6001600160a01b0391909116600090815260016020908152604080832094835293905291909120805460ff1916911515919091179055565b60606003805480602002602001604051908101604052809291908181526020018280548015610dc757602002820191906000526020600020905b815481526020019060010190808311610db3575b5050505050905090565b610dd9612391565b610de1610858565b565b60058181548110610df357600080fd5b600091825260209091200154905081565b33610e0d611848565b6001600160a01b03161480610e31575033610e266118e0565b6001600160a01b0316145b610e4d5760405162461bcd60e51b815260040161084a9061334d565b610e616001600160a01b0384168383612685565b505050565b604051632770a7eb60e21b81526001600160a01b037f00000000000000000000000000000000000000000000000000000000000000001690639dc29fac90610eb4903390869060040161328f565b600060405180830381600087803b158015610ece57600080fd5b505af1158015610ee2573d6000803e3d6000fd5b50506040516370a0823160e01b8152600092506000805160206134e583398151915291506370a0823190610f3a907f000000000000000000000000000000000000000000000000000000000000000090600401613257565b60206040518083038186803b158015610f5257600080fd5b505afa158015610f66573d6000803e3d6000fd5b505050506040513d601f19601f82011682018060405250810190610f8a91906131d1565b9050808310610fa557610fa5610fa08285613436565b6126a4565b604051631501bf0360e01b81526001600160a01b037f00000000000000000000000000000000000000000000000000000000000000001690631501bf0390611003906000805160206134e5833981519152903090889060040161326b565b600060405180830381600087803b15801561101d57600080fd5b505af1158015611031573d6000803e3d6000fd5b5050604051632e1a7d4d60e01b8152600481018690526000805160206134e58339815191529250632e1a7d4d9150602401600060405180830381600087803b15801561107c57600080fd5b505af1158015611090573d6000803e3d6000fd5b50506040516001600160a01b038516925085156108fc02915085906000818181858888f193505050501580156110ca573d6000803e3d6000fd5b50610e61610858565b60606004805480602002602001604051908101604052809291908181526020018280548015610dc75760200282019190600052602060002090815481526020019060010190808311610db3575050505050905090565b604051632770a7eb60e21b81526001600160a01b037f00000000000000000000000000000000000000000000000000000000000000001690639dc29fac90611177903390869060040161328f565b600060405180830381600087803b15801561119157600080fd5b505af11580156111a5573d6000803e3d6000fd5b50506040516370a0823160e01b8152600092506000805160206134c583398151915291506370a08231906111fd907f000000000000000000000000000000000000000000000000000000000000000090600401613257565b60206040518083038186803b15801561121557600080fd5b505afa158015611229573d6000803e3d6000fd5b505050506040513d601f19601f8201168201806040525081019061124d91906131d1565b9050808310611268576112686112638285613436565b61287b565b604051631501bf0360e01b81526001600160a01b037f00000000000000000000000000000000000000000000000000000000000000001690631501bf03906112c6906000805160206134c5833981519152908690889060040161326b565b600060405180830381600087803b1580156112e057600080fd5b505af11580156112f4573d6000803e3d6000fd5b50505050610e61610858565b33611309611848565b6001600160a01b0316148061132d5750336113226118e0565b6001600160a01b0316145b8061134757503361133c6128bd565b6001600160a01b0316145b6113b45760405162461bcd60e51b815260206004820152603860248201527f43616c6c6572206973206e6f7420746865206f776e65722c206578656375746f604482015277391037b91030baba3437b934bd32b2103234b9b0b13632b960411b606482015260840161084a565b610de1612391565b60028181548110610df357600080fd5b60048181548110610df357600080fd5b6000805160206134e58339815191526001600160a01b031663d0e30db0346040518263ffffffff1660e01b81526004016000604051808303818588803b15801561142557600080fd5b505af1158015611439573d6000803e3d6000fd5b5061147b93506000805160206134e583398151915292507f00000000000000000000000000000000000000000000000000000000000000009150349050612685565b611483610858565b6040516340c10f1960e01b81526001600160a01b037f000000000000000000000000000000000000000000000000000000000000000016906340c10f19906114d1903390349060040161328f565b600060405180830381600087803b1580156114eb57600080fd5b505af11580156114ff573d6000803e3d6000fd5b50505050565b60038181548110610df357600080fd5b60606002805480602002602001604051908101604052809291908181526020018280548015610dc75760200282019190600052602060002090815481526020019060010190808311610db3575050505050905090565b60606005805480602002602001604051908101604052809291908181526020018280548015610dc75760200282019190600052602060002090815481526020019060010190808311610db3575050505050905090565b604051632770a7eb60e21b81526001600160a01b037f00000000000000000000000000000000000000000000000000000000000000001690639dc29fac9061160f903390869060040161328f565b600060405180830381600087803b15801561162957600080fd5b505af115801561163d573d6000803e3d6000fd5b50506040516370a0823160e01b8152600092506000805160206134e583398151915291506370a0823190611695907f000000000000000000000000000000000000000000000000000000000000000090600401613257565b60206040518083038186803b1580156116ad57600080fd5b505afa1580156116c1573d6000803e3d6000fd5b505050506040513d601f19601f820116820180604052508101906116e591906131d1565b90508083106116fb576116fb610fa08285613436565b604051631501bf0360e01b81526001600160a01b037f00000000000000000000000000000000000000000000000000000000000000001690631501bf03906112c6906000805160206134e5833981519152908690889060040161326b565b33611762611848565b6001600160a01b0316148061178657503361177b6118e0565b6001600160a01b0316145b6117a25760405162461bcd60e51b815260040161084a9061334d565b8061271010156117eb5760405162461bcd60e51b815260206004820152601460248201527357696e646f77206f7574206f6620626f756e647360601b604482015260640161084a565b600855565b6114ff846323b872dd60e01b8585856040516024016118119392919061326b565b60408051601f198184030181529190526020810180516001600160e01b03166001600160e01b031990931692909217909152612921565b60007f00000000000000000000000000000000000000000000000000000000000000006001600160a01b0316638da5cb5b6040518163ffffffff1660e01b815260040160206040518083038186803b1580156118a357600080fd5b505afa1580156118b7573d6000803e3d6000fd5b505050506040513d601f19601f820116820180604052508101906118db91906130c4565b905090565b60007f00000000000000000000000000000000000000000000000000000000000000006001600160a01b031663c34c08e56040518163ffffffff1660e01b8152600401602060405180830381600087803b15801561193d57600080fd5b505af11580156118b7573d6000803e3d6000fd5b60008060008060006000805160206134a58339815191526001600160a01b0316630902f1ac6040518163ffffffff1660e01b815260040160606040518083038186803b1580156119a057600080fd5b505afa1580156119b4573d6000803e3d6000fd5b505050506040513d601f19601f820116820180604052508101906119d8919061316b565b50604051634a36d6c160e01b81526001600160701b03928316600482018190529450911691506000906000805160206134c583398151915290634a36d6c19060240160206040518083038186803b158015611a3257600080fd5b505afa158015611a46573d6000803e3d6000fd5b505050506040513d601f19601f82011682018060405250810190611a6a91906131d1565b9050600080611a81611a7c8585613417565b6129f3565b6040516370a0823160e01b81529091506000906000805160206134e5833981519152906370a0823190611ad8907f000000000000000000000000000000000000000000000000000000000000000090600401613257565b60206040518083038186803b158015611af057600080fd5b505afa158015611b04573d6000803e3d6000fd5b505050506040513d601f19601f82011682018060405250810190611b2891906131d1565b6040516370a0823160e01b81529091506000906000805160206134c5833981519152906370a0823190611b7f907f000000000000000000000000000000000000000000000000000000000000000090600401613257565b60206040518083038186803b158015611b9757600080fd5b505afa158015611bab573d6000803e3d6000fd5b505050506040513d601f19601f82011682018060405250810190611bcf91906131d1565b9050856127106008546002611be49190613417565b611bf090612710613436565b611bfa9086613417565b611c0491906133f7565b1115611fa9576000866103e8600854612710611c209190613436565b611c2a9087613417565b611c3491906133f7565b611c3e9190613436565b90506000611c4c8483612378565b9050655af3107a4000811115611fa2576000611c69828a8c612bda565b604051634a36d6c160e01b81526004810182905290915082906000805160206134c583398151915290634a36d6c19060240160206040518083038186803b158015611cb357600080fd5b505afa158015611cc7573d6000803e3d6000fd5b505050506040513d601f19601f82011682018060405250810190611ceb91906131d1565b10158015611e3e57506127106009547f00000000000000000000000000000000000000000000000000000000000000006001600160a01b03166318160ddd6040518163ffffffff1660e01b815260040160206040518083038186803b158015611d5357600080fd5b505afa158015611d67573d6000803e3d6000fd5b505050506040513d601f19601f82011682018060405250810190611d8b91906131d1565b611d959190613417565b611d9f91906133f7565b8286600760009054906101000a90046001600160a01b03166001600160a01b03166385f8db106040518163ffffffff1660e01b815260040160206040518083038186803b158015611def57600080fd5b505afa158015611e03573d6000803e3d6000fd5b505050506040513d601f19601f82011682018060405250810190611e2791906131d1565b611e3191906133df565b611e3b9190613436565b10155b15611fa057604051631501bf0360e01b81526001600160a01b037f00000000000000000000000000000000000000000000000000000000000000001690631501bf0390611eaf906000805160206134e5833981519152906000805160206134a583398151915290879060040161326b565b600060405180830381600087803b158015611ec957600080fd5b505af1158015611edd573d6000803e3d6000fd5b505060405163022c0d9f60e01b81526000805160206134a5833981519152925063022c0d9f9150611f379084906000907f0000000000000000000000000000000000000000000000000000000000000000906004016132ec565b600060405180830381600087803b158015611f5157600080fd5b505af1158015611f65573d6000803e3d6000fd5b505050506064836063611f789190613417565b611f8291906133f7565b8210159650611f91818b613436565b9950611f9d828a6133df565b98505b505b5050612367565b826127106008546002611fbc9190613417565b611fc890612710613436565b611fd29089613417565b611fdc91906133f7565b11156123625760006103e8600854612710611ff791906133df565b6120019086613417565b61200b91906133f7565b6120159088613436565b9050655af3107a400081111561235c576000612032828a8a612cb9565b90508083101580156120c05750604051634a36d6c160e01b8152600481018290526000805160206134c583398151915290634a36d6c19060240160206040518083038186803b15801561208457600080fd5b505afa158015612098573d6000803e3d6000fd5b505050506040513d601f19601f820116820180604052508101906120bc91906131d1565b8210155b801561221157506127106009547f00000000000000000000000000000000000000000000000000000000000000006001600160a01b03166318160ddd6040518163ffffffff1660e01b815260040160206040518083038186803b15801561212657600080fd5b505afa15801561213a573d6000803e3d6000fd5b505050506040513d601f19601f8201168201806040525081019061215e91906131d1565b6121689190613417565b61217291906133f7565b8184600760009054906101000a90046001600160a01b03166001600160a01b03166385f8db106040518163ffffffff1660e01b815260040160206040518083038186803b1580156121c257600080fd5b505afa1580156121d6573d6000803e3d6000fd5b505050506040513d601f19601f820116820180604052508101906121fa91906131d1565b61220491906133df565b61220e9190613436565b10155b15611fa257604051631501bf0360e01b81526001600160a01b037f00000000000000000000000000000000000000000000000000000000000000001690631501bf0390612282906000805160206134c5833981519152906000805160206134a583398151915290869060040161326b565b600060405180830381600087803b15801561229c57600080fd5b505af11580156122b0573d6000803e3d6000fd5b505060405163022c0d9f60e01b81526000805160206134a5833981519152925063022c0d9f915061230a9060009086907f0000000000000000000000000000000000000000000000000000000000000000906004016132ec565b600060405180830381600087803b15801561232457600080fd5b505af1158015612338573d6000803e3d6000fd5b5050505060019550808961234c91906133df565b98506123588289613436565b9750505b50612367565b600193505b509198949750929550929350505050565b600081831061238857508061238b565b50815b92915050565b600754604051630fa09e6360e41b81526001600160a01b039091169063fa09e630906123cf906000805160206134a583398151915290600401613257565b600060405180830381600087803b1580156123e957600080fd5b505af11580156123fd573d6000803e3d6000fd5b50506040516370a0823160e01b8152600092506000805160206134a583398151915291506370a0823190612435908390600401613257565b60206040518083038186803b15801561244d57600080fd5b505afa158015612461573d6000803e3d6000fd5b505050506040513d601f19601f8201168201806040525081019061248591906131d1565b1115610de15760405163226bf2d160e21b81526000805160206134a5833981519152906389afcb44906124bc903090600401613257565b6040805180830381600087803b1580156124d557600080fd5b505af11580156124e9573d6000803e3d6000fd5b505050506040513d601f19601f8201168201806040525081019061250d9190613218565b50506040516370a0823160e01b81526125cc907f0000000000000000000000000000000000000000000000000000000000000000906000805160206134c5833981519152906370a0823190612566903090600401613257565b60206040518083038186803b15801561257e57600080fd5b505afa158015612592573d6000803e3d6000fd5b505050506040513d601f19601f820116820180604052508101906125b691906131d1565b6000805160206134c58339815191529190612685565b6040516370a0823160e01b8152610de1907f0000000000000000000000000000000000000000000000000000000000000000906000805160206134e5833981519152906370a0823190612623903090600401613257565b60206040518083038186803b15801561263b57600080fd5b505afa15801561264f573d6000803e3d6000fd5b505050506040513d601f19601f8201168201806040525081019061267391906131d1565b6000805160206134e583398151915291905b610e618363a9059cbb60e01b848460405160240161181192919061328f565b6040516370a0823160e01b81526000906000805160206134e5833981519152906370a08231906126e6906000805160206134a583398151915290600401613257565b60206040518083038186803b1580156126fe57600080fd5b505afa158015612712573d6000803e3d6000fd5b505050506040513d601f19601f8201168201806040525081019061273691906131d1565b905060006000805160206134a58339815191526001600160a01b03166318160ddd6040518163ffffffff1660e01b815260040160206040518083038186803b15801561278157600080fd5b505afa158015612795573d6000803e3d6000fd5b505050506040513d601f19601f820116820180604052508101906127b991906131d1565b90506000600760009054906101000a90046001600160a01b03166001600160a01b03166385f8db106040518163ffffffff1660e01b815260040160206040518083038186803b15801561280b57600080fd5b505afa15801561281f573d6000803e3d6000fd5b505050506040513d601f19601f8201168201806040525081019061284391906131d1565b9050600061287082856128568887613417565b61286091906133f7565b610a4590655af3107a40006133df565b90506106a481612d9e565b6040516370a0823160e01b81526000906000805160206134c5833981519152906370a08231906126e6906000805160206134a583398151915290600401613257565b60405163b4ed0b6d60e01b81526103e960048201526000907f00000000000000000000000000000000000000000000000000000000000000006001600160a01b03169063b4ed0b6d9060240160206040518083038186803b1580156118a357600080fd5b6000612976826040518060400160405280602081526020017f5361666545524332303a206c6f772d6c6576656c2063616c6c206661696c6564815250856001600160a01b0316612f439092919063ffffffff16565b805190915015610e615780806020019051810190612994919061314b565b610e615760405162461bcd60e51b815260206004820152602a60248201527f5361666545524332303a204552433230206f7065726174696f6e20646964206e6044820152691bdd081cdd58d8d9595960b21b606482015260840161084a565b600081612a0257506000612bd5565b50600181600160801b8110612a1c5760409190911b9060801c5b600160401b8110612a325760209190911b9060401c5b600160201b8110612a485760109190911b9060201c5b620100008110612a5d5760089190911b9060101c5b6101008110612a715760049190911b9060081c5b60108110612a845760029190911b9060041c5b60088110612a9457600182901b91505b6001828481612ab357634e487b7160e01b600052601260045260246000fd5b048301901c91506001828481612ad957634e487b7160e01b600052601260045260246000fd5b048301901c91506001828481612aff57634e487b7160e01b600052601260045260246000fd5b048301901c91506001828481612b2557634e487b7160e01b600052601260045260246000fd5b048301901c91506001828481612b4b57634e487b7160e01b600052601260045260246000fd5b048301901c91506001828481612b7157634e487b7160e01b600052601260045260246000fd5b048301901c91506001828481612b9757634e487b7160e01b600052601260045260246000fd5b048301901c91506000828481612bbd57634e487b7160e01b600052601260045260246000fd5b04905080831015612bce5782612bd0565b805b925050505b919050565b6000808411612c3f5760405162461bcd60e51b815260206004820152602b60248201527f556e697377617056324c6962726172793a20494e53554646494349454e545f4960448201526a1394155517d05353d5539560aa1b606482015260840161084a565b600083118015612c4f5750600082115b612c6b5760405162461bcd60e51b815260040161084a90613397565b6000612c79856103e5613417565b90506000612c878483613417565b9050600082612c98876103e8613417565b612ca291906133df565b9050612cae81836133f7565b979650505050505050565b6000808411612d1f5760405162461bcd60e51b815260206004820152602c60248201527f556e697377617056324c6962726172793a20494e53554646494349454e545f4f60448201526b155514155517d05353d5539560a21b606482015260840161084a565b600083118015612d2f5750600082115b612d4b5760405162461bcd60e51b815260040161084a90613397565b6000612d578585613417565b612d63906103e8613417565b90506000612d718685613436565b612d7d906103e5613417565b9050612d8981836133f7565b612d949060016133df565b9695505050505050565b600754604051627b8a6760e11b8152600481018390526000805160206134a583398151915260248201526001600160a01b039091169062f714ce90604401600060405180830381600087803b158015612df657600080fd5b505af1158015612e0a573d6000803e3d6000fd5b505060405163226bf2d160e21b81526000805160206134a583398151915292506389afcb449150612e3f903090600401613257565b6040805180830381600087803b158015612e5857600080fd5b505af1158015612e6c573d6000803e3d6000fd5b505050506040513d601f19601f82011682018060405250810190612e909190613218565b50506040516370a0823160e01b8152612ee9907f0000000000000000000000000000000000000000000000000000000000000000906000805160206134e5833981519152906370a0823190612623903090600401613257565b6040516370a0823160e01b8152612f40907f0000000000000000000000000000000000000000000000000000000000000000906000805160206134c5833981519152906370a0823190612566903090600401613257565b50565b6060612f528484600085612f5c565b90505b9392505050565b606082471015612fbd5760405162461bcd60e51b815260206004820152602660248201527f416464726573733a20696e73756666696369656e742062616c616e636520666f6044820152651c8818d85b1b60d21b606482015260840161084a565b843b61300b5760405162461bcd60e51b815260206004820152601d60248201527f416464726573733a2063616c6c20746f206e6f6e2d636f6e7472616374000000604482015260640161084a565b600080866001600160a01b03168587604051613027919061323b565b60006040518083038185875af1925050503d8060008114613064576040519150601f19603f3d011682016040523d82523d6000602084013e613069565b606091505b5091509150612cae82828660608315613083575081612f55565b8251156130935782518084602001fd5b8160405162461bcd60e51b815260040161084a919061331a565b80516001600160701b0381168114612bd557600080fd5b6000602082840312156130d5578081fd5b8151612f558161348f565b6000806000606084860312156130f4578182fd5b83356130ff8161348f565b9250602084013561310f8161348f565b929592945050506040919091013590565b60008060408385031215613132578182fd5b823561313d8161348f565b946020939093013593505050565b60006020828403121561315c578081fd5b81518015158114612f55578182fd5b60008060006060848603121561317f578283fd5b613188846130ad565b9250613196602085016130ad565b9150604084015163ffffffff811681146131ae578182fd5b809150509250925092565b6000602082840312156131ca578081fd5b5035919050565b6000602082840312156131e2578081fd5b5051919050565b600080604083850312156131fb578182fd5b82359150602083013561320d8161348f565b809150509250929050565b6000806040838503121561322a578182fd5b505080516020909101519092909150565b6000825161324d81846020870161344d565b9190910192915050565b6001600160a01b0391909116815260200190565b6001600160a01b039384168152919092166020820152604081019190915260600190565b6001600160a01b03929092168252602082015260400190565b6020808252825182820181905260009190848201906040850190845b818110156132e0578351835292840192918401916001016132c4565b50909695505050505050565b92835260208301919091526001600160a01b0316604082015260806060820181905260009082015260a00190565b600060208252825180602084015261333981604085016020870161344d565b601f01601f19169190910160400192915050565b6020808252602a908201527f526f6c65733a2063616c6c6572206973206e6f7420746865206f776e6572206f604082015269391032bc32b1baba37b960b11b606082015260800190565b60208082526028908201527f556e697377617056324c6962726172793a20494e53554646494349454e545f4c604082015267495155494449545960c01b606082015260800190565b600082198211156133f2576133f2613479565b500190565b60008261341257634e487b7160e01b81526012600452602481fd5b500490565b600081600019048311821515161561343157613431613479565b500290565b60008282101561344857613448613479565b500390565b60005b83811015613468578181015183820152602001613450565b838111156114ff5750506000910152565b634e487b7160e01b600052601160045260246000fd5b6001600160a01b0381168114612f4057600080fdfe0000000000000000000000004b946c91c2b1a7d7c40fb3c130cdfbaf8389094d0000000000000000000000002b2c81e08f1af8835a78bb2a90ae924ace0ea4be000000000000000000000000b31f66aa3c1e785363f0875a1b74e27b85fd66c7a26469706673582212201f52e373ef1e5eb9dfa57dcbd1746f8ed3d81d0b1c7aaa687d37f139da448fae64736f6c63430008030033",
  "linkReferences": {},
  "deployedLinkReferences": {}
}