{
  "_format": "hh-sol-artifact-1",
  "contractName": "CurvePoolRewards",
  "sourceName": "contracts/rewards/CurvePoolRewards.sol",
  "abi": [
    {
      "inputs": [
        {
          "internalType": "uint256",
          "name": "_vestingCliff",
          "type": "uint256"
        },
        {
          "internalType": "uint256",
          "name": "_vestingPeriod",
          "type": "uint256"
        },
        {
          "internalType": "address",
          "name": "_roles",
          "type": "address"
        }
      ],
      "stateMutability": "nonpayable",
      "type": "constructor"
    },
    {
      "anonymous": false,
      "inputs": [
        {
          "indexed": false,
          "internalType": "string",
          "name": "param",
          "type": "string"
        },
        {
          "indexed": false,
          "internalType": "uint256",
          "name": "value",
          "type": "uint256"
        }
      ],
      "name": "ParameterUpdated",
      "type": "event"
    },
    {
      "anonymous": false,
      "inputs": [
        {
          "indexed": false,
          "internalType": "address",
          "name": "token",
          "type": "address"
        },
        {
          "indexed": false,
          "internalType": "uint256",
          "name": "amount",
          "type": "uint256"
        }
      ],
      "name": "Recovered",
      "type": "event"
    },
    {
      "anonymous": false,
      "inputs": [
        {
          "indexed": false,
          "internalType": "uint256",
          "name": "reward",
          "type": "uint256"
        }
      ],
      "name": "RewardAdded",
      "type": "event"
    },
    {
      "anonymous": false,
      "inputs": [
        {
          "indexed": true,
          "internalType": "address",
          "name": "user",
          "type": "address"
        },
        {
          "indexed": false,
          "internalType": "uint256",
          "name": "reward",
          "type": "uint256"
        }
      ],
      "name": "RewardPaid",
      "type": "event"
    },
    {
      "anonymous": false,
      "inputs": [
        {
          "indexed": false,
          "internalType": "uint256",
          "name": "newDuration",
          "type": "uint256"
        }
      ],
      "name": "RewardsDurationUpdated",
      "type": "event"
    },
    {
      "anonymous": false,
      "inputs": [
        {
          "indexed": true,
          "internalType": "address",
          "name": "user",
          "type": "address"
        },
        {
          "indexed": false,
          "internalType": "uint256",
          "name": "amount",
          "type": "uint256"
        }
      ],
      "name": "Staked",
      "type": "event"
    },
    {
      "anonymous": false,
      "inputs": [
        {
          "indexed": false,
          "internalType": "string",
          "name": "param",
          "type": "string"
        },
        {
          "indexed": false,
          "internalType": "address",
          "name": "subject",
          "type": "address"
        },
        {
          "indexed": false,
          "internalType": "uint256",
          "name": "value",
          "type": "uint256"
        }
      ],
      "name": "SubjectParameterUpdated",
      "type": "event"
    },
    {
      "anonymous": false,
      "inputs": [
        {
          "indexed": false,
          "internalType": "string",
          "name": "param",
          "type": "string"
        },
        {
          "indexed": false,
          "internalType": "address",
          "name": "subject",
          "type": "address"
        }
      ],
      "name": "SubjectUpdated",
      "type": "event"
    },
    {
      "anonymous": false,
      "inputs": [
        {
          "indexed": true,
          "internalType": "address",
          "name": "user",
          "type": "address"
        },
        {
          "indexed": false,
          "internalType": "uint256",
          "name": "amount",
          "type": "uint256"
        }
      ],
      "name": "Withdrawn",
      "type": "event"
    },
    {
      "inputs": [
        {
          "internalType": "uint256",
          "name": "",
          "type": "uint256"
        }
      ],
      "name": "_charactersPlayed",
      "outputs": [
        {
          "internalType": "uint256",
          "name": "",
          "type": "uint256"
        }
      ],
      "stateMutability": "view",
      "type": "function"
    },
    {
      "inputs": [
        {
          "internalType": "uint256",
          "name": "",
          "type": "uint256"
        }
      ],
      "name": "_dependsOnCharacters",
      "outputs": [
        {
          "internalType": "uint256",
          "name": "",
          "type": "uint256"
        }
      ],
      "stateMutability": "view",
      "type": "function"
    },
    {
      "inputs": [
        {
          "internalType": "uint256",
          "name": "",
          "type": "uint256"
        }
      ],
      "name": "_dependsOnRoles",
      "outputs": [
        {
          "internalType": "uint256",
          "name": "",
          "type": "uint256"
        }
      ],
      "stateMutability": "view",
      "type": "function"
    },
    {
      "inputs": [
        {
          "internalType": "address",
          "name": "",
          "type": "address"
        },
        {
          "internalType": "address",
          "name": "",
          "type": "address"
        }
      ],
      "name": "_oracleCache",
      "outputs": [
        {
          "internalType": "address",
          "name": "",
          "type": "address"
        }
      ],
      "stateMutability": "view",
      "type": "function"
    },
    {
      "inputs": [
        {
          "internalType": "uint256",
          "name": "",
          "type": "uint256"
        }
      ],
      "name": "_rolesPlayed",
      "outputs": [
        {
          "internalType": "uint256",
          "name": "",
          "type": "uint256"
        }
      ],
      "stateMutability": "view",
      "type": "function"
    },
    {
      "inputs": [
        {
          "internalType": "address",
          "name": "account",
          "type": "address"
        }
      ],
      "name": "balanceOf",
      "outputs": [
        {
          "internalType": "uint256",
          "name": "",
          "type": "uint256"
        }
      ],
      "stateMutability": "view",
      "type": "function"
    },
    {
      "inputs": [],
      "name": "charactersPlayed",
      "outputs": [
        {
          "internalType": "uint256[]",
          "name": "",
          "type": "uint256[]"
        }
      ],
      "stateMutability": "view",
      "type": "function"
    },
    {
      "inputs": [],
      "name": "dependsOnCharacters",
      "outputs": [
        {
          "internalType": "uint256[]",
          "name": "",
          "type": "uint256[]"
        }
      ],
      "stateMutability": "view",
      "type": "function"
    },
    {
      "inputs": [],
      "name": "dependsOnRoles",
      "outputs": [
        {
          "internalType": "uint256[]",
          "name": "",
          "type": "uint256[]"
        }
      ],
      "stateMutability": "view",
      "type": "function"
    },
    {
      "inputs": [
        {
          "internalType": "address",
          "name": "account",
          "type": "address"
        }
      ],
      "name": "earned",
      "outputs": [
        {
          "internalType": "uint256",
          "name": "",
          "type": "uint256"
        }
      ],
      "stateMutability": "view",
      "type": "function"
    },
    {
      "inputs": [],
      "name": "exit",
      "outputs": [],
      "stateMutability": "nonpayable",
      "type": "function"
    },
    {
      "inputs": [],
      "name": "getRewardForDuration",
      "outputs": [
        {
          "internalType": "uint256",
          "name": "",
          "type": "uint256"
        }
      ],
      "stateMutability": "view",
      "type": "function"
    },
    {
      "inputs": [],
      "name": "instantVestingPer10k",
      "outputs": [
        {
          "internalType": "uint256",
          "name": "",
          "type": "uint256"
        }
      ],
      "stateMutability": "view",
      "type": "function"
    },
    {
      "inputs": [],
      "name": "lastTimeRewardApplicable",
      "outputs": [
        {
          "internalType": "uint256",
          "name": "",
          "type": "uint256"
        }
      ],
      "stateMutability": "view",
      "type": "function"
    },
    {
      "inputs": [],
      "name": "lastUpdateTime",
      "outputs": [
        {
          "internalType": "uint256",
          "name": "",
          "type": "uint256"
        }
      ],
      "stateMutability": "view",
      "type": "function"
    },
    {
      "inputs": [
        {
          "internalType": "uint256",
          "name": "",
          "type": "uint256"
        }
      ],
      "name": "mainCharacterCache",
      "outputs": [
        {
          "internalType": "address",
          "name": "",
          "type": "address"
        }
      ],
      "stateMutability": "view",
      "type": "function"
    },
    {
      "inputs": [
        {
          "internalType": "address",
          "name": "token",
          "type": "address"
        },
        {
          "internalType": "address",
          "name": "pegCurrency",
          "type": "address"
        }
      ],
      "name": "newCurrentOracle",
      "outputs": [],
      "stateMutability": "nonpayable",
      "type": "function"
    },
    {
      "inputs": [
        {
          "internalType": "uint256",
          "name": "reward",
          "type": "uint256"
        }
      ],
      "name": "notifyRewardAmount",
      "outputs": [],
      "stateMutability": "nonpayable",
      "type": "function"
    },
    {
      "inputs": [],
      "name": "periodFinish",
      "outputs": [
        {
          "internalType": "uint256",
          "name": "",
          "type": "uint256"
        }
      ],
      "stateMutability": "view",
      "type": "function"
    },
    {
      "inputs": [
        {
          "internalType": "address",
          "name": "tokenAddress",
          "type": "address"
        },
        {
          "internalType": "uint256",
          "name": "tokenAmount",
          "type": "uint256"
        }
      ],
      "name": "recoverERC20",
      "outputs": [],
      "stateMutability": "nonpayable",
      "type": "function"
    },
    {
      "inputs": [],
      "name": "rewardPerToken",
      "outputs": [
        {
          "internalType": "uint256",
          "name": "",
          "type": "uint256"
        }
      ],
      "stateMutability": "view",
      "type": "function"
    },
    {
      "inputs": [],
      "name": "rewardPerTokenStored",
      "outputs": [
        {
          "internalType": "uint256",
          "name": "",
          "type": "uint256"
        }
      ],
      "stateMutability": "view",
      "type": "function"
    },
    {
      "inputs": [],
      "name": "rewardRate",
      "outputs": [
        {
          "internalType": "uint256",
          "name": "",
          "type": "uint256"
        }
      ],
      "stateMutability": "view",
      "type": "function"
    },
    {
      "inputs": [
        {
          "internalType": "address",
          "name": "",
          "type": "address"
        }
      ],
      "name": "rewards",
      "outputs": [
        {
          "internalType": "uint256",
          "name": "",
          "type": "uint256"
        }
      ],
      "stateMutability": "view",
      "type": "function"
    },
    {
      "inputs": [],
      "name": "rewardsDuration",
      "outputs": [
        {
          "internalType": "uint256",
          "name": "",
          "type": "uint256"
        }
      ],
      "stateMutability": "view",
      "type": "function"
    },
    {
      "inputs": [],
      "name": "rewardsToken",
      "outputs": [
        {
          "internalType": "contract IERC20",
          "name": "",
          "type": "address"
        }
      ],
      "stateMutability": "view",
      "type": "function"
    },
    {
      "inputs": [
        {
          "internalType": "address",
          "name": "",
          "type": "address"
        },
        {
          "internalType": "uint256",
          "name": "",
          "type": "uint256"
        }
      ],
      "name": "roleCache",
      "outputs": [
        {
          "internalType": "bool",
          "name": "",
          "type": "bool"
        }
      ],
      "stateMutability": "view",
      "type": "function"
    },
    {
      "inputs": [],
      "name": "roles",
      "outputs": [
        {
          "internalType": "contract Roles",
          "name": "",
          "type": "address"
        }
      ],
      "stateMutability": "view",
      "type": "function"
    },
    {
      "inputs": [],
      "name": "rolesPlayed",
      "outputs": [
        {
          "internalType": "uint256[]",
          "name": "",
          "type": "uint256[]"
        }
      ],
      "stateMutability": "view",
      "type": "function"
    },
    {
      "inputs": [
        {
          "internalType": "uint256",
          "name": "vestingPer10k",
          "type": "uint256"
        }
      ],
      "name": "setInstantVestingPer10k",
      "outputs": [],
      "stateMutability": "nonpayable",
      "type": "function"
    },
    {
      "inputs": [
        {
          "internalType": "uint256",
          "name": "_rewardsDuration",
          "type": "uint256"
        }
      ],
      "name": "setRewardsDuration",
      "outputs": [],
      "stateMutability": "nonpayable",
      "type": "function"
    },
    {
      "inputs": [
        {
          "internalType": "uint256",
          "name": "_vestingCliff",
          "type": "uint256"
        }
      ],
      "name": "setVestingCliff",
      "outputs": [],
      "stateMutability": "nonpayable",
      "type": "function"
    },
    {
      "inputs": [
        {
          "internalType": "uint256",
          "name": "period",
          "type": "uint256"
        }
      ],
      "name": "setVestingPeriod",
      "outputs": [],
      "stateMutability": "nonpayable",
      "type": "function"
    },
    {
      "inputs": [
        {
          "internalType": "uint256",
          "name": "amount",
          "type": "uint256"
        }
      ],
      "name": "stake",
      "outputs": [],
      "stateMutability": "nonpayable",
      "type": "function"
    },
    {
      "inputs": [
        {
          "internalType": "uint256",
          "name": "amount",
          "type": "uint256"
        },
        {
          "internalType": "uint256",
          "name": "deadline",
          "type": "uint256"
        },
        {
          "internalType": "uint8",
          "name": "v",
          "type": "uint8"
        },
        {
          "internalType": "bytes32",
          "name": "r",
          "type": "bytes32"
        },
        {
          "internalType": "bytes32",
          "name": "s",
          "type": "bytes32"
        }
      ],
      "name": "stakeWithPermit",
      "outputs": [],
      "stateMutability": "nonpayable",
      "type": "function"
    },
    {
      "inputs": [
        {
          "internalType": "address",
          "name": "account",
          "type": "address"
        }
      ],
      "name": "stakingMetadata",
      "outputs": [
        {
          "components": [
            {
              "internalType": "address",
              "name": "stakingToken",
              "type": "address"
            },
            {
              "internalType": "address",
              "name": "rewardsToken",
              "type": "address"
            },
            {
              "internalType": "uint256",
              "name": "totalSupply",
              "type": "uint256"
            },
            {
              "internalType": "uint256",
              "name": "tvl",
              "type": "uint256"
            },
            {
              "internalType": "uint256",
              "name": "aprPer10k",
              "type": "uint256"
            },
            {
              "internalType": "uint256",
              "name": "vestingCliff",
              "type": "uint256"
            },
            {
              "internalType": "uint256",
              "name": "periodFinish",
              "type": "uint256"
            },
            {
              "internalType": "uint256",
              "name": "stakedBalance",
              "type": "uint256"
            },
            {
              "internalType": "uint256",
              "name": "vestingStart",
              "type": "uint256"
            },
            {
              "internalType": "uint256",
              "name": "earned",
              "type": "uint256"
            },
            {
              "internalType": "uint256",
              "name": "rewards",
              "type": "uint256"
            },
            {
              "internalType": "uint256",
              "name": "vested",
              "type": "uint256"
            }
          ],
          "internalType": "struct VestingStakingRewards.StakingMetadata",
          "name": "",
          "type": "tuple"
        }
      ],
      "stateMutability": "view",
      "type": "function"
    },
    {
      "inputs": [],
      "name": "stakingToken",
      "outputs": [
        {
          "internalType": "contract IERC20",
          "name": "",
          "type": "address"
        }
      ],
      "stateMutability": "view",
      "type": "function"
    },
    {
      "inputs": [],
      "name": "totalSupply",
      "outputs": [
        {
          "internalType": "uint256",
          "name": "",
          "type": "uint256"
        }
      ],
      "stateMutability": "view",
      "type": "function"
    },
    {
      "inputs": [],
      "name": "totalValueLocked",
      "outputs": [
        {
          "internalType": "uint256",
          "name": "",
          "type": "uint256"
        }
      ],
      "stateMutability": "view",
      "type": "function"
    },
    {
      "inputs": [
        {
          "internalType": "uint256",
          "name": "role",
          "type": "uint256"
        }
      ],
      "name": "updateMainCharacterCache",
      "outputs": [],
      "stateMutability": "nonpayable",
      "type": "function"
    },
    {
      "inputs": [
        {
          "internalType": "uint256",
          "name": "role",
          "type": "uint256"
        },
        {
          "internalType": "address",
          "name": "contr",
          "type": "address"
        }
      ],
      "name": "updateRoleCache",
      "outputs": [],
      "stateMutability": "nonpayable",
      "type": "function"
    },
    {
      "inputs": [
        {
          "internalType": "address",
          "name": "",
          "type": "address"
        }
      ],
      "name": "userRewardPerTokenAccountedFor",
      "outputs": [
        {
          "internalType": "uint256",
          "name": "",
          "type": "uint256"
        }
      ],
      "stateMutability": "view",
      "type": "function"
    },
    {
      "inputs": [
        {
          "internalType": "address",
          "name": "account",
          "type": "address"
        }
      ],
      "name": "vested",
      "outputs": [
        {
          "internalType": "uint256",
          "name": "",
          "type": "uint256"
        }
      ],
      "stateMutability": "view",
      "type": "function"
    },
    {
      "inputs": [],
      "name": "vestingCliff",
      "outputs": [
        {
          "internalType": "uint256",
          "name": "",
          "type": "uint256"
        }
      ],
      "stateMutability": "view",
      "type": "function"
    },
    {
      "inputs": [],
      "name": "vestingPeriod",
      "outputs": [
        {
          "internalType": "uint256",
          "name": "",
          "type": "uint256"
        }
      ],
      "stateMutability": "view",
      "type": "function"
    },
    {
      "inputs": [
        {
          "internalType": "address",
          "name": "",
          "type": "address"
        }
      ],
      "name": "vestingStart",
      "outputs": [
        {
          "internalType": "uint256",
          "name": "",
          "type": "uint256"
        }
      ],
      "stateMutability": "view",
      "type": "function"
    },
    {
      "inputs": [],
      "name": "viewAPRPer10k",
      "outputs": [
        {
          "internalType": "uint256",
          "name": "",
          "type": "uint256"
        }
      ],
      "stateMutability": "view",
      "type": "function"
    },
    {
      "inputs": [
        {
          "internalType": "uint256",
          "name": "amount",
          "type": "uint256"
        }
      ],
      "name": "withdraw",
      "outputs": [],
      "stateMutability": "nonpayable",
      "type": "function"
    },
    {
      "inputs": [],
      "name": "withdrawVestedReward",
      "outputs": [],
      "stateMutability": "nonpayable",
      "type": "function"
    }
  ],
  "bytecode": "0x60e060405260006008556000600955624f1a00600a556103e8600e553480156200002857600080fd5b5060405162003116380380620031168339810160408190526200004b91620002a9565b60405163b4ed0b6d60e01b8152606460048201526001600160a01b0382169063b4ed0b6d9060240160206040518083038186803b1580156200008c57600080fd5b505afa158015620000a1573d6000803e3d6000fd5b505050506040513d601f19601f82011682018060405250810190620000c7919062000285565b60405163b4ed0b6d60e01b8152606d60048201526001600160a01b0383169063b4ed0b6d9060240160206040518083038186803b1580156200010857600080fd5b505afa1580156200011d573d6000803e3d6000fd5b505050506040513d601f19601f8201168201806040525081019062000143919062000285565b60016000558484846001600160a01b038116620001b15760405162461bcd60e51b815260206004820152602260248201527f506c656173652070726f766964652076616c696420726f6c6573206164647265604482015261737360f01b606482015260840160405180910390fd5b6001600160601b0319606091821b81166080526003805460018181018355606a7fc2575a0e9e593c00f959f8c92f12db2869c3395a3b0502d05e2516446f71f85b928301556006805480830190915560047ff652222313e28459528d920b65115c16c04f3efc82aaedc97be59f3f377c0d3f9091015582548082018455600084905260669083015597841b831660a0529590921b1660c052600f92909255600d5580549283019055606d91015550620002e0915050565b80516001600160a01b03811681146200028057600080fd5b919050565b60006020828403121562000297578081fd5b620002a28262000268565b9392505050565b600080600060608486031215620002be578182fd5b8351925060208401519150620002d76040850162000268565b90509250925092565b60805160601c60a05160601c60c05160601c612d2b620003eb6000396000818161041401528181610a2401528181610adc01528181610d220152818161122b0152818161145b015281816115c70152818161187c01528181611910015281816119aa01528181611dde01528181611fbd0152818161209601526120ff01526000818161058c01528181610936015281816109f001528181610c3401528181610cee01528181610dcb0152818161113d015281816111f7015281816115f60152818161178e01528181611848015281816119de01528181611ecf0152611f89015260008181610348015281816106a501528181610f5f015281816122df01526123720152612d2b6000f3fe608060405234801561001057600080fd5b506004361061023a5760003560e01c80628cc2621461023f578063032bbf4f146102655780630700037d14610285578063071060a6146102a557806318160ddd146102ba5780631c1f78eb146102c25780632642b606146102ca57806328f3fc731461030b578063294bb2ef1461031e5780632e1a7d4d14610327578063386a95251461033a578063392f5f64146103435780633c6b16ab1461036a57806340bee0ed1461037d578063447d52ba146103905780634a7a7f41146103a35780636c3f3ab3146103b85780636caa9c11146103c057806370a08231146103d35780637102b728146103fc57806372f702f31461040f5780637313ee5a146104365780637a1a04df1461043f5780637b0a47ee1461047d5780637dad209b1461048657806380faa57d1461048e5780638980f11f146104965780639c287887146104a9578063a694fc3a146104c9578063abcbc4fc146104dc578063aeb38d8b146104ef578063b1a2588f14610502578063bf184ea41461050a578063c2bae8c61461051d578063c3d3df2e14610530578063c4e8031f14610550578063c8f33c9114610563578063cc1a378f1461056c578063cd3daf9d1461057f578063d1af0c7d14610587578063dc94cb7d146105ae578063df136d65146105b6578063e8ea4fae146105bf578063e9c3f77d146105c7578063e9fad8ee146105f0578063ebe2b12b146105f8578063ec18154e14610601578063ecd9ba8214610609578063f3640e741461061c575b600080fd5b61025261024d366004612845565b610625565b6040519081526020015b60405180910390f35b610252610273366004612845565b60116020526000908152604090205481565b610252610293366004612845565b60126020526000908152604090205481565b6102b86102b3366004612900565b61068f565b005b610252610755565b61025261075c565b6102fe6102d836600461287d565b60076020908152600092835260408084209091529082529020546001600160a01b031681565b60405161025c91906129ca565b6102b861031936600461287d565b610773565b610252600e5481565b6102b8610335366004612900565b610866565b610252600a5481565b6102fe7f000000000000000000000000000000000000000000000000000000000000000081565b6102b8610378366004612900565b610b4b565b6102b861038b366004612900565b610efa565b6102b861039e366004612930565b610f48565b6103ab61101e565b60405161025c9190612a34565b6102b8611076565b6102526103ce366004612900565b611263565b6102526103e1366004612845565b6001600160a01b031660009081526014602052604090205490565b61025261040a366004612845565b611284565b6102fe7f000000000000000000000000000000000000000000000000000000000000000081565b610252600d5481565b61046d61044d3660046128b5565b600260209081526000928352604080842090915290825290205460ff1681565b604051901515815260200161025c565b61025260095481565b6103ab611381565b6102526113d7565b6102b86104a43660046128b5565b6113e5565b6104bc6104b7366004612845565b611543565b60405161025c9190612b54565b6102b86104d7366004612900565b6116c7565b6102526104ea366004612900565b611960565b6102526104fd366004612900565b611970565b610252611980565b610252610518366004612900565b611a34565b6102b861052b366004612900565b611a44565b61025261053e366004612845565b60106020526000908152604090205481565b6102b861055e366004612900565b611a92565b610252600b5481565b6102b861057a366004612900565b611b2d565b610252611c99565b6102fe7f000000000000000000000000000000000000000000000000000000000000000081565b6103ab611cfd565b610252600c5481565b6103ab611d53565b6102fe6105d5366004612900565b6001602052600090815260409020546001600160a01b031681565b6102b8611da9565b61025260085481565b610252611dc4565b6102b8610617366004612954565b611e08565b610252600f5481565b6001600160a01b038116600090815260106020526040812054670de0b6b3a764000090610650611c99565b61065a9190612c44565b6001600160a01b03841660009081526014602052604090205461067d9190612c25565b6106879190612c05565b90505b919050565b60405163b4ed0b6d60e01b8152600481018290527f00000000000000000000000000000000000000000000000000000000000000006001600160a01b03169063b4ed0b6d9060240160206040518083038186803b1580156106ef57600080fd5b505afa158015610703573d6000803e3d6000fd5b505050506040513d601f19601f820116820180604052508101906107279190612861565b60009182526001602052604090912080546001600160a01b0319166001600160a01b03909216919091179055565b6013545b90565b6000600a5460095461076e9190612c25565b905090565b6001600160a01b03828116600090815260076020908152604080832085851684529091529020541615610862576107a861215a565b6001600160a01b0316635e73a03483836040518363ffffffff1660e01b81526004016107d59291906129de565b60206040518083038186803b1580156107ed57600080fd5b505afa158015610801573d6000803e3d6000fd5b505050506040513d601f19601f820116820180604052508101906108259190612861565b6001600160a01b0383811660009081526007602090815260408083208685168452909152902080546001600160a01b031916929091169190911790555b5050565b600260005414156108925760405162461bcd60e51b815260040161088990612b1d565b60405180910390fd5b6002600055336108a0611c99565b600c556108ab6113d7565b600b556001600160a01b038116156109df5760006108c882611284565b905060006108d583610625565b6001600160a01b038416600090815260126020526040812080549293508392909190610902908490612bed565b9091555050600c546001600160a01b03841660009081526010602052604090205581156109b75761095d6001600160a01b037f0000000000000000000000000000000000000000000000000000000000000000168484612192565b6001600160a01b03831660009081526012602052604081208054849290610985908490612c44565b90915550506040518281526001600160a01b03841690600080516020612cb68339815191529060200160405180910390a25b6109c3600f54426121ed565b6001600160a01b03841660009081526011602052604090205550505b60006109e9612206565b9050610a1e7f0000000000000000000000000000000000000000000000000000000000000000670de0b6b3a76400008361223e565b50610a527f0000000000000000000000000000000000000000000000000000000000000000670de0b6b3a76400008361223e565b5060008311610a975760405162461bcd60e51b8152602060048201526011602482015270043616e6e6f74207769746864726177203607c1b6044820152606401610889565b82601354610aa59190612c44565b60135533600090815260146020526040902054610ac3908490612c44565b33600081815260146020526040902091909155610b0b907f00000000000000000000000000000000000000000000000000000000000000006001600160a01b03169085612192565b60405183815233907f7084f5476618d8e60b11ef0d7d3f06914655adb8793e28ff7f018d4c76d505d5906020015b60405180910390a25050600160005550565b33610b546122db565b6001600160a01b03161480610b78575033610b6d61236e565b6001600160a01b0316145b610b945760405162461bcd60e51b815260040161088990612aab565b6000610b9e611c99565b600c55610ba96113d7565b600b556001600160a01b03811615610cdd576000610bc682611284565b90506000610bd383610625565b6001600160a01b038416600090815260126020526040812080549293508392909190610c00908490612bed565b9091555050600c546001600160a01b0384166000908152601060205260409020558115610cb557610c5b6001600160a01b037f0000000000000000000000000000000000000000000000000000000000000000168484612192565b6001600160a01b03831660009081526012602052604081208054849290610c83908490612c44565b90915550506040518281526001600160a01b03841690600080516020612cb68339815191529060200160405180910390a25b610cc1600f54426121ed565b6001600160a01b03841660009081526011602052604090205550505b6000610ce7612206565b9050610d1c7f0000000000000000000000000000000000000000000000000000000000000000670de0b6b3a76400008361223e565b50610d507f0000000000000000000000000000000000000000000000000000000000000000670de0b6b3a76400008361223e565b506008544210610d6f57600a54610d679084612c05565b600955610db1565b600042600854610d7f9190612c44565b9050600060095482610d919190612c25565b600a54909150610da18287612bed565b610dab9190612c05565b60095550505b6040516370a0823160e01b81526000906001600160a01b037f000000000000000000000000000000000000000000000000000000000000000016906370a0823190610e009030906004016129ca565b60206040518083038186803b158015610e1857600080fd5b505afa158015610e2c573d6000803e3d6000fd5b505050506040513d601f19601f82011682018060405250810190610e509190612918565b9050600a5481610e609190612c05565b6009541115610eac5760405162461bcd60e51b81526020600482015260186024820152770a0e4deecd2c8cac840e4caeec2e4c840e8dede40d0d2ced60431b6044820152606401610889565b42600b819055600a54610ebe91612bed565b6008556040518481527fde88a922e0d3b88b24e9623efeb464919c6bf9f66857a65e2bfcf2ce87a9433d9060200160405180910390a150505050565b33610f036122db565b6001600160a01b03161480610f27575033610f1c61236e565b6001600160a01b0316145b610f435760405162461bcd60e51b815260040161088990612aab565b600d55565b60405163f0723d9760e01b81526001600160a01b037f0000000000000000000000000000000000000000000000000000000000000000169063f0723d9790610f9690849086906004016129f8565b60206040518083038186803b158015610fae57600080fd5b505afa158015610fc2573d6000803e3d6000fd5b505050506040513d601f19601f82011682018060405250810190610fe691906128e0565b6001600160a01b0391909116600090815260026020908152604080832094835293905291909120805460ff1916911515919091179055565b6060600480548060200260200160405190810160405280929190818152602001828054801561106c57602002820191906000526020600020905b815481526020019060010190808311611058575b5050505050905090565b600260005414156110995760405162461bcd60e51b815260040161088990612b1d565b6002600055336110a7611c99565b600c556110b26113d7565b600b556001600160a01b038116156111e65760006110cf82611284565b905060006110dc83610625565b6001600160a01b038416600090815260126020526040812080549293508392909190611109908490612bed565b9091555050600c546001600160a01b03841660009081526010602052604090205581156111be576111646001600160a01b037f0000000000000000000000000000000000000000000000000000000000000000168484612192565b6001600160a01b0383166000908152601260205260408120805484929061118c908490612c44565b90915550506040518281526001600160a01b03841690600080516020612cb68339815191529060200160405180910390a25b6111ca600f54426121ed565b6001600160a01b03841660009081526011602052604090205550505b60006111f0612206565b90506112257f0000000000000000000000000000000000000000000000000000000000000000670de0b6b3a76400008361223e565b506112597f0000000000000000000000000000000000000000000000000000000000000000670de0b6b3a76400008361223e565b5050600160005550565b6006818154811061127357600080fd5b600091825260209091200154905081565b6001600160a01b0381166000908152601160205260408120548015806112a957504281115b806112b5575042600f54115b156112c457600091505061068a565b60006112d08242612c44565b6001600160a01b038516600090815260126020526040902054600d54919250906112fe57925061068a915050565b600061130986610625565b9050600061271082600e5461131e9190612c25565b6113289190612c05565b90506000808611801561133b5750600085115b611346576000611368565b61136884600d5487876113599190612c25565b6113639190612c05565b6123df565b90506113748282612bed565b965050505050505061068a565b6060600580548060200260200160405190810160405280929190818152602001828054801561106c5760200282019190600052602060002090815481526020019060010190808311611058575050505050905090565b600061076e426008546123df565b336113ee6122db565b6001600160a01b0316148061141257503361140761236e565b6001600160a01b0316145b61142e5760405162461bcd60e51b815260040161088990612aab565b600260005414156114515760405162461bcd60e51b815260040161088990612b1d565b60026000819055507f00000000000000000000000000000000000000000000000000000000000000006001600160a01b0316826001600160a01b031614156114e55760405162461bcd60e51b815260206004820152602160248201527f43616e6e6f7420776974686472617720746865207374616b696e6720746f6b656044820152603760f91b6064820152608401610889565b6115016114f06122db565b6001600160a01b0384169083612192565b7f8c1256b8896378cd5044f80c202f9772b9d77dc85c8a6eb51967210b09bfaa2882826040516115329291906129f8565b60405180910390a150506001600055565b6115b960405180610180016040528060006001600160a01b0316815260200160006001600160a01b03168152602001600081526020016000815260200160008152602001600081526020016000815260200160008152602001600081526020016000815260200160008152602001600081525090565b6040518061018001604052807f00000000000000000000000000000000000000000000000000000000000000006001600160a01b031681526020017f00000000000000000000000000000000000000000000000000000000000000006001600160a01b031681526020016013548152602001611633611dc4565b8152602001611640611980565b8152600f546020808301919091526008546040808401919091526001600160a01b0386166000818152601484528281205460608601529081526011909252902054608082015260a00161169284610625565b81526001600160a01b0384166000908152601260209081526040918290205490830152016116bf84611284565b905292915050565b600260005414156116ea5760405162461bcd60e51b815260040161088990612b1d565b6002600055336116f8611c99565b600c556117036113d7565b600b556001600160a01b0381161561183757600061172082611284565b9050600061172d83610625565b6001600160a01b03841660009081526012602052604081208054929350839290919061175a908490612bed565b9091555050600c546001600160a01b038416600090815260106020526040902055811561180f576117b56001600160a01b037f0000000000000000000000000000000000000000000000000000000000000000168484612192565b6001600160a01b038316600090815260126020526040812080548492906117dd908490612c44565b90915550506040518281526001600160a01b03841690600080516020612cb68339815191529060200160405180910390a25b61181b600f54426121ed565b6001600160a01b03841660009081526011602052604090205550505b6000611841612206565b90506118767f0000000000000000000000000000000000000000000000000000000000000000670de0b6b3a76400008361223e565b506118aa7f0000000000000000000000000000000000000000000000000000000000000000670de0b6b3a76400008361223e565b50600083116118cb5760405162461bcd60e51b815260040161088990612af5565b826013546118d99190612bed565b601355336000908152601460205260409020546118f7908490612bed565b33600081815260146020526040902091909155611940907f00000000000000000000000000000000000000000000000000000000000000006001600160a01b03169030866123f6565b6040518381523390600080516020612cd683398151915290602001610b39565b6003818154811061127357600080fd5b6005818154811061127357600080fd5b60006009546000141561199557506000610759565b6013546119a55750610bb8610759565b6119d97f00000000000000000000000000000000000000000000000000000000000000006013546119d4612206565b612434565b611a237f0000000000000000000000000000000000000000000000000000000000000000600954612710611a0d9190612c25565b611a1b906301e13380612c25565b6119d4612206565b611a2d9190612c05565b9050610759565b6004818154811061127357600080fd5b33611a4d6122db565b6001600160a01b03161480611a71575033611a6661236e565b6001600160a01b0316145b611a8d5760405162461bcd60e51b815260040161088990612aab565b600f55565b33611a9b6122db565b6001600160a01b03161480611abf575033611ab461236e565b6001600160a01b0316145b611adb5760405162461bcd60e51b815260040161088990612aab565b806127101015611b285760405162461bcd60e51b81526020600482015260186024820152774d75737420626520736d616c6c6572207468616e2031306b60401b6044820152606401610889565b600e55565b33611b366122db565b6001600160a01b03161480611b5a575033611b4f61236e565b6001600160a01b0316145b611b765760405162461bcd60e51b815260040161088990612aab565b6008544211611c0e5760405162461bcd60e51b815260206004820152605860248201527f50726576696f7573207265776172647320706572696f64206d7573742062652060448201527f636f6d706c657465206265666f7265206368616e67696e672074686520647572606482015277185d1a5bdb88199bdc881d1a19481b995dc81c195c9a5bd960421b608482015260a401610889565b60008111611c5e5760405162461bcd60e51b815260206004820152601d60248201527f526577617264206475726174696f6e2063616e2774206265207a65726f0000006044820152606401610889565b600a8190556040518181527ffb46ca5a5e06d4540d6387b930a7c978bce0db5f449ec6b3f5d07c6e1d44f2d39060200160405180910390a150565b600060135460001415611caf5750600c54610759565b601354600954600b54611cc06113d7565b611cca9190612c44565b611cd49190612c25565b611ce690670de0b6b3a7640000612c25565b611cf09190612c05565b600c5461076e9190612bed565b6060600380548060200260200160405190810160405280929190818152602001828054801561106c5760200282019190600052602060002090815481526020019060010190808311611058575050505050905090565b6060600680548060200260200160405190810160405280929190818152602001828054801561106c5760200282019190600052602060002090815481526020019060010190808311611058575050505050905090565b33600090815260146020526040902054611dc290610866565b565b600060135460001415611dd957506000610759565b611a2d7f00000000000000000000000000000000000000000000000000000000000000006013546119d4612206565b60026000541415611e2b5760405162461bcd60e51b815260040161088990612b1d565b600260005533611e39611c99565b600c55611e446113d7565b600b556001600160a01b03811615611f78576000611e6182611284565b90506000611e6e83610625565b6001600160a01b038416600090815260126020526040812080549293508392909190611e9b908490612bed565b9091555050600c546001600160a01b0384166000908152601060205260409020558115611f5057611ef66001600160a01b037f0000000000000000000000000000000000000000000000000000000000000000168484612192565b6001600160a01b03831660009081526012602052604081208054849290611f1e908490612c44565b90915550506040518281526001600160a01b03841690600080516020612cb68339815191529060200160405180910390a25b611f5c600f54426121ed565b6001600160a01b03841660009081526011602052604090205550505b6000611f82612206565b9050611fb77f0000000000000000000000000000000000000000000000000000000000000000670de0b6b3a76400008361223e565b50611feb7f0000000000000000000000000000000000000000000000000000000000000000670de0b6b3a76400008361223e565b506000871161200c5760405162461bcd60e51b815260040161088990612af5565b8660135461201a9190612bed565b60135533600090815260146020526040902054612038908890612bed565b336000818152601460205260409081902092909255905163d505accf60e01b81526004810191909152306024820152604481018890526064810187905260ff8616608482015260a4810185905260c481018490526001600160a01b037f0000000000000000000000000000000000000000000000000000000000000000169063d505accf9060e401600060405180830381600087803b1580156120da57600080fd5b505af11580156120ee573d6000803e3d6000fd5b506121299250506001600160a01b037f000000000000000000000000000000000000000000000000000000000000000016905033308a6123f6565b6040518781523390600080516020612cd68339815191529060200160405180910390a2505060016000555050505050565b606a60005260016020527fdd2cb9885bc4a6b7d63bce617b9a4981fb4dfc6d1957489e794070560e4e930d546001600160a01b031690565b6121e88363a9059cbb60e01b84846040516024016121b19291906129f8565b60408051601f198184030181529190526020810180516001600160e01b03166001600160e01b031990931692909217909152612547565b505050565b60008183106121fd575081612200565b50805b92915050565b606660005260016020527f8a7727369fa1a496cab5c3debb1ff9323f499df74f8bfc03a975054ef960ee6d546001600160a01b031690565b60008061224b8584612619565b604051630576cbc360e41b81529091506001600160a01b0382169063576cbc309061227e90889088908890600401612a11565b602060405180830381600087803b15801561229857600080fd5b505af11580156122ac573d6000803e3d6000fd5b505050506040513d601f19601f820116820180604052508101906122d09190612918565b9150505b9392505050565b60007f00000000000000000000000000000000000000000000000000000000000000006001600160a01b0316638da5cb5b6040518163ffffffff1660e01b815260040160206040518083038186803b15801561233657600080fd5b505afa15801561234a573d6000803e3d6000fd5b505050506040513d601f19601f8201168201806040525081019061076e9190612861565b60007f00000000000000000000000000000000000000000000000000000000000000006001600160a01b031663c34c08e56040518163ffffffff1660e01b8152600401602060405180830381600087803b1580156123cb57600080fd5b505af115801561234a573d6000803e3d6000fd5b60008183106123ef575080612200565b5081612200565b6040516001600160a01b038085166024830152831660448201526064810182905261242e9085906323b872dd60e01b906084016121b1565b50505050565b6001600160a01b0380841660009081526007602090815260408083208585168452909152812054909116806124eb5761246b61215a565b6001600160a01b0316635e73a03486856040518363ffffffff1660e01b81526004016124989291906129de565b60206040518083038186803b1580156124b057600080fd5b505afa1580156124c4573d6000803e3d6000fd5b505050506040513d601f19601f820116820180604052508101906124e89190612861565b90505b6040516323aaad6360e21b81526001600160a01b03821690638eaab58c9061251b90889088908890600401612a11565b60206040518083038186803b15801561253357600080fd5b505afa1580156122ac573d6000803e3d6000fd5b600061259c826040518060400160405280602081526020017f5361666545524332303a206c6f772d6c6576656c2063616c6c206661696c6564815250856001600160a01b03166126cd9092919063ffffffff16565b8051909150156121e857808060200190518101906125ba91906128e0565b6121e85760405162461bcd60e51b815260206004820152602a60248201527f5361666545524332303a204552433230206f7065726174696f6e20646964206e6044820152691bdd081cdd58d8d9595960b21b6064820152608401610889565b6001600160a01b038083166000908152600760209081526040808320858516845290915290205416806122005761264e61215a565b6001600160a01b0316631757616884846040518363ffffffff1660e01b815260040161267b9291906129de565b602060405180830381600087803b15801561269557600080fd5b505af11580156126a9573d6000803e3d6000fd5b505050506040513d601f19601f820116820180604052508101906122d49190612861565b60606126dc84846000856126e4565b949350505050565b6060824710156127455760405162461bcd60e51b815260206004820152602660248201527f416464726573733a20696e73756666696369656e742062616c616e636520666f6044820152651c8818d85b1b60d21b6064820152608401610889565b843b6127935760405162461bcd60e51b815260206004820152601d60248201527f416464726573733a2063616c6c20746f206e6f6e2d636f6e74726163740000006044820152606401610889565b600080866001600160a01b031685876040516127af91906129ae565b60006040518083038185875af1925050503d80600081146127ec576040519150601f19603f3d011682016040523d82523d6000602084013e6127f1565b606091505b509150915061280182828661280c565b979650505050505050565b6060831561281b5750816122d4565b82511561282b5782518084602001fd5b8160405162461bcd60e51b81526004016108899190612a78565b600060208284031215612856578081fd5b81356122d481612c9d565b600060208284031215612872578081fd5b81516122d481612c9d565b6000806040838503121561288f578081fd5b823561289a81612c9d565b915060208301356128aa81612c9d565b809150509250929050565b600080604083850312156128c7578182fd5b82356128d281612c9d565b946020939093013593505050565b6000602082840312156128f1578081fd5b815180151581146122d4578182fd5b600060208284031215612911578081fd5b5035919050565b600060208284031215612929578081fd5b5051919050565b60008060408385031215612942578182fd5b8235915060208301356128aa81612c9d565b600080600080600060a0868803121561296b578081fd5b8535945060208601359350604086013560ff81168114612989578182fd5b94979396509394606081013594506080013592915050565b6001600160a01b03169052565b600082516129c0818460208701612c5b565b9190910192915050565b6001600160a01b0391909116815260200190565b6001600160a01b0392831681529116602082015260400190565b6001600160a01b03929092168252602082015260400190565b6001600160a01b0393841681526020810192909252909116604082015260600190565b6020808252825182820181905260009190848201906040850190845b81811015612a6c57835183529284019291840191600101612a50565b50909695505050505050565b6000602082528251806020840152612a97816040850160208701612c5b565b601f01601f19169190910160400192915050565b6020808252602a908201527f526f6c65733a2063616c6c6572206973206e6f7420746865206f776e6572206f604082015269391032bc32b1baba37b960b11b606082015260800190565b6020808252600e908201526d043616e6e6f74207374616b6520360941b604082015260600190565b6020808252601f908201527f5265656e7472616e637947756172643a207265656e7472616e742063616c6c00604082015260600190565b600061018082019050612b688284516129a1565b6020830151612b7a60208401826129a1565b5060408301516040830152606083015160608301526080830151608083015260a083015160a083015260c083015160c083015260e083015160e083015261010080840151818401525061012080840151818401525061014080840151818401525061016080840151818401525092915050565b60008219821115612c0057612c00612c87565b500190565b600082612c2057634e487b7160e01b81526012600452602481fd5b500490565b6000816000190483118215151615612c3f57612c3f612c87565b500290565b600082821015612c5657612c56612c87565b500390565b60005b83811015612c76578181015183820152602001612c5e565b8381111561242e5750506000910152565b634e487b7160e01b600052601160045260246000fd5b6001600160a01b0381168114612cb257600080fd5b5056fee2403640ba68fed3a2f88b7557551d1993f84b99bb10ff833f0cf8db0c5e04869e71bc8eea02a63969f509818f2dafb9254532904319f9dbda79b67bd34a5f3da264697066735822122033094f22b648e267a01bb3321920e8a2ad445436e80f23cab75dda7ed46af7f264736f6c63430008030033",
  "linkReferences": {},
  "deployedLinkReferences": {}
}