{
  "_format": "hh-sol-artifact-1",
  "contractName": "StableLending",
  "sourceName": "contracts/StableLending.sol",
  "abi": [
    {
      "inputs": [
        {
          "internalType": "address",
          "name": "_roles",
          "type": "address"
        }
      ],
      "stateMutability": "nonpayable",
      "type": "constructor"
    },
    {
      "anonymous": false,
      "inputs": [
        {
          "indexed": true,
          "internalType": "address",
          "name": "owner",
          "type": "address"
        },
        {
          "indexed": true,
          "internalType": "address",
          "name": "approved",
          "type": "address"
        },
        {
          "indexed": true,
          "internalType": "uint256",
          "name": "tokenId",
          "type": "uint256"
        }
      ],
      "name": "Approval",
      "type": "event"
    },
    {
      "anonymous": false,
      "inputs": [
        {
          "indexed": true,
          "internalType": "address",
          "name": "owner",
          "type": "address"
        },
        {
          "indexed": true,
          "internalType": "address",
          "name": "operator",
          "type": "address"
        },
        {
          "indexed": false,
          "internalType": "bool",
          "name": "approved",
          "type": "bool"
        }
      ],
      "name": "ApprovalForAll",
      "type": "event"
    },
    {
      "anonymous": false,
      "inputs": [
        {
          "indexed": false,
          "internalType": "string",
          "name": "param",
          "type": "string"
        },
        {
          "indexed": false,
          "internalType": "uint256",
          "name": "value",
          "type": "uint256"
        }
      ],
      "name": "ParameterUpdated",
      "type": "event"
    },
    {
      "anonymous": false,
      "inputs": [
        {
          "indexed": false,
          "internalType": "string",
          "name": "param",
          "type": "string"
        },
        {
          "indexed": false,
          "internalType": "address",
          "name": "subject",
          "type": "address"
        },
        {
          "indexed": false,
          "internalType": "uint256",
          "name": "value",
          "type": "uint256"
        }
      ],
      "name": "SubjectParameterUpdated",
      "type": "event"
    },
    {
      "anonymous": false,
      "inputs": [
        {
          "indexed": false,
          "internalType": "string",
          "name": "param",
          "type": "string"
        },
        {
          "indexed": false,
          "internalType": "address",
          "name": "subject",
          "type": "address"
        }
      ],
      "name": "SubjectUpdated",
      "type": "event"
    },
    {
      "anonymous": false,
      "inputs": [
        {
          "indexed": true,
          "internalType": "uint256",
          "name": "trancheId",
          "type": "uint256"
        }
      ],
      "name": "TrancheUpdated",
      "type": "event"
    },
    {
      "anonymous": false,
      "inputs": [
        {
          "indexed": true,
          "internalType": "address",
          "name": "from",
          "type": "address"
        },
        {
          "indexed": true,
          "internalType": "address",
          "name": "to",
          "type": "address"
        },
        {
          "indexed": true,
          "internalType": "uint256",
          "name": "tokenId",
          "type": "uint256"
        }
      ],
      "name": "Transfer",
      "type": "event"
    },
    {
      "inputs": [
        {
          "internalType": "uint256",
          "name": "",
          "type": "uint256"
        }
      ],
      "name": "_charactersPlayed",
      "outputs": [
        {
          "internalType": "uint256",
          "name": "",
          "type": "uint256"
        }
      ],
      "stateMutability": "view",
      "type": "function"
    },
    {
      "inputs": [
        {
          "internalType": "uint256",
          "name": "",
          "type": "uint256"
        }
      ],
      "name": "_containedIn",
      "outputs": [
        {
          "internalType": "uint256",
          "name": "",
          "type": "uint256"
        }
      ],
      "stateMutability": "view",
      "type": "function"
    },
    {
      "inputs": [
        {
          "internalType": "uint256",
          "name": "",
          "type": "uint256"
        }
      ],
      "name": "_dependsOnCharacters",
      "outputs": [
        {
          "internalType": "uint256",
          "name": "",
          "type": "uint256"
        }
      ],
      "stateMutability": "view",
      "type": "function"
    },
    {
      "inputs": [
        {
          "internalType": "uint256",
          "name": "",
          "type": "uint256"
        }
      ],
      "name": "_dependsOnRoles",
      "outputs": [
        {
          "internalType": "uint256",
          "name": "",
          "type": "uint256"
        }
      ],
      "stateMutability": "view",
      "type": "function"
    },
    {
      "inputs": [
        {
          "internalType": "uint256",
          "name": "",
          "type": "uint256"
        }
      ],
      "name": "_holdingStrategies",
      "outputs": [
        {
          "internalType": "address",
          "name": "",
          "type": "address"
        }
      ],
      "stateMutability": "view",
      "type": "function"
    },
    {
      "inputs": [
        {
          "internalType": "address",
          "name": "",
          "type": "address"
        },
        {
          "internalType": "address",
          "name": "",
          "type": "address"
        }
      ],
      "name": "_oracleCache",
      "outputs": [
        {
          "internalType": "address",
          "name": "",
          "type": "address"
        }
      ],
      "stateMutability": "view",
      "type": "function"
    },
    {
      "inputs": [
        {
          "internalType": "uint256",
          "name": "",
          "type": "uint256"
        }
      ],
      "name": "_rolesPlayed",
      "outputs": [
        {
          "internalType": "uint256",
          "name": "",
          "type": "uint256"
        }
      ],
      "stateMutability": "view",
      "type": "function"
    },
    {
      "inputs": [
        {
          "internalType": "address",
          "name": "to",
          "type": "address"
        },
        {
          "internalType": "uint256",
          "name": "tokenId",
          "type": "uint256"
        }
      ],
      "name": "approve",
      "outputs": [],
      "stateMutability": "nonpayable",
      "type": "function"
    },
    {
      "inputs": [
        {
          "internalType": "address",
          "name": "",
          "type": "address"
        }
      ],
      "name": "assetConfigs",
      "outputs": [
        {
          "internalType": "uint256",
          "name": "debtCeiling",
          "type": "uint256"
        },
        {
          "internalType": "uint256",
          "name": "feePer10k",
          "type": "uint256"
        },
        {
          "internalType": "uint256",
          "name": "totalDebt",
          "type": "uint256"
        }
      ],
      "stateMutability": "view",
      "type": "function"
    },
    {
      "inputs": [
        {
          "components": [
            {
              "internalType": "address",
              "name": "strategy",
              "type": "address"
            },
            {
              "internalType": "address",
              "name": "token",
              "type": "address"
            },
            {
              "internalType": "uint256",
              "name": "APF",
              "type": "uint256"
            },
            {
              "internalType": "uint256",
              "name": "totalCollateral",
              "type": "uint256"
            },
            {
              "internalType": "uint256",
              "name": "borrowablePer10k",
              "type": "uint256"
            },
            {
              "internalType": "uint256",
              "name": "valuePer1e18",
              "type": "uint256"
            },
            {
              "internalType": "bytes32",
              "name": "strategyName",
              "type": "bytes32"
            },
            {
              "internalType": "uint256",
              "name": "tvl",
              "type": "uint256"
            },
            {
              "internalType": "uint256",
              "name": "harvestBalance2Tally",
              "type": "uint256"
            },
            {
              "internalType": "enum IStrategy.YieldType",
              "name": "yieldType",
              "type": "uint8"
            },
            {
              "internalType": "uint256",
              "name": "stabilityFee",
              "type": "uint256"
            },
            {
              "internalType": "address",
              "name": "underlyingStrategy",
              "type": "address"
            }
          ],
          "internalType": "struct IStrategy.StrategyMetadata[]",
          "name": "stratMeta",
          "type": "tuple[]"
        }
      ],
      "name": "augmentStratMetadata",
      "outputs": [
        {
          "components": [
            {
              "internalType": "uint256",
              "name": "debtCeiling",
              "type": "uint256"
            },
            {
              "internalType": "uint256",
              "name": "totalDebt",
              "type": "uint256"
            },
            {
              "internalType": "uint256",
              "name": "stabilityFee",
              "type": "uint256"
            },
            {
              "internalType": "uint256",
              "name": "mintingFee",
              "type": "uint256"
            },
            {
              "internalType": "address",
              "name": "strategy",
              "type": "address"
            },
            {
              "internalType": "address",
              "name": "token",
              "type": "address"
            },
            {
              "internalType": "uint256",
              "name": "APF",
              "type": "uint256"
            },
            {
              "internalType": "uint256",
              "name": "totalCollateral",
              "type": "uint256"
            },
            {
              "internalType": "uint256",
              "name": "borrowablePer10k",
              "type": "uint256"
            },
            {
              "internalType": "uint256",
              "name": "valuePer1e18",
              "type": "uint256"
            },
            {
              "internalType": "bytes32",
              "name": "strategyName",
              "type": "bytes32"
            },
            {
              "internalType": "uint256",
              "name": "tvl",
              "type": "uint256"
            },
            {
              "internalType": "uint256",
              "name": "harvestBalance2Tally",
              "type": "uint256"
            },
            {
              "internalType": "enum IStrategy.YieldType",
              "name": "yieldType",
              "type": "uint8"
            },
            {
              "internalType": "address",
              "name": "underlyingStrategy",
              "type": "address"
            }
          ],
          "internalType": "struct StableLending.ILStrategyMetadata[]",
          "name": "",
          "type": "tuple[]"
        }
      ],
      "stateMutability": "view",
      "type": "function"
    },
    {
      "inputs": [
        {
          "internalType": "address",
          "name": "owner",
          "type": "address"
        }
      ],
      "name": "balanceOf",
      "outputs": [
        {
          "internalType": "uint256",
          "name": "",
          "type": "uint256"
        }
      ],
      "stateMutability": "view",
      "type": "function"
    },
    {
      "inputs": [
        {
          "internalType": "uint256[]",
          "name": "trancheIds",
          "type": "uint256[]"
        },
        {
          "internalType": "address",
          "name": "currency",
          "type": "address"
        },
        {
          "internalType": "address",
          "name": "recipient",
          "type": "address"
        }
      ],
      "name": "batchCollectYield",
      "outputs": [
        {
          "internalType": "uint256",
          "name": "",
          "type": "uint256"
        }
      ],
      "stateMutability": "nonpayable",
      "type": "function"
    },
    {
      "inputs": [
        {
          "internalType": "uint256[]",
          "name": "trancheIds",
          "type": "uint256[]"
        },
        {
          "internalType": "address",
          "name": "yieldCurrency",
          "type": "address"
        },
        {
          "internalType": "address",
          "name": "valueCurrency",
          "type": "address"
        },
        {
          "internalType": "address",
          "name": "recipient",
          "type": "address"
        }
      ],
      "name": "batchCollectYieldValueBorrowable",
      "outputs": [
        {
          "internalType": "uint256",
          "name": "yield",
          "type": "uint256"
        },
        {
          "internalType": "uint256",
          "name": "value",
          "type": "uint256"
        },
        {
          "internalType": "uint256",
          "name": "borrowablePer10k",
          "type": "uint256"
        }
      ],
      "stateMutability": "nonpayable",
      "type": "function"
    },
    {
      "inputs": [
        {
          "internalType": "uint256[]",
          "name": "trancheIds",
          "type": "uint256[]"
        },
        {
          "internalType": "address",
          "name": "currency",
          "type": "address"
        }
      ],
      "name": "batchViewValueBorrowable",
      "outputs": [
        {
          "internalType": "uint256",
          "name": "",
          "type": "uint256"
        },
        {
          "internalType": "uint256",
          "name": "",
          "type": "uint256"
        }
      ],
      "stateMutability": "view",
      "type": "function"
    },
    {
      "inputs": [
        {
          "internalType": "uint256[]",
          "name": "trancheIds",
          "type": "uint256[]"
        },
        {
          "internalType": "address",
          "name": "currency",
          "type": "address"
        }
      ],
      "name": "batchViewYield",
      "outputs": [
        {
          "internalType": "uint256",
          "name": "",
          "type": "uint256"
        }
      ],
      "stateMutability": "view",
      "type": "function"
    },
    {
      "inputs": [],
      "name": "charactersPlayed",
      "outputs": [
        {
          "internalType": "uint256[]",
          "name": "",
          "type": "uint256[]"
        }
      ],
      "stateMutability": "view",
      "type": "function"
    },
    {
      "inputs": [
        {
          "internalType": "uint256",
          "name": "trancheId",
          "type": "uint256"
        },
        {
          "internalType": "address",
          "name": "currency",
          "type": "address"
        },
        {
          "internalType": "address",
          "name": "recipient",
          "type": "address"
        }
      ],
      "name": "collectYield",
      "outputs": [
        {
          "internalType": "uint256",
          "name": "",
          "type": "uint256"
        }
      ],
      "stateMutability": "nonpayable",
      "type": "function"
    },
    {
      "inputs": [
        {
          "internalType": "uint256",
          "name": "trancheId",
          "type": "uint256"
        },
        {
          "internalType": "address",
          "name": "yieldCurrency",
          "type": "address"
        },
        {
          "internalType": "address",
          "name": "valueCurrency",
          "type": "address"
        },
        {
          "internalType": "address",
          "name": "recipient",
          "type": "address"
        }
      ],
      "name": "collectYieldValueBorrowable",
      "outputs": [
        {
          "internalType": "uint256",
          "name": "",
          "type": "uint256"
        },
        {
          "internalType": "uint256",
          "name": "",
          "type": "uint256"
        },
        {
          "internalType": "uint256",
          "name": "",
          "type": "uint256"
        }
      ],
      "stateMutability": "nonpayable",
      "type": "function"
    },
    {
      "inputs": [
        {
          "internalType": "uint256",
          "name": "tokenId",
          "type": "uint256"
        }
      ],
      "name": "containedIn",
      "outputs": [
        {
          "internalType": "address",
          "name": "owner",
          "type": "address"
        },
        {
          "internalType": "uint256",
          "name": "containerId",
          "type": "uint256"
        }
      ],
      "stateMutability": "view",
      "type": "function"
    },
    {
      "inputs": [],
      "name": "dependsOnCharacters",
      "outputs": [
        {
          "internalType": "uint256[]",
          "name": "",
          "type": "uint256[]"
        }
      ],
      "stateMutability": "view",
      "type": "function"
    },
    {
      "inputs": [],
      "name": "dependsOnRoles",
      "outputs": [
        {
          "internalType": "uint256[]",
          "name": "",
          "type": "uint256[]"
        }
      ],
      "stateMutability": "view",
      "type": "function"
    },
    {
      "inputs": [
        {
          "internalType": "uint256",
          "name": "trancheId",
          "type": "uint256"
        },
        {
          "internalType": "uint256",
          "name": "tokenAmount",
          "type": "uint256"
        }
      ],
      "name": "deposit",
      "outputs": [],
      "stateMutability": "nonpayable",
      "type": "function"
    },
    {
      "inputs": [
        {
          "internalType": "uint256",
          "name": "trancheId",
          "type": "uint256"
        },
        {
          "internalType": "uint256",
          "name": "collateralAmount",
          "type": "uint256"
        },
        {
          "internalType": "uint256",
          "name": "borrowAmount",
          "type": "uint256"
        },
        {
          "internalType": "address",
          "name": "recipient",
          "type": "address"
        }
      ],
      "name": "depositAndBorrow",
      "outputs": [],
      "stateMutability": "nonpayable",
      "type": "function"
    },
    {
      "inputs": [
        {
          "internalType": "uint256",
          "name": "tokenId",
          "type": "uint256"
        }
      ],
      "name": "getApproved",
      "outputs": [
        {
          "internalType": "address",
          "name": "",
          "type": "address"
        }
      ],
      "stateMutability": "view",
      "type": "function"
    },
    {
      "inputs": [
        {
          "internalType": "uint256",
          "name": "trancheId",
          "type": "uint256"
        }
      ],
      "name": "getCurrentHoldingStrategy",
      "outputs": [
        {
          "internalType": "address",
          "name": "",
          "type": "address"
        }
      ],
      "stateMutability": "nonpayable",
      "type": "function"
    },
    {
      "inputs": [
        {
          "internalType": "address",
          "name": "owner",
          "type": "address"
        },
        {
          "internalType": "address",
          "name": "operator",
          "type": "address"
        }
      ],
      "name": "isApprovedForAll",
      "outputs": [
        {
          "internalType": "bool",
          "name": "",
          "type": "bool"
        }
      ],
      "stateMutability": "view",
      "type": "function"
    },
    {
      "inputs": [
        {
          "internalType": "address",
          "name": "spender",
          "type": "address"
        },
        {
          "internalType": "uint256",
          "name": "tokenId",
          "type": "uint256"
        }
      ],
      "name": "isAuthorized",
      "outputs": [
        {
          "internalType": "bool",
          "name": "",
          "type": "bool"
        }
      ],
      "stateMutability": "view",
      "type": "function"
    },
    {
      "inputs": [
        {
          "internalType": "uint256",
          "name": "trancheId",
          "type": "uint256"
        }
      ],
      "name": "isViable",
      "outputs": [
        {
          "internalType": "bool",
          "name": "",
          "type": "bool"
        }
      ],
      "stateMutability": "view",
      "type": "function"
    },
    {
      "inputs": [
        {
          "internalType": "uint256",
          "name": "",
          "type": "uint256"
        }
      ],
      "name": "mainCharacterCache",
      "outputs": [
        {
          "internalType": "address",
          "name": "",
          "type": "address"
        }
      ],
      "stateMutability": "view",
      "type": "function"
    },
    {
      "inputs": [
        {
          "internalType": "uint256",
          "name": "trancheId",
          "type": "uint256"
        },
        {
          "internalType": "address",
          "name": "destination",
          "type": "address"
        },
        {
          "internalType": "address",
          "name": "yieldToken",
          "type": "address"
        },
        {
          "internalType": "address",
          "name": "yieldRecipient",
          "type": "address"
        }
      ],
      "name": "migrateStrategy",
      "outputs": [
        {
          "internalType": "address",
          "name": "token",
          "type": "address"
        },
        {
          "internalType": "uint256",
          "name": "tokenId",
          "type": "uint256"
        },
        {
          "internalType": "uint256",
          "name": "targetAmount",
          "type": "uint256"
        }
      ],
      "stateMutability": "nonpayable",
      "type": "function"
    },
    {
      "inputs": [
        {
          "internalType": "address",
          "name": "collateralToken",
          "type": "address"
        },
        {
          "internalType": "address",
          "name": "strategy",
          "type": "address"
        },
        {
          "internalType": "uint256",
          "name": "collateralAmount",
          "type": "uint256"
        },
        {
          "internalType": "uint256",
          "name": "borrowAmount",
          "type": "uint256"
        },
        {
          "internalType": "address",
          "name": "stableRecipient",
          "type": "address"
        }
      ],
      "name": "mintDepositAndBorrow",
      "outputs": [
        {
          "internalType": "uint256",
          "name": "",
          "type": "uint256"
        }
      ],
      "stateMutability": "nonpayable",
      "type": "function"
    },
    {
      "inputs": [
        {
          "internalType": "uint256",
          "name": "vaultId",
          "type": "uint256"
        },
        {
          "internalType": "address",
          "name": "strategy",
          "type": "address"
        },
        {
          "internalType": "address",
          "name": "assetToken",
          "type": "address"
        },
        {
          "internalType": "uint256",
          "name": "assetTokenId",
          "type": "uint256"
        },
        {
          "internalType": "uint256",
          "name": "assetAmount",
          "type": "uint256"
        }
      ],
      "name": "mintTranche",
      "outputs": [
        {
          "internalType": "uint256",
          "name": "trancheId",
          "type": "uint256"
        }
      ],
      "stateMutability": "nonpayable",
      "type": "function"
    },
    {
      "inputs": [],
      "name": "name",
      "outputs": [
        {
          "internalType": "string",
          "name": "",
          "type": "string"
        }
      ],
      "stateMutability": "view",
      "type": "function"
    },
    {
      "inputs": [
        {
          "internalType": "address",
          "name": "token",
          "type": "address"
        },
        {
          "internalType": "address",
          "name": "pegCurrency",
          "type": "address"
        }
      ],
      "name": "newCurrentOracle",
      "outputs": [],
      "stateMutability": "nonpayable",
      "type": "function"
    },
    {
      "inputs": [
        {
          "internalType": "uint256",
          "name": "tokenId",
          "type": "uint256"
        }
      ],
      "name": "ownerOf",
      "outputs": [
        {
          "internalType": "address",
          "name": "",
          "type": "address"
        }
      ],
      "stateMutability": "view",
      "type": "function"
    },
    {
      "inputs": [],
      "name": "pastFees",
      "outputs": [
        {
          "internalType": "uint256",
          "name": "",
          "type": "uint256"
        }
      ],
      "stateMutability": "view",
      "type": "function"
    },
    {
      "inputs": [],
      "name": "pendingFees",
      "outputs": [
        {
          "internalType": "uint256",
          "name": "",
          "type": "uint256"
        }
      ],
      "stateMutability": "view",
      "type": "function"
    },
    {
      "inputs": [
        {
          "internalType": "address",
          "name": "depositor",
          "type": "address"
        },
        {
          "internalType": "uint256",
          "name": "trancheId",
          "type": "uint256"
        },
        {
          "internalType": "uint256",
          "name": "tokenAmount",
          "type": "uint256"
        }
      ],
      "name": "registerDepositFor",
      "outputs": [],
      "stateMutability": "nonpayable",
      "type": "function"
    },
    {
      "inputs": [
        {
          "internalType": "uint256",
          "name": "trancheId",
          "type": "uint256"
        },
        {
          "internalType": "uint256",
          "name": "repayAmount",
          "type": "uint256"
        }
      ],
      "name": "repay",
      "outputs": [],
      "stateMutability": "nonpayable",
      "type": "function"
    },
    {
      "inputs": [
        {
          "internalType": "uint256",
          "name": "trancheId",
          "type": "uint256"
        },
        {
          "internalType": "uint256",
          "name": "collateralAmount",
          "type": "uint256"
        },
        {
          "internalType": "uint256",
          "name": "repayAmount",
          "type": "uint256"
        },
        {
          "internalType": "address",
          "name": "recipient",
          "type": "address"
        }
      ],
      "name": "repayAndWithdraw",
      "outputs": [],
      "stateMutability": "nonpayable",
      "type": "function"
    },
    {
      "inputs": [
        {
          "internalType": "address",
          "name": "",
          "type": "address"
        },
        {
          "internalType": "uint256",
          "name": "",
          "type": "uint256"
        }
      ],
      "name": "roleCache",
      "outputs": [
        {
          "internalType": "bool",
          "name": "",
          "type": "bool"
        }
      ],
      "stateMutability": "view",
      "type": "function"
    },
    {
      "inputs": [],
      "name": "roles",
      "outputs": [
        {
          "internalType": "contract Roles",
          "name": "",
          "type": "address"
        }
      ],
      "stateMutability": "view",
      "type": "function"
    },
    {
      "inputs": [],
      "name": "rolesPlayed",
      "outputs": [
        {
          "internalType": "uint256[]",
          "name": "",
          "type": "uint256[]"
        }
      ],
      "stateMutability": "view",
      "type": "function"
    },
    {
      "inputs": [
        {
          "internalType": "address",
          "name": "from",
          "type": "address"
        },
        {
          "internalType": "address",
          "name": "to",
          "type": "address"
        },
        {
          "internalType": "uint256",
          "name": "tokenId",
          "type": "uint256"
        }
      ],
      "name": "safeTransferFrom",
      "outputs": [],
      "stateMutability": "nonpayable",
      "type": "function"
    },
    {
      "inputs": [
        {
          "internalType": "address",
          "name": "from",
          "type": "address"
        },
        {
          "internalType": "address",
          "name": "to",
          "type": "address"
        },
        {
          "internalType": "uint256",
          "name": "tokenId",
          "type": "uint256"
        },
        {
          "internalType": "bytes",
          "name": "_data",
          "type": "bytes"
        }
      ],
      "name": "safeTransferFrom",
      "outputs": [],
      "stateMutability": "nonpayable",
      "type": "function"
    },
    {
      "inputs": [
        {
          "internalType": "address",
          "name": "operator",
          "type": "address"
        },
        {
          "internalType": "bool",
          "name": "approved",
          "type": "bool"
        }
      ],
      "name": "setApprovalForAll",
      "outputs": [],
      "stateMutability": "nonpayable",
      "type": "function"
    },
    {
      "inputs": [
        {
          "internalType": "address",
          "name": "token",
          "type": "address"
        },
        {
          "internalType": "uint256",
          "name": "ceiling",
          "type": "uint256"
        }
      ],
      "name": "setAssetDebtCeiling",
      "outputs": [],
      "stateMutability": "nonpayable",
      "type": "function"
    },
    {
      "inputs": [
        {
          "internalType": "address",
          "name": "token",
          "type": "address"
        },
        {
          "internalType": "uint256",
          "name": "fee",
          "type": "uint256"
        }
      ],
      "name": "setFeesPer10k",
      "outputs": [],
      "stateMutability": "nonpayable",
      "type": "function"
    },
    {
      "inputs": [
        {
          "internalType": "uint256",
          "name": "period",
          "type": "uint256"
        }
      ],
      "name": "setUpdateTrackingPeriod",
      "outputs": [],
      "stateMutability": "nonpayable",
      "type": "function"
    },
    {
      "inputs": [],
      "name": "setupTrancheSlot",
      "outputs": [],
      "stateMutability": "nonpayable",
      "type": "function"
    },
    {
      "inputs": [
        {
          "internalType": "bytes4",
          "name": "interfaceId",
          "type": "bytes4"
        }
      ],
      "name": "supportsInterface",
      "outputs": [
        {
          "internalType": "bool",
          "name": "",
          "type": "bool"
        }
      ],
      "stateMutability": "view",
      "type": "function"
    },
    {
      "inputs": [],
      "name": "symbol",
      "outputs": [
        {
          "internalType": "string",
          "name": "",
          "type": "string"
        }
      ],
      "stateMutability": "view",
      "type": "function"
    },
    {
      "inputs": [
        {
          "internalType": "uint256",
          "name": "index",
          "type": "uint256"
        }
      ],
      "name": "tokenByIndex",
      "outputs": [
        {
          "internalType": "uint256",
          "name": "",
          "type": "uint256"
        }
      ],
      "stateMutability": "view",
      "type": "function"
    },
    {
      "inputs": [
        {
          "internalType": "address",
          "name": "owner",
          "type": "address"
        },
        {
          "internalType": "uint256",
          "name": "index",
          "type": "uint256"
        }
      ],
      "name": "tokenOfOwnerByIndex",
      "outputs": [
        {
          "internalType": "uint256",
          "name": "",
          "type": "uint256"
        }
      ],
      "stateMutability": "view",
      "type": "function"
    },
    {
      "inputs": [
        {
          "internalType": "uint256",
          "name": "tokenId",
          "type": "uint256"
        }
      ],
      "name": "tokenURI",
      "outputs": [
        {
          "internalType": "string",
          "name": "",
          "type": "string"
        }
      ],
      "stateMutability": "view",
      "type": "function"
    },
    {
      "inputs": [],
      "name": "totalSupply",
      "outputs": [
        {
          "internalType": "uint256",
          "name": "",
          "type": "uint256"
        }
      ],
      "stateMutability": "view",
      "type": "function"
    },
    {
      "inputs": [
        {
          "internalType": "uint256",
          "name": "",
          "type": "uint256"
        }
      ],
      "name": "trancheDebt",
      "outputs": [
        {
          "internalType": "uint256",
          "name": "",
          "type": "uint256"
        }
      ],
      "stateMutability": "view",
      "type": "function"
    },
    {
      "inputs": [
        {
          "internalType": "uint256",
          "name": "trancheId",
          "type": "uint256"
        }
      ],
      "name": "trancheToken",
      "outputs": [
        {
          "internalType": "address",
          "name": "",
          "type": "address"
        }
      ],
      "stateMutability": "view",
      "type": "function"
    },
    {
      "inputs": [
        {
          "internalType": "address",
          "name": "from",
          "type": "address"
        },
        {
          "internalType": "address",
          "name": "to",
          "type": "address"
        },
        {
          "internalType": "uint256",
          "name": "tokenId",
          "type": "uint256"
        }
      ],
      "name": "transferFrom",
      "outputs": [],
      "stateMutability": "nonpayable",
      "type": "function"
    },
    {
      "inputs": [
        {
          "internalType": "uint256",
          "name": "role",
          "type": "uint256"
        }
      ],
      "name": "updateMainCharacterCache",
      "outputs": [],
      "stateMutability": "nonpayable",
      "type": "function"
    },
    {
      "inputs": [
        {
          "internalType": "uint256",
          "name": "role",
          "type": "uint256"
        },
        {
          "internalType": "address",
          "name": "contr",
          "type": "address"
        }
      ],
      "name": "updateRoleCache",
      "outputs": [],
      "stateMutability": "nonpayable",
      "type": "function"
    },
    {
      "inputs": [],
      "name": "updateTrackingPeriod",
      "outputs": [
        {
          "internalType": "uint256",
          "name": "",
          "type": "uint256"
        }
      ],
      "stateMutability": "view",
      "type": "function"
    },
    {
      "inputs": [],
      "name": "viewAllDisabledTokenStrategyMetadata",
      "outputs": [
        {
          "components": [
            {
              "internalType": "uint256",
              "name": "debtCeiling",
              "type": "uint256"
            },
            {
              "internalType": "uint256",
              "name": "totalDebt",
              "type": "uint256"
            },
            {
              "internalType": "uint256",
              "name": "stabilityFee",
              "type": "uint256"
            },
            {
              "internalType": "uint256",
              "name": "mintingFee",
              "type": "uint256"
            },
            {
              "internalType": "address",
              "name": "strategy",
              "type": "address"
            },
            {
              "internalType": "address",
              "name": "token",
              "type": "address"
            },
            {
              "internalType": "uint256",
              "name": "APF",
              "type": "uint256"
            },
            {
              "internalType": "uint256",
              "name": "totalCollateral",
              "type": "uint256"
            },
            {
              "internalType": "uint256",
              "name": "borrowablePer10k",
              "type": "uint256"
            },
            {
              "internalType": "uint256",
              "name": "valuePer1e18",
              "type": "uint256"
            },
            {
              "internalType": "bytes32",
              "name": "strategyName",
              "type": "bytes32"
            },
            {
              "internalType": "uint256",
              "name": "tvl",
              "type": "uint256"
            },
            {
              "internalType": "uint256",
              "name": "harvestBalance2Tally",
              "type": "uint256"
            },
            {
              "internalType": "enum IStrategy.YieldType",
              "name": "yieldType",
              "type": "uint8"
            },
            {
              "internalType": "address",
              "name": "underlyingStrategy",
              "type": "address"
            }
          ],
          "internalType": "struct StableLending.ILStrategyMetadata[]",
          "name": "",
          "type": "tuple[]"
        }
      ],
      "stateMutability": "view",
      "type": "function"
    },
    {
      "inputs": [],
      "name": "viewAllFeesEver",
      "outputs": [
        {
          "internalType": "uint256",
          "name": "",
          "type": "uint256"
        }
      ],
      "stateMutability": "view",
      "type": "function"
    },
    {
      "inputs": [
        {
          "internalType": "address[]",
          "name": "tokens",
          "type": "address[]"
        }
      ],
      "name": "viewAllILMetadata",
      "outputs": [
        {
          "components": [
            {
              "internalType": "uint256",
              "name": "debtCeiling",
              "type": "uint256"
            },
            {
              "internalType": "uint256",
              "name": "totalDebt",
              "type": "uint256"
            },
            {
              "internalType": "uint256",
              "name": "mintingFee",
              "type": "uint256"
            },
            {
              "internalType": "uint256",
              "name": "borrowablePer10k",
              "type": "uint256"
            }
          ],
          "internalType": "struct StableLending.ILMetadata[]",
          "name": "",
          "type": "tuple[]"
        }
      ],
      "stateMutability": "view",
      "type": "function"
    },
    {
      "inputs": [],
      "name": "viewAllStrategyMetadata",
      "outputs": [
        {
          "components": [
            {
              "internalType": "uint256",
              "name": "debtCeiling",
              "type": "uint256"
            },
            {
              "internalType": "uint256",
              "name": "totalDebt",
              "type": "uint256"
            },
            {
              "internalType": "uint256",
              "name": "stabilityFee",
              "type": "uint256"
            },
            {
              "internalType": "uint256",
              "name": "mintingFee",
              "type": "uint256"
            },
            {
              "internalType": "address",
              "name": "strategy",
              "type": "address"
            },
            {
              "internalType": "address",
              "name": "token",
              "type": "address"
            },
            {
              "internalType": "uint256",
              "name": "APF",
              "type": "uint256"
            },
            {
              "internalType": "uint256",
              "name": "totalCollateral",
              "type": "uint256"
            },
            {
              "internalType": "uint256",
              "name": "borrowablePer10k",
              "type": "uint256"
            },
            {
              "internalType": "uint256",
              "name": "valuePer1e18",
              "type": "uint256"
            },
            {
              "internalType": "bytes32",
              "name": "strategyName",
              "type": "bytes32"
            },
            {
              "internalType": "uint256",
              "name": "tvl",
              "type": "uint256"
            },
            {
              "internalType": "uint256",
              "name": "harvestBalance2Tally",
              "type": "uint256"
            },
            {
              "internalType": "enum IStrategy.YieldType",
              "name": "yieldType",
              "type": "uint8"
            },
            {
              "internalType": "address",
              "name": "underlyingStrategy",
              "type": "address"
            }
          ],
          "internalType": "struct StableLending.ILStrategyMetadata[]",
          "name": "",
          "type": "tuple[]"
        }
      ],
      "stateMutability": "view",
      "type": "function"
    },
    {
      "inputs": [
        {
          "internalType": "uint256",
          "name": "trancheId",
          "type": "uint256"
        }
      ],
      "name": "viewBorrowable",
      "outputs": [
        {
          "internalType": "uint256",
          "name": "",
          "type": "uint256"
        }
      ],
      "stateMutability": "view",
      "type": "function"
    },
    {
      "inputs": [
        {
          "internalType": "uint256",
          "name": "trancheId",
          "type": "uint256"
        },
        {
          "internalType": "address",
          "name": "valueCurrency",
          "type": "address"
        }
      ],
      "name": "viewCollateralValue",
      "outputs": [
        {
          "internalType": "uint256",
          "name": "",
          "type": "uint256"
        }
      ],
      "stateMutability": "view",
      "type": "function"
    },
    {
      "inputs": [
        {
          "internalType": "uint256",
          "name": "trancheId",
          "type": "uint256"
        }
      ],
      "name": "viewCollateralValue",
      "outputs": [
        {
          "internalType": "uint256",
          "name": "",
          "type": "uint256"
        }
      ],
      "stateMutability": "view",
      "type": "function"
    },
    {
      "inputs": [
        {
          "internalType": "uint256",
          "name": "trancheId",
          "type": "uint256"
        }
      ],
      "name": "viewCurrentHoldingStrategy",
      "outputs": [
        {
          "internalType": "address",
          "name": "",
          "type": "address"
        }
      ],
      "stateMutability": "view",
      "type": "function"
    },
    {
      "inputs": [
        {
          "internalType": "address",
          "name": "token",
          "type": "address"
        }
      ],
      "name": "viewILMetadata",
      "outputs": [
        {
          "components": [
            {
              "internalType": "uint256",
              "name": "debtCeiling",
              "type": "uint256"
            },
            {
              "internalType": "uint256",
              "name": "totalDebt",
              "type": "uint256"
            },
            {
              "internalType": "uint256",
              "name": "mintingFee",
              "type": "uint256"
            },
            {
              "internalType": "uint256",
              "name": "borrowablePer10k",
              "type": "uint256"
            }
          ],
          "internalType": "struct StableLending.ILMetadata",
          "name": "",
          "type": "tuple"
        }
      ],
      "stateMutability": "view",
      "type": "function"
    },
    {
      "inputs": [
        {
          "internalType": "uint256",
          "name": "_trancheId",
          "type": "uint256"
        }
      ],
      "name": "viewPositionMetadata",
      "outputs": [
        {
          "components": [
            {
              "internalType": "uint256",
              "name": "trancheId",
              "type": "uint256"
            },
            {
              "internalType": "address",
              "name": "strategy",
              "type": "address"
            },
            {
              "internalType": "uint256",
              "name": "collateral",
              "type": "uint256"
            },
            {
              "internalType": "uint256",
              "name": "debt",
              "type": "uint256"
            },
            {
              "internalType": "address",
              "name": "token",
              "type": "address"
            },
            {
              "internalType": "uint256",
              "name": "yield",
              "type": "uint256"
            },
            {
              "internalType": "uint256",
              "name": "collateralValue",
              "type": "uint256"
            },
            {
              "internalType": "uint256",
              "name": "borrowablePer10k",
              "type": "uint256"
            },
            {
              "internalType": "address",
              "name": "owner",
              "type": "address"
            }
          ],
          "internalType": "struct StableLending.PositionMetadata",
          "name": "",
          "type": "tuple"
        }
      ],
      "stateMutability": "view",
      "type": "function"
    },
    {
      "inputs": [
        {
          "internalType": "address",
          "name": "owner",
          "type": "address"
        }
      ],
      "name": "viewPositionsByOwner",
      "outputs": [
        {
          "components": [
            {
              "internalType": "uint256",
              "name": "trancheId",
              "type": "uint256"
            },
            {
              "internalType": "address",
              "name": "strategy",
              "type": "address"
            },
            {
              "internalType": "uint256",
              "name": "collateral",
              "type": "uint256"
            },
            {
              "internalType": "uint256",
              "name": "debt",
              "type": "uint256"
            },
            {
              "internalType": "address",
              "name": "token",
              "type": "address"
            },
            {
              "internalType": "uint256",
              "name": "yield",
              "type": "uint256"
            },
            {
              "internalType": "uint256",
              "name": "collateralValue",
              "type": "uint256"
            },
            {
              "internalType": "uint256",
              "name": "borrowablePer10k",
              "type": "uint256"
            },
            {
              "internalType": "address",
              "name": "owner",
              "type": "address"
            }
          ],
          "internalType": "struct StableLending.PositionMetadata[]",
          "name": "",
          "type": "tuple[]"
        }
      ],
      "stateMutability": "view",
      "type": "function"
    },
    {
      "inputs": [
        {
          "internalType": "uint256",
          "name": "trackingPeriod",
          "type": "uint256"
        }
      ],
      "name": "viewPositionsByTrackingPeriod",
      "outputs": [
        {
          "components": [
            {
              "internalType": "uint256",
              "name": "trancheId",
              "type": "uint256"
            },
            {
              "internalType": "address",
              "name": "strategy",
              "type": "address"
            },
            {
              "internalType": "uint256",
              "name": "collateral",
              "type": "uint256"
            },
            {
              "internalType": "uint256",
              "name": "debt",
              "type": "uint256"
            },
            {
              "internalType": "address",
              "name": "token",
              "type": "address"
            },
            {
              "internalType": "uint256",
              "name": "yield",
              "type": "uint256"
            },
            {
              "internalType": "uint256",
              "name": "collateralValue",
              "type": "uint256"
            },
            {
              "internalType": "uint256",
              "name": "borrowablePer10k",
              "type": "uint256"
            },
            {
              "internalType": "address",
              "name": "owner",
              "type": "address"
            }
          ],
          "internalType": "struct StableLending.PositionMetadata[]",
          "name": "rows",
          "type": "tuple[]"
        }
      ],
      "stateMutability": "view",
      "type": "function"
    },
    {
      "inputs": [
        {
          "internalType": "uint256",
          "name": "trancheId",
          "type": "uint256"
        }
      ],
      "name": "viewTargetCollateralAmount",
      "outputs": [
        {
          "internalType": "uint256",
          "name": "",
          "type": "uint256"
        }
      ],
      "stateMutability": "view",
      "type": "function"
    },
    {
      "inputs": [
        {
          "internalType": "address",
          "name": "owner",
          "type": "address"
        }
      ],
      "name": "viewTranchesByOwner",
      "outputs": [
        {
          "internalType": "uint256[]",
          "name": "",
          "type": "uint256[]"
        }
      ],
      "stateMutability": "view",
      "type": "function"
    },
    {
      "inputs": [
        {
          "internalType": "uint256",
          "name": "trancheId",
          "type": "uint256"
        },
        {
          "internalType": "address",
          "name": "currency",
          "type": "address"
        }
      ],
      "name": "viewYield",
      "outputs": [
        {
          "internalType": "uint256",
          "name": "",
          "type": "uint256"
        }
      ],
      "stateMutability": "view",
      "type": "function"
    },
    {
      "inputs": [
        {
          "internalType": "uint256",
          "name": "trancheId",
          "type": "uint256"
        },
        {
          "internalType": "address",
          "name": "yieldCurrency",
          "type": "address"
        },
        {
          "internalType": "address",
          "name": "valueCurrency",
          "type": "address"
        }
      ],
      "name": "viewYieldCollateralValueBorrowable",
      "outputs": [
        {
          "internalType": "uint256",
          "name": "",
          "type": "uint256"
        },
        {
          "internalType": "uint256",
          "name": "",
          "type": "uint256"
        },
        {
          "internalType": "uint256",
          "name": "",
          "type": "uint256"
        }
      ],
      "stateMutability": "view",
      "type": "function"
    },
    {
      "inputs": [
        {
          "internalType": "uint256",
          "name": "trancheId",
          "type": "uint256"
        },
        {
          "internalType": "address",
          "name": "yieldCurrency",
          "type": "address"
        },
        {
          "internalType": "address",
          "name": "valueCurrency",
          "type": "address"
        }
      ],
      "name": "viewYieldValueBorrowable",
      "outputs": [
        {
          "internalType": "uint256",
          "name": "",
          "type": "uint256"
        },
        {
          "internalType": "uint256",
          "name": "",
          "type": "uint256"
        },
        {
          "internalType": "uint256",
          "name": "",
          "type": "uint256"
        }
      ],
      "stateMutability": "view",
      "type": "function"
    },
    {
      "inputs": [
        {
          "internalType": "uint256",
          "name": "trancheId",
          "type": "uint256"
        },
        {
          "internalType": "uint256",
          "name": "tokenAmount",
          "type": "uint256"
        },
        {
          "internalType": "address",
          "name": "yieldCurrency",
          "type": "address"
        },
        {
          "internalType": "address",
          "name": "recipient",
          "type": "address"
        }
      ],
      "name": "withdraw",
      "outputs": [],
      "stateMutability": "nonpayable",
      "type": "function"
    },
    {
      "inputs": [],
      "name": "withdrawFees",
      "outputs": [],
      "stateMutability": "nonpayable",
      "type": "function"
    }
  ],
  "bytecode": "0x60a060405262093a806015553480156200001857600080fd5b5060405162006393380380620063938339810160408190526200003b916200034a565b6040518060400160405280601881526020017f4d6f72656d6f6e657920537461626c65204c656e64696e67000000000000000081525060405180604001604052806004815260200163135354d360e21b815250828083838160009080519060200190620000aa929190620002a4565b508051620000c0906001906020840190620002a4565b5050600d80546001818101835560057fd7b6990105719101dabeb77144f2a3385c8033acd3af97e9423a695e81ad1eb592830155600c8054808301825560697fdf6966c971051c3d54ec59162606531493a51404a002842f56009d7e5cf4a8c7918201558154808401909255606891015582548082018455600093909352910155506001600160a01b038116620001a85760405162461bcd60e51b815260206004820152602260248201527f506c656173652070726f766964652076616c696420726f6c6573206164647265604482015261737360f01b606482015260840160405180910390fd5b60601b6001600160601b0319166080525050600c805460018082018355606a7fdf6966c971051c3d54ec59162606531493a51404a002842f56009d7e5cf4a8c792830155600f8054808301825560047f8d1108e10bcb7c27dddfc02ed9d693a074039d026cf4ea4240b40f7d581ac802918201556012839055815480840183556003908201558454808401865560669085015581548084018355600290820155845480840190955560679490930193909355600e8054808301909155606f7fbb7b4a454dc3493923482f07822329ed19e8244eff582cc204f8554c3620c3fd909101558254808201845560009390935291015550620003b79050565b828054620002b2906200037a565b90600052602060002090601f016020900481019282620002d6576000855562000321565b82601f10620002f157805160ff191683800117855562000321565b8280016001018555821562000321579182015b828111156200032157825182559160200191906001019062000304565b506200032f92915062000333565b5090565b5b808211156200032f576000815560010162000334565b6000602082840312156200035c578081fd5b81516001600160a01b038116811462000373578182fd5b9392505050565b600181811c908216806200038f57607f821691505b60208210811415620003b157634e487b7160e01b600052602260045260246000fd5b50919050565b60805160601c615f9a620003f96000396000818161060001528181610c97015281816116c201528181613ca201528181613d350152613dbc0152615f9a6000f3fe608060405234801561001057600080fd5b506004361061039a5760003560e01c80620a5ccf1461039f57806301ffc9a7146103c857806304c7e767146103eb57806306fdde031461040c578063071060a614610421578063081812fc1461043657806308754a7314610456578063095ea7b3146104775780630d6390441461048a5780630d749628146104aa5780630e3b95ff146104b2578063136f9cef146104d257806318160ddd146104fa57806321fa0f1f14610502578063224438d11461051757806323b872dd146105205780632642b6061461053357806328f3fc7314610567578063291e486f1461057a5780632972b0f01461059a5780632e25f5ea146105ad5780632f745c59146105b557806332935f44146105c857806335b176ab146105db578063392f5f64146105fb57806342842e0e14610622578063447d52ba14610635578063476343ee146106485780634a7a7f41146106505780634f6ccce7146106585780634f7dcffc1461066b57806361b9fea914610674578063621fdd37146106875780636352211e1461069a5780636caa9c11146106ad57806370a08231146106c057806371b3177a146106d35780637268d1c0146106e657806375161891146106f95780637609d7f61461072757806379bc3efa146107565780637a1a04df146107695780637dad209b146107975780638496e8911461079f5780638f132f11146107b257806391130d95146107bb57806393856b16146107db57806395d89b41146107ee578063983b42f7146107f65780639897fc2614610809578063a061ba5f1461081c578063a0a53c001461082f578063a22cb46514610842578063a2fb54ff14610855578063abcbc4fc14610868578063aeb38d8b1461087b578063b23d66c21461088e578063b25e25f4146108c6578063b88d4fde146108d9578063bf184ea4146108ec578063c5c72dc3146108ff578063c87b56dd14610912578063d8aed14514610925578063dc94cb7d14610938578063dee7ae7014610940578063e2bbb15814610960578063e670309c14610973578063e8ea4fae1461097b578063e985e9c514610983578063e9c3f77d14610996578063e9d07fe8146109bf578063eab92096146109d2578063ebc6353e146109e5578063f12ba381146109f8578063f6ee21bd14610a0b578063f8903fb714610a1e578063f9ed4cc014610a31578063fa98a4ba14610a5a578063fabee7db14610a6d578063fd80d0c314610a80578063fdf27f9e14610a93575b600080fd5b6103b26103ad366004614f0c565b610aa6565b6040516103bf9190615b0b565b60405180910390f35b6103db6103d6366004615584565b610b65565b60405190151581526020016103bf565b6103fe6103f9366004615077565b610b90565b6040519081526020016103bf565b610414610bef565b6040516103bf9190615b43565b61043461042f3660046155ef565b610c81565b005b6104496104443660046155ef565b610d47565b6040516103bf91906158fc565b6104696104643660046155ef565b610dcf565b6040516103bf92919061595d565b610434610485366004615102565b610df2565b6103fe6104983660046155ef565b60176020526000908152604090205481565b6103fe610f03565b6104c56104c0366004615197565b610f1a565b6040516103bf9190615976565b6104e56104e0366004615443565b611009565b604080519283526020830191909152016103bf565b6008546103fe565b61050a611122565b6040516103bf91906159c4565b6103fe60185481565b61043461052e366004614f7c565b6111b3565b610449610541366004614f44565b60116020908152600092835260408084209091529082529020546001600160a01b031681565b610434610575366004614f44565b6111e4565b61058d6105883660046155ef565b6112d7565b6040516103bf9190615ceb565b6103db6105a8366004615102565b611484565b61050a61154a565b6103fe6105c3366004615102565b61158e565b6103fe6105d6366004615443565b611624565b6103fe6105e93660046155ef565b60106020526000908152604090205481565b6104497f000000000000000000000000000000000000000000000000000000000000000081565b610434610630366004614f7c565b611690565b61043461064336600461561f565b6116ab565b610434611781565b6103b26117e7565b6103fe6106663660046155ef565b61183e565b6103fe60155481565b6104496106823660046155ef565b6118df565b6104346106953660046157b0565b611b14565b6104496106a83660046155ef565b611b89565b6103fe6106bb3660046155ef565b611c00565b6103fe6106ce366004614f0c565b611c21565b6104346106e1366004615755565b611ca8565b6103fe6106f43660046155ef565b611d45565b61070c6107073660046154fc565b611dd7565b604080519384526020840192909252908201526060016103bf565b61070c610735366004614f0c565b60166020526000908152604090208054600182015460029092015490919083565b6104346107643660046157b0565b611e86565b6103db610777366004615102565b600b60209081526000928352604080842090915290825290205460ff1681565b6103b2611eec565b61070c6107ad366004615679565b611f42565b6103fe60195481565b6107ce6107c9366004614f0c565b611fef565b6040516103bf9190615ac8565b6103fe6107e93660046156c0565b6120e3565b61041461211b565b6103fe610804366004615497565b61212a565b6103fe61081736600461561f565b6121eb565b61043461082a366004615102565b612228565b61050a61083d3660046151d6565b61234c565b6104346108503660046150d5565b612543565b6104346108633660046155ef565b61254e565b6103fe6108763660046155ef565b61263b565b6103fe6108893660046155ef565b61264b565b6108a161089c366004615679565b61265b565b604080516001600160a01b0390941684526020840192909252908201526060016103bf565b6103db6108d43660046155ef565b61283c565b6104346108e7366004614fbc565b6128f3565b6103fe6108fa3660046155ef565b612925565b6103fe61090d3660046155ef565b612935565b6104146109203660046155ef565b6129bd565b610434610933366004615711565b612a95565b6103b2612abc565b61095361094e366004614f0c565b612b12565b6040516103bf9190615cdd565b61043461096e366004615711565b612b75565b610434612bb1565b6103b2612c2d565b6103db610991366004614f44565b612c83565b6104496109a43660046155ef565b600a602052600090815260409020546001600160a01b031681565b6104496109cd3660046155ef565b612cb1565b6104346109e0366004615102565b612d49565b61070c6109f3366004615643565b612dfa565b610434610a0636600461512d565b612e19565b6103fe610a193660046155ef565b612e8c565b6103fe610a2c366004615643565b612e9a565b610449610a3f3660046155ef565b6013602052600090815260409020546001600160a01b031681565b61070c610a68366004615643565b612f32565b610449610a7b3660046155ef565b612f89565b6103fe610a8e36600461561f565b612fc1565b6107ce610aa13660046155ef565b613051565b60606000610ab383611c21565b90506000816001600160401b03811115610add57634e487b7160e01b600052604160045260246000fd5b604051908082528060200260200182016040528015610b06578160200160208202803683370190505b50905060005b80831115610b5b57610b1e858261158e565b828281518110610b3e57634e487b7160e01b600052603260045260246000fd5b602090810291909101015280610b5381615e6d565b915050610b0c565b509150505b919050565b60006001600160e01b0319821663780e9d6360e01b1480610b8a5750610b8a8261312d565b92915050565b600060026012541415610bbe5760405162461bcd60e51b8152600401610bb590615ca6565b60405180910390fd5b60026012556000610bd33382888a828a61317d565b9050610be081858561338e565b60016012559695505050505050565b606060008054610bfe90615e38565b80601f0160208091040260200160405190810160405280929190818152602001828054610c2a90615e38565b8015610c775780601f10610c4c57610100808354040283529160200191610c77565b820191906000526020600020905b815481529060010190602001808311610c5a57829003601f168201915b5050505050905090565b60405163b4ed0b6d60e01b8152600481018290527f00000000000000000000000000000000000000000000000000000000000000006001600160a01b03169063b4ed0b6d9060240160206040518083038186803b158015610ce157600080fd5b505afa158015610cf5573d6000803e3d6000fd5b505050506040513d601f19601f82011682018060405250810190610d199190614f28565b6000918252600a602052604090912080546001600160a01b0319166001600160a01b03909216919091179055565b6000610d528261354c565b610db35760405162461bcd60e51b815260206004820152602c60248201527f4552433732313a20617070726f76656420717565727920666f72206e6f6e657860448201526b34b9ba32b73a103a37b5b2b760a11b6064820152608401610bb5565b506000908152600460205260409020546001600160a01b031690565b600080610ddb83611b89565b600093845260106020526040909320549293915050565b6000610dfd82611b89565b9050806001600160a01b0316836001600160a01b03161415610e6b5760405162461bcd60e51b815260206004820152602160248201527f4552433732313a20617070726f76616c20746f2063757272656e74206f776e656044820152603960f91b6064820152608401610bb5565b336001600160a01b0382161480610e875750610e878133610991565b610ef45760405162461bcd60e51b815260206004820152603860248201527f4552433732313a20617070726f76652063616c6c6572206973206e6f74206f776044820152771b995c881b9bdc88185c1c1c9bdd995908199bdc88185b1b60421b6064820152608401610bb5565b610efe8383613569565b505050565b6000601854601954610f159190615daa565b905090565b60606000826001600160401b03811115610f4457634e487b7160e01b600052604160045260246000fd5b604051908082528060200260200182016040528015610f7d57816020015b610f6a614d5e565b815260200190600190039081610f625790505b50905060005b8084111561100157610fc3858583818110610fae57634e487b7160e01b600052603260045260246000fd5b905060200201602081019061094e9190614f0c565b828281518110610fe357634e487b7160e01b600052603260045260246000fd5b60200260200101819052508080610ff990615e6d565b915050610f83565b509392505050565b60008060008060005b8087111561110857600088888381811061103c57634e487b7160e01b600052603260045260246000fd5b60209081029290920135600081815260139093526040808420549051630a4d77f960e41b81529194508392506001600160a01b03169063a4d77f90906110889086908d90600401615cfa565b604080518083038186803b15801561109f57600080fd5b505afa1580156110b3573d6000803e3d6000fd5b505050506040513d601f19601f820116820180604052508101906110d79190615732565b90925090506110e68183615dd6565b6110f09086615daa565b9450505050808061110090615e6d565b915050611012565b50816111148183615dc2565b935093505050935093915050565b6060600061112e6135d7565b6001600160a01b031663661d02ba6040518163ffffffff1660e01b815260040160006040518083038186803b15801561116657600080fd5b505afa15801561117a573d6000803e3d6000fd5b505050506040513d6000823e601f3d908101601f191682016040526111a29190810190615316565b90506111ad8161234c565b91505090565b6111bd338261360f565b6111d95760405162461bcd60e51b8152600401610bb590615c26565b610efe838383613647565b6001600160a01b038281166000908152601160209081526040808320858516845290915290205416156112d3576112196137e0565b6001600160a01b0316635e73a03483836040518363ffffffff1660e01b8152600401611246929190615910565b60206040518083038186803b15801561125e57600080fd5b505afa158015611272573d6000803e3d6000fd5b505050506040513d601f19601f820116820180604052508101906112969190614f28565b6001600160a01b0383811660009081526011602090815260408083208685168452909152902080546001600160a01b031916929091169190911790555b5050565b6112df614d86565b6000828152601360205260408120546001600160a01b031690808061130e86611306613818565b6109f3613818565b925092509250604051806101200160405280878152602001856001600160a01b03168152602001856001600160a01b031663c5c72dc3896040518263ffffffff1660e01b815260040161136391815260200190565b60206040518083038186803b15801561137b57600080fd5b505afa15801561138f573d6000803e3d6000fd5b505050506040513d601f19601f820116820180604052508101906113b39190615607565b81526000888152601760209081526040918290205490830152805163fabee7db60e01b8152600481018a90529101906001600160a01b0387169063fabee7db9060240160206040518083038186803b15801561140e57600080fd5b505afa158015611422573d6000803e3d6000fd5b505050506040513d601f19601f820116820180604052508101906114469190614f28565b6001600160a01b0316815260200184815260200183815260200182815260200161146f88611b89565b6001600160a01b031690529695505050505050565b60008061149083611b89565b905061149c848461360f565b8061154257506001600160a01b0381163b151580156115425750600083815260106020526040908190205490516302972b0f60e41b81526001600160a01b03831691632972b0f0916114f291889160040161595d565b60206040518083038186803b15801561150a57600080fd5b505afa15801561151e573d6000803e3d6000fd5b505050506040513d601f19601f820116820180604052508101906115429190615568565b949350505050565b606060006115566135d7565b6001600160a01b0316632e25f5ea6040518163ffffffff1660e01b815260040160006040518083038186803b15801561116657600080fd5b600061159983611c21565b82106115fb5760405162461bcd60e51b815260206004820152602b60248201527f455243373231456e756d657261626c653a206f776e657220696e646578206f7560448201526a74206f6620626f756e647360a81b6064820152608401610bb5565b506001600160a01b03919091166000908152600660209081526040808320938352929052205490565b60008060005b8085111561168757600086868381811061165457634e487b7160e01b600052603260045260246000fd5b9050602002013590506116678186612fc1565b6116719084615daa565b925050808061167f90615e6d565b91505061162a565b50949350505050565b610efe838383604051806020016040528060008152506128f3565b60405163f0723d9760e01b81526001600160a01b037f0000000000000000000000000000000000000000000000000000000000000000169063f0723d97906116f9908490869060040161595d565b60206040518083038186803b15801561171157600080fd5b505afa158015611725573d6000803e3d6000fd5b505050506040513d601f19601f820116820180604052508101906117499190615568565b6001600160a01b03919091166000908152600b6020908152604080832094835293905291909120805460ff1916911515919091179055565b6117c76117bf6067600052600a6020527f3a9775934bfe5caa57284c734fe36fab39ffd0fbded5164be0e35e020de1994d546001600160a01b031690565b601854613850565b601854601960008282546117db9190615daa565b90915550506000601855565b6060600d805480602002602001604051908101604052809291908181526020018280548015610c7757602002820191906000526020600020905b815481526020019060010190808311611821575050505050905090565b600061184960085490565b82106118ac5760405162461bcd60e51b815260206004820152602c60248201527f455243373231456e756d657261626c653a20676c6f62616c20696e646578206f60448201526b7574206f6620626f756e647360a01b6064820152608401610bb5565b600882815481106118cd57634e487b7160e01b600052603260045260246000fd5b90600052602060002001549050919050565b6000818152601360205260408120546001600160a01b0316816119006135d7565b90506000816001600160a01b03166316a665e1846040518263ffffffff1660e01b815260040161193091906158fc565b60206040518083038186803b15801561194857600080fd5b505afa15801561195c573d6000803e3d6000fd5b505050506040513d601f19601f820116820180604052508101906119809190614f28565b9050806001600160a01b0316836001600160a01b03161461154257611542858383866001600160a01b031663fabee7db8a6040518263ffffffff1660e01b81526004016119cf91815260200190565b60206040518083038186803b1580156119e757600080fd5b505afa1580156119fb573d6000803e3d6000fd5b505050506040513d601f19601f82011682018060405250810190611a1f9190614f28565b604051631dc3a75960e01b8152600481018b90526001600160a01b03891690631dc3a7599060240160206040518083038186803b158015611a5f57600080fd5b505afa158015611a73573d6000803e3d6000fd5b505050506040513d601f19601f82011682018060405250810190611a979190615607565b60405163c5c72dc360e01b8152600481018c90526001600160a01b038a169063c5c72dc39060240160206040518083038186803b158015611ad757600080fd5b505afa158015611aeb573d6000803e3d6000fd5b505050506040513d601f19601f82011682018060405250810190611b0f9190615607565b6138bb565b60026012541415611b375760405162461bcd60e51b8152600401610bb590615ca6565b6002601255611b463385611484565b611b625760405162461bcd60e51b8152600401610bb590615bf2565b8215611b7357611b73338585613966565b611b7e84838361338e565b505060016012555050565b6000818152600260205260408120546001600160a01b031680610b8a5760405162461bcd60e51b815260206004820152602960248201527f4552433732313a206f776e657220717565727920666f72206e6f6e657869737460448201526832b73a103a37b5b2b760b91b6064820152608401610bb5565b600f8181548110611c1057600080fd5b600091825260209091200154905081565b60006001600160a01b038216611c8c5760405162461bcd60e51b815260206004820152602a60248201527f4552433732313a2062616c616e636520717565727920666f7220746865207a65604482015269726f206164647265737360b01b6064820152608401610bb5565b506001600160a01b031660009081526003602052604090205490565b60026012541415611ccb5760405162461bcd60e51b8152600401610bb590615ca6565b6002601255611cda3385611484565b611cf65760405162461bcd60e51b8152600401610bb590615bf2565b6001600160a01b038116611d395760405162461bcd60e51b815260206004820152600a6024820152692237b713ba10313ab93760b11b6044820152606401610bb5565b611b7e84848484613a08565b6000818152601360205260408082205490516301c9a34760e61b8152600481018490526001600160a01b03909116908190637268d1c0906024015b60206040518083038186803b158015611d9857600080fd5b505afa158015611dac573d6000803e3d6000fd5b505050506040513d601f19601f82011682018060405250810190611dd09190615607565b9392505050565b6000806000805b80881115611e6e576000898983818110611e0857634e487b7160e01b600052603260045260246000fd5b9050602002013590506000806000611e22848c8c8c611f42565b91945092509050611e338389615daa565b9750611e3f8288615daa565b9650611e4b8282615dd6565b611e559087615daa565b9550505050508080611e6690615e6d565b915050611dde565b50611e798282615dc2565b9050955095509592505050565b611e903385611484565b611eac5760405162461bcd60e51b8152600401610bb590615bf2565b600084815260176020526040902054611ec6908390613a3e565b9150611ed3338584613a56565b611ee68484611ee0613818565b84613a08565b50505050565b6060600e805480602002602001604051908101604052809291908181526020018280548015610c775760200282019190600052602060002090815481526020019060010190808311611821575050505050905090565b600080600060026012541415611f6a5760405162461bcd60e51b8152600401610bb590615ca6565b6002601255611f793388611484565b611f955760405162461bcd60e51b8152600401610bb590615bf2565b6000806000611fa68a8a8a8a613b51565b60008d815260176020526040902054929550909350915083818411611fcc576000611fd6565b611fd68285615df5565b6001601255909c909b5091995090975050505050505050565b60606000611ffc83610aa6565b9050600081516001600160401b0381111561202757634e487b7160e01b600052604160045260246000fd5b60405190808252806020026020018201604052801561206057816020015b61204d614d86565b8152602001906001900390816120455790505b50905060005b8083511115610b5b57600083828151811061209157634e487b7160e01b600052603260045260246000fd5b602002602001015190506120a4816112d7565b8383815181106120c457634e487b7160e01b600052603260045260246000fd5b60200260200101819052505080806120db90615e6d565b915050612066565b6000600260125414156121085760405162461bcd60e51b8152600401610bb590615ca6565b6002601255610be033878787878761317d565b606060018054610bfe90615e38565b60006002601254141561214f5760405162461bcd60e51b8152600401610bb590615ca6565b60026012556000805b808611156121dc57600087878381811061218257634e487b7160e01b600052603260045260246000fd5b9050602002013590506121953382611484565b6121b15760405162461bcd60e51b8152600401610bb590615bf2565b6121bc818787613bf8565b6121c69084615daa565b92505080806121d490615e6d565b915050612158565b50600160125595945050505050565b6000828152601360205260408082205490516238f73f60e31b81526001600160a01b03909116906301c7b9f890611d809086908690600401615cfa565b33612231613c9e565b6001600160a01b0316148061225557503361224a613d31565b6001600160a01b0316145b8061226f575033612264613da2565b6001600160a01b0316145b6122dc5760405162461bcd60e51b815260206004820152603860248201527f43616c6c6572206973206e6f7420746865206f776e65722c206578656375746f604482015277391037b91030baba3437b934bd32b2103234b9b0b13632b960411b6064820152608401610bb5565b6001600160a01b03821660008181526016602090815260409182902084905581516060808252600f908201526e185cdcd95d081919589d0818d95a5b608a1b6080820152908101929092528101829052600080516020615f458339815191529060a0015b60405180910390a15050565b6060600082516001600160401b0381111561237757634e487b7160e01b600052604160045260246000fd5b6040519080825280602002602001820160405280156123b057816020015b61239d614ded565b8152602001906001900390816123955790505b50905060005b808251111561253c5760008282815181106123e157634e487b7160e01b600052603260045260246000fd5b60200260200101519050600085838151811061240d57634e487b7160e01b600052603260045260246000fd5b6020026020010151905060006124268260200151612b12565b805184526020808201518186015260408083015160608088019190915285516001600160a01b039081166080808a0191909152938701511660a0808901919091529186015160c0808901919091529086015160e0808901919091529286015161010080890191909152918601516101208089019190915290860151610140880152918501516101608701528401516101808601528301519091506101a084019060028111156124e557634e487b7160e01b600052602160045260246000fd5b9081600281111561250657634e487b7160e01b600052602160045260246000fd5b90525050610140810151604083015261016001516001600160a01b03166101c0909101528061253481615e6d565b9150506123b6565b5092915050565b6112d3338383613e06565b33612557613c9e565b6001600160a01b0316148061257b575033612570613d31565b6001600160a01b0316145b6125975760405162461bcd60e51b8152600401610bb590615b56565b806125db5760405162461bcd60e51b8152602060048201526014602482015273506572696f642063616e2774206265207a65726f60601b6044820152606401610bb5565b601581905560408051818152600f818301526e1d1c9858dada5b99c81c195c9a5bd9608a1b60608201526020810183905290517f3a64504f0bc0c335e2aecb78638a257e0351a3fe0370861fd54ee4190b9209339181900360800190a150565b600c8181548110611c1057600080fd5b600e8181548110611c1057600080fd5b6000806000600260125414156126835760405162461bcd60e51b8152600401610bb590615ca6565b60026012556126923388611484565b6126da5760405162461bcd60e51b81526020600482015260196024820152786e6f7420617574686f72697a656420746f206d69677261746560381b6044820152606401610bb5565b6126e26135d7565b6001600160a01b031663b4d69757876040518263ffffffff1660e01b815260040161270d91906158fc565b60206040518083038186803b15801561272557600080fd5b505afa158015612739573d6000803e3d6000fd5b505050506040513d601f19601f8201168201806040525081019061275d9190615568565b6127795760405162461bcd60e51b8152600401610bb590615c77565b6000612784886118df565b60405163591eb36160e11b81529091506001600160a01b0382169063b23d66c2906127b9908b908b908b908b90600401615d30565b606060405180830381600087803b1580156127d357600080fd5b505af11580156127e7573d6000803e3d6000fd5b505050506040513d601f19601f8201168201806040525081019061280b9190615161565b919550935091506128208882898787876138bb565b61282988613ed1565b5060016012819055509450945094915050565b6000818152601760205260408120546127108110156128665761285e83613f32565b915050610b60565b6000612870613818565b90506000806000612882878586612dfa565b925092509250600085831180156128a0575085670429d069189e0000115b80156128ac5750600082115b806128cd57506000888152601760205260409020546128cd90858585613ff3565b90508080156128e057506128e088613f32565b9650505050505050610b60565b50919050565b6128fd338361360f565b6129195760405162461bcd60e51b8152600401610bb590615c26565b611ee684848484614021565b600d8181548110611c1057600080fd5b60008181526013602052604080822054905163c5c72dc360e01b8152600481018490526001600160a01b039091169063c5c72dc39060240160206040518083038186803b15801561298557600080fd5b505afa158015612999573d6000803e3d6000fd5b505050506040513d601f19601f82011682018060405250810190610b8a9190615607565b60606129c88261354c565b612a2c5760405162461bcd60e51b815260206004820152602f60248201527f4552433732314d657461646174613a2055524920717565727920666f72206e6f60448201526e3732bc34b9ba32b73a103a37b5b2b760891b6064820152608401610bb5565b6000612a4360408051602081019091526000815290565b90506000815111612a635760405180602001604052806000815250611dd0565b80612a6d84614061565b604051602001612a7e9291906158cd565b604051602081830303815290604052915050919050565b600082815260176020526040902054612aaf908290613a3e565b90506112d3338383613a56565b6060600c805480602002602001604051908101604052809291908181526020018280548015610c775760200282019190600052602060002090815481526020019060010190808311611821575050505050905090565b612b1a614d5e565b6001600160a01b038216600090815260166020526040812090612b458482612b40613818565b61417b565b60408051608081018252855481526002860154602082015260019095015490850152606084015250909392505050565b60026012541415612b985760405162461bcd60e51b8152600401610bb590615ca6565b6002601255612ba8338383613966565b50506001601255565b612bb96142c8565b6001600160a01b031663e670309c6040518163ffffffff1660e01b81526004016040805180830381600087803b158015612bf257600080fd5b505af1158015612c06573d6000803e3d6000fd5b505050506040513d601f19601f82011682018060405250810190612c2a91906155bc565b50565b6060600f805480602002602001604051908101604052809291908181526020018280548015610c775760200282019190600052602060002090815481526020019060010190808311611821575050505050905090565b6001600160a01b03918216600090815260056020908152604080832093909416825291909152205460ff1690565b6000612cbb6135d7565b600083815260136020526040908190205490516316a665e160e01b81526001600160a01b03928316926316a665e192612cf9929116906004016158fc565b60206040518083038186803b158015612d1157600080fd5b505afa158015612d25573d6000803e3d6000fd5b505050506040513d601f19601f82011682018060405250810190610b8a9190614f28565b33612d52613c9e565b6001600160a01b03161480612d76575033612d6b613d31565b6001600160a01b0316145b612d925760405162461bcd60e51b8152600401610bb590615b56565b6001600160a01b03821660008181526016602090815260409182902060010184905581516060808252600c908201526b66656573207065722031306b60a01b6080820152908101929092528101829052600080516020615f458339815191529060a001612340565b6000806000612e0a868686614300565b92509250925093509350939050565b336000908152600b602090815260408083206001845290915290205460ff16612e815760405162461bcd60e51b815260206004820152601a6024820152792ab730baba3437b934bd32b210333ab732103a3930b739b332b960311b6044820152606401610bb5565b610efe838383613966565b6000610b8a82610817613818565b600060026012541415612ebf5760405162461bcd60e51b8152600401610bb590615ca6565b6002601255612ece3385611484565b612f1a5760405162461bcd60e51b815260206004820181905260248201527f6e6f7420617574686f72697a656420746f207769746864726177207969656c646044820152606401610bb5565b612f25848484613bf8565b6001601255949350505050565b600080600080600080612f46898989614300565b60008c815260176020526040902054929550909350915083818411612f6c576000612f76565b612f768285615df5565b909b909a50919850909650505050505050565b6000612f9482612cb1565b6001600160a01b031663fabee7db836040518263ffffffff1660e01b8152600401612cf991815260200190565b60008281526013602052604080822054905163fd80d0c360e01b81526001600160a01b0390911690819063fd80d0c3906130019087908790600401615cfa565b60206040518083038186803b15801561301957600080fd5b505afa15801561302d573d6000803e3d6000fd5b505050506040513d601f19601f820116820180604052508101906115429190615607565b600081815260146020526040812060609161306b826143a6565b9050806001600160401b0381111561309357634e487b7160e01b600052604160045260246000fd5b6040519080825280602002602001820160405280156130cc57816020015b6130b9614d86565b8152602001906001900390816130b15790505b50925060005b80821115613125576130e761058884836143b0565b84828151811061310757634e487b7160e01b600052603260045260246000fd5b6020026020010181905250808061311d90615e6d565b9150506130d2565b505050919050565b60006001600160e01b031982166380ac58cd60e01b148061315e57506001600160e01b03198216635b5e139f60e01b145b80610b8a57506301ffc9a760e01b6001600160e01b0319831614610b8a565b60006131876135d7565b6001600160a01b031663b4d69757866040518263ffffffff1660e01b81526004016131b291906158fc565b60206040518083038186803b1580156131ca57600080fd5b505afa1580156131de573d6000803e3d6000fd5b505050506040513d601f19601f820116820180604052508101906132029190615568565b61321e5760405162461bcd60e51b8152600401610bb590615c77565b6132266142c8565b6001600160a01b031663ff1883486040518163ffffffff1660e01b8152600401602060405180830381600087803b15801561326057600080fd5b505af1158015613274573d6000803e3d6000fd5b505050506040513d601f19601f820116820180604052508101906132989190615607565b600081815260136020908152604080832080546001600160a01b0319166001600160a01b038b161790556010909152902087905590506132d7846143bc565b6133038782886040516020016132ef91815260200190565b604051602081830303815290604052614419565b60405163b832799360e01b81526001600160a01b038881166004830152602482018390528581166044830152606482018590526084820184905286169063b83279939060a401600060405180830381600087803b15801561336357600080fd5b505af1158015613377573d6000803e3d6000fd5b5050505061338481613ed1565b9695505050505050565b8115610efe57600061339f846118df565b60405163fabee7db60e01b8152600481018690529091506000906001600160a01b0383169063fabee7db9060240160206040518083038186803b1580156133e557600080fd5b505afa1580156133f9573d6000803e3d6000fd5b505050506040513d601f19601f8201168201806040525081019061341d9190614f28565b6001600160a01b0381166000908152601660205260408120600101549192506127106134498784615dd6565b6134539190615dc2565b905061345f8187615daa565b6000888152601760205260408120805490919061347d908490615daa565b90915550506001600160a01b03831660009081526016602052604090206134a48288615daa565b8160020160008282546134b79190615daa565b90915550506002810154815410156135095760405162461bcd60e51b815260206004820152601560248201527445786365656465642064656274206365696c696e6760581b6044820152606401610bb5565b816018600082825461351b9190615daa565b909155506000905061352c8961444c565b90506135418761353c838b615daa565b613850565b505050505050505050565b6000908152600260205260409020546001600160a01b0316151590565b600081815260046020526040902080546001600160a01b0319166001600160a01b038416908117909155819061359e82611b89565b6001600160a01b03167f8c5be1e5ebec7d5bd14f71427d1e84f3dd0314c0f7b2291e5b200ac8c7c3b92560405160405180910390a45050565b6068600052600a6020527f66b303669408d9c94249bd0aec443a05560d12df25504863342dfebd1199324c546001600160a01b031690565b6001600160a01b0382166000908152600b602090815260408083206005845290915281205460ff1680611dd05750611dd08383614623565b826001600160a01b031661365a82611b89565b6001600160a01b0316146136c25760405162461bcd60e51b815260206004820152602960248201527f4552433732313a207472616e73666572206f6620746f6b656e2074686174206960448201526839903737ba1037bbb760b91b6064820152608401610bb5565b6001600160a01b0382166137245760405162461bcd60e51b8152602060048201526024808201527f4552433732313a207472616e7366657220746f20746865207a65726f206164646044820152637265737360e01b6064820152608401610bb5565b61372f8383836146e5565b61373a600082613569565b6001600160a01b0383166000908152600360205260408120805460019290613763908490615df5565b90915550506001600160a01b0382166000908152600360205260408120805460019290613791908490615daa565b909155505060008181526002602052604080822080546001600160a01b0319166001600160a01b038681169182179092559151849391871691600080516020615f2583398151915291a4505050565b606a600052600a6020527f491b44bb09274615d8e6106c97407042cd450d5681088027db2063ed5a7dd28c546001600160a01b031690565b6066600052600a6020527fa14e2711982fc1118598487104d6aa6aaca777a0683d64683335f0e52c01f75a546001600160a01b031690565b613858613818565b6001600160a01b03166340c10f1983836040518363ffffffff1660e01b815260040161388592919061595d565b600060405180830381600087803b15801561389f57600080fd5b505af11580156138b3573d6000803e3d6000fd5b505050505050565b60405163459ba12760e01b8152600481018790526001600160a01b0386811660248301528481166044830152606482018490526084820183905285169063459ba1279060a401600060405180830381600087803b15801561391b57600080fd5b505af115801561392f573d6000803e3d6000fd5b5050506000968752505060136020525050604090922080546001600160a01b0319166001600160a01b039093169290921790915550565b6000613971836118df565b9050806001600160a01b031663a50233c985858561398e88611b89565b60405160e086901b6001600160e01b03191681526001600160a01b039485166004820152602481019390935260448301919091529091166064820152608401600060405180830381600087803b1580156139e757600080fd5b505af11580156139fb573d6000803e3d6000fd5b50505050611ee683613ed1565b8215611ee6576000613a198561444c565b90508015613a2b57613a2b8282613850565b613a37858585856147a2565b5050505050565b600081831115613a4f575080610b8a565b5081610b8a565b8015610efe57613a668382614873565b60008281526017602052604081208054839290613a84908490615df5565b9091555060009050613a95836118df565b60405163fabee7db60e01b8152600481018590529091506000906001600160a01b0383169063fabee7db9060240160206040518083038186803b158015613adb57600080fd5b505afa158015613aef573d6000803e3d6000fd5b505050506040513d601f19601f82011682018060405250810190613b139190614f28565b6001600160a01b03811660009081526016602052604081206002810180549394509092869290613b44908490615df5565b9091555050505050505050565b600080600080613b60886118df565b604051638496e89160e01b81529091506001600160a01b03821690638496e89190613b95908b908b908b908b90600401615d30565b606060405180830381600087803b158015613baf57600080fd5b505af1158015613bc3573d6000803e3d6000fd5b505050506040513d601f19601f82011682018060405250810190613be79190615783565b935093509350509450945094915050565b600080613c04856118df565b90506000816001600160a01b031663f8903fb78787876040518463ffffffff1660e01b8152600401613c3893929190615d11565b602060405180830381600087803b158015613c5257600080fd5b505af1158015613c66573d6000803e3d6000fd5b505050506040513d601f19601f82011682018060405250810190613c8a9190615607565b9050613c9586613ed1565b95945050505050565b60007f00000000000000000000000000000000000000000000000000000000000000006001600160a01b0316638da5cb5b6040518163ffffffff1660e01b815260040160206040518083038186803b158015613cf957600080fd5b505afa158015613d0d573d6000803e3d6000fd5b505050506040513d601f19601f82011682018060405250810190610f159190614f28565b60007f00000000000000000000000000000000000000000000000000000000000000006001600160a01b031663c34c08e56040518163ffffffff1660e01b8152600401602060405180830381600087803b158015613d8e57600080fd5b505af1158015613d0d573d6000803e3d6000fd5b60405163b4ed0b6d60e01b81526103e960048201526000907f00000000000000000000000000000000000000000000000000000000000000006001600160a01b03169063b4ed0b6d9060240160206040518083038186803b158015613cf957600080fd5b816001600160a01b0316836001600160a01b03161415613e645760405162461bcd60e51b815260206004820152601960248201527822a9219b99189d1030b8383937bb32903a379031b0b63632b960391b6044820152606401610bb5565b6001600160a01b03838116600081815260056020908152604080832094871680845294825291829020805460ff191686151590811790915591519182527f17307eab39ab6107e8899845ad3d59bd9653f200f220920489ca2b5937696c31910160405180910390a3505050565b613f03816014600060155442613ee79190615dc2565b81526020019081526020016000206148a890919063ffffffff16565b5060405181907f416412a7d0788b77945ea2e2702f6edbb3fc8eabc407ed7b4132ab948a6962c190600090a250565b600080613f3e83611b89565b90506001600160a01b0381163b15613fe95760008381526010602052604090819020549051632c97897d60e21b815282916001600160a01b0383169163b25e25f491613f909160040190815260200190565b60206040518083038186803b158015613fa857600080fd5b505afa158015613fbc573d6000803e3d6000fd5b505050506040513d601f19601f82011682018060405250810190613fe09190615568565b92505050610b60565b6001915050610b60565b600061400185612710615dd6565b8261400c8686615daa565b6140169190615dd6565b101595945050505050565b61402d848484846148b4565b80511561405857808060200190518101906140489190615607565b6000838152601060205260409020555b611ee682613ed1565b60608161408657506040805180820190915260018152600360fc1b6020820152610b60565b8160005b81156140b0578061409a81615e6d565b91506140a99050600a83615dc2565b915061408a565b6000816001600160401b038111156140d857634e487b7160e01b600052604160045260246000fd5b6040519080825280601f01601f191660200182016040528015614102576020820181803683370190505b5090505b841561154257614117600183615df5565b9150614124600a86615e88565b61412f906030615daa565b60f81b81838151811061415257634e487b7160e01b600052603260045260246000fd5b60200101906001600160f81b031916908160001a905350614174600a86615dc2565b9450614106565b6001600160a01b0380841660009081526011602090815260408083208585168452909152812054909182911680614234576141b46137e0565b6001600160a01b0316635e73a03487866040518363ffffffff1660e01b81526004016141e1929190615910565b60206040518083038186803b1580156141f957600080fd5b505afa15801561420d573d6000803e3d6000fd5b505050506040513d601f19601f820116820180604052508101906142319190614f28565b90505b6040516313f3552960e21b81526001600160a01b038781166004830152602482018790528581166044830152821690634fcd54a490606401604080518083038186803b15801561428357600080fd5b505afa158015614297573d6000803e3d6000fd5b505050506040513d601f19601f820116820180604052508101906142bb9190615732565b9097909650945050505050565b6069600052600a6020527fe4e9675aa3466ea9ab37f11eba586a16aaf52d4293b57ad72d46715c0e7a4575546001600160a01b031690565b600083815260136020526040808220549051637d4c525d60e11b8152829182916001600160a01b0390911690819063fa98a4ba90614346908a908a908a90600401615d11565b60606040518083038186803b15801561435e57600080fd5b505afa158015614372573d6000803e3d6000fd5b505050506040513d601f19601f820116820180604052508101906143969190615783565b9350935093505093509350939050565b6000610b8a825490565b6000611dd083836148e7565b6001600160a01b038116600090815260166020526040902054612c2a5760405162461bcd60e51b8152602060048201526015602482015274151bdad95b881b9bdd081dda1a5d195b1a5cdd1959605a1b6044820152606401610bb5565b614423838361491f565b6144306000848484614a4b565b610efe5760405162461bcd60e51b8152600401610bb590615ba0565b60008181526017602052604081205481614464613818565b9050600080600061447787858630613b51565b92509250925061448985848484613ff3565b6144d15760405162461bcd60e51b8152602060048201526019602482015278426f726f7720627265616b73206d696e20636f6c726174696f60381b6044820152606401610bb5565b60006144dc886118df565b60405163fabee7db60e01b8152600481018a90529091506000906001600160a01b0383169063fabee7db9060240160206040518083038186803b15801561452257600080fd5b505afa158015614536573d6000803e3d6000fd5b505050506040513d601f19601f8201168201806040525081019061455a9190614f28565b9050868511156145b85760008981526017602052604081205561457d8786615df5565b6001600160a01b03821660009081526016602052604081206002018054929a5089929091906145ad908490615df5565b909155506146079050565b6145c28588615df5565b60008a8152601760209081526040808320939093556001600160a01b038416825260169052908120600201805491995086918a90614601908490615df5565b90915550505b8415614617576146173086614873565b50505050505050919050565b600061462e8261354c565b61468f5760405162461bcd60e51b815260206004820152602c60248201527f4552433732313a206f70657261746f7220717565727920666f72206e6f6e657860448201526b34b9ba32b73a103a37b5b2b760a11b6064820152608401610bb5565b600061469a83611b89565b9050806001600160a01b0316846001600160a01b031614806146d55750836001600160a01b03166146ca84610d47565b6001600160a01b0316145b8061154257506115428185612c83565b6001600160a01b0383166147405761473b81600880546000838152600960205260408120829055600182018355919091527ff3f7a9fe364faab93b216da50a3214154f22a0a2b415b23a84c8169e8b636ee30155565b614763565b816001600160a01b0316836001600160a01b031614614763576147638382614b55565b6001600160a01b03821661477f5761477a81614bf2565b610efe565b826001600160a01b0316826001600160a01b031614610efe57610efe8282614ccb565b60006147ad856118df565b6040516338d98bbd60e11b815260048101879052602481018690526001600160a01b0385811660448301528481166064830152919250908216906371b3177a90608401600060405180830381600087803b15801561480a57600080fd5b505af115801561481e573d6000803e3d6000fd5b5050505061482b8561283c565b61486a5760405162461bcd60e51b815260206004820152601060248201526f5472616e63686520756e766961626c6560801b6044820152606401610bb5565b613a3785613ed1565b61487b613818565b6001600160a01b0316639dc29fac83836040518363ffffffff1660e01b815260040161388592919061595d565b6000611dd08383614d0f565b6148bf848484613647565b6148cb84848484614a4b565b611ee65760405162461bcd60e51b8152600401610bb590615ba0565b600082600001828154811061490c57634e487b7160e01b600052603260045260246000fd5b9060005260206000200154905092915050565b6001600160a01b0382166149755760405162461bcd60e51b815260206004820181905260248201527f4552433732313a206d696e7420746f20746865207a65726f20616464726573736044820152606401610bb5565b61497e8161354c565b156149ca5760405162461bcd60e51b815260206004820152601c60248201527b115490cdcc8c4e881d1bdad95b88185b1c9958591e481b5a5b9d195960221b6044820152606401610bb5565b6149d6600083836146e5565b6001600160a01b03821660009081526003602052604081208054600192906149ff908490615daa565b909155505060008181526002602052604080822080546001600160a01b0319166001600160a01b0386169081179091559051839290600080516020615f25833981519152908290a45050565b60006001600160a01b0384163b15614b4d57604051630a85bd0160e11b81526001600160a01b0385169063150b7a0290614a8f90339089908890889060040161592a565b602060405180830381600087803b158015614aa957600080fd5b505af1925050508015614ad9575060408051601f3d908101601f19168201909252614ad6918101906155a0565b60015b614b33573d808015614b07576040519150601f19603f3d011682016040523d82523d6000602084013e614b0c565b606091505b508051614b2b5760405162461bcd60e51b8152600401610bb590615ba0565b805181602001fd5b6001600160e01b031916630a85bd0160e11b149050611542565b506001611542565b60006001614b6284611c21565b614b6c9190615df5565b600083815260076020526040902054909150808214614bbf576001600160a01b03841660009081526006602090815260408083208584528252808320548484528184208190558352600790915290208190555b5060009182526007602090815260408084208490556001600160a01b039094168352600681528383209183525290812055565b600854600090614c0490600190615df5565b60008381526009602052604081205460088054939450909284908110614c3a57634e487b7160e01b600052603260045260246000fd5b906000526020600020015490508060088381548110614c6957634e487b7160e01b600052603260045260246000fd5b6000918252602080832090910192909255828152600990915260408082208490558582528120556008805480614caf57634e487b7160e01b600052603160045260246000fd5b6001900381819060005260206000200160009055905550505050565b6000614cd683611c21565b6001600160a01b039093166000908152600660209081526040808320868452825280832085905593825260079052919091209190915550565b6000818152600183016020526040812054614d5657508154600181810184556000848152602080822090930184905584548482528286019093526040902091909155610b8a565b506000610b8a565b6040518060800160405280600081526020016000815260200160008152602001600081525090565b6040518061012001604052806000815260200160006001600160a01b03168152602001600081526020016000815260200160006001600160a01b0316815260200160008152602001600081526020016000815260200160006001600160a01b031681525090565b604051806101e001604052806000815260200160008152602001600081526020016000815260200160006001600160a01b0316815260200160006001600160a01b031681526020016000815260200160008152602001600081526020016000815260200160008019168152602001600081526020016000815260200160006002811115614e8a57634e487b7160e01b600052602160045260246000fd5b8152600060209091015290565b8035610b6081615ede565b8051610b6081615ede565b60008083601f840112614ebe578182fd5b5081356001600160401b03811115614ed4578182fd5b6020830191508360208260051b8501011115614eef57600080fd5b9250929050565b8035610b6081615f17565b8051610b6081615f17565b600060208284031215614f1d578081fd5b8135611dd081615ede565b600060208284031215614f39578081fd5b8151611dd081615ede565b60008060408385031215614f56578081fd5b8235614f6181615ede565b91506020830135614f7181615ede565b809150509250929050565b600080600060608486031215614f90578081fd5b8335614f9b81615ede565b92506020840135614fab81615ede565b929592945050506040919091013590565b60008060008060808587031215614fd1578182fd5b8435614fdc81615ede565b9350602085810135614fed81615ede565b93506040860135925060608601356001600160401b038082111561500f578384fd5b818801915088601f830112615022578384fd5b81358181111561503457615034615ec8565b615046601f8201601f19168501615d57565b9150808252898482850101111561505b578485fd5b8084840185840137810190920192909252939692955090935050565b600080600080600060a0868803121561508e578283fd5b853561509981615ede565b945060208601356150a981615ede565b9350604086013592506060860135915060808601356150c781615ede565b809150509295509295909350565b600080604083850312156150e7578182fd5b82356150f281615ede565b91506020830135614f7181615ef3565b60008060408385031215615114578182fd5b823561511f81615ede565b946020939093013593505050565b600080600060608486031215615141578081fd5b833561514c81615ede565b95602085013595506040909401359392505050565b600080600060608486031215615175578081fd5b835161518081615ede565b602085015160409095015190969495509392505050565b600080602083850312156151a9578182fd5b82356001600160401b038111156151be578283fd5b6151ca85828601614ead565b90969095509350505050565b600060208083850312156151e8578182fd5b82356001600160401b038111156151fd578283fd5b8301601f8101851361520d578283fd5b803561522061521b82615d87565b615d57565b81815283810190838501610180808502860187018a101561523f578788fd5b8795505b848610156153085780828b031215615259578788fd5b61526281615d57565b61526b83614e97565b8152615278888401614e97565b8189015260408381013590820152606080840135908201526080808401359082015260a0808401359082015260c0808401359082015260e0808401359082015261010080840135908201526101206152d1818501614ef6565b9082015261014083810135908201526101606152ee818501614e97565b908201528452600195909501949286019290810190615243565b509098975050505050505050565b60006020808385031215615328578182fd5b82516001600160401b0381111561533d578283fd5b8301601f8101851361534d578283fd5b805161535b61521b82615d87565b81815283810190838501610180808502860187018a101561537a578788fd5b8795505b848610156153085780828b031215615394578788fd5b61539d81615d57565b6153a683614ea2565b81526153b3888401614ea2565b8189015260408381015190820152606080840151908201526080808401519082015260a0808401519082015260c0808401519082015260e08084015190820152610100808401519082015261012061540c818501614f01565b908201526101408381015190820152610160615429818501614ea2565b90820152845260019590950194928601929081019061537e565b600080600060408486031215615457578081fd5b83356001600160401b0381111561546c578182fd5b61547886828701614ead565b909450925050602084013561548c81615ede565b809150509250925092565b600080600080606085870312156154ac578182fd5b84356001600160401b038111156154c1578283fd5b6154cd87828801614ead565b90955093505060208501356154e181615ede565b915060408501356154f181615ede565b939692955090935050565b600080600080600060808688031215615513578283fd5b85356001600160401b03811115615528578384fd5b61553488828901614ead565b909650945050602086013561554881615ede565b9250604086013561555881615ede565b915060608601356150c781615ede565b600060208284031215615579578081fd5b8151611dd081615ef3565b600060208284031215615595578081fd5b8135611dd081615f01565b6000602082840312156155b1578081fd5b8151611dd081615f01565b6000604082840312156155cd578081fd5b6155d76040615d57565b82518152602083015160208201528091505092915050565b600060208284031215615600578081fd5b5035919050565b600060208284031215615618578081fd5b5051919050565b60008060408385031215615631578182fd5b823591506020830135614f7181615ede565b600080600060608486031215615657578081fd5b83359250602084013561566981615ede565b9150604084013561548c81615ede565b6000806000806080858703121561568e578182fd5b8435935060208501356156a081615ede565b925060408501356156b081615ede565b915060608501356154f181615ede565b600080600080600060a086880312156156d7578283fd5b8535945060208601356156e981615ede565b935060408601356156f981615ede565b94979396509394606081013594506080013592915050565b60008060408385031215615723578182fd5b50508035926020909101359150565b60008060408385031215615744578182fd5b505080516020909101519092909150565b6000806000806080858703121561576a578182fd5b843593506020850135925060408501356156b081615ede565b600080600060608486031215615797578081fd5b8351925060208401519150604084015190509250925092565b600080600080608085870312156157c5578182fd5b84359350602085013592506040850135915060608501356154f181615ede565b6001600160a01b03169052565b6000815180845261580a816020860160208601615e0c565b601f01601f19169290920160200192915050565b6003811061583c57634e487b7160e01b600052602160045260246000fd5b9052565b805182526020810151602083015260408101516040830152606081015160608301525050565b805182526020808201516001600160a01b0390811691840191909152604080830151908401526060808301519084015260808083015182169084015260a0808301519084015260c0808301519084015260e080830151908401526101009182015116910152565b600083516158df818460208801615e0c565b8351908301906158f3818360208801615e0c565b01949350505050565b6001600160a01b0391909116815260200190565b6001600160a01b0392831681529116602082015260400190565b6001600160a01b0385811682528416602082015260408101839052608060608201819052600090613384908301846157f2565b6001600160a01b03929092168252602082015260400190565b6020808252825182820181905260009190848201906040850190845b818110156159b8576159a5838551615840565b9284019260809290920191600101615992565b50909695505050505050565b602080825282518282018190526000919060409081850190868401855b82811015615abb578151805185528681015187860152858101518686015260608082015190860152608080820151615a1b828801826157e5565b505060a080820151615a2f828801826157e5565b505060c0818101519086015260e08082015190860152610100808201519086015261012080820151908601526101408082015190860152610160808201519086015261018080820151908601526101a080820151615a8f8288018261581e565b50506101c09081015190615aa5868201836157e5565b50506101e09390930192908501906001016159e1565b5091979650505050505050565b6020808252825182820181905260009190848201906040850190845b818110156159b857615af7838551615866565b928401926101209290920191600101615ae4565b6020808252825182820181905260009190848201906040850190845b818110156159b857835183529284019291840191600101615b27565b600060208252611dd060208301846157f2565b6020808252602a908201527f526f6c65733a2063616c6c6572206973206e6f7420746865206f776e6572206f604082015269391032bc32b1baba37b960b11b606082015260800190565b60208082526032908201527f4552433732313a207472616e7366657220746f206e6f6e20455243373231526560408201527131b2b4bb32b91034b6b83632b6b2b73a32b960711b606082015260800190565b6020808252601a90820152796e6f7420617574686f72697a656420746f20776974686472617760301b604082015260600190565b60208082526031908201527f4552433732313a207472616e736665722063616c6c6572206973206e6f74206f6040820152701ddb995c881b9bdc88185c1c1c9bdd9959607a1b606082015260800190565b60208082526015908201527414dd1c985d1959de481b9bdd08185c1c1c9bdd9959605a1b604082015260600190565b6020808252601f908201527f5265656e7472616e637947756172643a207265656e7472616e742063616c6c00604082015260600190565b60808101610b8a8284615840565b6101208101610b8a8284615866565b9182526001600160a01b0316602082015260400190565b9283526001600160a01b03918216602084015216604082015260600190565b9384526001600160a01b039283166020850152908216604084015216606082015260800190565b604051601f8201601f191681016001600160401b0381118282101715615d7f57615d7f615ec8565b604052919050565b60006001600160401b03821115615da057615da0615ec8565b5060051b60200190565b60008219821115615dbd57615dbd615e9c565b500190565b600082615dd157615dd1615eb2565b500490565b6000816000190483118215151615615df057615df0615e9c565b500290565b600082821015615e0757615e07615e9c565b500390565b60005b83811015615e27578181015183820152602001615e0f565b83811115611ee65750506000910152565b600181811c90821680615e4c57607f821691505b602082108114156128ed57634e487b7160e01b600052602260045260246000fd5b6000600019821415615e8157615e81615e9c565b5060010190565b600082615e9757615e97615eb2565b500690565b634e487b7160e01b600052601160045260246000fd5b634e487b7160e01b600052601260045260246000fd5b634e487b7160e01b600052604160045260246000fd5b6001600160a01b0381168114612c2a57600080fd5b8015158114612c2a57600080fd5b6001600160e01b031981168114612c2a57600080fd5b60038110612c2a57600080fdfeddf252ad1be2c89b69c2b068fc378daa952ba7f163c4a11628f55a4df523b3ef2cc0b19d71980380c7a99113dc265ee16b9f7f394e2a42085ab6877482a7f822a2646970667358221220faf1d0a97a8880047fe9f59fe115c0cb0a08a402220990c620dac66907879af564736f6c63430008030033",
  "linkReferences": {},
  "deployedLinkReferences": {}
}