{
  "_format": "hh-sol-artifact-1",
  "contractName": "DirectFlashLiquidation",
  "sourceName": "contracts/liquidation/DirectFlashLiquidation.sol",
  "abi": [
    {
      "inputs": [
        {
          "internalType": "address",
          "name": "_wrappedNative",
          "type": "address"
        },
        {
          "internalType": "address",
          "name": "_defaultStable",
          "type": "address"
        },
        {
          "internalType": "address",
          "name": "_curveZap",
          "type": "address"
        },
        {
          "internalType": "address[]",
          "name": "stables",
          "type": "address[]"
        },
        {
          "internalType": "address",
          "name": "_roles",
          "type": "address"
        }
      ],
      "stateMutability": "nonpayable",
      "type": "constructor"
    },
    {
      "anonymous": false,
      "inputs": [
        {
          "indexed": false,
          "internalType": "string",
          "name": "param",
          "type": "string"
        },
        {
          "indexed": false,
          "internalType": "uint256",
          "name": "value",
          "type": "uint256"
        }
      ],
      "name": "ParameterUpdated",
      "type": "event"
    },
    {
      "anonymous": false,
      "inputs": [
        {
          "indexed": false,
          "internalType": "string",
          "name": "param",
          "type": "string"
        },
        {
          "indexed": false,
          "internalType": "address",
          "name": "subject",
          "type": "address"
        },
        {
          "indexed": false,
          "internalType": "uint256",
          "name": "value",
          "type": "uint256"
        }
      ],
      "name": "SubjectParameterUpdated",
      "type": "event"
    },
    {
      "anonymous": false,
      "inputs": [
        {
          "indexed": false,
          "internalType": "string",
          "name": "param",
          "type": "string"
        },
        {
          "indexed": false,
          "internalType": "address",
          "name": "subject",
          "type": "address"
        }
      ],
      "name": "SubjectUpdated",
      "type": "event"
    },
    {
      "inputs": [
        {
          "internalType": "uint256",
          "name": "",
          "type": "uint256"
        }
      ],
      "name": "_charactersPlayed",
      "outputs": [
        {
          "internalType": "uint256",
          "name": "",
          "type": "uint256"
        }
      ],
      "stateMutability": "view",
      "type": "function"
    },
    {
      "inputs": [
        {
          "internalType": "uint256",
          "name": "",
          "type": "uint256"
        }
      ],
      "name": "_dependsOnCharacters",
      "outputs": [
        {
          "internalType": "uint256",
          "name": "",
          "type": "uint256"
        }
      ],
      "stateMutability": "view",
      "type": "function"
    },
    {
      "inputs": [
        {
          "internalType": "uint256",
          "name": "",
          "type": "uint256"
        }
      ],
      "name": "_dependsOnRoles",
      "outputs": [
        {
          "internalType": "uint256",
          "name": "",
          "type": "uint256"
        }
      ],
      "stateMutability": "view",
      "type": "function"
    },
    {
      "inputs": [
        {
          "internalType": "address",
          "name": "",
          "type": "address"
        },
        {
          "internalType": "address",
          "name": "",
          "type": "address"
        }
      ],
      "name": "_oracleCache",
      "outputs": [
        {
          "internalType": "address",
          "name": "",
          "type": "address"
        }
      ],
      "stateMutability": "view",
      "type": "function"
    },
    {
      "inputs": [
        {
          "internalType": "uint256",
          "name": "",
          "type": "uint256"
        }
      ],
      "name": "_rolesPlayed",
      "outputs": [
        {
          "internalType": "uint256",
          "name": "",
          "type": "uint256"
        }
      ],
      "stateMutability": "view",
      "type": "function"
    },
    {
      "inputs": [],
      "name": "charactersPlayed",
      "outputs": [
        {
          "internalType": "uint256[]",
          "name": "",
          "type": "uint256[]"
        }
      ],
      "stateMutability": "view",
      "type": "function"
    },
    {
      "inputs": [],
      "name": "dependsOnCharacters",
      "outputs": [
        {
          "internalType": "uint256[]",
          "name": "",
          "type": "uint256[]"
        }
      ],
      "stateMutability": "view",
      "type": "function"
    },
    {
      "inputs": [],
      "name": "dependsOnRoles",
      "outputs": [
        {
          "internalType": "uint256[]",
          "name": "",
          "type": "uint256[]"
        }
      ],
      "stateMutability": "view",
      "type": "function"
    },
    {
      "inputs": [
        {
          "internalType": "uint256",
          "name": "trancheId",
          "type": "uint256"
        },
        {
          "internalType": "address",
          "name": "router",
          "type": "address"
        },
        {
          "internalType": "address",
          "name": "recipient",
          "type": "address"
        }
      ],
      "name": "liquidate",
      "outputs": [],
      "stateMutability": "nonpayable",
      "type": "function"
    },
    {
      "inputs": [
        {
          "internalType": "uint256",
          "name": "",
          "type": "uint256"
        }
      ],
      "name": "mainCharacterCache",
      "outputs": [
        {
          "internalType": "address",
          "name": "",
          "type": "address"
        }
      ],
      "stateMutability": "view",
      "type": "function"
    },
    {
      "inputs": [
        {
          "internalType": "address",
          "name": "token",
          "type": "address"
        },
        {
          "internalType": "address",
          "name": "pegCurrency",
          "type": "address"
        }
      ],
      "name": "newCurrentOracle",
      "outputs": [],
      "stateMutability": "nonpayable",
      "type": "function"
    },
    {
      "inputs": [
        {
          "internalType": "address",
          "name": "",
          "type": "address"
        },
        {
          "internalType": "address",
          "name": "",
          "type": "address"
        },
        {
          "internalType": "uint256",
          "name": "amount",
          "type": "uint256"
        },
        {
          "internalType": "uint256",
          "name": "",
          "type": "uint256"
        },
        {
          "internalType": "bytes",
          "name": "data",
          "type": "bytes"
        }
      ],
      "name": "onFlashLoan",
      "outputs": [
        {
          "internalType": "bytes32",
          "name": "",
          "type": "bytes32"
        }
      ],
      "stateMutability": "nonpayable",
      "type": "function"
    },
    {
      "inputs": [],
      "name": "resetApproval",
      "outputs": [],
      "stateMutability": "nonpayable",
      "type": "function"
    },
    {
      "inputs": [
        {
          "internalType": "address",
          "name": "",
          "type": "address"
        },
        {
          "internalType": "uint256",
          "name": "",
          "type": "uint256"
        }
      ],
      "name": "roleCache",
      "outputs": [
        {
          "internalType": "bool",
          "name": "",
          "type": "bool"
        }
      ],
      "stateMutability": "view",
      "type": "function"
    },
    {
      "inputs": [],
      "name": "roles",
      "outputs": [
        {
          "internalType": "contract Roles",
          "name": "",
          "type": "address"
        }
      ],
      "stateMutability": "view",
      "type": "function"
    },
    {
      "inputs": [],
      "name": "rolesPlayed",
      "outputs": [
        {
          "internalType": "uint256[]",
          "name": "",
          "type": "uint256[]"
        }
      ],
      "stateMutability": "view",
      "type": "function"
    },
    {
      "inputs": [
        {
          "internalType": "address",
          "name": "",
          "type": "address"
        }
      ],
      "name": "stableIndices",
      "outputs": [
        {
          "internalType": "int128",
          "name": "",
          "type": "int128"
        }
      ],
      "stateMutability": "view",
      "type": "function"
    },
    {
      "inputs": [
        {
          "internalType": "uint256",
          "name": "role",
          "type": "uint256"
        }
      ],
      "name": "updateMainCharacterCache",
      "outputs": [],
      "stateMutability": "nonpayable",
      "type": "function"
    },
    {
      "inputs": [
        {
          "internalType": "uint256",
          "name": "role",
          "type": "uint256"
        },
        {
          "internalType": "address",
          "name": "contr",
          "type": "address"
        }
      ],
      "name": "updateRoleCache",
      "outputs": [],
      "stateMutability": "nonpayable",
      "type": "function"
    }
  ],
  "bytecode": "0x6101006040523480156200001257600080fd5b50604051620023c4380380620023c48339810160408190526200003591620003e0565b8484848484806001600160a01b038116620000a15760405162461bcd60e51b815260206004820152602260248201527f506c656173652070726f766964652076616c696420726f6c6573206164647265604482015261737360f01b606482015260840160405180910390fd5b60601b6001600160601b031916608052600280546001808201835560667f405787fa12a823e0f2b7631cc41b3ba8828b3321ca811111fa75cd3aa3bb5ace92830181905583548083018555606d9084015583548083018555606b9084015583548083018555606e908401558354808301909455606a9390920192909255600580549283018155600090815260047f036b6384b5eca791c62761152d0c79bb0604c104a5fb6f4eb0703f3154bb3db090930183905560405163b4ed0b6d60e01b815292830191909152906001600160a01b0383169063b4ed0b6d9060240160206040518083038186803b1580156200019757600080fd5b505afa158015620001ac573d6000803e3d6000fd5b505050506040513d601f19601f82011682018060405250810190620001d29190620003bc565b60405163095ea7b360e01b81526001600160a01b03821660048201819052600019602483015291925063095ea7b390604401602060405180830381600087803b1580156200021f57600080fd5b505af115801562000234573d6000803e3d6000fd5b505050506040513d601f19601f820116820180604052508101906200025a919062000502565b5060025b80845160026200026f919062000524565b11156200030d57806007600086620002896002856200053f565b81518110620002a857634e487b7160e01b600052603260045260246000fd5b60200260200101516001600160a01b03166001600160a01b0316815260200190815260200160002060006101000a8154816001600160801b030219169083600f0b6001600160801b031602179055508080620003049062000559565b9150506200025e565b506001600160a01b0316600090815260076020526040812080546001600160801b03191660019081179091556001600160601b0319606097881b811660a05295871b861660c0529390951b90931660e052506004805491820181559092525060c87f8a35acfbc15ff81a39ae7d344fd709f28e8600b4aa8c65c6b64bfe7fe36bd19b9091015550620005a39350505050565b80516001600160a01b0381168114620003b757600080fd5b919050565b600060208284031215620003ce578081fd5b620003d9826200039f565b9392505050565b600080600080600060a08688031215620003f8578081fd5b62000403866200039f565b94506020620004148188016200039f565b945062000424604088016200039f565b60608801519094506001600160401b038082111562000441578384fd5b818901915089601f83011262000455578384fd5b8151818111156200046a576200046a6200058d565b8060051b604051601f19603f830116810181811085821117156200049257620004926200058d565b604052828152858101935084860182860187018e1015620004b1578788fd5b8795505b83861015620004de57620004c9816200039f565b855260019590950194938601938601620004b5565b50809750505050505050620004f6608087016200039f565b90509295509295909350565b60006020828403121562000514578081fd5b81518015158114620003d9578182fd5b600082198211156200053a576200053a62000577565b500190565b60008282101562000554576200055462000577565b500390565b600060001982141562000570576200057062000577565b5060010190565b634e487b7160e01b600052601160045260246000fd5b634e487b7160e01b600052604160045260246000fd5b60805160601c60a05160601c60c05160601c60e05160601c611dbf6200060560003960008181611447015261146e0152600061114601526000818161116901526112af0152600081816101a5015281816107c60152610adb0152611dbf6000f3fe608060405234801561001057600080fd5b50600436106100f15760003560e01c8063060336ec146100f6578063071060a61461010b57806323e30c8b1461011e5780632642b6061461014457806328f3fc7314610185578063330b8b7114610198578063392f5f64146101a0578063447d52ba146101c75780634a7a7f41146101da5780636caa9c11146101ef5780637a1a04df146102025780637dad209b14610240578063abcbc4fc14610248578063aeb38d8b1461025b578063bf184ea41461026e578063dc94cb7d14610281578063e8ea4fae14610289578063e9c3f77d14610291578063f389299e146102ba575b600080fd5b610109610104366004611a3e565b6102f0565b005b6101096101193660046119ea565b6107b0565b61013161012c36600461183c565b610876565b6040519081526020015b60405180910390f35b610178610152366004611804565b60066020908152600092835260408084209091529082529020546001600160a01b031681565b60405161013b9190611b10565b610109610193366004611804565b610942565b610109610a35565b6101787f000000000000000000000000000000000000000000000000000000000000000081565b6101096101d5366004611a1a565b610ac4565b6101e2610b9a565b60405161013b9190611b57565b6101316101fd3660046119ea565b610bf2565b6102306102103660046118e0565b600160209081526000928352604080842090915290825290205460ff1681565b604051901515815260200161013b565b6101e2610c13565b6101316102563660046119ea565b610c69565b6101316102693660046119ea565b610c79565b61013161027c3660046119ea565b610c89565b6101e2610c99565b6101e2610cef565b61017861029f3660046119ea565b6000602081905290815260409020546001600160a01b031681565b6102dd6102c83660046117cc565b600760205260009081526040902054600f0b81565b604051600f9190910b815260200161013b565b600061032d606b60009081526020527f2dc7a963308417ad45132da282495eb244f38a7db03940a4d808be607669c622546001600160a01b031690565b60405163fabee7db60e01b8152600481018690529091506000906001600160a01b0383169063fabee7db9060240160206040518083038186803b15801561037357600080fd5b505afa158015610387573d6000803e3d6000fd5b505050506040513d601f19601f820116820180604052508101906103ab91906117e8565b905060006103b7610d45565b60405163c5c72dc360e01b8152600481018890529091506000906001600160a01b0385169063c5c72dc39060240160206040518083038186803b1580156103fd57600080fd5b505afa158015610411573d6000803e3d6000fd5b505050506040513d601f19601f820116820180604052508101906104359190611a02565b90506000610444848385610d7d565b9050600080610451610e23565b6001600160a01b03166315c2ba50876040518263ffffffff1660e01b815260040161047c9190611b10565b60206040518083038186803b15801561049457600080fd5b505afa1580156104a8573d6000803e3d6000fd5b505050506040513d601f19601f820116820180604052508101906104cc9190611a02565b604051630358e41160e21b8152600481018c90529091506000906001600160a01b03891690630d6390449060240160206040518083038186803b15801561051257600080fd5b505afa158015610526573d6000803e3d6000fd5b505050506040513d601f19601f8201168201806040525081019061054a9190611a02565b9050600261055a83612710611d02565b6105648685611c93565b61057084612710611c93565b61057a9190611d02565b6105849190611c73565b61058e9083611c5b565b6105989190611c73565b92505050836001600160a01b0316635cffe9de30866103d86105b8610e5b565b6001600160a01b031663929460f48f886040518363ffffffff1660e01b81526004016105ee929190918252602082015260400190565b60206040518083038186803b15801561060657600080fd5b505afa15801561061a573d6000803e3d6000fd5b505050506040513d601f19601f8201168201806040525081019061063e9190611a02565b61064a906103e8611c93565b6106549190611c73565b8d87610660888b611c93565b61066a9190611c73565b6040805160208101939093528201526001600160a01b03808c1660608301528e16608082015260a0016040516020818303038152906040526040518563ffffffff1660e01b81526004016106c19493929190611b9b565b602060405180830381600087803b1580156106db57600080fd5b505af11580156106ef573d6000803e3d6000fd5b505050506040513d601f19601f8201168201806040525081019061071391906119ca565b506107a587856001600160a01b03166370a08231306040518263ffffffff1660e01b81526004016107449190611b10565b60206040518083038186803b15801561075c57600080fd5b505afa158015610770573d6000803e3d6000fd5b505050506040513d601f19601f820116820180604052508101906107949190611a02565b6001600160a01b0387169190610e93565b505050505050505050565b60405163b4ed0b6d60e01b8152600481018290527f00000000000000000000000000000000000000000000000000000000000000006001600160a01b03169063b4ed0b6d9060240160206040518083038186803b15801561081057600080fd5b505afa158015610824573d6000803e3d6000fd5b505050506040513d601f19601f8201168201806040525081019061084891906117e8565b60009182526020829052604090912080546001600160a01b0319166001600160a01b03909216919091179055565b60008080808061088886880188611a7f565b9350935093509350610898610e5b565b60405163032c65d760e21b81526004810186905260248101859052604481018b90523060648201526001600160a01b039190911690630cb1975c90608401600060405180830381600087803b1580156108f057600080fd5b505af1158015610904573d6000803e3d6000fd5b505050506109128282610eee565b507f439148f0bbc682ca079e46d6e2c2f0c1e3b820f1a291b069d8882abf8cf18dd99a9950505050505050505050565b6001600160a01b03828116600090815260066020908152604080832085851684529091529020541615610a3157610977610e23565b6001600160a01b0316635e73a03483836040518363ffffffff1660e01b81526004016109a4929190611b24565b60206040518083038186803b1580156109bc57600080fd5b505afa1580156109d0573d6000803e3d6000fd5b505050506040513d601f19601f820116820180604052508101906109f491906117e8565b6001600160a01b0383811660009081526006602090815260408083208685168452909152902080546001600160a01b031916929091169190911790555b5050565b6000610a3f610d45565b60405163095ea7b360e01b81529091506001600160a01b0382169063095ea7b390610a7290849060001990600401611b3e565b602060405180830381600087803b158015610a8c57600080fd5b505af1158015610aa0573d6000803e3d6000fd5b505050506040513d601f19601f82011682018060405250810190610a3191906119ca565b60405163f0723d9760e01b81526001600160a01b037f0000000000000000000000000000000000000000000000000000000000000000169063f0723d9790610b129084908690600401611b3e565b60206040518083038186803b158015610b2a57600080fd5b505afa158015610b3e573d6000803e3d6000fd5b505050506040513d601f19601f82011682018060405250810190610b6291906119ca565b6001600160a01b0391909116600090815260016020908152604080832094835293905291909120805460ff1916911515919091179055565b60606003805480602002602001604051908101604052809291908181526020018280548015610be857602002820191906000526020600020905b815481526020019060010190808311610bd4575b5050505050905090565b60058181548110610c0257600080fd5b600091825260209091200154905081565b60606004805480602002602001604051908101604052809291908181526020018280548015610be85760200282019190600052602060002090815481526020019060010190808311610bd4575050505050905090565b60028181548110610c0257600080fd5b60048181548110610c0257600080fd5b60038181548110610c0257600080fd5b60606002805480602002602001604051908101604052809291908181526020018280548015610be85760200282019190600052602060002090815481526020019060010190808311610bd4575050505050905090565b60606005805480602002602001604051908101604052809291908181526020018280548015610be85760200282019190600052602060002090815481526020019060010190808311610bd4575050505050905090565b606660009081526020527f422cccb7cea5c0e46f340bb7b21b81debac329f72e31669c20ff0f3a05cc2b5b546001600160a01b031690565b600080610d8a8584610ef8565b604051630576cbc360e41b81526001600160a01b0387811660048301526024820187905285811660448301529192509082169063576cbc3090606401602060405180830381600087803b158015610de057600080fd5b505af1158015610df4573d6000803e3d6000fd5b505050506040513d601f19601f82011682018060405250810190610e189190611a02565b9150505b9392505050565b606a60009081526020527ff3261457f4fd0b7c00a1511877ab27b74183ac470be8db3a7ecdc64335f6f979546001600160a01b031690565b606e60009081526020527f6ce4024642c4779dc119f2ece9b9cc34663ef4cfd6a7942d809a7de1813aca7d546001600160a01b031690565b610ee98363a9059cbb60e01b8484604051602401610eb2929190611b3e565b60408051601f198184030181529190526020810180516001600160e01b03166001600160e01b031990931692909217909152610fb5565b505050565b610a31828261108c565b6001600160a01b03808316600090815260066020908152604080832085851684529091529020541680610faf57610f2d610e23565b6001600160a01b0316631757616884846040518363ffffffff1660e01b8152600401610f5a929190611b24565b602060405180830381600087803b158015610f7457600080fd5b505af1158015610f88573d6000803e3d6000fd5b505050506040513d601f19601f82011682018060405250810190610fac91906117e8565b90505b92915050565b600061100a826040518060400160405280602081526020017f5361666545524332303a206c6f772d6c6576656c2063616c6c206661696c6564815250856001600160a01b03166115a29092919063ffffffff16565b805190915015610ee9578080602001905181019061102891906119ca565b610ee95760405162461bcd60e51b815260206004820152602a60248201527f5361666545524332303a204552433230206f7065726174696f6e20646964206e6044820152691bdd081cdd58d8d9595960b21b60648201526084015b60405180910390fd5b6040516370a0823160e01b81526000906001600160a01b038416906370a08231906110bb903090600401611b10565b60206040518083038186803b1580156110d357600080fd5b505afa1580156110e7573d6000803e3d6000fd5b505050506040513d601f19601f8201168201806040525081019061110b9190611a02565b6001600160a01b038416600090815260076020526040812054919250908190600f90810b900b811215611142575083905081611438565b60607f000000000000000000000000000000000000000000000000000000000000000092507f00000000000000000000000000000000000000000000000000000000000000006001600160a01b0316866001600160a01b0316141561124a57604080516002808252606082018352909160208301908036833701905050905085816000815181106111e357634e487b7160e01b600052603260045260246000fd5b60200260200101906001600160a01b031690816001600160a01b031681525050828160018151811061122557634e487b7160e01b600052603260045260246000fd5b60200260200101906001600160a01b031690816001600160a01b031681525050611352565b604080516003808252608082019092529060208201606080368337019050509050858160008151811061128d57634e487b7160e01b600052603260045260246000fd5b60200260200101906001600160a01b031690816001600160a01b0316815250507f0000000000000000000000000000000000000000000000000000000000000000816001815181106112ef57634e487b7160e01b600052603260045260246000fd5b60200260200101906001600160a01b031690816001600160a01b031681525050828160028151811061133157634e487b7160e01b600052603260045260246000fd5b60200260200101906001600160a01b031690816001600160a01b0316815250505b6113666001600160a01b03871686866115b9565b60006001600160a01b0386166338ed173986838530611386426001611c5b565b6040518663ffffffff1660e01b81526004016113a6959493929190611beb565b600060405180830381600087803b1580156113c057600080fd5b505af11580156113d4573d6000803e3d6000fd5b505050506040513d6000823e601f3d908101601f191682016040526113fc919081019061190b565b9050806001825161140d9190611d02565b8151811061142b57634e487b7160e01b600052603260045260246000fd5b6020026020010151925050505b61146c6001600160a01b0383167f0000000000000000000000000000000000000000000000000000000000000000836115b9565b7f00000000000000000000000000000000000000000000000000000000000000006001600160a01b031663a3220db86114d6606d60009081526020527faa31d2a33b224bee3888830916f2f56f41bb5a40ed8a3273c6e72e6992d6223a546001600160a01b031690565b6001600160a01b0385166000908152600760205260409020546114fe90600190600f0b611cb2565b6040516001600160e01b031960e085901b1681526001600160a01b039092166004830152600f0b60248201526000604482018190526064820185905260848201523060a482015260c401602060405180830381600087803b15801561156257600080fd5b505af1158015611576573d6000803e3d6000fd5b505050506040513d601f19601f8201168201806040525081019061159a9190611a02565b505050505050565b60606115b1848460008561166b565b949350505050565b600081846001600160a01b031663dd62ed3e30866040518363ffffffff1660e01b81526004016115ea929190611b24565b60206040518083038186803b15801561160257600080fd5b505afa158015611616573d6000803e3d6000fd5b505050506040513d601f19601f8201168201806040525081019061163a9190611a02565b6116449190611c5b565b90506116658463095ea7b360e01b8584604051602401610eb2929190611b3e565b50505050565b6060824710156116cc5760405162461bcd60e51b815260206004820152602660248201527f416464726573733a20696e73756666696369656e742062616c616e636520666f6044820152651c8818d85b1b60d21b6064820152608401611083565b843b61171a5760405162461bcd60e51b815260206004820152601d60248201527f416464726573733a2063616c6c20746f206e6f6e2d636f6e74726163740000006044820152606401611083565b600080866001600160a01b031685876040516117369190611af4565b60006040518083038185875af1925050503d8060008114611773576040519150601f19603f3d011682016040523d82523d6000602084013e611778565b606091505b5091509150611788828286611793565b979650505050505050565b606083156117a2575081610e1c565b8251156117b25782518084602001fd5b8160405162461bcd60e51b81526004016110839190611bd8565b6000602082840312156117dd578081fd5b8135610e1c81611d71565b6000602082840312156117f9578081fd5b8151610e1c81611d71565b60008060408385031215611816578081fd5b823561182181611d71565b9150602083013561183181611d71565b809150509250929050565b60008060008060008060a08789031215611854578182fd5b863561185f81611d71565b9550602087013561186f81611d71565b9450604087013593506060870135925060808701356001600160401b0380821115611898578384fd5b818901915089601f8301126118ab578384fd5b8135818111156118b9578485fd5b8a60208285010111156118ca578485fd5b6020830194508093505050509295509295509295565b600080604083850312156118f2578182fd5b82356118fd81611d71565b946020939093013593505050565b6000602080838503121561191d578182fd5b82516001600160401b0380821115611933578384fd5b818501915085601f830112611946578384fd5b81518181111561195857611958611d5b565b8060051b604051601f19603f8301168101818110858211171561197d5761197d611d5b565b604052828152858101935084860182860187018a101561199b578788fd5b8795505b838610156119bd57805185526001959095019493860193860161199f565b5098975050505050505050565b6000602082840312156119db578081fd5b81518015158114610e1c578182fd5b6000602082840312156119fb578081fd5b5035919050565b600060208284031215611a13578081fd5b5051919050565b60008060408385031215611a2c578182fd5b82359150602083013561183181611d71565b600080600060608486031215611a52578283fd5b833592506020840135611a6481611d71565b91506040840135611a7481611d71565b809150509250925092565b60008060008060808587031215611a94578384fd5b84359350602085013592506040850135611aad81611d71565b91506060850135611abd81611d71565b939692955090935050565b60008151808452611ae0816020860160208601611d19565b601f01601f19169290920160200192915050565b60008251611b06818460208701611d19565b9190910192915050565b6001600160a01b0391909116815260200190565b6001600160a01b0392831681529116602082015260400190565b6001600160a01b03929092168252602082015260400190565b6020808252825182820181905260009190848201906040850190845b81811015611b8f57835183529284019291840191600101611b73565b50909695505050505050565b6001600160a01b0385811682528416602082015260408101839052608060608201819052600090611bce90830184611ac8565b9695505050505050565b600060208252610fac6020830184611ac8565b600060a082018783526020878185015260a0604085015281875180845260c0860191508289019350845b81811015611c3a5784516001600160a01b031683529383019391830191600101611c15565b50506001600160a01b03969096166060850152505050608001529392505050565b60008219821115611c6e57611c6e611d45565b500190565b600082611c8e57634e487b7160e01b81526012600452602481fd5b500490565b6000816000190483118215151615611cad57611cad611d45565b500290565b6000600f82810b9084900b828112801560016001607f1b0319830184121615611cdd57611cdd611d45565b60016001607f1b0382018313811615611cf857611cf8611d45565b5090039392505050565b600082821015611d1457611d14611d45565b500390565b60005b83811015611d34578181015183820152602001611d1c565b838111156116655750506000910152565b634e487b7160e01b600052601160045260246000fd5b634e487b7160e01b600052604160045260246000fd5b6001600160a01b0381168114611d8657600080fd5b5056fea264697066735822122054ae0e238162e1d9ba994309a22b35dcd2a0ea1473a0329ba3a7e36a34e3e32264736f6c63430008030033",
  "linkReferences": {},
  "deployedLinkReferences": {}
}