{
  "_format": "hh-sol-artifact-1",
  "contractName": "sJoeStrategy",
  "sourceName": "contracts/strategies/sJoeStrategy.sol",
  "abi": [
    {
      "inputs": [
        {
          "internalType": "address",
          "name": "_xJoe",
          "type": "address"
        },
        {
          "internalType": "address",
          "name": "_joe",
          "type": "address"
        },
        {
          "internalType": "address",
          "name": "_wrappedNative",
          "type": "address"
        },
        {
          "internalType": "address[]",
          "name": "initialRewardTokens",
          "type": "address[]"
        },
        {
          "internalType": "address",
          "name": "_roles",
          "type": "address"
        }
      ],
      "stateMutability": "nonpayable",
      "type": "constructor"
    },
    {
      "anonymous": false,
      "inputs": [
        {
          "indexed": false,
          "internalType": "string",
          "name": "param",
          "type": "string"
        },
        {
          "indexed": false,
          "internalType": "uint256",
          "name": "value",
          "type": "uint256"
        }
      ],
      "name": "ParameterUpdated",
      "type": "event"
    },
    {
      "anonymous": false,
      "inputs": [
        {
          "indexed": false,
          "internalType": "string",
          "name": "param",
          "type": "string"
        },
        {
          "indexed": false,
          "internalType": "address",
          "name": "subject",
          "type": "address"
        },
        {
          "indexed": false,
          "internalType": "uint256",
          "name": "value",
          "type": "uint256"
        }
      ],
      "name": "SubjectParameterUpdated",
      "type": "event"
    },
    {
      "anonymous": false,
      "inputs": [
        {
          "indexed": false,
          "internalType": "string",
          "name": "param",
          "type": "string"
        },
        {
          "indexed": false,
          "internalType": "address",
          "name": "subject",
          "type": "address"
        }
      ],
      "name": "SubjectUpdated",
      "type": "event"
    },
    {
      "stateMutability": "payable",
      "type": "fallback"
    },
    {
      "inputs": [
        {
          "internalType": "uint256",
          "name": "",
          "type": "uint256"
        }
      ],
      "name": "_accounts",
      "outputs": [
        {
          "internalType": "uint256",
          "name": "collateral",
          "type": "uint256"
        },
        {
          "internalType": "uint256",
          "name": "yieldCheckptIdx",
          "type": "uint256"
        },
        {
          "internalType": "address",
          "name": "trancheToken",
          "type": "address"
        }
      ],
      "stateMutability": "view",
      "type": "function"
    },
    {
      "inputs": [
        {
          "internalType": "uint256",
          "name": "",
          "type": "uint256"
        }
      ],
      "name": "_charactersPlayed",
      "outputs": [
        {
          "internalType": "uint256",
          "name": "",
          "type": "uint256"
        }
      ],
      "stateMutability": "view",
      "type": "function"
    },
    {
      "inputs": [
        {
          "internalType": "uint256",
          "name": "",
          "type": "uint256"
        }
      ],
      "name": "_dependsOnCharacters",
      "outputs": [
        {
          "internalType": "uint256",
          "name": "",
          "type": "uint256"
        }
      ],
      "stateMutability": "view",
      "type": "function"
    },
    {
      "inputs": [
        {
          "internalType": "uint256",
          "name": "",
          "type": "uint256"
        }
      ],
      "name": "_dependsOnRoles",
      "outputs": [
        {
          "internalType": "uint256",
          "name": "",
          "type": "uint256"
        }
      ],
      "stateMutability": "view",
      "type": "function"
    },
    {
      "inputs": [
        {
          "internalType": "address",
          "name": "",
          "type": "address"
        },
        {
          "internalType": "address",
          "name": "",
          "type": "address"
        }
      ],
      "name": "_oracleCache",
      "outputs": [
        {
          "internalType": "address",
          "name": "",
          "type": "address"
        }
      ],
      "stateMutability": "view",
      "type": "function"
    },
    {
      "inputs": [
        {
          "internalType": "uint256",
          "name": "",
          "type": "uint256"
        }
      ],
      "name": "_rolesPlayed",
      "outputs": [
        {
          "internalType": "uint256",
          "name": "",
          "type": "uint256"
        }
      ],
      "stateMutability": "view",
      "type": "function"
    },
    {
      "inputs": [
        {
          "internalType": "address",
          "name": "token",
          "type": "address"
        }
      ],
      "name": "_viewTVL",
      "outputs": [
        {
          "internalType": "uint256",
          "name": "",
          "type": "uint256"
        }
      ],
      "stateMutability": "view",
      "type": "function"
    },
    {
      "inputs": [
        {
          "internalType": "uint256",
          "name": "trancheId",
          "type": "uint256"
        },
        {
          "internalType": "address",
          "name": "sourceStrategy",
          "type": "address"
        },
        {
          "internalType": "address",
          "name": "tokenContract",
          "type": "address"
        },
        {
          "internalType": "uint256",
          "name": "",
          "type": "uint256"
        },
        {
          "internalType": "uint256",
          "name": "amount",
          "type": "uint256"
        }
      ],
      "name": "acceptMigration",
      "outputs": [],
      "stateMutability": "nonpayable",
      "type": "function"
    },
    {
      "inputs": [
        {
          "internalType": "address",
          "name": "yieldBearingToken",
          "type": "address"
        },
        {
          "internalType": "address",
          "name": "rewardToken",
          "type": "address"
        }
      ],
      "name": "addRewardToken",
      "outputs": [],
      "stateMutability": "nonpayable",
      "type": "function"
    },
    {
      "inputs": [],
      "name": "apfSmoothingPer10k",
      "outputs": [
        {
          "internalType": "uint256",
          "name": "",
          "type": "uint256"
        }
      ],
      "stateMutability": "view",
      "type": "function"
    },
    {
      "inputs": [
        {
          "internalType": "address",
          "name": "token",
          "type": "address"
        },
        {
          "internalType": "bytes",
          "name": "data",
          "type": "bytes"
        }
      ],
      "name": "approveToken",
      "outputs": [],
      "stateMutability": "nonpayable",
      "type": "function"
    },
    {
      "inputs": [
        {
          "internalType": "address",
          "name": "token",
          "type": "address"
        }
      ],
      "name": "approvedToken",
      "outputs": [
        {
          "internalType": "bool",
          "name": "",
          "type": "bool"
        }
      ],
      "stateMutability": "view",
      "type": "function"
    },
    {
      "inputs": [],
      "name": "approvedTokensCount",
      "outputs": [
        {
          "internalType": "uint256",
          "name": "",
          "type": "uint256"
        }
      ],
      "stateMutability": "view",
      "type": "function"
    },
    {
      "inputs": [
        {
          "internalType": "contract IERC20",
          "name": "",
          "type": "address"
        },
        {
          "internalType": "address",
          "name": "",
          "type": "address"
        }
      ],
      "name": "assetYieldMeta",
      "outputs": [
        {
          "internalType": "uint256",
          "name": "cumulConvCheckpt",
          "type": "uint256"
        },
        {
          "internalType": "uint256",
          "name": "rewardsSinceCheckpt",
          "type": "uint256"
        }
      ],
      "stateMutability": "view",
      "type": "function"
    },
    {
      "inputs": [],
      "name": "charactersPlayed",
      "outputs": [
        {
          "internalType": "uint256[]",
          "name": "",
          "type": "uint256[]"
        }
      ],
      "stateMutability": "view",
      "type": "function"
    },
    {
      "inputs": [
        {
          "internalType": "address",
          "name": "token",
          "type": "address"
        }
      ],
      "name": "checkApprovedAndEncode",
      "outputs": [
        {
          "internalType": "bool",
          "name": "",
          "type": "bool"
        },
        {
          "internalType": "bytes",
          "name": "",
          "type": "bytes"
        }
      ],
      "stateMutability": "view",
      "type": "function"
    },
    {
      "inputs": [
        {
          "internalType": "uint256",
          "name": "trancheId",
          "type": "uint256"
        },
        {
          "internalType": "address",
          "name": "currency",
          "type": "address"
        },
        {
          "internalType": "address",
          "name": "recipient",
          "type": "address"
        }
      ],
      "name": "collectYield",
      "outputs": [
        {
          "internalType": "uint256",
          "name": "",
          "type": "uint256"
        }
      ],
      "stateMutability": "nonpayable",
      "type": "function"
    },
    {
      "inputs": [
        {
          "internalType": "uint256",
          "name": "trancheId",
          "type": "uint256"
        },
        {
          "internalType": "address",
          "name": "_yieldCurrency",
          "type": "address"
        },
        {
          "internalType": "address",
          "name": "valueCurrency",
          "type": "address"
        },
        {
          "internalType": "address",
          "name": "recipient",
          "type": "address"
        }
      ],
      "name": "collectYieldValueBorrowable",
      "outputs": [
        {
          "internalType": "uint256",
          "name": "yield",
          "type": "uint256"
        },
        {
          "internalType": "uint256",
          "name": "value",
          "type": "uint256"
        },
        {
          "internalType": "uint256",
          "name": "borrowablePer10k",
          "type": "uint256"
        }
      ],
      "stateMutability": "nonpayable",
      "type": "function"
    },
    {
      "inputs": [
        {
          "internalType": "contract IERC20",
          "name": "rewardToken",
          "type": "address"
        },
        {
          "internalType": "uint256",
          "name": "rewardAmount",
          "type": "uint256"
        },
        {
          "internalType": "uint256",
          "name": "targetBid",
          "type": "uint256"
        }
      ],
      "name": "convertReward2Stable",
      "outputs": [],
      "stateMutability": "nonpayable",
      "type": "function"
    },
    {
      "inputs": [],
      "name": "dependsOnCharacters",
      "outputs": [
        {
          "internalType": "uint256[]",
          "name": "",
          "type": "uint256[]"
        }
      ],
      "stateMutability": "view",
      "type": "function"
    },
    {
      "inputs": [],
      "name": "dependsOnRoles",
      "outputs": [
        {
          "internalType": "uint256[]",
          "name": "",
          "type": "uint256[]"
        }
      ],
      "stateMutability": "view",
      "type": "function"
    },
    {
      "inputs": [
        {
          "internalType": "address",
          "name": "token",
          "type": "address"
        },
        {
          "internalType": "bytes",
          "name": "",
          "type": "bytes"
        }
      ],
      "name": "disapproveToken",
      "outputs": [],
      "stateMutability": "nonpayable",
      "type": "function"
    },
    {
      "inputs": [],
      "name": "disapprovedTokensCount",
      "outputs": [
        {
          "internalType": "uint256",
          "name": "",
          "type": "uint256"
        }
      ],
      "stateMutability": "view",
      "type": "function"
    },
    {
      "inputs": [],
      "name": "feePer10k",
      "outputs": [
        {
          "internalType": "uint256",
          "name": "",
          "type": "uint256"
        }
      ],
      "stateMutability": "view",
      "type": "function"
    },
    {
      "inputs": [
        {
          "internalType": "address",
          "name": "token",
          "type": "address"
        }
      ],
      "name": "harvestPartially",
      "outputs": [],
      "stateMutability": "nonpayable",
      "type": "function"
    },
    {
      "inputs": [],
      "name": "isActive",
      "outputs": [
        {
          "internalType": "bool",
          "name": "",
          "type": "bool"
        }
      ],
      "stateMutability": "view",
      "type": "function"
    },
    {
      "inputs": [],
      "name": "joe",
      "outputs": [
        {
          "internalType": "address",
          "name": "",
          "type": "address"
        }
      ],
      "stateMutability": "view",
      "type": "function"
    },
    {
      "inputs": [
        {
          "internalType": "uint256",
          "name": "",
          "type": "uint256"
        }
      ],
      "name": "mainCharacterCache",
      "outputs": [
        {
          "internalType": "address",
          "name": "",
          "type": "address"
        }
      ],
      "stateMutability": "view",
      "type": "function"
    },
    {
      "inputs": [
        {
          "internalType": "address",
          "name": "destination",
          "type": "address"
        }
      ],
      "name": "migrateAllTo",
      "outputs": [],
      "stateMutability": "nonpayable",
      "type": "function"
    },
    {
      "inputs": [
        {
          "internalType": "uint256",
          "name": "trancheId",
          "type": "uint256"
        },
        {
          "internalType": "address",
          "name": "targetStrategy",
          "type": "address"
        },
        {
          "internalType": "address",
          "name": "yieldToken",
          "type": "address"
        },
        {
          "internalType": "address",
          "name": "yieldRecipient",
          "type": "address"
        }
      ],
      "name": "migrateStrategy",
      "outputs": [
        {
          "internalType": "address",
          "name": "",
          "type": "address"
        },
        {
          "internalType": "uint256",
          "name": "",
          "type": "uint256"
        },
        {
          "internalType": "uint256",
          "name": "",
          "type": "uint256"
        }
      ],
      "stateMutability": "nonpayable",
      "type": "function"
    },
    {
      "inputs": [],
      "name": "minimumBidPer10k",
      "outputs": [
        {
          "internalType": "uint256",
          "name": "",
          "type": "uint256"
        }
      ],
      "stateMutability": "view",
      "type": "function"
    },
    {
      "inputs": [
        {
          "internalType": "address",
          "name": "token",
          "type": "address"
        },
        {
          "internalType": "address",
          "name": "pegCurrency",
          "type": "address"
        }
      ],
      "name": "newCurrentOracle",
      "outputs": [],
      "stateMutability": "nonpayable",
      "type": "function"
    },
    {
      "inputs": [
        {
          "internalType": "contract IERC20",
          "name": "",
          "type": "address"
        },
        {
          "internalType": "uint256",
          "name": "",
          "type": "uint256"
        }
      ],
      "name": "pendingConvertedReward",
      "outputs": [
        {
          "internalType": "uint256",
          "name": "convertedStable",
          "type": "uint256"
        },
        {
          "internalType": "uint256",
          "name": "sourceRewards",
          "type": "uint256"
        }
      ],
      "stateMutability": "view",
      "type": "function"
    },
    {
      "inputs": [
        {
          "internalType": "address",
          "name": "depositor",
          "type": "address"
        },
        {
          "internalType": "uint256",
          "name": "trancheId",
          "type": "uint256"
        },
        {
          "internalType": "uint256",
          "name": "amount",
          "type": "uint256"
        },
        {
          "internalType": "address",
          "name": "yieldRecipient",
          "type": "address"
        }
      ],
      "name": "registerDepositFor",
      "outputs": [],
      "stateMutability": "nonpayable",
      "type": "function"
    },
    {
      "inputs": [
        {
          "internalType": "address",
          "name": "minter",
          "type": "address"
        },
        {
          "internalType": "uint256",
          "name": "trancheId",
          "type": "uint256"
        },
        {
          "internalType": "address",
          "name": "assetToken",
          "type": "address"
        },
        {
          "internalType": "uint256",
          "name": "",
          "type": "uint256"
        },
        {
          "internalType": "uint256",
          "name": "assetAmount",
          "type": "uint256"
        }
      ],
      "name": "registerMintTranche",
      "outputs": [],
      "stateMutability": "nonpayable",
      "type": "function"
    },
    {
      "inputs": [
        {
          "internalType": "address",
          "name": "yieldBearingToken",
          "type": "address"
        },
        {
          "internalType": "address",
          "name": "rewardToken",
          "type": "address"
        }
      ],
      "name": "removeRewardToken",
      "outputs": [],
      "stateMutability": "nonpayable",
      "type": "function"
    },
    {
      "inputs": [
        {
          "internalType": "address",
          "name": "token",
          "type": "address"
        },
        {
          "internalType": "uint256",
          "name": "amount",
          "type": "uint256"
        },
        {
          "internalType": "address",
          "name": "recipient",
          "type": "address"
        }
      ],
      "name": "rescueCollateral",
      "outputs": [],
      "stateMutability": "nonpayable",
      "type": "function"
    },
    {
      "inputs": [
        {
          "internalType": "uint256",
          "name": "amount",
          "type": "uint256"
        },
        {
          "internalType": "address",
          "name": "recipient",
          "type": "address"
        }
      ],
      "name": "rescueNative",
      "outputs": [],
      "stateMutability": "nonpayable",
      "type": "function"
    },
    {
      "inputs": [
        {
          "internalType": "address",
          "name": "token",
          "type": "address"
        },
        {
          "internalType": "uint256",
          "name": "amount",
          "type": "uint256"
        },
        {
          "internalType": "address",
          "name": "recipient",
          "type": "address"
        }
      ],
      "name": "rescueStrandedTokens",
      "outputs": [],
      "stateMutability": "nonpayable",
      "type": "function"
    },
    {
      "inputs": [
        {
          "internalType": "contract IERC20",
          "name": "",
          "type": "address"
        }
      ],
      "name": "rewardBalanceAccountedFor",
      "outputs": [
        {
          "internalType": "uint256",
          "name": "",
          "type": "uint256"
        }
      ],
      "stateMutability": "view",
      "type": "function"
    },
    {
      "inputs": [
        {
          "internalType": "address",
          "name": "",
          "type": "address"
        },
        {
          "internalType": "uint256",
          "name": "",
          "type": "uint256"
        }
      ],
      "name": "roleCache",
      "outputs": [
        {
          "internalType": "bool",
          "name": "",
          "type": "bool"
        }
      ],
      "stateMutability": "view",
      "type": "function"
    },
    {
      "inputs": [],
      "name": "roles",
      "outputs": [
        {
          "internalType": "contract Roles",
          "name": "",
          "type": "address"
        }
      ],
      "stateMutability": "view",
      "type": "function"
    },
    {
      "inputs": [],
      "name": "rolesPlayed",
      "outputs": [
        {
          "internalType": "uint256[]",
          "name": "",
          "type": "uint256[]"
        }
      ],
      "stateMutability": "view",
      "type": "function"
    },
    {
      "inputs": [],
      "name": "sJoe",
      "outputs": [
        {
          "internalType": "contract IsJoe",
          "name": "",
          "type": "address"
        }
      ],
      "stateMutability": "view",
      "type": "function"
    },
    {
      "inputs": [
        {
          "internalType": "uint256",
          "name": "smoothing",
          "type": "uint256"
        }
      ],
      "name": "setApfSmoothingPer10k",
      "outputs": [],
      "stateMutability": "nonpayable",
      "type": "function"
    },
    {
      "inputs": [
        {
          "internalType": "uint256",
          "name": "fee",
          "type": "uint256"
        }
      ],
      "name": "setFeePer10k",
      "outputs": [],
      "stateMutability": "nonpayable",
      "type": "function"
    },
    {
      "inputs": [
        {
          "internalType": "uint256",
          "name": "bidmin",
          "type": "uint256"
        }
      ],
      "name": "setMinimumBidPer10k",
      "outputs": [],
      "stateMutability": "nonpayable",
      "type": "function"
    },
    {
      "inputs": [
        {
          "internalType": "address",
          "name": "",
          "type": "address"
        }
      ],
      "name": "stabilityFeePer10k",
      "outputs": [
        {
          "internalType": "uint256",
          "name": "",
          "type": "uint256"
        }
      ],
      "stateMutability": "view",
      "type": "function"
    },
    {
      "inputs": [],
      "name": "strategyName",
      "outputs": [
        {
          "internalType": "bytes32",
          "name": "",
          "type": "bytes32"
        }
      ],
      "stateMutability": "view",
      "type": "function"
    },
    {
      "inputs": [
        {
          "internalType": "address",
          "name": "token",
          "type": "address"
        }
      ],
      "name": "tallyHarvestBalance",
      "outputs": [
        {
          "internalType": "uint256",
          "name": "balance",
          "type": "uint256"
        }
      ],
      "stateMutability": "nonpayable",
      "type": "function"
    },
    {
      "inputs": [
        {
          "internalType": "contract IERC20",
          "name": "rewardToken",
          "type": "address"
        },
        {
          "internalType": "address",
          "name": "token",
          "type": "address"
        }
      ],
      "name": "tallyHarvestBalance",
      "outputs": [
        {
          "internalType": "uint256",
          "name": "balance",
          "type": "uint256"
        }
      ],
      "stateMutability": "nonpayable",
      "type": "function"
    },
    {
      "inputs": [
        {
          "internalType": "address",
          "name": "token",
          "type": "address"
        }
      ],
      "name": "tallyReward",
      "outputs": [],
      "stateMutability": "nonpayable",
      "type": "function"
    },
    {
      "inputs": [
        {
          "internalType": "contract IERC20",
          "name": "rewardToken",
          "type": "address"
        },
        {
          "internalType": "address",
          "name": "token",
          "type": "address"
        }
      ],
      "name": "tallyReward",
      "outputs": [],
      "stateMutability": "nonpayable",
      "type": "function"
    },
    {
      "inputs": [
        {
          "internalType": "address",
          "name": "",
          "type": "address"
        }
      ],
      "name": "tokenMetadata",
      "outputs": [
        {
          "internalType": "uint256",
          "name": "totalCollateralThisPhase",
          "type": "uint256"
        },
        {
          "internalType": "uint256",
          "name": "totalCollateralNow",
          "type": "uint256"
        },
        {
          "internalType": "uint256",
          "name": "apfLastUpdated",
          "type": "uint256"
        },
        {
          "internalType": "uint256",
          "name": "apf",
          "type": "uint256"
        }
      ],
      "stateMutability": "view",
      "type": "function"
    },
    {
      "inputs": [
        {
          "internalType": "uint256",
          "name": "trancheId",
          "type": "uint256"
        }
      ],
      "name": "tranche",
      "outputs": [
        {
          "internalType": "address",
          "name": "",
          "type": "address"
        }
      ],
      "stateMutability": "view",
      "type": "function"
    },
    {
      "inputs": [
        {
          "internalType": "uint256",
          "name": "trancheId",
          "type": "uint256"
        }
      ],
      "name": "trancheToken",
      "outputs": [
        {
          "internalType": "address",
          "name": "token",
          "type": "address"
        }
      ],
      "stateMutability": "view",
      "type": "function"
    },
    {
      "inputs": [
        {
          "internalType": "uint256",
          "name": "",
          "type": "uint256"
        }
      ],
      "name": "trancheTokenID",
      "outputs": [
        {
          "internalType": "uint256",
          "name": "",
          "type": "uint256"
        }
      ],
      "stateMutability": "pure",
      "type": "function"
    },
    {
      "inputs": [
        {
          "internalType": "uint256",
          "name": "role",
          "type": "uint256"
        }
      ],
      "name": "updateMainCharacterCache",
      "outputs": [],
      "stateMutability": "nonpayable",
      "type": "function"
    },
    {
      "inputs": [
        {
          "internalType": "uint256",
          "name": "role",
          "type": "uint256"
        },
        {
          "internalType": "address",
          "name": "contr",
          "type": "address"
        }
      ],
      "name": "updateRoleCache",
      "outputs": [],
      "stateMutability": "nonpayable",
      "type": "function"
    },
    {
      "inputs": [
        {
          "internalType": "address",
          "name": "token",
          "type": "address"
        }
      ],
      "name": "viewAPF",
      "outputs": [
        {
          "internalType": "uint256",
          "name": "",
          "type": "uint256"
        }
      ],
      "stateMutability": "view",
      "type": "function"
    },
    {
      "inputs": [],
      "name": "viewAllApprovedTokens",
      "outputs": [
        {
          "internalType": "address[]",
          "name": "",
          "type": "address[]"
        }
      ],
      "stateMutability": "view",
      "type": "function"
    },
    {
      "inputs": [],
      "name": "viewAllDisapprovedTokenStrategyMetadata",
      "outputs": [
        {
          "components": [
            {
              "internalType": "address",
              "name": "strategy",
              "type": "address"
            },
            {
              "internalType": "address",
              "name": "token",
              "type": "address"
            },
            {
              "internalType": "uint256",
              "name": "APF",
              "type": "uint256"
            },
            {
              "internalType": "uint256",
              "name": "totalCollateral",
              "type": "uint256"
            },
            {
              "internalType": "uint256",
              "name": "borrowablePer10k",
              "type": "uint256"
            },
            {
              "internalType": "uint256",
              "name": "valuePer1e18",
              "type": "uint256"
            },
            {
              "internalType": "bytes32",
              "name": "strategyName",
              "type": "bytes32"
            },
            {
              "internalType": "uint256",
              "name": "tvl",
              "type": "uint256"
            },
            {
              "internalType": "uint256",
              "name": "harvestBalance2Tally",
              "type": "uint256"
            },
            {
              "internalType": "enum IStrategy.YieldType",
              "name": "yieldType",
              "type": "uint8"
            },
            {
              "internalType": "uint256",
              "name": "stabilityFee",
              "type": "uint256"
            },
            {
              "internalType": "address",
              "name": "underlyingStrategy",
              "type": "address"
            }
          ],
          "internalType": "struct IStrategy.StrategyMetadata[]",
          "name": "",
          "type": "tuple[]"
        }
      ],
      "stateMutability": "view",
      "type": "function"
    },
    {
      "inputs": [],
      "name": "viewAllDisapprovedTokens",
      "outputs": [
        {
          "internalType": "address[]",
          "name": "",
          "type": "address[]"
        }
      ],
      "stateMutability": "view",
      "type": "function"
    },
    {
      "inputs": [],
      "name": "viewAllFeesEver",
      "outputs": [
        {
          "internalType": "uint256",
          "name": "",
          "type": "uint256"
        }
      ],
      "stateMutability": "view",
      "type": "function"
    },
    {
      "inputs": [],
      "name": "viewAllStrategyMetadata",
      "outputs": [
        {
          "components": [
            {
              "internalType": "address",
              "name": "strategy",
              "type": "address"
            },
            {
              "internalType": "address",
              "name": "token",
              "type": "address"
            },
            {
              "internalType": "uint256",
              "name": "APF",
              "type": "uint256"
            },
            {
              "internalType": "uint256",
              "name": "totalCollateral",
              "type": "uint256"
            },
            {
              "internalType": "uint256",
              "name": "borrowablePer10k",
              "type": "uint256"
            },
            {
              "internalType": "uint256",
              "name": "valuePer1e18",
              "type": "uint256"
            },
            {
              "internalType": "bytes32",
              "name": "strategyName",
              "type": "bytes32"
            },
            {
              "internalType": "uint256",
              "name": "tvl",
              "type": "uint256"
            },
            {
              "internalType": "uint256",
              "name": "harvestBalance2Tally",
              "type": "uint256"
            },
            {
              "internalType": "enum IStrategy.YieldType",
              "name": "yieldType",
              "type": "uint8"
            },
            {
              "internalType": "uint256",
              "name": "stabilityFee",
              "type": "uint256"
            },
            {
              "internalType": "address",
              "name": "underlyingStrategy",
              "type": "address"
            }
          ],
          "internalType": "struct IStrategy.StrategyMetadata[]",
          "name": "",
          "type": "tuple[]"
        }
      ],
      "stateMutability": "view",
      "type": "function"
    },
    {
      "inputs": [],
      "name": "viewAllTokensEver",
      "outputs": [
        {
          "internalType": "address[]",
          "name": "",
          "type": "address[]"
        }
      ],
      "stateMutability": "view",
      "type": "function"
    },
    {
      "inputs": [
        {
          "internalType": "uint256",
          "name": "trancheId",
          "type": "uint256"
        }
      ],
      "name": "viewBorrowable",
      "outputs": [
        {
          "internalType": "uint256",
          "name": "borrowablePer10k",
          "type": "uint256"
        }
      ],
      "stateMutability": "view",
      "type": "function"
    },
    {
      "inputs": [
        {
          "internalType": "address",
          "name": "token",
          "type": "address"
        }
      ],
      "name": "viewEstimatedHarvestable",
      "outputs": [
        {
          "internalType": "uint256",
          "name": "",
          "type": "uint256"
        }
      ],
      "stateMutability": "view",
      "type": "function"
    },
    {
      "inputs": [
        {
          "internalType": "address",
          "name": "token",
          "type": "address"
        }
      ],
      "name": "viewHarvestBalance2Tally",
      "outputs": [
        {
          "internalType": "uint256",
          "name": "balance",
          "type": "uint256"
        }
      ],
      "stateMutability": "view",
      "type": "function"
    },
    {
      "inputs": [
        {
          "internalType": "contract IERC20",
          "name": "rewardToken",
          "type": "address"
        },
        {
          "internalType": "address",
          "name": "token",
          "type": "address"
        }
      ],
      "name": "viewHarvestBalance2Tally",
      "outputs": [
        {
          "internalType": "uint256",
          "name": "",
          "type": "uint256"
        }
      ],
      "stateMutability": "view",
      "type": "function"
    },
    {
      "inputs": [
        {
          "internalType": "address",
          "name": "yieldBearingToken",
          "type": "address"
        }
      ],
      "name": "viewRewardTokens",
      "outputs": [
        {
          "internalType": "address[]",
          "name": "",
          "type": "address[]"
        }
      ],
      "stateMutability": "view",
      "type": "function"
    },
    {
      "inputs": [
        {
          "internalType": "address",
          "name": "",
          "type": "address"
        }
      ],
      "name": "viewSourceHarvestable",
      "outputs": [
        {
          "internalType": "uint256",
          "name": "",
          "type": "uint256"
        }
      ],
      "stateMutability": "view",
      "type": "function"
    },
    {
      "inputs": [
        {
          "internalType": "address",
          "name": "token",
          "type": "address"
        }
      ],
      "name": "viewStrategyMetadata",
      "outputs": [
        {
          "components": [
            {
              "internalType": "address",
              "name": "strategy",
              "type": "address"
            },
            {
              "internalType": "address",
              "name": "token",
              "type": "address"
            },
            {
              "internalType": "uint256",
              "name": "APF",
              "type": "uint256"
            },
            {
              "internalType": "uint256",
              "name": "totalCollateral",
              "type": "uint256"
            },
            {
              "internalType": "uint256",
              "name": "borrowablePer10k",
              "type": "uint256"
            },
            {
              "internalType": "uint256",
              "name": "valuePer1e18",
              "type": "uint256"
            },
            {
              "internalType": "bytes32",
              "name": "strategyName",
              "type": "bytes32"
            },
            {
              "internalType": "uint256",
              "name": "tvl",
              "type": "uint256"
            },
            {
              "internalType": "uint256",
              "name": "harvestBalance2Tally",
              "type": "uint256"
            },
            {
              "internalType": "enum IStrategy.YieldType",
              "name": "yieldType",
              "type": "uint8"
            },
            {
              "internalType": "uint256",
              "name": "stabilityFee",
              "type": "uint256"
            },
            {
              "internalType": "address",
              "name": "underlyingStrategy",
              "type": "address"
            }
          ],
          "internalType": "struct IStrategy.StrategyMetadata",
          "name": "",
          "type": "tuple"
        }
      ],
      "stateMutability": "view",
      "type": "function"
    },
    {
      "inputs": [
        {
          "internalType": "uint256",
          "name": "trancheId",
          "type": "uint256"
        }
      ],
      "name": "viewTargetCollateralAmount",
      "outputs": [
        {
          "internalType": "uint256",
          "name": "",
          "type": "uint256"
        }
      ],
      "stateMutability": "view",
      "type": "function"
    },
    {
      "inputs": [
        {
          "internalType": "address",
          "name": "",
          "type": "address"
        }
      ],
      "name": "viewUnderlyingStrategy",
      "outputs": [
        {
          "internalType": "address",
          "name": "",
          "type": "address"
        }
      ],
      "stateMutability": "view",
      "type": "function"
    },
    {
      "inputs": [
        {
          "internalType": "uint256",
          "name": "trancheId",
          "type": "uint256"
        },
        {
          "internalType": "address",
          "name": "valueCurrency",
          "type": "address"
        }
      ],
      "name": "viewValue",
      "outputs": [
        {
          "internalType": "uint256",
          "name": "value",
          "type": "uint256"
        }
      ],
      "stateMutability": "view",
      "type": "function"
    },
    {
      "inputs": [
        {
          "internalType": "uint256",
          "name": "trancheId",
          "type": "uint256"
        },
        {
          "internalType": "address",
          "name": "valueCurrency",
          "type": "address"
        }
      ],
      "name": "viewValueBorrowable",
      "outputs": [
        {
          "internalType": "uint256",
          "name": "value",
          "type": "uint256"
        },
        {
          "internalType": "uint256",
          "name": "borrowable",
          "type": "uint256"
        }
      ],
      "stateMutability": "view",
      "type": "function"
    },
    {
      "inputs": [
        {
          "internalType": "uint256",
          "name": "trancheId",
          "type": "uint256"
        },
        {
          "internalType": "address",
          "name": "currency",
          "type": "address"
        }
      ],
      "name": "viewYield",
      "outputs": [
        {
          "internalType": "uint256",
          "name": "",
          "type": "uint256"
        }
      ],
      "stateMutability": "view",
      "type": "function"
    },
    {
      "inputs": [
        {
          "internalType": "uint256",
          "name": "trancheId",
          "type": "uint256"
        },
        {
          "internalType": "address",
          "name": "_yieldCurrency",
          "type": "address"
        },
        {
          "internalType": "address",
          "name": "valueCurrency",
          "type": "address"
        }
      ],
      "name": "viewYieldValueBorrowable",
      "outputs": [
        {
          "internalType": "uint256",
          "name": "yield",
          "type": "uint256"
        },
        {
          "internalType": "uint256",
          "name": "value",
          "type": "uint256"
        },
        {
          "internalType": "uint256",
          "name": "borrowablePer10k",
          "type": "uint256"
        }
      ],
      "stateMutability": "view",
      "type": "function"
    },
    {
      "inputs": [
        {
          "internalType": "uint256",
          "name": "trancheId",
          "type": "uint256"
        },
        {
          "internalType": "uint256",
          "name": "amount",
          "type": "uint256"
        },
        {
          "internalType": "address",
          "name": "yieldToken",
          "type": "address"
        },
        {
          "internalType": "address",
          "name": "recipient",
          "type": "address"
        }
      ],
      "name": "withdraw",
      "outputs": [],
      "stateMutability": "nonpayable",
      "type": "function"
    },
    {
      "inputs": [],
      "name": "wrappedNative",
      "outputs": [
        {
          "internalType": "contract IWETH",
          "name": "",
          "type": "address"
        }
      ],
      "stateMutability": "view",
      "type": "function"
    },
    {
      "inputs": [],
      "name": "xJoe",
      "outputs": [
        {
          "internalType": "address",
          "name": "",
          "type": "address"
        }
      ],
      "stateMutability": "view",
      "type": "function"
    },
    {
      "inputs": [],
      "name": "yieldCurrency",
      "outputs": [
        {
          "internalType": "address",
          "name": "",
          "type": "address"
        }
      ],
      "stateMutability": "view",
      "type": "function"
    },
    {
      "inputs": [],
      "name": "yieldType",
      "outputs": [
        {
          "internalType": "enum IStrategy.YieldType",
          "name": "",
          "type": "uint8"
        }
      ],
      "stateMutability": "pure",
      "type": "function"
    },
    {
      "stateMutability": "payable",
      "type": "receive"
    }
  ],
  "bytecode": "0x6101406040526009805460ff191660011790556113886011556125e46018556103e86019553480156200003157600080fd5b506040516200578e3803806200578e83398101604081905262000054916200041c565b8263734a6f6560e01b82806001600160a01b038116620000c55760405162461bcd60e51b815260206004820152602260248201527f506c656173652070726f766964652076616c696420726f6c6573206164647265604482015261737360f01b606482015260840160405180910390fd5b60601b6001600160601b0319166080526002805460018082018355606a6000805160206200576e8339815191529283015560058054808301825560047f036b6384b5eca791c62761152d0c79bb0604c104a5fb6f4eb0703f3154bb3db09182018190558554808501875560669086015582548085019093559101849055835480830185556068908401556003805480840182557fc2575a0e9e593c00f959f8c92f12db2869c3395a3b0502d05e2516446f71f85b908101829055815480850190925501829055835491820184556000939093526069910181905560405163b4ed0b6d60e01b8152918201526001600160a01b0382169063b4ed0b6d9060240160206040518083038186803b158015620001dd57600080fd5b505afa158015620001f2573d6000803e3d6000fd5b505050506040513d601f19601f82011682018060405250810190620002189190620003ff565b6001600160a01b031663fae794e66040518163ffffffff1660e01b815260040160206040518083038186803b1580156200025157600080fd5b505afa15801562000266573d6000803e3d6000fd5b505050506040513d601f19601f820116820180604052508101906200028c91906200053e565b60a052506001600881905560c091909152600280549182018155600090815260676000805160206200576e833981519152909201919091556001600160601b0319606092831b811660e05286831b8116610120529187901b909116610100525b808351111562000364576200034e8382815181106200031b57634e487b7160e01b600052603260045260246000fd5b6020908102919091018101516001600160a01b03881660009081526017835260409020916200308d62000370821b17901c565b50806200035b8162000557565b915050620002ec565b50505050505062000595565b600062000387836001600160a01b03841662000390565b90505b92915050565b6000818152600183016020526040812054620003d9575081546001818101845560008481526020808220909301849055845484825282860190935260409020919091556200038a565b5060006200038a565b80516001600160a01b0381168114620003fa57600080fd5b919050565b60006020828403121562000411578081fd5b6200038782620003e2565b600080600080600060a0868803121562000434578081fd5b6200043f86620003e2565b9450602062000450818801620003e2565b94506200046060408801620003e2565b60608801519094506001600160401b03808211156200047d578384fd5b818901915089601f83011262000491578384fd5b815181811115620004a657620004a66200057f565b8060051b604051601f19603f83011681018181108582111715620004ce57620004ce6200057f565b604052828152858101935084860182860187018e1015620004ed578788fd5b8795505b838610156200051a576200050581620003e2565b855260019590950194938601938601620004f1565b508097505050505050506200053260808701620003e2565b90509295509295909350565b60006020828403121562000550578081fd5b5051919050565b60006000198214156200057857634e487b7160e01b81526011600452602481fd5b5060010190565b634e487b7160e01b600052604160045260246000fd5b60805160601c60a05160c05160e05160601c6101005160601c6101205160601c6151066200066860003960008181610bc80152818161331f015281816133e0015281816141e501528181614374015281816143da0152818161446e015261451301526000818161080c015281816142410152614290015260008181610e7d0152611cd5015260008181610d7501526111ff0152600061269f0152600081816106c10152818161100b01528181611a83015281816131f501528181613288015281816135ac0152613b8a01526151066000f3fe6080604052600436106103b25760003560e01c8062df88b4146103bb57806301c7b9f8146104145780630581f3b51461044257806306b8ce9914610463578063071060a6146104785780630a3017d9146104985780630ccc5bd6146104b85780630d749628146104d8578063110acb23146104ee57806313710eb81461051b57806318af4c9e1461053b5780631dc3a7591461055b5780631f7ea8811461057657806321fa0f1f1461059657806322f3e2d4146105b857806323cb2390146105e25780632642b6061461060257806326473a8f1461044257806328f3fc73146106505780632d9c454614610670578063392f5f64146106af5780633a3db435146106e35780633ace96ec14610703578063447d52ba14610723578063459ba1271461074357806349d4f22e146107635780634a7a7f41146107835780634d9d01b2146107a55780634df87c09146107ba578063525e8269146107da57806360384fdf146107fa578063662af0441461082e5780636caa9c11146108565780636fecdf241461087657806371b3177a146108db5780637268d1c0146108fb57806379251d881461091b578063794a41cc1461093b5780637a1a04df146109685780637b2c9279146109a35780637dad209b146109b85780638496e891146109cd57806389f117b314610a085780638a31b98f14610a285780639470505f14610a485780639b0f09ae14610a68578063a4d77f9014610a84578063a50233c914610aa4578063a51c8fab14610ac4578063abcbc4fc14610ae6578063ad89b79414610b06578063aeb38d8b14610b1b578063b06ea8f014610b3b578063b23d66c214610b51578063b832799314610b96578063b985a3a014610bb6578063b9bcce1c14610bea578063bf184ea414610c0a578063c5c72dc314610c2a578063c6ec154814610c4a578063d0d9ab5914610c78578063d0e1b89714610c8d578063d241c9c014610cad578063d2d719d614610ccd578063d6e113ab14610ce3578063d7fb7b3114610d03578063d9cb512c14610d19578063dc94cb7d14610d2e578063e12c11d514610d43578063e173ad2514610d63578063e22d284514610d97578063e2e730f614610e00578063e8ea4fae14610e20578063e9c3f77d14610e35578063eb6d3a1114610e6b578063efc1e45914610e9f578063f725ed1014610ebf578063f8903fb714610edf578063f8d6a05d14610eff578063fa98a4ba14610f1f578063fabee7db14610f3f578063fac82e8c14610f5f578063fd80d0c314610f7f578063fe65a5b414610f9f576103b9565b366103b957005b005b3480156103c757600080fd5b506103fa6103d63660046149e5565b60146020908152600092835260408084209091529082529020805460019091015482565b604080519283526020830191909152015b60405180910390f35b34801561042057600080fd5b5061043461042f366004614a5b565b610fbf565b60405190815260200161040b565b34801561044e57600080fd5b5061043461045d3660046147d0565b50600090565b34801561046f57600080fd5b50610434610fe4565b34801561048457600080fd5b506103b9610493366004614a2b565b610ff5565b3480156104a457600080fd5b506104346104b33660046147d0565b6110bb565b3480156104c457600080fd5b506103b96104d33660046148ea565b6110d9565b3480156104e457600080fd5b50610434601a5481565b3480156104fa57600080fd5b5061050e6105093660046147d0565b611162565b60405161040b9190614f80565b34801561052757600080fd5b506103b96105363660046149f7565b611269565b34801561054757600080fd5b506103b9610556366004614a5b565b611575565b34801561056757600080fd5b5061043461045d366004614a2b565b34801561058257600080fd5b506103b9610591366004614840565b61161f565b3480156105a257600080fd5b506105ab6116d7565b60405161040b9190614d4d565b3480156105c457600080fd5b506009546105d29060ff1681565b604051901515815260200161040b565b3480156105ee57600080fd5b506103b96105fd366004614808565b6117a9565b34801561060e57600080fd5b5061064361061d366004614808565b60066020908152600092835260408084209091529082529020546001600160a01b031681565b60405161040b9190614c96565b34801561065c57600080fd5b506103b961066b366004614808565b611814565b34801561067c57600080fd5b506103fa61068b3660046148bf565b60156020908152600092835260408084209091529082529020805460019091015482565b3480156106bb57600080fd5b506106437f000000000000000000000000000000000000000000000000000000000000000081565b3480156106ef57600080fd5b506103b96106fe366004614a2b565b611907565b34801561070f57600080fd5b506103b961071e366004614840565b6119a1565b34801561072f57600080fd5b506103b961073e366004614a5b565b611a6c565b34801561074f57600080fd5b506103b961075e366004614afc565b611b42565b34801561076f57600080fd5b506103b961077e3660046148ea565b611bbb565b34801561078f57600080fd5b50610798611c3e565b60405161040b9190614d90565b3480156107b157600080fd5b50610434611c96565b3480156107c657600080fd5b506105d26107d53660046147d0565b611ca2565b3480156107e657600080fd5b506103b96107f53660046147d0565b611cb5565b34801561080657600080fd5b506106437f000000000000000000000000000000000000000000000000000000000000000081565b34801561083a57600080fd5b50610643731a731b2299e22fbac282e7094eda41046343cb5181565b34801561086257600080fd5b50610434610871366004614a2b565b611d80565b34801561088257600080fd5b506108bb6108913660046147d0565b60126020526000908152604090206001810154600282015460038301546004909301549192909184565b60408051948552602085019390935291830152606082015260800161040b565b3480156108e757600080fd5b506103b96108f6366004614b58565b611da1565b34801561090757600080fd5b50610434610916366004614a2b565b611e7a565b34801561092757600080fd5b506103b9610936366004614808565b611ea0565b34801561094757600080fd5b506104346109563660046147d0565b60166020526000908152604090205481565b34801561097457600080fd5b506105d26109833660046148bf565b600160209081526000928352604080842090915290825290205460ff1681565b3480156109af57600080fd5b50610643611f0b565b3480156109c457600080fd5b50610798611f15565b3480156109d957600080fd5b506109ed6109e8366004614ab5565b611f6b565b6040805193845260208401929092529082015260600161040b565b348015610a1457600080fd5b506103b9610a233660046147d0565b612086565b348015610a3457600080fd5b50610434610a433660046147d0565b612124565b348015610a5457600080fd5b50610434610a633660046147d0565b612186565b348015610a7457600080fd5b50600060405161040b9190614de3565b348015610a9057600080fd5b506103fa610a9f366004614a5b565b6121e1565b348015610ab057600080fd5b506103b9610abf36600461497c565b61220a565b348015610ad057600080fd5b50610ad96122cb565b60405161040b9190614d00565b348015610af257600080fd5b50610434610b01366004614a2b565b6122d7565b348015610b1257600080fd5b506105ab6122e7565b348015610b2757600080fd5b50610434610b36366004614a2b565b6123b2565b348015610b4757600080fd5b5061043460115481565b348015610b5d57600080fd5b50610b71610b6c366004614ab5565b6123c2565b604080516001600160a01b03909416845260208401929092529082015260600161040b565b348015610ba257600080fd5b506103b9610bb136600461492b565b6124d5565b348015610bc257600080fd5b506106437f000000000000000000000000000000000000000000000000000000000000000081565b348015610bf657600080fd5b50610ad9610c053660046147d0565b61258e565b348015610c1657600080fd5b50610434610c25366004614a2b565b6125b2565b348015610c3657600080fd5b50610434610c45366004614a2b565b6125c2565b348015610c5657600080fd5b50610c6a610c653660046147d0565b6125d4565b60405161040b929190614dc8565b348015610c8457600080fd5b50610ad96125fa565b348015610c9957600080fd5b506103b9610ca8366004614a2b565b612606565b348015610cb957600080fd5b50610643610cc8366004614a2b565b612697565b348015610cd957600080fd5b5061043460195481565b348015610cef57600080fd5b50610434610cfe3660046149e5565b612791565b348015610d0f57600080fd5b5061043460185481565b348015610d2557600080fd5b50610ad96129bb565b348015610d3a57600080fd5b506107986129c7565b348015610d4f57600080fd5b506103b9610d5e3660046149e5565b612a1d565b348015610d6f57600080fd5b506104347f000000000000000000000000000000000000000000000000000000000000000081565b348015610da357600080fd5b50610ddc610db2366004614a2b565b6010602052600090815260409020805460018201546002909201549091906001600160a01b031683565b6040805193845260208401929092526001600160a01b03169082015260600161040b565b348015610e0c57600080fd5b50610434610e1b3660046147d0565b612b68565b348015610e2c57600080fd5b50610798612b86565b348015610e4157600080fd5b50610643610e50366004614a2b565b6000602081905290815260409020546001600160a01b031681565b348015610e7757600080fd5b506106437f000000000000000000000000000000000000000000000000000000000000000081565b348015610eab57600080fd5b50610434610eba3660046149e5565b612bdc565b348015610ecb57600080fd5b50610643610eda3660046147d0565b612c72565b348015610eeb57600080fd5b50610434610efa366004614a7f565b612c8b565b348015610f0b57600080fd5b50610434610f1a3660046147d0565b612d7e565b348015610f2b57600080fd5b506109ed610f3a366004614a7f565b612d94565b348015610f4b57600080fd5b50610643610f5a366004614a2b565b612dcf565b348015610f6b57600080fd5b506103b9610f7a3660046147d0565b612ded565b348015610f8b57600080fd5b50610434610f9a366004614a5b565b612fb1565b348015610fab57600080fd5b506103b9610fba366004614a2b565b612ff5565b6000610fdc610fcd84612dcf565b610fd6856125c2565b846130a2565b509392505050565b6000610ff0600c6131e7565b905090565b60405163b4ed0b6d60e01b8152600481018290527f00000000000000000000000000000000000000000000000000000000000000006001600160a01b03169063b4ed0b6d9060240160206040518083038186803b15801561105557600080fd5b505afa158015611069573d6000803e3d6000fd5b505050506040513d601f19601f8201168201806040525081019061108d91906147ec565b60009182526020829052604090912080546001600160a01b0319166001600160a01b03909216919091179055565b6001600160a01b031660009081526012602052604090206004015490565b336110e26131f1565b6001600160a01b031614806111065750336110fb613284565b6001600160a01b0316145b61112b5760405162461bcd60e51b815260040161112290614e04565b60405180910390fd5b6001600160a01b0381166111515760405162461bcd60e51b815260040161112290614ede565b61115c8184846132f5565b50505050565b61116a61473b565b60008061118784670de0b6b3a7640000611182613419565b6130a2565b91509150604051806101800160405280306001600160a01b03168152602001856001600160a01b031681526020016111be866110bb565b815260200160126000876001600160a01b03166001600160a01b031681526020019081526020016000206002015481526020018281526020018381526020017f0000000000000000000000000000000000000000000000000000000000000000815260200161122c86612b68565b815260200161123a86612186565b8152602001600081526020016000815260200161125686612c72565b6001600160a01b03169052949350505050565b6002600854141561128c5760405162461bcd60e51b815260040161112290614f12565b60026008556001600160a01b0383166000908152601660205260408120546112b5908490613451565b9050600081116113075760405162461bcd60e51b815260206004820152601f60248201527f4e6f2063757272656e746c7920636f6e7665727469626c6520726577617264006044820152606401611122565b600061131b8585611316611f0b565b613469565b90506018548161132b9190614fbb565b61133784612710614fbb565b10156113785760405162461bcd60e51b815260206004820152601060248201526f125b9cdd59999a58da595b9d08189a5960821b6044820152606401611122565b6000846113858585614fbb565b61138f9190614fa7565b9050611399611f0b565b6001600160a01b0316639dc29fac33836040518363ffffffff1660e01b81526004016113c6929190614cc4565b600060405180830381600087803b1580156113e057600080fd5b505af11580156113f4573d6000803e3d6000fd5b5050505060006127108260195461140b9190614fbb565b6114159190614fa7565b905061141f611f0b565b6001600160a01b03166340c10f19611435613504565b836040518363ffffffff1660e01b8152600401611453929190614cc4565b600060405180830381600087803b15801561146d57600080fd5b505af1158015611481573d6000803e3d6000fd5b5050505080601a60008282546114979190614f8f565b90915550506001600160a01b0387166000908152601560209081526040808320601383528184205484529091528120601954909190612710906114da9082614fda565b6114e49086614fbb565b6114ee9190614fa7565b8083556001600160a01b038a1660009081526013602052604081208054929350839290919061151e908490614f8f565b9091555061153890506001600160a01b038a16338861353c565b6001600160a01b03891660009081526016602052604081208054889290611560908490614fda565b90915550506001600855505050505050505050565b3361157e6131f1565b6001600160a01b031614806115a2575033611597613284565b6001600160a01b0316145b6115be5760405162461bcd60e51b815260040161112290614e04565b6001600160a01b0381166115e45760405162461bcd60e51b815260040161112290614ede565b6040516001600160a01b0382169083156108fc029084906000818181858888f1935050505015801561161a573d6000803e3d6000fd5b505050565b336116286131f1565b6001600160a01b0316148061164c575033611641613284565b6001600160a01b0316145b8061165b575061165b33613592565b6116b75760405162461bcd60e51b815260206004820152603960248201526000805160206150b1833981519152604482015278391037b91030baba3437b934bd32b21030b1ba34bb30ba37b960391b6064820152608401611122565b6116c2838383613635565b61115c83670de0b6b3a7640000611316613419565b606060006116e5600a6131e7565b90506000816001600160401b0381111561170f57634e487b7160e01b600052604160045260246000fd5b60405190808252806020026020018201604052801561174857816020015b61173561473b565b81526020019060019003908161172d5790505b50905060005b808311156117a257611764610509600a83613688565b82828151811061178457634e487b7160e01b600052603260045260246000fd5b6020026020010181905250808061179a9061501d565b91505061174e565b5091505090565b336117b26131f1565b6001600160a01b031614806117d65750336117cb613284565b6001600160a01b0316145b6117f25760405162461bcd60e51b815260040161112290614e04565b6001600160a01b038216600090815260176020526040902061161a908261308d565b6001600160a01b0382811660009081526006602090815260408083208585168452909152902054161561190357611849613694565b6001600160a01b0316635e73a03483836040518363ffffffff1660e01b8152600401611876929190614caa565b60206040518083038186803b15801561188e57600080fd5b505afa1580156118a2573d6000803e3d6000fd5b505050506040513d601f19601f820116820180604052508101906118c691906147ec565b6001600160a01b0383811660009081526006602090815260408083208685168452909152902080546001600160a01b031916929091169190911790555b5050565b336119106131f1565b6001600160a01b03161480611934575033611929613284565b6001600160a01b0316145b6119505760405162461bcd60e51b815260040161112290614e04565b601181905560408051818152600d918101919091526c61706620736d6f6f7468696e6760981b606082015260208101829052600080516020615091833981519152906080015b60405180910390a150565b336119aa6131f1565b6001600160a01b031614806119ce5750336119c3613284565b6001600160a01b0316145b6119ea5760405162461bcd60e51b815260040161112290614e04565b6119f5600a846136cc565b50611a01600c8461308d565b50611a0a6136e1565b6001600160a01b03166311848c45306040518263ffffffff1660e01b8152600401611a359190614c96565b600060405180830381600087803b158015611a4f57600080fd5b505af1158015611a63573d6000803e3d6000fd5b50505050505050565b60405163f0723d9760e01b81526001600160a01b037f0000000000000000000000000000000000000000000000000000000000000000169063f0723d9790611aba9084908690600401614cc4565b60206040518083038186803b158015611ad257600080fd5b505afa158015611ae6573d6000803e3d6000fd5b505050506040513d601f19601f82011682018060405250810190611b0a91906149c5565b6001600160a01b0391909116600090815260016020908152604080832094835293905291909120805460ff1916911515919091179055565b60026008541415611b655760405162461bcd60e51b815260040161112290614f12565b6002600855611b7385612697565b6001600160a01b0316336001600160a01b031614611ba35760405162461bcd60e51b815260040161112290614eab565b611baf84868584613719565b50506001600855505050565b33611bc46131f1565b6001600160a01b03161480611be8575033611bdd613284565b6001600160a01b0316145b611c045760405162461bcd60e51b815260040161112290614e04565b6001600160a01b038116611c2a5760405162461bcd60e51b815260040161112290614ede565b61161a6001600160a01b038416828461353c565b60606003805480602002602001604051908101604052809291908181526020018280548015611c8c57602002820191906000526020600020905b815481526020019060010190808311611c78575b5050505050905090565b6000610ff0600a6131e7565b6000611caf600a83613769565b92915050565b6001600160a01b03811660009081526017602052604090204715611d48577f00000000000000000000000000000000000000000000000000000000000000006001600160a01b031663d0e30db0476040518263ffffffff1660e01b81526004016000604051808303818588803b158015611d2e57600080fd5b505af1158015611d42573d6000803e3d6000fd5b50505050505b60005b80611d55836131e7565b111561161a57611d6e611d688383613688565b84612a1d565b80611d788161501d565b915050611d4b565b60058181548110611d9057600080fd5b600091825260209091200154905081565b60095460ff16611dc35760405162461bcd60e51b815260040161112290614e4e565b60026008541415611de65760405162461bcd60e51b815260040161112290614f12565b6002600855611df43361377e565b611e3d5760405162461bcd60e51b815260206004820152601a6024820152794e6f7420617574686f72697a656420746f20776974686472617760301b6044820152606401611122565b6001600160a01b038116611e635760405162461bcd60e51b815260040161112290614ede565b611e6f848484846137a7565b505060016008555050565b6000611e99611e8883612dcf565b611e91846125c2565b611182611f0b565b9392505050565b33611ea96131f1565b6001600160a01b03161480611ecd575033611ec2613284565b6001600160a01b0316145b611ee95760405162461bcd60e51b815260040161112290614e04565b6001600160a01b038216600090815260176020526040902061161a90826136cc565b6000610ff0613419565b60606004805480602002602001604051908101604052809291908181526020018280548015611c8c5760200282019190600052602060002090815481526020019060010190808311611c78575050505050905090565b600080600060026008541415611f935760405162461bcd60e51b815260040161112290614f12565b6002600855611fa13361377e565b8061202d5750611fb087612697565b6001600160a01b0316632972b0f033896040518363ffffffff1660e01b8152600401611fdd929190614cc4565b60206040518083038186803b158015611ff557600080fd5b505afa158015612009573d6000803e3d6000fd5b505050506040513d601f19601f8201168201806040525081019061202d91906149c5565b6120495760405162461bcd60e51b815260040161112290614f49565b612054878786613864565b925061207161206288612dcf565b61206b896125c2565b876139af565b60016008559398909750929550919350505050565b600260085414156120a95760405162461bcd60e51b815260040161112290614f12565b6002600855604051632e1a7d4d60e01b815260006004820152731a731b2299e22fbac282e7094eda41046343cb5190632e1a7d4d90602401600060405180830381600087803b1580156120fb57600080fd5b505af115801561210f573d6000803e3d6000fd5b5050505061211c81611cb5565b506001600855565b6001600160a01b0381166000908152601760205260408120815b80612148836131e7565b111561217f5761216161215b8383613688565b85612791565b61216b9084614f8f565b9250806121778161501d565b91505061213e565b5050919050565b6001600160a01b0381166000908152601760205260408120815b806121aa836131e7565b111561217f576121c36121bd8383613688565b85612bdc565b6121cd9084614f8f565b9250806121d98161501d565b9150506121a0565b6000806121ff6121f085612dcf565b6121f9866125c2565b856130a2565b915091509250929050565b60095460ff1661222c5760405162461bcd60e51b815260040161112290614e4e565b6002600854141561224f5760405162461bcd60e51b815260040161112290614f12565b600260085561225d3361377e565b6122b75760405162461bcd60e51b815260206004820152602560248201527f4e6f7420617574686f72697a656420746f207472616e7366657220757365722060448201526466756e647360d81b6064820152608401611122565b611e6f8484846122c5611f0b565b85613a1e565b6060610ff0600a613ab7565b60028181548110611d9057600080fd5b606060006122f5600c6131e7565b90506000816001600160401b0381111561231f57634e487b7160e01b600052604160045260246000fd5b60405190808252806020026020018201604052801561235857816020015b61234561473b565b81526020019060019003908161233d5790505b50905060005b808311156117a257612374610509600c83613688565b82828151811061239457634e487b7160e01b600052603260045260246000fd5b602002602001018190525080806123aa9061501d565b91505061235e565b60048181548110611d9057600080fd5b6009546000908190819060ff166123eb5760405162461bcd60e51b815260040161112290614e4e565b6123f487612697565b6001600160a01b0316336001600160a01b0316146124245760405162461bcd60e51b815260040161112290614eab565b600061242f88612dcf565b9050600061243c896125c2565b9050612449898888613864565b5060006124573084846132f5565b905061246d6001600160a01b0384168a83613ac4565b6001600160a01b03831660009081526012602052604081206002018054839290612498908490614fda565b90915550506000998a52601060205260408a208a8155600181018b905560020180546001600160a01b031916905591999197509095505050505050565b60095460ff166124f75760405162461bcd60e51b815260040161112290614e4e565b6002600854141561251a5760405162461bcd60e51b815260040161112290614f12565b60026008556125283361377e565b801561254457503361253985612697565b6001600160a01b0316145b6125825760405162461bcd60e51b815260206004820152600f60248201526e496e76616c6964207472616e63686560881b6044820152606401611122565b611baf85858584613719565b6001600160a01b0381166000908152601760205260409020606090611caf90613ab7565b60038181548110611d9057600080fd5b60009081526010602052604090205490565b600060606125e183611ca2565b6040518060200160405280600081525091509150915091565b6060610ff0600c613ab7565b3361260f6131f1565b6001600160a01b03161480612633575033612628613284565b6001600160a01b0316145b61264f5760405162461bcd60e51b815260040161112290614e04565b601881905560408051818152600b918101919091526a135a5b9a5b5d5b48189a5960aa1b60608201526020810182905260008051602061509183398151915290608001611996565b6000806126c47f000000000000000000000000000000000000000000000000000000000000000084615038565b6000818152600760205260409020549091506001600160a01b031680611e9957606960009081526020527f366a7b92acda364086cc991f618bf9f10b629ec0f7ae94543f96b691b69ec9925460405163043b4d2f60e51b8152600481018490526001600160a01b0390911690638769a5e09060240160206040518083038186803b15801561275157600080fd5b505afa158015612765573d6000803e3d6000fd5b505050506040513d601f19601f8201168201806040525081019061278991906147ec565b949350505050565b600061279d8383612bdc565b6001600160a01b0380851660008181526014602090815260408083209488168352938152838220838352601582528483208154808552908352858420948452601390925293909120549394509192909110156129b3578215612991578281600001600082825461280d9190614fda565b92505081905550816001015481600101600082825461282c9190614fda565b90915550506001600160a01b03841660009081526012602052604081208054909190612859576000612893565b8154829061286990600190614fda565b8154811061288757634e487b7160e01b600052603260045260246000fd5b90600052602060002001545b6001830154909150156128e95760018201546000906128b6600160401b88614fbb565b6128c09190614fa7565b9050826128cd8284614f8f565b8154600181018355600092835260209092209091015550612984565b815460018101835560008381526020902001819055612906611f0b565b6001600160a01b03166340c10f1961291c613504565b876040518363ffffffff1660e01b815260040161293a929190614cc4565b600060405180830381600087803b15801561295457600080fd5b505af1158015612968573d6000803e3d6000fd5b5050505084601a600082825461297e9190614f8f565b90915550505b5060028101546001909101555b6000600183018190556001600160a01b03861681526013602052604090205482555b505092915050565b6060610ff0600e613ab7565b60606002805480602002602001604051908101604052809291908181526020018280548015611c8c5760200282019190600052602060002090815481526020019060010190808311611c78575050505050905090565b612a2681612124565b506040516370a0823160e01b81526000906001600160a01b038416906370a0823190612a56903090600401614c96565b60206040518083038186803b158015612a6e57600080fd5b505afa158015612a82573d6000803e3d6000fd5b505050506040513d601f19601f82011682018060405250810190612aa69190614a43565b6001600160a01b03841660009081526016602052604081205491925090612acd9083614fda565b9050801561115c576001600160a01b03808516600081815260146020908152604080832094881683529381528382209282526015815283822083548352905291822060018201805492939192859290612b27908490614f8f565b9250508190555082816001016000828254612b429190614f8f565b909155505050506001600160a01b03939093166000908152601660205260409020555050565b6001600160a01b031660009081526012602052604090206002015490565b60606005805480602002602001604051908101604052809291908181526020018280548015611c8c5760200282019190600052602060002090815481526020019060010190808311611c78575050505050905090565b6001600160a01b038083166000818152601460209081526040808320948616835293815283822083835260158252848320815480855290835285842094845260139092529382205491939291118015612c39575060008160010154115b15612c6757600180820154908301548254612c549190614fbb565b612c5e9190614fa7565b92505050611caf565b506000949350505050565b50731a731b2299e22fbac282e7094eda41046343cb5190565b600060026008541415612cb05760405162461bcd60e51b815260040161112290614f12565b6002600855612cbe3361377e565b80612d4a5750612ccd84612697565b6001600160a01b0316632972b0f033866040518363ffffffff1660e01b8152600401612cfa929190614cc4565b60206040518083038186803b158015612d1257600080fd5b505afa158015612d26573d6000803e3d6000fd5b505050506040513d601f19601f82011682018060405250810190612d4a91906149c5565b612d665760405162461bcd60e51b815260040161112290614f49565b612d71848484613864565b6001600855949350505050565b600080612d8a83612186565b611caf9190614f8f565b6000806000612da38686612fb1565b9250612dc0612db187612dcf565b612dba886125c2565b866130a2565b93979096509294509192505050565b6000908152601060205260409020600201546001600160a01b031690565b60095460ff16612e0f5760405162461bcd60e51b815260040161112290614e4e565b33612e186131f1565b6001600160a01b03161480612e3c575033612e31613284565b6001600160a01b0316145b80612e56575033612e4b613b70565b6001600160a01b0316145b612eb15760405162461bcd60e51b815260206004820152603860248201526000805160206150b1833981519152604482015277391037b91030baba3437b934bd32b2103234b9b0b13632b960411b6064820152608401611122565b612eb9613bd4565b5060005b80612ec8600e6131e7565b1115612fa3576000612edb600e83613688565b90506000612ee882612b68565b90506000612ef46136e1565b9050612f018184846132f5565b50612f176001600160a01b038416826000613c25565b612f2d6001600160a01b03841682600019613c25565b60405163269974d160e21b81526001600160a01b03821690639a65d34490612f5b9088908790600401614caa565b600060405180830381600087803b158015612f7557600080fd5b505af1158015612f89573d6000803e3d6000fd5b505050505050508080612f9b9061501d565b915050612ebd565b50506009805460ff19169055565b600082815260106020526040812061278981601284612fcf88612dcf565b6001600160a01b03166001600160a01b0316815260200190815260200160002085613d37565b33612ffe6131f1565b6001600160a01b03161480613022575033613017613284565b6001600160a01b0316145b61303e5760405162461bcd60e51b815260040161112290614e04565b6019819055604080518181526012918101919091527150726f746f636f6c207969656c642066656560701b60608201526020810182905260008051602061509183398151915290608001611996565b6000611e99836001600160a01b038416613e51565b6001600160a01b038084166000908152600660209081526040808320858516845290915281205490918291168061315b576130db613694565b6001600160a01b0316635e73a03487866040518363ffffffff1660e01b8152600401613108929190614caa565b60206040518083038186803b15801561312057600080fd5b505afa158015613134573d6000803e3d6000fd5b505050506040513d601f19601f8201168201806040525081019061315891906147ec565b90505b6040516313f3552960e21b81526001600160a01b03821690634fcd54a49061318b90899089908990600401614cdd565b604080518083038186803b1580156131a257600080fd5b505afa1580156131b6573d6000803e3d6000fd5b505050506040513d601f19601f820116820180604052508101906131da9190614b35565b9097909650945050505050565b6000611caf825490565b60007f00000000000000000000000000000000000000000000000000000000000000006001600160a01b0316638da5cb5b6040518163ffffffff1660e01b815260040160206040518083038186803b15801561324c57600080fd5b505afa158015613260573d6000803e3d6000fd5b505050506040513d601f19601f82011682018060405250810190610ff091906147ec565b60007f00000000000000000000000000000000000000000000000000000000000000006001600160a01b031663c34c08e56040518163ffffffff1660e01b8152600401602060405180830381600087803b1580156132e157600080fd5b505af1158015613260573d6000803e3d6000fd5b60006001600160a01b03841661331d5760405162461bcd60e51b815260040161112290614ede565b7f00000000000000000000000000000000000000000000000000000000000000006001600160a01b0316836001600160a01b03161461336e5760405162461bcd60e51b815260040161112290614e7e565b604051632e1a7d4d60e01b815260048101839052731a731b2299e22fbac282e7094eda41046343cb5190632e1a7d4d90602401600060405180830381600087803b1580156133bb57600080fd5b505af11580156133cf573d6000803e3d6000fd5b506134099250506001600160a01b037f0000000000000000000000000000000000000000000000000000000000000000169050858461353c565b61341283611cb5565b5092915050565b606660009081526020527f422cccb7cea5c0e46f340bb7b21b81debac329f72e31669c20ff0f3a05cc2b5b546001600160a01b031690565b600081831115613462575080611caf565b5081611caf565b6000806134768584613e9b565b604051630576cbc360e41b81529091506001600160a01b0382169063576cbc30906134a990889088908890600401614cdd565b602060405180830381600087803b1580156134c357600080fd5b505af11580156134d7573d6000803e3d6000fd5b505050506040513d601f19601f820116820180604052508101906134fb9190614a43565b95945050505050565b606760009081526020527f682158d08466d11c566d5712d4396197fdd67e65be71d83c97ef719ec468867b546001600160a01b031690565b61161a8363a9059cbb60e01b848460405160240161355b929190614cc4565b60408051601f198184030181529190526020810180516001600160e01b03166001600160e01b031990931692909217909152613f4f565b60405163f0723d9760e01b81526000906001600160a01b037f0000000000000000000000000000000000000000000000000000000000000000169063f0723d97906135e59085906103eb90600401614cc4565b60206040518083038186803b1580156135fd57600080fd5b505afa158015613611573d6000803e3d6000fd5b505050506040513d601f19601f82011682018060405250810190611caf91906149c5565b613640600a8461308d565b5061364c600c846136cc565b50613658600e8461308d565b506001600160a01b0383166000908152601260205260409020612710600482015542600390910155611a0a6136e1565b6000611e998383614021565b606a60009081526020527ff3261457f4fd0b7c00a1511877ab27b74183ac470be8db3a7ecdc64335f6f979546001600160a01b031690565b6000611e99836001600160a01b038416614059565b606860009081526020527faa071f48f62aaaa1f6320aaa7bd2ad2d552d05160892c14d699d38c9920d5f99546001600160a01b031690565b6001600160a01b03821660009081526012602090815260408083208054878552601090935292206001015561374e8484614176565b61376285858461375c611f0b565b89613a1e565b5050505050565b6000611e99836001600160a01b038416614212565b6001600160a01b0316600090815260016020818152604080842092845291905290205460ff1690565b6000848152601060205260408120906137bf86612dcf565b90506137cc868585613864565b506137df856137da886125c2565b613451565b94506137ec8382876132f5565b50848260000160008282546138019190614fda565b90915550506001600160a01b038116600090815260126020526040812060028101805491928892613833908490614fda565b909155505060018301548154111561385f57858160010160008282546138599190614fda565b90915550505b611a63565b60006001600160a01b03821661388c5760405162461bcd60e51b815260040161112290614ede565b613894611f0b565b6001600160a01b0316836001600160a01b0316146138f45760405162461bcd60e51b815260206004820181905260248201527f4f6e6c7920757365206f6666696369616c207969656c642063757272656e63796044820152606401611122565b60008481526010602052604081209060128161390f88612dcf565b6001600160a01b0316815260208101919091526040016000208254909150156139a15761393d828287613d37565b6040516340c10f1960e01b81529093506001600160a01b038616906340c10f199061396e9087908790600401614cc4565b600060405180830381600087803b15801561398857600080fd5b505af115801561399c573d6000803e3d6000fd5b505050505b546001909101559392505050565b60008060006139be8685613e9b565b60405163442fd02b60e11b81529091506001600160a01b0382169063885fa056906139f190899089908990600401614cdd565b6040805180830381600087803b158015613a0a57600080fd5b505af11580156131b6573d6000803e3d6000fd5b6000613a2985612dcf565b9050613a36858484613864565b50613a4286828661422a565b600085815260106020526040902054613a5b8582614f8f565b6000878152601060209081526040808320939093556001600160a01b03851682526012905290812060028101805491928892613a98908490614f8f565b90915550613aad9050878461161a8986614f8f565b5050505050505050565b60606000611e9983614537565b600081846001600160a01b031663dd62ed3e30866040518363ffffffff1660e01b8152600401613af5929190614caa565b60206040518083038186803b158015613b0d57600080fd5b505afa158015613b21573d6000803e3d6000fd5b505050506040513d601f19601f82011682018060405250810190613b459190614a43565b613b4f9190614f8f565b905061115c8463095ea7b360e01b858460405160240161355b929190614cc4565b60405163b4ed0b6d60e01b81526103e960048201526000907f00000000000000000000000000000000000000000000000000000000000000006001600160a01b03169063b4ed0b6d9060240160206040518083038186803b15801561324c57600080fd5b6000805b80613be3600e6131e7565b1115613c21576000613bf6600e83613688565b9050613c0181612124565b613c0b9084614f8f565b9250508080613c199061501d565b915050613bd8565b5090565b801580613cad5750604051636eb1769f60e11b81526001600160a01b0384169063dd62ed3e90613c5b9030908690600401614caa565b60206040518083038186803b158015613c7357600080fd5b505afa158015613c87573d6000803e3d6000fd5b505050506040513d601f19601f82011682018060405250810190613cab9190614a43565b155b613d185760405162461bcd60e51b815260206004820152603660248201527f5361666545524332303a20617070726f76652066726f6d206e6f6e2d7a65726f60448201527520746f206e6f6e2d7a65726f20616c6c6f77616e636560501b6064820152608401611122565b61161a8363095ea7b360e01b848460405160240161355b929190614cc4565b6000613d41611f0b565b6001600160a01b0316826001600160a01b031614613d985760405162461bcd60e51b815260206004820152601460248201527357726f6e67207969656c642063757272656e637960601b6044820152606401611122565b6001840154835484911015613e4757600081866001015481548110613dcd57634e487b7160e01b600052603260045260246000fd5b90600052602060002001548260018480549050613dea9190614fda565b81548110613e0857634e487b7160e01b600052603260045260246000fd5b9060005260206000200154613e1d9190614fda565b9050600160401b818760000154613e349190614fbb565b613e3e9190614fa7565b92505050611e99565b6000915050611e99565b6000613e5d8383614212565b613e9357508154600181810184556000848152602080822090930184905584548482528286019093526040902091909155611caf565b506000611caf565b6001600160a01b03808316600090815260066020908152604080832085851684529091529020541680611caf57613ed0613694565b6001600160a01b0316631757616884846040518363ffffffff1660e01b8152600401613efd929190614caa565b602060405180830381600087803b158015613f1757600080fd5b505af1158015613f2b573d6000803e3d6000fd5b505050506040513d601f19601f82011682018060405250810190611e9991906147ec565b6000613fa4826040518060400160405280602081526020017f5361666545524332303a206c6f772d6c6576656c2063616c6c206661696c6564815250856001600160a01b03166145939092919063ffffffff16565b80519091501561161a5780806020019051810190613fc291906149c5565b61161a5760405162461bcd60e51b815260206004820152602a60248201527f5361666545524332303a204552433230206f7065726174696f6e20646964206e6044820152691bdd081cdd58d8d9595960b21b6064820152608401611122565b600082600001828154811061404657634e487b7160e01b600052603260045260246000fd5b9060005260206000200154905092915050565b6000818152600183016020526040812054801561416c57600061407d600183614fda565b855490915060009061409190600190614fda565b90508181146141125760008660000182815481106140bf57634e487b7160e01b600052603260045260246000fd5b90600052602060002001549050808760000184815481106140f057634e487b7160e01b600052603260045260246000fd5b6000918252602080832090910192909255918252600188019052604090208390555b855486908061413157634e487b7160e01b600052603160045260246000fd5b600190038181906000526020600020016000905590558560010160008681526020019081526020016000206000905560019350505050611caf565b6000915050611caf565b614181600a82613769565b6141c55760405162461bcd60e51b81526020600482015260156024820152742737ba1030b71030b8383937bb32b2103a37b5b2b760591b6044820152606401611122565b50600090815260106020526040902060020180546001600160a01b0319167f00000000000000000000000000000000000000000000000000000000000000006001600160a01b0316179055565b60009081526001919091016020526040902054151590565b61423f6001600160a01b0383168430846145a2565b7f00000000000000000000000000000000000000000000000000000000000000006001600160a01b0316826001600160a01b03161415614372576040516370a0823160e01b81526001600160a01b037f000000000000000000000000000000000000000000000000000000000000000016906367dfd4c99082906370a08231906142cd903090600401614c96565b60206040518083038186803b1580156142e557600080fd5b505afa1580156142f9573d6000803e3d6000fd5b505050506040513d601f19601f8201168201806040525081019061431d9190614a43565b6040518263ffffffff1660e01b815260040161433b91815260200190565b600060405180830381600087803b15801561435557600080fd5b505af1158015614369573d6000803e3d6000fd5b505050506143c3565b7f00000000000000000000000000000000000000000000000000000000000000006001600160a01b0316826001600160a01b0316146143c35760405162461bcd60e51b815260040161112290614e7e565b6040516370a0823160e01b81526001600160a01b037f000000000000000000000000000000000000000000000000000000000000000016906370a082319061440f903090600401614c96565b60206040518083038186803b15801561442757600080fd5b505afa15801561443b573d6000803e3d6000fd5b505050506040513d601f19601f8201168201806040525081019061445f9190614a43565b90506144a96001600160a01b037f000000000000000000000000000000000000000000000000000000000000000016731a731b2299e22fbac282e7094eda41046343cb5183613ac4565b60405163b6b55f2560e01b815260048101829052731a731b2299e22fbac282e7094eda41046343cb519063b6b55f2590602401600060405180830381600087803b1580156144f657600080fd5b505af115801561450a573d6000803e3d6000fd5b5050505061161a7f0000000000000000000000000000000000000000000000000000000000000000611cb5565b60608160000180548060200260200160405190810160405280929190818152602001828054801561458757602002820191906000526020600020905b815481526020019060010190808311614573575b50505050509050919050565b606061278984846000856145da565b6040516001600160a01b038085166024830152831660448201526064810182905261115c9085906323b872dd60e01b9060840161355b565b60608247101561463b5760405162461bcd60e51b815260206004820152602660248201527f416464726573733a20696e73756666696369656e742062616c616e636520666f6044820152651c8818d85b1b60d21b6064820152608401611122565b843b6146895760405162461bcd60e51b815260206004820152601d60248201527f416464726573733a2063616c6c20746f206e6f6e2d636f6e74726163740000006044820152606401611122565b600080866001600160a01b031685876040516146a59190614c7a565b60006040518083038185875af1925050503d80600081146146e2576040519150601f19603f3d011682016040523d82523d6000602084013e6146e7565b606091505b50915091506146f7828286614702565b979650505050505050565b60608315614711575081611e99565b8251156147215782518084602001fd5b8160405162461bcd60e51b81526004016111229190614df1565b60405180610180016040528060006001600160a01b0316815260200160006001600160a01b0316815260200160008152602001600081526020016000815260200160008152602001600080191681526020016000815260200160008152602001600060028111156147bc57634e487b7160e01b600052602160045260246000fd5b815260006020820181905260409091015290565b6000602082840312156147e1578081fd5b8135611e9981615078565b6000602082840312156147fd578081fd5b8151611e9981615078565b6000806040838503121561481a578081fd5b823561482581615078565b9150602083013561483581615078565b809150509250929050565b600080600060408486031215614854578081fd5b833561485f81615078565b925060208401356001600160401b038082111561487a578283fd5b818601915086601f83011261488d578283fd5b81358181111561489b578384fd5b8760208285010111156148ac578384fd5b6020830194508093505050509250925092565b600080604083850312156148d1578182fd5b82356148dc81615078565b946020939093013593505050565b6000806000606084860312156148fe578283fd5b833561490981615078565b925060208401359150604084013561492081615078565b809150509250925092565b600080600080600060a08688031215614942578081fd5b853561494d81615078565b945060208601359350604086013561496481615078565b94979396509394606081013594506080013592915050565b60008060008060808587031215614991578384fd5b843561499c81615078565b9350602085013592506040850135915060608501356149ba81615078565b939692955090935050565b6000602082840312156149d6578081fd5b81518015158114611e99578182fd5b6000806040838503121561481a578182fd5b600080600060608486031215614a0b578283fd5b8335614a1681615078565b95602085013595506040909401359392505050565b600060208284031215614a3c578081fd5b5035919050565b600060208284031215614a54578081fd5b5051919050565b60008060408385031215614a6d578182fd5b82359150602083013561483581615078565b600080600060608486031215614a93578081fd5b833592506020840135614aa581615078565b9150604084013561492081615078565b60008060008060808587031215614aca578182fd5b843593506020850135614adc81615078565b92506040850135614aec81615078565b915060608501356149ba81615078565b600080600080600060a08688031215614b13578283fd5b853594506020860135614b2581615078565b9350604086013561496481615078565b60008060408385031215614b47578182fd5b505080516020909101519092909150565b60008060008060808587031215614b6d578182fd5b84359350602085013592506040850135614aec81615078565b6001600160a01b03169052565b60008151808452614bab816020860160208601614ff1565b601f01601f19169290920160200192915050565b60038110614bdd57634e487b7160e01b600052602160045260246000fd5b9052565b614bec828251614b86565b6020810151614bfe6020840182614b86565b5060408101516040830152606081015160608301526080810151608083015260a081015160a083015260c081015160c083015260e081015160e083015261010080820151818401525061012080820151614c5a82850182614bbf565b505061014081810151908301526101608082015161115c82850182614b86565b60008251614c8c818460208701614ff1565b9190910192915050565b6001600160a01b0391909116815260200190565b6001600160a01b0392831681529116602082015260400190565b6001600160a01b03929092168252602082015260400190565b6001600160a01b0393841681526020810192909252909116604082015260600190565b6020808252825182820181905260009190848201906040850190845b81811015614d415783516001600160a01b031683529284019291840191600101614d1c565b50909695505050505050565b6020808252825182820181905260009190848201906040850190845b81811015614d4157614d7c838551614be1565b928401926101809290920191600101614d69565b6020808252825182820181905260009190848201906040850190845b81811015614d4157835183529284019291840191600101614dac565b60008315158252604060208301526127896040830184614b93565b60208101611caf8284614bbf565b600060208252611e996020830184614b93565b6020808252602a908201527f526f6c65733a2063616c6c6572206973206e6f7420746865206f776e6572206f604082015269391032bc32b1baba37b960b11b606082015260800190565b6020808252601690820152755374726174656779206973206e6f742061637469766560501b604082015260600190565b6020808252601390820152724f6e6c7920666f72204a4f4520746f6b656e7360681b604082015260600190565b6020808252601990820152784e6f7420617574686f72697a656420746f206d69677261746560381b604082015260600190565b6020808252601a9082015279446f6e27742073656e6420746f207a65726f206164647265737360301b604082015260600190565b6020808252601f908201527f5265656e7472616e637947756172643a207265656e7472616e742063616c6c00604082015260600190565b6020808252601f908201527f4e6f7420617574686f72697a656420746f20636f6c6c656374207969656c6400604082015260600190565b6101808101611caf8284614be1565b60008219821115614fa257614fa261504c565b500190565b600082614fb657614fb6615062565b500490565b6000816000190483118215151615614fd557614fd561504c565b500290565b600082821015614fec57614fec61504c565b500390565b60005b8381101561500c578181015183820152602001614ff4565b8381111561115c5750506000910152565b60006000198214156150315761503161504c565b5060010190565b60008261504757615047615062565b500690565b634e487b7160e01b600052601160045260246000fd5b634e487b7160e01b600052601260045260246000fd5b6001600160a01b038116811461508d57600080fd5b5056fe3a64504f0bc0c335e2aecb78638a257e0351a3fe0370861fd54ee4190b92093343616c6c6572206973206e6f7420746865206f776e65722c206578656375746fa2646970667358221220b27d642e4999ab4760a6c0988787bf53f578d2bccc3acffd6fc3e58781de42fd64736f6c63430008030033405787fa12a823e0f2b7631cc41b3ba8828b3321ca811111fa75cd3aa3bb5ace",
  "linkReferences": {},
  "deployedLinkReferences": {}
}