{
  "_format": "hh-sol-artifact-1",
  "contractName": "fsGLPStrategy",
  "sourceName": "contracts/strategies/fsGLPStrategy.sol",
  "abi": [
    {
      "inputs": [
        {
          "internalType": "address",
          "name": "_roles",
          "type": "address"
        }
      ],
      "stateMutability": "nonpayable",
      "type": "constructor"
    },
    {
      "anonymous": false,
      "inputs": [
        {
          "indexed": false,
          "internalType": "string",
          "name": "param",
          "type": "string"
        },
        {
          "indexed": false,
          "internalType": "uint256",
          "name": "value",
          "type": "uint256"
        }
      ],
      "name": "ParameterUpdated",
      "type": "event"
    },
    {
      "anonymous": false,
      "inputs": [
        {
          "indexed": false,
          "internalType": "string",
          "name": "param",
          "type": "string"
        },
        {
          "indexed": false,
          "internalType": "address",
          "name": "subject",
          "type": "address"
        },
        {
          "indexed": false,
          "internalType": "uint256",
          "name": "value",
          "type": "uint256"
        }
      ],
      "name": "SubjectParameterUpdated",
      "type": "event"
    },
    {
      "anonymous": false,
      "inputs": [
        {
          "indexed": false,
          "internalType": "string",
          "name": "param",
          "type": "string"
        },
        {
          "indexed": false,
          "internalType": "address",
          "name": "subject",
          "type": "address"
        }
      ],
      "name": "SubjectUpdated",
      "type": "event"
    },
    {
      "stateMutability": "payable",
      "type": "fallback"
    },
    {
      "inputs": [
        {
          "internalType": "uint256",
          "name": "",
          "type": "uint256"
        }
      ],
      "name": "_accounts",
      "outputs": [
        {
          "internalType": "uint256",
          "name": "collateral",
          "type": "uint256"
        },
        {
          "internalType": "uint256",
          "name": "yieldCheckptIdx",
          "type": "uint256"
        },
        {
          "internalType": "address",
          "name": "trancheToken",
          "type": "address"
        }
      ],
      "stateMutability": "view",
      "type": "function"
    },
    {
      "inputs": [
        {
          "internalType": "uint256",
          "name": "",
          "type": "uint256"
        }
      ],
      "name": "_charactersPlayed",
      "outputs": [
        {
          "internalType": "uint256",
          "name": "",
          "type": "uint256"
        }
      ],
      "stateMutability": "view",
      "type": "function"
    },
    {
      "inputs": [
        {
          "internalType": "uint256",
          "name": "",
          "type": "uint256"
        }
      ],
      "name": "_dependsOnCharacters",
      "outputs": [
        {
          "internalType": "uint256",
          "name": "",
          "type": "uint256"
        }
      ],
      "stateMutability": "view",
      "type": "function"
    },
    {
      "inputs": [
        {
          "internalType": "uint256",
          "name": "",
          "type": "uint256"
        }
      ],
      "name": "_dependsOnRoles",
      "outputs": [
        {
          "internalType": "uint256",
          "name": "",
          "type": "uint256"
        }
      ],
      "stateMutability": "view",
      "type": "function"
    },
    {
      "inputs": [
        {
          "internalType": "address",
          "name": "",
          "type": "address"
        },
        {
          "internalType": "address",
          "name": "",
          "type": "address"
        }
      ],
      "name": "_oracleCache",
      "outputs": [
        {
          "internalType": "address",
          "name": "",
          "type": "address"
        }
      ],
      "stateMutability": "view",
      "type": "function"
    },
    {
      "inputs": [
        {
          "internalType": "uint256",
          "name": "",
          "type": "uint256"
        }
      ],
      "name": "_rolesPlayed",
      "outputs": [
        {
          "internalType": "uint256",
          "name": "",
          "type": "uint256"
        }
      ],
      "stateMutability": "view",
      "type": "function"
    },
    {
      "inputs": [
        {
          "internalType": "address",
          "name": "token",
          "type": "address"
        }
      ],
      "name": "_viewTVL",
      "outputs": [
        {
          "internalType": "uint256",
          "name": "",
          "type": "uint256"
        }
      ],
      "stateMutability": "view",
      "type": "function"
    },
    {
      "inputs": [
        {
          "internalType": "uint256",
          "name": "trancheId",
          "type": "uint256"
        },
        {
          "internalType": "address",
          "name": "sourceStrategy",
          "type": "address"
        },
        {
          "internalType": "address",
          "name": "tokenContract",
          "type": "address"
        },
        {
          "internalType": "uint256",
          "name": "",
          "type": "uint256"
        },
        {
          "internalType": "uint256",
          "name": "amount",
          "type": "uint256"
        }
      ],
      "name": "acceptMigration",
      "outputs": [],
      "stateMutability": "nonpayable",
      "type": "function"
    },
    {
      "inputs": [
        {
          "internalType": "address",
          "name": "yieldBearingToken",
          "type": "address"
        },
        {
          "internalType": "address",
          "name": "rewardToken",
          "type": "address"
        }
      ],
      "name": "addRewardToken",
      "outputs": [],
      "stateMutability": "nonpayable",
      "type": "function"
    },
    {
      "inputs": [],
      "name": "apfSmoothingPer10k",
      "outputs": [
        {
          "internalType": "uint256",
          "name": "",
          "type": "uint256"
        }
      ],
      "stateMutability": "view",
      "type": "function"
    },
    {
      "inputs": [
        {
          "internalType": "address",
          "name": "token",
          "type": "address"
        },
        {
          "internalType": "bytes",
          "name": "data",
          "type": "bytes"
        }
      ],
      "name": "approveToken",
      "outputs": [],
      "stateMutability": "nonpayable",
      "type": "function"
    },
    {
      "inputs": [
        {
          "internalType": "address",
          "name": "token",
          "type": "address"
        }
      ],
      "name": "approvedToken",
      "outputs": [
        {
          "internalType": "bool",
          "name": "",
          "type": "bool"
        }
      ],
      "stateMutability": "view",
      "type": "function"
    },
    {
      "inputs": [],
      "name": "approvedTokensCount",
      "outputs": [
        {
          "internalType": "uint256",
          "name": "",
          "type": "uint256"
        }
      ],
      "stateMutability": "view",
      "type": "function"
    },
    {
      "inputs": [
        {
          "internalType": "contract IERC20",
          "name": "",
          "type": "address"
        },
        {
          "internalType": "address",
          "name": "",
          "type": "address"
        }
      ],
      "name": "assetYieldMeta",
      "outputs": [
        {
          "internalType": "uint256",
          "name": "cumulConvCheckpt",
          "type": "uint256"
        },
        {
          "internalType": "uint256",
          "name": "rewardsSinceCheckpt",
          "type": "uint256"
        }
      ],
      "stateMutability": "view",
      "type": "function"
    },
    {
      "inputs": [],
      "name": "charactersPlayed",
      "outputs": [
        {
          "internalType": "uint256[]",
          "name": "",
          "type": "uint256[]"
        }
      ],
      "stateMutability": "view",
      "type": "function"
    },
    {
      "inputs": [
        {
          "internalType": "address",
          "name": "token",
          "type": "address"
        }
      ],
      "name": "checkApprovedAndEncode",
      "outputs": [
        {
          "internalType": "bool",
          "name": "",
          "type": "bool"
        },
        {
          "internalType": "bytes",
          "name": "",
          "type": "bytes"
        }
      ],
      "stateMutability": "view",
      "type": "function"
    },
    {
      "inputs": [
        {
          "internalType": "uint256",
          "name": "trancheId",
          "type": "uint256"
        },
        {
          "internalType": "address",
          "name": "currency",
          "type": "address"
        },
        {
          "internalType": "address",
          "name": "recipient",
          "type": "address"
        }
      ],
      "name": "collectYield",
      "outputs": [
        {
          "internalType": "uint256",
          "name": "",
          "type": "uint256"
        }
      ],
      "stateMutability": "nonpayable",
      "type": "function"
    },
    {
      "inputs": [
        {
          "internalType": "uint256",
          "name": "trancheId",
          "type": "uint256"
        },
        {
          "internalType": "address",
          "name": "_yieldCurrency",
          "type": "address"
        },
        {
          "internalType": "address",
          "name": "valueCurrency",
          "type": "address"
        },
        {
          "internalType": "address",
          "name": "recipient",
          "type": "address"
        }
      ],
      "name": "collectYieldValueBorrowable",
      "outputs": [
        {
          "internalType": "uint256",
          "name": "yield",
          "type": "uint256"
        },
        {
          "internalType": "uint256",
          "name": "value",
          "type": "uint256"
        },
        {
          "internalType": "uint256",
          "name": "borrowablePer10k",
          "type": "uint256"
        }
      ],
      "stateMutability": "nonpayable",
      "type": "function"
    },
    {
      "inputs": [
        {
          "internalType": "contract IERC20",
          "name": "rewardToken",
          "type": "address"
        },
        {
          "internalType": "uint256",
          "name": "rewardAmount",
          "type": "uint256"
        },
        {
          "internalType": "uint256",
          "name": "targetBid",
          "type": "uint256"
        }
      ],
      "name": "convertReward2Stable",
      "outputs": [],
      "stateMutability": "nonpayable",
      "type": "function"
    },
    {
      "inputs": [],
      "name": "dependsOnCharacters",
      "outputs": [
        {
          "internalType": "uint256[]",
          "name": "",
          "type": "uint256[]"
        }
      ],
      "stateMutability": "view",
      "type": "function"
    },
    {
      "inputs": [],
      "name": "dependsOnRoles",
      "outputs": [
        {
          "internalType": "uint256[]",
          "name": "",
          "type": "uint256[]"
        }
      ],
      "stateMutability": "view",
      "type": "function"
    },
    {
      "inputs": [
        {
          "internalType": "address",
          "name": "token",
          "type": "address"
        },
        {
          "internalType": "bytes",
          "name": "",
          "type": "bytes"
        }
      ],
      "name": "disapproveToken",
      "outputs": [],
      "stateMutability": "nonpayable",
      "type": "function"
    },
    {
      "inputs": [],
      "name": "disapprovedTokensCount",
      "outputs": [
        {
          "internalType": "uint256",
          "name": "",
          "type": "uint256"
        }
      ],
      "stateMutability": "view",
      "type": "function"
    },
    {
      "inputs": [],
      "name": "feePer10k",
      "outputs": [
        {
          "internalType": "uint256",
          "name": "",
          "type": "uint256"
        }
      ],
      "stateMutability": "view",
      "type": "function"
    },
    {
      "inputs": [],
      "name": "fsGlp",
      "outputs": [
        {
          "internalType": "address",
          "name": "",
          "type": "address"
        }
      ],
      "stateMutability": "view",
      "type": "function"
    },
    {
      "inputs": [
        {
          "internalType": "address",
          "name": "token",
          "type": "address"
        }
      ],
      "name": "harvestPartially",
      "outputs": [],
      "stateMutability": "nonpayable",
      "type": "function"
    },
    {
      "inputs": [],
      "name": "isActive",
      "outputs": [
        {
          "internalType": "bool",
          "name": "",
          "type": "bool"
        }
      ],
      "stateMutability": "view",
      "type": "function"
    },
    {
      "inputs": [
        {
          "internalType": "uint256",
          "name": "",
          "type": "uint256"
        }
      ],
      "name": "mainCharacterCache",
      "outputs": [
        {
          "internalType": "address",
          "name": "",
          "type": "address"
        }
      ],
      "stateMutability": "view",
      "type": "function"
    },
    {
      "inputs": [
        {
          "internalType": "address",
          "name": "destination",
          "type": "address"
        }
      ],
      "name": "migrateAllTo",
      "outputs": [],
      "stateMutability": "nonpayable",
      "type": "function"
    },
    {
      "inputs": [
        {
          "internalType": "uint256",
          "name": "trancheId",
          "type": "uint256"
        },
        {
          "internalType": "address",
          "name": "targetStrategy",
          "type": "address"
        },
        {
          "internalType": "address",
          "name": "yieldToken",
          "type": "address"
        },
        {
          "internalType": "address",
          "name": "yieldRecipient",
          "type": "address"
        }
      ],
      "name": "migrateStrategy",
      "outputs": [
        {
          "internalType": "address",
          "name": "",
          "type": "address"
        },
        {
          "internalType": "uint256",
          "name": "",
          "type": "uint256"
        },
        {
          "internalType": "uint256",
          "name": "",
          "type": "uint256"
        }
      ],
      "stateMutability": "nonpayable",
      "type": "function"
    },
    {
      "inputs": [],
      "name": "minimumBidPer10k",
      "outputs": [
        {
          "internalType": "uint256",
          "name": "",
          "type": "uint256"
        }
      ],
      "stateMutability": "view",
      "type": "function"
    },
    {
      "inputs": [
        {
          "internalType": "address",
          "name": "token",
          "type": "address"
        },
        {
          "internalType": "address",
          "name": "pegCurrency",
          "type": "address"
        }
      ],
      "name": "newCurrentOracle",
      "outputs": [],
      "stateMutability": "nonpayable",
      "type": "function"
    },
    {
      "inputs": [
        {
          "internalType": "contract IERC20",
          "name": "",
          "type": "address"
        },
        {
          "internalType": "uint256",
          "name": "",
          "type": "uint256"
        }
      ],
      "name": "pendingConvertedReward",
      "outputs": [
        {
          "internalType": "uint256",
          "name": "convertedStable",
          "type": "uint256"
        },
        {
          "internalType": "uint256",
          "name": "sourceRewards",
          "type": "uint256"
        }
      ],
      "stateMutability": "view",
      "type": "function"
    },
    {
      "inputs": [
        {
          "internalType": "address",
          "name": "depositor",
          "type": "address"
        },
        {
          "internalType": "uint256",
          "name": "trancheId",
          "type": "uint256"
        },
        {
          "internalType": "uint256",
          "name": "amount",
          "type": "uint256"
        },
        {
          "internalType": "address",
          "name": "yieldRecipient",
          "type": "address"
        }
      ],
      "name": "registerDepositFor",
      "outputs": [],
      "stateMutability": "nonpayable",
      "type": "function"
    },
    {
      "inputs": [
        {
          "internalType": "address",
          "name": "minter",
          "type": "address"
        },
        {
          "internalType": "uint256",
          "name": "trancheId",
          "type": "uint256"
        },
        {
          "internalType": "address",
          "name": "assetToken",
          "type": "address"
        },
        {
          "internalType": "uint256",
          "name": "",
          "type": "uint256"
        },
        {
          "internalType": "uint256",
          "name": "assetAmount",
          "type": "uint256"
        }
      ],
      "name": "registerMintTranche",
      "outputs": [],
      "stateMutability": "nonpayable",
      "type": "function"
    },
    {
      "inputs": [
        {
          "internalType": "address",
          "name": "yieldBearingToken",
          "type": "address"
        },
        {
          "internalType": "address",
          "name": "rewardToken",
          "type": "address"
        }
      ],
      "name": "removeRewardToken",
      "outputs": [],
      "stateMutability": "nonpayable",
      "type": "function"
    },
    {
      "inputs": [
        {
          "internalType": "address",
          "name": "token",
          "type": "address"
        },
        {
          "internalType": "uint256",
          "name": "amount",
          "type": "uint256"
        },
        {
          "internalType": "address",
          "name": "recipient",
          "type": "address"
        }
      ],
      "name": "rescueCollateral",
      "outputs": [],
      "stateMutability": "nonpayable",
      "type": "function"
    },
    {
      "inputs": [
        {
          "internalType": "uint256",
          "name": "amount",
          "type": "uint256"
        },
        {
          "internalType": "address",
          "name": "recipient",
          "type": "address"
        }
      ],
      "name": "rescueNative",
      "outputs": [],
      "stateMutability": "nonpayable",
      "type": "function"
    },
    {
      "inputs": [
        {
          "internalType": "address",
          "name": "token",
          "type": "address"
        },
        {
          "internalType": "uint256",
          "name": "amount",
          "type": "uint256"
        },
        {
          "internalType": "address",
          "name": "recipient",
          "type": "address"
        }
      ],
      "name": "rescueStrandedTokens",
      "outputs": [],
      "stateMutability": "nonpayable",
      "type": "function"
    },
    {
      "inputs": [
        {
          "internalType": "contract IERC20",
          "name": "",
          "type": "address"
        }
      ],
      "name": "rewardBalanceAccountedFor",
      "outputs": [
        {
          "internalType": "uint256",
          "name": "",
          "type": "uint256"
        }
      ],
      "stateMutability": "view",
      "type": "function"
    },
    {
      "inputs": [],
      "name": "rewardRouter",
      "outputs": [
        {
          "internalType": "contract IGmxRewardRouter",
          "name": "",
          "type": "address"
        }
      ],
      "stateMutability": "view",
      "type": "function"
    },
    {
      "inputs": [
        {
          "internalType": "address",
          "name": "",
          "type": "address"
        },
        {
          "internalType": "uint256",
          "name": "",
          "type": "uint256"
        }
      ],
      "name": "roleCache",
      "outputs": [
        {
          "internalType": "bool",
          "name": "",
          "type": "bool"
        }
      ],
      "stateMutability": "view",
      "type": "function"
    },
    {
      "inputs": [],
      "name": "roles",
      "outputs": [
        {
          "internalType": "contract Roles",
          "name": "",
          "type": "address"
        }
      ],
      "stateMutability": "view",
      "type": "function"
    },
    {
      "inputs": [],
      "name": "rolesPlayed",
      "outputs": [
        {
          "internalType": "uint256[]",
          "name": "",
          "type": "uint256[]"
        }
      ],
      "stateMutability": "view",
      "type": "function"
    },
    {
      "inputs": [
        {
          "internalType": "uint256",
          "name": "smoothing",
          "type": "uint256"
        }
      ],
      "name": "setApfSmoothingPer10k",
      "outputs": [],
      "stateMutability": "nonpayable",
      "type": "function"
    },
    {
      "inputs": [
        {
          "internalType": "uint256",
          "name": "fee",
          "type": "uint256"
        }
      ],
      "name": "setFeePer10k",
      "outputs": [],
      "stateMutability": "nonpayable",
      "type": "function"
    },
    {
      "inputs": [
        {
          "internalType": "uint256",
          "name": "bidmin",
          "type": "uint256"
        }
      ],
      "name": "setMinimumBidPer10k",
      "outputs": [],
      "stateMutability": "nonpayable",
      "type": "function"
    },
    {
      "inputs": [
        {
          "internalType": "address",
          "name": "",
          "type": "address"
        }
      ],
      "name": "stabilityFeePer10k",
      "outputs": [
        {
          "internalType": "uint256",
          "name": "",
          "type": "uint256"
        }
      ],
      "stateMutability": "view",
      "type": "function"
    },
    {
      "inputs": [],
      "name": "stakedGlp",
      "outputs": [
        {
          "internalType": "contract IERC20",
          "name": "",
          "type": "address"
        }
      ],
      "stateMutability": "view",
      "type": "function"
    },
    {
      "inputs": [],
      "name": "strategyName",
      "outputs": [
        {
          "internalType": "bytes32",
          "name": "",
          "type": "bytes32"
        }
      ],
      "stateMutability": "view",
      "type": "function"
    },
    {
      "inputs": [
        {
          "internalType": "address",
          "name": "token",
          "type": "address"
        }
      ],
      "name": "tallyHarvestBalance",
      "outputs": [
        {
          "internalType": "uint256",
          "name": "balance",
          "type": "uint256"
        }
      ],
      "stateMutability": "nonpayable",
      "type": "function"
    },
    {
      "inputs": [
        {
          "internalType": "contract IERC20",
          "name": "rewardToken",
          "type": "address"
        },
        {
          "internalType": "address",
          "name": "token",
          "type": "address"
        }
      ],
      "name": "tallyHarvestBalance",
      "outputs": [
        {
          "internalType": "uint256",
          "name": "balance",
          "type": "uint256"
        }
      ],
      "stateMutability": "nonpayable",
      "type": "function"
    },
    {
      "inputs": [
        {
          "internalType": "address",
          "name": "token",
          "type": "address"
        }
      ],
      "name": "tallyReward",
      "outputs": [],
      "stateMutability": "nonpayable",
      "type": "function"
    },
    {
      "inputs": [
        {
          "internalType": "contract IERC20",
          "name": "rewardToken",
          "type": "address"
        },
        {
          "internalType": "address",
          "name": "token",
          "type": "address"
        }
      ],
      "name": "tallyReward",
      "outputs": [],
      "stateMutability": "nonpayable",
      "type": "function"
    },
    {
      "inputs": [
        {
          "internalType": "address",
          "name": "",
          "type": "address"
        }
      ],
      "name": "tokenMetadata",
      "outputs": [
        {
          "internalType": "uint256",
          "name": "totalCollateralThisPhase",
          "type": "uint256"
        },
        {
          "internalType": "uint256",
          "name": "totalCollateralNow",
          "type": "uint256"
        },
        {
          "internalType": "uint256",
          "name": "apfLastUpdated",
          "type": "uint256"
        },
        {
          "internalType": "uint256",
          "name": "apf",
          "type": "uint256"
        }
      ],
      "stateMutability": "view",
      "type": "function"
    },
    {
      "inputs": [
        {
          "internalType": "uint256",
          "name": "trancheId",
          "type": "uint256"
        }
      ],
      "name": "tranche",
      "outputs": [
        {
          "internalType": "address",
          "name": "",
          "type": "address"
        }
      ],
      "stateMutability": "view",
      "type": "function"
    },
    {
      "inputs": [
        {
          "internalType": "uint256",
          "name": "trancheId",
          "type": "uint256"
        }
      ],
      "name": "trancheToken",
      "outputs": [
        {
          "internalType": "address",
          "name": "token",
          "type": "address"
        }
      ],
      "stateMutability": "view",
      "type": "function"
    },
    {
      "inputs": [
        {
          "internalType": "uint256",
          "name": "",
          "type": "uint256"
        }
      ],
      "name": "trancheTokenID",
      "outputs": [
        {
          "internalType": "uint256",
          "name": "",
          "type": "uint256"
        }
      ],
      "stateMutability": "pure",
      "type": "function"
    },
    {
      "inputs": [
        {
          "internalType": "uint256",
          "name": "role",
          "type": "uint256"
        }
      ],
      "name": "updateMainCharacterCache",
      "outputs": [],
      "stateMutability": "nonpayable",
      "type": "function"
    },
    {
      "inputs": [
        {
          "internalType": "uint256",
          "name": "role",
          "type": "uint256"
        },
        {
          "internalType": "address",
          "name": "contr",
          "type": "address"
        }
      ],
      "name": "updateRoleCache",
      "outputs": [],
      "stateMutability": "nonpayable",
      "type": "function"
    },
    {
      "inputs": [
        {
          "internalType": "address",
          "name": "token",
          "type": "address"
        }
      ],
      "name": "viewAPF",
      "outputs": [
        {
          "internalType": "uint256",
          "name": "",
          "type": "uint256"
        }
      ],
      "stateMutability": "view",
      "type": "function"
    },
    {
      "inputs": [],
      "name": "viewAllApprovedTokens",
      "outputs": [
        {
          "internalType": "address[]",
          "name": "",
          "type": "address[]"
        }
      ],
      "stateMutability": "view",
      "type": "function"
    },
    {
      "inputs": [],
      "name": "viewAllDisapprovedTokenStrategyMetadata",
      "outputs": [
        {
          "components": [
            {
              "internalType": "address",
              "name": "strategy",
              "type": "address"
            },
            {
              "internalType": "address",
              "name": "token",
              "type": "address"
            },
            {
              "internalType": "uint256",
              "name": "APF",
              "type": "uint256"
            },
            {
              "internalType": "uint256",
              "name": "totalCollateral",
              "type": "uint256"
            },
            {
              "internalType": "uint256",
              "name": "borrowablePer10k",
              "type": "uint256"
            },
            {
              "internalType": "uint256",
              "name": "valuePer1e18",
              "type": "uint256"
            },
            {
              "internalType": "bytes32",
              "name": "strategyName",
              "type": "bytes32"
            },
            {
              "internalType": "uint256",
              "name": "tvl",
              "type": "uint256"
            },
            {
              "internalType": "uint256",
              "name": "harvestBalance2Tally",
              "type": "uint256"
            },
            {
              "internalType": "enum IStrategy.YieldType",
              "name": "yieldType",
              "type": "uint8"
            },
            {
              "internalType": "uint256",
              "name": "stabilityFee",
              "type": "uint256"
            },
            {
              "internalType": "address",
              "name": "underlyingStrategy",
              "type": "address"
            }
          ],
          "internalType": "struct IStrategy.StrategyMetadata[]",
          "name": "",
          "type": "tuple[]"
        }
      ],
      "stateMutability": "view",
      "type": "function"
    },
    {
      "inputs": [],
      "name": "viewAllDisapprovedTokens",
      "outputs": [
        {
          "internalType": "address[]",
          "name": "",
          "type": "address[]"
        }
      ],
      "stateMutability": "view",
      "type": "function"
    },
    {
      "inputs": [],
      "name": "viewAllFeesEver",
      "outputs": [
        {
          "internalType": "uint256",
          "name": "",
          "type": "uint256"
        }
      ],
      "stateMutability": "view",
      "type": "function"
    },
    {
      "inputs": [],
      "name": "viewAllStrategyMetadata",
      "outputs": [
        {
          "components": [
            {
              "internalType": "address",
              "name": "strategy",
              "type": "address"
            },
            {
              "internalType": "address",
              "name": "token",
              "type": "address"
            },
            {
              "internalType": "uint256",
              "name": "APF",
              "type": "uint256"
            },
            {
              "internalType": "uint256",
              "name": "totalCollateral",
              "type": "uint256"
            },
            {
              "internalType": "uint256",
              "name": "borrowablePer10k",
              "type": "uint256"
            },
            {
              "internalType": "uint256",
              "name": "valuePer1e18",
              "type": "uint256"
            },
            {
              "internalType": "bytes32",
              "name": "strategyName",
              "type": "bytes32"
            },
            {
              "internalType": "uint256",
              "name": "tvl",
              "type": "uint256"
            },
            {
              "internalType": "uint256",
              "name": "harvestBalance2Tally",
              "type": "uint256"
            },
            {
              "internalType": "enum IStrategy.YieldType",
              "name": "yieldType",
              "type": "uint8"
            },
            {
              "internalType": "uint256",
              "name": "stabilityFee",
              "type": "uint256"
            },
            {
              "internalType": "address",
              "name": "underlyingStrategy",
              "type": "address"
            }
          ],
          "internalType": "struct IStrategy.StrategyMetadata[]",
          "name": "",
          "type": "tuple[]"
        }
      ],
      "stateMutability": "view",
      "type": "function"
    },
    {
      "inputs": [],
      "name": "viewAllTokensEver",
      "outputs": [
        {
          "internalType": "address[]",
          "name": "",
          "type": "address[]"
        }
      ],
      "stateMutability": "view",
      "type": "function"
    },
    {
      "inputs": [
        {
          "internalType": "uint256",
          "name": "trancheId",
          "type": "uint256"
        }
      ],
      "name": "viewBorrowable",
      "outputs": [
        {
          "internalType": "uint256",
          "name": "borrowablePer10k",
          "type": "uint256"
        }
      ],
      "stateMutability": "view",
      "type": "function"
    },
    {
      "inputs": [
        {
          "internalType": "address",
          "name": "token",
          "type": "address"
        }
      ],
      "name": "viewEstimatedHarvestable",
      "outputs": [
        {
          "internalType": "uint256",
          "name": "",
          "type": "uint256"
        }
      ],
      "stateMutability": "view",
      "type": "function"
    },
    {
      "inputs": [
        {
          "internalType": "address",
          "name": "token",
          "type": "address"
        }
      ],
      "name": "viewHarvestBalance2Tally",
      "outputs": [
        {
          "internalType": "uint256",
          "name": "balance",
          "type": "uint256"
        }
      ],
      "stateMutability": "view",
      "type": "function"
    },
    {
      "inputs": [
        {
          "internalType": "contract IERC20",
          "name": "rewardToken",
          "type": "address"
        },
        {
          "internalType": "address",
          "name": "token",
          "type": "address"
        }
      ],
      "name": "viewHarvestBalance2Tally",
      "outputs": [
        {
          "internalType": "uint256",
          "name": "",
          "type": "uint256"
        }
      ],
      "stateMutability": "view",
      "type": "function"
    },
    {
      "inputs": [
        {
          "internalType": "address",
          "name": "yieldBearingToken",
          "type": "address"
        }
      ],
      "name": "viewRewardTokens",
      "outputs": [
        {
          "internalType": "address[]",
          "name": "",
          "type": "address[]"
        }
      ],
      "stateMutability": "view",
      "type": "function"
    },
    {
      "inputs": [
        {
          "internalType": "address",
          "name": "",
          "type": "address"
        }
      ],
      "name": "viewSourceHarvestable",
      "outputs": [
        {
          "internalType": "uint256",
          "name": "",
          "type": "uint256"
        }
      ],
      "stateMutability": "view",
      "type": "function"
    },
    {
      "inputs": [
        {
          "internalType": "address",
          "name": "token",
          "type": "address"
        }
      ],
      "name": "viewStrategyMetadata",
      "outputs": [
        {
          "components": [
            {
              "internalType": "address",
              "name": "strategy",
              "type": "address"
            },
            {
              "internalType": "address",
              "name": "token",
              "type": "address"
            },
            {
              "internalType": "uint256",
              "name": "APF",
              "type": "uint256"
            },
            {
              "internalType": "uint256",
              "name": "totalCollateral",
              "type": "uint256"
            },
            {
              "internalType": "uint256",
              "name": "borrowablePer10k",
              "type": "uint256"
            },
            {
              "internalType": "uint256",
              "name": "valuePer1e18",
              "type": "uint256"
            },
            {
              "internalType": "bytes32",
              "name": "strategyName",
              "type": "bytes32"
            },
            {
              "internalType": "uint256",
              "name": "tvl",
              "type": "uint256"
            },
            {
              "internalType": "uint256",
              "name": "harvestBalance2Tally",
              "type": "uint256"
            },
            {
              "internalType": "enum IStrategy.YieldType",
              "name": "yieldType",
              "type": "uint8"
            },
            {
              "internalType": "uint256",
              "name": "stabilityFee",
              "type": "uint256"
            },
            {
              "internalType": "address",
              "name": "underlyingStrategy",
              "type": "address"
            }
          ],
          "internalType": "struct IStrategy.StrategyMetadata",
          "name": "",
          "type": "tuple"
        }
      ],
      "stateMutability": "view",
      "type": "function"
    },
    {
      "inputs": [
        {
          "internalType": "uint256",
          "name": "trancheId",
          "type": "uint256"
        }
      ],
      "name": "viewTargetCollateralAmount",
      "outputs": [
        {
          "internalType": "uint256",
          "name": "",
          "type": "uint256"
        }
      ],
      "stateMutability": "view",
      "type": "function"
    },
    {
      "inputs": [
        {
          "internalType": "address",
          "name": "",
          "type": "address"
        }
      ],
      "name": "viewUnderlyingStrategy",
      "outputs": [
        {
          "internalType": "address",
          "name": "",
          "type": "address"
        }
      ],
      "stateMutability": "view",
      "type": "function"
    },
    {
      "inputs": [
        {
          "internalType": "uint256",
          "name": "trancheId",
          "type": "uint256"
        },
        {
          "internalType": "address",
          "name": "valueCurrency",
          "type": "address"
        }
      ],
      "name": "viewValue",
      "outputs": [
        {
          "internalType": "uint256",
          "name": "value",
          "type": "uint256"
        }
      ],
      "stateMutability": "view",
      "type": "function"
    },
    {
      "inputs": [
        {
          "internalType": "uint256",
          "name": "trancheId",
          "type": "uint256"
        },
        {
          "internalType": "address",
          "name": "valueCurrency",
          "type": "address"
        }
      ],
      "name": "viewValueBorrowable",
      "outputs": [
        {
          "internalType": "uint256",
          "name": "value",
          "type": "uint256"
        },
        {
          "internalType": "uint256",
          "name": "borrowable",
          "type": "uint256"
        }
      ],
      "stateMutability": "view",
      "type": "function"
    },
    {
      "inputs": [
        {
          "internalType": "uint256",
          "name": "trancheId",
          "type": "uint256"
        },
        {
          "internalType": "address",
          "name": "currency",
          "type": "address"
        }
      ],
      "name": "viewYield",
      "outputs": [
        {
          "internalType": "uint256",
          "name": "",
          "type": "uint256"
        }
      ],
      "stateMutability": "view",
      "type": "function"
    },
    {
      "inputs": [
        {
          "internalType": "uint256",
          "name": "trancheId",
          "type": "uint256"
        },
        {
          "internalType": "address",
          "name": "_yieldCurrency",
          "type": "address"
        },
        {
          "internalType": "address",
          "name": "valueCurrency",
          "type": "address"
        }
      ],
      "name": "viewYieldValueBorrowable",
      "outputs": [
        {
          "internalType": "uint256",
          "name": "yield",
          "type": "uint256"
        },
        {
          "internalType": "uint256",
          "name": "value",
          "type": "uint256"
        },
        {
          "internalType": "uint256",
          "name": "borrowablePer10k",
          "type": "uint256"
        }
      ],
      "stateMutability": "view",
      "type": "function"
    },
    {
      "inputs": [
        {
          "internalType": "uint256",
          "name": "trancheId",
          "type": "uint256"
        },
        {
          "internalType": "uint256",
          "name": "amount",
          "type": "uint256"
        },
        {
          "internalType": "address",
          "name": "yieldToken",
          "type": "address"
        },
        {
          "internalType": "address",
          "name": "recipient",
          "type": "address"
        }
      ],
      "name": "withdraw",
      "outputs": [],
      "stateMutability": "nonpayable",
      "type": "function"
    },
    {
      "inputs": [],
      "name": "wrappedNative",
      "outputs": [
        {
          "internalType": "contract IWETH",
          "name": "",
          "type": "address"
        }
      ],
      "stateMutability": "view",
      "type": "function"
    },
    {
      "inputs": [],
      "name": "yieldCurrency",
      "outputs": [
        {
          "internalType": "address",
          "name": "",
          "type": "address"
        }
      ],
      "stateMutability": "view",
      "type": "function"
    },
    {
      "inputs": [],
      "name": "yieldType",
      "outputs": [
        {
          "internalType": "enum IStrategy.YieldType",
          "name": "",
          "type": "uint8"
        }
      ],
      "stateMutability": "pure",
      "type": "function"
    },
    {
      "stateMutability": "payable",
      "type": "receive"
    }
  ],
  "bytecode": "0x6101006040526009805460ff191660011790556113886011556125e46018556103e8601955601b80546001600160a01b0319908116735643f4b25e36478ee1e90418d5343cb6591bcb9d17909155601c80549091167382147c5a7e850ea4e28155df107f2590fd4ba3271790553480156200007957600080fd5b50604051620052db380380620052db8339810160408190526200009c9162000447565b736e84a6216ea6dacc71ee8e6b0a5b7322eebc0fdd6d6673474c5053747472617465677960901b82806001600160a01b0381166200012b5760405162461bcd60e51b815260206004820152602260248201527f506c656173652070726f766964652076616c696420726f6c6573206164647265604482015261737360f01b606482015260840160405180910390fd5b60601b6001600160601b0319166080526002805460018082018355606a600080516020620052bb8339815191529283015560058054808301825560047f036b6384b5eca791c62761152d0c79bb0604c104a5fb6f4eb0703f3154bb3db09182018190558554808501875560669086015582548085019093559101849055835480830185556068908401556003805480840182557fc2575a0e9e593c00f959f8c92f12db2869c3395a3b0502d05e2516446f71f85b908101829055815480850190925501829055835491820184556000939093526069910181905560405163b4ed0b6d60e01b8152918201526001600160a01b0382169063b4ed0b6d9060240160206040518083038186803b1580156200024357600080fd5b505afa15801562000258573d6000803e3d6000fd5b505050506040513d601f19601f820116820180604052508101906200027e919062000447565b6001600160a01b031663fae794e66040518163ffffffff1660e01b815260040160206040518083038186803b158015620002b757600080fd5b505afa158015620002cc573d6000803e3d6000fd5b505050506040513d601f19601f82011682018060405250810190620002f2919062000477565b60a052506001600881905560c0919091526002805491820190556067600080516020620052bb8339815191529091015560601b6001600160601b03191660e052739e295b5b976a184b14ad8cd72413ad846c299660600052601760209081526200039d907f53bf5080193023450d29a1fca6af9ffb7661277dd593e1cf18e250db13fe4e4e90736e84a6216ea6dacc71ee8e6b0a5b7322eebc0fdd90620003d5811b620030a117901c565b50620003cd739e295b5b976a184b14ad8cd72413ad846c299660600a620003d560201b620030a11790919060201c565b505062000490565b6000620003ec836001600160a01b038416620003f5565b90505b92915050565b60008181526001830160205260408120546200043e57508154600181810184556000848152602080822090930184905584548482528286019093526040902091909155620003ef565b506000620003ef565b60006020828403121562000459578081fd5b81516001600160a01b038116811462000470578182fd5b9392505050565b60006020828403121562000489578081fd5b5051919050565b60805160601c60a05160c05160e05160601c614db36200050860003960008181610e850152611cdd015260008181610d7d0152611207015260006126bd0152600081816106e10152818161101301528181611a8b015281816132090152818161329c015281816134f80152613ad60152614db36000f3fe6080604052600436106103b25760003560e01c8062df88b4146103bb57806301c7b9f8146104145780630581f3b51461044257806306b8ce9914610463578063071060a6146104785780630a3017d9146104985780630ccc5bd6146104b85780630d749628146104d85780630ddc56d3146104ee578063110acb231461051b57806313710eb81461054857806318af4c9e146105685780631dc3a759146105885780631f7ea881146105a357806321fa0f1f146105c357806322f3e2d4146105e557806323cb23901461060f5780632642b6061461062f57806326473a8f1461044257806328f3fc73146106705780632d9c454614610690578063392f5f64146106cf5780633a3db435146107035780633ace96ec14610723578063447d52ba14610743578063458f0c7014610763578063459ba1271461078b57806349d4f22e146107ab5780634a7a7f41146107cb5780634d9d01b2146107ed5780634df87c0914610802578063525e8269146108225780635a3bb989146108425780636caa9c11146108625780636fecdf241461088257806371b3177a146108e75780637268d1c01461090757806379251d8814610927578063794a41cc146109475780637a1a04df146109745780637b2c9279146109af5780637dad209b146109c45780638496e891146109d957806389f117b314610a145780638a31b98f14610a345780639470505f14610a545780639b0f09ae14610a74578063a4d77f9014610a90578063a50233c914610ab0578063a51c8fab14610ad0578063abcbc4fc14610af2578063ad89b79414610b12578063aeb38d8b14610b27578063b06ea8f014610b47578063b23d66c214610b5d578063b832799314610ba2578063b9bcce1c14610bc2578063bf184ea414610be2578063c5c72dc314610c02578063c6ec154814610c22578063d0d9ab5914610c80578063d0e1b89714610c95578063d241c9c014610cb5578063d2d719d614610cd5578063d6e113ab14610ceb578063d7fb7b3114610d0b578063d9cb512c14610d21578063dc94cb7d14610d36578063e12c11d514610d4b578063e173ad2514610d6b578063e22d284514610d9f578063e2e730f614610e08578063e8ea4fae14610e28578063e9c3f77d14610e3d578063eb6d3a1114610e73578063efc1e45914610ea7578063f725ed1014610ec7578063f8903fb714610ee7578063f8d6a05d14610f07578063fa98a4ba14610f27578063fabee7db14610f47578063fac82e8c14610f67578063fd80d0c314610f87578063fe65a5b414610fa7576103b9565b366103b957005b005b3480156103c757600080fd5b506103fa6103d636600461468a565b60146020908152600092835260408084209091529082529020805460019091015482565b604080519283526020830191909152015b60405180910390f35b34801561042057600080fd5b5061043461042f366004614700565b610fc7565b60405190815260200161040b565b34801561044e57600080fd5b5061043461045d366004614475565b50600090565b34801561046f57600080fd5b50610434610fec565b34801561048457600080fd5b506103b96104933660046146d0565b610ffd565b3480156104a457600080fd5b506104346104b3366004614475565b6110c3565b3480156104c457600080fd5b506103b96104d336600461458f565b6110e1565b3480156104e457600080fd5b50610434601a5481565b3480156104fa57600080fd5b50601b5461050e906001600160a01b031681565b60405161040b919061493b565b34801561052757600080fd5b5061053b610536366004614475565b61116a565b60405161040b9190614c2d565b34801561055457600080fd5b506103b961056336600461469c565b611271565b34801561057457600080fd5b506103b9610583366004614700565b61157d565b34801561059457600080fd5b5061043461045d3660046146d0565b3480156105af57600080fd5b506103b96105be3660046144e5565b611627565b3480156105cf57600080fd5b506105d86116df565b60405161040b91906149f2565b3480156105f157600080fd5b506009546105ff9060ff1681565b604051901515815260200161040b565b34801561061b57600080fd5b506103b961062a3660046144ad565b6117b1565b34801561063b57600080fd5b5061050e61064a3660046144ad565b60066020908152600092835260408084209091529082529020546001600160a01b031681565b34801561067c57600080fd5b506103b961068b3660046144ad565b61181c565b34801561069c57600080fd5b506103fa6106ab366004614564565b60156020908152600092835260408084209091529082529020805460019091015482565b3480156106db57600080fd5b5061050e7f000000000000000000000000000000000000000000000000000000000000000081565b34801561070f57600080fd5b506103b961071e3660046146d0565b61190f565b34801561072f57600080fd5b506103b961073e3660046144e5565b6119a9565b34801561074f57600080fd5b506103b961075e366004614700565b611a74565b34801561076f57600080fd5b5061050e739e295b5b976a184b14ad8cd72413ad846c29966081565b34801561079757600080fd5b506103b96107a63660046147a1565b611b4a565b3480156107b757600080fd5b506103b96107c636600461458f565b611bc3565b3480156107d757600080fd5b506107e0611c46565b60405161040b9190614a35565b3480156107f957600080fd5b50610434611c9e565b34801561080e57600080fd5b506105ff61081d366004614475565b611caa565b34801561082e57600080fd5b506103b961083d366004614475565b611cbd565b34801561084e57600080fd5b50601c5461050e906001600160a01b031681565b34801561086e57600080fd5b5061043461087d3660046146d0565b611d88565b34801561088e57600080fd5b506108c761089d366004614475565b60126020526000908152604090206001810154600282015460038301546004909301549192909184565b60408051948552602085019390935291830152606082015260800161040b565b3480156108f357600080fd5b506103b96109023660046147fd565b611da9565b34801561091357600080fd5b506104346109223660046146d0565b611e82565b34801561093357600080fd5b506103b96109423660046144ad565b611ea8565b34801561095357600080fd5b50610434610962366004614475565b60166020526000908152604090205481565b34801561098057600080fd5b506105ff61098f366004614564565b600160209081526000928352604080842090915290825290205460ff1681565b3480156109bb57600080fd5b5061050e611f13565b3480156109d057600080fd5b506107e0611f1d565b3480156109e557600080fd5b506109f96109f436600461475a565b611f73565b6040805193845260208401929092529082015260600161040b565b348015610a2057600080fd5b506103b9610a2f366004614475565b61208e565b348015610a4057600080fd5b50610434610a4f366004614475565b61218b565b348015610a6057600080fd5b50610434610a6f366004614475565b6121ed565b348015610a8057600080fd5b50600060405161040b9190614a88565b348015610a9c57600080fd5b506103fa610aab366004614700565b612248565b348015610abc57600080fd5b506103b9610acb366004614621565b612271565b348015610adc57600080fd5b50610ae5612332565b60405161040b91906149a5565b348015610afe57600080fd5b50610434610b0d3660046146d0565b61233e565b348015610b1e57600080fd5b506105d861234e565b348015610b3357600080fd5b50610434610b423660046146d0565b612419565b348015610b5357600080fd5b5061043460115481565b348015610b6957600080fd5b50610b7d610b7836600461475a565b612429565b604080516001600160a01b03909416845260208401929092529082015260600161040b565b348015610bae57600080fd5b506103b9610bbd3660046145d0565b612519565b348015610bce57600080fd5b50610ae5610bdd366004614475565b6125d2565b348015610bee57600080fd5b50610434610bfd3660046146d0565b6125f6565b348015610c0e57600080fd5b50610434610c1d3660046146d0565b612606565b348015610c2e57600080fd5b50610c72610c3d366004614475565b6040805160208101909152600081526001600160a01b038216739e295b5b976a184b14ad8cd72413ad846c2996601490915091565b60405161040b929190614a6d565b348015610c8c57600080fd5b50610ae5612618565b348015610ca157600080fd5b506103b9610cb03660046146d0565b612624565b348015610cc157600080fd5b5061050e610cd03660046146d0565b6126b5565b348015610ce157600080fd5b5061043460195481565b348015610cf757600080fd5b50610434610d0636600461468a565b6127af565b348015610d1757600080fd5b5061043460185481565b348015610d2d57600080fd5b50610ae56129d8565b348015610d4257600080fd5b506107e06129e4565b348015610d5757600080fd5b506103b9610d6636600461468a565b612a3a565b348015610d7757600080fd5b506104347f000000000000000000000000000000000000000000000000000000000000000081565b348015610dab57600080fd5b50610de4610dba3660046146d0565b6010602052600090815260409020805460018201546002909201549091906001600160a01b031683565b6040805193845260208401929092526001600160a01b03169082015260600161040b565b348015610e1457600080fd5b50610434610e23366004614475565b612b85565b348015610e3457600080fd5b506107e0612ba3565b348015610e4957600080fd5b5061050e610e583660046146d0565b6000602081905290815260409020546001600160a01b031681565b348015610e7f57600080fd5b5061050e7f000000000000000000000000000000000000000000000000000000000000000081565b348015610eb357600080fd5b50610434610ec236600461468a565b612bf9565b348015610ed357600080fd5b5061050e610ee2366004614475565b612c8f565b348015610ef357600080fd5b50610434610f02366004614724565b612c9f565b348015610f1357600080fd5b50610434610f22366004614475565b612d92565b348015610f3357600080fd5b506109f9610f42366004614724565b612da8565b348015610f5357600080fd5b5061050e610f623660046146d0565b612de3565b348015610f7357600080fd5b506103b9610f82366004614475565b612e01565b348015610f9357600080fd5b50610434610fa2366004614700565b612fc5565b348015610fb357600080fd5b506103b9610fc23660046146d0565b613009565b6000610fe4610fd584612de3565b610fde85612606565b846130b6565b509392505050565b6000610ff8600c6131fb565b905090565b60405163b4ed0b6d60e01b8152600481018290527f00000000000000000000000000000000000000000000000000000000000000006001600160a01b03169063b4ed0b6d9060240160206040518083038186803b15801561105d57600080fd5b505afa158015611071573d6000803e3d6000fd5b505050506040513d601f19601f820116820180604052508101906110959190614491565b60009182526020829052604090912080546001600160a01b0319166001600160a01b03909216919091179055565b6001600160a01b031660009081526012602052604090206004015490565b336110ea613205565b6001600160a01b0316148061110e575033611103613298565b6001600160a01b0316145b6111335760405162461bcd60e51b815260040161112a90614aa9565b60405180910390fd5b6001600160a01b0381166111595760405162461bcd60e51b815260040161112a90614b8b565b611164818484613309565b50505050565b6111726143e0565b60008061118f84670de0b6b3a764000061118a613365565b6130b6565b91509150604051806101800160405280306001600160a01b03168152602001856001600160a01b031681526020016111c6866110c3565b815260200160126000876001600160a01b03166001600160a01b031681526020019081526020016000206002015481526020018281526020018381526020017f0000000000000000000000000000000000000000000000000000000000000000815260200161123486612b85565b8152602001611242866121ed565b8152602001600081526020016000815260200161125e86612c8f565b6001600160a01b03169052949350505050565b600260085414156112945760405162461bcd60e51b815260040161112a90614bbf565b60026008556001600160a01b0383166000908152601660205260408120546112bd90849061339d565b90506000811161130f5760405162461bcd60e51b815260206004820152601f60248201527f4e6f2063757272656e746c7920636f6e7665727469626c652072657761726400604482015260640161112a565b6000611323858561131e611f13565b6133b5565b9050601854816113339190614c68565b61133f84612710614c68565b10156113805760405162461bcd60e51b815260206004820152601060248201526f125b9cdd59999a58da595b9d08189a5960821b604482015260640161112a565b60008461138d8585614c68565b6113979190614c54565b90506113a1611f13565b6001600160a01b0316639dc29fac33836040518363ffffffff1660e01b81526004016113ce929190614969565b600060405180830381600087803b1580156113e857600080fd5b505af11580156113fc573d6000803e3d6000fd5b505050506000612710826019546114139190614c68565b61141d9190614c54565b9050611427611f13565b6001600160a01b03166340c10f1961143d613450565b836040518363ffffffff1660e01b815260040161145b929190614969565b600060405180830381600087803b15801561147557600080fd5b505af1158015611489573d6000803e3d6000fd5b5050505080601a600082825461149f9190614c3c565b90915550506001600160a01b0387166000908152601560209081526040808320601383528184205484529091528120601954909190612710906114e29082614c87565b6114ec9086614c68565b6114f69190614c54565b8083556001600160a01b038a16600090815260136020526040812080549293508392909190611526908490614c3c565b9091555061154090506001600160a01b038a163388613488565b6001600160a01b03891660009081526016602052604081208054889290611568908490614c87565b90915550506001600855505050505050505050565b33611586613205565b6001600160a01b031614806115aa57503361159f613298565b6001600160a01b0316145b6115c65760405162461bcd60e51b815260040161112a90614aa9565b6001600160a01b0381166115ec5760405162461bcd60e51b815260040161112a90614b8b565b6040516001600160a01b0382169083156108fc029084906000818181858888f19350505050158015611622573d6000803e3d6000fd5b505050565b33611630613205565b6001600160a01b03161480611654575033611649613298565b6001600160a01b0316145b806116635750611663336134de565b6116bf5760405162461bcd60e51b81526020600482015260396024820152600080516020614d5e833981519152604482015278391037b91030baba3437b934bd32b21030b1ba34bb30ba37b960391b606482015260840161112a565b6116ca838383613581565b61116483670de0b6b3a764000061131e613365565b606060006116ed600a6131fb565b90506000816001600160401b0381111561171757634e487b7160e01b600052604160045260246000fd5b60405190808252806020026020018201604052801561175057816020015b61173d6143e0565b8152602001906001900390816117355790505b50905060005b808311156117aa5761176c610536600a836135d4565b82828151811061178c57634e487b7160e01b600052603260045260246000fd5b602002602001018190525080806117a290614cca565b915050611756565b5091505090565b336117ba613205565b6001600160a01b031614806117de5750336117d3613298565b6001600160a01b0316145b6117fa5760405162461bcd60e51b815260040161112a90614aa9565b6001600160a01b038216600090815260176020526040902061162290826130a1565b6001600160a01b0382811660009081526006602090815260408083208585168452909152902054161561190b576118516135e0565b6001600160a01b0316635e73a03483836040518363ffffffff1660e01b815260040161187e92919061494f565b60206040518083038186803b15801561189657600080fd5b505afa1580156118aa573d6000803e3d6000fd5b505050506040513d601f19601f820116820180604052508101906118ce9190614491565b6001600160a01b0383811660009081526006602090815260408083208685168452909152902080546001600160a01b031916929091169190911790555b5050565b33611918613205565b6001600160a01b0316148061193c575033611931613298565b6001600160a01b0316145b6119585760405162461bcd60e51b815260040161112a90614aa9565b601181905560408051818152600d918101919091526c61706620736d6f6f7468696e6760981b606082015260208101829052600080516020614d3e833981519152906080015b60405180910390a150565b336119b2613205565b6001600160a01b031614806119d65750336119cb613298565b6001600160a01b0316145b6119f25760405162461bcd60e51b815260040161112a90614aa9565b6119fd600a84613618565b50611a09600c846130a1565b50611a1261362d565b6001600160a01b03166311848c45306040518263ffffffff1660e01b8152600401611a3d919061493b565b600060405180830381600087803b158015611a5757600080fd5b505af1158015611a6b573d6000803e3d6000fd5b50505050505050565b60405163f0723d9760e01b81526001600160a01b037f0000000000000000000000000000000000000000000000000000000000000000169063f0723d9790611ac29084908690600401614969565b60206040518083038186803b158015611ada57600080fd5b505afa158015611aee573d6000803e3d6000fd5b505050506040513d601f19601f82011682018060405250810190611b12919061466a565b6001600160a01b0391909116600090815260016020908152604080832094835293905291909120805460ff1916911515919091179055565b60026008541415611b6d5760405162461bcd60e51b815260040161112a90614bbf565b6002600855611b7b856126b5565b6001600160a01b0316336001600160a01b031614611bab5760405162461bcd60e51b815260040161112a90614b58565b611bb784868584613665565b50506001600855505050565b33611bcc613205565b6001600160a01b03161480611bf0575033611be5613298565b6001600160a01b0316145b611c0c5760405162461bcd60e51b815260040161112a90614aa9565b6001600160a01b038116611c325760405162461bcd60e51b815260040161112a90614b8b565b6116226001600160a01b0384168284613488565b60606003805480602002602001604051908101604052809291908181526020018280548015611c9457602002820191906000526020600020905b815481526020019060010190808311611c80575b5050505050905090565b6000610ff8600a6131fb565b6000611cb7600a836136b5565b92915050565b6001600160a01b03811660009081526017602052604090204715611d50577f00000000000000000000000000000000000000000000000000000000000000006001600160a01b031663d0e30db0476040518263ffffffff1660e01b81526004016000604051808303818588803b158015611d3657600080fd5b505af1158015611d4a573d6000803e3d6000fd5b50505050505b60005b80611d5d836131fb565b111561162257611d76611d7083836135d4565b84612a3a565b80611d8081614cca565b915050611d53565b60058181548110611d9857600080fd5b600091825260209091200154905081565b60095460ff16611dcb5760405162461bcd60e51b815260040161112a90614b28565b60026008541415611dee5760405162461bcd60e51b815260040161112a90614bbf565b6002600855611dfc336136ca565b611e455760405162461bcd60e51b815260206004820152601a6024820152794e6f7420617574686f72697a656420746f20776974686472617760301b604482015260640161112a565b6001600160a01b038116611e6b5760405162461bcd60e51b815260040161112a90614b8b565b611e77848484846136f3565b505060016008555050565b6000611ea1611e9083612de3565b611e9984612606565b61118a611f13565b9392505050565b33611eb1613205565b6001600160a01b03161480611ed5575033611eca613298565b6001600160a01b0316145b611ef15760405162461bcd60e51b815260040161112a90614aa9565b6001600160a01b03821660009081526017602052604090206116229082613618565b6000610ff8613365565b60606004805480602002602001604051908101604052809291908181526020018280548015611c945760200282019190600052602060002090815481526020019060010190808311611c80575050505050905090565b600080600060026008541415611f9b5760405162461bcd60e51b815260040161112a90614bbf565b6002600855611fa9336136ca565b806120355750611fb8876126b5565b6001600160a01b0316632972b0f033896040518363ffffffff1660e01b8152600401611fe5929190614969565b60206040518083038186803b158015611ffd57600080fd5b505afa158015612011573d6000803e3d6000fd5b505050506040513d601f19601f82011682018060405250810190612035919061466a565b6120515760405162461bcd60e51b815260040161112a90614bf6565b61205c8787866137b0565b925061207961206a88612de3565b61207389612606565b876138fb565b60016008559398909750929550919350505050565b600260085414156120b15760405162461bcd60e51b815260040161112a90614bbf565b60026008556001600160a01b038116739e295b5b976a184b14ad8cd72413ad846c299660146120f25760405162461bcd60e51b815260040161112a90614af3565b601c5460405163185b800160e11b81526001600482018190526024820181905260448201819052606482018190526084820181905260a4820152600060c48201526001600160a01b03909116906330b700029060e401600060405180830381600087803b15801561216257600080fd5b505af1158015612176573d6000803e3d6000fd5b5050505061218381611cbd565b506001600855565b6001600160a01b0381166000908152601760205260408120815b806121af836131fb565b11156121e6576121c86121c283836135d4565b856127af565b6121d29084614c3c565b9250806121de81614cca565b9150506121a5565b5050919050565b6001600160a01b0381166000908152601760205260408120815b80612211836131fb565b11156121e65761222a61222483836135d4565b85612bf9565b6122349084614c3c565b92508061224081614cca565b915050612207565b60008061226661225785612de3565b61226086612606565b856130b6565b915091509250929050565b60095460ff166122935760405162461bcd60e51b815260040161112a90614b28565b600260085414156122b65760405162461bcd60e51b815260040161112a90614bbf565b60026008556122c4336136ca565b61231e5760405162461bcd60e51b815260206004820152602560248201527f4e6f7420617574686f72697a656420746f207472616e7366657220757365722060448201526466756e647360d81b606482015260840161112a565b611e7784848461232c611f13565b8561396a565b6060610ff8600a613a03565b60028181548110611d9857600080fd5b6060600061235c600c6131fb565b90506000816001600160401b0381111561238657634e487b7160e01b600052604160045260246000fd5b6040519080825280602002602001820160405280156123bf57816020015b6123ac6143e0565b8152602001906001900390816123a45790505b50905060005b808311156117aa576123db610536600c836135d4565b8282815181106123fb57634e487b7160e01b600052603260045260246000fd5b6020026020010181905250808061241190614cca565b9150506123c5565b60048181548110611d9857600080fd5b6009546000908190819060ff166124525760405162461bcd60e51b815260040161112a90614b28565b61245b876126b5565b6001600160a01b0316336001600160a01b03161461248b5760405162461bcd60e51b815260040161112a90614b58565b600061249688612de3565b905060006124a389612606565b90506124b96001600160a01b0383168983613a10565b6124c48988886137b0565b5060006124d2308484613309565b6001600160a01b038416600090815260126020526040812060020180549293508392909190612502908490614c87565b90915550929a60009a509098509650505050505050565b60095460ff1661253b5760405162461bcd60e51b815260040161112a90614b28565b6002600854141561255e5760405162461bcd60e51b815260040161112a90614bbf565b600260085561256c336136ca565b801561258857503361257d856126b5565b6001600160a01b0316145b6125c65760405162461bcd60e51b815260206004820152600f60248201526e496e76616c6964207472616e63686560881b604482015260640161112a565b611bb785858584613665565b6001600160a01b0381166000908152601760205260409020606090611cb790613a03565b60038181548110611d9857600080fd5b60009081526010602052604090205490565b6060610ff8600c613a03565b3361262d613205565b6001600160a01b03161480612651575033612646613298565b6001600160a01b0316145b61266d5760405162461bcd60e51b815260040161112a90614aa9565b601881905560408051818152600b918101919091526a135a5b9a5b5d5b48189a5960aa1b606082015260208101829052600080516020614d3e8339815191529060800161199e565b6000806126e27f000000000000000000000000000000000000000000000000000000000000000084614ce5565b6000818152600760205260409020549091506001600160a01b031680611ea157606960009081526020527f366a7b92acda364086cc991f618bf9f10b629ec0f7ae94543f96b691b69ec9925460405163043b4d2f60e51b8152600481018490526001600160a01b0390911690638769a5e09060240160206040518083038186803b15801561276f57600080fd5b505afa158015612783573d6000803e3d6000fd5b505050506040513d601f19601f820116820180604052508101906127a79190614491565b949350505050565b60006127ba826121ed565b6001600160a01b0380851660008181526014602090815260408083209488168352938152838220838352601582528483208154808552908352858420948452601390925293909120549394509192909110156129d05782156129ae578281600001600082825461282a9190614c87565b9250508190555081600101548160010160008282546128499190614c87565b90915550506001600160a01b038416600090815260126020526040812080549091906128765760006128b0565b8154829061288690600190614c87565b815481106128a457634e487b7160e01b600052603260045260246000fd5b90600052602060002001545b6001830154909150156129065760018201546000906128d3600160401b88614c68565b6128dd9190614c54565b9050826128ea8284614c3c565b81546001810183556000928352602090922090910155506129a1565b815460018101835560008381526020902001819055612923611f13565b6001600160a01b03166340c10f19612939613450565b876040518363ffffffff1660e01b8152600401612957929190614969565b600060405180830381600087803b15801561297157600080fd5b505af1158015612985573d6000803e3d6000fd5b5050505084601a600082825461299b9190614c3c565b90915550505b5060028101546001909101555b6000600183018190556001600160a01b03861681526013602052604090205482555b505092915050565b6060610ff8600e613a03565b60606002805480602002602001604051908101604052809291908181526020018280548015611c945760200282019190600052602060002090815481526020019060010190808311611c80575050505050905090565b612a438161218b565b506040516370a0823160e01b81526000906001600160a01b038416906370a0823190612a7390309060040161493b565b60206040518083038186803b158015612a8b57600080fd5b505afa158015612a9f573d6000803e3d6000fd5b505050506040513d601f19601f82011682018060405250810190612ac391906146e8565b6001600160a01b03841660009081526016602052604081205491925090612aea9083614c87565b90508015611164576001600160a01b03808516600081815260146020908152604080832094881683529381528382209282526015815283822083548352905291822060018201805492939192859290612b44908490614c3c565b9250508190555082816001016000828254612b5f9190614c3c565b909155505050506001600160a01b03939093166000908152601660205260409020555050565b6001600160a01b031660009081526012602052604090206002015490565b60606005805480602002602001604051908101604052809291908181526020018280548015611c945760200282019190600052602060002090815481526020019060010190808311611c80575050505050905090565b6001600160a01b038083166000818152601460209081526040808320948616835293815283822083835260158252848320815480855290835285842094845260139092529382205491939291118015612c56575060008160010154115b15612c8457600180820154908301548254612c719190614c68565b612c7b9190614c54565b92505050611cb7565b506000949350505050565b50601c546001600160a01b031690565b600060026008541415612cc45760405162461bcd60e51b815260040161112a90614bbf565b6002600855612cd2336136ca565b80612d5e5750612ce1846126b5565b6001600160a01b0316632972b0f033866040518363ffffffff1660e01b8152600401612d0e929190614969565b60206040518083038186803b158015612d2657600080fd5b505afa158015612d3a573d6000803e3d6000fd5b505050506040513d601f19601f82011682018060405250810190612d5e919061466a565b612d7a5760405162461bcd60e51b815260040161112a90614bf6565b612d858484846137b0565b6001600855949350505050565b600080612d9e836121ed565b611cb79190614c3c565b6000806000612db78686612fc5565b9250612dd4612dc587612de3565b612dce88612606565b866130b6565b93979096509294509192505050565b6000908152601060205260409020600201546001600160a01b031690565b60095460ff16612e235760405162461bcd60e51b815260040161112a90614b28565b33612e2c613205565b6001600160a01b03161480612e50575033612e45613298565b6001600160a01b0316145b80612e6a575033612e5f613abc565b6001600160a01b0316145b612ec55760405162461bcd60e51b81526020600482015260386024820152600080516020614d5e833981519152604482015277391037b91030baba3437b934bd32b2103234b9b0b13632b960411b606482015260840161112a565b612ecd613b20565b5060005b80612edc600e6131fb565b1115612fb7576000612eef600e836135d4565b90506000612efc82612b85565b90506000612f0861362d565b9050612f15818484613309565b50612f2b6001600160a01b038416826000613b71565b612f416001600160a01b03841682600019613b71565b60405163269974d160e21b81526001600160a01b03821690639a65d34490612f6f908890879060040161494f565b600060405180830381600087803b158015612f8957600080fd5b505af1158015612f9d573d6000803e3d6000fd5b505050505050508080612faf90614cca565b915050612ed1565b50506009805460ff19169055565b60008281526010602052604081206127a781601284612fe388612de3565b6001600160a01b03166001600160a01b0316815260200190815260200160002085613c83565b33613012613205565b6001600160a01b0316148061303657503361302b613298565b6001600160a01b0316145b6130525760405162461bcd60e51b815260040161112a90614aa9565b6019819055604080518181526012918101919091527150726f746f636f6c207969656c642066656560701b606082015260208101829052600080516020614d3e8339815191529060800161199e565b6000611ea1836001600160a01b038416613d9d565b6001600160a01b038084166000908152600660209081526040808320858516845290915281205490918291168061316f576130ef6135e0565b6001600160a01b0316635e73a03487866040518363ffffffff1660e01b815260040161311c92919061494f565b60206040518083038186803b15801561313457600080fd5b505afa158015613148573d6000803e3d6000fd5b505050506040513d601f19601f8201168201806040525081019061316c9190614491565b90505b6040516313f3552960e21b81526001600160a01b03821690634fcd54a49061319f90899089908990600401614982565b604080518083038186803b1580156131b657600080fd5b505afa1580156131ca573d6000803e3d6000fd5b505050506040513d601f19601f820116820180604052508101906131ee91906147da565b9097909650945050505050565b6000611cb7825490565b60007f00000000000000000000000000000000000000000000000000000000000000006001600160a01b0316638da5cb5b6040518163ffffffff1660e01b815260040160206040518083038186803b15801561326057600080fd5b505afa158015613274573d6000803e3d6000fd5b505050506040513d601f19601f82011682018060405250810190610ff89190614491565b60007f00000000000000000000000000000000000000000000000000000000000000006001600160a01b031663c34c08e56040518163ffffffff1660e01b8152600401602060405180830381600087803b1580156132f557600080fd5b505af1158015613274573d6000803e3d6000fd5b60006001600160a01b038316739e295b5b976a184b14ad8cd72413ad846c299660146133475760405162461bcd60e51b815260040161112a90614af3565b601b5461335e906001600160a01b03168584613488565b5092915050565b606660009081526020527f422cccb7cea5c0e46f340bb7b21b81debac329f72e31669c20ff0f3a05cc2b5b546001600160a01b031690565b6000818311156133ae575080611cb7565b5081611cb7565b6000806133c28584613de7565b604051630576cbc360e41b81529091506001600160a01b0382169063576cbc30906133f590889088908890600401614982565b602060405180830381600087803b15801561340f57600080fd5b505af1158015613423573d6000803e3d6000fd5b505050506040513d601f19601f8201168201806040525081019061344791906146e8565b95945050505050565b606760009081526020527f682158d08466d11c566d5712d4396197fdd67e65be71d83c97ef719ec468867b546001600160a01b031690565b6116228363a9059cbb60e01b84846040516024016134a7929190614969565b60408051601f198184030181529190526020810180516001600160e01b03166001600160e01b031990931692909217909152613e9b565b60405163f0723d9760e01b81526000906001600160a01b037f0000000000000000000000000000000000000000000000000000000000000000169063f0723d97906135319085906103eb90600401614969565b60206040518083038186803b15801561354957600080fd5b505afa15801561355d573d6000803e3d6000fd5b505050506040513d601f19601f82011682018060405250810190611cb7919061466a565b61358c600a846130a1565b50613598600c84613618565b506135a4600e846130a1565b506001600160a01b0383166000908152601260205260409020612710600482015542600390910155611a1261362d565b6000611ea18383613f6d565b606a60009081526020527ff3261457f4fd0b7c00a1511877ab27b74183ac470be8db3a7ecdc64335f6f979546001600160a01b031690565b6000611ea1836001600160a01b038416613fa5565b606860009081526020527faa071f48f62aaaa1f6320aaa7bd2ad2d552d05160892c14d699d38c9920d5f99546001600160a01b031690565b6001600160a01b03821660009081526012602090815260408083208054878552601090935292206001015561369a84846140c2565b6136ae8585846136a8611f13565b8961396a565b5050505050565b6000611ea1836001600160a01b038416614142565b6001600160a01b0316600090815260016020818152604080842092845291905290205460ff1690565b60008481526010602052604081209061370b86612de3565b90506137188685856137b0565b5061372b8561372688612606565b61339d565b9450613738838287613309565b508482600001600082825461374d9190614c87565b90915550506001600160a01b03811660009081526012602052604081206002810180549192889261377f908490614c87565b90915550506001830154815411156137ab57858160010160008282546137a59190614c87565b90915550505b611a6b565b60006001600160a01b0382166137d85760405162461bcd60e51b815260040161112a90614b8b565b6137e0611f13565b6001600160a01b0316836001600160a01b0316146138405760405162461bcd60e51b815260206004820181905260248201527f4f6e6c7920757365206f6666696369616c207969656c642063757272656e6379604482015260640161112a565b60008481526010602052604081209060128161385b88612de3565b6001600160a01b0316815260208101919091526040016000208254909150156138ed57613889828287613c83565b6040516340c10f1960e01b81529093506001600160a01b038616906340c10f19906138ba9087908790600401614969565b600060405180830381600087803b1580156138d457600080fd5b505af11580156138e8573d6000803e3d6000fd5b505050505b546001909101559392505050565b600080600061390a8685613de7565b60405163442fd02b60e11b81529091506001600160a01b0382169063885fa0569061393d90899089908990600401614982565b6040805180830381600087803b15801561395657600080fd5b505af11580156131ca573d6000803e3d6000fd5b600061397585612de3565b90506139828584846137b0565b5061398e86828661415a565b6000858152601060205260409020546139a78582614c3c565b6000878152601060209081526040808320939093556001600160a01b038516825260129052908120600281018054919288926139e4908490614c3c565b909155506139f9905087846116228986614c3c565b5050505050505050565b60606000611ea1836141dc565b600081846001600160a01b031663dd62ed3e30866040518363ffffffff1660e01b8152600401613a4192919061494f565b60206040518083038186803b158015613a5957600080fd5b505afa158015613a6d573d6000803e3d6000fd5b505050506040513d601f19601f82011682018060405250810190613a9191906146e8565b613a9b9190614c3c565b90506111648463095ea7b360e01b85846040516024016134a7929190614969565b60405163b4ed0b6d60e01b81526103e960048201526000907f00000000000000000000000000000000000000000000000000000000000000006001600160a01b03169063b4ed0b6d9060240160206040518083038186803b15801561326057600080fd5b6000805b80613b2f600e6131fb565b1115613b6d576000613b42600e836135d4565b9050613b4d8161218b565b613b579084614c3c565b9250508080613b6590614cca565b915050613b24565b5090565b801580613bf95750604051636eb1769f60e11b81526001600160a01b0384169063dd62ed3e90613ba7903090869060040161494f565b60206040518083038186803b158015613bbf57600080fd5b505afa158015613bd3573d6000803e3d6000fd5b505050506040513d601f19601f82011682018060405250810190613bf791906146e8565b155b613c645760405162461bcd60e51b815260206004820152603660248201527f5361666545524332303a20617070726f76652066726f6d206e6f6e2d7a65726f60448201527520746f206e6f6e2d7a65726f20616c6c6f77616e636560501b606482015260840161112a565b6116228363095ea7b360e01b84846040516024016134a7929190614969565b6000613c8d611f13565b6001600160a01b0316826001600160a01b031614613ce45760405162461bcd60e51b815260206004820152601460248201527357726f6e67207969656c642063757272656e637960601b604482015260640161112a565b6001840154835484911015613d9357600081866001015481548110613d1957634e487b7160e01b600052603260045260246000fd5b90600052602060002001548260018480549050613d369190614c87565b81548110613d5457634e487b7160e01b600052603260045260246000fd5b9060005260206000200154613d699190614c87565b9050600160401b818760000154613d809190614c68565b613d8a9190614c54565b92505050611ea1565b6000915050611ea1565b6000613da98383614142565b613ddf57508154600181810184556000848152602080822090930184905584548482528286019093526040902091909155611cb7565b506000611cb7565b6001600160a01b03808316600090815260066020908152604080832085851684529091529020541680611cb757613e1c6135e0565b6001600160a01b0316631757616884846040518363ffffffff1660e01b8152600401613e4992919061494f565b602060405180830381600087803b158015613e6357600080fd5b505af1158015613e77573d6000803e3d6000fd5b505050506040513d601f19601f82011682018060405250810190611ea19190614491565b6000613ef0826040518060400160405280602081526020017f5361666545524332303a206c6f772d6c6576656c2063616c6c206661696c6564815250856001600160a01b03166142389092919063ffffffff16565b8051909150156116225780806020019051810190613f0e919061466a565b6116225760405162461bcd60e51b815260206004820152602a60248201527f5361666545524332303a204552433230206f7065726174696f6e20646964206e6044820152691bdd081cdd58d8d9595960b21b606482015260840161112a565b6000826000018281548110613f9257634e487b7160e01b600052603260045260246000fd5b9060005260206000200154905092915050565b600081815260018301602052604081205480156140b8576000613fc9600183614c87565b8554909150600090613fdd90600190614c87565b905081811461405e57600086600001828154811061400b57634e487b7160e01b600052603260045260246000fd5b906000526020600020015490508087600001848154811061403c57634e487b7160e01b600052603260045260246000fd5b6000918252602080832090910192909255918252600188019052604090208390555b855486908061407d57634e487b7160e01b600052603160045260246000fd5b600190038181906000526020600020016000905590558560010160008681526020019081526020016000206000905560019350505050611cb7565b6000915050611cb7565b6140cd600a826136b5565b6141115760405162461bcd60e51b81526020600482015260156024820152742737ba1030b71030b8383937bb32b2103a37b5b2b760591b604482015260640161112a565b60009182526010602052604090912060020180546001600160a01b0319166001600160a01b03909216919091179055565b60009081526001919091016020526040902054151590565b6001600160a01b038216739e295b5b976a184b14ad8cd72413ad846c299660146141c45760405162461bcd60e51b815260206004820152601b60248201527a05374726174656779206f6e6c792061636365707473206673474c5602c1b604482015260640161112a565b601b54611622906001600160a01b0316843084614247565b60608160000180548060200260200160405190810160405280929190818152602001828054801561422c57602002820191906000526020600020905b815481526020019060010190808311614218575b50505050509050919050565b60606127a7848460008561427f565b6040516001600160a01b03808516602483015283166044820152606481018290526111649085906323b872dd60e01b906084016134a7565b6060824710156142e05760405162461bcd60e51b815260206004820152602660248201527f416464726573733a20696e73756666696369656e742062616c616e636520666f6044820152651c8818d85b1b60d21b606482015260840161112a565b843b61432e5760405162461bcd60e51b815260206004820152601d60248201527f416464726573733a2063616c6c20746f206e6f6e2d636f6e7472616374000000604482015260640161112a565b600080866001600160a01b0316858760405161434a919061491f565b60006040518083038185875af1925050503d8060008114614387576040519150601f19603f3d011682016040523d82523d6000602084013e61438c565b606091505b509150915061439c8282866143a7565b979650505050505050565b606083156143b6575081611ea1565b8251156143c65782518084602001fd5b8160405162461bcd60e51b815260040161112a9190614a96565b60405180610180016040528060006001600160a01b0316815260200160006001600160a01b03168152602001600081526020016000815260200160008152602001600081526020016000801916815260200160008152602001600081526020016000600281111561446157634e487b7160e01b600052602160045260246000fd5b815260006020820181905260409091015290565b600060208284031215614486578081fd5b8135611ea181614d25565b6000602082840312156144a2578081fd5b8151611ea181614d25565b600080604083850312156144bf578081fd5b82356144ca81614d25565b915060208301356144da81614d25565b809150509250929050565b6000806000604084860312156144f9578081fd5b833561450481614d25565b925060208401356001600160401b038082111561451f578283fd5b818601915086601f830112614532578283fd5b813581811115614540578384fd5b876020828501011115614551578384fd5b6020830194508093505050509250925092565b60008060408385031215614576578182fd5b823561458181614d25565b946020939093013593505050565b6000806000606084860312156145a3578283fd5b83356145ae81614d25565b92506020840135915060408401356145c581614d25565b809150509250925092565b600080600080600060a086880312156145e7578081fd5b85356145f281614d25565b945060208601359350604086013561460981614d25565b94979396509394606081013594506080013592915050565b60008060008060808587031215614636578384fd5b843561464181614d25565b93506020850135925060408501359150606085013561465f81614d25565b939692955090935050565b60006020828403121561467b578081fd5b81518015158114611ea1578182fd5b600080604083850312156144bf578182fd5b6000806000606084860312156146b0578283fd5b83356146bb81614d25565b95602085013595506040909401359392505050565b6000602082840312156146e1578081fd5b5035919050565b6000602082840312156146f9578081fd5b5051919050565b60008060408385031215614712578182fd5b8235915060208301356144da81614d25565b600080600060608486031215614738578081fd5b83359250602084013561474a81614d25565b915060408401356145c581614d25565b6000806000806080858703121561476f578182fd5b84359350602085013561478181614d25565b9250604085013561479181614d25565b9150606085013561465f81614d25565b600080600080600060a086880312156147b8578283fd5b8535945060208601356147ca81614d25565b9350604086013561460981614d25565b600080604083850312156147ec578182fd5b505080516020909101519092909150565b60008060008060808587031215614812578182fd5b8435935060208501359250604085013561479181614d25565b6001600160a01b03169052565b60008151808452614850816020860160208601614c9e565b601f01601f19169290920160200192915050565b6003811061488257634e487b7160e01b600052602160045260246000fd5b9052565b61489182825161482b565b60208101516148a3602084018261482b565b5060408101516040830152606081015160608301526080810151608083015260a081015160a083015260c081015160c083015260e081015160e0830152610100808201518184015250610120808201516148ff82850182614864565b50506101408181015190830152610160808201516111648285018261482b565b60008251614931818460208701614c9e565b9190910192915050565b6001600160a01b0391909116815260200190565b6001600160a01b0392831681529116602082015260400190565b6001600160a01b03929092168252602082015260400190565b6001600160a01b0393841681526020810192909252909116604082015260600190565b6020808252825182820181905260009190848201906040850190845b818110156149e65783516001600160a01b0316835292840192918401916001016149c1565b50909695505050505050565b6020808252825182820181905260009190848201906040850190845b818110156149e657614a21838551614886565b928401926101809290920191600101614a0e565b6020808252825182820181905260009190848201906040850190845b818110156149e657835183529284019291840191600101614a51565b60008315158252604060208301526127a76040830184614838565b60208101611cb78284614864565b600060208252611ea16020830184614838565b6020808252602a908201527f526f6c65733a2063616c6c6572206973206e6f7420746865206f776e6572206f604082015269391032bc32b1baba37b960b11b606082015260800190565b6020808252601b908201527a05374726174656779206f6e6c792068616e646c6573206673474c5602c1b604082015260600190565b6020808252601690820152755374726174656779206973206e6f742061637469766560501b604082015260600190565b6020808252601990820152784e6f7420617574686f72697a656420746f206d69677261746560381b604082015260600190565b6020808252601a9082015279446f6e27742073656e6420746f207a65726f206164647265737360301b604082015260600190565b6020808252601f908201527f5265656e7472616e637947756172643a207265656e7472616e742063616c6c00604082015260600190565b6020808252601f908201527f4e6f7420617574686f72697a656420746f20636f6c6c656374207969656c6400604082015260600190565b6101808101611cb78284614886565b60008219821115614c4f57614c4f614cf9565b500190565b600082614c6357614c63614d0f565b500490565b6000816000190483118215151615614c8257614c82614cf9565b500290565b600082821015614c9957614c99614cf9565b500390565b60005b83811015614cb9578181015183820152602001614ca1565b838111156111645750506000910152565b6000600019821415614cde57614cde614cf9565b5060010190565b600082614cf457614cf4614d0f565b500690565b634e487b7160e01b600052601160045260246000fd5b634e487b7160e01b600052601260045260246000fd5b6001600160a01b0381168114614d3a57600080fd5b5056fe3a64504f0bc0c335e2aecb78638a257e0351a3fe0370861fd54ee4190b92093343616c6c6572206973206e6f7420746865206f776e65722c206578656375746fa264697066735822122049eb597425137ff063b1d5c577562f0757b961f7946b0af714a50b1ccf4d775964736f6c63430008030033405787fa12a823e0f2b7631cc41b3ba8828b3321ca811111fa75cd3aa3bb5ace",
  "linkReferences": {},
  "deployedLinkReferences": {}
}