{
  "_format": "hh-sol-artifact-1",
  "contractName": "VestingLaunchReward",
  "sourceName": "contracts/rewards/VestingLaunchReward.sol",
  "abi": [
    {
      "inputs": [
        {
          "internalType": "address",
          "name": "_vestingToken",
          "type": "address"
        }
      ],
      "stateMutability": "nonpayable",
      "type": "constructor"
    },
    {
      "anonymous": false,
      "inputs": [
        {
          "indexed": true,
          "internalType": "address",
          "name": "previousOwner",
          "type": "address"
        },
        {
          "indexed": true,
          "internalType": "address",
          "name": "newOwner",
          "type": "address"
        }
      ],
      "name": "OwnershipTransferred",
      "type": "event"
    },
    {
      "inputs": [
        {
          "internalType": "address",
          "name": "",
          "type": "address"
        }
      ],
      "name": "balanceOf",
      "outputs": [
        {
          "internalType": "uint256",
          "name": "",
          "type": "uint256"
        }
      ],
      "stateMutability": "view",
      "type": "function"
    },
    {
      "inputs": [
        {
          "internalType": "uint256",
          "name": "amount",
          "type": "uint256"
        }
      ],
      "name": "burn",
      "outputs": [],
      "stateMutability": "nonpayable",
      "type": "function"
    },
    {
      "inputs": [
        {
          "internalType": "address",
          "name": "account",
          "type": "address"
        }
      ],
      "name": "burnableByAccount",
      "outputs": [
        {
          "internalType": "uint256",
          "name": "",
          "type": "uint256"
        }
      ],
      "stateMutability": "view",
      "type": "function"
    },
    {
      "inputs": [
        {
          "internalType": "address[]",
          "name": "recipients",
          "type": "address[]"
        },
        {
          "internalType": "uint256[]",
          "name": "amounts",
          "type": "uint256[]"
        }
      ],
      "name": "mint",
      "outputs": [],
      "stateMutability": "nonpayable",
      "type": "function"
    },
    {
      "inputs": [],
      "name": "owner",
      "outputs": [
        {
          "internalType": "address",
          "name": "",
          "type": "address"
        }
      ],
      "stateMutability": "view",
      "type": "function"
    },
    {
      "inputs": [],
      "name": "renounceOwnership",
      "outputs": [],
      "stateMutability": "nonpayable",
      "type": "function"
    },
    {
      "inputs": [
        {
          "internalType": "address",
          "name": "token",
          "type": "address"
        },
        {
          "internalType": "address",
          "name": "recipient",
          "type": "address"
        },
        {
          "internalType": "uint256",
          "name": "amount",
          "type": "uint256"
        }
      ],
      "name": "rescueFunds",
      "outputs": [],
      "stateMutability": "nonpayable",
      "type": "function"
    },
    {
      "inputs": [
        {
          "internalType": "uint256",
          "name": "startTime",
          "type": "uint256"
        }
      ],
      "name": "setVestingStart",
      "outputs": [],
      "stateMutability": "nonpayable",
      "type": "function"
    },
    {
      "inputs": [
        {
          "internalType": "uint256",
          "name": "time",
          "type": "uint256"
        }
      ],
      "name": "setVestingTime",
      "outputs": [],
      "stateMutability": "nonpayable",
      "type": "function"
    },
    {
      "inputs": [
        {
          "internalType": "address",
          "name": "newOwner",
          "type": "address"
        }
      ],
      "name": "transferOwnership",
      "outputs": [],
      "stateMutability": "nonpayable",
      "type": "function"
    },
    {
      "inputs": [],
      "name": "vestingStart",
      "outputs": [
        {
          "internalType": "uint256",
          "name": "",
          "type": "uint256"
        }
      ],
      "stateMutability": "view",
      "type": "function"
    },
    {
      "inputs": [],
      "name": "vestingTime",
      "outputs": [
        {
          "internalType": "uint256",
          "name": "",
          "type": "uint256"
        }
      ],
      "stateMutability": "view",
      "type": "function"
    },
    {
      "inputs": [],
      "name": "vestingToken",
      "outputs": [
        {
          "internalType": "contract IERC20",
          "name": "",
          "type": "address"
        }
      ],
      "stateMutability": "view",
      "type": "function"
    },
    {
      "inputs": [
        {
          "internalType": "address",
          "name": "",
          "type": "address"
        }
      ],
      "name": "withdrawn",
      "outputs": [
        {
          "internalType": "uint256",
          "name": "",
          "type": "uint256"
        }
      ],
      "stateMutability": "view",
      "type": "function"
    }
  ],
  "bytecode": "0x60a06040526283d60060015534801561001757600080fd5b50604051610d15380380610d15833981016040819052610036916100b4565b61003f33610064565b61004c620d2f00426100e2565b60025560601b6001600160601b031916608052610105565b600080546001600160a01b038381166001600160a01b0319831681178455604051919092169283917f8be0079c531659141344cd1fd0a4f28419497f9722a3daafe3b4186f6b6457e09190a35050565b6000602082840312156100c5578081fd5b81516001600160a01b03811681146100db578182fd5b9392505050565b60008282101561010057634e487b7160e01b81526011600452602481fd5b500390565b60805160601c610bec6101296000396000818160d901526102e30152610bec6000f3fe608060405234801561001057600080fd5b50600436106100ba5760003560e01c8063126f854d146100bf57806319d152fa146100d4578063254800d41461011857806342966c681461012f5780636ccae054146101425780636ef610921461015557806370a0823114610175578063715018a614610195578063802921601461019d5780638da5cb5b146101b0578063c7dab436146101b8578063d9a80dbc146101c1578063e467f7e0146101d4578063f2fde38b146101e7575b600080fd5b6100d26100cd366004610a4b565b6101fa565b005b6100fb7f000000000000000000000000000000000000000000000000000000000000000081565b6040516001600160a01b0390911681526020015b60405180910390f35b61012160025481565b60405190815260200161010f565b6100d261013d366004610a4b565b610237565b6100d2610150366004610988565b61030d565b61012161016336600461096e565b60046020526000908152604090205481565b61012161018336600461096e565b60036020526000908152604090205481565b6100d2610355565b6100d26101ab366004610a4b565b610390565b6100fb6103c4565b61012160015481565b6101216101cf36600461096e565b6103d3565b6100d26101e23660046109c3565b61045a565b6100d26101f536600461096e565b61056a565b336102036103c4565b6001600160a01b0316146102325760405162461bcd60e51b815260040161022990610ab2565b60405180910390fd5b600255565b80610241336103d3565b101561028d5760405162461bcd60e51b815260206004820152601b60248201527a0a8e4f2d2dcce40e8de40eed2e8d0c8e4c2ee40e8dede40daeac6d602b1b6044820152606401610229565b33600090815260046020526040812080548392906102ac908490610ae7565b909155505033600090815260036020526040812080548392906102d0908490610b3e565b9091555061030a90506001600160a01b037f0000000000000000000000000000000000000000000000000000000000000000163383610607565b50565b336103166103c4565b6001600160a01b03161461033c5760405162461bcd60e51b815260040161022990610ab2565b6103506001600160a01b0384168383610607565b505050565b3361035e6103c4565b6001600160a01b0316146103845760405162461bcd60e51b815260040161022990610ab2565b61038e6000610659565b565b336103996103c4565b6001600160a01b0316146103bf5760405162461bcd60e51b815260040161022990610ab2565b600155565b6000546001600160a01b031690565b600080600254426103e49190610b3e565b6001600160a01b038416600090815260036020908152604080832054600490925282205492935091906104178284610ae7565b9050600061043d82600154878561042e9190610b1f565b6104389190610aff565b6106a9565b905061044d846104388584610b3e565b955050505050505b919050565b336104636103c4565b6001600160a01b0316146104895760405162461bcd60e51b815260040161022990610ab2565b8281146104cc5760405162461bcd60e51b81526020600482015260116024820152704d69736d6174636865642061727261797360781b6044820152606401610229565b60005b80841115610563578282828181106104f757634e487b7160e01b600052603260045260246000fd5b905060200201356003600087878581811061052257634e487b7160e01b600052603260045260246000fd5b9050602002016020810190610537919061096e565b6001600160a01b031681526020810191909152604001600020558061055b81610b85565b9150506104cf565b5050505050565b336105736103c4565b6001600160a01b0316146105995760405162461bcd60e51b815260040161022990610ab2565b6001600160a01b0381166105fe5760405162461bcd60e51b815260206004820152602660248201527f4f776e61626c653a206e6577206f776e657220697320746865207a65726f206160448201526564647265737360d01b6064820152608401610229565b61030a81610659565b604080516001600160a01b038416602482015260448082018490528251808303909101815260649091019091526020810180516001600160e01b031663a9059cbb60e01b1790526103509084906106c2565b600080546001600160a01b038381166001600160a01b0319831681178455604051919092169283917f8be0079c531659141344cd1fd0a4f28419497f9722a3daafe3b4186f6b6457e09190a35050565b60008183106106b95750806106bc565b50815b92915050565b6000610717826040518060400160405280602081526020017f5361666545524332303a206c6f772d6c6576656c2063616c6c206661696c6564815250856001600160a01b03166107949092919063ffffffff16565b80519091501561035057808060200190518101906107359190610a2b565b6103505760405162461bcd60e51b815260206004820152602a60248201527f5361666545524332303a204552433230206f7065726174696f6e20646964206e6044820152691bdd081cdd58d8d9595960b21b6064820152608401610229565b60606107a384846000856107ad565b90505b9392505050565b60608247101561080e5760405162461bcd60e51b815260206004820152602660248201527f416464726573733a20696e73756666696369656e742062616c616e636520666f6044820152651c8818d85b1b60d21b6064820152608401610229565b843b61085c5760405162461bcd60e51b815260206004820152601d60248201527f416464726573733a2063616c6c20746f206e6f6e2d636f6e74726163740000006044820152606401610229565b600080866001600160a01b031685876040516108789190610a63565b60006040518083038185875af1925050503d80600081146108b5576040519150601f19603f3d011682016040523d82523d6000602084013e6108ba565b606091505b50915091506108ca8282866108d5565b979650505050505050565b606083156108e45750816107a6565b8251156108f45782518084602001fd5b8160405162461bcd60e51b81526004016102299190610a7f565b80356001600160a01b038116811461045557600080fd5b60008083601f840112610936578182fd5b5081356001600160401b0381111561094c578182fd5b6020830191508360208260051b850101111561096757600080fd5b9250929050565b60006020828403121561097f578081fd5b6107a68261090e565b60008060006060848603121561099c578182fd5b6109a58461090e565b92506109b36020850161090e565b9150604084013590509250925092565b600080600080604085870312156109d8578081fd5b84356001600160401b03808211156109ee578283fd5b6109fa88838901610925565b90965094506020870135915080821115610a12578283fd5b50610a1f87828801610925565b95989497509550505050565b600060208284031215610a3c578081fd5b815180151581146107a6578182fd5b600060208284031215610a5c578081fd5b5035919050565b60008251610a75818460208701610b55565b9190910192915050565b6000602082528251806020840152610a9e816040850160208701610b55565b601f01601f19169190910160400192915050565b6020808252818101527f4f776e61626c653a2063616c6c6572206973206e6f7420746865206f776e6572604082015260600190565b60008219821115610afa57610afa610ba0565b500190565b600082610b1a57634e487b7160e01b81526012600452602481fd5b500490565b6000816000190483118215151615610b3957610b39610ba0565b500290565b600082821015610b5057610b50610ba0565b500390565b60005b83811015610b70578181015183820152602001610b58565b83811115610b7f576000848401525b50505050565b6000600019821415610b9957610b99610ba0565b5060010190565b634e487b7160e01b600052601160045260246000fdfea2646970667358221220e15220d159274687011cd29147340f2176a4a820487ea0147d3e67bf53e66ce264736f6c63430008030033",
  "linkReferences": {},
  "deployedLinkReferences": {}
}