{
  "_format": "hh-sol-artifact-1",
  "contractName": "VeMoreToken",
  "sourceName": "contracts/governance/VeMoreToken.sol",
  "abi": [
    {
      "anonymous": false,
      "inputs": [
        {
          "indexed": true,
          "internalType": "address",
          "name": "account",
          "type": "address"
        },
        {
          "indexed": false,
          "internalType": "uint256",
          "name": "value",
          "type": "uint256"
        }
      ],
      "name": "Burn",
      "type": "event"
    },
    {
      "anonymous": false,
      "inputs": [
        {
          "indexed": true,
          "internalType": "address",
          "name": "user",
          "type": "address"
        },
        {
          "indexed": true,
          "internalType": "uint256",
          "name": "amount",
          "type": "uint256"
        }
      ],
      "name": "Claimed",
      "type": "event"
    },
    {
      "anonymous": false,
      "inputs": [
        {
          "indexed": true,
          "internalType": "address",
          "name": "beneficiary",
          "type": "address"
        },
        {
          "indexed": false,
          "internalType": "uint256",
          "name": "value",
          "type": "uint256"
        }
      ],
      "name": "Mint",
      "type": "event"
    },
    {
      "anonymous": false,
      "inputs": [
        {
          "indexed": true,
          "internalType": "address",
          "name": "previousOwner",
          "type": "address"
        },
        {
          "indexed": true,
          "internalType": "address",
          "name": "newOwner",
          "type": "address"
        }
      ],
      "name": "OwnershipTransferred",
      "type": "event"
    },
    {
      "anonymous": false,
      "inputs": [
        {
          "indexed": false,
          "internalType": "address",
          "name": "account",
          "type": "address"
        }
      ],
      "name": "Paused",
      "type": "event"
    },
    {
      "anonymous": false,
      "inputs": [
        {
          "indexed": true,
          "internalType": "address",
          "name": "user",
          "type": "address"
        },
        {
          "indexed": true,
          "internalType": "uint256",
          "name": "amount",
          "type": "uint256"
        }
      ],
      "name": "Staked",
      "type": "event"
    },
    {
      "anonymous": false,
      "inputs": [
        {
          "indexed": true,
          "internalType": "address",
          "name": "user",
          "type": "address"
        },
        {
          "indexed": true,
          "internalType": "uint256",
          "name": "nftId",
          "type": "uint256"
        }
      ],
      "name": "StakedNft",
      "type": "event"
    },
    {
      "anonymous": false,
      "inputs": [
        {
          "indexed": false,
          "internalType": "address",
          "name": "account",
          "type": "address"
        }
      ],
      "name": "Unpaused",
      "type": "event"
    },
    {
      "anonymous": false,
      "inputs": [
        {
          "indexed": true,
          "internalType": "address",
          "name": "user",
          "type": "address"
        },
        {
          "indexed": true,
          "internalType": "uint256",
          "name": "amount",
          "type": "uint256"
        }
      ],
      "name": "Unstaked",
      "type": "event"
    },
    {
      "anonymous": false,
      "inputs": [
        {
          "indexed": true,
          "internalType": "address",
          "name": "user",
          "type": "address"
        },
        {
          "indexed": true,
          "internalType": "uint256",
          "name": "nftId",
          "type": "uint256"
        }
      ],
      "name": "UnstakedNft",
      "type": "event"
    },
    {
      "inputs": [
        {
          "internalType": "contract IMasterMore",
          "name": "_masterMore",
          "type": "address"
        }
      ],
      "name": "addListener",
      "outputs": [],
      "stateMutability": "nonpayable",
      "type": "function"
    },
    {
      "inputs": [
        {
          "internalType": "address",
          "name": "account",
          "type": "address"
        }
      ],
      "name": "balanceOf",
      "outputs": [
        {
          "internalType": "uint256",
          "name": "",
          "type": "uint256"
        }
      ],
      "stateMutability": "view",
      "type": "function"
    },
    {
      "inputs": [],
      "name": "claim",
      "outputs": [],
      "stateMutability": "nonpayable",
      "type": "function"
    },
    {
      "inputs": [
        {
          "internalType": "address",
          "name": "_addr",
          "type": "address"
        }
      ],
      "name": "claimable",
      "outputs": [
        {
          "internalType": "uint256",
          "name": "",
          "type": "uint256"
        }
      ],
      "stateMutability": "view",
      "type": "function"
    },
    {
      "inputs": [],
      "name": "decimals",
      "outputs": [
        {
          "internalType": "uint8",
          "name": "",
          "type": "uint8"
        }
      ],
      "stateMutability": "view",
      "type": "function"
    },
    {
      "inputs": [
        {
          "internalType": "uint256",
          "name": "_amount",
          "type": "uint256"
        }
      ],
      "name": "deposit",
      "outputs": [],
      "stateMutability": "nonpayable",
      "type": "function"
    },
    {
      "inputs": [],
      "name": "generationRate",
      "outputs": [
        {
          "internalType": "uint256",
          "name": "",
          "type": "uint256"
        }
      ],
      "stateMutability": "view",
      "type": "function"
    },
    {
      "inputs": [
        {
          "internalType": "address",
          "name": "_addr",
          "type": "address"
        }
      ],
      "name": "getStakedMore",
      "outputs": [
        {
          "internalType": "uint256",
          "name": "",
          "type": "uint256"
        }
      ],
      "stateMutability": "view",
      "type": "function"
    },
    {
      "inputs": [
        {
          "internalType": "address",
          "name": "_addr",
          "type": "address"
        }
      ],
      "name": "getStakedNft",
      "outputs": [
        {
          "internalType": "uint256",
          "name": "",
          "type": "uint256"
        }
      ],
      "stateMutability": "view",
      "type": "function"
    },
    {
      "inputs": [
        {
          "internalType": "address",
          "name": "_account",
          "type": "address"
        }
      ],
      "name": "getVotes",
      "outputs": [
        {
          "internalType": "uint256",
          "name": "",
          "type": "uint256"
        }
      ],
      "stateMutability": "view",
      "type": "function"
    },
    {
      "inputs": [
        {
          "internalType": "contract IERC20",
          "name": "_more",
          "type": "address"
        },
        {
          "internalType": "contract IVeMoreTokenNFT",
          "name": "_nft",
          "type": "address"
        }
      ],
      "name": "initialize",
      "outputs": [],
      "stateMutability": "nonpayable",
      "type": "function"
    },
    {
      "inputs": [],
      "name": "invVoteThreshold",
      "outputs": [
        {
          "internalType": "uint256",
          "name": "",
          "type": "uint256"
        }
      ],
      "stateMutability": "view",
      "type": "function"
    },
    {
      "inputs": [
        {
          "internalType": "address",
          "name": "_addr",
          "type": "address"
        }
      ],
      "name": "isUser",
      "outputs": [
        {
          "internalType": "bool",
          "name": "",
          "type": "bool"
        }
      ],
      "stateMutability": "view",
      "type": "function"
    },
    {
      "inputs": [],
      "name": "maxCap",
      "outputs": [
        {
          "internalType": "uint256",
          "name": "",
          "type": "uint256"
        }
      ],
      "stateMutability": "view",
      "type": "function"
    },
    {
      "inputs": [],
      "name": "more",
      "outputs": [
        {
          "internalType": "contract IERC20",
          "name": "",
          "type": "address"
        }
      ],
      "stateMutability": "view",
      "type": "function"
    },
    {
      "inputs": [],
      "name": "name",
      "outputs": [
        {
          "internalType": "string",
          "name": "",
          "type": "string"
        }
      ],
      "stateMutability": "view",
      "type": "function"
    },
    {
      "inputs": [],
      "name": "nft",
      "outputs": [
        {
          "internalType": "contract IVeMoreTokenNFT",
          "name": "",
          "type": "address"
        }
      ],
      "stateMutability": "view",
      "type": "function"
    },
    {
      "inputs": [
        {
          "internalType": "address",
          "name": "",
          "type": "address"
        },
        {
          "internalType": "address",
          "name": "_from",
          "type": "address"
        },
        {
          "internalType": "uint256",
          "name": "_tokenId",
          "type": "uint256"
        },
        {
          "internalType": "bytes",
          "name": "",
          "type": "bytes"
        }
      ],
      "name": "onERC721Received",
      "outputs": [
        {
          "internalType": "bytes4",
          "name": "",
          "type": "bytes4"
        }
      ],
      "stateMutability": "nonpayable",
      "type": "function"
    },
    {
      "inputs": [],
      "name": "owner",
      "outputs": [
        {
          "internalType": "address",
          "name": "",
          "type": "address"
        }
      ],
      "stateMutability": "view",
      "type": "function"
    },
    {
      "inputs": [],
      "name": "pause",
      "outputs": [],
      "stateMutability": "nonpayable",
      "type": "function"
    },
    {
      "inputs": [],
      "name": "paused",
      "outputs": [
        {
          "internalType": "bool",
          "name": "",
          "type": "bool"
        }
      ],
      "stateMutability": "view",
      "type": "function"
    },
    {
      "inputs": [
        {
          "internalType": "contract IMasterMore",
          "name": "_masterMore",
          "type": "address"
        }
      ],
      "name": "removeListener",
      "outputs": [],
      "stateMutability": "nonpayable",
      "type": "function"
    },
    {
      "inputs": [],
      "name": "renounceOwnership",
      "outputs": [],
      "stateMutability": "nonpayable",
      "type": "function"
    },
    {
      "inputs": [
        {
          "internalType": "uint256",
          "name": "_generationRate",
          "type": "uint256"
        }
      ],
      "name": "setGenerationRate",
      "outputs": [],
      "stateMutability": "nonpayable",
      "type": "function"
    },
    {
      "inputs": [
        {
          "internalType": "uint256",
          "name": "_invVoteThreshold",
          "type": "uint256"
        }
      ],
      "name": "setInvVoteThreshold",
      "outputs": [],
      "stateMutability": "nonpayable",
      "type": "function"
    },
    {
      "inputs": [
        {
          "internalType": "uint256",
          "name": "_maxCap",
          "type": "uint256"
        }
      ],
      "name": "setMaxCap",
      "outputs": [],
      "stateMutability": "nonpayable",
      "type": "function"
    },
    {
      "inputs": [
        {
          "internalType": "contract IVeMoreTokenNFT",
          "name": "_nft",
          "type": "address"
        }
      ],
      "name": "setNftAddress",
      "outputs": [],
      "stateMutability": "nonpayable",
      "type": "function"
    },
    {
      "inputs": [
        {
          "internalType": "contract Whitelist",
          "name": "_whitelist",
          "type": "address"
        }
      ],
      "name": "setWhitelist",
      "outputs": [],
      "stateMutability": "nonpayable",
      "type": "function"
    },
    {
      "inputs": [],
      "name": "symbol",
      "outputs": [
        {
          "internalType": "string",
          "name": "",
          "type": "string"
        }
      ],
      "stateMutability": "view",
      "type": "function"
    },
    {
      "inputs": [],
      "name": "totalSupply",
      "outputs": [
        {
          "internalType": "uint256",
          "name": "",
          "type": "uint256"
        }
      ],
      "stateMutability": "view",
      "type": "function"
    },
    {
      "inputs": [
        {
          "internalType": "address",
          "name": "newOwner",
          "type": "address"
        }
      ],
      "name": "transferOwnership",
      "outputs": [],
      "stateMutability": "nonpayable",
      "type": "function"
    },
    {
      "inputs": [],
      "name": "unpause",
      "outputs": [],
      "stateMutability": "nonpayable",
      "type": "function"
    },
    {
      "inputs": [],
      "name": "unstakeNft",
      "outputs": [],
      "stateMutability": "nonpayable",
      "type": "function"
    },
    {
      "inputs": [
        {
          "internalType": "address",
          "name": "",
          "type": "address"
        }
      ],
      "name": "users",
      "outputs": [
        {
          "internalType": "uint256",
          "name": "amount",
          "type": "uint256"
        },
        {
          "internalType": "uint256",
          "name": "lastRelease",
          "type": "uint256"
        },
        {
          "internalType": "uint256",
          "name": "stakedNftId",
          "type": "uint256"
        }
      ],
      "stateMutability": "view",
      "type": "function"
    },
    {
      "inputs": [],
      "name": "whitelist",
      "outputs": [
        {
          "internalType": "contract Whitelist",
          "name": "",
          "type": "address"
        }
      ],
      "stateMutability": "view",
      "type": "function"
    },
    {
      "inputs": [
        {
          "internalType": "uint256",
          "name": "_amount",
          "type": "uint256"
        }
      ],
      "name": "withdraw",
      "outputs": [],
      "stateMutability": "nonpayable",
      "type": "function"
    }
  ],
  "bytecode": "0x608060405234801561001057600080fd5b5061249e806100206000396000f3fe608060405234801561001057600080fd5b50600436106101ac5760003560e01c806306fdde03146101b15780630b102d1a146101cf578063150b7a02146101e457806315e722701461021057806318160ddd1461023057806323548b8b14610246578063282a11291461024f5780632e1a7d4d14610262578063313ce567146102755780633f4ba83a14610284578063402914f51461028c578063415fb1a01461029f5780634209fff1146102b257806347ccca02146102d5578063485cc955146102e85780634e615a25146102fb5780634e71d92d146103055780635c975abb1461030d5780636e0d32351461031857806370a0823114610320578063715018a614610333578063763265de1461033b5780637b1ba2501461034e5780638456cb5914610358578063854cff2f146103605780638da5cb5b1461037357806393e59dc11461037b57806395d89b411461038f5780639ab24eb0146103975780639bc5741f146103aa578063a87430ba146103bd578063b6b55f2514610408578063c321ea3a1461041b578063d5b502521461042e578063e95ab5af14610441578063f2fde38b1461046b575b600080fd5b6101b961047e565b6040516101c691906121a0565b60405180910390f35b6101e26101dd366004612032565b610510565b005b6101f76101f236600461204e565b610590565b6040516001600160e01b031990911681526020016101c6565b60fb54610223906001600160a01b031681565b6040516101c69190612173565b6102386106f1565b6040519081526020016101c6565b61023860ff5481565b6101e261025d36600461213f565b610701565b6101e261027036600461213f565b610783565b604051601281526020016101c6565b6101e26108e0565b61023861029a366004612032565b610919565b6101e26102ad36600461213f565b610952565b6102c56102c0366004612032565b6109d4565b60405190151581526020016101c6565b60fe54610223906001600160a01b031681565b6101e26102f6366004612107565b6109f2565b6102386101015481565b6101e2610b36565b60975460ff166102c5565b6101e2610bb6565b61023861032e366004612032565b610c0a565b6101e2610c28565b6101e261034936600461213f565b610c61565b6102386101005481565b6101e2610cdb565b6101e261036e366004612032565b610d12565b610223610d8a565b61010254610223906001600160a01b031681565b6101b9610d99565b6102386103a5366004612032565b610da8565b6101e26103b8366004612032565b610e18565b6103ed6103cb366004612032565b6101036020526000908152604090208054600182015460029092015490919083565b604080519384526020840192909252908201526060016101c6565b6101e261041636600461213f565b610e7c565b610238610429366004612032565b610f9c565b6101e261043c366004612032565b611006565b61023861044f366004612032565b6001600160a01b03166000908152610103602052604090205490565b6101e2610479366004612032565b611066565b606060cc805461048d906123ed565b80601f01602080910402602001604051908101604052809291908181526020018280546104b9906123ed565b80156105065780601f106104db57610100808354040283529160200191610506565b820191906000526020600020905b8154815290600101906020018083116104e957829003601f168201915b5050505050905090565b33610519610d8a565b6001600160a01b0316146105485760405162461bcd60e51b815260040161053f9061224b565b60405180910390fd5b6001600160a01b03811661056e5760405162461bcd60e51b815260040161053f90612280565b60fe80546001600160a01b0319166001600160a01b0392909216919091179055565b6000600260655414156105b55760405162461bcd60e51b815260040161053f906122f1565b600260655560975460ff16156105dd5760405162461bcd60e51b815260040161053f906121d3565b60fe546001600160a01b031633146106375760405162461bcd60e51b815260206004820152601f60248201527f6f6e6c792056654d6f7265204e46542063616e20626520726563656976656400604482015260640161053f565b610640856109d4565b61065c5760405162461bcd60e51b815260040161053f90612328565b6001600160a01b03851660009081526101036020526040902060020154156106875761068785611106565b610692846001612353565b6001600160a01b0386166000818152610103602052604080822060020193909355915186927f509de8640671d7778d0d1dd326a08f58a657a278f69945f1d6c840d9aaa9e87c91a350630a85bd0160e11b600160655595945050505050565b60006106fc60cb5490565b905090565b3361070a610d8a565b6001600160a01b0316146107305760405162461bcd60e51b815260040161053f9061224b565b8061077d5760405162461bcd60e51b815260206004820152601e60248201527f67656e65726174696f6e20726174652063616e6e6f74206265207a65726f0000604482015260640161053f565b61010055565b600260655414156107a65760405162461bcd60e51b815260040161053f906122f1565b600260655560975460ff16156107ce5760405162461bcd60e51b815260040161053f906121d3565b600081116108285760405162461bcd60e51b815260206004820152602160248201527f616d6f756e7420746f2077697468647261772063616e6e6f74206265207a65726044820152606f60f81b606482015260840161053f565b336000908152610103602052604090205481111561087d5760405162461bcd60e51b81526020600482015260126024820152716e6f7420656e6f7567682062616c616e636560701b604482015260640161053f565b3360009081526101036020526040812042600182015580548392906108a39084906123aa565b90915550600090506108b433610c0a565b90506108c03382611238565b60fb546108d7906001600160a01b031633846113a2565b50506001606555565b336108e9610d8a565b6001600160a01b03161461090f5760405162461bcd60e51b815260040161053f9061224b565b6109176113f8565b565b60006001600160a01b0382166109415760405162461bcd60e51b815260040161053f90612280565b61094a82611485565b90505b919050565b3361095b610d8a565b6001600160a01b0316146109815760405162461bcd60e51b815260040161053f9061224b565b806109ce5760405162461bcd60e51b815260206004820152601f60248201527f696e76566f74655468726573686f6c642063616e6e6f74206265207a65726f00604482015260640161053f565b61010155565b6001600160a01b031660009081526101036020526040902054151590565b600054610100900460ff16610a0d5760005460ff1615610a11565b303b155b610a2d5760405162461bcd60e51b815260040161053f906121fd565b600054610100900460ff16158015610a4f576000805461ffff19166101011790555b6001600160a01b038316610a755760405162461bcd60e51b815260040161053f90612280565b610ac16040518060400160405280600c81526020016b56654d6f72652056656e6f6d60a01b8152506040518060400160405280600681526020016556654d6f726560d01b81525061153d565b610ac96115c2565b610ad16115f9565b610ad9611620565b65038973d73e3861010055606460ff5560146101015560fb80546001600160a01b038086166001600160a01b03199283161790925560fe8054928516929091169190911790558015610b31576000805461ff00191690555b505050565b60026065541415610b595760405162461bcd60e51b815260040161053f906122f1565b600260655560975460ff1615610b815760405162461bcd60e51b815260040161053f906121d3565b610b8a336109d4565b610ba65760405162461bcd60e51b815260040161053f90612328565b610baf33611653565b6001606555565b60026065541415610bd95760405162461bcd60e51b815260040161053f906122f1565b600260655560975460ff1615610c015760405162461bcd60e51b815260040161053f906121d3565b610baf33611106565b6001600160a01b038116600090815260c9602052604081205461094a565b33610c31610d8a565b6001600160a01b031614610c575760405162461bcd60e51b815260040161053f9061224b565b61091760006116c6565b33610c6a610d8a565b6001600160a01b031614610c905760405162461bcd60e51b815260040161053f9061224b565b80610cd65760405162461bcd60e51b81526020600482015260166024820152756d6178206361702063616e6e6f74206265207a65726f60501b604482015260640161053f565b60ff55565b33610ce4610d8a565b6001600160a01b031614610d0a5760405162461bcd60e51b815260040161053f9061224b565b610917611718565b33610d1b610d8a565b6001600160a01b031614610d415760405162461bcd60e51b815260040161053f9061224b565b6001600160a01b038116610d675760405162461bcd60e51b815260040161053f90612280565b61010280546001600160a01b0319166001600160a01b0392909216919091179055565b6033546001600160a01b031690565b606060cd805461048d906123ed565b600080610db483610c0a565b60ff546001600160a01b03851660009081526101036020526040902054919250610ddd9161238b565b61010154610deb908361238b565b118015610dfc5750610dfc836109d4565b15610e0857905061094d565b600091505061094d565b50919050565b33610e21610d8a565b6001600160a01b031614610e475760405162461bcd60e51b815260040161053f9061224b565b6001600160a01b038116610e6d5760405162461bcd60e51b815260040161053f90612280565b610e7860fc82611770565b5050565b60026065541415610e9f5760405162461bcd60e51b815260040161053f906122f1565b600260655560975460ff1615610ec75760405162461bcd60e51b815260040161053f906121d3565b60008111610f175760405162461bcd60e51b815260206004820181905260248201527f616d6f756e7420746f206465706f7369742063616e6e6f74206265207a65726f604482015260640161053f565b610f203361178e565b610f29336109d4565b15610f6257610f3733611653565b336000908152610103602052604081208054839290610f57908490612353565b90915550610f7c9050565b336000908152610103602052604090204260018201558190555b60fb54610f94906001600160a01b031633308461188f565b506001606555565b6001600160a01b0381166000908152610103602052604081206002015480610ff45760405162461bcd60e51b815260206004820152600b60248201526a6e6f74207374616b696e6760a81b604482015260640161053f565b610fff6001826123aa565b9392505050565b3361100f610d8a565b6001600160a01b0316146110355760405162461bcd60e51b815260040161053f9061224b565b6001600160a01b03811661105b5760405162461bcd60e51b815260040161053f90612280565b610e7860fc826118cd565b3361106f610d8a565b6001600160a01b0316146110955760405162461bcd60e51b815260040161053f9061224b565b6001600160a01b0381166110fa5760405162461bcd60e51b815260206004820152602660248201527f4f776e61626c653a206e6577206f776e657220697320746865207a65726f206160448201526564647265737360d01b606482015260840161053f565b611103816116c6565b50565b6001600160a01b03811660009081526101036020526040902060020154806111635760405162461bcd60e51b815260206004820152601060248201526f139bc8139195081a5cc81cdd185ad95960821b604482015260640161053f565b60006111706001836123aa565b60fe54604051635c46a7ef60e11b81523060048201526001600160a01b03868116602483015260448201849052608060648301526000608483015292935091169063b88d4fde9060a401600060405180830381600087803b1580156111d457600080fd5b505af11580156111e8573d6000803e3d6000fd5b5050506001600160a01b03841660008181526101036020526040808220600201829055518493507f907f42c5e4fa415ada95eb1fe1c3be76694b6facbd23560f0733f10d2d28ab849190a3505050565b6001600160a01b0382166112985760405162461bcd60e51b815260206004820152602160248201527f45524332303a206275726e2066726f6d20746865207a65726f206164647265736044820152607360f81b606482015260840161053f565b6001600160a01b038216600090815260c960205260409020548181101561130c5760405162461bcd60e51b815260206004820152602260248201527f45524332303a206275726e20616d6f756e7420657863656564732062616c616e604482015261636560f01b606482015260840161053f565b6001600160a01b038316600090815260c960205260408120838303905560cb805484929061133b9084906123aa565b90915550506040518281526001600160a01b038416907fcc16f5dbb4873280815c1ee09dbd06736cffcc184412cf7a71a0fdb75d397ca59060200160405180910390a26001600160a01b038316600090815260c96020526040902054610b319084906118e2565b610b318363a9059cbb60e01b84846040516024016113c1929190612187565b60408051601f198184030181529190526020810180516001600160e01b03166001600160e01b031990931692909217909152611973565b60975460ff166114415760405162461bcd60e51b815260206004820152601460248201527314185d5cd8589b194e881b9bdd081c185d5cd95960621b604482015260640161053f565b6097805460ff191690557f5db9ee0a495bf2e6ff9c91a7834c1ba4fdd244a5e8aa4e537bd38aeae4b073aa335b60405161147b9190612173565b60405180910390a1565b6001600160a01b038116600090815261010360205260408120600181015482906114af90426123aa565b905060006114cf836000015461010054846114ca919061238b565b611a45565b905060006114dc86610c0a565b9050600060ff5485600001546114f2919061238b565b90508082101561153057806115078484612353565b11156115235761151782826123aa565b9550505050505061094d565b829550505050505061094d565b5060009695505050505050565b600054610100900460ff166115585760005460ff161561155c565b303b155b6115785760405162461bcd60e51b815260040161053f906121fd565b600054610100900460ff1615801561159a576000805461ffff19166101011790555b6115a2611a79565b6115ac8383611aa0565b8015610b31576000805461ff0019169055505050565b600054610100900460ff166115e95760405162461bcd60e51b815260040161053f906122a6565b6115f1611a79565b610917611b3b565b600054610100900460ff16610baf5760405162461bcd60e51b815260040161053f906122a6565b600054610100900460ff166116475760405162461bcd60e51b815260040161053f906122a6565b6097805460ff19169055565b600061165e82611485565b6001600160a01b0383166000908152610103602052604090204260019091015590508015610e785760405181906001600160a01b038416907fd8138f8a3f377c5259ca548e70e4c2de94f129f5a11036a15b69513cba2b426a90600090a3610e788282611b6b565b603380546001600160a01b038381166001600160a01b0319831681179093556040519116919082907f8be0079c531659141344cd1fd0a4f28419497f9722a3daafe3b4186f6b6457e090600090a35050565b60975460ff161561173b5760405162461bcd60e51b815260040161053f906121d3565b6097805460ff191660011790557f62e78cea01bee320cd4e420270b5ea74000d11b0c9f74754ebdbfc544b05a25861146e3390565b6000611785836001600160a01b038416611c67565b90505b92915050565b6001600160a01b038116321461110357610102546001600160a01b031615801590611835575061010254604051631846d2f560e31b81526001600160a01b039091169063c23697a8906117e5908490600401612173565b60206040518083038186803b1580156117fd57600080fd5b505afa158015611811573d6000803e3d6000fd5b505050506040513d601f19601f8201168201806040525081019061183591906120e7565b6111035760405162461bcd60e51b815260206004820152602560248201527f536d61727420636f6e7472616374206465706f7369746f7273206e6f7420616c6044820152641b1bddd95960da1b606482015260840161053f565b6040516001600160a01b03808516602483015283166044820152606481018290526118c79085906323b872dd60e01b906084016113c1565b50505050565b6000611785836001600160a01b038416611d84565b60005b806118f060fc611dd3565b1115610b315761190160fc82611ddd565b6001600160a01b0316634f00a93e84846040518363ffffffff1660e01b815260040161192e929190612187565b600060405180830381600087803b15801561194857600080fd5b505af115801561195c573d6000803e3d6000fd5b50505050808061196b90612422565b9150506118e5565b60006119c8826040518060400160405280602081526020017f5361666545524332303a206c6f772d6c6576656c2063616c6c206661696c6564815250856001600160a01b0316611de99092919063ffffffff16565b805190915015610b3157808060200190518101906119e691906120e7565b610b315760405162461bcd60e51b815260206004820152602a60248201527f5361666545524332303a204552433230206f7065726174696f6e20646964206e6044820152691bdd081cdd58d8d9595960b21b606482015260840161053f565b6000670de0b6b3a7640000611a5b60028261236b565b611a65848661238b565b611a6f9190612353565b611785919061236b565b600054610100900460ff166109175760405162461bcd60e51b815260040161053f906122a6565b600054610100900460ff16611abb5760005460ff1615611abf565b303b155b611adb5760405162461bcd60e51b815260040161053f906121fd565b600054610100900460ff16158015611afd576000805461ffff19166101011790555b8251611b109060cc906020860190611f99565b508151611b249060cd906020850190611f99565b508015610b31576000805461ff0019169055505050565b600054610100900460ff16611b625760405162461bcd60e51b815260040161053f906122a6565b610917336116c6565b6001600160a01b038216611bc15760405162461bcd60e51b815260206004820152601f60248201527f45524332303a206d696e7420746f20746865207a65726f206164647265737300604482015260640161053f565b8060cb6000828254611bd39190612353565b90915550506001600160a01b038216600090815260c9602052604081208054839290611c00908490612353565b90915550506040518181526001600160a01b038316907f0f6798a560793a54c3bcfe86a93cde1e73087d944c0ea20544137d41213968859060200160405180910390a26001600160a01b038216600090815260c96020526040902054610e789083906118e2565b60008181526001830160205260408120548015611d7a576000611c8b6001836123aa565b8554909150600090611c9f906001906123aa565b9050818114611d20576000866000018281548110611ccd57634e487b7160e01b600052603260045260246000fd5b9060005260206000200154905080876000018481548110611cfe57634e487b7160e01b600052603260045260246000fd5b6000918252602080832090910192909255918252600188019052604090208390555b8554869080611d3f57634e487b7160e01b600052603160045260246000fd5b600190038181906000526020600020016000905590558560010160008681526020019081526020016000206000905560019350505050611788565b6000915050611788565b6000818152600183016020526040812054611dcb57508154600181810184556000848152602080822090930184905584548482528286019093526040902091909155611788565b506000611788565b600061094a825490565b60006117858383611e00565b6060611df88484600085611e38565b949350505050565b6000826000018281548110611e2557634e487b7160e01b600052603260045260246000fd5b9060005260206000200154905092915050565b606082471015611e995760405162461bcd60e51b815260206004820152602660248201527f416464726573733a20696e73756666696369656e742062616c616e636520666f6044820152651c8818d85b1b60d21b606482015260840161053f565b843b611ee75760405162461bcd60e51b815260206004820152601d60248201527f416464726573733a2063616c6c20746f206e6f6e2d636f6e7472616374000000604482015260640161053f565b600080866001600160a01b03168587604051611f039190612157565b60006040518083038185875af1925050503d8060008114611f40576040519150601f19603f3d011682016040523d82523d6000602084013e611f45565b606091505b5091509150611f55828286611f60565b979650505050505050565b60608315611f6f575081610fff565b825115611f7f5782518084602001fd5b8160405162461bcd60e51b815260040161053f91906121a0565b828054611fa5906123ed565b90600052602060002090601f016020900481019282611fc7576000855561200d565b82601f10611fe057805160ff191683800117855561200d565b8280016001018555821561200d579182015b8281111561200d578251825591602001919060010190611ff2565b5061201992915061201d565b5090565b5b80821115612019576000815560010161201e565b600060208284031215612043578081fd5b8135610fff81612453565b600080600080600060808688031215612065578081fd5b853561207081612453565b9450602086013561208081612453565b93506040860135925060608601356001600160401b03808211156120a2578283fd5b818801915088601f8301126120b5578283fd5b8135818111156120c3578384fd5b8960208285010111156120d4578384fd5b9699959850939650602001949392505050565b6000602082840312156120f8578081fd5b81518015158114610fff578182fd5b60008060408385031215612119578182fd5b823561212481612453565b9150602083013561213481612453565b809150509250929050565b600060208284031215612150578081fd5b5035919050565b600082516121698184602087016123c1565b9190910192915050565b6001600160a01b0391909116815260200190565b6001600160a01b03929092168252602082015260400190565b60006020825282518060208401526121bf8160408501602087016123c1565b601f01601f19169190910160400192915050565b60208082526010908201526f14185d5cd8589b194e881c185d5cd95960821b604082015260600190565b6020808252602e908201527f496e697469616c697a61626c653a20636f6e747261637420697320616c72656160408201526d191e481a5b9a5d1a585b1a5e995960921b606082015260800190565b6020808252818101527f4f776e61626c653a2063616c6c6572206973206e6f7420746865206f776e6572604082015260600190565b6020808252600c908201526b7a65726f206164647265737360a01b604082015260600190565b6020808252602b908201527f496e697469616c697a61626c653a20636f6e7472616374206973206e6f74206960408201526a6e697469616c697a696e6760a81b606082015260800190565b6020808252601f908201527f5265656e7472616e637947756172643a207265656e7472616e742063616c6c00604082015260600190565b6020808252601190820152707573657220686173206e6f207374616b6560781b604082015260600190565b600082198211156123665761236661243d565b500190565b60008261238657634e487b7160e01b81526012600452602481fd5b500490565b60008160001904831182151516156123a5576123a561243d565b500290565b6000828210156123bc576123bc61243d565b500390565b60005b838110156123dc5781810151838201526020016123c4565b838111156118c75750506000910152565b600181811c9082168061240157607f821691505b60208210811415610e1257634e487b7160e01b600052602260045260246000fd5b60006000198214156124365761243661243d565b5060010190565b634e487b7160e01b600052601160045260246000fd5b6001600160a01b038116811461110357600080fdfea2646970667358221220a322fd229380b63d62d8e37f569910500efc8d44ba24d0a4852f8a488df3faac64736f6c63430008030033",
  "linkReferences": {},
  "deployedLinkReferences": {}
}