{
  "_format": "hh-sol-artifact-1",
  "contractName": "yyAvaxOracle",
  "sourceName": "contracts/oracles/yyAvaxOracle.sol",
  "abi": [
    {
      "inputs": [
        {
          "internalType": "address",
          "name": "_roles",
          "type": "address"
        }
      ],
      "stateMutability": "nonpayable",
      "type": "constructor"
    },
    {
      "anonymous": false,
      "inputs": [
        {
          "indexed": false,
          "internalType": "string",
          "name": "param",
          "type": "string"
        },
        {
          "indexed": false,
          "internalType": "uint256",
          "name": "value",
          "type": "uint256"
        }
      ],
      "name": "ParameterUpdated",
      "type": "event"
    },
    {
      "anonymous": false,
      "inputs": [
        {
          "indexed": false,
          "internalType": "string",
          "name": "param",
          "type": "string"
        },
        {
          "indexed": false,
          "internalType": "address",
          "name": "subject",
          "type": "address"
        },
        {
          "indexed": false,
          "internalType": "uint256",
          "name": "value",
          "type": "uint256"
        }
      ],
      "name": "SubjectParameterUpdated",
      "type": "event"
    },
    {
      "anonymous": false,
      "inputs": [
        {
          "indexed": false,
          "internalType": "string",
          "name": "param",
          "type": "string"
        },
        {
          "indexed": false,
          "internalType": "address",
          "name": "subject",
          "type": "address"
        }
      ],
      "name": "SubjectUpdated",
      "type": "event"
    },
    {
      "inputs": [
        {
          "internalType": "uint256",
          "name": "",
          "type": "uint256"
        }
      ],
      "name": "_charactersPlayed",
      "outputs": [
        {
          "internalType": "uint256",
          "name": "",
          "type": "uint256"
        }
      ],
      "stateMutability": "view",
      "type": "function"
    },
    {
      "inputs": [
        {
          "internalType": "uint256",
          "name": "",
          "type": "uint256"
        }
      ],
      "name": "_dependsOnCharacters",
      "outputs": [
        {
          "internalType": "uint256",
          "name": "",
          "type": "uint256"
        }
      ],
      "stateMutability": "view",
      "type": "function"
    },
    {
      "inputs": [
        {
          "internalType": "uint256",
          "name": "",
          "type": "uint256"
        }
      ],
      "name": "_dependsOnRoles",
      "outputs": [
        {
          "internalType": "uint256",
          "name": "",
          "type": "uint256"
        }
      ],
      "stateMutability": "view",
      "type": "function"
    },
    {
      "inputs": [
        {
          "internalType": "uint256",
          "name": "",
          "type": "uint256"
        }
      ],
      "name": "_rolesPlayed",
      "outputs": [
        {
          "internalType": "uint256",
          "name": "",
          "type": "uint256"
        }
      ],
      "stateMutability": "view",
      "type": "function"
    },
    {
      "inputs": [],
      "name": "charactersPlayed",
      "outputs": [
        {
          "internalType": "uint256[]",
          "name": "",
          "type": "uint256[]"
        }
      ],
      "stateMutability": "view",
      "type": "function"
    },
    {
      "inputs": [],
      "name": "dependsOnCharacters",
      "outputs": [
        {
          "internalType": "uint256[]",
          "name": "",
          "type": "uint256[]"
        }
      ],
      "stateMutability": "view",
      "type": "function"
    },
    {
      "inputs": [],
      "name": "dependsOnRoles",
      "outputs": [
        {
          "internalType": "uint256[]",
          "name": "",
          "type": "uint256[]"
        }
      ],
      "stateMutability": "view",
      "type": "function"
    },
    {
      "inputs": [
        {
          "internalType": "address",
          "name": "fromToken",
          "type": "address"
        },
        {
          "internalType": "address",
          "name": "toToken",
          "type": "address"
        }
      ],
      "name": "encodeAndCheckOracleParams",
      "outputs": [
        {
          "internalType": "bool",
          "name": "",
          "type": "bool"
        },
        {
          "internalType": "bytes",
          "name": "",
          "type": "bytes"
        }
      ],
      "stateMutability": "view",
      "type": "function"
    },
    {
      "inputs": [
        {
          "internalType": "address",
          "name": "token",
          "type": "address"
        },
        {
          "internalType": "uint256",
          "name": "inAmount",
          "type": "uint256"
        },
        {
          "internalType": "address",
          "name": "wrappedCurrency",
          "type": "address"
        }
      ],
      "name": "getAmountInPeg",
      "outputs": [
        {
          "internalType": "uint256",
          "name": "",
          "type": "uint256"
        }
      ],
      "stateMutability": "nonpayable",
      "type": "function"
    },
    {
      "inputs": [
        {
          "internalType": "address",
          "name": "token",
          "type": "address"
        },
        {
          "internalType": "uint256",
          "name": "inAmount",
          "type": "uint256"
        },
        {
          "internalType": "address",
          "name": "pegCurrency",
          "type": "address"
        }
      ],
      "name": "getPegAmountAndBorrowable",
      "outputs": [
        {
          "internalType": "uint256",
          "name": "",
          "type": "uint256"
        },
        {
          "internalType": "uint256",
          "name": "",
          "type": "uint256"
        }
      ],
      "stateMutability": "nonpayable",
      "type": "function"
    },
    {
      "inputs": [],
      "name": "lastValuePer1e18",
      "outputs": [
        {
          "internalType": "uint256",
          "name": "",
          "type": "uint256"
        }
      ],
      "stateMutability": "view",
      "type": "function"
    },
    {
      "inputs": [
        {
          "internalType": "uint256",
          "name": "",
          "type": "uint256"
        }
      ],
      "name": "mainCharacterCache",
      "outputs": [
        {
          "internalType": "address",
          "name": "",
          "type": "address"
        }
      ],
      "stateMutability": "view",
      "type": "function"
    },
    {
      "inputs": [
        {
          "internalType": "address",
          "name": "",
          "type": "address"
        },
        {
          "internalType": "uint256",
          "name": "",
          "type": "uint256"
        }
      ],
      "name": "roleCache",
      "outputs": [
        {
          "internalType": "bool",
          "name": "",
          "type": "bool"
        }
      ],
      "stateMutability": "view",
      "type": "function"
    },
    {
      "inputs": [],
      "name": "roles",
      "outputs": [
        {
          "internalType": "contract Roles",
          "name": "",
          "type": "address"
        }
      ],
      "stateMutability": "view",
      "type": "function"
    },
    {
      "inputs": [],
      "name": "rolesPlayed",
      "outputs": [
        {
          "internalType": "uint256[]",
          "name": "",
          "type": "uint256[]"
        }
      ],
      "stateMutability": "view",
      "type": "function"
    },
    {
      "inputs": [
        {
          "internalType": "address",
          "name": "token",
          "type": "address"
        },
        {
          "internalType": "address",
          "name": "pegCurrency",
          "type": "address"
        },
        {
          "internalType": "bytes",
          "name": "data",
          "type": "bytes"
        }
      ],
      "name": "setOracleParams",
      "outputs": [],
      "stateMutability": "nonpayable",
      "type": "function"
    },
    {
      "inputs": [
        {
          "internalType": "address",
          "name": "fromToken",
          "type": "address"
        },
        {
          "internalType": "address",
          "name": "toToken",
          "type": "address"
        }
      ],
      "name": "setOracleSpecificParams",
      "outputs": [],
      "stateMutability": "nonpayable",
      "type": "function"
    },
    {
      "inputs": [
        {
          "internalType": "uint256",
          "name": "window",
          "type": "uint256"
        }
      ],
      "name": "setUpdateWindow",
      "outputs": [],
      "stateMutability": "nonpayable",
      "type": "function"
    },
    {
      "inputs": [
        {
          "internalType": "uint256",
          "name": "smoothingPer10k",
          "type": "uint256"
        }
      ],
      "name": "setValueSmoothingPer10k",
      "outputs": [],
      "stateMutability": "nonpayable",
      "type": "function"
    },
    {
      "inputs": [
        {
          "internalType": "uint256",
          "name": "role",
          "type": "uint256"
        }
      ],
      "name": "updateMainCharacterCache",
      "outputs": [],
      "stateMutability": "nonpayable",
      "type": "function"
    },
    {
      "inputs": [
        {
          "internalType": "uint256",
          "name": "role",
          "type": "uint256"
        },
        {
          "internalType": "address",
          "name": "contr",
          "type": "address"
        }
      ],
      "name": "updateRoleCache",
      "outputs": [],
      "stateMutability": "nonpayable",
      "type": "function"
    },
    {
      "inputs": [],
      "name": "updateWindow",
      "outputs": [
        {
          "internalType": "uint256",
          "name": "",
          "type": "uint256"
        }
      ],
      "stateMutability": "view",
      "type": "function"
    },
    {
      "inputs": [],
      "name": "valuePer1e18",
      "outputs": [
        {
          "internalType": "uint256",
          "name": "",
          "type": "uint256"
        }
      ],
      "stateMutability": "view",
      "type": "function"
    },
    {
      "inputs": [],
      "name": "valueSmoothingPer10k",
      "outputs": [
        {
          "internalType": "uint256",
          "name": "",
          "type": "uint256"
        }
      ],
      "stateMutability": "view",
      "type": "function"
    },
    {
      "inputs": [
        {
          "internalType": "address",
          "name": "token",
          "type": "address"
        },
        {
          "internalType": "uint256",
          "name": "inAmount",
          "type": "uint256"
        },
        {
          "internalType": "address",
          "name": "pegCurrency",
          "type": "address"
        }
      ],
      "name": "viewAmountInPeg",
      "outputs": [
        {
          "internalType": "uint256",
          "name": "",
          "type": "uint256"
        }
      ],
      "stateMutability": "view",
      "type": "function"
    },
    {
      "inputs": [
        {
          "internalType": "address",
          "name": "token",
          "type": "address"
        },
        {
          "internalType": "uint256",
          "name": "inAmount",
          "type": "uint256"
        },
        {
          "internalType": "address",
          "name": "pegCurrency",
          "type": "address"
        }
      ],
      "name": "viewPegAmountAndBorrowable",
      "outputs": [
        {
          "internalType": "uint256",
          "name": "",
          "type": "uint256"
        },
        {
          "internalType": "uint256",
          "name": "",
          "type": "uint256"
        }
      ],
      "stateMutability": "view",
      "type": "function"
    },
    {
      "inputs": [],
      "name": "wAvax",
      "outputs": [
        {
          "internalType": "address",
          "name": "",
          "type": "address"
        }
      ],
      "stateMutability": "view",
      "type": "function"
    },
    {
      "inputs": [],
      "name": "yyAvax",
      "outputs": [
        {
          "internalType": "contract IyyAvax",
          "name": "",
          "type": "address"
        }
      ],
      "stateMutability": "view",
      "type": "function"
    }
  ],
  "bytecode": "0x60a06040526103e8600655613840600a5534801561001c57600080fd5b5060405161146038038061146083398101604081905261003b916100ee565b806001600160a01b0381166100a15760405162461bcd60e51b815260206004820152602260248201527f506c656173652070726f766964652076616c696420726f6c6573206164647265604482015261737360f01b606482015260840160405180910390fd5b60601b6001600160601b0319166080525060028054600181018255600091909152606a7f405787fa12a823e0f2b7631cc41b3ba8828b3321ca811111fa75cd3aa3bb5ace9091015561011c565b6000602082840312156100ff578081fd5b81516001600160a01b0381168114610115578182fd5b9392505050565b60805160601c61130a610156600039600081816101dd015281816103ea0152818161072c01528181610d090152610da1015261130a6000f3fe608060405234801561001057600080fd5b50600436106101545760003560e01c8063071060a6146101595780630db8fd421461016e57806323194fda146101815780632eb1504b146101b257806332f42fe6146101c5578063392f5f64146101d8578063447d52ba146101ff5780634a7a7f41146102125780634fcd54a414610227578063576cbc301461024f57806361454d1b1461027057806369aa57d11461028b5780636caa9c111461029e5780637a1a04df146102b15780637dad209b146102ef578063885fa056146102f75780638eaab58c1461030a578063abcbc4fc1461031d578063aeb38d8b14610330578063b5317c5d14610343578063bf184ea41461034c578063c080e4e51461035f578063d239f46914610368578063dc94cb7d14610389578063e8ea4fae14610391578063e9c3f77d14610399578063ff2dc23d146103c2578063ff7cd6f3146103cb575b600080fd5b61016c6101673660046110b8565b6103d4565b005b61016c61017c366004610f68565b61049a565b61019c73b31f66aa3c1e785363f0875a1b74e27b85fd66c781565b6040516101a9919061110c565b60405180910390f35b61016c6101c03660046110b8565b61050b565b61016c6101d3366004610fa0565b610602565b61019c7f000000000000000000000000000000000000000000000000000000000000000081565b61016c61020d3660046110e8565b610706565b61021a6107de565b6040516101a99190611120565b61023a610235366004611057565b610836565b604080519283526020830191909152016101a9565b61026261025d366004611057565b6108d3565b6040519081526020016101a9565b61019c73f7d9281e8e363584973f946201b82ba72c965d2781565b61016c6102993660046110b8565b6109e1565b6102626102ac3660046110b8565b610a2f565b6102df6102bf36600461102c565b600160209081526000928352604080842090915290825290205460ff1681565b60405190151581526020016101a9565b61021a610a50565b61023a610305366004611057565b610aa6565b610262610318366004611057565b610ab4565b61026261032b3660046110b8565b610ba2565b61026261033e3660046110b8565b610bb2565b61026260065481565b61026261035a3660046110b8565b610bc2565b61026260075481565b61037b610376366004610f68565b610bd2565b6040516101a9929190611164565b61021a610c59565b61021a610caf565b61019c6103a73660046110b8565b6000602081905290815260409020546001600160a01b031681565b610262600a5481565b61026260085481565b60405163b4ed0b6d60e01b8152600481018290527f00000000000000000000000000000000000000000000000000000000000000006001600160a01b03169063b4ed0b6d9060240160206040518083038186803b15801561043457600080fd5b505afa158015610448573d6000803e3d6000fd5b505050506040513d601f19601f8201168201806040525081019061046c9190610f45565b60009182526020829052604090912080546001600160a01b0319166001600160a01b03909216919091179055565b336104a3610d05565b6001600160a01b031614806104c75750336104bc610d9d565b6001600160a01b0316145b6104ec5760405162461bcd60e51b81526004016104e3906111c1565b60405180910390fd5b604080516020810190915260008152610506838383610e0e565b505050565b33610514610d05565b6001600160a01b0316148061053857503361052d610d9d565b6001600160a01b0316145b6105545760405162461bcd60e51b81526004016104e3906111c1565b8061271010156105a25760405162461bcd60e51b81526020600482015260196024820152784e6565647320746f206265206c657373207468616e2031306b60381b60448201526064016104e3565b600681905560408051818152600f818301526e76616c756520736d6f6f7468696e6760881b60608201526020810183905290517f3a64504f0bc0c335e2aecb78638a257e0351a3fe0370861fd54ee4190b9209339181900360800190a150565b3361060b610f0d565b6001600160a01b0316146106615760405162461bcd60e51b815260206004820152601d60248201527f4e6f7420617574686f72697a656420746f20696e6974206f7261636c6500000060448201526064016104e3565b6106a2848484848080601f016020809104026020016040519081016040528093929190818152602001838380828437600092019190915250610e0e92505050565b60408051818152600d818301526c6f7261636c6520706172616d7360981b60608201526001600160a01b038616602082015290517fbd64fae90eab1019a6c354538cfa598ad3d642c5b1bc8a8613bcb716723fa2d79181900360800190a150505050565b60405163f0723d9760e01b81526001600160a01b038281166004830152602482018490527f0000000000000000000000000000000000000000000000000000000000000000169063f0723d979060440160206040518083038186803b15801561076e57600080fd5b505afa158015610782573d6000803e3d6000fd5b505050506040513d601f19601f820116820180604052508101906107a69190611098565b6001600160a01b0391909116600090815260016020908152604080832094835293905291909120805460ff1916911515919091179055565b6060600380548060200260200160405190810160405280929190818152602001828054801561082c57602002820191906000526020600020905b815481526020019060010190808311610818575b5050505050905090565b600080610844858585610ab4565b61084c610f0d565b6001600160a01b03166315c2ba50876040518263ffffffff1660e01b8152600401610877919061110c565b60206040518083038186803b15801561088f57600080fd5b505afa1580156108a3573d6000803e3d6000fd5b505050506040513d601f19601f820116820180604052508101906108c791906110d0565b91509150935093915050565b6000806108e1858585610ab4565b9050600a54600954426108f4919061128f565b11156109d95742600981905550600073f7d9281e8e363584973f946201b82ba72c965d276001600160a01b03166399530b066040518163ffffffff1660e01b8152600401602060405180830381600087803b15801561095257600080fd5b505af1158015610966573d6000803e3d6000fd5b505050506040513d601f19601f8201168201806040525081019061098a91906110d0565b6008546007556006549091506127109082906109a6908361128f565b6109b09190611270565b6008546006546109c09190611270565b6109ca9190611238565b6109d49190611250565b600855505b949350505050565b336109ea610d05565b6001600160a01b03161480610a0e575033610a03610d9d565b6001600160a01b0316145b610a2a5760405162461bcd60e51b81526004016104e3906111c1565b600a55565b60058181548110610a3f57600080fd5b600091825260209091200154905081565b6060600480548060200260200160405190810160405280929190818152602001828054801561082c5760200282019190600052602060002090815481526020019060010190808311610818575050505050905090565b6000806108448585856108d3565b60006001600160a01b03821673b31f66aa3c1e785363f0875a1b74e27b85fd66c714610b1d5760405162461bcd60e51b815260206004820152601860248201527709edcd8f240dac2e040e0e4d2c6cae640e8de40ae82ac82b60431b60448201526064016104e3565b6001600160a01b03841673f7d9281e8e363584973f946201b82ba72c965d2714610b815760405162461bcd60e51b815260206004820152601560248201527409edcd8f240e2eacae4f240ccdee440f2f282ecc2f605b1b60448201526064016104e3565b670de0b6b3a764000060075484610b989190611270565b6109d99190611250565b60028181548110610a3f57600080fd5b60048181548110610a3f57600080fd5b60038181548110610a3f57600080fd5b600060606001600160a01b03841673f7d9281e8e363584973f946201b82ba72c965d27148015610c1e57506001600160a01b03831673b31f66aa3c1e785363f0875a1b74e27b85fd66c7145b610c3a5760405162461bcd60e51b81526004016104e39061120b565b5050600854604080516020810190915260008152901515909250929050565b6060600280548060200260200160405190810160405280929190818152602001828054801561082c5760200282019190600052602060002090815481526020019060010190808311610818575050505050905090565b6060600580548060200260200160405190810160405280929190818152602001828054801561082c5760200282019190600052602060002090815481526020019060010190808311610818575050505050905090565b60007f00000000000000000000000000000000000000000000000000000000000000006001600160a01b0316638da5cb5b6040518163ffffffff1660e01b815260040160206040518083038186803b158015610d6057600080fd5b505afa158015610d74573d6000803e3d6000fd5b505050506040513d601f19601f82011682018060405250810190610d989190610f45565b905090565b60007f00000000000000000000000000000000000000000000000000000000000000006001600160a01b031663c34c08e56040518163ffffffff1660e01b8152600401602060405180830381600087803b158015610dfa57600080fd5b505af1158015610d74573d6000803e3d6000fd5b6001600160a01b03831673f7d9281e8e363584973f946201b82ba72c965d27148015610e5657506001600160a01b03821673b31f66aa3c1e785363f0875a1b74e27b85fd66c7145b610e725760405162461bcd60e51b81526004016104e39061120b565b600073f7d9281e8e363584973f946201b82ba72c965d276001600160a01b03166399530b066040518163ffffffff1660e01b8152600401602060405180830381600087803b158015610ec357600080fd5b505af1158015610ed7573d6000803e3d6000fd5b505050506040513d601f19601f82011682018060405250810190610efb91906110d0565b60088190556007555050426009555050565b606a60009081526020527ff3261457f4fd0b7c00a1511877ab27b74183ac470be8db3a7ecdc64335f6f979546001600160a01b031690565b600060208284031215610f56578081fd5b8151610f61816112bc565b9392505050565b60008060408385031215610f7a578081fd5b8235610f85816112bc565b91506020830135610f95816112bc565b809150509250929050565b60008060008060608587031215610fb5578182fd5b8435610fc0816112bc565b93506020850135610fd0816112bc565b925060408501356001600160401b0380821115610feb578384fd5b818701915087601f830112610ffe578384fd5b81358181111561100c578485fd5b88602082850101111561101d578485fd5b95989497505060200194505050565b6000806040838503121561103e578182fd5b8235611049816112bc565b946020939093013593505050565b60008060006060848603121561106b578283fd5b8335611076816112bc565b925060208401359150604084013561108d816112bc565b809150509250925092565b6000602082840312156110a9578081fd5b81518015158114610f61578182fd5b6000602082840312156110c9578081fd5b5035919050565b6000602082840312156110e1578081fd5b5051919050565b600080604083850312156110fa578182fd5b823591506020830135610f95816112bc565b6001600160a01b0391909116815260200190565b6020808252825182820181905260009190848201906040850190845b818110156111585783518352928401929184019160010161113c565b50909695505050505050565b6000831515825260206040818401528351806040850152825b818110156111995785810183015185820160600152820161117d565b818111156111aa5783606083870101525b50601f01601f191692909201606001949350505050565b6020808252602a908201527f526f6c65733a2063616c6c6572206973206e6f7420746865206f776e6572206f604082015269391032bc32b1baba37b960b11b606082015260800190565b60208082526013908201527209edcd8f240dac2e040ccdee440f2f282ecc2f606b1b604082015260600190565b6000821982111561124b5761124b6112a6565b500190565b60008261126b57634e487b7160e01b81526012600452602481fd5b500490565b600081600019048311821515161561128a5761128a6112a6565b500290565b6000828210156112a1576112a16112a6565b500390565b634e487b7160e01b600052601160045260246000fd5b6001600160a01b03811681146112d157600080fd5b5056fea26469706673582212200d337bbb7c524e1346a9d4290f18f7c1752d5bece733028345d2f312ff8bd77e64736f6c63430008030033",
  "linkReferences": {},
  "deployedLinkReferences": {}
}