{
  "_format": "hh-sol-artifact-1",
  "contractName": "RoleAware",
  "sourceName": "contracts/roles/RoleAware.sol",
  "abi": [
    {
      "inputs": [
        {
          "internalType": "address",
          "name": "_roles",
          "type": "address"
        }
      ],
      "stateMutability": "nonpayable",
      "type": "constructor"
    },
    {
      "anonymous": false,
      "inputs": [
        {
          "indexed": false,
          "internalType": "string",
          "name": "param",
          "type": "string"
        },
        {
          "indexed": false,
          "internalType": "uint256",
          "name": "value",
          "type": "uint256"
        }
      ],
      "name": "ParameterUpdated",
      "type": "event"
    },
    {
      "anonymous": false,
      "inputs": [
        {
          "indexed": false,
          "internalType": "string",
          "name": "param",
          "type": "string"
        },
        {
          "indexed": false,
          "internalType": "address",
          "name": "subject",
          "type": "address"
        },
        {
          "indexed": false,
          "internalType": "uint256",
          "name": "value",
          "type": "uint256"
        }
      ],
      "name": "SubjectParameterUpdated",
      "type": "event"
    },
    {
      "anonymous": false,
      "inputs": [
        {
          "indexed": false,
          "internalType": "string",
          "name": "param",
          "type": "string"
        },
        {
          "indexed": false,
          "internalType": "address",
          "name": "subject",
          "type": "address"
        }
      ],
      "name": "SubjectUpdated",
      "type": "event"
    },
    {
      "inputs": [
        {
          "internalType": "uint256",
          "name": "",
          "type": "uint256"
        }
      ],
      "name": "_charactersPlayed",
      "outputs": [
        {
          "internalType": "uint256",
          "name": "",
          "type": "uint256"
        }
      ],
      "stateMutability": "view",
      "type": "function"
    },
    {
      "inputs": [
        {
          "internalType": "uint256",
          "name": "",
          "type": "uint256"
        }
      ],
      "name": "_dependsOnCharacters",
      "outputs": [
        {
          "internalType": "uint256",
          "name": "",
          "type": "uint256"
        }
      ],
      "stateMutability": "view",
      "type": "function"
    },
    {
      "inputs": [
        {
          "internalType": "uint256",
          "name": "",
          "type": "uint256"
        }
      ],
      "name": "_dependsOnRoles",
      "outputs": [
        {
          "internalType": "uint256",
          "name": "",
          "type": "uint256"
        }
      ],
      "stateMutability": "view",
      "type": "function"
    },
    {
      "inputs": [
        {
          "internalType": "uint256",
          "name": "",
          "type": "uint256"
        }
      ],
      "name": "_rolesPlayed",
      "outputs": [
        {
          "internalType": "uint256",
          "name": "",
          "type": "uint256"
        }
      ],
      "stateMutability": "view",
      "type": "function"
    },
    {
      "inputs": [],
      "name": "charactersPlayed",
      "outputs": [
        {
          "internalType": "uint256[]",
          "name": "",
          "type": "uint256[]"
        }
      ],
      "stateMutability": "view",
      "type": "function"
    },
    {
      "inputs": [],
      "name": "dependsOnCharacters",
      "outputs": [
        {
          "internalType": "uint256[]",
          "name": "",
          "type": "uint256[]"
        }
      ],
      "stateMutability": "view",
      "type": "function"
    },
    {
      "inputs": [],
      "name": "dependsOnRoles",
      "outputs": [
        {
          "internalType": "uint256[]",
          "name": "",
          "type": "uint256[]"
        }
      ],
      "stateMutability": "view",
      "type": "function"
    },
    {
      "inputs": [
        {
          "internalType": "uint256",
          "name": "",
          "type": "uint256"
        }
      ],
      "name": "mainCharacterCache",
      "outputs": [
        {
          "internalType": "address",
          "name": "",
          "type": "address"
        }
      ],
      "stateMutability": "view",
      "type": "function"
    },
    {
      "inputs": [
        {
          "internalType": "address",
          "name": "",
          "type": "address"
        },
        {
          "internalType": "uint256",
          "name": "",
          "type": "uint256"
        }
      ],
      "name": "roleCache",
      "outputs": [
        {
          "internalType": "bool",
          "name": "",
          "type": "bool"
        }
      ],
      "stateMutability": "view",
      "type": "function"
    },
    {
      "inputs": [],
      "name": "roles",
      "outputs": [
        {
          "internalType": "contract Roles",
          "name": "",
          "type": "address"
        }
      ],
      "stateMutability": "view",
      "type": "function"
    },
    {
      "inputs": [],
      "name": "rolesPlayed",
      "outputs": [
        {
          "internalType": "uint256[]",
          "name": "",
          "type": "uint256[]"
        }
      ],
      "stateMutability": "view",
      "type": "function"
    },
    {
      "inputs": [
        {
          "internalType": "uint256",
          "name": "role",
          "type": "uint256"
        }
      ],
      "name": "updateMainCharacterCache",
      "outputs": [],
      "stateMutability": "nonpayable",
      "type": "function"
    },
    {
      "inputs": [
        {
          "internalType": "uint256",
          "name": "role",
          "type": "uint256"
        },
        {
          "internalType": "address",
          "name": "contr",
          "type": "address"
        }
      ],
      "name": "updateRoleCache",
      "outputs": [],
      "stateMutability": "nonpayable",
      "type": "function"
    }
  ],
  "bytecode": "0x60a060405234801561001057600080fd5b506040516107a03803806107a083398101604081905261002f916100a9565b6001600160a01b0381166100945760405162461bcd60e51b815260206004820152602260248201527f506c656173652070726f766964652076616c696420726f6c6573206164647265604482015261737360f01b606482015260840160405180910390fd5b60601b6001600160601b0319166080526100d7565b6000602082840312156100ba578081fd5b81516001600160a01b03811681146100d0578182fd5b9392505050565b60805160601c61069e6101026000396000818160ce0152818161022401526102fa015261069e6000f3fe608060405234801561001057600080fd5b50600436106100af5760003560e01c8063071060a6146100b4578063392f5f64146100c9578063447d52ba1461010d5780634a7a7f41146101205780636caa9c11146101355780637a1a04df146101565780637dad209b14610194578063abcbc4fc1461019c578063aeb38d8b146101af578063bf184ea4146101c2578063dc94cb7d146101d5578063e8ea4fae146101dd578063e9c3f77d146101e5575b600080fd5b6100c76100c23660046105c5565b61020e565b005b6100f07f000000000000000000000000000000000000000000000000000000000000000081565b6040516001600160a01b0390911681526020015b60405180910390f35b6100c761011b3660046105dd565b6102d4565b6101286103ac565b604051610104919061060c565b6101486101433660046105c5565b610404565b604051908152602001610104565b61018461016436600461057a565b600160209081526000928352604080842090915290825290205460ff1681565b6040519015158152602001610104565b610128610425565b6101486101aa3660046105c5565b61047b565b6101486101bd3660046105c5565b61048b565b6101486101d03660046105c5565b61049b565b6101286104ab565b610128610501565b6100f06101f33660046105c5565b6000602081905290815260409020546001600160a01b031681565b60405163b4ed0b6d60e01b8152600481018290527f00000000000000000000000000000000000000000000000000000000000000006001600160a01b03169063b4ed0b6d9060240160206040518083038186803b15801561026e57600080fd5b505afa158015610282573d6000803e3d6000fd5b505050506040513d601f19601f820116820180604052508101906102a69190610557565b60009182526020829052604090912080546001600160a01b0319166001600160a01b03909216919091179055565b60405163f0723d9760e01b81526001600160a01b038281166004830152602482018490527f0000000000000000000000000000000000000000000000000000000000000000169063f0723d979060440160206040518083038186803b15801561033c57600080fd5b505afa158015610350573d6000803e3d6000fd5b505050506040513d601f19601f8201168201806040525081019061037491906105a5565b6001600160a01b0391909116600090815260016020908152604080832094835293905291909120805460ff1916911515919091179055565b606060038054806020026020016040519081016040528092919081815260200182805480156103fa57602002820191906000526020600020905b8154815260200190600101908083116103e6575b5050505050905090565b6005818154811061041457600080fd5b600091825260209091200154905081565b606060048054806020026020016040519081016040528092919081815260200182805480156103fa57602002820191906000526020600020908154815260200190600101908083116103e6575050505050905090565b6002818154811061041457600080fd5b6004818154811061041457600080fd5b6003818154811061041457600080fd5b606060028054806020026020016040519081016040528092919081815260200182805480156103fa57602002820191906000526020600020908154815260200190600101908083116103e6575050505050905090565b606060058054806020026020016040519081016040528092919081815260200182805480156103fa57602002820191906000526020600020908154815260200190600101908083116103e6575050505050905090565b600060208284031215610568578081fd5b815161057381610650565b9392505050565b6000806040838503121561058c578081fd5b823561059781610650565b946020939093013593505050565b6000602082840312156105b6578081fd5b81518015158114610573578182fd5b6000602082840312156105d6578081fd5b5035919050565b600080604083850312156105ef578182fd5b82359150602083013561060181610650565b809150509250929050565b6020808252825182820181905260009190848201906040850190845b8181101561064457835183529284019291840191600101610628565b50909695505050505050565b6001600160a01b038116811461066557600080fd5b5056fea26469706673582212207d79e0f1fec2c2933920077d069d99231854026564e5f9b48910583fe6f1a07764736f6c63430008030033",
  "linkReferences": {},
  "deployedLinkReferences": {}
}