{
  "_format": "hh-sol-artifact-1",
  "contractName": "iMoney",
  "sourceName": "contracts/governance/iMoney.sol",
  "abi": [
    {
      "inputs": [
        {
          "internalType": "contract IERC20",
          "name": "_money",
          "type": "address"
        }
      ],
      "stateMutability": "nonpayable",
      "type": "constructor"
    },
    {
      "anonymous": false,
      "inputs": [
        {
          "indexed": true,
          "internalType": "address",
          "name": "owner",
          "type": "address"
        },
        {
          "indexed": true,
          "internalType": "address",
          "name": "spender",
          "type": "address"
        },
        {
          "indexed": false,
          "internalType": "uint256",
          "name": "value",
          "type": "uint256"
        }
      ],
      "name": "Approval",
      "type": "event"
    },
    {
      "anonymous": false,
      "inputs": [
        {
          "indexed": true,
          "internalType": "address",
          "name": "delegator",
          "type": "address"
        },
        {
          "indexed": true,
          "internalType": "address",
          "name": "fromDelegate",
          "type": "address"
        },
        {
          "indexed": true,
          "internalType": "address",
          "name": "toDelegate",
          "type": "address"
        }
      ],
      "name": "DelegateChanged",
      "type": "event"
    },
    {
      "anonymous": false,
      "inputs": [
        {
          "indexed": true,
          "internalType": "address",
          "name": "delegate",
          "type": "address"
        },
        {
          "indexed": false,
          "internalType": "uint256",
          "name": "previousBalance",
          "type": "uint256"
        },
        {
          "indexed": false,
          "internalType": "uint256",
          "name": "newBalance",
          "type": "uint256"
        }
      ],
      "name": "DelegateVotesChanged",
      "type": "event"
    },
    {
      "anonymous": false,
      "inputs": [
        {
          "indexed": true,
          "internalType": "address",
          "name": "from",
          "type": "address"
        },
        {
          "indexed": true,
          "internalType": "address",
          "name": "to",
          "type": "address"
        },
        {
          "indexed": false,
          "internalType": "uint256",
          "name": "value",
          "type": "uint256"
        }
      ],
      "name": "Transfer",
      "type": "event"
    },
    {
      "inputs": [],
      "name": "DOMAIN_SEPARATOR",
      "outputs": [
        {
          "internalType": "bytes32",
          "name": "",
          "type": "bytes32"
        }
      ],
      "stateMutability": "view",
      "type": "function"
    },
    {
      "inputs": [
        {
          "internalType": "address",
          "name": "owner",
          "type": "address"
        },
        {
          "internalType": "address",
          "name": "spender",
          "type": "address"
        }
      ],
      "name": "allowance",
      "outputs": [
        {
          "internalType": "uint256",
          "name": "",
          "type": "uint256"
        }
      ],
      "stateMutability": "view",
      "type": "function"
    },
    {
      "inputs": [
        {
          "internalType": "address",
          "name": "spender",
          "type": "address"
        },
        {
          "internalType": "uint256",
          "name": "amount",
          "type": "uint256"
        }
      ],
      "name": "approve",
      "outputs": [
        {
          "internalType": "bool",
          "name": "",
          "type": "bool"
        }
      ],
      "stateMutability": "nonpayable",
      "type": "function"
    },
    {
      "inputs": [
        {
          "internalType": "address",
          "name": "account",
          "type": "address"
        }
      ],
      "name": "balanceOf",
      "outputs": [
        {
          "internalType": "uint256",
          "name": "",
          "type": "uint256"
        }
      ],
      "stateMutability": "view",
      "type": "function"
    },
    {
      "inputs": [
        {
          "internalType": "address",
          "name": "account",
          "type": "address"
        },
        {
          "internalType": "uint32",
          "name": "pos",
          "type": "uint32"
        }
      ],
      "name": "checkpoints",
      "outputs": [
        {
          "components": [
            {
              "internalType": "uint32",
              "name": "fromBlock",
              "type": "uint32"
            },
            {
              "internalType": "uint224",
              "name": "votes",
              "type": "uint224"
            }
          ],
          "internalType": "struct ERC20Votes.Checkpoint",
          "name": "",
          "type": "tuple"
        }
      ],
      "stateMutability": "view",
      "type": "function"
    },
    {
      "inputs": [],
      "name": "decimals",
      "outputs": [
        {
          "internalType": "uint8",
          "name": "",
          "type": "uint8"
        }
      ],
      "stateMutability": "view",
      "type": "function"
    },
    {
      "inputs": [
        {
          "internalType": "address",
          "name": "spender",
          "type": "address"
        },
        {
          "internalType": "uint256",
          "name": "subtractedValue",
          "type": "uint256"
        }
      ],
      "name": "decreaseAllowance",
      "outputs": [
        {
          "internalType": "bool",
          "name": "",
          "type": "bool"
        }
      ],
      "stateMutability": "nonpayable",
      "type": "function"
    },
    {
      "inputs": [
        {
          "internalType": "address",
          "name": "delegatee",
          "type": "address"
        }
      ],
      "name": "delegate",
      "outputs": [],
      "stateMutability": "nonpayable",
      "type": "function"
    },
    {
      "inputs": [
        {
          "internalType": "address",
          "name": "delegatee",
          "type": "address"
        },
        {
          "internalType": "uint256",
          "name": "nonce",
          "type": "uint256"
        },
        {
          "internalType": "uint256",
          "name": "expiry",
          "type": "uint256"
        },
        {
          "internalType": "uint8",
          "name": "v",
          "type": "uint8"
        },
        {
          "internalType": "bytes32",
          "name": "r",
          "type": "bytes32"
        },
        {
          "internalType": "bytes32",
          "name": "s",
          "type": "bytes32"
        }
      ],
      "name": "delegateBySig",
      "outputs": [],
      "stateMutability": "nonpayable",
      "type": "function"
    },
    {
      "inputs": [
        {
          "internalType": "address",
          "name": "account",
          "type": "address"
        }
      ],
      "name": "delegates",
      "outputs": [
        {
          "internalType": "address",
          "name": "",
          "type": "address"
        }
      ],
      "stateMutability": "view",
      "type": "function"
    },
    {
      "inputs": [
        {
          "internalType": "uint256",
          "name": "_amount",
          "type": "uint256"
        }
      ],
      "name": "deposit",
      "outputs": [],
      "stateMutability": "nonpayable",
      "type": "function"
    },
    {
      "inputs": [
        {
          "internalType": "uint256",
          "name": "blockNumber",
          "type": "uint256"
        }
      ],
      "name": "getPastTotalSupply",
      "outputs": [
        {
          "internalType": "uint256",
          "name": "",
          "type": "uint256"
        }
      ],
      "stateMutability": "view",
      "type": "function"
    },
    {
      "inputs": [
        {
          "internalType": "address",
          "name": "account",
          "type": "address"
        },
        {
          "internalType": "uint256",
          "name": "blockNumber",
          "type": "uint256"
        }
      ],
      "name": "getPastVotes",
      "outputs": [
        {
          "internalType": "uint256",
          "name": "",
          "type": "uint256"
        }
      ],
      "stateMutability": "view",
      "type": "function"
    },
    {
      "inputs": [
        {
          "internalType": "address",
          "name": "account",
          "type": "address"
        }
      ],
      "name": "getVotes",
      "outputs": [
        {
          "internalType": "uint256",
          "name": "",
          "type": "uint256"
        }
      ],
      "stateMutability": "view",
      "type": "function"
    },
    {
      "inputs": [
        {
          "internalType": "address",
          "name": "spender",
          "type": "address"
        },
        {
          "internalType": "uint256",
          "name": "addedValue",
          "type": "uint256"
        }
      ],
      "name": "increaseAllowance",
      "outputs": [
        {
          "internalType": "bool",
          "name": "",
          "type": "bool"
        }
      ],
      "stateMutability": "nonpayable",
      "type": "function"
    },
    {
      "inputs": [],
      "name": "money",
      "outputs": [
        {
          "internalType": "contract IERC20",
          "name": "",
          "type": "address"
        }
      ],
      "stateMutability": "view",
      "type": "function"
    },
    {
      "inputs": [],
      "name": "name",
      "outputs": [
        {
          "internalType": "string",
          "name": "",
          "type": "string"
        }
      ],
      "stateMutability": "view",
      "type": "function"
    },
    {
      "inputs": [
        {
          "internalType": "address",
          "name": "owner",
          "type": "address"
        }
      ],
      "name": "nonces",
      "outputs": [
        {
          "internalType": "uint256",
          "name": "",
          "type": "uint256"
        }
      ],
      "stateMutability": "view",
      "type": "function"
    },
    {
      "inputs": [
        {
          "internalType": "address",
          "name": "account",
          "type": "address"
        }
      ],
      "name": "numCheckpoints",
      "outputs": [
        {
          "internalType": "uint32",
          "name": "",
          "type": "uint32"
        }
      ],
      "stateMutability": "view",
      "type": "function"
    },
    {
      "inputs": [
        {
          "internalType": "address",
          "name": "owner",
          "type": "address"
        },
        {
          "internalType": "address",
          "name": "spender",
          "type": "address"
        },
        {
          "internalType": "uint256",
          "name": "value",
          "type": "uint256"
        },
        {
          "internalType": "uint256",
          "name": "deadline",
          "type": "uint256"
        },
        {
          "internalType": "uint8",
          "name": "v",
          "type": "uint8"
        },
        {
          "internalType": "bytes32",
          "name": "r",
          "type": "bytes32"
        },
        {
          "internalType": "bytes32",
          "name": "s",
          "type": "bytes32"
        }
      ],
      "name": "permit",
      "outputs": [],
      "stateMutability": "nonpayable",
      "type": "function"
    },
    {
      "inputs": [],
      "name": "symbol",
      "outputs": [
        {
          "internalType": "string",
          "name": "",
          "type": "string"
        }
      ],
      "stateMutability": "view",
      "type": "function"
    },
    {
      "inputs": [],
      "name": "totalSupply",
      "outputs": [
        {
          "internalType": "uint256",
          "name": "",
          "type": "uint256"
        }
      ],
      "stateMutability": "view",
      "type": "function"
    },
    {
      "inputs": [
        {
          "internalType": "address",
          "name": "recipient",
          "type": "address"
        },
        {
          "internalType": "uint256",
          "name": "amount",
          "type": "uint256"
        }
      ],
      "name": "transfer",
      "outputs": [
        {
          "internalType": "bool",
          "name": "",
          "type": "bool"
        }
      ],
      "stateMutability": "nonpayable",
      "type": "function"
    },
    {
      "inputs": [
        {
          "internalType": "address",
          "name": "sender",
          "type": "address"
        },
        {
          "internalType": "address",
          "name": "recipient",
          "type": "address"
        },
        {
          "internalType": "uint256",
          "name": "amount",
          "type": "uint256"
        }
      ],
      "name": "transferFrom",
      "outputs": [
        {
          "internalType": "bool",
          "name": "",
          "type": "bool"
        }
      ],
      "stateMutability": "nonpayable",
      "type": "function"
    },
    {
      "inputs": [
        {
          "internalType": "uint256",
          "name": "_share",
          "type": "uint256"
        }
      ],
      "name": "withdraw",
      "outputs": [],
      "stateMutability": "nonpayable",
      "type": "function"
    }
  ],
  "bytecode": "0x6101806040527f6e71edae12b1b97f4d1f60370fef10105fa2faae0126114a169c64845d6126c9610140523480156200003757600080fd5b5060405162002459380380620024598339810160408190526200005a916200025c565b60405180604001604052806006815260200165784d4f4e455960d01b81525080604051806040016040528060018152602001603160f81b81525060405180604001604052806006815260200165784d4f4e455960d01b81525060405180604001604052806006815260200165784d4f4e455960d01b8152508160039080519060200190620000ea929190620001b6565b50805162000100906004906020840190620001b6565b5050825160208085019190912083518483012060e08290526101008190524660a0818152604080517f8b73c3c69bb8fe3d512ecc4cf759cc79239f7b179b0ffacaa9a75d522b39400f81880181905281830187905260608201869052608082019490945230818401528151808203909301835260c00190528051940193909320919350919060805230606090811b60c052610120919091529590951b6001600160601b0319166101605250620002c99350505050565b828054620001c4906200028c565b90600052602060002090601f016020900481019282620001e8576000855562000233565b82601f106200020357805160ff191683800117855562000233565b8280016001018555821562000233579182015b828111156200023357825182559160200191906001019062000216565b506200024192915062000245565b5090565b5b8082111562000241576000815560010162000246565b6000602082840312156200026e578081fd5b81516001600160a01b038116811462000285578182fd5b9392505050565b600181811c90821680620002a157607f821691505b60208210811415620002c357634e487b7160e01b600052602260045260246000fd5b50919050565b60805160a05160c05160601c60e0516101005161012051610140516101605160601c61210862000351600039600081816101f501528181610505015281816105db015281816109190152610a1301526000610bd0015260006110f1015260006111400152600061111b015260006110720152600061109c015260006110c601526121086000f3fe608060405234801561001057600080fd5b50600436106101335760003560e01c806306fdde0314610138578063095ea7b31461015657806318160ddd1461017957806323b872dd1461018b5780632e1a7d4d1461019e578063313ce567146101b35780633644e515146101c257806339509351146101ca5780633a46b1a8146101dd5780634ddd108a146101f0578063587cde1e146102245780635c19a95c146102375780636fcfff451461024a57806370a08231146102725780637ecebe00146102855780638e539e8c1461029857806395d89b41146102ab5780639ab24eb0146102b3578063a457c2d7146102c6578063a9059cbb146102d9578063b6b55f25146102ec578063c3cda520146102ff578063d505accf14610312578063dd62ed3e14610325578063f1127ed81461035e575b600080fd5b61014061039b565b60405161014d9190611f4f565b60405180910390f35b610169610164366004611e2d565b61042e565b604051901515815260200161014d565b6002545b60405190815260200161014d565b610169610199366004611d89565b610444565b6101b16101ac366004611f0b565b6104f3565b005b6040516012815260200161014d565b61017d610666565b6101696101d8366004611e2d565b610675565b61017d6101eb366004611e2d565b6106b1565b6102177f000000000000000000000000000000000000000000000000000000000000000081565b60405161014d9190611f3b565b610217610232366004611d3d565b6106fb565b6101b1610245366004611d3d565b61071c565b61025d610258366004611d3d565b610729565b60405163ffffffff909116815260200161014d565b61017d610280366004611d3d565b610751565b61017d610293366004611d3d565b61076c565b61017d6102a6366004611f0b565b61078a565b6101406107b6565b61017d6102c1366004611d3d565b6107c5565b6101696102d4366004611e2d565b610859565b6101696102e7366004611e2d565b6108f2565b6101b16102fa366004611f0b565b6108ff565b6101b161030d366004611e56565b610a4a565b6101b1610320366004611dc4565b610b7c565b61017d610333366004611d57565b6001600160a01b03918216600090815260016020908152604080832093909416825291909152205490565b61037161036c366004611ead565b610ce0565b60408051825163ffffffff1681526020928301516001600160e01b0316928101929092520161014d565b6060600380546103aa90612047565b80601f01602080910402602001604051908101604052809291908181526020018280546103d690612047565b80156104235780601f106103f857610100808354040283529160200191610423565b820191906000526020600020905b81548152906001019060200180831161040657829003601f168201915b505050505090505b90565b600061043b338484610d71565b50600192915050565b6000610451848484610e95565b6001600160a01b0384166000908152600160209081526040808320338452909152902054828110156104db5760405162461bcd60e51b815260206004820152602860248201527f45524332303a207472616e7366657220616d6f756e74206578636565647320616044820152676c6c6f77616e636560c01b60648201526084015b60405180910390fd5b6104e88533858403610d71565b506001949350505050565b60006104fe60025490565b90506000817f00000000000000000000000000000000000000000000000000000000000000006001600160a01b03166370a08231306040518263ffffffff1660e01b815260040161054f9190611f3b565b60206040518083038186803b15801561056757600080fd5b505afa15801561057b573d6000803e3d6000fd5b505050506040513d601f19601f8201168201806040525081019061059f9190611f23565b6105a99085612011565b6105b39190611ff1565b90506105bf3384611057565b60405163a9059cbb60e01b8152336004820152602481018290527f00000000000000000000000000000000000000000000000000000000000000006001600160a01b03169063a9059cbb906044015b602060405180830381600087803b15801561062857600080fd5b505af115801561063c573d6000803e3d6000fd5b505050506040513d601f19601f820116820180604052508101906106609190611eeb565b50505050565b6000610670611065565b905090565b3360008181526001602090815260408083206001600160a01b0387168452909152812054909161043b9185906106ac908690611fd9565b610d71565b60004382106106d25760405162461bcd60e51b81526004016104d290611fa2565b6001600160a01b03831660009081526007602052604090206106f49083611190565b9392505050565b6001600160a01b03808216600090815260066020526040902054165b919050565b6107263382611268565b50565b6001600160a01b03811660009081526007602052604081205461074b906112e8565b92915050565b6001600160a01b031660009081526020819052604090205490565b6001600160a01b03811660009081526005602052604081205461074b565b60004382106107ab5760405162461bcd60e51b81526004016104d290611fa2565b61074b600883611190565b6060600480546103aa90612047565b6001600160a01b0381166000908152600760205260408120548015610846576001600160a01b0383166000908152600760205260409020610807600183612030565b8154811061082557634e487b7160e01b600052603260045260246000fd5b600091825260209091200154600160201b90046001600160e01b0316610849565b60005b6001600160e01b03169392505050565b3360009081526001602090815260408083206001600160a01b0386168452909152812054828110156108db5760405162461bcd60e51b815260206004820152602560248201527f45524332303a2064656372656173656420616c6c6f77616e63652062656c6f77604482015264207a65726f60d81b60648201526084016104d2565b6108e83385858403610d71565b5060019392505050565b600061043b338484610e95565b6040516370a0823160e01b81526000906001600160a01b037f000000000000000000000000000000000000000000000000000000000000000016906370a082319061094e903090600401611f3b565b60206040518083038186803b15801561096657600080fd5b505afa15801561097a573d6000803e3d6000fd5b505050506040513d601f19601f8201168201806040525081019061099e9190611f23565b905060006109ab60025490565b90508015806109b8575081155b156109cc576109c73384611351565b6109f1565b6000826109d98386612011565b6109e39190611ff1565b90506109ef3382611351565b505b6040516323b872dd60e01b8152336004820152306024820152604481018490527f00000000000000000000000000000000000000000000000000000000000000006001600160a01b0316906323b872dd9060640161060e565b83421115610a9a5760405162461bcd60e51b815260206004820152601d60248201527f4552433230566f7465733a207369676e6174757265206578706972656400000060448201526064016104d2565b604080517fe48329057bfd03d55e49b547132e39cffd9c1820ad7b9d4c5307691425d15adf60208201526001600160a01b038816918101919091526060810186905260808101859052600090610b1490610b0c9060a0016040516020818303038152906040528051906020012061135b565b8585856113a9565b9050610b1f816113d1565b8614610b695760405162461bcd60e51b81526020600482015260196024820152784552433230566f7465733a20696e76616c6964206e6f6e636560381b60448201526064016104d2565b610b738188611268565b50505050505050565b83421115610bcc5760405162461bcd60e51b815260206004820152601d60248201527f45524332305065726d69743a206578706972656420646561646c696e6500000060448201526064016104d2565b60007f0000000000000000000000000000000000000000000000000000000000000000888888610bfb8c6113d1565b6040805160208101969096526001600160a01b0394851690860152929091166060840152608083015260a082015260c0810186905260e0016040516020818303038152906040528051906020012090506000610c568261135b565b90506000610c66828787876113a9565b9050896001600160a01b0316816001600160a01b031614610cc95760405162461bcd60e51b815260206004820152601e60248201527f45524332305065726d69743a20696e76616c6964207369676e6174757265000060448201526064016104d2565b610cd48a8a8a610d71565b50505050505050505050565b60408051808201909152600080825260208201526001600160a01b0383166000908152600760205260409020805463ffffffff8416908110610d3257634e487b7160e01b600052603260045260246000fd5b60009182526020918290206040805180820190915291015463ffffffff81168252600160201b90046001600160e01b0316918101919091529392505050565b6001600160a01b038316610dd35760405162461bcd60e51b8152602060048201526024808201527f45524332303a20617070726f76652066726f6d20746865207a65726f206164646044820152637265737360e01b60648201526084016104d2565b6001600160a01b038216610e345760405162461bcd60e51b815260206004820152602260248201527f45524332303a20617070726f766520746f20746865207a65726f206164647265604482015261737360f01b60648201526084016104d2565b6001600160a01b0383811660008181526001602090815260408083209487168084529482529182902085905590518481527f8c5be1e5ebec7d5bd14f71427d1e84f3dd0314c0f7b2291e5b200ac8c7c3b925910160405180910390a3505050565b6001600160a01b038316610ef95760405162461bcd60e51b815260206004820152602560248201527f45524332303a207472616e736665722066726f6d20746865207a65726f206164604482015264647265737360d81b60648201526084016104d2565b6001600160a01b038216610f5b5760405162461bcd60e51b815260206004820152602360248201527f45524332303a207472616e7366657220746f20746865207a65726f206164647260448201526265737360e81b60648201526084016104d2565b6001600160a01b03831660009081526020819052604090205481811015610fd35760405162461bcd60e51b815260206004820152602660248201527f45524332303a207472616e7366657220616d6f756e7420657863656564732062604482015265616c616e636560d01b60648201526084016104d2565b6001600160a01b0380851660009081526020819052604080822085850390559185168152908120805484929061100a908490611fd9565b92505081905550826001600160a01b0316846001600160a01b03166000805160206120938339815191528460405161104491815260200190565b60405180910390a36106608484846113fe565b6110618282611409565b5050565b6000306001600160a01b037f0000000000000000000000000000000000000000000000000000000000000000161480156110be57507f000000000000000000000000000000000000000000000000000000000000000046145b156110ea57507f000000000000000000000000000000000000000000000000000000000000000061042b565b50604080517f00000000000000000000000000000000000000000000000000000000000000006020808301919091527f0000000000000000000000000000000000000000000000000000000000000000828401527f000000000000000000000000000000000000000000000000000000000000000060608301524660808301523060a0808401919091528351808403909101815260c0909201909252805191012061042b565b8154600090815b818110156112025760006111ab8284611421565b9050848682815481106111ce57634e487b7160e01b600052603260045260246000fd5b60009182526020909120015463ffffffff1611156111ee578092506111fc565b6111f9816001611fd9565b91505b50611197565b81156112535784611214600184612030565b8154811061123257634e487b7160e01b600052603260045260246000fd5b600091825260209091200154600160201b90046001600160e01b0316611256565b60005b6001600160e01b031695945050505050565b6000611273836106fb565b9050600061128084610751565b6001600160a01b0385811660008181526006602052604080822080546001600160a01b031916898616908117909155905194955093928616927f3134e8a2e6d97e929a7e54011ea5485d7d196dd5f0ba4d4ef95803e8e3fc257f9190a461066082848361143c565b600063ffffffff82111561134d5760405162461bcd60e51b815260206004820152602660248201527f53616665436173743a2076616c756520646f65736e27742066697420696e203360448201526532206269747360d01b60648201526084016104d2565b5090565b6110618282611555565b600061074b611368611065565b8360405161190160f01b6020820152602281018390526042810182905260009060620160405160208183030381529060405280519060200120905092915050565b60008060006113ba878787876115df565b915091506113c7816116c2565b5095945050505050565b6001600160a01b03811660009081526005602052604090208054600181018255905b50919050565b505050565b6113f98383836118c0565b61141382826118db565b6106606008611a1e83611a2a565b60006114306002848418611ff1565b6106f490848416611fd9565b816001600160a01b0316836001600160a01b03161415801561145e5750600081115b156113f9576001600160a01b038316156114da576001600160a01b0383166000908152600760205260408120819061149990611a1e85611a2a565b91509150846001600160a01b03166000805160206120b383398151915283836040516114cf929190918252602082015260400190565b60405180910390a250505b6001600160a01b038216156113f9576001600160a01b0382166000908152600760205260408120819061151090611bcb85611a2a565b91509150836001600160a01b03166000805160206120b38339815191528383604051611546929190918252602082015260400190565b60405180910390a25050505050565b61155f8282611bd7565b6002546001600160e01b0310156115d15760405162461bcd60e51b815260206004820152603060248201527f4552433230566f7465733a20746f74616c20737570706c79207269736b73206f60448201526f766572666c6f77696e6720766f74657360801b60648201526084016104d2565b6106606008611bcb83611a2a565b6000806fa2a8918ca85bafe22016d0b997e4df60600160ff1b0383111561160c57506000905060036116b9565b8460ff16601b1415801561162457508460ff16601c14155b1561163557506000905060046116b9565b6040805160008082526020820180845289905260ff881692820192909252606081018690526080810185905260019060a0016020604051602081039080840390855afa158015611689573d6000803e3d6000fd5b5050604051601f1901519150506001600160a01b0381166116b2576000600192509250506116b9565b9150600090505b94509492505050565b60008160048111156116e457634e487b7160e01b600052602160045260246000fd5b14156116ef57610726565b600181600481111561171157634e487b7160e01b600052602160045260246000fd5b141561175a5760405162461bcd60e51b815260206004820152601860248201527745434453413a20696e76616c6964207369676e617475726560401b60448201526064016104d2565b600281600481111561177c57634e487b7160e01b600052602160045260246000fd5b14156117ca5760405162461bcd60e51b815260206004820152601f60248201527f45434453413a20696e76616c6964207369676e6174757265206c656e6774680060448201526064016104d2565b60038160048111156117ec57634e487b7160e01b600052602160045260246000fd5b14156118455760405162461bcd60e51b815260206004820152602260248201527f45434453413a20696e76616c6964207369676e6174757265202773272076616c604482015261756560f01b60648201526084016104d2565b600481600481111561186757634e487b7160e01b600052602160045260246000fd5b14156107265760405162461bcd60e51b815260206004820152602260248201527f45434453413a20696e76616c6964207369676e6174757265202776272076616c604482015261756560f01b60648201526084016104d2565b6113f96118cc846106fb565b6118d5846106fb565b8361143c565b6001600160a01b03821661193b5760405162461bcd60e51b815260206004820152602160248201527f45524332303a206275726e2066726f6d20746865207a65726f206164647265736044820152607360f81b60648201526084016104d2565b6001600160a01b038216600090815260208190526040902054818110156119af5760405162461bcd60e51b815260206004820152602260248201527f45524332303a206275726e20616d6f756e7420657863656564732062616c616e604482015261636560f01b60648201526084016104d2565b6001600160a01b03831660009081526020819052604081208383039055600280548492906119de908490612030565b90915550506040518281526000906001600160a01b038516906000805160206120938339815191529060200160405180910390a36113f9836000846113fe565b60006106f48284612030565b825460009081908015611a825785611a43600183612030565b81548110611a6157634e487b7160e01b600052603260045260246000fd5b600091825260209091200154600160201b90046001600160e01b0316611a85565b60005b6001600160e01b03169250611a9e83858763ffffffff16565b9150600081118015611aea57504386611ab8600184612030565b81548110611ad657634e487b7160e01b600052603260045260246000fd5b60009182526020909120015463ffffffff16145b15611b5857611af882611cac565b86611b04600184612030565b81548110611b2257634e487b7160e01b600052603260045260246000fd5b9060005260206000200160000160046101000a8154816001600160e01b0302191690836001600160e01b03160217905550611bc2565b856040518060400160405280611b6d436112e8565b63ffffffff168152602001611b8185611cac565b6001600160e01b039081169091528254600181018455600093845260209384902083519490930151909116600160201b0263ffffffff909316929092179101555b50935093915050565b60006106f48284611fd9565b6001600160a01b038216611c2d5760405162461bcd60e51b815260206004820152601f60248201527f45524332303a206d696e7420746f20746865207a65726f20616464726573730060448201526064016104d2565b8060026000828254611c3f9190611fd9565b90915550506001600160a01b03821660009081526020819052604081208054839290611c6c908490611fd9565b90915550506040518181526001600160a01b038316906000906000805160206120938339815191529060200160405180910390a3611061600083836113fe565b60006001600160e01b0382111561134d5760405162461bcd60e51b815260206004820152602760248201527f53616665436173743a2076616c756520646f65736e27742066697420696e20326044820152663234206269747360c81b60648201526084016104d2565b80356001600160a01b038116811461071757600080fd5b803560ff8116811461071757600080fd5b600060208284031215611d4e578081fd5b6106f482611d15565b60008060408385031215611d69578081fd5b611d7283611d15565b9150611d8060208401611d15565b90509250929050565b600080600060608486031215611d9d578081fd5b611da684611d15565b9250611db460208501611d15565b9150604084013590509250925092565b600080600080600080600060e0888a031215611dde578283fd5b611de788611d15565b9650611df560208901611d15565b95506040880135945060608801359350611e1160808901611d2c565b925060a0880135915060c0880135905092959891949750929550565b60008060408385031215611e3f578182fd5b611e4883611d15565b946020939093013593505050565b60008060008060008060c08789031215611e6e578182fd5b611e7787611d15565b95506020870135945060408701359350611e9360608801611d2c565b92506080870135915060a087013590509295509295509295565b60008060408385031215611ebf578182fd5b611ec883611d15565b9150602083013563ffffffff81168114611ee0578182fd5b809150509250929050565b600060208284031215611efc578081fd5b815180151581146106f4578182fd5b600060208284031215611f1c578081fd5b5035919050565b600060208284031215611f34578081fd5b5051919050565b6001600160a01b0391909116815260200190565b6000602080835283518082850152825b81811015611f7b57858101830151858201604001528201611f5f565b81811115611f8c5783604083870101525b50601f01601f1916929092016040019392505050565b6020808252601f908201527f4552433230566f7465733a20626c6f636b206e6f7420796574206d696e656400604082015260600190565b60008219821115611fec57611fec61207c565b500190565b60008261200c57634e487b7160e01b81526012600452602481fd5b500490565b600081600019048311821515161561202b5761202b61207c565b500290565b6000828210156120425761204261207c565b500390565b600181811c9082168061205b57607f821691505b602082108114156113f357634e487b7160e01b600052602260045260246000fd5b634e487b7160e01b600052601160045260246000fdfeddf252ad1be2c89b69c2b068fc378daa952ba7f163c4a11628f55a4df523b3efdec2bacdd2f05b59de34da9b523dff8be42e5e38e818c82fdb0bae774387a724a26469706673582212203cabd74570a16fd490a67e46f0981fe4a0dd96df1da34211869eae4bcdb49a3a64736f6c63430008030033",
  "linkReferences": {},
  "deployedLinkReferences": {}
}