{
  "_format": "hh-sol-artifact-1",
  "contractName": "sAvaxOracle",
  "sourceName": "contracts/oracles/sAvaxOracle.sol",
  "abi": [
    {
      "inputs": [
        {
          "internalType": "address",
          "name": "_roles",
          "type": "address"
        }
      ],
      "stateMutability": "nonpayable",
      "type": "constructor"
    },
    {
      "anonymous": false,
      "inputs": [
        {
          "indexed": false,
          "internalType": "string",
          "name": "param",
          "type": "string"
        },
        {
          "indexed": false,
          "internalType": "uint256",
          "name": "value",
          "type": "uint256"
        }
      ],
      "name": "ParameterUpdated",
      "type": "event"
    },
    {
      "anonymous": false,
      "inputs": [
        {
          "indexed": false,
          "internalType": "string",
          "name": "param",
          "type": "string"
        },
        {
          "indexed": false,
          "internalType": "address",
          "name": "subject",
          "type": "address"
        },
        {
          "indexed": false,
          "internalType": "uint256",
          "name": "value",
          "type": "uint256"
        }
      ],
      "name": "SubjectParameterUpdated",
      "type": "event"
    },
    {
      "anonymous": false,
      "inputs": [
        {
          "indexed": false,
          "internalType": "string",
          "name": "param",
          "type": "string"
        },
        {
          "indexed": false,
          "internalType": "address",
          "name": "subject",
          "type": "address"
        }
      ],
      "name": "SubjectUpdated",
      "type": "event"
    },
    {
      "inputs": [
        {
          "internalType": "uint256",
          "name": "",
          "type": "uint256"
        }
      ],
      "name": "_charactersPlayed",
      "outputs": [
        {
          "internalType": "uint256",
          "name": "",
          "type": "uint256"
        }
      ],
      "stateMutability": "view",
      "type": "function"
    },
    {
      "inputs": [
        {
          "internalType": "uint256",
          "name": "",
          "type": "uint256"
        }
      ],
      "name": "_dependsOnCharacters",
      "outputs": [
        {
          "internalType": "uint256",
          "name": "",
          "type": "uint256"
        }
      ],
      "stateMutability": "view",
      "type": "function"
    },
    {
      "inputs": [
        {
          "internalType": "uint256",
          "name": "",
          "type": "uint256"
        }
      ],
      "name": "_dependsOnRoles",
      "outputs": [
        {
          "internalType": "uint256",
          "name": "",
          "type": "uint256"
        }
      ],
      "stateMutability": "view",
      "type": "function"
    },
    {
      "inputs": [
        {
          "internalType": "uint256",
          "name": "",
          "type": "uint256"
        }
      ],
      "name": "_rolesPlayed",
      "outputs": [
        {
          "internalType": "uint256",
          "name": "",
          "type": "uint256"
        }
      ],
      "stateMutability": "view",
      "type": "function"
    },
    {
      "inputs": [],
      "name": "charactersPlayed",
      "outputs": [
        {
          "internalType": "uint256[]",
          "name": "",
          "type": "uint256[]"
        }
      ],
      "stateMutability": "view",
      "type": "function"
    },
    {
      "inputs": [],
      "name": "dependsOnCharacters",
      "outputs": [
        {
          "internalType": "uint256[]",
          "name": "",
          "type": "uint256[]"
        }
      ],
      "stateMutability": "view",
      "type": "function"
    },
    {
      "inputs": [],
      "name": "dependsOnRoles",
      "outputs": [
        {
          "internalType": "uint256[]",
          "name": "",
          "type": "uint256[]"
        }
      ],
      "stateMutability": "view",
      "type": "function"
    },
    {
      "inputs": [
        {
          "internalType": "address",
          "name": "fromToken",
          "type": "address"
        },
        {
          "internalType": "address",
          "name": "toToken",
          "type": "address"
        }
      ],
      "name": "encodeAndCheckOracleParams",
      "outputs": [
        {
          "internalType": "bool",
          "name": "",
          "type": "bool"
        },
        {
          "internalType": "bytes",
          "name": "",
          "type": "bytes"
        }
      ],
      "stateMutability": "view",
      "type": "function"
    },
    {
      "inputs": [
        {
          "internalType": "address",
          "name": "token",
          "type": "address"
        },
        {
          "internalType": "uint256",
          "name": "inAmount",
          "type": "uint256"
        },
        {
          "internalType": "address",
          "name": "wrappedCurrency",
          "type": "address"
        }
      ],
      "name": "getAmountInPeg",
      "outputs": [
        {
          "internalType": "uint256",
          "name": "",
          "type": "uint256"
        }
      ],
      "stateMutability": "nonpayable",
      "type": "function"
    },
    {
      "inputs": [
        {
          "internalType": "address",
          "name": "token",
          "type": "address"
        },
        {
          "internalType": "uint256",
          "name": "inAmount",
          "type": "uint256"
        },
        {
          "internalType": "address",
          "name": "pegCurrency",
          "type": "address"
        }
      ],
      "name": "getPegAmountAndBorrowable",
      "outputs": [
        {
          "internalType": "uint256",
          "name": "",
          "type": "uint256"
        },
        {
          "internalType": "uint256",
          "name": "",
          "type": "uint256"
        }
      ],
      "stateMutability": "nonpayable",
      "type": "function"
    },
    {
      "inputs": [],
      "name": "lastValuePer1e18",
      "outputs": [
        {
          "internalType": "uint256",
          "name": "",
          "type": "uint256"
        }
      ],
      "stateMutability": "view",
      "type": "function"
    },
    {
      "inputs": [
        {
          "internalType": "uint256",
          "name": "",
          "type": "uint256"
        }
      ],
      "name": "mainCharacterCache",
      "outputs": [
        {
          "internalType": "address",
          "name": "",
          "type": "address"
        }
      ],
      "stateMutability": "view",
      "type": "function"
    },
    {
      "inputs": [
        {
          "internalType": "address",
          "name": "",
          "type": "address"
        },
        {
          "internalType": "uint256",
          "name": "",
          "type": "uint256"
        }
      ],
      "name": "roleCache",
      "outputs": [
        {
          "internalType": "bool",
          "name": "",
          "type": "bool"
        }
      ],
      "stateMutability": "view",
      "type": "function"
    },
    {
      "inputs": [],
      "name": "roles",
      "outputs": [
        {
          "internalType": "contract Roles",
          "name": "",
          "type": "address"
        }
      ],
      "stateMutability": "view",
      "type": "function"
    },
    {
      "inputs": [],
      "name": "rolesPlayed",
      "outputs": [
        {
          "internalType": "uint256[]",
          "name": "",
          "type": "uint256[]"
        }
      ],
      "stateMutability": "view",
      "type": "function"
    },
    {
      "inputs": [],
      "name": "sAvax",
      "outputs": [
        {
          "internalType": "contract IsAvax",
          "name": "",
          "type": "address"
        }
      ],
      "stateMutability": "view",
      "type": "function"
    },
    {
      "inputs": [
        {
          "internalType": "address",
          "name": "token",
          "type": "address"
        },
        {
          "internalType": "address",
          "name": "pegCurrency",
          "type": "address"
        },
        {
          "internalType": "bytes",
          "name": "data",
          "type": "bytes"
        }
      ],
      "name": "setOracleParams",
      "outputs": [],
      "stateMutability": "nonpayable",
      "type": "function"
    },
    {
      "inputs": [
        {
          "internalType": "address",
          "name": "fromToken",
          "type": "address"
        },
        {
          "internalType": "address",
          "name": "toToken",
          "type": "address"
        }
      ],
      "name": "setOracleSpecificParams",
      "outputs": [],
      "stateMutability": "nonpayable",
      "type": "function"
    },
    {
      "inputs": [
        {
          "internalType": "uint256",
          "name": "window",
          "type": "uint256"
        }
      ],
      "name": "setUpdateWindow",
      "outputs": [],
      "stateMutability": "nonpayable",
      "type": "function"
    },
    {
      "inputs": [
        {
          "internalType": "uint256",
          "name": "smoothingPer10k",
          "type": "uint256"
        }
      ],
      "name": "setValueSmoothingPer10k",
      "outputs": [],
      "stateMutability": "nonpayable",
      "type": "function"
    },
    {
      "inputs": [
        {
          "internalType": "uint256",
          "name": "role",
          "type": "uint256"
        }
      ],
      "name": "updateMainCharacterCache",
      "outputs": [],
      "stateMutability": "nonpayable",
      "type": "function"
    },
    {
      "inputs": [
        {
          "internalType": "uint256",
          "name": "role",
          "type": "uint256"
        },
        {
          "internalType": "address",
          "name": "contr",
          "type": "address"
        }
      ],
      "name": "updateRoleCache",
      "outputs": [],
      "stateMutability": "nonpayable",
      "type": "function"
    },
    {
      "inputs": [],
      "name": "updateWindow",
      "outputs": [
        {
          "internalType": "uint256",
          "name": "",
          "type": "uint256"
        }
      ],
      "stateMutability": "view",
      "type": "function"
    },
    {
      "inputs": [],
      "name": "valuePer1e18",
      "outputs": [
        {
          "internalType": "uint256",
          "name": "",
          "type": "uint256"
        }
      ],
      "stateMutability": "view",
      "type": "function"
    },
    {
      "inputs": [],
      "name": "valueSmoothingPer10k",
      "outputs": [
        {
          "internalType": "uint256",
          "name": "",
          "type": "uint256"
        }
      ],
      "stateMutability": "view",
      "type": "function"
    },
    {
      "inputs": [
        {
          "internalType": "address",
          "name": "token",
          "type": "address"
        },
        {
          "internalType": "uint256",
          "name": "inAmount",
          "type": "uint256"
        },
        {
          "internalType": "address",
          "name": "pegCurrency",
          "type": "address"
        }
      ],
      "name": "viewAmountInPeg",
      "outputs": [
        {
          "internalType": "uint256",
          "name": "",
          "type": "uint256"
        }
      ],
      "stateMutability": "view",
      "type": "function"
    },
    {
      "inputs": [
        {
          "internalType": "address",
          "name": "token",
          "type": "address"
        },
        {
          "internalType": "uint256",
          "name": "inAmount",
          "type": "uint256"
        },
        {
          "internalType": "address",
          "name": "pegCurrency",
          "type": "address"
        }
      ],
      "name": "viewPegAmountAndBorrowable",
      "outputs": [
        {
          "internalType": "uint256",
          "name": "",
          "type": "uint256"
        },
        {
          "internalType": "uint256",
          "name": "",
          "type": "uint256"
        }
      ],
      "stateMutability": "view",
      "type": "function"
    },
    {
      "inputs": [],
      "name": "wAvax",
      "outputs": [
        {
          "internalType": "address",
          "name": "",
          "type": "address"
        }
      ],
      "stateMutability": "view",
      "type": "function"
    }
  ],
  "bytecode": "0x60a06040526103e8600655613840600a5534801561001c57600080fd5b5060405161148138038061148183398101604081905261003b916100ee565b806001600160a01b0381166100a15760405162461bcd60e51b815260206004820152602260248201527f506c656173652070726f766964652076616c696420726f6c6573206164647265604482015261737360f01b606482015260840160405180910390fd5b60601b6001600160601b0319166080525060028054600181018255600091909152606a7f405787fa12a823e0f2b7631cc41b3ba8828b3321ca811111fa75cd3aa3bb5ace9091015561011c565b6000602082840312156100ff578081fd5b81516001600160a01b0381168114610115578182fd5b9392505050565b60805160601c61132b610156600039600081816101dd015281816103ea0152818161072c01528181610d2e0152610dc6015261132b6000f3fe608060405234801561001057600080fd5b50600436106101545760003560e01c8063071060a6146101595780630db8fd421461016e57806323194fda146101815780632eb1504b146101b257806332f42fe6146101c5578063392f5f64146101d85780633d05f2c3146101ff578063447d52ba1461021a5780634a7a7f411461022d5780634fcd54a414610242578063576cbc301461026a57806369aa57d11461028b5780636caa9c111461029e5780637a1a04df146102b15780637dad209b146102ef578063885fa056146102f75780638eaab58c1461030a578063abcbc4fc1461031d578063aeb38d8b14610330578063b5317c5d14610343578063bf184ea41461034c578063c080e4e51461035f578063d239f46914610368578063dc94cb7d14610389578063e8ea4fae14610391578063e9c3f77d14610399578063ff2dc23d146103c2578063ff7cd6f3146103cb575b600080fd5b61016c610167366004611106565b6103d4565b005b61016c61017c366004610fb6565b61049a565b61019c73b31f66aa3c1e785363f0875a1b74e27b85fd66c781565b6040516101a9919061115a565b60405180910390f35b61016c6101c0366004611106565b61050b565b61016c6101d3366004610fee565b610602565b61019c7f000000000000000000000000000000000000000000000000000000000000000081565b61019c732b2c81e08f1af8835a78bb2a90ae924ace0ea4be81565b61016c610228366004611136565b610706565b6102356107de565b6040516101a9919061116e565b6102556102503660046110a5565b610836565b604080519283526020830191909152016101a9565b61027d6102783660046110a5565b6108d3565b6040519081526020016101a9565b61016c610299366004611106565b6109e2565b61027d6102ac366004611106565b610a30565b6102df6102bf36600461107a565b600160209081526000928352604080842090915290825290205460ff1681565b60405190151581526020016101a9565b610235610a51565b6102556103053660046110a5565b610aa7565b61027d6103183660046110a5565b610ab5565b61027d61032b366004611106565b610ba2565b61027d61033e366004611106565b610bb2565b61027d60065481565b61027d61035a366004611106565b610bc2565b61027d60075481565b61037b610376366004610fb6565b610bd2565b6040516101a99291906111b2565b610235610c7e565b610235610cd4565b61019c6103a7366004611106565b6000602081905290815260409020546001600160a01b031681565b61027d600a5481565b61027d60085481565b60405163b4ed0b6d60e01b8152600481018290527f00000000000000000000000000000000000000000000000000000000000000006001600160a01b03169063b4ed0b6d9060240160206040518083038186803b15801561043457600080fd5b505afa158015610448573d6000803e3d6000fd5b505050506040513d601f19601f8201168201806040525081019061046c9190610f93565b60009182526020829052604090912080546001600160a01b0319166001600160a01b03909216919091179055565b336104a3610d2a565b6001600160a01b031614806104c75750336104bc610dc2565b6001600160a01b0316145b6104ec5760405162461bcd60e51b81526004016104e39061120f565b60405180910390fd5b604080516020810190915260008152610506838383610e33565b505050565b33610514610d2a565b6001600160a01b0316148061053857503361052d610dc2565b6001600160a01b0316145b6105545760405162461bcd60e51b81526004016104e39061120f565b8061271010156105a25760405162461bcd60e51b81526020600482015260196024820152784e6565647320746f206265206c657373207468616e2031306b60381b60448201526064016104e3565b600681905560408051818152600f818301526e76616c756520736d6f6f7468696e6760881b60608201526020810183905290517f3a64504f0bc0c335e2aecb78638a257e0351a3fe0370861fd54ee4190b9209339181900360800190a150565b3361060b610f5b565b6001600160a01b0316146106615760405162461bcd60e51b815260206004820152601d60248201527f4e6f7420617574686f72697a656420746f20696e6974206f7261636c6500000060448201526064016104e3565b6106a2848484848080601f016020809104026020016040519081016040528093929190818152602001838380828437600092019190915250610e3392505050565b60408051818152600d818301526c6f7261636c6520706172616d7360981b60608201526001600160a01b038616602082015290517fbd64fae90eab1019a6c354538cfa598ad3d642c5b1bc8a8613bcb716723fa2d79181900360800190a150505050565b60405163f0723d9760e01b81526001600160a01b038281166004830152602482018490527f0000000000000000000000000000000000000000000000000000000000000000169063f0723d979060440160206040518083038186803b15801561076e57600080fd5b505afa158015610782573d6000803e3d6000fd5b505050506040513d601f19601f820116820180604052508101906107a691906110e6565b6001600160a01b0391909116600090815260016020908152604080832094835293905291909120805460ff1916911515919091179055565b6060600380548060200260200160405190810160405280929190818152602001828054801561082c57602002820191906000526020600020905b815481526020019060010190808311610818575b5050505050905090565b600080610844858585610ab5565b61084c610f5b565b6001600160a01b03166315c2ba50876040518263ffffffff1660e01b8152600401610877919061115a565b60206040518083038186803b15801561088f57600080fd5b505afa1580156108a3573d6000803e3d6000fd5b505050506040513d601f19601f820116820180604052508101906108c7919061111e565b91509150935093915050565b6000806108e1858585610ab5565b9050600a54600954426108f491906112b0565b11156109da5742600955604051634a36d6c160e01b8152670de0b6b3a76400006004820152600090732b2c81e08f1af8835a78bb2a90ae924ace0ea4be90634a36d6c19060240160206040518083038186803b15801561095357600080fd5b505afa158015610967573d6000803e3d6000fd5b505050506040513d601f19601f8201168201806040525081019061098b919061111e565b6008546007556006549091506127109082906109a790836112b0565b6109b19190611291565b6008546006546109c19190611291565b6109cb9190611259565b6109d59190611271565b600855505b949350505050565b336109eb610d2a565b6001600160a01b03161480610a0f575033610a04610dc2565b6001600160a01b0316145b610a2b5760405162461bcd60e51b81526004016104e39061120f565b600a55565b60058181548110610a4057600080fd5b600091825260209091200154905081565b6060600480548060200260200160405190810160405280929190818152602001828054801561082c5760200282019190600052602060002090815481526020019060010190808311610818575050505050905090565b6000806108448585856108d3565b60006001600160a01b03821673b31f66aa3c1e785363f0875a1b74e27b85fd66c714610b1e5760405162461bcd60e51b815260206004820152601860248201527709edcd8f240dac2e040e0e4d2c6cae640e8de40ae82ac82b60431b60448201526064016104e3565b6001600160a01b038416732b2c81e08f1af8835a78bb2a90ae924ace0ea4be14610b815760405162461bcd60e51b815260206004820152601460248201527309edcd8f240e2eacae4f240ccdee440e682ac82b60631b60448201526064016104e3565b670de0b6b3a764000060075484610b989190611291565b6109da9190611271565b60028181548110610a4057600080fd5b60048181548110610a4057600080fd5b60038181548110610a4057600080fd5b600060606001600160a01b038416732b2c81e08f1af8835a78bb2a90ae924ace0ea4be148015610c1e57506001600160a01b03831673b31f66aa3c1e785363f0875a1b74e27b85fd66c7145b610c5f5760405162461bcd60e51b815260206004820152601260248201527109edcd8f240dac2e040ccdee440e682ac82b60731b60448201526064016104e3565b5050600854604080516020810190915260008152901515909250929050565b6060600280548060200260200160405190810160405280929190818152602001828054801561082c5760200282019190600052602060002090815481526020019060010190808311610818575050505050905090565b6060600580548060200260200160405190810160405280929190818152602001828054801561082c5760200282019190600052602060002090815481526020019060010190808311610818575050505050905090565b60007f00000000000000000000000000000000000000000000000000000000000000006001600160a01b0316638da5cb5b6040518163ffffffff1660e01b815260040160206040518083038186803b158015610d8557600080fd5b505afa158015610d99573d6000803e3d6000fd5b505050506040513d601f19601f82011682018060405250810190610dbd9190610f93565b905090565b60007f00000000000000000000000000000000000000000000000000000000000000006001600160a01b031663c34c08e56040518163ffffffff1660e01b8152600401602060405180830381600087803b158015610e1f57600080fd5b505af1158015610d99573d6000803e3d6000fd5b6001600160a01b038316732b2c81e08f1af8835a78bb2a90ae924ace0ea4be148015610e7b57506001600160a01b03821673b31f66aa3c1e785363f0875a1b74e27b85fd66c7145b610ebc5760405162461bcd60e51b815260206004820152601260248201527109edcd8f240dac2e040ccdee440e682ecc2f60731b60448201526064016104e3565b604051634a36d6c160e01b8152670de0b6b3a76400006004820152600090732b2c81e08f1af8835a78bb2a90ae924ace0ea4be90634a36d6c19060240160206040518083038186803b158015610f1157600080fd5b505afa158015610f25573d6000803e3d6000fd5b505050506040513d601f19601f82011682018060405250810190610f49919061111e565b60088190556007555050426009555050565b606a60009081526020527ff3261457f4fd0b7c00a1511877ab27b74183ac470be8db3a7ecdc64335f6f979546001600160a01b031690565b600060208284031215610fa4578081fd5b8151610faf816112dd565b9392505050565b60008060408385031215610fc8578081fd5b8235610fd3816112dd565b91506020830135610fe3816112dd565b809150509250929050565b60008060008060608587031215611003578182fd5b843561100e816112dd565b9350602085013561101e816112dd565b925060408501356001600160401b0380821115611039578384fd5b818701915087601f83011261104c578384fd5b81358181111561105a578485fd5b88602082850101111561106b578485fd5b95989497505060200194505050565b6000806040838503121561108c578182fd5b8235611097816112dd565b946020939093013593505050565b6000806000606084860312156110b9578283fd5b83356110c4816112dd565b92506020840135915060408401356110db816112dd565b809150509250925092565b6000602082840312156110f7578081fd5b81518015158114610faf578182fd5b600060208284031215611117578081fd5b5035919050565b60006020828403121561112f578081fd5b5051919050565b60008060408385031215611148578182fd5b823591506020830135610fe3816112dd565b6001600160a01b0391909116815260200190565b6020808252825182820181905260009190848201906040850190845b818110156111a65783518352928401929184019160010161118a565b50909695505050505050565b6000831515825260206040818401528351806040850152825b818110156111e7578581018301518582016060015282016111cb565b818111156111f85783606083870101525b50601f01601f191692909201606001949350505050565b6020808252602a908201527f526f6c65733a2063616c6c6572206973206e6f7420746865206f776e6572206f604082015269391032bc32b1baba37b960b11b606082015260800190565b6000821982111561126c5761126c6112c7565b500190565b60008261128c57634e487b7160e01b81526012600452602481fd5b500490565b60008160001904831182151516156112ab576112ab6112c7565b500290565b6000828210156112c2576112c26112c7565b500390565b634e487b7160e01b600052601160045260246000fd5b6001600160a01b03811681146112f257600080fd5b5056fea264697066735822122018bf7560e4cda442bccd4015eabe4d5381548a7776889cfd0529be5701ac11c864736f6c63430008030033",
  "linkReferences": {},
  "deployedLinkReferences": {}
}