{
  "_format": "hh-sol-artifact-1",
  "contractName": "OracleActivation",
  "sourceName": "contracts/controller-actions/OracleActivation.sol",
  "abi": [
    {
      "inputs": [
        {
          "internalType": "address",
          "name": "_oracle",
          "type": "address"
        },
        {
          "internalType": "address[]",
          "name": "_tokens",
          "type": "address[]"
        },
        {
          "internalType": "address[]",
          "name": "_pegCurrencies",
          "type": "address[]"
        },
        {
          "internalType": "uint256[]",
          "name": "_borrowablePer10ks",
          "type": "uint256[]"
        },
        {
          "internalType": "bool[]",
          "name": "_primary",
          "type": "bool[]"
        },
        {
          "internalType": "bytes[]",
          "name": "_data",
          "type": "bytes[]"
        },
        {
          "internalType": "address",
          "name": "_roles",
          "type": "address"
        }
      ],
      "stateMutability": "nonpayable",
      "type": "constructor"
    },
    {
      "anonymous": false,
      "inputs": [
        {
          "indexed": false,
          "internalType": "string",
          "name": "param",
          "type": "string"
        },
        {
          "indexed": false,
          "internalType": "uint256",
          "name": "value",
          "type": "uint256"
        }
      ],
      "name": "ParameterUpdated",
      "type": "event"
    },
    {
      "anonymous": false,
      "inputs": [
        {
          "indexed": false,
          "internalType": "string",
          "name": "param",
          "type": "string"
        },
        {
          "indexed": false,
          "internalType": "address",
          "name": "subject",
          "type": "address"
        },
        {
          "indexed": false,
          "internalType": "uint256",
          "name": "value",
          "type": "uint256"
        }
      ],
      "name": "SubjectParameterUpdated",
      "type": "event"
    },
    {
      "anonymous": false,
      "inputs": [
        {
          "indexed": false,
          "internalType": "string",
          "name": "param",
          "type": "string"
        },
        {
          "indexed": false,
          "internalType": "address",
          "name": "subject",
          "type": "address"
        }
      ],
      "name": "SubjectUpdated",
      "type": "event"
    },
    {
      "inputs": [
        {
          "internalType": "uint256",
          "name": "",
          "type": "uint256"
        }
      ],
      "name": "_charactersPlayed",
      "outputs": [
        {
          "internalType": "uint256",
          "name": "",
          "type": "uint256"
        }
      ],
      "stateMutability": "view",
      "type": "function"
    },
    {
      "inputs": [
        {
          "internalType": "uint256",
          "name": "",
          "type": "uint256"
        }
      ],
      "name": "_dependsOnCharacters",
      "outputs": [
        {
          "internalType": "uint256",
          "name": "",
          "type": "uint256"
        }
      ],
      "stateMutability": "view",
      "type": "function"
    },
    {
      "inputs": [
        {
          "internalType": "uint256",
          "name": "",
          "type": "uint256"
        }
      ],
      "name": "_dependsOnRoles",
      "outputs": [
        {
          "internalType": "uint256",
          "name": "",
          "type": "uint256"
        }
      ],
      "stateMutability": "view",
      "type": "function"
    },
    {
      "inputs": [
        {
          "internalType": "uint256",
          "name": "",
          "type": "uint256"
        }
      ],
      "name": "_rolesPlayed",
      "outputs": [
        {
          "internalType": "uint256",
          "name": "",
          "type": "uint256"
        }
      ],
      "stateMutability": "view",
      "type": "function"
    },
    {
      "inputs": [
        {
          "internalType": "uint256",
          "name": "",
          "type": "uint256"
        }
      ],
      "name": "borrowablePer10ks",
      "outputs": [
        {
          "internalType": "uint256",
          "name": "",
          "type": "uint256"
        }
      ],
      "stateMutability": "view",
      "type": "function"
    },
    {
      "inputs": [],
      "name": "charactersPlayed",
      "outputs": [
        {
          "internalType": "uint256[]",
          "name": "",
          "type": "uint256[]"
        }
      ],
      "stateMutability": "view",
      "type": "function"
    },
    {
      "inputs": [
        {
          "internalType": "uint256",
          "name": "",
          "type": "uint256"
        }
      ],
      "name": "data",
      "outputs": [
        {
          "internalType": "bytes",
          "name": "",
          "type": "bytes"
        }
      ],
      "stateMutability": "view",
      "type": "function"
    },
    {
      "inputs": [],
      "name": "dependsOnCharacters",
      "outputs": [
        {
          "internalType": "uint256[]",
          "name": "",
          "type": "uint256[]"
        }
      ],
      "stateMutability": "view",
      "type": "function"
    },
    {
      "inputs": [],
      "name": "dependsOnRoles",
      "outputs": [
        {
          "internalType": "uint256[]",
          "name": "",
          "type": "uint256[]"
        }
      ],
      "stateMutability": "view",
      "type": "function"
    },
    {
      "inputs": [],
      "name": "execute",
      "outputs": [],
      "stateMutability": "nonpayable",
      "type": "function"
    },
    {
      "inputs": [
        {
          "internalType": "uint256",
          "name": "",
          "type": "uint256"
        }
      ],
      "name": "mainCharacterCache",
      "outputs": [
        {
          "internalType": "address",
          "name": "",
          "type": "address"
        }
      ],
      "stateMutability": "view",
      "type": "function"
    },
    {
      "inputs": [],
      "name": "oracle",
      "outputs": [
        {
          "internalType": "address",
          "name": "",
          "type": "address"
        }
      ],
      "stateMutability": "view",
      "type": "function"
    },
    {
      "inputs": [
        {
          "internalType": "uint256",
          "name": "",
          "type": "uint256"
        }
      ],
      "name": "pegCurrencies",
      "outputs": [
        {
          "internalType": "address",
          "name": "",
          "type": "address"
        }
      ],
      "stateMutability": "view",
      "type": "function"
    },
    {
      "inputs": [
        {
          "internalType": "uint256",
          "name": "",
          "type": "uint256"
        }
      ],
      "name": "primary",
      "outputs": [
        {
          "internalType": "bool",
          "name": "",
          "type": "bool"
        }
      ],
      "stateMutability": "view",
      "type": "function"
    },
    {
      "inputs": [
        {
          "internalType": "address",
          "name": "",
          "type": "address"
        },
        {
          "internalType": "uint256",
          "name": "",
          "type": "uint256"
        }
      ],
      "name": "roleCache",
      "outputs": [
        {
          "internalType": "bool",
          "name": "",
          "type": "bool"
        }
      ],
      "stateMutability": "view",
      "type": "function"
    },
    {
      "inputs": [],
      "name": "roles",
      "outputs": [
        {
          "internalType": "contract Roles",
          "name": "",
          "type": "address"
        }
      ],
      "stateMutability": "view",
      "type": "function"
    },
    {
      "inputs": [],
      "name": "rolesPlayed",
      "outputs": [
        {
          "internalType": "uint256[]",
          "name": "",
          "type": "uint256[]"
        }
      ],
      "stateMutability": "view",
      "type": "function"
    },
    {
      "inputs": [
        {
          "internalType": "uint256",
          "name": "",
          "type": "uint256"
        }
      ],
      "name": "tokens",
      "outputs": [
        {
          "internalType": "address",
          "name": "",
          "type": "address"
        }
      ],
      "stateMutability": "view",
      "type": "function"
    },
    {
      "inputs": [
        {
          "internalType": "uint256",
          "name": "role",
          "type": "uint256"
        }
      ],
      "name": "updateMainCharacterCache",
      "outputs": [],
      "stateMutability": "nonpayable",
      "type": "function"
    },
    {
      "inputs": [
        {
          "internalType": "uint256",
          "name": "role",
          "type": "uint256"
        },
        {
          "internalType": "address",
          "name": "contr",
          "type": "address"
        }
      ],
      "name": "updateRoleCache",
      "outputs": [],
      "stateMutability": "nonpayable",
      "type": "function"
    }
  ],
  "bytecode": "0x60c06040523480156200001157600080fd5b5060405162001615380380620016158339810160408190526200003491620006eb565b806001600160a01b0381166200009c5760405162461bcd60e51b815260206004820152602260248201527f506c656173652070726f766964652076616c696420726f6c6573206164647265604482015261737360f01b60648201526084015b60405180910390fd5b60601b6001600160601b03191660805260028054600181018255600091909152606a7f405787fa12a823e0f2b7631cc41b3ba8828b3321ca811111fa75cd3aa3bb5ace909101558551855181148015620000f65750808551145b8015620001035750808451145b8015620001105750808351145b6200015e5760405162461bcd60e51b815260206004820152601360248201527f4c656e6774687320646f6e2774206d6174636800000000000000000000000000604482015260640162000093565b8651620001739060069060208a0190620001ec565b50855162000189906007906020890190620001ec565b5082516200019f90600a90602086019062000256565b506001600160601b0319606089901b1660a0528451620001c7906008906020880190620002b6565b508351620001dd906009906020870190620002f4565b50505050505050505062000898565b82805482825590600052602060002090810192821562000244579160200282015b828111156200024457825182546001600160a01b0319166001600160a01b039091161782556020909201916001909101906200020d565b506200025292915062000396565b5090565b828054828255906000526020600020908101928215620002a8579160200282015b82811115620002a8578251805162000297918491602090910190620003ad565b509160200191906001019062000277565b506200025292915062000429565b82805482825590600052602060002090810192821562000244579160200282015b8281111562000244578251825591602001919060010190620002d7565b82805482825590600052602060002090601f01602090048101928215620002445791602002820160005b838211156200035d57835183826101000a81548160ff02191690831515021790555092602001926001016020816000010492830192600103026200031e565b80156200038c5782816101000a81549060ff02191690556001016020816000010492830192600103026200035d565b5050620002529291505b5b8082111562000252576000815560010162000397565b828054620003bb9062000845565b90600052602060002090601f016020900481019282620003df576000855562000244565b82601f10620003fa57805160ff191683800117855562000244565b8280016001018555821562000244579182018281111562000244578251825591602001919060010190620002d7565b80821115620002525760006200044082826200044a565b5060010162000429565b508054620004589062000845565b6000825580601f106200046c57506200048c565b601f0160209004906000526020600020908101906200048c919062000396565b50565b80516001600160a01b0381168114620004a757600080fd5b919050565b600082601f830112620004bd578081fd5b81516020620004d6620004d0836200081f565b620007ec565b80838252828201915082860187848660051b8901011115620004f6578586fd5b855b858110156200051f576200050c826200048f565b84529284019290840190600101620004f8565b5090979650505050505050565b600082601f8301126200053d578081fd5b8151602062000550620004d0836200081f565b80838252828201915082860187848660051b890101111562000570578586fd5b855b858110156200051f57815180151581146200058b578788fd5b8452928401929084019060010162000572565b6000601f8381840112620005b0578182fd5b82516020620005c3620004d0836200081f565b82815281810190868301865b858110156200067957815189018a603f820112620005eb578889fd5b808601516001600160401b0381111562000609576200060962000882565b6200061c818a01601f19168801620007ec565b81815260408d8184860101111562000632578b8cfd5b8b5b8381101562000651578481018201518382018b0152890162000634565b8381111562000662578c8a85850101525b5050865250509284019290840190600101620005cf565b509098975050505050505050565b600082601f83011262000698578081fd5b81516020620006ab620004d0836200081f565b80838252828201915082860187848660051b8901011115620006cb578586fd5b855b858110156200051f57815184529284019290840190600101620006cd565b600080600080600080600060e0888a03121562000706578283fd5b62000711886200048f565b60208901519097506001600160401b03808211156200072e578485fd5b6200073c8b838c01620004ac565b975060408a015191508082111562000752578485fd5b620007608b838c01620004ac565b965060608a015191508082111562000776578485fd5b620007848b838c0162000687565b955060808a01519150808211156200079a578485fd5b620007a88b838c016200052c565b945060a08a0151915080821115620007be578384fd5b50620007cd8a828b016200059e565b925050620007de60c089016200048f565b905092959891949750929550565b604051601f8201601f191681016001600160401b038111828210171562000817576200081762000882565b604052919050565b60006001600160401b038211156200083b576200083b62000882565b5060051b60200190565b600181811c908216806200085a57607f821691505b602082108114156200087c57634e487b7160e01b600052602260045260246000fd5b50919050565b634e487b7160e01b600052604160045260246000fd5b60805160601c60a05160601c610d3c620008d96000396000818161021c015261061601526000818161011b0152818161030c01526104160152610d3c6000f3fe608060405234801561001057600080fd5b50600436106100fc5760003560e01c8063071060a614610101578063392f5f64146101165780633ed800881461015a578063447d52ba1461017d5780634a7a7f41146101905780634f64b2be146101a557806361461954146101b85780636caa9c11146101c05780637a1a04df146101e15780637dad209b1461020f5780637dc0d1d014610217578063abcbc4fc1461023e578063aeb38d8b14610251578063bf184ea414610264578063dc94cb7d14610277578063dd8179201461027f578063e3f0e99914610292578063e8ea4fae146102a5578063e9c3f77d146102ad578063f0ba8440146102d6575b600080fd5b61011461010f366004610ad2565b6102f6565b005b61013d7f000000000000000000000000000000000000000000000000000000000000000081565b6040516001600160a01b0390911681526020015b60405180910390f35b61016d610168366004610ad2565b6103bc565b6040519015158152602001610151565b61011461018b366004610aea565b6103f0565b6101986104c8565b6040516101519190610bf8565b61013d6101b3366004610ad2565b610520565b61011461054a565b6101d36101ce366004610ad2565b610773565b604051908152602001610151565b61016d6101ef366004610a87565b600160209081526000928352604080842090915290825290205460ff1681565b610198610794565b61013d7f000000000000000000000000000000000000000000000000000000000000000081565b6101d361024c366004610ad2565b6107ea565b6101d361025f366004610ad2565b6107fa565b6101d3610272366004610ad2565b61080a565b61019861081a565b6101d361028d366004610ad2565b610870565b61013d6102a0366004610ad2565b610880565b610198610890565b61013d6102bb366004610ad2565b6000602081905290815260409020546001600160a01b031681565b6102e96102e4366004610ad2565b6108e6565b6040516101519190610c3c565b60405163b4ed0b6d60e01b8152600481018290527f00000000000000000000000000000000000000000000000000000000000000006001600160a01b03169063b4ed0b6d9060240160206040518083038186803b15801561035657600080fd5b505afa15801561036a573d6000803e3d6000fd5b505050506040513d601f19601f8201168201806040525081019061038e9190610a64565b60009182526020829052604090912080546001600160a01b0319166001600160a01b03909216919091179055565b600981815481106103cc57600080fd5b9060005260206000209060209182820401919006915054906101000a900460ff1681565b60405163f0723d9760e01b81526001600160a01b038281166004830152602482018490527f0000000000000000000000000000000000000000000000000000000000000000169063f0723d979060440160206040518083038186803b15801561045857600080fd5b505afa15801561046c573d6000803e3d6000fd5b505050506040513d601f19601f820116820180604052508101906104909190610ab2565b6001600160a01b0391909116600090815260016020908152604080832094835293905291909120805460ff1916911515919091179055565b6060600380548060200260200160405190810160405280929190818152602001828054801561051657602002820191906000526020600020905b815481526020019060010190808311610502575b5050505050905090565b6006818154811061053057600080fd5b6000918252602090912001546001600160a01b0316905081565b60065460005b8082111561073357606a60009081526020527ff3261457f4fd0b7c00a1511877ab27b74183ac470be8db3a7ecdc64335f6f979546001600160a01b03166001600160a01b031663acd925e7600683815481106105bc57634e487b7160e01b600052603260045260246000fd5b600091825260209091200154600780546001600160a01b0390921691859081106105f657634e487b7160e01b600052603260045260246000fd5b9060005260206000200160009054906101000a90046001600160a01b03167f00000000000000000000000000000000000000000000000000000000000000006008868154811061065657634e487b7160e01b600052603260045260246000fd5b90600052602060002001546009878154811061068257634e487b7160e01b600052603260045260246000fd5b90600052602060002090602091828204019190069054906101000a900460ff16600a88815481106106c357634e487b7160e01b600052603260045260246000fd5b906000526020600020016040518763ffffffff1660e01b81526004016106ee96959493929190610b19565b600060405180830381600087803b15801561070857600080fd5b505af115801561071c573d6000803e3d6000fd5b50505050808061072b90610cca565b915050610550565b5061074060066000610992565b61074c60076000610992565b61075860086000610992565b610764600a60006109b3565b610770600960006109d1565b32ff5b6005818154811061078357600080fd5b600091825260209091200154905081565b606060048054806020026020016040519081016040528092919081815260200182805480156105165760200282019190600052602060002090815481526020019060010190808311610502575050505050905090565b6002818154811061078357600080fd5b6004818154811061078357600080fd5b6003818154811061078357600080fd5b606060028054806020026020016040519081016040528092919081815260200182805480156105165760200282019190600052602060002090815481526020019060010190808311610502575050505050905090565b6008818154811061078357600080fd5b6007818154811061053057600080fd5b606060058054806020026020016040519081016040528092919081815260200182805480156105165760200282019190600052602060002090815481526020019060010190808311610502575050505050905090565b600a81815481106108f657600080fd5b90600052602060002001600091509050805461091190610c8f565b80601f016020809104026020016040519081016040528092919081815260200182805461093d90610c8f565b801561098a5780601f1061095f5761010080835404028352916020019161098a565b820191906000526020600020905b81548152906001019060200180831161096d57829003601f168201915b505050505081565b50805460008255906000526020600020908101906109b091906109f2565b50565b50805460008255906000526020600020908101906109b09190610a0b565b50805460008255601f0160209004906000526020600020908101906109b091905b5b80821115610a0757600081556001016109f3565b5090565b80821115610a07576000610a1f8282610a28565b50600101610a0b565b508054610a3490610c8f565b6000825580601f10610a4657506109b0565b601f0160209004906000526020600020908101906109b091906109f2565b600060208284031215610a75578081fd5b8151610a8081610cf1565b9392505050565b60008060408385031215610a99578081fd5b8235610aa481610cf1565b946020939093013593505050565b600060208284031215610ac3578081fd5b81518015158114610a80578182fd5b600060208284031215610ae3578081fd5b5035919050565b60008060408385031215610afc578182fd5b823591506020830135610b0e81610cf1565b809150509250929050565b6001600160a01b038781168252868116602080840191909152908616604083015260608201859052831515608083015260c060a083015282546000918291600181811c9082811680610b6c57607f831692505b848310811415610b8a57634e487b7160e01b87526022600452602487fd5b60c0880183905260e08801818015610ba95760018114610bba57610be4565b60ff19861682528682019750610be4565b60008b815260209020895b86811015610bde57815484820152908501908801610bc5565b83019850505b50959e9d5050505050505050505050505050565b6020808252825182820181905260009190848201906040850190845b81811015610c3057835183529284019291840191600101610c14565b50909695505050505050565b6000602080835283518082850152825b81811015610c6857858101830151858201604001528201610c4c565b81811115610c795783604083870101525b50601f01601f1916929092016040019392505050565b600181811c90821680610ca357607f821691505b60208210811415610cc457634e487b7160e01b600052602260045260246000fd5b50919050565b6000600019821415610cea57634e487b7160e01b81526011600452602481fd5b5060010190565b6001600160a01b03811681146109b057600080fdfea26469706673582212203c6c407c2f01c14c1db1b48277c1366780fa0a9fe31d0387b0f1cfa8422a621564736f6c63430008030033",
  "linkReferences": {},
  "deployedLinkReferences": {}
}