{
  "_format": "hh-sol-artifact-1",
  "contractName": "SmartLiquidity",
  "sourceName": "contracts/smart-liquidity/SmartLiquidity.sol",
  "abi": [
    {
      "inputs": [
        {
          "internalType": "address",
          "name": "_factory",
          "type": "address"
        },
        {
          "internalType": "bytes32",
          "name": "_initHash",
          "type": "bytes32"
        },
        {
          "internalType": "address",
          "name": "_roles",
          "type": "address"
        }
      ],
      "stateMutability": "nonpayable",
      "type": "constructor"
    },
    {
      "anonymous": false,
      "inputs": [
        {
          "indexed": false,
          "internalType": "string",
          "name": "param",
          "type": "string"
        },
        {
          "indexed": false,
          "internalType": "uint256",
          "name": "value",
          "type": "uint256"
        }
      ],
      "name": "ParameterUpdated",
      "type": "event"
    },
    {
      "anonymous": false,
      "inputs": [
        {
          "indexed": false,
          "internalType": "string",
          "name": "param",
          "type": "string"
        },
        {
          "indexed": false,
          "internalType": "address",
          "name": "subject",
          "type": "address"
        },
        {
          "indexed": false,
          "internalType": "uint256",
          "name": "value",
          "type": "uint256"
        }
      ],
      "name": "SubjectParameterUpdated",
      "type": "event"
    },
    {
      "anonymous": false,
      "inputs": [
        {
          "indexed": false,
          "internalType": "string",
          "name": "param",
          "type": "string"
        },
        {
          "indexed": false,
          "internalType": "address",
          "name": "subject",
          "type": "address"
        }
      ],
      "name": "SubjectUpdated",
      "type": "event"
    },
    {
      "inputs": [
        {
          "internalType": "uint256",
          "name": "",
          "type": "uint256"
        }
      ],
      "name": "_charactersPlayed",
      "outputs": [
        {
          "internalType": "uint256",
          "name": "",
          "type": "uint256"
        }
      ],
      "stateMutability": "view",
      "type": "function"
    },
    {
      "inputs": [
        {
          "internalType": "uint256",
          "name": "",
          "type": "uint256"
        }
      ],
      "name": "_dependsOnCharacters",
      "outputs": [
        {
          "internalType": "uint256",
          "name": "",
          "type": "uint256"
        }
      ],
      "stateMutability": "view",
      "type": "function"
    },
    {
      "inputs": [
        {
          "internalType": "uint256",
          "name": "",
          "type": "uint256"
        }
      ],
      "name": "_dependsOnRoles",
      "outputs": [
        {
          "internalType": "uint256",
          "name": "",
          "type": "uint256"
        }
      ],
      "stateMutability": "view",
      "type": "function"
    },
    {
      "inputs": [
        {
          "internalType": "address",
          "name": "",
          "type": "address"
        },
        {
          "internalType": "address",
          "name": "",
          "type": "address"
        }
      ],
      "name": "_oracleCache",
      "outputs": [
        {
          "internalType": "address",
          "name": "",
          "type": "address"
        }
      ],
      "stateMutability": "view",
      "type": "function"
    },
    {
      "inputs": [
        {
          "internalType": "uint256",
          "name": "",
          "type": "uint256"
        }
      ],
      "name": "_rolesPlayed",
      "outputs": [
        {
          "internalType": "uint256",
          "name": "",
          "type": "uint256"
        }
      ],
      "stateMutability": "view",
      "type": "function"
    },
    {
      "inputs": [
        {
          "internalType": "address",
          "name": "token",
          "type": "address"
        },
        {
          "internalType": "uint256",
          "name": "amount",
          "type": "uint256"
        }
      ],
      "name": "addCounterLiquidity",
      "outputs": [],
      "stateMutability": "nonpayable",
      "type": "function"
    },
    {
      "inputs": [
        {
          "internalType": "address",
          "name": "counterPartyToken",
          "type": "address"
        },
        {
          "internalType": "uint256",
          "name": "amount",
          "type": "uint256"
        }
      ],
      "name": "addStableLiquidity",
      "outputs": [],
      "stateMutability": "nonpayable",
      "type": "function"
    },
    {
      "inputs": [],
      "name": "charactersPlayed",
      "outputs": [
        {
          "internalType": "uint256[]",
          "name": "",
          "type": "uint256[]"
        }
      ],
      "stateMutability": "view",
      "type": "function"
    },
    {
      "inputs": [],
      "name": "dependsOnCharacters",
      "outputs": [
        {
          "internalType": "uint256[]",
          "name": "",
          "type": "uint256[]"
        }
      ],
      "stateMutability": "view",
      "type": "function"
    },
    {
      "inputs": [],
      "name": "dependsOnRoles",
      "outputs": [
        {
          "internalType": "uint256[]",
          "name": "",
          "type": "uint256[]"
        }
      ],
      "stateMutability": "view",
      "type": "function"
    },
    {
      "inputs": [
        {
          "internalType": "address",
          "name": "counterPartyToken",
          "type": "address"
        },
        {
          "internalType": "uint256",
          "name": "stableAmount",
          "type": "uint256"
        },
        {
          "internalType": "uint256",
          "name": "counterAmount",
          "type": "uint256"
        }
      ],
      "name": "initPool",
      "outputs": [],
      "stateMutability": "nonpayable",
      "type": "function"
    },
    {
      "inputs": [
        {
          "internalType": "address",
          "name": "",
          "type": "address"
        }
      ],
      "name": "liqPools",
      "outputs": [
        {
          "internalType": "address",
          "name": "stableLPT",
          "type": "address"
        },
        {
          "internalType": "address",
          "name": "counterLPT",
          "type": "address"
        },
        {
          "internalType": "address",
          "name": "pair",
          "type": "address"
        },
        {
          "internalType": "uint256",
          "name": "stableBalance",
          "type": "uint256"
        },
        {
          "internalType": "uint256",
          "name": "debt",
          "type": "uint256"
        },
        {
          "internalType": "uint256",
          "name": "depositedStable",
          "type": "uint256"
        },
        {
          "internalType": "uint256",
          "name": "depositedCounter",
          "type": "uint256"
        },
        {
          "internalType": "uint256",
          "name": "stableLTVPer10k",
          "type": "uint256"
        },
        {
          "internalType": "uint256",
          "name": "oracleLastUpdated",
          "type": "uint256"
        }
      ],
      "stateMutability": "view",
      "type": "function"
    },
    {
      "inputs": [
        {
          "internalType": "uint256",
          "name": "",
          "type": "uint256"
        }
      ],
      "name": "mainCharacterCache",
      "outputs": [
        {
          "internalType": "address",
          "name": "",
          "type": "address"
        }
      ],
      "stateMutability": "view",
      "type": "function"
    },
    {
      "inputs": [
        {
          "internalType": "address",
          "name": "token",
          "type": "address"
        },
        {
          "internalType": "address",
          "name": "pegCurrency",
          "type": "address"
        }
      ],
      "name": "newCurrentOracle",
      "outputs": [],
      "stateMutability": "nonpayable",
      "type": "function"
    },
    {
      "inputs": [
        {
          "internalType": "address",
          "name": "counterPartyToken",
          "type": "address"
        }
      ],
      "name": "rebalance",
      "outputs": [],
      "stateMutability": "nonpayable",
      "type": "function"
    },
    {
      "inputs": [
        {
          "internalType": "address",
          "name": "counterPartyToken",
          "type": "address"
        }
      ],
      "name": "rebalanceOrUpdateOracle",
      "outputs": [],
      "stateMutability": "nonpayable",
      "type": "function"
    },
    {
      "inputs": [
        {
          "internalType": "address",
          "name": "",
          "type": "address"
        },
        {
          "internalType": "uint256",
          "name": "",
          "type": "uint256"
        }
      ],
      "name": "roleCache",
      "outputs": [
        {
          "internalType": "bool",
          "name": "",
          "type": "bool"
        }
      ],
      "stateMutability": "view",
      "type": "function"
    },
    {
      "inputs": [],
      "name": "roles",
      "outputs": [
        {
          "internalType": "contract Roles",
          "name": "",
          "type": "address"
        }
      ],
      "stateMutability": "view",
      "type": "function"
    },
    {
      "inputs": [],
      "name": "rolesPlayed",
      "outputs": [
        {
          "internalType": "uint256[]",
          "name": "",
          "type": "uint256[]"
        }
      ],
      "stateMutability": "view",
      "type": "function"
    },
    {
      "inputs": [
        {
          "internalType": "uint256",
          "name": "stableAmount",
          "type": "uint256"
        }
      ],
      "name": "setMinInitialStable",
      "outputs": [],
      "stateMutability": "nonpayable",
      "type": "function"
    },
    {
      "inputs": [
        {
          "internalType": "uint256",
          "name": "window",
          "type": "uint256"
        }
      ],
      "name": "setRecencyWindow",
      "outputs": [],
      "stateMutability": "nonpayable",
      "type": "function"
    },
    {
      "inputs": [
        {
          "internalType": "uint256",
          "name": "reserveWindow",
          "type": "uint256"
        }
      ],
      "name": "setReserveWindowPer10k",
      "outputs": [],
      "stateMutability": "nonpayable",
      "type": "function"
    },
    {
      "inputs": [
        {
          "internalType": "address",
          "name": "counterPartyToken",
          "type": "address"
        },
        {
          "internalType": "uint256",
          "name": "ltv",
          "type": "uint256"
        }
      ],
      "name": "setStableLTVPer10k",
      "outputs": [],
      "stateMutability": "nonpayable",
      "type": "function"
    },
    {
      "inputs": [
        {
          "internalType": "uint256",
          "name": "window",
          "type": "uint256"
        }
      ],
      "name": "setStalenessWindow",
      "outputs": [],
      "stateMutability": "nonpayable",
      "type": "function"
    },
    {
      "inputs": [
        {
          "internalType": "uint256",
          "name": "role",
          "type": "uint256"
        }
      ],
      "name": "updateMainCharacterCache",
      "outputs": [],
      "stateMutability": "nonpayable",
      "type": "function"
    },
    {
      "inputs": [
        {
          "internalType": "uint256",
          "name": "role",
          "type": "uint256"
        },
        {
          "internalType": "address",
          "name": "contr",
          "type": "address"
        }
      ],
      "name": "updateRoleCache",
      "outputs": [],
      "stateMutability": "nonpayable",
      "type": "function"
    },
    {
      "inputs": [
        {
          "internalType": "address",
          "name": "counterPartyToken",
          "type": "address"
        }
      ],
      "name": "viewCounterReserves",
      "outputs": [
        {
          "internalType": "uint256",
          "name": "",
          "type": "uint256"
        }
      ],
      "stateMutability": "view",
      "type": "function"
    },
    {
      "inputs": [
        {
          "internalType": "address",
          "name": "uniPool",
          "type": "address"
        },
        {
          "internalType": "address",
          "name": "counterPartyToken",
          "type": "address"
        }
      ],
      "name": "viewCounterReserves",
      "outputs": [
        {
          "internalType": "uint256",
          "name": "",
          "type": "uint256"
        }
      ],
      "stateMutability": "view",
      "type": "function"
    },
    {
      "inputs": [
        {
          "internalType": "address",
          "name": "counterPartyToken",
          "type": "address"
        }
      ],
      "name": "viewIsStale",
      "outputs": [
        {
          "internalType": "bool",
          "name": "",
          "type": "bool"
        }
      ],
      "stateMutability": "view",
      "type": "function"
    },
    {
      "inputs": [
        {
          "internalType": "address",
          "name": "counterPartyToken",
          "type": "address"
        }
      ],
      "name": "viewIsTooRecent",
      "outputs": [
        {
          "internalType": "bool",
          "name": "",
          "type": "bool"
        }
      ],
      "stateMutability": "view",
      "type": "function"
    },
    {
      "inputs": [
        {
          "internalType": "address",
          "name": "counterPartyToken",
          "type": "address"
        }
      ],
      "name": "viewReservesWithinRange",
      "outputs": [
        {
          "internalType": "bool",
          "name": "",
          "type": "bool"
        }
      ],
      "stateMutability": "view",
      "type": "function"
    },
    {
      "inputs": [
        {
          "internalType": "address",
          "name": "uniPool",
          "type": "address"
        },
        {
          "internalType": "address",
          "name": "counterPartyToken",
          "type": "address"
        }
      ],
      "name": "viewStableReserves",
      "outputs": [
        {
          "internalType": "uint256",
          "name": "",
          "type": "uint256"
        }
      ],
      "stateMutability": "view",
      "type": "function"
    },
    {
      "inputs": [
        {
          "internalType": "address",
          "name": "counterPartyToken",
          "type": "address"
        }
      ],
      "name": "viewStableReserves",
      "outputs": [
        {
          "internalType": "uint256",
          "name": "",
          "type": "uint256"
        }
      ],
      "stateMutability": "view",
      "type": "function"
    },
    {
      "inputs": [
        {
          "internalType": "address",
          "name": "counterPartyToken",
          "type": "address"
        }
      ],
      "name": "viewTotalCounterPartyValue",
      "outputs": [
        {
          "internalType": "uint256",
          "name": "",
          "type": "uint256"
        }
      ],
      "stateMutability": "view",
      "type": "function"
    },
    {
      "inputs": [
        {
          "internalType": "address",
          "name": "counterPartyToken",
          "type": "address"
        }
      ],
      "name": "viewTotalStablesideValue",
      "outputs": [
        {
          "internalType": "uint256",
          "name": "",
          "type": "uint256"
        }
      ],
      "stateMutability": "view",
      "type": "function"
    },
    {
      "inputs": [
        {
          "internalType": "address",
          "name": "counterPartyToken",
          "type": "address"
        },
        {
          "internalType": "uint256",
          "name": "lptAmount",
          "type": "uint256"
        }
      ],
      "name": "viewValuePerCounterPartyLPT",
      "outputs": [
        {
          "internalType": "uint256",
          "name": "",
          "type": "uint256"
        }
      ],
      "stateMutability": "view",
      "type": "function"
    },
    {
      "inputs": [
        {
          "internalType": "address",
          "name": "counterPartyToken",
          "type": "address"
        },
        {
          "internalType": "uint256",
          "name": "lptAmount",
          "type": "uint256"
        }
      ],
      "name": "viewValuePerStablesideLPT",
      "outputs": [
        {
          "internalType": "uint256",
          "name": "",
          "type": "uint256"
        }
      ],
      "stateMutability": "view",
      "type": "function"
    }
  ],
  "bytecode": "0x60e0604052602860085568056bc75e2d6310000060095569010f0cf064dd59200000600a5562015180600b5561012c600c553480156200003e57600080fd5b5060405162003b8138038062003b818339810160408190526200006191620001c2565b806001600160a01b038116620000c85760405162461bcd60e51b815260206004820152602260248201527f506c656173652070726f766964652076616c696420726f6c6573206164647265604482015261737360f01b606482015260840160405180910390fd5b6001600160601b0319606091821b81166080526002805460018181018355606a7f405787fa12a823e0f2b7631cc41b3ba8828b3321ca811111fa75cd3aa3bb5ace928301558254808201845560669083015582548082018455606c90830155825480820184556067920191909155600580548083018255600082905260047f036b6384b5eca791c62761152d0c79bb0604c104a5fb6f4eb0703f3154bb3db0918201558154808401835581019390935580548083018255600890840155805491820190556103eb91015593901b90921660a05260c0525062000202565b80516001600160a01b0381168114620001bd57600080fd5b919050565b600080600060608486031215620001d7578283fd5b620001e284620001a5565b925060208401519150620001f960408501620001a5565b90509250925092565b60805160601c60a05160601c60c051613929620002586000396000505060008181610ec80152610f7a015260008181610276015281816105b301528181610c3201528181612bd80152612c7001526139296000f3fe608060405234801561001057600080fd5b50600436106101b75760003560e01c8063071060a6146101bc5780631c1b4115146101d157806321c28191146101e457806321d541f2146101f75780632642b6061461021d57806328f3fc731461025e578063392f5f6414610271578063413e7fde14610298578063447d52ba146102ab5780634a7a7f41146102be5780634fbf124b146102d357806350eb2145146102f657806351e1d25f146103095780635c755f131461031c5780636c7ada671461032f5780636caa9c1114610342578063781f5105146103555780637a1a04df146103685780637dad209b1461039657806389a294311461039e5780638d178a7a146103b157806397a2ac32146103c4578063996432be146103d75780639fc74ae0146103ea578063aae95ec9146103fd578063abcbc4fc14610410578063aeb38d8b14610423578063b89e931a14610436578063bf184ea414610449578063bf63fcd31461045c578063d7a7edeb14610518578063dc94cb7d1461052b578063e8ea4fae14610533578063e9c3f77d1461053b578063ee0d078014610564578063f31b3fa714610577578063ffdf5bf51461058a575b600080fd5b6101cf6101ca3660046135df565b61059d565b005b6101cf6101df36600461345c565b610663565b6101cf6101f23660046133ec565b61086d565b61020a61020536600461345c565b610892565b6040519081526020015b60405180910390f35b61025161022b366004613424565b60066020908152600092835260408084209091529082529020546001600160a01b031681565b604051610214919061369e565b6101cf61026c366004613424565b610946565b6102517f000000000000000000000000000000000000000000000000000000000000000081565b61020a6102a6366004613424565b610a39565b6101cf6102b936600461360f565b610c1b565b6102c6610cf1565b6040516102149190613757565b6102e66102e13660046133ec565b610d49565b6040519015158152602001610214565b6101cf610304366004613487565b610d7e565b61020a61031736600461345c565b61124d565b61020a61032a3660046133ec565b6112e6565b6102e661033d3660046133ec565b611310565b61020a6103503660046135df565b611340565b6101cf61036336600461345c565b611361565b6102e661037636600461345c565b600160209081526000928352604080842090915290825290205460ff1681565b6102c661148d565b6101cf6103ac3660046135df565b6114e3565b6101cf6103bf3660046135df565b611597565b61020a6103d23660046133ec565b61168b565b6101cf6103e53660046135df565b6116b5565b6101cf6103f83660046133ec565b611799565b61020a61040b366004613424565b61180f565b61020a61041e3660046135df565b6119cd565b61020a6104313660046135df565b6119dd565b61020a6104443660046133ec565b6119ed565b61020a6104573660046135df565b611a0f565b6104c361046a3660046133ec565b60076020819052600091825260409091208054600182015460028301546003840154600485015460058601546006870154978701546008909701546001600160a01b039687169895871697949096169592949193909289565b604080516001600160a01b039a8b168152988a1660208a015296909816958701959095526060860193909352608085019190915260a084015260c083015260e082015261010081019190915261012001610214565b6101cf61052636600461345c565b611a1f565b6102c6611b2c565b6102c6611b82565b6102516105493660046135df565b6000602081905290815260409020546001600160a01b031681565b61020a6105723660046133ec565b611bd8565b6102e66105853660046133ec565b611bfa565b6101cf6105983660046135df565b611cae565b60405163b4ed0b6d60e01b8152600481018290527f00000000000000000000000000000000000000000000000000000000000000006001600160a01b03169063b4ed0b6d9060240160206040518083038186803b1580156105fd57600080fd5b505afa158015610611573d6000803e3d6000fd5b505050506040513d601f19601f820116820180604052508101906106359190613408565b60009182526020829052604090912080546001600160a01b0319166001600160a01b03909216919091179055565b600061066d611da4565b604051632770a7eb60e21b81529091506001600160a01b03821690639dc29fac9061069e903390869060040161371b565b600060405180830381600087803b1580156106b857600080fd5b505af11580156106cc573d6000803e3d6000fd5b505050506001600160a01b0383166000908152600760205260408120600381018054919285926106fd9084906137f8565b909155505080546001600160a01b031660006107198387611ddc565b826001600160a01b03166318160ddd6040518163ffffffff1660e01b815260040160206040518083038186803b15801561075257600080fd5b505afa158015610766573d6000803e3d6000fd5b505050506040513d601f19601f8201168201806040525081019061078a91906135f7565b6107949087613830565b61079e9190613810565b90506107aa8387611edb565b826003015468015af1d78b58c40000116108055760405162461bcd60e51b81526020600482015260176024820152764e6f7420616363657074696e67206c697175696469747960481b60448201526064015b60405180910390fd5b6040516340c10f1960e01b81526001600160a01b038316906340c10f1990610833903390859060040161371b565b600060405180830381600087803b15801561084d57600080fd5b505af1158015610861573d6000803e3d6000fd5b50505050505050505050565b6001600160a01b038116600090815260076020526040902061088f9082611edb565b50565b6001600160a01b038083166000908152600760209081526040808320805482516318160ddd60e01b81529251949591949116926318160ddd9260048082019391829003018186803b1580156108e657600080fd5b505afa1580156108fa573d6000803e3d6000fd5b505050506040513d601f19601f8201168201806040525081019061091e91906135f7565b6109288286611ddc565b6109329085613830565b61093c9190613810565b9150505b92915050565b6001600160a01b03828116600090815260066020908152604080832085851684529091529020541615610a355761097b612892565b6001600160a01b0316635e73a03483836040518363ffffffff1660e01b81526004016109a89291906136b2565b60206040518083038186803b1580156109c057600080fd5b505afa1580156109d4573d6000803e3d6000fd5b505050506040513d601f19601f820116820180604052508101906109f89190613408565b6001600160a01b0383811660009081526006602090815260408083208685168452909152902080546001600160a01b031916929091169190911790555b5050565b600080610a44611da4565b90506000610a5282856128ca565b5090506000856001600160a01b03166370a08231306040518263ffffffff1660e01b8152600401610a83919061369e565b60206040518083038186803b158015610a9b57600080fd5b505afa158015610aaf573d6000803e3d6000fd5b505050506040513d601f19601f82011682018060405250810190610ad391906135f7565b90506000866001600160a01b03166318160ddd6040518163ffffffff1660e01b815260040160206040518083038186803b158015610b1057600080fd5b505afa158015610b24573d6000803e3d6000fd5b505050506040513d601f19601f82011682018060405250810190610b4891906135f7565b9050600080886001600160a01b0316630902f1ac6040518163ffffffff1660e01b815260040160606040518083038186803b158015610b8657600080fd5b505afa158015610b9a573d6000803e3d6000fd5b505050506040513d601f19601f82011682018060405250810190610bbe9190613591565b506001600160701b031691506001600160701b03169150600083876001600160a01b0316876001600160a01b031614610bf75782610bf9565b835b610c039087613830565b610c0d9190613810565b9a9950505050505050505050565b60405163f0723d9760e01b81526001600160a01b037f0000000000000000000000000000000000000000000000000000000000000000169063f0723d9790610c69908490869060040161371b565b60206040518083038186803b158015610c8157600080fd5b505afa158015610c95573d6000803e3d6000fd5b505050506040513d601f19601f82011682018060405250810190610cb991906134bb565b6001600160a01b0391909116600090815260016020908152604080832094835293905291909120805460ff1916911515919091179055565b60606003805480602002602001604051908101604052809291908181526020018280548015610d3f57602002820191906000526020600020905b815481526020019060010190808311610d2b575b5050505050905090565b6000600c5442610d59919061384f565b6001600160a01b0383166000908152600760205260409020600801541190505b919050565b6001600160a01b038381166000908152600760205260409020600201541615610de45760405162461bcd60e51b8152602060048201526018602482015277141bdbdb08185b1c9958591e481a5b9a5d1a585b1a5e995960421b60448201526064016107fc565b600a54821015610e425760405162461bcd60e51b815260206004820152602360248201527f496e73756666696369656e7420696e697469616c20737461626c65206465706f6044820152621cda5d60ea1b60648201526084016107fc565b6000610e4c611da4565b604051632770a7eb60e21b81529091506001600160a01b03821690639dc29fac90610e7d903390879060040161371b565b600060405180830381600087803b158015610e9757600080fd5b505af1158015610eab573d6000803e3d6000fd5b505060405163e6a4390560e01b8152600092506001600160a01b037f000000000000000000000000000000000000000000000000000000000000000016915063e6a4390590610f0090859089906004016136b2565b60206040518083038186803b158015610f1857600080fd5b505afa158015610f2c573d6000803e3d6000fd5b505050506040513d601f19601f82011682018060405250810190610f509190613408565b90506001600160a01b038116151580611006576040516364e329cb60e11b81526001600160a01b037f0000000000000000000000000000000000000000000000000000000000000000169063c9c6539690610fb19086908a906004016136b2565b602060405180830381600087803b158015610fcb57600080fd5b505af1158015610fdf573d6000803e3d6000fd5b505050506040513d601f19601f820116820180604052508101906110039190613408565b91505b6000611043606c60009081526020527f3c1fcba39712202dbd455253568bf32dd0a3bedb5c3ff0de4b22d4e45e50dc92546001600160a01b031690565b604051633f0eaeb560e01b81526001600160a01b03898116600483015286811660248301528581166044830152600060648301819052929350829190841690633f0eaeb59060840160006040518083038186803b1580156110a357600080fd5b505afa1580156110b7573d6000803e3d6000fd5b505050506040513d6000823e601f3d908101601f191682016040526110df91908101906134d5565b9150915081611159576110f0612892565b6001600160a01b031663acd925e78a8886600080876040518763ffffffff1660e01b8152600401611126969594939291906136cc565b600060405180830381600087803b15801561114057600080fd5b505af1158015611154573d6000803e3d6000fd5b505050505b83156111cc5761116a898989612999565b6111cc5760405162461bcd60e51b815260206004820152602d60248201527f4465706f736974656420616d6f756e7420726174696f7320646f206e6f74206d60448201526c6174636820726573657276657360981b60648201526084016107fc565b6040516340c10f1960e01b81526001600160a01b038716906340c10f19906111fa9088908c9060040161371b565b600060405180830381600087803b15801561121457600080fd5b505af1158015611228573d6000803e3d6000fd5b50611242925050506001600160a01b038a1633878a612a02565b505050505050505050565b6001600160a01b038083166000908152600760209081526040808320600181015482516318160ddd60e01b81529251949591949116926318160ddd9260048082019391829003018186803b1580156112a457600080fd5b505afa1580156112b8573d6000803e3d6000fd5b505050506040513d601f19601f820116820180604052508101906112dc91906135f7565b6109288286612a73565b6001600160a01b038082166000908152600760205260408120600201549091610940911683610a39565b6001600160a01b038116600090815260076020526040812060080154600b54611339904261384f565b1192915050565b6005818154811061135057600080fd5b600091825260209091200154905081565b6001600160a01b03821660008181526007602052604090209061138690333085612a02565b60018101546001600160a01b031660006113a08386612a73565b826001600160a01b03166318160ddd6040518163ffffffff1660e01b815260040160206040518083038186803b1580156113d957600080fd5b505afa1580156113ed573d6000803e3d6000fd5b505050506040513d601f19601f8201168201806040525081019061141191906135f7565b61141b9086613830565b6114259190613810565b90506114318386611edb565b6040516340c10f1960e01b81526001600160a01b038316906340c10f199061145f903390859060040161371b565b600060405180830381600087803b15801561147957600080fd5b505af1158015611242573d6000803e3d6000fd5b60606004805480602002602001604051908101604052809291908181526020018280548015610d3f5760200282019190600052602060002090815481526020019060010190808311610d2b575050505050905090565b336114ec612bd4565b6001600160a01b03161480611510575033611505612c6c565b6001600160a01b0316145b61152c5760405162461bcd60e51b81526004016107fc906137ae565b670de0b6b3a764000081101561154157600080fd5b600a81905560408051818152601291810191909152714d696e20696e697469616c20737461626c6560701b6060820152602081018290526000805160206138d4833981519152906080015b60405180910390a150565b336115a0612bd4565b6001600160a01b031614806115c45750336115b9612c6c565b6001600160a01b0316145b6115e05760405162461bcd60e51b81526004016107fc906137ae565b80600b54116116405760405162461bcd60e51b815260206004820152602660248201527f4e6565647320746f206265206c657373207468616e207374616c656e6573732060448201526577696e646f7760d01b60648201526084016107fc565b600c81905560408051818152600e918101919091526d526563656e63792077696e646f7760901b6060820152602081018290526000805160206138d48339815191529060800161158c565b6001600160a01b03808216600090815260076020526040812060020154909161094091168361180f565b336116be612bd4565b6001600160a01b031614806116e25750336116d7612c6c565b6001600160a01b0316145b6116fe5760405162461bcd60e51b81526004016107fc906137ae565b8061271010156117465760405162461bcd60e51b815260206004820152601360248201527257696e646f77206e6f7420696e2072616e676560681b60448201526064016107fc565b60088190556040805181815260169181019190915275526573657276652077696e646f77207065722031306b60501b6060820152602081018290526000805160206138d48339815191529060800161158c565b6001600160a01b03811660009081526007602052604090206008810154600b546117c3904261384f565b1015806117e05750600c546117d8904261384f565b816008015410155b15611805576117ff82670de0b6b3a76400006117fa611da4565b612cdd565b50610a35565b610a358183611edb565b60008061181a611da4565b9050600061182882856128ca565b5090506000856001600160a01b03166370a08231306040518263ffffffff1660e01b8152600401611859919061369e565b60206040518083038186803b15801561187157600080fd5b505afa158015611885573d6000803e3d6000fd5b505050506040513d601f19601f820116820180604052508101906118a991906135f7565b90506000866001600160a01b03166318160ddd6040518163ffffffff1660e01b815260040160206040518083038186803b1580156118e657600080fd5b505afa1580156118fa573d6000803e3d6000fd5b505050506040513d601f19601f8201168201806040525081019061191e91906135f7565b9050600080886001600160a01b0316630902f1ac6040518163ffffffff1660e01b815260040160606040518083038186803b15801561195c57600080fd5b505afa158015611970573d6000803e3d6000fd5b505050506040513d601f19601f820116820180604052508101906119949190613591565b506001600160701b031691506001600160701b03169150600083896001600160a01b0316876001600160a01b031614610bf75782610bf9565b6002818154811061135057600080fd5b6004818154811061135057600080fd5b6001600160a01b03811660009081526007602052604081206109409083612a73565b6003818154811061135057600080fd5b33611a28612bd4565b6001600160a01b03161480611a4c575033611a41612c6c565b6001600160a01b0316145b611a685760405162461bcd60e51b81526004016107fc906137ae565b806127101015611aad5760405162461bcd60e51b815260206004820152601060248201526f4c5456206f7574206f662072616e676560801b60448201526064016107fc565b6001600160a01b03821660008181526007602081815260409283902090910184905581516060808252600a908201526939ba30b1363290262a2b60b11b60808201529081019290925281018290527f2cc0b19d71980380c7a99113dc265ee16b9f7f394e2a42085ab6877482a7f8229060a00160405180910390a15050565b60606002805480602002602001604051908101604052809291908181526020018280548015610d3f5760200282019190600052602060002090815481526020019060010190808311610d2b575050505050905090565b60606005805480602002602001604051908101604052809291908181526020018280548015610d3f5760200282019190600052602060002090815481526020019060010190808311610d2b575050505050905090565b6001600160a01b03811660009081526007602052604081206109409083611ddc565b6001600160a01b0380821660009081526007602052604081206002810154919290918391611c3c918691611c2f91168261180f565b611c37611da4565b612d78565b6002830154909150600090611c5a906001600160a01b031686610a39565b905080821115611c99578160095461271060085484611c799190613830565b611c839190613810565b611c8d91906137f8565b10159350505050610d79565b8060095461271060085485611c799190613830565b33611cb7612bd4565b6001600160a01b03161480611cdb575033611cd0612c6c565b6001600160a01b0316145b611cf75760405162461bcd60e51b81526004016107fc906137ae565b600c548111611d575760405162461bcd60e51b815260206004820152602660248201527f4e6565647320746f20626520626967676572207468616e20726563656e63792060448201526577696e646f7760d01b60648201526084016107fc565b600b819055604080518181526010918101919091526f5374616c656e6573732077696e646f7760801b6060820152602081018290526000805160206138d48339815191529060800161158c565b606660009081526020527f422cccb7cea5c0e46f340bb7b21b81debac329f72e31669c20ff0f3a05cc2b5b546001600160a01b031690565b60028201546000908190611df9906001600160a01b031684610a39565b905083600501548460040154611e0f91906137f8565b811115611e675760028460050154856004015483611e2d919061384f565b611e37919061384f565b611e419190613810565b84600501548560030154611e5591906137f8565b611e5f91906137f8565b915050610940565b6002840154600090611e82906001600160a01b03168561180f565b905080856006015482611e95919061384f565b611e9f9084613830565b611ea99190613810565b8560040154838760030154611ebe91906137f8565b611ec8919061384f565b611ed291906137f8565b92505050610940565b6004808301546040516370a0823160e01b815290916000916001600160a01b038516916370a0823191611f109130910161369e565b60206040518083038186803b158015611f2857600080fd5b505afa158015611f3c573d6000803e3d6000fd5b505050506040513d601f19601f82011682018060405250810190611f6091906135f7565b6002850154909150600090611f7e906001600160a01b031685610a39565b6002860154909150600090611f9c906001600160a01b03168661180f565b9050600b5442611fac919061384f565b866008015411611ff05760405162461bcd60e51b815260206004820152600f60248201526e4f7261636c65206973207374616c6560881b60448201526064016107fc565b6008860154600c54612002904261384f565b1161204d5760405162461bcd60e51b815260206004820152601b60248201527a4f7261636c65207570646174656420746f6f20726563656e746c7960281b60448201526064016107fc565b612058858383612999565b6120a35760405162461bcd60e51b815260206004820152601c60248201527b5265736572766573206e6f7420696e206f7261636c652072616e676560201b60448201526064016107fc565b4260088701556003860154156122f75760006120c3858860030154612e8b565b9050801561212257808760030160008282546120df919061384f565b909155506120ef9050818661384f565b945080876004016000828254612105919061384f565b90915550506002870154612122906001600160a01b031682612ea2565b600087600301541180156121365750600084115b156122f55760008288600301548461214e9190613830565b6121589190613810565b905060006121668287612e8b565b90506000828a600301548361217b9190613830565b6121859190613810565b905061218f611da4565b60028b01546040516340c10f1960e01b81526001600160a01b03928316926340c10f19926121c492911690859060040161371b565b600060405180830381600087803b1580156121de57600080fd5b505af11580156121f2573d6000803e3d6000fd5b50505060028b015461221291506001600160a01b038b8116911684612fac565b60028a01546040516335313c2160e11b81526001600160a01b0390911690636a6278429061224490309060040161369e565b602060405180830381600087803b15801561225e57600080fd5b505af1158015612272573d6000803e3d6000fd5b505050506040513d601f19601f8201168201806040525081019061229691906135f7565b506122a1828861384f565b9650808a60030160008282546122b7919061384f565b909155505060028a01546122d4906001600160a01b03168a610a39565b60028b01549096506122ef906001600160a01b03168a61180f565b94505050505b505b60078601548261230986612710613830565b6123139190613810565b111561265f576000866007015461271061232d919061384f565b600788015461233c878661384f565b6123469190613830565b6123509190613810565b60028801546040516370a0823160e01b81529192506000916001600160a01b03909116906370a082319061238890309060040161369e565b60206040518083038186803b1580156123a057600080fd5b505afa1580156123b4573d6000803e3d6000fd5b505050506040513d601f19601f820116820180604052508101906123d891906135f7565b90506000846123e7848961384f565b6123f19084613830565b6123fb9190613810565b60028a0154909150612417906001600160a01b03168083612fac565b600289015460405163226bf2d160e21b81526001600160a01b03909116906389afcb449061244990309060040161369e565b6040805180830381600087803b15801561246257600080fd5b505af1158015612476573d6000803e3d6000fd5b505050506040513d601f19601f8201168201806040525081019061249a9190613633565b505060006124a6611da4565b6001600160a01b03166370a08231306040518263ffffffff1660e01b81526004016124d1919061369e565b60206040518083038186803b1580156124e957600080fd5b505afa1580156124fd573d6000803e3d6000fd5b505050506040513d601f19601f8201168201806040525081019061252191906135f7565b905061252b611da4565b6001600160a01b0316639dc29fac30836040518363ffffffff1660e01b815260040161255892919061371b565b600060405180830381600087803b15801561257257600080fd5b505af1158015612586573d6000803e3d6000fd5b50505050808a600401600082825461259e919061384f565b909155506125ae9050818961384f565b97506000896001600160a01b03166370a08231306040518263ffffffff1660e01b81526004016125de919061369e565b60206040518083038186803b1580156125f657600080fd5b505afa15801561260a573d6000803e3d6000fd5b505050506040513d601f19601f8201168201806040525081019061262e91906135f7565b905061263a888261384f565b8b600601600082825461264d919061384f565b9091555090975061288a945050505050565b8161266c85612904613830565b6126769190613810565b86600701541180156126885750600083115b1561288a57600086600701546127106126a1919061384f565b6126ab868561384f565b88600701546126ba9190613830565b6126c49190613810565b905060006126d2868361384f565b90506000846126e18386613830565b6126eb9190613810565b905060006126f98288612e8b565b90506000826127088584613830565b6127129190613810565b905081156128845760028b0154612736906001600160a01b038c8116911684612fac565b818b600601600082825461274a91906137f8565b909155506127589050611da4565b60028c01546040516340c10f1960e01b81526001600160a01b03928316926340c10f199261278d92911690859060040161371b565b600060405180830381600087803b1580156127a757600080fd5b505af11580156127bb573d6000803e3d6000fd5b50505050808b60040160008282546127d391906137f8565b909155506127e39050818a6137f8565b60028c01549099506127fe906001600160a01b031682612fd0565b60028b01546040516335313c2160e11b81526001600160a01b0390911690636a6278429061283090309060040161369e565b602060405180830381600087803b15801561284a57600080fd5b505af115801561285e573d6000803e3d6000fd5b505050506040513d601f19601f8201168201806040525081019061288291906135f7565b505b50505050505b505050505050565b606a60009081526020527ff3261457f4fd0b7c00a1511877ab27b74183ac470be8db3a7ecdc64335f6f979546001600160a01b031690565b600080826001600160a01b0316846001600160a01b031614156129245760405162461bcd60e51b81526020600482015260126024820152714964656e746963616c20616464726573732160701b60448201526064016107fc565b826001600160a01b0316846001600160a01b031610612944578284612947565b83835b90925090506001600160a01b0382166129925760405162461bcd60e51b815260206004820152600d60248201526c5a65726f20616464726573732160981b60448201526064016107fc565b9250929050565b6000806129a985846117fa611da4565b9050838111156129e65780600954612710600854876129c89190613830565b6129d29190613810565b6129dc91906137f8565b10159150506129fb565b83600954612710600854846129c89190613830565b9392505050565b6040516001600160a01b0380851660248301528316604482015260648101829052612a6d9085906323b872dd60e01b906084015b60408051601f198184030181529190526020810180516001600160e01b03166001600160e01b0319909316929092179091526130c7565b50505050565b60028201546000908190612a90906001600160a01b031684610a39565b6002850154909150600090612aae906001600160a01b03168561180f565b90506000846001600160a01b03166370a08231306040518263ffffffff1660e01b8152600401612ade919061369e565b60206040518083038186803b158015612af657600080fd5b505afa158015612b0a573d6000803e3d6000fd5b505050506040513d601f19601f82011682018060405250810190612b2e91906135f7565b905085600501548660040154612b4491906137f8565b831115612bae578260028760050154886004015486612b63919061384f565b612b6d919061384f565b612b779085613830565b612b819190613810565b612b8b9190613810565b6006870154612b9a90836137f8565b612ba491906137f8565b9350505050610940565b6002866006015483612bc0919061384f565b612bca9190613810565b612ba490826137f8565b60007f00000000000000000000000000000000000000000000000000000000000000006001600160a01b0316638da5cb5b6040518163ffffffff1660e01b815260040160206040518083038186803b158015612c2f57600080fd5b505afa158015612c43573d6000803e3d6000fd5b505050506040513d601f19601f82011682018060405250810190612c679190613408565b905090565b60007f00000000000000000000000000000000000000000000000000000000000000006001600160a01b031663c34c08e56040518163ffffffff1660e01b8152600401602060405180830381600087803b158015612cc957600080fd5b505af1158015612c43573d6000803e3d6000fd5b600080612cea8584613199565b604051630576cbc360e41b81529091506001600160a01b0382169063576cbc3090612d1d90889088908890600401613734565b602060405180830381600087803b158015612d3757600080fd5b505af1158015612d4b573d6000803e3d6000fd5b505050506040513d601f19601f82011682018060405250810190612d6f91906135f7565b95945050505050565b6001600160a01b038084166000908152600660209081526040808320858516845290915281205490911680612e2f57612daf612892565b6001600160a01b0316635e73a03486856040518363ffffffff1660e01b8152600401612ddc9291906136b2565b60206040518083038186803b158015612df457600080fd5b505afa158015612e08573d6000803e3d6000fd5b505050506040513d601f19601f82011682018060405250810190612e2c9190613408565b90505b6040516323aaad6360e21b81526001600160a01b03821690638eaab58c90612e5f90889088908890600401613734565b60206040518083038186803b158015612e7757600080fd5b505afa158015612d4b573d6000803e3d6000fd5b6000818310612e9b575080610940565b5081610940565b6000612eac611da4565b90506000816001600160a01b031663df8279b0856040518263ffffffff1660e01b8152600401612edc919061369e565b60206040518083038186803b158015612ef457600080fd5b505afa158015612f08573d6000803e3d6000fd5b505050506040513d601f19601f82011682018060405250810190612f2c91906135f7565b9050816001600160a01b031663d35f063e8585841015612f4d576000612f57565b612f57868561384f565b6040518363ffffffff1660e01b8152600401612f7492919061371b565b600060405180830381600087803b158015612f8e57600080fd5b505af1158015612fa2573d6000803e3d6000fd5b5050505050505050565b612fcb8363a9059cbb60e01b8484604051602401612a3692919061371b565b505050565b6000612fda611da4565b9050806001600160a01b031663d35f063e8484846001600160a01b031663df8279b0886040518263ffffffff1660e01b8152600401613019919061369e565b60206040518083038186803b15801561303157600080fd5b505afa158015613045573d6000803e3d6000fd5b505050506040513d601f19601f8201168201806040525081019061306991906135f7565b61307391906137f8565b6040518363ffffffff1660e01b815260040161309092919061371b565b600060405180830381600087803b1580156130aa57600080fd5b505af11580156130be573d6000803e3d6000fd5b50505050505050565b600061311c826040518060400160405280602081526020017f5361666545524332303a206c6f772d6c6576656c2063616c6c206661696c6564815250856001600160a01b031661324d9092919063ffffffff16565b805190915015612fcb578080602001905181019061313a91906134bb565b612fcb5760405162461bcd60e51b815260206004820152602a60248201527f5361666545524332303a204552433230206f7065726174696f6e20646964206e6044820152691bdd081cdd58d8d9595960b21b60648201526084016107fc565b6001600160a01b03808316600090815260066020908152604080832085851684529091529020541680610940576131ce612892565b6001600160a01b0316631757616884846040518363ffffffff1660e01b81526004016131fb9291906136b2565b602060405180830381600087803b15801561321557600080fd5b505af1158015613229573d6000803e3d6000fd5b505050506040513d601f19601f820116820180604052508101906129fb9190613408565b606061325c8484600085613264565b949350505050565b6060824710156132c55760405162461bcd60e51b815260206004820152602660248201527f416464726573733a20696e73756666696369656e742062616c616e636520666f6044820152651c8818d85b1b60d21b60648201526084016107fc565b843b6133135760405162461bcd60e51b815260206004820152601d60248201527f416464726573733a2063616c6c20746f206e6f6e2d636f6e747261637400000060448201526064016107fc565b600080866001600160a01b0316858760405161332f9190613682565b60006040518083038185875af1925050503d806000811461336c576040519150601f19603f3d011682016040523d82523d6000602084013e613371565b606091505b509150915061338182828661338c565b979650505050505050565b6060831561339b5750816129fb565b8251156133ab5782518084602001fd5b8160405162461bcd60e51b81526004016107fc919061379b565b80518015158114610d7957600080fd5b80516001600160701b0381168114610d7957600080fd5b6000602082840312156133fd578081fd5b81356129fb816138be565b600060208284031215613419578081fd5b81516129fb816138be565b60008060408385031215613436578081fd5b8235613441816138be565b91506020830135613451816138be565b809150509250929050565b6000806040838503121561346e578182fd5b8235613479816138be565b946020939093013593505050565b60008060006060848603121561349b578081fd5b83356134a6816138be565b95602085013595506040909401359392505050565b6000602082840312156134cc578081fd5b6129fb826133c5565b600080604083850312156134e7578182fd5b6134f0836133c5565b60208401519092506001600160401b038082111561350c578283fd5b818501915085601f83011261351f578283fd5b815181811115613531576135316138a8565b604051601f8201601f19908116603f01168101908382118183101715613559576135596138a8565b81604052828152886020848701011115613571578586fd5b613582836020830160208801613866565b80955050505050509250929050565b6000806000606084860312156135a5578283fd5b6135ae846133d5565b92506135bc602085016133d5565b9150604084015163ffffffff811681146135d4578182fd5b809150509250925092565b6000602082840312156135f0578081fd5b5035919050565b600060208284031215613608578081fd5b5051919050565b60008060408385031215613621578182fd5b823591506020830135613451816138be565b60008060408385031215613645578182fd5b505080516020909101519092909150565b6000815180845261366e816020860160208601613866565b601f01601f19169290920160200192915050565b60008251613694818460208701613866565b9190910192915050565b6001600160a01b0391909116815260200190565b6001600160a01b0392831681529116602082015260400190565b6001600160a01b03878116825286811660208301528516604082015260608101849052821515608082015260c060a0820181905260009061370f90830184613656565b98975050505050505050565b6001600160a01b03929092168252602082015260400190565b6001600160a01b0393841681526020810192909252909116604082015260600190565b6020808252825182820181905260009190848201906040850190845b8181101561378f57835183529284019291840191600101613773565b50909695505050505050565b6000602082526129fb6020830184613656565b6020808252602a908201527f526f6c65733a2063616c6c6572206973206e6f7420746865206f776e6572206f604082015269391032bc32b1baba37b960b11b606082015260800190565b6000821982111561380b5761380b613892565b500190565b60008261382b57634e487b7160e01b81526012600452602481fd5b500490565b600081600019048311821515161561384a5761384a613892565b500290565b60008282101561386157613861613892565b500390565b60005b83811015613881578181015183820152602001613869565b83811115612a6d5750506000910152565b634e487b7160e01b600052601160045260246000fd5b634e487b7160e01b600052604160045260246000fd5b6001600160a01b038116811461088f57600080fdfe3a64504f0bc0c335e2aecb78638a257e0351a3fe0370861fd54ee4190b920933a2646970667358221220e8669993f079ec6d0488d4547bcc9e1eb8295b20ebffecf3a23667e6a0e35a4f64736f6c63430008030033",
  "linkReferences": {},
  "deployedLinkReferences": {}
}