{
  "_format": "hh-sol-artifact-1",
  "contractName": "EquivalentScaledOracle",
  "sourceName": "contracts/oracles/EquivalentScaledOracle.sol",
  "abi": [
    {
      "inputs": [
        {
          "internalType": "address",
          "name": "_roles",
          "type": "address"
        }
      ],
      "stateMutability": "nonpayable",
      "type": "constructor"
    },
    {
      "anonymous": false,
      "inputs": [
        {
          "indexed": false,
          "internalType": "string",
          "name": "param",
          "type": "string"
        },
        {
          "indexed": false,
          "internalType": "uint256",
          "name": "value",
          "type": "uint256"
        }
      ],
      "name": "ParameterUpdated",
      "type": "event"
    },
    {
      "anonymous": false,
      "inputs": [
        {
          "indexed": false,
          "internalType": "string",
          "name": "param",
          "type": "string"
        },
        {
          "indexed": false,
          "internalType": "address",
          "name": "subject",
          "type": "address"
        },
        {
          "indexed": false,
          "internalType": "uint256",
          "name": "value",
          "type": "uint256"
        }
      ],
      "name": "SubjectParameterUpdated",
      "type": "event"
    },
    {
      "anonymous": false,
      "inputs": [
        {
          "indexed": false,
          "internalType": "string",
          "name": "param",
          "type": "string"
        },
        {
          "indexed": false,
          "internalType": "address",
          "name": "subject",
          "type": "address"
        }
      ],
      "name": "SubjectUpdated",
      "type": "event"
    },
    {
      "inputs": [
        {
          "internalType": "uint256",
          "name": "",
          "type": "uint256"
        }
      ],
      "name": "_charactersPlayed",
      "outputs": [
        {
          "internalType": "uint256",
          "name": "",
          "type": "uint256"
        }
      ],
      "stateMutability": "view",
      "type": "function"
    },
    {
      "inputs": [
        {
          "internalType": "uint256",
          "name": "",
          "type": "uint256"
        }
      ],
      "name": "_dependsOnCharacters",
      "outputs": [
        {
          "internalType": "uint256",
          "name": "",
          "type": "uint256"
        }
      ],
      "stateMutability": "view",
      "type": "function"
    },
    {
      "inputs": [
        {
          "internalType": "uint256",
          "name": "",
          "type": "uint256"
        }
      ],
      "name": "_dependsOnRoles",
      "outputs": [
        {
          "internalType": "uint256",
          "name": "",
          "type": "uint256"
        }
      ],
      "stateMutability": "view",
      "type": "function"
    },
    {
      "inputs": [
        {
          "internalType": "uint256",
          "name": "",
          "type": "uint256"
        }
      ],
      "name": "_rolesPlayed",
      "outputs": [
        {
          "internalType": "uint256",
          "name": "",
          "type": "uint256"
        }
      ],
      "stateMutability": "view",
      "type": "function"
    },
    {
      "inputs": [],
      "name": "charactersPlayed",
      "outputs": [
        {
          "internalType": "uint256[]",
          "name": "",
          "type": "uint256[]"
        }
      ],
      "stateMutability": "view",
      "type": "function"
    },
    {
      "inputs": [],
      "name": "dependsOnCharacters",
      "outputs": [
        {
          "internalType": "uint256[]",
          "name": "",
          "type": "uint256[]"
        }
      ],
      "stateMutability": "view",
      "type": "function"
    },
    {
      "inputs": [],
      "name": "dependsOnRoles",
      "outputs": [
        {
          "internalType": "uint256[]",
          "name": "",
          "type": "uint256[]"
        }
      ],
      "stateMutability": "view",
      "type": "function"
    },
    {
      "inputs": [
        {
          "internalType": "address",
          "name": "tokenFrom",
          "type": "address"
        },
        {
          "internalType": "address",
          "name": "tokenTo",
          "type": "address"
        },
        {
          "internalType": "uint256",
          "name": "tokenFromAmount",
          "type": "uint256"
        },
        {
          "internalType": "uint256",
          "name": "tokenToAmount",
          "type": "uint256"
        }
      ],
      "name": "encodeAndCheckOracleParams",
      "outputs": [
        {
          "internalType": "bool",
          "name": "",
          "type": "bool"
        },
        {
          "internalType": "bytes",
          "name": "",
          "type": "bytes"
        }
      ],
      "stateMutability": "view",
      "type": "function"
    },
    {
      "inputs": [
        {
          "internalType": "address",
          "name": "token",
          "type": "address"
        },
        {
          "internalType": "uint256",
          "name": "inAmount",
          "type": "uint256"
        },
        {
          "internalType": "address",
          "name": "pegCurrency",
          "type": "address"
        }
      ],
      "name": "getAmountInPeg",
      "outputs": [
        {
          "internalType": "uint256",
          "name": "",
          "type": "uint256"
        }
      ],
      "stateMutability": "view",
      "type": "function"
    },
    {
      "inputs": [
        {
          "internalType": "address",
          "name": "token",
          "type": "address"
        },
        {
          "internalType": "uint256",
          "name": "inAmount",
          "type": "uint256"
        },
        {
          "internalType": "address",
          "name": "pegCurrency",
          "type": "address"
        }
      ],
      "name": "getPegAmountAndBorrowable",
      "outputs": [
        {
          "internalType": "uint256",
          "name": "",
          "type": "uint256"
        },
        {
          "internalType": "uint256",
          "name": "",
          "type": "uint256"
        }
      ],
      "stateMutability": "nonpayable",
      "type": "function"
    },
    {
      "inputs": [
        {
          "internalType": "uint256",
          "name": "",
          "type": "uint256"
        }
      ],
      "name": "mainCharacterCache",
      "outputs": [
        {
          "internalType": "address",
          "name": "",
          "type": "address"
        }
      ],
      "stateMutability": "view",
      "type": "function"
    },
    {
      "inputs": [
        {
          "internalType": "address",
          "name": "",
          "type": "address"
        },
        {
          "internalType": "uint256",
          "name": "",
          "type": "uint256"
        }
      ],
      "name": "roleCache",
      "outputs": [
        {
          "internalType": "bool",
          "name": "",
          "type": "bool"
        }
      ],
      "stateMutability": "view",
      "type": "function"
    },
    {
      "inputs": [],
      "name": "roles",
      "outputs": [
        {
          "internalType": "contract Roles",
          "name": "",
          "type": "address"
        }
      ],
      "stateMutability": "view",
      "type": "function"
    },
    {
      "inputs": [],
      "name": "rolesPlayed",
      "outputs": [
        {
          "internalType": "uint256[]",
          "name": "",
          "type": "uint256[]"
        }
      ],
      "stateMutability": "view",
      "type": "function"
    },
    {
      "inputs": [
        {
          "internalType": "address",
          "name": "",
          "type": "address"
        },
        {
          "internalType": "address",
          "name": "",
          "type": "address"
        }
      ],
      "name": "scaleConversionFP",
      "outputs": [
        {
          "internalType": "uint256",
          "name": "",
          "type": "uint256"
        }
      ],
      "stateMutability": "view",
      "type": "function"
    },
    {
      "inputs": [
        {
          "internalType": "address",
          "name": "token",
          "type": "address"
        },
        {
          "internalType": "address",
          "name": "pegCurrency",
          "type": "address"
        },
        {
          "internalType": "bytes",
          "name": "data",
          "type": "bytes"
        }
      ],
      "name": "setOracleParams",
      "outputs": [],
      "stateMutability": "nonpayable",
      "type": "function"
    },
    {
      "inputs": [
        {
          "internalType": "address",
          "name": "tokenFrom",
          "type": "address"
        },
        {
          "internalType": "address",
          "name": "tokenTo",
          "type": "address"
        },
        {
          "internalType": "uint256",
          "name": "tokenFromAmount",
          "type": "uint256"
        },
        {
          "internalType": "uint256",
          "name": "tokenToAmount",
          "type": "uint256"
        }
      ],
      "name": "setOracleSpecificParams",
      "outputs": [],
      "stateMutability": "nonpayable",
      "type": "function"
    },
    {
      "inputs": [
        {
          "internalType": "uint256",
          "name": "role",
          "type": "uint256"
        }
      ],
      "name": "updateMainCharacterCache",
      "outputs": [],
      "stateMutability": "nonpayable",
      "type": "function"
    },
    {
      "inputs": [
        {
          "internalType": "uint256",
          "name": "role",
          "type": "uint256"
        },
        {
          "internalType": "address",
          "name": "contr",
          "type": "address"
        }
      ],
      "name": "updateRoleCache",
      "outputs": [],
      "stateMutability": "nonpayable",
      "type": "function"
    },
    {
      "inputs": [
        {
          "internalType": "address",
          "name": "token",
          "type": "address"
        },
        {
          "internalType": "uint256",
          "name": "inAmount",
          "type": "uint256"
        },
        {
          "internalType": "address",
          "name": "pegCurrency",
          "type": "address"
        }
      ],
      "name": "viewAmountInPeg",
      "outputs": [
        {
          "internalType": "uint256",
          "name": "",
          "type": "uint256"
        }
      ],
      "stateMutability": "view",
      "type": "function"
    },
    {
      "inputs": [
        {
          "internalType": "address",
          "name": "token",
          "type": "address"
        },
        {
          "internalType": "uint256",
          "name": "inAmount",
          "type": "uint256"
        },
        {
          "internalType": "address",
          "name": "pegCurrency",
          "type": "address"
        }
      ],
      "name": "viewPegAmountAndBorrowable",
      "outputs": [
        {
          "internalType": "uint256",
          "name": "",
          "type": "uint256"
        },
        {
          "internalType": "uint256",
          "name": "",
          "type": "uint256"
        }
      ],
      "stateMutability": "view",
      "type": "function"
    }
  ],
  "bytecode": "0x60a060405234801561001057600080fd5b5060405161107a38038061107a83398101604081905261002f916100e2565b806001600160a01b0381166100955760405162461bcd60e51b815260206004820152602260248201527f506c656173652070726f766964652076616c696420726f6c6573206164647265604482015261737360f01b606482015260840160405180910390fd5b60601b6001600160601b0319166080525060028054600181018255600091909152606a7f405787fa12a823e0f2b7631cc41b3ba8828b3321ca811111fa75cd3aa3bb5ace90910155610110565b6000602082840312156100f3578081fd5b81516001600160a01b0381168114610109578182fd5b9392505050565b60805160601c610f3061014a60003960008181610163015281816103480152818161058b01528181610a430152610adb0152610f306000f3fe608060405234801561001057600080fd5b50600436106101075760003560e01c8063071060a61461010c57806313304f421461012157806332f42fe61461014b578063392f5f641461015e578063447d52ba146101925780634a7a7f41146101a55780634fcd54a4146101ba578063576cbc30146101e25780636caa9c11146102035780637a1a04df146102165780637dad209b14610254578063885fa0561461025c5780638b5959191461026f5780638eaab58c1461029a578063abcbc4fc146102ad578063aeb38d8b146102c0578063bf184ea4146102d3578063d5223760146102e6578063dc94cb7d146102f9578063e8ea4fae14610301578063e9c3f77d14610309575b600080fd5b61011f61011a366004610d4b565b610332565b005b61013461012f366004610c7a565b6103f8565b604051610142929190610e1a565b60405180910390f35b61011f610159366004610bee565b610469565b6101857f000000000000000000000000000000000000000000000000000000000000000081565b6040516101429190610dc2565b61011f6101a0366004610d7b565b610565565b6101ad61063d565b6040516101429190610dd6565b6101cd6101c8366004610cea565b610695565b60408051928352602083019190915201610142565b6101f56101f0366004610cea565b610732565b604051908152602001610142565b6101f5610211366004610d4b565b610747565b610244610224366004610cbf565b600160209081526000928352604080842090915290825290205460ff1681565b6040519015158152602001610142565b6101ad610768565b6101cd61026a366004610cea565b6107be565b6101f561027d366004610bb6565b600660209081526000928352604080842090915290825290205481565b6101f56102a8366004610cea565b6107cc565b6101f56102bb366004610d4b565b61080f565b6101f56102ce366004610d4b565b61081f565b6101f56102e1366004610d4b565b61082f565b61011f6102f4366004610c7a565b61083f565b6101ad61092d565b6101ad610983565b610185610317366004610d4b565b6000602081905290815260409020546001600160a01b031681565b60405163b4ed0b6d60e01b8152600481018290527f00000000000000000000000000000000000000000000000000000000000000006001600160a01b03169063b4ed0b6d9060240160206040518083038186803b15801561039257600080fd5b505afa1580156103a6573d6000803e3d6000fd5b505050506040513d601f19601f820116820180604052508101906103ca9190610b93565b60009182526020829052604090912080546001600160a01b0319166001600160a01b03909216919091179055565b60006060818461040c85600160701b610e97565b6104169190610e77565b6001600160a01b03978816600090815260066020908152604080832099909a1682529788528890205488519788019690965286880194909452505084518085038601815260609094019094521492909150565b336104726109d9565b6001600160a01b0316146104cd5760405162461bcd60e51b815260206004820152601d60248201527f4e6f7420617574686f72697a656420746f20696e6974206f7261636c6500000060448201526064015b60405180910390fd5b61050e848484848080601f016020809104026020016040519081016040528093929190818152602001838380828437600092019190915250610a1192505050565b60408051818152600d918101919091526c6f7261636c6520706172616d7360981b60608201526001600160a01b0385166020820152600080516020610edb833981519152906080015b60405180910390a150505050565b60405163f0723d9760e01b81526001600160a01b038281166004830152602482018490527f0000000000000000000000000000000000000000000000000000000000000000169063f0723d979060440160206040518083038186803b1580156105cd57600080fd5b505afa1580156105e1573d6000803e3d6000fd5b505050506040513d601f19601f820116820180604052508101906106059190610d2b565b6001600160a01b0391909116600090815260016020908152604080832094835293905291909120805460ff1916911515919091179055565b6060600380548060200260200160405190810160405280929190818152602001828054801561068b57602002820191906000526020600020905b815481526020019060010190808311610677575b5050505050905090565b6000806106a38585856107cc565b6106ab6109d9565b6001600160a01b03166315c2ba50876040518263ffffffff1660e01b81526004016106d69190610dc2565b60206040518083038186803b1580156106ee57600080fd5b505afa158015610702573d6000803e3d6000fd5b505050506040513d601f19601f820116820180604052508101906107269190610d63565b91509150935093915050565b600061073f8484846107cc565b949350505050565b6005818154811061075757600080fd5b600091825260209091200154905081565b6060600480548060200260200160405190810160405280929190818152602001828054801561068b5760200282019190600052602060002090815481526020019060010190808311610677575050505050905090565b6000806106a3858585610732565b6001600160a01b038084166000908152600660209081526040808320938516835292905290812054600160701b90610805908590610e97565b61073f9190610e77565b6002818154811061075757600080fd5b6004818154811061075757600080fd5b6003818154811061075757600080fd5b33610848610a3f565b6001600160a01b0316148061086c575033610861610ad7565b6001600160a01b0316145b6108cb5760405162461bcd60e51b815260206004820152602a60248201527f526f6c65733a2063616c6c6572206973206e6f7420746865206f776e6572206f604482015269391032bc32b1baba37b960b11b60648201526084016104c4565b6108d784848484610b48565b60408051818152601691810191909152756f7261636c6520737065636966696320706172616d7360501b60608201526001600160a01b0385166020820152600080516020610edb83398151915290608001610557565b6060600280548060200260200160405190810160405280929190818152602001828054801561068b5760200282019190600052602060002090815481526020019060010190808311610677575050505050905090565b6060600580548060200260200160405190810160405280929190818152602001828054801561068b5760200282019190600052602060002090815481526020019060010190808311610677575050505050905090565b606a60009081526020527ff3261457f4fd0b7c00a1511877ab27b74183ac470be8db3a7ecdc64335f6f979546001600160a01b031690565b60008082806020019051810190610a289190610d9f565b91509150610a3885858484610b48565b5050505050565b60007f00000000000000000000000000000000000000000000000000000000000000006001600160a01b0316638da5cb5b6040518163ffffffff1660e01b815260040160206040518083038186803b158015610a9a57600080fd5b505afa158015610aae573d6000803e3d6000fd5b505050506040513d601f19601f82011682018060405250810190610ad29190610b93565b905090565b60007f00000000000000000000000000000000000000000000000000000000000000006001600160a01b031663c34c08e56040518163ffffffff1660e01b8152600401602060405180830381600087803b158015610b3457600080fd5b505af1158015610aae573d6000803e3d6000fd5b81610b5782600160701b610e97565b610b619190610e77565b6001600160a01b0394851660009081526006602090815260408083209690971682529490945293909220929092555050565b600060208284031215610ba4578081fd5b8151610baf81610ec2565b9392505050565b60008060408385031215610bc8578081fd5b8235610bd381610ec2565b91506020830135610be381610ec2565b809150509250929050565b60008060008060608587031215610c03578182fd5b8435610c0e81610ec2565b93506020850135610c1e81610ec2565b925060408501356001600160401b0380821115610c39578384fd5b818701915087601f830112610c4c578384fd5b813581811115610c5a578485fd5b886020828501011115610c6b578485fd5b95989497505060200194505050565b60008060008060808587031215610c8f578384fd5b8435610c9a81610ec2565b93506020850135610caa81610ec2565b93969395505050506040820135916060013590565b60008060408385031215610cd1578182fd5b8235610cdc81610ec2565b946020939093013593505050565b600080600060608486031215610cfe578283fd5b8335610d0981610ec2565b9250602084013591506040840135610d2081610ec2565b809150509250925092565b600060208284031215610d3c578081fd5b81518015158114610baf578182fd5b600060208284031215610d5c578081fd5b5035919050565b600060208284031215610d74578081fd5b5051919050565b60008060408385031215610d8d578182fd5b823591506020830135610be381610ec2565b60008060408385031215610db1578182fd5b505080516020909101519092909150565b6001600160a01b0391909116815260200190565b6020808252825182820181905260009190848201906040850190845b81811015610e0e57835183529284019291840191600101610df2565b50909695505050505050565b6000831515825260206040818401528351806040850152825b81811015610e4f57858101830151858201606001528201610e33565b81811115610e605783606083870101525b50601f01601f191692909201606001949350505050565b600082610e9257634e487b7160e01b81526012600452602481fd5b500490565b6000816000190483118215151615610ebd57634e487b7160e01b81526011600452602481fd5b500290565b6001600160a01b0381168114610ed757600080fd5b5056febd64fae90eab1019a6c354538cfa598ad3d642c5b1bc8a8613bcb716723fa2d7a2646970667358221220004c1b5e03940a3181c5197c9a13a2c78035859944158a48560f24fe4417bcf764736f6c63430008030033",
  "linkReferences": {},
  "deployedLinkReferences": {}
}