{
  "_format": "hh-sol-artifact-1",
  "contractName": "VeERC20Upgradeable",
  "sourceName": "contracts/governance/VeERC20Upgradeable.sol",
  "abi": [
    {
      "anonymous": false,
      "inputs": [
        {
          "indexed": true,
          "internalType": "address",
          "name": "account",
          "type": "address"
        },
        {
          "indexed": false,
          "internalType": "uint256",
          "name": "value",
          "type": "uint256"
        }
      ],
      "name": "Burn",
      "type": "event"
    },
    {
      "anonymous": false,
      "inputs": [
        {
          "indexed": true,
          "internalType": "address",
          "name": "beneficiary",
          "type": "address"
        },
        {
          "indexed": false,
          "internalType": "uint256",
          "name": "value",
          "type": "uint256"
        }
      ],
      "name": "Mint",
      "type": "event"
    },
    {
      "inputs": [
        {
          "internalType": "address",
          "name": "account",
          "type": "address"
        }
      ],
      "name": "balanceOf",
      "outputs": [
        {
          "internalType": "uint256",
          "name": "",
          "type": "uint256"
        }
      ],
      "stateMutability": "view",
      "type": "function"
    },
    {
      "inputs": [],
      "name": "decimals",
      "outputs": [
        {
          "internalType": "uint8",
          "name": "",
          "type": "uint8"
        }
      ],
      "stateMutability": "view",
      "type": "function"
    },
    {
      "inputs": [],
      "name": "name",
      "outputs": [
        {
          "internalType": "string",
          "name": "",
          "type": "string"
        }
      ],
      "stateMutability": "view",
      "type": "function"
    },
    {
      "inputs": [],
      "name": "symbol",
      "outputs": [
        {
          "internalType": "string",
          "name": "",
          "type": "string"
        }
      ],
      "stateMutability": "view",
      "type": "function"
    },
    {
      "inputs": [],
      "name": "totalSupply",
      "outputs": [
        {
          "internalType": "uint256",
          "name": "",
          "type": "uint256"
        }
      ],
      "stateMutability": "view",
      "type": "function"
    }
  ],
  "bytecode": "0x608060405234801561001057600080fd5b5061025f806100206000396000f3fe608060405234801561001057600080fd5b50600436106100575760003560e01c806306fdde031461005c57806318160ddd1461007a578063313ce5671461008c57806370a082311461009b57806395d89b41146100c4575b600080fd5b6100646100cc565b604051610071919061019b565b60405180910390f35b6035545b604051908152602001610071565b60405160128152602001610071565b61007e6100a936600461016d565b6001600160a01b031660009081526033602052604090205490565b61006461015e565b6060603680546100db906101ee565b80601f0160208091040260200160405190810160405280929190818152602001828054610107906101ee565b80156101545780601f1061012957610100808354040283529160200191610154565b820191906000526020600020905b81548152906001019060200180831161013757829003601f168201915b5050505050905090565b6060603780546100db906101ee565b60006020828403121561017e578081fd5b81356001600160a01b0381168114610194578182fd5b9392505050565b6000602080835283518082850152825b818110156101c7578581018301518582016040015282016101ab565b818111156101d85783604083870101525b50601f01601f1916929092016040019392505050565b600181811c9082168061020257607f821691505b6020821081141561022357634e487b7160e01b600052602260045260246000fd5b5091905056fea264697066735822122027909cc8336f64065c795ef09e11152e3c1f74bb93109a30c1b11a7bce1c11e464736f6c63430008030033",
  "linkReferences": {},
  "deployedLinkReferences": {}
}