{
  "_format": "hh-sol-artifact-1",
  "contractName": "StableLending2Liquidation",
  "sourceName": "contracts/liquidation/StableLending2Liquidation.sol",
  "abi": [
    {
      "inputs": [
        {
          "internalType": "address",
          "name": "_roles",
          "type": "address"
        }
      ],
      "stateMutability": "nonpayable",
      "type": "constructor"
    },
    {
      "anonymous": false,
      "inputs": [
        {
          "indexed": false,
          "internalType": "string",
          "name": "param",
          "type": "string"
        },
        {
          "indexed": false,
          "internalType": "uint256",
          "name": "value",
          "type": "uint256"
        }
      ],
      "name": "ParameterUpdated",
      "type": "event"
    },
    {
      "anonymous": false,
      "inputs": [
        {
          "indexed": false,
          "internalType": "string",
          "name": "param",
          "type": "string"
        },
        {
          "indexed": false,
          "internalType": "address",
          "name": "subject",
          "type": "address"
        },
        {
          "indexed": false,
          "internalType": "uint256",
          "name": "value",
          "type": "uint256"
        }
      ],
      "name": "SubjectParameterUpdated",
      "type": "event"
    },
    {
      "anonymous": false,
      "inputs": [
        {
          "indexed": false,
          "internalType": "string",
          "name": "param",
          "type": "string"
        },
        {
          "indexed": false,
          "internalType": "address",
          "name": "subject",
          "type": "address"
        }
      ],
      "name": "SubjectUpdated",
      "type": "event"
    },
    {
      "inputs": [
        {
          "internalType": "uint256",
          "name": "",
          "type": "uint256"
        }
      ],
      "name": "_charactersPlayed",
      "outputs": [
        {
          "internalType": "uint256",
          "name": "",
          "type": "uint256"
        }
      ],
      "stateMutability": "view",
      "type": "function"
    },
    {
      "inputs": [
        {
          "internalType": "uint256",
          "name": "",
          "type": "uint256"
        }
      ],
      "name": "_dependsOnCharacters",
      "outputs": [
        {
          "internalType": "uint256",
          "name": "",
          "type": "uint256"
        }
      ],
      "stateMutability": "view",
      "type": "function"
    },
    {
      "inputs": [
        {
          "internalType": "uint256",
          "name": "",
          "type": "uint256"
        }
      ],
      "name": "_dependsOnRoles",
      "outputs": [
        {
          "internalType": "uint256",
          "name": "",
          "type": "uint256"
        }
      ],
      "stateMutability": "view",
      "type": "function"
    },
    {
      "inputs": [
        {
          "internalType": "address",
          "name": "",
          "type": "address"
        },
        {
          "internalType": "address",
          "name": "",
          "type": "address"
        }
      ],
      "name": "_oracleCache",
      "outputs": [
        {
          "internalType": "address",
          "name": "",
          "type": "address"
        }
      ],
      "stateMutability": "view",
      "type": "function"
    },
    {
      "inputs": [
        {
          "internalType": "uint256",
          "name": "",
          "type": "uint256"
        }
      ],
      "name": "_rolesPlayed",
      "outputs": [
        {
          "internalType": "uint256",
          "name": "",
          "type": "uint256"
        }
      ],
      "stateMutability": "view",
      "type": "function"
    },
    {
      "inputs": [],
      "name": "charactersPlayed",
      "outputs": [
        {
          "internalType": "uint256[]",
          "name": "",
          "type": "uint256[]"
        }
      ],
      "stateMutability": "view",
      "type": "function"
    },
    {
      "inputs": [],
      "name": "defaultLiquidationRewardPer10k",
      "outputs": [
        {
          "internalType": "uint256",
          "name": "",
          "type": "uint256"
        }
      ],
      "stateMutability": "view",
      "type": "function"
    },
    {
      "inputs": [],
      "name": "defaultProtocolFeePer10k",
      "outputs": [
        {
          "internalType": "uint256",
          "name": "",
          "type": "uint256"
        }
      ],
      "stateMutability": "view",
      "type": "function"
    },
    {
      "inputs": [],
      "name": "dependsOnCharacters",
      "outputs": [
        {
          "internalType": "uint256[]",
          "name": "",
          "type": "uint256[]"
        }
      ],
      "stateMutability": "view",
      "type": "function"
    },
    {
      "inputs": [],
      "name": "dependsOnRoles",
      "outputs": [
        {
          "internalType": "uint256[]",
          "name": "",
          "type": "uint256[]"
        }
      ],
      "stateMutability": "view",
      "type": "function"
    },
    {
      "inputs": [
        {
          "internalType": "uint256",
          "name": "trancheId",
          "type": "uint256"
        },
        {
          "internalType": "uint256",
          "name": "collateralRequested",
          "type": "uint256"
        }
      ],
      "name": "getBidTargetAndProtocolCut",
      "outputs": [
        {
          "internalType": "uint256",
          "name": "",
          "type": "uint256"
        },
        {
          "internalType": "uint256",
          "name": "",
          "type": "uint256"
        }
      ],
      "stateMutability": "nonpayable",
      "type": "function"
    },
    {
      "inputs": [
        {
          "internalType": "uint256",
          "name": "trancheId",
          "type": "uint256"
        },
        {
          "internalType": "uint256",
          "name": "collateralRequested",
          "type": "uint256"
        },
        {
          "internalType": "uint256",
          "name": "rebalancingBid",
          "type": "uint256"
        },
        {
          "internalType": "address",
          "name": "recipient",
          "type": "address"
        }
      ],
      "name": "liquidate",
      "outputs": [],
      "stateMutability": "nonpayable",
      "type": "function"
    },
    {
      "inputs": [
        {
          "internalType": "uint256",
          "name": "trancheId",
          "type": "uint256"
        },
        {
          "internalType": "address",
          "name": "recipient",
          "type": "address"
        },
        {
          "internalType": "bytes",
          "name": "_data",
          "type": "bytes"
        }
      ],
      "name": "liquidateUnderwater",
      "outputs": [],
      "stateMutability": "nonpayable",
      "type": "function"
    },
    {
      "inputs": [
        {
          "internalType": "address",
          "name": "",
          "type": "address"
        }
      ],
      "name": "liquidationRewardPer10k",
      "outputs": [
        {
          "internalType": "uint256",
          "name": "",
          "type": "uint256"
        }
      ],
      "stateMutability": "view",
      "type": "function"
    },
    {
      "inputs": [
        {
          "internalType": "uint256",
          "name": "",
          "type": "uint256"
        }
      ],
      "name": "liquidationTstamp",
      "outputs": [
        {
          "internalType": "uint256",
          "name": "",
          "type": "uint256"
        }
      ],
      "stateMutability": "view",
      "type": "function"
    },
    {
      "inputs": [
        {
          "internalType": "uint256",
          "name": "",
          "type": "uint256"
        }
      ],
      "name": "mainCharacterCache",
      "outputs": [
        {
          "internalType": "address",
          "name": "",
          "type": "address"
        }
      ],
      "stateMutability": "view",
      "type": "function"
    },
    {
      "inputs": [
        {
          "internalType": "address",
          "name": "token",
          "type": "address"
        },
        {
          "internalType": "address",
          "name": "pegCurrency",
          "type": "address"
        }
      ],
      "name": "newCurrentOracle",
      "outputs": [],
      "stateMutability": "nonpayable",
      "type": "function"
    },
    {
      "inputs": [
        {
          "internalType": "address",
          "name": "",
          "type": "address"
        },
        {
          "internalType": "address",
          "name": "",
          "type": "address"
        },
        {
          "internalType": "uint256",
          "name": "",
          "type": "uint256"
        },
        {
          "internalType": "bytes",
          "name": "",
          "type": "bytes"
        }
      ],
      "name": "onERC721Received",
      "outputs": [
        {
          "internalType": "bytes4",
          "name": "",
          "type": "bytes4"
        }
      ],
      "stateMutability": "nonpayable",
      "type": "function"
    },
    {
      "inputs": [
        {
          "internalType": "address",
          "name": "",
          "type": "address"
        }
      ],
      "name": "protocolFeePer10k",
      "outputs": [
        {
          "internalType": "uint256",
          "name": "",
          "type": "uint256"
        }
      ],
      "stateMutability": "view",
      "type": "function"
    },
    {
      "inputs": [
        {
          "internalType": "uint256",
          "name": "amount",
          "type": "uint256"
        },
        {
          "internalType": "address",
          "name": "recipient",
          "type": "address"
        }
      ],
      "name": "rescueNative",
      "outputs": [],
      "stateMutability": "nonpayable",
      "type": "function"
    },
    {
      "inputs": [
        {
          "internalType": "address",
          "name": "token",
          "type": "address"
        },
        {
          "internalType": "uint256",
          "name": "amount",
          "type": "uint256"
        },
        {
          "internalType": "address",
          "name": "recipient",
          "type": "address"
        }
      ],
      "name": "rescueStrandedTokens",
      "outputs": [],
      "stateMutability": "nonpayable",
      "type": "function"
    },
    {
      "inputs": [
        {
          "internalType": "address",
          "name": "",
          "type": "address"
        },
        {
          "internalType": "uint256",
          "name": "",
          "type": "uint256"
        }
      ],
      "name": "roleCache",
      "outputs": [
        {
          "internalType": "bool",
          "name": "",
          "type": "bool"
        }
      ],
      "stateMutability": "view",
      "type": "function"
    },
    {
      "inputs": [],
      "name": "roles",
      "outputs": [
        {
          "internalType": "contract Roles",
          "name": "",
          "type": "address"
        }
      ],
      "stateMutability": "view",
      "type": "function"
    },
    {
      "inputs": [],
      "name": "rolesPlayed",
      "outputs": [
        {
          "internalType": "uint256[]",
          "name": "",
          "type": "uint256[]"
        }
      ],
      "stateMutability": "view",
      "type": "function"
    },
    {
      "inputs": [
        {
          "internalType": "uint256",
          "name": "liqSharePer10k",
          "type": "uint256"
        }
      ],
      "name": "setDefaultLiquidationRewardPer10k",
      "outputs": [],
      "stateMutability": "nonpayable",
      "type": "function"
    },
    {
      "inputs": [
        {
          "internalType": "address",
          "name": "token",
          "type": "address"
        },
        {
          "internalType": "uint256",
          "name": "liqSharePer10k",
          "type": "uint256"
        }
      ],
      "name": "setLiquidationRewardPer10k",
      "outputs": [],
      "stateMutability": "nonpayable",
      "type": "function"
    },
    {
      "inputs": [
        {
          "internalType": "address",
          "name": "token",
          "type": "address"
        },
        {
          "internalType": "uint256",
          "name": "protFeePer10k",
          "type": "uint256"
        }
      ],
      "name": "setProtcolFeePer10k",
      "outputs": [],
      "stateMutability": "nonpayable",
      "type": "function"
    },
    {
      "inputs": [
        {
          "internalType": "uint256",
          "name": "protFeePer10k",
          "type": "uint256"
        }
      ],
      "name": "setProtocolFeePer10k",
      "outputs": [],
      "stateMutability": "nonpayable",
      "type": "function"
    },
    {
      "inputs": [
        {
          "internalType": "uint256",
          "name": "role",
          "type": "uint256"
        }
      ],
      "name": "updateMainCharacterCache",
      "outputs": [],
      "stateMutability": "nonpayable",
      "type": "function"
    },
    {
      "inputs": [
        {
          "internalType": "uint256",
          "name": "role",
          "type": "uint256"
        },
        {
          "internalType": "address",
          "name": "contr",
          "type": "address"
        }
      ],
      "name": "updateRoleCache",
      "outputs": [],
      "stateMutability": "nonpayable",
      "type": "function"
    },
    {
      "inputs": [],
      "name": "viewAllFeesEver",
      "outputs": [
        {
          "internalType": "uint256",
          "name": "",
          "type": "uint256"
        }
      ],
      "stateMutability": "view",
      "type": "function"
    },
    {
      "inputs": [
        {
          "internalType": "uint256",
          "name": "trancheId",
          "type": "uint256"
        },
        {
          "internalType": "uint256",
          "name": "requestedCollateralValue",
          "type": "uint256"
        }
      ],
      "name": "viewBidTarget",
      "outputs": [
        {
          "internalType": "uint256",
          "name": "",
          "type": "uint256"
        }
      ],
      "stateMutability": "view",
      "type": "function"
    },
    {
      "inputs": [
        {
          "internalType": "address",
          "name": "token",
          "type": "address"
        }
      ],
      "name": "viewLiqSharePer10k",
      "outputs": [
        {
          "internalType": "uint256",
          "name": "liqShare",
          "type": "uint256"
        }
      ],
      "stateMutability": "view",
      "type": "function"
    },
    {
      "inputs": [
        {
          "internalType": "address",
          "name": "token",
          "type": "address"
        }
      ],
      "name": "viewLiquidationFeePer10k",
      "outputs": [
        {
          "internalType": "uint256",
          "name": "",
          "type": "uint256"
        }
      ],
      "stateMutability": "view",
      "type": "function"
    },
    {
      "inputs": [
        {
          "internalType": "address",
          "name": "token",
          "type": "address"
        }
      ],
      "name": "viewProtocolSharePer10k",
      "outputs": [
        {
          "internalType": "uint256",
          "name": "protocolShare",
          "type": "uint256"
        }
      ],
      "stateMutability": "view",
      "type": "function"
    }
  ],
  "bytecode": "0x60a06040526103e86009556096600a553480156200001c57600080fd5b5060405162002927380380620029278339810160408190526200003f91620001e6565b806001600160a01b038116620000a65760405162461bcd60e51b815260206004820152602260248201527f506c656173652070726f766964652076616c696420726f6c6573206164647265604482015261737360f01b606482015260840160405180910390fd5b60601b6001600160601b03191660805250600280546001808201835560667f405787fa12a823e0f2b7631cc41b3ba8828b3321ca811111fa75cd3aa3bb5ace92830155825480820184556077908301558254808201845560679083015560038054808301825560067fc2575a0e9e593c00f959f8c92f12db2869c3395a3b0502d05e2516446f71f85b91820181905585548085018755606a950194909455815480840190925560079101559081905560058054808301825560047f036b6384b5eca791c62761152d0c79bb0604c104a5fb6f4eb0703f3154bb3db0918201819055825480850184558201949094558154808401835581018290558154808401909255018190558154908101825560009190915260787f8a35acfbc15ff81a39ae7d344fd709f28e8600b4aa8c65c6b64bfe7fe36bd19b9091015562000216565b600060208284031215620001f8578081fd5b81516001600160a01b03811681146200020f578182fd5b9392505050565b60805160601c6126cf62000258600039600081816102de01528181610a6d0152818161129a01528181611a5d01528181611af50152611b7c01526126cf6000f3fe608060405234801561001057600080fd5b50600436106101a15760003560e01c80630380b4ed146101a657806304a75a2a146101bb57806306398a5e146101ce578063071060a6146102015780630cb1975c146102145780630d74962814610227578063150b7a021461023057806318af4c9e146102675780632642b6061461027a57806328f3fc73146102c6578063392f5f64146102d9578063420612de14610300578063447d52ba146103135780634524029f1461032657806349d4f22e1461032f5780634a7a7f41146103425780634ab5a0471461035757806354b47176146103605780636caa9c1114610373578063717d6ef814610386578063776140671461039957806379ac442e146103ac5780637a1a04df146103bf5780637ae3c7a6146103fd5780637dad209b14610410578063929460f414610418578063a1f4e93c1461042b578063abcbc4fc1461044b578063aeb38d8b1461045e578063bf184ea414610471578063dc94cb7d14610484578063e42f0c951461048c578063e8ea4fae146104ac578063e9c3f77d146104b4578063f7726d28146104dd575b600080fd5b6101b96101b43660046121c8565b610505565b005b6101b96101c93660046122a8565b6105c4565b6101ee6101dc366004612080565b600b6020526000908152604090205481565b6040519081526020015b60405180910390f35b6101b961020f366004612254565b610a57565b6101b961022236600461234c565b610b1d565b6101ee600d5481565b61024e61023e3660046120f0565b630a85bd0160e11b949350505050565b6040516001600160e01b031990911681526020016101f8565b6101b9610275366004612284565b611047565b6102ae6102883660046120b8565b60076020908152600092835260408084209091529082529020546001600160a01b031681565b6040516001600160a01b0390911681526020016101f8565b6101b96102d43660046120b8565b6110f1565b6102ae7f000000000000000000000000000000000000000000000000000000000000000081565b6101b961030e366004612254565b6111e4565b6101b9610321366004612284565b611283565b6101ee60095481565b6101b961033d3660046121f3565b611359565b61034a6113dc565b6040516101f8919061242c565b6101ee600a5481565b6101ee61036e366004612080565b611434565b6101ee610381366004612254565b61145c565b6101ee610394366004612080565b61147d565b6101ee6103a7366004612080565b6114a1565b6101b96103ba366004612254565b6114c7565b6103ed6103cd3660046121c8565b600160209081526000928352604080842090915290825290205460ff1681565b60405190151581526020016101f8565b6101b961040b3660046121c8565b611561565b61034a61160d565b6101ee61042636600461232b565b611663565b6101ee610439366004612254565b600c6020526000908152604090205481565b6101ee610459366004612254565b611720565b6101ee61046c366004612254565b611730565b6101ee61047f366004612254565b611740565b61034a611750565b6101ee61049a366004612080565b60086020526000908152604090205481565b61034a6117a6565b6102ae6104c2366004612254565b6000602081905290815260409020546001600160a01b031681565b6104f06104eb36600461232b565b6117fc565b604080519283526020830191909152016101f8565b3361050e611a59565b6001600160a01b03161480610532575033610527611af1565b6001600160a01b0316145b6105575760405162461bcd60e51b815260040161054e906124a3565b60405180910390fd5b6001600160a01b0382166000818152600b602090815260409182902084905581516060808252600c908201526b70726f746f636f6c2066656560a01b608082015290810192909252810182905260008051602061267a8339815191529060a0015b60405180910390a15050565b600260065414156105e75760405162461bcd60e51b815260040161054e90612521565b60026006908155336000908152600160209081526040808320938352929052205460ff168061062557503361061a611b62565b6001600160a01b0316145b8061063f575033610634611a59565b6001600160a01b0316145b8061065957503361064e611af1565b6001600160a01b0316145b6106bb5760405162461bcd60e51b815260206004820152602d60248201527f43616c6c6572206e6f7420617574686f72697a656420746f206c69717569646160448201526c3a32903ab73232b93bb0ba32b960991b606482015260840161054e565b60006106c5611bc6565b9050806001600160a01b031663f8903fb7866106df611bfe565b876040518463ffffffff1660e01b81526004016106fe93929190612558565b602060405180830381600087803b15801561071857600080fd5b505af115801561072c573d6000803e3d6000fd5b505050506040513d601f19601f82011682018060405250810190610750919061226c565b50604051630358e41160e21b8152600481018690526000906001600160a01b03831690630d6390449060240160206040518083038186803b15801561079457600080fd5b505afa1580156107a8573d6000803e3d6000fd5b505050506040513d601f19601f820116820180604052508101906107cc919061226c565b60405163f6ee21bd60e01b8152600481018890529091506000906001600160a01b0384169063f6ee21bd9060240160206040518083038186803b15801561081257600080fd5b505afa158015610826573d6000803e3d6000fd5b505050506040513d601f19601f8201168201806040525081019061084a919061226c565b604051632c97897d60e21b8152600481018990529091506001600160a01b0384169063b25e25f49060240160206040518083038186803b15801561088d57600080fd5b505afa1580156108a1573d6000803e3d6000fd5b505050506040513d601f19601f820116820180604052508101906108c59190612234565b156109105760405162461bcd60e51b815260206004820152601b60248201527a5472616e636865206973206e6f74206c6971756964617461626c6560281b604482015260640161054e565b8082116109585760405162461bcd60e51b81526020600482015260166024820152752a3930b731b432903737ba103ab73232b93bb0ba32b960511b604482015260640161054e565b610960611bc6565b6001600160a01b031663b88d4fde610976611bc6565b6001600160a01b0316636352211e8a6040518263ffffffff1660e01b81526004016109a391815260200190565b60206040518083038186803b1580156109bb57600080fd5b505afa1580156109cf573d6000803e3d6000fd5b505050506040513d601f19601f820116820180604052508101906109f3919061209c565b888a89896040518663ffffffff1660e01b8152600401610a179594939291906123c2565b600060405180830381600087803b158015610a3157600080fd5b505af1158015610a45573d6000803e3d6000fd5b50506001600655505050505050505050565b60405163b4ed0b6d60e01b8152600481018290527f00000000000000000000000000000000000000000000000000000000000000006001600160a01b03169063b4ed0b6d9060240160206040518083038186803b158015610ab757600080fd5b505afa158015610acb573d6000803e3d6000fd5b505050506040513d601f19601f82011682018060405250810190610aef919061209c565b60009182526020829052604090912080546001600160a01b0319166001600160a01b03909216919091179055565b60026006541415610b405760405162461bcd60e51b815260040161054e90612521565b60026006556001600160a01b038116610b6b5760405162461bcd60e51b815260040161054e906124ed565b6000610b75611bc6565b90506000610b81611bfe565b6040516331a9108f60e11b8152600481018890529091506000906001600160a01b03841690636352211e9060240160206040518083038186803b158015610bc757600080fd5b505afa158015610bdb573d6000803e3d6000fd5b505050506040513d601f19601f82011682018060405250810190610bff919061209c565b9050610c2f816001600160a01b031660009081526001602090815260408083206007845290915290205460ff1690565b15610c7c5760405162461bcd60e51b815260206004820152601e60248201527f4f776e6572206973206c69717569646174696f6e2070726f7465637465640000604482015260640161054e565b604051632c97897d60e21b8152600481018890526001600160a01b0384169063b25e25f49060240160206040518083038186803b158015610cbc57600080fd5b505afa158015610cd0573d6000803e3d6000fd5b505050506040513d601f19601f82011682018060405250810190610cf49190612234565b15610d3c5760405162461bcd60e51b81526020600482015260186024820152775472616e636865206e6f74206c6971756964617461626c6560401b604482015260640161054e565b60405163f8903fb760e01b81526001600160a01b0384169063f8903fb790610d6c908a9086908690600401612558565b602060405180830381600087803b158015610d8657600080fd5b505af1158015610d9a573d6000803e3d6000fd5b505050506040513d601f19601f82011682018060405250810190610dbe919061226c565b50600080610dcc89896117fc565b9150915081871015610e205760405162461bcd60e51b815260206004820181905260248201527f496e737566696369656e74206465627420726562616c616e63696e6720626964604482015260640161054e565b604051632770a7eb60e21b81526001600160a01b03851690639dc29fac90610e4e9033908b90600401612413565b600060405180830381600087803b158015610e6857600080fd5b505af1158015610e7c573d6000803e3d6000fd5b50505050836001600160a01b03166340c10f1930838a610e9c91906125ce565b6040518363ffffffff1660e01b8152600401610eb9929190612413565b600060405180830381600087803b158015610ed357600080fd5b505af1158015610ee7573d6000803e3d6000fd5b50505050846001600160a01b03166379bc3efa8a8a848b610f0891906125ce565b6040516001600160e01b031960e086901b1681526004810193909352602483019190915260448201526001600160a01b0389166064820152608401600060405180830381600087803b158015610f5d57600080fd5b505af1158015610f71573d6000803e3d6000fd5b50505050836001600160a01b03166340c10f19610fbf606760009081526020527f682158d08466d11c566d5712d4396197fdd67e65be71d83c97ef719ec468867b546001600160a01b031690565b836040518363ffffffff1660e01b8152600401610fdd929190612413565b600060405180830381600087803b158015610ff757600080fd5b505af115801561100b573d6000803e3d6000fd5b5050505080600d60008282546110219190612577565b90915550505060009788525050600c602052505060409093204290555050600160065550565b33611050611a59565b6001600160a01b03161480611074575033611069611af1565b6001600160a01b0316145b6110905760405162461bcd60e51b815260040161054e906124a3565b6001600160a01b0381166110b65760405162461bcd60e51b815260040161054e906124ed565b6040516001600160a01b0382169083156108fc029084906000818181858888f193505050501580156110ec573d6000803e3d6000fd5b505050565b6001600160a01b038281166000908152600760209081526040808320858516845290915290205416156111e057611126611c36565b6001600160a01b0316635e73a03483836040518363ffffffff1660e01b81526004016111539291906123a8565b60206040518083038186803b15801561116b57600080fd5b505afa15801561117f573d6000803e3d6000fd5b505050506040513d601f19601f820116820180604052508101906111a3919061209c565b6001600160a01b0383811660009081526007602090815260408083208685168452909152902080546001600160a01b031916929091169190911790555b5050565b336111ed611a59565b6001600160a01b03161480611211575033611206611af1565b6001600160a01b0316145b61122d5760405162461bcd60e51b815260040161054e906124a3565b60098190556040805181815260129181019190915271191959985d5b1d081b1a5c481c995dd85c9960721b60608201526020810182905260008051602061265a833981519152906080015b60405180910390a150565b60405163f0723d9760e01b81526001600160a01b037f0000000000000000000000000000000000000000000000000000000000000000169063f0723d97906112d19084908690600401612413565b60206040518083038186803b1580156112e957600080fd5b505afa1580156112fd573d6000803e3d6000fd5b505050506040513d601f19601f820116820180604052508101906113219190612234565b6001600160a01b0391909116600090815260016020908152604080832094835293905291909120805460ff1916911515919091179055565b33611362611a59565b6001600160a01b0316148061138657503361137b611af1565b6001600160a01b0316145b6113a25760405162461bcd60e51b815260040161054e906124a3565b6001600160a01b0381166113c85760405162461bcd60e51b815260040161054e906124ed565b6110ec6001600160a01b0384168284611c6e565b6060600380548060200260200160405190810160405280929190818152602001828054801561142a57602002820191906000526020600020905b815481526020019060010190808311611416575b5050505050905090565b6001600160a01b0381166000908152600860205260409020548061145757506009545b919050565b6005818154811061146c57600080fd5b600091825260209091200154905081565b600061148882611434565b611491836114a1565b61149b9190612577565b92915050565b6001600160a01b0381166000908152600b602052604090205480611457575050600a5490565b336114d0611a59565b6001600160a01b031614806114f45750336114e9611af1565b6001600160a01b0316145b6115105760405162461bcd60e51b815260040161054e906124a3565b600a819055604080518181526014918101919091527364656661756c742070726f746f636f6c2066656560601b60608201526020810182905260008051602061265a83398151915290608001611278565b3361156a611a59565b6001600160a01b0316148061158e575033611583611af1565b6001600160a01b0316145b6115aa5760405162461bcd60e51b815260040161054e906124a3565b6001600160a01b03821660008181526008602090815260409182902084905581516060808252600a90820152691b1a5c481c995dd85c9960b21b608082015290810192909252810182905260008051602061267a8339815191529060a0016105b8565b6060600480548060200260200160405190810160405280929190818152602001828054801561142a5760200282019190600052602060002090815481526020019060010190808311611416575050505050905090565b60008061166e611bc6565b90506000612710846116f7846001600160a01b031663fabee7db896040518263ffffffff1660e01b81526004016116a791815260200190565b60206040518083038186803b1580156116bf57600080fd5b505afa1580156116d3573d6000803e3d6000fd5b505050506040513d601f19601f8201168201806040525081019061036e919061209c565b611703906127106125ce565b61170d91906125af565b611717919061258f565b95945050505050565b6002818154811061146c57600080fd5b6004818154811061146c57600080fd5b6003818154811061146c57600080fd5b6060600280548060200260200160405190810160405280929190818152602001828054801561142a5760200282019190600052602060002090815481526020019060010190808311611416575050505050905090565b6060600580548060200260200160405190810160405280929190818152602001828054801561142a5760200282019190600052602060002090815481526020019060010190808311611416575050505050905090565b6000806000611809611bc6565b60405163fabee7db60e01b8152600481018790529091506000906001600160a01b0383169063fabee7db9060240160206040518083038186803b15801561184f57600080fd5b505afa158015611863573d6000803e3d6000fd5b505050506040513d601f19601f82011682018060405250810190611887919061209c565b9050600061189d8287611898611bfe565b611cc4565b905060008682856001600160a01b031663c5c72dc38b6040518263ffffffff1660e01b81526004016118d191815260200190565b60206040518083038186803b1580156118e957600080fd5b505afa1580156118fd573d6000803e3d6000fd5b505050506040513d601f19601f82011682018060405250810190611921919061226c565b61192b91906125af565b611935919061258f565b905060006119438984611663565b604051630358e41160e21b8152600481018b90529091506000906001600160a01b03871690630d6390449060240160206040518083038186803b15801561198957600080fd5b505afa15801561199d573d6000803e3d6000fd5b505050506040513d601f19601f820116820180604052508101906119c1919061226c565b905060006119ce866114a1565b90506000611a466127106119e288856125af565b6119ec919061258f565b6119f686866125ce565b611a0089896125ce565b11611a0c576000611a41565b6064611a1887876125ce565b611a228a8a6125ce565b611a2c91906125ce565b611a379060286125af565b611a41919061258f565b611d6a565b939c939b50929950505050505050505050565b60007f00000000000000000000000000000000000000000000000000000000000000006001600160a01b0316638da5cb5b6040518163ffffffff1660e01b815260040160206040518083038186803b158015611ab457600080fd5b505afa158015611ac8573d6000803e3d6000fd5b505050506040513d601f19601f82011682018060405250810190611aec919061209c565b905090565b60007f00000000000000000000000000000000000000000000000000000000000000006001600160a01b031663c34c08e56040518163ffffffff1660e01b8152600401602060405180830381600087803b158015611b4e57600080fd5b505af1158015611ac8573d6000803e3d6000fd5b60405163b4ed0b6d60e01b81526103e960048201526000907f00000000000000000000000000000000000000000000000000000000000000006001600160a01b03169063b4ed0b6d9060240160206040518083038186803b158015611ab457600080fd5b607760009081526020527f0268ef3855c7ede1fa90865cb7be57f1e39b20db2aafdd81fc63c1af98b87bcb546001600160a01b031690565b606660009081526020527f422cccb7cea5c0e46f340bb7b21b81debac329f72e31669c20ff0f3a05cc2b5b546001600160a01b031690565b606a60009081526020527ff3261457f4fd0b7c00a1511877ab27b74183ac470be8db3a7ecdc64335f6f979546001600160a01b031690565b6110ec8363a9059cbb60e01b8484604051602401611c8d929190612413565b60408051601f198184030181529190526020810180516001600160e01b03166001600160e01b031990931692909217909152611d82565b600080611cd18584611e54565b604051630576cbc360e41b81526001600160a01b0387811660048301526024820187905285811660448301529192509082169063576cbc3090606401602060405180830381600087803b158015611d2757600080fd5b505af1158015611d3b573d6000803e3d6000fd5b505050506040513d601f19601f82011682018060405250810190611d5f919061226c565b9150505b9392505050565b600081831115611d7b57508061149b565b508161149b565b6000611dd7826040518060400160405280602081526020017f5361666545524332303a206c6f772d6c6576656c2063616c6c206661696c6564815250856001600160a01b0316611f089092919063ffffffff16565b8051909150156110ec5780806020019051810190611df59190612234565b6110ec5760405162461bcd60e51b815260206004820152602a60248201527f5361666545524332303a204552433230206f7065726174696f6e20646964206e6044820152691bdd081cdd58d8d9595960b21b606482015260840161054e565b6001600160a01b0380831660009081526007602090815260408083208585168452909152902054168061149b57611e89611c36565b6001600160a01b0316631757616884846040518363ffffffff1660e01b8152600401611eb69291906123a8565b602060405180830381600087803b158015611ed057600080fd5b505af1158015611ee4573d6000803e3d6000fd5b505050506040513d601f19601f82011682018060405250810190611d63919061209c565b6060611f178484600085611f1f565b949350505050565b606082471015611f805760405162461bcd60e51b815260206004820152602660248201527f416464726573733a20696e73756666696369656e742062616c616e636520666f6044820152651c8818d85b1b60d21b606482015260840161054e565b843b611fce5760405162461bcd60e51b815260206004820152601d60248201527f416464726573733a2063616c6c20746f206e6f6e2d636f6e7472616374000000604482015260640161054e565b600080866001600160a01b03168587604051611fea919061238c565b60006040518083038185875af1925050503d8060008114612027576040519150601f19603f3d011682016040523d82523d6000602084013e61202c565b606091505b509150915061203c828286612047565b979650505050505050565b60608315612056575081611d63565b8251156120665782518084602001fd5b8160405162461bcd60e51b815260040161054e9190612470565b600060208284031215612091578081fd5b8135611d6381612641565b6000602082840312156120ad578081fd5b8151611d6381612641565b600080604083850312156120ca578081fd5b82356120d581612641565b915060208301356120e581612641565b809150509250929050565b60008060008060808587031215612105578182fd5b843561211081612641565b9350602085013561212081612641565b92506040850135915060608501356001600160401b0380821115612142578283fd5b818701915087601f830112612155578283fd5b8135818111156121675761216761262b565b604051601f8201601f19908116603f0116810190838211818310171561218f5761218f61262b565b816040528281528a60208487010111156121a7578586fd5b82602086016020830137918201602001949094529598949750929550505050565b600080604083850312156121da578182fd5b82356121e581612641565b946020939093013593505050565b600080600060608486031215612207578283fd5b833561221281612641565b925060208401359150604084013561222981612641565b809150509250925092565b600060208284031215612245578081fd5b81518015158114611d63578182fd5b600060208284031215612265578081fd5b5035919050565b60006020828403121561227d578081fd5b5051919050565b60008060408385031215612296578182fd5b8235915060208301356120e581612641565b600080600080606085870312156122bd578384fd5b8435935060208501356122cf81612641565b925060408501356001600160401b03808211156122ea578384fd5b818701915087601f8301126122fd578384fd5b81358181111561230b578485fd5b88602082850101111561231c578485fd5b95989497505060200194505050565b6000806040838503121561233d578182fd5b50508035926020909101359150565b60008060008060808587031215612361578384fd5b843593506020850135925060408501359150606085013561238181612641565b939692955090935050565b6000825161239e8184602087016125e5565b9190910192915050565b6001600160a01b0392831681529116602082015260400190565b6001600160a01b038681168252851660208201526040810184905260806060820181905281018290526000828460a084013781830160a090810191909152601f909201601f19160101949350505050565b6001600160a01b03929092168252602082015260400190565b6020808252825182820181905260009190848201906040850190845b8181101561246457835183529284019291840191600101612448565b50909695505050505050565b600060208252825180602084015261248f8160408501602087016125e5565b601f01601f19169190910160400192915050565b6020808252602a908201527f526f6c65733a2063616c6c6572206973206e6f7420746865206f776e6572206f604082015269391032bc32b1baba37b960b11b606082015260800190565b6020808252601a9082015279446f6e27742073656e6420746f207a65726f206164647265737360301b604082015260600190565b6020808252601f908201527f5265656e7472616e637947756172643a207265656e7472616e742063616c6c00604082015260600190565b9283526001600160a01b03918216602084015216604082015260600190565b6000821982111561258a5761258a612615565b500190565b6000826125aa57634e487b7160e01b81526012600452602481fd5b500490565b60008160001904831182151516156125c9576125c9612615565b500290565b6000828210156125e0576125e0612615565b500390565b60005b838110156126005781810151838201526020016125e8565b8381111561260f576000848401525b50505050565b634e487b7160e01b600052601160045260246000fd5b634e487b7160e01b600052604160045260246000fd5b6001600160a01b038116811461265657600080fd5b5056fe3a64504f0bc0c335e2aecb78638a257e0351a3fe0370861fd54ee4190b9209332cc0b19d71980380c7a99113dc265ee16b9f7f394e2a42085ab6877482a7f822a2646970667358221220075fa53bf5f416caa5303acc95b0c40e5d7af4af3eda7d44d28331cd523cf5f364736f6c63430008030033",
  "linkReferences": {},
  "deployedLinkReferences": {}
}