{
  "_format": "hh-sol-artifact-1",
  "contractName": "WrapNativeStableLending",
  "sourceName": "contracts/WrapNativeStableLending.sol",
  "abi": [
    {
      "inputs": [
        {
          "internalType": "address",
          "name": "_wrappedNative",
          "type": "address"
        },
        {
          "internalType": "address",
          "name": "_roles",
          "type": "address"
        }
      ],
      "stateMutability": "nonpayable",
      "type": "constructor"
    },
    {
      "anonymous": false,
      "inputs": [
        {
          "indexed": false,
          "internalType": "string",
          "name": "param",
          "type": "string"
        },
        {
          "indexed": false,
          "internalType": "uint256",
          "name": "value",
          "type": "uint256"
        }
      ],
      "name": "ParameterUpdated",
      "type": "event"
    },
    {
      "anonymous": false,
      "inputs": [
        {
          "indexed": false,
          "internalType": "string",
          "name": "param",
          "type": "string"
        },
        {
          "indexed": false,
          "internalType": "address",
          "name": "subject",
          "type": "address"
        },
        {
          "indexed": false,
          "internalType": "uint256",
          "name": "value",
          "type": "uint256"
        }
      ],
      "name": "SubjectParameterUpdated",
      "type": "event"
    },
    {
      "anonymous": false,
      "inputs": [
        {
          "indexed": false,
          "internalType": "string",
          "name": "param",
          "type": "string"
        },
        {
          "indexed": false,
          "internalType": "address",
          "name": "subject",
          "type": "address"
        }
      ],
      "name": "SubjectUpdated",
      "type": "event"
    },
    {
      "stateMutability": "payable",
      "type": "fallback"
    },
    {
      "inputs": [
        {
          "internalType": "uint256",
          "name": "",
          "type": "uint256"
        }
      ],
      "name": "_charactersPlayed",
      "outputs": [
        {
          "internalType": "uint256",
          "name": "",
          "type": "uint256"
        }
      ],
      "stateMutability": "view",
      "type": "function"
    },
    {
      "inputs": [
        {
          "internalType": "uint256",
          "name": "",
          "type": "uint256"
        }
      ],
      "name": "_dependsOnCharacters",
      "outputs": [
        {
          "internalType": "uint256",
          "name": "",
          "type": "uint256"
        }
      ],
      "stateMutability": "view",
      "type": "function"
    },
    {
      "inputs": [
        {
          "internalType": "uint256",
          "name": "",
          "type": "uint256"
        }
      ],
      "name": "_dependsOnRoles",
      "outputs": [
        {
          "internalType": "uint256",
          "name": "",
          "type": "uint256"
        }
      ],
      "stateMutability": "view",
      "type": "function"
    },
    {
      "inputs": [
        {
          "internalType": "uint256",
          "name": "",
          "type": "uint256"
        }
      ],
      "name": "_rolesPlayed",
      "outputs": [
        {
          "internalType": "uint256",
          "name": "",
          "type": "uint256"
        }
      ],
      "stateMutability": "view",
      "type": "function"
    },
    {
      "inputs": [],
      "name": "charactersPlayed",
      "outputs": [
        {
          "internalType": "uint256[]",
          "name": "",
          "type": "uint256[]"
        }
      ],
      "stateMutability": "view",
      "type": "function"
    },
    {
      "inputs": [],
      "name": "dependsOnCharacters",
      "outputs": [
        {
          "internalType": "uint256[]",
          "name": "",
          "type": "uint256[]"
        }
      ],
      "stateMutability": "view",
      "type": "function"
    },
    {
      "inputs": [],
      "name": "dependsOnRoles",
      "outputs": [
        {
          "internalType": "uint256[]",
          "name": "",
          "type": "uint256[]"
        }
      ],
      "stateMutability": "view",
      "type": "function"
    },
    {
      "inputs": [
        {
          "internalType": "uint256",
          "name": "trancheId",
          "type": "uint256"
        },
        {
          "internalType": "uint256",
          "name": "borrowAmount",
          "type": "uint256"
        },
        {
          "internalType": "address",
          "name": "recipient",
          "type": "address"
        }
      ],
      "name": "depositAndBorrow",
      "outputs": [],
      "stateMutability": "payable",
      "type": "function"
    },
    {
      "inputs": [
        {
          "internalType": "uint256",
          "name": "",
          "type": "uint256"
        }
      ],
      "name": "mainCharacterCache",
      "outputs": [
        {
          "internalType": "address",
          "name": "",
          "type": "address"
        }
      ],
      "stateMutability": "view",
      "type": "function"
    },
    {
      "inputs": [
        {
          "internalType": "address",
          "name": "strategy",
          "type": "address"
        },
        {
          "internalType": "uint256",
          "name": "borrowAmount",
          "type": "uint256"
        },
        {
          "internalType": "address",
          "name": "recipient",
          "type": "address"
        }
      ],
      "name": "mintDepositAndBorrow",
      "outputs": [
        {
          "internalType": "uint256",
          "name": "",
          "type": "uint256"
        }
      ],
      "stateMutability": "payable",
      "type": "function"
    },
    {
      "inputs": [
        {
          "internalType": "address",
          "name": "",
          "type": "address"
        },
        {
          "internalType": "address",
          "name": "",
          "type": "address"
        },
        {
          "internalType": "uint256",
          "name": "",
          "type": "uint256"
        },
        {
          "internalType": "bytes",
          "name": "",
          "type": "bytes"
        }
      ],
      "name": "onERC721Received",
      "outputs": [
        {
          "internalType": "bytes4",
          "name": "",
          "type": "bytes4"
        }
      ],
      "stateMutability": "nonpayable",
      "type": "function"
    },
    {
      "inputs": [
        {
          "internalType": "uint256",
          "name": "trancheId",
          "type": "uint256"
        },
        {
          "internalType": "uint256",
          "name": "collateralAmount",
          "type": "uint256"
        },
        {
          "internalType": "uint256",
          "name": "repayAmount",
          "type": "uint256"
        },
        {
          "internalType": "address payable",
          "name": "recipient",
          "type": "address"
        }
      ],
      "name": "repayAndWithdraw",
      "outputs": [],
      "stateMutability": "nonpayable",
      "type": "function"
    },
    {
      "inputs": [
        {
          "internalType": "uint256",
          "name": "amount",
          "type": "uint256"
        },
        {
          "internalType": "address",
          "name": "recipient",
          "type": "address"
        }
      ],
      "name": "rescueNative",
      "outputs": [],
      "stateMutability": "nonpayable",
      "type": "function"
    },
    {
      "inputs": [
        {
          "internalType": "address",
          "name": "token",
          "type": "address"
        },
        {
          "internalType": "uint256",
          "name": "amount",
          "type": "uint256"
        },
        {
          "internalType": "address",
          "name": "recipient",
          "type": "address"
        }
      ],
      "name": "rescueStrandedTokens",
      "outputs": [],
      "stateMutability": "nonpayable",
      "type": "function"
    },
    {
      "inputs": [
        {
          "internalType": "address",
          "name": "",
          "type": "address"
        },
        {
          "internalType": "uint256",
          "name": "",
          "type": "uint256"
        }
      ],
      "name": "roleCache",
      "outputs": [
        {
          "internalType": "bool",
          "name": "",
          "type": "bool"
        }
      ],
      "stateMutability": "view",
      "type": "function"
    },
    {
      "inputs": [],
      "name": "roles",
      "outputs": [
        {
          "internalType": "contract Roles",
          "name": "",
          "type": "address"
        }
      ],
      "stateMutability": "view",
      "type": "function"
    },
    {
      "inputs": [],
      "name": "rolesPlayed",
      "outputs": [
        {
          "internalType": "uint256[]",
          "name": "",
          "type": "uint256[]"
        }
      ],
      "stateMutability": "view",
      "type": "function"
    },
    {
      "inputs": [
        {
          "internalType": "uint256",
          "name": "role",
          "type": "uint256"
        }
      ],
      "name": "updateMainCharacterCache",
      "outputs": [],
      "stateMutability": "nonpayable",
      "type": "function"
    },
    {
      "inputs": [
        {
          "internalType": "uint256",
          "name": "role",
          "type": "uint256"
        },
        {
          "internalType": "address",
          "name": "contr",
          "type": "address"
        }
      ],
      "name": "updateRoleCache",
      "outputs": [],
      "stateMutability": "nonpayable",
      "type": "function"
    },
    {
      "inputs": [],
      "name": "wrappedNative",
      "outputs": [
        {
          "internalType": "contract IWETH",
          "name": "",
          "type": "address"
        }
      ],
      "stateMutability": "view",
      "type": "function"
    },
    {
      "stateMutability": "payable",
      "type": "receive"
    }
  ],
  "bytecode": "0x60c06040523480156200001157600080fd5b5060405162001c9b38038062001c9b833981016040819052620000349162000163565b60028054600181810183556000839052606f7f405787fa12a823e0f2b7631cc41b3ba8828b3321ca811111fa75cd3aa3bb5ace9283015582549081019092556066910155806001600160a01b038116620000df5760405162461bcd60e51b815260206004820152602260248201527f506c656173652070726f766964652076616c696420726f6c6573206164647265604482015261737360f01b606482015260840160405180910390fd5b6001600160601b0319606091821b8116608052600580546001818101835560008390527f036b6384b5eca791c62761152d0c79bb0604c104a5fb6f4eb0703f3154bb3db09182018390558254908101909255600291015592901b90911660a052506200019a565b80516001600160a01b03811681146200015e57600080fd5b919050565b6000806040838503121562000176578182fd5b620001818362000146565b9150620001916020840162000146565b90509250929050565b60805160601c60a05160601c611a816200021a600039600081816103bb015281816108fb015281816109ed01528181610aaa01528181610cea01528181610de601528181610f4d01528181610fcb015261101701526000818161019701528181610406015281816105800152818161113701526111cf0152611a816000f3fe6080604052600436106100f35760003560e01c8063071060a6146100fc578063150b7a021461011c57806318af4c9e14610165578063392f5f6414610185578063447d52ba146101c657806349d4f22e146101e65780634a7a7f41146102065780636caa9c111461022857806379bc3efa146102565780637a1a04df146102765780637dad209b146102c1578063abb3eb6a146102d6578063abcbc4fc146102e9578063aeb38d8b14610309578063bf184ea414610329578063dc94cb7d14610349578063e8ea4fae1461035e578063e9c3f77d14610373578063eb6d3a11146103a9578063f997626d146103dd576100fa565b366100fa57005b005b34801561010857600080fd5b506100fa610117366004611749565b6103f0565b34801561012857600080fd5b506101476101373660046115e5565b630a85bd0160e11b949350505050565b6040516001600160e01b031990911681526020015b60405180910390f35b34801561017157600080fd5b506100fa610180366004611779565b6104b6565b34801561019157600080fd5b506101b97f000000000000000000000000000000000000000000000000000000000000000081565b60405161015c9190611831565b3480156101d257600080fd5b506100fa6101e1366004611779565b610569565b3480156101f257600080fd5b506100fa6102013660046116e8565b61063f565b34801561021257600080fd5b5061021b6106c2565b60405161015c919061185e565b34801561023457600080fd5b50610248610243366004611749565b61071a565b60405190815260200161015c565b34801561026257600080fd5b506100fa6102713660046117d5565b61073b565b34801561028257600080fd5b506102b16102913660046116bd565b600160209081526000928352604080842090915290825290205460ff1681565b604051901515815260200161015c565b3480156102cd57600080fd5b5061021b610beb565b6100fa6102e43660046117a8565b610c41565b3480156102f557600080fd5b50610248610304366004611749565b610e6d565b34801561031557600080fd5b50610248610324366004611749565b610e7d565b34801561033557600080fd5b50610248610344366004611749565b610e8d565b34801561035557600080fd5b5061021b610e9d565b34801561036a57600080fd5b5061021b610ef3565b34801561037f57600080fd5b506101b961038e366004611749565b6000602081905290815260409020546001600160a01b031681565b3480156103b557600080fd5b506101b97f000000000000000000000000000000000000000000000000000000000000000081565b6102486103eb3660046116e8565b610f49565b60405163b4ed0b6d60e01b8152600481018290527f00000000000000000000000000000000000000000000000000000000000000006001600160a01b03169063b4ed0b6d9060240160206040518083038186803b15801561045057600080fd5b505afa158015610464573d6000803e3d6000fd5b505050506040513d601f19601f8201168201806040525081019061048891906115c9565b60009182526020829052604090912080546001600160a01b0319166001600160a01b03909216919091179055565b336104bf611133565b6001600160a01b031614806104e35750336104d86111cb565b6001600160a01b0316145b6105085760405162461bcd60e51b81526004016104ff906118d5565b60405180910390fd5b6001600160a01b03811661052e5760405162461bcd60e51b81526004016104ff9061191f565b6040516001600160a01b0382169083156108fc029084906000818181858888f19350505050158015610564573d6000803e3d6000fd5b505050565b60405163f0723d9760e01b81526001600160a01b037f0000000000000000000000000000000000000000000000000000000000000000169063f0723d97906105b79084908690600401611845565b60206040518083038186803b1580156105cf57600080fd5b505afa1580156105e3573d6000803e3d6000fd5b505050506040513d601f19601f820116820180604052508101906106079190611729565b6001600160a01b0391909116600090815260016020908152604080832094835293905291909120805460ff1916911515919091179055565b33610648611133565b6001600160a01b0316148061066c5750336106616111cb565b6001600160a01b0316145b6106885760405162461bcd60e51b81526004016104ff906118d5565b6001600160a01b0381166106ae5760405162461bcd60e51b81526004016104ff9061191f565b6105646001600160a01b038416828461123c565b6060600380548060200260200160405190810160405280929190818152602001828054801561071057602002820191906000526020600020905b8154815260200190600101908083116106fc575b5050505050905090565b6005818154811061072a57600080fd5b600091825260209091200154905081565b6000610745611292565b6040516302972b0f60e41b81529091506001600160a01b03821690632972b0f0906107769033908990600401611845565b60206040518083038186803b15801561078e57600080fd5b505afa1580156107a2573d6000803e3d6000fd5b505050506040513d601f19601f820116820180604052508101906107c69190611729565b6107e25760405162461bcd60e51b81526004016104ff90611953565b600061081f606660009081526020527f422cccb7cea5c0e46f340bb7b21b81debac329f72e31669c20ff0f3a05cc2b5b546001600160a01b031690565b604051632770a7eb60e21b81529091506001600160a01b03821690639dc29fac906108509033908890600401611845565b600060405180830381600087803b15801561086a57600080fd5b505af115801561087e573d6000803e3d6000fd5b50506040516340c10f1960e01b81526001600160a01b03841692506340c10f1991506108b09030908890600401611845565b600060405180830381600087803b1580156108ca57600080fd5b505af11580156108de573d6000803e3d6000fd5b50506040516370a0823160e01b8152600092506001600160a01b037f00000000000000000000000000000000000000000000000000000000000000001691506370a0823190610931903090600401611831565b60206040518083038186803b15801561094957600080fd5b505afa15801561095d573d6000803e3d6000fd5b505050506040513d601f19601f820116820180604052508101906109819190611761565b604051633cde1f7d60e11b81529091506001600160a01b038416906379bc3efa906109b6908a908a908a903090600401611988565b600060405180830381600087803b1580156109d057600080fd5b505af11580156109e4573d6000803e3d6000fd5b505050506000817f00000000000000000000000000000000000000000000000000000000000000006001600160a01b03166370a08231306040518263ffffffff1660e01b8152600401610a379190611831565b60206040518083038186803b158015610a4f57600080fd5b505afa158015610a63573d6000803e3d6000fd5b505050506040513d601f19601f82011682018060405250810190610a879190611761565b610a9191906119c4565b604051632e1a7d4d60e01b8152600481018290529091507f00000000000000000000000000000000000000000000000000000000000000006001600160a01b031690632e1a7d4d90602401600060405180830381600087803b158015610af657600080fd5b505af1158015610b0a573d6000803e3d6000fd5b50506040516001600160a01b038816925083156108fc02915083906000818181858888f19350505050158015610b44573d6000803e3d6000fd5b506040516370a0823160e01b81526000906001600160a01b038516906370a0823190610b74903090600401611831565b60206040518083038186803b158015610b8c57600080fd5b505afa158015610ba0573d6000803e3d6000fd5b505050506040513d601f19601f82011682018060405250810190610bc49190611761565b90508015610be057610be06001600160a01b038516878361123c565b505050505050505050565b6060600480548060200260200160405190810160405280929190818152602001828054801561071057602002820191906000526020600020908154815260200190600101908083116106fc575050505050905090565b6000610c4b611292565b6040516302972b0f60e41b81529091506001600160a01b03821690632972b0f090610c7c9033908890600401611845565b60206040518083038186803b158015610c9457600080fd5b505afa158015610ca8573d6000803e3d6000fd5b505050506040513d601f19601f82011682018060405250810190610ccc9190611729565b610ce85760405162461bcd60e51b81526004016104ff90611953565b7f00000000000000000000000000000000000000000000000000000000000000006001600160a01b031663d0e30db0346040518263ffffffff1660e01b81526004016000604051808303818588803b158015610d4357600080fd5b505af1158015610d57573d6000803e3d6000fd5b5050604051631d3a0ffd60e31b815260048101889052600093506001600160a01b038516925063e9d07fe8915060240160206040518083038186803b158015610d9f57600080fd5b505afa158015610db3573d6000803e3d6000fd5b505050506040513d601f19601f82011682018060405250810190610dd791906115c9565b9050610e0d6001600160a01b037f00000000000000000000000000000000000000000000000000000000000000001682346112ca565b60405163621fdd3760e01b81526001600160a01b0383169063621fdd3790610e3f908890349089908990600401611988565b600060405180830381600087803b158015610e5957600080fd5b505af1158015610be0573d6000803e3d6000fd5b6002818154811061072a57600080fd5b6004818154811061072a57600080fd5b6003818154811061072a57600080fd5b6060600280548060200260200160405190810160405280929190818152602001828054801561071057602002820191906000526020600020908154815260200190600101908083116106fc575050505050905090565b6060600580548060200260200160405190810160405280929190818152602001828054801561071057602002820191906000526020600020908154815260200190600101908083116106fc575050505050905090565b60007f00000000000000000000000000000000000000000000000000000000000000006001600160a01b031663d0e30db0346040518263ffffffff1660e01b81526004016000604051808303818588803b158015610fa657600080fd5b505af1158015610fba573d6000803e3d6000fd5b50610ff69350506001600160a01b037f0000000000000000000000000000000000000000000000000000000000000000169150869050346112ca565b6000611000611292565b6040516304c7e76760e01b81526001600160a01b037f00000000000000000000000000000000000000000000000000000000000000008116600483015287811660248301523460448301526064820187905285811660848301529192506000918316906304c7e7679060a401602060405180830381600087803b15801561108657600080fd5b505af115801561109a573d6000803e3d6000fd5b505050506040513d601f19601f820116820180604052508101906110be9190611761565b604051632142170760e11b8152306004820152336024820152604481018290529091506001600160a01b038316906342842e0e90606401600060405180830381600087803b15801561110f57600080fd5b505af1158015611123573d6000803e3d6000fd5b50929450505050505b9392505050565b60007f00000000000000000000000000000000000000000000000000000000000000006001600160a01b0316638da5cb5b6040518163ffffffff1660e01b815260040160206040518083038186803b15801561118e57600080fd5b505afa1580156111a2573d6000803e3d6000fd5b505050506040513d601f19601f820116820180604052508101906111c691906115c9565b905090565b60007f00000000000000000000000000000000000000000000000000000000000000006001600160a01b031663c34c08e56040518163ffffffff1660e01b8152600401602060405180830381600087803b15801561122857600080fd5b505af11580156111a2573d6000803e3d6000fd5b6105648363a9059cbb60e01b848460405160240161125b929190611845565b60408051601f198184030181529190526020810180516001600160e01b03166001600160e01b03199093169290921790915261137f565b606f60009081526020527fd4a194d790fcc0f5af64ad0623a90db8616ce232c92824f4b3df27138fd65b44546001600160a01b031690565b604051636eb1769f60e11b81523060048201526001600160a01b038381166024830152600091839186169063dd62ed3e9060440160206040518083038186803b15801561131657600080fd5b505afa15801561132a573d6000803e3d6000fd5b505050506040513d601f19601f8201168201806040525081019061134e9190611761565b61135891906119ac565b90506113798463095ea7b360e01b858460405160240161125b929190611845565b50505050565b60006113d4826040518060400160405280602081526020017f5361666545524332303a206c6f772d6c6576656c2063616c6c206661696c6564815250856001600160a01b03166114519092919063ffffffff16565b80519091501561056457808060200190518101906113f29190611729565b6105645760405162461bcd60e51b815260206004820152602a60248201527f5361666545524332303a204552433230206f7065726174696f6e20646964206e6044820152691bdd081cdd58d8d9595960b21b60648201526084016104ff565b60606114608484600085611468565b949350505050565b6060824710156114c95760405162461bcd60e51b815260206004820152602660248201527f416464726573733a20696e73756666696369656e742062616c616e636520666f6044820152651c8818d85b1b60d21b60648201526084016104ff565b843b6115175760405162461bcd60e51b815260206004820152601d60248201527f416464726573733a2063616c6c20746f206e6f6e2d636f6e747261637400000060448201526064016104ff565b600080866001600160a01b031685876040516115339190611815565b60006040518083038185875af1925050503d8060008114611570576040519150601f19603f3d011682016040523d82523d6000602084013e611575565b606091505b5091509150611585828286611590565b979650505050505050565b6060831561159f57508161112c565b8251156115af5782518084602001fd5b8160405162461bcd60e51b81526004016104ff91906118a2565b6000602082840312156115da578081fd5b815161112c81611a33565b600080600080608085870312156115fa578283fd5b843561160581611a33565b9350602085013561161581611a33565b92506040850135915060608501356001600160401b0380821115611637578283fd5b818701915087601f83011261164a578283fd5b81358181111561165c5761165c611a1d565b604051601f8201601f19908116603f0116810190838211818310171561168457611684611a1d565b816040528281528a602084870101111561169c578586fd5b82602086016020830137918201602001949094529598949750929550505050565b600080604083850312156116cf578182fd5b82356116da81611a33565b946020939093013593505050565b6000806000606084860312156116fc578283fd5b833561170781611a33565b925060208401359150604084013561171e81611a33565b809150509250925092565b60006020828403121561173a578081fd5b8151801515811461112c578182fd5b60006020828403121561175a578081fd5b5035919050565b600060208284031215611772578081fd5b5051919050565b6000806040838503121561178b578182fd5b82359150602083013561179d81611a33565b809150509250929050565b6000806000606084860312156117bc578283fd5b8335925060208401359150604084013561171e81611a33565b600080600080608085870312156117ea578384fd5b843593506020850135925060408501359150606085013561180a81611a33565b939692955090935050565b600082516118278184602087016119db565b9190910192915050565b6001600160a01b0391909116815260200190565b6001600160a01b03929092168252602082015260400190565b6020808252825182820181905260009190848201906040850190845b818110156118965783518352928401929184019160010161187a565b50909695505050505050565b60006020825282518060208401526118c18160408501602087016119db565b601f01601f19169190910160400192915050565b6020808252602a908201527f526f6c65733a2063616c6c6572206973206e6f7420746865206f776e6572206f604082015269391032bc32b1baba37b960b11b606082015260800190565b6020808252601a9082015279446f6e27742073656e6420746f207a65726f206164647265737360301b604082015260600190565b6020808252818101527f4e6f7420617574686f72697a656420746f207769746864726177207969656c64604082015260600190565b938452602084019290925260408301526001600160a01b0316606082015260800190565b600082198211156119bf576119bf611a07565b500190565b6000828210156119d6576119d6611a07565b500390565b60005b838110156119f65781810151838201526020016119de565b838111156113795750506000910152565b634e487b7160e01b600052601160045260246000fd5b634e487b7160e01b600052604160045260246000fd5b6001600160a01b0381168114611a4857600080fd5b5056fea2646970667358221220f0b45792a496c6118409733c40c9ccf9cb2c5cee170ce9293955b5adcc4b8cd664736f6c63430008030033",
  "linkReferences": {},
  "deployedLinkReferences": {}
}