{
  "_format": "hh-sol-artifact-1",
  "contractName": "LPTFlashStable2Liquidation",
  "sourceName": "contracts/liquidation/LPTFlashStable2Liquidation.sol",
  "abi": [
    {
      "inputs": [
        {
          "internalType": "address",
          "name": "_wrappedNative",
          "type": "address"
        },
        {
          "internalType": "address",
          "name": "_defaultStable",
          "type": "address"
        },
        {
          "internalType": "address[]",
          "name": "stables",
          "type": "address[]"
        },
        {
          "internalType": "address",
          "name": "_roles",
          "type": "address"
        }
      ],
      "stateMutability": "nonpayable",
      "type": "constructor"
    },
    {
      "anonymous": false,
      "inputs": [
        {
          "indexed": false,
          "internalType": "string",
          "name": "param",
          "type": "string"
        },
        {
          "indexed": false,
          "internalType": "uint256",
          "name": "value",
          "type": "uint256"
        }
      ],
      "name": "ParameterUpdated",
      "type": "event"
    },
    {
      "anonymous": false,
      "inputs": [
        {
          "indexed": false,
          "internalType": "string",
          "name": "param",
          "type": "string"
        },
        {
          "indexed": false,
          "internalType": "address",
          "name": "subject",
          "type": "address"
        },
        {
          "indexed": false,
          "internalType": "uint256",
          "name": "value",
          "type": "uint256"
        }
      ],
      "name": "SubjectParameterUpdated",
      "type": "event"
    },
    {
      "anonymous": false,
      "inputs": [
        {
          "indexed": false,
          "internalType": "string",
          "name": "param",
          "type": "string"
        },
        {
          "indexed": false,
          "internalType": "address",
          "name": "subject",
          "type": "address"
        }
      ],
      "name": "SubjectUpdated",
      "type": "event"
    },
    {
      "inputs": [
        {
          "internalType": "uint256",
          "name": "",
          "type": "uint256"
        }
      ],
      "name": "_charactersPlayed",
      "outputs": [
        {
          "internalType": "uint256",
          "name": "",
          "type": "uint256"
        }
      ],
      "stateMutability": "view",
      "type": "function"
    },
    {
      "inputs": [
        {
          "internalType": "uint256",
          "name": "",
          "type": "uint256"
        }
      ],
      "name": "_dependsOnCharacters",
      "outputs": [
        {
          "internalType": "uint256",
          "name": "",
          "type": "uint256"
        }
      ],
      "stateMutability": "view",
      "type": "function"
    },
    {
      "inputs": [
        {
          "internalType": "uint256",
          "name": "",
          "type": "uint256"
        }
      ],
      "name": "_dependsOnRoles",
      "outputs": [
        {
          "internalType": "uint256",
          "name": "",
          "type": "uint256"
        }
      ],
      "stateMutability": "view",
      "type": "function"
    },
    {
      "inputs": [
        {
          "internalType": "address",
          "name": "",
          "type": "address"
        },
        {
          "internalType": "address",
          "name": "",
          "type": "address"
        }
      ],
      "name": "_oracleCache",
      "outputs": [
        {
          "internalType": "address",
          "name": "",
          "type": "address"
        }
      ],
      "stateMutability": "view",
      "type": "function"
    },
    {
      "inputs": [
        {
          "internalType": "uint256",
          "name": "",
          "type": "uint256"
        }
      ],
      "name": "_rolesPlayed",
      "outputs": [
        {
          "internalType": "uint256",
          "name": "",
          "type": "uint256"
        }
      ],
      "stateMutability": "view",
      "type": "function"
    },
    {
      "inputs": [],
      "name": "charactersPlayed",
      "outputs": [
        {
          "internalType": "uint256[]",
          "name": "",
          "type": "uint256[]"
        }
      ],
      "stateMutability": "view",
      "type": "function"
    },
    {
      "inputs": [],
      "name": "dependsOnCharacters",
      "outputs": [
        {
          "internalType": "uint256[]",
          "name": "",
          "type": "uint256[]"
        }
      ],
      "stateMutability": "view",
      "type": "function"
    },
    {
      "inputs": [],
      "name": "dependsOnRoles",
      "outputs": [
        {
          "internalType": "uint256[]",
          "name": "",
          "type": "uint256[]"
        }
      ],
      "stateMutability": "view",
      "type": "function"
    },
    {
      "inputs": [
        {
          "internalType": "uint256",
          "name": "trancheId",
          "type": "uint256"
        },
        {
          "internalType": "address",
          "name": "router",
          "type": "address"
        },
        {
          "internalType": "address",
          "name": "recipient",
          "type": "address"
        }
      ],
      "name": "liquidate",
      "outputs": [],
      "stateMutability": "nonpayable",
      "type": "function"
    },
    {
      "inputs": [
        {
          "internalType": "uint256",
          "name": "",
          "type": "uint256"
        }
      ],
      "name": "mainCharacterCache",
      "outputs": [
        {
          "internalType": "address",
          "name": "",
          "type": "address"
        }
      ],
      "stateMutability": "view",
      "type": "function"
    },
    {
      "inputs": [
        {
          "internalType": "address",
          "name": "token",
          "type": "address"
        },
        {
          "internalType": "address",
          "name": "pegCurrency",
          "type": "address"
        }
      ],
      "name": "newCurrentOracle",
      "outputs": [],
      "stateMutability": "nonpayable",
      "type": "function"
    },
    {
      "inputs": [
        {
          "internalType": "address",
          "name": "",
          "type": "address"
        },
        {
          "internalType": "address",
          "name": "",
          "type": "address"
        },
        {
          "internalType": "uint256",
          "name": "amount",
          "type": "uint256"
        },
        {
          "internalType": "uint256",
          "name": "",
          "type": "uint256"
        },
        {
          "internalType": "bytes",
          "name": "data",
          "type": "bytes"
        }
      ],
      "name": "onFlashLoan",
      "outputs": [
        {
          "internalType": "bytes32",
          "name": "",
          "type": "bytes32"
        }
      ],
      "stateMutability": "nonpayable",
      "type": "function"
    },
    {
      "inputs": [],
      "name": "resetApproval",
      "outputs": [],
      "stateMutability": "nonpayable",
      "type": "function"
    },
    {
      "inputs": [
        {
          "internalType": "address",
          "name": "",
          "type": "address"
        },
        {
          "internalType": "uint256",
          "name": "",
          "type": "uint256"
        }
      ],
      "name": "roleCache",
      "outputs": [
        {
          "internalType": "bool",
          "name": "",
          "type": "bool"
        }
      ],
      "stateMutability": "view",
      "type": "function"
    },
    {
      "inputs": [],
      "name": "roles",
      "outputs": [
        {
          "internalType": "contract Roles",
          "name": "",
          "type": "address"
        }
      ],
      "stateMutability": "view",
      "type": "function"
    },
    {
      "inputs": [],
      "name": "rolesPlayed",
      "outputs": [
        {
          "internalType": "uint256[]",
          "name": "",
          "type": "uint256[]"
        }
      ],
      "stateMutability": "view",
      "type": "function"
    },
    {
      "inputs": [
        {
          "internalType": "address",
          "name": "",
          "type": "address"
        }
      ],
      "name": "stableIndices",
      "outputs": [
        {
          "internalType": "int128",
          "name": "",
          "type": "int128"
        }
      ],
      "stateMutability": "view",
      "type": "function"
    },
    {
      "inputs": [
        {
          "internalType": "uint256",
          "name": "role",
          "type": "uint256"
        }
      ],
      "name": "updateMainCharacterCache",
      "outputs": [],
      "stateMutability": "nonpayable",
      "type": "function"
    },
    {
      "inputs": [
        {
          "internalType": "uint256",
          "name": "role",
          "type": "uint256"
        },
        {
          "internalType": "address",
          "name": "contr",
          "type": "address"
        }
      ],
      "name": "updateRoleCache",
      "outputs": [],
      "stateMutability": "nonpayable",
      "type": "function"
    }
  ],
  "bytecode": "0x60e0604052600880546001600160a01b031990811673a7d7079b0fead91f3e65f86e8915cb59c1a4c66417909155600980549091167373256ec7575d999c360c1eec118ecbefd8da7d121790553480156200005957600080fd5b506040516200293c3803806200293c8339810160408190526200007c916200040f565b83838383806001600160a01b038116620000e75760405162461bcd60e51b815260206004820152602260248201527f506c656173652070726f766964652076616c696420726f6c6573206164647265604482015261737360f01b606482015260840160405180910390fd5b60601b6001600160601b031916608052600280546001808201835560667f405787fa12a823e0f2b7631cc41b3ba8828b3321ca811111fa75cd3aa3bb5ace92830181905583548083018555607790840155835480830185556078908401558354808301909455606a9390920192909255600580549283018155600090815260047f036b6384b5eca791c62761152d0c79bb0604c104a5fb6f4eb0703f3154bb3db090930183905560405163b4ed0b6d60e01b815292830191909152906001600160a01b0383169063b4ed0b6d9060240160206040518083038186803b158015620001d057600080fd5b505afa158015620001e5573d6000803e3d6000fd5b505050506040513d601f19601f820116820180604052508101906200020b9190620003eb565b60405163095ea7b360e01b81526001600160a01b03821660048201819052600019602483015291925063095ea7b390604401602060405180830381600087803b1580156200025857600080fd5b505af11580156200026d573d6000803e3d6000fd5b505050506040513d601f19601f820116820180604052508101906200029391906200051e565b5060025b8084516002620002a8919062000540565b11156200034657806007600086620002c26002856200055b565b81518110620002e157634e487b7160e01b600052603260045260246000fd5b60200260200101516001600160a01b03166001600160a01b0316815260200190815260200160002060006101000a8154816001600160801b030219169083600f0b6001600160801b0316021790555080806200033d9062000575565b91505062000297565b506001600160a01b0316600090815260076020526040812080546001600160801b03191660019081179091556001600160601b0319606096871b811660a0529490951b90931660c0525050600480549283018155905260cc7f8a35acfbc15ff81a39ae7d344fd709f28e8600b4aa8c65c6b64bfe7fe36bd19b9091015550620005bf92505050565b80516001600160a01b0381168114620003e657600080fd5b919050565b600060208284031215620003fd578081fd5b6200040882620003ce565b9392505050565b6000806000806080858703121562000425578283fd5b6200043085620003ce565b9350602062000441818701620003ce565b60408701519094506001600160401b03808211156200045e578485fd5b818801915088601f83011262000472578485fd5b815181811115620004875762000487620005a9565b8060051b604051601f19603f83011681018181108582111715620004af57620004af620005a9565b604052828152858101935084860182860187018d1015620004ce578889fd5b8895505b83861015620004fb57620004e681620003ce565b855260019590950194938601938601620004d2565b508097505050505050506200051360608601620003ce565b905092959194509250565b60006020828403121562000530578081fd5b8151801515811462000408578182fd5b6000821982111562000556576200055662000593565b500190565b60008282101562000570576200057062000593565b500390565b60006000198214156200058c576200058c62000593565b5060010190565b634e487b7160e01b600052601160045260246000fd5b634e487b7160e01b600052604160045260246000fd5b60805160601c60a05160601c60c05160601c61232f6200060d60003960006114f1015260008181611514015261165a0152600081816101a5015281816108680152610b7d015261232f6000f3fe608060405234801561001057600080fd5b50600436106100f15760003560e01c8063060336ec146100f6578063071060a61461010b57806323e30c8b1461011e5780632642b6061461014457806328f3fc7314610185578063330b8b7114610198578063392f5f64146101a0578063447d52ba146101c75780634a7a7f41146101da5780636caa9c11146101ef5780637a1a04df146102025780637dad209b14610240578063abcbc4fc14610248578063aeb38d8b1461025b578063bf184ea41461026e578063dc94cb7d14610281578063e8ea4fae14610289578063e9c3f77d14610291578063f389299e146102ba575b600080fd5b610109610104366004611f78565b6102f0565b005b610109610119366004611f24565b610852565b61013161012c366004611d76565b610918565b6040519081526020015b60405180910390f35b610178610152366004611d3e565b60066020908152600092835260408084209091529082529020546001600160a01b031681565b60405161013b91906120b0565b610109610193366004611d3e565b6109e4565b610109610ad7565b6101787f000000000000000000000000000000000000000000000000000000000000000081565b6101096101d5366004611f54565b610b66565b6101e2610c3c565b60405161013b919061214b565b6101316101fd366004611f24565b610c94565b610230610210366004611e1a565b600160209081526000928352604080842090915290825290205460ff1681565b604051901515815260200161013b565b6101e2610cb5565b610131610256366004611f24565b610d0b565b610131610269366004611f24565b610d1b565b61013161027c366004611f24565b610d2b565b6101e2610d3b565b6101e2610d91565b61017861029f366004611f24565b6000602081905290815260409020546001600160a01b031681565b6102dd6102c8366004611d06565b600760205260009081526040902054600f0b81565b604051600f9190910b815260200161013b565b600061032d607760009081526020527f0268ef3855c7ede1fa90865cb7be57f1e39b20db2aafdd81fc63c1af98b87bcb546001600160a01b031690565b60405163fabee7db60e01b8152600481018690529091506000906001600160a01b0383169063fabee7db9060240160206040518083038186803b15801561037357600080fd5b505afa158015610387573d6000803e3d6000fd5b505050506040513d601f19601f820116820180604052508101906103ab9190611d22565b905060006103b7610de7565b60405163c5c72dc360e01b8152600481018890529091506000906001600160a01b0385169063c5c72dc39060240160206040518083038186803b1580156103fd57600080fd5b505afa158015610411573d6000803e3d6000fd5b505050506040513d601f19601f820116820180604052508101906104359190611f3c565b90506000610444848385610e1f565b9050600080610451610ec5565b6001600160a01b03166315c2ba50876040518263ffffffff1660e01b815260040161047c91906120b0565b60206040518083038186803b15801561049457600080fd5b505afa1580156104a8573d6000803e3d6000fd5b505050506040513d601f19601f820116820180604052508101906104cc9190611f3c565b60405163fd80d0c360e01b8152600481018c90526001600160a01b03878116602483015291925060009189169063fd80d0c39060440160206040518083038186803b15801561051a57600080fd5b505afa15801561052e573d6000803e3d6000fd5b505050506040513d601f19601f820116820180604052508101906105529190611f3c565b604051630358e41160e21b8152600481018d90529091506000906001600160a01b038a1690630d6390449060240160206040518083038186803b15801561059857600080fd5b505afa1580156105ac573d6000803e3d6000fd5b505050506040513d601f19601f820116820180604052508101906105d09190611f3c565b90508082116105e8576105e38282612272565b6105eb565b60005b905060026105fb84612710612272565b6106058786612253565b61061184612710612253565b61061b9190612272565b6106259190612233565b61062f908361221b565b6106399190612233565b9350505050836001600160a01b0316635cffe9de30866103d861065a610efd565b6001600160a01b031663929460f48f886040518363ffffffff1660e01b8152600401610690929190918252602082015260400190565b60206040518083038186803b1580156106a857600080fd5b505afa1580156106bc573d6000803e3d6000fd5b505050506040513d601f19601f820116820180604052508101906106e09190611f3c565b6106ec906103e8612253565b6106f69190612233565b8d87610702888b612253565b61070c9190612233565b6040805160208101939093528201526001600160a01b03808c1660608301528e16608082015260a0016040516020818303038152906040526040518563ffffffff1660e01b8152600401610763949392919061218f565b602060405180830381600087803b15801561077d57600080fd5b505af1158015610791573d6000803e3d6000fd5b505050506040513d601f19601f820116820180604052508101906107b59190611f04565b5061084787856001600160a01b03166370a08231306040518263ffffffff1660e01b81526004016107e691906120b0565b60206040518083038186803b1580156107fe57600080fd5b505afa158015610812573d6000803e3d6000fd5b505050506040513d601f19601f820116820180604052508101906108369190611f3c565b6001600160a01b0387169190610f35565b505050505050505050565b60405163b4ed0b6d60e01b8152600481018290527f00000000000000000000000000000000000000000000000000000000000000006001600160a01b03169063b4ed0b6d9060240160206040518083038186803b1580156108b257600080fd5b505afa1580156108c6573d6000803e3d6000fd5b505050506040513d601f19601f820116820180604052508101906108ea9190611d22565b60009182526020829052604090912080546001600160a01b0319166001600160a01b03909216919091179055565b60008080808061092a86880188611fdc565b935093509350935061093a610efd565b60405163032c65d760e21b81526004810186905260248101859052604481018b90523060648201526001600160a01b039190911690630cb1975c90608401600060405180830381600087803b15801561099257600080fd5b505af11580156109a6573d6000803e3d6000fd5b505050506109b48282610f90565b507f439148f0bbc682ca079e46d6e2c2f0c1e3b820f1a291b069d8882abf8cf18dd99a9950505050505050505050565b6001600160a01b03828116600090815260066020908152604080832085851684529091529020541615610ad357610a19610ec5565b6001600160a01b0316635e73a03483836040518363ffffffff1660e01b8152600401610a469291906120c4565b60206040518083038186803b158015610a5e57600080fd5b505afa158015610a72573d6000803e3d6000fd5b505050506040513d601f19601f82011682018060405250810190610a969190611d22565b6001600160a01b0383811660009081526006602090815260408083208685168452909152902080546001600160a01b031916929091169190911790555b5050565b6000610ae1610de7565b60405163095ea7b360e01b81529091506001600160a01b0382169063095ea7b390610b14908490600019906004016120de565b602060405180830381600087803b158015610b2e57600080fd5b505af1158015610b42573d6000803e3d6000fd5b505050506040513d601f19601f82011682018060405250810190610ad39190611f04565b60405163f0723d9760e01b81526001600160a01b037f0000000000000000000000000000000000000000000000000000000000000000169063f0723d9790610bb490849086906004016120de565b60206040518083038186803b158015610bcc57600080fd5b505afa158015610be0573d6000803e3d6000fd5b505050506040513d601f19601f82011682018060405250810190610c049190611f04565b6001600160a01b0391909116600090815260016020908152604080832094835293905291909120805460ff1916911515919091179055565b60606003805480602002602001604051908101604052809291908181526020018280548015610c8a57602002820191906000526020600020905b815481526020019060010190808311610c76575b5050505050905090565b60058181548110610ca457600080fd5b600091825260209091200154905081565b60606004805480602002602001604051908101604052809291908181526020018280548015610c8a5760200282019190600052602060002090815481526020019060010190808311610c76575050505050905090565b60028181548110610ca457600080fd5b60048181548110610ca457600080fd5b60038181548110610ca457600080fd5b60606002805480602002602001604051908101604052809291908181526020018280548015610c8a5760200282019190600052602060002090815481526020019060010190808311610c76575050505050905090565b60606005805480602002602001604051908101604052809291908181526020018280548015610c8a5760200282019190600052602060002090815481526020019060010190808311610c76575050505050905090565b606660009081526020527f422cccb7cea5c0e46f340bb7b21b81debac329f72e31669c20ff0f3a05cc2b5b546001600160a01b031690565b600080610e2c85846111f1565b604051630576cbc360e41b81526001600160a01b0387811660048301526024820187905285811660448301529192509082169063576cbc3090606401602060405180830381600087803b158015610e8257600080fd5b505af1158015610e96573d6000803e3d6000fd5b505050506040513d601f19601f82011682018060405250810190610eba9190611f3c565b9150505b9392505050565b606a60009081526020527ff3261457f4fd0b7c00a1511877ab27b74183ac470be8db3a7ecdc64335f6f979546001600160a01b031690565b607860009081526020527f9fdc47a4dc677ac109a2707b2ba7a0ffa79dac07a74cd31f7e4a5082892891be546001600160a01b031690565b610f8b8363a9059cbb60e01b8484604051602401610f549291906120de565b60408051601f198184030181529190526020810180516001600160e01b03166001600160e01b0319909316929092179091526112ae565b505050565b6000826001600160a01b0316630dfe16816040518163ffffffff1660e01b815260040160206040518083038186803b158015610fcb57600080fd5b505afa158015610fdf573d6000803e3d6000fd5b505050506040513d601f19601f820116820180604052508101906110039190611d22565b90506000836001600160a01b031663d21220a76040518163ffffffff1660e01b815260040160206040518083038186803b15801561104057600080fd5b505afa158015611054573d6000803e3d6000fd5b505050506040513d601f19601f820116820180604052508101906110789190611d22565b90506000846001600160a01b03166370a08231306040518263ffffffff1660e01b81526004016110a891906120b0565b60206040518083038186803b1580156110c057600080fd5b505afa1580156110d4573d6000803e3d6000fd5b505050506040513d601f19601f820116820180604052508101906110f89190611f3c565b905061110e6001600160a01b0386168583611385565b6001600160a01b03841663baa2abde8484846000803061112f42600161221b565b60405160e089901b6001600160e01b03191681526001600160a01b039788166004820152958716602487015260448601949094526064850192909252608484015290921660a482015260c481019190915260e4016040805180830381600087803b15801561119c57600080fd5b505af11580156111b0573d6000803e3d6000fd5b505050506040513d601f19601f820116820180604052508101906111d49190611fb9565b50506111e08385611437565b6111ea8285611437565b5050505050565b6001600160a01b038083166000908152600660209081526040808320858516845290915290205416806112a857611226610ec5565b6001600160a01b0316631757616884846040518363ffffffff1660e01b81526004016112539291906120c4565b602060405180830381600087803b15801561126d57600080fd5b505af1158015611281573d6000803e3d6000fd5b505050506040513d601f19601f820116820180604052508101906112a59190611d22565b90505b92915050565b6000611303826040518060400160405280602081526020017f5361666545524332303a206c6f772d6c6576656c2063616c6c206661696c6564815250856001600160a01b0316611b8e9092919063ffffffff16565b805190915015610f8b57808060200190518101906113219190611f04565b610f8b5760405162461bcd60e51b815260206004820152602a60248201527f5361666545524332303a204552433230206f7065726174696f6e20646964206e6044820152691bdd081cdd58d8d9595960b21b60648201526084015b60405180910390fd5b600081846001600160a01b031663dd62ed3e30866040518363ffffffff1660e01b81526004016113b69291906120c4565b60206040518083038186803b1580156113ce57600080fd5b505afa1580156113e2573d6000803e3d6000fd5b505050506040513d601f19601f820116820180604052508101906114069190611f3c565b611410919061221b565b90506114318463095ea7b360e01b8584604051602401610f549291906120de565b50505050565b6040516370a0823160e01b81526000906001600160a01b038416906370a08231906114669030906004016120b0565b60206040518083038186803b15801561147e57600080fd5b505afa158015611492573d6000803e3d6000fd5b505050506040513d601f19601f820116820180604052508101906114b69190611f3c565b6001600160a01b038416600090815260076020526040812054919250908190600f90810b900b8112156114ed5750839050816117e3565b60607f000000000000000000000000000000000000000000000000000000000000000092507f00000000000000000000000000000000000000000000000000000000000000006001600160a01b0316866001600160a01b031614156115f5576040805160028082526060820183529091602083019080368337019050509050858160008151811061158e57634e487b7160e01b600052603260045260246000fd5b60200260200101906001600160a01b031690816001600160a01b03168152505082816001815181106115d057634e487b7160e01b600052603260045260246000fd5b60200260200101906001600160a01b031690816001600160a01b0316815250506116fd565b604080516003808252608082019092529060208201606080368337019050509050858160008151811061163857634e487b7160e01b600052603260045260246000fd5b60200260200101906001600160a01b031690816001600160a01b0316815250507f00000000000000000000000000000000000000000000000000000000000000008160018151811061169a57634e487b7160e01b600052603260045260246000fd5b60200260200101906001600160a01b031690816001600160a01b03168152505082816002815181106116dc57634e487b7160e01b600052603260045260246000fd5b60200260200101906001600160a01b031690816001600160a01b0316815250505b6117116001600160a01b0387168686611385565b60006001600160a01b0386166338ed17398683853061173142600161221b565b6040518663ffffffff1660e01b81526004016117519594939291906121df565b600060405180830381600087803b15801561176b57600080fd5b505af115801561177f573d6000803e3d6000fd5b505050506040513d6000823e601f3d908101601f191682016040526117a79190810190611e45565b905080600182516117b89190612272565b815181106117d657634e487b7160e01b600052603260045260246000fd5b6020026020010151925050505b6009546117fd906001600160a01b03848116911683611385565b60085460609081906001600160a01b0385811691161415611947576040805160028082526060820183529091602083019080368337505060085482519294506001600160a01b03169184915060009061186657634e487b7160e01b600052603260045260246000fd5b60200260200101906001600160a01b031690816001600160a01b03168152505061188e610de7565b826001815181106118af57634e487b7160e01b600052603260045260246000fd5b6001600160a01b0392909216602092830291909101909101526040805160018082528183019092527327912ae6ba9a54219d8287c3540a8969ff35500b91816020016020820280368337019050509150808260008151811061192157634e487b7160e01b600052603260045260246000fd5b60200260200101906001600160a01b031690816001600160a01b03168152505050611afa565b604080516003808252608082019092529060208201606080368337019050509150838260008151811061198a57634e487b7160e01b600052603260045260246000fd5b6001600160a01b0392831660209182029290920101526008548351911690839060019081106119c957634e487b7160e01b600052603260045260246000fd5b60200260200101906001600160a01b031690816001600160a01b0316815250506119f1610de7565b82600281518110611a1257634e487b7160e01b600052603260045260246000fd5b6001600160a01b03929092166020928302919091018201526040805160028082526060820183527366357dcace80431aee0a7507e2e361b7e2402370937327912ae6ba9a54219d8287c3540a8969ff35500b9390830190803683370190505092508183600081518110611a9557634e487b7160e01b600052603260045260246000fd5b60200260200101906001600160a01b031690816001600160a01b0316815250508083600181518110611ad757634e487b7160e01b600052603260045260246000fd5b60200260200101906001600160a01b031690816001600160a01b03168152505050505b6009546001600160a01b03166321579b79838386600030611b1c42600161221b565b6040518763ffffffff1660e01b8152600401611b3d969594939291906120f7565b6040805180830381600087803b158015611b5657600080fd5b505af1158015611b6a573d6000803e3d6000fd5b505050506040513d601f19601f820116820180604052508101906108479190611fb9565b6060611b9d8484600085611ba5565b949350505050565b606082471015611c065760405162461bcd60e51b815260206004820152602660248201527f416464726573733a20696e73756666696369656e742062616c616e636520666f6044820152651c8818d85b1b60d21b606482015260840161137c565b843b611c545760405162461bcd60e51b815260206004820152601d60248201527f416464726573733a2063616c6c20746f206e6f6e2d636f6e7472616374000000604482015260640161137c565b600080866001600160a01b03168587604051611c709190612094565b60006040518083038185875af1925050503d8060008114611cad576040519150601f19603f3d011682016040523d82523d6000602084013e611cb2565b606091505b5091509150611cc2828286611ccd565b979650505050505050565b60608315611cdc575081610ebe565b825115611cec5782518084602001fd5b8160405162461bcd60e51b815260040161137c91906121cc565b600060208284031215611d17578081fd5b8135610ebe816122e1565b600060208284031215611d33578081fd5b8151610ebe816122e1565b60008060408385031215611d50578081fd5b8235611d5b816122e1565b91506020830135611d6b816122e1565b809150509250929050565b60008060008060008060a08789031215611d8e578182fd5b8635611d99816122e1565b95506020870135611da9816122e1565b9450604087013593506060870135925060808701356001600160401b0380821115611dd2578384fd5b818901915089601f830112611de5578384fd5b813581811115611df3578485fd5b8a6020828501011115611e04578485fd5b6020830194508093505050509295509295509295565b60008060408385031215611e2c578182fd5b8235611e37816122e1565b946020939093013593505050565b60006020808385031215611e57578182fd5b82516001600160401b0380821115611e6d578384fd5b818501915085601f830112611e80578384fd5b815181811115611e9257611e926122cb565b8060051b604051601f19603f83011681018181108582111715611eb757611eb76122cb565b604052828152858101935084860182860187018a1015611ed5578788fd5b8795505b83861015611ef7578051855260019590950194938601938601611ed9565b5098975050505050505050565b600060208284031215611f15578081fd5b81518015158114610ebe578182fd5b600060208284031215611f35578081fd5b5035919050565b600060208284031215611f4d578081fd5b5051919050565b60008060408385031215611f66578182fd5b823591506020830135611d6b816122e1565b600080600060608486031215611f8c578283fd5b833592506020840135611f9e816122e1565b91506040840135611fae816122e1565b809150509250925092565b60008060408385031215611fcb578182fd5b505080516020909101519092909150565b60008060008060808587031215611ff1578384fd5b8435935060208501359250604085013561200a816122e1565b9150606085013561201a816122e1565b939692955090935050565b6000815180845260208085019450808401835b8381101561205d5781516001600160a01b031687529582019590820190600101612038565b509495945050505050565b60008151808452612080816020860160208601612289565b601f01601f19169290920160200192915050565b600082516120a6818460208701612289565b9190910192915050565b6001600160a01b0391909116815260200190565b6001600160a01b0392831681529116602082015260400190565b6001600160a01b03929092168252602082015260400190565b600060c0825261210a60c0830189612025565b828103602084015261211c8189612025565b6040840197909752505060608101939093526001600160a01b0391909116608083015260a09091015292915050565b6020808252825182820181905260009190848201906040850190845b8181101561218357835183529284019291840191600101612167565b50909695505050505050565b6001600160a01b03858116825284166020820152604081018390526080606082018190526000906121c290830184612068565b9695505050505050565b6000602082526112a56020830184612068565b600086825285602083015260a060408301526121fe60a0830186612025565b6001600160a01b0394909416606083015250608001529392505050565b6000821982111561222e5761222e6122b5565b500190565b60008261224e57634e487b7160e01b81526012600452602481fd5b500490565b600081600019048311821515161561226d5761226d6122b5565b500290565b600082821015612284576122846122b5565b500390565b60005b838110156122a457818101518382015260200161228c565b838111156114315750506000910152565b634e487b7160e01b600052601160045260246000fd5b634e487b7160e01b600052604160045260246000fd5b6001600160a01b03811681146122f657600080fd5b5056fea2646970667358221220c9c0baf3e226811831f9b8d560366e96d4099c5d4763b759cbafd22f647fd9be64736f6c63430008030033",
  "linkReferences": {},
  "deployedLinkReferences": {}
}