{
  "_format": "hh-sol-artifact-1",
  "contractName": "CurveLPTOracle",
  "sourceName": "contracts/oracles/CurveLPTOracle.sol",
  "abi": [
    {
      "inputs": [
        {
          "internalType": "address",
          "name": "_roles",
          "type": "address"
        }
      ],
      "stateMutability": "nonpayable",
      "type": "constructor"
    },
    {
      "anonymous": false,
      "inputs": [
        {
          "indexed": false,
          "internalType": "string",
          "name": "param",
          "type": "string"
        },
        {
          "indexed": false,
          "internalType": "uint256",
          "name": "value",
          "type": "uint256"
        }
      ],
      "name": "ParameterUpdated",
      "type": "event"
    },
    {
      "anonymous": false,
      "inputs": [
        {
          "indexed": false,
          "internalType": "string",
          "name": "param",
          "type": "string"
        },
        {
          "indexed": false,
          "internalType": "address",
          "name": "subject",
          "type": "address"
        },
        {
          "indexed": false,
          "internalType": "uint256",
          "name": "value",
          "type": "uint256"
        }
      ],
      "name": "SubjectParameterUpdated",
      "type": "event"
    },
    {
      "anonymous": false,
      "inputs": [
        {
          "indexed": false,
          "internalType": "string",
          "name": "param",
          "type": "string"
        },
        {
          "indexed": false,
          "internalType": "address",
          "name": "subject",
          "type": "address"
        }
      ],
      "name": "SubjectUpdated",
      "type": "event"
    },
    {
      "inputs": [
        {
          "internalType": "uint256",
          "name": "",
          "type": "uint256"
        }
      ],
      "name": "_charactersPlayed",
      "outputs": [
        {
          "internalType": "uint256",
          "name": "",
          "type": "uint256"
        }
      ],
      "stateMutability": "view",
      "type": "function"
    },
    {
      "inputs": [
        {
          "internalType": "uint256",
          "name": "",
          "type": "uint256"
        }
      ],
      "name": "_dependsOnCharacters",
      "outputs": [
        {
          "internalType": "uint256",
          "name": "",
          "type": "uint256"
        }
      ],
      "stateMutability": "view",
      "type": "function"
    },
    {
      "inputs": [
        {
          "internalType": "uint256",
          "name": "",
          "type": "uint256"
        }
      ],
      "name": "_dependsOnRoles",
      "outputs": [
        {
          "internalType": "uint256",
          "name": "",
          "type": "uint256"
        }
      ],
      "stateMutability": "view",
      "type": "function"
    },
    {
      "inputs": [
        {
          "internalType": "uint256",
          "name": "",
          "type": "uint256"
        }
      ],
      "name": "_rolesPlayed",
      "outputs": [
        {
          "internalType": "uint256",
          "name": "",
          "type": "uint256"
        }
      ],
      "stateMutability": "view",
      "type": "function"
    },
    {
      "inputs": [],
      "name": "charactersPlayed",
      "outputs": [
        {
          "internalType": "uint256[]",
          "name": "",
          "type": "uint256[]"
        }
      ],
      "stateMutability": "view",
      "type": "function"
    },
    {
      "inputs": [],
      "name": "dependsOnCharacters",
      "outputs": [
        {
          "internalType": "uint256[]",
          "name": "",
          "type": "uint256[]"
        }
      ],
      "stateMutability": "view",
      "type": "function"
    },
    {
      "inputs": [],
      "name": "dependsOnRoles",
      "outputs": [
        {
          "internalType": "uint256[]",
          "name": "",
          "type": "uint256[]"
        }
      ],
      "stateMutability": "view",
      "type": "function"
    },
    {
      "inputs": [
        {
          "internalType": "address",
          "name": "tokenFrom",
          "type": "address"
        },
        {
          "internalType": "address",
          "name": "tokenTo",
          "type": "address"
        }
      ],
      "name": "encodeAndCheckOracleParams",
      "outputs": [
        {
          "internalType": "bool",
          "name": "",
          "type": "bool"
        },
        {
          "internalType": "bytes",
          "name": "",
          "type": "bytes"
        }
      ],
      "stateMutability": "view",
      "type": "function"
    },
    {
      "inputs": [
        {
          "internalType": "address",
          "name": "token",
          "type": "address"
        },
        {
          "internalType": "uint256",
          "name": "inAmount",
          "type": "uint256"
        },
        {
          "internalType": "address",
          "name": "pegCurrency",
          "type": "address"
        }
      ],
      "name": "getAmountInPeg",
      "outputs": [
        {
          "internalType": "uint256",
          "name": "",
          "type": "uint256"
        }
      ],
      "stateMutability": "nonpayable",
      "type": "function"
    },
    {
      "inputs": [
        {
          "internalType": "address",
          "name": "token",
          "type": "address"
        },
        {
          "internalType": "uint256",
          "name": "inAmount",
          "type": "uint256"
        },
        {
          "internalType": "address",
          "name": "pegCurrency",
          "type": "address"
        }
      ],
      "name": "getPegAmountAndBorrowable",
      "outputs": [
        {
          "internalType": "uint256",
          "name": "",
          "type": "uint256"
        },
        {
          "internalType": "uint256",
          "name": "",
          "type": "uint256"
        }
      ],
      "stateMutability": "nonpayable",
      "type": "function"
    },
    {
      "inputs": [
        {
          "internalType": "uint256",
          "name": "",
          "type": "uint256"
        }
      ],
      "name": "mainCharacterCache",
      "outputs": [
        {
          "internalType": "address",
          "name": "",
          "type": "address"
        }
      ],
      "stateMutability": "view",
      "type": "function"
    },
    {
      "inputs": [
        {
          "internalType": "address",
          "name": "",
          "type": "address"
        }
      ],
      "name": "oracleState",
      "outputs": [
        {
          "internalType": "uint256",
          "name": "lastValuePer1e18",
          "type": "uint256"
        },
        {
          "internalType": "uint256",
          "name": "valuePer1e18",
          "type": "uint256"
        },
        {
          "internalType": "uint256",
          "name": "lastUpdated",
          "type": "uint256"
        }
      ],
      "stateMutability": "view",
      "type": "function"
    },
    {
      "inputs": [
        {
          "internalType": "address",
          "name": "",
          "type": "address"
        },
        {
          "internalType": "uint256",
          "name": "",
          "type": "uint256"
        }
      ],
      "name": "roleCache",
      "outputs": [
        {
          "internalType": "bool",
          "name": "",
          "type": "bool"
        }
      ],
      "stateMutability": "view",
      "type": "function"
    },
    {
      "inputs": [],
      "name": "roles",
      "outputs": [
        {
          "internalType": "contract Roles",
          "name": "",
          "type": "address"
        }
      ],
      "stateMutability": "view",
      "type": "function"
    },
    {
      "inputs": [],
      "name": "rolesPlayed",
      "outputs": [
        {
          "internalType": "uint256[]",
          "name": "",
          "type": "uint256[]"
        }
      ],
      "stateMutability": "view",
      "type": "function"
    },
    {
      "inputs": [
        {
          "internalType": "address",
          "name": "token",
          "type": "address"
        },
        {
          "internalType": "address",
          "name": "pegCurrency",
          "type": "address"
        },
        {
          "internalType": "bytes",
          "name": "data",
          "type": "bytes"
        }
      ],
      "name": "setOracleParams",
      "outputs": [],
      "stateMutability": "nonpayable",
      "type": "function"
    },
    {
      "inputs": [
        {
          "internalType": "address",
          "name": "fromToken",
          "type": "address"
        },
        {
          "internalType": "address",
          "name": "toToken",
          "type": "address"
        }
      ],
      "name": "setOracleSpecificParams",
      "outputs": [],
      "stateMutability": "nonpayable",
      "type": "function"
    },
    {
      "inputs": [
        {
          "internalType": "uint256",
          "name": "smoothingPer10k",
          "type": "uint256"
        }
      ],
      "name": "setValueSmoothingPer10k",
      "outputs": [],
      "stateMutability": "nonpayable",
      "type": "function"
    },
    {
      "inputs": [
        {
          "internalType": "uint256",
          "name": "role",
          "type": "uint256"
        }
      ],
      "name": "updateMainCharacterCache",
      "outputs": [],
      "stateMutability": "nonpayable",
      "type": "function"
    },
    {
      "inputs": [
        {
          "internalType": "uint256",
          "name": "role",
          "type": "uint256"
        },
        {
          "internalType": "address",
          "name": "contr",
          "type": "address"
        }
      ],
      "name": "updateRoleCache",
      "outputs": [],
      "stateMutability": "nonpayable",
      "type": "function"
    },
    {
      "inputs": [],
      "name": "valueSmoothingPer10k",
      "outputs": [
        {
          "internalType": "uint256",
          "name": "",
          "type": "uint256"
        }
      ],
      "stateMutability": "view",
      "type": "function"
    },
    {
      "inputs": [
        {
          "internalType": "address",
          "name": "token",
          "type": "address"
        },
        {
          "internalType": "uint256",
          "name": "inAmount",
          "type": "uint256"
        },
        {
          "internalType": "address",
          "name": "pegCurrency",
          "type": "address"
        }
      ],
      "name": "viewAmountInPeg",
      "outputs": [
        {
          "internalType": "uint256",
          "name": "",
          "type": "uint256"
        }
      ],
      "stateMutability": "view",
      "type": "function"
    },
    {
      "inputs": [
        {
          "internalType": "address",
          "name": "token",
          "type": "address"
        },
        {
          "internalType": "uint256",
          "name": "inAmount",
          "type": "uint256"
        },
        {
          "internalType": "address",
          "name": "pegCurrency",
          "type": "address"
        }
      ],
      "name": "viewPegAmountAndBorrowable",
      "outputs": [
        {
          "internalType": "uint256",
          "name": "",
          "type": "uint256"
        },
        {
          "internalType": "uint256",
          "name": "",
          "type": "uint256"
        }
      ],
      "stateMutability": "view",
      "type": "function"
    }
  ],
  "bytecode": "0x60a0604052611d4c60065534801561001657600080fd5b506040516115c53803806115c5833981016040819052610035916100e8565b806001600160a01b03811661009b5760405162461bcd60e51b815260206004820152602260248201527f506c656173652070726f766964652076616c696420726f6c6573206164647265604482015261737360f01b606482015260840160405180910390fd5b60601b6001600160601b0319166080525060028054600181018255600091909152606a7f405787fa12a823e0f2b7631cc41b3ba8828b3321ca811111fa75cd3aa3bb5ace90910155610116565b6000602082840312156100f9578081fd5b81516001600160a01b038116811461010f578182fd5b9392505050565b60805160601c611475610150600039600081816101c401528181610395015281816106d701528181610dc40152610e5c01526114756000f3fe608060405234801561001057600080fd5b506004361061011d5760003560e01c8063071060a6146101225780630db8fd421461013757806321456ff51461014a5780632eb1504b1461019957806332f42fe6146101ac578063392f5f64146101bf578063447d52ba146101f35780634a7a7f41146102065780634fcd54a41461021b578063576cbc30146102435780636caa9c11146102645780637a1a04df146102775780637dad209b146102b5578063885fa056146102bd5780638eaab58c146102d0578063abcbc4fc146102e3578063aeb38d8b146102f6578063b5317c5d14610309578063bf184ea414610312578063d239f46914610325578063dc94cb7d14610346578063e8ea4fae1461034e578063e9c3f77d14610356575b600080fd5b61013561013036600461120d565b61037f565b005b6101356101453660046110bd565b610445565b610179610158366004611085565b60076020526000908152604090208054600182015460029092015490919083565b604080519384526020840192909252908201526060015b60405180910390f35b6101356101a736600461120d565b6104b6565b6101356101ba3660046110f5565b6105ad565b6101e67f000000000000000000000000000000000000000000000000000000000000000081565b6040516101909190611261565b61013561020136600461123d565b6106b1565b61020e610789565b6040516101909190611275565b61022e6102293660046111ac565b6107e1565b60408051928352602083019190915201610190565b6102566102513660046111ac565b61087e565b604051908152602001610190565b61025661027236600461120d565b6109ac565b6102a5610285366004611181565b600160209081526000928352604080842090915290825290205460ff1681565b6040519015158152602001610190565b61020e6109cd565b61022e6102cb3660046111ac565b610a23565b6102566102de3660046111ac565b610a31565b6102566102f136600461120d565b610bd7565b61025661030436600461120d565b610be7565b61025660065481565b61025661032036600461120d565b610bf7565b6103386103333660046110bd565b610c07565b6040516101909291906112b9565b61020e610d14565b61020e610d6a565b6101e661036436600461120d565b6000602081905290815260409020546001600160a01b031681565b60405163b4ed0b6d60e01b8152600481018290527f00000000000000000000000000000000000000000000000000000000000000006001600160a01b03169063b4ed0b6d9060240160206040518083038186803b1580156103df57600080fd5b505afa1580156103f3573d6000803e3d6000fd5b505050506040513d601f19601f8201168201806040525081019061041791906110a1565b60009182526020829052604090912080546001600160a01b0319166001600160a01b03909216919091179055565b3361044e610dc0565b6001600160a01b03161480610472575033610467610e58565b6001600160a01b0316145b6104975760405162461bcd60e51b815260040161048e90611327565b60405180910390fd5b6040805160208101909152600081526104b1838383610ec9565b505050565b336104bf610dc0565b6001600160a01b031614806104e35750336104d8610e58565b6001600160a01b0316145b6104ff5760405162461bcd60e51b815260040161048e90611327565b80612710101561054d5760405162461bcd60e51b81526020600482015260196024820152784e6565647320746f206265206c657373207468616e2031306b60381b604482015260640161048e565b600681905560408051818152600f818301526e76616c756520736d6f6f7468696e6760881b60608201526020810183905290517f3a64504f0bc0c335e2aecb78638a257e0351a3fe0370861fd54ee4190b9209339181900360800190a150565b336105b661104d565b6001600160a01b03161461060c5760405162461bcd60e51b815260206004820152601d60248201527f4e6f7420617574686f72697a656420746f20696e6974206f7261636c65000000604482015260640161048e565b61064d848484848080601f016020809104026020016040519081016040528093929190818152602001838380828437600092019190915250610ec992505050565b60408051818152600d818301526c6f7261636c6520706172616d7360981b60608201526001600160a01b038616602082015290517fbd64fae90eab1019a6c354538cfa598ad3d642c5b1bc8a8613bcb716723fa2d79181900360800190a150505050565b60405163f0723d9760e01b81526001600160a01b038281166004830152602482018490527f0000000000000000000000000000000000000000000000000000000000000000169063f0723d979060440160206040518083038186803b15801561071957600080fd5b505afa15801561072d573d6000803e3d6000fd5b505050506040513d601f19601f8201168201806040525081019061075191906111ed565b6001600160a01b0391909116600090815260016020908152604080832094835293905291909120805460ff1916911515919091179055565b606060038054806020026020016040519081016040528092919081815260200182805480156107d757602002820191906000526020600020905b8154815260200190600101908083116107c3575b5050505050905090565b6000806107ef858585610a31565b6107f761104d565b6001600160a01b03166315c2ba50876040518263ffffffff1660e01b81526004016108229190611261565b60206040518083038186803b15801561083a57600080fd5b505afa15801561084e573d6000803e3d6000fd5b505050506040513d601f19601f820116820180604052508101906108729190611225565b91509150935093915050565b60008061088c858585610a31565b6001600160a01b038616600090815260076020526040902060028101549192509061012c906108bb90426113fa565b11156109a1574260028201556001810154815560405163cc2b27d760e01b81528690612710906001600160a01b0383169063cc2b27d79061090b90670de0b6b3a764000090600090600401611316565b60206040518083038186803b15801561092357600080fd5b505afa158015610937573d6000803e3d6000fd5b505050506040513d601f19601f8201168201806040525081019061095b9190611225565b60065461096a906127106113fa565b61097491906113db565b61097e91906113bb565b826001015460065461099091906113db565b61099a91906113a3565b6001830155505b5090505b9392505050565b600581815481106109bc57600080fd5b600091825260209091200154905081565b606060048054806020026020016040519081016040528092919081815260200182805480156107d757602002820191906000526020600020908154815260200190600101908083116107c3575050505050905090565b6000806107ef85858561087e565b60405163c661065760e01b81526000600482018190529084906001600160a01b0382169063c66106579060240160206040518083038186803b158015610a7657600080fd5b505afa158015610a8a573d6000803e3d6000fd5b505050506040513d601f19601f82011682018060405250810190610aae91906110a1565b6001600160a01b0316836001600160a01b031614610ade5760405162461bcd60e51b815260040161048e90611371565b6001600160a01b03851660009081526007602052604090208054610bae5760405163cc2b27d760e01b81526000906001600160a01b0384169063cc2b27d790610b3590670de0b6b3a7640000908590600401611316565b60206040518083038186803b158015610b4d57600080fd5b505afa158015610b61573d6000803e3d6000fd5b505050506040513d601f19601f82011682018060405250810190610b859190611225565b9050670de0b6b3a7640000610b9a82886113db565b610ba491906113bb565b93505050506109a5565b8054670de0b6b3a764000090610bc490876113db565b610bce91906113bb565b925050506109a5565b600281815481106109bc57600080fd5b600481815481106109bc57600080fd5b600381815481106109bc57600080fd5b60405163c661065760e01b81526000600482018190529060609084906001600160a01b0382169063c66106579060240160206040518083038186803b158015610c4f57600080fd5b505afa158015610c63573d6000803e3d6000fd5b505050506040513d601f19601f82011682018060405250810190610c8791906110a1565b6001600160a01b0316846001600160a01b031614610cb75760405162461bcd60e51b815260040161048e90611371565b6001600160a01b03851660009081526007602052604081206001015415801590610cf857506001600160a01b03861660009081526007602052604090205415155b6040805160208101909152600081529097909650945050505050565b606060028054806020026020016040519081016040528092919081815260200182805480156107d757602002820191906000526020600020908154815260200190600101908083116107c3575050505050905090565b606060058054806020026020016040519081016040528092919081815260200182805480156107d757602002820191906000526020600020908154815260200190600101908083116107c3575050505050905090565b60007f00000000000000000000000000000000000000000000000000000000000000006001600160a01b0316638da5cb5b6040518163ffffffff1660e01b815260040160206040518083038186803b158015610e1b57600080fd5b505afa158015610e2f573d6000803e3d6000fd5b505050506040513d601f19601f82011682018060405250810190610e5391906110a1565b905090565b60007f00000000000000000000000000000000000000000000000000000000000000006001600160a01b031663c34c08e56040518163ffffffff1660e01b8152600401602060405180830381600087803b158015610eb557600080fd5b505af1158015610e2f573d6000803e3d6000fd5b60405163c661065760e01b81526000600482015283906001600160a01b0382169063c66106579060240160206040518083038186803b158015610f0b57600080fd5b505afa158015610f1f573d6000803e3d6000fd5b505050506040513d601f19601f82011682018060405250810190610f4391906110a1565b6001600160a01b0316836001600160a01b031614610f735760405162461bcd60e51b815260040161048e90611371565b60405163cc2b27d760e01b81526000906001600160a01b0383169063cc2b27d790610fac90670de0b6b3a7640000908590600401611316565b60206040518083038186803b158015610fc457600080fd5b505afa158015610fd8573d6000803e3d6000fd5b505050506040513d601f19601f82011682018060405250810190610ffc9190611225565b604080516060810182528281526020808201938452428284019081526001600160a01b0390991660009081526007909152919091209051815590516001820155945160029095019490945550505050565b606a60009081526020527ff3261457f4fd0b7c00a1511877ab27b74183ac470be8db3a7ecdc64335f6f979546001600160a01b031690565b600060208284031215611096578081fd5b81356109a581611427565b6000602082840312156110b2578081fd5b81516109a581611427565b600080604083850312156110cf578081fd5b82356110da81611427565b915060208301356110ea81611427565b809150509250929050565b6000806000806060858703121561110a578182fd5b843561111581611427565b9350602085013561112581611427565b925060408501356001600160401b0380821115611140578384fd5b818701915087601f830112611153578384fd5b813581811115611161578485fd5b886020828501011115611172578485fd5b95989497505060200194505050565b60008060408385031215611193578182fd5b823561119e81611427565b946020939093013593505050565b6000806000606084860312156111c0578283fd5b83356111cb81611427565b92506020840135915060408401356111e281611427565b809150509250925092565b6000602082840312156111fe578081fd5b815180151581146109a5578182fd5b60006020828403121561121e578081fd5b5035919050565b600060208284031215611236578081fd5b5051919050565b6000806040838503121561124f578182fd5b8235915060208301356110ea81611427565b6001600160a01b0391909116815260200190565b6020808252825182820181905260009190848201906040850190845b818110156112ad57835183529284019291840191600101611291565b50909695505050505050565b6000831515825260206040818401528351806040850152825b818110156112ee578581018301518582016060015282016112d2565b818111156112ff5783606083870101525b50601f01601f191692909201606001949350505050565b918252600f0b602082015260400190565b6020808252602a908201527f526f6c65733a2063616c6c6572206973206e6f7420746865206f776e6572206f604082015269391032bc32b1baba37b960b11b606082015260800190565b60208082526018908201527704f6e6c79206d61702070726963657320746f20636f696e360441b604082015260600190565b600082198211156113b6576113b6611411565b500190565b6000826113d657634e487b7160e01b81526012600452602481fd5b500490565b60008160001904831182151516156113f5576113f5611411565b500290565b60008282101561140c5761140c611411565b500390565b634e487b7160e01b600052601160045260246000fd5b6001600160a01b038116811461143c57600080fd5b5056fea264697066735822122079f5433f33a358e98edb3d209d4dc771382339c8f4897a60f3017b4f63083da264736f6c63430008030033",
  "linkReferences": {},
  "deployedLinkReferences": {}
}