{
  "_format": "hh-sol-artifact-1",
  "contractName": "VeERC20",
  "sourceName": "contracts/governance/VeERC20.sol",
  "abi": [
    {
      "inputs": [
        {
          "internalType": "string",
          "name": "name",
          "type": "string"
        },
        {
          "internalType": "string",
          "name": "symbol",
          "type": "string"
        },
        {
          "internalType": "address",
          "name": "roles",
          "type": "address"
        }
      ],
      "stateMutability": "nonpayable",
      "type": "constructor"
    },
    {
      "anonymous": false,
      "inputs": [
        {
          "indexed": true,
          "internalType": "address",
          "name": "owner",
          "type": "address"
        },
        {
          "indexed": true,
          "internalType": "address",
          "name": "spender",
          "type": "address"
        },
        {
          "indexed": false,
          "internalType": "uint256",
          "name": "value",
          "type": "uint256"
        }
      ],
      "name": "Approval",
      "type": "event"
    },
    {
      "anonymous": false,
      "inputs": [
        {
          "indexed": true,
          "internalType": "address",
          "name": "delegator",
          "type": "address"
        },
        {
          "indexed": true,
          "internalType": "address",
          "name": "fromDelegate",
          "type": "address"
        },
        {
          "indexed": true,
          "internalType": "address",
          "name": "toDelegate",
          "type": "address"
        }
      ],
      "name": "DelegateChanged",
      "type": "event"
    },
    {
      "anonymous": false,
      "inputs": [
        {
          "indexed": true,
          "internalType": "address",
          "name": "delegate",
          "type": "address"
        },
        {
          "indexed": false,
          "internalType": "uint256",
          "name": "previousBalance",
          "type": "uint256"
        },
        {
          "indexed": false,
          "internalType": "uint256",
          "name": "newBalance",
          "type": "uint256"
        }
      ],
      "name": "DelegateVotesChanged",
      "type": "event"
    },
    {
      "anonymous": false,
      "inputs": [
        {
          "indexed": false,
          "internalType": "string",
          "name": "param",
          "type": "string"
        },
        {
          "indexed": false,
          "internalType": "uint256",
          "name": "value",
          "type": "uint256"
        }
      ],
      "name": "ParameterUpdated",
      "type": "event"
    },
    {
      "anonymous": false,
      "inputs": [
        {
          "indexed": false,
          "internalType": "string",
          "name": "param",
          "type": "string"
        },
        {
          "indexed": false,
          "internalType": "address",
          "name": "subject",
          "type": "address"
        },
        {
          "indexed": false,
          "internalType": "uint256",
          "name": "value",
          "type": "uint256"
        }
      ],
      "name": "SubjectParameterUpdated",
      "type": "event"
    },
    {
      "anonymous": false,
      "inputs": [
        {
          "indexed": false,
          "internalType": "string",
          "name": "param",
          "type": "string"
        },
        {
          "indexed": false,
          "internalType": "address",
          "name": "subject",
          "type": "address"
        }
      ],
      "name": "SubjectUpdated",
      "type": "event"
    },
    {
      "anonymous": false,
      "inputs": [
        {
          "indexed": true,
          "internalType": "address",
          "name": "from",
          "type": "address"
        },
        {
          "indexed": true,
          "internalType": "address",
          "name": "to",
          "type": "address"
        },
        {
          "indexed": false,
          "internalType": "uint256",
          "name": "value",
          "type": "uint256"
        }
      ],
      "name": "Transfer",
      "type": "event"
    },
    {
      "inputs": [],
      "name": "DOMAIN_SEPARATOR",
      "outputs": [
        {
          "internalType": "bytes32",
          "name": "",
          "type": "bytes32"
        }
      ],
      "stateMutability": "view",
      "type": "function"
    },
    {
      "inputs": [
        {
          "internalType": "uint256",
          "name": "",
          "type": "uint256"
        }
      ],
      "name": "_charactersPlayed",
      "outputs": [
        {
          "internalType": "uint256",
          "name": "",
          "type": "uint256"
        }
      ],
      "stateMutability": "view",
      "type": "function"
    },
    {
      "inputs": [
        {
          "internalType": "uint256",
          "name": "",
          "type": "uint256"
        }
      ],
      "name": "_dependsOnCharacters",
      "outputs": [
        {
          "internalType": "uint256",
          "name": "",
          "type": "uint256"
        }
      ],
      "stateMutability": "view",
      "type": "function"
    },
    {
      "inputs": [
        {
          "internalType": "uint256",
          "name": "",
          "type": "uint256"
        }
      ],
      "name": "_dependsOnRoles",
      "outputs": [
        {
          "internalType": "uint256",
          "name": "",
          "type": "uint256"
        }
      ],
      "stateMutability": "view",
      "type": "function"
    },
    {
      "inputs": [
        {
          "internalType": "uint256",
          "name": "",
          "type": "uint256"
        }
      ],
      "name": "_rolesPlayed",
      "outputs": [
        {
          "internalType": "uint256",
          "name": "",
          "type": "uint256"
        }
      ],
      "stateMutability": "view",
      "type": "function"
    },
    {
      "inputs": [
        {
          "internalType": "address",
          "name": "listenParticipant",
          "type": "address"
        }
      ],
      "name": "addListener",
      "outputs": [],
      "stateMutability": "nonpayable",
      "type": "function"
    },
    {
      "inputs": [
        {
          "internalType": "address",
          "name": "transferParticipant",
          "type": "address"
        }
      ],
      "name": "addTransferer",
      "outputs": [],
      "stateMutability": "nonpayable",
      "type": "function"
    },
    {
      "inputs": [
        {
          "internalType": "address",
          "name": "owner",
          "type": "address"
        },
        {
          "internalType": "address",
          "name": "spender",
          "type": "address"
        }
      ],
      "name": "allowance",
      "outputs": [
        {
          "internalType": "uint256",
          "name": "",
          "type": "uint256"
        }
      ],
      "stateMutability": "view",
      "type": "function"
    },
    {
      "inputs": [
        {
          "internalType": "address",
          "name": "spender",
          "type": "address"
        },
        {
          "internalType": "uint256",
          "name": "amount",
          "type": "uint256"
        }
      ],
      "name": "approve",
      "outputs": [
        {
          "internalType": "bool",
          "name": "",
          "type": "bool"
        }
      ],
      "stateMutability": "nonpayable",
      "type": "function"
    },
    {
      "inputs": [
        {
          "internalType": "address",
          "name": "account",
          "type": "address"
        }
      ],
      "name": "balanceOf",
      "outputs": [
        {
          "internalType": "uint256",
          "name": "",
          "type": "uint256"
        }
      ],
      "stateMutability": "view",
      "type": "function"
    },
    {
      "inputs": [],
      "name": "charactersPlayed",
      "outputs": [
        {
          "internalType": "uint256[]",
          "name": "",
          "type": "uint256[]"
        }
      ],
      "stateMutability": "view",
      "type": "function"
    },
    {
      "inputs": [
        {
          "internalType": "address",
          "name": "account",
          "type": "address"
        },
        {
          "internalType": "uint32",
          "name": "pos",
          "type": "uint32"
        }
      ],
      "name": "checkpoints",
      "outputs": [
        {
          "components": [
            {
              "internalType": "uint32",
              "name": "fromBlock",
              "type": "uint32"
            },
            {
              "internalType": "uint224",
              "name": "votes",
              "type": "uint224"
            }
          ],
          "internalType": "struct ERC20Votes.Checkpoint",
          "name": "",
          "type": "tuple"
        }
      ],
      "stateMutability": "view",
      "type": "function"
    },
    {
      "inputs": [],
      "name": "decimals",
      "outputs": [
        {
          "internalType": "uint8",
          "name": "",
          "type": "uint8"
        }
      ],
      "stateMutability": "view",
      "type": "function"
    },
    {
      "inputs": [
        {
          "internalType": "address",
          "name": "spender",
          "type": "address"
        },
        {
          "internalType": "uint256",
          "name": "subtractedValue",
          "type": "uint256"
        }
      ],
      "name": "decreaseAllowance",
      "outputs": [
        {
          "internalType": "bool",
          "name": "",
          "type": "bool"
        }
      ],
      "stateMutability": "nonpayable",
      "type": "function"
    },
    {
      "inputs": [
        {
          "internalType": "address",
          "name": "delegatee",
          "type": "address"
        }
      ],
      "name": "delegate",
      "outputs": [],
      "stateMutability": "nonpayable",
      "type": "function"
    },
    {
      "inputs": [
        {
          "internalType": "address",
          "name": "delegatee",
          "type": "address"
        },
        {
          "internalType": "uint256",
          "name": "nonce",
          "type": "uint256"
        },
        {
          "internalType": "uint256",
          "name": "expiry",
          "type": "uint256"
        },
        {
          "internalType": "uint8",
          "name": "v",
          "type": "uint8"
        },
        {
          "internalType": "bytes32",
          "name": "r",
          "type": "bytes32"
        },
        {
          "internalType": "bytes32",
          "name": "s",
          "type": "bytes32"
        }
      ],
      "name": "delegateBySig",
      "outputs": [],
      "stateMutability": "nonpayable",
      "type": "function"
    },
    {
      "inputs": [
        {
          "internalType": "address",
          "name": "account",
          "type": "address"
        }
      ],
      "name": "delegates",
      "outputs": [
        {
          "internalType": "address",
          "name": "",
          "type": "address"
        }
      ],
      "stateMutability": "view",
      "type": "function"
    },
    {
      "inputs": [],
      "name": "dependsOnCharacters",
      "outputs": [
        {
          "internalType": "uint256[]",
          "name": "",
          "type": "uint256[]"
        }
      ],
      "stateMutability": "view",
      "type": "function"
    },
    {
      "inputs": [],
      "name": "dependsOnRoles",
      "outputs": [
        {
          "internalType": "uint256[]",
          "name": "",
          "type": "uint256[]"
        }
      ],
      "stateMutability": "view",
      "type": "function"
    },
    {
      "inputs": [
        {
          "internalType": "uint256",
          "name": "blockNumber",
          "type": "uint256"
        }
      ],
      "name": "getPastTotalSupply",
      "outputs": [
        {
          "internalType": "uint256",
          "name": "",
          "type": "uint256"
        }
      ],
      "stateMutability": "view",
      "type": "function"
    },
    {
      "inputs": [
        {
          "internalType": "address",
          "name": "account",
          "type": "address"
        },
        {
          "internalType": "uint256",
          "name": "blockNumber",
          "type": "uint256"
        }
      ],
      "name": "getPastVotes",
      "outputs": [
        {
          "internalType": "uint256",
          "name": "",
          "type": "uint256"
        }
      ],
      "stateMutability": "view",
      "type": "function"
    },
    {
      "inputs": [
        {
          "internalType": "address",
          "name": "account",
          "type": "address"
        }
      ],
      "name": "getVotes",
      "outputs": [
        {
          "internalType": "uint256",
          "name": "",
          "type": "uint256"
        }
      ],
      "stateMutability": "view",
      "type": "function"
    },
    {
      "inputs": [
        {
          "internalType": "address",
          "name": "spender",
          "type": "address"
        },
        {
          "internalType": "uint256",
          "name": "addedValue",
          "type": "uint256"
        }
      ],
      "name": "increaseAllowance",
      "outputs": [
        {
          "internalType": "bool",
          "name": "",
          "type": "bool"
        }
      ],
      "stateMutability": "nonpayable",
      "type": "function"
    },
    {
      "inputs": [
        {
          "internalType": "uint256",
          "name": "",
          "type": "uint256"
        }
      ],
      "name": "mainCharacterCache",
      "outputs": [
        {
          "internalType": "address",
          "name": "",
          "type": "address"
        }
      ],
      "stateMutability": "view",
      "type": "function"
    },
    {
      "inputs": [],
      "name": "name",
      "outputs": [
        {
          "internalType": "string",
          "name": "",
          "type": "string"
        }
      ],
      "stateMutability": "view",
      "type": "function"
    },
    {
      "inputs": [
        {
          "internalType": "address",
          "name": "owner",
          "type": "address"
        }
      ],
      "name": "nonces",
      "outputs": [
        {
          "internalType": "uint256",
          "name": "",
          "type": "uint256"
        }
      ],
      "stateMutability": "view",
      "type": "function"
    },
    {
      "inputs": [
        {
          "internalType": "address",
          "name": "account",
          "type": "address"
        }
      ],
      "name": "numCheckpoints",
      "outputs": [
        {
          "internalType": "uint32",
          "name": "",
          "type": "uint32"
        }
      ],
      "stateMutability": "view",
      "type": "function"
    },
    {
      "inputs": [
        {
          "internalType": "address",
          "name": "owner",
          "type": "address"
        },
        {
          "internalType": "address",
          "name": "spender",
          "type": "address"
        },
        {
          "internalType": "uint256",
          "name": "value",
          "type": "uint256"
        },
        {
          "internalType": "uint256",
          "name": "deadline",
          "type": "uint256"
        },
        {
          "internalType": "uint8",
          "name": "v",
          "type": "uint8"
        },
        {
          "internalType": "bytes32",
          "name": "r",
          "type": "bytes32"
        },
        {
          "internalType": "bytes32",
          "name": "s",
          "type": "bytes32"
        }
      ],
      "name": "permit",
      "outputs": [],
      "stateMutability": "nonpayable",
      "type": "function"
    },
    {
      "inputs": [
        {
          "internalType": "address",
          "name": "listenParticipant",
          "type": "address"
        }
      ],
      "name": "removeListener",
      "outputs": [],
      "stateMutability": "nonpayable",
      "type": "function"
    },
    {
      "inputs": [
        {
          "internalType": "address",
          "name": "transferParticipant",
          "type": "address"
        }
      ],
      "name": "removeTransferer",
      "outputs": [],
      "stateMutability": "nonpayable",
      "type": "function"
    },
    {
      "inputs": [
        {
          "internalType": "address",
          "name": "",
          "type": "address"
        },
        {
          "internalType": "uint256",
          "name": "",
          "type": "uint256"
        }
      ],
      "name": "roleCache",
      "outputs": [
        {
          "internalType": "bool",
          "name": "",
          "type": "bool"
        }
      ],
      "stateMutability": "view",
      "type": "function"
    },
    {
      "inputs": [],
      "name": "roles",
      "outputs": [
        {
          "internalType": "contract Roles",
          "name": "",
          "type": "address"
        }
      ],
      "stateMutability": "view",
      "type": "function"
    },
    {
      "inputs": [],
      "name": "rolesPlayed",
      "outputs": [
        {
          "internalType": "uint256[]",
          "name": "",
          "type": "uint256[]"
        }
      ],
      "stateMutability": "view",
      "type": "function"
    },
    {
      "inputs": [],
      "name": "symbol",
      "outputs": [
        {
          "internalType": "string",
          "name": "",
          "type": "string"
        }
      ],
      "stateMutability": "view",
      "type": "function"
    },
    {
      "inputs": [],
      "name": "totalSupply",
      "outputs": [
        {
          "internalType": "uint256",
          "name": "",
          "type": "uint256"
        }
      ],
      "stateMutability": "view",
      "type": "function"
    },
    {
      "inputs": [
        {
          "internalType": "address",
          "name": "recipient",
          "type": "address"
        },
        {
          "internalType": "uint256",
          "name": "amount",
          "type": "uint256"
        }
      ],
      "name": "transfer",
      "outputs": [
        {
          "internalType": "bool",
          "name": "",
          "type": "bool"
        }
      ],
      "stateMutability": "nonpayable",
      "type": "function"
    },
    {
      "inputs": [
        {
          "internalType": "address",
          "name": "sender",
          "type": "address"
        },
        {
          "internalType": "address",
          "name": "recipient",
          "type": "address"
        },
        {
          "internalType": "uint256",
          "name": "amount",
          "type": "uint256"
        }
      ],
      "name": "transferFrom",
      "outputs": [
        {
          "internalType": "bool",
          "name": "",
          "type": "bool"
        }
      ],
      "stateMutability": "nonpayable",
      "type": "function"
    },
    {
      "inputs": [
        {
          "internalType": "uint256",
          "name": "role",
          "type": "uint256"
        }
      ],
      "name": "updateMainCharacterCache",
      "outputs": [],
      "stateMutability": "nonpayable",
      "type": "function"
    },
    {
      "inputs": [
        {
          "internalType": "uint256",
          "name": "role",
          "type": "uint256"
        },
        {
          "internalType": "address",
          "name": "contr",
          "type": "address"
        }
      ],
      "name": "updateRoleCache",
      "outputs": [],
      "stateMutability": "nonpayable",
      "type": "function"
    },
    {
      "inputs": [],
      "name": "viewListeners",
      "outputs": [
        {
          "internalType": "address[]",
          "name": "",
          "type": "address[]"
        }
      ],
      "stateMutability": "view",
      "type": "function"
    },
    {
      "inputs": [],
      "name": "viewTransferers",
      "outputs": [
        {
          "internalType": "address[]",
          "name": "",
          "type": "address[]"
        }
      ],
      "stateMutability": "view",
      "type": "function"
    }
  ],
  "bytecode": "0x6101806040527f6e71edae12b1b97f4d1f60370fef10105fa2faae0126114a169c64845d6126c9610140523480156200003757600080fd5b5060405162002cc838038062002cc88339810160408190526200005a91620003a5565b808280604051806040016040528060018152602001603160f81b81525086868160039080519060200190620000919291906200024c565b508051620000a79060049060208401906200024c565b5050825160208085019190912083518483012060e08290526101008190524660a0818152604080517f8b73c3c69bb8fe3d512ecc4cf759cc79239f7b179b0ffacaa9a75d522b39400f81880181905281830187905260608201869052608082019490945230818401528151808203909301835260c0019052805194019390932091935091906080523060601b60c0526101205250505050506001600160a01b038116620001a55760405162461bcd60e51b815260206004820152602260248201527f506c656173652070726f766964652076616c696420726f6c6573206164647265604482015261737360f01b606482015260840160405180910390fd5b60601b6001600160601b03191661016052620001d0600f6000620001da602090811b6200115417901c565b5050505062000481565b6000620001f1836001600160a01b038416620001fa565b90505b92915050565b60008181526001830160205260408120546200024357508154600181810184556000848152602080822090930184905584548482528286019093526040902091909155620001f4565b506000620001f4565b8280546200025a906200042e565b90600052602060002090601f0160209004810192826200027e5760008555620002c9565b82601f106200029957805160ff1916838001178555620002c9565b82800160010185558215620002c9579182015b82811115620002c9578251825591602001919060010190620002ac565b50620002d7929150620002db565b5090565b5b80821115620002d75760008155600101620002dc565b600082601f83011262000303578081fd5b81516001600160401b03808211156200032057620003206200046b565b604051601f8301601f19908116603f011681019082821181831017156200034b576200034b6200046b565b8160405283815260209250868385880101111562000367578485fd5b8491505b838210156200038a57858201830151818301840152908201906200036b565b838211156200039b57848385830101525b9695505050505050565b600080600060608486031215620003ba578283fd5b83516001600160401b0380821115620003d1578485fd5b620003df87838801620002f2565b94506020860151915080821115620003f5578384fd5b506200040486828701620002f2565b604086015190935090506001600160a01b038116811462000423578182fd5b809150509250925092565b600181811c908216806200044357607f821691505b602082108114156200046557634e487b7160e01b600052602260045260246000fd5b50919050565b634e487b7160e01b600052604160045260246000fd5b60805160a05160c05160601c60e0516101005161012051610140516101605160601c6127bf62000509600039600081816102af01528181610638015281816108ca01528181611478015261150b01526000610eb301526000611604015260006116530152600061162e01526000611585015260006115af015260006115d901526127bf6000f3fe608060405234801561001057600080fd5b50600436106101e35760003560e01c806306fdde03146101e8578063071060a614610206578063095ea7b31461021b57806318160ddd1461023e57806323b872dd1461025057806326a17412146102635780632be24ac814610278578063313ce5671461028b57806335a1b3071461029a5780633644e515146102a2578063392f5f64146102aa57806339509351146102e95780633a46b1a8146102fc578063447d52ba1461030f5780634a7a7f4114610322578063587cde1e146103375780635c19a95c1461034a5780635e1be6bc1461035d5780636caa9c11146103705780636fcfff451461038357806370a08231146103ab5780637a1a04df146103be5780637dad209b146103ec5780637ecebe00146103f45780638e539e8c1461040757806395d89b411461041a5780639ab24eb0146104225780639bc5741f14610435578063a457c2d714610448578063a9059cbb1461045b578063abcbc4fc1461046e578063aeb38d8b14610481578063bf184ea414610494578063c3cda520146104a7578063d505accf146104ba578063d5b50252146104cd578063dc94cb7d146104e0578063dd62ed3e146104e8578063e8ea4fae14610521578063e9c3f77d14610529578063f1127ed814610552575b600080fd5b6101f061058f565b6040516101fd91906125cb565b60405180910390f35b6102196102143660046124f1565b610622565b005b61022e610229366004612418565b6106e8565b60405190151581526020016101fd565b6002545b6040519081526020016101fd565b61022e61025e36600461236b565b6106ff565b61026b6107ae565b6040516101fd9190612546565b6102196102863660046122fb565b6107bf565b604051601281526020016101fd565b61026b610817565b610242610823565b6102d17f000000000000000000000000000000000000000000000000000000000000000081565b6040516001600160a01b0390911681526020016101fd565b61022e6102f7366004612418565b61082d565b61024261030a366004612418565b610869565b61021961031d366004612509565b6108b3565b61032a610989565b6040516101fd9190612593565b6102d16103453660046122fb565b6109e0565b6102196103583660046122fb565b610a01565b61021961036b3660046122fb565b610a0e565b61024261037e3660046124f1565b610a62565b6103966103913660046122fb565b610a83565b60405163ffffffff90911681526020016101fd565b6102426103b93660046122fb565b610aa5565b61022e6103cc366004612418565b600a60209081526000928352604080842090915290825290205460ff1681565b61032a610ac0565b6102426104023660046122fb565b610b16565b6102426104153660046124f1565b610b34565b6101f0610b60565b6102426104303660046122fb565b610b6f565b6102196104433660046122fb565b610c03565b61022e610456366004612418565b610c57565b61022e610469366004612418565b610cf0565b61024261047c3660046124f1565b610cfd565b61024261048f3660046124f1565b610d0d565b6102426104a23660046124f1565b610d1d565b6102196104b5366004612443565b610d2d565b6102196104c83660046123ab565b610e5f565b6102196104db3660046122fb565b610fc3565b61032a611017565b6102426104f6366004612333565b6001600160a01b03918216600090815260016020908152604080832093909416825291909152205490565b61032a61106d565b6102d16105373660046124f1565b6009602052600090815260409020546001600160a01b031681565b61056561056036600461249c565b6110c3565b60408051825163ffffffff1681526020928301516001600160e01b031692810192909252016101fd565b60606003805461059e906126ee565b80601f01602080910402602001604051908101604052809291908181526020018280546105ca906126ee565b80156106175780601f106105ec57610100808354040283529160200191610617565b820191906000526020600020905b8154815290600101906020018083116105fa57829003601f168201915b505050505090505b90565b60405163b4ed0b6d60e01b8152600481018290527f00000000000000000000000000000000000000000000000000000000000000006001600160a01b03169063b4ed0b6d9060240160206040518083038186803b15801561068257600080fd5b505afa158015610696573d6000803e3d6000fd5b505050506040513d601f19601f820116820180604052508101906106ba9190612317565b60009182526009602052604090912080546001600160a01b0319166001600160a01b03909216919091179055565b60006106f5338484611169565b5060015b92915050565b600061070c84848461128d565b6001600160a01b0384166000908152600160209081526040808320338452909152902054828110156107965760405162461bcd60e51b815260206004820152602860248201527f45524332303a207472616e7366657220616d6f756e74206578636565647320616044820152676c6c6f77616e636560c01b60648201526084015b60405180910390fd5b6107a38533858403611169565b506001949350505050565b60606107ba6011611467565b905090565b336107c8611474565b6001600160a01b031614806107ec5750336107e1611507565b6001600160a01b0316145b6108085760405162461bcd60e51b815260040161078d90612655565b610813600f82611154565b5050565b60606107ba600f611467565b60006107ba611578565b3360008181526001602090815260408083206001600160a01b038716845290915281205490916106f591859061086490869061269f565b611169565b600043821061088a5760405162461bcd60e51b815260040161078d9061261e565b6001600160a01b03831660009081526007602052604090206108ac90836116a3565b9392505050565b60405163f0723d9760e01b81526001600160a01b037f0000000000000000000000000000000000000000000000000000000000000000169063f0723d9790610901908490869060040161252d565b60206040518083038186803b15801561091957600080fd5b505afa15801561092d573d6000803e3d6000fd5b505050506040513d601f19601f8201168201806040525081019061095191906124d1565b6001600160a01b03919091166000908152600a6020908152604080832094835293905291909120805460ff1916911515919091179055565b6060600c80548060200260200160405190810160405280929190818152602001828054801561061757602002820191906000526020600020905b8154815260200190600101908083116109c3575050505050905090565b6001600160a01b03808216600090815260066020526040902054165b919050565b610a0b338261177b565b50565b33610a17611474565b6001600160a01b03161480610a3b575033610a30611507565b6001600160a01b0316145b610a575760405162461bcd60e51b815260040161078d90612655565b610813600f826117fb565b600e8181548110610a7257600080fd5b600091825260209091200154905081565b6001600160a01b0381166000908152600760205260408120546106f990611810565b6001600160a01b031660009081526020819052604090205490565b6060600d80548060200260200160405190810160405280929190818152602001828054801561061757602002820191906000526020600020908154815260200190600101908083116109c3575050505050905090565b6001600160a01b0381166000908152600560205260408120546106f9565b6000438210610b555760405162461bcd60e51b815260040161078d9061261e565b6106f96008836116a3565b60606004805461059e906126ee565b6001600160a01b0381166000908152600760205260408120548015610bf0576001600160a01b0383166000908152600760205260409020610bb16001836126d7565b81548110610bcf57634e487b7160e01b600052603260045260246000fd5b600091825260209091200154600160201b90046001600160e01b0316610bf3565b60005b6001600160e01b03169392505050565b33610c0c611474565b6001600160a01b03161480610c30575033610c25611507565b6001600160a01b0316145b610c4c5760405162461bcd60e51b815260040161078d90612655565b6108136011826117fb565b3360009081526001602090815260408083206001600160a01b038616845290915281205482811015610cd95760405162461bcd60e51b815260206004820152602560248201527f45524332303a2064656372656173656420616c6c6f77616e63652062656c6f77604482015264207a65726f60d81b606482015260840161078d565b610ce63385858403611169565b5060019392505050565b60006106f533848461128d565b600b8181548110610a7257600080fd5b600d8181548110610a7257600080fd5b600c8181548110610a7257600080fd5b83421115610d7d5760405162461bcd60e51b815260206004820152601d60248201527f4552433230566f7465733a207369676e61747572652065787069726564000000604482015260640161078d565b604080517fe48329057bfd03d55e49b547132e39cffd9c1820ad7b9d4c5307691425d15adf60208201526001600160a01b038816918101919091526060810186905260808101859052600090610df790610def9060a00160405160208183030381529060405280519060200120611879565b8585856118c7565b9050610e02816118ef565b8614610e4c5760405162461bcd60e51b81526020600482015260196024820152784552433230566f7465733a20696e76616c6964206e6f6e636560381b604482015260640161078d565b610e56818861177b565b50505050505050565b83421115610eaf5760405162461bcd60e51b815260206004820152601d60248201527f45524332305065726d69743a206578706972656420646561646c696e65000000604482015260640161078d565b60007f0000000000000000000000000000000000000000000000000000000000000000888888610ede8c6118ef565b6040805160208101969096526001600160a01b0394851690860152929091166060840152608083015260a082015260c0810186905260e0016040516020818303038152906040528051906020012090506000610f3982611879565b90506000610f49828787876118c7565b9050896001600160a01b0316816001600160a01b031614610fac5760405162461bcd60e51b815260206004820152601e60248201527f45524332305065726d69743a20696e76616c6964207369676e61747572650000604482015260640161078d565b610fb78a8a8a611169565b50505050505050505050565b33610fcc611474565b6001600160a01b03161480610ff0575033610fe5611507565b6001600160a01b0316145b61100c5760405162461bcd60e51b815260040161078d90612655565b610813601182611154565b6060600b80548060200260200160405190810160405280929190818152602001828054801561061757602002820191906000526020600020908154815260200190600101908083116109c3575050505050905090565b6060600e80548060200260200160405190810160405280929190818152602001828054801561061757602002820191906000526020600020908154815260200190600101908083116109c3575050505050905090565b60408051808201909152600080825260208201526001600160a01b0383166000908152600760205260409020805463ffffffff841690811061111557634e487b7160e01b600052603260045260246000fd5b60009182526020918290206040805180820190915291015463ffffffff81168252600160201b90046001600160e01b0316918101919091529392505050565b60006108ac836001600160a01b038416611917565b6001600160a01b0383166111cb5760405162461bcd60e51b8152602060048201526024808201527f45524332303a20617070726f76652066726f6d20746865207a65726f206164646044820152637265737360e01b606482015260840161078d565b6001600160a01b03821661122c5760405162461bcd60e51b815260206004820152602260248201527f45524332303a20617070726f766520746f20746865207a65726f206164647265604482015261737360f01b606482015260840161078d565b6001600160a01b0383811660008181526001602090815260408083209487168084529482529182902085905590518481527f8c5be1e5ebec7d5bd14f71427d1e84f3dd0314c0f7b2291e5b200ac8c7c3b925910160405180910390a3505050565b6001600160a01b0383166112f15760405162461bcd60e51b815260206004820152602560248201527f45524332303a207472616e736665722066726f6d20746865207a65726f206164604482015264647265737360d81b606482015260840161078d565b6001600160a01b0382166113535760405162461bcd60e51b815260206004820152602360248201527f45524332303a207472616e7366657220746f20746865207a65726f206164647260448201526265737360e81b606482015260840161078d565b6001600160a01b038316600090815260208190526040902054818110156113cb5760405162461bcd60e51b815260206004820152602660248201527f45524332303a207472616e7366657220616d6f756e7420657863656564732062604482015265616c616e636560d01b606482015260840161078d565b6001600160a01b0380851660009081526020819052604080822085850390559185168152908120805484929061140290849061269f565b92505081905550826001600160a01b0316846001600160a01b03167fddf252ad1be2c89b69c2b068fc378daa952ba7f163c4a11628f55a4df523b3ef8460405161144e91815260200190565b60405180910390a3611461848484611966565b50505050565b606060006108ac83611a06565b60007f00000000000000000000000000000000000000000000000000000000000000006001600160a01b0316638da5cb5b6040518163ffffffff1660e01b815260040160206040518083038186803b1580156114cf57600080fd5b505afa1580156114e3573d6000803e3d6000fd5b505050506040513d601f19601f820116820180604052508101906107ba9190612317565b60007f00000000000000000000000000000000000000000000000000000000000000006001600160a01b031663c34c08e56040518163ffffffff1660e01b8152600401602060405180830381600087803b15801561156457600080fd5b505af11580156114e3573d6000803e3d6000fd5b6000306001600160a01b037f0000000000000000000000000000000000000000000000000000000000000000161480156115d157507f000000000000000000000000000000000000000000000000000000000000000046145b156115fd57507f000000000000000000000000000000000000000000000000000000000000000061061f565b50604080517f00000000000000000000000000000000000000000000000000000000000000006020808301919091527f0000000000000000000000000000000000000000000000000000000000000000828401527f000000000000000000000000000000000000000000000000000000000000000060608301524660808301523060a0808401919091528351808403909101815260c0909201909252805191012061061f565b8154600090815b818110156117155760006116be8284611a62565b9050848682815481106116e157634e487b7160e01b600052603260045260246000fd5b60009182526020909120015463ffffffff1611156117015780925061170f565b61170c81600161269f565b91505b506116aa565b811561176657846117276001846126d7565b8154811061174557634e487b7160e01b600052603260045260246000fd5b600091825260209091200154600160201b90046001600160e01b0316611769565b60005b6001600160e01b031695945050505050565b6000611786836109e0565b9050600061179384610aa5565b6001600160a01b0385811660008181526006602052604080822080546001600160a01b031916898616908117909155905194955093928616927f3134e8a2e6d97e929a7e54011ea5485d7d196dd5f0ba4d4ef95803e8e3fc257f9190a4611461828483611a7d565b60006108ac836001600160a01b038416611b96565b600063ffffffff8211156118755760405162461bcd60e51b815260206004820152602660248201527f53616665436173743a2076616c756520646f65736e27742066697420696e203360448201526532206269747360d01b606482015260840161078d565b5090565b60006106f9611886611578565b8360405161190160f01b6020820152602281018390526042810182905260009060620160405160208183030381529060405280519060200120905092915050565b60008060006118d887878787611cb3565b915091506118e581611d96565b5095945050505050565b6001600160a01b03811660009081526005602052604090208054600181018255905b50919050565b60006119238383611f94565b611959575081546001818101845560008481526020808220909301849055845484825282860190935260409020919091556106f9565b5060006106f9565b505050565b611971600f84611fac565b806119825750611982600f83611fac565b6119cb5760405162461bcd60e51b815260206004820152601a6024820152792737ba1030baba3437b934bd32b2103a37903a3930b739b332b960311b604482015260640161078d565b6119d6838383611fc1565b6001600160a01b038316156119ee576119ee83611fdc565b6001600160a01b038216156119615761196182611fdc565b606081600001805480602002602001604051908101604052809291908181526020018280548015611a5657602002820191906000526020600020905b815481526020019060010190808311611a42575b50505050509050919050565b6000611a7160028484186126b7565b6108ac9084841661269f565b816001600160a01b0316836001600160a01b031614158015611a9f5750600081115b15611961576001600160a01b03831615611b1b576001600160a01b03831660009081526007602052604081208190611ada9061207a85612086565b91509150846001600160a01b031660008051602061276a8339815191528383604051611b10929190918252602082015260400190565b60405180910390a250505b6001600160a01b03821615611961576001600160a01b03821660009081526007602052604081208190611b519061222785612086565b91509150836001600160a01b031660008051602061276a8339815191528383604051611b87929190918252602082015260400190565b60405180910390a25050505050565b60008181526001830160205260408120548015611ca9576000611bba6001836126d7565b8554909150600090611bce906001906126d7565b9050818114611c4f576000866000018281548110611bfc57634e487b7160e01b600052603260045260246000fd5b9060005260206000200154905080876000018481548110611c2d57634e487b7160e01b600052603260045260246000fd5b6000918252602080832090910192909255918252600188019052604090208390555b8554869080611c6e57634e487b7160e01b600052603160045260246000fd5b6001900381819060005260206000200160009055905585600101600086815260200190815260200160002060009055600193505050506106f9565b60009150506106f9565b6000806fa2a8918ca85bafe22016d0b997e4df60600160ff1b03831115611ce05750600090506003611d8d565b8460ff16601b14158015611cf857508460ff16601c14155b15611d095750600090506004611d8d565b6040805160008082526020820180845289905260ff881692820192909252606081018690526080810185905260019060a0016020604051602081039080840390855afa158015611d5d573d6000803e3d6000fd5b5050604051601f1901519150506001600160a01b038116611d8657600060019250925050611d8d565b9150600090505b94509492505050565b6000816004811115611db857634e487b7160e01b600052602160045260246000fd5b1415611dc357610a0b565b6001816004811115611de557634e487b7160e01b600052602160045260246000fd5b1415611e2e5760405162461bcd60e51b815260206004820152601860248201527745434453413a20696e76616c6964207369676e617475726560401b604482015260640161078d565b6002816004811115611e5057634e487b7160e01b600052602160045260246000fd5b1415611e9e5760405162461bcd60e51b815260206004820152601f60248201527f45434453413a20696e76616c6964207369676e6174757265206c656e67746800604482015260640161078d565b6003816004811115611ec057634e487b7160e01b600052602160045260246000fd5b1415611f195760405162461bcd60e51b815260206004820152602260248201527f45434453413a20696e76616c6964207369676e6174757265202773272076616c604482015261756560f01b606482015260840161078d565b6004816004811115611f3b57634e487b7160e01b600052602160045260246000fd5b1415610a0b5760405162461bcd60e51b815260206004820152602260248201527f45434453413a20696e76616c6964207369676e6174757265202776272076616c604482015261756560f01b606482015260840161078d565b60009081526001919091016020526040902054151590565b60006108ac836001600160a01b038416611f94565b611961611fcd846109e0565b611fd6846109e0565b83611a7d565b6000611fe782610aa5565b905060005b80611ff76011612233565b11156119615761200860118261223d565b6001600160a01b0316634f00a93e84846040518363ffffffff1660e01b815260040161203592919061252d565b600060405180830381600087803b15801561204f57600080fd5b505af1158015612063573d6000803e3d6000fd5b50505050808061207290612723565b915050611fec565b60006108ac82846126d7565b8254600090819080156120de578561209f6001836126d7565b815481106120bd57634e487b7160e01b600052603260045260246000fd5b600091825260209091200154600160201b90046001600160e01b03166120e1565b60005b6001600160e01b031692506120fa83858763ffffffff16565b9150600081118015612146575043866121146001846126d7565b8154811061213257634e487b7160e01b600052603260045260246000fd5b60009182526020909120015463ffffffff16145b156121b45761215482612249565b866121606001846126d7565b8154811061217e57634e487b7160e01b600052603260045260246000fd5b9060005260206000200160000160046101000a8154816001600160e01b0302191690836001600160e01b0316021790555061221e565b8560405180604001604052806121c943611810565b63ffffffff1681526020016121dd85612249565b6001600160e01b039081169091528254600181018455600093845260209384902083519490930151909116600160201b0263ffffffff909316929092179101555b50935093915050565b60006108ac828461269f565b60006106f9825490565b60006108ac83836122b2565b60006001600160e01b038211156118755760405162461bcd60e51b815260206004820152602760248201527f53616665436173743a2076616c756520646f65736e27742066697420696e20326044820152663234206269747360c81b606482015260840161078d565b60008260000182815481106122d757634e487b7160e01b600052603260045260246000fd5b9060005260206000200154905092915050565b803560ff811681146109fc57600080fd5b60006020828403121561230c578081fd5b81356108ac81612754565b600060208284031215612328578081fd5b81516108ac81612754565b60008060408385031215612345578081fd5b823561235081612754565b9150602083013561236081612754565b809150509250929050565b60008060006060848603121561237f578081fd5b833561238a81612754565b9250602084013561239a81612754565b929592945050506040919091013590565b600080600080600080600060e0888a0312156123c5578283fd5b87356123d081612754565b965060208801356123e081612754565b955060408801359450606088013593506123fc608089016122ea565b925060a0880135915060c0880135905092959891949750929550565b6000806040838503121561242a578182fd5b823561243581612754565b946020939093013593505050565b60008060008060008060c0878903121561245b578182fd5b863561246681612754565b95506020870135945060408701359350612482606088016122ea565b92506080870135915060a087013590509295509295509295565b600080604083850312156124ae578182fd5b82356124b981612754565b9150602083013563ffffffff81168114612360578182fd5b6000602082840312156124e2578081fd5b815180151581146108ac578182fd5b600060208284031215612502578081fd5b5035919050565b6000806040838503121561251b578182fd5b82359150602083013561236081612754565b6001600160a01b03929092168252602082015260400190565b6020808252825182820181905260009190848201906040850190845b818110156125875783516001600160a01b031683529284019291840191600101612562565b50909695505050505050565b6020808252825182820181905260009190848201906040850190845b81811015612587578351835292840192918401916001016125af565b6000602080835283518082850152825b818110156125f7578581018301518582016040015282016125db565b818111156126085783604083870101525b50601f01601f1916929092016040019392505050565b6020808252601f908201527f4552433230566f7465733a20626c6f636b206e6f7420796574206d696e656400604082015260600190565b6020808252602a908201527f526f6c65733a2063616c6c6572206973206e6f7420746865206f776e6572206f604082015269391032bc32b1baba37b960b11b606082015260800190565b600082198211156126b2576126b261273e565b500190565b6000826126d257634e487b7160e01b81526012600452602481fd5b500490565b6000828210156126e9576126e961273e565b500390565b600181811c9082168061270257607f821691505b6020821081141561191157634e487b7160e01b600052602260045260246000fd5b60006000198214156127375761273761273e565b5060010190565b634e487b7160e01b600052601160045260246000fd5b6001600160a01b0381168114610a0b57600080fdfedec2bacdd2f05b59de34da9b523dff8be42e5e38e818c82fdb0bae774387a724a264697066735822122012cee74494bc9d08cf8ca333dc12b46f8b09ef574e582e8e5a69799d00a460ee64736f6c63430008030033",
  "linkReferences": {},
  "deployedLinkReferences": {}
}