{
  "_format": "hh-sol-artifact-1",
  "contractName": "MultiAMMYieldConverter",
  "sourceName": "contracts/strategies/MultiAMMYieldConverter.sol",
  "abi": [
    {
      "inputs": [
        {
          "internalType": "address",
          "name": "_curveZap",
          "type": "address"
        },
        {
          "internalType": "address[]",
          "name": "_routers",
          "type": "address[]"
        },
        {
          "internalType": "address[]",
          "name": "_approvedTargetTokens",
          "type": "address[]"
        },
        {
          "internalType": "int128[]",
          "name": "_intermediaryIndices",
          "type": "int128[]"
        },
        {
          "internalType": "address",
          "name": "_roles",
          "type": "address"
        }
      ],
      "stateMutability": "nonpayable",
      "type": "constructor"
    },
    {
      "anonymous": false,
      "inputs": [
        {
          "indexed": false,
          "internalType": "string",
          "name": "param",
          "type": "string"
        },
        {
          "indexed": false,
          "internalType": "uint256",
          "name": "value",
          "type": "uint256"
        }
      ],
      "name": "ParameterUpdated",
      "type": "event"
    },
    {
      "anonymous": false,
      "inputs": [
        {
          "indexed": false,
          "internalType": "string",
          "name": "param",
          "type": "string"
        },
        {
          "indexed": false,
          "internalType": "address",
          "name": "subject",
          "type": "address"
        },
        {
          "indexed": false,
          "internalType": "uint256",
          "name": "value",
          "type": "uint256"
        }
      ],
      "name": "SubjectParameterUpdated",
      "type": "event"
    },
    {
      "anonymous": false,
      "inputs": [
        {
          "indexed": false,
          "internalType": "string",
          "name": "param",
          "type": "string"
        },
        {
          "indexed": false,
          "internalType": "address",
          "name": "subject",
          "type": "address"
        }
      ],
      "name": "SubjectUpdated",
      "type": "event"
    },
    {
      "inputs": [
        {
          "internalType": "uint256",
          "name": "",
          "type": "uint256"
        }
      ],
      "name": "_charactersPlayed",
      "outputs": [
        {
          "internalType": "uint256",
          "name": "",
          "type": "uint256"
        }
      ],
      "stateMutability": "view",
      "type": "function"
    },
    {
      "inputs": [
        {
          "internalType": "uint256",
          "name": "",
          "type": "uint256"
        }
      ],
      "name": "_dependsOnCharacters",
      "outputs": [
        {
          "internalType": "uint256",
          "name": "",
          "type": "uint256"
        }
      ],
      "stateMutability": "view",
      "type": "function"
    },
    {
      "inputs": [
        {
          "internalType": "uint256",
          "name": "",
          "type": "uint256"
        }
      ],
      "name": "_dependsOnRoles",
      "outputs": [
        {
          "internalType": "uint256",
          "name": "",
          "type": "uint256"
        }
      ],
      "stateMutability": "view",
      "type": "function"
    },
    {
      "inputs": [
        {
          "internalType": "address",
          "name": "",
          "type": "address"
        },
        {
          "internalType": "address",
          "name": "",
          "type": "address"
        }
      ],
      "name": "_oracleCache",
      "outputs": [
        {
          "internalType": "address",
          "name": "",
          "type": "address"
        }
      ],
      "stateMutability": "view",
      "type": "function"
    },
    {
      "inputs": [
        {
          "internalType": "uint256",
          "name": "",
          "type": "uint256"
        }
      ],
      "name": "_rolesPlayed",
      "outputs": [
        {
          "internalType": "uint256",
          "name": "",
          "type": "uint256"
        }
      ],
      "stateMutability": "view",
      "type": "function"
    },
    {
      "inputs": [
        {
          "internalType": "address",
          "name": "router",
          "type": "address"
        }
      ],
      "name": "addRouter",
      "outputs": [],
      "stateMutability": "nonpayable",
      "type": "function"
    },
    {
      "inputs": [
        {
          "internalType": "address",
          "name": "token",
          "type": "address"
        }
      ],
      "name": "approveTargetToken",
      "outputs": [],
      "stateMutability": "nonpayable",
      "type": "function"
    },
    {
      "inputs": [],
      "name": "charactersPlayed",
      "outputs": [
        {
          "internalType": "uint256[]",
          "name": "",
          "type": "uint256[]"
        }
      ],
      "stateMutability": "view",
      "type": "function"
    },
    {
      "inputs": [],
      "name": "curveZap",
      "outputs": [
        {
          "internalType": "contract ICurveZap",
          "name": "",
          "type": "address"
        }
      ],
      "stateMutability": "view",
      "type": "function"
    },
    {
      "inputs": [],
      "name": "dependsOnCharacters",
      "outputs": [
        {
          "internalType": "uint256[]",
          "name": "",
          "type": "uint256[]"
        }
      ],
      "stateMutability": "view",
      "type": "function"
    },
    {
      "inputs": [],
      "name": "dependsOnRoles",
      "outputs": [
        {
          "internalType": "uint256[]",
          "name": "",
          "type": "uint256[]"
        }
      ],
      "stateMutability": "view",
      "type": "function"
    },
    {
      "inputs": [
        {
          "internalType": "address payable",
          "name": "strategyAddress",
          "type": "address"
        },
        {
          "internalType": "address",
          "name": "rewardToken",
          "type": "address"
        },
        {
          "internalType": "address",
          "name": "yieldBearingToken",
          "type": "address"
        },
        {
          "internalType": "address",
          "name": "router",
          "type": "address"
        },
        {
          "internalType": "address[]",
          "name": "path",
          "type": "address[]"
        }
      ],
      "name": "harvest",
      "outputs": [],
      "stateMutability": "nonpayable",
      "type": "function"
    },
    {
      "inputs": [
        {
          "internalType": "address",
          "name": "",
          "type": "address"
        }
      ],
      "name": "intermediaryIndex",
      "outputs": [
        {
          "internalType": "int128",
          "name": "",
          "type": "int128"
        }
      ],
      "stateMutability": "view",
      "type": "function"
    },
    {
      "inputs": [
        {
          "internalType": "address payable",
          "name": "strategyAddress",
          "type": "address"
        },
        {
          "internalType": "address",
          "name": "rewardToken",
          "type": "address"
        },
        {
          "internalType": "address",
          "name": "router",
          "type": "address"
        },
        {
          "internalType": "address[]",
          "name": "path",
          "type": "address[]"
        }
      ],
      "name": "isHarvestable",
      "outputs": [
        {
          "internalType": "bool",
          "name": "harvestable",
          "type": "bool"
        },
        {
          "internalType": "uint256",
          "name": "expectedReward",
          "type": "uint256"
        }
      ],
      "stateMutability": "view",
      "type": "function"
    },
    {
      "inputs": [
        {
          "internalType": "uint256",
          "name": "",
          "type": "uint256"
        }
      ],
      "name": "mainCharacterCache",
      "outputs": [
        {
          "internalType": "address",
          "name": "",
          "type": "address"
        }
      ],
      "stateMutability": "view",
      "type": "function"
    },
    {
      "inputs": [
        {
          "internalType": "address",
          "name": "token",
          "type": "address"
        },
        {
          "internalType": "address",
          "name": "pegCurrency",
          "type": "address"
        }
      ],
      "name": "newCurrentOracle",
      "outputs": [],
      "stateMutability": "nonpayable",
      "type": "function"
    },
    {
      "inputs": [
        {
          "internalType": "address",
          "name": "router",
          "type": "address"
        }
      ],
      "name": "removeRouter",
      "outputs": [],
      "stateMutability": "nonpayable",
      "type": "function"
    },
    {
      "inputs": [
        {
          "internalType": "address",
          "name": "token",
          "type": "address"
        }
      ],
      "name": "removeTargetToken",
      "outputs": [],
      "stateMutability": "nonpayable",
      "type": "function"
    },
    {
      "inputs": [
        {
          "internalType": "address",
          "name": "token",
          "type": "address"
        },
        {
          "internalType": "uint256",
          "name": "amount",
          "type": "uint256"
        },
        {
          "internalType": "address",
          "name": "recipient",
          "type": "address"
        }
      ],
      "name": "rescueStrandedTokens",
      "outputs": [],
      "stateMutability": "nonpayable",
      "type": "function"
    },
    {
      "inputs": [
        {
          "internalType": "address",
          "name": "",
          "type": "address"
        },
        {
          "internalType": "uint256",
          "name": "",
          "type": "uint256"
        }
      ],
      "name": "roleCache",
      "outputs": [
        {
          "internalType": "bool",
          "name": "",
          "type": "bool"
        }
      ],
      "stateMutability": "view",
      "type": "function"
    },
    {
      "inputs": [],
      "name": "roles",
      "outputs": [
        {
          "internalType": "contract Roles",
          "name": "",
          "type": "address"
        }
      ],
      "stateMutability": "view",
      "type": "function"
    },
    {
      "inputs": [],
      "name": "rolesPlayed",
      "outputs": [
        {
          "internalType": "uint256[]",
          "name": "",
          "type": "uint256[]"
        }
      ],
      "stateMutability": "view",
      "type": "function"
    },
    {
      "inputs": [
        {
          "internalType": "uint256",
          "name": "role",
          "type": "uint256"
        }
      ],
      "name": "updateMainCharacterCache",
      "outputs": [],
      "stateMutability": "nonpayable",
      "type": "function"
    },
    {
      "inputs": [
        {
          "internalType": "uint256",
          "name": "role",
          "type": "uint256"
        },
        {
          "internalType": "address",
          "name": "contr",
          "type": "address"
        }
      ],
      "name": "updateRoleCache",
      "outputs": [],
      "stateMutability": "nonpayable",
      "type": "function"
    },
    {
      "inputs": [],
      "name": "usdcPool",
      "outputs": [
        {
          "internalType": "contract ICurvePool",
          "name": "",
          "type": "address"
        }
      ],
      "stateMutability": "view",
      "type": "function"
    },
    {
      "inputs": [],
      "name": "viewApprovedTargetTokens",
      "outputs": [
        {
          "internalType": "address[]",
          "name": "",
          "type": "address[]"
        }
      ],
      "stateMutability": "view",
      "type": "function"
    },
    {
      "inputs": [],
      "name": "viewRouters",
      "outputs": [
        {
          "internalType": "address[]",
          "name": "",
          "type": "address[]"
        }
      ],
      "stateMutability": "view",
      "type": "function"
    }
  ],
  "bytecode": "0x60c06040523480156200001157600080fd5b50604051620034e3380380620034e38339810160408190526200003491620003d5565b600280546001810182556000919091526068600080516020620034c383398151915290910155806001600160a01b038116620000c15760405162461bcd60e51b815260206004820152602260248201527f506c656173652070726f766964652076616c696420726f6c6573206164647265604482015261737360f01b606482015260840160405180910390fd5b60601b6001600160601b0319166080526002805460018082018355606a600080516020620034c383398151915292830155600580548083019091556004600080516020620034a383398151915290910155825480820184556000848152606691840191909155835480830185556067908401558354808301909455606d93909201929092556007919091555b8085511115620001b0576200019a8582815181106200017c57634e487b7160e01b600052603260045260246000fd5b60200260200101516008620002c660201b62001c8f1790919060201c565b5080620001a78162000551565b9150506200014d565b5060005b808451111562000285576000848281518110620001e157634e487b7160e01b600052603260045260246000fd5b602002602001015190506200020681600a620002c660201b62001c8f1790919060201c565b508382815181106200022857634e487b7160e01b600052603260045260246000fd5b6020908102919091018101516001600160a01b039092166000908152600c909152604090208054600f9290920b6001600160801b03166001600160801b0319909216919091179055806200027c8162000551565b915050620001b4565b5050600580546001810182556000919091526002600080516020620034a38339815191529091015550505060601b6001600160601b03191660a0526200058f565b6000620002dd836001600160a01b038416620002e6565b90505b92915050565b60008181526001830160205260408120546200032f57508154600181810184556000848152602080822090930184905584548482528286019093526040902091909155620002e0565b506000620002e0565b80516001600160a01b03811681146200035057600080fd5b919050565b600082601f83011262000366578081fd5b815160206200037f62000379836200052b565b620004f8565b80838252828201915082860187848660051b89010111156200039f578586fd5b855b85811015620003c857620003b58262000338565b84529284019290840190600101620003a1565b5090979650505050505050565b600080600080600060a08688031215620003ed578081fd5b620003f88662000338565b602087810151919650906001600160401b038082111562000417578384fd5b620004258a838b0162000355565b965060408901519150808211156200043b578384fd5b620004498a838b0162000355565b955060608901519150808211156200045f578384fd5b508701601f8101891362000471578283fd5b80516200048262000379826200052b565b8082825284820191508484018c868560051b8701011115620004a2578687fd5b8694505b83851015620004d557805180600f0b8114620004c0578788fd5b835260019490940193918501918501620004a6565b508096505050505050620004ec6080870162000338565b90509295509295909350565b604051601f8201601f191681016001600160401b038111828210171562000523576200052362000579565b604052919050565b60006001600160401b0382111562000547576200054762000579565b5060051b60200190565b60006000198214156200057257634e487b7160e01b81526011600452602481fd5b5060010190565b634e487b7160e01b600052604160045260246000fd5b60805160601c60a05160601c612eb7620005ec6000396000818161039f015281816110c201526110e90152600081816102450152818161042b015281816113eb01528181611cb101528181611d440152611dcb0152612eb76000f3fe608060405234801561001057600080fd5b50600436106101495760003560e01c8063071060a61461014e5780630d9a48281461016357806324ca984e1461019e57806324f0d784146101b15780632642b606146101c457806328f3fc73146102055780632cb535a31461021857806337233e291461022d578063392f5f6414610240578063447d52ba1461026757806349d4f22e1461027a5780634a7a7f411461028d578063652dcc25146102a25780636ae0b154146102cc5780636caa9c11146102df5780637a1a04df146103005780637dad209b1461033e578063a9ec9fdc14610346578063abcbc4fc1461034e578063aeb38d8b14610361578063bf184ea414610374578063c082fe5614610387578063d89281e81461039a578063dc94cb7d146103c1578063e49bd61e146103c9578063e8ea4fae146103e4578063e9c3f77d146103ec575b600080fd5b61016161015c3660046129f9565b610415565b005b6101866101713660046126d3565b600c60205260009081526040902054600f0b81565b604051600f9190910b81526020015b60405180910390f35b6101616101ac3660046126d3565b6104db565b6101616101bf3660046126d3565b61053c565b6101f86101d236600461280f565b60066020908152600092835260408084209091529082529020546001600160a01b031681565b6040516101959190612ab1565b61016161021336600461280f565b6105aa565b610220610699565b6040516101959190612b1b565b61016161023b36600461270b565b6106aa565b6101f87f000000000000000000000000000000000000000000000000000000000000000081565b610161610275366004612a29565b6113d4565b610161610288366004612872565b6114aa565b61029561155f565b6040516101959190612b68565b6102b56102b0366004612796565b6115b7565b604080519215158352602083019190915201610195565b6101616102da3660046126d3565b611a6e565b6102f26102ed3660046129f9565b611adc565b604051908152602001610195565b61032e61030e366004612847565b600160209081526000928352604080842090915290825290205460ff1681565b6040519015158152602001610195565b610295611afd565b610220611b53565b6102f261035c3660046129f9565b611b5f565b6102f261036f3660046129f9565b611b6f565b6102f26103823660046129f9565b611b7f565b6101616103953660046126d3565b611b8f565b6101f87f000000000000000000000000000000000000000000000000000000000000000081565b610295611be3565b6101f8733a43a5851a3e3e0e25a3c1089670269786be157781565b610295611c39565b6101f86103fa3660046129f9565b6000602081905290815260409020546001600160a01b031681565b60405163b4ed0b6d60e01b8152600481018290527f00000000000000000000000000000000000000000000000000000000000000006001600160a01b03169063b4ed0b6d9060240160206040518083038186803b15801561047557600080fd5b505afa158015610489573d6000803e3d6000fd5b505050506040513d601f19601f820116820180604052508101906104ad91906126ef565b60009182526020829052604090912080546001600160a01b0319166001600160a01b03909216919091179055565b336104e4611cad565b6001600160a01b031614806105085750336104fd611d40565b6001600160a01b0316145b61052d5760405162461bcd60e51b815260040161052490612bd3565b60405180910390fd5b610538600882611c8f565b5050565b33610545611cad565b6001600160a01b0316148061056957503361055e611d40565b6001600160a01b0316145b80610583575033610578611db1565b6001600160a01b0316145b61059f5760405162461bcd60e51b815260040161052490612c4f565b610538600a82611e15565b6001600160a01b03828116600090815260066020908152604080832085851684529091529020541615610538576105df611e2a565b6001600160a01b0316635e73a03483836040518363ffffffff1660e01b815260040161060c929190612ac5565b60206040518083038186803b15801561062457600080fd5b505afa158015610638573d6000803e3d6000fd5b505050506040513d601f19601f8201168201806040525081019061065c91906126ef565b6001600160a01b03928316600090815260066020908152604080832094861683529390529190912080546001600160a01b03191691909216179055565b60606106a5600a611e62565b905090565b600260075414156106fd5760405162461bcd60e51b815260206004820152601f60248201527f5265656e7472616e637947756172643a207265656e7472616e742063616c6c006044820152606401610524565b6002600755606860009081526020527faa071f48f62aaaa1f6320aaa7bd2ad2d552d05160892c14d699d38c9920d5f995460405163b4d6975760e01b81526001600160a01b039091169063b4d697579061075b908990600401612ab1565b60206040518083038186803b15801561077357600080fd5b505afa158015610787573d6000803e3d6000fd5b505050506040513d601f19601f820116820180604052508101906107ab91906129d9565b6107f25760405162461bcd60e51b81526020600482015260186024820152774e6f7420616e20617070726f76656420737472617465677960401b6044820152606401610524565b6107fd600884611e76565b6108425760405162461bcd60e51b81526020600482015260166024820152752737ba1030b71030b8383937bb32b2103937baba32b960511b6044820152606401610524565b6040516389f117b360e01b815286906001600160a01b038216906389f117b390610870908890600401612ab1565b600060405180830381600087803b15801561088a57600080fd5b505af115801561089e573d6000803e3d6000fd5b5050604051631e52907360e21b8152600092506001600160a01b038416915063794a41cc906108d1908a90600401612ab1565b60206040518083038186803b1580156108e957600080fd5b505afa1580156108fd573d6000803e3d6000fd5b505050506040513d601f19601f820116820180604052508101906109219190612a11565b9050600061092d611e8b565b9050600061093c898484611ec3565b90506000612710856001600160a01b031663d7fb7b316040518163ffffffff1660e01b815260040160206040518083038186803b15801561097c57600080fd5b505afa158015610990573d6000803e3d6000fd5b505050506040513d601f19601f820116820180604052508101906109b49190612a11565b6109be9084612dc0565b6109c89190612da0565b6109d3906002612d88565b6040516340c10f1960e01b81529091506001600160a01b038416906340c10f1990610a049030908590600401612adf565b600060405180830381600087803b158015610a1e57600080fd5b505af1158015610a32573d6000803e3d6000fd5b505060405163026e21d760e31b81526001600160a01b038d811660048301526024820188905260448201859052881692506313710eb89150606401600060405180830381600087803b158015610a8757600080fd5b505af1158015610a9b573d6000803e3d6000fd5b505050506000856001600160a01b031663a51c8fab6040518163ffffffff1660e01b815260040160006040518083038186803b158015610ada57600080fd5b505afa158015610aee573d6000803e3d6000fd5b505050506040513d6000823e601f3d908101601f19168201604052610b1691908101906128b3565b905060005b8082511115610bdc57866001600160a01b0316638a31b98f838381518110610b5357634e487b7160e01b600052603260045260246000fd5b60200260200101516040518263ffffffff1660e01b8152600401610b779190612ab1565b602060405180830381600087803b158015610b9157600080fd5b505af1158015610ba5573d6000803e3d6000fd5b505050506040513d601f19601f82011682018060405250810190610bc99190612a11565b5080610bd481612e22565b915050610b1b565b508a73b97ef9ef8734c71904d8002f8b6bc66dd9c48a6e6001600160a01b0382161415610d0957610c2b6001600160a01b038d16733a43a5851a3e3e0e25a3c1089670269786be157788611f5e565b733a43a5851a3e3e0e25a3c1089670269786be1577633df0212460016000896103e8610c59826103e2612dc0565b610c639190612da0565b6040516001600160e01b031960e087901b168152600f94850b60048201529290930b602483015260448201526064810191909152608401602060405180830381600087803b158015610cb457600080fd5b505af1158015610cc8573d6000803e3d6000fd5b505050506040513d601f19601f82011682018060405250810190610cec9190612a11565b5073a7d7079b0fead91f3e65f86e8915cb59c1a4c6649050610fd9565b610d14600a8d611e76565b610fd9578888610d25600182612ddf565b818110610d4257634e487b7160e01b600052603260045260246000fd5b9050602002016020810190610d5791906126d3565b9050846001600160a01b0316816001600160a01b03161480610d7f5750610d7f600a82611e76565b610d9b5760405162461bcd60e51b815260040161052490612ca7565b826001600160a01b0382811690871614610de7576000610dc483670de0b6b3a764000089611ec3565b905080610dd986670de0b6b3a7640000612dc0565b610de39190612da0565b9150505b60405163d06ca61f60e01b81526000906001600160a01b038d169063d06ca61f90610e1a908b908f908f90600401612cdd565b60006040518083038186803b158015610e3257600080fd5b505afa158015610e46573d6000803e3d6000fd5b505050506040513d6000823e601f3d908101601f19168201604052610e6e9190810190612953565b9050818160018351610e809190612ddf565b81518110610e9e57634e487b7160e01b600052603260045260246000fd5b60200260200101511015610ef45760405162461bcd60e51b815260206004820152601d60248201527f496e73756666696369656e74206f75747075742066726f6d20737761700000006044820152606401610524565b610f3f8c898d8d6000818110610f1a57634e487b7160e01b600052603260045260246000fd5b9050602002016020810190610f2f91906126d3565b6001600160a01b03169190611f5e565b6001600160a01b038c166338ed173989848e8e30610f5e426001612d88565b6040518763ffffffff1660e01b8152600401610f7f96959493929190612cf7565b600060405180830381600087803b158015610f9957600080fd5b505af1158015610fad573d6000803e3d6000fd5b505050506040513d6000823e601f3d908101601f19168201604052610fd59190810190612953565b5050505b846001600160a01b0316816001600160a01b0316146111c0576001600160a01b0381166000908152600c6020526040812054600f90810b919082900b136110325760405162461bcd60e51b815260040161052490612c1d565b6040516370a0823160e01b81526000906001600160a01b038416906370a0823190611061903090600401612ab1565b60206040518083038186803b15801561107957600080fd5b505afa15801561108d573d6000803e3d6000fd5b505050506040513d601f19601f820116820180604052508101906110b19190612a11565b90506110e76001600160a01b0384167f000000000000000000000000000000000000000000000000000000000000000083611f5e565b7f00000000000000000000000000000000000000000000000000000000000000006001600160a01b031663a3220db861111e612047565b6040516001600160e01b031960e084901b1681526001600160a01b039091166004820152600f85900b60248201526000604482015260648101849052608481018890523060a482015260c401602060405180830381600087803b15801561118457600080fd5b505af1158015611198573d6000803e3d6000fd5b505050506040513d601f19601f820116820180604052508101906111bc9190612a11565b5050505b6040516370a0823160e01b81526000906001600160a01b038716906370a08231906111ef903090600401612ab1565b60206040518083038186803b15801561120757600080fd5b505afa15801561121b573d6000803e3d6000fd5b505050506040513d601f19601f8201168201806040525081019061123f9190612a11565b90508381111561135f57600060026112578684612ddf565b6112619190612da0565b9050866001600160a01b03166340c10f196112ad606760009081526020527f682158d08466d11c566d5712d4396197fdd67e65be71d83c97ef719ec468867b546001600160a01b031690565b836040518363ffffffff1660e01b81526004016112cb929190612adf565b600060405180830381600087803b1580156112e557600080fd5b505af11580156112f9573d6000803e3d6000fd5b50506040516340c10f1960e01b81526001600160a01b038a1692506340c10f19915061132b9033908590600401612adf565b600060405180830381600087803b15801561134557600080fd5b505af1158015611359573d6000803e3d6000fd5b50505050505b604051632770a7eb60e21b81526001600160a01b03871690639dc29fac9061138d9030908590600401612adf565b600060405180830381600087803b1580156113a757600080fd5b505af11580156113bb573d6000803e3d6000fd5b5050600160075550505050505050505050505050505050565b60405163f0723d9760e01b81526001600160a01b037f0000000000000000000000000000000000000000000000000000000000000000169063f0723d97906114229084908690600401612adf565b60206040518083038186803b15801561143a57600080fd5b505afa15801561144e573d6000803e3d6000fd5b505050506040513d601f19601f8201168201806040525081019061147291906129d9565b6001600160a01b0391909116600090815260016020908152604080832094835293905291909120805460ff1916911515919091179055565b336114b3611cad565b6001600160a01b031614806114d75750336114cc611d40565b6001600160a01b0316145b6114f35760405162461bcd60e51b815260040161052490612bd3565b6001600160a01b0381166115465760405162461bcd60e51b815260206004820152601a602482015279446f6e27742073656e6420746f207a65726f206164647265737360301b6044820152606401610524565b61155a6001600160a01b038416828461207f565b505050565b606060038054806020026020016040519081016040528092919081815260200182805480156115ad57602002820191906000526020600020905b815481526020019060010190808311611599575b5050505050905090565b604051631e52907360e21b81526000908190879082906001600160a01b0383169063794a41cc906115ec908b90600401612ab1565b60206040518083038186803b15801561160457600080fd5b505afa158015611618573d6000803e3d6000fd5b505050506040513d601f19601f8201168201806040525081019061163c9190612a11565b905080670de0b6b3a764000011156116595750670de0b6b3a76400005b6000611663611e8b565b905060006116728a848461209e565b90506000612710856001600160a01b031663d7fb7b316040518163ffffffff1660e01b815260040160206040518083038186803b1580156116b257600080fd5b505afa1580156116c6573d6000803e3d6000fd5b505050506040513d601f19601f820116820180604052508101906116ea9190612a11565b6116f49084612dc0565b6116fe9190612da0565b611709906002612d88565b90506000898961171a600182612ddf565b81811061173757634e487b7160e01b600052603260045260246000fd5b905060200201602081019061174c91906126d3565b9050836001600160a01b0316816001600160a01b031614806117745750611774600a82611e76565b6117905760405162461bcd60e51b815260040161052490612ca7565b816001600160a01b03828116908616146117dc5760006117b983670de0b6b3a76400008861209e565b9050806117ce85670de0b6b3a7640000612dc0565b6117d89190612da0565b9150505b60008c6001600160a01b031663d06ca61f888e8e6040518463ffffffff1660e01b815260040161180e93929190612cdd565b60006040518083038186803b15801561182657600080fd5b505afa15801561183a573d6000803e3d6000fd5b505050506040513d6000823e601f3d908101601f191682016040526118629190810190612953565b905080600182516118739190612ddf565b8151811061189157634e487b7160e01b600052603260045260246000fd5b60200260200101518211156118b457600080995099505050505050505050611a64565b856001600160a01b0316836001600160a01b031614611a15576001600160a01b0383166000908152600c6020526040812054600f90810b919082900b1361190d5760405162461bcd60e51b815260040161052490612c1d565b6000611917612047565b6001600160a01b03166307211ef783600086600188516119379190612ddf565b8151811061195557634e487b7160e01b600052603260045260246000fd5b60200260200101516040518463ffffffff1660e01b815260040161199493929190600f93840b81529190920b6020820152604081019190915260600190565b60206040518083038186803b1580156119ac57600080fd5b505afa1580156119c0573d6000803e3d6000fd5b505050506040513d601f19601f820116820180604052508101906119e49190612a11565b9050858110158682116119f8576000611a02565b611a028783612ddf565b9b509b5050505050505050505050611a64565b6001828260018451611a279190612ddf565b81518110611a4557634e487b7160e01b600052603260045260246000fd5b6020026020010151611a579190612ddf565b9950995050505050505050505b9550959350505050565b33611a77611cad565b6001600160a01b03161480611a9b575033611a90611d40565b6001600160a01b0316145b80611ab5575033611aaa611db1565b6001600160a01b0316145b611ad15760405162461bcd60e51b815260040161052490612c4f565b610538600882611e15565b60058181548110611aec57600080fd5b600091825260209091200154905081565b606060048054806020026020016040519081016040528092919081815260200182805480156115ad5760200282019190600052602060002090815481526020019060010190808311611599575050505050905090565b60606106a56008611e62565b60028181548110611aec57600080fd5b60048181548110611aec57600080fd5b60038181548110611aec57600080fd5b33611b98611cad565b6001600160a01b03161480611bbc575033611bb1611d40565b6001600160a01b0316145b611bd85760405162461bcd60e51b815260040161052490612bd3565b610538600a82611c8f565b606060028054806020026020016040519081016040528092919081815260200182805480156115ad5760200282019190600052602060002090815481526020019060010190808311611599575050505050905090565b606060058054806020026020016040519081016040528092919081815260200182805480156115ad5760200282019190600052602060002090815481526020019060010190808311611599575050505050905090565b6000611ca4836001600160a01b0384166121b1565b90505b92915050565b60007f00000000000000000000000000000000000000000000000000000000000000006001600160a01b0316638da5cb5b6040518163ffffffff1660e01b815260040160206040518083038186803b158015611d0857600080fd5b505afa158015611d1c573d6000803e3d6000fd5b505050506040513d601f19601f820116820180604052508101906106a591906126ef565b60007f00000000000000000000000000000000000000000000000000000000000000006001600160a01b031663c34c08e56040518163ffffffff1660e01b8152600401602060405180830381600087803b158015611d9d57600080fd5b505af1158015611d1c573d6000803e3d6000fd5b60405163b4ed0b6d60e01b81526103e960048201526000907f00000000000000000000000000000000000000000000000000000000000000006001600160a01b03169063b4ed0b6d9060240160206040518083038186803b158015611d0857600080fd5b6000611ca4836001600160a01b0384166121fb565b606a60009081526020527ff3261457f4fd0b7c00a1511877ab27b74183ac470be8db3a7ecdc64335f6f979546001600160a01b031690565b60606000611e6f83612318565b9392505050565b6000611ca4836001600160a01b038416612374565b606660009081526020527f422cccb7cea5c0e46f340bb7b21b81debac329f72e31669c20ff0f3a05cc2b5b546001600160a01b031690565b600080611ed0858461238c565b604051630576cbc360e41b81529091506001600160a01b0382169063576cbc3090611f0390889088908890600401612af8565b602060405180830381600087803b158015611f1d57600080fd5b505af1158015611f31573d6000803e3d6000fd5b505050506040513d601f19601f82011682018060405250810190611f559190612a11565b95945050505050565b600081846001600160a01b031663dd62ed3e30866040518363ffffffff1660e01b8152600401611f8f929190612ac5565b60206040518083038186803b158015611fa757600080fd5b505afa158015611fbb573d6000803e3d6000fd5b505050506040513d601f19601f82011682018060405250810190611fdf9190612a11565b611fe99190612d88565b90506120418463095ea7b360e01b858460405160240161200a929190612adf565b60408051601f198184030181529190526020810180516001600160e01b03166001600160e01b031990931692909217909152612440565b50505050565b606d60009081526020527faa31d2a33b224bee3888830916f2f56f41bb5a40ed8a3273c6e72e6992d6223a546001600160a01b031690565b61155a8363a9059cbb60e01b848460405160240161200a929190612adf565b6001600160a01b038084166000908152600660209081526040808320858516845290915281205490911680612155576120d5611e2a565b6001600160a01b0316635e73a03486856040518363ffffffff1660e01b8152600401612102929190612ac5565b60206040518083038186803b15801561211a57600080fd5b505afa15801561212e573d6000803e3d6000fd5b505050506040513d601f19601f8201168201806040525081019061215291906126ef565b90505b6040516323aaad6360e21b81526001600160a01b03821690638eaab58c9061218590889088908890600401612af8565b60206040518083038186803b15801561219d57600080fd5b505afa158015611f31573d6000803e3d6000fd5b60006121bd8383612374565b6121f357508154600181810184556000848152602080822090930184905584548482528286019093526040902091909155611ca7565b506000611ca7565b6000818152600183016020526040812054801561230e57600061221f600183612ddf565b855490915060009061223390600190612ddf565b90508181146122b457600086600001828154811061226157634e487b7160e01b600052603260045260246000fd5b906000526020600020015490508087600001848154811061229257634e487b7160e01b600052603260045260246000fd5b6000918252602080832090910192909255918252600188019052604090208390555b85548690806122d357634e487b7160e01b600052603160045260246000fd5b600190038181906000526020600020016000905590558560010160008681526020019081526020016000206000905560019350505050611ca7565b6000915050611ca7565b60608160000180548060200260200160405190810160405280929190818152602001828054801561236857602002820191906000526020600020905b815481526020019060010190808311612354575b50505050509050919050565b60009081526001919091016020526040902054151590565b6001600160a01b03808316600090815260066020908152604080832085851684529091529020541680611ca7576123c1611e2a565b6001600160a01b0316631757616884846040518363ffffffff1660e01b81526004016123ee929190612ac5565b602060405180830381600087803b15801561240857600080fd5b505af115801561241c573d6000803e3d6000fd5b505050506040513d601f19601f82011682018060405250810190611ca491906126ef565b6000612495826040518060400160405280602081526020017f5361666545524332303a206c6f772d6c6576656c2063616c6c206661696c6564815250856001600160a01b03166125129092919063ffffffff16565b80519091501561155a57808060200190518101906124b391906129d9565b61155a5760405162461bcd60e51b815260206004820152602a60248201527f5361666545524332303a204552433230206f7065726174696f6e20646964206e6044820152691bdd081cdd58d8d9595960b21b6064820152608401610524565b60606125218484600085612529565b949350505050565b60608247101561258a5760405162461bcd60e51b815260206004820152602660248201527f416464726573733a20696e73756666696369656e742062616c616e636520666f6044820152651c8818d85b1b60d21b6064820152608401610524565b843b6125d85760405162461bcd60e51b815260206004820152601d60248201527f416464726573733a2063616c6c20746f206e6f6e2d636f6e74726163740000006044820152606401610524565b600080866001600160a01b031685876040516125f49190612a95565b60006040518083038185875af1925050503d8060008114612631576040519150601f19603f3d011682016040523d82523d6000602084013e612636565b606091505b5091509150612646828286612651565b979650505050505050565b60608315612660575081611e6f565b8251156126705782518084602001fd5b8160405162461bcd60e51b81526004016105249190612ba0565b60008083601f84011261269b578182fd5b5081356001600160401b038111156126b1578182fd5b6020830191508360208260051b85010111156126cc57600080fd5b9250929050565b6000602082840312156126e4578081fd5b8135611e6f81612e69565b600060208284031215612700578081fd5b8151611e6f81612e69565b60008060008060008060a08789031215612723578182fd5b863561272e81612e69565b9550602087013561273e81612e69565b9450604087013561274e81612e69565b9350606087013561275e81612e69565b925060808701356001600160401b03811115612778578283fd5b61278489828a0161268a565b979a9699509497509295939492505050565b6000806000806000608086880312156127ad578081fd5b85356127b881612e69565b945060208601356127c881612e69565b935060408601356127d881612e69565b925060608601356001600160401b038111156127f2578182fd5b6127fe8882890161268a565b969995985093965092949392505050565b60008060408385031215612821578182fd5b823561282c81612e69565b9150602083013561283c81612e69565b809150509250929050565b60008060408385031215612859578182fd5b823561286481612e69565b946020939093013593505050565b600080600060608486031215612886578283fd5b833561289181612e69565b92506020840135915060408401356128a881612e69565b809150509250925092565b600060208083850312156128c5578182fd5b82516001600160401b038111156128da578283fd5b8301601f810185136128ea578283fd5b80516128fd6128f882612d65565b612d35565b80828252848201915084840188868560051b870101111561291c578687fd5b8694505b8385101561294757805161293381612e69565b835260019490940193918501918501612920565b50979650505050505050565b60006020808385031215612965578182fd5b82516001600160401b0381111561297a578283fd5b8301601f8101851361298a578283fd5b80516129986128f882612d65565b80828252848201915084840188868560051b87010111156129b7578687fd5b8694505b838510156129475780518352600194909401939185019185016129bb565b6000602082840312156129ea578081fd5b81518015158114611e6f578182fd5b600060208284031215612a0a578081fd5b5035919050565b600060208284031215612a22578081fd5b5051919050565b60008060408385031215612a3b578182fd5b82359150602083013561283c81612e69565b60008284526020808501945082825b85811015612a8a578135612a6f81612e69565b6001600160a01b031687529582019590820190600101612a5c565b509495945050505050565b60008251612aa7818460208701612df6565b9190910192915050565b6001600160a01b0391909116815260200190565b6001600160a01b0392831681529116602082015260400190565b6001600160a01b03929092168252602082015260400190565b6001600160a01b0393841681526020810192909252909116604082015260600190565b6020808252825182820181905260009190848201906040850190845b81811015612b5c5783516001600160a01b031683529284019291840191600101612b37565b50909695505050505050565b6020808252825182820181905260009190848201906040850190845b81811015612b5c57835183529284019291840191600101612b84565b6000602082528251806020840152612bbf816040850160208701612df6565b601f01601f19169190910160400192915050565b6020808252602a908201527f526f6c65733a2063616c6c6572206973206e6f7420746865206f776e6572206f604082015269391032bc32b1baba37b960b11b606082015260800190565b6020808252601890820152774e6f7420612076616c696420696e7465726d65646961727960401b604082015260600190565b60208082526038908201527f43616c6c6572206973206e6f7420746865206f776e65722c206578656375746f604082015277391037b91030baba3437b934bd32b2103234b9b0b13632b960411b606082015260800190565b6020808252601c908201527b2737ba1030b71030b8383937bb32b2103a30b933b2ba103a37b5b2b760211b604082015260600190565b600084825260406020830152611f55604083018486612a4d565b600087825286602083015260a06040830152612d1760a083018688612a4d565b6001600160a01b039490941660608301525060800152949350505050565b604051601f8201601f191681016001600160401b0381118282101715612d5d57612d5d612e53565b604052919050565b60006001600160401b03821115612d7e57612d7e612e53565b5060051b60200190565b60008219821115612d9b57612d9b612e3d565b500190565b600082612dbb57634e487b7160e01b81526012600452602481fd5b500490565b6000816000190483118215151615612dda57612dda612e3d565b500290565b600082821015612df157612df1612e3d565b500390565b60005b83811015612e11578181015183820152602001612df9565b838111156120415750506000910152565b6000600019821415612e3657612e36612e3d565b5060010190565b634e487b7160e01b600052601160045260246000fd5b634e487b7160e01b600052604160045260246000fd5b6001600160a01b0381168114612e7e57600080fd5b5056fea26469706673582212204d3cfef7f3d8d0be282b743309535c81830831137ee2aa5a69ff295f7e98a8cb64736f6c63430008030033036b6384b5eca791c62761152d0c79bb0604c104a5fb6f4eb0703f3154bb3db0405787fa12a823e0f2b7631cc41b3ba8828b3321ca811111fa75cd3aa3bb5ace",
  "linkReferences": {},
  "deployedLinkReferences": {}
}