{
  "_format": "hh-sol-artifact-1",
  "contractName": "BigMigrateStableLending2",
  "sourceName": "contracts/strategies/BigMigrateStableLending2.sol",
  "abi": [
    {
      "inputs": [
        {
          "internalType": "address",
          "name": "roles",
          "type": "address"
        }
      ],
      "stateMutability": "nonpayable",
      "type": "constructor"
    },
    {
      "anonymous": false,
      "inputs": [
        {
          "indexed": false,
          "internalType": "string",
          "name": "param",
          "type": "string"
        },
        {
          "indexed": false,
          "internalType": "uint256",
          "name": "value",
          "type": "uint256"
        }
      ],
      "name": "ParameterUpdated",
      "type": "event"
    },
    {
      "anonymous": false,
      "inputs": [
        {
          "indexed": false,
          "internalType": "string",
          "name": "param",
          "type": "string"
        },
        {
          "indexed": false,
          "internalType": "address",
          "name": "subject",
          "type": "address"
        },
        {
          "indexed": false,
          "internalType": "uint256",
          "name": "value",
          "type": "uint256"
        }
      ],
      "name": "SubjectParameterUpdated",
      "type": "event"
    },
    {
      "anonymous": false,
      "inputs": [
        {
          "indexed": false,
          "internalType": "string",
          "name": "param",
          "type": "string"
        },
        {
          "indexed": false,
          "internalType": "address",
          "name": "subject",
          "type": "address"
        }
      ],
      "name": "SubjectUpdated",
      "type": "event"
    },
    {
      "inputs": [
        {
          "internalType": "uint256",
          "name": "",
          "type": "uint256"
        }
      ],
      "name": "_charactersPlayed",
      "outputs": [
        {
          "internalType": "uint256",
          "name": "",
          "type": "uint256"
        }
      ],
      "stateMutability": "view",
      "type": "function"
    },
    {
      "inputs": [
        {
          "internalType": "uint256",
          "name": "",
          "type": "uint256"
        }
      ],
      "name": "_dependsOnCharacters",
      "outputs": [
        {
          "internalType": "uint256",
          "name": "",
          "type": "uint256"
        }
      ],
      "stateMutability": "view",
      "type": "function"
    },
    {
      "inputs": [
        {
          "internalType": "uint256",
          "name": "",
          "type": "uint256"
        }
      ],
      "name": "_dependsOnRoles",
      "outputs": [
        {
          "internalType": "uint256",
          "name": "",
          "type": "uint256"
        }
      ],
      "stateMutability": "view",
      "type": "function"
    },
    {
      "inputs": [
        {
          "internalType": "uint256",
          "name": "",
          "type": "uint256"
        }
      ],
      "name": "_rolesPlayed",
      "outputs": [
        {
          "internalType": "uint256",
          "name": "",
          "type": "uint256"
        }
      ],
      "stateMutability": "view",
      "type": "function"
    },
    {
      "inputs": [],
      "name": "charactersPlayed",
      "outputs": [
        {
          "internalType": "uint256[]",
          "name": "",
          "type": "uint256[]"
        }
      ],
      "stateMutability": "view",
      "type": "function"
    },
    {
      "inputs": [],
      "name": "dependsOnCharacters",
      "outputs": [
        {
          "internalType": "uint256[]",
          "name": "",
          "type": "uint256[]"
        }
      ],
      "stateMutability": "view",
      "type": "function"
    },
    {
      "inputs": [],
      "name": "dependsOnRoles",
      "outputs": [
        {
          "internalType": "uint256[]",
          "name": "",
          "type": "uint256[]"
        }
      ],
      "stateMutability": "view",
      "type": "function"
    },
    {
      "inputs": [
        {
          "internalType": "uint256",
          "name": "",
          "type": "uint256"
        }
      ],
      "name": "mainCharacterCache",
      "outputs": [
        {
          "internalType": "address",
          "name": "",
          "type": "address"
        }
      ],
      "stateMutability": "view",
      "type": "function"
    },
    {
      "inputs": [
        {
          "internalType": "uint256",
          "name": "trancheId",
          "type": "uint256"
        },
        {
          "internalType": "address",
          "name": "destination",
          "type": "address"
        },
        {
          "internalType": "address",
          "name": "",
          "type": "address"
        },
        {
          "internalType": "address",
          "name": "",
          "type": "address"
        }
      ],
      "name": "migrateStrategy",
      "outputs": [
        {
          "internalType": "address",
          "name": "",
          "type": "address"
        },
        {
          "internalType": "uint256",
          "name": "",
          "type": "uint256"
        },
        {
          "internalType": "uint256",
          "name": "",
          "type": "uint256"
        }
      ],
      "stateMutability": "nonpayable",
      "type": "function"
    },
    {
      "inputs": [
        {
          "internalType": "address",
          "name": "",
          "type": "address"
        },
        {
          "internalType": "uint256",
          "name": "",
          "type": "uint256"
        }
      ],
      "name": "roleCache",
      "outputs": [
        {
          "internalType": "bool",
          "name": "",
          "type": "bool"
        }
      ],
      "stateMutability": "view",
      "type": "function"
    },
    {
      "inputs": [],
      "name": "roles",
      "outputs": [
        {
          "internalType": "contract Roles",
          "name": "",
          "type": "address"
        }
      ],
      "stateMutability": "view",
      "type": "function"
    },
    {
      "inputs": [],
      "name": "rolesPlayed",
      "outputs": [
        {
          "internalType": "uint256[]",
          "name": "",
          "type": "uint256[]"
        }
      ],
      "stateMutability": "view",
      "type": "function"
    },
    {
      "inputs": [
        {
          "internalType": "uint256",
          "name": "role",
          "type": "uint256"
        }
      ],
      "name": "updateMainCharacterCache",
      "outputs": [],
      "stateMutability": "nonpayable",
      "type": "function"
    },
    {
      "inputs": [
        {
          "internalType": "uint256",
          "name": "role",
          "type": "uint256"
        },
        {
          "internalType": "address",
          "name": "contr",
          "type": "address"
        }
      ],
      "name": "updateRoleCache",
      "outputs": [],
      "stateMutability": "nonpayable",
      "type": "function"
    }
  ],
  "bytecode": "0x60a060405234801561001057600080fd5b5060405161173d38038061173d83398101604081905261002f91610152565b806001600160a01b0381166100955760405162461bcd60e51b815260206004820152602260248201527f506c656173652070726f766964652076616c696420726f6c6573206164647265604482015261737360f01b606482015260840160405180910390fd5b60601b6001600160601b031916608052506002805460018082018355606f7f405787fa12a823e0f2b7631cc41b3ba8828b3321ca811111fa75cd3aa3bb5ace9283015582548082018455607790830155825480820184556069908301558254808201845560669083015582548082018455606b92019190915560058054808301825560008290527f036b6384b5eca791c62761152d0c79bb0604c104a5fb6f4eb0703f3154bb3db090810182905581549283019091550155610180565b600060208284031215610163578081fd5b81516001600160a01b0381168114610179578182fd5b9392505050565b60805160601c6115926101ab6000396000818160d901528181610260015261032701526115926000f3fe608060405234801561001057600080fd5b50600436106100ba5760003560e01c8063071060a6146100bf578063392f5f64146100d4578063447d52ba146101115780634a7a7f41146101245780636caa9c11146101395780637a1a04df1461015a5780637dad209b14610198578063abcbc4fc146101a0578063aeb38d8b146101b3578063b23d66c2146101c6578063bf184ea4146101fe578063dc94cb7d14610211578063e8ea4fae14610219578063e9c3f77d14610221575b600080fd5b6100d26100cd3660046112b8565b61024a565b005b6100fb7f000000000000000000000000000000000000000000000000000000000000000081565b60405161010891906113b2565b60405180910390f35b6100d261011f3660046112e8565b610310565b61012c6103e6565b60405161010891906113df565b61014c6101473660046112b8565b61043e565b604051908152602001610108565b6101886101683660046111de565b600160209081526000928352604080842090915290825290205460ff1681565b6040519015158152602001610108565b61012c61045f565b61014c6101ae3660046112b8565b6104b5565b61014c6101c13660046112b8565b6104c5565b6101d96101d4366004611317565b6104d5565b604080516001600160a01b039094168452602084019290925290820152606001610108565b61014c61020c3660046112b8565b610dad565b61012c610dbd565b61012c610e13565b6100fb61022f3660046112b8565b6000602081905290815260409020546001600160a01b031681565b60405163b4ed0b6d60e01b8152600481018290527f00000000000000000000000000000000000000000000000000000000000000006001600160a01b03169063b4ed0b6d9060240160206040518083038186803b1580156102aa57600080fd5b505afa1580156102be573d6000803e3d6000fd5b505050506040513d601f19601f820116820180604052508101906102e291906111c2565b60009182526020829052604090912080546001600160a01b0319166001600160a01b03909216919091179055565b60405163f0723d9760e01b81526001600160a01b037f0000000000000000000000000000000000000000000000000000000000000000169063f0723d979061035e90849086906004016113c6565b60206040518083038186803b15801561037657600080fd5b505afa15801561038a573d6000803e3d6000fd5b505050506040513d601f19601f820116820180604052508101906103ae9190611209565b6001600160a01b0391909116600090815260016020908152604080832094835293905291909120805460ff1916911515919091179055565b6060600380548060200260200160405190810160405280929190818152602001828054801561043457602002820191906000526020600020905b815481526020019060010190808311610420575b5050505050905090565b6005818154811061044e57600080fd5b600091825260209091200154905081565b606060048054806020026020016040519081016040528092919081815260200182805480156104345760200282019190600052602060002090815481526020019060010190808311610420575050505050905090565b6002818154811061044e57600080fd5b6004818154811061044e57600080fd5b600080600080610516607760009081526020527f0268ef3855c7ede1fa90865cb7be57f1e39b20db2aafdd81fc63c1af98b87bcb546001600160a01b031690565b90506000806000610558606660009081526020527f422cccb7cea5c0e46f340bb7b21b81debac329f72e31669c20ff0f3a05cc2b5b546001600160a01b031690565b90506000610597606960009081526020527f366a7b92acda364086cc991f618bf9f10b629ec0f7ae94543f96b691b69ec992546001600160a01b031690565b6040516333ac5fff60e11b8152600481018e90529091506000906001600160a01b03831690636758bffe9060240160206040518083038186803b1580156105dd57600080fd5b505afa1580156105f1573d6000803e3d6000fd5b505050506040513d601f19601f8201168201806040525081019061061591906111c2565b9050610652606b60009081526020527f2dc7a963308417ad45132da282495eb244f38a7db03940a4d808be607669c622546001600160a01b031690565b6001600160a01b0316816001600160a01b031614806106825750856001600160a01b0316816001600160a01b0316145b806106c35750606f60009081526020527fd4a194d790fcc0f5af64ad0623a90db8616ce232c92824f4b3df27138fd65b44546001600160a01b038281169116145b6107105760405162461bcd60e51b8152602060048201526019602482015278139bdd0818481b5a59dc985d18589b194818dbdb9d1c9858dd603a1b60448201526064015b60405180910390fd5b809450846001600160a01b0316632972b0f0338f6040518363ffffffff1660e01b81526004016107419291906113c6565b60206040518083038186803b15801561075957600080fd5b505afa15801561076d573d6000803e3d6000fd5b505050506040513d601f19601f820116820180604052508101906107919190611209565b6107d95760405162461bcd60e51b81526020600482015260196024820152786e6f7420617574686f72697a656420746f206d69677261746560381b6044820152606401610707565b505060405163291e486f60e01b8152600481018c90526000906001600160a01b0385169063291e486f906024016101206040518083038186803b15801561081f57600080fd5b505afa158015610833573d6000803e3d6000fd5b505050506040513d601f19601f820116820180604052508101906108579190611229565b60608101516040516340c10f1960e01b81529192506001600160a01b038416916340c10f199161088c913091906004016113c6565b600060405180830381600087803b1580156108a657600080fd5b505af11580156108ba573d6000803e3d6000fd5b50505050836001600160a01b03166379bc3efa8d8360c001518460600151306040518563ffffffff1660e01b81526004016109179493929190938452602084019290925260408301526001600160a01b0316606082015260800190565b600060405180830381600087803b15801561093157600080fd5b505af1158015610945573d6000803e3d6000fd5b50505050600081608001516001600160a01b03166370a08231306040518263ffffffff1660e01b815260040161097b91906113b2565b60206040518083038186803b15801561099357600080fd5b505afa1580156109a7573d6000803e3d6000fd5b505050506040513d601f19601f820116820180604052508101906109cb91906112d0565b60808301519091506109e7906001600160a01b03168d83610e69565b6080820151604051633b04ebfb60e11b81526000916001600160a01b03891691637609d7f691610a19916004016113b2565b60606040518083038186803b158015610a3157600080fd5b505afa158015610a45573d6000803e3d6000fd5b505050506040513d601f19601f82011682018060405250810190610a699190611369565b50915050866001600160a01b03166304c7e76784608001518f85612710896001600160a01b03166370a08231306040518263ffffffff1660e01b8152600401610ab291906113b2565b60206040518083038186803b158015610aca57600080fd5b505afa158015610ade573d6000803e3d6000fd5b505050506040513d601f19601f82011682018060405250810190610b0291906112d0565b8960600151610b1191906114eb565b610b1d886127106114eb565b610b2791906114cc565b610b3191906114ac565b6040516001600160e01b031960e087901b1681526001600160a01b0394851660048201529390921660248401526044830152606482015230608482015260a401602060405180830381600087803b158015610b8b57600080fd5b505af1158015610b9f573d6000803e3d6000fd5b505050506040513d601f19601f82011682018060405250810190610bc391906112d0565b9450836001600160a01b0316639dc29fac30866001600160a01b03166370a08231306040518263ffffffff1660e01b8152600401610c0191906113b2565b60206040518083038186803b158015610c1957600080fd5b505afa158015610c2d573d6000803e3d6000fd5b505050506040513d601f19601f82011682018060405250810190610c5191906112d0565b6040518363ffffffff1660e01b8152600401610c6e9291906113c6565b600060405180830381600087803b158015610c8857600080fd5b505af1158015610c9c573d6000803e3d6000fd5b5050505050505050826001600160a01b03166342842e0e30846001600160a01b0316636352211e8e6040518263ffffffff1660e01b8152600401610ce291815260200190565b60206040518083038186803b158015610cfa57600080fd5b505afa158015610d0e573d6000803e3d6000fd5b505050506040513d601f19601f82011682018060405250810190610d3291906111c2565b6040516001600160e01b031960e085901b1681526001600160a01b0392831660048201529116602482015260448101849052606401600060405180830381600087803b158015610d8157600080fd5b505af1158015610d95573d6000803e3d6000fd5b5060009d939c508d9b50929950505050505050505050565b6003818154811061044e57600080fd5b606060028054806020026020016040519081016040528092919081815260200182805480156104345760200282019190600052602060002090815481526020019060010190808311610420575050505050905090565b606060058054806020026020016040519081016040528092919081815260200182805480156104345760200282019190600052602060002090815481526020019060010190808311610420575050505050905090565b604051636eb1769f60e11b81523060048201526001600160a01b038381166024830152600091839186169063dd62ed3e9060440160206040518083038186803b158015610eb557600080fd5b505afa158015610ec9573d6000803e3d6000fd5b505050506040513d601f19601f82011682018060405250810190610eed91906112d0565b610ef79190611494565b9050610f4f8463095ea7b360e01b8584604051602401610f189291906113c6565b60408051601f198184030181529190526020810180516001600160e01b03166001600160e01b031990931692909217909152610f55565b50505050565b6000610faa826040518060400160405280602081526020017f5361666545524332303a206c6f772d6c6576656c2063616c6c206661696c6564815250856001600160a01b031661102c9092919063ffffffff16565b8051909150156110275780806020019051810190610fc89190611209565b6110275760405162461bcd60e51b815260206004820152602a60248201527f5361666545524332303a204552433230206f7065726174696f6e20646964206e6044820152691bdd081cdd58d8d9595960b21b6064820152608401610707565b505050565b606061103b8484600085611045565b90505b9392505050565b6060824710156110a65760405162461bcd60e51b815260206004820152602660248201527f416464726573733a20696e73756666696369656e742062616c616e636520666f6044820152651c8818d85b1b60d21b6064820152608401610707565b6110af85611174565b6110fb5760405162461bcd60e51b815260206004820152601d60248201527f416464726573733a2063616c6c20746f206e6f6e2d636f6e74726163740000006044820152606401610707565b600080866001600160a01b031685876040516111179190611396565b60006040518083038185875af1925050503d8060008114611154576040519150601f19603f3d011682016040523d82523d6000602084013e611159565b606091505b509150915061116982828661117e565b979650505050505050565b803b15155b919050565b6060831561118d57508161103e565b82511561119d5782518084602001fd5b8160405162461bcd60e51b81526004016107079190611423565b805161117981611544565b6000602082840312156111d3578081fd5b815161103e81611544565b600080604083850312156111f0578081fd5b82356111fb81611544565b946020939093013593505050565b60006020828403121561121a578081fd5b8151801515811461103e578182fd5b600061012080838503121561123c578182fd5b61124581611456565b905082518152611257602084016111b7565b6020820152604083015160408201526060830151606082015261127c608084016111b7565b608082015260a083015160a082015260c083015160c082015260e083015160e08201526101006112ad8185016111b7565b908201529392505050565b6000602082840312156112c9578081fd5b5035919050565b6000602082840312156112e1578081fd5b5051919050565b600080604083850312156112fa578182fd5b82359150602083013561130c81611544565b809150509250929050565b6000806000806080858703121561132c578182fd5b84359350602085013561133e81611544565b9250604085013561134e81611544565b9150606085013561135e81611544565b939692955090935050565b60008060006060848603121561137d578283fd5b8351925060208401519150604084015190509250925092565b600082516113a8818460208701611502565b9190910192915050565b6001600160a01b0391909116815260200190565b6001600160a01b03929092168252602082015260400190565b6020808252825182820181905260009190848201906040850190845b81811015611417578351835292840192918401916001016113fb565b50909695505050505050565b6000602082528251806020840152611442816040850160208701611502565b601f01601f19169190910160400192915050565b604051601f8201601f191681016001600160401b038111828210171561148c57634e487b7160e01b600052604160045260246000fd5b604052919050565b600082198211156114a7576114a761152e565b500190565b6000826114c757634e487b7160e01b81526012600452602481fd5b500490565b60008160001904831182151516156114e6576114e661152e565b500290565b6000828210156114fd576114fd61152e565b500390565b60005b8381101561151d578181015183820152602001611505565b83811115610f4f5750506000910152565b634e487b7160e01b600052601160045260246000fd5b6001600160a01b038116811461155957600080fd5b5056fea2646970667358221220026217673d7a80e53d2fba0e449c3d1fe4b7aa50bcd4b37d67ca0fbacc478fd964736f6c63430008030033",
  "linkReferences": {},
  "deployedLinkReferences": {}
}