{
  "_format": "hh-sol-artifact-1",
  "contractName": "AlphaNftLending",
  "sourceName": "contracts/nft-lending/AlphaNftLending.sol",
  "abi": [
    {
      "inputs": [
        {
          "internalType": "string",
          "name": "_name",
          "type": "string"
        },
        {
          "internalType": "string",
          "name": "_symbol",
          "type": "string"
        }
      ],
      "stateMutability": "nonpayable",
      "type": "constructor"
    },
    {
      "anonymous": false,
      "inputs": [
        {
          "indexed": true,
          "internalType": "address",
          "name": "owner",
          "type": "address"
        },
        {
          "indexed": true,
          "internalType": "address",
          "name": "spender",
          "type": "address"
        },
        {
          "indexed": false,
          "internalType": "uint256",
          "name": "value",
          "type": "uint256"
        }
      ],
      "name": "Approval",
      "type": "event"
    },
    {
      "anonymous": false,
      "inputs": [
        {
          "indexed": true,
          "internalType": "address",
          "name": "previousOwner",
          "type": "address"
        },
        {
          "indexed": true,
          "internalType": "address",
          "name": "newOwner",
          "type": "address"
        }
      ],
      "name": "OwnershipTransferred",
      "type": "event"
    },
    {
      "anonymous": false,
      "inputs": [
        {
          "indexed": true,
          "internalType": "address",
          "name": "from",
          "type": "address"
        },
        {
          "indexed": true,
          "internalType": "address",
          "name": "to",
          "type": "address"
        },
        {
          "indexed": false,
          "internalType": "uint256",
          "name": "value",
          "type": "uint256"
        }
      ],
      "name": "Transfer",
      "type": "event"
    },
    {
      "inputs": [],
      "name": "DOMAIN_SEPARATOR",
      "outputs": [
        {
          "internalType": "bytes32",
          "name": "",
          "type": "bytes32"
        }
      ],
      "stateMutability": "view",
      "type": "function"
    },
    {
      "inputs": [
        {
          "internalType": "address",
          "name": "owner",
          "type": "address"
        },
        {
          "internalType": "address",
          "name": "spender",
          "type": "address"
        }
      ],
      "name": "allowance",
      "outputs": [
        {
          "internalType": "uint256",
          "name": "",
          "type": "uint256"
        }
      ],
      "stateMutability": "view",
      "type": "function"
    },
    {
      "inputs": [
        {
          "internalType": "address",
          "name": "spender",
          "type": "address"
        },
        {
          "internalType": "uint256",
          "name": "amount",
          "type": "uint256"
        }
      ],
      "name": "approve",
      "outputs": [
        {
          "internalType": "bool",
          "name": "",
          "type": "bool"
        }
      ],
      "stateMutability": "nonpayable",
      "type": "function"
    },
    {
      "inputs": [
        {
          "internalType": "address",
          "name": "account",
          "type": "address"
        }
      ],
      "name": "balanceOf",
      "outputs": [
        {
          "internalType": "uint256",
          "name": "",
          "type": "uint256"
        }
      ],
      "stateMutability": "view",
      "type": "function"
    },
    {
      "inputs": [
        {
          "internalType": "address",
          "name": "collateralContract",
          "type": "address"
        },
        {
          "internalType": "uint256",
          "name": "collateralId",
          "type": "uint256"
        },
        {
          "internalType": "uint256",
          "name": "debtAmount",
          "type": "uint256"
        },
        {
          "internalType": "address",
          "name": "recipient",
          "type": "address"
        }
      ],
      "name": "burn",
      "outputs": [],
      "stateMutability": "nonpayable",
      "type": "function"
    },
    {
      "inputs": [
        {
          "internalType": "address",
          "name": "",
          "type": "address"
        },
        {
          "internalType": "uint256",
          "name": "",
          "type": "uint256"
        }
      ],
      "name": "debt",
      "outputs": [
        {
          "internalType": "uint256",
          "name": "",
          "type": "uint256"
        }
      ],
      "stateMutability": "view",
      "type": "function"
    },
    {
      "inputs": [],
      "name": "decimals",
      "outputs": [
        {
          "internalType": "uint8",
          "name": "",
          "type": "uint8"
        }
      ],
      "stateMutability": "view",
      "type": "function"
    },
    {
      "inputs": [
        {
          "internalType": "address",
          "name": "spender",
          "type": "address"
        },
        {
          "internalType": "uint256",
          "name": "subtractedValue",
          "type": "uint256"
        }
      ],
      "name": "decreaseAllowance",
      "outputs": [
        {
          "internalType": "bool",
          "name": "",
          "type": "bool"
        }
      ],
      "stateMutability": "nonpayable",
      "type": "function"
    },
    {
      "inputs": [
        {
          "internalType": "address",
          "name": "spender",
          "type": "address"
        },
        {
          "internalType": "uint256",
          "name": "addedValue",
          "type": "uint256"
        }
      ],
      "name": "increaseAllowance",
      "outputs": [
        {
          "internalType": "bool",
          "name": "",
          "type": "bool"
        }
      ],
      "stateMutability": "nonpayable",
      "type": "function"
    },
    {
      "inputs": [
        {
          "internalType": "address",
          "name": "collateralContract",
          "type": "address"
        },
        {
          "internalType": "uint256",
          "name": "collateralId",
          "type": "uint256"
        }
      ],
      "name": "liquidatable",
      "outputs": [
        {
          "internalType": "bool",
          "name": "",
          "type": "bool"
        }
      ],
      "stateMutability": "view",
      "type": "function"
    },
    {
      "inputs": [
        {
          "internalType": "address",
          "name": "collateralContract",
          "type": "address"
        },
        {
          "internalType": "uint256",
          "name": "collateralId",
          "type": "uint256"
        },
        {
          "internalType": "address",
          "name": "recipient",
          "type": "address"
        }
      ],
      "name": "liquidate",
      "outputs": [],
      "stateMutability": "nonpayable",
      "type": "function"
    },
    {
      "inputs": [
        {
          "internalType": "address",
          "name": "collateralContract",
          "type": "address"
        },
        {
          "internalType": "uint256",
          "name": "collateralId",
          "type": "uint256"
        },
        {
          "internalType": "uint256",
          "name": "debtAmount",
          "type": "uint256"
        },
        {
          "internalType": "address",
          "name": "recipient",
          "type": "address"
        }
      ],
      "name": "mint",
      "outputs": [],
      "stateMutability": "nonpayable",
      "type": "function"
    },
    {
      "inputs": [],
      "name": "name",
      "outputs": [
        {
          "internalType": "string",
          "name": "",
          "type": "string"
        }
      ],
      "stateMutability": "view",
      "type": "function"
    },
    {
      "inputs": [
        {
          "internalType": "address",
          "name": "owner",
          "type": "address"
        }
      ],
      "name": "nonces",
      "outputs": [
        {
          "internalType": "uint256",
          "name": "",
          "type": "uint256"
        }
      ],
      "stateMutability": "view",
      "type": "function"
    },
    {
      "inputs": [
        {
          "internalType": "address",
          "name": "",
          "type": "address"
        },
        {
          "internalType": "address",
          "name": "",
          "type": "address"
        },
        {
          "internalType": "uint256",
          "name": "",
          "type": "uint256"
        },
        {
          "internalType": "bytes",
          "name": "",
          "type": "bytes"
        }
      ],
      "name": "onERC721Received",
      "outputs": [
        {
          "internalType": "bytes4",
          "name": "",
          "type": "bytes4"
        }
      ],
      "stateMutability": "nonpayable",
      "type": "function"
    },
    {
      "inputs": [
        {
          "internalType": "address",
          "name": "",
          "type": "address"
        },
        {
          "internalType": "uint256",
          "name": "",
          "type": "uint256"
        }
      ],
      "name": "originalOwner",
      "outputs": [
        {
          "internalType": "address",
          "name": "",
          "type": "address"
        }
      ],
      "stateMutability": "view",
      "type": "function"
    },
    {
      "inputs": [],
      "name": "owner",
      "outputs": [
        {
          "internalType": "address",
          "name": "",
          "type": "address"
        }
      ],
      "stateMutability": "view",
      "type": "function"
    },
    {
      "inputs": [
        {
          "internalType": "address",
          "name": "owner",
          "type": "address"
        },
        {
          "internalType": "address",
          "name": "spender",
          "type": "address"
        },
        {
          "internalType": "uint256",
          "name": "value",
          "type": "uint256"
        },
        {
          "internalType": "uint256",
          "name": "deadline",
          "type": "uint256"
        },
        {
          "internalType": "uint8",
          "name": "v",
          "type": "uint8"
        },
        {
          "internalType": "bytes32",
          "name": "r",
          "type": "bytes32"
        },
        {
          "internalType": "bytes32",
          "name": "s",
          "type": "bytes32"
        }
      ],
      "name": "permit",
      "outputs": [],
      "stateMutability": "nonpayable",
      "type": "function"
    },
    {
      "inputs": [
        {
          "internalType": "address",
          "name": "",
          "type": "address"
        },
        {
          "internalType": "uint256",
          "name": "",
          "type": "uint256"
        }
      ],
      "name": "priceOracle",
      "outputs": [
        {
          "internalType": "uint256",
          "name": "",
          "type": "uint256"
        }
      ],
      "stateMutability": "view",
      "type": "function"
    },
    {
      "inputs": [],
      "name": "renounceOwnership",
      "outputs": [],
      "stateMutability": "nonpayable",
      "type": "function"
    },
    {
      "inputs": [
        {
          "internalType": "address",
          "name": "collateralContract",
          "type": "address"
        },
        {
          "internalType": "uint256",
          "name": "tokenId",
          "type": "uint256"
        },
        {
          "internalType": "uint256",
          "name": "oracleAmount",
          "type": "uint256"
        }
      ],
      "name": "setPriceOracle",
      "outputs": [],
      "stateMutability": "nonpayable",
      "type": "function"
    },
    {
      "inputs": [],
      "name": "symbol",
      "outputs": [
        {
          "internalType": "string",
          "name": "",
          "type": "string"
        }
      ],
      "stateMutability": "view",
      "type": "function"
    },
    {
      "inputs": [],
      "name": "totalSupply",
      "outputs": [
        {
          "internalType": "uint256",
          "name": "",
          "type": "uint256"
        }
      ],
      "stateMutability": "view",
      "type": "function"
    },
    {
      "inputs": [
        {
          "internalType": "address",
          "name": "recipient",
          "type": "address"
        },
        {
          "internalType": "uint256",
          "name": "amount",
          "type": "uint256"
        }
      ],
      "name": "transfer",
      "outputs": [
        {
          "internalType": "bool",
          "name": "",
          "type": "bool"
        }
      ],
      "stateMutability": "nonpayable",
      "type": "function"
    },
    {
      "inputs": [
        {
          "internalType": "address",
          "name": "sender",
          "type": "address"
        },
        {
          "internalType": "address",
          "name": "recipient",
          "type": "address"
        },
        {
          "internalType": "uint256",
          "name": "amount",
          "type": "uint256"
        }
      ],
      "name": "transferFrom",
      "outputs": [
        {
          "internalType": "bool",
          "name": "",
          "type": "bool"
        }
      ],
      "stateMutability": "nonpayable",
      "type": "function"
    },
    {
      "inputs": [
        {
          "internalType": "address",
          "name": "newOwner",
          "type": "address"
        }
      ],
      "name": "transferOwnership",
      "outputs": [],
      "stateMutability": "nonpayable",
      "type": "function"
    }
  ],
  "bytecode": "0x6101606040527f6e71edae12b1b97f4d1f60370fef10105fa2faae0126114a169c64845d6126c9610140526136b0600a556032600b553480156200004257600080fd5b506040516200216038038062002160833981016040819052620000659162000317565b8080604051806040016040528060018152602001603160f81b815250848481600390805190602001906200009b929190620001be565b508051620000b1906004906020840190620001be565b5050825160208085019190912083518483012060e08290526101008190524660a0818152604080517f8b73c3c69bb8fe3d512ecc4cf759cc79239f7b179b0ffacaa9a75d522b39400f81880181905281830187905260608201869052608082019490945230818401528151808203909301835260c0019052805194019390932091935091906080523060601b60c05261012052506200016093506200015a925050620001689050565b6200016c565b5050620003d1565b3390565b600680546001600160a01b038381166001600160a01b0319831681179093556040519116919082907f8be0079c531659141344cd1fd0a4f28419497f9722a3daafe3b4186f6b6457e090600090a35050565b828054620001cc906200037e565b90600052602060002090601f016020900481019282620001f057600085556200023b565b82601f106200020b57805160ff19168380011785556200023b565b828001600101855582156200023b579182015b828111156200023b5782518255916020019190600101906200021e565b50620002499291506200024d565b5090565b5b808211156200024957600081556001016200024e565b600082601f83011262000275578081fd5b81516001600160401b0380821115620002925762000292620003bb565b604051601f8301601f19908116603f01168101908282118183101715620002bd57620002bd620003bb565b81604052838152602092508683858801011115620002d9578485fd5b8491505b83821015620002fc5785820183015181830184015290820190620002dd565b838211156200030d57848385830101525b9695505050505050565b600080604083850312156200032a578182fd5b82516001600160401b038082111562000341578384fd5b6200034f8683870162000264565b9350602085015191508082111562000365578283fd5b50620003748582860162000264565b9150509250929050565b600181811c908216806200039357607f821691505b60208210811415620003b557634e487b7160e01b600052602260045260246000fd5b50919050565b634e487b7160e01b600052604160045260246000fd5b60805160a05160c05160601c60e051610100516101205161014051611d316200042f600039600061098c015260006111d601526000611225015260006112000152600061115701526000611181015260006111ab0152611d316000f3fe608060405234801561001057600080fd5b506004361061013e5760003560e01c806306fdde0314610143578063095ea7b314610161578063150b7a021461018457806318160ddd146101bb57806323b872dd146101cd578063313ce567146101e05780633644e515146101ef57806339509351146101f75780634914c0081461020a5780635a4d53111461021f57806367374e031461023257806370a082311461025d578063715018a6146102865780637687aedd1461028e5780637ecebe00146102a15780638da5cb5b146102b457806395d89b41146102d4578063a457c2d7146102dc578063a9059cbb146102ef578063c97899c614610302578063d505accf1461032d578063d9c34fe214610340578063dd62ed3e14610353578063df06809f1461038c578063f2fde38b146103c0578063f74bfe8e146103d3575b600080fd5b61014b6103e6565b6040516101589190611b6f565b60405180910390f35b61017461016f366004611a62565b610479565b6040519015158152602001610158565b6101a2610192366004611915565b630a85bd0160e11b949350505050565b6040516001600160e01b03199091168152602001610158565b6002545b604051908152602001610158565b6101746101db3660046118d5565b610490565b60405160128152602001610158565b6101bf61053f565b610174610205366004611a62565b61054e565b61021d610218366004611a8d565b61058a565b005b61021d61022d366004611b02565b610684565b6101bf610240366004611a62565b600960209081526000928352604080842090915290825290205481565b6101bf61026b36600461185e565b6001600160a01b031660009081526020819052604090205490565b61021d6107c6565b61021d61029c366004611ace565b610801565b6101bf6102af36600461185e565b610856565b6102bc610874565b6040516001600160a01b039091168152602001610158565b61014b610883565b6101746102ea366004611a62565b610892565b6101746102fd366004611a62565b61092b565b6101bf610310366004611a62565b600860209081526000928352604080842090915290825290205481565b61021d61033b3660046119ed565b610938565b61017461034e366004611a62565b610a9c565b6101bf61036136600461189d565b6001600160a01b03918216600090815260016020908152604080832093909416825291909152205490565b6102bc61039a366004611a62565b60076020908152600092835260408084209091529082529020546001600160a01b031681565b61021d6103ce36600461185e565b610b05565b61021d6103e1366004611b02565b610ba5565b6060600380546103f590611c65565b80601f016020809104026020016040519081016040528092919081815260200182805461042190611c65565b801561046e5780601f106104435761010080835404028352916020019161046e565b820191906000526020600020905b81548152906001019060200180831161045157829003601f168201915b505050505090505b90565b6000610486338484610e68565b5060015b92915050565b600061049d848484610f8d565b6001600160a01b0384166000908152600160209081526040808320338452909152902054828110156105275760405162461bcd60e51b815260206004820152602860248201527f45524332303a207472616e7366657220616d6f756e74206578636565647320616044820152676c6c6f77616e636560c01b60648201526084015b60405180910390fd5b6105348533858403610e68565b506001949350505050565b600061054961114a565b905090565b3360008181526001602090815260408083206001600160a01b03871684529091528120549091610486918590610585908690611bf7565b610e68565b6105948383610a9c565b6105d35760405162461bcd60e51b815260206004820152601060248201526f4e6f74206c6971756964617461626c6560801b604482015260640161051e565b6001600160a01b0383166000908152600860209081526040808320858452909152902054610602903390611275565b6001600160a01b03831660008181526008602090815260408083208684529091528082209190915551632142170760e11b81526342842e0e9061064d90309085908790600401611b4b565b600060405180830381600087803b15801561066757600080fd5b505af115801561067b573d6000803e3d6000fd5b50505050505050565b6001600160a01b03841660009081526008602090815260408083208684529091528120546106b290846113a9565b90506106be3382611275565b6001600160a01b0385166000908152600860209081526040808320878452909152812080548592906106f1908490611c4e565b90915550506001600160a01b0385166000908152600860209081526040808320878452909152902054662386f26fc100001080159061075757506001600160a01b0380861660009081526007602090815260408083208884529091529020548382169116145b156107bf57604051632142170760e11b81526001600160a01b038616906342842e0e9061078c90309086908990600401611b4b565b600060405180830381600087803b1580156107a657600080fd5b505af11580156107ba573d6000803e3d6000fd5b505050505b5050505050565b336107cf610874565b6001600160a01b0316146107f55760405162461bcd60e51b815260040161051e90611bc2565b6107ff60006113c0565b565b3361080a610874565b6001600160a01b0316146108305760405162461bcd60e51b815260040161051e90611bc2565b6001600160a01b0390921660009081526009602090815260408083209383529290522055565b6001600160a01b03811660009081526005602052604081205461048a565b6006546001600160a01b031690565b6060600480546103f590611c65565b3360009081526001602090815260408083206001600160a01b0386168452909152812054828110156109145760405162461bcd60e51b815260206004820152602560248201527f45524332303a2064656372656173656420616c6c6f77616e63652062656c6f77604482015264207a65726f60d81b606482015260840161051e565b6109213385858403610e68565b5060019392505050565b6000610486338484610f8d565b834211156109885760405162461bcd60e51b815260206004820152601d60248201527f45524332305065726d69743a206578706972656420646561646c696e65000000604482015260640161051e565b60007f00000000000000000000000000000000000000000000000000000000000000008888886109b78c611412565b6040805160208101969096526001600160a01b0394851690860152929091166060840152608083015260a082015260c0810186905260e0016040516020818303038152906040528051906020012090506000610a128261143a565b90506000610a2282878787611488565b9050896001600160a01b0316816001600160a01b031614610a855760405162461bcd60e51b815260206004820152601e60248201527f45524332305065726d69743a20696e76616c6964207369676e61747572650000604482015260640161051e565b610a908a8a8a610e68565b50505050505050505050565b6001600160a01b0382166000908152600960209081526040808320848452909152812054610acc90612710611c2f565b6001600160a01b0384166000908152600860209081526040808320868452909152902054600a54610afd9190611c2f565b119392505050565b33610b0e610874565b6001600160a01b031614610b345760405162461bcd60e51b815260040161051e90611bc2565b6001600160a01b038116610b995760405162461bcd60e51b815260206004820152602660248201527f4f776e61626c653a206e6577206f776e657220697320746865207a65726f206160448201526564647265737360d01b606482015260840161051e565b610ba2816113c0565b50565b6040516331a9108f60e11b8152600481018490526000906001600160a01b03861690636352211e9060240160206040518083038186803b158015610be857600080fd5b505afa158015610bfc573d6000803e3d6000fd5b505050506040513d601f19601f82011682018060405250810190610c209190611881565b90506001600160a01b0381163014610d34576001600160a01b0381163314610c9a5760405162461bcd60e51b815260206004820152602760248201527f4e6f206465706f736974696e6720636f6c6c61746572616c20796f7520646f206044820152663737ba1037bbb760c91b606482015260840161051e565b604051632142170760e11b81526001600160a01b038616906342842e0e90610cca90849030908990600401611b4b565b600060405180830381600087803b158015610ce457600080fd5b505af1158015610cf8573d6000803e3d6000fd5b5050506001600160a01b0386166000908152600760209081526040808320888452909152902080546001600160a01b0319163317905550610da8565b6001600160a01b038581166000908152600760209081526040808320888452909152902054163314610da85760405162461bcd60e51b815260206004820181905260248201527f4e6f74206f726967696e616c206f776e6572206f6620636f6c6c61746572616c604482015260640161051e565b61271083600b54612710610dbc9190611bf7565b610dc69190611c2f565b610dd09190611c0f565b6001600160a01b038616600090815260086020908152604080832088845290915281208054909190610e03908490611bf7565b90915550610e1390508585610a9c565b15610e5e5760405162461bcd60e51b815260206004820152601b60248201527a426f72726f772065786365656473206d696e20636f6c526174696f60281b604482015260640161051e565b6107bf82846114b0565b6001600160a01b038316610eca5760405162461bcd60e51b8152602060048201526024808201527f45524332303a20617070726f76652066726f6d20746865207a65726f206164646044820152637265737360e01b606482015260840161051e565b6001600160a01b038216610f2b5760405162461bcd60e51b815260206004820152602260248201527f45524332303a20617070726f766520746f20746865207a65726f206164647265604482015261737360f01b606482015260840161051e565b6001600160a01b0383811660008181526001602090815260408083209487168084529482529182902085905590518481527f8c5be1e5ebec7d5bd14f71427d1e84f3dd0314c0f7b2291e5b200ac8c7c3b92591015b60405180910390a3505050565b6001600160a01b038316610ff15760405162461bcd60e51b815260206004820152602560248201527f45524332303a207472616e736665722066726f6d20746865207a65726f206164604482015264647265737360d81b606482015260840161051e565b6001600160a01b0382166110535760405162461bcd60e51b815260206004820152602360248201527f45524332303a207472616e7366657220746f20746865207a65726f206164647260448201526265737360e81b606482015260840161051e565b6001600160a01b038316600090815260208190526040902054818110156110cb5760405162461bcd60e51b815260206004820152602660248201527f45524332303a207472616e7366657220616d6f756e7420657863656564732062604482015265616c616e636560d01b606482015260840161051e565b6001600160a01b03808516600090815260208190526040808220858503905591851681529081208054849290611102908490611bf7565b92505081905550826001600160a01b0316846001600160a01b0316600080516020611cdc8339815191528460405161113c91815260200190565b60405180910390a350505050565b6000306001600160a01b037f0000000000000000000000000000000000000000000000000000000000000000161480156111a357507f000000000000000000000000000000000000000000000000000000000000000046145b156111cf57507f0000000000000000000000000000000000000000000000000000000000000000610476565b50604080517f00000000000000000000000000000000000000000000000000000000000000006020808301919091527f0000000000000000000000000000000000000000000000000000000000000000828401527f000000000000000000000000000000000000000000000000000000000000000060608301524660808301523060a0808401919091528351808403909101815260c09092019092528051910120610476565b6001600160a01b0382166112d55760405162461bcd60e51b815260206004820152602160248201527f45524332303a206275726e2066726f6d20746865207a65726f206164647265736044820152607360f81b606482015260840161051e565b6001600160a01b038216600090815260208190526040902054818110156113495760405162461bcd60e51b815260206004820152602260248201527f45524332303a206275726e20616d6f756e7420657863656564732062616c616e604482015261636560f01b606482015260840161051e565b6001600160a01b0383166000908152602081905260408120838303905560028054849290611378908490611c4e565b90915550506040518281526000906001600160a01b03851690600080516020611cdc83398151915290602001610f80565b60008183106113b957508061048a565b508161048a565b600680546001600160a01b038381166001600160a01b0319831681179093556040519116919082907f8be0079c531659141344cd1fd0a4f28419497f9722a3daafe3b4186f6b6457e090600090a35050565b6001600160a01b03811660009081526005602052604090208054600181018255905b50919050565b600061048a61144761114a565b8360405161190160f01b6020820152602281018390526042810182905260009060620160405160208183030381529060405280519060200120905092915050565b60008060006114998787878761157d565b915091506114a681611660565b5095945050505050565b6001600160a01b0382166115065760405162461bcd60e51b815260206004820152601f60248201527f45524332303a206d696e7420746f20746865207a65726f206164647265737300604482015260640161051e565b80600260008282546115189190611bf7565b90915550506001600160a01b03821660009081526020819052604081208054839290611545908490611bf7565b90915550506040518181526001600160a01b03831690600090600080516020611cdc8339815191529060200160405180910390a35050565b6000806fa2a8918ca85bafe22016d0b997e4df60600160ff1b038311156115aa5750600090506003611657565b8460ff16601b141580156115c257508460ff16601c14155b156115d35750600090506004611657565b6040805160008082526020820180845289905260ff881692820192909252606081018690526080810185905260019060a0016020604051602081039080840390855afa158015611627573d6000803e3d6000fd5b5050604051601f1901519150506001600160a01b03811661165057600060019250925050611657565b9150600090505b94509492505050565b600081600481111561168257634e487b7160e01b600052602160045260246000fd5b141561168d57610ba2565b60018160048111156116af57634e487b7160e01b600052602160045260246000fd5b14156116f85760405162461bcd60e51b815260206004820152601860248201527745434453413a20696e76616c6964207369676e617475726560401b604482015260640161051e565b600281600481111561171a57634e487b7160e01b600052602160045260246000fd5b14156117685760405162461bcd60e51b815260206004820152601f60248201527f45434453413a20696e76616c6964207369676e6174757265206c656e67746800604482015260640161051e565b600381600481111561178a57634e487b7160e01b600052602160045260246000fd5b14156117e35760405162461bcd60e51b815260206004820152602260248201527f45434453413a20696e76616c6964207369676e6174757265202773272076616c604482015261756560f01b606482015260840161051e565b600481600481111561180557634e487b7160e01b600052602160045260246000fd5b1415610ba25760405162461bcd60e51b815260206004820152602260248201527f45434453413a20696e76616c6964207369676e6174757265202776272076616c604482015261756560f01b606482015260840161051e565b60006020828403121561186f578081fd5b813561187a81611cc6565b9392505050565b600060208284031215611892578081fd5b815161187a81611cc6565b600080604083850312156118af578081fd5b82356118ba81611cc6565b915060208301356118ca81611cc6565b809150509250929050565b6000806000606084860312156118e9578081fd5b83356118f481611cc6565b9250602084013561190481611cc6565b929592945050506040919091013590565b6000806000806080858703121561192a578081fd5b843561193581611cc6565b9350602085013561194581611cc6565b92506040850135915060608501356001600160401b0380821115611967578283fd5b818701915087601f83011261197a578283fd5b81358181111561198c5761198c611cb0565b604051601f8201601f19908116603f011681019083821181831017156119b4576119b4611cb0565b816040528281528a60208487010111156119cc578586fd5b82602086016020830137918201602001949094529598949750929550505050565b600080600080600080600060e0888a031215611a07578283fd5b8735611a1281611cc6565b96506020880135611a2281611cc6565b95506040880135945060608801359350608088013560ff81168114611a45578384fd5b9699959850939692959460a0840135945060c09093013592915050565b60008060408385031215611a74578182fd5b8235611a7f81611cc6565b946020939093013593505050565b600080600060608486031215611aa1578283fd5b8335611aac81611cc6565b9250602084013591506040840135611ac381611cc6565b809150509250925092565b600080600060608486031215611ae2578283fd5b8335611aed81611cc6565b95602085013595506040909401359392505050565b60008060008060808587031215611b17578384fd5b8435611b2281611cc6565b935060208501359250604085013591506060850135611b4081611cc6565b939692955090935050565b6001600160a01b039384168152919092166020820152604081019190915260600190565b6000602080835283518082850152825b81811015611b9b57858101830151858201604001528201611b7f565b81811115611bac5783604083870101525b50601f01601f1916929092016040019392505050565b6020808252818101527f4f776e61626c653a2063616c6c6572206973206e6f7420746865206f776e6572604082015260600190565b60008219821115611c0a57611c0a611c9a565b500190565b600082611c2a57634e487b7160e01b81526012600452602481fd5b500490565b6000816000190483118215151615611c4957611c49611c9a565b500290565b600082821015611c6057611c60611c9a565b500390565b600181811c90821680611c7957607f821691505b6020821081141561143457634e487b7160e01b600052602260045260246000fd5b634e487b7160e01b600052601160045260246000fd5b634e487b7160e01b600052604160045260246000fd5b6001600160a01b0381168114610ba257600080fdfeddf252ad1be2c89b69c2b068fc378daa952ba7f163c4a11628f55a4df523b3efa2646970667358221220177e0af0f2e482fdb791c27dc70e754bfb71518e3b95c5d20d2d2e508cd5798064736f6c63430008030033",
  "linkReferences": {},
  "deployedLinkReferences": {}
}