{
  "_format": "hh-sol-artifact-1",
  "contractName": "Rebalancer",
  "sourceName": "contracts/smart-liquidity/Rebalancer.sol",
  "abi": [
    {
      "inputs": [
        {
          "internalType": "address",
          "name": "_roles",
          "type": "address"
        }
      ],
      "stateMutability": "nonpayable",
      "type": "constructor"
    },
    {
      "anonymous": false,
      "inputs": [
        {
          "indexed": false,
          "internalType": "string",
          "name": "param",
          "type": "string"
        },
        {
          "indexed": false,
          "internalType": "uint256",
          "name": "value",
          "type": "uint256"
        }
      ],
      "name": "ParameterUpdated",
      "type": "event"
    },
    {
      "anonymous": false,
      "inputs": [
        {
          "indexed": false,
          "internalType": "string",
          "name": "param",
          "type": "string"
        },
        {
          "indexed": false,
          "internalType": "address",
          "name": "subject",
          "type": "address"
        },
        {
          "indexed": false,
          "internalType": "uint256",
          "name": "value",
          "type": "uint256"
        }
      ],
      "name": "SubjectParameterUpdated",
      "type": "event"
    },
    {
      "anonymous": false,
      "inputs": [
        {
          "indexed": false,
          "internalType": "string",
          "name": "param",
          "type": "string"
        },
        {
          "indexed": false,
          "internalType": "address",
          "name": "subject",
          "type": "address"
        }
      ],
      "name": "SubjectUpdated",
      "type": "event"
    },
    {
      "inputs": [
        {
          "internalType": "uint256",
          "name": "",
          "type": "uint256"
        }
      ],
      "name": "_charactersPlayed",
      "outputs": [
        {
          "internalType": "uint256",
          "name": "",
          "type": "uint256"
        }
      ],
      "stateMutability": "view",
      "type": "function"
    },
    {
      "inputs": [
        {
          "internalType": "uint256",
          "name": "",
          "type": "uint256"
        }
      ],
      "name": "_dependsOnCharacters",
      "outputs": [
        {
          "internalType": "uint256",
          "name": "",
          "type": "uint256"
        }
      ],
      "stateMutability": "view",
      "type": "function"
    },
    {
      "inputs": [
        {
          "internalType": "uint256",
          "name": "",
          "type": "uint256"
        }
      ],
      "name": "_dependsOnRoles",
      "outputs": [
        {
          "internalType": "uint256",
          "name": "",
          "type": "uint256"
        }
      ],
      "stateMutability": "view",
      "type": "function"
    },
    {
      "inputs": [
        {
          "internalType": "address",
          "name": "",
          "type": "address"
        },
        {
          "internalType": "address",
          "name": "",
          "type": "address"
        }
      ],
      "name": "_oracleCache",
      "outputs": [
        {
          "internalType": "address",
          "name": "",
          "type": "address"
        }
      ],
      "stateMutability": "view",
      "type": "function"
    },
    {
      "inputs": [
        {
          "internalType": "uint256",
          "name": "",
          "type": "uint256"
        }
      ],
      "name": "_rolesPlayed",
      "outputs": [
        {
          "internalType": "uint256",
          "name": "",
          "type": "uint256"
        }
      ],
      "stateMutability": "view",
      "type": "function"
    },
    {
      "inputs": [],
      "name": "charactersPlayed",
      "outputs": [
        {
          "internalType": "uint256[]",
          "name": "",
          "type": "uint256[]"
        }
      ],
      "stateMutability": "view",
      "type": "function"
    },
    {
      "inputs": [],
      "name": "dependsOnCharacters",
      "outputs": [
        {
          "internalType": "uint256[]",
          "name": "",
          "type": "uint256[]"
        }
      ],
      "stateMutability": "view",
      "type": "function"
    },
    {
      "inputs": [],
      "name": "dependsOnRoles",
      "outputs": [
        {
          "internalType": "uint256[]",
          "name": "",
          "type": "uint256[]"
        }
      ],
      "stateMutability": "view",
      "type": "function"
    },
    {
      "inputs": [
        {
          "internalType": "uint256",
          "name": "",
          "type": "uint256"
        }
      ],
      "name": "liqPools",
      "outputs": [
        {
          "internalType": "contract AuxLPT",
          "name": "stableLPT",
          "type": "address"
        },
        {
          "internalType": "contract AuxLPT",
          "name": "counterLPT",
          "type": "address"
        },
        {
          "internalType": "contract IERC20",
          "name": "counterPartyToken",
          "type": "address"
        },
        {
          "internalType": "contract IUniswapV2Pair",
          "name": "pair",
          "type": "address"
        },
        {
          "internalType": "uint256",
          "name": "debt",
          "type": "uint256"
        },
        {
          "internalType": "uint256",
          "name": "stableLTVPer10k",
          "type": "uint256"
        },
        {
          "internalType": "uint256",
          "name": "feeLPT",
          "type": "uint256"
        },
        {
          "internalType": "uint256",
          "name": "lastKRoot",
          "type": "uint256"
        }
      ],
      "stateMutability": "view",
      "type": "function"
    },
    {
      "inputs": [
        {
          "internalType": "uint256",
          "name": "",
          "type": "uint256"
        }
      ],
      "name": "mainCharacterCache",
      "outputs": [
        {
          "internalType": "address",
          "name": "",
          "type": "address"
        }
      ],
      "stateMutability": "view",
      "type": "function"
    },
    {
      "inputs": [
        {
          "internalType": "address",
          "name": "token",
          "type": "address"
        },
        {
          "internalType": "address",
          "name": "pegCurrency",
          "type": "address"
        }
      ],
      "name": "newCurrentOracle",
      "outputs": [],
      "stateMutability": "nonpayable",
      "type": "function"
    },
    {
      "inputs": [
        {
          "internalType": "uint256",
          "name": "liqPoolId",
          "type": "uint256"
        }
      ],
      "name": "rebalance",
      "outputs": [
        {
          "internalType": "bool",
          "name": "",
          "type": "bool"
        }
      ],
      "stateMutability": "nonpayable",
      "type": "function"
    },
    {
      "inputs": [
        {
          "internalType": "address",
          "name": "",
          "type": "address"
        },
        {
          "internalType": "uint256",
          "name": "",
          "type": "uint256"
        }
      ],
      "name": "roleCache",
      "outputs": [
        {
          "internalType": "bool",
          "name": "",
          "type": "bool"
        }
      ],
      "stateMutability": "view",
      "type": "function"
    },
    {
      "inputs": [],
      "name": "roles",
      "outputs": [
        {
          "internalType": "contract Roles",
          "name": "",
          "type": "address"
        }
      ],
      "stateMutability": "view",
      "type": "function"
    },
    {
      "inputs": [],
      "name": "rolesPlayed",
      "outputs": [
        {
          "internalType": "uint256[]",
          "name": "",
          "type": "uint256[]"
        }
      ],
      "stateMutability": "view",
      "type": "function"
    },
    {
      "inputs": [
        {
          "internalType": "uint256",
          "name": "reserveWindow",
          "type": "uint256"
        }
      ],
      "name": "setReserveWindowPer10k",
      "outputs": [],
      "stateMutability": "nonpayable",
      "type": "function"
    },
    {
      "inputs": [
        {
          "internalType": "uint256",
          "name": "liqPoolId",
          "type": "uint256"
        },
        {
          "internalType": "uint256",
          "name": "ltv",
          "type": "uint256"
        }
      ],
      "name": "setStableLTVPer10k",
      "outputs": [],
      "stateMutability": "nonpayable",
      "type": "function"
    },
    {
      "inputs": [
        {
          "internalType": "uint256",
          "name": "role",
          "type": "uint256"
        }
      ],
      "name": "updateMainCharacterCache",
      "outputs": [],
      "stateMutability": "nonpayable",
      "type": "function"
    },
    {
      "inputs": [
        {
          "internalType": "uint256",
          "name": "role",
          "type": "uint256"
        },
        {
          "internalType": "address",
          "name": "contr",
          "type": "address"
        }
      ],
      "name": "updateRoleCache",
      "outputs": [],
      "stateMutability": "nonpayable",
      "type": "function"
    },
    {
      "inputs": [],
      "name": "viewAllLiqPools",
      "outputs": [
        {
          "components": [
            {
              "internalType": "contract AuxLPT",
              "name": "stableLPT",
              "type": "address"
            },
            {
              "internalType": "contract AuxLPT",
              "name": "counterLPT",
              "type": "address"
            },
            {
              "internalType": "contract IERC20",
              "name": "counterPartyToken",
              "type": "address"
            },
            {
              "internalType": "contract IUniswapV2Pair",
              "name": "pair",
              "type": "address"
            },
            {
              "internalType": "uint256",
              "name": "debt",
              "type": "uint256"
            },
            {
              "internalType": "uint256",
              "name": "stableLTVPer10k",
              "type": "uint256"
            },
            {
              "internalType": "uint256",
              "name": "feeLPT",
              "type": "uint256"
            },
            {
              "internalType": "uint256",
              "name": "lastKRoot",
              "type": "uint256"
            }
          ],
          "internalType": "struct Rebalancer.SmartLiqPool[]",
          "name": "",
          "type": "tuple[]"
        }
      ],
      "stateMutability": "view",
      "type": "function"
    },
    {
      "inputs": [
        {
          "internalType": "address",
          "name": "uniPool",
          "type": "address"
        },
        {
          "internalType": "address",
          "name": "counterPartyToken",
          "type": "address"
        }
      ],
      "name": "viewCounterReserves",
      "outputs": [
        {
          "internalType": "uint256",
          "name": "",
          "type": "uint256"
        }
      ],
      "stateMutability": "view",
      "type": "function"
    },
    {
      "inputs": [
        {
          "internalType": "address",
          "name": "uniPool",
          "type": "address"
        },
        {
          "internalType": "address",
          "name": "counterPartyToken",
          "type": "address"
        }
      ],
      "name": "viewStableReserves",
      "outputs": [
        {
          "internalType": "uint256",
          "name": "",
          "type": "uint256"
        }
      ],
      "stateMutability": "view",
      "type": "function"
    }
  ],
  "bytecode": "0x60a0604052602860085568056bc75e2d631000006009553480156200002357600080fd5b5060405162002b3238038062002b32833981016040819052620000469162000153565b806001600160a01b038116620000ad5760405162461bcd60e51b815260206004820152602260248201527f506c656173652070726f766964652076616c696420726f6c6573206164647265604482015261737360f01b606482015260840160405180910390fd5b60601b6001600160601b03191660805250600280546001808201835560667f405787fa12a823e0f2b7631cc41b3ba8828b3321ca811111fa75cd3aa3bb5ace9283015582548082018455606a920191909155600580548083018255600082905260047f036b6384b5eca791c62761152d0c79bb0604c104a5fb6f4eb0703f3154bb3db0918201558154808401835581019390935580549182019055600891015562000183565b60006020828403121562000165578081fd5b81516001600160a01b03811681146200017c578182fd5b9392505050565b60805160601c61296d620001c5600039600081816101a10152818161039d0152818161082f01528181610ef601528181610f8e0152611015015261296d6000f3fe608060405234801561001057600080fd5b50600436106101125760003560e01c8063071060a614610117578063128516cc1461012c5780632642b6061461013f57806328f3fc7314610189578063392f5f641461019c578063413e7fde146101c3578063447d52ba146101e45780634a7a7f41146101f75780636caa9c111461020c5780637a1a04df1461021f5780637dad209b1461025d578063996432be14610265578063aae95ec914610278578063abcbc4fc1461028b578063ae0fd9031461029e578063aeb38d8b146102b3578063bf184ea4146102c6578063d788b9fa146102d9578063dc94cb7d1461033b578063e8ea4fae14610343578063e9c3f77d1461034b578063f499301814610374575b600080fd5b61012a610125366004612650565b610387565b005b61012a61013a3660046126a4565b61044d565b61017361014d36600461257f565b60066020908152600092835260408084209091529082529020546001600160a01b031681565b6040516101809190612704565b60405180910390f35b61012a61019736600461257f565b610541565b6101737f000000000000000000000000000000000000000000000000000000000000000081565b6101d66101d136600461257f565b610634565b604051908152602001610180565b61012a6101f2366004612680565b610818565b6101ff6108ee565b60405161018091906127f8565b6101d661021a366004612650565b610946565b61024d61022d3660046125b7565b600160209081526000928352604080842090915290825290205460ff1681565b6040519015158152602001610180565b6101ff610967565b61012a610273366004612650565b6109bd565b6101d661028636600461257f565b610af8565b6101d6610299366004612650565b610cb6565b6102a6610cc6565b604051610180919061274b565b6101d66102c1366004612650565b610d80565b6101d66102d4366004612650565b610d90565b6102ec6102e7366004612650565b610da0565b604080516001600160a01b03998a168152978916602089015295881695870195909552959092166060850152608084015260a083015260c082019290925260e081019190915261010001610180565b6101ff610e05565b6101ff610e5b565b610173610359366004612650565b6000602081905290815260409020546001600160a01b031681565b61024d610382366004612650565b610eb1565b60405163b4ed0b6d60e01b8152600481018290527f00000000000000000000000000000000000000000000000000000000000000006001600160a01b03169063b4ed0b6d9060240160206040518083038186803b1580156103e757600080fd5b505afa1580156103fb573d6000803e3d6000fd5b505050506040513d601f19601f8201168201806040525081019061041f9190612563565b60009182526020829052604090912080546001600160a01b0319166001600160a01b03909216919091179055565b33610456610ef2565b6001600160a01b0316148061047a57503361046f610f8a565b6001600160a01b0316145b80610494575033610489610ffb565b6001600160a01b0316145b6105065760405162461bcd60e51b815260206004820152603860248201527f43616c6c6572206973206e6f7420746865206f776e65722c206578656375746f604482015277391037b91030baba3437b934bd32b2103234b9b0b13632b960411b60648201526084015b60405180910390fd5b806007838154811061052857634e487b7160e01b600052603260045260246000fd5b9060005260206000209060080201600501819055505050565b6001600160a01b038281166000908152600660209081526040808320858516845290915290205416156106305761057661105f565b6001600160a01b0316635e73a03483836040518363ffffffff1660e01b81526004016105a3929190612718565b60206040518083038186803b1580156105bb57600080fd5b505afa1580156105cf573d6000803e3d6000fd5b505050506040513d601f19601f820116820180604052508101906105f39190612563565b6001600160a01b0383811660009081526006602090815260408083208685168452909152902080546001600160a01b031916929091169190911790555b5050565b60008061063f611097565b9050600061064d82856110cf565b5090506000856001600160a01b03166370a08231306040518263ffffffff1660e01b815260040161067e9190612704565b60206040518083038186803b15801561069657600080fd5b505afa1580156106aa573d6000803e3d6000fd5b505050506040513d601f19601f820116820180604052508101906106ce9190612668565b90506000866001600160a01b03166318160ddd6040518163ffffffff1660e01b815260040160206040518083038186803b15801561070b57600080fd5b505afa15801561071f573d6000803e3d6000fd5b505050506040513d601f19601f820116820180604052508101906107439190612668565b9050600080886001600160a01b0316630902f1ac6040518163ffffffff1660e01b815260040160606040518083038186803b15801561078157600080fd5b505afa158015610795573d6000803e3d6000fd5b505050506040513d601f19601f820116820180604052508101906107b99190612602565b506001600160701b031691506001600160701b03169150600083876001600160a01b0316876001600160a01b0316146107f257826107f4565b835b6107fe90876128a7565b6108089190612887565b9750505050505050505b92915050565b60405163f0723d9760e01b81526001600160a01b037f0000000000000000000000000000000000000000000000000000000000000000169063f0723d97906108669084908690600401612732565b60206040518083038186803b15801561087e57600080fd5b505afa158015610892573d6000803e3d6000fd5b505050506040513d601f19601f820116820180604052508101906108b691906125e2565b6001600160a01b0391909116600090815260016020908152604080832094835293905291909120805460ff1916911515919091179055565b6060600380548060200260200160405190810160405280929190818152602001828054801561093c57602002820191906000526020600020905b815481526020019060010190808311610928575b5050505050905090565b6005818154811061095657600080fd5b600091825260209091200154905081565b6060600480548060200260200160405190810160405280929190818152602001828054801561093c5760200282019190600052602060002090815481526020019060010190808311610928575050505050905090565b336109c6610ef2565b6001600160a01b031614806109ea5750336109df610f8a565b6001600160a01b0316145b610a495760405162461bcd60e51b815260206004820152602a60248201527f526f6c65733a2063616c6c6572206973206e6f7420746865206f776e6572206f604482015269391032bc32b1baba37b960b11b60648201526084016104fd565b806127101015610a915760405162461bcd60e51b815260206004820152601360248201527257696e646f77206e6f7420696e2072616e676560681b60448201526064016104fd565b60088190556040805181815260168183015275526573657276652077696e646f77207065722031306b60501b60608201526020810183905290517f3a64504f0bc0c335e2aecb78638a257e0351a3fe0370861fd54ee4190b9209339181900360800190a150565b600080610b03611097565b90506000610b1182856110cf565b5090506000856001600160a01b03166370a08231306040518263ffffffff1660e01b8152600401610b429190612704565b60206040518083038186803b158015610b5a57600080fd5b505afa158015610b6e573d6000803e3d6000fd5b505050506040513d601f19601f82011682018060405250810190610b929190612668565b90506000866001600160a01b03166318160ddd6040518163ffffffff1660e01b815260040160206040518083038186803b158015610bcf57600080fd5b505afa158015610be3573d6000803e3d6000fd5b505050506040513d601f19601f82011682018060405250810190610c079190612668565b9050600080886001600160a01b0316630902f1ac6040518163ffffffff1660e01b815260040160606040518083038186803b158015610c4557600080fd5b505afa158015610c59573d6000803e3d6000fd5b505050506040513d601f19601f82011682018060405250810190610c7d9190612602565b506001600160701b031691506001600160701b03169150600083896001600160a01b0316876001600160a01b0316146107f257826107f4565b6002818154811061095657600080fd5b60606007805480602002602001604051908101604052809291908181526020016000905b82821015610d7757600084815260209081902060408051610100810182526008860290920180546001600160a01b0390811684526001808301548216858701526002830154821693850193909352600382015416606084015260048101546080840152600581015460a0840152600681015460c08401526007015460e08301529083529092019101610cea565b50505050905090565b6004818154811061095657600080fd5b6003818154811061095657600080fd5b60078181548110610db057600080fd5b6000918252602090912060089091020180546001820154600283015460038401546004850154600586015460068701546007909701546001600160a01b03968716985094861696938616959092169390929088565b6060600280548060200260200160405190810160405280929190818152602001828054801561093c5760200282019190600052602060002090815481526020019060010190808311610928575050505050905090565b6060600580548060200260200160405190810160405280929190818152602001828054801561093c5760200282019190600052602060002090815481526020019060010190808311610928575050505050905090565b6000610eea60078381548110610ed757634e487b7160e01b600052603260045260246000fd5b906000526020600020906008020161119e565b90505b919050565b60007f00000000000000000000000000000000000000000000000000000000000000006001600160a01b0316638da5cb5b6040518163ffffffff1660e01b815260040160206040518083038186803b158015610f4d57600080fd5b505afa158015610f61573d6000803e3d6000fd5b505050506040513d601f19601f82011682018060405250810190610f859190612563565b905090565b60007f00000000000000000000000000000000000000000000000000000000000000006001600160a01b031663c34c08e56040518163ffffffff1660e01b8152600401602060405180830381600087803b158015610fe757600080fd5b505af1158015610f61573d6000803e3d6000fd5b60405163b4ed0b6d60e01b81526103e960048201526000907f00000000000000000000000000000000000000000000000000000000000000006001600160a01b03169063b4ed0b6d9060240160206040518083038186803b158015610f4d57600080fd5b606a60009081526020527ff3261457f4fd0b7c00a1511877ab27b74183ac470be8db3a7ecdc64335f6f979546001600160a01b031690565b606660009081526020527f422cccb7cea5c0e46f340bb7b21b81debac329f72e31669c20ff0f3a05cc2b5b546001600160a01b031690565b600080826001600160a01b0316846001600160a01b031614156111295760405162461bcd60e51b81526020600482015260126024820152714964656e746963616c20616464726573732160701b60448201526064016104fd565b826001600160a01b0316846001600160a01b03161061114957828461114c565b83835b90925090506001600160a01b0382166111975760405162461bcd60e51b815260206004820152600d60248201526c5a65726f20616464726573732160981b60448201526064016104fd565b9250929050565b6000806111a9611097565b83546040516370a0823160e01b81526001600160a01b03928316926370a08231926111d992911690600401612704565b60206040518083038186803b1580156111f157600080fd5b505afa158015611205573d6000803e3d6000fd5b505050506040513d601f19601f820116820180604052508101906112299190612668565b600284015460048086015460018701546040516370a0823160e01b81529495506001600160a01b0393841694919360009386936370a082319361126e93169101612704565b60206040518083038186803b15801561128657600080fd5b505afa15801561129a573d6000803e3d6000fd5b505050506040513d601f19601f820116820180604052508101906112be9190612668565b60038701549091506000906112dc906001600160a01b031685610634565b60038801549091506000906112fa906001600160a01b031686610af8565b600389015460018a01546040516370a0823160e01b81529293506000926001600160a01b03928316926370a082319261133892911690600401612704565b60206040518083038186803b15801561135057600080fd5b505afa158015611364573d6000803e3d6000fd5b505050506040513d601f19601f820116820180604052508101906113889190612668565b9050600061141c8a60030160009054906101000a90046001600160a01b03166001600160a01b0316637464fc3d6040518163ffffffff1660e01b815260040160206040518083038186803b1580156113df57600080fd5b505afa1580156113f3573d6000803e3d6000fd5b505050506040513d601f19601f820116820180604052508101906114179190612668565b611d47565b9050896007015481111561145c57808a600701548261143b91906128c6565b61144590846128a7565b61144f9190612887565b60068b015560078a018190555b50611468868484611f2c565b15611d375786156115dc5760008261148089826128a7565b61148a9190612887565b905060006114988287611f9a565b90506000826114a78b846128a7565b6114b19190612887565b8c5460038e01549192506114e6916001600160a01b039182169116836114d5611097565b6001600160a01b0316929190611fb1565b60018c015460038d015461150b916001600160a01b038c811692918116911685611fb1565b60038c015460018d01546040516335313c2160e11b81526001600160a01b0392831692636a6278429261154392911690600401612704565b602060405180830381600087803b15801561155d57600080fd5b505af1158015611571573d6000803e3d6000fd5b505050506040513d601f19601f820116820180604052508101906115959190612668565b506115a082886128c6565b60038d01549097506115bb906001600160a01b03168a610634565b60038d01549096506115d6906001600160a01b03168a610af8565b94505050505b6005890154836115ee876127106128a7565b6115f89190612887565b1115611b0d576000896005015461271061161291906128c6565b60058b015461162188876128c6565b61162b91906128a7565b6116359190612887565b905060006116618386611648858b6128c6565b61165290876128a7565b61165c9190612887565b611f9a565b60038c0154909150611685906001600160a01b0316611680848a6128c6565b612011565b60018b015460038c01546116a7916001600160a01b0391821691168184611fb1565b5060038a015460018b015460405163226bf2d160e21b81526001600160a01b03928316926389afcb44926116e092911690600401612704565b6040805180830381600087803b1580156116f957600080fd5b505af115801561170d573d6000803e3d6000fd5b505050506040513d601f19601f8201168201806040525081019061173191906126c5565b5050600061173d611097565b60018c01546040516370a0823160e01b81526001600160a01b03928316926370a082319261177092911690600401612704565b60206040518083038186803b15801561178857600080fd5b505afa15801561179c573d6000803e3d6000fd5b505050506040513d601f19601f820116820180604052508101906117c09190612668565b90506117cc82886128c6565b8b60040160008282546117df91906128c6565b909155506117ef905082886128c6565b6117f990886128c6565b60018c01546040516370a0823160e01b81529198506000916001600160a01b038b8116926370a08231926118339290911690600401612704565b60206040518083038186803b15801561184b57600080fd5b505afa15801561185f573d6000803e3d6000fd5b505050506040513d601f19601f820116820180604052508101906118839190612668565b905061188d611097565b60018d0154604051632770a7eb60e21b81526001600160a01b0392831692639dc29fac926118c2929116908690600401612732565b600060405180830381600087803b1580156118dc57600080fd5b505af11580156118f0573d6000803e3d6000fd5b50505050828861190091906128c6565b82111561198c5761190f611097565b8c546001600160a01b03918216916340c10f19911661192e868c6128c6565b61193890866128c6565b6040518363ffffffff1660e01b8152600401611955929190612732565b600060405180830381600087803b15801561196f57600080fd5b505af1158015611983573d6000803e3d6000fd5b50505050611b03565b81611997848a6128c6565b1115611b03576000826119aa858b6128c6565b6119b491906128c6565b90506119be611097565b60038e0154604051632770a7eb60e21b81526001600160a01b0392831692639dc29fac926119f3929116908590600401612732565b600060405180830381600087803b158015611a0d57600080fd5b505af1158015611a21573d6000803e3d6000fd5b505050506000611a388389848a61165291906128a7565b9050611a888e60010160009054906101000a90046001600160a01b03168f60030160009054906101000a90046001600160a01b0316838e6001600160a01b0316611fb1909392919063ffffffff16565b8d60030160009054906101000a90046001600160a01b03166001600160a01b031663fff6cae96040518163ffffffff1660e01b8152600401600060405180830381600087803b158015611ada57600080fd5b505af1158015611aee573d6000803e3d6000fd5b505050508083611afe91906128c6565b925050505b9550611d27915050565b82611b1a866129046128a7565b611b249190612887565b8960050154118015611b365750600084115b15611d275760008960050154612710611b4f91906128c6565b611b5987866128c6565b8b60050154611b6891906128a7565b611b729190612887565b90506000611b8087836128c6565b9050600085611b8f83876128a7565b611b999190612887565b90506000611ba78289611f9a565b9050600082611bb685846128a7565b611bc09190612887565b90508115611d215760018e015460038f0154611bed916001600160a01b038e811692918116911685611fb1565b611bf5611097565b60038f01546040516340c10f1960e01b81526001600160a01b03928316926340c10f1992611c2a929116908590600401612732565b600060405180830381600087803b158015611c4457600080fd5b505af1158015611c58573d6000803e3d6000fd5b50505050808e6004016000828254611c70919061286f565b90915550611c809050818b61286f565b60038f0154909a50611c9b906001600160a01b03168261211b565b60038e01546040516335313c2160e11b81526001600160a01b0390911690636a62784290611ccd903090600401612704565b602060405180830381600087803b158015611ce757600080fd5b505af1158015611cfb573d6000803e3d6000fd5b505050506040513d601f19601f82011682018060405250810190611d1f9190612668565b505b50505050505b6001975050505050505050610eed565b6000975050505050505050610eed565b600081611d5657506000610eed565b50600181600160801b8110611d705760409190911b9060801c5b600160401b8110611d865760209190911b9060401c5b600160201b8110611d9c5760109190911b9060201c5b620100008110611db15760089190911b9060101c5b6101008110611dc55760049190911b9060081c5b60108110611dd85760029190911b9060041c5b60088110611de857600182901b91505b6001828481611e0757634e487b7160e01b600052601260045260246000fd5b048301901c91506001828481611e2d57634e487b7160e01b600052601260045260246000fd5b048301901c91506001828481611e5357634e487b7160e01b600052601260045260246000fd5b048301901c91506001828481611e7957634e487b7160e01b600052601260045260246000fd5b048301901c91506001828481611e9f57634e487b7160e01b600052601260045260246000fd5b048301901c91506001828481611ec557634e487b7160e01b600052601260045260246000fd5b048301901c91506001828481611eeb57634e487b7160e01b600052601260045260246000fd5b048301901c91506000828481611f1157634e487b7160e01b600052601260045260246000fd5b04905080831015611f225782611f24565b805b949350505050565b600080611f418584611f3c611097565b612212565b905083811115611f7e578060095461271060085487611f6091906128a7565b611f6a9190612887565b611f74919061286f565b1015915050611f93565b8360095461271060085484611f6091906128a7565b9392505050565b6000818310611faa575080610812565b5081610812565b604080516001600160a01b0385811660248301528416604482015260648082018490528251808303909101815260849091019091526020810180516001600160e01b03166323b872dd60e01b17905261200b9085906122b6565b50505050565b600061201b611097565b90506000816001600160a01b031663df8279b0856040518263ffffffff1660e01b815260040161204b9190612704565b60206040518083038186803b15801561206357600080fd5b505afa158015612077573d6000803e3d6000fd5b505050506040513d601f19601f8201168201806040525081019061209b9190612668565b9050816001600160a01b031663d35f063e85858410156120bc5760006120c6565b6120c686856128c6565b6040518363ffffffff1660e01b81526004016120e3929190612732565b600060405180830381600087803b1580156120fd57600080fd5b505af1158015612111573d6000803e3d6000fd5b5050505050505050565b6000612125611097565b9050806001600160a01b031663d35f063e8484846001600160a01b031663df8279b0886040518263ffffffff1660e01b81526004016121649190612704565b60206040518083038186803b15801561217c57600080fd5b505afa158015612190573d6000803e3d6000fd5b505050506040513d601f19601f820116820180604052508101906121b49190612668565b6121be919061286f565b6040518363ffffffff1660e01b81526004016121db929190612732565b600060405180830381600087803b1580156121f557600080fd5b505af1158015612209573d6000803e3d6000fd5b50505050505050565b60008061221f858461238d565b604051630576cbc360e41b81526001600160a01b0387811660048301526024820187905285811660448301529192509082169063576cbc3090606401602060405180830381600087803b15801561227557600080fd5b505af1158015612289573d6000803e3d6000fd5b505050506040513d601f19601f820116820180604052508101906122ad9190612668565b95945050505050565b600061230b826040518060400160405280602081526020017f5361666545524332303a206c6f772d6c6576656c2063616c6c206661696c6564815250856001600160a01b03166124419092919063ffffffff16565b805190915015612388578080602001905181019061232991906125e2565b6123885760405162461bcd60e51b815260206004820152602a60248201527f5361666545524332303a204552433230206f7065726174696f6e20646964206e6044820152691bdd081cdd58d8d9595960b21b60648201526084016104fd565b505050565b6001600160a01b03808316600090815260066020908152604080832085851684529091529020541680610812576123c261105f565b6001600160a01b0316631757616884846040518363ffffffff1660e01b81526004016123ef929190612718565b602060405180830381600087803b15801561240957600080fd5b505af115801561241d573d6000803e3d6000fd5b505050506040513d601f19601f82011682018060405250810190611f939190612563565b6060611f24848460008585843b61249a5760405162461bcd60e51b815260206004820152601d60248201527f416464726573733a2063616c6c20746f206e6f6e2d636f6e747261637400000060448201526064016104fd565b600080866001600160a01b031685876040516124b691906126e8565b60006040518083038185875af1925050503d80600081146124f3576040519150601f19603f3d011682016040523d82523d6000602084013e6124f8565b606091505b5091509150612508828286612513565b979650505050505050565b60608315612522575081611f93565b8251156125325782518084602001fd5b8160405162461bcd60e51b81526004016104fd919061283c565b80516001600160701b0381168114610eed57600080fd5b600060208284031215612574578081fd5b8151611f938161291f565b60008060408385031215612591578081fd5b823561259c8161291f565b915060208301356125ac8161291f565b809150509250929050565b600080604083850312156125c9578182fd5b82356125d48161291f565b946020939093013593505050565b6000602082840312156125f3578081fd5b81518015158114611f93578182fd5b600080600060608486031215612616578081fd5b61261f8461254c565b925061262d6020850161254c565b9150604084015163ffffffff81168114612645578182fd5b809150509250925092565b600060208284031215612661578081fd5b5035919050565b600060208284031215612679578081fd5b5051919050565b60008060408385031215612692578182fd5b8235915060208301356125ac8161291f565b600080604083850312156126b6578182fd5b50508035926020909101359150565b600080604083850312156126d7578182fd5b505080516020909101519092909150565b600082516126fa8184602087016128dd565b9190910192915050565b6001600160a01b0391909116815260200190565b6001600160a01b0392831681529116602082015260400190565b6001600160a01b03929092168252602082015260400190565b602080825282518282018190526000919060409081850190868401855b828110156127eb57815180516001600160a01b039081168652878201518116888701528682015116868601526060808201516127ae828801826001600160a01b03169052565b50506080818101519086015260a0808201519086015260c0808201519086015260e090810151908501526101009093019290850190600101612768565b5091979650505050505050565b6020808252825182820181905260009190848201906040850190845b8181101561283057835183529284019291840191600101612814565b50909695505050505050565b600060208252825180602084015261285b8160408501602087016128dd565b601f01601f19169190910160400192915050565b6000821982111561288257612882612909565b500190565b6000826128a257634e487b7160e01b81526012600452602481fd5b500490565b60008160001904831182151516156128c1576128c1612909565b500290565b6000828210156128d8576128d8612909565b500390565b60005b838110156128f85781810151838201526020016128e0565b8381111561200b5750506000910152565b634e487b7160e01b600052601160045260246000fd5b6001600160a01b038116811461293457600080fd5b5056fea26469706673582212209784b2174473f84003f2ba2fe4f9eefd63f826b827e1795f68572a9c478d024d64736f6c63430008030033",
  "linkReferences": {},
  "deployedLinkReferences": {}
}