{
  "_format": "hh-sol-artifact-1",
  "contractName": "TestRepayingStrategy",
  "sourceName": "contracts/test/TestRepayingStrategy.sol",
  "abi": [
    {
      "inputs": [
        {
          "internalType": "address",
          "name": "_rewardToken",
          "type": "address"
        },
        {
          "internalType": "address",
          "name": "_roles",
          "type": "address"
        }
      ],
      "stateMutability": "nonpayable",
      "type": "constructor"
    },
    {
      "anonymous": false,
      "inputs": [
        {
          "indexed": false,
          "internalType": "string",
          "name": "param",
          "type": "string"
        },
        {
          "indexed": false,
          "internalType": "uint256",
          "name": "value",
          "type": "uint256"
        }
      ],
      "name": "ParameterUpdated",
      "type": "event"
    },
    {
      "anonymous": false,
      "inputs": [
        {
          "indexed": false,
          "internalType": "string",
          "name": "param",
          "type": "string"
        },
        {
          "indexed": false,
          "internalType": "address",
          "name": "subject",
          "type": "address"
        },
        {
          "indexed": false,
          "internalType": "uint256",
          "name": "value",
          "type": "uint256"
        }
      ],
      "name": "SubjectParameterUpdated",
      "type": "event"
    },
    {
      "anonymous": false,
      "inputs": [
        {
          "indexed": false,
          "internalType": "string",
          "name": "param",
          "type": "string"
        },
        {
          "indexed": false,
          "internalType": "address",
          "name": "subject",
          "type": "address"
        }
      ],
      "name": "SubjectUpdated",
      "type": "event"
    },
    {
      "stateMutability": "payable",
      "type": "fallback"
    },
    {
      "inputs": [
        {
          "internalType": "uint256",
          "name": "",
          "type": "uint256"
        }
      ],
      "name": "_accounts",
      "outputs": [
        {
          "internalType": "uint256",
          "name": "collateral",
          "type": "uint256"
        },
        {
          "internalType": "uint256",
          "name": "yieldCheckptIdx",
          "type": "uint256"
        },
        {
          "internalType": "address",
          "name": "trancheToken",
          "type": "address"
        }
      ],
      "stateMutability": "view",
      "type": "function"
    },
    {
      "inputs": [
        {
          "internalType": "uint256",
          "name": "",
          "type": "uint256"
        }
      ],
      "name": "_charactersPlayed",
      "outputs": [
        {
          "internalType": "uint256",
          "name": "",
          "type": "uint256"
        }
      ],
      "stateMutability": "view",
      "type": "function"
    },
    {
      "inputs": [
        {
          "internalType": "uint256",
          "name": "",
          "type": "uint256"
        }
      ],
      "name": "_dependsOnCharacters",
      "outputs": [
        {
          "internalType": "uint256",
          "name": "",
          "type": "uint256"
        }
      ],
      "stateMutability": "view",
      "type": "function"
    },
    {
      "inputs": [
        {
          "internalType": "uint256",
          "name": "",
          "type": "uint256"
        }
      ],
      "name": "_dependsOnRoles",
      "outputs": [
        {
          "internalType": "uint256",
          "name": "",
          "type": "uint256"
        }
      ],
      "stateMutability": "view",
      "type": "function"
    },
    {
      "inputs": [
        {
          "internalType": "address",
          "name": "",
          "type": "address"
        },
        {
          "internalType": "address",
          "name": "",
          "type": "address"
        }
      ],
      "name": "_oracleCache",
      "outputs": [
        {
          "internalType": "address",
          "name": "",
          "type": "address"
        }
      ],
      "stateMutability": "view",
      "type": "function"
    },
    {
      "inputs": [
        {
          "internalType": "uint256",
          "name": "",
          "type": "uint256"
        }
      ],
      "name": "_rolesPlayed",
      "outputs": [
        {
          "internalType": "uint256",
          "name": "",
          "type": "uint256"
        }
      ],
      "stateMutability": "view",
      "type": "function"
    },
    {
      "inputs": [
        {
          "internalType": "address",
          "name": "token",
          "type": "address"
        }
      ],
      "name": "_viewTVL",
      "outputs": [
        {
          "internalType": "uint256",
          "name": "",
          "type": "uint256"
        }
      ],
      "stateMutability": "view",
      "type": "function"
    },
    {
      "inputs": [
        {
          "internalType": "uint256",
          "name": "trancheId",
          "type": "uint256"
        },
        {
          "internalType": "address",
          "name": "sourceStrategy",
          "type": "address"
        },
        {
          "internalType": "address",
          "name": "tokenContract",
          "type": "address"
        },
        {
          "internalType": "uint256",
          "name": "",
          "type": "uint256"
        },
        {
          "internalType": "uint256",
          "name": "amount",
          "type": "uint256"
        }
      ],
      "name": "acceptMigration",
      "outputs": [],
      "stateMutability": "nonpayable",
      "type": "function"
    },
    {
      "inputs": [],
      "name": "apfSmoothingPer10k",
      "outputs": [
        {
          "internalType": "uint256",
          "name": "",
          "type": "uint256"
        }
      ],
      "stateMutability": "view",
      "type": "function"
    },
    {
      "inputs": [
        {
          "internalType": "address",
          "name": "token",
          "type": "address"
        },
        {
          "internalType": "bytes",
          "name": "data",
          "type": "bytes"
        }
      ],
      "name": "approveToken",
      "outputs": [],
      "stateMutability": "nonpayable",
      "type": "function"
    },
    {
      "inputs": [
        {
          "internalType": "address",
          "name": "token",
          "type": "address"
        }
      ],
      "name": "approvedToken",
      "outputs": [
        {
          "internalType": "bool",
          "name": "",
          "type": "bool"
        }
      ],
      "stateMutability": "view",
      "type": "function"
    },
    {
      "inputs": [],
      "name": "approvedTokensCount",
      "outputs": [
        {
          "internalType": "uint256",
          "name": "",
          "type": "uint256"
        }
      ],
      "stateMutability": "view",
      "type": "function"
    },
    {
      "inputs": [],
      "name": "charactersPlayed",
      "outputs": [
        {
          "internalType": "uint256[]",
          "name": "",
          "type": "uint256[]"
        }
      ],
      "stateMutability": "view",
      "type": "function"
    },
    {
      "inputs": [
        {
          "internalType": "address",
          "name": "token",
          "type": "address"
        }
      ],
      "name": "checkApprovedAndEncode",
      "outputs": [
        {
          "internalType": "bool",
          "name": "",
          "type": "bool"
        },
        {
          "internalType": "bytes",
          "name": "",
          "type": "bytes"
        }
      ],
      "stateMutability": "view",
      "type": "function"
    },
    {
      "inputs": [
        {
          "internalType": "uint256",
          "name": "trancheId",
          "type": "uint256"
        },
        {
          "internalType": "address",
          "name": "currency",
          "type": "address"
        },
        {
          "internalType": "address",
          "name": "recipient",
          "type": "address"
        }
      ],
      "name": "collectYield",
      "outputs": [
        {
          "internalType": "uint256",
          "name": "",
          "type": "uint256"
        }
      ],
      "stateMutability": "nonpayable",
      "type": "function"
    },
    {
      "inputs": [
        {
          "internalType": "uint256",
          "name": "trancheId",
          "type": "uint256"
        },
        {
          "internalType": "address",
          "name": "_yieldCurrency",
          "type": "address"
        },
        {
          "internalType": "address",
          "name": "valueCurrency",
          "type": "address"
        },
        {
          "internalType": "address",
          "name": "recipient",
          "type": "address"
        }
      ],
      "name": "collectYieldValueBorrowable",
      "outputs": [
        {
          "internalType": "uint256",
          "name": "yield",
          "type": "uint256"
        },
        {
          "internalType": "uint256",
          "name": "value",
          "type": "uint256"
        },
        {
          "internalType": "uint256",
          "name": "borrowablePer10k",
          "type": "uint256"
        }
      ],
      "stateMutability": "nonpayable",
      "type": "function"
    },
    {
      "inputs": [
        {
          "internalType": "uint256",
          "name": "rewardAmount",
          "type": "uint256"
        },
        {
          "internalType": "uint256",
          "name": "targetBid",
          "type": "uint256"
        }
      ],
      "name": "convertReward2Stable",
      "outputs": [],
      "stateMutability": "nonpayable",
      "type": "function"
    },
    {
      "inputs": [
        {
          "internalType": "address",
          "name": "",
          "type": "address"
        }
      ],
      "name": "cumulHarvestedStableTallied",
      "outputs": [
        {
          "internalType": "uint256",
          "name": "",
          "type": "uint256"
        }
      ],
      "stateMutability": "view",
      "type": "function"
    },
    {
      "inputs": [],
      "name": "cumulRewardAllAssets",
      "outputs": [
        {
          "internalType": "uint256",
          "name": "",
          "type": "uint256"
        }
      ],
      "stateMutability": "view",
      "type": "function"
    },
    {
      "inputs": [
        {
          "internalType": "address",
          "name": "",
          "type": "address"
        }
      ],
      "name": "cumulRewardPerAsset",
      "outputs": [
        {
          "internalType": "uint256",
          "name": "",
          "type": "uint256"
        }
      ],
      "stateMutability": "view",
      "type": "function"
    },
    {
      "inputs": [],
      "name": "cumulStableConvertedFromReward",
      "outputs": [
        {
          "internalType": "uint256",
          "name": "",
          "type": "uint256"
        }
      ],
      "stateMutability": "view",
      "type": "function"
    },
    {
      "inputs": [],
      "name": "dependsOnCharacters",
      "outputs": [
        {
          "internalType": "uint256[]",
          "name": "",
          "type": "uint256[]"
        }
      ],
      "stateMutability": "view",
      "type": "function"
    },
    {
      "inputs": [],
      "name": "dependsOnRoles",
      "outputs": [
        {
          "internalType": "uint256[]",
          "name": "",
          "type": "uint256[]"
        }
      ],
      "stateMutability": "view",
      "type": "function"
    },
    {
      "inputs": [
        {
          "internalType": "address",
          "name": "token",
          "type": "address"
        },
        {
          "internalType": "bytes",
          "name": "",
          "type": "bytes"
        }
      ],
      "name": "disapproveToken",
      "outputs": [],
      "stateMutability": "nonpayable",
      "type": "function"
    },
    {
      "inputs": [],
      "name": "disapprovedTokensCount",
      "outputs": [
        {
          "internalType": "uint256",
          "name": "",
          "type": "uint256"
        }
      ],
      "stateMutability": "view",
      "type": "function"
    },
    {
      "inputs": [],
      "name": "feePer10k",
      "outputs": [
        {
          "internalType": "uint256",
          "name": "",
          "type": "uint256"
        }
      ],
      "stateMutability": "view",
      "type": "function"
    },
    {
      "inputs": [
        {
          "internalType": "address",
          "name": "token",
          "type": "address"
        }
      ],
      "name": "harvestPartially",
      "outputs": [],
      "stateMutability": "nonpayable",
      "type": "function"
    },
    {
      "inputs": [],
      "name": "isActive",
      "outputs": [
        {
          "internalType": "bool",
          "name": "",
          "type": "bool"
        }
      ],
      "stateMutability": "view",
      "type": "function"
    },
    {
      "inputs": [
        {
          "internalType": "uint256",
          "name": "",
          "type": "uint256"
        }
      ],
      "name": "mainCharacterCache",
      "outputs": [
        {
          "internalType": "address",
          "name": "",
          "type": "address"
        }
      ],
      "stateMutability": "view",
      "type": "function"
    },
    {
      "inputs": [
        {
          "internalType": "address",
          "name": "destination",
          "type": "address"
        }
      ],
      "name": "migrateAllTo",
      "outputs": [],
      "stateMutability": "nonpayable",
      "type": "function"
    },
    {
      "inputs": [
        {
          "internalType": "uint256",
          "name": "trancheId",
          "type": "uint256"
        },
        {
          "internalType": "address",
          "name": "targetStrategy",
          "type": "address"
        },
        {
          "internalType": "address",
          "name": "yieldToken",
          "type": "address"
        },
        {
          "internalType": "address",
          "name": "yieldRecipient",
          "type": "address"
        }
      ],
      "name": "migrateStrategy",
      "outputs": [
        {
          "internalType": "address",
          "name": "",
          "type": "address"
        },
        {
          "internalType": "uint256",
          "name": "",
          "type": "uint256"
        },
        {
          "internalType": "uint256",
          "name": "",
          "type": "uint256"
        }
      ],
      "stateMutability": "nonpayable",
      "type": "function"
    },
    {
      "inputs": [],
      "name": "minimumBidPer10k",
      "outputs": [
        {
          "internalType": "uint256",
          "name": "",
          "type": "uint256"
        }
      ],
      "stateMutability": "view",
      "type": "function"
    },
    {
      "inputs": [
        {
          "internalType": "address",
          "name": "token",
          "type": "address"
        },
        {
          "internalType": "address",
          "name": "pegCurrency",
          "type": "address"
        }
      ],
      "name": "newCurrentOracle",
      "outputs": [],
      "stateMutability": "nonpayable",
      "type": "function"
    },
    {
      "inputs": [
        {
          "internalType": "address",
          "name": "depositor",
          "type": "address"
        },
        {
          "internalType": "uint256",
          "name": "trancheId",
          "type": "uint256"
        },
        {
          "internalType": "uint256",
          "name": "amount",
          "type": "uint256"
        },
        {
          "internalType": "address",
          "name": "yieldRecipient",
          "type": "address"
        }
      ],
      "name": "registerDepositFor",
      "outputs": [],
      "stateMutability": "nonpayable",
      "type": "function"
    },
    {
      "inputs": [
        {
          "internalType": "address",
          "name": "minter",
          "type": "address"
        },
        {
          "internalType": "uint256",
          "name": "trancheId",
          "type": "uint256"
        },
        {
          "internalType": "address",
          "name": "assetToken",
          "type": "address"
        },
        {
          "internalType": "uint256",
          "name": "",
          "type": "uint256"
        },
        {
          "internalType": "uint256",
          "name": "assetAmount",
          "type": "uint256"
        }
      ],
      "name": "registerMintTranche",
      "outputs": [],
      "stateMutability": "nonpayable",
      "type": "function"
    },
    {
      "inputs": [
        {
          "internalType": "address",
          "name": "token",
          "type": "address"
        },
        {
          "internalType": "uint256",
          "name": "amount",
          "type": "uint256"
        },
        {
          "internalType": "address",
          "name": "recipient",
          "type": "address"
        }
      ],
      "name": "rescueCollateral",
      "outputs": [],
      "stateMutability": "nonpayable",
      "type": "function"
    },
    {
      "inputs": [
        {
          "internalType": "uint256",
          "name": "amount",
          "type": "uint256"
        },
        {
          "internalType": "address",
          "name": "recipient",
          "type": "address"
        }
      ],
      "name": "rescueNative",
      "outputs": [],
      "stateMutability": "nonpayable",
      "type": "function"
    },
    {
      "inputs": [
        {
          "internalType": "address",
          "name": "token",
          "type": "address"
        },
        {
          "internalType": "uint256",
          "name": "amount",
          "type": "uint256"
        },
        {
          "internalType": "address",
          "name": "recipient",
          "type": "address"
        }
      ],
      "name": "rescueStrandedTokens",
      "outputs": [],
      "stateMutability": "nonpayable",
      "type": "function"
    },
    {
      "inputs": [],
      "name": "rewardBalanceAccountedFor",
      "outputs": [
        {
          "internalType": "uint256",
          "name": "",
          "type": "uint256"
        }
      ],
      "stateMutability": "view",
      "type": "function"
    },
    {
      "inputs": [],
      "name": "rewardToken",
      "outputs": [
        {
          "internalType": "contract IERC20",
          "name": "",
          "type": "address"
        }
      ],
      "stateMutability": "view",
      "type": "function"
    },
    {
      "inputs": [
        {
          "internalType": "address",
          "name": "",
          "type": "address"
        },
        {
          "internalType": "uint256",
          "name": "",
          "type": "uint256"
        }
      ],
      "name": "roleCache",
      "outputs": [
        {
          "internalType": "bool",
          "name": "",
          "type": "bool"
        }
      ],
      "stateMutability": "view",
      "type": "function"
    },
    {
      "inputs": [],
      "name": "roles",
      "outputs": [
        {
          "internalType": "contract Roles",
          "name": "",
          "type": "address"
        }
      ],
      "stateMutability": "view",
      "type": "function"
    },
    {
      "inputs": [],
      "name": "rolesPlayed",
      "outputs": [
        {
          "internalType": "uint256[]",
          "name": "",
          "type": "uint256[]"
        }
      ],
      "stateMutability": "view",
      "type": "function"
    },
    {
      "inputs": [
        {
          "internalType": "uint256",
          "name": "smoothing",
          "type": "uint256"
        }
      ],
      "name": "setApfSmoothingPer10k",
      "outputs": [],
      "stateMutability": "nonpayable",
      "type": "function"
    },
    {
      "inputs": [
        {
          "internalType": "uint256",
          "name": "fee",
          "type": "uint256"
        }
      ],
      "name": "setFeePer10k",
      "outputs": [],
      "stateMutability": "nonpayable",
      "type": "function"
    },
    {
      "inputs": [
        {
          "internalType": "uint256",
          "name": "bidmin",
          "type": "uint256"
        }
      ],
      "name": "setMinimumBidPer10k",
      "outputs": [],
      "stateMutability": "nonpayable",
      "type": "function"
    },
    {
      "inputs": [
        {
          "internalType": "address",
          "name": "",
          "type": "address"
        }
      ],
      "name": "stabilityFeePer10k",
      "outputs": [
        {
          "internalType": "uint256",
          "name": "",
          "type": "uint256"
        }
      ],
      "stateMutability": "view",
      "type": "function"
    },
    {
      "inputs": [],
      "name": "strategyName",
      "outputs": [
        {
          "internalType": "bytes32",
          "name": "",
          "type": "bytes32"
        }
      ],
      "stateMutability": "view",
      "type": "function"
    },
    {
      "inputs": [
        {
          "internalType": "address",
          "name": "token",
          "type": "address"
        }
      ],
      "name": "tallyHarvestBalance",
      "outputs": [
        {
          "internalType": "uint256",
          "name": "balance",
          "type": "uint256"
        }
      ],
      "stateMutability": "nonpayable",
      "type": "function"
    },
    {
      "inputs": [
        {
          "internalType": "address",
          "name": "token",
          "type": "address"
        }
      ],
      "name": "tallyReward",
      "outputs": [],
      "stateMutability": "nonpayable",
      "type": "function"
    },
    {
      "inputs": [
        {
          "internalType": "address",
          "name": "",
          "type": "address"
        }
      ],
      "name": "tokenMetadata",
      "outputs": [
        {
          "internalType": "uint256",
          "name": "totalCollateralThisPhase",
          "type": "uint256"
        },
        {
          "internalType": "uint256",
          "name": "totalCollateralNow",
          "type": "uint256"
        },
        {
          "internalType": "uint256",
          "name": "apfLastUpdated",
          "type": "uint256"
        },
        {
          "internalType": "uint256",
          "name": "apf",
          "type": "uint256"
        }
      ],
      "stateMutability": "view",
      "type": "function"
    },
    {
      "inputs": [
        {
          "internalType": "uint256",
          "name": "trancheId",
          "type": "uint256"
        }
      ],
      "name": "tranche",
      "outputs": [
        {
          "internalType": "address",
          "name": "",
          "type": "address"
        }
      ],
      "stateMutability": "view",
      "type": "function"
    },
    {
      "inputs": [
        {
          "internalType": "uint256",
          "name": "trancheId",
          "type": "uint256"
        }
      ],
      "name": "trancheToken",
      "outputs": [
        {
          "internalType": "address",
          "name": "token",
          "type": "address"
        }
      ],
      "stateMutability": "view",
      "type": "function"
    },
    {
      "inputs": [
        {
          "internalType": "uint256",
          "name": "",
          "type": "uint256"
        }
      ],
      "name": "trancheTokenID",
      "outputs": [
        {
          "internalType": "uint256",
          "name": "",
          "type": "uint256"
        }
      ],
      "stateMutability": "pure",
      "type": "function"
    },
    {
      "inputs": [
        {
          "internalType": "uint256",
          "name": "role",
          "type": "uint256"
        }
      ],
      "name": "updateMainCharacterCache",
      "outputs": [],
      "stateMutability": "nonpayable",
      "type": "function"
    },
    {
      "inputs": [
        {
          "internalType": "uint256",
          "name": "role",
          "type": "uint256"
        },
        {
          "internalType": "address",
          "name": "contr",
          "type": "address"
        }
      ],
      "name": "updateRoleCache",
      "outputs": [],
      "stateMutability": "nonpayable",
      "type": "function"
    },
    {
      "inputs": [
        {
          "internalType": "address",
          "name": "token",
          "type": "address"
        }
      ],
      "name": "viewAPF",
      "outputs": [
        {
          "internalType": "uint256",
          "name": "",
          "type": "uint256"
        }
      ],
      "stateMutability": "view",
      "type": "function"
    },
    {
      "inputs": [],
      "name": "viewAllApprovedTokens",
      "outputs": [
        {
          "internalType": "address[]",
          "name": "",
          "type": "address[]"
        }
      ],
      "stateMutability": "view",
      "type": "function"
    },
    {
      "inputs": [],
      "name": "viewAllDisapprovedTokenStrategyMetadata",
      "outputs": [
        {
          "components": [
            {
              "internalType": "address",
              "name": "strategy",
              "type": "address"
            },
            {
              "internalType": "address",
              "name": "token",
              "type": "address"
            },
            {
              "internalType": "uint256",
              "name": "APF",
              "type": "uint256"
            },
            {
              "internalType": "uint256",
              "name": "totalCollateral",
              "type": "uint256"
            },
            {
              "internalType": "uint256",
              "name": "borrowablePer10k",
              "type": "uint256"
            },
            {
              "internalType": "uint256",
              "name": "valuePer1e18",
              "type": "uint256"
            },
            {
              "internalType": "bytes32",
              "name": "strategyName",
              "type": "bytes32"
            },
            {
              "internalType": "uint256",
              "name": "tvl",
              "type": "uint256"
            },
            {
              "internalType": "uint256",
              "name": "harvestBalance2Tally",
              "type": "uint256"
            },
            {
              "internalType": "enum IStrategy.YieldType",
              "name": "yieldType",
              "type": "uint8"
            },
            {
              "internalType": "uint256",
              "name": "stabilityFee",
              "type": "uint256"
            },
            {
              "internalType": "address",
              "name": "underlyingStrategy",
              "type": "address"
            }
          ],
          "internalType": "struct IStrategy.StrategyMetadata[]",
          "name": "",
          "type": "tuple[]"
        }
      ],
      "stateMutability": "view",
      "type": "function"
    },
    {
      "inputs": [],
      "name": "viewAllDisapprovedTokens",
      "outputs": [
        {
          "internalType": "address[]",
          "name": "",
          "type": "address[]"
        }
      ],
      "stateMutability": "view",
      "type": "function"
    },
    {
      "inputs": [],
      "name": "viewAllFeesEver",
      "outputs": [
        {
          "internalType": "uint256",
          "name": "",
          "type": "uint256"
        }
      ],
      "stateMutability": "view",
      "type": "function"
    },
    {
      "inputs": [],
      "name": "viewAllStrategyMetadata",
      "outputs": [
        {
          "components": [
            {
              "internalType": "address",
              "name": "strategy",
              "type": "address"
            },
            {
              "internalType": "address",
              "name": "token",
              "type": "address"
            },
            {
              "internalType": "uint256",
              "name": "APF",
              "type": "uint256"
            },
            {
              "internalType": "uint256",
              "name": "totalCollateral",
              "type": "uint256"
            },
            {
              "internalType": "uint256",
              "name": "borrowablePer10k",
              "type": "uint256"
            },
            {
              "internalType": "uint256",
              "name": "valuePer1e18",
              "type": "uint256"
            },
            {
              "internalType": "bytes32",
              "name": "strategyName",
              "type": "bytes32"
            },
            {
              "internalType": "uint256",
              "name": "tvl",
              "type": "uint256"
            },
            {
              "internalType": "uint256",
              "name": "harvestBalance2Tally",
              "type": "uint256"
            },
            {
              "internalType": "enum IStrategy.YieldType",
              "name": "yieldType",
              "type": "uint8"
            },
            {
              "internalType": "uint256",
              "name": "stabilityFee",
              "type": "uint256"
            },
            {
              "internalType": "address",
              "name": "underlyingStrategy",
              "type": "address"
            }
          ],
          "internalType": "struct IStrategy.StrategyMetadata[]",
          "name": "",
          "type": "tuple[]"
        }
      ],
      "stateMutability": "view",
      "type": "function"
    },
    {
      "inputs": [],
      "name": "viewAllTokensEver",
      "outputs": [
        {
          "internalType": "address[]",
          "name": "",
          "type": "address[]"
        }
      ],
      "stateMutability": "view",
      "type": "function"
    },
    {
      "inputs": [
        {
          "internalType": "uint256",
          "name": "trancheId",
          "type": "uint256"
        }
      ],
      "name": "viewBorrowable",
      "outputs": [
        {
          "internalType": "uint256",
          "name": "borrowablePer10k",
          "type": "uint256"
        }
      ],
      "stateMutability": "view",
      "type": "function"
    },
    {
      "inputs": [
        {
          "internalType": "address",
          "name": "token",
          "type": "address"
        }
      ],
      "name": "viewEstimatedHarvestable",
      "outputs": [
        {
          "internalType": "uint256",
          "name": "",
          "type": "uint256"
        }
      ],
      "stateMutability": "view",
      "type": "function"
    },
    {
      "inputs": [
        {
          "internalType": "address",
          "name": "token",
          "type": "address"
        }
      ],
      "name": "viewHarvestBalance2Tally",
      "outputs": [
        {
          "internalType": "uint256",
          "name": "",
          "type": "uint256"
        }
      ],
      "stateMutability": "view",
      "type": "function"
    },
    {
      "inputs": [
        {
          "internalType": "address",
          "name": "",
          "type": "address"
        }
      ],
      "name": "viewSourceHarvestable",
      "outputs": [
        {
          "internalType": "uint256",
          "name": "",
          "type": "uint256"
        }
      ],
      "stateMutability": "pure",
      "type": "function"
    },
    {
      "inputs": [
        {
          "internalType": "address",
          "name": "token",
          "type": "address"
        }
      ],
      "name": "viewStrategyMetadata",
      "outputs": [
        {
          "components": [
            {
              "internalType": "address",
              "name": "strategy",
              "type": "address"
            },
            {
              "internalType": "address",
              "name": "token",
              "type": "address"
            },
            {
              "internalType": "uint256",
              "name": "APF",
              "type": "uint256"
            },
            {
              "internalType": "uint256",
              "name": "totalCollateral",
              "type": "uint256"
            },
            {
              "internalType": "uint256",
              "name": "borrowablePer10k",
              "type": "uint256"
            },
            {
              "internalType": "uint256",
              "name": "valuePer1e18",
              "type": "uint256"
            },
            {
              "internalType": "bytes32",
              "name": "strategyName",
              "type": "bytes32"
            },
            {
              "internalType": "uint256",
              "name": "tvl",
              "type": "uint256"
            },
            {
              "internalType": "uint256",
              "name": "harvestBalance2Tally",
              "type": "uint256"
            },
            {
              "internalType": "enum IStrategy.YieldType",
              "name": "yieldType",
              "type": "uint8"
            },
            {
              "internalType": "uint256",
              "name": "stabilityFee",
              "type": "uint256"
            },
            {
              "internalType": "address",
              "name": "underlyingStrategy",
              "type": "address"
            }
          ],
          "internalType": "struct IStrategy.StrategyMetadata",
          "name": "",
          "type": "tuple"
        }
      ],
      "stateMutability": "view",
      "type": "function"
    },
    {
      "inputs": [
        {
          "internalType": "uint256",
          "name": "trancheId",
          "type": "uint256"
        }
      ],
      "name": "viewTargetCollateralAmount",
      "outputs": [
        {
          "internalType": "uint256",
          "name": "",
          "type": "uint256"
        }
      ],
      "stateMutability": "view",
      "type": "function"
    },
    {
      "inputs": [
        {
          "internalType": "address",
          "name": "",
          "type": "address"
        }
      ],
      "name": "viewUnderlyingStrategy",
      "outputs": [
        {
          "internalType": "address",
          "name": "",
          "type": "address"
        }
      ],
      "stateMutability": "view",
      "type": "function"
    },
    {
      "inputs": [
        {
          "internalType": "uint256",
          "name": "trancheId",
          "type": "uint256"
        },
        {
          "internalType": "address",
          "name": "valueCurrency",
          "type": "address"
        }
      ],
      "name": "viewValue",
      "outputs": [
        {
          "internalType": "uint256",
          "name": "value",
          "type": "uint256"
        }
      ],
      "stateMutability": "view",
      "type": "function"
    },
    {
      "inputs": [
        {
          "internalType": "uint256",
          "name": "trancheId",
          "type": "uint256"
        },
        {
          "internalType": "address",
          "name": "valueCurrency",
          "type": "address"
        }
      ],
      "name": "viewValueBorrowable",
      "outputs": [
        {
          "internalType": "uint256",
          "name": "value",
          "type": "uint256"
        },
        {
          "internalType": "uint256",
          "name": "borrowable",
          "type": "uint256"
        }
      ],
      "stateMutability": "view",
      "type": "function"
    },
    {
      "inputs": [
        {
          "internalType": "uint256",
          "name": "trancheId",
          "type": "uint256"
        },
        {
          "internalType": "address",
          "name": "currency",
          "type": "address"
        }
      ],
      "name": "viewYield",
      "outputs": [
        {
          "internalType": "uint256",
          "name": "",
          "type": "uint256"
        }
      ],
      "stateMutability": "view",
      "type": "function"
    },
    {
      "inputs": [
        {
          "internalType": "uint256",
          "name": "trancheId",
          "type": "uint256"
        },
        {
          "internalType": "address",
          "name": "_yieldCurrency",
          "type": "address"
        },
        {
          "internalType": "address",
          "name": "valueCurrency",
          "type": "address"
        }
      ],
      "name": "viewYieldValueBorrowable",
      "outputs": [
        {
          "internalType": "uint256",
          "name": "yield",
          "type": "uint256"
        },
        {
          "internalType": "uint256",
          "name": "value",
          "type": "uint256"
        },
        {
          "internalType": "uint256",
          "name": "borrowablePer10k",
          "type": "uint256"
        }
      ],
      "stateMutability": "view",
      "type": "function"
    },
    {
      "inputs": [
        {
          "internalType": "uint256",
          "name": "trancheId",
          "type": "uint256"
        },
        {
          "internalType": "uint256",
          "name": "amount",
          "type": "uint256"
        },
        {
          "internalType": "address",
          "name": "yieldToken",
          "type": "address"
        },
        {
          "internalType": "address",
          "name": "recipient",
          "type": "address"
        }
      ],
      "name": "withdraw",
      "outputs": [],
      "stateMutability": "nonpayable",
      "type": "function"
    },
    {
      "inputs": [],
      "name": "yieldCurrency",
      "outputs": [
        {
          "internalType": "address",
          "name": "",
          "type": "address"
        }
      ],
      "stateMutability": "view",
      "type": "function"
    },
    {
      "inputs": [],
      "name": "yieldType",
      "outputs": [
        {
          "internalType": "enum IStrategy.YieldType",
          "name": "",
          "type": "uint8"
        }
      ],
      "stateMutability": "pure",
      "type": "function"
    },
    {
      "stateMutability": "payable",
      "type": "receive"
    }
  ],
  "bytecode": "0x6101006040526009805460ff191660011790556113886011556125e46018556103e86019553480156200003157600080fd5b5060405162004b1038038062004b10833981016040819052620000549162000332565b817f54657374207265706179696e672073747261746567790000000000000000000082806001600160a01b038116620000de5760405162461bcd60e51b815260206004820152602260248201527f506c656173652070726f766964652076616c696420726f6c6573206164647265604482015261737360f01b606482015260840160405180910390fd5b60601b6001600160601b0319166080526002805460018082018355606a60008051602062004af08339815191529283015560058054808301825560047f036b6384b5eca791c62761152d0c79bb0604c104a5fb6f4eb0703f3154bb3db09182018190558554808501875560669086015582548085019093559101849055835480830185556068908401556003805480840182557fc2575a0e9e593c00f959f8c92f12db2869c3395a3b0502d05e2516446f71f85b908101829055815480850190925501829055835491820184556000939093526069910181905560405163b4ed0b6d60e01b8152918201526001600160a01b0382169063b4ed0b6d9060240160206040518083038186803b158015620001f657600080fd5b505afa1580156200020b573d6000803e3d6000fd5b505050506040513d601f19601f820116820180604052508101906200023191906200030e565b6001600160a01b031663fae794e66040518163ffffffff1660e01b815260040160206040518083038186803b1580156200026a57600080fd5b505afa1580156200027f573d6000803e3d6000fd5b505050506040513d601f19601f82011682018060405250810190620002a5919062000369565b60a052506001600881905560c091909152600280549182018155600052606760008051602062004af08339815191529091015560601b6001600160601b03191660e05250620003829050565b80516001600160a01b03811681146200030957600080fd5b919050565b60006020828403121562000320578081fd5b6200032b82620002f1565b9392505050565b6000806040838503121562000345578081fd5b6200035083620002f1565b91506200036060208401620002f1565b90509250929050565b6000602082840312156200037b578081fd5b5051919050565b60805160601c60a05160c05160e05160601c6146e16200040f60003960008181610d32015281816117cc01528181611ace01528181611cc00152611e63015260008181610c0a015261107e015260006125390152600081816105c201528181610e8a0152818161158001528181612c5e01528181612cf101528181612df3015261355f01526146e16000f3fe6080604052600436106103665760003560e01c806301c7b9f81461036f5780630581f3b5146103a257806306b8ce99146103c2578063071060a6146103d75780630a3017d9146103f75780630ccc5bd6146104175780630d74962814610437578063110acb231461044d57806318af4c9e1461047a5780631dc3a7591461049a5780631f7ea881146104bb57806321fa0f1f146104db57806322f3e2d4146104fd5780632642b6061461052757806326473a8f1461057557806328f3fc7314610590578063392f5f64146105b05780633a3db435146105e45780633ace96ec146106045780634320d4dd14610624578063447d52ba1461063a578063459ba1271461065a57806349d4f22e1461067a5780634a7a7f411461069a5780634d9d01b2146106bc5780634df87c09146106d1578063525e8269146106f15780636caa9c11146107115780636fecdf2414610731578063709bb7b614610796578063719e99b0146107c357806371b3177a146107d95780637268d1c0146107f95780637a1a04df146108195780637b2c9279146108545780637dad209b146108695780637dbf0b7c1461087e5780638496e8911461089e57806388a382a7146108d957806389f117b3146109065780638a31b98f146109265780639470505f146109465780639b0f09ae14610966578063a4d77f9014610982578063a50233c9146109b7578063a51c8fab146109d7578063abcbc4fc146109f9578063ad89b79414610a19578063aeb38d8b14610a2e578063b06ea8f014610a4e578063b23d66c214610a64578063b832799314610aa9578063bf184ea414610ac9578063c17dfa6114610ae9578063c5c72dc314610aff578063c6ec154814610b1f578063d0d9ab5914610b4d578063d0e1b89714610b62578063d241c9c014610b82578063d2d719d614610ba2578063d7fb7b3114610bb8578063d9cb512c14610bce578063dc94cb7d14610be3578063e173ad2514610bf8578063e22d284514610c2c578063e2e730f614610c95578063e8ea4fae14610cb5578063e9c3f77d14610cca578063f725ed1014610d00578063f7c618c114610d20578063f8903fb714610d54578063f8d6a05d14610d74578063fa98a4ba14610d94578063fabee7db14610db4578063fac82e8c14610dd4578063fd80d0c314610df4578063fe65a5b414610e145761036d565b3661036d57005b005b34801561037b57600080fd5b5061038f61038a366004614042565b610e34565b6040519081526020015b60405180910390f35b3480156103ae57600080fd5b5061038f6103bd366004613dfd565b610e59565b3480156103ce57600080fd5b5061038f610e63565b3480156103e357600080fd5b5061036d6103f2366004614012565b610e74565b34801561040357600080fd5b5061038f610412366004613dfd565b610f3a565b34801561042357600080fd5b5061036d610432366004613f17565b610f58565b34801561044357600080fd5b5061038f601a5481565b34801561045957600080fd5b5061046d610468366004613dfd565b610fe1565b604051610399919061455b565b34801561048657600080fd5b5061036d610495366004614042565b6110d8565b3480156104a657600080fd5b5061038f6104b5366004614012565b50600090565b3480156104c757600080fd5b5061036d6104d6366004613e6d565b611182565b3480156104e757600080fd5b506104f061123f565b6040516103999190614355565b34801561050957600080fd5b506009546105179060ff1681565b6040519015158152602001610399565b34801561053357600080fd5b50610568610542366004613e35565b60066020908152600092835260408084209091529082529020546001600160a01b031681565b604051610399919061429e565b34801561058157600080fd5b5061038f6104b5366004613dfd565b34801561059c57600080fd5b5061036d6105ab366004613e35565b611311565b3480156105bc57600080fd5b506105687f000000000000000000000000000000000000000000000000000000000000000081565b3480156105f057600080fd5b5061036d6105ff366004614012565b611404565b34801561061057600080fd5b5061036d61061f366004613e6d565b61149e565b34801561063057600080fd5b5061038f60145481565b34801561064657600080fd5b5061036d610655366004614042565b611569565b34801561066657600080fd5b5061036d6106753660046140e3565b61163f565b34801561068657600080fd5b5061036d610695366004613f17565b6116b8565b3480156106a657600080fd5b506106af61173b565b6040516103999190614398565b3480156106c857600080fd5b5061038f611793565b3480156106dd57600080fd5b506105176106ec366004613dfd565b61179f565b3480156106fd57600080fd5b5061036d61070c366004613dfd565b6117b2565b34801561071d57600080fd5b5061038f61072c366004614012565b6118bc565b34801561073d57600080fd5b5061077661074c366004613dfd565b60126020526000908152604090206001810154600282015460038301546004909301549192909184565b604080519485526020850193909352918301526060820152608001610399565b3480156107a257600080fd5b5061038f6107b1366004613dfd565b60166020526000908152604090205481565b3480156107cf57600080fd5b5061038f60175481565b3480156107e557600080fd5b5061036d6107f4366004614160565b6118dd565b34801561080557600080fd5b5061038f610814366004614012565b6119b6565b34801561082557600080fd5b50610517610834366004613eec565b600160209081526000928352604080842090915290825290205460ff1681565b34801561086057600080fd5b506105686119dc565b34801561087557600080fd5b506106af6119e6565b34801561088a57600080fd5b5061036d61089936600461411c565b611a3c565b3480156108aa57600080fd5b506108be6108b936600461409c565b611d0b565b60408051938452602084019290925290820152606001610399565b3480156108e557600080fd5b5061038f6108f4366004613dfd565b60136020526000908152604090205481565b34801561091257600080fd5b5061036d610921366004613dfd565b611e26565b34801561093257600080fd5b5061038f610941366004613dfd565b611e9f565b34801561095257600080fd5b5061038f610961366004613dfd565b61203d565b34801561097257600080fd5b50600060405161039991906143eb565b34801561098e57600080fd5b506109a261099d366004614042565b61209f565b60408051928352602083019190915201610399565b3480156109c357600080fd5b5061036d6109d2366004613fa9565b6120c8565b3480156109e357600080fd5b506109ec612189565b6040516103999190614308565b348015610a0557600080fd5b5061038f610a14366004614012565b612195565b348015610a2557600080fd5b506104f06121a5565b348015610a3a57600080fd5b5061038f610a49366004614012565b612270565b348015610a5a57600080fd5b5061038f60115481565b348015610a7057600080fd5b50610a84610a7f36600461409c565b612280565b604080516001600160a01b039094168452602084019290925290820152606001610399565b348015610ab557600080fd5b5061036d610ac4366004613f58565b612393565b348015610ad557600080fd5b5061038f610ae4366004614012565b61244c565b348015610af557600080fd5b5061038f60155481565b348015610b0b57600080fd5b5061038f610b1a366004614012565b61245c565b348015610b2b57600080fd5b50610b3f610b3a366004613dfd565b61246e565b6040516103999291906143d0565b348015610b5957600080fd5b506109ec612494565b348015610b6e57600080fd5b5061036d610b7d366004614012565b6124a0565b348015610b8e57600080fd5b50610568610b9d366004614012565b612531565b348015610bae57600080fd5b5061038f60195481565b348015610bc457600080fd5b5061038f60185481565b348015610bda57600080fd5b506109ec61262b565b348015610bef57600080fd5b506106af612637565b348015610c0457600080fd5b5061038f7f000000000000000000000000000000000000000000000000000000000000000081565b348015610c3857600080fd5b50610c71610c47366004614012565b6010602052600090815260409020805460018201546002909201549091906001600160a01b031683565b6040805193845260208401929092526001600160a01b031690820152606001610399565b348015610ca157600080fd5b5061038f610cb0366004613dfd565b61268d565b348015610cc157600080fd5b506106af6126ab565b348015610cd657600080fd5b50610568610ce5366004614012565b6000602081905290815260409020546001600160a01b031681565b348015610d0c57600080fd5b50610568610d1b366004613dfd565b503090565b348015610d2c57600080fd5b506105687f000000000000000000000000000000000000000000000000000000000000000081565b348015610d6057600080fd5b5061038f610d6f366004614066565b612701565b348015610d8057600080fd5b5061038f610d8f366004613dfd565b6127f4565b348015610da057600080fd5b506108be610daf366004614066565b612812565b348015610dc057600080fd5b50610568610dcf366004614012565b61284d565b348015610de057600080fd5b5061036d610def366004613dfd565b61286b565b348015610e0057600080fd5b5061038f610e0f366004614042565b612a2f565b348015610e2057600080fd5b5061036d610e2f366004614012565b612a73565b6000610e51610e428461284d565b610e4b8561245c565b84612b0b565b509392505050565b620f42405b919050565b6000610e6f600c612c50565b905090565b60405163b4ed0b6d60e01b8152600481018290527f00000000000000000000000000000000000000000000000000000000000000006001600160a01b03169063b4ed0b6d9060240160206040518083038186803b158015610ed457600080fd5b505afa158015610ee8573d6000803e3d6000fd5b505050506040513d601f19601f82011682018060405250810190610f0c9190613e19565b60009182526020829052604090912080546001600160a01b0319166001600160a01b03909216919091179055565b6001600160a01b031660009081526012602052604090206004015490565b33610f61612c5a565b6001600160a01b03161480610f85575033610f7a612ced565b6001600160a01b0316145b610faa5760405162461bcd60e51b8152600401610fa19061440c565b60405180910390fd5b6001600160a01b038116610fd05760405162461bcd60e51b8152600401610fa1906144b9565b610fdb818484612d5e565b50505050565b610fe9613d68565b60008061100684670de0b6b3a7640000611001612da1565b612b0b565b91509150604051806101800160405280306001600160a01b03168152602001856001600160a01b0316815260200161103d86610f3a565b815260200160126000876001600160a01b03166001600160a01b031681526020019081526020016000206002015481526020018281526020018381526020017f000000000000000000000000000000000000000000000000000000000000000081526020016110ab8661268d565b81526020016110b98661203d565b8152602001600081526000602082015230604090910152949350505050565b336110e1612c5a565b6001600160a01b031614806111055750336110fa612ced565b6001600160a01b0316145b6111215760405162461bcd60e51b8152600401610fa19061440c565b6001600160a01b0381166111475760405162461bcd60e51b8152600401610fa1906144b9565b6040516001600160a01b0382169083156108fc029084906000818181858888f1935050505015801561117d573d6000803e3d6000fd5b505050565b3361118b612c5a565b6001600160a01b031614806111af5750336111a4612ced565b6001600160a01b0316145b806111be57506111be33612dd9565b61121a5760405162461bcd60e51b8152602060048201526039602482015260008051602061468c833981519152604482015278391037b91030baba3437b934bd32b21030b1ba34bb30ba37b960391b6064820152608401610fa1565b611225838383612e7c565b610fdb83670de0b6b3a764000061123a612da1565b612ecf565b6060600061124d600a612c50565b90506000816001600160401b0381111561127757634e487b7160e01b600052604160045260246000fd5b6040519080825280602002602001820160405280156112b057816020015b61129d613d68565b8152602001906001900390816112955790505b50905060005b8083111561130a576112cc610468600a83612f6a565b8282815181106112ec57634e487b7160e01b600052603260045260246000fd5b60200260200101819052508080611302906145f8565b9150506112b6565b5091505090565b6001600160a01b0382811660009081526006602090815260408083208585168452909152902054161561140057611346612f76565b6001600160a01b0316635e73a03483836040518363ffffffff1660e01b81526004016113739291906142b2565b60206040518083038186803b15801561138b57600080fd5b505afa15801561139f573d6000803e3d6000fd5b505050506040513d601f19601f820116820180604052508101906113c39190613e19565b6001600160a01b0383811660009081526006602090815260408083208685168452909152902080546001600160a01b031916929091169190911790555b5050565b3361140d612c5a565b6001600160a01b03161480611431575033611426612ced565b6001600160a01b0316145b61144d5760405162461bcd60e51b8152600401610fa19061440c565b601181905560408051818152600d918101919091526c61706620736d6f6f7468696e6760981b60608201526020810182905260008051602061466c833981519152906080015b60405180910390a150565b336114a7612c5a565b6001600160a01b031614806114cb5750336114c0612ced565b6001600160a01b0316145b6114e75760405162461bcd60e51b8152600401610fa19061440c565b6114f2600a84612fae565b506114fe600c84612fc3565b50611507612fd8565b6001600160a01b03166311848c45306040518263ffffffff1660e01b8152600401611532919061429e565b600060405180830381600087803b15801561154c57600080fd5b505af1158015611560573d6000803e3d6000fd5b50505050505050565b60405163f0723d9760e01b81526001600160a01b037f0000000000000000000000000000000000000000000000000000000000000000169063f0723d97906115b790849086906004016142cc565b60206040518083038186803b1580156115cf57600080fd5b505afa1580156115e3573d6000803e3d6000fd5b505050506040513d601f19601f820116820180604052508101906116079190613ff2565b6001600160a01b0391909116600090815260016020908152604080832094835293905291909120805460ff1916911515919091179055565b600260085414156116625760405162461bcd60e51b8152600401610fa1906144ed565b600260085561167085612531565b6001600160a01b0316336001600160a01b0316146116a05760405162461bcd60e51b8152600401610fa190614486565b6116ac84868584613010565b50506001600855505050565b336116c1612c5a565b6001600160a01b031614806116e55750336116da612ced565b6001600160a01b0316145b6117015760405162461bcd60e51b8152600401610fa19061440c565b6001600160a01b0381166117275760405162461bcd60e51b8152600401610fa1906144b9565b61117d6001600160a01b0384168284613060565b6060600380548060200260200160405190810160405280929190818152602001828054801561178957602002820191906000526020600020905b815481526020019060010190808311611775575b5050505050905090565b6000610e6f600a612c50565b60006117ac600a836130b6565b92915050565b6040516370a0823160e01b81526000906001600160a01b037f000000000000000000000000000000000000000000000000000000000000000016906370a082319061180190309060040161429e565b60206040518083038186803b15801561181957600080fd5b505afa15801561182d573d6000803e3d6000fd5b505050506040513d601f19601f82011682018060405250810190611851919061402a565b905060006015548261186391906145b5565b9050801561117d576001600160a01b0383166000908152601360205260408120805483929061189390849061456a565b90915550506015829055601480548291906000906118b290849061456a565b9091555050505050565b600581815481106118cc57600080fd5b600091825260209091200154905081565b60095460ff166118ff5760405162461bcd60e51b8152600401610fa190614456565b600260085414156119225760405162461bcd60e51b8152600401610fa1906144ed565b6002600855611930336130cb565b6119795760405162461bcd60e51b815260206004820152601a6024820152794e6f7420617574686f72697a656420746f20776974686472617760301b6044820152606401610fa1565b6001600160a01b03811661199f5760405162461bcd60e51b8152600401610fa1906144b9565b6119ab848484846130f4565b505060016008555050565b60006119d56119c48361284d565b6119cd8461245c565b6110016119dc565b9392505050565b6000610e6f612da1565b606060048054806020026020016040519081016040528092919081815260200182805480156117895760200282019190600052602060002090815481526020019060010190808311611775575050505050905090565b60026008541415611a5f5760405162461bcd60e51b8152600401610fa1906144ed565b60026008819055506000611a75836015546131b1565b905060008111611ac75760405162461bcd60e51b815260206004820152601f60248201527f4e6f2063757272656e746c7920636f6e7665727469626c6520726577617264006044820152606401610fa1565b6000611af67f00000000000000000000000000000000000000000000000000000000000000008561123a6119dc565b905060185481611b069190614596565b611b1284612710614596565b1015611b535760405162461bcd60e51b815260206004820152601060248201526f125b9cdd59999a58da595b9d08189a5960821b6044820152606401610fa1565b600084611b608585614596565b611b6a9190614582565b9050611b746119dc565b6001600160a01b0316639dc29fac33836040518363ffffffff1660e01b8152600401611ba19291906142cc565b600060405180830381600087803b158015611bbb57600080fd5b505af1158015611bcf573d6000803e3d6000fd5b50505050600061271082601954611be69190614596565b611bf09190614582565b9050611bfa6119dc565b6001600160a01b03166340c10f19611c106131c9565b836040518363ffffffff1660e01b8152600401611c2e9291906142cc565b600060405180830381600087803b158015611c4857600080fd5b505af1158015611c5c573d6000803e3d6000fd5b5050505080601a6000828254611c72919061456a565b909155505060195461271090611c8890826145b5565b611c929084614596565b611c9c9190614582565b60176000828254611cad919061456a565b90915550611ce790506001600160a01b037f0000000000000000000000000000000000000000000000000000000000000000163386613060565b8360156000828254611cf991906145b5565b90915550506001600855505050505050565b600080600060026008541415611d335760405162461bcd60e51b8152600401610fa1906144ed565b6002600855611d41336130cb565b80611dcd5750611d5087612531565b6001600160a01b0316632972b0f033896040518363ffffffff1660e01b8152600401611d7d9291906142cc565b60206040518083038186803b158015611d9557600080fd5b505afa158015611da9573d6000803e3d6000fd5b505050506040513d601f19601f82011682018060405250810190611dcd9190613ff2565b611de95760405162461bcd60e51b8152600401610fa190614524565b611df4878786613201565b9250611e11611e028861284d565b611e0b8961245c565b8761334c565b60016008559398909750929550919350505050565b60026008541415611e495760405162461bcd60e51b8152600401610fa1906144ed565b6002600855611e8e611e59612c5a565b6001600160a01b037f0000000000000000000000000000000000000000000000000000000000000000169030620f42406133bb565b611e97816117b2565b506001600855565b6000611eaa8261203d565b6001600160a01b0383166000908152601260205260408120805492935091611ed3576000611f0d565b81548290611ee3906001906145b5565b81548110611f0157634e487b7160e01b600052603260045260246000fd5b90600052602060002001545b600183015490915015611f63576001820154600090611f30600160401b86614596565b611f3a9190614582565b905082611f47828461456a565b8154600181018355600092835260209092209091015550611ffe565b815460018101835560008381526020902001819055611f806119dc565b6001600160a01b03166340c10f19611f966131c9565b856040518363ffffffff1660e01b8152600401611fb49291906142cc565b600060405180830381600087803b158015611fce57600080fd5b505af1158015611fe2573d6000803e3d6000fd5b5050505082601a6000828254611ff8919061456a565b90915550505b600282015460018301556001600160a01b0384166000908152601660205260408120805485929061203090849061456a565b9091555092949350505050565b60145460009015612097576001600160a01b038216600090815260166020908152604080832054601454601390935292205460175461207c9190614596565b6120869190614582565b61209091906145b5565b9050610e5e565b506000610e5e565b6000806120bd6120ae8561284d565b6120b78661245c565b85612b0b565b915091509250929050565b60095460ff166120ea5760405162461bcd60e51b8152600401610fa190614456565b6002600854141561210d5760405162461bcd60e51b8152600401610fa1906144ed565b600260085561211b336130cb565b6121755760405162461bcd60e51b815260206004820152602560248201527f4e6f7420617574686f72697a656420746f207472616e7366657220757365722060448201526466756e647360d81b6064820152608401610fa1565b6119ab8484846121836119dc565b856133f3565b6060610e6f600a61348c565b600281815481106118cc57600080fd5b606060006121b3600c612c50565b90506000816001600160401b038111156121dd57634e487b7160e01b600052604160045260246000fd5b60405190808252806020026020018201604052801561221657816020015b612203613d68565b8152602001906001900390816121fb5790505b50905060005b8083111561130a57612232610468600c83612f6a565b82828151811061225257634e487b7160e01b600052603260045260246000fd5b60200260200101819052508080612268906145f8565b91505061221c565b600481815481106118cc57600080fd5b6009546000908190819060ff166122a95760405162461bcd60e51b8152600401610fa190614456565b6122b287612531565b6001600160a01b0316336001600160a01b0316146122e25760405162461bcd60e51b8152600401610fa190614486565b60006122ed8861284d565b905060006122fa8961245c565b9050612307898888613201565b506000612315308484612d5e565b905061232b6001600160a01b0384168a83613499565b6001600160a01b038316600090815260126020526040812060020180548392906123569084906145b5565b90915550506000998a52601060205260408a208a8155600181018b905560020180546001600160a01b031916905591999197509095505050505050565b60095460ff166123b55760405162461bcd60e51b8152600401610fa190614456565b600260085414156123d85760405162461bcd60e51b8152600401610fa1906144ed565b60026008556123e6336130cb565b80156124025750336123f785612531565b6001600160a01b0316145b6124405760405162461bcd60e51b815260206004820152600f60248201526e496e76616c6964207472616e63686560881b6044820152606401610fa1565b6116ac85858584613010565b600381815481106118cc57600080fd5b60009081526010602052604090205490565b6000606061247b8361179f565b6040518060200160405280600081525091509150915091565b6060610e6f600c61348c565b336124a9612c5a565b6001600160a01b031614806124cd5750336124c2612ced565b6001600160a01b0316145b6124e95760405162461bcd60e51b8152600401610fa19061440c565b601881905560408051818152600b918101919091526a135a5b9a5b5d5b48189a5960aa1b60608201526020810182905260008051602061466c83398151915290608001611493565b60008061255e7f000000000000000000000000000000000000000000000000000000000000000084614613565b6000818152600760205260409020549091506001600160a01b0316806119d557606960009081526020527f366a7b92acda364086cc991f618bf9f10b629ec0f7ae94543f96b691b69ec9925460405163043b4d2f60e51b8152600481018490526001600160a01b0390911690638769a5e09060240160206040518083038186803b1580156125eb57600080fd5b505afa1580156125ff573d6000803e3d6000fd5b505050506040513d601f19601f820116820180604052508101906126239190613e19565b949350505050565b6060610e6f600e61348c565b606060028054806020026020016040519081016040528092919081815260200182805480156117895760200282019190600052602060002090815481526020019060010190808311611775575050505050905090565b6001600160a01b031660009081526012602052604090206002015490565b606060058054806020026020016040519081016040528092919081815260200182805480156117895760200282019190600052602060002090815481526020019060010190808311611775575050505050905090565b6000600260085414156127265760405162461bcd60e51b8152600401610fa1906144ed565b6002600855612734336130cb565b806127c0575061274384612531565b6001600160a01b0316632972b0f033866040518363ffffffff1660e01b81526004016127709291906142cc565b60206040518083038186803b15801561278857600080fd5b505afa15801561279c573d6000803e3d6000fd5b505050506040513d601f19601f820116820180604052508101906127c09190613ff2565b6127dc5760405162461bcd60e51b8152600401610fa190614524565b6127e7848484613201565b6001600855949350505050565b60006127ff82610e59565b6128088361203d565b6117ac919061456a565b60008060006128218686612a2f565b925061283e61282f8761284d565b6128388861245c565b86612b0b565b93979096509294509192505050565b6000908152601060205260409020600201546001600160a01b031690565b60095460ff1661288d5760405162461bcd60e51b8152600401610fa190614456565b33612896612c5a565b6001600160a01b031614806128ba5750336128af612ced565b6001600160a01b0316145b806128d45750336128c9613545565b6001600160a01b0316145b61292f5760405162461bcd60e51b8152602060048201526038602482015260008051602061468c833981519152604482015277391037b91030baba3437b934bd32b2103234b9b0b13632b960411b6064820152608401610fa1565b6129376135a9565b5060005b80612946600e612c50565b1115612a21576000612959600e83612f6a565b905060006129668261268d565b90506000612972612fd8565b905061297f818484612d5e565b506129956001600160a01b0384168260006135fa565b6129ab6001600160a01b038416826000196135fa565b60405163269974d160e21b81526001600160a01b03821690639a65d344906129d990889087906004016142b2565b600060405180830381600087803b1580156129f357600080fd5b505af1158015612a07573d6000803e3d6000fd5b505050505050508080612a19906145f8565b91505061293b565b50506009805460ff19169055565b600082815260106020526040812061262381601284612a4d8861284d565b6001600160a01b03166001600160a01b031681526020019081526020016000208561370c565b33612a7c612c5a565b6001600160a01b03161480612aa0575033612a95612ced565b6001600160a01b0316145b612abc5760405162461bcd60e51b8152600401610fa19061440c565b6019819055604080518181526012918101919091527150726f746f636f6c207969656c642066656560701b60608201526020810182905260008051602061466c83398151915290608001611493565b6001600160a01b0380841660009081526006602090815260408083208585168452909152812054909182911680612bc457612b44612f76565b6001600160a01b0316635e73a03487866040518363ffffffff1660e01b8152600401612b719291906142b2565b60206040518083038186803b158015612b8957600080fd5b505afa158015612b9d573d6000803e3d6000fd5b505050506040513d601f19601f82011682018060405250810190612bc19190613e19565b90505b6040516313f3552960e21b81526001600160a01b03821690634fcd54a490612bf4908990899089906004016142e5565b604080518083038186803b158015612c0b57600080fd5b505afa158015612c1f573d6000803e3d6000fd5b505050506040513d601f19601f82011682018060405250810190612c43919061413d565b9097909650945050505050565b60006117ac825490565b60007f00000000000000000000000000000000000000000000000000000000000000006001600160a01b0316638da5cb5b6040518163ffffffff1660e01b815260040160206040518083038186803b158015612cb557600080fd5b505afa158015612cc9573d6000803e3d6000fd5b505050506040513d601f19601f82011682018060405250810190610e6f9190613e19565b60007f00000000000000000000000000000000000000000000000000000000000000006001600160a01b031663c34c08e56040518163ffffffff1660e01b8152600401602060405180830381600087803b158015612d4a57600080fd5b505af1158015612cc9573d6000803e3d6000fd5b60006001600160a01b038416612d865760405162461bcd60e51b8152600401610fa1906144b9565b612d9a6001600160a01b0384168584613060565b5092915050565b606660009081526020527f422cccb7cea5c0e46f340bb7b21b81debac329f72e31669c20ff0f3a05cc2b5b546001600160a01b031690565b60405163f0723d9760e01b81526000906001600160a01b037f0000000000000000000000000000000000000000000000000000000000000000169063f0723d9790612e2c9085906103eb906004016142cc565b60206040518083038186803b158015612e4457600080fd5b505afa158015612e58573d6000803e3d6000fd5b505050506040513d601f19601f820116820180604052508101906117ac9190613ff2565b612e87600a84612fc3565b50612e93600c84612fae565b50612e9f600e84612fc3565b506001600160a01b0383166000908152601260205260409020612710600482015542600390910155611507612fd8565b600080612edc8584613826565b604051630576cbc360e41b81529091506001600160a01b0382169063576cbc3090612f0f908890889088906004016142e5565b602060405180830381600087803b158015612f2957600080fd5b505af1158015612f3d573d6000803e3d6000fd5b505050506040513d601f19601f82011682018060405250810190612f61919061402a565b95945050505050565b60006119d583836138da565b606a60009081526020527ff3261457f4fd0b7c00a1511877ab27b74183ac470be8db3a7ecdc64335f6f979546001600160a01b031690565b60006119d5836001600160a01b038416613912565b60006119d5836001600160a01b038416613a2f565b606860009081526020527faa071f48f62aaaa1f6320aaa7bd2ad2d552d05160892c14d699d38c9920d5f99546001600160a01b031690565b6001600160a01b0382166000908152601260209081526040808320805487855260109093529220600101556130458484613a79565b6130598585846130536119dc565b896133f3565b5050505050565b61117d8363a9059cbb60e01b848460405160240161307f9291906142cc565b60408051601f198184030181529190526020810180516001600160e01b03166001600160e01b031990931692909217909152613af9565b60006119d5836001600160a01b038416613bcb565b6001600160a01b0316600090815260016020818152604080842092845291905290205460ff1690565b60008481526010602052604081209061310c8661284d565b9050613119868585613201565b5061312c856131278861245c565b6131b1565b9450613139838287612d5e565b508482600001600082825461314e91906145b5565b90915550506001600160a01b0381166000908152601260205260408120600281018054919288926131809084906145b5565b90915550506001830154815411156131ac57858160010160008282546131a691906145b5565b90915550505b611560565b6000818311156131c25750806117ac565b50816117ac565b606760009081526020527f682158d08466d11c566d5712d4396197fdd67e65be71d83c97ef719ec468867b546001600160a01b031690565b60006001600160a01b0382166132295760405162461bcd60e51b8152600401610fa1906144b9565b6132316119dc565b6001600160a01b0316836001600160a01b0316146132915760405162461bcd60e51b815260206004820181905260248201527f4f6e6c7920757365206f6666696369616c207969656c642063757272656e63796044820152606401610fa1565b6000848152601060205260408120906012816132ac8861284d565b6001600160a01b03168152602081019190915260400160002082549091501561333e576132da82828761370c565b6040516340c10f1960e01b81529093506001600160a01b038616906340c10f199061330b90879087906004016142cc565b600060405180830381600087803b15801561332557600080fd5b505af1158015613339573d6000803e3d6000fd5b505050505b546001909101559392505050565b600080600061335b8685613826565b60405163442fd02b60e11b81529091506001600160a01b0382169063885fa0569061338e908990899089906004016142e5565b6040805180830381600087803b1580156133a757600080fd5b505af1158015612c1f573d6000803e3d6000fd5b6040516001600160a01b0380851660248301528316604482015260648101829052610fdb9085906323b872dd60e01b9060840161307f565b60006133fe8561284d565b905061340b858484613201565b50613417868286613be3565b600085815260106020526040902054613430858261456a565b6000878152601060209081526040808320939093556001600160a01b0385168252601290529081206002810180549192889261346d90849061456a565b909155506134829050878461117d898661456a565b5050505050505050565b606060006119d583613c01565b600081846001600160a01b031663dd62ed3e30866040518363ffffffff1660e01b81526004016134ca9291906142b2565b60206040518083038186803b1580156134e257600080fd5b505afa1580156134f6573d6000803e3d6000fd5b505050506040513d601f19601f8201168201806040525081019061351a919061402a565b613524919061456a565b9050610fdb8463095ea7b360e01b858460405160240161307f9291906142cc565b60405163b4ed0b6d60e01b81526103e960048201526000907f00000000000000000000000000000000000000000000000000000000000000006001600160a01b03169063b4ed0b6d9060240160206040518083038186803b158015612cb557600080fd5b6000805b806135b8600e612c50565b11156135f65760006135cb600e83612f6a565b90506135d681611e9f565b6135e0908461456a565b92505080806135ee906145f8565b9150506135ad565b5090565b8015806136825750604051636eb1769f60e11b81526001600160a01b0384169063dd62ed3e9061363090309086906004016142b2565b60206040518083038186803b15801561364857600080fd5b505afa15801561365c573d6000803e3d6000fd5b505050506040513d601f19601f82011682018060405250810190613680919061402a565b155b6136ed5760405162461bcd60e51b815260206004820152603660248201527f5361666545524332303a20617070726f76652066726f6d206e6f6e2d7a65726f60448201527520746f206e6f6e2d7a65726f20616c6c6f77616e636560501b6064820152608401610fa1565b61117d8363095ea7b360e01b848460405160240161307f9291906142cc565b60006137166119dc565b6001600160a01b0316826001600160a01b03161461376d5760405162461bcd60e51b815260206004820152601460248201527357726f6e67207969656c642063757272656e637960601b6044820152606401610fa1565b600184015483548491101561381c576000818660010154815481106137a257634e487b7160e01b600052603260045260246000fd5b906000526020600020015482600184805490506137bf91906145b5565b815481106137dd57634e487b7160e01b600052603260045260246000fd5b90600052602060002001546137f291906145b5565b9050600160401b8187600001546138099190614596565b6138139190614582565b925050506119d5565b60009150506119d5565b6001600160a01b038083166000908152600660209081526040808320858516845290915290205416806117ac5761385b612f76565b6001600160a01b0316631757616884846040518363ffffffff1660e01b81526004016138889291906142b2565b602060405180830381600087803b1580156138a257600080fd5b505af11580156138b6573d6000803e3d6000fd5b505050506040513d601f19601f820116820180604052508101906119d59190613e19565b60008260000182815481106138ff57634e487b7160e01b600052603260045260246000fd5b9060005260206000200154905092915050565b60008181526001830160205260408120548015613a255760006139366001836145b5565b855490915060009061394a906001906145b5565b90508181146139cb57600086600001828154811061397857634e487b7160e01b600052603260045260246000fd5b90600052602060002001549050808760000184815481106139a957634e487b7160e01b600052603260045260246000fd5b6000918252602080832090910192909255918252600188019052604090208390555b85548690806139ea57634e487b7160e01b600052603160045260246000fd5b6001900381819060005260206000200160009055905585600101600086815260200190815260200160002060009055600193505050506117ac565b60009150506117ac565b6000613a3b8383613bcb565b613a71575081546001818101845560008481526020808220909301849055845484825282860190935260409020919091556117ac565b5060006117ac565b613a84600a826130b6565b613ac85760405162461bcd60e51b81526020600482015260156024820152742737ba1030b71030b8383937bb32b2103a37b5b2b760591b6044820152606401610fa1565b60009182526010602052604090912060020180546001600160a01b0319166001600160a01b03909216919091179055565b6000613b4e826040518060400160405280602081526020017f5361666545524332303a206c6f772d6c6576656c2063616c6c206661696c6564815250856001600160a01b0316613c5d9092919063ffffffff16565b80519091501561117d5780806020019051810190613b6c9190613ff2565b61117d5760405162461bcd60e51b815260206004820152602a60248201527f5361666545524332303a204552433230206f7065726174696f6e20646964206e6044820152691bdd081cdd58d8d9595960b21b6064820152608401610fa1565b60009081526001919091016020526040902054151590565b613bf86001600160a01b0383168430846133bb565b61117d826117b2565b606081600001805480602002602001604051908101604052809291908181526020018280548015613c5157602002820191906000526020600020905b815481526020019060010190808311613c3d575b50505050509050919050565b6060612623848460008585843b613cb65760405162461bcd60e51b815260206004820152601d60248201527f416464726573733a2063616c6c20746f206e6f6e2d636f6e74726163740000006044820152606401610fa1565b600080866001600160a01b03168587604051613cd29190614282565b60006040518083038185875af1925050503d8060008114613d0f576040519150601f19603f3d011682016040523d82523d6000602084013e613d14565b606091505b5091509150613d24828286613d2f565b979650505050505050565b60608315613d3e5750816119d5565b825115613d4e5782518084602001fd5b8160405162461bcd60e51b8152600401610fa191906143f9565b60405180610180016040528060006001600160a01b0316815260200160006001600160a01b031681526020016000815260200160008152602001600081526020016000815260200160008019168152602001600081526020016000815260200160006002811115613de957634e487b7160e01b600052602160045260246000fd5b815260006020820181905260409091015290565b600060208284031215613e0e578081fd5b81356119d581614653565b600060208284031215613e2a578081fd5b81516119d581614653565b60008060408385031215613e47578081fd5b8235613e5281614653565b91506020830135613e6281614653565b809150509250929050565b600080600060408486031215613e81578081fd5b8335613e8c81614653565b925060208401356001600160401b0380821115613ea7578283fd5b818601915086601f830112613eba578283fd5b813581811115613ec8578384fd5b876020828501011115613ed9578384fd5b6020830194508093505050509250925092565b60008060408385031215613efe578182fd5b8235613f0981614653565b946020939093013593505050565b600080600060608486031215613f2b578283fd5b8335613f3681614653565b9250602084013591506040840135613f4d81614653565b809150509250925092565b600080600080600060a08688031215613f6f578081fd5b8535613f7a81614653565b9450602086013593506040860135613f9181614653565b94979396509394606081013594506080013592915050565b60008060008060808587031215613fbe578384fd5b8435613fc981614653565b935060208501359250604085013591506060850135613fe781614653565b939692955090935050565b600060208284031215614003578081fd5b815180151581146119d5578182fd5b600060208284031215614023578081fd5b5035919050565b60006020828403121561403b578081fd5b5051919050565b60008060408385031215614054578182fd5b823591506020830135613e6281614653565b60008060006060848603121561407a578283fd5b83359250602084013561408c81614653565b91506040840135613f4d81614653565b600080600080608085870312156140b1578384fd5b8435935060208501356140c381614653565b925060408501356140d381614653565b91506060850135613fe781614653565b600080600080600060a086880312156140fa578283fd5b85359450602086013561410c81614653565b93506040860135613f9181614653565b6000806040838503121561412e578182fd5b50508035926020909101359150565b6000806040838503121561414f578182fd5b505080516020909101519092909150565b60008060008060808587031215614175578182fd5b843593506020850135925060408501356140d381614653565b6001600160a01b03169052565b600081518084526141b38160208601602086016145cc565b601f01601f19169290920160200192915050565b600381106141e557634e487b7160e01b600052602160045260246000fd5b9052565b6141f482825161418e565b6020810151614206602084018261418e565b5060408101516040830152606081015160608301526080810151608083015260a081015160a083015260c081015160c083015260e081015160e083015261010080820151818401525061012080820151614262828501826141c7565b5050610140818101519083015261016080820151610fdb8285018261418e565b600082516142948184602087016145cc565b9190910192915050565b6001600160a01b0391909116815260200190565b6001600160a01b0392831681529116602082015260400190565b6001600160a01b03929092168252602082015260400190565b6001600160a01b0393841681526020810192909252909116604082015260600190565b6020808252825182820181905260009190848201906040850190845b818110156143495783516001600160a01b031683529284019291840191600101614324565b50909695505050505050565b6020808252825182820181905260009190848201906040850190845b81811015614349576143848385516141e9565b928401926101809290920191600101614371565b6020808252825182820181905260009190848201906040850190845b81811015614349578351835292840192918401916001016143b4565b6000831515825260406020830152612623604083018461419b565b602081016117ac82846141c7565b6000602082526119d5602083018461419b565b6020808252602a908201527f526f6c65733a2063616c6c6572206973206e6f7420746865206f776e6572206f604082015269391032bc32b1baba37b960b11b606082015260800190565b6020808252601690820152755374726174656779206973206e6f742061637469766560501b604082015260600190565b6020808252601990820152784e6f7420617574686f72697a656420746f206d69677261746560381b604082015260600190565b6020808252601a9082015279446f6e27742073656e6420746f207a65726f206164647265737360301b604082015260600190565b6020808252601f908201527f5265656e7472616e637947756172643a207265656e7472616e742063616c6c00604082015260600190565b6020808252601f908201527f4e6f7420617574686f72697a656420746f20636f6c6c656374207969656c6400604082015260600190565b61018081016117ac82846141e9565b6000821982111561457d5761457d614627565b500190565b6000826145915761459161463d565b500490565b60008160001904831182151516156145b0576145b0614627565b500290565b6000828210156145c7576145c7614627565b500390565b60005b838110156145e75781810151838201526020016145cf565b83811115610fdb5750506000910152565b600060001982141561460c5761460c614627565b5060010190565b6000826146225761462261463d565b500690565b634e487b7160e01b600052601160045260246000fd5b634e487b7160e01b600052601260045260246000fd5b6001600160a01b038116811461466857600080fd5b5056fe3a64504f0bc0c335e2aecb78638a257e0351a3fe0370861fd54ee4190b92093343616c6c6572206973206e6f7420746865206f776e65722c206578656375746fa2646970667358221220942bc418e42af0143b7ac1959250b325d7e703912f18d8ce1fecd7bbe0d03dcd64736f6c63430008030033405787fa12a823e0f2b7631cc41b3ba8828b3321ca811111fa75cd3aa3bb5ace",
  "linkReferences": {},
  "deployedLinkReferences": {}
}