{
  "_format": "hh-sol-artifact-1",
  "contractName": "StableLending2",
  "sourceName": "contracts/StableLending2.sol",
  "abi": [
    {
      "inputs": [
        {
          "internalType": "address",
          "name": "_roles",
          "type": "address"
        }
      ],
      "stateMutability": "nonpayable",
      "type": "constructor"
    },
    {
      "anonymous": false,
      "inputs": [
        {
          "indexed": true,
          "internalType": "address",
          "name": "owner",
          "type": "address"
        },
        {
          "indexed": true,
          "internalType": "address",
          "name": "approved",
          "type": "address"
        },
        {
          "indexed": true,
          "internalType": "uint256",
          "name": "tokenId",
          "type": "uint256"
        }
      ],
      "name": "Approval",
      "type": "event"
    },
    {
      "anonymous": false,
      "inputs": [
        {
          "indexed": true,
          "internalType": "address",
          "name": "owner",
          "type": "address"
        },
        {
          "indexed": true,
          "internalType": "address",
          "name": "operator",
          "type": "address"
        },
        {
          "indexed": false,
          "internalType": "bool",
          "name": "approved",
          "type": "bool"
        }
      ],
      "name": "ApprovalForAll",
      "type": "event"
    },
    {
      "anonymous": false,
      "inputs": [
        {
          "indexed": false,
          "internalType": "string",
          "name": "param",
          "type": "string"
        },
        {
          "indexed": false,
          "internalType": "uint256",
          "name": "value",
          "type": "uint256"
        }
      ],
      "name": "ParameterUpdated",
      "type": "event"
    },
    {
      "anonymous": false,
      "inputs": [
        {
          "indexed": false,
          "internalType": "string",
          "name": "param",
          "type": "string"
        },
        {
          "indexed": false,
          "internalType": "address",
          "name": "subject",
          "type": "address"
        },
        {
          "indexed": false,
          "internalType": "uint256",
          "name": "value",
          "type": "uint256"
        }
      ],
      "name": "SubjectParameterUpdated",
      "type": "event"
    },
    {
      "anonymous": false,
      "inputs": [
        {
          "indexed": false,
          "internalType": "string",
          "name": "param",
          "type": "string"
        },
        {
          "indexed": false,
          "internalType": "address",
          "name": "subject",
          "type": "address"
        }
      ],
      "name": "SubjectUpdated",
      "type": "event"
    },
    {
      "anonymous": false,
      "inputs": [
        {
          "indexed": true,
          "internalType": "uint256",
          "name": "trancheId",
          "type": "uint256"
        }
      ],
      "name": "TrancheUpdated",
      "type": "event"
    },
    {
      "anonymous": false,
      "inputs": [
        {
          "indexed": true,
          "internalType": "address",
          "name": "from",
          "type": "address"
        },
        {
          "indexed": true,
          "internalType": "address",
          "name": "to",
          "type": "address"
        },
        {
          "indexed": true,
          "internalType": "uint256",
          "name": "tokenId",
          "type": "uint256"
        }
      ],
      "name": "Transfer",
      "type": "event"
    },
    {
      "inputs": [
        {
          "internalType": "uint256",
          "name": "",
          "type": "uint256"
        }
      ],
      "name": "_charactersPlayed",
      "outputs": [
        {
          "internalType": "uint256",
          "name": "",
          "type": "uint256"
        }
      ],
      "stateMutability": "view",
      "type": "function"
    },
    {
      "inputs": [
        {
          "internalType": "uint256",
          "name": "",
          "type": "uint256"
        }
      ],
      "name": "_containedIn",
      "outputs": [
        {
          "internalType": "uint256",
          "name": "",
          "type": "uint256"
        }
      ],
      "stateMutability": "view",
      "type": "function"
    },
    {
      "inputs": [
        {
          "internalType": "uint256",
          "name": "",
          "type": "uint256"
        }
      ],
      "name": "_dependsOnCharacters",
      "outputs": [
        {
          "internalType": "uint256",
          "name": "",
          "type": "uint256"
        }
      ],
      "stateMutability": "view",
      "type": "function"
    },
    {
      "inputs": [
        {
          "internalType": "uint256",
          "name": "",
          "type": "uint256"
        }
      ],
      "name": "_dependsOnRoles",
      "outputs": [
        {
          "internalType": "uint256",
          "name": "",
          "type": "uint256"
        }
      ],
      "stateMutability": "view",
      "type": "function"
    },
    {
      "inputs": [
        {
          "internalType": "uint256",
          "name": "",
          "type": "uint256"
        }
      ],
      "name": "_holdingStrategies",
      "outputs": [
        {
          "internalType": "address",
          "name": "",
          "type": "address"
        }
      ],
      "stateMutability": "view",
      "type": "function"
    },
    {
      "inputs": [
        {
          "internalType": "address",
          "name": "",
          "type": "address"
        },
        {
          "internalType": "address",
          "name": "",
          "type": "address"
        }
      ],
      "name": "_oracleCache",
      "outputs": [
        {
          "internalType": "address",
          "name": "",
          "type": "address"
        }
      ],
      "stateMutability": "view",
      "type": "function"
    },
    {
      "inputs": [
        {
          "internalType": "uint256",
          "name": "",
          "type": "uint256"
        }
      ],
      "name": "_rolesPlayed",
      "outputs": [
        {
          "internalType": "uint256",
          "name": "",
          "type": "uint256"
        }
      ],
      "stateMutability": "view",
      "type": "function"
    },
    {
      "inputs": [
        {
          "internalType": "uint256",
          "name": "",
          "type": "uint256"
        }
      ],
      "name": "_trancheDebt",
      "outputs": [
        {
          "internalType": "uint256",
          "name": "",
          "type": "uint256"
        }
      ],
      "stateMutability": "view",
      "type": "function"
    },
    {
      "inputs": [
        {
          "internalType": "address",
          "name": "to",
          "type": "address"
        },
        {
          "internalType": "uint256",
          "name": "tokenId",
          "type": "uint256"
        }
      ],
      "name": "approve",
      "outputs": [],
      "stateMutability": "nonpayable",
      "type": "function"
    },
    {
      "inputs": [
        {
          "internalType": "address",
          "name": "",
          "type": "address"
        }
      ],
      "name": "assetConfigs",
      "outputs": [
        {
          "internalType": "uint256",
          "name": "debtCeiling",
          "type": "uint256"
        },
        {
          "internalType": "uint256",
          "name": "feePer10k",
          "type": "uint256"
        },
        {
          "internalType": "uint256",
          "name": "totalDebt",
          "type": "uint256"
        }
      ],
      "stateMutability": "view",
      "type": "function"
    },
    {
      "inputs": [
        {
          "internalType": "address",
          "name": "owner",
          "type": "address"
        }
      ],
      "name": "balanceOf",
      "outputs": [
        {
          "internalType": "uint256",
          "name": "",
          "type": "uint256"
        }
      ],
      "stateMutability": "view",
      "type": "function"
    },
    {
      "inputs": [
        {
          "internalType": "uint256[]",
          "name": "trancheIds",
          "type": "uint256[]"
        },
        {
          "internalType": "address",
          "name": "currency",
          "type": "address"
        },
        {
          "internalType": "address",
          "name": "recipient",
          "type": "address"
        }
      ],
      "name": "batchCollectYield",
      "outputs": [
        {
          "internalType": "uint256",
          "name": "",
          "type": "uint256"
        }
      ],
      "stateMutability": "nonpayable",
      "type": "function"
    },
    {
      "inputs": [
        {
          "internalType": "uint256[]",
          "name": "trancheIds",
          "type": "uint256[]"
        },
        {
          "internalType": "address",
          "name": "yieldCurrency",
          "type": "address"
        },
        {
          "internalType": "address",
          "name": "valueCurrency",
          "type": "address"
        },
        {
          "internalType": "address",
          "name": "recipient",
          "type": "address"
        }
      ],
      "name": "batchCollectYieldValueBorrowable",
      "outputs": [
        {
          "internalType": "uint256",
          "name": "yield",
          "type": "uint256"
        },
        {
          "internalType": "uint256",
          "name": "value",
          "type": "uint256"
        },
        {
          "internalType": "uint256",
          "name": "borrowablePer10k",
          "type": "uint256"
        }
      ],
      "stateMutability": "nonpayable",
      "type": "function"
    },
    {
      "inputs": [
        {
          "internalType": "uint256[]",
          "name": "trancheIds",
          "type": "uint256[]"
        },
        {
          "internalType": "address",
          "name": "currency",
          "type": "address"
        }
      ],
      "name": "batchViewValueBorrowable",
      "outputs": [
        {
          "internalType": "uint256",
          "name": "",
          "type": "uint256"
        },
        {
          "internalType": "uint256",
          "name": "",
          "type": "uint256"
        }
      ],
      "stateMutability": "view",
      "type": "function"
    },
    {
      "inputs": [
        {
          "internalType": "uint256[]",
          "name": "trancheIds",
          "type": "uint256[]"
        },
        {
          "internalType": "address",
          "name": "currency",
          "type": "address"
        }
      ],
      "name": "batchViewYield",
      "outputs": [
        {
          "internalType": "uint256",
          "name": "",
          "type": "uint256"
        }
      ],
      "stateMutability": "view",
      "type": "function"
    },
    {
      "inputs": [],
      "name": "charactersPlayed",
      "outputs": [
        {
          "internalType": "uint256[]",
          "name": "",
          "type": "uint256[]"
        }
      ],
      "stateMutability": "view",
      "type": "function"
    },
    {
      "inputs": [
        {
          "internalType": "uint256",
          "name": "trancheId",
          "type": "uint256"
        },
        {
          "internalType": "address",
          "name": "currency",
          "type": "address"
        },
        {
          "internalType": "address",
          "name": "recipient",
          "type": "address"
        }
      ],
      "name": "collectYield",
      "outputs": [
        {
          "internalType": "uint256",
          "name": "",
          "type": "uint256"
        }
      ],
      "stateMutability": "nonpayable",
      "type": "function"
    },
    {
      "inputs": [
        {
          "internalType": "uint256",
          "name": "trancheId",
          "type": "uint256"
        },
        {
          "internalType": "address",
          "name": "yieldCurrency",
          "type": "address"
        },
        {
          "internalType": "address",
          "name": "valueCurrency",
          "type": "address"
        },
        {
          "internalType": "address",
          "name": "recipient",
          "type": "address"
        }
      ],
      "name": "collectYieldValueBorrowable",
      "outputs": [
        {
          "internalType": "uint256",
          "name": "",
          "type": "uint256"
        },
        {
          "internalType": "uint256",
          "name": "",
          "type": "uint256"
        },
        {
          "internalType": "uint256",
          "name": "",
          "type": "uint256"
        }
      ],
      "stateMutability": "nonpayable",
      "type": "function"
    },
    {
      "inputs": [],
      "name": "compoundLastUpdated",
      "outputs": [
        {
          "internalType": "uint256",
          "name": "",
          "type": "uint256"
        }
      ],
      "stateMutability": "view",
      "type": "function"
    },
    {
      "inputs": [],
      "name": "compoundPer1e18",
      "outputs": [
        {
          "internalType": "uint256",
          "name": "",
          "type": "uint256"
        }
      ],
      "stateMutability": "view",
      "type": "function"
    },
    {
      "inputs": [
        {
          "internalType": "uint256",
          "name": "",
          "type": "uint256"
        }
      ],
      "name": "compoundStart",
      "outputs": [
        {
          "internalType": "uint256",
          "name": "",
          "type": "uint256"
        }
      ],
      "stateMutability": "view",
      "type": "function"
    },
    {
      "inputs": [],
      "name": "compoundWindow",
      "outputs": [
        {
          "internalType": "uint256",
          "name": "",
          "type": "uint256"
        }
      ],
      "stateMutability": "view",
      "type": "function"
    },
    {
      "inputs": [
        {
          "internalType": "uint256",
          "name": "tokenId",
          "type": "uint256"
        }
      ],
      "name": "containedIn",
      "outputs": [
        {
          "internalType": "address",
          "name": "owner",
          "type": "address"
        },
        {
          "internalType": "uint256",
          "name": "containerId",
          "type": "uint256"
        }
      ],
      "stateMutability": "view",
      "type": "function"
    },
    {
      "inputs": [],
      "name": "dependsOnCharacters",
      "outputs": [
        {
          "internalType": "uint256[]",
          "name": "",
          "type": "uint256[]"
        }
      ],
      "stateMutability": "view",
      "type": "function"
    },
    {
      "inputs": [],
      "name": "dependsOnRoles",
      "outputs": [
        {
          "internalType": "uint256[]",
          "name": "",
          "type": "uint256[]"
        }
      ],
      "stateMutability": "view",
      "type": "function"
    },
    {
      "inputs": [
        {
          "internalType": "uint256",
          "name": "trancheId",
          "type": "uint256"
        },
        {
          "internalType": "uint256",
          "name": "tokenAmount",
          "type": "uint256"
        }
      ],
      "name": "deposit",
      "outputs": [],
      "stateMutability": "nonpayable",
      "type": "function"
    },
    {
      "inputs": [
        {
          "internalType": "uint256",
          "name": "trancheId",
          "type": "uint256"
        },
        {
          "internalType": "uint256",
          "name": "collateralAmount",
          "type": "uint256"
        },
        {
          "internalType": "uint256",
          "name": "borrowAmount",
          "type": "uint256"
        },
        {
          "internalType": "address",
          "name": "recipient",
          "type": "address"
        }
      ],
      "name": "depositAndBorrow",
      "outputs": [],
      "stateMutability": "nonpayable",
      "type": "function"
    },
    {
      "inputs": [
        {
          "internalType": "uint256",
          "name": "tokenId",
          "type": "uint256"
        }
      ],
      "name": "getApproved",
      "outputs": [
        {
          "internalType": "address",
          "name": "",
          "type": "address"
        }
      ],
      "stateMutability": "view",
      "type": "function"
    },
    {
      "inputs": [
        {
          "internalType": "uint256",
          "name": "trancheId",
          "type": "uint256"
        }
      ],
      "name": "getCurrentHoldingStrategy",
      "outputs": [
        {
          "internalType": "address",
          "name": "",
          "type": "address"
        }
      ],
      "stateMutability": "nonpayable",
      "type": "function"
    },
    {
      "inputs": [
        {
          "internalType": "address",
          "name": "owner",
          "type": "address"
        },
        {
          "internalType": "address",
          "name": "operator",
          "type": "address"
        }
      ],
      "name": "isApprovedForAll",
      "outputs": [
        {
          "internalType": "bool",
          "name": "",
          "type": "bool"
        }
      ],
      "stateMutability": "view",
      "type": "function"
    },
    {
      "inputs": [
        {
          "internalType": "address",
          "name": "spender",
          "type": "address"
        },
        {
          "internalType": "uint256",
          "name": "tokenId",
          "type": "uint256"
        }
      ],
      "name": "isAuthorized",
      "outputs": [
        {
          "internalType": "bool",
          "name": "",
          "type": "bool"
        }
      ],
      "stateMutability": "view",
      "type": "function"
    },
    {
      "inputs": [
        {
          "internalType": "uint256",
          "name": "trancheId",
          "type": "uint256"
        }
      ],
      "name": "isViable",
      "outputs": [
        {
          "internalType": "bool",
          "name": "",
          "type": "bool"
        }
      ],
      "stateMutability": "view",
      "type": "function"
    },
    {
      "inputs": [
        {
          "internalType": "uint256",
          "name": "",
          "type": "uint256"
        }
      ],
      "name": "mainCharacterCache",
      "outputs": [
        {
          "internalType": "address",
          "name": "",
          "type": "address"
        }
      ],
      "stateMutability": "view",
      "type": "function"
    },
    {
      "inputs": [
        {
          "internalType": "uint256",
          "name": "trancheId",
          "type": "uint256"
        },
        {
          "internalType": "address",
          "name": "destination",
          "type": "address"
        },
        {
          "internalType": "address",
          "name": "yieldToken",
          "type": "address"
        },
        {
          "internalType": "address",
          "name": "yieldRecipient",
          "type": "address"
        }
      ],
      "name": "migrateStrategy",
      "outputs": [
        {
          "internalType": "address",
          "name": "token",
          "type": "address"
        },
        {
          "internalType": "uint256",
          "name": "tokenId",
          "type": "uint256"
        },
        {
          "internalType": "uint256",
          "name": "targetAmount",
          "type": "uint256"
        }
      ],
      "stateMutability": "nonpayable",
      "type": "function"
    },
    {
      "inputs": [
        {
          "internalType": "address",
          "name": "collateralToken",
          "type": "address"
        },
        {
          "internalType": "address",
          "name": "strategy",
          "type": "address"
        },
        {
          "internalType": "uint256",
          "name": "collateralAmount",
          "type": "uint256"
        },
        {
          "internalType": "uint256",
          "name": "borrowAmount",
          "type": "uint256"
        },
        {
          "internalType": "address",
          "name": "stableRecipient",
          "type": "address"
        }
      ],
      "name": "mintDepositAndBorrow",
      "outputs": [
        {
          "internalType": "uint256",
          "name": "",
          "type": "uint256"
        }
      ],
      "stateMutability": "nonpayable",
      "type": "function"
    },
    {
      "inputs": [
        {
          "internalType": "uint256",
          "name": "vaultId",
          "type": "uint256"
        },
        {
          "internalType": "address",
          "name": "strategy",
          "type": "address"
        },
        {
          "internalType": "address",
          "name": "assetToken",
          "type": "address"
        },
        {
          "internalType": "uint256",
          "name": "assetTokenId",
          "type": "uint256"
        },
        {
          "internalType": "uint256",
          "name": "assetAmount",
          "type": "uint256"
        }
      ],
      "name": "mintTranche",
      "outputs": [
        {
          "internalType": "uint256",
          "name": "trancheId",
          "type": "uint256"
        }
      ],
      "stateMutability": "nonpayable",
      "type": "function"
    },
    {
      "inputs": [],
      "name": "name",
      "outputs": [
        {
          "internalType": "string",
          "name": "",
          "type": "string"
        }
      ],
      "stateMutability": "view",
      "type": "function"
    },
    {
      "inputs": [
        {
          "internalType": "address",
          "name": "token",
          "type": "address"
        },
        {
          "internalType": "address",
          "name": "pegCurrency",
          "type": "address"
        }
      ],
      "name": "newCurrentOracle",
      "outputs": [],
      "stateMutability": "nonpayable",
      "type": "function"
    },
    {
      "inputs": [
        {
          "internalType": "uint256",
          "name": "tokenId",
          "type": "uint256"
        }
      ],
      "name": "ownerOf",
      "outputs": [
        {
          "internalType": "address",
          "name": "",
          "type": "address"
        }
      ],
      "stateMutability": "view",
      "type": "function"
    },
    {
      "inputs": [],
      "name": "pastFees",
      "outputs": [
        {
          "internalType": "uint256",
          "name": "",
          "type": "uint256"
        }
      ],
      "stateMutability": "view",
      "type": "function"
    },
    {
      "inputs": [],
      "name": "pendingFees",
      "outputs": [
        {
          "internalType": "uint256",
          "name": "",
          "type": "uint256"
        }
      ],
      "stateMutability": "view",
      "type": "function"
    },
    {
      "inputs": [
        {
          "internalType": "address",
          "name": "depositor",
          "type": "address"
        },
        {
          "internalType": "uint256",
          "name": "trancheId",
          "type": "uint256"
        },
        {
          "internalType": "uint256",
          "name": "tokenAmount",
          "type": "uint256"
        }
      ],
      "name": "registerDepositFor",
      "outputs": [],
      "stateMutability": "nonpayable",
      "type": "function"
    },
    {
      "inputs": [
        {
          "internalType": "uint256",
          "name": "trancheId",
          "type": "uint256"
        },
        {
          "internalType": "uint256",
          "name": "repayAmount",
          "type": "uint256"
        }
      ],
      "name": "repay",
      "outputs": [],
      "stateMutability": "nonpayable",
      "type": "function"
    },
    {
      "inputs": [
        {
          "internalType": "uint256",
          "name": "trancheId",
          "type": "uint256"
        },
        {
          "internalType": "uint256",
          "name": "collateralAmount",
          "type": "uint256"
        },
        {
          "internalType": "uint256",
          "name": "repayAmount",
          "type": "uint256"
        },
        {
          "internalType": "address",
          "name": "recipient",
          "type": "address"
        }
      ],
      "name": "repayAndWithdraw",
      "outputs": [],
      "stateMutability": "nonpayable",
      "type": "function"
    },
    {
      "inputs": [
        {
          "internalType": "address",
          "name": "",
          "type": "address"
        },
        {
          "internalType": "uint256",
          "name": "",
          "type": "uint256"
        }
      ],
      "name": "roleCache",
      "outputs": [
        {
          "internalType": "bool",
          "name": "",
          "type": "bool"
        }
      ],
      "stateMutability": "view",
      "type": "function"
    },
    {
      "inputs": [],
      "name": "roles",
      "outputs": [
        {
          "internalType": "contract Roles",
          "name": "",
          "type": "address"
        }
      ],
      "stateMutability": "view",
      "type": "function"
    },
    {
      "inputs": [],
      "name": "rolesPlayed",
      "outputs": [
        {
          "internalType": "uint256[]",
          "name": "",
          "type": "uint256[]"
        }
      ],
      "stateMutability": "view",
      "type": "function"
    },
    {
      "inputs": [
        {
          "internalType": "address",
          "name": "from",
          "type": "address"
        },
        {
          "internalType": "address",
          "name": "to",
          "type": "address"
        },
        {
          "internalType": "uint256",
          "name": "tokenId",
          "type": "uint256"
        }
      ],
      "name": "safeTransferFrom",
      "outputs": [],
      "stateMutability": "nonpayable",
      "type": "function"
    },
    {
      "inputs": [
        {
          "internalType": "address",
          "name": "from",
          "type": "address"
        },
        {
          "internalType": "address",
          "name": "to",
          "type": "address"
        },
        {
          "internalType": "uint256",
          "name": "tokenId",
          "type": "uint256"
        },
        {
          "internalType": "bytes",
          "name": "_data",
          "type": "bytes"
        }
      ],
      "name": "safeTransferFrom",
      "outputs": [],
      "stateMutability": "nonpayable",
      "type": "function"
    },
    {
      "inputs": [
        {
          "internalType": "address",
          "name": "operator",
          "type": "address"
        },
        {
          "internalType": "bool",
          "name": "approved",
          "type": "bool"
        }
      ],
      "name": "setApprovalForAll",
      "outputs": [],
      "stateMutability": "nonpayable",
      "type": "function"
    },
    {
      "inputs": [
        {
          "internalType": "address",
          "name": "token",
          "type": "address"
        },
        {
          "internalType": "uint256",
          "name": "ceiling",
          "type": "uint256"
        }
      ],
      "name": "setAssetDebtCeiling",
      "outputs": [],
      "stateMutability": "nonpayable",
      "type": "function"
    },
    {
      "inputs": [
        {
          "internalType": "uint256",
          "name": "window",
          "type": "uint256"
        }
      ],
      "name": "setCompoundWindow",
      "outputs": [],
      "stateMutability": "nonpayable",
      "type": "function"
    },
    {
      "inputs": [
        {
          "internalType": "address",
          "name": "token",
          "type": "address"
        },
        {
          "internalType": "uint256",
          "name": "fee",
          "type": "uint256"
        }
      ],
      "name": "setFeesPer10k",
      "outputs": [],
      "stateMutability": "nonpayable",
      "type": "function"
    },
    {
      "inputs": [
        {
          "internalType": "uint256",
          "name": "period",
          "type": "uint256"
        }
      ],
      "name": "setUpdateTrackingPeriod",
      "outputs": [],
      "stateMutability": "nonpayable",
      "type": "function"
    },
    {
      "inputs": [],
      "name": "setupTrancheSlot",
      "outputs": [],
      "stateMutability": "nonpayable",
      "type": "function"
    },
    {
      "inputs": [
        {
          "internalType": "bytes4",
          "name": "interfaceId",
          "type": "bytes4"
        }
      ],
      "name": "supportsInterface",
      "outputs": [
        {
          "internalType": "bool",
          "name": "",
          "type": "bool"
        }
      ],
      "stateMutability": "view",
      "type": "function"
    },
    {
      "inputs": [],
      "name": "symbol",
      "outputs": [
        {
          "internalType": "string",
          "name": "",
          "type": "string"
        }
      ],
      "stateMutability": "view",
      "type": "function"
    },
    {
      "inputs": [
        {
          "internalType": "uint256",
          "name": "index",
          "type": "uint256"
        }
      ],
      "name": "tokenByIndex",
      "outputs": [
        {
          "internalType": "uint256",
          "name": "",
          "type": "uint256"
        }
      ],
      "stateMutability": "view",
      "type": "function"
    },
    {
      "inputs": [
        {
          "internalType": "address",
          "name": "owner",
          "type": "address"
        },
        {
          "internalType": "uint256",
          "name": "index",
          "type": "uint256"
        }
      ],
      "name": "tokenOfOwnerByIndex",
      "outputs": [
        {
          "internalType": "uint256",
          "name": "",
          "type": "uint256"
        }
      ],
      "stateMutability": "view",
      "type": "function"
    },
    {
      "inputs": [
        {
          "internalType": "uint256",
          "name": "tokenId",
          "type": "uint256"
        }
      ],
      "name": "tokenURI",
      "outputs": [
        {
          "internalType": "string",
          "name": "",
          "type": "string"
        }
      ],
      "stateMutability": "view",
      "type": "function"
    },
    {
      "inputs": [],
      "name": "totalDebt",
      "outputs": [
        {
          "internalType": "uint256",
          "name": "",
          "type": "uint256"
        }
      ],
      "stateMutability": "view",
      "type": "function"
    },
    {
      "inputs": [],
      "name": "totalEarnedInterest",
      "outputs": [
        {
          "internalType": "uint256",
          "name": "",
          "type": "uint256"
        }
      ],
      "stateMutability": "view",
      "type": "function"
    },
    {
      "inputs": [],
      "name": "totalSupply",
      "outputs": [
        {
          "internalType": "uint256",
          "name": "",
          "type": "uint256"
        }
      ],
      "stateMutability": "view",
      "type": "function"
    },
    {
      "inputs": [
        {
          "internalType": "uint256",
          "name": "trancheId",
          "type": "uint256"
        }
      ],
      "name": "trancheDebt",
      "outputs": [
        {
          "internalType": "uint256",
          "name": "",
          "type": "uint256"
        }
      ],
      "stateMutability": "view",
      "type": "function"
    },
    {
      "inputs": [
        {
          "internalType": "uint256",
          "name": "trancheId",
          "type": "uint256"
        }
      ],
      "name": "trancheToken",
      "outputs": [
        {
          "internalType": "address",
          "name": "",
          "type": "address"
        }
      ],
      "stateMutability": "view",
      "type": "function"
    },
    {
      "inputs": [
        {
          "internalType": "address",
          "name": "from",
          "type": "address"
        },
        {
          "internalType": "address",
          "name": "to",
          "type": "address"
        },
        {
          "internalType": "uint256",
          "name": "tokenId",
          "type": "uint256"
        }
      ],
      "name": "transferFrom",
      "outputs": [],
      "stateMutability": "nonpayable",
      "type": "function"
    },
    {
      "inputs": [
        {
          "internalType": "uint256",
          "name": "role",
          "type": "uint256"
        }
      ],
      "name": "updateMainCharacterCache",
      "outputs": [],
      "stateMutability": "nonpayable",
      "type": "function"
    },
    {
      "inputs": [
        {
          "internalType": "uint256",
          "name": "role",
          "type": "uint256"
        },
        {
          "internalType": "address",
          "name": "contr",
          "type": "address"
        }
      ],
      "name": "updateRoleCache",
      "outputs": [],
      "stateMutability": "nonpayable",
      "type": "function"
    },
    {
      "inputs": [],
      "name": "updateTrackingPeriod",
      "outputs": [
        {
          "internalType": "uint256",
          "name": "",
          "type": "uint256"
        }
      ],
      "stateMutability": "view",
      "type": "function"
    },
    {
      "inputs": [],
      "name": "viewAllFeesEver",
      "outputs": [
        {
          "internalType": "uint256",
          "name": "",
          "type": "uint256"
        }
      ],
      "stateMutability": "view",
      "type": "function"
    },
    {
      "inputs": [
        {
          "internalType": "uint256",
          "name": "trancheId",
          "type": "uint256"
        }
      ],
      "name": "viewBorrowable",
      "outputs": [
        {
          "internalType": "uint256",
          "name": "",
          "type": "uint256"
        }
      ],
      "stateMutability": "view",
      "type": "function"
    },
    {
      "inputs": [
        {
          "internalType": "uint256",
          "name": "trancheId",
          "type": "uint256"
        },
        {
          "internalType": "address",
          "name": "valueCurrency",
          "type": "address"
        }
      ],
      "name": "viewCollateralValue",
      "outputs": [
        {
          "internalType": "uint256",
          "name": "",
          "type": "uint256"
        }
      ],
      "stateMutability": "view",
      "type": "function"
    },
    {
      "inputs": [
        {
          "internalType": "uint256",
          "name": "trancheId",
          "type": "uint256"
        }
      ],
      "name": "viewCollateralValue",
      "outputs": [
        {
          "internalType": "uint256",
          "name": "",
          "type": "uint256"
        }
      ],
      "stateMutability": "view",
      "type": "function"
    },
    {
      "inputs": [
        {
          "internalType": "uint256",
          "name": "trancheId",
          "type": "uint256"
        }
      ],
      "name": "viewCurrentHoldingStrategy",
      "outputs": [
        {
          "internalType": "address",
          "name": "",
          "type": "address"
        }
      ],
      "stateMutability": "view",
      "type": "function"
    },
    {
      "inputs": [
        {
          "internalType": "address",
          "name": "token",
          "type": "address"
        }
      ],
      "name": "viewILMetadata",
      "outputs": [
        {
          "components": [
            {
              "internalType": "uint256",
              "name": "debtCeiling",
              "type": "uint256"
            },
            {
              "internalType": "uint256",
              "name": "totalDebt",
              "type": "uint256"
            },
            {
              "internalType": "uint256",
              "name": "mintingFee",
              "type": "uint256"
            },
            {
              "internalType": "uint256",
              "name": "borrowablePer10k",
              "type": "uint256"
            }
          ],
          "internalType": "struct StableLending2.ILMetadata",
          "name": "",
          "type": "tuple"
        }
      ],
      "stateMutability": "view",
      "type": "function"
    },
    {
      "inputs": [
        {
          "internalType": "uint256",
          "name": "_trancheId",
          "type": "uint256"
        }
      ],
      "name": "viewPositionMetadata",
      "outputs": [
        {
          "components": [
            {
              "internalType": "uint256",
              "name": "trancheId",
              "type": "uint256"
            },
            {
              "internalType": "address",
              "name": "strategy",
              "type": "address"
            },
            {
              "internalType": "uint256",
              "name": "collateral",
              "type": "uint256"
            },
            {
              "internalType": "uint256",
              "name": "debt",
              "type": "uint256"
            },
            {
              "internalType": "address",
              "name": "token",
              "type": "address"
            },
            {
              "internalType": "uint256",
              "name": "yield",
              "type": "uint256"
            },
            {
              "internalType": "uint256",
              "name": "collateralValue",
              "type": "uint256"
            },
            {
              "internalType": "uint256",
              "name": "borrowablePer10k",
              "type": "uint256"
            },
            {
              "internalType": "address",
              "name": "owner",
              "type": "address"
            }
          ],
          "internalType": "struct StableLending2.PositionMetadata",
          "name": "",
          "type": "tuple"
        }
      ],
      "stateMutability": "view",
      "type": "function"
    },
    {
      "inputs": [
        {
          "internalType": "address",
          "name": "owner",
          "type": "address"
        }
      ],
      "name": "viewPositionsByOwner",
      "outputs": [
        {
          "components": [
            {
              "internalType": "uint256",
              "name": "trancheId",
              "type": "uint256"
            },
            {
              "internalType": "address",
              "name": "strategy",
              "type": "address"
            },
            {
              "internalType": "uint256",
              "name": "collateral",
              "type": "uint256"
            },
            {
              "internalType": "uint256",
              "name": "debt",
              "type": "uint256"
            },
            {
              "internalType": "address",
              "name": "token",
              "type": "address"
            },
            {
              "internalType": "uint256",
              "name": "yield",
              "type": "uint256"
            },
            {
              "internalType": "uint256",
              "name": "collateralValue",
              "type": "uint256"
            },
            {
              "internalType": "uint256",
              "name": "borrowablePer10k",
              "type": "uint256"
            },
            {
              "internalType": "address",
              "name": "owner",
              "type": "address"
            }
          ],
          "internalType": "struct StableLending2.PositionMetadata[]",
          "name": "",
          "type": "tuple[]"
        }
      ],
      "stateMutability": "view",
      "type": "function"
    },
    {
      "inputs": [
        {
          "internalType": "uint256",
          "name": "trackingPeriod",
          "type": "uint256"
        }
      ],
      "name": "viewPositionsByTrackingPeriod",
      "outputs": [
        {
          "components": [
            {
              "internalType": "uint256",
              "name": "trancheId",
              "type": "uint256"
            },
            {
              "internalType": "address",
              "name": "strategy",
              "type": "address"
            },
            {
              "internalType": "uint256",
              "name": "collateral",
              "type": "uint256"
            },
            {
              "internalType": "uint256",
              "name": "debt",
              "type": "uint256"
            },
            {
              "internalType": "address",
              "name": "token",
              "type": "address"
            },
            {
              "internalType": "uint256",
              "name": "yield",
              "type": "uint256"
            },
            {
              "internalType": "uint256",
              "name": "collateralValue",
              "type": "uint256"
            },
            {
              "internalType": "uint256",
              "name": "borrowablePer10k",
              "type": "uint256"
            },
            {
              "internalType": "address",
              "name": "owner",
              "type": "address"
            }
          ],
          "internalType": "struct StableLending2.PositionMetadata[]",
          "name": "rows",
          "type": "tuple[]"
        }
      ],
      "stateMutability": "view",
      "type": "function"
    },
    {
      "inputs": [
        {
          "internalType": "uint256",
          "name": "trancheId",
          "type": "uint256"
        }
      ],
      "name": "viewTargetCollateralAmount",
      "outputs": [
        {
          "internalType": "uint256",
          "name": "",
          "type": "uint256"
        }
      ],
      "stateMutability": "view",
      "type": "function"
    },
    {
      "inputs": [
        {
          "internalType": "address",
          "name": "owner",
          "type": "address"
        }
      ],
      "name": "viewTranchesByOwner",
      "outputs": [
        {
          "internalType": "uint256[]",
          "name": "",
          "type": "uint256[]"
        }
      ],
      "stateMutability": "view",
      "type": "function"
    },
    {
      "inputs": [],
      "name": "viewUpdatedCompound",
      "outputs": [
        {
          "internalType": "uint256",
          "name": "",
          "type": "uint256"
        }
      ],
      "stateMutability": "view",
      "type": "function"
    },
    {
      "inputs": [
        {
          "internalType": "uint256",
          "name": "trancheId",
          "type": "uint256"
        },
        {
          "internalType": "address",
          "name": "currency",
          "type": "address"
        }
      ],
      "name": "viewYield",
      "outputs": [
        {
          "internalType": "uint256",
          "name": "",
          "type": "uint256"
        }
      ],
      "stateMutability": "view",
      "type": "function"
    },
    {
      "inputs": [
        {
          "internalType": "uint256",
          "name": "trancheId",
          "type": "uint256"
        },
        {
          "internalType": "address",
          "name": "yieldCurrency",
          "type": "address"
        },
        {
          "internalType": "address",
          "name": "valueCurrency",
          "type": "address"
        }
      ],
      "name": "viewYieldCollateralValueBorrowable",
      "outputs": [
        {
          "internalType": "uint256",
          "name": "",
          "type": "uint256"
        },
        {
          "internalType": "uint256",
          "name": "",
          "type": "uint256"
        },
        {
          "internalType": "uint256",
          "name": "",
          "type": "uint256"
        }
      ],
      "stateMutability": "view",
      "type": "function"
    },
    {
      "inputs": [
        {
          "internalType": "uint256",
          "name": "trancheId",
          "type": "uint256"
        },
        {
          "internalType": "address",
          "name": "yieldCurrency",
          "type": "address"
        },
        {
          "internalType": "address",
          "name": "valueCurrency",
          "type": "address"
        }
      ],
      "name": "viewYieldValueBorrowable",
      "outputs": [
        {
          "internalType": "uint256",
          "name": "",
          "type": "uint256"
        },
        {
          "internalType": "uint256",
          "name": "",
          "type": "uint256"
        },
        {
          "internalType": "uint256",
          "name": "",
          "type": "uint256"
        }
      ],
      "stateMutability": "view",
      "type": "function"
    },
    {
      "inputs": [
        {
          "internalType": "uint256",
          "name": "trancheId",
          "type": "uint256"
        },
        {
          "internalType": "uint256",
          "name": "tokenAmount",
          "type": "uint256"
        },
        {
          "internalType": "address",
          "name": "yieldCurrency",
          "type": "address"
        },
        {
          "internalType": "address",
          "name": "recipient",
          "type": "address"
        }
      ],
      "name": "withdraw",
      "outputs": [],
      "stateMutability": "nonpayable",
      "type": "function"
    },
    {
      "inputs": [],
      "name": "withdrawFees",
      "outputs": [],
      "stateMutability": "nonpayable",
      "type": "function"
    }
  ],
  "bytecode": "0x60a060405262093a80601555670de0b6b3a7640000601b55615460601d553480156200002a57600080fd5b5060405162005dd338038062005dd38339810160408190526200004d9162000373565b6040518060400160405280601a81526020017f4d6f72656d6f6e657920537461626c65204c656e64696e6720320000000000008152506040518060400160405280600581526020016426a6a9a61960d91b815250828083838160009080519060200190620000bd929190620002cd565b508051620000d3906001906020840190620002cd565b5050600d80546001818101835560057fd7b6990105719101dabeb77144f2a3385c8033acd3af97e9423a695e81ad1eb592830155600c8054808301825560697fdf6966c971051c3d54ec59162606531493a51404a002842f56009d7e5cf4a8c7918201558154808401909255606891015582548082018455600093909352910155506001600160a01b038116620001bb5760405162461bcd60e51b815260206004820152602260248201527f506c656173652070726f766964652076616c696420726f6c6573206164647265604482015261737360f01b606482015260840160405180910390fd5b60601b6001600160601b0319166080525050600c805460018082018355606a7fdf6966c971051c3d54ec59162606531493a51404a002842f56009d7e5cf4a8c792830155600f8054808301825560047f8d1108e10bcb7c27dddfc02ed9d693a074039d026cf4ea4240b40f7d581ac80291820155601283905581548084018355600390820155845480840186556066908501558154808401835560029082015584548084018655606790850155845480840190955560769490930193909355600e805480830190915560777fbb7b4a454dc3493923482f07822329ed19e8244eff582cc204f8554c3620c3fd9091015582548082018455600093909352910155505061a8c060155542601c55620003e0565b828054620002db90620003a3565b90600052602060002090601f016020900481019282620002ff57600085556200034a565b82601f106200031a57805160ff19168380011785556200034a565b828001600101855582156200034a579182015b828111156200034a5782518255916020019190600101906200032d565b50620003589291506200035c565b5090565b5b808211156200035857600081556001016200035d565b60006020828403121562000385578081fd5b81516001600160a01b03811681146200039c578182fd5b9392505050565b600181811c90821680620003b857607f821691505b60208210811415620003da57634e487b7160e01b600052602260045260246000fd5b50919050565b60805160601c6159b86200041b600039600081816105f601528181610d20015281816115ee015281816139cd0152613a6001526159b86000f3fe608060405234801561001057600080fd5b50600436106103d15760003560e01c80620a5ccf146103d657806301ffc9a7146103ff57806304c7e7671461042257806306fdde0314610443578063071060a614610458578063081812fc1461046d57806308754a731461048d578063095ea7b3146104ae5780630d639044146104c15780630d749628146104d4578063136f9cef146104dc57806318160ddd14610504578063224438d11461050c57806323b872dd146105155780632642b60614610528578063274771441461055c57806328f3fc7314610565578063291e486f146105785780632972b0f0146105985780632f745c59146105ab57806332935f44146105be57806335b176ab146105d1578063392f5f64146105f157806342842e0e14610618578063447d52ba1461062b578063476343ee1461063e5780634a7a7f41146106465780634f13c8011461064e5780634f6ccce7146106575780634f7dcffc1461066a57806359d0ae1c1461067357806361b9fea914610693578063621fdd37146106a65780636352211e146106b95780636caa9c11146106cc57806370a08231146106df57806371b3177a146106f25780637268d1c01461070557806375161891146107185780637609d7f61461074657806379bc3efa146107755780637a1a04df146107885780637d4a2dc7146107b65780637dad209b146107c957806381b5eb29146107d15780638496e891146107f15780638f132f111461080457806391130d951461080d57806393856b161461082d57806395d89b4114610840578063983b42f7146108485780639897fc261461085b578063a061ba5f1461086e578063a22cb46514610881578063a2fb54ff14610894578063abcbc4fc146108a7578063aeb38d8b146108ba578063aeb9ad05146108cd578063b23d66c2146108d6578063b25e25f41461090e578063b88d4fde14610921578063bf184ea414610934578063c5c72dc314610947578063c87b56dd1461095a578063cc2b1d471461096d578063d8aed14514610976578063dade7c5114610989578063dc94cb7d14610991578063dee7ae7014610999578063e2bbb158146109df578063e670309c146109f2578063e8ea4fae146109fa578063e985e9c514610a02578063e9c3f77d14610a15578063e9d07fe814610a3e578063eab9209614610a51578063ebc6353e14610a64578063f12ba38114610a77578063f6ee21bd14610a8a578063f8903fb714610a9d578063f9ed4cc014610ab0578063fa98a4ba14610ad9578063fabee7db14610aec578063fc7b9c1814610aff578063fd80d0c314610b08578063fdf27f9e14610b1b575b600080fd5b6103e96103e4366004614daf565b610b2e565b6040516103f69190615567565b60405180910390f35b61041261040d36600461517b565b610bed565b60405190151581526020016103f6565b610435610430366004614f1a565b610c18565b6040519081526020016103f6565b61044b610c77565b6040516103f6919061559f565b61046b6104663660046151e6565b610d0a565b005b61048061047b3660046151e6565b610dd0565b6040516103f6919061549e565b6104a061049b3660046151e6565b610e58565b6040516103f69291906154ff565b61046b6104bc366004614fa5565b610e7b565b6104356104cf3660046151e6565b610f8c565b610435610ff5565b6104ef6104ea36600461503a565b61100c565b604080519283526020830191909152016103f6565b600854610435565b610435601e5481565b61046b610523366004614e1f565b611125565b610480610536366004614de7565b60116020908152600092835260408084209091529082529020546001600160a01b031681565b610435601c5481565b61046b610573366004614de7565b611156565b61058b6105863660046151e6565b611249565b6040516103f69190615739565b6104126105a6366004614fa5565b6113f4565b6104356105b9366004614fa5565b6114ba565b6104356105cc36600461503a565b611550565b6104356105df3660046151e6565b60106020526000908152604090205481565b6104807f000000000000000000000000000000000000000000000000000000000000000081565b61046b610626366004614e1f565b6115bc565b61046b610639366004615216565b6115d7565b61046b6116ad565b6103e9611713565b610435601d5481565b6104356106653660046151e6565b61176a565b61043560155481565b6104356106813660046151e6565b60176020526000908152604090205481565b6104806106a13660046151e6565b61180b565b61046b6106b43660046153a7565b611a40565b6104806106c73660046151e6565b611ab5565b6104356106da3660046151e6565b611b2c565b6104356106ed366004614daf565b611b4d565b61046b61070036600461534c565b611bd4565b6104356107133660046151e6565b611c71565b61072b6107263660046150f3565b611d03565b604080519384526020840192909252908201526060016103f6565b61072b610754366004614daf565b60166020526000908152604090208054600182015460029092015490919083565b61046b6107833660046153a7565b611db2565b610412610796366004614fa5565b600b60209081526000928352604080842090915290825290205460ff1681565b61046b6107c43660046151e6565b611e16565b6103e9611e64565b6104356107df3660046151e6565b60186020526000908152604090205481565b61072b6107ff366004615270565b611eba565b610435601f5481565b61082061081b366004614daf565b611f70565b6040516103f69190615518565b61043561083b3660046152b7565b612064565b61044b61209c565b61043561085636600461508e565b6120ab565b610435610869366004615216565b61216c565b61046b61087c366004614fa5565b6121a9565b61046b61088f366004614f78565b612262565b61046b6108a23660046151e6565b61226d565b6104356108b53660046151e6565b61235a565b6104356108c83660046151e6565b61236a565b610435601b5481565b6108e96108e4366004615270565b61237a565b604080516001600160a01b0390941684526020840192909252908201526060016103f6565b61041261091c3660046151e6565b61255b565b61046b61092f366004614e5f565b612605565b6104356109423660046151e6565b61263d565b6104356109553660046151e6565b61264d565b61044b6109683660046151e6565b6126d5565b610435601a5481565b61046b610984366004615308565b6127ad565b6104356127cc565b6103e96128c7565b6109ac6109a7366004614daf565b61291d565b6040516103f691908151815260208083015190820152604080830151908201526060918201519181019190915260800190565b61046b6109ed366004615308565b6129a3565b61046b6129df565b6103e9612a5b565b610412610a10366004614de7565b612ab1565b610480610a233660046151e6565b600a602052600090815260409020546001600160a01b031681565b610480610a4c3660046151e6565b612adf565b61046b610a5f366004614fa5565b612b77565b61072b610a7236600461523a565b612c28565b61046b610a85366004614fd0565b612c47565b610435610a983660046151e6565b612cba565b610435610aab36600461523a565b612cc8565b610480610abe3660046151e6565b6013602052600090815260409020546001600160a01b031681565b61072b610ae736600461523a565b612d60565b610480610afa3660046151e6565b612db3565b61043560195481565b610435610b16366004615216565b612deb565b610820610b293660046151e6565b612e7b565b60606000610b3b83611b4d565b90506000816001600160401b03811115610b6557634e487b7160e01b600052604160045260246000fd5b604051908082528060200260200182016040528015610b8e578160200160208202803683370190505b50905060005b80831115610be357610ba685826114ba565b828281518110610bc657634e487b7160e01b600052603260045260246000fd5b602090810291909101015280610bdb81615898565b915050610b94565b509150505b919050565b60006001600160e01b0319821663780e9d6360e01b1480610c125750610c1282612f57565b92915050565b600060026012541415610c465760405162461bcd60e51b8152600401610c3d90615702565b60405180910390fd5b60026012556000610c5b3382888a828a612fa7565b9050610c688185856131b8565b60016012559695505050505050565b606060008054610c8690615863565b80601f0160208091040260200160405190810160405280929190818152602001828054610cb290615863565b8015610cff5780601f10610cd457610100808354040283529160200191610cff565b820191906000526020600020905b815481529060010190602001808311610ce257829003601f168201915b505050505090505b90565b60405163b4ed0b6d60e01b8152600481018290527f00000000000000000000000000000000000000000000000000000000000000006001600160a01b03169063b4ed0b6d9060240160206040518083038186803b158015610d6a57600080fd5b505afa158015610d7e573d6000803e3d6000fd5b505050506040513d601f19601f82011682018060405250810190610da29190614dcb565b6000918252600a602052604090912080546001600160a01b0319166001600160a01b03909216919091179055565b6000610ddb826133a0565b610e3c5760405162461bcd60e51b815260206004820152602c60248201527f4552433732313a20617070726f76656420717565727920666f72206e6f6e657860448201526b34b9ba32b73a103a37b5b2b760a11b6064820152608401610c3d565b506000908152600460205260409020546001600160a01b031690565b600080610e6483611ab5565b600093845260106020526040909320549293915050565b6000610e8682611ab5565b9050806001600160a01b0316836001600160a01b03161415610ef45760405162461bcd60e51b815260206004820152602160248201527f4552433732313a20617070726f76616c20746f2063757272656e74206f776e656044820152603960f91b6064820152608401610c3d565b336001600160a01b0382161480610f105750610f108133610a10565b610f7d5760405162461bcd60e51b815260206004820152603860248201527f4552433732313a20617070726f76652063616c6c6572206973206e6f74206f776044820152771b995c881b9bdc88185c1c1c9bdd995908199bdc88185b1b60421b6064820152608401610c3d565b610f8783836133bd565b505050565b600080610f976127cc565b6000848152601860205260409020549091508015610fde576000848152601760205260409020548190610fcb908490615801565b610fd591906157ed565b92505050610be8565b505050600081815260176020526040902054610be8565b6000601e54601f5461100791906157d5565b905090565b60008060008060005b8087111561110b57600088888381811061103f57634e487b7160e01b600052603260045260246000fd5b60209081029290920135600081815260139093526040808420549051630a4d77f960e41b81529194508392506001600160a01b03169063a4d77f909061108b9086908d90600401615748565b604080518083038186803b1580156110a257600080fd5b505afa1580156110b6573d6000803e3d6000fd5b505050506040513d601f19601f820116820180604052508101906110da9190615329565b90925090506110e98183615801565b6110f390866157d5565b9450505050808061110390615898565b915050611015565b508161111781836157ed565b935093505050935093915050565b61112f338261342b565b61114b5760405162461bcd60e51b8152600401610c3d90615682565b610f87838383613463565b6001600160a01b038281166000908152601160209081526040808320858516845290915290205416156112455761118b6135fc565b6001600160a01b0316635e73a03483836040518363ffffffff1660e01b81526004016111b89291906154b2565b60206040518083038186803b1580156111d057600080fd5b505afa1580156111e4573d6000803e3d6000fd5b505050506040513d601f19601f820116820180604052508101906112089190614dcb565b6001600160a01b0383811660009081526011602090815260408083208685168452909152902080546001600160a01b031916929091169190911790555b5050565b611251614cff565b6000828152601360205260408120546001600160a01b031690808061128086611278613634565b610a72613634565b925092509250604051806101200160405280878152602001856001600160a01b03168152602001856001600160a01b031663c5c72dc3896040518263ffffffff1660e01b81526004016112d591815260200190565b60206040518083038186803b1580156112ed57600080fd5b505afa158015611301573d6000803e3d6000fd5b505050506040513d601f19601f8201168201806040525081019061132591906151fe565b815260200161133388610f8c565b8152602001856001600160a01b031663fabee7db896040518263ffffffff1660e01b815260040161136691815260200190565b60206040518083038186803b15801561137e57600080fd5b505afa158015611392573d6000803e3d6000fd5b505050506040513d601f19601f820116820180604052508101906113b69190614dcb565b6001600160a01b031681526020018481526020018381526020018281526020016113df88611ab5565b6001600160a01b031690529695505050505050565b60008061140083611ab5565b905061140c848461342b565b806114b257506001600160a01b0381163b151580156114b25750600083815260106020526040908190205490516302972b0f60e41b81526001600160a01b03831691632972b0f0916114629188916004016154ff565b60206040518083038186803b15801561147a57600080fd5b505afa15801561148e573d6000803e3d6000fd5b505050506040513d601f19601f820116820180604052508101906114b2919061515f565b949350505050565b60006114c583611b4d565b82106115275760405162461bcd60e51b815260206004820152602b60248201527f455243373231456e756d657261626c653a206f776e657220696e646578206f7560448201526a74206f6620626f756e647360a81b6064820152608401610c3d565b506001600160a01b03919091166000908152600660209081526040808320938352929052205490565b60008060005b808511156115b357600086868381811061158057634e487b7160e01b600052603260045260246000fd5b9050602002013590506115938186612deb565b61159d90846157d5565b92505080806115ab90615898565b915050611556565b50949350505050565b610f8783838360405180602001604052806000815250612605565b60405163f0723d9760e01b81526001600160a01b037f0000000000000000000000000000000000000000000000000000000000000000169063f0723d979061162590849086906004016154ff565b60206040518083038186803b15801561163d57600080fd5b505afa158015611651573d6000803e3d6000fd5b505050506040513d601f19601f82011682018060405250810190611675919061515f565b6001600160a01b03919091166000908152600b6020908152604080832094835293905291909120805460ff1916911515919091179055565b6116f36116eb6067600052600a6020527f3a9775934bfe5caa57284c734fe36fab39ffd0fbded5164be0e35e020de1994d546001600160a01b031690565b601e5461366c565b601e54601f600082825461170791906157d5565b90915550506000601e55565b6060600d805480602002602001604051908101604052809291908181526020018280548015610cff57602002820191906000526020600020905b81548152602001906001019080831161174d575050505050905090565b600061177560085490565b82106117d85760405162461bcd60e51b815260206004820152602c60248201527f455243373231456e756d657261626c653a20676c6f62616c20696e646578206f60448201526b7574206f6620626f756e647360a01b6064820152608401610c3d565b600882815481106117f957634e487b7160e01b600052603260045260246000fd5b90600052602060002001549050919050565b6000818152601360205260408120546001600160a01b03168161182c6136d7565b90506000816001600160a01b03166316a665e1846040518263ffffffff1660e01b815260040161185c919061549e565b60206040518083038186803b15801561187457600080fd5b505afa158015611888573d6000803e3d6000fd5b505050506040513d601f19601f820116820180604052508101906118ac9190614dcb565b9050806001600160a01b0316836001600160a01b0316146114b2576114b2858383866001600160a01b031663fabee7db8a6040518263ffffffff1660e01b81526004016118fb91815260200190565b60206040518083038186803b15801561191357600080fd5b505afa158015611927573d6000803e3d6000fd5b505050506040513d601f19601f8201168201806040525081019061194b9190614dcb565b604051631dc3a75960e01b8152600481018b90526001600160a01b03891690631dc3a7599060240160206040518083038186803b15801561198b57600080fd5b505afa15801561199f573d6000803e3d6000fd5b505050506040513d601f19601f820116820180604052508101906119c391906151fe565b60405163c5c72dc360e01b8152600481018c90526001600160a01b038a169063c5c72dc39060240160206040518083038186803b158015611a0357600080fd5b505afa158015611a17573d6000803e3d6000fd5b505050506040513d601f19601f82011682018060405250810190611a3b91906151fe565b61370f565b60026012541415611a635760405162461bcd60e51b8152600401610c3d90615702565b6002601255611a7233856113f4565b611a8e5760405162461bcd60e51b8152600401610c3d9061564e565b8215611a9f57611a9f3385856137ba565b611aaa8483836131b8565b505060016012555050565b6000818152600260205260408120546001600160a01b031680610c125760405162461bcd60e51b815260206004820152602960248201527f4552433732313a206f776e657220717565727920666f72206e6f6e657869737460448201526832b73a103a37b5b2b760b91b6064820152608401610c3d565b600f8181548110611b3c57600080fd5b600091825260209091200154905081565b60006001600160a01b038216611bb85760405162461bcd60e51b815260206004820152602a60248201527f4552433732313a2062616c616e636520717565727920666f7220746865207a65604482015269726f206164647265737360b01b6064820152608401610c3d565b506001600160a01b031660009081526003602052604090205490565b60026012541415611bf75760405162461bcd60e51b8152600401610c3d90615702565b6002601255611c0633856113f4565b611c225760405162461bcd60e51b8152600401610c3d9061564e565b6001600160a01b038116611c655760405162461bcd60e51b815260206004820152600a6024820152692237b713ba10313ab93760b11b6044820152606401610c3d565b611aaa8484848461385c565b6000818152601360205260408082205490516301c9a34760e61b8152600481018490526001600160a01b03909116908190637268d1c0906024015b60206040518083038186803b158015611cc457600080fd5b505afa158015611cd8573d6000803e3d6000fd5b505050506040513d601f19601f82011682018060405250810190611cfc91906151fe565b9392505050565b6000806000805b80881115611d9a576000898983818110611d3457634e487b7160e01b600052603260045260246000fd5b9050602002013590506000806000611d4e848c8c8c611eba565b91945092509050611d5f83896157d5565b9750611d6b82886157d5565b9650611d778282615801565b611d8190876157d5565b9550505050508080611d9290615898565b915050611d0a565b50611da582826157ed565b9050955095509592505050565b611dbc33856113f4565b611dd85760405162461bcd60e51b8152600401610c3d9061564e565b6000611de385610f8c565b9050611def8382613894565b9250611dfc3386856138ac565b611e0f8585611e09613634565b8561385c565b5050505050565b33611e1f6139c9565b6001600160a01b03161480611e43575033611e38613a5c565b6001600160a01b0316145b611e5f5760405162461bcd60e51b8152600401610c3d906155b2565b601d55565b6060600e805480602002602001604051908101604052809291908181526020018280548015610cff576020028201919060005260206000209081548152602001906001019080831161174d575050505050905090565b600080600060026012541415611ee25760405162461bcd60e51b8152600401610c3d90615702565b6002601255611ef087613acd565b611efa33886113f4565b611f165760405162461bcd60e51b8152600401610c3d9061564e565b6000806000611f278a8a8a8a613b38565b60008d815260176020526040902054929550909350915083818411611f4d576000611f57565b611f578285615820565b6001601255909c909b5091995090975050505050505050565b60606000611f7d83610b2e565b9050600081516001600160401b03811115611fa857634e487b7160e01b600052604160045260246000fd5b604051908082528060200260200182016040528015611fe157816020015b611fce614cff565b815260200190600190039081611fc65790505b50905060005b8083511115610be357600083828151811061201257634e487b7160e01b600052603260045260246000fd5b6020026020010151905061202581611249565b83838151811061204557634e487b7160e01b600052603260045260246000fd5b602002602001018190525050808061205c90615898565b915050611fe7565b6000600260125414156120895760405162461bcd60e51b8152600401610c3d90615702565b6002601255610c68338787878787612fa7565b606060018054610c8690615863565b6000600260125414156120d05760405162461bcd60e51b8152600401610c3d90615702565b60026012556000805b8086111561215d57600087878381811061210357634e487b7160e01b600052603260045260246000fd5b90506020020135905061211633826113f4565b6121325760405162461bcd60e51b8152600401610c3d9061564e565b61213d818787613bdf565b61214790846157d5565b925050808061215590615898565b9150506120d9565b50600160125595945050505050565b6000828152601360205260408082205490516238f73f60e31b81526001600160a01b03909116906301c7b9f890611cac9086908690600401615748565b336121b26139c9565b6001600160a01b031614806121d65750336121cb613a5c565b6001600160a01b0316145b6121f25760405162461bcd60e51b8152600401610c3d906155b2565b6001600160a01b03821660008181526016602090815260409182902084905581516060808252600f908201526e185cdcd95d081919589d0818d95a5b608a1b60808201529081019290925281018290526000805160206159638339815191529060a0015b60405180910390a15050565b611245338383613c85565b336122766139c9565b6001600160a01b0316148061229a57503361228f613a5c565b6001600160a01b0316145b6122b65760405162461bcd60e51b8152600401610c3d906155b2565b806122fa5760405162461bcd60e51b8152602060048201526014602482015273506572696f642063616e2774206265207a65726f60601b6044820152606401610c3d565b601581905560408051818152600f818301526e1d1c9858dada5b99c81c195c9a5bd9608a1b60608201526020810183905290517f3a64504f0bc0c335e2aecb78638a257e0351a3fe0370861fd54ee4190b9209339181900360800190a150565b600c8181548110611b3c57600080fd5b600e8181548110611b3c57600080fd5b6000806000600260125414156123a25760405162461bcd60e51b8152600401610c3d90615702565b60026012556123b133886113f4565b6123f95760405162461bcd60e51b81526020600482015260196024820152786e6f7420617574686f72697a656420746f206d69677261746560381b6044820152606401610c3d565b6124016136d7565b6001600160a01b031663b4d69757876040518263ffffffff1660e01b815260040161242c919061549e565b60206040518083038186803b15801561244457600080fd5b505afa158015612458573d6000803e3d6000fd5b505050506040513d601f19601f8201168201806040525081019061247c919061515f565b6124985760405162461bcd60e51b8152600401610c3d906156d3565b60006124a38861180b565b60405163591eb36160e11b81529091506001600160a01b0382169063b23d66c2906124d8908b908b908b908b9060040161577e565b606060405180830381600087803b1580156124f257600080fd5b505af1158015612506573d6000803e3d6000fd5b505050506040513d601f19601f8201168201806040525081019061252a9190615004565b9195509350915061253f88828987878761370f565b61254888613d50565b5060016012819055509450945094915050565b60008061256783610f8c565b905064e8d4a510008110156125875761257f83613db1565b915050610be8565b6000612591613634565b905060008060006125a3878586612c28565b925092509250600085831180156125c1575085670429d069189e0000115b80156125cd5750600082115b806125df57506125df86858585613e69565b90508080156125f257506125f288613db1565b9650505050505050610be8565b50919050565b61260f338361342b565b61262b5760405162461bcd60e51b8152600401610c3d90615682565b61263784848484613e97565b50505050565b600d8181548110611b3c57600080fd5b60008181526013602052604080822054905163c5c72dc360e01b8152600481018490526001600160a01b039091169063c5c72dc39060240160206040518083038186803b15801561269d57600080fd5b505afa1580156126b1573d6000803e3d6000fd5b505050506040513d601f19601f82011682018060405250810190610c1291906151fe565b60606126e0826133a0565b6127445760405162461bcd60e51b815260206004820152602f60248201527f4552433732314d657461646174613a2055524920717565727920666f72206e6f60448201526e3732bc34b9ba32b73a103a37b5b2b760891b6064820152608401610c3d565b600061275b60408051602081019091526000815290565b9050600081511161277b5760405180602001604052806000815250611cfc565b8061278584613ed7565b60405160200161279692919061546f565b604051602081830303815290604052915050919050565b6127bf816127ba84610f8c565b613894565b90506112453383836138ac565b6000601d54601c546127de91906157d5565b4211156128be5760006127ef613ff1565b6001600160a01b0316632922fc916040518163ffffffff1660e01b815260040160206040518083038186803b15801561282757600080fd5b505afa15801561283b573d6000803e3d6000fd5b505050506040513d601f19601f8201168201806040525081019061285f91906151fe565b90506000601c54426128719190615820565b90506127106301e133808284601b5461288a9190615801565b6128949190615801565b61289e91906157ed565b6128a891906157ed565b601b546128b591906157d5565b92505050610d07565b50601b54610d07565b6060600c805480602002602001604051908101604052809291908181526020018280548015610cff576020028201919060005260206000209081548152602001906001019080831161174d575050505050905090565b6129486040518060800160405280600081526020016000815260200160008152602001600081525090565b6001600160a01b038216600090815260166020526040812090612973848261296e613634565b614029565b60408051608081018252855481526002860154602082015260019095015490850152606084015250909392505050565b600260125414156129c65760405162461bcd60e51b8152600401610c3d90615702565b60026012556129d63383836137ba565b50506001601255565b6129e7614176565b6001600160a01b031663e670309c6040518163ffffffff1660e01b81526004016040805180830381600087803b158015612a2057600080fd5b505af1158015612a34573d6000803e3d6000fd5b505050506040513d601f19601f82011682018060405250810190612a5891906151b3565b50565b6060600f805480602002602001604051908101604052809291908181526020018280548015610cff576020028201919060005260206000209081548152602001906001019080831161174d575050505050905090565b6001600160a01b03918216600090815260056020908152604080832093909416825291909152205460ff1690565b6000612ae96136d7565b600083815260136020526040908190205490516316a665e160e01b81526001600160a01b03928316926316a665e192612b279291169060040161549e565b60206040518083038186803b158015612b3f57600080fd5b505afa158015612b53573d6000803e3d6000fd5b505050506040513d601f19601f82011682018060405250810190610c129190614dcb565b33612b806139c9565b6001600160a01b03161480612ba4575033612b99613a5c565b6001600160a01b0316145b612bc05760405162461bcd60e51b8152600401610c3d906155b2565b6001600160a01b03821660008181526016602090815260409182902060010184905581516060808252600c908201526b66656573207065722031306b60a01b60808201529081019290925281018290526000805160206159638339815191529060a001612256565b6000806000612c388686866141ae565b92509250925093509350939050565b336000908152600b602090815260408083206001845290915290205460ff16612caf5760405162461bcd60e51b815260206004820152601a6024820152792ab730baba3437b934bd32b210333ab732103a3930b739b332b960311b6044820152606401610c3d565b610f878383836137ba565b6000610c1282610869613634565b600060026012541415612ced5760405162461bcd60e51b8152600401610c3d90615702565b6002601255612cfc33856113f4565b612d485760405162461bcd60e51b815260206004820181905260248201527f6e6f7420617574686f72697a656420746f207769746864726177207969656c646044820152606401610c3d565b612d53848484613bdf565b6001601255949350505050565b600080600080600080612d748989896141ae565b9250925092506000612d858a610f8c565b905083818411612d96576000612da0565b612da08285615820565b909b909a50919850909650505050505050565b6000612dbe82612adf565b6001600160a01b031663fabee7db836040518263ffffffff1660e01b8152600401612b2791815260200190565b60008281526013602052604080822054905163fd80d0c360e01b81526001600160a01b0390911690819063fd80d0c390612e2b9087908790600401615748565b60206040518083038186803b158015612e4357600080fd5b505afa158015612e57573d6000803e3d6000fd5b505050506040513d601f19601f820116820180604052508101906114b291906151fe565b6000818152601460205260408120606091612e9582614254565b9050806001600160401b03811115612ebd57634e487b7160e01b600052604160045260246000fd5b604051908082528060200260200182016040528015612ef657816020015b612ee3614cff565b815260200190600190039081612edb5790505b50925060005b80821115612f4f57612f11610586848361425e565b848281518110612f3157634e487b7160e01b600052603260045260246000fd5b60200260200101819052508080612f4790615898565b915050612efc565b505050919050565b60006001600160e01b031982166380ac58cd60e01b1480612f8857506001600160e01b03198216635b5e139f60e01b145b80610c1257506301ffc9a760e01b6001600160e01b0319831614610c12565b6000612fb16136d7565b6001600160a01b031663b4d69757866040518263ffffffff1660e01b8152600401612fdc919061549e565b60206040518083038186803b158015612ff457600080fd5b505afa158015613008573d6000803e3d6000fd5b505050506040513d601f19601f8201168201806040525081019061302c919061515f565b6130485760405162461bcd60e51b8152600401610c3d906156d3565b613050614176565b6001600160a01b031663ff1883486040518163ffffffff1660e01b8152600401602060405180830381600087803b15801561308a57600080fd5b505af115801561309e573d6000803e3d6000fd5b505050506040513d601f19601f820116820180604052508101906130c291906151fe565b600081815260136020908152604080832080546001600160a01b0319166001600160a01b038b161790556010909152902087905590506131018461426a565b61312d87828860405160200161311991815260200190565b6040516020818303038152906040526142c7565b60405163b832799360e01b81526001600160a01b038881166004830152602482018390528581166044830152606482018590526084820184905286169063b83279939060a401600060405180830381600087803b15801561318d57600080fd5b505af11580156131a1573d6000803e3d6000fd5b505050506131ae81613d50565b9695505050505050565b6131c183613acd565b8115610f875760006131d28461180b565b60405163fabee7db60e01b8152600481018690529091506000906001600160a01b0383169063fabee7db9060240160206040518083038186803b15801561321857600080fd5b505afa15801561322c573d6000803e3d6000fd5b505050506040513d601f19601f820116820180604052508101906132509190614dcb565b6001600160a01b03811660009081526016602052604081206001015491925061271061327c8784615801565b61328691906157ed565b905061329281876157d5565b600088815260176020526040812080549091906132b09084906157d5565b90915550506001600160a01b03831660009081526016602052604090206132d782886157d5565b8160020160008282546132ea91906157d5565b909155506132fa905082886157d5565b6019600082825461330b91906157d5565b909155505060028101548154101561335d5760405162461bcd60e51b815260206004820152601560248201527445786365656465642064656274206365696c696e6760581b6044820152606401610c3d565b81601e600082825461336f91906157d5565b9091555060009050613380896142fa565b905061339587613390838b6157d5565b61366c565b505050505050505050565b6000908152600260205260409020546001600160a01b0316151590565b600081815260046020526040902080546001600160a01b0319166001600160a01b03841690811790915581906133f282611ab5565b6001600160a01b03167f8c5be1e5ebec7d5bd14f71427d1e84f3dd0314c0f7b2291e5b200ac8c7c3b92560405160405180910390a45050565b6001600160a01b0382166000908152600b602090815260408083206005845290915281205460ff1680611cfc5750611cfc8383614503565b826001600160a01b031661347682611ab5565b6001600160a01b0316146134de5760405162461bcd60e51b815260206004820152602960248201527f4552433732313a207472616e73666572206f6620746f6b656e2074686174206960448201526839903737ba1037bbb760b91b6064820152608401610c3d565b6001600160a01b0382166135405760405162461bcd60e51b8152602060048201526024808201527f4552433732313a207472616e7366657220746f20746865207a65726f206164646044820152637265737360e01b6064820152608401610c3d565b61354b8383836145c5565b6135566000826133bd565b6001600160a01b038316600090815260036020526040812080546001929061357f908490615820565b90915550506001600160a01b03821660009081526003602052604081208054600192906135ad9084906157d5565b909155505060008181526002602052604080822080546001600160a01b0319166001600160a01b03868116918217909255915184939187169160008051602061594383398151915291a4505050565b606a600052600a6020527f491b44bb09274615d8e6106c97407042cd450d5681088027db2063ed5a7dd28c546001600160a01b031690565b6066600052600a6020527fa14e2711982fc1118598487104d6aa6aaca777a0683d64683335f0e52c01f75a546001600160a01b031690565b613674613634565b6001600160a01b03166340c10f1983836040518363ffffffff1660e01b81526004016136a19291906154ff565b600060405180830381600087803b1580156136bb57600080fd5b505af11580156136cf573d6000803e3d6000fd5b505050505050565b6068600052600a6020527f66b303669408d9c94249bd0aec443a05560d12df25504863342dfebd1199324c546001600160a01b031690565b60405163459ba12760e01b8152600481018790526001600160a01b0386811660248301528481166044830152606482018490526084820183905285169063459ba1279060a401600060405180830381600087803b15801561376f57600080fd5b505af1158015613783573d6000803e3d6000fd5b5050506000968752505060136020525050604090922080546001600160a01b0319166001600160a01b039093169290921790915550565b60006137c58361180b565b9050806001600160a01b031663a50233c98585856137e288611ab5565b60405160e086901b6001600160e01b03191681526001600160a01b039485166004820152602481019390935260448301919091529091166064820152608401600060405180830381600087803b15801561383b57600080fd5b505af115801561384f573d6000803e3d6000fd5b5050505061263783613d50565b61386584613acd565b8215612637576000613876856142fa565b9050801561388857613888828261366c565b611e0f85858585614682565b6000818311156138a5575080610c12565b5081610c12565b6138b582613acd565b8015610f87576138c58382614753565b600082815260176020526040812080548392906138e3908490615820565b90915550600090506138f48361180b565b60405163fabee7db60e01b8152600481018590529091506000906001600160a01b0383169063fabee7db9060240160206040518083038186803b15801561393a57600080fd5b505afa15801561394e573d6000803e3d6000fd5b505050506040513d601f19601f820116820180604052508101906139729190614dcb565b6001600160a01b038116600090815260166020526040812060028101805493945090928692906139a3908490615820565b9250508190555083601960008282546139bc9190615820565b9091555050505050505050565b60007f00000000000000000000000000000000000000000000000000000000000000006001600160a01b0316638da5cb5b6040518163ffffffff1660e01b815260040160206040518083038186803b158015613a2457600080fd5b505afa158015613a38573d6000803e3d6000fd5b505050506040513d601f19601f820116820180604052508101906110079190614dcb565b60007f00000000000000000000000000000000000000000000000000000000000000006001600160a01b031663c34c08e56040518163ffffffff1660e01b8152600401602060405180830381600087803b158015613ab957600080fd5b505af1158015613a38573d6000803e3d6000fd5b6000613ad7614788565b6000838152601860205260409020549091508015613b25576000838152601760205260409020548190613b0b908490615801565b613b1591906157ed565b6000848152601760205260409020555b5060009182526018602052604090912055565b600080600080613b478861180b565b604051638496e89160e01b81529091506001600160a01b03821690638496e89190613b7c908b908b908b908b9060040161577e565b606060405180830381600087803b158015613b9657600080fd5b505af1158015613baa573d6000803e3d6000fd5b505050506040513d601f19601f82011682018060405250810190613bce919061537a565b935093509350509450945094915050565b600080613beb8561180b565b90506000816001600160a01b031663f8903fb78787876040518463ffffffff1660e01b8152600401613c1f9392919061575f565b602060405180830381600087803b158015613c3957600080fd5b505af1158015613c4d573d6000803e3d6000fd5b505050506040513d601f19601f82011682018060405250810190613c7191906151fe565b9050613c7c86613d50565b95945050505050565b816001600160a01b0316836001600160a01b03161415613ce35760405162461bcd60e51b815260206004820152601960248201527822a9219b99189d1030b8383937bb32903a379031b0b63632b960391b6044820152606401610c3d565b6001600160a01b03838116600081815260056020908152604080832094871680845294825291829020805460ff191686151590811790915591519182527f17307eab39ab6107e8899845ad3d59bd9653f200f220920489ca2b5937696c31910160405180910390a3505050565b613d82816014600060155442613d6691906157ed565b815260200190815260200160002061484990919063ffffffff16565b5060405181907f416412a7d0788b77945ea2e2702f6edbb3fc8eabc407ed7b4132ab948a6962c190600090a250565b600080613dbd83611ab5565b90506001600160a01b0381163b15613e5f5760008381526010602052604090819020549051632c97897d60e21b815282916001600160a01b0383169163b25e25f491613e0f9160040190815260200190565b60206040518083038186803b158015613e2757600080fd5b505afa158015613e3b573d6000803e3d6000fd5b505050506040513d601f19601f82011682018060405250810190610fd5919061515f565b6001915050610be8565b6000613e7785612710615801565b82613e8286866157d5565b613e8c9190615801565b101595945050505050565b613ea384848484614855565b805115613ece5780806020019051810190613ebe91906151fe565b6000838152601060205260409020555b61263782613d50565b606081613efc57506040805180820190915260018152600360fc1b6020820152610be8565b8160005b8115613f265780613f1081615898565b9150613f1f9050600a836157ed565b9150613f00565b6000816001600160401b03811115613f4e57634e487b7160e01b600052604160045260246000fd5b6040519080825280601f01601f191660200182016040528015613f78576020820181803683370190505b5090505b84156114b257613f8d600183615820565b9150613f9a600a866158b3565b613fa59060306157d5565b60f81b818381518110613fc857634e487b7160e01b600052603260045260246000fd5b60200101906001600160f81b031916908160001a905350613fea600a866157ed565b9450613f7c565b6076600052600a6020527f570e3815859647fab42c3bdb27d6e9aae620310d730dd5a3e6f194b444d4de48546001600160a01b031690565b6001600160a01b03808416600090815260116020908152604080832085851684529091528120549091829116806140e2576140626135fc565b6001600160a01b0316635e73a03487866040518363ffffffff1660e01b815260040161408f9291906154b2565b60206040518083038186803b1580156140a757600080fd5b505afa1580156140bb573d6000803e3d6000fd5b505050506040513d601f19601f820116820180604052508101906140df9190614dcb565b90505b6040516313f3552960e21b81526001600160a01b038781166004830152602482018790528581166044830152821690634fcd54a490606401604080518083038186803b15801561413157600080fd5b505afa158015614145573d6000803e3d6000fd5b505050506040513d601f19601f820116820180604052508101906141699190615329565b9097909650945050505050565b6069600052600a6020527fe4e9675aa3466ea9ab37f11eba586a16aaf52d4293b57ad72d46715c0e7a4575546001600160a01b031690565b600083815260136020526040808220549051637d4c525d60e11b8152829182916001600160a01b0390911690819063fa98a4ba906141f4908a908a908a9060040161575f565b60606040518083038186803b15801561420c57600080fd5b505afa158015614220573d6000803e3d6000fd5b505050506040513d601f19601f82011682018060405250810190614244919061537a565b9350935093505093509350939050565b6000610c12825490565b6000611cfc8383614888565b6001600160a01b038116600090815260166020526040902054612a585760405162461bcd60e51b8152602060048201526015602482015274151bdad95b881b9bdd081dda1a5d195b1a5cdd1959605a1b6044820152606401610c3d565b6142d183836148c0565b6142de60008484846149ec565b610f875760405162461bcd60e51b8152600401610c3d906155fc565b60008181526017602052604081205481614312613634565b9050600080600061432587858630613b38565b92509250925061433785848484613e69565b61437f5760405162461bcd60e51b8152602060048201526019602482015278426f726f7720627265616b73206d696e20636f6c726174696f60381b6044820152606401610c3d565b600061438a8861180b565b60405163fabee7db60e01b8152600481018a90529091506000906001600160a01b0383169063fabee7db9060240160206040518083038186803b1580156143d057600080fd5b505afa1580156143e4573d6000803e3d6000fd5b505050506040513d601f19601f820116820180604052508101906144089190614dcb565b90508685111561447f5760008981526017602052604081205561442b8786615820565b6001600160a01b03821660009081526016602052604081206002018054929a50899290919061445b908490615820565b9250508190555086601960008282546144749190615820565b909155506144e79050565b6144898588615820565b60008a8152601760209081526040808320939093556001600160a01b038416825260169052908120600201805491995086918a906144c8908490615820565b9250508190555084601960008282546144e19190615820565b90915550505b84156144f7576144f73086614753565b50505050505050919050565b600061450e826133a0565b61456f5760405162461bcd60e51b815260206004820152602c60248201527f4552433732313a206f70657261746f7220717565727920666f72206e6f6e657860448201526b34b9ba32b73a103a37b5b2b760a11b6064820152608401610c3d565b600061457a83611ab5565b9050806001600160a01b0316846001600160a01b031614806145b55750836001600160a01b03166145aa84610dd0565b6001600160a01b0316145b806114b257506114b28185612ab1565b6001600160a01b0383166146205761461b81600880546000838152600960205260408120829055600182018355919091527ff3f7a9fe364faab93b216da50a3214154f22a0a2b415b23a84c8169e8b636ee30155565b614643565b816001600160a01b0316836001600160a01b031614614643576146438382614af6565b6001600160a01b03821661465f5761465a81614b93565b610f87565b826001600160a01b0316826001600160a01b031614610f8757610f878282614c6c565b600061468d8561180b565b6040516338d98bbd60e11b815260048101879052602481018690526001600160a01b0385811660448301528481166064830152919250908216906371b3177a90608401600060405180830381600087803b1580156146ea57600080fd5b505af11580156146fe573d6000803e3d6000fd5b5050505061470b8561255b565b61474a5760405162461bcd60e51b815260206004820152601060248201526f5472616e63686520756e766961626c6560801b6044820152606401610c3d565b611e0f85613d50565b61475b613634565b6001600160a01b0316639dc29fac83836040518363ffffffff1660e01b81526004016136a19291906154ff565b6000614792613ff1565b6001600160a01b031663c7fee63e6040518163ffffffff1660e01b8152600401600060405180830381600087803b1580156147cc57600080fd5b505af11580156147e0573d6000803e3d6000fd5b5050505060006147ee6127cc565b9050601b5481111561100757601954601b5461480a8383615801565b61481491906157ed565b6019819055614824908290615820565b601a600082825461483591906157d5565b909155505050601b81905542601c55905090565b6000611cfc8383614cb0565b614860848484613463565b61486c848484846149ec565b6126375760405162461bcd60e51b8152600401610c3d906155fc565b60008260000182815481106148ad57634e487b7160e01b600052603260045260246000fd5b9060005260206000200154905092915050565b6001600160a01b0382166149165760405162461bcd60e51b815260206004820181905260248201527f4552433732313a206d696e7420746f20746865207a65726f20616464726573736044820152606401610c3d565b61491f816133a0565b1561496b5760405162461bcd60e51b815260206004820152601c60248201527b115490cdcc8c4e881d1bdad95b88185b1c9958591e481b5a5b9d195960221b6044820152606401610c3d565b614977600083836145c5565b6001600160a01b03821660009081526003602052604081208054600192906149a09084906157d5565b909155505060008181526002602052604080822080546001600160a01b0319166001600160a01b0386169081179091559051839290600080516020615943833981519152908290a45050565b60006001600160a01b0384163b15614aee57604051630a85bd0160e11b81526001600160a01b0385169063150b7a0290614a309033908990889088906004016154cc565b602060405180830381600087803b158015614a4a57600080fd5b505af1925050508015614a7a575060408051601f3d908101601f19168201909252614a7791810190615197565b60015b614ad4573d808015614aa8576040519150601f19603f3d011682016040523d82523d6000602084013e614aad565b606091505b508051614acc5760405162461bcd60e51b8152600401610c3d906155fc565b805181602001fd5b6001600160e01b031916630a85bd0160e11b1490506114b2565b5060016114b2565b60006001614b0384611b4d565b614b0d9190615820565b600083815260076020526040902054909150808214614b60576001600160a01b03841660009081526006602090815260408083208584528252808320548484528184208190558352600790915290208190555b5060009182526007602090815260408084208490556001600160a01b039094168352600681528383209183525290812055565b600854600090614ba590600190615820565b60008381526009602052604081205460088054939450909284908110614bdb57634e487b7160e01b600052603260045260246000fd5b906000526020600020015490508060088381548110614c0a57634e487b7160e01b600052603260045260246000fd5b6000918252602080832090910192909255828152600990915260408082208490558582528120556008805480614c5057634e487b7160e01b600052603160045260246000fd5b6001900381819060005260206000200160009055905550505050565b6000614c7783611b4d565b6001600160a01b039093166000908152600660209081526040808320868452825280832085905593825260079052919091209190915550565b6000818152600183016020526040812054614cf757508154600181810184556000848152602080822090930184905584548482528286019093526040902091909155610c12565b506000610c12565b6040518061012001604052806000815260200160006001600160a01b03168152602001600081526020016000815260200160006001600160a01b0316815260200160008152602001600081526020016000815260200160006001600160a01b031681525090565b60008083601f840112614d77578081fd5b5081356001600160401b03811115614d8d578182fd5b6020830191508360208260051b8501011115614da857600080fd5b9250929050565b600060208284031215614dc0578081fd5b8135611cfc81615909565b600060208284031215614ddc578081fd5b8151611cfc81615909565b60008060408385031215614df9578081fd5b8235614e0481615909565b91506020830135614e1481615909565b809150509250929050565b600080600060608486031215614e33578081fd5b8335614e3e81615909565b92506020840135614e4e81615909565b929592945050506040919091013590565b60008060008060808587031215614e74578081fd5b8435614e7f81615909565b9350602085810135614e9081615909565b93506040860135925060608601356001600160401b0380821115614eb2578384fd5b818801915088601f830112614ec5578384fd5b813581811115614ed757614ed76158f3565b614ee9601f8201601f191685016157a5565b91508082528984828501011115614efe578485fd5b8084840185840137810190920192909252939692955090935050565b600080600080600060a08688031215614f31578081fd5b8535614f3c81615909565b94506020860135614f4c81615909565b935060408601359250606086013591506080860135614f6a81615909565b809150509295509295909350565b60008060408385031215614f8a578182fd5b8235614f9581615909565b91506020830135614e148161591e565b60008060408385031215614fb7578182fd5b8235614fc281615909565b946020939093013593505050565b600080600060608486031215614fe4578283fd5b8335614fef81615909565b95602085013595506040909401359392505050565b600080600060608486031215615018578283fd5b835161502381615909565b602085015160409095015190969495509392505050565b60008060006040848603121561504e578081fd5b83356001600160401b03811115615063578182fd5b61506f86828701614d66565b909450925050602084013561508381615909565b809150509250925092565b600080600080606085870312156150a3578182fd5b84356001600160401b038111156150b8578283fd5b6150c487828801614d66565b90955093505060208501356150d881615909565b915060408501356150e881615909565b939692955090935050565b60008060008060006080868803121561510a578283fd5b85356001600160401b0381111561511f578384fd5b61512b88828901614d66565b909650945050602086013561513f81615909565b9250604086013561514f81615909565b91506060860135614f6a81615909565b600060208284031215615170578081fd5b8151611cfc8161591e565b60006020828403121561518c578081fd5b8135611cfc8161592c565b6000602082840312156151a8578081fd5b8151611cfc8161592c565b6000604082840312156151c4578081fd5b6151ce60406157a5565b82518152602083015160208201528091505092915050565b6000602082840312156151f7578081fd5b5035919050565b60006020828403121561520f578081fd5b5051919050565b60008060408385031215615228578182fd5b823591506020830135614e1481615909565b60008060006060848603121561524e578081fd5b83359250602084013561526081615909565b9150604084013561508381615909565b60008060008060808587031215615285578182fd5b84359350602085013561529781615909565b925060408501356152a781615909565b915060608501356150e881615909565b600080600080600060a086880312156152ce578283fd5b8535945060208601356152e081615909565b935060408601356152f081615909565b94979396509394606081013594506080013592915050565b6000806040838503121561531a578182fd5b50508035926020909101359150565b6000806040838503121561533b578182fd5b505080516020909101519092909150565b60008060008060808587031215615361578182fd5b843593506020850135925060408501356152a781615909565b60008060006060848603121561538e578081fd5b8351925060208401519150604084015190509250925092565b600080600080608085870312156153bc578182fd5b84359350602085013592506040850135915060608501356150e881615909565b600081518084526153f4816020860160208601615837565b601f01601f19169290920160200192915050565b805182526020808201516001600160a01b0390811691840191909152604080830151908401526060808301519084015260808083015182169084015260a0808301519084015260c0808301519084015260e080830151908401526101009182015116910152565b60008351615481818460208801615837565b835190830190615495818360208801615837565b01949350505050565b6001600160a01b0391909116815260200190565b6001600160a01b0392831681529116602082015260400190565b6001600160a01b03858116825284166020820152604081018390526080606082018190526000906131ae908301846153dc565b6001600160a01b03929092168252602082015260400190565b6020808252825182820181905260009190848201906040850190845b8181101561555b57615547838551615408565b928401926101209290920191600101615534565b50909695505050505050565b6020808252825182820181905260009190848201906040850190845b8181101561555b57835183529284019291840191600101615583565b600060208252611cfc60208301846153dc565b6020808252602a908201527f526f6c65733a2063616c6c6572206973206e6f7420746865206f776e6572206f604082015269391032bc32b1baba37b960b11b606082015260800190565b60208082526032908201527f4552433732313a207472616e7366657220746f206e6f6e20455243373231526560408201527131b2b4bb32b91034b6b83632b6b2b73a32b960711b606082015260800190565b6020808252601a90820152796e6f7420617574686f72697a656420746f20776974686472617760301b604082015260600190565b60208082526031908201527f4552433732313a207472616e736665722063616c6c6572206973206e6f74206f6040820152701ddb995c881b9bdc88185c1c1c9bdd9959607a1b606082015260800190565b60208082526015908201527414dd1c985d1959de481b9bdd08185c1c1c9bdd9959605a1b604082015260600190565b6020808252601f908201527f5265656e7472616e637947756172643a207265656e7472616e742063616c6c00604082015260600190565b6101208101610c128284615408565b9182526001600160a01b0316602082015260400190565b9283526001600160a01b03918216602084015216604082015260600190565b9384526001600160a01b039283166020850152908216604084015216606082015260800190565b604051601f8201601f191681016001600160401b03811182821017156157cd576157cd6158f3565b604052919050565b600082198211156157e8576157e86158c7565b500190565b6000826157fc576157fc6158dd565b500490565b600081600019048311821515161561581b5761581b6158c7565b500290565b600082821015615832576158326158c7565b500390565b60005b8381101561585257818101518382015260200161583a565b838111156126375750506000910152565b600181811c9082168061587757607f821691505b602082108114156125ff57634e487b7160e01b600052602260045260246000fd5b60006000198214156158ac576158ac6158c7565b5060010190565b6000826158c2576158c26158dd565b500690565b634e487b7160e01b600052601160045260246000fd5b634e487b7160e01b600052601260045260246000fd5b634e487b7160e01b600052604160045260246000fd5b6001600160a01b0381168114612a5857600080fd5b8015158114612a5857600080fd5b6001600160e01b031981168114612a5857600080fdfeddf252ad1be2c89b69c2b068fc378daa952ba7f163c4a11628f55a4df523b3ef2cc0b19d71980380c7a99113dc265ee16b9f7f394e2a42085ab6877482a7f822a264697066735822122072cc50bd162758aeac120fc00f681398613b2829006bc2614a97cd35ded2e5c164736f6c63430008030033",
  "linkReferences": {},
  "deployedLinkReferences": {}
}