{
  "_format": "hh-sol-artifact-1",
  "contractName": "LiquidYieldStrategy",
  "sourceName": "contracts/strategies/LiquidYieldStrategy.sol",
  "abi": [
    {
      "inputs": [
        {
          "internalType": "address",
          "name": "_sAvax",
          "type": "address"
        },
        {
          "internalType": "address",
          "name": "_msAvax",
          "type": "address"
        },
        {
          "internalType": "address",
          "name": "_mAvax",
          "type": "address"
        },
        {
          "internalType": "address",
          "name": "_wrappedNative",
          "type": "address"
        },
        {
          "internalType": "address[]",
          "name": "initialRewardTokens",
          "type": "address[]"
        },
        {
          "internalType": "address",
          "name": "_roles",
          "type": "address"
        }
      ],
      "stateMutability": "nonpayable",
      "type": "constructor"
    },
    {
      "anonymous": false,
      "inputs": [
        {
          "indexed": false,
          "internalType": "string",
          "name": "param",
          "type": "string"
        },
        {
          "indexed": false,
          "internalType": "uint256",
          "name": "value",
          "type": "uint256"
        }
      ],
      "name": "ParameterUpdated",
      "type": "event"
    },
    {
      "anonymous": false,
      "inputs": [
        {
          "indexed": false,
          "internalType": "string",
          "name": "param",
          "type": "string"
        },
        {
          "indexed": false,
          "internalType": "address",
          "name": "subject",
          "type": "address"
        },
        {
          "indexed": false,
          "internalType": "uint256",
          "name": "value",
          "type": "uint256"
        }
      ],
      "name": "SubjectParameterUpdated",
      "type": "event"
    },
    {
      "anonymous": false,
      "inputs": [
        {
          "indexed": false,
          "internalType": "string",
          "name": "param",
          "type": "string"
        },
        {
          "indexed": false,
          "internalType": "address",
          "name": "subject",
          "type": "address"
        }
      ],
      "name": "SubjectUpdated",
      "type": "event"
    },
    {
      "stateMutability": "payable",
      "type": "fallback"
    },
    {
      "inputs": [
        {
          "internalType": "uint256",
          "name": "",
          "type": "uint256"
        }
      ],
      "name": "_accounts",
      "outputs": [
        {
          "internalType": "uint256",
          "name": "collateral",
          "type": "uint256"
        },
        {
          "internalType": "uint256",
          "name": "yieldCheckptIdx",
          "type": "uint256"
        },
        {
          "internalType": "address",
          "name": "trancheToken",
          "type": "address"
        }
      ],
      "stateMutability": "view",
      "type": "function"
    },
    {
      "inputs": [
        {
          "internalType": "uint256",
          "name": "",
          "type": "uint256"
        }
      ],
      "name": "_charactersPlayed",
      "outputs": [
        {
          "internalType": "uint256",
          "name": "",
          "type": "uint256"
        }
      ],
      "stateMutability": "view",
      "type": "function"
    },
    {
      "inputs": [
        {
          "internalType": "uint256",
          "name": "",
          "type": "uint256"
        }
      ],
      "name": "_dependsOnCharacters",
      "outputs": [
        {
          "internalType": "uint256",
          "name": "",
          "type": "uint256"
        }
      ],
      "stateMutability": "view",
      "type": "function"
    },
    {
      "inputs": [
        {
          "internalType": "uint256",
          "name": "",
          "type": "uint256"
        }
      ],
      "name": "_dependsOnRoles",
      "outputs": [
        {
          "internalType": "uint256",
          "name": "",
          "type": "uint256"
        }
      ],
      "stateMutability": "view",
      "type": "function"
    },
    {
      "inputs": [
        {
          "internalType": "address",
          "name": "",
          "type": "address"
        },
        {
          "internalType": "address",
          "name": "",
          "type": "address"
        }
      ],
      "name": "_oracleCache",
      "outputs": [
        {
          "internalType": "address",
          "name": "",
          "type": "address"
        }
      ],
      "stateMutability": "view",
      "type": "function"
    },
    {
      "inputs": [
        {
          "internalType": "uint256",
          "name": "",
          "type": "uint256"
        }
      ],
      "name": "_rolesPlayed",
      "outputs": [
        {
          "internalType": "uint256",
          "name": "",
          "type": "uint256"
        }
      ],
      "stateMutability": "view",
      "type": "function"
    },
    {
      "inputs": [
        {
          "internalType": "address",
          "name": "token",
          "type": "address"
        }
      ],
      "name": "_viewTVL",
      "outputs": [
        {
          "internalType": "uint256",
          "name": "",
          "type": "uint256"
        }
      ],
      "stateMutability": "view",
      "type": "function"
    },
    {
      "inputs": [
        {
          "internalType": "uint256",
          "name": "trancheId",
          "type": "uint256"
        },
        {
          "internalType": "address",
          "name": "sourceStrategy",
          "type": "address"
        },
        {
          "internalType": "address",
          "name": "tokenContract",
          "type": "address"
        },
        {
          "internalType": "uint256",
          "name": "",
          "type": "uint256"
        },
        {
          "internalType": "uint256",
          "name": "amount",
          "type": "uint256"
        }
      ],
      "name": "acceptMigration",
      "outputs": [],
      "stateMutability": "nonpayable",
      "type": "function"
    },
    {
      "inputs": [
        {
          "internalType": "address",
          "name": "yieldBearingToken",
          "type": "address"
        },
        {
          "internalType": "address",
          "name": "rewardToken",
          "type": "address"
        }
      ],
      "name": "addRewardToken",
      "outputs": [],
      "stateMutability": "nonpayable",
      "type": "function"
    },
    {
      "inputs": [],
      "name": "apfSmoothingPer10k",
      "outputs": [
        {
          "internalType": "uint256",
          "name": "",
          "type": "uint256"
        }
      ],
      "stateMutability": "view",
      "type": "function"
    },
    {
      "inputs": [
        {
          "internalType": "address",
          "name": "token",
          "type": "address"
        },
        {
          "internalType": "bytes",
          "name": "data",
          "type": "bytes"
        }
      ],
      "name": "approveToken",
      "outputs": [],
      "stateMutability": "nonpayable",
      "type": "function"
    },
    {
      "inputs": [
        {
          "internalType": "address",
          "name": "token",
          "type": "address"
        }
      ],
      "name": "approvedToken",
      "outputs": [
        {
          "internalType": "bool",
          "name": "",
          "type": "bool"
        }
      ],
      "stateMutability": "view",
      "type": "function"
    },
    {
      "inputs": [],
      "name": "approvedTokensCount",
      "outputs": [
        {
          "internalType": "uint256",
          "name": "",
          "type": "uint256"
        }
      ],
      "stateMutability": "view",
      "type": "function"
    },
    {
      "inputs": [
        {
          "internalType": "contract IERC20",
          "name": "",
          "type": "address"
        },
        {
          "internalType": "address",
          "name": "",
          "type": "address"
        }
      ],
      "name": "assetYieldMeta",
      "outputs": [
        {
          "internalType": "uint256",
          "name": "cumulConvCheckpt",
          "type": "uint256"
        },
        {
          "internalType": "uint256",
          "name": "rewardsSinceCheckpt",
          "type": "uint256"
        }
      ],
      "stateMutability": "view",
      "type": "function"
    },
    {
      "inputs": [],
      "name": "charactersPlayed",
      "outputs": [
        {
          "internalType": "uint256[]",
          "name": "",
          "type": "uint256[]"
        }
      ],
      "stateMutability": "view",
      "type": "function"
    },
    {
      "inputs": [
        {
          "internalType": "address",
          "name": "token",
          "type": "address"
        }
      ],
      "name": "checkApprovedAndEncode",
      "outputs": [
        {
          "internalType": "bool",
          "name": "",
          "type": "bool"
        },
        {
          "internalType": "bytes",
          "name": "",
          "type": "bytes"
        }
      ],
      "stateMutability": "view",
      "type": "function"
    },
    {
      "inputs": [
        {
          "internalType": "uint256",
          "name": "trancheId",
          "type": "uint256"
        },
        {
          "internalType": "address",
          "name": "currency",
          "type": "address"
        },
        {
          "internalType": "address",
          "name": "recipient",
          "type": "address"
        }
      ],
      "name": "collectYield",
      "outputs": [
        {
          "internalType": "uint256",
          "name": "",
          "type": "uint256"
        }
      ],
      "stateMutability": "nonpayable",
      "type": "function"
    },
    {
      "inputs": [
        {
          "internalType": "uint256",
          "name": "trancheId",
          "type": "uint256"
        },
        {
          "internalType": "address",
          "name": "_yieldCurrency",
          "type": "address"
        },
        {
          "internalType": "address",
          "name": "valueCurrency",
          "type": "address"
        },
        {
          "internalType": "address",
          "name": "recipient",
          "type": "address"
        }
      ],
      "name": "collectYieldValueBorrowable",
      "outputs": [
        {
          "internalType": "uint256",
          "name": "yield",
          "type": "uint256"
        },
        {
          "internalType": "uint256",
          "name": "value",
          "type": "uint256"
        },
        {
          "internalType": "uint256",
          "name": "borrowablePer10k",
          "type": "uint256"
        }
      ],
      "stateMutability": "nonpayable",
      "type": "function"
    },
    {
      "inputs": [
        {
          "internalType": "contract IERC20",
          "name": "rewardToken",
          "type": "address"
        },
        {
          "internalType": "uint256",
          "name": "rewardAmount",
          "type": "uint256"
        },
        {
          "internalType": "uint256",
          "name": "targetBid",
          "type": "uint256"
        }
      ],
      "name": "convertReward2Stable",
      "outputs": [],
      "stateMutability": "nonpayable",
      "type": "function"
    },
    {
      "inputs": [],
      "name": "dependsOnCharacters",
      "outputs": [
        {
          "internalType": "uint256[]",
          "name": "",
          "type": "uint256[]"
        }
      ],
      "stateMutability": "view",
      "type": "function"
    },
    {
      "inputs": [],
      "name": "dependsOnRoles",
      "outputs": [
        {
          "internalType": "uint256[]",
          "name": "",
          "type": "uint256[]"
        }
      ],
      "stateMutability": "view",
      "type": "function"
    },
    {
      "inputs": [
        {
          "internalType": "address",
          "name": "token",
          "type": "address"
        },
        {
          "internalType": "bytes",
          "name": "",
          "type": "bytes"
        }
      ],
      "name": "disapproveToken",
      "outputs": [],
      "stateMutability": "nonpayable",
      "type": "function"
    },
    {
      "inputs": [],
      "name": "disapprovedTokensCount",
      "outputs": [
        {
          "internalType": "uint256",
          "name": "",
          "type": "uint256"
        }
      ],
      "stateMutability": "view",
      "type": "function"
    },
    {
      "inputs": [],
      "name": "feePer10k",
      "outputs": [
        {
          "internalType": "uint256",
          "name": "",
          "type": "uint256"
        }
      ],
      "stateMutability": "view",
      "type": "function"
    },
    {
      "inputs": [
        {
          "internalType": "address",
          "name": "token",
          "type": "address"
        }
      ],
      "name": "harvestPartially",
      "outputs": [],
      "stateMutability": "nonpayable",
      "type": "function"
    },
    {
      "inputs": [],
      "name": "isActive",
      "outputs": [
        {
          "internalType": "bool",
          "name": "",
          "type": "bool"
        }
      ],
      "stateMutability": "view",
      "type": "function"
    },
    {
      "inputs": [],
      "name": "mAvax",
      "outputs": [
        {
          "internalType": "contract IERC20",
          "name": "",
          "type": "address"
        }
      ],
      "stateMutability": "view",
      "type": "function"
    },
    {
      "inputs": [
        {
          "internalType": "uint256",
          "name": "",
          "type": "uint256"
        }
      ],
      "name": "mainCharacterCache",
      "outputs": [
        {
          "internalType": "address",
          "name": "",
          "type": "address"
        }
      ],
      "stateMutability": "view",
      "type": "function"
    },
    {
      "inputs": [
        {
          "internalType": "address",
          "name": "destination",
          "type": "address"
        }
      ],
      "name": "migrateAllTo",
      "outputs": [],
      "stateMutability": "nonpayable",
      "type": "function"
    },
    {
      "inputs": [
        {
          "internalType": "uint256",
          "name": "trancheId",
          "type": "uint256"
        },
        {
          "internalType": "address",
          "name": "targetStrategy",
          "type": "address"
        },
        {
          "internalType": "address",
          "name": "yieldToken",
          "type": "address"
        },
        {
          "internalType": "address",
          "name": "yieldRecipient",
          "type": "address"
        }
      ],
      "name": "migrateStrategy",
      "outputs": [
        {
          "internalType": "address",
          "name": "",
          "type": "address"
        },
        {
          "internalType": "uint256",
          "name": "",
          "type": "uint256"
        },
        {
          "internalType": "uint256",
          "name": "",
          "type": "uint256"
        }
      ],
      "stateMutability": "nonpayable",
      "type": "function"
    },
    {
      "inputs": [],
      "name": "minimumBidPer10k",
      "outputs": [
        {
          "internalType": "uint256",
          "name": "",
          "type": "uint256"
        }
      ],
      "stateMutability": "view",
      "type": "function"
    },
    {
      "inputs": [],
      "name": "msAvax",
      "outputs": [
        {
          "internalType": "contract IERC20",
          "name": "",
          "type": "address"
        }
      ],
      "stateMutability": "view",
      "type": "function"
    },
    {
      "inputs": [
        {
          "internalType": "address",
          "name": "token",
          "type": "address"
        },
        {
          "internalType": "address",
          "name": "pegCurrency",
          "type": "address"
        }
      ],
      "name": "newCurrentOracle",
      "outputs": [],
      "stateMutability": "nonpayable",
      "type": "function"
    },
    {
      "inputs": [
        {
          "internalType": "contract IERC20",
          "name": "",
          "type": "address"
        },
        {
          "internalType": "uint256",
          "name": "",
          "type": "uint256"
        }
      ],
      "name": "pendingConvertedReward",
      "outputs": [
        {
          "internalType": "uint256",
          "name": "convertedStable",
          "type": "uint256"
        },
        {
          "internalType": "uint256",
          "name": "sourceRewards",
          "type": "uint256"
        }
      ],
      "stateMutability": "view",
      "type": "function"
    },
    {
      "inputs": [
        {
          "internalType": "address",
          "name": "depositor",
          "type": "address"
        },
        {
          "internalType": "uint256",
          "name": "trancheId",
          "type": "uint256"
        },
        {
          "internalType": "uint256",
          "name": "amount",
          "type": "uint256"
        },
        {
          "internalType": "address",
          "name": "yieldRecipient",
          "type": "address"
        }
      ],
      "name": "registerDepositFor",
      "outputs": [],
      "stateMutability": "nonpayable",
      "type": "function"
    },
    {
      "inputs": [
        {
          "internalType": "address",
          "name": "minter",
          "type": "address"
        },
        {
          "internalType": "uint256",
          "name": "trancheId",
          "type": "uint256"
        },
        {
          "internalType": "address",
          "name": "assetToken",
          "type": "address"
        },
        {
          "internalType": "uint256",
          "name": "",
          "type": "uint256"
        },
        {
          "internalType": "uint256",
          "name": "assetAmount",
          "type": "uint256"
        }
      ],
      "name": "registerMintTranche",
      "outputs": [],
      "stateMutability": "nonpayable",
      "type": "function"
    },
    {
      "inputs": [
        {
          "internalType": "address",
          "name": "yieldBearingToken",
          "type": "address"
        },
        {
          "internalType": "address",
          "name": "rewardToken",
          "type": "address"
        }
      ],
      "name": "removeRewardToken",
      "outputs": [],
      "stateMutability": "nonpayable",
      "type": "function"
    },
    {
      "inputs": [
        {
          "internalType": "address",
          "name": "token",
          "type": "address"
        },
        {
          "internalType": "uint256",
          "name": "amount",
          "type": "uint256"
        },
        {
          "internalType": "address",
          "name": "recipient",
          "type": "address"
        }
      ],
      "name": "rescueCollateral",
      "outputs": [],
      "stateMutability": "nonpayable",
      "type": "function"
    },
    {
      "inputs": [
        {
          "internalType": "uint256",
          "name": "amount",
          "type": "uint256"
        },
        {
          "internalType": "address",
          "name": "recipient",
          "type": "address"
        }
      ],
      "name": "rescueNative",
      "outputs": [],
      "stateMutability": "nonpayable",
      "type": "function"
    },
    {
      "inputs": [
        {
          "internalType": "address",
          "name": "token",
          "type": "address"
        },
        {
          "internalType": "uint256",
          "name": "amount",
          "type": "uint256"
        },
        {
          "internalType": "address",
          "name": "recipient",
          "type": "address"
        }
      ],
      "name": "rescueStrandedTokens",
      "outputs": [],
      "stateMutability": "nonpayable",
      "type": "function"
    },
    {
      "inputs": [
        {
          "internalType": "contract IERC20",
          "name": "",
          "type": "address"
        }
      ],
      "name": "rewardBalanceAccountedFor",
      "outputs": [
        {
          "internalType": "uint256",
          "name": "",
          "type": "uint256"
        }
      ],
      "stateMutability": "view",
      "type": "function"
    },
    {
      "inputs": [
        {
          "internalType": "address",
          "name": "",
          "type": "address"
        },
        {
          "internalType": "uint256",
          "name": "",
          "type": "uint256"
        }
      ],
      "name": "roleCache",
      "outputs": [
        {
          "internalType": "bool",
          "name": "",
          "type": "bool"
        }
      ],
      "stateMutability": "view",
      "type": "function"
    },
    {
      "inputs": [],
      "name": "roles",
      "outputs": [
        {
          "internalType": "contract Roles",
          "name": "",
          "type": "address"
        }
      ],
      "stateMutability": "view",
      "type": "function"
    },
    {
      "inputs": [],
      "name": "rolesPlayed",
      "outputs": [
        {
          "internalType": "uint256[]",
          "name": "",
          "type": "uint256[]"
        }
      ],
      "stateMutability": "view",
      "type": "function"
    },
    {
      "inputs": [
        {
          "internalType": "uint256",
          "name": "smoothing",
          "type": "uint256"
        }
      ],
      "name": "setApfSmoothingPer10k",
      "outputs": [],
      "stateMutability": "nonpayable",
      "type": "function"
    },
    {
      "inputs": [
        {
          "internalType": "uint256",
          "name": "fee",
          "type": "uint256"
        }
      ],
      "name": "setFeePer10k",
      "outputs": [],
      "stateMutability": "nonpayable",
      "type": "function"
    },
    {
      "inputs": [
        {
          "internalType": "uint256",
          "name": "bidmin",
          "type": "uint256"
        }
      ],
      "name": "setMinimumBidPer10k",
      "outputs": [],
      "stateMutability": "nonpayable",
      "type": "function"
    },
    {
      "inputs": [
        {
          "internalType": "address",
          "name": "",
          "type": "address"
        }
      ],
      "name": "stabilityFeePer10k",
      "outputs": [
        {
          "internalType": "uint256",
          "name": "",
          "type": "uint256"
        }
      ],
      "stateMutability": "view",
      "type": "function"
    },
    {
      "inputs": [],
      "name": "strategyName",
      "outputs": [
        {
          "internalType": "bytes32",
          "name": "",
          "type": "bytes32"
        }
      ],
      "stateMutability": "view",
      "type": "function"
    },
    {
      "inputs": [
        {
          "internalType": "address",
          "name": "token",
          "type": "address"
        }
      ],
      "name": "tallyHarvestBalance",
      "outputs": [
        {
          "internalType": "uint256",
          "name": "balance",
          "type": "uint256"
        }
      ],
      "stateMutability": "nonpayable",
      "type": "function"
    },
    {
      "inputs": [
        {
          "internalType": "contract IERC20",
          "name": "rewardToken",
          "type": "address"
        },
        {
          "internalType": "address",
          "name": "token",
          "type": "address"
        }
      ],
      "name": "tallyHarvestBalance",
      "outputs": [
        {
          "internalType": "uint256",
          "name": "balance",
          "type": "uint256"
        }
      ],
      "stateMutability": "nonpayable",
      "type": "function"
    },
    {
      "inputs": [
        {
          "internalType": "address",
          "name": "token",
          "type": "address"
        }
      ],
      "name": "tallyReward",
      "outputs": [],
      "stateMutability": "nonpayable",
      "type": "function"
    },
    {
      "inputs": [
        {
          "internalType": "contract IERC20",
          "name": "rewardToken",
          "type": "address"
        },
        {
          "internalType": "address",
          "name": "token",
          "type": "address"
        }
      ],
      "name": "tallyReward",
      "outputs": [],
      "stateMutability": "nonpayable",
      "type": "function"
    },
    {
      "inputs": [
        {
          "internalType": "address",
          "name": "",
          "type": "address"
        }
      ],
      "name": "tokenMetadata",
      "outputs": [
        {
          "internalType": "uint256",
          "name": "totalCollateralThisPhase",
          "type": "uint256"
        },
        {
          "internalType": "uint256",
          "name": "totalCollateralNow",
          "type": "uint256"
        },
        {
          "internalType": "uint256",
          "name": "apfLastUpdated",
          "type": "uint256"
        },
        {
          "internalType": "uint256",
          "name": "apf",
          "type": "uint256"
        }
      ],
      "stateMutability": "view",
      "type": "function"
    },
    {
      "inputs": [
        {
          "internalType": "uint256",
          "name": "trancheId",
          "type": "uint256"
        }
      ],
      "name": "tranche",
      "outputs": [
        {
          "internalType": "address",
          "name": "",
          "type": "address"
        }
      ],
      "stateMutability": "view",
      "type": "function"
    },
    {
      "inputs": [
        {
          "internalType": "uint256",
          "name": "trancheId",
          "type": "uint256"
        }
      ],
      "name": "trancheToken",
      "outputs": [
        {
          "internalType": "address",
          "name": "token",
          "type": "address"
        }
      ],
      "stateMutability": "view",
      "type": "function"
    },
    {
      "inputs": [
        {
          "internalType": "uint256",
          "name": "",
          "type": "uint256"
        }
      ],
      "name": "trancheTokenID",
      "outputs": [
        {
          "internalType": "uint256",
          "name": "",
          "type": "uint256"
        }
      ],
      "stateMutability": "pure",
      "type": "function"
    },
    {
      "inputs": [
        {
          "internalType": "uint256",
          "name": "role",
          "type": "uint256"
        }
      ],
      "name": "updateMainCharacterCache",
      "outputs": [],
      "stateMutability": "nonpayable",
      "type": "function"
    },
    {
      "inputs": [
        {
          "internalType": "uint256",
          "name": "role",
          "type": "uint256"
        },
        {
          "internalType": "address",
          "name": "contr",
          "type": "address"
        }
      ],
      "name": "updateRoleCache",
      "outputs": [],
      "stateMutability": "nonpayable",
      "type": "function"
    },
    {
      "inputs": [
        {
          "internalType": "address",
          "name": "token",
          "type": "address"
        }
      ],
      "name": "viewAPF",
      "outputs": [
        {
          "internalType": "uint256",
          "name": "",
          "type": "uint256"
        }
      ],
      "stateMutability": "view",
      "type": "function"
    },
    {
      "inputs": [],
      "name": "viewAllApprovedTokens",
      "outputs": [
        {
          "internalType": "address[]",
          "name": "",
          "type": "address[]"
        }
      ],
      "stateMutability": "view",
      "type": "function"
    },
    {
      "inputs": [],
      "name": "viewAllDisapprovedTokenStrategyMetadata",
      "outputs": [
        {
          "components": [
            {
              "internalType": "address",
              "name": "strategy",
              "type": "address"
            },
            {
              "internalType": "address",
              "name": "token",
              "type": "address"
            },
            {
              "internalType": "uint256",
              "name": "APF",
              "type": "uint256"
            },
            {
              "internalType": "uint256",
              "name": "totalCollateral",
              "type": "uint256"
            },
            {
              "internalType": "uint256",
              "name": "borrowablePer10k",
              "type": "uint256"
            },
            {
              "internalType": "uint256",
              "name": "valuePer1e18",
              "type": "uint256"
            },
            {
              "internalType": "bytes32",
              "name": "strategyName",
              "type": "bytes32"
            },
            {
              "internalType": "uint256",
              "name": "tvl",
              "type": "uint256"
            },
            {
              "internalType": "uint256",
              "name": "harvestBalance2Tally",
              "type": "uint256"
            },
            {
              "internalType": "enum IStrategy.YieldType",
              "name": "yieldType",
              "type": "uint8"
            },
            {
              "internalType": "uint256",
              "name": "stabilityFee",
              "type": "uint256"
            },
            {
              "internalType": "address",
              "name": "underlyingStrategy",
              "type": "address"
            }
          ],
          "internalType": "struct IStrategy.StrategyMetadata[]",
          "name": "",
          "type": "tuple[]"
        }
      ],
      "stateMutability": "view",
      "type": "function"
    },
    {
      "inputs": [],
      "name": "viewAllDisapprovedTokens",
      "outputs": [
        {
          "internalType": "address[]",
          "name": "",
          "type": "address[]"
        }
      ],
      "stateMutability": "view",
      "type": "function"
    },
    {
      "inputs": [],
      "name": "viewAllFeesEver",
      "outputs": [
        {
          "internalType": "uint256",
          "name": "",
          "type": "uint256"
        }
      ],
      "stateMutability": "view",
      "type": "function"
    },
    {
      "inputs": [],
      "name": "viewAllStrategyMetadata",
      "outputs": [
        {
          "components": [
            {
              "internalType": "address",
              "name": "strategy",
              "type": "address"
            },
            {
              "internalType": "address",
              "name": "token",
              "type": "address"
            },
            {
              "internalType": "uint256",
              "name": "APF",
              "type": "uint256"
            },
            {
              "internalType": "uint256",
              "name": "totalCollateral",
              "type": "uint256"
            },
            {
              "internalType": "uint256",
              "name": "borrowablePer10k",
              "type": "uint256"
            },
            {
              "internalType": "uint256",
              "name": "valuePer1e18",
              "type": "uint256"
            },
            {
              "internalType": "bytes32",
              "name": "strategyName",
              "type": "bytes32"
            },
            {
              "internalType": "uint256",
              "name": "tvl",
              "type": "uint256"
            },
            {
              "internalType": "uint256",
              "name": "harvestBalance2Tally",
              "type": "uint256"
            },
            {
              "internalType": "enum IStrategy.YieldType",
              "name": "yieldType",
              "type": "uint8"
            },
            {
              "internalType": "uint256",
              "name": "stabilityFee",
              "type": "uint256"
            },
            {
              "internalType": "address",
              "name": "underlyingStrategy",
              "type": "address"
            }
          ],
          "internalType": "struct IStrategy.StrategyMetadata[]",
          "name": "",
          "type": "tuple[]"
        }
      ],
      "stateMutability": "view",
      "type": "function"
    },
    {
      "inputs": [],
      "name": "viewAllTokensEver",
      "outputs": [
        {
          "internalType": "address[]",
          "name": "",
          "type": "address[]"
        }
      ],
      "stateMutability": "view",
      "type": "function"
    },
    {
      "inputs": [
        {
          "internalType": "uint256",
          "name": "trancheId",
          "type": "uint256"
        }
      ],
      "name": "viewBorrowable",
      "outputs": [
        {
          "internalType": "uint256",
          "name": "borrowablePer10k",
          "type": "uint256"
        }
      ],
      "stateMutability": "view",
      "type": "function"
    },
    {
      "inputs": [
        {
          "internalType": "address",
          "name": "token",
          "type": "address"
        }
      ],
      "name": "viewEstimatedHarvestable",
      "outputs": [
        {
          "internalType": "uint256",
          "name": "",
          "type": "uint256"
        }
      ],
      "stateMutability": "view",
      "type": "function"
    },
    {
      "inputs": [
        {
          "internalType": "address",
          "name": "token",
          "type": "address"
        }
      ],
      "name": "viewHarvestBalance2Tally",
      "outputs": [
        {
          "internalType": "uint256",
          "name": "balance",
          "type": "uint256"
        }
      ],
      "stateMutability": "view",
      "type": "function"
    },
    {
      "inputs": [
        {
          "internalType": "contract IERC20",
          "name": "rewardToken",
          "type": "address"
        },
        {
          "internalType": "address",
          "name": "token",
          "type": "address"
        }
      ],
      "name": "viewHarvestBalance2Tally",
      "outputs": [
        {
          "internalType": "uint256",
          "name": "",
          "type": "uint256"
        }
      ],
      "stateMutability": "view",
      "type": "function"
    },
    {
      "inputs": [
        {
          "internalType": "address",
          "name": "yieldBearingToken",
          "type": "address"
        }
      ],
      "name": "viewRewardTokens",
      "outputs": [
        {
          "internalType": "address[]",
          "name": "",
          "type": "address[]"
        }
      ],
      "stateMutability": "view",
      "type": "function"
    },
    {
      "inputs": [
        {
          "internalType": "address",
          "name": "",
          "type": "address"
        }
      ],
      "name": "viewSourceHarvestable",
      "outputs": [
        {
          "internalType": "uint256",
          "name": "",
          "type": "uint256"
        }
      ],
      "stateMutability": "view",
      "type": "function"
    },
    {
      "inputs": [
        {
          "internalType": "address",
          "name": "token",
          "type": "address"
        }
      ],
      "name": "viewStrategyMetadata",
      "outputs": [
        {
          "components": [
            {
              "internalType": "address",
              "name": "strategy",
              "type": "address"
            },
            {
              "internalType": "address",
              "name": "token",
              "type": "address"
            },
            {
              "internalType": "uint256",
              "name": "APF",
              "type": "uint256"
            },
            {
              "internalType": "uint256",
              "name": "totalCollateral",
              "type": "uint256"
            },
            {
              "internalType": "uint256",
              "name": "borrowablePer10k",
              "type": "uint256"
            },
            {
              "internalType": "uint256",
              "name": "valuePer1e18",
              "type": "uint256"
            },
            {
              "internalType": "bytes32",
              "name": "strategyName",
              "type": "bytes32"
            },
            {
              "internalType": "uint256",
              "name": "tvl",
              "type": "uint256"
            },
            {
              "internalType": "uint256",
              "name": "harvestBalance2Tally",
              "type": "uint256"
            },
            {
              "internalType": "enum IStrategy.YieldType",
              "name": "yieldType",
              "type": "uint8"
            },
            {
              "internalType": "uint256",
              "name": "stabilityFee",
              "type": "uint256"
            },
            {
              "internalType": "address",
              "name": "underlyingStrategy",
              "type": "address"
            }
          ],
          "internalType": "struct IStrategy.StrategyMetadata",
          "name": "",
          "type": "tuple"
        }
      ],
      "stateMutability": "view",
      "type": "function"
    },
    {
      "inputs": [
        {
          "internalType": "uint256",
          "name": "trancheId",
          "type": "uint256"
        }
      ],
      "name": "viewTargetCollateralAmount",
      "outputs": [
        {
          "internalType": "uint256",
          "name": "",
          "type": "uint256"
        }
      ],
      "stateMutability": "view",
      "type": "function"
    },
    {
      "inputs": [
        {
          "internalType": "address",
          "name": "",
          "type": "address"
        }
      ],
      "name": "viewUnderlyingStrategy",
      "outputs": [
        {
          "internalType": "address",
          "name": "",
          "type": "address"
        }
      ],
      "stateMutability": "view",
      "type": "function"
    },
    {
      "inputs": [
        {
          "internalType": "uint256",
          "name": "trancheId",
          "type": "uint256"
        },
        {
          "internalType": "address",
          "name": "valueCurrency",
          "type": "address"
        }
      ],
      "name": "viewValue",
      "outputs": [
        {
          "internalType": "uint256",
          "name": "value",
          "type": "uint256"
        }
      ],
      "stateMutability": "view",
      "type": "function"
    },
    {
      "inputs": [
        {
          "internalType": "uint256",
          "name": "trancheId",
          "type": "uint256"
        },
        {
          "internalType": "address",
          "name": "valueCurrency",
          "type": "address"
        }
      ],
      "name": "viewValueBorrowable",
      "outputs": [
        {
          "internalType": "uint256",
          "name": "value",
          "type": "uint256"
        },
        {
          "internalType": "uint256",
          "name": "borrowable",
          "type": "uint256"
        }
      ],
      "stateMutability": "view",
      "type": "function"
    },
    {
      "inputs": [
        {
          "internalType": "uint256",
          "name": "trancheId",
          "type": "uint256"
        },
        {
          "internalType": "address",
          "name": "currency",
          "type": "address"
        }
      ],
      "name": "viewYield",
      "outputs": [
        {
          "internalType": "uint256",
          "name": "",
          "type": "uint256"
        }
      ],
      "stateMutability": "view",
      "type": "function"
    },
    {
      "inputs": [
        {
          "internalType": "uint256",
          "name": "trancheId",
          "type": "uint256"
        },
        {
          "internalType": "address",
          "name": "_yieldCurrency",
          "type": "address"
        },
        {
          "internalType": "address",
          "name": "valueCurrency",
          "type": "address"
        }
      ],
      "name": "viewYieldValueBorrowable",
      "outputs": [
        {
          "internalType": "uint256",
          "name": "yield",
          "type": "uint256"
        },
        {
          "internalType": "uint256",
          "name": "value",
          "type": "uint256"
        },
        {
          "internalType": "uint256",
          "name": "borrowablePer10k",
          "type": "uint256"
        }
      ],
      "stateMutability": "view",
      "type": "function"
    },
    {
      "inputs": [
        {
          "internalType": "uint256",
          "name": "trancheId",
          "type": "uint256"
        },
        {
          "internalType": "uint256",
          "name": "amount",
          "type": "uint256"
        },
        {
          "internalType": "address",
          "name": "yieldToken",
          "type": "address"
        },
        {
          "internalType": "address",
          "name": "recipient",
          "type": "address"
        }
      ],
      "name": "withdraw",
      "outputs": [],
      "stateMutability": "nonpayable",
      "type": "function"
    },
    {
      "inputs": [],
      "name": "wrappedNative",
      "outputs": [
        {
          "internalType": "contract IWETH",
          "name": "",
          "type": "address"
        }
      ],
      "stateMutability": "view",
      "type": "function"
    },
    {
      "inputs": [],
      "name": "yieldCurrency",
      "outputs": [
        {
          "internalType": "address",
          "name": "",
          "type": "address"
        }
      ],
      "stateMutability": "view",
      "type": "function"
    },
    {
      "inputs": [],
      "name": "yieldType",
      "outputs": [
        {
          "internalType": "enum IStrategy.YieldType",
          "name": "",
          "type": "uint8"
        }
      ],
      "stateMutability": "pure",
      "type": "function"
    },
    {
      "stateMutability": "payable",
      "type": "receive"
    }
  ],
  "bytecode": "0x6101606040526009805460ff191660011790556113886011556125e46018556103e86019553480156200003157600080fd5b50604051620059d4380380620059d48339810160408190526200005491620004b0565b826b131a5c5d5a5908165a595b1960a21b82806001600160a01b038116620000cd5760405162461bcd60e51b815260206004820152602260248201527f506c656173652070726f766964652076616c696420726f6c6573206164647265604482015261737360f01b606482015260840160405180910390fd5b60601b6001600160601b0319166080526002805460018082018355606a600080516020620059b48339815191529283015560058054808301825560047f036b6384b5eca791c62761152d0c79bb0604c104a5fb6f4eb0703f3154bb3db09182018190558554808501875560669086015582548085019093559101849055835480830185556068908401556003805480840182557fc2575a0e9e593c00f959f8c92f12db2869c3395a3b0502d05e2516446f71f85b908101829055815480850190925501829055835491820184556000939093526069910181905560405163b4ed0b6d60e01b8152918201526001600160a01b0382169063b4ed0b6d9060240160206040518083038186803b158015620001e557600080fd5b505afa158015620001fa573d6000803e3d6000fd5b505050506040513d601f19601f8201168201806040525081019062000220919062000493565b6001600160a01b031663fae794e66040518163ffffffff1660e01b815260040160206040518083038186803b1580156200025957600080fd5b505afa1580156200026e573d6000803e3d6000fd5b505050506040513d601f19601f82011682018060405250810190620002949190620005e3565b60a052506001600881905560c09190915260028054808301825560008281526067600080516020620059b4833981519152928301556001600160601b0319606095861b811660e052835480860185556073908401558354808601855560749084015583549485019093556075939091019290925587831b81166101205286831b8116610140529188901b909116610100525b8083511115620003f757620003888382815181106200035557634e487b7160e01b600052603260045260246000fd5b6020908102919091018101516001600160a01b038a1660009081526017835260409020916200311762000404821b17901c565b50620003e1838281518110620003ae57634e487b7160e01b600052603260045260246000fd5b6020908102919091018101516001600160a01b03871660009081526017835260409020916200311762000404821b17901c565b5080620003ee81620005fc565b91505062000326565b505050505050506200063a565b60006200041b836001600160a01b03841662000424565b90505b92915050565b60008181526001830160205260408120546200046d575081546001818101845560008481526020808220909301849055845484825282860190935260409020919091556200041e565b5060006200041e565b80516001600160a01b03811681146200048e57600080fd5b919050565b600060208284031215620004a5578081fd5b6200041b8262000476565b60008060008060008060c08789031215620004c9578182fd5b620004d48762000476565b95506020620004e581890162000476565b9550620004f56040890162000476565b9450620005056060890162000476565b60808901519094506001600160401b038082111562000522578485fd5b818a0191508a601f83011262000536578485fd5b8151818111156200054b576200054b62000624565b8060051b604051601f19603f8301168101818110858211171562000573576200057362000624565b604052828152858101935084860182860187018f101562000592578889fd5b8895505b83861015620005bf57620005aa8162000476565b85526001959095019493860193860162000596565b50809750505050505050620005d760a0880162000476565b90509295509295509295565b600060208284031215620005f5578081fd5b5051919050565b60006000198214156200061d57634e487b7160e01b81526011600452602481fd5b5060010190565b634e487b7160e01b600052604160045260246000fd5b60805160601c60a05160c05160e05160601c6101005160601c6101205160601c6101405160601c6152a76200070d60003960008181610ac501526145420152600081816109f30152614676015260008181612119015281816134bb01526145cb015260008181610e4a01528181611ca201528181612080015281816133b50152614498015260008181610d4201526111cc015260006127380152600081816106b601528181610fd801528181611a500152818161327f01528181613312015281816137570152613ddd01526152a76000f3fe6080604052600436106103a75760003560e01c8062df88b4146103b057806301c7b9f8146104095780630581f3b51461043757806306b8ce9914610458578063071060a61461046d5780630a3017d91461048d5780630ccc5bd6146104ad5780630d749628146104cd578063110acb23146104e357806313710eb81461051057806318af4c9e146105305780631dc3a759146105505780631f7ea8811461056b57806321fa0f1f1461058b57806322f3e2d4146105ad57806323cb2390146105d75780632642b606146105f757806326473a8f1461043757806328f3fc73146106455780632d9c454614610665578063392f5f64146106a45780633a3db435146106d85780633ace96ec146106f8578063447d52ba14610718578063459ba1271461073857806349d4f22e146107585780634a7a7f41146107785780634d9d01b21461079a5780634df87c09146107af578063525e8269146107cf5780636caa9c11146107ef5780636fecdf241461080f57806371b3177a146108745780637268d1c01461089457806379251d88146108b4578063794a41cc146108d45780637a1a04df146109015780637b2c92791461093c5780637dad209b146109515780638496e8911461096657806389f117b3146109a15780638a31b98f146109c15780638d373e65146109e15780639470505f14610a155780639b0f09ae14610a35578063a4d77f9014610a51578063a50233c914610a71578063a51c8fab14610a91578063ab926ef314610ab3578063abcbc4fc14610ae7578063ad89b79414610b07578063aeb38d8b14610b1c578063b06ea8f014610b3c578063b23d66c214610b52578063b832799314610b97578063b9bcce1c14610bb7578063bf184ea414610bd7578063c5c72dc314610bf7578063c6ec154814610c17578063d0d9ab5914610c45578063d0e1b89714610c5a578063d241c9c014610c7a578063d2d719d614610c9a578063d6e113ab14610cb0578063d7fb7b3114610cd0578063d9cb512c14610ce6578063dc94cb7d14610cfb578063e12c11d514610d10578063e173ad2514610d30578063e22d284514610d64578063e2e730f614610dcd578063e8ea4fae14610ded578063e9c3f77d14610e02578063eb6d3a1114610e38578063efc1e45914610e6c578063f725ed1014610e8c578063f8903fb714610eac578063f8d6a05d14610ecc578063fa98a4ba14610eec578063fabee7db14610f0c578063fac82e8c14610f2c578063fd80d0c314610f4c578063fe65a5b414610f6c576103ae565b366103ae57005b005b3480156103bc57600080fd5b506103ef6103cb366004614b9c565b60146020908152600092835260408084209091529082529020805460019091015482565b604080519283526020830191909152015b60405180910390f35b34801561041557600080fd5b50610429610424366004614c12565b610f8c565b604051908152602001610400565b34801561044357600080fd5b50610429610452366004614987565b50600090565b34801561046457600080fd5b50610429610fb1565b34801561047957600080fd5b506103ae610488366004614be2565b610fc2565b34801561049957600080fd5b506104296104a8366004614987565b611088565b3480156104b957600080fd5b506103ae6104c8366004614aa1565b6110a6565b3480156104d957600080fd5b50610429601a5481565b3480156104ef57600080fd5b506105036104fe366004614987565b61112f565b604051610400919061510a565b34801561051c57600080fd5b506103ae61052b366004614bae565b611236565b34801561053c57600080fd5b506103ae61054b366004614c12565b611542565b34801561055c57600080fd5b50610429610452366004614be2565b34801561057757600080fd5b506103ae6105863660046149f7565b6115ec565b34801561059757600080fd5b506105a06116a4565b6040516104009190614f04565b3480156105b957600080fd5b506009546105c79060ff1681565b6040519015158152602001610400565b3480156105e357600080fd5b506103ae6105f23660046149bf565b611776565b34801561060357600080fd5b506106386106123660046149bf565b60066020908152600092835260408084209091529082529020546001600160a01b031681565b6040516104009190614e4d565b34801561065157600080fd5b506103ae6106603660046149bf565b6117e1565b34801561067157600080fd5b506103ef610680366004614a76565b60156020908152600092835260408084209091529082529020805460019091015482565b3480156106b057600080fd5b506106387f000000000000000000000000000000000000000000000000000000000000000081565b3480156106e457600080fd5b506103ae6106f3366004614be2565b6118d4565b34801561070457600080fd5b506103ae6107133660046149f7565b61196e565b34801561072457600080fd5b506103ae610733366004614c12565b611a39565b34801561074457600080fd5b506103ae610753366004614cb3565b611b0f565b34801561076457600080fd5b506103ae610773366004614aa1565b611b88565b34801561078457600080fd5b5061078d611c0b565b6040516104009190614f47565b3480156107a657600080fd5b50610429611c63565b3480156107bb57600080fd5b506105c76107ca366004614987565b611c6f565b3480156107db57600080fd5b506103ae6107ea366004614987565b611c82565b3480156107fb57600080fd5b5061042961080a366004614be2565b611d4d565b34801561081b57600080fd5b5061085461082a366004614987565b60126020526000908152604090206001810154600282015460038301546004909301549192909184565b604080519485526020850193909352918301526060820152608001610400565b34801561088057600080fd5b506103ae61088f366004614d0f565b611d6e565b3480156108a057600080fd5b506104296108af366004614be2565b611e47565b3480156108c057600080fd5b506103ae6108cf3660046149bf565b611e6d565b3480156108e057600080fd5b506104296108ef366004614987565b60166020526000908152604090205481565b34801561090d57600080fd5b506105c761091c366004614a76565b600160209081526000928352604080842090915290825290205460ff1681565b34801561094857600080fd5b50610638611ed8565b34801561095d57600080fd5b5061078d611ee2565b34801561097257600080fd5b50610986610981366004614c6c565b611f38565b60408051938452602084019290925290820152606001610400565b3480156109ad57600080fd5b506103ae6109bc366004614987565b612053565b3480156109cd57600080fd5b506104296109dc366004614987565b6121bd565b3480156109ed57600080fd5b506106387f000000000000000000000000000000000000000000000000000000000000000081565b348015610a2157600080fd5b50610429610a30366004614987565b61221f565b348015610a4157600080fd5b5060006040516104009190614f9a565b348015610a5d57600080fd5b506103ef610a6c366004614c12565b61227a565b348015610a7d57600080fd5b506103ae610a8c366004614b33565b6122a3565b348015610a9d57600080fd5b50610aa6612364565b6040516104009190614eb7565b348015610abf57600080fd5b506106387f000000000000000000000000000000000000000000000000000000000000000081565b348015610af357600080fd5b50610429610b02366004614be2565b612370565b348015610b1357600080fd5b506105a0612380565b348015610b2857600080fd5b50610429610b37366004614be2565b61244b565b348015610b4857600080fd5b5061042960115481565b348015610b5e57600080fd5b50610b72610b6d366004614c6c565b61245b565b604080516001600160a01b039094168452602084019290925290820152606001610400565b348015610ba357600080fd5b506103ae610bb2366004614ae2565b61256e565b348015610bc357600080fd5b50610aa6610bd2366004614987565b612627565b348015610be357600080fd5b50610429610bf2366004614be2565b61264b565b348015610c0357600080fd5b50610429610c12366004614be2565b61265b565b348015610c2357600080fd5b50610c37610c32366004614987565b61266d565b604051610400929190614f7f565b348015610c5157600080fd5b50610aa6612693565b348015610c6657600080fd5b506103ae610c75366004614be2565b61269f565b348015610c8657600080fd5b50610638610c95366004614be2565b612730565b348015610ca657600080fd5b5061042960195481565b348015610cbc57600080fd5b50610429610ccb366004614b9c565b61282a565b348015610cdc57600080fd5b5061042960185481565b348015610cf257600080fd5b50610aa6612a54565b348015610d0757600080fd5b5061078d612a60565b348015610d1c57600080fd5b506103ae610d2b366004614b9c565b612ab6565b348015610d3c57600080fd5b506104297f000000000000000000000000000000000000000000000000000000000000000081565b348015610d7057600080fd5b50610da9610d7f366004614be2565b6010602052600090815260409020805460018201546002909201549091906001600160a01b031683565b6040805193845260208401929092526001600160a01b031690820152606001610400565b348015610dd957600080fd5b50610429610de8366004614987565b612c01565b348015610df957600080fd5b5061078d612c1f565b348015610e0e57600080fd5b50610638610e1d366004614be2565b6000602081905290815260409020546001600160a01b031681565b348015610e4457600080fd5b506106387f000000000000000000000000000000000000000000000000000000000000000081565b348015610e7857600080fd5b50610429610e87366004614b9c565b612c75565b348015610e9857600080fd5b50610638610ea7366004614987565b612d0b565b348015610eb857600080fd5b50610429610ec7366004614c36565b612d15565b348015610ed857600080fd5b50610429610ee7366004614987565b612e08565b348015610ef857600080fd5b50610986610f07366004614c36565b612e1e565b348015610f1857600080fd5b50610638610f27366004614be2565b612e59565b348015610f3857600080fd5b506103ae610f47366004614987565b612e77565b348015610f5857600080fd5b50610429610f67366004614c12565b61303b565b348015610f7857600080fd5b506103ae610f87366004614be2565b61307f565b6000610fa9610f9a84612e59565b610fa38561265b565b8461312c565b509392505050565b6000610fbd600c613271565b905090565b60405163b4ed0b6d60e01b8152600481018290527f00000000000000000000000000000000000000000000000000000000000000006001600160a01b03169063b4ed0b6d9060240160206040518083038186803b15801561102257600080fd5b505afa158015611036573d6000803e3d6000fd5b505050506040513d601f19601f8201168201806040525081019061105a91906149a3565b60009182526020829052604090912080546001600160a01b0319166001600160a01b03909216919091179055565b6001600160a01b031660009081526012602052604090206004015490565b336110af61327b565b6001600160a01b031614806110d35750336110c861330e565b6001600160a01b0316145b6110f85760405162461bcd60e51b81526004016110ef90614fbb565b60405180910390fd5b6001600160a01b03811661111e5760405162461bcd60e51b81526004016110ef90615068565b61112981848461337f565b50505050565b6111376148f2565b60008061115484670de0b6b3a764000061114f6135c4565b61312c565b91509150604051806101800160405280306001600160a01b03168152602001856001600160a01b0316815260200161118b86611088565b815260200160126000876001600160a01b03166001600160a01b031681526020019081526020016000206002015481526020018281526020018381526020017f000000000000000000000000000000000000000000000000000000000000000081526020016111f986612c01565b81526020016112078661221f565b8152602001600081526020016000815260200161122386612d0b565b6001600160a01b03169052949350505050565b600260085414156112595760405162461bcd60e51b81526004016110ef9061509c565b60026008556001600160a01b0383166000908152601660205260408120546112829084906135fc565b9050600081116112d45760405162461bcd60e51b815260206004820152601f60248201527f4e6f2063757272656e746c7920636f6e7665727469626c65207265776172640060448201526064016110ef565b60006112e885856112e3611ed8565b613614565b9050601854816112f8919061515c565b6113048461271061515c565b10156113455760405162461bcd60e51b815260206004820152601060248201526f125b9cdd59999a58da595b9d08189a5960821b60448201526064016110ef565b600084611352858561515c565b61135c9190615148565b9050611366611ed8565b6001600160a01b0316639dc29fac33836040518363ffffffff1660e01b8152600401611393929190614e7b565b600060405180830381600087803b1580156113ad57600080fd5b505af11580156113c1573d6000803e3d6000fd5b505050506000612710826019546113d8919061515c565b6113e29190615148565b90506113ec611ed8565b6001600160a01b03166340c10f196114026136af565b836040518363ffffffff1660e01b8152600401611420929190614e7b565b600060405180830381600087803b15801561143a57600080fd5b505af115801561144e573d6000803e3d6000fd5b5050505080601a60008282546114649190615130565b90915550506001600160a01b0387166000908152601560209081526040808320601383528184205484529091528120601954909190612710906114a7908261517b565b6114b1908661515c565b6114bb9190615148565b8083556001600160a01b038a166000908152601360205260408120805492935083929091906114eb908490615130565b9091555061150590506001600160a01b038a1633886136e7565b6001600160a01b0389166000908152601660205260408120805488929061152d90849061517b565b90915550506001600855505050505050505050565b3361154b61327b565b6001600160a01b0316148061156f57503361156461330e565b6001600160a01b0316145b61158b5760405162461bcd60e51b81526004016110ef90614fbb565b6001600160a01b0381166115b15760405162461bcd60e51b81526004016110ef90615068565b6040516001600160a01b0382169083156108fc029084906000818181858888f193505050501580156115e7573d6000803e3d6000fd5b505050565b336115f561327b565b6001600160a01b0316148061161957503361160e61330e565b6001600160a01b0316145b8061162857506116283361373d565b6116845760405162461bcd60e51b81526020600482015260396024820152600080516020615252833981519152604482015278391037b91030baba3437b934bd32b21030b1ba34bb30ba37b960391b60648201526084016110ef565b61168f8383836137e0565b61112983670de0b6b3a76400006112e36135c4565b606060006116b2600a613271565b90506000816001600160401b038111156116dc57634e487b7160e01b600052604160045260246000fd5b60405190808252806020026020018201604052801561171557816020015b6117026148f2565b8152602001906001900390816116fa5790505b50905060005b8083111561176f576117316104fe600a83613833565b82828151811061175157634e487b7160e01b600052603260045260246000fd5b60200260200101819052508080611767906151be565b91505061171b565b5091505090565b3361177f61327b565b6001600160a01b031614806117a357503361179861330e565b6001600160a01b0316145b6117bf5760405162461bcd60e51b81526004016110ef90614fbb565b6001600160a01b03821660009081526017602052604090206115e79082613117565b6001600160a01b038281166000908152600660209081526040808320858516845290915290205416156118d05761181661383f565b6001600160a01b0316635e73a03483836040518363ffffffff1660e01b8152600401611843929190614e61565b60206040518083038186803b15801561185b57600080fd5b505afa15801561186f573d6000803e3d6000fd5b505050506040513d601f19601f8201168201806040525081019061189391906149a3565b6001600160a01b0383811660009081526006602090815260408083208685168452909152902080546001600160a01b031916929091169190911790555b5050565b336118dd61327b565b6001600160a01b031614806119015750336118f661330e565b6001600160a01b0316145b61191d5760405162461bcd60e51b81526004016110ef90614fbb565b601181905560408051818152600d918101919091526c61706620736d6f6f7468696e6760981b606082015260208101829052600080516020615232833981519152906080015b60405180910390a150565b3361197761327b565b6001600160a01b0316148061199b57503361199061330e565b6001600160a01b0316145b6119b75760405162461bcd60e51b81526004016110ef90614fbb565b6119c2600a84613877565b506119ce600c84613117565b506119d761388c565b6001600160a01b03166311848c45306040518263ffffffff1660e01b8152600401611a029190614e4d565b600060405180830381600087803b158015611a1c57600080fd5b505af1158015611a30573d6000803e3d6000fd5b50505050505050565b60405163f0723d9760e01b81526001600160a01b037f0000000000000000000000000000000000000000000000000000000000000000169063f0723d9790611a879084908690600401614e7b565b60206040518083038186803b158015611a9f57600080fd5b505afa158015611ab3573d6000803e3d6000fd5b505050506040513d601f19601f82011682018060405250810190611ad79190614b7c565b6001600160a01b0391909116600090815260016020908152604080832094835293905291909120805460ff1916911515919091179055565b60026008541415611b325760405162461bcd60e51b81526004016110ef9061509c565b6002600855611b4085612730565b6001600160a01b0316336001600160a01b031614611b705760405162461bcd60e51b81526004016110ef90615035565b611b7c848685846138c4565b50506001600855505050565b33611b9161327b565b6001600160a01b03161480611bb5575033611baa61330e565b6001600160a01b0316145b611bd15760405162461bcd60e51b81526004016110ef90614fbb565b6001600160a01b038116611bf75760405162461bcd60e51b81526004016110ef90615068565b6115e76001600160a01b03841682846136e7565b60606003805480602002602001604051908101604052809291908181526020018280548015611c5957602002820191906000526020600020905b815481526020019060010190808311611c45575b5050505050905090565b6000610fbd600a613271565b6000611c7c600a83613914565b92915050565b6001600160a01b03811660009081526017602052604090204715611d15577f00000000000000000000000000000000000000000000000000000000000000006001600160a01b031663d0e30db0476040518263ffffffff1660e01b81526004016000604051808303818588803b158015611cfb57600080fd5b505af1158015611d0f573d6000803e3d6000fd5b50505050505b60005b80611d2283613271565b11156115e757611d3b611d358383613833565b84612ab6565b80611d45816151be565b915050611d18565b60058181548110611d5d57600080fd5b600091825260209091200154905081565b60095460ff16611d905760405162461bcd60e51b81526004016110ef90615005565b60026008541415611db35760405162461bcd60e51b81526004016110ef9061509c565b6002600855611dc133613929565b611e0a5760405162461bcd60e51b815260206004820152601a6024820152794e6f7420617574686f72697a656420746f20776974686472617760301b60448201526064016110ef565b6001600160a01b038116611e305760405162461bcd60e51b81526004016110ef90615068565b611e3c84848484613952565b505060016008555050565b6000611e66611e5583612e59565b611e5e8461265b565b61114f611ed8565b9392505050565b33611e7661327b565b6001600160a01b03161480611e9a575033611e8f61330e565b6001600160a01b0316145b611eb65760405162461bcd60e51b81526004016110ef90614fbb565b6001600160a01b03821660009081526017602052604090206115e79082613877565b6000610fbd6135c4565b60606004805480602002602001604051908101604052809291908181526020018280548015611c595760200282019190600052602060002090815481526020019060010190808311611c45575050505050905090565b600080600060026008541415611f605760405162461bcd60e51b81526004016110ef9061509c565b6002600855611f6e33613929565b80611ffa5750611f7d87612730565b6001600160a01b0316632972b0f033896040518363ffffffff1660e01b8152600401611faa929190614e7b565b60206040518083038186803b158015611fc257600080fd5b505afa158015611fd6573d6000803e3d6000fd5b505050506040513d601f19601f82011682018060405250810190611ffa9190614b7c565b6120165760405162461bcd60e51b81526004016110ef906150d3565b612021878786613a0f565b925061203e61202f88612e59565b6120388961265b565b87613b5a565b60016008559398909750929550919350505050565b600260085414156120765760405162461bcd60e51b81526004016110ef9061509c565b60026008819055507f00000000000000000000000000000000000000000000000000000000000000006001600160a01b0316816001600160a01b03161415612117576120c0613bc9565b6001600160a01b0316634641257d6040518163ffffffff1660e01b8152600401600060405180830381600087803b1580156120fa57600080fd5b505af115801561210e573d6000803e3d6000fd5b505050506121ac565b7f00000000000000000000000000000000000000000000000000000000000000006001600160a01b0316816001600160a01b031614156121ac57612159613c01565b6001600160a01b0316634641257d6040518163ffffffff1660e01b8152600401600060405180830381600087803b15801561219357600080fd5b505af11580156121a7573d6000803e3d6000fd5b505050505b6121b581611c82565b506001600855565b6001600160a01b0381166000908152601760205260408120815b806121e183613271565b1115612218576121fa6121f48383613833565b8561282a565b6122049084615130565b925080612210816151be565b9150506121d7565b5050919050565b6001600160a01b0381166000908152601760205260408120815b8061224383613271565b11156122185761225c6122568383613833565b85612c75565b6122669084615130565b925080612272816151be565b915050612239565b60008061229861228985612e59565b6122928661265b565b8561312c565b915091509250929050565b60095460ff166122c55760405162461bcd60e51b81526004016110ef90615005565b600260085414156122e85760405162461bcd60e51b81526004016110ef9061509c565b60026008556122f633613929565b6123505760405162461bcd60e51b815260206004820152602560248201527f4e6f7420617574686f72697a656420746f207472616e7366657220757365722060448201526466756e647360d81b60648201526084016110ef565b611e3c84848461235e611ed8565b85613c39565b6060610fbd600a613cd2565b60028181548110611d5d57600080fd5b6060600061238e600c613271565b90506000816001600160401b038111156123b857634e487b7160e01b600052604160045260246000fd5b6040519080825280602002602001820160405280156123f157816020015b6123de6148f2565b8152602001906001900390816123d65790505b50905060005b8083111561176f5761240d6104fe600c83613833565b82828151811061242d57634e487b7160e01b600052603260045260246000fd5b60200260200101819052508080612443906151be565b9150506123f7565b60048181548110611d5d57600080fd5b6009546000908190819060ff166124845760405162461bcd60e51b81526004016110ef90615005565b61248d87612730565b6001600160a01b0316336001600160a01b0316146124bd5760405162461bcd60e51b81526004016110ef90615035565b60006124c888612e59565b905060006124d58961265b565b90506124e2898888613a0f565b5060006124f030848461337f565b90506125066001600160a01b0384168a83613cdf565b6001600160a01b0383166000908152601260205260408120600201805483929061253190849061517b565b90915550506000998a52601060205260408a208a8155600181018b905560020180546001600160a01b031916905591999197509095505050505050565b60095460ff166125905760405162461bcd60e51b81526004016110ef90615005565b600260085414156125b35760405162461bcd60e51b81526004016110ef9061509c565b60026008556125c133613929565b80156125dd5750336125d285612730565b6001600160a01b0316145b61261b5760405162461bcd60e51b815260206004820152600f60248201526e496e76616c6964207472616e63686560881b60448201526064016110ef565b611b7c858585846138c4565b6001600160a01b0381166000908152601760205260409020606090611c7c90613cd2565b60038181548110611d5d57600080fd5b60009081526010602052604090205490565b6000606061267a83611c6f565b6040518060200160405280600081525091509150915091565b6060610fbd600c613cd2565b336126a861327b565b6001600160a01b031614806126cc5750336126c161330e565b6001600160a01b0316145b6126e85760405162461bcd60e51b81526004016110ef90614fbb565b601881905560408051818152600b918101919091526a135a5b9a5b5d5b48189a5960aa1b60608201526020810182905260008051602061523283398151915290608001611963565b60008061275d7f0000000000000000000000000000000000000000000000000000000000000000846151d9565b6000818152600760205260409020549091506001600160a01b031680611e6657606960009081526020527f366a7b92acda364086cc991f618bf9f10b629ec0f7ae94543f96b691b69ec9925460405163043b4d2f60e51b8152600481018490526001600160a01b0390911690638769a5e09060240160206040518083038186803b1580156127ea57600080fd5b505afa1580156127fe573d6000803e3d6000fd5b505050506040513d601f19601f8201168201806040525081019061282291906149a3565b949350505050565b60006128368383612c75565b6001600160a01b038085166000818152601460209081526040808320948816835293815283822083835260158252848320815480855290835285842094845260139092529390912054939450919290911015612a4c578215612a2a57828160000160008282546128a6919061517b565b9250508190555081600101548160010160008282546128c5919061517b565b90915550506001600160a01b038416600090815260126020526040812080549091906128f257600061292c565b815482906129029060019061517b565b8154811061292057634e487b7160e01b600052603260045260246000fd5b90600052602060002001545b60018301549091501561298257600182015460009061294f600160401b8861515c565b6129599190615148565b9050826129668284615130565b8154600181018355600092835260209092209091015550612a1d565b81546001810183556000838152602090200181905561299f611ed8565b6001600160a01b03166340c10f196129b56136af565b876040518363ffffffff1660e01b81526004016129d3929190614e7b565b600060405180830381600087803b1580156129ed57600080fd5b505af1158015612a01573d6000803e3d6000fd5b5050505084601a6000828254612a179190615130565b90915550505b5060028101546001909101555b6000600183018190556001600160a01b03861681526013602052604090205482555b505092915050565b6060610fbd600e613cd2565b60606002805480602002602001604051908101604052809291908181526020018280548015611c595760200282019190600052602060002090815481526020019060010190808311611c45575050505050905090565b612abf816121bd565b506040516370a0823160e01b81526000906001600160a01b038416906370a0823190612aef903090600401614e4d565b60206040518083038186803b158015612b0757600080fd5b505afa158015612b1b573d6000803e3d6000fd5b505050506040513d601f19601f82011682018060405250810190612b3f9190614bfa565b6001600160a01b03841660009081526016602052604081205491925090612b66908361517b565b90508015611129576001600160a01b03808516600081815260146020908152604080832094881683529381528382209282526015815283822083548352905291822060018201805492939192859290612bc0908490615130565b9250508190555082816001016000828254612bdb9190615130565b909155505050506001600160a01b03939093166000908152601660205260409020555050565b6001600160a01b031660009081526012602052604090206002015490565b60606005805480602002602001604051908101604052809291908181526020018280548015611c595760200282019190600052602060002090815481526020019060010190808311611c45575050505050905090565b6001600160a01b038083166000818152601460209081526040808320948616835293815283822083835260158252848320815480855290835285842094845260139092529382205491939291118015612cd2575060008160010154115b15612d0057600180820154908301548254612ced919061515c565b612cf79190615148565b92505050611c7c565b506000949350505050565b6000611c7c613d8b565b600060026008541415612d3a5760405162461bcd60e51b81526004016110ef9061509c565b6002600855612d4833613929565b80612dd45750612d5784612730565b6001600160a01b0316632972b0f033866040518363ffffffff1660e01b8152600401612d84929190614e7b565b60206040518083038186803b158015612d9c57600080fd5b505afa158015612db0573d6000803e3d6000fd5b505050506040513d601f19601f82011682018060405250810190612dd49190614b7c565b612df05760405162461bcd60e51b81526004016110ef906150d3565b612dfb848484613a0f565b6001600855949350505050565b600080612e148361221f565b611c7c9190615130565b6000806000612e2d868661303b565b9250612e4a612e3b87612e59565b612e448861265b565b8661312c565b93979096509294509192505050565b6000908152601060205260409020600201546001600160a01b031690565b60095460ff16612e995760405162461bcd60e51b81526004016110ef90615005565b33612ea261327b565b6001600160a01b03161480612ec6575033612ebb61330e565b6001600160a01b0316145b80612ee0575033612ed5613dc3565b6001600160a01b0316145b612f3b5760405162461bcd60e51b81526020600482015260386024820152600080516020615252833981519152604482015277391037b91030baba3437b934bd32b2103234b9b0b13632b960411b60648201526084016110ef565b612f43613e27565b5060005b80612f52600e613271565b111561302d576000612f65600e83613833565b90506000612f7282612c01565b90506000612f7e61388c565b9050612f8b81848461337f565b50612fa16001600160a01b038416826000613e78565b612fb76001600160a01b03841682600019613e78565b60405163269974d160e21b81526001600160a01b03821690639a65d34490612fe59088908790600401614e61565b600060405180830381600087803b158015612fff57600080fd5b505af1158015613013573d6000803e3d6000fd5b505050505050508080613025906151be565b915050612f47565b50506009805460ff19169055565b60008281526010602052604081206128228160128461305988612e59565b6001600160a01b03166001600160a01b0316815260200190815260200160002085613f8a565b3361308861327b565b6001600160a01b031614806130ac5750336130a161330e565b6001600160a01b0316145b6130c85760405162461bcd60e51b81526004016110ef90614fbb565b6019819055604080518181526012918101919091527150726f746f636f6c207969656c642066656560701b60608201526020810182905260008051602061523283398151915290608001611963565b6000611e66836001600160a01b0384166140a4565b6001600160a01b03808416600090815260066020908152604080832085851684529091528120549091829116806131e55761316561383f565b6001600160a01b0316635e73a03487866040518363ffffffff1660e01b8152600401613192929190614e61565b60206040518083038186803b1580156131aa57600080fd5b505afa1580156131be573d6000803e3d6000fd5b505050506040513d601f19601f820116820180604052508101906131e291906149a3565b90505b6040516313f3552960e21b81526001600160a01b03821690634fcd54a49061321590899089908990600401614e94565b604080518083038186803b15801561322c57600080fd5b505afa158015613240573d6000803e3d6000fd5b505050506040513d601f19601f820116820180604052508101906132649190614cec565b9097909650945050505050565b6000611c7c825490565b60007f00000000000000000000000000000000000000000000000000000000000000006001600160a01b0316638da5cb5b6040518163ffffffff1660e01b815260040160206040518083038186803b1580156132d657600080fd5b505afa1580156132ea573d6000803e3d6000fd5b505050506040513d601f19601f82011682018060405250810190610fbd91906149a3565b60007f00000000000000000000000000000000000000000000000000000000000000006001600160a01b031663c34c08e56040518163ffffffff1660e01b8152600401602060405180830381600087803b15801561336b57600080fd5b505af11580156132ea573d6000803e3d6000fd5b60006001600160a01b0384166133a75760405162461bcd60e51b81526004016110ef90615068565b60006133b1613d8b565b90507f00000000000000000000000000000000000000000000000000000000000000006001600160a01b0316846001600160a01b031614156134b9576133f5613bc9565b6001600160a01b0316638381e18284306040518363ffffffff1660e01b8152600401613422929190615119565b600060405180830381600087803b15801561343c57600080fd5b505af1158015613450573d6000803e3d6000fd5b505060405163e9d97a0f60e01b81526001600160a01b038416925063e9d97a0f91506134829086908990600401615119565b600060405180830381600087803b15801561349c57600080fd5b505af11580156134b0573d6000803e3d6000fd5b505050506135bb565b7f00000000000000000000000000000000000000000000000000000000000000006001600160a01b0316846001600160a01b031614156135bb576134fb613c01565b6001600160a01b0316638381e18284306040518363ffffffff1660e01b8152600401613528929190615119565b600060405180830381600087803b15801561354257600080fd5b505af1158015613556573d6000803e3d6000fd5b5050604051633fd392db60e11b81526001600160a01b0384169250637fa725b691506135889086908990600401615119565b600060405180830381600087803b1580156135a257600080fd5b505af11580156135b6573d6000803e3d6000fd5b505050505b50909392505050565b606660009081526020527f422cccb7cea5c0e46f340bb7b21b81debac329f72e31669c20ff0f3a05cc2b5b546001600160a01b031690565b60008183111561360d575080611c7c565b5081611c7c565b60008061362185846140ee565b604051630576cbc360e41b81529091506001600160a01b0382169063576cbc309061365490889088908890600401614e94565b602060405180830381600087803b15801561366e57600080fd5b505af1158015613682573d6000803e3d6000fd5b505050506040513d601f19601f820116820180604052508101906136a69190614bfa565b95945050505050565b606760009081526020527f682158d08466d11c566d5712d4396197fdd67e65be71d83c97ef719ec468867b546001600160a01b031690565b6115e78363a9059cbb60e01b8484604051602401613706929190614e7b565b60408051601f198184030181529190526020810180516001600160e01b03166001600160e01b0319909316929092179091526141a2565b60405163f0723d9760e01b81526000906001600160a01b037f0000000000000000000000000000000000000000000000000000000000000000169063f0723d97906137909085906103eb90600401614e7b565b60206040518083038186803b1580156137a857600080fd5b505afa1580156137bc573d6000803e3d6000fd5b505050506040513d601f19601f82011682018060405250810190611c7c9190614b7c565b6137eb600a84613117565b506137f7600c84613877565b50613803600e84613117565b506001600160a01b03831660009081526012602052604090206127106004820155426003909101556119d761388c565b6000611e668383614274565b606a60009081526020527ff3261457f4fd0b7c00a1511877ab27b74183ac470be8db3a7ecdc64335f6f979546001600160a01b031690565b6000611e66836001600160a01b0384166142ac565b606860009081526020527faa071f48f62aaaa1f6320aaa7bd2ad2d552d05160892c14d699d38c9920d5f99546001600160a01b031690565b6001600160a01b0382166000908152601260209081526040808320805487855260109093529220600101556138f984846143c9565b61390d858584613907611ed8565b89613c39565b5050505050565b6000611e66836001600160a01b038416614449565b6001600160a01b0316600090815260016020818152604080842092845291905290205460ff1690565b60008481526010602052604081209061396a86612e59565b9050613977868585613a0f565b5061398a856139858861265b565b6135fc565b945061399783828761337f565b50848260000160008282546139ac919061517b565b90915550506001600160a01b0381166000908152601260205260408120600281018054919288926139de90849061517b565b9091555050600183015481541115613a0a5785816001016000828254613a04919061517b565b90915550505b611a30565b60006001600160a01b038216613a375760405162461bcd60e51b81526004016110ef90615068565b613a3f611ed8565b6001600160a01b0316836001600160a01b031614613a9f5760405162461bcd60e51b815260206004820181905260248201527f4f6e6c7920757365206f6666696369616c207969656c642063757272656e637960448201526064016110ef565b600084815260106020526040812090601281613aba88612e59565b6001600160a01b031681526020810191909152604001600020825490915015613b4c57613ae8828287613f8a565b6040516340c10f1960e01b81529093506001600160a01b038616906340c10f1990613b199087908790600401614e7b565b600060405180830381600087803b158015613b3357600080fd5b505af1158015613b47573d6000803e3d6000fd5b505050505b546001909101559392505050565b6000806000613b6986856140ee565b60405163442fd02b60e11b81529091506001600160a01b0382169063885fa05690613b9c90899089908990600401614e94565b6040805180830381600087803b158015613bb557600080fd5b505af1158015613240573d6000803e3d6000fd5b607460009081526020527f23aec33011cec136936404546e8d71610b1ea813717b1b6bf3b77b689326a34b546001600160a01b031690565b607560009081526020527f7786f24ec8e68c1f537753be90a834aeb9797aa2ade11dc9f54973d24a879c0e546001600160a01b031690565b6000613c4485612e59565b9050613c51858484613a0f565b50613c5d868286614461565b600085815260106020526040902054613c768582615130565b6000878152601060209081526040808320939093556001600160a01b03851682526012905290812060028101805491928892613cb3908490615130565b90915550613cc8905087846115e78986615130565b5050505050505050565b60606000611e66836146ee565b600081846001600160a01b031663dd62ed3e30866040518363ffffffff1660e01b8152600401613d10929190614e61565b60206040518083038186803b158015613d2857600080fd5b505afa158015613d3c573d6000803e3d6000fd5b505050506040513d601f19601f82011682018060405250810190613d609190614bfa565b613d6a9190615130565b90506111298463095ea7b360e01b8584604051602401613706929190614e7b565b607360009081526020527f915da9abdae48b56e38f1c8581eb1f6060cdb1aac1fd60a1040a8eab69db2431546001600160a01b031690565b60405163b4ed0b6d60e01b81526103e960048201526000907f00000000000000000000000000000000000000000000000000000000000000006001600160a01b03169063b4ed0b6d9060240160206040518083038186803b1580156132d657600080fd5b6000805b80613e36600e613271565b1115613e74576000613e49600e83613833565b9050613e54816121bd565b613e5e9084615130565b9250508080613e6c906151be565b915050613e2b565b5090565b801580613f005750604051636eb1769f60e11b81526001600160a01b0384169063dd62ed3e90613eae9030908690600401614e61565b60206040518083038186803b158015613ec657600080fd5b505afa158015613eda573d6000803e3d6000fd5b505050506040513d601f19601f82011682018060405250810190613efe9190614bfa565b155b613f6b5760405162461bcd60e51b815260206004820152603660248201527f5361666545524332303a20617070726f76652066726f6d206e6f6e2d7a65726f60448201527520746f206e6f6e2d7a65726f20616c6c6f77616e636560501b60648201526084016110ef565b6115e78363095ea7b360e01b8484604051602401613706929190614e7b565b6000613f94611ed8565b6001600160a01b0316826001600160a01b031614613feb5760405162461bcd60e51b815260206004820152601460248201527357726f6e67207969656c642063757272656e637960601b60448201526064016110ef565b600184015483548491101561409a5760008186600101548154811061402057634e487b7160e01b600052603260045260246000fd5b9060005260206000200154826001848054905061403d919061517b565b8154811061405b57634e487b7160e01b600052603260045260246000fd5b9060005260206000200154614070919061517b565b9050600160401b818760000154614087919061515c565b6140919190615148565b92505050611e66565b6000915050611e66565b60006140b08383614449565b6140e657508154600181810184556000848152602080822090930184905584548482528286019093526040902091909155611c7c565b506000611c7c565b6001600160a01b03808316600090815260066020908152604080832085851684529091529020541680611c7c5761412361383f565b6001600160a01b0316631757616884846040518363ffffffff1660e01b8152600401614150929190614e61565b602060405180830381600087803b15801561416a57600080fd5b505af115801561417e573d6000803e3d6000fd5b505050506040513d601f19601f82011682018060405250810190611e6691906149a3565b60006141f7826040518060400160405280602081526020017f5361666545524332303a206c6f772d6c6576656c2063616c6c206661696c6564815250856001600160a01b031661474a9092919063ffffffff16565b8051909150156115e757808060200190518101906142159190614b7c565b6115e75760405162461bcd60e51b815260206004820152602a60248201527f5361666545524332303a204552433230206f7065726174696f6e20646964206e6044820152691bdd081cdd58d8d9595960b21b60648201526084016110ef565b600082600001828154811061429957634e487b7160e01b600052603260045260246000fd5b9060005260206000200154905092915050565b600081815260018301602052604081205480156143bf5760006142d060018361517b565b85549091506000906142e49060019061517b565b905081811461436557600086600001828154811061431257634e487b7160e01b600052603260045260246000fd5b906000526020600020015490508087600001848154811061434357634e487b7160e01b600052603260045260246000fd5b6000918252602080832090910192909255918252600188019052604090208390555b855486908061438457634e487b7160e01b600052603160045260246000fd5b600190038181906000526020600020016000905590558560010160008681526020019081526020016000206000905560019350505050611c7c565b6000915050611c7c565b6143d4600a82613914565b6144185760405162461bcd60e51b81526020600482015260156024820152742737ba1030b71030b8383937bb32b2103a37b5b2b760591b60448201526064016110ef565b60009182526010602052604090912060020180546001600160a01b0319166001600160a01b03909216919091179055565b60009081526001919091016020526040902054151590565b6144766001600160a01b038316843084614759565b6000614480613d8b565b90506144966001600160a01b0384168284613cdf565b7f00000000000000000000000000000000000000000000000000000000000000006001600160a01b0316836001600160a01b031614156145c95760405162dace6960e11b8152600481018390526001600160a01b038216906301b59cd290602401600060405180830381600087803b15801561451157600080fd5b505af1158015614525573d6000803e3d6000fd5b505050506000614533613bc9565b90506145696001600160a01b037f0000000000000000000000000000000000000000000000000000000000000000168285613cdf565b60405163534a7e1d60e11b8152600481018490526001600160a01b0382169063a694fc3a90602401600060405180830381600087803b1580156145ab57600080fd5b505af11580156145bf573d6000803e3d6000fd5b50505050506146e5565b7f00000000000000000000000000000000000000000000000000000000000000006001600160a01b0316836001600160a01b0316141561469d5760405163011cb12160e51b8152600481018390526001600160a01b03821690632396242090602401600060405180830381600087803b15801561464557600080fd5b505af1158015614659573d6000803e3d6000fd5b505050506000614667613c01565b90506145696001600160a01b037f0000000000000000000000000000000000000000000000000000000000000000168285613cdf565b60405162461bcd60e51b815260206004820181905260248201527f5374726174656779206f6e6c7920666f72206176617820616e6420736176617860448201526064016110ef565b61112983611c82565b60608160000180548060200260200160405190810160405280929190818152602001828054801561473e57602002820191906000526020600020905b81548152602001906001019080831161472a575b50505050509050919050565b60606128228484600085614791565b6040516001600160a01b03808516602483015283166044820152606481018290526111299085906323b872dd60e01b90608401613706565b6060824710156147f25760405162461bcd60e51b815260206004820152602660248201527f416464726573733a20696e73756666696369656e742062616c616e636520666f6044820152651c8818d85b1b60d21b60648201526084016110ef565b843b6148405760405162461bcd60e51b815260206004820152601d60248201527f416464726573733a2063616c6c20746f206e6f6e2d636f6e747261637400000060448201526064016110ef565b600080866001600160a01b0316858760405161485c9190614e31565b60006040518083038185875af1925050503d8060008114614899576040519150601f19603f3d011682016040523d82523d6000602084013e61489e565b606091505b50915091506148ae8282866148b9565b979650505050505050565b606083156148c8575081611e66565b8251156148d85782518084602001fd5b8160405162461bcd60e51b81526004016110ef9190614fa8565b60405180610180016040528060006001600160a01b0316815260200160006001600160a01b03168152602001600081526020016000815260200160008152602001600081526020016000801916815260200160008152602001600081526020016000600281111561497357634e487b7160e01b600052602160045260246000fd5b815260006020820181905260409091015290565b600060208284031215614998578081fd5b8135611e6681615219565b6000602082840312156149b4578081fd5b8151611e6681615219565b600080604083850312156149d1578081fd5b82356149dc81615219565b915060208301356149ec81615219565b809150509250929050565b600080600060408486031215614a0b578081fd5b8335614a1681615219565b925060208401356001600160401b0380821115614a31578283fd5b818601915086601f830112614a44578283fd5b813581811115614a52578384fd5b876020828501011115614a63578384fd5b6020830194508093505050509250925092565b60008060408385031215614a88578182fd5b8235614a9381615219565b946020939093013593505050565b600080600060608486031215614ab5578283fd5b8335614ac081615219565b9250602084013591506040840135614ad781615219565b809150509250925092565b600080600080600060a08688031215614af9578081fd5b8535614b0481615219565b9450602086013593506040860135614b1b81615219565b94979396509394606081013594506080013592915050565b60008060008060808587031215614b48578384fd5b8435614b5381615219565b935060208501359250604085013591506060850135614b7181615219565b939692955090935050565b600060208284031215614b8d578081fd5b81518015158114611e66578182fd5b600080604083850312156149d1578182fd5b600080600060608486031215614bc2578283fd5b8335614bcd81615219565b95602085013595506040909401359392505050565b600060208284031215614bf3578081fd5b5035919050565b600060208284031215614c0b578081fd5b5051919050565b60008060408385031215614c24578182fd5b8235915060208301356149ec81615219565b600080600060608486031215614c4a578081fd5b833592506020840135614c5c81615219565b91506040840135614ad781615219565b60008060008060808587031215614c81578182fd5b843593506020850135614c9381615219565b92506040850135614ca381615219565b91506060850135614b7181615219565b600080600080600060a08688031215614cca578283fd5b853594506020860135614cdc81615219565b93506040860135614b1b81615219565b60008060408385031215614cfe578182fd5b505080516020909101519092909150565b60008060008060808587031215614d24578182fd5b84359350602085013592506040850135614ca381615219565b6001600160a01b03169052565b60008151808452614d62816020860160208601615192565b601f01601f19169290920160200192915050565b60038110614d9457634e487b7160e01b600052602160045260246000fd5b9052565b614da3828251614d3d565b6020810151614db56020840182614d3d565b5060408101516040830152606081015160608301526080810151608083015260a081015160a083015260c081015160c083015260e081015160e083015261010080820151818401525061012080820151614e1182850182614d76565b505061014081810151908301526101608082015161112982850182614d3d565b60008251614e43818460208701615192565b9190910192915050565b6001600160a01b0391909116815260200190565b6001600160a01b0392831681529116602082015260400190565b6001600160a01b03929092168252602082015260400190565b6001600160a01b0393841681526020810192909252909116604082015260600190565b6020808252825182820181905260009190848201906040850190845b81811015614ef85783516001600160a01b031683529284019291840191600101614ed3565b50909695505050505050565b6020808252825182820181905260009190848201906040850190845b81811015614ef857614f33838551614d98565b928401926101809290920191600101614f20565b6020808252825182820181905260009190848201906040850190845b81811015614ef857835183529284019291840191600101614f63565b60008315158252604060208301526128226040830184614d4a565b60208101611c7c8284614d76565b600060208252611e666020830184614d4a565b6020808252602a908201527f526f6c65733a2063616c6c6572206973206e6f7420746865206f776e6572206f604082015269391032bc32b1baba37b960b11b606082015260800190565b6020808252601690820152755374726174656779206973206e6f742061637469766560501b604082015260600190565b6020808252601990820152784e6f7420617574686f72697a656420746f206d69677261746560381b604082015260600190565b6020808252601a9082015279446f6e27742073656e6420746f207a65726f206164647265737360301b604082015260600190565b6020808252601f908201527f5265656e7472616e637947756172643a207265656e7472616e742063616c6c00604082015260600190565b6020808252601f908201527f4e6f7420617574686f72697a656420746f20636f6c6c656374207969656c6400604082015260600190565b6101808101611c7c8284614d98565b9182526001600160a01b0316602082015260400190565b60008219821115615143576151436151ed565b500190565b60008261515757615157615203565b500490565b6000816000190483118215151615615176576151766151ed565b500290565b60008282101561518d5761518d6151ed565b500390565b60005b838110156151ad578181015183820152602001615195565b838111156111295750506000910152565b60006000198214156151d2576151d26151ed565b5060010190565b6000826151e8576151e8615203565b500690565b634e487b7160e01b600052601160045260246000fd5b634e487b7160e01b600052601260045260246000fd5b6001600160a01b038116811461522e57600080fd5b5056fe3a64504f0bc0c335e2aecb78638a257e0351a3fe0370861fd54ee4190b92093343616c6c6572206973206e6f7420746865206f776e65722c206578656375746fa2646970667358221220c0980ad1cd69da5a44544875ddb6992eb2553c664116177ac4e944bb92bfb86664736f6c63430008030033405787fa12a823e0f2b7631cc41b3ba8828b3321ca811111fa75cd3aa3bb5ace",
  "linkReferences": {},
  "deployedLinkReferences": {}
}