{
  "_format": "hh-sol-artifact-1",
  "contractName": "OracleRegistry",
  "sourceName": "contracts/OracleRegistry.sol",
  "abi": [
    {
      "inputs": [
        {
          "internalType": "address",
          "name": "_roles",
          "type": "address"
        }
      ],
      "stateMutability": "nonpayable",
      "type": "constructor"
    },
    {
      "anonymous": false,
      "inputs": [
        {
          "indexed": false,
          "internalType": "string",
          "name": "param",
          "type": "string"
        },
        {
          "indexed": false,
          "internalType": "uint256",
          "name": "value",
          "type": "uint256"
        }
      ],
      "name": "ParameterUpdated",
      "type": "event"
    },
    {
      "anonymous": false,
      "inputs": [
        {
          "indexed": false,
          "internalType": "string",
          "name": "param",
          "type": "string"
        },
        {
          "indexed": false,
          "internalType": "address",
          "name": "subject",
          "type": "address"
        },
        {
          "indexed": false,
          "internalType": "uint256",
          "name": "value",
          "type": "uint256"
        }
      ],
      "name": "SubjectParameterUpdated",
      "type": "event"
    },
    {
      "anonymous": false,
      "inputs": [
        {
          "indexed": false,
          "internalType": "string",
          "name": "param",
          "type": "string"
        },
        {
          "indexed": false,
          "internalType": "address",
          "name": "subject",
          "type": "address"
        }
      ],
      "name": "SubjectUpdated",
      "type": "event"
    },
    {
      "inputs": [
        {
          "internalType": "uint256",
          "name": "",
          "type": "uint256"
        }
      ],
      "name": "_charactersPlayed",
      "outputs": [
        {
          "internalType": "uint256",
          "name": "",
          "type": "uint256"
        }
      ],
      "stateMutability": "view",
      "type": "function"
    },
    {
      "inputs": [
        {
          "internalType": "uint256",
          "name": "",
          "type": "uint256"
        }
      ],
      "name": "_dependsOnCharacters",
      "outputs": [
        {
          "internalType": "uint256",
          "name": "",
          "type": "uint256"
        }
      ],
      "stateMutability": "view",
      "type": "function"
    },
    {
      "inputs": [
        {
          "internalType": "uint256",
          "name": "",
          "type": "uint256"
        }
      ],
      "name": "_dependsOnRoles",
      "outputs": [
        {
          "internalType": "uint256",
          "name": "",
          "type": "uint256"
        }
      ],
      "stateMutability": "view",
      "type": "function"
    },
    {
      "inputs": [
        {
          "internalType": "uint256",
          "name": "",
          "type": "uint256"
        }
      ],
      "name": "_rolesPlayed",
      "outputs": [
        {
          "internalType": "uint256",
          "name": "",
          "type": "uint256"
        }
      ],
      "stateMutability": "view",
      "type": "function"
    },
    {
      "inputs": [
        {
          "internalType": "address",
          "name": "",
          "type": "address"
        }
      ],
      "name": "borrowablePer10ks",
      "outputs": [
        {
          "internalType": "uint256",
          "name": "",
          "type": "uint256"
        }
      ],
      "stateMutability": "view",
      "type": "function"
    },
    {
      "inputs": [],
      "name": "charactersPlayed",
      "outputs": [
        {
          "internalType": "uint256[]",
          "name": "",
          "type": "uint256[]"
        }
      ],
      "stateMutability": "view",
      "type": "function"
    },
    {
      "inputs": [],
      "name": "dependsOnCharacters",
      "outputs": [
        {
          "internalType": "uint256[]",
          "name": "",
          "type": "uint256[]"
        }
      ],
      "stateMutability": "view",
      "type": "function"
    },
    {
      "inputs": [],
      "name": "dependsOnRoles",
      "outputs": [
        {
          "internalType": "uint256[]",
          "name": "",
          "type": "uint256[]"
        }
      ],
      "stateMutability": "view",
      "type": "function"
    },
    {
      "inputs": [
        {
          "internalType": "address",
          "name": "token",
          "type": "address"
        },
        {
          "internalType": "uint256",
          "name": "inAmount",
          "type": "uint256"
        },
        {
          "internalType": "address",
          "name": "pegCurrency",
          "type": "address"
        }
      ],
      "name": "getAmountInPeg",
      "outputs": [
        {
          "internalType": "uint256",
          "name": "",
          "type": "uint256"
        }
      ],
      "stateMutability": "nonpayable",
      "type": "function"
    },
    {
      "inputs": [
        {
          "internalType": "address[]",
          "name": "tokens",
          "type": "address[]"
        },
        {
          "internalType": "uint256[]",
          "name": "inAmounts",
          "type": "uint256[]"
        },
        {
          "internalType": "address",
          "name": "pegCurrency",
          "type": "address"
        }
      ],
      "name": "getAmountsInPeg",
      "outputs": [
        {
          "internalType": "uint256[]",
          "name": "",
          "type": "uint256[]"
        }
      ],
      "stateMutability": "nonpayable",
      "type": "function"
    },
    {
      "inputs": [
        {
          "internalType": "address",
          "name": "token",
          "type": "address"
        },
        {
          "internalType": "address",
          "name": "pegCurrency",
          "type": "address"
        }
      ],
      "name": "listenForCurrentOracleUpdates",
      "outputs": [
        {
          "internalType": "address",
          "name": "",
          "type": "address"
        }
      ],
      "stateMutability": "nonpayable",
      "type": "function"
    },
    {
      "inputs": [
        {
          "internalType": "uint256",
          "name": "",
          "type": "uint256"
        }
      ],
      "name": "mainCharacterCache",
      "outputs": [
        {
          "internalType": "address",
          "name": "",
          "type": "address"
        }
      ],
      "stateMutability": "view",
      "type": "function"
    },
    {
      "inputs": [
        {
          "internalType": "address",
          "name": "",
          "type": "address"
        },
        {
          "internalType": "uint256",
          "name": "",
          "type": "uint256"
        }
      ],
      "name": "roleCache",
      "outputs": [
        {
          "internalType": "bool",
          "name": "",
          "type": "bool"
        }
      ],
      "stateMutability": "view",
      "type": "function"
    },
    {
      "inputs": [],
      "name": "roles",
      "outputs": [
        {
          "internalType": "contract Roles",
          "name": "",
          "type": "address"
        }
      ],
      "stateMutability": "view",
      "type": "function"
    },
    {
      "inputs": [],
      "name": "rolesPlayed",
      "outputs": [
        {
          "internalType": "uint256[]",
          "name": "",
          "type": "uint256[]"
        }
      ],
      "stateMutability": "view",
      "type": "function"
    },
    {
      "inputs": [
        {
          "internalType": "address",
          "name": "token",
          "type": "address"
        },
        {
          "internalType": "uint256",
          "name": "borrowablePer10k",
          "type": "uint256"
        }
      ],
      "name": "setBorrowable",
      "outputs": [],
      "stateMutability": "nonpayable",
      "type": "function"
    },
    {
      "inputs": [
        {
          "internalType": "address",
          "name": "token",
          "type": "address"
        },
        {
          "internalType": "address",
          "name": "pegCurrency",
          "type": "address"
        },
        {
          "internalType": "address",
          "name": "oracle",
          "type": "address"
        },
        {
          "internalType": "uint256",
          "name": "borrowablePer10k",
          "type": "uint256"
        },
        {
          "internalType": "bool",
          "name": "primary",
          "type": "bool"
        },
        {
          "internalType": "bytes",
          "name": "data",
          "type": "bytes"
        }
      ],
      "name": "setOracleParams",
      "outputs": [],
      "stateMutability": "nonpayable",
      "type": "function"
    },
    {
      "inputs": [
        {
          "internalType": "address",
          "name": "",
          "type": "address"
        },
        {
          "internalType": "address",
          "name": "",
          "type": "address"
        }
      ],
      "name": "tokenOracle",
      "outputs": [
        {
          "internalType": "address",
          "name": "",
          "type": "address"
        }
      ],
      "stateMutability": "view",
      "type": "function"
    },
    {
      "inputs": [
        {
          "internalType": "uint256",
          "name": "role",
          "type": "uint256"
        }
      ],
      "name": "updateMainCharacterCache",
      "outputs": [],
      "stateMutability": "nonpayable",
      "type": "function"
    },
    {
      "inputs": [
        {
          "internalType": "uint256",
          "name": "role",
          "type": "uint256"
        },
        {
          "internalType": "address",
          "name": "contr",
          "type": "address"
        }
      ],
      "name": "updateRoleCache",
      "outputs": [],
      "stateMutability": "nonpayable",
      "type": "function"
    },
    {
      "inputs": [
        {
          "internalType": "address",
          "name": "token",
          "type": "address"
        },
        {
          "internalType": "uint256",
          "name": "inAmount",
          "type": "uint256"
        },
        {
          "internalType": "address",
          "name": "pegCurrency",
          "type": "address"
        }
      ],
      "name": "viewAmountInPeg",
      "outputs": [
        {
          "internalType": "uint256",
          "name": "",
          "type": "uint256"
        }
      ],
      "stateMutability": "view",
      "type": "function"
    },
    {
      "inputs": [
        {
          "internalType": "address[]",
          "name": "tokens",
          "type": "address[]"
        },
        {
          "internalType": "uint256[]",
          "name": "inAmounts",
          "type": "uint256[]"
        },
        {
          "internalType": "address",
          "name": "pegCurrency",
          "type": "address"
        }
      ],
      "name": "viewAmountsInPeg",
      "outputs": [
        {
          "internalType": "uint256[]",
          "name": "",
          "type": "uint256[]"
        }
      ],
      "stateMutability": "view",
      "type": "function"
    }
  ],
  "bytecode": "0x60a060405234801561001057600080fd5b5060405161163b38038061163b83398101604081905261002f91610111565b806001600160a01b0381166100955760405162461bcd60e51b815260206004820152602260248201527f506c656173652070726f766964652076616c696420726f6c6573206164647265604482015261737360f01b606482015260840160405180910390fd5b60601b6001600160601b0319166080525060038054600180820190925560047fc2575a0e9e593c00f959f8c92f12db2869c3395a3b0502d05e2516446f71f85b90910181905580549182018155600052606a7f8a35acfbc15ff81a39ae7d344fd709f28e8600b4aa8c65c6b64bfe7fe36bd19b9091015561013f565b600060208284031215610122578081fd5b81516001600160a01b0381168114610138578182fd5b9392505050565b60805160601c6114bb610180600039600081816101b301528181610364015281816106d401528181610dfa01528181610e920152610f1901526114bb6000f3fe608060405234801561001057600080fd5b50600436106101125760003560e01c8063071060a6146101175780630b32e5001461012c57806315c2ba50146101555780631757616814610183578063392f5f64146101ae5780633cf685d6146101d5578063447d52ba146101e85780634a7a7f41146101fb578063576cbc30146102035780635e73a034146102165780636caa9c111461024a5780637a1a04df1461025d5780637dad209b1461029b5780638eaab58c146102a3578063abcbc4fc146102b6578063acd925e7146102c9578063aeb38d8b146102dc578063bf184ea4146102ef578063dc94cb7d14610302578063e8ea4fae1461030a578063e9c3f77d14610312578063fdaf43931461033b575b600080fd5b61012a6101253660046112c1565b61034e565b005b61013f61013a366004611225565b610414565b60405161014c919061139a565b60405180910390f35b610175610163366004611088565b60086020526000908152604090205481565b60405190815260200161014c565b6101966101913660046110c0565b610522565b6040516001600160a01b03909116815260200161014c565b6101967f000000000000000000000000000000000000000000000000000000000000000081565b61012a6101e33660046111b9565b6105ea565b61012a6101f63660046112f1565b6106bd565b61013f610793565b6101756102113660046111e4565b6107eb565b6101966102243660046110c0565b60066020908152600092835260408084209091529082529020546001600160a01b031681565b6101756102583660046112c1565b610895565b61028b61026b3660046111b9565b600160209081526000928352604080842090915290825290205460ff1681565b604051901515815260200161014c565b61013f6108b6565b6101756102b13660046111e4565b61090c565b6101756102c43660046112c1565b610988565b61012a6102d73660046110f8565b610998565b6101756102ea3660046112c1565b610c0b565b6101756102fd3660046112c1565b610c1b565b61013f610c2b565b61013f610c81565b6101966103203660046112c1565b6000602081905290815260409020546001600160a01b031681565b61013f610349366004611225565b610cd7565b60405163b4ed0b6d60e01b8152600481018290527f00000000000000000000000000000000000000000000000000000000000000006001600160a01b03169063b4ed0b6d9060240160206040518083038186803b1580156103ae57600080fd5b505afa1580156103c2573d6000803e3d6000fd5b505050506040513d601f19601f820116820180604052508101906103e691906110a4565b60009182526020829052604090912080546001600160a01b0319166001600160a01b03909216919091179055565b60606000836001600160401b0381111561043e57634e487b7160e01b600052604160045260246000fd5b604051908082528060200260200182016040528015610467578160200160208202803683370190505b50905060005b80851115610517576104da88888381811061049857634e487b7160e01b600052603260045260246000fd5b90506020020160208101906104ad9190611088565b8787848181106104cd57634e487b7160e01b600052603260045260246000fd5b90506020020135866107eb565b8282815181106104fa57634e487b7160e01b600052603260045260246000fd5b60209081029190910101528061050f81611418565b91505061046d565b509695505050505050565b3360009081526001602090815260408083206004845290915281205460ff1661058a5760405162461bcd60e51b81526020600482015260156024820152742737ba1030b63637bbb2b2103a37903634b9ba32b760591b60448201526064015b60405180910390fd5b6001600160a01b0380841660009081526007602090815260408083209386168352929052206105b99033610dda565b50506001600160a01b0380831660009081526006602090815260408083208585168452909152902054165b92915050565b336105f3610df6565b6001600160a01b0316148061061757503361060c610e8e565b6001600160a01b0316145b6106765760405162461bcd60e51b815260206004820152602a60248201527f526f6c65733a2063616c6c6572206973206e6f7420746865206f776e6572206f604482015269391032bc32b1baba37b960b11b6064820152608401610581565b6001600160a01b0382166000908152600860205260409081902082905551600080516020611466833981519152906106b190849084906113de565b60405180910390a15050565b60405163f0723d9760e01b81526001600160a01b037f0000000000000000000000000000000000000000000000000000000000000000169063f0723d979061070b908490869060040161135e565b60206040518083038186803b15801561072357600080fd5b505afa158015610737573d6000803e3d6000fd5b505050506040513d601f19601f8201168201806040525081019061075b91906112a5565b6001600160a01b0391909116600090815260016020908152604080832094835293905291909120805460ff1916911515919091179055565b606060038054806020026020016040519081016040528092919081815260200182805480156107e157602002820191906000526020600020905b8154815260200190600101908083116107cd575b5050505050905090565b6001600160a01b0380841660009081526006602090815260408083208585168452909152808220549051630576cbc360e41b81529192169063576cbc309061083b90879087908790600401611377565b602060405180830381600087803b15801561085557600080fd5b505af1158015610869573d6000803e3d6000fd5b505050506040513d601f19601f8201168201806040525081019061088d91906112d9565b949350505050565b600581815481106108a557600080fd5b600091825260209091200154905081565b606060048054806020026020016040519081016040528092919081815260200182805480156107e157602002820191906000526020600020908154815260200190600101908083116107cd575050505050905090565b6001600160a01b03808416600090815260066020908152604080832085851684529091528082205490516323aaad6360e21b815291921690638eaab58c9061095c90879087908790600401611377565b60206040518083038186803b15801561097457600080fd5b505afa158015610869573d6000803e3d6000fd5b600281815481106108a557600080fd5b336109a1610df6565b6001600160a01b031614806109c55750336109ba610e8e565b6001600160a01b0316145b806109d457506109d433610eff565b610a425760405162461bcd60e51b815260206004820152603960248201527f43616c6c6572206973206e6f7420746865206f776e65722c206578656375746f604482015278391037b91030baba3437b934bd32b21030b1ba34bb30ba37b960391b6064820152608401610581565b6001600160a01b03808816600090815260086020526040908190208690555163197a17f360e11b8152908616906332f42fe690610a89908a908a9087908790600401611315565b600060405180830381600087803b158015610aa357600080fd5b505af1158015610ab7573d6000803e3d6000fd5b505050506001600160a01b0387811660009081526006602090815260408083208a8516845290915290205416801580610aed5750835b15610bda576001600160a01b0388811660008181526006602090815260408083208c861680855290835281842080546001600160a01b031916968d169690961790955592825260078152828220938252929092528120905b80610b4f83610fa2565b1115610bd757610b5f8282610fac565b6040516328f3fc7360e01b81526001600160a01b038c811660048301528b8116602483015291909116906328f3fc7390604401600060405180830381600087803b158015610bac57600080fd5b505af1158015610bc0573d6000803e3d6000fd5b505050508080610bcf90611418565b915050610b45565b50505b6000805160206114668339815191528886604051610bf99291906113de565b60405180910390a15050505050505050565b600481815481106108a557600080fd5b600381815481106108a557600080fd5b606060028054806020026020016040519081016040528092919081815260200182805480156107e157602002820191906000526020600020908154815260200190600101908083116107cd575050505050905090565b606060058054806020026020016040519081016040528092919081815260200182805480156107e157602002820191906000526020600020908154815260200190600101908083116107cd575050505050905090565b60606000836001600160401b03811115610d0157634e487b7160e01b600052604160045260246000fd5b604051908082528060200260200182016040528015610d2a578160200160208202803683370190505b50905060005b8085111561051757610d9d888883818110610d5b57634e487b7160e01b600052603260045260246000fd5b9050602002016020810190610d709190611088565b878784818110610d9057634e487b7160e01b600052603260045260246000fd5b905060200201358661090c565b828281518110610dbd57634e487b7160e01b600052603260045260246000fd5b602090810291909101015280610dd281611418565b915050610d30565b6000610def836001600160a01b038416610fb8565b9392505050565b60007f00000000000000000000000000000000000000000000000000000000000000006001600160a01b0316638da5cb5b6040518163ffffffff1660e01b815260040160206040518083038186803b158015610e5157600080fd5b505afa158015610e65573d6000803e3d6000fd5b505050506040513d601f19601f82011682018060405250810190610e8991906110a4565b905090565b60007f00000000000000000000000000000000000000000000000000000000000000006001600160a01b031663c34c08e56040518163ffffffff1660e01b8152600401602060405180830381600087803b158015610eeb57600080fd5b505af1158015610e65573d6000803e3d6000fd5b60405163f0723d9760e01b81526000906001600160a01b037f0000000000000000000000000000000000000000000000000000000000000000169063f0723d9790610f529085906103eb9060040161135e565b60206040518083038186803b158015610f6a57600080fd5b505afa158015610f7e573d6000803e3d6000fd5b505050506040513d601f19601f820116820180604052508101906105e491906112a5565b60006105e4825490565b6000610def8383611007565b6000818152600183016020526040812054610fff575081546001818101845560008481526020808220909301849055845484825282860190935260409020919091556105e4565b5060006105e4565b600082600001828154811061102c57634e487b7160e01b600052603260045260246000fd5b9060005260206000200154905092915050565b60008083601f840112611050578182fd5b5081356001600160401b03811115611066578182fd5b6020830191508360208260051b850101111561108157600080fd5b9250929050565b600060208284031215611099578081fd5b8135610def8161143f565b6000602082840312156110b5578081fd5b8151610def8161143f565b600080604083850312156110d2578081fd5b82356110dd8161143f565b915060208301356110ed8161143f565b809150509250929050565b600080600080600080600060c0888a031215611112578283fd5b873561111d8161143f565b9650602088013561112d8161143f565b9550604088013561113d8161143f565b945060608801359350608088013561115481611457565b925060a08801356001600160401b038082111561116f578384fd5b818a0191508a601f830112611182578384fd5b813581811115611190578485fd5b8b60208285010111156111a1578485fd5b60208301945080935050505092959891949750929550565b600080604083850312156111cb578182fd5b82356111d68161143f565b946020939093013593505050565b6000806000606084860312156111f8578283fd5b83356112038161143f565b925060208401359150604084013561121a8161143f565b809150509250925092565b60008060008060006060868803121561123c578081fd5b85356001600160401b0380821115611252578283fd5b61125e89838a0161103f565b90975095506020880135915080821115611276578283fd5b506112838882890161103f565b90945092505060408601356112978161143f565b809150509295509295909350565b6000602082840312156112b6578081fd5b8151610def81611457565b6000602082840312156112d2578081fd5b5035919050565b6000602082840312156112ea578081fd5b5051919050565b60008060408385031215611303578182fd5b8235915060208301356110ed8161143f565b6001600160a01b038581168252841660208201526060604082018190528101829052600082846080840137818301608090810191909152601f909201601f191601019392505050565b6001600160a01b03929092168252602082015260400190565b6001600160a01b0393841681526020810192909252909116604082015260600190565b6020808252825182820181905260009190848201906040850190845b818110156113d2578351835292840192918401916001016113b6565b50909695505050505050565b6060808252600a9082015269626f72726f7761626c6560b01b60808201526001600160a01b03929092166020830152604082015260a00190565b600060001982141561143857634e487b7160e01b81526011600452602481fd5b5060010190565b6001600160a01b038116811461145457600080fd5b50565b801515811461145457600080fdfe2cc0b19d71980380c7a99113dc265ee16b9f7f394e2a42085ab6877482a7f822a2646970667358221220e631761c86ecfb12a4b9b3f1619fedae92c8c2b02a22125749f12189cb57986c64736f6c63430008030033",
  "linkReferences": {},
  "deployedLinkReferences": {}
}