{
  "_format": "hh-sol-artifact-1",
  "contractName": "Whitelist",
  "sourceName": "contracts/governance/Whitelist.sol",
  "abi": [
    {
      "anonymous": false,
      "inputs": [
        {
          "indexed": false,
          "internalType": "address",
          "name": "",
          "type": "address"
        }
      ],
      "name": "ApproveWallet",
      "type": "event"
    },
    {
      "anonymous": false,
      "inputs": [
        {
          "indexed": true,
          "internalType": "address",
          "name": "previousOwner",
          "type": "address"
        },
        {
          "indexed": true,
          "internalType": "address",
          "name": "newOwner",
          "type": "address"
        }
      ],
      "name": "OwnershipTransferred",
      "type": "event"
    },
    {
      "anonymous": false,
      "inputs": [
        {
          "indexed": false,
          "internalType": "address",
          "name": "",
          "type": "address"
        }
      ],
      "name": "RevokeWallet",
      "type": "event"
    },
    {
      "inputs": [
        {
          "internalType": "address",
          "name": "_wallet",
          "type": "address"
        }
      ],
      "name": "approveWallet",
      "outputs": [],
      "stateMutability": "nonpayable",
      "type": "function"
    },
    {
      "inputs": [
        {
          "internalType": "address",
          "name": "_wallet",
          "type": "address"
        }
      ],
      "name": "check",
      "outputs": [
        {
          "internalType": "bool",
          "name": "",
          "type": "bool"
        }
      ],
      "stateMutability": "view",
      "type": "function"
    },
    {
      "inputs": [],
      "name": "owner",
      "outputs": [
        {
          "internalType": "address",
          "name": "",
          "type": "address"
        }
      ],
      "stateMutability": "view",
      "type": "function"
    },
    {
      "inputs": [],
      "name": "renounceOwnership",
      "outputs": [],
      "stateMutability": "nonpayable",
      "type": "function"
    },
    {
      "inputs": [
        {
          "internalType": "address",
          "name": "_wallet",
          "type": "address"
        }
      ],
      "name": "revokeWallet",
      "outputs": [],
      "stateMutability": "nonpayable",
      "type": "function"
    },
    {
      "inputs": [
        {
          "internalType": "address",
          "name": "newOwner",
          "type": "address"
        }
      ],
      "name": "transferOwnership",
      "outputs": [],
      "stateMutability": "nonpayable",
      "type": "function"
    }
  ],
  "bytecode": "0x608060405234801561001057600080fd5b5061001a3361001f565b61006f565b600080546001600160a01b038381166001600160a01b0319831681178455604051919092169283917f8be0079c531659141344cd1fd0a4f28419497f9722a3daafe3b4186f6b6457e09190a35050565b61043d8061007e6000396000f3fe608060405234801561001057600080fd5b50600436106100625760003560e01c80630fcb0ae514610067578063715018a61461007c578063808a9d40146100845780638da5cb5b14610097578063c23697a8146100b5578063f2fde38b146100f1575b600080fd5b61007a610075366004610390565b610104565b005b61007a6101bd565b61007a610092366004610390565b6101f8565b61009f610298565b6040516100ac91906103be565b60405180910390f35b6100e16100c3366004610390565b6001600160a01b031660009081526001602052604090205460ff1690565b60405190151581526020016100ac565b61007a6100ff366004610390565b6102a7565b3361010d610298565b6001600160a01b03161461013c5760405162461bcd60e51b8152600401610133906103d2565b60405180910390fd5b6001600160a01b03811660009081526001602052604090205460ff166101ba576001600160a01b038116600090815260016020819052604091829020805460ff19169091179055517fc1e7aae3f3125e58cfc69ab2a872a655dbb9427614aa85b29bb5abeaca4d6a92906101b19083906103be565b60405180910390a15b50565b336101c6610298565b6001600160a01b0316146101ec5760405162461bcd60e51b8152600401610133906103d2565b6101f66000610340565b565b33610201610298565b6001600160a01b0316146102275760405162461bcd60e51b8152600401610133906103d2565b6001600160a01b03811660009081526001602052604090205460ff16156101ba576001600160a01b03811660009081526001602052604090819020805460ff19169055517f1b676c3cc753786cb95aff57280fd7406f1da74e2a8b9755fdd395aded3e16dd906101b19083906103be565b6000546001600160a01b031690565b336102b0610298565b6001600160a01b0316146102d65760405162461bcd60e51b8152600401610133906103d2565b6001600160a01b03811661033b5760405162461bcd60e51b815260206004820152602660248201527f4f776e61626c653a206e6577206f776e657220697320746865207a65726f206160448201526564647265737360d01b6064820152608401610133565b6101ba815b600080546001600160a01b038381166001600160a01b0319831681178455604051919092169283917f8be0079c531659141344cd1fd0a4f28419497f9722a3daafe3b4186f6b6457e09190a35050565b6000602082840312156103a1578081fd5b81356001600160a01b03811681146103b7578182fd5b9392505050565b6001600160a01b0391909116815260200190565b6020808252818101527f4f776e61626c653a2063616c6c6572206973206e6f7420746865206f776e657260408201526060019056fea2646970667358221220093e7b09c2bfea6189db2ad1c6c8c298ae02432529dab8312fbf6fb662dd64c564736f6c63430008030033",
  "linkReferences": {},
  "deployedLinkReferences": {}
}