{
  "_format": "hh-sol-artifact-1",
  "contractName": "AltYieldYakStrategy2",
  "sourceName": "contracts/strategies/AltYieldYakStrategy2.sol",
  "abi": [
    {
      "inputs": [
        {
          "internalType": "address",
          "name": "_roles",
          "type": "address"
        }
      ],
      "stateMutability": "nonpayable",
      "type": "constructor"
    },
    {
      "anonymous": false,
      "inputs": [
        {
          "indexed": false,
          "internalType": "string",
          "name": "param",
          "type": "string"
        },
        {
          "indexed": false,
          "internalType": "uint256",
          "name": "value",
          "type": "uint256"
        }
      ],
      "name": "ParameterUpdated",
      "type": "event"
    },
    {
      "anonymous": false,
      "inputs": [
        {
          "indexed": false,
          "internalType": "string",
          "name": "param",
          "type": "string"
        },
        {
          "indexed": false,
          "internalType": "address",
          "name": "subject",
          "type": "address"
        },
        {
          "indexed": false,
          "internalType": "uint256",
          "name": "value",
          "type": "uint256"
        }
      ],
      "name": "SubjectParameterUpdated",
      "type": "event"
    },
    {
      "anonymous": false,
      "inputs": [
        {
          "indexed": false,
          "internalType": "string",
          "name": "param",
          "type": "string"
        },
        {
          "indexed": false,
          "internalType": "address",
          "name": "subject",
          "type": "address"
        }
      ],
      "name": "SubjectUpdated",
      "type": "event"
    },
    {
      "stateMutability": "payable",
      "type": "fallback"
    },
    {
      "inputs": [
        {
          "internalType": "uint256",
          "name": "",
          "type": "uint256"
        }
      ],
      "name": "_accounts",
      "outputs": [
        {
          "internalType": "uint256",
          "name": "collateral",
          "type": "uint256"
        },
        {
          "internalType": "uint256",
          "name": "yieldCheckptIdx",
          "type": "uint256"
        },
        {
          "internalType": "address",
          "name": "trancheToken",
          "type": "address"
        }
      ],
      "stateMutability": "view",
      "type": "function"
    },
    {
      "inputs": [
        {
          "internalType": "uint256",
          "name": "",
          "type": "uint256"
        }
      ],
      "name": "_charactersPlayed",
      "outputs": [
        {
          "internalType": "uint256",
          "name": "",
          "type": "uint256"
        }
      ],
      "stateMutability": "view",
      "type": "function"
    },
    {
      "inputs": [
        {
          "internalType": "uint256",
          "name": "",
          "type": "uint256"
        }
      ],
      "name": "_dependsOnCharacters",
      "outputs": [
        {
          "internalType": "uint256",
          "name": "",
          "type": "uint256"
        }
      ],
      "stateMutability": "view",
      "type": "function"
    },
    {
      "inputs": [
        {
          "internalType": "uint256",
          "name": "",
          "type": "uint256"
        }
      ],
      "name": "_dependsOnRoles",
      "outputs": [
        {
          "internalType": "uint256",
          "name": "",
          "type": "uint256"
        }
      ],
      "stateMutability": "view",
      "type": "function"
    },
    {
      "inputs": [
        {
          "internalType": "address",
          "name": "",
          "type": "address"
        },
        {
          "internalType": "address",
          "name": "",
          "type": "address"
        }
      ],
      "name": "_oracleCache",
      "outputs": [
        {
          "internalType": "address",
          "name": "",
          "type": "address"
        }
      ],
      "stateMutability": "view",
      "type": "function"
    },
    {
      "inputs": [
        {
          "internalType": "uint256",
          "name": "",
          "type": "uint256"
        }
      ],
      "name": "_rolesPlayed",
      "outputs": [
        {
          "internalType": "uint256",
          "name": "",
          "type": "uint256"
        }
      ],
      "stateMutability": "view",
      "type": "function"
    },
    {
      "inputs": [
        {
          "internalType": "address",
          "name": "token",
          "type": "address"
        }
      ],
      "name": "_viewTVL",
      "outputs": [
        {
          "internalType": "uint256",
          "name": "",
          "type": "uint256"
        }
      ],
      "stateMutability": "view",
      "type": "function"
    },
    {
      "inputs": [
        {
          "internalType": "uint256",
          "name": "trancheId",
          "type": "uint256"
        },
        {
          "internalType": "address",
          "name": "sourceStrategy",
          "type": "address"
        },
        {
          "internalType": "address",
          "name": "tokenContract",
          "type": "address"
        },
        {
          "internalType": "uint256",
          "name": "",
          "type": "uint256"
        },
        {
          "internalType": "uint256",
          "name": "amount",
          "type": "uint256"
        }
      ],
      "name": "acceptMigration",
      "outputs": [],
      "stateMutability": "nonpayable",
      "type": "function"
    },
    {
      "inputs": [],
      "name": "apfSmoothingPer10k",
      "outputs": [
        {
          "internalType": "uint256",
          "name": "",
          "type": "uint256"
        }
      ],
      "stateMutability": "view",
      "type": "function"
    },
    {
      "inputs": [
        {
          "internalType": "address",
          "name": "token",
          "type": "address"
        },
        {
          "internalType": "bytes",
          "name": "data",
          "type": "bytes"
        }
      ],
      "name": "approveToken",
      "outputs": [],
      "stateMutability": "nonpayable",
      "type": "function"
    },
    {
      "inputs": [
        {
          "internalType": "address",
          "name": "token",
          "type": "address"
        }
      ],
      "name": "approvedToken",
      "outputs": [
        {
          "internalType": "bool",
          "name": "",
          "type": "bool"
        }
      ],
      "stateMutability": "view",
      "type": "function"
    },
    {
      "inputs": [],
      "name": "approvedTokensCount",
      "outputs": [
        {
          "internalType": "uint256",
          "name": "",
          "type": "uint256"
        }
      ],
      "stateMutability": "view",
      "type": "function"
    },
    {
      "inputs": [],
      "name": "charactersPlayed",
      "outputs": [
        {
          "internalType": "uint256[]",
          "name": "",
          "type": "uint256[]"
        }
      ],
      "stateMutability": "view",
      "type": "function"
    },
    {
      "inputs": [
        {
          "internalType": "address",
          "name": "token",
          "type": "address"
        },
        {
          "internalType": "address",
          "name": "strategy",
          "type": "address"
        }
      ],
      "name": "checkApprovedAndEncode",
      "outputs": [
        {
          "internalType": "bool",
          "name": "",
          "type": "bool"
        },
        {
          "internalType": "bytes",
          "name": "",
          "type": "bytes"
        }
      ],
      "stateMutability": "view",
      "type": "function"
    },
    {
      "inputs": [
        {
          "internalType": "uint256",
          "name": "trancheId",
          "type": "uint256"
        },
        {
          "internalType": "address",
          "name": "currency",
          "type": "address"
        },
        {
          "internalType": "address",
          "name": "recipient",
          "type": "address"
        }
      ],
      "name": "collectYield",
      "outputs": [
        {
          "internalType": "uint256",
          "name": "",
          "type": "uint256"
        }
      ],
      "stateMutability": "nonpayable",
      "type": "function"
    },
    {
      "inputs": [
        {
          "internalType": "uint256",
          "name": "trancheId",
          "type": "uint256"
        },
        {
          "internalType": "address",
          "name": "_yieldCurrency",
          "type": "address"
        },
        {
          "internalType": "address",
          "name": "valueCurrency",
          "type": "address"
        },
        {
          "internalType": "address",
          "name": "recipient",
          "type": "address"
        }
      ],
      "name": "collectYieldValueBorrowable",
      "outputs": [
        {
          "internalType": "uint256",
          "name": "yield",
          "type": "uint256"
        },
        {
          "internalType": "uint256",
          "name": "value",
          "type": "uint256"
        },
        {
          "internalType": "uint256",
          "name": "borrowablePer10k",
          "type": "uint256"
        }
      ],
      "stateMutability": "nonpayable",
      "type": "function"
    },
    {
      "inputs": [
        {
          "internalType": "address",
          "name": "token",
          "type": "address"
        }
      ],
      "name": "currentMultiple",
      "outputs": [
        {
          "internalType": "uint256",
          "name": "",
          "type": "uint256"
        }
      ],
      "stateMutability": "view",
      "type": "function"
    },
    {
      "inputs": [],
      "name": "dependsOnCharacters",
      "outputs": [
        {
          "internalType": "uint256[]",
          "name": "",
          "type": "uint256[]"
        }
      ],
      "stateMutability": "view",
      "type": "function"
    },
    {
      "inputs": [],
      "name": "dependsOnRoles",
      "outputs": [
        {
          "internalType": "uint256[]",
          "name": "",
          "type": "uint256[]"
        }
      ],
      "stateMutability": "view",
      "type": "function"
    },
    {
      "inputs": [
        {
          "internalType": "uint256",
          "name": "",
          "type": "uint256"
        }
      ],
      "name": "depositedMultiple",
      "outputs": [
        {
          "internalType": "uint256",
          "name": "",
          "type": "uint256"
        }
      ],
      "stateMutability": "view",
      "type": "function"
    },
    {
      "inputs": [
        {
          "internalType": "uint256",
          "name": "trancheId",
          "type": "uint256"
        }
      ],
      "name": "depositedShares",
      "outputs": [
        {
          "internalType": "uint256",
          "name": "",
          "type": "uint256"
        }
      ],
      "stateMutability": "view",
      "type": "function"
    },
    {
      "inputs": [
        {
          "internalType": "address",
          "name": "token",
          "type": "address"
        },
        {
          "internalType": "bytes",
          "name": "",
          "type": "bytes"
        }
      ],
      "name": "disapproveToken",
      "outputs": [],
      "stateMutability": "nonpayable",
      "type": "function"
    },
    {
      "inputs": [],
      "name": "disapprovedTokensCount",
      "outputs": [
        {
          "internalType": "uint256",
          "name": "",
          "type": "uint256"
        }
      ],
      "stateMutability": "view",
      "type": "function"
    },
    {
      "inputs": [
        {
          "internalType": "address",
          "name": "",
          "type": "address"
        }
      ],
      "name": "feeBase",
      "outputs": [
        {
          "internalType": "uint256",
          "name": "",
          "type": "uint256"
        }
      ],
      "stateMutability": "view",
      "type": "function"
    },
    {
      "inputs": [
        {
          "internalType": "address",
          "name": "",
          "type": "address"
        }
      ],
      "name": "feeMultiple",
      "outputs": [
        {
          "internalType": "uint256",
          "name": "",
          "type": "uint256"
        }
      ],
      "stateMutability": "view",
      "type": "function"
    },
    {
      "inputs": [
        {
          "internalType": "address",
          "name": "token",
          "type": "address"
        }
      ],
      "name": "harvestPartially",
      "outputs": [],
      "stateMutability": "nonpayable",
      "type": "function"
    },
    {
      "inputs": [],
      "name": "isActive",
      "outputs": [
        {
          "internalType": "bool",
          "name": "",
          "type": "bool"
        }
      ],
      "stateMutability": "view",
      "type": "function"
    },
    {
      "inputs": [
        {
          "internalType": "uint256",
          "name": "",
          "type": "uint256"
        }
      ],
      "name": "mainCharacterCache",
      "outputs": [
        {
          "internalType": "address",
          "name": "",
          "type": "address"
        }
      ],
      "stateMutability": "view",
      "type": "function"
    },
    {
      "inputs": [
        {
          "internalType": "address",
          "name": "destination",
          "type": "address"
        }
      ],
      "name": "migrateAllTo",
      "outputs": [],
      "stateMutability": "nonpayable",
      "type": "function"
    },
    {
      "inputs": [
        {
          "internalType": "uint256",
          "name": "trancheId",
          "type": "uint256"
        },
        {
          "internalType": "address",
          "name": "targetStrategy",
          "type": "address"
        },
        {
          "internalType": "address",
          "name": "yieldToken",
          "type": "address"
        },
        {
          "internalType": "address",
          "name": "yieldRecipient",
          "type": "address"
        }
      ],
      "name": "migrateStrategy",
      "outputs": [
        {
          "internalType": "address",
          "name": "",
          "type": "address"
        },
        {
          "internalType": "uint256",
          "name": "",
          "type": "uint256"
        },
        {
          "internalType": "uint256",
          "name": "",
          "type": "uint256"
        }
      ],
      "stateMutability": "nonpayable",
      "type": "function"
    },
    {
      "inputs": [
        {
          "internalType": "address",
          "name": "token",
          "type": "address"
        },
        {
          "internalType": "address",
          "name": "pegCurrency",
          "type": "address"
        }
      ],
      "name": "newCurrentOracle",
      "outputs": [],
      "stateMutability": "nonpayable",
      "type": "function"
    },
    {
      "inputs": [
        {
          "internalType": "address",
          "name": "depositor",
          "type": "address"
        },
        {
          "internalType": "uint256",
          "name": "trancheId",
          "type": "uint256"
        },
        {
          "internalType": "uint256",
          "name": "amount",
          "type": "uint256"
        },
        {
          "internalType": "address",
          "name": "yieldRecipient",
          "type": "address"
        }
      ],
      "name": "registerDepositFor",
      "outputs": [],
      "stateMutability": "nonpayable",
      "type": "function"
    },
    {
      "inputs": [
        {
          "internalType": "address",
          "name": "minter",
          "type": "address"
        },
        {
          "internalType": "uint256",
          "name": "trancheId",
          "type": "uint256"
        },
        {
          "internalType": "address",
          "name": "assetToken",
          "type": "address"
        },
        {
          "internalType": "uint256",
          "name": "",
          "type": "uint256"
        },
        {
          "internalType": "uint256",
          "name": "assetAmount",
          "type": "uint256"
        }
      ],
      "name": "registerMintTranche",
      "outputs": [],
      "stateMutability": "nonpayable",
      "type": "function"
    },
    {
      "inputs": [
        {
          "internalType": "address",
          "name": "token",
          "type": "address"
        },
        {
          "internalType": "uint256",
          "name": "amount",
          "type": "uint256"
        },
        {
          "internalType": "address",
          "name": "recipient",
          "type": "address"
        }
      ],
      "name": "rescueCollateral",
      "outputs": [],
      "stateMutability": "nonpayable",
      "type": "function"
    },
    {
      "inputs": [
        {
          "internalType": "uint256",
          "name": "amount",
          "type": "uint256"
        },
        {
          "internalType": "address",
          "name": "recipient",
          "type": "address"
        }
      ],
      "name": "rescueNative",
      "outputs": [],
      "stateMutability": "nonpayable",
      "type": "function"
    },
    {
      "inputs": [
        {
          "internalType": "address",
          "name": "token",
          "type": "address"
        },
        {
          "internalType": "uint256",
          "name": "amount",
          "type": "uint256"
        },
        {
          "internalType": "address",
          "name": "recipient",
          "type": "address"
        }
      ],
      "name": "rescueStrandedTokens",
      "outputs": [],
      "stateMutability": "nonpayable",
      "type": "function"
    },
    {
      "inputs": [
        {
          "internalType": "address",
          "name": "",
          "type": "address"
        },
        {
          "internalType": "uint256",
          "name": "",
          "type": "uint256"
        }
      ],
      "name": "roleCache",
      "outputs": [
        {
          "internalType": "bool",
          "name": "",
          "type": "bool"
        }
      ],
      "stateMutability": "view",
      "type": "function"
    },
    {
      "inputs": [],
      "name": "roles",
      "outputs": [
        {
          "internalType": "contract Roles",
          "name": "",
          "type": "address"
        }
      ],
      "stateMutability": "view",
      "type": "function"
    },
    {
      "inputs": [],
      "name": "rolesPlayed",
      "outputs": [
        {
          "internalType": "uint256[]",
          "name": "",
          "type": "uint256[]"
        }
      ],
      "stateMutability": "view",
      "type": "function"
    },
    {
      "inputs": [
        {
          "internalType": "uint256",
          "name": "smoothing",
          "type": "uint256"
        }
      ],
      "name": "setApfSmoothingPer10k",
      "outputs": [],
      "stateMutability": "nonpayable",
      "type": "function"
    },
    {
      "inputs": [
        {
          "internalType": "uint256",
          "name": "fee",
          "type": "uint256"
        }
      ],
      "name": "setFeePer10k",
      "outputs": [],
      "stateMutability": "nonpayable",
      "type": "function"
    },
    {
      "inputs": [
        {
          "internalType": "address",
          "name": "token",
          "type": "address"
        },
        {
          "internalType": "address",
          "name": "strategy",
          "type": "address"
        }
      ],
      "name": "setYakStrategy",
      "outputs": [],
      "stateMutability": "nonpayable",
      "type": "function"
    },
    {
      "inputs": [
        {
          "internalType": "address",
          "name": "",
          "type": "address"
        }
      ],
      "name": "stabilityFeePer10k",
      "outputs": [
        {
          "internalType": "uint256",
          "name": "",
          "type": "uint256"
        }
      ],
      "stateMutability": "view",
      "type": "function"
    },
    {
      "inputs": [
        {
          "internalType": "address",
          "name": "",
          "type": "address"
        }
      ],
      "name": "startingTokensPerShare",
      "outputs": [
        {
          "internalType": "uint256",
          "name": "",
          "type": "uint256"
        }
      ],
      "stateMutability": "view",
      "type": "function"
    },
    {
      "inputs": [],
      "name": "strategyName",
      "outputs": [
        {
          "internalType": "bytes32",
          "name": "",
          "type": "bytes32"
        }
      ],
      "stateMutability": "view",
      "type": "function"
    },
    {
      "inputs": [
        {
          "internalType": "address",
          "name": "",
          "type": "address"
        }
      ],
      "name": "tokenMetadata",
      "outputs": [
        {
          "internalType": "uint256",
          "name": "totalCollateralThisPhase",
          "type": "uint256"
        },
        {
          "internalType": "uint256",
          "name": "totalCollateralNow",
          "type": "uint256"
        },
        {
          "internalType": "uint256",
          "name": "apfLastUpdated",
          "type": "uint256"
        },
        {
          "internalType": "uint256",
          "name": "apf",
          "type": "uint256"
        }
      ],
      "stateMutability": "view",
      "type": "function"
    },
    {
      "inputs": [
        {
          "internalType": "uint256",
          "name": "trancheId",
          "type": "uint256"
        }
      ],
      "name": "tranche",
      "outputs": [
        {
          "internalType": "address",
          "name": "",
          "type": "address"
        }
      ],
      "stateMutability": "view",
      "type": "function"
    },
    {
      "inputs": [
        {
          "internalType": "uint256",
          "name": "trancheId",
          "type": "uint256"
        }
      ],
      "name": "trancheToken",
      "outputs": [
        {
          "internalType": "address",
          "name": "token",
          "type": "address"
        }
      ],
      "stateMutability": "view",
      "type": "function"
    },
    {
      "inputs": [
        {
          "internalType": "uint256",
          "name": "",
          "type": "uint256"
        }
      ],
      "name": "trancheTokenID",
      "outputs": [
        {
          "internalType": "uint256",
          "name": "",
          "type": "uint256"
        }
      ],
      "stateMutability": "pure",
      "type": "function"
    },
    {
      "inputs": [
        {
          "internalType": "uint256",
          "name": "role",
          "type": "uint256"
        }
      ],
      "name": "updateMainCharacterCache",
      "outputs": [],
      "stateMutability": "nonpayable",
      "type": "function"
    },
    {
      "inputs": [
        {
          "internalType": "uint256",
          "name": "role",
          "type": "uint256"
        },
        {
          "internalType": "address",
          "name": "contr",
          "type": "address"
        }
      ],
      "name": "updateRoleCache",
      "outputs": [],
      "stateMutability": "nonpayable",
      "type": "function"
    },
    {
      "inputs": [
        {
          "internalType": "address",
          "name": "token",
          "type": "address"
        }
      ],
      "name": "viewAPF",
      "outputs": [
        {
          "internalType": "uint256",
          "name": "",
          "type": "uint256"
        }
      ],
      "stateMutability": "view",
      "type": "function"
    },
    {
      "inputs": [],
      "name": "viewAllApprovedTokens",
      "outputs": [
        {
          "internalType": "address[]",
          "name": "",
          "type": "address[]"
        }
      ],
      "stateMutability": "view",
      "type": "function"
    },
    {
      "inputs": [],
      "name": "viewAllDisapprovedTokenStrategyMetadata",
      "outputs": [
        {
          "components": [
            {
              "internalType": "address",
              "name": "strategy",
              "type": "address"
            },
            {
              "internalType": "address",
              "name": "token",
              "type": "address"
            },
            {
              "internalType": "uint256",
              "name": "APF",
              "type": "uint256"
            },
            {
              "internalType": "uint256",
              "name": "totalCollateral",
              "type": "uint256"
            },
            {
              "internalType": "uint256",
              "name": "borrowablePer10k",
              "type": "uint256"
            },
            {
              "internalType": "uint256",
              "name": "valuePer1e18",
              "type": "uint256"
            },
            {
              "internalType": "bytes32",
              "name": "strategyName",
              "type": "bytes32"
            },
            {
              "internalType": "uint256",
              "name": "tvl",
              "type": "uint256"
            },
            {
              "internalType": "uint256",
              "name": "harvestBalance2Tally",
              "type": "uint256"
            },
            {
              "internalType": "enum IStrategy.YieldType",
              "name": "yieldType",
              "type": "uint8"
            },
            {
              "internalType": "uint256",
              "name": "stabilityFee",
              "type": "uint256"
            },
            {
              "internalType": "address",
              "name": "underlyingStrategy",
              "type": "address"
            }
          ],
          "internalType": "struct IStrategy.StrategyMetadata[]",
          "name": "",
          "type": "tuple[]"
        }
      ],
      "stateMutability": "view",
      "type": "function"
    },
    {
      "inputs": [],
      "name": "viewAllDisapprovedTokens",
      "outputs": [
        {
          "internalType": "address[]",
          "name": "",
          "type": "address[]"
        }
      ],
      "stateMutability": "view",
      "type": "function"
    },
    {
      "inputs": [],
      "name": "viewAllFeesEver",
      "outputs": [
        {
          "internalType": "uint256",
          "name": "balance",
          "type": "uint256"
        }
      ],
      "stateMutability": "view",
      "type": "function"
    },
    {
      "inputs": [],
      "name": "viewAllStrategyMetadata",
      "outputs": [
        {
          "components": [
            {
              "internalType": "address",
              "name": "strategy",
              "type": "address"
            },
            {
              "internalType": "address",
              "name": "token",
              "type": "address"
            },
            {
              "internalType": "uint256",
              "name": "APF",
              "type": "uint256"
            },
            {
              "internalType": "uint256",
              "name": "totalCollateral",
              "type": "uint256"
            },
            {
              "internalType": "uint256",
              "name": "borrowablePer10k",
              "type": "uint256"
            },
            {
              "internalType": "uint256",
              "name": "valuePer1e18",
              "type": "uint256"
            },
            {
              "internalType": "bytes32",
              "name": "strategyName",
              "type": "bytes32"
            },
            {
              "internalType": "uint256",
              "name": "tvl",
              "type": "uint256"
            },
            {
              "internalType": "uint256",
              "name": "harvestBalance2Tally",
              "type": "uint256"
            },
            {
              "internalType": "enum IStrategy.YieldType",
              "name": "yieldType",
              "type": "uint8"
            },
            {
              "internalType": "uint256",
              "name": "stabilityFee",
              "type": "uint256"
            },
            {
              "internalType": "address",
              "name": "underlyingStrategy",
              "type": "address"
            }
          ],
          "internalType": "struct IStrategy.StrategyMetadata[]",
          "name": "",
          "type": "tuple[]"
        }
      ],
      "stateMutability": "view",
      "type": "function"
    },
    {
      "inputs": [],
      "name": "viewAllTokensEver",
      "outputs": [
        {
          "internalType": "address[]",
          "name": "",
          "type": "address[]"
        }
      ],
      "stateMutability": "view",
      "type": "function"
    },
    {
      "inputs": [
        {
          "internalType": "uint256",
          "name": "trancheId",
          "type": "uint256"
        }
      ],
      "name": "viewBorrowable",
      "outputs": [
        {
          "internalType": "uint256",
          "name": "borrowablePer10k",
          "type": "uint256"
        }
      ],
      "stateMutability": "view",
      "type": "function"
    },
    {
      "inputs": [
        {
          "internalType": "address",
          "name": "token",
          "type": "address"
        }
      ],
      "name": "viewEstimatedHarvestable",
      "outputs": [
        {
          "internalType": "uint256",
          "name": "",
          "type": "uint256"
        }
      ],
      "stateMutability": "view",
      "type": "function"
    },
    {
      "inputs": [
        {
          "internalType": "address",
          "name": "",
          "type": "address"
        }
      ],
      "name": "viewHarvestBalance2Tally",
      "outputs": [
        {
          "internalType": "uint256",
          "name": "",
          "type": "uint256"
        }
      ],
      "stateMutability": "view",
      "type": "function"
    },
    {
      "inputs": [
        {
          "internalType": "address",
          "name": "token",
          "type": "address"
        }
      ],
      "name": "viewSourceHarvestable",
      "outputs": [
        {
          "internalType": "uint256",
          "name": "",
          "type": "uint256"
        }
      ],
      "stateMutability": "view",
      "type": "function"
    },
    {
      "inputs": [
        {
          "internalType": "address",
          "name": "token",
          "type": "address"
        }
      ],
      "name": "viewStrategyMetadata",
      "outputs": [
        {
          "components": [
            {
              "internalType": "address",
              "name": "strategy",
              "type": "address"
            },
            {
              "internalType": "address",
              "name": "token",
              "type": "address"
            },
            {
              "internalType": "uint256",
              "name": "APF",
              "type": "uint256"
            },
            {
              "internalType": "uint256",
              "name": "totalCollateral",
              "type": "uint256"
            },
            {
              "internalType": "uint256",
              "name": "borrowablePer10k",
              "type": "uint256"
            },
            {
              "internalType": "uint256",
              "name": "valuePer1e18",
              "type": "uint256"
            },
            {
              "internalType": "bytes32",
              "name": "strategyName",
              "type": "bytes32"
            },
            {
              "internalType": "uint256",
              "name": "tvl",
              "type": "uint256"
            },
            {
              "internalType": "uint256",
              "name": "harvestBalance2Tally",
              "type": "uint256"
            },
            {
              "internalType": "enum IStrategy.YieldType",
              "name": "yieldType",
              "type": "uint8"
            },
            {
              "internalType": "uint256",
              "name": "stabilityFee",
              "type": "uint256"
            },
            {
              "internalType": "address",
              "name": "underlyingStrategy",
              "type": "address"
            }
          ],
          "internalType": "struct IStrategy.StrategyMetadata",
          "name": "",
          "type": "tuple"
        }
      ],
      "stateMutability": "view",
      "type": "function"
    },
    {
      "inputs": [
        {
          "internalType": "uint256",
          "name": "trancheId",
          "type": "uint256"
        }
      ],
      "name": "viewTargetCollateralAmount",
      "outputs": [
        {
          "internalType": "uint256",
          "name": "",
          "type": "uint256"
        }
      ],
      "stateMutability": "view",
      "type": "function"
    },
    {
      "inputs": [
        {
          "internalType": "address",
          "name": "token",
          "type": "address"
        }
      ],
      "name": "viewUnderlyingStrategy",
      "outputs": [
        {
          "internalType": "address",
          "name": "",
          "type": "address"
        }
      ],
      "stateMutability": "view",
      "type": "function"
    },
    {
      "inputs": [
        {
          "internalType": "uint256",
          "name": "trancheId",
          "type": "uint256"
        },
        {
          "internalType": "address",
          "name": "valueCurrency",
          "type": "address"
        }
      ],
      "name": "viewValue",
      "outputs": [
        {
          "internalType": "uint256",
          "name": "value",
          "type": "uint256"
        }
      ],
      "stateMutability": "view",
      "type": "function"
    },
    {
      "inputs": [
        {
          "internalType": "uint256",
          "name": "trancheId",
          "type": "uint256"
        },
        {
          "internalType": "address",
          "name": "valueCurrency",
          "type": "address"
        }
      ],
      "name": "viewValueBorrowable",
      "outputs": [
        {
          "internalType": "uint256",
          "name": "value",
          "type": "uint256"
        },
        {
          "internalType": "uint256",
          "name": "borrowable",
          "type": "uint256"
        }
      ],
      "stateMutability": "view",
      "type": "function"
    },
    {
      "inputs": [
        {
          "internalType": "uint256",
          "name": "trancheId",
          "type": "uint256"
        },
        {
          "internalType": "address",
          "name": "currency",
          "type": "address"
        }
      ],
      "name": "viewYield",
      "outputs": [
        {
          "internalType": "uint256",
          "name": "",
          "type": "uint256"
        }
      ],
      "stateMutability": "view",
      "type": "function"
    },
    {
      "inputs": [
        {
          "internalType": "uint256",
          "name": "trancheId",
          "type": "uint256"
        },
        {
          "internalType": "address",
          "name": "_yieldCurrency",
          "type": "address"
        },
        {
          "internalType": "address",
          "name": "valueCurrency",
          "type": "address"
        }
      ],
      "name": "viewYieldValueBorrowable",
      "outputs": [
        {
          "internalType": "uint256",
          "name": "yield",
          "type": "uint256"
        },
        {
          "internalType": "uint256",
          "name": "value",
          "type": "uint256"
        },
        {
          "internalType": "uint256",
          "name": "borrowablePer10k",
          "type": "uint256"
        }
      ],
      "stateMutability": "view",
      "type": "function"
    },
    {
      "inputs": [
        {
          "internalType": "uint256",
          "name": "trancheId",
          "type": "uint256"
        },
        {
          "internalType": "uint256",
          "name": "amount",
          "type": "uint256"
        },
        {
          "internalType": "address",
          "name": "yieldToken",
          "type": "address"
        },
        {
          "internalType": "address",
          "name": "recipient",
          "type": "address"
        }
      ],
      "name": "withdraw",
      "outputs": [],
      "stateMutability": "nonpayable",
      "type": "function"
    },
    {
      "inputs": [],
      "name": "withdrawAllFees",
      "outputs": [],
      "stateMutability": "nonpayable",
      "type": "function"
    },
    {
      "inputs": [
        {
          "internalType": "address",
          "name": "token",
          "type": "address"
        }
      ],
      "name": "withdrawFees",
      "outputs": [],
      "stateMutability": "nonpayable",
      "type": "function"
    },
    {
      "inputs": [],
      "name": "withdrawnFees",
      "outputs": [
        {
          "internalType": "uint256",
          "name": "",
          "type": "uint256"
        }
      ],
      "stateMutability": "view",
      "type": "function"
    },
    {
      "inputs": [
        {
          "internalType": "address",
          "name": "",
          "type": "address"
        }
      ],
      "name": "yakStrategy",
      "outputs": [
        {
          "internalType": "address",
          "name": "",
          "type": "address"
        }
      ],
      "stateMutability": "view",
      "type": "function"
    },
    {
      "inputs": [],
      "name": "yieldCurrency",
      "outputs": [
        {
          "internalType": "address",
          "name": "",
          "type": "address"
        }
      ],
      "stateMutability": "view",
      "type": "function"
    },
    {
      "inputs": [],
      "name": "yieldType",
      "outputs": [
        {
          "internalType": "enum IStrategy.YieldType",
          "name": "",
          "type": "uint8"
        }
      ],
      "stateMutability": "pure",
      "type": "function"
    },
    {
      "stateMutability": "payable",
      "type": "receive"
    }
  ],
  "bytecode": "0x60e06040526009805460ff191660011790556113886011556103e86019553480156200002a57600080fd5b50604051620054df380380620054df8339810160408190526200004d91620002da565b807f5969656c6459616b20636f6d706f756e64696e6700000000000000000000000081806001600160a01b038116620000d75760405162461bcd60e51b815260206004820152602260248201527f506c656173652070726f766964652076616c696420726f6c6573206164647265604482015261737360f01b606482015260840160405180910390fd5b60601b6001600160601b0319166080526002805460018082018355606a600080516020620054bf8339815191529283015560058054808301825560047f036b6384b5eca791c62761152d0c79bb0604c104a5fb6f4eb0703f3154bb3db09182018190558554808501875560669086015582548085019093559101849055835480830185556068908401556003805480840182557fc2575a0e9e593c00f959f8c92f12db2869c3395a3b0502d05e2516446f71f85b908101829055815480850190925501829055835491820184556000939093526069910181905560405163b4ed0b6d60e01b8152918201526001600160a01b0382169063b4ed0b6d9060240160206040518083038186803b158015620001ef57600080fd5b505afa15801562000204573d6000803e3d6000fd5b505050506040513d601f19601f820116820180604052508101906200022a9190620002da565b6001600160a01b031663fae794e66040518163ffffffff1660e01b815260040160206040518083038186803b1580156200026357600080fd5b505afa15801562000278573d6000803e3d6000fd5b505050506040513d601f19601f820116820180604052508101906200029e91906200030a565b60a052506001600881905560c0919091526002805491820181556000526067600080516020620054bf8339815191529091015550620003239050565b600060208284031215620002ec578081fd5b81516001600160a01b038116811462000303578182fd5b9392505050565b6000602082840312156200031c578081fd5b5051919050565b60805160601c60a05160c0516151386200038760003960008181610bde0152611285015260006123dd01526000818161065901528181610fff0152818161193b01528181612d2f01528181612dc2015281816131570152613d2d01526151386000f3fe60806040526004361061035b5760003560e01c806301c7b9f8146103645780630581f3b51461039757806306b8ce99146103b7578063071060a6146103cc5780630a3017d9146103ec5780630b5044301461040c5780630ccc5bd6146104395780630d74962814610459578063110acb231461046e578063164e68de1461049b57806316a6b54a146104bb57806318af4c9e146104db5780631dc3a759146104fb5780631f7ea8811461051c57806321fa0f1f1461053c57806322f3e2d41461055e5780632642b6061461058857806326473a8f146105d657806328f3fc73146105f1578063296b122814610611578063392f5f64146106475780633a3db4351461067b5780633ace96ec1461069b578063447d52ba146106bb578063459ba127146106db57806349d4f22e146106fb5780634a7a7f411461071b5780634d5783591461073d5780634d9d01b21461076b5780634df87c09146107805780636caa9c11146107a05780636fecdf24146107c057806371b3177a146108255780637268d1c0146108455780637a1a04df146108655780637b2c9279146108a05780637dad209b146108b55780638496e891146108ca57806389f117b3146109055780639470505f146105d657806395494bf5146104fb5780639b0f09ae146109255780639dc3a9f5146109415780639fffe0641461096e578063a4d77f901461098e578063a50233c9146109c3578063a51c8fab146109e3578063abcbc4fc14610a05578063ad89b79414610a25578063aeb38d8b14610a3a578063af236af414610a5a578063b06ea8f014610a6f578063b23d66c214610a85578063b832799314610aca578063bf184ea414610aea578063c5c72dc314610b0a578063cfbc531f14610b2a578063d0d9ab5914610b40578063d241c9c014610b55578063d9cb512c14610b75578063dc94cb7d14610b8a578063e10ac23a14610b9f578063e173ad2514610bcc578063e22d284514610c00578063e2e730f614610c69578063e8ea4fae14610c89578063e9c3f77d14610c9e578063ea7bade314610cd4578063f725ed1014610d01578063f8903fb714610d21578063f8d6a05d14610d41578063fa98a4ba14610d61578063fabee7db14610d81578063fac82e8c14610da1578063fd80d0c314610dc1578063fe65a5b414610de157610362565b3661036257005b005b34801561037057600080fd5b5061038461037f366004614add565b610e01565b6040519081526020015b60405180910390f35b3480156103a357600080fd5b506103846103b2366004614898565b610e26565b3480156103c357600080fd5b50610384610fd8565b3480156103d857600080fd5b506103626103e7366004614aad565b610fe9565b3480156103f857600080fd5b50610384610407366004614898565b6110af565b34801561041857600080fd5b50610384610427366004614898565b60176020526000908152604090205481565b34801561044557600080fd5b506103626104543660046149b2565b6110cd565b34801561046557600080fd5b50610384611156565b34801561047a57600080fd5b5061048e610489366004614898565b6111e8565b60405161038e9190614fd5565b3480156104a757600080fd5b506103626104b6366004614898565b6112e8565b3480156104c757600080fd5b506103846104d6366004614898565b6113c9565b3480156104e757600080fd5b506103626104f6366004614add565b61148b565b34801561050757600080fd5b50610384610516366004614aad565b50600090565b34801561052857600080fd5b50610362610537366004614908565b611535565b34801561054857600080fd5b506105516115ed565b60405161038e9190614dcf565b34801561056a57600080fd5b506009546105789060ff1681565b604051901515815260200161038e565b34801561059457600080fd5b506105c96105a33660046148d0565b60066020908152600092835260408084209091529082529020546001600160a01b031681565b60405161038e9190614d18565b3480156105e257600080fd5b50610384610516366004614898565b3480156105fd57600080fd5b5061036261060c3660046148d0565b6116bf565b34801561061d57600080fd5b506105c961062c366004614898565b6013602052600090815260409020546001600160a01b031681565b34801561065357600080fd5b506105c97f000000000000000000000000000000000000000000000000000000000000000081565b34801561068757600080fd5b50610362610696366004614aad565b6117b2565b3480156106a757600080fd5b506103626106b6366004614908565b611859565b3480156106c757600080fd5b506103626106d6366004614add565b611924565b3480156106e757600080fd5b506103626106f6366004614b7e565b6119fa565b34801561070757600080fd5b506103626107163660046149b2565b611a73565b34801561072757600080fd5b50610730611af6565b60405161038e9190614e12565b34801561074957600080fd5b5061075d6107583660046148d0565b611b4e565b60405161038e929190614e4a565b34801561077757600080fd5b50610384611b86565b34801561078c57600080fd5b5061057861079b366004614898565b611b92565b3480156107ac57600080fd5b506103846107bb366004614aad565b611b9f565b3480156107cc57600080fd5b506108056107db366004614898565b60126020526000908152604090206001810154600282015460038301546004909301549192909184565b60408051948552602085019390935291830152606082015260800161038e565b34801561083157600080fd5b50610362610840366004614bda565b611bc0565b34801561085157600080fd5b50610384610860366004614aad565b611c99565b34801561087157600080fd5b50610578610880366004614987565b600160209081526000928352604080842090915290825290205460ff1681565b3480156108ac57600080fd5b506105c9611cbf565b3480156108c157600080fd5b50610730611cc9565b3480156108d657600080fd5b506108ea6108e5366004614b37565b611d1f565b6040805193845260208401929092529082015260600161038e565b34801561091157600080fd5b50610362610920366004614898565b611e3a565b34801561093157600080fd5b50600160405161038e9190614e65565b34801561094d57600080fd5b5061038461095c366004614898565b60156020526000908152604090205481565b34801561097a57600080fd5b506103626109893660046148d0565b611ec6565b34801561099a57600080fd5b506109ae6109a9366004614add565b611f19565b6040805192835260208301919091520161038e565b3480156109cf57600080fd5b506103626109de366004614a44565b611f42565b3480156109ef57600080fd5b506109f8612003565b60405161038e9190614d82565b348015610a1157600080fd5b50610384610a20366004614aad565b61200f565b348015610a3157600080fd5b5061055161201f565b348015610a4657600080fd5b50610384610a55366004614aad565b6120ea565b348015610a6657600080fd5b506103626120fa565b348015610a7b57600080fd5b5061038460115481565b348015610a9157600080fd5b50610aa5610aa0366004614b37565b61213c565b604080516001600160a01b03909416845260208401929092529082015260600161038e565b348015610ad657600080fd5b50610362610ae53660046149f3565b61224f565b348015610af657600080fd5b50610384610b05366004614aad565b612308565b348015610b1657600080fd5b50610384610b25366004614aad565b612318565b348015610b3657600080fd5b5061038460185481565b348015610b4c57600080fd5b506109f86123c9565b348015610b6157600080fd5b506105c9610b70366004614aad565b6123d5565b348015610b8157600080fd5b506109f86124cf565b348015610b9657600080fd5b506107306124db565b348015610bab57600080fd5b50610384610bba366004614898565b60166020526000908152604090205481565b348015610bd857600080fd5b506103847f000000000000000000000000000000000000000000000000000000000000000081565b348015610c0c57600080fd5b50610c45610c1b366004614aad565b6010602052600090815260409020805460018201546002909201549091906001600160a01b031683565b6040805193845260208401929092526001600160a01b03169082015260600161038e565b348015610c7557600080fd5b50610384610c84366004614898565b612531565b348015610c9557600080fd5b50610730612638565b348015610caa57600080fd5b506105c9610cb9366004614aad565b6000602081905290815260409020546001600160a01b031681565b348015610ce057600080fd5b50610384610cef366004614aad565b60146020526000908152604090205481565b348015610d0d57600080fd5b506105c9610d1c366004614898565b61268e565b348015610d2d57600080fd5b50610384610d3c366004614b01565b6126ac565b348015610d4d57600080fd5b50610384610d5c366004614898565b61279f565b348015610d6d57600080fd5b506108ea610d7c366004614b01565b6127b5565b348015610d8d57600080fd5b506105c9610d9c366004614aad565b6127f0565b348015610dad57600080fd5b50610362610dbc366004614898565b61280e565b348015610dcd57600080fd5b50610384610ddc366004614add565b6129c9565b348015610ded57600080fd5b50610362610dfc366004614aad565b612a0d565b6000610e1e610e0f846127f0565b610e1885612318565b84612a9c565b509392505050565b6001600160a01b038082166000908152601360209081526040808320548151630173caf760e71b81529151939416928492849263b9e57b809260048083019392829003018186803b158015610e7a57600080fd5b505afa158015610e8e573d6000803e3d6000fd5b505050506040513d601f19601f82011682018060405250810190610eb29190614ac5565b90506000826001600160a01b03166318160ddd6040518163ffffffff1660e01b815260040160206040518083038186803b158015610eef57600080fd5b505afa158015610f03573d6000803e3d6000fd5b505050506040513d601f19601f82011682018060405250810190610f279190614ac5565b6040516370a0823160e01b815283906001600160a01b038616906370a0823190610f55903090600401614d18565b60206040518083038186803b158015610f6d57600080fd5b505afa158015610f81573d6000803e3d6000fd5b505050506040513d601f19601f82011682018060405250810190610fa59190614ac5565b610faf9190615010565b610fb99190614ffc565b9050610fcd8582610fc8611cbf565b612be1565b93505050505b919050565b6000610fe4600c612d21565b905090565b60405163b4ed0b6d60e01b8152600481018290527f00000000000000000000000000000000000000000000000000000000000000006001600160a01b03169063b4ed0b6d9060240160206040518083038186803b15801561104957600080fd5b505afa15801561105d573d6000803e3d6000fd5b505050506040513d601f19601f8201168201806040525081019061108191906148b4565b60009182526020829052604090912080546001600160a01b0319166001600160a01b03909216919091179055565b6001600160a01b031660009081526012602052604090206004015490565b336110d6612d2b565b6001600160a01b031614806110fa5750336110ef612dbe565b6001600160a01b0316145b61111f5760405162461bcd60e51b815260040161111690614e86565b60405180910390fd5b6001600160a01b0381166111455760405162461bcd60e51b815260040161111690614f33565b611150818484612e2f565b50505050565b6000805b80611165600e612d21565b11156111da576000611178600e8361306a565b6001600160a01b0381166000908152601660209081526040808320546015909252909120549192506111ba9183916111b291839190613076565b610fc8611cbf565b6111c49084614fe4565b92505080806111d290615072565b91505061115a565b50601854610fe49082614fe4565b6111f0614803565b60008061120d84670de0b6b3a7640000611208613097565b612a9c565b91509150604051806101800160405280306001600160a01b03168152602001856001600160a01b03168152602001611244866110af565b815260200160126000876001600160a01b03166001600160a01b031681526020019081526020016000206002015481526020018281526020018381526020017f000000000000000000000000000000000000000000000000000000000000000081526020016112b286612531565b81526000602082015260400160018152602001600081526020016112d58661268e565b6001600160a01b03169052949350505050565b6001600160a01b0381166000908152601660209081526040808320546015909252822054611317918491613076565b905061135e611357606760009081526020527f682158d08466d11c566d5712d4396197fdd67e65be71d83c97ef719ec468867b546001600160a01b031690565b8383612e2f565b50611371828261136c611cbf565b6130cf565b601860008282546113829190614fe4565b90915550506001600160a01b0382166000908152601660205260408120556113a9826113c9565b6001600160a01b0390921660009081526015602052604090209190915550565b6001600160a01b03818116600090815260176020908152604080832054601390925280832054905163755c4d2d60e11b8152670de0b6b3a764000060048201529293919291169063eab89a5a9060240160206040518083038186803b15801561143157600080fd5b505afa158015611445573d6000803e3d6000fd5b505050506040513d601f19601f820116820180604052508101906114699190614ac5565b61147b90670de0b6b3a7640000615010565b6114859190614ffc565b92915050565b33611494612d2b565b6001600160a01b031614806114b85750336114ad612dbe565b6001600160a01b0316145b6114d45760405162461bcd60e51b815260040161111690614e86565b6001600160a01b0381166114fa5760405162461bcd60e51b815260040161111690614f33565b6040516001600160a01b0382169083156108fc029084906000818181858888f19350505050158015611530573d6000803e3d6000fd5b505050565b3361153e612d2b565b6001600160a01b03161480611562575033611557612dbe565b6001600160a01b0316145b8061157157506115713361313d565b6115cd5760405162461bcd60e51b815260206004820152603960248201526000805160206150e3833981519152604482015278391037b91030baba3437b934bd32b21030b1ba34bb30ba37b960391b6064820152608401611116565b6115d88383836131e0565b61115083670de0b6b3a764000061136c613097565b606060006115fb600a612d21565b90506000816001600160401b0381111561162557634e487b7160e01b600052604160045260246000fd5b60405190808252806020026020018201604052801561165e57816020015b61164b614803565b8152602001906001900390816116435790505b50905060005b808311156116b85761167a610489600a8361306a565b82828151811061169a57634e487b7160e01b600052603260045260246000fd5b602002602001018190525080806116b090615072565b915050611664565b5091505090565b6001600160a01b038281166000908152600660209081526040808320858516845290915290205416156117ae576116f46132f3565b6001600160a01b0316635e73a03483836040518363ffffffff1660e01b8152600401611721929190614d2c565b60206040518083038186803b15801561173957600080fd5b505afa15801561174d573d6000803e3d6000fd5b505050506040513d601f19601f8201168201806040525081019061177191906148b4565b6001600160a01b0383811660009081526006602090815260408083208685168452909152902080546001600160a01b031916929091169190911790555b5050565b336117bb612d2b565b6001600160a01b031614806117df5750336117d4612dbe565b6001600160a01b0316145b6117fb5760405162461bcd60e51b815260040161111690614e86565b601181905560408051818152600d818301526c61706620736d6f6f7468696e6760981b60608201526020810183905290517f3a64504f0bc0c335e2aecb78638a257e0351a3fe0370861fd54ee4190b9209339181900360800190a150565b33611862612d2b565b6001600160a01b0316148061188657503361187b612dbe565b6001600160a01b0316145b6118a25760405162461bcd60e51b815260040161111690614e86565b6118ad600a8461332b565b506118b9600c84613340565b506118c2613355565b6001600160a01b03166311848c45306040518263ffffffff1660e01b81526004016118ed9190614d18565b600060405180830381600087803b15801561190757600080fd5b505af115801561191b573d6000803e3d6000fd5b50505050505050565b60405163f0723d9760e01b81526001600160a01b037f0000000000000000000000000000000000000000000000000000000000000000169063f0723d97906119729084908690600401614d46565b60206040518083038186803b15801561198a57600080fd5b505afa15801561199e573d6000803e3d6000fd5b505050506040513d601f19601f820116820180604052508101906119c29190614a8d565b6001600160a01b0391909116600090815260016020908152604080832094835293905291909120805460ff1916911515919091179055565b60026008541415611a1d5760405162461bcd60e51b815260040161111690614f67565b6002600855611a2b856123d5565b6001600160a01b0316336001600160a01b031614611a5b5760405162461bcd60e51b815260040161111690614f00565b611a678486858461338d565b50506001600855505050565b33611a7c612d2b565b6001600160a01b03161480611aa0575033611a95612dbe565b6001600160a01b0316145b611abc5760405162461bcd60e51b815260040161111690614e86565b6001600160a01b038116611ae25760405162461bcd60e51b815260040161111690614f33565b6115306001600160a01b03841682846133dd565b60606003805480602002602001604051908101604052809291908181526020018280548015611b4457602002820191906000526020600020905b815481526020019060010190808311611b30575b5050505050905090565b60006060611b5b84611b92565b83604051602001611b6c9190614d18565b604051602081830303815290604052915091509250929050565b6000610fe4600a612d21565b6000611485600a83613433565b60058181548110611baf57600080fd5b600091825260209091200154905081565b60095460ff16611be25760405162461bcd60e51b815260040161111690614ed0565b60026008541415611c055760405162461bcd60e51b815260040161111690614f67565b6002600855611c1333613448565b611c5c5760405162461bcd60e51b815260206004820152601a6024820152794e6f7420617574686f72697a656420746f20776974686472617760301b6044820152606401611116565b6001600160a01b038116611c825760405162461bcd60e51b815260040161111690614f33565b611c8e84848484613471565b505060016008555050565b6000611cb8611ca7836127f0565b611cb084612318565b611208611cbf565b9392505050565b6000610fe4613097565b60606004805480602002602001604051908101604052809291908181526020018280548015611b445760200282019190600052602060002090815481526020019060010190808311611b30575050505050905090565b600080600060026008541415611d475760405162461bcd60e51b815260040161111690614f67565b6002600855611d5533613448565b80611de15750611d64876123d5565b6001600160a01b0316632972b0f033896040518363ffffffff1660e01b8152600401611d91929190614d46565b60206040518083038186803b158015611da957600080fd5b505afa158015611dbd573d6000803e3d6000fd5b505050506040513d601f19601f82011682018060405250810190611de19190614a8d565b611dfd5760405162461bcd60e51b815260040161111690614f9e565b611e08878786613538565b9250611e25611e16886127f0565b611e1f89612318565b8761367b565b60016008559398909750929550919350505050565b60026008541415611e5d5760405162461bcd60e51b815260040161111690614f67565b60026008556001600160a01b03808216600090815260136020526040808220548151637edad01f60e11b8152915193169263fdb5a03e9260048084019391929182900301818387803b158015611eb257600080fd5b505af1158015611a67573d6000803e3d6000fd5b33611ecf612d2b565b6001600160a01b03161480611ef3575033611ee8612dbe565b6001600160a01b0316145b611f0f5760405162461bcd60e51b815260040161111690614e86565b6117ae82826136ea565b600080611f37611f28856127f0565b611f3186612318565b85612a9c565b915091509250929050565b60095460ff16611f645760405162461bcd60e51b815260040161111690614ed0565b60026008541415611f875760405162461bcd60e51b815260040161111690614f67565b6002600855611f9533613448565b611fef5760405162461bcd60e51b815260206004820152602560248201527f4e6f7420617574686f72697a656420746f207472616e7366657220757365722060448201526466756e647360d81b6064820152608401611116565b611c8e848484611ffd611cbf565b85613bb9565b6060610fe4600a613c5a565b60028181548110611baf57600080fd5b6060600061202d600c612d21565b90506000816001600160401b0381111561205757634e487b7160e01b600052604160045260246000fd5b60405190808252806020026020018201604052801561209057816020015b61207d614803565b8152602001906001900390816120755790505b50905060005b808311156116b8576120ac610489600c8361306a565b8282815181106120cc57634e487b7160e01b600052603260045260246000fd5b602002602001018190525080806120e290615072565b915050612096565b60048181548110611baf57600080fd5b60005b80612108600e612d21565b111561213957600061211b600e8361306a565b9050612126816112e8565b508061213181615072565b9150506120fd565b50565b6009546000908190819060ff166121655760405162461bcd60e51b815260040161111690614ed0565b61216e876123d5565b6001600160a01b0316336001600160a01b03161461219e5760405162461bcd60e51b815260040161111690614f00565b60006121a9886127f0565b905060006121b689612318565b90506121c3898888613538565b5060006121d1308484612e2f565b90506121e76001600160a01b0384168a83613c67565b6001600160a01b0383166000908152601260205260408120600201805483929061221290849061502f565b90915550506000998a52601060205260408a208a8155600181018b905560020180546001600160a01b031916905591999197509095505050505050565b60095460ff166122715760405162461bcd60e51b815260040161111690614ed0565b600260085414156122945760405162461bcd60e51b815260040161111690614f67565b60026008556122a233613448565b80156122be5750336122b3856123d5565b6001600160a01b0316145b6122fc5760405162461bcd60e51b815260206004820152600f60248201526e496e76616c6964207472616e63686560881b6044820152606401611116565b611a678585858461338d565b60038181548110611baf57600080fd5b6000818152601060205260408120805460195483906123399061271061502f565b6002840154845460008881526014602052604081205493945092612367926001600160a01b03169190613076565b9050828111156123be5761271061237e8385615010565b6123889190614ffc565b6127106123958484615010565b61239f9190614ffc565b6123a99085614fe4565b6123b3919061502f565b945050505050610fd3565b9350610fd392505050565b6060610fe4600c613c5a565b6000806124027f00000000000000000000000000000000000000000000000000000000000000008461508d565b6000818152600760205260409020549091506001600160a01b031680611cb857606960009081526020527f366a7b92acda364086cc991f618bf9f10b629ec0f7ae94543f96b691b69ec9925460405163043b4d2f60e51b8152600481018490526001600160a01b0390911690638769a5e09060240160206040518083038186803b15801561248f57600080fd5b505afa1580156124a3573d6000803e3d6000fd5b505050506040513d601f19601f820116820180604052508101906124c791906148b4565b949350505050565b6060610fe4600e613c5a565b60606002805480602002602001604051908101604052809291908181526020018280548015611b445760200282019190600052602060002090815481526020019060010190808311611b30575050505050905090565b6001600160a01b038082166000908152601360205260408082205490516370a0823160e01b815291921690819063eab89a5a9082906370a082319061257a903090600401614d18565b60206040518083038186803b15801561259257600080fd5b505afa1580156125a6573d6000803e3d6000fd5b505050506040513d601f19601f820116820180604052508101906125ca9190614ac5565b6040518263ffffffff1660e01b81526004016125e891815260200190565b60206040518083038186803b15801561260057600080fd5b505afa158015612614573d6000803e3d6000fd5b505050506040513d601f19601f82011682018060405250810190611cb89190614ac5565b60606005805480602002602001604051908101604052809291908181526020018280548015611b445760200282019190600052602060002090815481526020019060010190808311611b30575050505050905090565b6001600160a01b039081166000908152601360205260409020541690565b6000600260085414156126d15760405162461bcd60e51b815260040161111690614f67565b60026008556126df33613448565b8061276b57506126ee846123d5565b6001600160a01b0316632972b0f033866040518363ffffffff1660e01b815260040161271b929190614d46565b60206040518083038186803b15801561273357600080fd5b505afa158015612747573d6000803e3d6000fd5b505050506040513d601f19601f8201168201806040525081019061276b9190614a8d565b6127875760405162461bcd60e51b815260040161111690614f9e565b612792848484613538565b6001600855949350505050565b60006127aa82610e26565b611485906000614fe4565b60008060006127c486866129c9565b92506127e16127d2876127f0565b6127db88612318565b86612a9c565b93979096509294509192505050565b6000908152601060205260409020600201546001600160a01b031690565b60095460ff166128305760405162461bcd60e51b815260040161111690614ed0565b33612839612d2b565b6001600160a01b0316148061285d575033612852612dbe565b6001600160a01b0316145b8061287757503361286c613d13565b6001600160a01b0316145b6128d25760405162461bcd60e51b815260206004820152603860248201526000805160206150e3833981519152604482015277391037b91030baba3437b934bd32b2103234b9b0b13632b960411b6064820152608401611116565b60005b806128e0600e612d21565b11156129bb5760006128f3600e8361306a565b9050600061290082612531565b9050600061290c613355565b9050612919818484612e2f565b5061292f6001600160a01b038416826000613d77565b6129456001600160a01b03841682600019613d77565b60405163269974d160e21b81526001600160a01b03821690639a65d344906129739088908790600401614d2c565b600060405180830381600087803b15801561298d57600080fd5b505af11580156129a1573d6000803e3d6000fd5b5050505050505080806129b390615072565b9150506128d5565b50506009805460ff19169055565b60008281526010602052604081206124c7816012846129e7886127f0565b6001600160a01b03166001600160a01b0316815260200190815260200160002085613e89565b33612a16612d2b565b6001600160a01b03161480612a3a575033612a2f612dbe565b6001600160a01b0316145b612a565760405162461bcd60e51b815260040161111690614e86565b806127101015612a975760405162461bcd60e51b815260206004820152600c60248201526b08ccaca40e8dede40d0d2ced60a31b6044820152606401611116565b601955565b6001600160a01b0380841660009081526006602090815260408083208585168452909152812054909182911680612b5557612ad56132f3565b6001600160a01b0316635e73a03487866040518363ffffffff1660e01b8152600401612b02929190614d2c565b60206040518083038186803b158015612b1a57600080fd5b505afa158015612b2e573d6000803e3d6000fd5b505050506040513d601f19601f82011682018060405250810190612b5291906148b4565b90505b6040516313f3552960e21b81526001600160a01b03821690634fcd54a490612b8590899089908990600401614d5f565b604080518083038186803b158015612b9c57600080fd5b505afa158015612bb0573d6000803e3d6000fd5b505050506040513d601f19601f82011682018060405250810190612bd49190614bb7565b9097909650945050505050565b6001600160a01b038084166000908152600660209081526040808320858516845290915281205490911680612c9857612c186132f3565b6001600160a01b0316635e73a03486856040518363ffffffff1660e01b8152600401612c45929190614d2c565b60206040518083038186803b158015612c5d57600080fd5b505afa158015612c71573d6000803e3d6000fd5b505050506040513d601f19601f82011682018060405250810190612c9591906148b4565b90505b6040516323aaad6360e21b81526001600160a01b03821690638eaab58c90612cc890889088908890600401614d5f565b60206040518083038186803b158015612ce057600080fd5b505afa158015612cf4573d6000803e3d6000fd5b505050506040513d601f19601f82011682018060405250810190612d189190614ac5565b95945050505050565b6000611485825490565b60007f00000000000000000000000000000000000000000000000000000000000000006001600160a01b0316638da5cb5b6040518163ffffffff1660e01b815260040160206040518083038186803b158015612d8657600080fd5b505afa158015612d9a573d6000803e3d6000fd5b505050506040513d601f19601f82011682018060405250810190610fe491906148b4565b60007f00000000000000000000000000000000000000000000000000000000000000006001600160a01b031663c34c08e56040518163ffffffff1660e01b8152600401602060405180830381600087803b158015612e1b57600080fd5b505af1158015612d9a573d6000803e3d6000fd5b60006001600160a01b038416612e575760405162461bcd60e51b815260040161111690614f33565b6001600160a01b03838116600090815260136020526040808220549051636ec6726b60e11b815260048101869052921691829063dd8ce4d69060240160206040518083038186803b158015612eab57600080fd5b505afa158015612ebf573d6000803e3d6000fd5b505050506040513d601f19601f82011682018060405250810190612ee39190614ac5565b90506000856001600160a01b03166370a08231306040518263ffffffff1660e01b8152600401612f139190614d18565b60206040518083038186803b158015612f2b57600080fd5b505afa158015612f3f573d6000803e3d6000fd5b505050506040513d601f19601f82011682018060405250810190612f639190614ac5565b604051632e1a7d4d60e01b8152600481018490529091506001600160a01b03841690632e1a7d4d90602401600060405180830381600087803b158015612fa857600080fd5b505af1158015612fbc573d6000803e3d6000fd5b50505050600081876001600160a01b03166370a08231306040518263ffffffff1660e01b8152600401612fef9190614d18565b60206040518083038186803b15801561300757600080fd5b505afa15801561301b573d6000803e3d6000fd5b505050506040513d601f19601f8201168201806040525081019061303f9190614ac5565b613049919061502f565b905061305f6001600160a01b03881689836133dd565b979650505050505050565b6000611cb88383613fa3565b60008183613083866113c9565b61308d9190615010565b6124c79190614ffc565b606660009081526020527f422cccb7cea5c0e46f340bb7b21b81debac329f72e31669c20ff0f3a05cc2b5b546001600160a01b031690565b6000806130dc8584613fdb565b604051630576cbc360e41b81529091506001600160a01b0382169063576cbc309061310f90889088908890600401614d5f565b602060405180830381600087803b15801561312957600080fd5b505af1158015612cf4573d6000803e3d6000fd5b60405163f0723d9760e01b81526000906001600160a01b037f0000000000000000000000000000000000000000000000000000000000000000169063f0723d97906131909085906103eb90600401614d46565b60206040518083038186803b1580156131a857600080fd5b505afa1580156131bc573d6000803e3d6000fd5b505050506040513d601f19601f820116820180604052508101906114859190614a8d565b60006131ee82840184614898565b9050836001600160a01b0316816001600160a01b031663c89039c56040518163ffffffff1660e01b815260040160206040518083038186803b15801561323357600080fd5b505afa158015613247573d6000803e3d6000fd5b505050506040513d601f19601f8201168201806040525081019061326b91906148b4565b6001600160a01b0316146132de5760405162461bcd60e51b815260206004820152603460248201527f50726f76696465642079616b20737472617465677920646f6573206e6f742074604482015273185ad9481d1bdad95b88185cc819195c1bdcda5d60621b6064820152608401611116565b6132e884826136ea565b61115084848461408f565b606a60009081526020527ff3261457f4fd0b7c00a1511877ab27b74183ac470be8db3a7ecdc64335f6f979546001600160a01b031690565b6000611cb8836001600160a01b0384166140e2565b6000611cb8836001600160a01b0384166141ff565b606860009081526020527faa071f48f62aaaa1f6320aaa7bd2ad2d552d05160892c14d699d38c9920d5f99546001600160a01b031690565b6001600160a01b0382166000908152601260209081526040808320805487855260109093529220600101556133c28484614249565b6133d68585846133d0611cbf565b89613bb9565b5050505050565b6115308363a9059cbb60e01b84846040516024016133fc929190614d46565b60408051601f198184030181529190526020810180516001600160e01b03166001600160e01b0319909316929092179091526142c9565b6000611cb8836001600160a01b03841661439b565b6001600160a01b0316600090815260016020818152604080842092845291905290205460ff1690565b600084815260106020526040812090613489866127f0565b9050613496868585613538565b506134a9856134a488612318565b6143b3565b94506134b6838287612e2f565b50848260000160008282546134cb919061502f565b90915550506001600160a01b0381166000908152601260205260408120600281018054919288926134fd90849061502f565b90915550506001830154815411156135295785816001016000828254613523919061502f565b90915550505b61191b878385600001546143cb565b60008381526010602052604081208054156136705760028101546001600160a01b031660008181526012602052604081209061357388612318565b845460008a81526014602052604081205492935090916135969086908490613076565b905060008382116135a85760006135b2565b6135b2848361502f565b6001600160a01b0387166000908152601660209081526040808320546015909252909120549192506135e691889190613076565b6135f09082614fe4565b6001600160a01b038716600090815260166020526040812091909155613615876113c9565b6001600160a01b03881660009081526015602090815260408083208490558f83526014909152902081905560028701549091508490613655908790614fe4565b61365f919061502f565b600290960195909555505050835550505b506000949350505050565b600080600061368a8685613fdb565b60405163442fd02b60e11b81529091506001600160a01b0382169063885fa056906136bd90899089908990600401614d5f565b6040805180830381600087803b1580156136d657600080fd5b505af1158015612bb0573d6000803e3d6000fd5b6001600160a01b03808316600090815260136020526040902054168015613a8f576040516370a0823160e01b81526000906001600160a01b038516906370a082319061373a903090600401614d18565b60206040518083038186803b15801561375257600080fd5b505afa158015613766573d6000803e3d6000fd5b505050506040513d601f19601f8201168201806040525081019061378a9190614ac5565b6040516370a0823160e01b81529091506001600160a01b03831690632e1a7d4d9082906370a08231906137c1903090600401614d18565b60206040518083038186803b1580156137d957600080fd5b505afa1580156137ed573d6000803e3d6000fd5b505050506040513d601f19601f820116820180604052508101906138119190614ac5565b6040518263ffffffff1660e01b815260040161382f91815260200190565b600060405180830381600087803b15801561384957600080fd5b505af115801561385d573d6000803e3d6000fd5b50505050600081856001600160a01b03166370a08231306040518263ffffffff1660e01b81526004016138909190614d18565b60206040518083038186803b1580156138a857600080fd5b505afa1580156138bc573d6000803e3d6000fd5b505050506040513d601f19601f820116820180604052508101906138e09190614ac5565b6138ea919061502f565b60405163b6b55f2560e01b8152600481018290529091506001600160a01b0385169063b6b55f2590602401600060405180830381600087803b15801561392f57600080fd5b505af1158015613943573d6000803e3d6000fd5b505060405163755c4d2d60e11b8152670de0b6b3a764000060048201526001600160a01b038616925063eab89a5a915060240160206040518083038186803b15801561398e57600080fd5b505afa1580156139a2573d6000803e3d6000fd5b505050506040513d601f19601f820116820180604052508101906139c69190614ac5565b6001600160a01b038681166000908152601760205260409081902054905163755c4d2d60e11b8152670de0b6b3a76400006004820152909187169063eab89a5a9060240160206040518083038186803b158015613a2257600080fd5b505afa158015613a36573d6000803e3d6000fd5b505050506040513d601f19601f82011682018060405250810190613a5a9190614ac5565b613a649190615010565b613a6e9190614ffc565b6001600160a01b03861660009081526017602052604090205550613b579050565b6001600160a01b038381166000908152601360205260409081902080546001600160a01b03191692851692831790555163755c4d2d60e11b8152670de0b6b3a7640000600482015263eab89a5a9060240160206040518083038186803b158015613af857600080fd5b505afa158015613b0c573d6000803e3d6000fd5b505050506040513d601f19601f82011682018060405250810190613b309190614ac5565b6001600160a01b038416600090815260176020908152604080832084905560159091529020555b60408051818152600c818301526b79616b20737472617465677960a01b60608201526001600160a01b038516602082015290517fbd64fae90eab1019a6c354538cfa598ad3d642c5b1bc8a8613bcb716723fa2d79181900360800190a1505050565b6000613bc4856127f0565b9050613bd1858484613538565b50613bdd8682866143eb565b600086815260106020526040902054909450613bf98582614fe4565b6000878152601060209081526040808320939093556001600160a01b03851682526012905290812060028101805491928892613c36908490614fe4565b90915550613c5090508784613c4b8986614fe4565b6143cb565b5050505050505050565b60606000611cb88361460f565b600081846001600160a01b031663dd62ed3e30866040518363ffffffff1660e01b8152600401613c98929190614d2c565b60206040518083038186803b158015613cb057600080fd5b505afa158015613cc4573d6000803e3d6000fd5b505050506040513d601f19601f82011682018060405250810190613ce89190614ac5565b613cf29190614fe4565b90506111508463095ea7b360e01b85846040516024016133fc929190614d46565b60405163b4ed0b6d60e01b81526103e960048201526000907f00000000000000000000000000000000000000000000000000000000000000006001600160a01b03169063b4ed0b6d9060240160206040518083038186803b158015612d8657600080fd5b801580613dff5750604051636eb1769f60e11b81526001600160a01b0384169063dd62ed3e90613dad9030908690600401614d2c565b60206040518083038186803b158015613dc557600080fd5b505afa158015613dd9573d6000803e3d6000fd5b505050506040513d601f19601f82011682018060405250810190613dfd9190614ac5565b155b613e6a5760405162461bcd60e51b815260206004820152603660248201527f5361666545524332303a20617070726f76652066726f6d206e6f6e2d7a65726f60448201527520746f206e6f6e2d7a65726f20616c6c6f77616e636560501b6064820152608401611116565b6115308363095ea7b360e01b84846040516024016133fc929190614d46565b6000613e93611cbf565b6001600160a01b0316826001600160a01b031614613eea5760405162461bcd60e51b815260206004820152601460248201527357726f6e67207969656c642063757272656e637960601b6044820152606401611116565b6001840154835484911015613f9957600081866001015481548110613f1f57634e487b7160e01b600052603260045260246000fd5b90600052602060002001548260018480549050613f3c919061502f565b81548110613f5a57634e487b7160e01b600052603260045260246000fd5b9060005260206000200154613f6f919061502f565b9050600160401b818760000154613f869190615010565b613f909190614ffc565b92505050611cb8565b6000915050611cb8565b6000826000018281548110613fc857634e487b7160e01b600052603260045260246000fd5b9060005260206000200154905092915050565b6001600160a01b03808316600090815260066020908152604080832085851684529091529020541680611485576140106132f3565b6001600160a01b0316631757616884846040518363ffffffff1660e01b815260040161403d929190614d2c565b602060405180830381600087803b15801561405757600080fd5b505af115801561406b573d6000803e3d6000fd5b505050506040513d601f19601f82011682018060405250810190611cb891906148b4565b61409a600a84613340565b506140a6600c8461332b565b506140b2600e84613340565b506001600160a01b03831660009081526012602052604090206127106004820155426003909101556118c2613355565b600081815260018301602052604081205480156141f557600061410660018361502f565b855490915060009061411a9060019061502f565b905081811461419b57600086600001828154811061414857634e487b7160e01b600052603260045260246000fd5b906000526020600020015490508087600001848154811061417957634e487b7160e01b600052603260045260246000fd5b6000918252602080832090910192909255918252600188019052604090208390555b85548690806141ba57634e487b7160e01b600052603160045260246000fd5b600190038181906000526020600020016000905590558560010160008681526020019081526020016000206000905560019350505050611485565b6000915050611485565b600061420b838361439b565b61424157508154600181810184556000848152602080822090930184905584548482528286019093526040902091909155611485565b506000611485565b614254600a82613433565b6142985760405162461bcd60e51b81526020600482015260156024820152742737ba1030b71030b8383937bb32b2103a37b5b2b760591b6044820152606401611116565b60009182526010602052604090912060020180546001600160a01b0319166001600160a01b03909216919091179055565b600061431e826040518060400160405280602081526020017f5361666545524332303a206c6f772d6c6576656c2063616c6c206661696c6564815250856001600160a01b031661466b9092919063ffffffff16565b805190915015611530578080602001905181019061433c9190614a8d565b6115305760405162461bcd60e51b815260206004820152602a60248201527f5361666545524332303a204552433230206f7065726174696f6e20646964206e6044820152691bdd081cdd58d8d9595960b21b6064820152608401611116565b60009081526001919091016020526040902054151590565b6000818311156143c4575080611485565b5081611485565b6143d4826113c9565b600093845260146020526040909320929092555050565b60006144026001600160a01b03841685308561467a565b6001600160a01b038084166000818152601360205260409020549091169061442b908285613c67565b6040516370a0823160e01b81526000906001600160a01b038316906370a082319061445a903090600401614d18565b60206040518083038186803b15801561447257600080fd5b505afa158015614486573d6000803e3d6000fd5b505050506040513d601f19601f820116820180604052508101906144aa9190614ac5565b60405163b6b55f2560e01b8152600481018690529091506001600160a01b0383169063b6b55f2590602401600060405180830381600087803b1580156144ef57600080fd5b505af1158015614503573d6000803e3d6000fd5b50506040516370a0823160e01b81526001600160a01b038516925063eab89a5a9150839083906370a082319061453d903090600401614d18565b60206040518083038186803b15801561455557600080fd5b505afa158015614569573d6000803e3d6000fd5b505050506040513d601f19601f8201168201806040525081019061458d9190614ac5565b614597919061502f565b6040518263ffffffff1660e01b81526004016145b591815260200190565b60206040518083038186803b1580156145cd57600080fd5b505afa1580156145e1573d6000803e3d6000fd5b505050506040513d601f19601f820116820180604052508101906146059190614ac5565b9695505050505050565b60608160000180548060200260200160405190810160405280929190818152602001828054801561465f57602002820191906000526020600020905b81548152602001906001019080831161464b575b50505050509050919050565b60606124c784846000856146b2565b6040516001600160a01b03808516602483015283166044820152606481018290526111509085906323b872dd60e01b906084016133fc565b6060824710156147135760405162461bcd60e51b815260206004820152602660248201527f416464726573733a20696e73756666696369656e742062616c616e636520666f6044820152651c8818d85b1b60d21b6064820152608401611116565b843b6147615760405162461bcd60e51b815260206004820152601d60248201527f416464726573733a2063616c6c20746f206e6f6e2d636f6e74726163740000006044820152606401611116565b600080866001600160a01b0316858760405161477d9190614cfc565b60006040518083038185875af1925050503d80600081146147ba576040519150601f19603f3d011682016040523d82523d6000602084013e6147bf565b606091505b509150915061305f828286606083156147d9575081611cb8565b8251156147e95782518084602001fd5b8160405162461bcd60e51b81526004016111169190614e73565b60405180610180016040528060006001600160a01b0316815260200160006001600160a01b03168152602001600081526020016000815260200160008152602001600081526020016000801916815260200160008152602001600081526020016000600281111561488457634e487b7160e01b600052602160045260246000fd5b815260006020820181905260409091015290565b6000602082840312156148a9578081fd5b8135611cb8816150cd565b6000602082840312156148c5578081fd5b8151611cb8816150cd565b600080604083850312156148e2578081fd5b82356148ed816150cd565b915060208301356148fd816150cd565b809150509250929050565b60008060006040848603121561491c578081fd5b8335614927816150cd565b925060208401356001600160401b0380821115614942578283fd5b818601915086601f830112614955578283fd5b813581811115614963578384fd5b876020828501011115614974578384fd5b6020830194508093505050509250925092565b60008060408385031215614999578182fd5b82356149a4816150cd565b946020939093013593505050565b6000806000606084860312156149c6578283fd5b83356149d1816150cd565b92506020840135915060408401356149e8816150cd565b809150509250925092565b600080600080600060a08688031215614a0a578081fd5b8535614a15816150cd565b9450602086013593506040860135614a2c816150cd565b94979396509394606081013594506080013592915050565b60008060008060808587031215614a59578384fd5b8435614a64816150cd565b935060208501359250604085013591506060850135614a82816150cd565b939692955090935050565b600060208284031215614a9e578081fd5b81518015158114611cb8578182fd5b600060208284031215614abe578081fd5b5035919050565b600060208284031215614ad6578081fd5b5051919050565b60008060408385031215614aef578182fd5b8235915060208301356148fd816150cd565b600080600060608486031215614b15578283fd5b833592506020840135614b27816150cd565b915060408401356149e8816150cd565b60008060008060808587031215614b4c578182fd5b843593506020850135614b5e816150cd565b92506040850135614b6e816150cd565b91506060850135614a82816150cd565b600080600080600060a08688031215614b95578283fd5b853594506020860135614ba7816150cd565b93506040860135614a2c816150cd565b60008060408385031215614bc9578182fd5b505080516020909101519092909150565b60008060008060808587031215614bef578182fd5b84359350602085013592506040850135614b6e816150cd565b6001600160a01b03169052565b60008151808452614c2d816020860160208601615046565b601f01601f19169290920160200192915050565b60038110614c5f57634e487b7160e01b600052602160045260246000fd5b9052565b614c6e828251614c08565b6020810151614c806020840182614c08565b5060408101516040830152606081015160608301526080810151608083015260a081015160a083015260c081015160c083015260e081015160e083015261010080820151818401525061012080820151614cdc82850182614c41565b505061014081810151908301526101608082015161115082850182614c08565b60008251614d0e818460208701615046565b9190910192915050565b6001600160a01b0391909116815260200190565b6001600160a01b0392831681529116602082015260400190565b6001600160a01b03929092168252602082015260400190565b6001600160a01b0393841681526020810192909252909116604082015260600190565b6020808252825182820181905260009190848201906040850190845b81811015614dc35783516001600160a01b031683529284019291840191600101614d9e565b50909695505050505050565b6020808252825182820181905260009190848201906040850190845b81811015614dc357614dfe838551614c63565b928401926101809290920191600101614deb565b6020808252825182820181905260009190848201906040850190845b81811015614dc357835183529284019291840191600101614e2e565b60008315158252604060208301526124c76040830184614c15565b602081016114858284614c41565b600060208252611cb86020830184614c15565b6020808252602a908201527f526f6c65733a2063616c6c6572206973206e6f7420746865206f776e6572206f604082015269391032bc32b1baba37b960b11b606082015260800190565b6020808252601690820152755374726174656779206973206e6f742061637469766560501b604082015260600190565b6020808252601990820152784e6f7420617574686f72697a656420746f206d69677261746560381b604082015260600190565b6020808252601a9082015279446f6e27742073656e6420746f207a65726f206164647265737360301b604082015260600190565b6020808252601f908201527f5265656e7472616e637947756172643a207265656e7472616e742063616c6c00604082015260600190565b6020808252601f908201527f4e6f7420617574686f72697a656420746f20636f6c6c656374207969656c6400604082015260600190565b61018081016114858284614c63565b60008219821115614ff757614ff76150a1565b500190565b60008261500b5761500b6150b7565b500490565b600081600019048311821515161561502a5761502a6150a1565b500290565b600082821015615041576150416150a1565b500390565b60005b83811015615061578181015183820152602001615049565b838111156111505750506000910152565b6000600019821415615086576150866150a1565b5060010190565b60008261509c5761509c6150b7565b500690565b634e487b7160e01b600052601160045260246000fd5b634e487b7160e01b600052601260045260246000fd5b6001600160a01b038116811461213957600080fdfe43616c6c6572206973206e6f7420746865206f776e65722c206578656375746fa26469706673582212203ccc52cefe855a572f51155cf51af0eefb2ec9a6b36068218aa825931472493464736f6c63430008030033405787fa12a823e0f2b7631cc41b3ba8828b3321ca811111fa75cd3aa3bb5ace",
  "linkReferences": {},
  "deployedLinkReferences": {}
}