{
  "_format": "hh-sol-artifact-1",
  "contractName": "DependencyController",
  "sourceName": "contracts/DependencyController.sol",
  "abi": [
    {
      "inputs": [
        {
          "internalType": "address",
          "name": "_roles",
          "type": "address"
        }
      ],
      "stateMutability": "nonpayable",
      "type": "constructor"
    },
    {
      "anonymous": false,
      "inputs": [
        {
          "indexed": false,
          "internalType": "string",
          "name": "param",
          "type": "string"
        },
        {
          "indexed": false,
          "internalType": "uint256",
          "name": "value",
          "type": "uint256"
        }
      ],
      "name": "ParameterUpdated",
      "type": "event"
    },
    {
      "anonymous": false,
      "inputs": [
        {
          "indexed": false,
          "internalType": "string",
          "name": "param",
          "type": "string"
        },
        {
          "indexed": false,
          "internalType": "address",
          "name": "subject",
          "type": "address"
        },
        {
          "indexed": false,
          "internalType": "uint256",
          "name": "value",
          "type": "uint256"
        }
      ],
      "name": "SubjectParameterUpdated",
      "type": "event"
    },
    {
      "anonymous": false,
      "inputs": [
        {
          "indexed": false,
          "internalType": "string",
          "name": "param",
          "type": "string"
        },
        {
          "indexed": false,
          "internalType": "address",
          "name": "subject",
          "type": "address"
        }
      ],
      "name": "SubjectUpdated",
      "type": "event"
    },
    {
      "inputs": [
        {
          "internalType": "uint256",
          "name": "",
          "type": "uint256"
        }
      ],
      "name": "_charactersPlayed",
      "outputs": [
        {
          "internalType": "uint256",
          "name": "",
          "type": "uint256"
        }
      ],
      "stateMutability": "view",
      "type": "function"
    },
    {
      "inputs": [
        {
          "internalType": "uint256",
          "name": "",
          "type": "uint256"
        }
      ],
      "name": "_dependsOnCharacters",
      "outputs": [
        {
          "internalType": "uint256",
          "name": "",
          "type": "uint256"
        }
      ],
      "stateMutability": "view",
      "type": "function"
    },
    {
      "inputs": [
        {
          "internalType": "uint256",
          "name": "",
          "type": "uint256"
        }
      ],
      "name": "_dependsOnRoles",
      "outputs": [
        {
          "internalType": "uint256",
          "name": "",
          "type": "uint256"
        }
      ],
      "stateMutability": "view",
      "type": "function"
    },
    {
      "inputs": [
        {
          "internalType": "uint256",
          "name": "",
          "type": "uint256"
        }
      ],
      "name": "_rolesPlayed",
      "outputs": [
        {
          "internalType": "uint256",
          "name": "",
          "type": "uint256"
        }
      ],
      "stateMutability": "view",
      "type": "function"
    },
    {
      "inputs": [],
      "name": "allManagedContracts",
      "outputs": [
        {
          "internalType": "address[]",
          "name": "",
          "type": "address[]"
        }
      ],
      "stateMutability": "view",
      "type": "function"
    },
    {
      "inputs": [
        {
          "internalType": "address",
          "name": "",
          "type": "address"
        },
        {
          "internalType": "uint256",
          "name": "",
          "type": "uint256"
        }
      ],
      "name": "characterDependenciesByContr",
      "outputs": [
        {
          "internalType": "uint256",
          "name": "",
          "type": "uint256"
        }
      ],
      "stateMutability": "view",
      "type": "function"
    },
    {
      "inputs": [],
      "name": "charactersPlayed",
      "outputs": [
        {
          "internalType": "uint256[]",
          "name": "",
          "type": "uint256[]"
        }
      ],
      "stateMutability": "view",
      "type": "function"
    },
    {
      "inputs": [],
      "name": "currentExecutor",
      "outputs": [
        {
          "internalType": "address",
          "name": "",
          "type": "address"
        }
      ],
      "stateMutability": "view",
      "type": "function"
    },
    {
      "inputs": [],
      "name": "dependsOnCharacters",
      "outputs": [
        {
          "internalType": "uint256[]",
          "name": "",
          "type": "uint256[]"
        }
      ],
      "stateMutability": "view",
      "type": "function"
    },
    {
      "inputs": [],
      "name": "dependsOnRoles",
      "outputs": [
        {
          "internalType": "uint256[]",
          "name": "",
          "type": "uint256[]"
        }
      ],
      "stateMutability": "view",
      "type": "function"
    },
    {
      "inputs": [
        {
          "internalType": "address",
          "name": "contr",
          "type": "address"
        }
      ],
      "name": "disableContract",
      "outputs": [],
      "stateMutability": "nonpayable",
      "type": "function"
    },
    {
      "inputs": [
        {
          "internalType": "address",
          "name": "executor",
          "type": "address"
        }
      ],
      "name": "executeAsOwner",
      "outputs": [],
      "stateMutability": "nonpayable",
      "type": "function"
    },
    {
      "inputs": [
        {
          "internalType": "uint256",
          "name": "role",
          "type": "uint256"
        },
        {
          "internalType": "address",
          "name": "actor",
          "type": "address"
        }
      ],
      "name": "giveRole",
      "outputs": [],
      "stateMutability": "nonpayable",
      "type": "function"
    },
    {
      "inputs": [
        {
          "internalType": "uint256",
          "name": "",
          "type": "uint256"
        }
      ],
      "name": "mainCharacterCache",
      "outputs": [
        {
          "internalType": "address",
          "name": "",
          "type": "address"
        }
      ],
      "stateMutability": "view",
      "type": "function"
    },
    {
      "inputs": [
        {
          "internalType": "address",
          "name": "contr",
          "type": "address"
        }
      ],
      "name": "manageContract",
      "outputs": [],
      "stateMutability": "nonpayable",
      "type": "function"
    },
    {
      "inputs": [
        {
          "internalType": "uint256",
          "name": "role",
          "type": "uint256"
        },
        {
          "internalType": "address",
          "name": "actor",
          "type": "address"
        }
      ],
      "name": "removeRole",
      "outputs": [],
      "stateMutability": "nonpayable",
      "type": "function"
    },
    {
      "inputs": [
        {
          "internalType": "address",
          "name": "contract2Disable",
          "type": "address"
        },
        {
          "internalType": "address",
          "name": "contract2Enable",
          "type": "address"
        }
      ],
      "name": "replaceContract",
      "outputs": [],
      "stateMutability": "nonpayable",
      "type": "function"
    },
    {
      "inputs": [
        {
          "internalType": "address",
          "name": "",
          "type": "address"
        },
        {
          "internalType": "uint256",
          "name": "",
          "type": "uint256"
        }
      ],
      "name": "roleCache",
      "outputs": [
        {
          "internalType": "bool",
          "name": "",
          "type": "bool"
        }
      ],
      "stateMutability": "view",
      "type": "function"
    },
    {
      "inputs": [
        {
          "internalType": "address",
          "name": "",
          "type": "address"
        },
        {
          "internalType": "uint256",
          "name": "",
          "type": "uint256"
        }
      ],
      "name": "roleDependenciesByContr",
      "outputs": [
        {
          "internalType": "uint256",
          "name": "",
          "type": "uint256"
        }
      ],
      "stateMutability": "view",
      "type": "function"
    },
    {
      "inputs": [],
      "name": "roles",
      "outputs": [
        {
          "internalType": "contract Roles",
          "name": "",
          "type": "address"
        }
      ],
      "stateMutability": "view",
      "type": "function"
    },
    {
      "inputs": [],
      "name": "rolesPlayed",
      "outputs": [
        {
          "internalType": "uint256[]",
          "name": "",
          "type": "uint256[]"
        }
      ],
      "stateMutability": "view",
      "type": "function"
    },
    {
      "inputs": [
        {
          "internalType": "uint256",
          "name": "role",
          "type": "uint256"
        },
        {
          "internalType": "address",
          "name": "actor",
          "type": "address"
        }
      ],
      "name": "setMainCharacter",
      "outputs": [],
      "stateMutability": "nonpayable",
      "type": "function"
    },
    {
      "inputs": [
        {
          "internalType": "address",
          "name": "contr",
          "type": "address"
        }
      ],
      "name": "updateCaches",
      "outputs": [],
      "stateMutability": "nonpayable",
      "type": "function"
    },
    {
      "inputs": [
        {
          "internalType": "uint256",
          "name": "character",
          "type": "uint256"
        }
      ],
      "name": "updateMainCharacterCache",
      "outputs": [],
      "stateMutability": "nonpayable",
      "type": "function"
    },
    {
      "inputs": [
        {
          "internalType": "uint256",
          "name": "role",
          "type": "uint256"
        },
        {
          "internalType": "address",
          "name": "contr",
          "type": "address"
        }
      ],
      "name": "updateRoleCache",
      "outputs": [],
      "stateMutability": "nonpayable",
      "type": "function"
    }
  ],
  "bytecode": "0x60a06040523480156200001157600080fd5b506040516200241e3803806200241e8339810160408190526200003491620000b7565b806001600160a01b0381166200009b5760405162461bcd60e51b815260206004820152602260248201527f506c656173652070726f766964652076616c696420726f6c6573206164647265604482015261737360f01b606482015260840160405180910390fd5b60601b6001600160601b031916608052506001600655620000e7565b600060208284031215620000c9578081fd5b81516001600160a01b0381168114620000e0578182fd5b9392505050565b60805160601c6122d962000145600039600081816101a901528181610c0c0152818161115a015281816111ed01528181611368015281816114a201528181611ad101528181611b5e01528181611bd80152611c2601526122d96000f3fe608060405234801561001057600080fd5b50600436106101335760003560e01c8063071060a6146101385780631023d3e01461014d5780631ea9e5a11461016b57806325398f831461017e5780633238405b14610191578063392f5f64146101a4578063421b705c146101e3578063447d52ba146102045780634a7a7f41146102175780634d5377691461022c5780636b60a09b1461023f5780636caa9c1114610252578063713dade2146102655780637a1a04df146102785780637dad209b146102b65780638dbede6c146102be578063a154ce82146102d1578063a1fdc458146102e4578063abcbc4fc146102f7578063aeb38d8b1461030a578063bf184ea41461031d578063c133923c14610330578063dc94cb7d14610343578063e8ea4fae1461034b578063e9c3f77d14610353575b600080fd5b61014b6101463660046120b6565b61037c565b005b610155610423565b60405161016291906120f2565b60405180910390f35b61014b610179366004611f74565b610434565b61014b61018c3660046120ce565b61049c565b61014b61019f3660046120ce565b6104ef565b6101cb7f000000000000000000000000000000000000000000000000000000000000000081565b6040516001600160a01b039091168152602001610162565b6101f66101f1366004611fac565b61055c565b604051908152602001610162565b61014b6102123660046120ce565b61058d565b61021f610635565b604051610162919061213f565b61014b61023a3660046120ce565b61068d565b6007546101cb906001600160a01b031681565b6101f66102603660046120b6565b6106e0565b61014b610273366004611f3c565b610701565b6102a6610286366004611fac565b600160209081526000928352604080842090915290825290205460ff1681565b6040519015158152602001610162565b61021f6108cc565b6101f66102cc366004611fac565b610922565b61014b6102df366004611f3c565b61093e565b61014b6102f2366004611f3c565b6109ad565b6101f66103053660046120b6565b610ff8565b6101f66103183660046120b6565b611008565b6101f661032b3660046120b6565b611018565b61014b61033e366004611f3c565b611028565b61021f61107a565b61021f6110d0565b6101cb6103613660046120b6565b6000602081905290815260409020546001600160a01b031681565b6000818152600d602052604081209061039482611126565b905060005b8082111561041d576103ab8382611136565b6001600160a01b031663071060a6856040518263ffffffff1660e01b81526004016103d891815260200190565b600060405180830381600087803b1580156103f257600080fd5b505af1158015610406573d6000803e3d6000fd5b50505050808061041590612247565b915050610399565b50505050565b606061042f6008611149565b905090565b3361043d611156565b6001600160a01b031614806104615750336104566111e9565b6001600160a01b0316145b6104865760405162461bcd60e51b815260040161047d90612177565b60405180910390fd5b61048f8261125a565b610498816116ed565b5050565b336104a5611156565b6001600160a01b031614806104c95750336104be6111e9565b6001600160a01b0316145b6104e55760405162461bcd60e51b815260040161047d90612177565b6104988282611aa1565b336104f8611156565b6001600160a01b0316148061051c5750336105116111e9565b6001600160a01b0316145b8061053657503361052b611b44565b6001600160a01b0316145b6105525760405162461bcd60e51b815260040161047d906121c1565b6104988282611ba8565b600b602052816000526040600020818154811061057857600080fd5b90600052602060002001600091509150505481565b6000828152600c60205260408120906105a582611126565b905060005b8082111561062e576105bc8382611136565b6001600160a01b031663447d52ba86866040518363ffffffff1660e01b81526004016105e9929190612219565b600060405180830381600087803b15801561060357600080fd5b505af1158015610617573d6000803e3d6000fd5b50505050808061062690612247565b9150506105aa565b5050505050565b6060600380548060200260200160405190810160405280929190818152602001828054801561068357602002820191906000526020600020905b81548152602001906001019080831161066f575b5050505050905090565b33610696611156565b6001600160a01b031614806106ba5750336106af6111e9565b6001600160a01b0316145b6106d65760405162461bcd60e51b815260040161047d90612177565b6104988282611c0f565b600581815481106106f057600080fd5b600091825260209091200154905081565b6001600160a01b0381166000908152600b60205260408120805490915b808211156107c357836001600160a01b031663071060a684838154811061075557634e487b7160e01b600052603260045260246000fd5b90600052602060002001546040518263ffffffff1660e01b815260040161077e91815260200190565b600060405180830381600087803b15801561079857600080fd5b505af11580156107ac573d6000803e3d6000fd5b5050505080806107bb90612247565b91505061071e565b50506001600160a01b0382166000908152600a602052604081208054915b8083111561062e57600082828154811061080b57634e487b7160e01b600052603260045260246000fd5b6000918252602080832090910154808352600e90915260408220909250905b8061083483611126565b11156108b6576001600160a01b03881663447d52ba846108548585611136565b6040518363ffffffff1660e01b8152600401610871929190612219565b600060405180830381600087803b15801561088b57600080fd5b505af115801561089f573d6000803e3d6000fd5b5050505080806108ae90612247565b91505061082a565b50505080806108c490612247565b9150506107e1565b60606004805480602002602001604051908101604052809291908181526020018280548015610683576020028201919060005260206000209081548152602001906001019080831161066f575050505050905090565b600a602052816000526040600020818154811061057857600080fd5b33610947611156565b6001600160a01b0316148061096b5750336109606111e9565b6001600160a01b0316145b8061098557503361097a611b44565b6001600160a01b0316145b6109a15760405162461bcd60e51b815260040161047d906121c1565b6109aa8161125a565b50565b336109b6611156565b6001600160a01b031614610a0c5760405162461bcd60e51b815260206004820152601e60248201527f526f6c65733a2063616c6c6572206973206e6f7420746865206f776e65720000604482015260640161047d565b60026006541415610a5f5760405162461bcd60e51b815260206004820152601f60248201527f5265656e7472616e637947756172643a207265656e7472616e742063616c6c00604482015260640161047d565b60026006819055506000816001600160a01b031663e8ea4fae6040518163ffffffff1660e01b815260040160006040518083038186803b158015610aa257600080fd5b505afa158015610ab6573d6000803e3d6000fd5b505050506040513d6000823e601f3d908101601f19168201604052610ade9190810190611fd7565b90506000826001600160a01b0316637dad209b6040518163ffffffff1660e01b815260040160006040518083038186803b158015610b1b57600080fd5b505afa158015610b2f573d6000803e3d6000fd5b505050506040513d6000823e601f3d908101601f19168201604052610b579190810190611fd7565b9050600081516001600160401b03811115610b8257634e487b7160e01b600052604160045260246000fd5b604051908082528060200260200182016040528015610bab578160200160208202803683370190505b50905060005b8084511115610bfd57610beb848281518110610bdd57634e487b7160e01b600052603260045260246000fd5b602002602001015186611aa1565b80610bf581612247565b915050610bb1565b5060005b8083511115610d52577f00000000000000000000000000000000000000000000000000000000000000006001600160a01b031663b4ed0b6d848381518110610c5957634e487b7160e01b600052603260045260246000fd5b60200260200101516040518263ffffffff1660e01b8152600401610c7f91815260200190565b60206040518083038186803b158015610c9757600080fd5b505afa158015610cab573d6000803e3d6000fd5b505050506040513d601f19601f82011682018060405250810190610ccf9190611f58565b828281518110610cef57634e487b7160e01b600052603260045260246000fd5b60200260200101906001600160a01b031690816001600160a01b031681525050610d40838281518110610d3257634e487b7160e01b600052603260045260246000fd5b602002602001015186611c0f565b80610d4a81612247565b915050610c01565b506000846001600160a01b031663dc94cb7d6040518163ffffffff1660e01b815260040160006040518083038186803b158015610d8e57600080fd5b505afa158015610da2573d6000803e3d6000fd5b505050506040513d6000823e601f3d908101601f19168201604052610dca9190810190611fd7565b90506000856001600160a01b0316634a7a7f416040518163ffffffff1660e01b815260040160006040518083038186803b158015610e0757600080fd5b505afa158015610e1b573d6000803e3d6000fd5b505050506040513d6000823e601f3d908101601f19168201604052610e439190810190611fd7565b6001600160a01b0387166000908152600b602090815260409091208451929350610e71929091850190611ec2565b506001600160a01b0386166000908152600a602090815260409091208251610e9b92840190611ec2565b50610ea586610701565b600780546001600160a01b0319166001600160a01b03881690811790915560408051631851865560e21b8152905163614619549160048082019260009290919082900301818387803b158015610efa57600080fd5b505af1158015610f0e573d6000803e3d6000fd5b5050600780546001600160a01b03191690555050845160005b80821115610f7257610f60878281518110610f5257634e487b7160e01b600052603260045260246000fd5b602002602001015189611ba8565b80610f6a81612247565b915050610f27565b5060005b8086511115610fe957610fd7868281518110610fa257634e487b7160e01b600052603260045260246000fd5b6020026020010151868381518110610fca57634e487b7160e01b600052603260045260246000fd5b6020026020010151611c0f565b80610fe181612247565b915050610f76565b50506001600655505050505050565b600281815481106106f057600080fd5b600481815481106106f057600080fd5b600381815481106106f057600080fd5b33611031611156565b6001600160a01b0316148061105557503361104a6111e9565b6001600160a01b0316145b6110715760405162461bcd60e51b815260040161047d90612177565b6109aa816116ed565b60606002805480602002602001604051908101604052809291908181526020018280548015610683576020028201919060005260206000209081548152602001906001019080831161066f575050505050905090565b60606005805480602002602001604051908101604052809291908181526020018280548015610683576020028201919060005260206000209081548152602001906001019080831161066f575050505050905090565b6000611130825490565b92915050565b60006111428383611c98565b9392505050565b6060600061114283611cd0565b60007f00000000000000000000000000000000000000000000000000000000000000006001600160a01b0316638da5cb5b6040518163ffffffff1660e01b815260040160206040518083038186803b1580156111b157600080fd5b505afa1580156111c5573d6000803e3d6000fd5b505050506040513d601f19601f8201168201806040525081019061042f9190611f58565b60007f00000000000000000000000000000000000000000000000000000000000000006001600160a01b031663c34c08e56040518163ffffffff1660e01b8152600401602060405180830381600087803b15801561124657600080fd5b505af11580156111c5573d6000803e3d6000fd5b611265600882611d2c565b506000816001600160a01b0316637dad209b6040518163ffffffff1660e01b815260040160006040518083038186803b1580156112a157600080fd5b505afa1580156112b5573d6000803e3d6000fd5b505050506040513d6000823e601f3d908101601f191682016040526112dd9190810190611fd7565b90506000826001600160a01b031663e8ea4fae6040518163ffffffff1660e01b815260040160006040518083038186803b15801561131a57600080fd5b505afa15801561132e573d6000803e3d6000fd5b505050506040513d6000823e601f3d908101601f191682016040526113569190810190611fd7565b805190915060005b80821115611487577f00000000000000000000000000000000000000000000000000000000000000006001600160a01b031663f0723d97868584815181106113b657634e487b7160e01b600052603260045260246000fd5b60200260200101516040518363ffffffff1660e01b81526004016113ef9291906001600160a01b03929092168252602082015260400190565b60206040518083038186803b15801561140757600080fd5b505afa15801561141b573d6000803e3d6000fd5b505050506040513d601f19601f8201168201806040525081019061143f9190612096565b156114755761147583828151811061146757634e487b7160e01b600052603260045260246000fd5b602002602001015186611ba8565b8061147f81612247565b91505061135e565b5050815160005b808211156115b857846001600160a01b03167f00000000000000000000000000000000000000000000000000000000000000006001600160a01b031663b4ed0b6d8684815181106114ef57634e487b7160e01b600052603260045260246000fd5b60200260200101516040518263ffffffff1660e01b815260040161151591815260200190565b60206040518083038186803b15801561152d57600080fd5b505afa158015611541573d6000803e3d6000fd5b505050506040513d601f19601f820116820180604052508101906115659190611f58565b6001600160a01b031614156115a6576115a684828151811061159757634e487b7160e01b600052603260045260246000fd5b60200260200101516000611c0f565b806115b081612247565b91505061148e565b50506001600160a01b0383166000908152600b602052604081208054915b808311156116405761162d86600d600085858154811061160657634e487b7160e01b600052603260045260246000fd5b90600052602060002001548152602001908152602001600020611d2c90919063ffffffff16565b508061163881612247565b9150506115d6565b506001600160a01b0385166000908152600a6020526040812080549350905b808411156116a25761168f87600c600085858154811061160657634e487b7160e01b600052603260045260246000fd5b508061169a81612247565b91505061165f565b506001600160a01b0386166000908152600b602052604081206116c491611f0d565b6001600160a01b0386166000908152600a602052604081206116e591611f0d565b505050505050565b6116f8600882611d41565b506000816001600160a01b0316637dad209b6040518163ffffffff1660e01b815260040160006040518083038186803b15801561173457600080fd5b505afa158015611748573d6000803e3d6000fd5b505050506040513d6000823e601f3d908101601f191682016040526117709190810190611fd7565b90506000826001600160a01b031663e8ea4fae6040518163ffffffff1660e01b815260040160006040518083038186803b1580156117ad57600080fd5b505afa1580156117c1573d6000803e3d6000fd5b505050506040513d6000823e601f3d908101601f191682016040526117e99190810190611fd7565b825190915060005b8082111561184257600084828151811061181b57634e487b7160e01b600052603260045260246000fd5b6020026020010151905061182f8187611c0f565b508061183a81612247565b9150506117f1565b5050805160005b8082111561189a57600083828151811061187357634e487b7160e01b600052603260045260246000fd5b602002602001015190506118878187611aa1565b508061189281612247565b915050611849565b506000846001600160a01b031663dc94cb7d6040518163ffffffff1660e01b815260040160006040518083038186803b1580156118d657600080fd5b505afa1580156118ea573d6000803e3d6000fd5b505050506040513d6000823e601f3d908101601f191682016040526119129190810190611fd7565b90506000856001600160a01b0316634a7a7f416040518163ffffffff1660e01b815260040160006040518083038186803b15801561194f57600080fd5b505afa158015611963573d6000803e3d6000fd5b505050506040513d6000823e601f3d908101601f1916820160405261198b9190810190611fd7565b6001600160a01b0387166000908152600b6020908152604090912084519293506119b9929091850190611ec2565b506001600160a01b0386166000908152600a6020908152604090912082516119e392840190611ec2565b5060005b8083511115611a4f57611a3c87600d6000868581518110611a1857634e487b7160e01b600052603260045260246000fd5b60200260200101518152602001908152602001600020611d4190919063ffffffff16565b5080611a4781612247565b9150506119e7565b5060005b8082511115611a9757611a8487600c6000858581518110611a1857634e487b7160e01b600052603260045260246000fd5b5080611a8f81612247565b915050611a53565b506116e586610701565b6000828152600e60205260409020611ab99082611d41565b506040516325398f8360e01b81526001600160a01b037f000000000000000000000000000000000000000000000000000000000000000016906325398f8390611b089085908590600401612219565b600060405180830381600087803b158015611b2257600080fd5b505af1158015611b36573d6000803e3d6000fd5b50505050610498828261058d565b60405163b4ed0b6d60e01b81526103e960048201526000907f00000000000000000000000000000000000000000000000000000000000000006001600160a01b03169063b4ed0b6d9060240160206040518083038186803b1580156111b157600080fd5b6000828152600e60205260409020611bc09082611d2c565b50604051633238405b60e01b81526001600160a01b037f00000000000000000000000000000000000000000000000000000000000000001690633238405b90611b089085908590600401612219565b604051634d53776960e01b81526001600160a01b037f00000000000000000000000000000000000000000000000000000000000000001690634d53776990611c5d9085908590600401612219565b600060405180830381600087803b158015611c7757600080fd5b505af1158015611c8b573d6000803e3d6000fd5b505050506104988261037c565b6000826000018281548110611cbd57634e487b7160e01b600052603260045260246000fd5b9060005260206000200154905092915050565b606081600001805480602002602001604051908101604052809291908181526020018280548015611d2057602002820191906000526020600020905b815481526020019060010190808311611d0c575b50505050509050919050565b6000611142836001600160a01b038416611d56565b6000611142836001600160a01b038416611e73565b60008181526001830160205260408120548015611e69576000611d7a600183612230565b8554909150600090611d8e90600190612230565b9050818114611e0f576000866000018281548110611dbc57634e487b7160e01b600052603260045260246000fd5b9060005260206000200154905080876000018481548110611ded57634e487b7160e01b600052603260045260246000fd5b6000918252602080832090910192909255918252600188019052604090208390555b8554869080611e2e57634e487b7160e01b600052603160045260246000fd5b600190038181906000526020600020016000905590558560010160008681526020019081526020016000206000905560019350505050611130565b6000915050611130565b6000818152600183016020526040812054611eba57508154600181810184556000848152602080822090930184905584548482528286019093526040902091909155611130565b506000611130565b828054828255906000526020600020908101928215611efd579160200282015b82811115611efd578251825591602001919060010190611ee2565b50611f09929150611f27565b5090565b50805460008255906000526020600020908101906109aa91905b5b80821115611f095760008155600101611f28565b600060208284031215611f4d578081fd5b81356111428161228e565b600060208284031215611f69578081fd5b81516111428161228e565b60008060408385031215611f86578081fd5b8235611f918161228e565b91506020830135611fa18161228e565b809150509250929050565b60008060408385031215611fbe578182fd5b8235611fc98161228e565b946020939093013593505050565b60006020808385031215611fe9578182fd5b82516001600160401b0380821115611fff578384fd5b818501915085601f830112612012578384fd5b81518181111561202457612024612278565b8060051b604051601f19603f8301168101818110858211171561204957612049612278565b604052828152858101935084860182860187018a1015612067578788fd5b8795505b8386101561208957805185526001959095019493860193860161206b565b5098975050505050505050565b6000602082840312156120a7578081fd5b81518015158114611142578182fd5b6000602082840312156120c7578081fd5b5035919050565b600080604083850312156120e0578182fd5b823591506020830135611fa18161228e565b6020808252825182820181905260009190848201906040850190845b818110156121335783516001600160a01b03168352928401929184019160010161210e565b50909695505050505050565b6020808252825182820181905260009190848201906040850190845b818110156121335783518352928401929184019160010161215b565b6020808252602a908201527f526f6c65733a2063616c6c6572206973206e6f7420746865206f776e6572206f604082015269391032bc32b1baba37b960b11b606082015260800190565b60208082526038908201527f43616c6c6572206973206e6f7420746865206f776e65722c206578656375746f604082015277391037b91030baba3437b934bd32b2103234b9b0b13632b960411b606082015260800190565b9182526001600160a01b0316602082015260400190565b60008282101561224257612242612262565b500390565b600060001982141561225b5761225b612262565b5060010190565b634e487b7160e01b600052601160045260246000fd5b634e487b7160e01b600052604160045260246000fd5b6001600160a01b03811681146109aa57600080fdfea264697066735822122071dfd430ad9b33c29ed207a5e01131ab8eb750256fd3bc33b7d78e782b31fb6564736f6c63430008030033",
  "linkReferences": {},
  "deployedLinkReferences": {}
}