{
  "_format": "hh-sol-artifact-1",
  "contractName": "IsolatedLending",
  "sourceName": "contracts/IsolatedLending.sol",
  "abi": [
    {
      "inputs": [
        {
          "internalType": "address",
          "name": "_roles",
          "type": "address"
        }
      ],
      "stateMutability": "nonpayable",
      "type": "constructor"
    },
    {
      "anonymous": false,
      "inputs": [
        {
          "indexed": true,
          "internalType": "address",
          "name": "owner",
          "type": "address"
        },
        {
          "indexed": true,
          "internalType": "address",
          "name": "approved",
          "type": "address"
        },
        {
          "indexed": true,
          "internalType": "uint256",
          "name": "tokenId",
          "type": "uint256"
        }
      ],
      "name": "Approval",
      "type": "event"
    },
    {
      "anonymous": false,
      "inputs": [
        {
          "indexed": true,
          "internalType": "address",
          "name": "owner",
          "type": "address"
        },
        {
          "indexed": true,
          "internalType": "address",
          "name": "operator",
          "type": "address"
        },
        {
          "indexed": false,
          "internalType": "bool",
          "name": "approved",
          "type": "bool"
        }
      ],
      "name": "ApprovalForAll",
      "type": "event"
    },
    {
      "anonymous": false,
      "inputs": [
        {
          "indexed": false,
          "internalType": "string",
          "name": "param",
          "type": "string"
        },
        {
          "indexed": false,
          "internalType": "uint256",
          "name": "value",
          "type": "uint256"
        }
      ],
      "name": "ParameterUpdated",
      "type": "event"
    },
    {
      "anonymous": false,
      "inputs": [
        {
          "indexed": false,
          "internalType": "string",
          "name": "param",
          "type": "string"
        },
        {
          "indexed": false,
          "internalType": "address",
          "name": "subject",
          "type": "address"
        },
        {
          "indexed": false,
          "internalType": "uint256",
          "name": "value",
          "type": "uint256"
        }
      ],
      "name": "SubjectParameterUpdated",
      "type": "event"
    },
    {
      "anonymous": false,
      "inputs": [
        {
          "indexed": false,
          "internalType": "string",
          "name": "param",
          "type": "string"
        },
        {
          "indexed": false,
          "internalType": "address",
          "name": "subject",
          "type": "address"
        }
      ],
      "name": "SubjectUpdated",
      "type": "event"
    },
    {
      "anonymous": false,
      "inputs": [
        {
          "indexed": true,
          "internalType": "uint256",
          "name": "trancheId",
          "type": "uint256"
        }
      ],
      "name": "TrancheUpdated",
      "type": "event"
    },
    {
      "anonymous": false,
      "inputs": [
        {
          "indexed": true,
          "internalType": "address",
          "name": "from",
          "type": "address"
        },
        {
          "indexed": true,
          "internalType": "address",
          "name": "to",
          "type": "address"
        },
        {
          "indexed": true,
          "internalType": "uint256",
          "name": "tokenId",
          "type": "uint256"
        }
      ],
      "name": "Transfer",
      "type": "event"
    },
    {
      "inputs": [
        {
          "internalType": "uint256",
          "name": "",
          "type": "uint256"
        }
      ],
      "name": "_charactersPlayed",
      "outputs": [
        {
          "internalType": "uint256",
          "name": "",
          "type": "uint256"
        }
      ],
      "stateMutability": "view",
      "type": "function"
    },
    {
      "inputs": [
        {
          "internalType": "uint256",
          "name": "",
          "type": "uint256"
        }
      ],
      "name": "_containedIn",
      "outputs": [
        {
          "internalType": "uint256",
          "name": "",
          "type": "uint256"
        }
      ],
      "stateMutability": "view",
      "type": "function"
    },
    {
      "inputs": [
        {
          "internalType": "uint256",
          "name": "",
          "type": "uint256"
        }
      ],
      "name": "_dependsOnCharacters",
      "outputs": [
        {
          "internalType": "uint256",
          "name": "",
          "type": "uint256"
        }
      ],
      "stateMutability": "view",
      "type": "function"
    },
    {
      "inputs": [
        {
          "internalType": "uint256",
          "name": "",
          "type": "uint256"
        }
      ],
      "name": "_dependsOnRoles",
      "outputs": [
        {
          "internalType": "uint256",
          "name": "",
          "type": "uint256"
        }
      ],
      "stateMutability": "view",
      "type": "function"
    },
    {
      "inputs": [
        {
          "internalType": "uint256",
          "name": "",
          "type": "uint256"
        }
      ],
      "name": "_holdingStrategies",
      "outputs": [
        {
          "internalType": "address",
          "name": "",
          "type": "address"
        }
      ],
      "stateMutability": "view",
      "type": "function"
    },
    {
      "inputs": [
        {
          "internalType": "address",
          "name": "",
          "type": "address"
        },
        {
          "internalType": "address",
          "name": "",
          "type": "address"
        }
      ],
      "name": "_oracleCache",
      "outputs": [
        {
          "internalType": "address",
          "name": "",
          "type": "address"
        }
      ],
      "stateMutability": "view",
      "type": "function"
    },
    {
      "inputs": [
        {
          "internalType": "uint256",
          "name": "",
          "type": "uint256"
        }
      ],
      "name": "_rolesPlayed",
      "outputs": [
        {
          "internalType": "uint256",
          "name": "",
          "type": "uint256"
        }
      ],
      "stateMutability": "view",
      "type": "function"
    },
    {
      "inputs": [
        {
          "internalType": "address",
          "name": "to",
          "type": "address"
        },
        {
          "internalType": "uint256",
          "name": "tokenId",
          "type": "uint256"
        }
      ],
      "name": "approve",
      "outputs": [],
      "stateMutability": "nonpayable",
      "type": "function"
    },
    {
      "inputs": [
        {
          "internalType": "address",
          "name": "",
          "type": "address"
        }
      ],
      "name": "assetConfigs",
      "outputs": [
        {
          "internalType": "uint256",
          "name": "debtCeiling",
          "type": "uint256"
        },
        {
          "internalType": "uint256",
          "name": "feePer10k",
          "type": "uint256"
        },
        {
          "internalType": "uint256",
          "name": "totalDebt",
          "type": "uint256"
        }
      ],
      "stateMutability": "view",
      "type": "function"
    },
    {
      "inputs": [
        {
          "components": [
            {
              "internalType": "address",
              "name": "strategy",
              "type": "address"
            },
            {
              "internalType": "address",
              "name": "token",
              "type": "address"
            },
            {
              "internalType": "uint256",
              "name": "APF",
              "type": "uint256"
            },
            {
              "internalType": "uint256",
              "name": "totalCollateral",
              "type": "uint256"
            },
            {
              "internalType": "uint256",
              "name": "borrowablePer10k",
              "type": "uint256"
            },
            {
              "internalType": "uint256",
              "name": "valuePer1e18",
              "type": "uint256"
            },
            {
              "internalType": "bytes32",
              "name": "strategyName",
              "type": "bytes32"
            },
            {
              "internalType": "uint256",
              "name": "tvl",
              "type": "uint256"
            },
            {
              "internalType": "uint256",
              "name": "harvestBalance2Tally",
              "type": "uint256"
            },
            {
              "internalType": "enum IStrategy.YieldType",
              "name": "yieldType",
              "type": "uint8"
            },
            {
              "internalType": "uint256",
              "name": "stabilityFee",
              "type": "uint256"
            },
            {
              "internalType": "address",
              "name": "underlyingStrategy",
              "type": "address"
            }
          ],
          "internalType": "struct IStrategy.StrategyMetadata[]",
          "name": "stratMeta",
          "type": "tuple[]"
        }
      ],
      "name": "augmentStratMetadata",
      "outputs": [
        {
          "components": [
            {
              "internalType": "uint256",
              "name": "debtCeiling",
              "type": "uint256"
            },
            {
              "internalType": "uint256",
              "name": "totalDebt",
              "type": "uint256"
            },
            {
              "internalType": "uint256",
              "name": "stabilityFee",
              "type": "uint256"
            },
            {
              "internalType": "uint256",
              "name": "mintingFee",
              "type": "uint256"
            },
            {
              "internalType": "address",
              "name": "strategy",
              "type": "address"
            },
            {
              "internalType": "address",
              "name": "token",
              "type": "address"
            },
            {
              "internalType": "uint256",
              "name": "APF",
              "type": "uint256"
            },
            {
              "internalType": "uint256",
              "name": "totalCollateral",
              "type": "uint256"
            },
            {
              "internalType": "uint256",
              "name": "borrowablePer10k",
              "type": "uint256"
            },
            {
              "internalType": "uint256",
              "name": "valuePer1e18",
              "type": "uint256"
            },
            {
              "internalType": "bytes32",
              "name": "strategyName",
              "type": "bytes32"
            },
            {
              "internalType": "uint256",
              "name": "tvl",
              "type": "uint256"
            },
            {
              "internalType": "uint256",
              "name": "harvestBalance2Tally",
              "type": "uint256"
            },
            {
              "internalType": "enum IStrategy.YieldType",
              "name": "yieldType",
              "type": "uint8"
            },
            {
              "internalType": "address",
              "name": "underlyingStrategy",
              "type": "address"
            }
          ],
          "internalType": "struct IsolatedLending.ILStrategyMetadata[]",
          "name": "",
          "type": "tuple[]"
        }
      ],
      "stateMutability": "view",
      "type": "function"
    },
    {
      "inputs": [
        {
          "internalType": "address",
          "name": "owner",
          "type": "address"
        }
      ],
      "name": "balanceOf",
      "outputs": [
        {
          "internalType": "uint256",
          "name": "",
          "type": "uint256"
        }
      ],
      "stateMutability": "view",
      "type": "function"
    },
    {
      "inputs": [
        {
          "internalType": "uint256[]",
          "name": "trancheIds",
          "type": "uint256[]"
        },
        {
          "internalType": "address",
          "name": "currency",
          "type": "address"
        },
        {
          "internalType": "address",
          "name": "recipient",
          "type": "address"
        }
      ],
      "name": "batchCollectYield",
      "outputs": [
        {
          "internalType": "uint256",
          "name": "",
          "type": "uint256"
        }
      ],
      "stateMutability": "nonpayable",
      "type": "function"
    },
    {
      "inputs": [
        {
          "internalType": "uint256[]",
          "name": "trancheIds",
          "type": "uint256[]"
        },
        {
          "internalType": "address",
          "name": "yieldCurrency",
          "type": "address"
        },
        {
          "internalType": "address",
          "name": "valueCurrency",
          "type": "address"
        },
        {
          "internalType": "address",
          "name": "recipient",
          "type": "address"
        }
      ],
      "name": "batchCollectYieldValueBorrowable",
      "outputs": [
        {
          "internalType": "uint256",
          "name": "yield",
          "type": "uint256"
        },
        {
          "internalType": "uint256",
          "name": "value",
          "type": "uint256"
        },
        {
          "internalType": "uint256",
          "name": "borrowablePer10k",
          "type": "uint256"
        }
      ],
      "stateMutability": "nonpayable",
      "type": "function"
    },
    {
      "inputs": [
        {
          "internalType": "uint256[]",
          "name": "trancheIds",
          "type": "uint256[]"
        },
        {
          "internalType": "address",
          "name": "currency",
          "type": "address"
        }
      ],
      "name": "batchViewValueBorrowable",
      "outputs": [
        {
          "internalType": "uint256",
          "name": "",
          "type": "uint256"
        },
        {
          "internalType": "uint256",
          "name": "",
          "type": "uint256"
        }
      ],
      "stateMutability": "view",
      "type": "function"
    },
    {
      "inputs": [
        {
          "internalType": "uint256[]",
          "name": "trancheIds",
          "type": "uint256[]"
        },
        {
          "internalType": "address",
          "name": "currency",
          "type": "address"
        }
      ],
      "name": "batchViewYield",
      "outputs": [
        {
          "internalType": "uint256",
          "name": "",
          "type": "uint256"
        }
      ],
      "stateMutability": "view",
      "type": "function"
    },
    {
      "inputs": [],
      "name": "charactersPlayed",
      "outputs": [
        {
          "internalType": "uint256[]",
          "name": "",
          "type": "uint256[]"
        }
      ],
      "stateMutability": "view",
      "type": "function"
    },
    {
      "inputs": [
        {
          "internalType": "uint256",
          "name": "trancheId",
          "type": "uint256"
        },
        {
          "internalType": "address",
          "name": "currency",
          "type": "address"
        },
        {
          "internalType": "address",
          "name": "recipient",
          "type": "address"
        }
      ],
      "name": "collectYield",
      "outputs": [
        {
          "internalType": "uint256",
          "name": "",
          "type": "uint256"
        }
      ],
      "stateMutability": "nonpayable",
      "type": "function"
    },
    {
      "inputs": [
        {
          "internalType": "uint256",
          "name": "trancheId",
          "type": "uint256"
        },
        {
          "internalType": "address",
          "name": "yieldCurrency",
          "type": "address"
        },
        {
          "internalType": "address",
          "name": "valueCurrency",
          "type": "address"
        },
        {
          "internalType": "address",
          "name": "recipient",
          "type": "address"
        }
      ],
      "name": "collectYieldValueBorrowable",
      "outputs": [
        {
          "internalType": "uint256",
          "name": "",
          "type": "uint256"
        },
        {
          "internalType": "uint256",
          "name": "",
          "type": "uint256"
        },
        {
          "internalType": "uint256",
          "name": "",
          "type": "uint256"
        }
      ],
      "stateMutability": "nonpayable",
      "type": "function"
    },
    {
      "inputs": [
        {
          "internalType": "address",
          "name": "token",
          "type": "address"
        },
        {
          "internalType": "uint256",
          "name": "ceiling",
          "type": "uint256"
        },
        {
          "internalType": "uint256",
          "name": "fee",
          "type": "uint256"
        }
      ],
      "name": "configureAsset",
      "outputs": [],
      "stateMutability": "nonpayable",
      "type": "function"
    },
    {
      "inputs": [
        {
          "internalType": "uint256",
          "name": "tokenId",
          "type": "uint256"
        }
      ],
      "name": "containedIn",
      "outputs": [
        {
          "internalType": "address",
          "name": "owner",
          "type": "address"
        },
        {
          "internalType": "uint256",
          "name": "containerId",
          "type": "uint256"
        }
      ],
      "stateMutability": "view",
      "type": "function"
    },
    {
      "inputs": [],
      "name": "dependsOnCharacters",
      "outputs": [
        {
          "internalType": "uint256[]",
          "name": "",
          "type": "uint256[]"
        }
      ],
      "stateMutability": "view",
      "type": "function"
    },
    {
      "inputs": [],
      "name": "dependsOnRoles",
      "outputs": [
        {
          "internalType": "uint256[]",
          "name": "",
          "type": "uint256[]"
        }
      ],
      "stateMutability": "view",
      "type": "function"
    },
    {
      "inputs": [
        {
          "internalType": "uint256",
          "name": "trancheId",
          "type": "uint256"
        },
        {
          "internalType": "uint256",
          "name": "tokenAmount",
          "type": "uint256"
        }
      ],
      "name": "deposit",
      "outputs": [],
      "stateMutability": "nonpayable",
      "type": "function"
    },
    {
      "inputs": [
        {
          "internalType": "uint256",
          "name": "trancheId",
          "type": "uint256"
        },
        {
          "internalType": "uint256",
          "name": "collateralAmount",
          "type": "uint256"
        },
        {
          "internalType": "uint256",
          "name": "borrowAmount",
          "type": "uint256"
        },
        {
          "internalType": "address",
          "name": "recipient",
          "type": "address"
        }
      ],
      "name": "depositAndBorrow",
      "outputs": [],
      "stateMutability": "nonpayable",
      "type": "function"
    },
    {
      "inputs": [
        {
          "internalType": "uint256",
          "name": "tokenId",
          "type": "uint256"
        }
      ],
      "name": "getApproved",
      "outputs": [
        {
          "internalType": "address",
          "name": "",
          "type": "address"
        }
      ],
      "stateMutability": "view",
      "type": "function"
    },
    {
      "inputs": [
        {
          "internalType": "uint256",
          "name": "trancheId",
          "type": "uint256"
        }
      ],
      "name": "getCurrentHoldingStrategy",
      "outputs": [
        {
          "internalType": "address",
          "name": "",
          "type": "address"
        }
      ],
      "stateMutability": "nonpayable",
      "type": "function"
    },
    {
      "inputs": [
        {
          "internalType": "address",
          "name": "owner",
          "type": "address"
        },
        {
          "internalType": "address",
          "name": "operator",
          "type": "address"
        }
      ],
      "name": "isApprovedForAll",
      "outputs": [
        {
          "internalType": "bool",
          "name": "",
          "type": "bool"
        }
      ],
      "stateMutability": "view",
      "type": "function"
    },
    {
      "inputs": [
        {
          "internalType": "address",
          "name": "spender",
          "type": "address"
        },
        {
          "internalType": "uint256",
          "name": "tokenId",
          "type": "uint256"
        }
      ],
      "name": "isAuthorized",
      "outputs": [
        {
          "internalType": "bool",
          "name": "",
          "type": "bool"
        }
      ],
      "stateMutability": "view",
      "type": "function"
    },
    {
      "inputs": [
        {
          "internalType": "uint256",
          "name": "trancheId",
          "type": "uint256"
        }
      ],
      "name": "isViable",
      "outputs": [
        {
          "internalType": "bool",
          "name": "",
          "type": "bool"
        }
      ],
      "stateMutability": "view",
      "type": "function"
    },
    {
      "inputs": [
        {
          "internalType": "uint256",
          "name": "",
          "type": "uint256"
        }
      ],
      "name": "mainCharacterCache",
      "outputs": [
        {
          "internalType": "address",
          "name": "",
          "type": "address"
        }
      ],
      "stateMutability": "view",
      "type": "function"
    },
    {
      "inputs": [
        {
          "internalType": "uint256",
          "name": "trancheId",
          "type": "uint256"
        },
        {
          "internalType": "address",
          "name": "destination",
          "type": "address"
        },
        {
          "internalType": "address",
          "name": "yieldToken",
          "type": "address"
        },
        {
          "internalType": "address",
          "name": "yieldRecipient",
          "type": "address"
        }
      ],
      "name": "migrateStrategy",
      "outputs": [
        {
          "internalType": "address",
          "name": "token",
          "type": "address"
        },
        {
          "internalType": "uint256",
          "name": "tokenId",
          "type": "uint256"
        },
        {
          "internalType": "uint256",
          "name": "targetAmount",
          "type": "uint256"
        }
      ],
      "stateMutability": "nonpayable",
      "type": "function"
    },
    {
      "inputs": [
        {
          "internalType": "address",
          "name": "collateralToken",
          "type": "address"
        },
        {
          "internalType": "address",
          "name": "strategy",
          "type": "address"
        },
        {
          "internalType": "uint256",
          "name": "collateralAmount",
          "type": "uint256"
        },
        {
          "internalType": "uint256",
          "name": "borrowAmount",
          "type": "uint256"
        },
        {
          "internalType": "address",
          "name": "stableRecipient",
          "type": "address"
        }
      ],
      "name": "mintDepositAndBorrow",
      "outputs": [
        {
          "internalType": "uint256",
          "name": "",
          "type": "uint256"
        }
      ],
      "stateMutability": "nonpayable",
      "type": "function"
    },
    {
      "inputs": [
        {
          "internalType": "uint256",
          "name": "vaultId",
          "type": "uint256"
        },
        {
          "internalType": "address",
          "name": "strategy",
          "type": "address"
        },
        {
          "internalType": "address",
          "name": "assetToken",
          "type": "address"
        },
        {
          "internalType": "uint256",
          "name": "assetTokenId",
          "type": "uint256"
        },
        {
          "internalType": "uint256",
          "name": "assetAmount",
          "type": "uint256"
        }
      ],
      "name": "mintTranche",
      "outputs": [
        {
          "internalType": "uint256",
          "name": "trancheId",
          "type": "uint256"
        }
      ],
      "stateMutability": "nonpayable",
      "type": "function"
    },
    {
      "inputs": [
        {
          "internalType": "uint256",
          "name": "stableAmount",
          "type": "uint256"
        },
        {
          "internalType": "address",
          "name": "collateral",
          "type": "address"
        }
      ],
      "name": "mintingFee",
      "outputs": [
        {
          "internalType": "uint256",
          "name": "",
          "type": "uint256"
        }
      ],
      "stateMutability": "view",
      "type": "function"
    },
    {
      "inputs": [],
      "name": "name",
      "outputs": [
        {
          "internalType": "string",
          "name": "",
          "type": "string"
        }
      ],
      "stateMutability": "view",
      "type": "function"
    },
    {
      "inputs": [
        {
          "internalType": "address",
          "name": "token",
          "type": "address"
        },
        {
          "internalType": "address",
          "name": "pegCurrency",
          "type": "address"
        }
      ],
      "name": "newCurrentOracle",
      "outputs": [],
      "stateMutability": "nonpayable",
      "type": "function"
    },
    {
      "inputs": [
        {
          "internalType": "uint256",
          "name": "tokenId",
          "type": "uint256"
        }
      ],
      "name": "ownerOf",
      "outputs": [
        {
          "internalType": "address",
          "name": "",
          "type": "address"
        }
      ],
      "stateMutability": "view",
      "type": "function"
    },
    {
      "inputs": [],
      "name": "pastFees",
      "outputs": [
        {
          "internalType": "uint256",
          "name": "",
          "type": "uint256"
        }
      ],
      "stateMutability": "view",
      "type": "function"
    },
    {
      "inputs": [],
      "name": "pendingFees",
      "outputs": [
        {
          "internalType": "uint256",
          "name": "",
          "type": "uint256"
        }
      ],
      "stateMutability": "view",
      "type": "function"
    },
    {
      "inputs": [
        {
          "internalType": "address",
          "name": "depositor",
          "type": "address"
        },
        {
          "internalType": "uint256",
          "name": "trancheId",
          "type": "uint256"
        },
        {
          "internalType": "uint256",
          "name": "tokenAmount",
          "type": "uint256"
        }
      ],
      "name": "registerDepositFor",
      "outputs": [],
      "stateMutability": "nonpayable",
      "type": "function"
    },
    {
      "inputs": [
        {
          "internalType": "uint256",
          "name": "trancheId",
          "type": "uint256"
        },
        {
          "internalType": "uint256",
          "name": "repayAmount",
          "type": "uint256"
        }
      ],
      "name": "repay",
      "outputs": [],
      "stateMutability": "nonpayable",
      "type": "function"
    },
    {
      "inputs": [
        {
          "internalType": "uint256",
          "name": "trancheId",
          "type": "uint256"
        },
        {
          "internalType": "uint256",
          "name": "collateralAmount",
          "type": "uint256"
        },
        {
          "internalType": "uint256",
          "name": "repayAmount",
          "type": "uint256"
        },
        {
          "internalType": "address",
          "name": "recipient",
          "type": "address"
        }
      ],
      "name": "repayAndWithdraw",
      "outputs": [],
      "stateMutability": "nonpayable",
      "type": "function"
    },
    {
      "inputs": [
        {
          "internalType": "address",
          "name": "",
          "type": "address"
        },
        {
          "internalType": "uint256",
          "name": "",
          "type": "uint256"
        }
      ],
      "name": "roleCache",
      "outputs": [
        {
          "internalType": "bool",
          "name": "",
          "type": "bool"
        }
      ],
      "stateMutability": "view",
      "type": "function"
    },
    {
      "inputs": [],
      "name": "roles",
      "outputs": [
        {
          "internalType": "contract Roles",
          "name": "",
          "type": "address"
        }
      ],
      "stateMutability": "view",
      "type": "function"
    },
    {
      "inputs": [],
      "name": "rolesPlayed",
      "outputs": [
        {
          "internalType": "uint256[]",
          "name": "",
          "type": "uint256[]"
        }
      ],
      "stateMutability": "view",
      "type": "function"
    },
    {
      "inputs": [
        {
          "internalType": "address",
          "name": "from",
          "type": "address"
        },
        {
          "internalType": "address",
          "name": "to",
          "type": "address"
        },
        {
          "internalType": "uint256",
          "name": "tokenId",
          "type": "uint256"
        }
      ],
      "name": "safeTransferFrom",
      "outputs": [],
      "stateMutability": "nonpayable",
      "type": "function"
    },
    {
      "inputs": [
        {
          "internalType": "address",
          "name": "from",
          "type": "address"
        },
        {
          "internalType": "address",
          "name": "to",
          "type": "address"
        },
        {
          "internalType": "uint256",
          "name": "tokenId",
          "type": "uint256"
        },
        {
          "internalType": "bytes",
          "name": "_data",
          "type": "bytes"
        }
      ],
      "name": "safeTransferFrom",
      "outputs": [],
      "stateMutability": "nonpayable",
      "type": "function"
    },
    {
      "inputs": [
        {
          "internalType": "address",
          "name": "operator",
          "type": "address"
        },
        {
          "internalType": "bool",
          "name": "approved",
          "type": "bool"
        }
      ],
      "name": "setApprovalForAll",
      "outputs": [],
      "stateMutability": "nonpayable",
      "type": "function"
    },
    {
      "inputs": [
        {
          "internalType": "address",
          "name": "token",
          "type": "address"
        },
        {
          "internalType": "uint256",
          "name": "ceiling",
          "type": "uint256"
        }
      ],
      "name": "setAssetDebtCeiling",
      "outputs": [],
      "stateMutability": "nonpayable",
      "type": "function"
    },
    {
      "inputs": [
        {
          "internalType": "address",
          "name": "token",
          "type": "address"
        },
        {
          "internalType": "uint256",
          "name": "fee",
          "type": "uint256"
        }
      ],
      "name": "setFeesPer10k",
      "outputs": [],
      "stateMutability": "nonpayable",
      "type": "function"
    },
    {
      "inputs": [
        {
          "internalType": "uint256",
          "name": "period",
          "type": "uint256"
        }
      ],
      "name": "setUpdateTrackingPeriod",
      "outputs": [],
      "stateMutability": "nonpayable",
      "type": "function"
    },
    {
      "inputs": [],
      "name": "setupTrancheSlot",
      "outputs": [],
      "stateMutability": "nonpayable",
      "type": "function"
    },
    {
      "inputs": [
        {
          "internalType": "bytes4",
          "name": "interfaceId",
          "type": "bytes4"
        }
      ],
      "name": "supportsInterface",
      "outputs": [
        {
          "internalType": "bool",
          "name": "",
          "type": "bool"
        }
      ],
      "stateMutability": "view",
      "type": "function"
    },
    {
      "inputs": [],
      "name": "symbol",
      "outputs": [
        {
          "internalType": "string",
          "name": "",
          "type": "string"
        }
      ],
      "stateMutability": "view",
      "type": "function"
    },
    {
      "inputs": [
        {
          "internalType": "uint256",
          "name": "index",
          "type": "uint256"
        }
      ],
      "name": "tokenByIndex",
      "outputs": [
        {
          "internalType": "uint256",
          "name": "",
          "type": "uint256"
        }
      ],
      "stateMutability": "view",
      "type": "function"
    },
    {
      "inputs": [
        {
          "internalType": "address",
          "name": "owner",
          "type": "address"
        },
        {
          "internalType": "uint256",
          "name": "index",
          "type": "uint256"
        }
      ],
      "name": "tokenOfOwnerByIndex",
      "outputs": [
        {
          "internalType": "uint256",
          "name": "",
          "type": "uint256"
        }
      ],
      "stateMutability": "view",
      "type": "function"
    },
    {
      "inputs": [
        {
          "internalType": "uint256",
          "name": "tokenId",
          "type": "uint256"
        }
      ],
      "name": "tokenURI",
      "outputs": [
        {
          "internalType": "string",
          "name": "",
          "type": "string"
        }
      ],
      "stateMutability": "view",
      "type": "function"
    },
    {
      "inputs": [],
      "name": "totalSupply",
      "outputs": [
        {
          "internalType": "uint256",
          "name": "",
          "type": "uint256"
        }
      ],
      "stateMutability": "view",
      "type": "function"
    },
    {
      "inputs": [
        {
          "internalType": "uint256",
          "name": "",
          "type": "uint256"
        }
      ],
      "name": "trancheDebt",
      "outputs": [
        {
          "internalType": "uint256",
          "name": "",
          "type": "uint256"
        }
      ],
      "stateMutability": "view",
      "type": "function"
    },
    {
      "inputs": [
        {
          "internalType": "uint256",
          "name": "trancheId",
          "type": "uint256"
        }
      ],
      "name": "trancheToken",
      "outputs": [
        {
          "internalType": "address",
          "name": "",
          "type": "address"
        }
      ],
      "stateMutability": "view",
      "type": "function"
    },
    {
      "inputs": [
        {
          "internalType": "address",
          "name": "from",
          "type": "address"
        },
        {
          "internalType": "address",
          "name": "to",
          "type": "address"
        },
        {
          "internalType": "uint256",
          "name": "tokenId",
          "type": "uint256"
        }
      ],
      "name": "transferFrom",
      "outputs": [],
      "stateMutability": "nonpayable",
      "type": "function"
    },
    {
      "inputs": [
        {
          "internalType": "uint256",
          "name": "role",
          "type": "uint256"
        }
      ],
      "name": "updateMainCharacterCache",
      "outputs": [],
      "stateMutability": "nonpayable",
      "type": "function"
    },
    {
      "inputs": [
        {
          "internalType": "uint256",
          "name": "role",
          "type": "uint256"
        },
        {
          "internalType": "address",
          "name": "contr",
          "type": "address"
        }
      ],
      "name": "updateRoleCache",
      "outputs": [],
      "stateMutability": "nonpayable",
      "type": "function"
    },
    {
      "inputs": [],
      "name": "updateTrackingPeriod",
      "outputs": [
        {
          "internalType": "uint256",
          "name": "",
          "type": "uint256"
        }
      ],
      "stateMutability": "view",
      "type": "function"
    },
    {
      "inputs": [],
      "name": "viewAllDisabledTokenStrategyMetadata",
      "outputs": [
        {
          "components": [
            {
              "internalType": "uint256",
              "name": "debtCeiling",
              "type": "uint256"
            },
            {
              "internalType": "uint256",
              "name": "totalDebt",
              "type": "uint256"
            },
            {
              "internalType": "uint256",
              "name": "stabilityFee",
              "type": "uint256"
            },
            {
              "internalType": "uint256",
              "name": "mintingFee",
              "type": "uint256"
            },
            {
              "internalType": "address",
              "name": "strategy",
              "type": "address"
            },
            {
              "internalType": "address",
              "name": "token",
              "type": "address"
            },
            {
              "internalType": "uint256",
              "name": "APF",
              "type": "uint256"
            },
            {
              "internalType": "uint256",
              "name": "totalCollateral",
              "type": "uint256"
            },
            {
              "internalType": "uint256",
              "name": "borrowablePer10k",
              "type": "uint256"
            },
            {
              "internalType": "uint256",
              "name": "valuePer1e18",
              "type": "uint256"
            },
            {
              "internalType": "bytes32",
              "name": "strategyName",
              "type": "bytes32"
            },
            {
              "internalType": "uint256",
              "name": "tvl",
              "type": "uint256"
            },
            {
              "internalType": "uint256",
              "name": "harvestBalance2Tally",
              "type": "uint256"
            },
            {
              "internalType": "enum IStrategy.YieldType",
              "name": "yieldType",
              "type": "uint8"
            },
            {
              "internalType": "address",
              "name": "underlyingStrategy",
              "type": "address"
            }
          ],
          "internalType": "struct IsolatedLending.ILStrategyMetadata[]",
          "name": "",
          "type": "tuple[]"
        }
      ],
      "stateMutability": "view",
      "type": "function"
    },
    {
      "inputs": [],
      "name": "viewAllFeesEver",
      "outputs": [
        {
          "internalType": "uint256",
          "name": "",
          "type": "uint256"
        }
      ],
      "stateMutability": "view",
      "type": "function"
    },
    {
      "inputs": [
        {
          "internalType": "address[]",
          "name": "tokens",
          "type": "address[]"
        }
      ],
      "name": "viewAllILMetadata",
      "outputs": [
        {
          "components": [
            {
              "internalType": "uint256",
              "name": "debtCeiling",
              "type": "uint256"
            },
            {
              "internalType": "uint256",
              "name": "totalDebt",
              "type": "uint256"
            },
            {
              "internalType": "uint256",
              "name": "mintingFee",
              "type": "uint256"
            },
            {
              "internalType": "uint256",
              "name": "borrowablePer10k",
              "type": "uint256"
            }
          ],
          "internalType": "struct IsolatedLending.ILMetadata[]",
          "name": "",
          "type": "tuple[]"
        }
      ],
      "stateMutability": "view",
      "type": "function"
    },
    {
      "inputs": [],
      "name": "viewAllStrategyMetadata",
      "outputs": [
        {
          "components": [
            {
              "internalType": "uint256",
              "name": "debtCeiling",
              "type": "uint256"
            },
            {
              "internalType": "uint256",
              "name": "totalDebt",
              "type": "uint256"
            },
            {
              "internalType": "uint256",
              "name": "stabilityFee",
              "type": "uint256"
            },
            {
              "internalType": "uint256",
              "name": "mintingFee",
              "type": "uint256"
            },
            {
              "internalType": "address",
              "name": "strategy",
              "type": "address"
            },
            {
              "internalType": "address",
              "name": "token",
              "type": "address"
            },
            {
              "internalType": "uint256",
              "name": "APF",
              "type": "uint256"
            },
            {
              "internalType": "uint256",
              "name": "totalCollateral",
              "type": "uint256"
            },
            {
              "internalType": "uint256",
              "name": "borrowablePer10k",
              "type": "uint256"
            },
            {
              "internalType": "uint256",
              "name": "valuePer1e18",
              "type": "uint256"
            },
            {
              "internalType": "bytes32",
              "name": "strategyName",
              "type": "bytes32"
            },
            {
              "internalType": "uint256",
              "name": "tvl",
              "type": "uint256"
            },
            {
              "internalType": "uint256",
              "name": "harvestBalance2Tally",
              "type": "uint256"
            },
            {
              "internalType": "enum IStrategy.YieldType",
              "name": "yieldType",
              "type": "uint8"
            },
            {
              "internalType": "address",
              "name": "underlyingStrategy",
              "type": "address"
            }
          ],
          "internalType": "struct IsolatedLending.ILStrategyMetadata[]",
          "name": "",
          "type": "tuple[]"
        }
      ],
      "stateMutability": "view",
      "type": "function"
    },
    {
      "inputs": [
        {
          "internalType": "uint256",
          "name": "trancheId",
          "type": "uint256"
        }
      ],
      "name": "viewBorrowable",
      "outputs": [
        {
          "internalType": "uint256",
          "name": "",
          "type": "uint256"
        }
      ],
      "stateMutability": "view",
      "type": "function"
    },
    {
      "inputs": [
        {
          "internalType": "uint256",
          "name": "trancheId",
          "type": "uint256"
        },
        {
          "internalType": "address",
          "name": "valueCurrency",
          "type": "address"
        }
      ],
      "name": "viewCollateralValue",
      "outputs": [
        {
          "internalType": "uint256",
          "name": "",
          "type": "uint256"
        }
      ],
      "stateMutability": "view",
      "type": "function"
    },
    {
      "inputs": [
        {
          "internalType": "uint256",
          "name": "trancheId",
          "type": "uint256"
        }
      ],
      "name": "viewCollateralValue",
      "outputs": [
        {
          "internalType": "uint256",
          "name": "",
          "type": "uint256"
        }
      ],
      "stateMutability": "view",
      "type": "function"
    },
    {
      "inputs": [
        {
          "internalType": "uint256",
          "name": "trancheId",
          "type": "uint256"
        }
      ],
      "name": "viewCurrentHoldingStrategy",
      "outputs": [
        {
          "internalType": "address",
          "name": "",
          "type": "address"
        }
      ],
      "stateMutability": "view",
      "type": "function"
    },
    {
      "inputs": [
        {
          "internalType": "address",
          "name": "token",
          "type": "address"
        }
      ],
      "name": "viewILMetadata",
      "outputs": [
        {
          "components": [
            {
              "internalType": "uint256",
              "name": "debtCeiling",
              "type": "uint256"
            },
            {
              "internalType": "uint256",
              "name": "totalDebt",
              "type": "uint256"
            },
            {
              "internalType": "uint256",
              "name": "mintingFee",
              "type": "uint256"
            },
            {
              "internalType": "uint256",
              "name": "borrowablePer10k",
              "type": "uint256"
            }
          ],
          "internalType": "struct IsolatedLending.ILMetadata",
          "name": "",
          "type": "tuple"
        }
      ],
      "stateMutability": "view",
      "type": "function"
    },
    {
      "inputs": [
        {
          "internalType": "uint256",
          "name": "_trancheId",
          "type": "uint256"
        }
      ],
      "name": "viewPositionMetadata",
      "outputs": [
        {
          "components": [
            {
              "internalType": "uint256",
              "name": "trancheId",
              "type": "uint256"
            },
            {
              "internalType": "address",
              "name": "strategy",
              "type": "address"
            },
            {
              "internalType": "uint256",
              "name": "collateral",
              "type": "uint256"
            },
            {
              "internalType": "uint256",
              "name": "debt",
              "type": "uint256"
            },
            {
              "internalType": "address",
              "name": "token",
              "type": "address"
            },
            {
              "internalType": "uint256",
              "name": "yield",
              "type": "uint256"
            },
            {
              "internalType": "uint256",
              "name": "collateralValue",
              "type": "uint256"
            },
            {
              "internalType": "uint256",
              "name": "borrowablePer10k",
              "type": "uint256"
            },
            {
              "internalType": "address",
              "name": "owner",
              "type": "address"
            }
          ],
          "internalType": "struct IsolatedLending.PositionMetadata",
          "name": "",
          "type": "tuple"
        }
      ],
      "stateMutability": "view",
      "type": "function"
    },
    {
      "inputs": [
        {
          "internalType": "address",
          "name": "owner",
          "type": "address"
        }
      ],
      "name": "viewPositionsByOwner",
      "outputs": [
        {
          "components": [
            {
              "internalType": "uint256",
              "name": "trancheId",
              "type": "uint256"
            },
            {
              "internalType": "address",
              "name": "strategy",
              "type": "address"
            },
            {
              "internalType": "uint256",
              "name": "collateral",
              "type": "uint256"
            },
            {
              "internalType": "uint256",
              "name": "debt",
              "type": "uint256"
            },
            {
              "internalType": "address",
              "name": "token",
              "type": "address"
            },
            {
              "internalType": "uint256",
              "name": "yield",
              "type": "uint256"
            },
            {
              "internalType": "uint256",
              "name": "collateralValue",
              "type": "uint256"
            },
            {
              "internalType": "uint256",
              "name": "borrowablePer10k",
              "type": "uint256"
            },
            {
              "internalType": "address",
              "name": "owner",
              "type": "address"
            }
          ],
          "internalType": "struct IsolatedLending.PositionMetadata[]",
          "name": "",
          "type": "tuple[]"
        }
      ],
      "stateMutability": "view",
      "type": "function"
    },
    {
      "inputs": [
        {
          "internalType": "uint256",
          "name": "trackingPeriod",
          "type": "uint256"
        }
      ],
      "name": "viewPositionsByTrackingPeriod",
      "outputs": [
        {
          "components": [
            {
              "internalType": "uint256",
              "name": "trancheId",
              "type": "uint256"
            },
            {
              "internalType": "address",
              "name": "strategy",
              "type": "address"
            },
            {
              "internalType": "uint256",
              "name": "collateral",
              "type": "uint256"
            },
            {
              "internalType": "uint256",
              "name": "debt",
              "type": "uint256"
            },
            {
              "internalType": "address",
              "name": "token",
              "type": "address"
            },
            {
              "internalType": "uint256",
              "name": "yield",
              "type": "uint256"
            },
            {
              "internalType": "uint256",
              "name": "collateralValue",
              "type": "uint256"
            },
            {
              "internalType": "uint256",
              "name": "borrowablePer10k",
              "type": "uint256"
            },
            {
              "internalType": "address",
              "name": "owner",
              "type": "address"
            }
          ],
          "internalType": "struct IsolatedLending.PositionMetadata[]",
          "name": "rows",
          "type": "tuple[]"
        }
      ],
      "stateMutability": "view",
      "type": "function"
    },
    {
      "inputs": [
        {
          "internalType": "uint256",
          "name": "trancheId",
          "type": "uint256"
        }
      ],
      "name": "viewTargetCollateralAmount",
      "outputs": [
        {
          "internalType": "uint256",
          "name": "",
          "type": "uint256"
        }
      ],
      "stateMutability": "view",
      "type": "function"
    },
    {
      "inputs": [
        {
          "internalType": "address",
          "name": "owner",
          "type": "address"
        }
      ],
      "name": "viewTranchesByOwner",
      "outputs": [
        {
          "internalType": "uint256[]",
          "name": "",
          "type": "uint256[]"
        }
      ],
      "stateMutability": "view",
      "type": "function"
    },
    {
      "inputs": [
        {
          "internalType": "uint256",
          "name": "trancheId",
          "type": "uint256"
        },
        {
          "internalType": "address",
          "name": "currency",
          "type": "address"
        }
      ],
      "name": "viewYield",
      "outputs": [
        {
          "internalType": "uint256",
          "name": "",
          "type": "uint256"
        }
      ],
      "stateMutability": "view",
      "type": "function"
    },
    {
      "inputs": [
        {
          "internalType": "uint256",
          "name": "trancheId",
          "type": "uint256"
        },
        {
          "internalType": "address",
          "name": "yieldCurrency",
          "type": "address"
        },
        {
          "internalType": "address",
          "name": "valueCurrency",
          "type": "address"
        }
      ],
      "name": "viewYieldCollateralValueBorrowable",
      "outputs": [
        {
          "internalType": "uint256",
          "name": "",
          "type": "uint256"
        },
        {
          "internalType": "uint256",
          "name": "",
          "type": "uint256"
        },
        {
          "internalType": "uint256",
          "name": "",
          "type": "uint256"
        }
      ],
      "stateMutability": "view",
      "type": "function"
    },
    {
      "inputs": [
        {
          "internalType": "uint256",
          "name": "trancheId",
          "type": "uint256"
        },
        {
          "internalType": "address",
          "name": "yieldCurrency",
          "type": "address"
        },
        {
          "internalType": "address",
          "name": "valueCurrency",
          "type": "address"
        }
      ],
      "name": "viewYieldValueBorrowable",
      "outputs": [
        {
          "internalType": "uint256",
          "name": "",
          "type": "uint256"
        },
        {
          "internalType": "uint256",
          "name": "",
          "type": "uint256"
        },
        {
          "internalType": "uint256",
          "name": "",
          "type": "uint256"
        }
      ],
      "stateMutability": "view",
      "type": "function"
    },
    {
      "inputs": [
        {
          "internalType": "uint256",
          "name": "trancheId",
          "type": "uint256"
        },
        {
          "internalType": "uint256",
          "name": "tokenAmount",
          "type": "uint256"
        },
        {
          "internalType": "address",
          "name": "yieldCurrency",
          "type": "address"
        },
        {
          "internalType": "address",
          "name": "recipient",
          "type": "address"
        }
      ],
      "name": "withdraw",
      "outputs": [],
      "stateMutability": "nonpayable",
      "type": "function"
    },
    {
      "inputs": [],
      "name": "withdrawFees",
      "outputs": [],
      "stateMutability": "nonpayable",
      "type": "function"
    }
  ],
  "bytecode": "0x60a060405262093a806015553480156200001857600080fd5b50604051620063d9380380620063d98339810160408190526200003b916200034a565b6040518060400160405280601a81526020017f4d6f72656d6f6e65792049736f6c61746564204c656e64696e67000000000000815250604051806040016040528060048152602001631353525360e21b815250828083838160009080519060200190620000aa929190620002a4565b508051620000c0906001906020840190620002a4565b5050600d80546001818101835560057fd7b6990105719101dabeb77144f2a3385c8033acd3af97e9423a695e81ad1eb592830155600c8054808301825560697fdf6966c971051c3d54ec59162606531493a51404a002842f56009d7e5cf4a8c7918201558154808401909255606891015582548082018455600093909352910155506001600160a01b038116620001a85760405162461bcd60e51b815260206004820152602260248201527f506c656173652070726f766964652076616c696420726f6c6573206164647265604482015261737360f01b606482015260840160405180910390fd5b60601b6001600160601b0319166080525050600c805460018082018355606a7fdf6966c971051c3d54ec59162606531493a51404a002842f56009d7e5cf4a8c792830155600f8054808301825560047f8d1108e10bcb7c27dddfc02ed9d693a074039d026cf4ea4240b40f7d581ac802918201556012839055815480840183556003908201558454808401865560669085015581548084018355600290820155845480840190955560679490930193909355600e8054808301909155606b7fbb7b4a454dc3493923482f07822329ed19e8244eff582cc204f8554c3620c3fd909101558254808201845560009390935291015550620003b79050565b828054620002b2906200037a565b90600052602060002090601f016020900481019282620002d6576000855562000321565b82601f10620002f157805160ff191683800117855562000321565b8280016001018555821562000321579182015b828111156200032157825182559160200191906001019062000304565b506200032f92915062000333565b5090565b5b808211156200032f576000815560010162000334565b6000602082840312156200035c578081fd5b81516001600160a01b038116811462000373578182fd5b9392505050565b600181811c908216806200038f57607f821691505b60208210811415620003b157634e487b7160e01b600052602260045260246000fd5b50919050565b60805160601c615fd9620004006000396000818161062901528181610cd30152818161177901528181613d1501528181613da801528181613e2f01526142080152615fd96000f3fe608060405234801561001057600080fd5b50600436106103b05760003560e01c80620a5ccf146103b557806301ffc9a7146103de57806304c7e7671461040157806306fdde0314610422578063071060a614610437578063081812fc1461044c57806308754a731461046c578063095ea7b31461048d5780630d639044146104a05780630d749628146104c05780630e3b95ff146104c8578063136f9cef146104e857806318160ddd1461051057806321fa0f1f14610518578063224438d11461052d57806323b872dd146105365780632642b6061461054957806326b089de1461057d57806328f3fc7314610590578063291e486f146105a35780632972b0f0146105c35780632e25f5ea146105d65780632f745c59146105de57806332935f44146105f157806335b176ab14610604578063392f5f641461062457806342842e0e1461064b578063447d52ba1461065e578063476343ee146106715780634a7a7f41146106795780634f6ccce7146106815780634f7dcffc1461069457806361b9fea91461069d578063621fdd37146106b05780636352211e146106c35780636caa9c11146106d657806370a08231146106e957806371b3177a146106fc5780637268d1c01461070f57806375161891146107225780637609d7f61461075057806379bc3efa1461077f5780637a1a04df146107925780637dad209b146107c05780638496e891146107c85780638f132f11146107db57806391130d95146107e457806393856b161461080457806395d89b4114610817578063983b42f71461081f5780639897fc2614610832578063a061ba5f14610845578063a0a53c0014610858578063a22cb4651461086b578063a2fb54ff1461087e578063abcbc4fc14610891578063aeb38d8b146108a4578063b23d66c2146108b7578063b25e25f4146108ef578063b88d4fde14610902578063bf184ea414610915578063c5c72dc314610928578063c87b56dd1461093b578063d8aed1451461094e578063dc94cb7d14610961578063ddd07b7614610969578063dee7ae701461097c578063e2bbb1581461099c578063e670309c146109af578063e8ea4fae146109b7578063e985e9c5146109bf578063e9c3f77d146109d2578063e9d07fe8146109fb578063eab9209614610a0e578063ebc6353e14610a21578063f12ba38114610a34578063f6ee21bd14610a47578063f8903fb714610a5a578063f9ed4cc014610a6d578063fa98a4ba14610a96578063fabee7db14610aa9578063fd80d0c314610abc578063fdf27f9e14610acf575b600080fd5b6103c86103c3366004614f2b565b610ae2565b6040516103d59190615b2a565b60405180910390f35b6103f16103ec3660046155a3565b610ba1565b60405190151581526020016103d5565b61041461040f366004615096565b610bcc565b6040519081526020016103d5565b61042a610c2b565b6040516103d59190615b62565b61044a61044536600461560e565b610cbd565b005b61045f61045a36600461560e565b610d83565b6040516103d5919061591b565b61047f61047a36600461560e565b610e0b565b6040516103d592919061597c565b61044a61049b366004615121565b610e2e565b6104146104ae36600461560e565b60176020526000908152604090205481565b610414610f3f565b6104db6104d63660046151b6565b610f56565b6040516103d59190615995565b6104fb6104f6366004615462565b611045565b604080519283526020830191909152016103d5565b600854610414565b61052061115e565b6040516103d591906159e3565b61041460185481565b61044a610544366004614f9b565b6111ef565b61045f610557366004614f63565b60116020908152600092835260408084209091529082529020546001600160a01b031681565b61041461058b36600461563e565b611220565b61044a61059e366004614f63565b61129b565b6105b66105b136600461560e565b61138e565b6040516103d59190615d0a565b6103f16105d1366004615121565b61153b565b610520611601565b6104146105ec366004615121565b611645565b6104146105ff366004615462565b6116db565b61041461061236600461560e565b60106020526000908152604090205481565b61045f7f000000000000000000000000000000000000000000000000000000000000000081565b61044a610659366004614f9b565b611747565b61044a61066c36600461563e565b611762565b61044a611838565b6103c861189e565b61041461068f36600461560e565b6118f5565b61041460155481565b61045f6106ab36600461560e565b611996565b61044a6106be3660046157cf565b611bcb565b61045f6106d136600461560e565b611c40565b6104146106e436600461560e565b611cb7565b6104146106f7366004614f2b565b611cd8565b61044a61070a366004615774565b611d5f565b61041461071d36600461560e565b611dfc565b61073561073036600461551b565b611e8e565b604080519384526020840192909252908201526060016103d5565b61073561075e366004614f2b565b60166020526000908152604090208054600182015460029092015490919083565b61044a61078d3660046157cf565b611f3d565b6103f16107a0366004615121565b600b60209081526000928352604080842090915290825290205460ff1681565b6103c8611fa3565b6107356107d6366004615698565b611ff9565b61041460195481565b6107f76107f2366004614f2b565b6120a6565b6040516103d59190615ae7565b6104146108123660046156df565b61219a565b61042a6121d2565b61041461082d3660046154b6565b6121e1565b61041461084036600461563e565b6122a2565b61044a610853366004615121565b6122df565b6105206108663660046151f5565b6123f1565b61044a6108793660046150f4565b6125e8565b61044a61088c36600461560e565b6125f3565b61041461089f36600461560e565b6126e0565b6104146108b236600461560e565b6126f0565b6108ca6108c5366004615698565b612700565b604080516001600160a01b0390941684526020840192909252908201526060016103d5565b6103f16108fd36600461560e565b6128e1565b61044a610910366004614fdb565b612998565b61041461092336600461560e565b6129ca565b61041461093636600461560e565b6129da565b61042a61094936600461560e565b612a62565b61044a61095c366004615730565b612b3a565b6103c8612b61565b61044a61097736600461514c565b612bb7565b61098f61098a366004614f2b565b612c71565b6040516103d59190615cfc565b61044a6109aa366004615730565b612cd4565b61044a612d10565b6103c8612d8c565b6103f16109cd366004614f63565b612de2565b61045f6109e036600461560e565b600a602052600090815260409020546001600160a01b031681565b61045f610a0936600461560e565b612e10565b61044a610a1c366004615121565b612ea8565b610735610a2f366004615662565b612f59565b61044a610a4236600461514c565b612f78565b610414610a5536600461560e565b612feb565b610414610a68366004615662565b612ff9565b61045f610a7b36600461560e565b6013602052600090815260409020546001600160a01b031681565b610735610aa4366004615662565b613091565b61045f610ab736600461560e565b6130e8565b610414610aca36600461563e565b613120565b6107f7610add36600461560e565b6131b0565b60606000610aef83611cd8565b90506000816001600160401b03811115610b1957634e487b7160e01b600052604160045260246000fd5b604051908082528060200260200182016040528015610b42578160200160208202803683370190505b50905060005b80831115610b9757610b5a8582611645565b828281518110610b7a57634e487b7160e01b600052603260045260246000fd5b602090810291909101015280610b8f81615e8c565b915050610b48565b509150505b919050565b60006001600160e01b0319821663780e9d6360e01b1480610bc65750610bc68261328c565b92915050565b600060026012541415610bfa5760405162461bcd60e51b8152600401610bf190615cc5565b60405180910390fd5b60026012556000610c0f3382888a828a6132dc565b9050610c1c8185856134ed565b60016012559695505050505050565b606060008054610c3a90615e57565b80601f0160208091040260200160405190810160405280929190818152602001828054610c6690615e57565b8015610cb35780601f10610c8857610100808354040283529160200191610cb3565b820191906000526020600020905b815481529060010190602001808311610c9657829003601f168201915b5050505050905090565b60405163b4ed0b6d60e01b8152600481018290527f00000000000000000000000000000000000000000000000000000000000000006001600160a01b03169063b4ed0b6d9060240160206040518083038186803b158015610d1d57600080fd5b505afa158015610d31573d6000803e3d6000fd5b505050506040513d601f19601f82011682018060405250810190610d559190614f47565b6000918252600a602052604090912080546001600160a01b0319166001600160a01b03909216919091179055565b6000610d8e82613682565b610def5760405162461bcd60e51b815260206004820152602c60248201527f4552433732313a20617070726f76656420717565727920666f72206e6f6e657860448201526b34b9ba32b73a103a37b5b2b760a11b6064820152608401610bf1565b506000908152600460205260409020546001600160a01b031690565b600080610e1783611c40565b600093845260106020526040909320549293915050565b6000610e3982611c40565b9050806001600160a01b0316836001600160a01b03161415610ea75760405162461bcd60e51b815260206004820152602160248201527f4552433732313a20617070726f76616c20746f2063757272656e74206f776e656044820152603960f91b6064820152608401610bf1565b336001600160a01b0382161480610ec35750610ec381336109cd565b610f305760405162461bcd60e51b815260206004820152603860248201527f4552433732313a20617070726f76652063616c6c6572206973206e6f74206f776044820152771b995c881b9bdc88185c1c1c9bdd995908199bdc88185b1b60421b6064820152608401610bf1565b610f3a838361369f565b505050565b6000601854601954610f519190615dc9565b905090565b60606000826001600160401b03811115610f8057634e487b7160e01b600052604160045260246000fd5b604051908082528060200260200182016040528015610fb957816020015b610fa6614d7d565b815260200190600190039081610f9e5790505b50905060005b8084111561103d57610fff858583818110610fea57634e487b7160e01b600052603260045260246000fd5b905060200201602081019061098a9190614f2b565b82828151811061101f57634e487b7160e01b600052603260045260246000fd5b6020026020010181905250808061103590615e8c565b915050610fbf565b509392505050565b60008060008060005b8087111561114457600088888381811061107857634e487b7160e01b600052603260045260246000fd5b60209081029290920135600081815260139093526040808420549051630a4d77f960e41b81529194508392506001600160a01b03169063a4d77f90906110c49086908d90600401615d19565b604080518083038186803b1580156110db57600080fd5b505afa1580156110ef573d6000803e3d6000fd5b505050506040513d601f19601f820116820180604052508101906111139190615751565b90925090506111228183615df5565b61112c9086615dc9565b9450505050808061113c90615e8c565b91505061104e565b50816111508183615de1565b935093505050935093915050565b6060600061116a61370d565b6001600160a01b031663661d02ba6040518163ffffffff1660e01b815260040160006040518083038186803b1580156111a257600080fd5b505afa1580156111b6573d6000803e3d6000fd5b505050506040513d6000823e601f3d908101601f191682016040526111de9190810190615335565b90506111e9816123f1565b91505090565b6111f93382613745565b6112155760405162461bcd60e51b8152600401610bf190615c45565b610f3a83838361377d565b6001600160a01b03811660009081526016602052604081206001015480156112615761271061124f8583615df5565b6112599190615de1565b915050610bc6565b6000805260166020527f0263c2b778d062355049effc2dece97bc6547ff8a88a3258daa512061c2153de546127109061124f908690615df5565b6001600160a01b0382811660009081526011602090815260408083208585168452909152902054161561138a576112d0613916565b6001600160a01b0316635e73a03483836040518363ffffffff1660e01b81526004016112fd92919061592f565b60206040518083038186803b15801561131557600080fd5b505afa158015611329573d6000803e3d6000fd5b505050506040513d601f19601f8201168201806040525081019061134d9190614f47565b6001600160a01b0383811660009081526011602090815260408083208685168452909152902080546001600160a01b031916929091169190911790555b5050565b611396614da5565b6000828152601360205260408120546001600160a01b03169080806113c5866113bd61394e565b610a2f61394e565b925092509250604051806101200160405280878152602001856001600160a01b03168152602001856001600160a01b031663c5c72dc3896040518263ffffffff1660e01b815260040161141a91815260200190565b60206040518083038186803b15801561143257600080fd5b505afa158015611446573d6000803e3d6000fd5b505050506040513d601f19601f8201168201806040525081019061146a9190615626565b81526000888152601760209081526040918290205490830152805163fabee7db60e01b8152600481018a90529101906001600160a01b0387169063fabee7db9060240160206040518083038186803b1580156114c557600080fd5b505afa1580156114d9573d6000803e3d6000fd5b505050506040513d601f19601f820116820180604052508101906114fd9190614f47565b6001600160a01b0316815260200184815260200183815260200182815260200161152688611c40565b6001600160a01b031690529695505050505050565b60008061154783611c40565b90506115538484613745565b806115f957506001600160a01b0381163b151580156115f95750600083815260106020526040908190205490516302972b0f60e41b81526001600160a01b03831691632972b0f0916115a991889160040161597c565b60206040518083038186803b1580156115c157600080fd5b505afa1580156115d5573d6000803e3d6000fd5b505050506040513d601f19601f820116820180604052508101906115f99190615587565b949350505050565b6060600061160d61370d565b6001600160a01b0316632e25f5ea6040518163ffffffff1660e01b815260040160006040518083038186803b1580156111a257600080fd5b600061165083611cd8565b82106116b25760405162461bcd60e51b815260206004820152602b60248201527f455243373231456e756d657261626c653a206f776e657220696e646578206f7560448201526a74206f6620626f756e647360a81b6064820152608401610bf1565b506001600160a01b03919091166000908152600660209081526040808320938352929052205490565b60008060005b8085111561173e57600086868381811061170b57634e487b7160e01b600052603260045260246000fd5b90506020020135905061171e8186613120565b6117289084615dc9565b925050808061173690615e8c565b9150506116e1565b50949350505050565b610f3a83838360405180602001604052806000815250612998565b60405163f0723d9760e01b81526001600160a01b037f0000000000000000000000000000000000000000000000000000000000000000169063f0723d97906117b0908490869060040161597c565b60206040518083038186803b1580156117c857600080fd5b505afa1580156117dc573d6000803e3d6000fd5b505050506040513d601f19601f820116820180604052508101906118009190615587565b6001600160a01b03919091166000908152600b6020908152604080832094835293905291909120805460ff1916911515919091179055565b61187e6118766067600052600a6020527f3a9775934bfe5caa57284c734fe36fab39ffd0fbded5164be0e35e020de1994d546001600160a01b031690565b601854613986565b601854601960008282546118929190615dc9565b90915550506000601855565b6060600d805480602002602001604051908101604052809291908181526020018280548015610cb357602002820191906000526020600020905b8154815260200190600101908083116118d8575050505050905090565b600061190060085490565b82106119635760405162461bcd60e51b815260206004820152602c60248201527f455243373231456e756d657261626c653a20676c6f62616c20696e646578206f60448201526b7574206f6620626f756e647360a01b6064820152608401610bf1565b6008828154811061198457634e487b7160e01b600052603260045260246000fd5b90600052602060002001549050919050565b6000818152601360205260408120546001600160a01b0316816119b761370d565b90506000816001600160a01b03166316a665e1846040518263ffffffff1660e01b81526004016119e7919061591b565b60206040518083038186803b1580156119ff57600080fd5b505afa158015611a13573d6000803e3d6000fd5b505050506040513d601f19601f82011682018060405250810190611a379190614f47565b9050806001600160a01b0316836001600160a01b0316146115f9576115f9858383866001600160a01b031663fabee7db8a6040518263ffffffff1660e01b8152600401611a8691815260200190565b60206040518083038186803b158015611a9e57600080fd5b505afa158015611ab2573d6000803e3d6000fd5b505050506040513d601f19601f82011682018060405250810190611ad69190614f47565b604051631dc3a75960e01b8152600481018b90526001600160a01b03891690631dc3a7599060240160206040518083038186803b158015611b1657600080fd5b505afa158015611b2a573d6000803e3d6000fd5b505050506040513d601f19601f82011682018060405250810190611b4e9190615626565b60405163c5c72dc360e01b8152600481018c90526001600160a01b038a169063c5c72dc39060240160206040518083038186803b158015611b8e57600080fd5b505afa158015611ba2573d6000803e3d6000fd5b505050506040513d601f19601f82011682018060405250810190611bc69190615626565b6139f1565b60026012541415611bee5760405162461bcd60e51b8152600401610bf190615cc5565b6002601255611bfd338561153b565b611c195760405162461bcd60e51b8152600401610bf190615c11565b8215611c2a57611c2a338585613a9c565b611c358483836134ed565b505060016012555050565b6000818152600260205260408120546001600160a01b031680610bc65760405162461bcd60e51b815260206004820152602960248201527f4552433732313a206f776e657220717565727920666f72206e6f6e657869737460448201526832b73a103a37b5b2b760b91b6064820152608401610bf1565b600f8181548110611cc757600080fd5b600091825260209091200154905081565b60006001600160a01b038216611d435760405162461bcd60e51b815260206004820152602a60248201527f4552433732313a2062616c616e636520717565727920666f7220746865207a65604482015269726f206164647265737360b01b6064820152608401610bf1565b506001600160a01b031660009081526003602052604090205490565b60026012541415611d825760405162461bcd60e51b8152600401610bf190615cc5565b6002601255611d91338561153b565b611dad5760405162461bcd60e51b8152600401610bf190615c11565b6001600160a01b038116611df05760405162461bcd60e51b815260206004820152600a6024820152692237b713ba10313ab93760b11b6044820152606401610bf1565b611c3584848484613b3e565b6000818152601360205260408082205490516301c9a34760e61b8152600481018490526001600160a01b03909116908190637268d1c0906024015b60206040518083038186803b158015611e4f57600080fd5b505afa158015611e63573d6000803e3d6000fd5b505050506040513d601f19601f82011682018060405250810190611e879190615626565b9392505050565b6000806000805b80881115611f25576000898983818110611ebf57634e487b7160e01b600052603260045260246000fd5b9050602002013590506000806000611ed9848c8c8c611ff9565b91945092509050611eea8389615dc9565b9750611ef68288615dc9565b9650611f028282615df5565b611f0c9087615dc9565b9550505050508080611f1d90615e8c565b915050611e95565b50611f308282615de1565b9050955095509592505050565b611f47338561153b565b611f635760405162461bcd60e51b8152600401610bf190615c11565b600084815260176020526040902054611f7d908390613b74565b9150611f8a338584613b8c565b611f9d8484611f9761394e565b84613b3e565b50505050565b6060600e805480602002602001604051908101604052809291908181526020018280548015610cb357602002820191906000526020600020908154815260200190600101908083116118d8575050505050905090565b6000806000600260125414156120215760405162461bcd60e51b8152600401610bf190615cc5565b6002601255612030338861153b565b61204c5760405162461bcd60e51b8152600401610bf190615c11565b600080600061205d8a8a8a8a613bc4565b60008d81526017602052604090205492955090935091508381841161208357600061208d565b61208d8285615e14565b6001601255909c909b5091995090975050505050505050565b606060006120b383610ae2565b9050600081516001600160401b038111156120de57634e487b7160e01b600052604160045260246000fd5b60405190808252806020026020018201604052801561211757816020015b612104614da5565b8152602001906001900390816120fc5790505b50905060005b8083511115610b9757600083828151811061214857634e487b7160e01b600052603260045260246000fd5b6020026020010151905061215b8161138e565b83838151811061217b57634e487b7160e01b600052603260045260246000fd5b602002602001018190525050808061219290615e8c565b91505061211d565b6000600260125414156121bf5760405162461bcd60e51b8152600401610bf190615cc5565b6002601255610c1c3387878787876132dc565b606060018054610c3a90615e57565b6000600260125414156122065760405162461bcd60e51b8152600401610bf190615cc5565b60026012556000805b8086111561229357600087878381811061223957634e487b7160e01b600052603260045260246000fd5b90506020020135905061224c338261153b565b6122685760405162461bcd60e51b8152600401610bf190615c11565b612273818787613c6b565b61227d9084615dc9565b925050808061228b90615e8c565b91505061220f565b50600160125595945050505050565b6000828152601360205260408082205490516238f73f60e31b81526001600160a01b03909116906301c7b9f890611e379086908690600401615d19565b336122e8613d11565b6001600160a01b0316148061230c575033612301613da4565b6001600160a01b0316145b8061232657503361231b613e15565b6001600160a01b0316145b6123815760405162461bcd60e51b81526020600482015260386024820152600080516020615f84833981519152604482015277391037b91030baba3437b934bd32b2103234b9b0b13632b960411b6064820152608401610bf1565b6001600160a01b03821660008181526016602090815260409182902084905581516060808252600f908201526e185cdcd95d081919589d0818d95a5b608a1b6080820152908101929092528101829052600080516020615f648339815191529060a0015b60405180910390a15050565b6060600082516001600160401b0381111561241c57634e487b7160e01b600052604160045260246000fd5b60405190808252806020026020018201604052801561245557816020015b612442614e0c565b81526020019060019003908161243a5790505b50905060005b80825111156125e157600082828151811061248657634e487b7160e01b600052603260045260246000fd5b6020026020010151905060008583815181106124b257634e487b7160e01b600052603260045260246000fd5b6020026020010151905060006124cb8260200151612c71565b805184526020808201518186015260408083015160608088019190915285516001600160a01b039081166080808a0191909152938701511660a0808901919091529186015160c0808901919091529086015160e0808901919091529286015161010080890191909152918601516101208089019190915290860151610140880152918501516101608701528401516101808601528301519091506101a0840190600281111561258a57634e487b7160e01b600052602160045260246000fd5b908160028111156125ab57634e487b7160e01b600052602160045260246000fd5b90525050610140810151604083015261016001516001600160a01b03166101c090910152806125d981615e8c565b91505061245b565b5092915050565b61138a338383613e79565b336125fc613d11565b6001600160a01b03161480612620575033612615613da4565b6001600160a01b0316145b61263c5760405162461bcd60e51b8152600401610bf190615b75565b806126805760405162461bcd60e51b8152602060048201526014602482015273506572696f642063616e2774206265207a65726f60601b6044820152606401610bf1565b601581905560408051818152600f818301526e1d1c9858dada5b99c81c195c9a5bd9608a1b60608201526020810183905290517f3a64504f0bc0c335e2aecb78638a257e0351a3fe0370861fd54ee4190b9209339181900360800190a150565b600c8181548110611cc757600080fd5b600e8181548110611cc757600080fd5b6000806000600260125414156127285760405162461bcd60e51b8152600401610bf190615cc5565b6002601255612737338861153b565b61277f5760405162461bcd60e51b81526020600482015260196024820152786e6f7420617574686f72697a656420746f206d69677261746560381b6044820152606401610bf1565b61278761370d565b6001600160a01b031663b4d69757876040518263ffffffff1660e01b81526004016127b2919061591b565b60206040518083038186803b1580156127ca57600080fd5b505afa1580156127de573d6000803e3d6000fd5b505050506040513d601f19601f820116820180604052508101906128029190615587565b61281e5760405162461bcd60e51b8152600401610bf190615c96565b600061282988611996565b60405163591eb36160e11b81529091506001600160a01b0382169063b23d66c29061285e908b908b908b908b90600401615d4f565b606060405180830381600087803b15801561287857600080fd5b505af115801561288c573d6000803e3d6000fd5b505050506040513d601f19601f820116820180604052508101906128b09190615180565b919550935091506128c58882898787876139f1565b6128ce88613f44565b5060016012819055509450945094915050565b60008181526017602052604081205461271081101561290b5761290383613fa5565b915050610b9c565b600061291561394e565b90506000806000612927878586612f59565b925092509250600085831180156129455750856706f05b59d3b20000115b80156129515750600082115b80612972575060008881526017602052604090205461297290858585614066565b9050808015612985575061298588613fa5565b9650505050505050610b9c565b50919050565b6129a23383613745565b6129be5760405162461bcd60e51b8152600401610bf190615c45565b611f9d84848484614094565b600d8181548110611cc757600080fd5b60008181526013602052604080822054905163c5c72dc360e01b8152600481018490526001600160a01b039091169063c5c72dc39060240160206040518083038186803b158015612a2a57600080fd5b505afa158015612a3e573d6000803e3d6000fd5b505050506040513d601f19601f82011682018060405250810190610bc69190615626565b6060612a6d82613682565b612ad15760405162461bcd60e51b815260206004820152602f60248201527f4552433732314d657461646174613a2055524920717565727920666f72206e6f60448201526e3732bc34b9ba32b73a103a37b5b2b760891b6064820152608401610bf1565b6000612ae860408051602081019091526000815290565b90506000815111612b085760405180602001604052806000815250611e87565b80612b12846140d4565b604051602001612b239291906158ec565b604051602081830303815290604052915050919050565b600082815260176020526040902054612b54908290613b74565b905061138a338383613b8c565b6060600c805480602002602001604051908101604052809291908181526020018280548015610cb357602002820191906000526020600020908154815260200190600101908083116118d8575050505050905090565b33612bc0613d11565b6001600160a01b03161480612be4575033612bd9613da4565b6001600160a01b0316145b80612bf35750612bf3336141ee565b612c4f5760405162461bcd60e51b81526020600482015260396024820152600080516020615f84833981519152604482015278391037b91030baba3437b934bd32b21030b1ba34bb30ba37b960391b6064820152608401610bf1565b6001600160a01b03909216600090815260166020526040902090815560010155565b612c79614d7d565b6001600160a01b038216600090815260166020526040812090612ca48482612c9f61394e565b614291565b60408051608081018252855481526002860154602082015260019095015490850152606084015250909392505050565b60026012541415612cf75760405162461bcd60e51b8152600401610bf190615cc5565b6002601255612d07338383613a9c565b50506001601255565b612d186143de565b6001600160a01b031663e670309c6040518163ffffffff1660e01b81526004016040805180830381600087803b158015612d5157600080fd5b505af1158015612d65573d6000803e3d6000fd5b505050506040513d601f19601f82011682018060405250810190612d8991906155db565b50565b6060600f805480602002602001604051908101604052809291908181526020018280548015610cb357602002820191906000526020600020908154815260200190600101908083116118d8575050505050905090565b6001600160a01b03918216600090815260056020908152604080832093909416825291909152205460ff1690565b6000612e1a61370d565b600083815260136020526040908190205490516316a665e160e01b81526001600160a01b03928316926316a665e192612e589291169060040161591b565b60206040518083038186803b158015612e7057600080fd5b505afa158015612e84573d6000803e3d6000fd5b505050506040513d601f19601f82011682018060405250810190610bc69190614f47565b33612eb1613d11565b6001600160a01b03161480612ed5575033612eca613da4565b6001600160a01b0316145b612ef15760405162461bcd60e51b8152600401610bf190615b75565b6001600160a01b03821660008181526016602090815260409182902060010184905581516060808252600c908201526b66656573207065722031306b60a01b6080820152908101929092528101829052600080516020615f648339815191529060a0016123e5565b6000806000612f69868686614416565b92509250925093509350939050565b336000908152600b602090815260408083206001845290915290205460ff16612fe05760405162461bcd60e51b815260206004820152601a6024820152792ab730baba3437b934bd32b210333ab732103a3930b739b332b960311b6044820152606401610bf1565b610f3a838383613a9c565b6000610bc68261084061394e565b60006002601254141561301e5760405162461bcd60e51b8152600401610bf190615cc5565b600260125561302d338561153b565b6130795760405162461bcd60e51b815260206004820181905260248201527f6e6f7420617574686f72697a656420746f207769746864726177207969656c646044820152606401610bf1565b613084848484613c6b565b6001601255949350505050565b6000806000806000806130a5898989614416565b60008c8152601760205260409020549295509093509150838184116130cb5760006130d5565b6130d58285615e14565b909b909a50919850909650505050505050565b60006130f382612e10565b6001600160a01b031663fabee7db836040518263ffffffff1660e01b8152600401612e5891815260200190565b60008281526013602052604080822054905163fd80d0c360e01b81526001600160a01b0390911690819063fd80d0c3906131609087908790600401615d19565b60206040518083038186803b15801561317857600080fd5b505afa15801561318c573d6000803e3d6000fd5b505050506040513d601f19601f820116820180604052508101906115f99190615626565b60008181526014602052604081206060916131ca826144bc565b9050806001600160401b038111156131f257634e487b7160e01b600052604160045260246000fd5b60405190808252806020026020018201604052801561322b57816020015b613218614da5565b8152602001906001900390816132105790505b50925060005b80821115613284576132466105b184836144c6565b84828151811061326657634e487b7160e01b600052603260045260246000fd5b6020026020010181905250808061327c90615e8c565b915050613231565b505050919050565b60006001600160e01b031982166380ac58cd60e01b14806132bd57506001600160e01b03198216635b5e139f60e01b145b80610bc657506301ffc9a760e01b6001600160e01b0319831614610bc6565b60006132e661370d565b6001600160a01b031663b4d69757866040518263ffffffff1660e01b8152600401613311919061591b565b60206040518083038186803b15801561332957600080fd5b505afa15801561333d573d6000803e3d6000fd5b505050506040513d601f19601f820116820180604052508101906133619190615587565b61337d5760405162461bcd60e51b8152600401610bf190615c96565b6133856143de565b6001600160a01b031663ff1883486040518163ffffffff1660e01b8152600401602060405180830381600087803b1580156133bf57600080fd5b505af11580156133d3573d6000803e3d6000fd5b505050506040513d601f19601f820116820180604052508101906133f79190615626565b600081815260136020908152604080832080546001600160a01b0319166001600160a01b038b16179055601090915290208790559050613436846144d2565b61346287828860405160200161344e91815260200190565b60405160208183030381529060405261452f565b60405163b832799360e01b81526001600160a01b038881166004830152602482018390528581166044830152606482018590526084820184905286169063b83279939060a401600060405180830381600087803b1580156134c257600080fd5b505af11580156134d6573d6000803e3d6000fd5b505050506134e381613f44565b9695505050505050565b8115610f3a5760006134fe84611996565b60405163fabee7db60e01b8152600481018690529091506000906001600160a01b0383169063fabee7db9060240160206040518083038186803b15801561354457600080fd5b505afa158015613558573d6000803e3d6000fd5b505050506040513d601f19601f8201168201806040525081019061357c9190614f47565b9050600061358a8583611220565b90506135968186615dc9565b600087815260176020526040812080549091906135b4908490615dc9565b90915550506001600160a01b03821660009081526016602052604090206135db8287615dc9565b8160020160008282546135ee9190615dc9565b90915550506002810154815410156136405760405162461bcd60e51b815260206004820152601560248201527445786365656465642064656274206365696c696e6760581b6044820152606401610bf1565b81601860008282546136529190615dc9565b909155506000905061366388614562565b905061367886613673838a615dc9565b613986565b5050505050505050565b6000908152600260205260409020546001600160a01b0316151590565b600081815260046020526040902080546001600160a01b0319166001600160a01b03841690811790915581906136d482611c40565b6001600160a01b03167f8c5be1e5ebec7d5bd14f71427d1e84f3dd0314c0f7b2291e5b200ac8c7c3b92560405160405180910390a45050565b6068600052600a6020527f66b303669408d9c94249bd0aec443a05560d12df25504863342dfebd1199324c546001600160a01b031690565b6001600160a01b0382166000908152600b602090815260408083206005845290915281205460ff1680611e875750611e878383614642565b826001600160a01b031661379082611c40565b6001600160a01b0316146137f85760405162461bcd60e51b815260206004820152602960248201527f4552433732313a207472616e73666572206f6620746f6b656e2074686174206960448201526839903737ba1037bbb760b91b6064820152608401610bf1565b6001600160a01b03821661385a5760405162461bcd60e51b8152602060048201526024808201527f4552433732313a207472616e7366657220746f20746865207a65726f206164646044820152637265737360e01b6064820152608401610bf1565b613865838383614704565b61387060008261369f565b6001600160a01b0383166000908152600360205260408120805460019290613899908490615e14565b90915550506001600160a01b03821660009081526003602052604081208054600192906138c7908490615dc9565b909155505060008181526002602052604080822080546001600160a01b0319166001600160a01b038681169182179092559151849391871691600080516020615f4483398151915291a4505050565b606a600052600a6020527f491b44bb09274615d8e6106c97407042cd450d5681088027db2063ed5a7dd28c546001600160a01b031690565b6066600052600a6020527fa14e2711982fc1118598487104d6aa6aaca777a0683d64683335f0e52c01f75a546001600160a01b031690565b61398e61394e565b6001600160a01b03166340c10f1983836040518363ffffffff1660e01b81526004016139bb92919061597c565b600060405180830381600087803b1580156139d557600080fd5b505af11580156139e9573d6000803e3d6000fd5b505050505050565b60405163459ba12760e01b8152600481018790526001600160a01b0386811660248301528481166044830152606482018490526084820183905285169063459ba1279060a401600060405180830381600087803b158015613a5157600080fd5b505af1158015613a65573d6000803e3d6000fd5b5050506000968752505060136020525050604090922080546001600160a01b0319166001600160a01b039093169290921790915550565b6000613aa783611996565b9050806001600160a01b031663a50233c9858585613ac488611c40565b60405160e086901b6001600160e01b03191681526001600160a01b039485166004820152602481019390935260448301919091529091166064820152608401600060405180830381600087803b158015613b1d57600080fd5b505af1158015613b31573d6000803e3d6000fd5b50505050611f9d83613f44565b8215611f9d576000613b4f85614562565b90508015613b6157613b618282613986565b613b6d858585856147c1565b5050505050565b600081831115613b85575080610bc6565b5081610bc6565b8015610f3a57613b9c8382614892565b60008281526017602052604081208054839290613bba908490615e14565b9091555050505050565b600080600080613bd388611996565b604051638496e89160e01b81529091506001600160a01b03821690638496e89190613c08908b908b908b908b90600401615d4f565b606060405180830381600087803b158015613c2257600080fd5b505af1158015613c36573d6000803e3d6000fd5b505050506040513d601f19601f82011682018060405250810190613c5a91906157a2565b935093509350509450945094915050565b600080613c7785611996565b90506000816001600160a01b031663f8903fb78787876040518463ffffffff1660e01b8152600401613cab93929190615d30565b602060405180830381600087803b158015613cc557600080fd5b505af1158015613cd9573d6000803e3d6000fd5b505050506040513d601f19601f82011682018060405250810190613cfd9190615626565b9050613d0886613f44565b95945050505050565b60007f00000000000000000000000000000000000000000000000000000000000000006001600160a01b0316638da5cb5b6040518163ffffffff1660e01b815260040160206040518083038186803b158015613d6c57600080fd5b505afa158015613d80573d6000803e3d6000fd5b505050506040513d601f19601f82011682018060405250810190610f519190614f47565b60007f00000000000000000000000000000000000000000000000000000000000000006001600160a01b031663c34c08e56040518163ffffffff1660e01b8152600401602060405180830381600087803b158015613e0157600080fd5b505af1158015613d80573d6000803e3d6000fd5b60405163b4ed0b6d60e01b81526103e960048201526000907f00000000000000000000000000000000000000000000000000000000000000006001600160a01b03169063b4ed0b6d9060240160206040518083038186803b158015613d6c57600080fd5b816001600160a01b0316836001600160a01b03161415613ed75760405162461bcd60e51b815260206004820152601960248201527822a9219b99189d1030b8383937bb32903a379031b0b63632b960391b6044820152606401610bf1565b6001600160a01b03838116600081815260056020908152604080832094871680845294825291829020805460ff191686151590811790915591519182527f17307eab39ab6107e8899845ad3d59bd9653f200f220920489ca2b5937696c31910160405180910390a3505050565b613f76816014600060155442613f5a9190615de1565b81526020019081526020016000206148c790919063ffffffff16565b5060405181907f416412a7d0788b77945ea2e2702f6edbb3fc8eabc407ed7b4132ab948a6962c190600090a250565b600080613fb183611c40565b90506001600160a01b0381163b1561405c5760008381526010602052604090819020549051632c97897d60e21b815282916001600160a01b0383169163b25e25f4916140039160040190815260200190565b60206040518083038186803b15801561401b57600080fd5b505afa15801561402f573d6000803e3d6000fd5b505050506040513d601f19601f820116820180604052508101906140539190615587565b92505050610b9c565b6001915050610b9c565b600061407485612710615df5565b8261407f8686615dc9565b6140899190615df5565b101595945050505050565b6140a0848484846148d3565b8051156140cb57808060200190518101906140bb9190615626565b6000838152601060205260409020555b611f9d82613f44565b6060816140f957506040805180820190915260018152600360fc1b6020820152610b9c565b8160005b8115614123578061410d81615e8c565b915061411c9050600a83615de1565b91506140fd565b6000816001600160401b0381111561414b57634e487b7160e01b600052604160045260246000fd5b6040519080825280601f01601f191660200182016040528015614175576020820181803683370190505b5090505b84156115f95761418a600183615e14565b9150614197600a86615ea7565b6141a2906030615dc9565b60f81b8183815181106141c557634e487b7160e01b600052603260045260246000fd5b60200101906001600160f81b031916908160001a9053506141e7600a86615de1565b9450614179565b60405163f0723d9760e01b81526000906001600160a01b037f0000000000000000000000000000000000000000000000000000000000000000169063f0723d97906142419085906103eb9060040161597c565b60206040518083038186803b15801561425957600080fd5b505afa15801561426d573d6000803e3d6000fd5b505050506040513d601f19601f82011682018060405250810190610bc69190615587565b6001600160a01b038084166000908152601160209081526040808320858516845290915281205490918291168061434a576142ca613916565b6001600160a01b0316635e73a03487866040518363ffffffff1660e01b81526004016142f792919061592f565b60206040518083038186803b15801561430f57600080fd5b505afa158015614323573d6000803e3d6000fd5b505050506040513d601f19601f820116820180604052508101906143479190614f47565b90505b6040516313f3552960e21b81526001600160a01b038781166004830152602482018790528581166044830152821690634fcd54a490606401604080518083038186803b15801561439957600080fd5b505afa1580156143ad573d6000803e3d6000fd5b505050506040513d601f19601f820116820180604052508101906143d19190615751565b9097909650945050505050565b6069600052600a6020527fe4e9675aa3466ea9ab37f11eba586a16aaf52d4293b57ad72d46715c0e7a4575546001600160a01b031690565b600083815260136020526040808220549051637d4c525d60e11b8152829182916001600160a01b0390911690819063fa98a4ba9061445c908a908a908a90600401615d30565b60606040518083038186803b15801561447457600080fd5b505afa158015614488573d6000803e3d6000fd5b505050506040513d601f19601f820116820180604052508101906144ac91906157a2565b9350935093505093509350939050565b6000610bc6825490565b6000611e878383614906565b6001600160a01b038116600090815260166020526040902054612d895760405162461bcd60e51b8152602060048201526015602482015274151bdad95b881b9bdd081dda1a5d195b1a5cdd1959605a1b6044820152606401610bf1565b614539838361493e565b6145466000848484614a6a565b610f3a5760405162461bcd60e51b8152600401610bf190615bbf565b6000818152601760205260408120548161457a61394e565b9050600080600061458d87858630613bc4565b92509250925061459f85848484614066565b6145e75760405162461bcd60e51b8152602060048201526019602482015278426f726f7720627265616b73206d696e20636f6c726174696f60381b6044820152606401610bf1565b8483111561460f576000878152601760205260408120556146088584615e14565b955061462e565b6146198386615e14565b60008881526017602052604081209190915595505b6146383084614892565b5050505050919050565b600061464d82613682565b6146ae5760405162461bcd60e51b815260206004820152602c60248201527f4552433732313a206f70657261746f7220717565727920666f72206e6f6e657860448201526b34b9ba32b73a103a37b5b2b760a11b6064820152608401610bf1565b60006146b983611c40565b9050806001600160a01b0316846001600160a01b031614806146f45750836001600160a01b03166146e984610d83565b6001600160a01b0316145b806115f957506115f98185612de2565b6001600160a01b03831661475f5761475a81600880546000838152600960205260408120829055600182018355919091527ff3f7a9fe364faab93b216da50a3214154f22a0a2b415b23a84c8169e8b636ee30155565b614782565b816001600160a01b0316836001600160a01b031614614782576147828382614b74565b6001600160a01b03821661479e5761479981614c11565b610f3a565b826001600160a01b0316826001600160a01b031614610f3a57610f3a8282614cea565b60006147cc85611996565b6040516338d98bbd60e11b815260048101879052602481018690526001600160a01b0385811660448301528481166064830152919250908216906371b3177a90608401600060405180830381600087803b15801561482957600080fd5b505af115801561483d573d6000803e3d6000fd5b5050505061484a856128e1565b6148895760405162461bcd60e51b815260206004820152601060248201526f5472616e63686520756e766961626c6560801b6044820152606401610bf1565b613b6d85613f44565b61489a61394e565b6001600160a01b0316639dc29fac83836040518363ffffffff1660e01b81526004016139bb92919061597c565b6000611e878383614d2e565b6148de84848461377d565b6148ea84848484614a6a565b611f9d5760405162461bcd60e51b8152600401610bf190615bbf565b600082600001828154811061492b57634e487b7160e01b600052603260045260246000fd5b9060005260206000200154905092915050565b6001600160a01b0382166149945760405162461bcd60e51b815260206004820181905260248201527f4552433732313a206d696e7420746f20746865207a65726f20616464726573736044820152606401610bf1565b61499d81613682565b156149e95760405162461bcd60e51b815260206004820152601c60248201527b115490cdcc8c4e881d1bdad95b88185b1c9958591e481b5a5b9d195960221b6044820152606401610bf1565b6149f560008383614704565b6001600160a01b0382166000908152600360205260408120805460019290614a1e908490615dc9565b909155505060008181526002602052604080822080546001600160a01b0319166001600160a01b0386169081179091559051839290600080516020615f44833981519152908290a45050565b60006001600160a01b0384163b15614b6c57604051630a85bd0160e11b81526001600160a01b0385169063150b7a0290614aae903390899088908890600401615949565b602060405180830381600087803b158015614ac857600080fd5b505af1925050508015614af8575060408051601f3d908101601f19168201909252614af5918101906155bf565b60015b614b52573d808015614b26576040519150601f19603f3d011682016040523d82523d6000602084013e614b2b565b606091505b508051614b4a5760405162461bcd60e51b8152600401610bf190615bbf565b805181602001fd5b6001600160e01b031916630a85bd0160e11b1490506115f9565b5060016115f9565b60006001614b8184611cd8565b614b8b9190615e14565b600083815260076020526040902054909150808214614bde576001600160a01b03841660009081526006602090815260408083208584528252808320548484528184208190558352600790915290208190555b5060009182526007602090815260408084208490556001600160a01b039094168352600681528383209183525290812055565b600854600090614c2390600190615e14565b60008381526009602052604081205460088054939450909284908110614c5957634e487b7160e01b600052603260045260246000fd5b906000526020600020015490508060088381548110614c8857634e487b7160e01b600052603260045260246000fd5b6000918252602080832090910192909255828152600990915260408082208490558582528120556008805480614cce57634e487b7160e01b600052603160045260246000fd5b6001900381819060005260206000200160009055905550505050565b6000614cf583611cd8565b6001600160a01b039093166000908152600660209081526040808320868452825280832085905593825260079052919091209190915550565b6000818152600183016020526040812054614d7557508154600181810184556000848152602080822090930184905584548482528286019093526040902091909155610bc6565b506000610bc6565b6040518060800160405280600081526020016000815260200160008152602001600081525090565b6040518061012001604052806000815260200160006001600160a01b03168152602001600081526020016000815260200160006001600160a01b0316815260200160008152602001600081526020016000815260200160006001600160a01b031681525090565b604051806101e001604052806000815260200160008152602001600081526020016000815260200160006001600160a01b0316815260200160006001600160a01b031681526020016000815260200160008152602001600081526020016000815260200160008019168152602001600081526020016000815260200160006002811115614ea957634e487b7160e01b600052602160045260246000fd5b8152600060209091015290565b8035610b9c81615efd565b8051610b9c81615efd565b60008083601f840112614edd578182fd5b5081356001600160401b03811115614ef3578182fd5b6020830191508360208260051b8501011115614f0e57600080fd5b9250929050565b8035610b9c81615f36565b8051610b9c81615f36565b600060208284031215614f3c578081fd5b8135611e8781615efd565b600060208284031215614f58578081fd5b8151611e8781615efd565b60008060408385031215614f75578081fd5b8235614f8081615efd565b91506020830135614f9081615efd565b809150509250929050565b600080600060608486031215614faf578081fd5b8335614fba81615efd565b92506020840135614fca81615efd565b929592945050506040919091013590565b60008060008060808587031215614ff0578182fd5b8435614ffb81615efd565b935060208581013561500c81615efd565b93506040860135925060608601356001600160401b038082111561502e578384fd5b818801915088601f830112615041578384fd5b81358181111561505357615053615ee7565b615065601f8201601f19168501615d76565b9150808252898482850101111561507a578485fd5b8084840185840137810190920192909252939692955090935050565b600080600080600060a086880312156150ad578283fd5b85356150b881615efd565b945060208601356150c881615efd565b9350604086013592506060860135915060808601356150e681615efd565b809150509295509295909350565b60008060408385031215615106578182fd5b823561511181615efd565b91506020830135614f9081615f12565b60008060408385031215615133578182fd5b823561513e81615efd565b946020939093013593505050565b600080600060608486031215615160578081fd5b833561516b81615efd565b95602085013595506040909401359392505050565b600080600060608486031215615194578081fd5b835161519f81615efd565b602085015160409095015190969495509392505050565b600080602083850312156151c8578182fd5b82356001600160401b038111156151dd578283fd5b6151e985828601614ecc565b90969095509350505050565b60006020808385031215615207578182fd5b82356001600160401b0381111561521c578283fd5b8301601f8101851361522c578283fd5b803561523f61523a82615da6565b615d76565b81815283810190838501610180808502860187018a101561525e578788fd5b8795505b848610156153275780828b031215615278578788fd5b61528181615d76565b61528a83614eb6565b8152615297888401614eb6565b8189015260408381013590820152606080840135908201526080808401359082015260a0808401359082015260c0808401359082015260e0808401359082015261010080840135908201526101206152f0818501614f15565b90820152610140838101359082015261016061530d818501614eb6565b908201528452600195909501949286019290810190615262565b509098975050505050505050565b60006020808385031215615347578182fd5b82516001600160401b0381111561535c578283fd5b8301601f8101851361536c578283fd5b805161537a61523a82615da6565b81815283810190838501610180808502860187018a1015615399578788fd5b8795505b848610156153275780828b0312156153b3578788fd5b6153bc81615d76565b6153c583614ec1565b81526153d2888401614ec1565b8189015260408381015190820152606080840151908201526080808401519082015260a0808401519082015260c0808401519082015260e08084015190820152610100808401519082015261012061542b818501614f20565b908201526101408381015190820152610160615448818501614ec1565b90820152845260019590950194928601929081019061539d565b600080600060408486031215615476578081fd5b83356001600160401b0381111561548b578182fd5b61549786828701614ecc565b90945092505060208401356154ab81615efd565b809150509250925092565b600080600080606085870312156154cb578182fd5b84356001600160401b038111156154e0578283fd5b6154ec87828801614ecc565b909550935050602085013561550081615efd565b9150604085013561551081615efd565b939692955090935050565b600080600080600060808688031215615532578283fd5b85356001600160401b03811115615547578384fd5b61555388828901614ecc565b909650945050602086013561556781615efd565b9250604086013561557781615efd565b915060608601356150e681615efd565b600060208284031215615598578081fd5b8151611e8781615f12565b6000602082840312156155b4578081fd5b8135611e8781615f20565b6000602082840312156155d0578081fd5b8151611e8781615f20565b6000604082840312156155ec578081fd5b6155f66040615d76565b82518152602083015160208201528091505092915050565b60006020828403121561561f578081fd5b5035919050565b600060208284031215615637578081fd5b5051919050565b60008060408385031215615650578182fd5b823591506020830135614f9081615efd565b600080600060608486031215615676578081fd5b83359250602084013561568881615efd565b915060408401356154ab81615efd565b600080600080608085870312156156ad578182fd5b8435935060208501356156bf81615efd565b925060408501356156cf81615efd565b9150606085013561551081615efd565b600080600080600060a086880312156156f6578283fd5b85359450602086013561570881615efd565b9350604086013561571881615efd565b94979396509394606081013594506080013592915050565b60008060408385031215615742578182fd5b50508035926020909101359150565b60008060408385031215615763578182fd5b505080516020909101519092909150565b60008060008060808587031215615789578182fd5b843593506020850135925060408501356156cf81615efd565b6000806000606084860312156157b6578081fd5b8351925060208401519150604084015190509250925092565b600080600080608085870312156157e4578182fd5b843593506020850135925060408501359150606085013561551081615efd565b6001600160a01b03169052565b60008151808452615829816020860160208601615e2b565b601f01601f19169290920160200192915050565b6003811061585b57634e487b7160e01b600052602160045260246000fd5b9052565b805182526020810151602083015260408101516040830152606081015160608301525050565b805182526020808201516001600160a01b0390811691840191909152604080830151908401526060808301519084015260808083015182169084015260a0808301519084015260c0808301519084015260e080830151908401526101009182015116910152565b600083516158fe818460208801615e2b565b835190830190615912818360208801615e2b565b01949350505050565b6001600160a01b0391909116815260200190565b6001600160a01b0392831681529116602082015260400190565b6001600160a01b03858116825284166020820152604081018390526080606082018190526000906134e390830184615811565b6001600160a01b03929092168252602082015260400190565b6020808252825182820181905260009190848201906040850190845b818110156159d7576159c483855161585f565b92840192608092909201916001016159b1565b50909695505050505050565b602080825282518282018190526000919060409081850190868401855b82811015615ada578151805185528681015187860152858101518686015260608082015190860152608080820151615a3a82880182615804565b505060a080820151615a4e82880182615804565b505060c0818101519086015260e08082015190860152610100808201519086015261012080820151908601526101408082015190860152610160808201519086015261018080820151908601526101a080820151615aae8288018261583d565b50506101c09081015190615ac486820183615804565b50506101e0939093019290850190600101615a00565b5091979650505050505050565b6020808252825182820181905260009190848201906040850190845b818110156159d757615b16838551615885565b928401926101209290920191600101615b03565b6020808252825182820181905260009190848201906040850190845b818110156159d757835183529284019291840191600101615b46565b600060208252611e876020830184615811565b6020808252602a908201527f526f6c65733a2063616c6c6572206973206e6f7420746865206f776e6572206f604082015269391032bc32b1baba37b960b11b606082015260800190565b60208082526032908201527f4552433732313a207472616e7366657220746f206e6f6e20455243373231526560408201527131b2b4bb32b91034b6b83632b6b2b73a32b960711b606082015260800190565b6020808252601a90820152796e6f7420617574686f72697a656420746f20776974686472617760301b604082015260600190565b60208082526031908201527f4552433732313a207472616e736665722063616c6c6572206973206e6f74206f6040820152701ddb995c881b9bdc88185c1c1c9bdd9959607a1b606082015260800190565b60208082526015908201527414dd1c985d1959de481b9bdd08185c1c1c9bdd9959605a1b604082015260600190565b6020808252601f908201527f5265656e7472616e637947756172643a207265656e7472616e742063616c6c00604082015260600190565b60808101610bc6828461585f565b6101208101610bc68284615885565b9182526001600160a01b0316602082015260400190565b9283526001600160a01b03918216602084015216604082015260600190565b9384526001600160a01b039283166020850152908216604084015216606082015260800190565b604051601f8201601f191681016001600160401b0381118282101715615d9e57615d9e615ee7565b604052919050565b60006001600160401b03821115615dbf57615dbf615ee7565b5060051b60200190565b60008219821115615ddc57615ddc615ebb565b500190565b600082615df057615df0615ed1565b500490565b6000816000190483118215151615615e0f57615e0f615ebb565b500290565b600082821015615e2657615e26615ebb565b500390565b60005b83811015615e46578181015183820152602001615e2e565b83811115611f9d5750506000910152565b600181811c90821680615e6b57607f821691505b6020821081141561299257634e487b7160e01b600052602260045260246000fd5b6000600019821415615ea057615ea0615ebb565b5060010190565b600082615eb657615eb6615ed1565b500690565b634e487b7160e01b600052601160045260246000fd5b634e487b7160e01b600052601260045260246000fd5b634e487b7160e01b600052604160045260246000fd5b6001600160a01b0381168114612d8957600080fd5b8015158114612d8957600080fd5b6001600160e01b031981168114612d8957600080fd5b60038110612d8957600080fdfeddf252ad1be2c89b69c2b068fc378daa952ba7f163c4a11628f55a4df523b3ef2cc0b19d71980380c7a99113dc265ee16b9f7f394e2a42085ab6877482a7f82243616c6c6572206973206e6f7420746865206f776e65722c206578656375746fa2646970667358221220b154d85eddf11d21a622f5967bc34572b01a4ebb67b126ff431c7fa605c4d34f64736f6c63430008030033",
  "linkReferences": {},
  "deployedLinkReferences": {}
}