{
  "_format": "hh-sol-artifact-1",
  "contractName": "VestingWrapper",
  "sourceName": "contracts/governance/VestingWrapper.sol",
  "abi": [
    {
      "inputs": [
        {
          "internalType": "string",
          "name": "_name",
          "type": "string"
        },
        {
          "internalType": "string",
          "name": "_symbol",
          "type": "string"
        },
        {
          "internalType": "address",
          "name": "_wrappedToken",
          "type": "address"
        }
      ],
      "stateMutability": "nonpayable",
      "type": "constructor"
    },
    {
      "anonymous": false,
      "inputs": [
        {
          "indexed": true,
          "internalType": "address",
          "name": "owner",
          "type": "address"
        },
        {
          "indexed": true,
          "internalType": "address",
          "name": "spender",
          "type": "address"
        },
        {
          "indexed": false,
          "internalType": "uint256",
          "name": "value",
          "type": "uint256"
        }
      ],
      "name": "Approval",
      "type": "event"
    },
    {
      "anonymous": false,
      "inputs": [
        {
          "indexed": true,
          "internalType": "address",
          "name": "previousOwner",
          "type": "address"
        },
        {
          "indexed": true,
          "internalType": "address",
          "name": "newOwner",
          "type": "address"
        }
      ],
      "name": "OwnershipTransferred",
      "type": "event"
    },
    {
      "anonymous": false,
      "inputs": [
        {
          "indexed": true,
          "internalType": "address",
          "name": "from",
          "type": "address"
        },
        {
          "indexed": true,
          "internalType": "address",
          "name": "to",
          "type": "address"
        },
        {
          "indexed": false,
          "internalType": "uint256",
          "name": "value",
          "type": "uint256"
        }
      ],
      "name": "Transfer",
      "type": "event"
    },
    {
      "inputs": [],
      "name": "DOMAIN_SEPARATOR",
      "outputs": [
        {
          "internalType": "bytes32",
          "name": "",
          "type": "bytes32"
        }
      ],
      "stateMutability": "view",
      "type": "function"
    },
    {
      "inputs": [
        {
          "internalType": "address",
          "name": "owner",
          "type": "address"
        },
        {
          "internalType": "address",
          "name": "spender",
          "type": "address"
        }
      ],
      "name": "allowance",
      "outputs": [
        {
          "internalType": "uint256",
          "name": "",
          "type": "uint256"
        }
      ],
      "stateMutability": "view",
      "type": "function"
    },
    {
      "inputs": [
        {
          "internalType": "address",
          "name": "spender",
          "type": "address"
        },
        {
          "internalType": "uint256",
          "name": "amount",
          "type": "uint256"
        }
      ],
      "name": "approve",
      "outputs": [
        {
          "internalType": "bool",
          "name": "",
          "type": "bool"
        }
      ],
      "stateMutability": "nonpayable",
      "type": "function"
    },
    {
      "inputs": [
        {
          "internalType": "address",
          "name": "account",
          "type": "address"
        }
      ],
      "name": "balanceOf",
      "outputs": [
        {
          "internalType": "uint256",
          "name": "",
          "type": "uint256"
        }
      ],
      "stateMutability": "view",
      "type": "function"
    },
    {
      "inputs": [
        {
          "internalType": "uint256",
          "name": "wrapperAmount",
          "type": "uint256"
        }
      ],
      "name": "burn",
      "outputs": [],
      "stateMutability": "nonpayable",
      "type": "function"
    },
    {
      "inputs": [
        {
          "internalType": "address",
          "name": "account",
          "type": "address"
        }
      ],
      "name": "burnableByAccount",
      "outputs": [
        {
          "internalType": "uint256",
          "name": "",
          "type": "uint256"
        }
      ],
      "stateMutability": "view",
      "type": "function"
    },
    {
      "inputs": [],
      "name": "decimals",
      "outputs": [
        {
          "internalType": "uint8",
          "name": "",
          "type": "uint8"
        }
      ],
      "stateMutability": "view",
      "type": "function"
    },
    {
      "inputs": [
        {
          "internalType": "address",
          "name": "spender",
          "type": "address"
        },
        {
          "internalType": "uint256",
          "name": "subtractedValue",
          "type": "uint256"
        }
      ],
      "name": "decreaseAllowance",
      "outputs": [
        {
          "internalType": "bool",
          "name": "",
          "type": "bool"
        }
      ],
      "stateMutability": "nonpayable",
      "type": "function"
    },
    {
      "inputs": [
        {
          "internalType": "address",
          "name": "spender",
          "type": "address"
        },
        {
          "internalType": "uint256",
          "name": "addedValue",
          "type": "uint256"
        }
      ],
      "name": "increaseAllowance",
      "outputs": [
        {
          "internalType": "bool",
          "name": "",
          "type": "bool"
        }
      ],
      "stateMutability": "nonpayable",
      "type": "function"
    },
    {
      "inputs": [
        {
          "internalType": "address[]",
          "name": "recipients",
          "type": "address[]"
        },
        {
          "internalType": "uint256[]",
          "name": "amounts",
          "type": "uint256[]"
        }
      ],
      "name": "mint",
      "outputs": [],
      "stateMutability": "nonpayable",
      "type": "function"
    },
    {
      "inputs": [],
      "name": "name",
      "outputs": [
        {
          "internalType": "string",
          "name": "",
          "type": "string"
        }
      ],
      "stateMutability": "view",
      "type": "function"
    },
    {
      "inputs": [
        {
          "internalType": "address",
          "name": "owner",
          "type": "address"
        }
      ],
      "name": "nonces",
      "outputs": [
        {
          "internalType": "uint256",
          "name": "",
          "type": "uint256"
        }
      ],
      "stateMutability": "view",
      "type": "function"
    },
    {
      "inputs": [],
      "name": "owner",
      "outputs": [
        {
          "internalType": "address",
          "name": "",
          "type": "address"
        }
      ],
      "stateMutability": "view",
      "type": "function"
    },
    {
      "inputs": [
        {
          "internalType": "address",
          "name": "owner",
          "type": "address"
        },
        {
          "internalType": "address",
          "name": "spender",
          "type": "address"
        },
        {
          "internalType": "uint256",
          "name": "value",
          "type": "uint256"
        },
        {
          "internalType": "uint256",
          "name": "deadline",
          "type": "uint256"
        },
        {
          "internalType": "uint8",
          "name": "v",
          "type": "uint8"
        },
        {
          "internalType": "bytes32",
          "name": "r",
          "type": "bytes32"
        },
        {
          "internalType": "bytes32",
          "name": "s",
          "type": "bytes32"
        }
      ],
      "name": "permit",
      "outputs": [],
      "stateMutability": "nonpayable",
      "type": "function"
    },
    {
      "inputs": [],
      "name": "renounceOwnership",
      "outputs": [],
      "stateMutability": "nonpayable",
      "type": "function"
    },
    {
      "inputs": [
        {
          "internalType": "address",
          "name": "token",
          "type": "address"
        },
        {
          "internalType": "address",
          "name": "recipient",
          "type": "address"
        },
        {
          "internalType": "uint256",
          "name": "amount",
          "type": "uint256"
        }
      ],
      "name": "rescueFunds",
      "outputs": [],
      "stateMutability": "nonpayable",
      "type": "function"
    },
    {
      "inputs": [
        {
          "internalType": "uint256",
          "name": "startTime",
          "type": "uint256"
        }
      ],
      "name": "setVestingStart",
      "outputs": [],
      "stateMutability": "nonpayable",
      "type": "function"
    },
    {
      "inputs": [
        {
          "internalType": "uint256",
          "name": "time",
          "type": "uint256"
        }
      ],
      "name": "setVestingTime",
      "outputs": [],
      "stateMutability": "nonpayable",
      "type": "function"
    },
    {
      "inputs": [],
      "name": "symbol",
      "outputs": [
        {
          "internalType": "string",
          "name": "",
          "type": "string"
        }
      ],
      "stateMutability": "view",
      "type": "function"
    },
    {
      "inputs": [],
      "name": "totalSupply",
      "outputs": [
        {
          "internalType": "uint256",
          "name": "",
          "type": "uint256"
        }
      ],
      "stateMutability": "view",
      "type": "function"
    },
    {
      "inputs": [
        {
          "internalType": "address",
          "name": "recipient",
          "type": "address"
        },
        {
          "internalType": "uint256",
          "name": "amount",
          "type": "uint256"
        }
      ],
      "name": "transfer",
      "outputs": [
        {
          "internalType": "bool",
          "name": "",
          "type": "bool"
        }
      ],
      "stateMutability": "nonpayable",
      "type": "function"
    },
    {
      "inputs": [
        {
          "internalType": "address",
          "name": "sender",
          "type": "address"
        },
        {
          "internalType": "address",
          "name": "recipient",
          "type": "address"
        },
        {
          "internalType": "uint256",
          "name": "amount",
          "type": "uint256"
        }
      ],
      "name": "transferFrom",
      "outputs": [
        {
          "internalType": "bool",
          "name": "",
          "type": "bool"
        }
      ],
      "stateMutability": "nonpayable",
      "type": "function"
    },
    {
      "inputs": [
        {
          "internalType": "address",
          "name": "newOwner",
          "type": "address"
        }
      ],
      "name": "transferOwnership",
      "outputs": [],
      "stateMutability": "nonpayable",
      "type": "function"
    },
    {
      "inputs": [
        {
          "internalType": "address",
          "name": "account",
          "type": "address"
        }
      ],
      "name": "vestedByAccount",
      "outputs": [
        {
          "internalType": "uint256",
          "name": "",
          "type": "uint256"
        }
      ],
      "stateMutability": "view",
      "type": "function"
    },
    {
      "inputs": [
        {
          "internalType": "uint256",
          "name": "vestingAmount",
          "type": "uint256"
        }
      ],
      "name": "vesting2wrapper",
      "outputs": [
        {
          "internalType": "uint256",
          "name": "",
          "type": "uint256"
        }
      ],
      "stateMutability": "view",
      "type": "function"
    },
    {
      "inputs": [],
      "name": "vestingStart",
      "outputs": [
        {
          "internalType": "uint256",
          "name": "",
          "type": "uint256"
        }
      ],
      "stateMutability": "view",
      "type": "function"
    },
    {
      "inputs": [],
      "name": "vestingTime",
      "outputs": [
        {
          "internalType": "uint256",
          "name": "",
          "type": "uint256"
        }
      ],
      "stateMutability": "view",
      "type": "function"
    },
    {
      "inputs": [],
      "name": "vestingToken",
      "outputs": [
        {
          "internalType": "contract IERC20",
          "name": "",
          "type": "address"
        }
      ],
      "stateMutability": "view",
      "type": "function"
    },
    {
      "inputs": [
        {
          "internalType": "address",
          "name": "",
          "type": "address"
        }
      ],
      "name": "withdrawn",
      "outputs": [
        {
          "internalType": "uint256",
          "name": "",
          "type": "uint256"
        }
      ],
      "stateMutability": "view",
      "type": "function"
    },
    {
      "inputs": [
        {
          "internalType": "address",
          "name": "account",
          "type": "address"
        }
      ],
      "name": "wrappedByAccount",
      "outputs": [
        {
          "internalType": "uint256",
          "name": "",
          "type": "uint256"
        }
      ],
      "stateMutability": "view",
      "type": "function"
    },
    {
      "inputs": [
        {
          "internalType": "uint256",
          "name": "wrapperAmount",
          "type": "uint256"
        }
      ],
      "name": "wrapper2vesting",
      "outputs": [
        {
          "internalType": "uint256",
          "name": "",
          "type": "uint256"
        }
      ],
      "stateMutability": "view",
      "type": "function"
    }
  ],
  "bytecode": "0x6101806040527f6e71edae12b1b97f4d1f60370fef10105fa2faae0126114a169c64845d6126c9610140526305a39a806007553480156200003f57600080fd5b50604051620024303803806200243083398101604081905262000062916200033b565b8180604051806040016040528060018152602001603160f81b8152508585816003908051906020019062000098929190620001e2565b508051620000ae906004906020840190620001e2565b5050825160208085019190912083518483012060e08290526101008190524660a0818152604080517f8b73c3c69bb8fe3d512ecc4cf759cc79239f7b179b0ffacaa9a75d522b39400f81880181905281830187905260608201869052608082019490945230818401528151808203909301835260c0019052805194019390932091935091906080523060601b60c05261012052506200015d9350620001579250506200018c9050565b62000190565b6001600160601b0319606082901b16610160526200017f4262278d00620003c4565b600855506200043c915050565b3390565b600680546001600160a01b038381166001600160a01b0319831681179093556040519116919082907f8be0079c531659141344cd1fd0a4f28419497f9722a3daafe3b4186f6b6457e090600090a35050565b828054620001f090620003e9565b90600052602060002090601f0160209004810192826200021457600085556200025f565b82601f106200022f57805160ff19168380011785556200025f565b828001600101855582156200025f579182015b828111156200025f57825182559160200191906001019062000242565b506200026d92915062000271565b5090565b5b808211156200026d576000815560010162000272565b600082601f83011262000299578081fd5b81516001600160401b0380821115620002b657620002b662000426565b604051601f8301601f19908116603f01168101908282118183101715620002e157620002e162000426565b81604052838152602092508683858801011115620002fd578485fd5b8491505b8382101562000320578582018301518183018401529082019062000301565b838211156200033157848385830101525b9695505050505050565b60008060006060848603121562000350578283fd5b83516001600160401b038082111562000367578485fd5b620003758783880162000288565b945060208601519150808211156200038b578384fd5b506200039a8682870162000288565b604086015190935090506001600160a01b0381168114620003b9578182fd5b809150509250925092565b60008219821115620003e457634e487b7160e01b81526011600452602481fd5b500190565b600181811c90821680620003fe57607f821691505b602082108114156200042057634e487b7160e01b600052602260045260246000fd5b50919050565b634e487b7160e01b600052604160045260246000fd5b60805160a05160c05160601c60e0516101005161012051610140516101605160601c611f73620004bd600039600081816101e701528181610737015281816108570152610a2101526000610b040152600061114c0152600061119b01526000611176015260006110cd015260006110f7015260006111210152611f736000f3fe608060405234801561001057600080fd5b50600436106101755760003560e01c806306fdde031461017a578063095ea7b314610198578063126f854d146101bb57806318160ddd146101d057806319d152fa146101e257806323b872dd14610216578063254800d4146102295780632912a933146102325780632c6424c914610245578063313ce567146102585780633644e51514610267578063395093511461026f57806342966c68146102825780636ccae054146102955780636ef61092146102a857806370a08231146102c8578063715018a6146102db5780637ecebe00146102e357806380292160146102f65780638bf181c5146103095780638da5cb5b1461031c57806395d89b4114610324578063a457c2d71461032c578063a9059cbb1461033f578063c7dab43614610352578063cc04823a1461035b578063d505accf1461036e578063d9a80dbc14610381578063dd62ed3e14610394578063e467f7e0146103cd578063f2fde38b146103e0575b600080fd5b6101826103f3565b60405161018f9190611db5565b60405180910390f35b6101ab6101a6366004611ca4565b610486565b604051901515815260200161018f565b6101ce6101c9366004611d55565b61049d565b005b6002545b60405190815260200161018f565b6102097f000000000000000000000000000000000000000000000000000000000000000081565b60405161018f9190611da1565b6101ab610224366004611bf8565b6104da565b6101d460085481565b6101d4610240366004611bac565b610586565b6101d4610253366004611bac565b61062e565b6040516012815260200161018f565b6101d461063c565b6101ab61027d366004611ca4565b61064b565b6101ce610290366004611d55565b610687565b6101ce6102a3366004611bf8565b610762565b6101d46102b6366004611bac565b60096020526000908152604090205481565b6101d46102d6366004611bac565b6107aa565b6101ce6107c5565b6101d46102f1366004611bac565b610800565b6101ce610304366004611d55565b61081e565b6101d4610317366004611d55565b610852565b610209610930565b61018261093f565b6101ab61033a366004611ca4565b61094e565b6101ab61034d366004611ca4565b6109e7565b6101d460075481565b6101d4610369366004611d55565b6109f4565b6101ce61037c366004611c33565b610ab0565b6101d461038f366004611bac565b610c14565b6101d46103a2366004611bc6565b6001600160a01b03918216600090815260016020908152604080832093909416825291909152205490565b6101ce6103db366004611ccd565b610c22565b6101ce6103ee366004611bac565b610d1c565b60606003805461040290611eb7565b80601f016020809104026020016040519081016040528092919081815260200182805461042e90611eb7565b801561047b5780601f106104505761010080835404028352916020019161047b565b820191906000526020600020905b81548152906001019060200180831161045e57829003601f168201915b505050505090505b90565b6000610493338484610dbc565b5060015b92915050565b336104a6610930565b6001600160a01b0316146104d55760405162461bcd60e51b81526004016104cc90611de8565b60405180910390fd5b600855565b60006104e7848484610ee0565b6001600160a01b03841660009081526001602090815260408083203384529091529020548281101561056c5760405162461bcd60e51b815260206004820152602860248201527f45524332303a207472616e7366657220616d6f756e74206578636565647320616044820152676c6c6f77616e636560c01b60648201526084016104cc565b6105798533858403610dbc565b60019150505b9392505050565b600060085442111561062557600061059d836107aa565b905060006105aa826109f4565b6001600160a01b0385166000908152600960205260408120549192506105d08383611e1d565b90506000600854426105e29190611e74565b905060006106088360075484866105f99190611e55565b6106039190611e35565b6110a9565b9050610618856106038684611e74565b9650505050505050610629565b5060005b919050565b6000610497610369836107aa565b60006106466110c0565b905090565b3360008181526001602090815260408083206001600160a01b03871684529091528120549091610493918590610682908690611e1d565b610dbc565b6000610692826109f4565b90508061069e33610586565b10156106fb5760405162461bcd60e51b815260206004820152602660248201527f5769746864726177696e67206d6f7265207468616e20766573746564206279206044820152651858dbdd5b9d60d21b60648201526084016104cc565b336000908152600960205260408120805483929061071a908490611e1d565b9091555061072a905033836111eb565b61075e6001600160a01b037f0000000000000000000000000000000000000000000000000000000000000000163383611333565b5050565b3361076b610930565b6001600160a01b0316146107915760405162461bcd60e51b81526004016104cc90611de8565b6107a56001600160a01b0384168383611333565b505050565b6001600160a01b031660009081526020819052604090205490565b336107ce610930565b6001600160a01b0316146107f45760405162461bcd60e51b81526004016104cc90611de8565b6107fe6000611385565b565b6001600160a01b038116600090815260056020526040812054610497565b33610827610930565b6001600160a01b03161461084d5760405162461bcd60e51b81526004016104cc90611de8565b600755565b6000807f00000000000000000000000000000000000000000000000000000000000000006001600160a01b03166370a08231306040518263ffffffff1660e01b81526004016108a19190611da1565b60206040518083038186803b1580156108b957600080fd5b505afa1580156108cd573d6000803e3d6000fd5b505050506040513d601f19601f820116820180604052508101906108f19190611d6d565b9050801561092057808361090460025490565b61090e9190611e55565b6109189190611e35565b915050610629565b6000915050610629565b50919050565b6006546001600160a01b031690565b60606004805461040290611eb7565b3360009081526001602090815260408083206001600160a01b0386168452909152812054828110156109d05760405162461bcd60e51b815260206004820152602560248201527f45524332303a2064656372656173656420616c6c6f77616e63652062656c6f77604482015264207a65726f60d81b60648201526084016104cc565b6109dd3385858403610dbc565b5060019392505050565b6000610493338484610ee0565b600080610a0060025490565b90508015610920576040516370a0823160e01b815281906001600160a01b037f000000000000000000000000000000000000000000000000000000000000000016906370a0823190610a56903090600401611da1565b60206040518083038186803b158015610a6e57600080fd5b505afa158015610a82573d6000803e3d6000fd5b505050506040513d601f19601f82011682018060405250810190610aa69190611d6d565b61090e9085611e55565b83421115610b005760405162461bcd60e51b815260206004820152601d60248201527f45524332305065726d69743a206578706972656420646561646c696e6500000060448201526064016104cc565b60007f0000000000000000000000000000000000000000000000000000000000000000888888610b2f8c6113d7565b6040805160208101969096526001600160a01b0394851690860152929091166060840152608083015260a082015260c0810186905260e0016040516020818303038152906040528051906020012090506000610b8a826113fd565b90506000610b9a8287878761144b565b9050896001600160a01b0316816001600160a01b031614610bfd5760405162461bcd60e51b815260206004820152601e60248201527f45524332305065726d69743a20696e76616c6964207369676e6174757265000060448201526064016104cc565b610c088a8a8a610dbc565b50505050505050505050565b600061049761031783610586565b33610c2b610930565b6001600160a01b031614610c515760405162461bcd60e51b81526004016104cc90611de8565b828114610c945760405162461bcd60e51b81526020600482015260116024820152704d69736d6174636865642061727261797360781b60448201526064016104cc565b60005b80841115610d1557610d03858583818110610cc257634e487b7160e01b600052603260045260246000fd5b9050602002016020810190610cd79190611bac565b848484818110610cf757634e487b7160e01b600052603260045260246000fd5b90506020020135611473565b80610d0d81611eec565b915050610c97565b5050505050565b33610d25610930565b6001600160a01b031614610d4b5760405162461bcd60e51b81526004016104cc90611de8565b6001600160a01b038116610db05760405162461bcd60e51b815260206004820152602660248201527f4f776e61626c653a206e6577206f776e657220697320746865207a65726f206160448201526564647265737360d01b60648201526084016104cc565b610db981611385565b50565b6001600160a01b038316610e1e5760405162461bcd60e51b8152602060048201526024808201527f45524332303a20617070726f76652066726f6d20746865207a65726f206164646044820152637265737360e01b60648201526084016104cc565b6001600160a01b038216610e7f5760405162461bcd60e51b815260206004820152602260248201527f45524332303a20617070726f766520746f20746865207a65726f206164647265604482015261737360f01b60648201526084016104cc565b6001600160a01b0383811660008181526001602090815260408083209487168084529482529182902085905590518481527f8c5be1e5ebec7d5bd14f71427d1e84f3dd0314c0f7b2291e5b200ac8c7c3b925910160405180910390a3505050565b6001600160a01b038316610f445760405162461bcd60e51b815260206004820152602560248201527f45524332303a207472616e736665722066726f6d20746865207a65726f206164604482015264647265737360d81b60648201526084016104cc565b6001600160a01b038216610fa65760405162461bcd60e51b815260206004820152602360248201527f45524332303a207472616e7366657220746f20746865207a65726f206164647260448201526265737360e81b60648201526084016104cc565b610fb183838361154d565b6001600160a01b038316600090815260208190526040902054818110156110295760405162461bcd60e51b815260206004820152602660248201527f45524332303a207472616e7366657220616d6f756e7420657863656564732062604482015265616c616e636560d01b60648201526084016104cc565b6001600160a01b03808516600090815260208190526040808220858503905591851681529081208054849290611060908490611e1d565b92505081905550826001600160a01b0316846001600160a01b0316600080516020611f1e8339815191528460405161109a91815260200190565b60405180910390a35b50505050565b60008183106110b9575080610497565b5081610497565b6000306001600160a01b037f00000000000000000000000000000000000000000000000000000000000000001614801561111957507f000000000000000000000000000000000000000000000000000000000000000046145b1561114557507f0000000000000000000000000000000000000000000000000000000000000000610483565b50604080517f00000000000000000000000000000000000000000000000000000000000000006020808301919091527f0000000000000000000000000000000000000000000000000000000000000000828401527f000000000000000000000000000000000000000000000000000000000000000060608301524660808301523060a0808401919091528351808403909101815260c09092019092528051910120610483565b6001600160a01b03821661124b5760405162461bcd60e51b815260206004820152602160248201527f45524332303a206275726e2066726f6d20746865207a65726f206164647265736044820152607360f81b60648201526084016104cc565b6112578260008361154d565b6001600160a01b038216600090815260208190526040902054818110156112cb5760405162461bcd60e51b815260206004820152602260248201527f45524332303a206275726e20616d6f756e7420657863656564732062616c616e604482015261636560f01b60648201526084016104cc565b6001600160a01b03831660009081526020819052604081208383039055600280548492906112fa908490611e74565b90915550506040518281526000906001600160a01b03851690600080516020611f1e8339815191529060200160405180910390a36107a5565b604080516001600160a01b038416602482015260448082018490528251808303909101815260649091019091526020810180516001600160e01b031663a9059cbb60e01b1790526107a5908490611621565b600680546001600160a01b038381166001600160a01b0319831681179093556040519116919082907f8be0079c531659141344cd1fd0a4f28419497f9722a3daafe3b4186f6b6457e090600090a35050565b6001600160a01b038116600090815260056020526040902080546001810182559061092a565b600061049761140a6110c0565b8360405161190160f01b6020820152602281018390526042810182905260009060620160405160208183030381529060405280519060200120905092915050565b600080600061145c878787876116f3565b91509150611469816117d6565b5095945050505050565b6001600160a01b0382166114c95760405162461bcd60e51b815260206004820152601f60248201527f45524332303a206d696e7420746f20746865207a65726f20616464726573730060448201526064016104cc565b6114d56000838361154d565b80600260008282546114e79190611e1d565b90915550506001600160a01b03821660009081526020819052604081208054839290611514908490611e1d565b90915550506040518181526001600160a01b03831690600090600080516020611f1e8339815191529060200160405180910390a361075e565b60008111801561156557506001600160a01b03831615155b801561157957506001600160a01b03821615155b156107a5576001600160a01b038316600090815260096020526040812054906115a1856107aa565b90506000816115b08585611e55565b6115ba9190611e35565b6001600160a01b0387166000908152600960205260408120805492935083929091906115e7908490611e74565b90915550506001600160a01b03851660009081526009602052604081208054839290611614908490611e1d565b9091555050505050505050565b6000611676826040518060400160405280602081526020017f5361666545524332303a206c6f772d6c6576656c2063616c6c206661696c6564815250856001600160a01b03166119d49092919063ffffffff16565b8051909150156107a557808060200190518101906116949190611d35565b6107a55760405162461bcd60e51b815260206004820152602a60248201527f5361666545524332303a204552433230206f7065726174696f6e20646964206e6044820152691bdd081cdd58d8d9595960b21b60648201526084016104cc565b6000806fa2a8918ca85bafe22016d0b997e4df60600160ff1b0383111561172057506000905060036117cd565b8460ff16601b1415801561173857508460ff16601c14155b1561174957506000905060046117cd565b6040805160008082526020820180845289905260ff881692820192909252606081018690526080810185905260019060a0016020604051602081039080840390855afa15801561179d573d6000803e3d6000fd5b5050604051601f1901519150506001600160a01b0381166117c6576000600192509250506117cd565b9150600090505b94509492505050565b60008160048111156117f857634e487b7160e01b600052602160045260246000fd5b141561180357610db9565b600181600481111561182557634e487b7160e01b600052602160045260246000fd5b141561186e5760405162461bcd60e51b815260206004820152601860248201527745434453413a20696e76616c6964207369676e617475726560401b60448201526064016104cc565b600281600481111561189057634e487b7160e01b600052602160045260246000fd5b14156118de5760405162461bcd60e51b815260206004820152601f60248201527f45434453413a20696e76616c6964207369676e6174757265206c656e6774680060448201526064016104cc565b600381600481111561190057634e487b7160e01b600052602160045260246000fd5b14156119595760405162461bcd60e51b815260206004820152602260248201527f45434453413a20696e76616c6964207369676e6174757265202773272076616c604482015261756560f01b60648201526084016104cc565b600481600481111561197b57634e487b7160e01b600052602160045260246000fd5b1415610db95760405162461bcd60e51b815260206004820152602260248201527f45434453413a20696e76616c6964207369676e6174757265202776272076616c604482015261756560f01b60648201526084016104cc565b60606119e384846000856119eb565b949350505050565b606082471015611a4c5760405162461bcd60e51b815260206004820152602660248201527f416464726573733a20696e73756666696369656e742062616c616e636520666f6044820152651c8818d85b1b60d21b60648201526084016104cc565b843b611a9a5760405162461bcd60e51b815260206004820152601d60248201527f416464726573733a2063616c6c20746f206e6f6e2d636f6e747261637400000060448201526064016104cc565b600080866001600160a01b03168587604051611ab69190611d85565b60006040518083038185875af1925050503d8060008114611af3576040519150601f19603f3d011682016040523d82523d6000602084013e611af8565b606091505b5091509150611b08828286611b13565b979650505050505050565b60608315611b2257508161057f565b825115611b325782518084602001fd5b8160405162461bcd60e51b81526004016104cc9190611db5565b80356001600160a01b038116811461062957600080fd5b60008083601f840112611b74578182fd5b5081356001600160401b03811115611b8a578182fd5b6020830191508360208260051b8501011115611ba557600080fd5b9250929050565b600060208284031215611bbd578081fd5b61057f82611b4c565b60008060408385031215611bd8578081fd5b611be183611b4c565b9150611bef60208401611b4c565b90509250929050565b600080600060608486031215611c0c578081fd5b611c1584611b4c565b9250611c2360208501611b4c565b9150604084013590509250925092565b600080600080600080600060e0888a031215611c4d578283fd5b611c5688611b4c565b9650611c6460208901611b4c565b95506040880135945060608801359350608088013560ff81168114611c87578384fd5b9699959850939692959460a0840135945060c09093013592915050565b60008060408385031215611cb6578182fd5b611cbf83611b4c565b946020939093013593505050565b60008060008060408587031215611ce2578384fd5b84356001600160401b0380821115611cf8578586fd5b611d0488838901611b63565b90965094506020870135915080821115611d1c578384fd5b50611d2987828801611b63565b95989497509550505050565b600060208284031215611d46578081fd5b8151801515811461057f578182fd5b600060208284031215611d66578081fd5b5035919050565b600060208284031215611d7e578081fd5b5051919050565b60008251611d97818460208701611e8b565b9190910192915050565b6001600160a01b0391909116815260200190565b6000602082528251806020840152611dd4816040850160208701611e8b565b601f01601f19169190910160400192915050565b6020808252818101527f4f776e61626c653a2063616c6c6572206973206e6f7420746865206f776e6572604082015260600190565b60008219821115611e3057611e30611f07565b500190565b600082611e5057634e487b7160e01b81526012600452602481fd5b500490565b6000816000190483118215151615611e6f57611e6f611f07565b500290565b600082821015611e8657611e86611f07565b500390565b60005b83811015611ea6578181015183820152602001611e8e565b838111156110a35750506000910152565b600181811c90821680611ecb57607f821691505b6020821081141561092a57634e487b7160e01b600052602260045260246000fd5b6000600019821415611f0057611f00611f07565b5060010190565b634e487b7160e01b600052601160045260246000fdfeddf252ad1be2c89b69c2b068fc378daa952ba7f163c4a11628f55a4df523b3efa2646970667358221220ded3675242f45feaaf19d5a0fd01c64c6818e5e05983ea851ecf62033cf1290e64736f6c63430008030033",
  "linkReferences": {},
  "deployedLinkReferences": {}
}