{
  "_format": "hh-sol-artifact-1",
  "contractName": "YieldYakStrategy",
  "sourceName": "contracts/strategies/YieldYakStrategy.sol",
  "abi": [
    {
      "inputs": [
        {
          "internalType": "address",
          "name": "_roles",
          "type": "address"
        }
      ],
      "stateMutability": "nonpayable",
      "type": "constructor"
    },
    {
      "anonymous": false,
      "inputs": [
        {
          "indexed": false,
          "internalType": "string",
          "name": "param",
          "type": "string"
        },
        {
          "indexed": false,
          "internalType": "uint256",
          "name": "value",
          "type": "uint256"
        }
      ],
      "name": "ParameterUpdated",
      "type": "event"
    },
    {
      "anonymous": false,
      "inputs": [
        {
          "indexed": false,
          "internalType": "string",
          "name": "param",
          "type": "string"
        },
        {
          "indexed": false,
          "internalType": "address",
          "name": "subject",
          "type": "address"
        },
        {
          "indexed": false,
          "internalType": "uint256",
          "name": "value",
          "type": "uint256"
        }
      ],
      "name": "SubjectParameterUpdated",
      "type": "event"
    },
    {
      "anonymous": false,
      "inputs": [
        {
          "indexed": false,
          "internalType": "string",
          "name": "param",
          "type": "string"
        },
        {
          "indexed": false,
          "internalType": "address",
          "name": "subject",
          "type": "address"
        }
      ],
      "name": "SubjectUpdated",
      "type": "event"
    },
    {
      "stateMutability": "payable",
      "type": "fallback"
    },
    {
      "inputs": [
        {
          "internalType": "uint256",
          "name": "",
          "type": "uint256"
        }
      ],
      "name": "_accounts",
      "outputs": [
        {
          "internalType": "uint256",
          "name": "collateral",
          "type": "uint256"
        },
        {
          "internalType": "uint256",
          "name": "yieldCheckptIdx",
          "type": "uint256"
        },
        {
          "internalType": "address",
          "name": "trancheToken",
          "type": "address"
        }
      ],
      "stateMutability": "view",
      "type": "function"
    },
    {
      "inputs": [
        {
          "internalType": "uint256",
          "name": "",
          "type": "uint256"
        }
      ],
      "name": "_charactersPlayed",
      "outputs": [
        {
          "internalType": "uint256",
          "name": "",
          "type": "uint256"
        }
      ],
      "stateMutability": "view",
      "type": "function"
    },
    {
      "inputs": [
        {
          "internalType": "uint256",
          "name": "",
          "type": "uint256"
        }
      ],
      "name": "_dependsOnCharacters",
      "outputs": [
        {
          "internalType": "uint256",
          "name": "",
          "type": "uint256"
        }
      ],
      "stateMutability": "view",
      "type": "function"
    },
    {
      "inputs": [
        {
          "internalType": "uint256",
          "name": "",
          "type": "uint256"
        }
      ],
      "name": "_dependsOnRoles",
      "outputs": [
        {
          "internalType": "uint256",
          "name": "",
          "type": "uint256"
        }
      ],
      "stateMutability": "view",
      "type": "function"
    },
    {
      "inputs": [
        {
          "internalType": "address",
          "name": "",
          "type": "address"
        },
        {
          "internalType": "address",
          "name": "",
          "type": "address"
        }
      ],
      "name": "_oracleCache",
      "outputs": [
        {
          "internalType": "address",
          "name": "",
          "type": "address"
        }
      ],
      "stateMutability": "view",
      "type": "function"
    },
    {
      "inputs": [
        {
          "internalType": "uint256",
          "name": "",
          "type": "uint256"
        }
      ],
      "name": "_rolesPlayed",
      "outputs": [
        {
          "internalType": "uint256",
          "name": "",
          "type": "uint256"
        }
      ],
      "stateMutability": "view",
      "type": "function"
    },
    {
      "inputs": [
        {
          "internalType": "address",
          "name": "token",
          "type": "address"
        }
      ],
      "name": "_viewTVL",
      "outputs": [
        {
          "internalType": "uint256",
          "name": "",
          "type": "uint256"
        }
      ],
      "stateMutability": "view",
      "type": "function"
    },
    {
      "inputs": [
        {
          "internalType": "uint256",
          "name": "trancheId",
          "type": "uint256"
        },
        {
          "internalType": "address",
          "name": "sourceStrategy",
          "type": "address"
        },
        {
          "internalType": "address",
          "name": "tokenContract",
          "type": "address"
        },
        {
          "internalType": "uint256",
          "name": "",
          "type": "uint256"
        },
        {
          "internalType": "uint256",
          "name": "amount",
          "type": "uint256"
        }
      ],
      "name": "acceptMigration",
      "outputs": [],
      "stateMutability": "nonpayable",
      "type": "function"
    },
    {
      "inputs": [
        {
          "internalType": "address",
          "name": "",
          "type": "address"
        }
      ],
      "name": "apfDeposit4Share",
      "outputs": [
        {
          "internalType": "uint256",
          "name": "",
          "type": "uint256"
        }
      ],
      "stateMutability": "view",
      "type": "function"
    },
    {
      "inputs": [],
      "name": "apfSmoothingPer10k",
      "outputs": [
        {
          "internalType": "uint256",
          "name": "",
          "type": "uint256"
        }
      ],
      "stateMutability": "view",
      "type": "function"
    },
    {
      "inputs": [
        {
          "internalType": "address",
          "name": "token",
          "type": "address"
        },
        {
          "internalType": "bytes",
          "name": "data",
          "type": "bytes"
        }
      ],
      "name": "approveToken",
      "outputs": [],
      "stateMutability": "nonpayable",
      "type": "function"
    },
    {
      "inputs": [
        {
          "internalType": "address",
          "name": "token",
          "type": "address"
        }
      ],
      "name": "approvedToken",
      "outputs": [
        {
          "internalType": "bool",
          "name": "",
          "type": "bool"
        }
      ],
      "stateMutability": "view",
      "type": "function"
    },
    {
      "inputs": [],
      "name": "approvedTokensCount",
      "outputs": [
        {
          "internalType": "uint256",
          "name": "",
          "type": "uint256"
        }
      ],
      "stateMutability": "view",
      "type": "function"
    },
    {
      "inputs": [],
      "name": "charactersPlayed",
      "outputs": [
        {
          "internalType": "uint256[]",
          "name": "",
          "type": "uint256[]"
        }
      ],
      "stateMutability": "view",
      "type": "function"
    },
    {
      "inputs": [
        {
          "internalType": "address",
          "name": "token",
          "type": "address"
        },
        {
          "internalType": "address",
          "name": "strategy",
          "type": "address"
        }
      ],
      "name": "checkApprovedAndEncode",
      "outputs": [
        {
          "internalType": "bool",
          "name": "",
          "type": "bool"
        },
        {
          "internalType": "bytes",
          "name": "",
          "type": "bytes"
        }
      ],
      "stateMutability": "view",
      "type": "function"
    },
    {
      "inputs": [
        {
          "internalType": "uint256",
          "name": "trancheId",
          "type": "uint256"
        },
        {
          "internalType": "address",
          "name": "currency",
          "type": "address"
        },
        {
          "internalType": "address",
          "name": "recipient",
          "type": "address"
        }
      ],
      "name": "collectYield",
      "outputs": [
        {
          "internalType": "uint256",
          "name": "",
          "type": "uint256"
        }
      ],
      "stateMutability": "nonpayable",
      "type": "function"
    },
    {
      "inputs": [
        {
          "internalType": "uint256",
          "name": "trancheId",
          "type": "uint256"
        },
        {
          "internalType": "address",
          "name": "_yieldCurrency",
          "type": "address"
        },
        {
          "internalType": "address",
          "name": "valueCurrency",
          "type": "address"
        },
        {
          "internalType": "address",
          "name": "recipient",
          "type": "address"
        }
      ],
      "name": "collectYieldValueBorrowable",
      "outputs": [
        {
          "internalType": "uint256",
          "name": "yield",
          "type": "uint256"
        },
        {
          "internalType": "uint256",
          "name": "value",
          "type": "uint256"
        },
        {
          "internalType": "uint256",
          "name": "borrowablePer10k",
          "type": "uint256"
        }
      ],
      "stateMutability": "nonpayable",
      "type": "function"
    },
    {
      "inputs": [],
      "name": "dependsOnCharacters",
      "outputs": [
        {
          "internalType": "uint256[]",
          "name": "",
          "type": "uint256[]"
        }
      ],
      "stateMutability": "view",
      "type": "function"
    },
    {
      "inputs": [],
      "name": "dependsOnRoles",
      "outputs": [
        {
          "internalType": "uint256[]",
          "name": "",
          "type": "uint256[]"
        }
      ],
      "stateMutability": "view",
      "type": "function"
    },
    {
      "inputs": [
        {
          "internalType": "uint256",
          "name": "",
          "type": "uint256"
        }
      ],
      "name": "depositedShares",
      "outputs": [
        {
          "internalType": "uint256",
          "name": "",
          "type": "uint256"
        }
      ],
      "stateMutability": "view",
      "type": "function"
    },
    {
      "inputs": [
        {
          "internalType": "address",
          "name": "token",
          "type": "address"
        },
        {
          "internalType": "bytes",
          "name": "",
          "type": "bytes"
        }
      ],
      "name": "disapproveToken",
      "outputs": [],
      "stateMutability": "nonpayable",
      "type": "function"
    },
    {
      "inputs": [],
      "name": "disapprovedTokensCount",
      "outputs": [
        {
          "internalType": "uint256",
          "name": "",
          "type": "uint256"
        }
      ],
      "stateMutability": "view",
      "type": "function"
    },
    {
      "inputs": [
        {
          "internalType": "address",
          "name": "",
          "type": "address"
        }
      ],
      "name": "feeShares",
      "outputs": [
        {
          "internalType": "uint256",
          "name": "",
          "type": "uint256"
        }
      ],
      "stateMutability": "view",
      "type": "function"
    },
    {
      "inputs": [
        {
          "internalType": "address",
          "name": "token",
          "type": "address"
        }
      ],
      "name": "harvestPartially",
      "outputs": [],
      "stateMutability": "nonpayable",
      "type": "function"
    },
    {
      "inputs": [],
      "name": "isActive",
      "outputs": [
        {
          "internalType": "bool",
          "name": "",
          "type": "bool"
        }
      ],
      "stateMutability": "view",
      "type": "function"
    },
    {
      "inputs": [
        {
          "internalType": "uint256",
          "name": "",
          "type": "uint256"
        }
      ],
      "name": "mainCharacterCache",
      "outputs": [
        {
          "internalType": "address",
          "name": "",
          "type": "address"
        }
      ],
      "stateMutability": "view",
      "type": "function"
    },
    {
      "inputs": [
        {
          "internalType": "address",
          "name": "destination",
          "type": "address"
        }
      ],
      "name": "migrateAllTo",
      "outputs": [],
      "stateMutability": "nonpayable",
      "type": "function"
    },
    {
      "inputs": [
        {
          "internalType": "uint256",
          "name": "trancheId",
          "type": "uint256"
        },
        {
          "internalType": "address",
          "name": "targetStrategy",
          "type": "address"
        },
        {
          "internalType": "address",
          "name": "yieldToken",
          "type": "address"
        },
        {
          "internalType": "address",
          "name": "yieldRecipient",
          "type": "address"
        }
      ],
      "name": "migrateStrategy",
      "outputs": [
        {
          "internalType": "address",
          "name": "",
          "type": "address"
        },
        {
          "internalType": "uint256",
          "name": "",
          "type": "uint256"
        },
        {
          "internalType": "uint256",
          "name": "",
          "type": "uint256"
        }
      ],
      "stateMutability": "nonpayable",
      "type": "function"
    },
    {
      "inputs": [
        {
          "internalType": "address",
          "name": "token",
          "type": "address"
        },
        {
          "internalType": "address",
          "name": "pegCurrency",
          "type": "address"
        }
      ],
      "name": "newCurrentOracle",
      "outputs": [],
      "stateMutability": "nonpayable",
      "type": "function"
    },
    {
      "inputs": [
        {
          "internalType": "address",
          "name": "depositor",
          "type": "address"
        },
        {
          "internalType": "uint256",
          "name": "trancheId",
          "type": "uint256"
        },
        {
          "internalType": "uint256",
          "name": "amount",
          "type": "uint256"
        },
        {
          "internalType": "address",
          "name": "yieldRecipient",
          "type": "address"
        }
      ],
      "name": "registerDepositFor",
      "outputs": [],
      "stateMutability": "nonpayable",
      "type": "function"
    },
    {
      "inputs": [
        {
          "internalType": "address",
          "name": "minter",
          "type": "address"
        },
        {
          "internalType": "uint256",
          "name": "trancheId",
          "type": "uint256"
        },
        {
          "internalType": "address",
          "name": "assetToken",
          "type": "address"
        },
        {
          "internalType": "uint256",
          "name": "",
          "type": "uint256"
        },
        {
          "internalType": "uint256",
          "name": "assetAmount",
          "type": "uint256"
        }
      ],
      "name": "registerMintTranche",
      "outputs": [],
      "stateMutability": "nonpayable",
      "type": "function"
    },
    {
      "inputs": [
        {
          "internalType": "address",
          "name": "token",
          "type": "address"
        },
        {
          "internalType": "uint256",
          "name": "amount",
          "type": "uint256"
        },
        {
          "internalType": "address",
          "name": "recipient",
          "type": "address"
        }
      ],
      "name": "rescueCollateral",
      "outputs": [],
      "stateMutability": "nonpayable",
      "type": "function"
    },
    {
      "inputs": [
        {
          "internalType": "uint256",
          "name": "amount",
          "type": "uint256"
        },
        {
          "internalType": "address",
          "name": "recipient",
          "type": "address"
        }
      ],
      "name": "rescueNative",
      "outputs": [],
      "stateMutability": "nonpayable",
      "type": "function"
    },
    {
      "inputs": [
        {
          "internalType": "address",
          "name": "token",
          "type": "address"
        },
        {
          "internalType": "uint256",
          "name": "amount",
          "type": "uint256"
        },
        {
          "internalType": "address",
          "name": "recipient",
          "type": "address"
        }
      ],
      "name": "rescueStrandedTokens",
      "outputs": [],
      "stateMutability": "nonpayable",
      "type": "function"
    },
    {
      "inputs": [
        {
          "internalType": "address",
          "name": "",
          "type": "address"
        },
        {
          "internalType": "uint256",
          "name": "",
          "type": "uint256"
        }
      ],
      "name": "roleCache",
      "outputs": [
        {
          "internalType": "bool",
          "name": "",
          "type": "bool"
        }
      ],
      "stateMutability": "view",
      "type": "function"
    },
    {
      "inputs": [],
      "name": "roles",
      "outputs": [
        {
          "internalType": "contract Roles",
          "name": "",
          "type": "address"
        }
      ],
      "stateMutability": "view",
      "type": "function"
    },
    {
      "inputs": [],
      "name": "rolesPlayed",
      "outputs": [
        {
          "internalType": "uint256[]",
          "name": "",
          "type": "uint256[]"
        }
      ],
      "stateMutability": "view",
      "type": "function"
    },
    {
      "inputs": [
        {
          "internalType": "uint256",
          "name": "smoothing",
          "type": "uint256"
        }
      ],
      "name": "setApfSmoothingPer10k",
      "outputs": [],
      "stateMutability": "nonpayable",
      "type": "function"
    },
    {
      "inputs": [
        {
          "internalType": "address",
          "name": "token",
          "type": "address"
        },
        {
          "internalType": "address",
          "name": "strategy",
          "type": "address"
        }
      ],
      "name": "setYakStrategy",
      "outputs": [],
      "stateMutability": "nonpayable",
      "type": "function"
    },
    {
      "inputs": [
        {
          "internalType": "address",
          "name": "",
          "type": "address"
        }
      ],
      "name": "stabilityFeePer10k",
      "outputs": [
        {
          "internalType": "uint256",
          "name": "",
          "type": "uint256"
        }
      ],
      "stateMutability": "view",
      "type": "function"
    },
    {
      "inputs": [],
      "name": "strategyName",
      "outputs": [
        {
          "internalType": "bytes32",
          "name": "",
          "type": "bytes32"
        }
      ],
      "stateMutability": "view",
      "type": "function"
    },
    {
      "inputs": [
        {
          "internalType": "address",
          "name": "",
          "type": "address"
        }
      ],
      "name": "tokenMetadata",
      "outputs": [
        {
          "internalType": "uint256",
          "name": "totalCollateralThisPhase",
          "type": "uint256"
        },
        {
          "internalType": "uint256",
          "name": "totalCollateralNow",
          "type": "uint256"
        },
        {
          "internalType": "uint256",
          "name": "apfLastUpdated",
          "type": "uint256"
        },
        {
          "internalType": "uint256",
          "name": "apf",
          "type": "uint256"
        }
      ],
      "stateMutability": "view",
      "type": "function"
    },
    {
      "inputs": [
        {
          "internalType": "uint256",
          "name": "trancheId",
          "type": "uint256"
        }
      ],
      "name": "tranche",
      "outputs": [
        {
          "internalType": "address",
          "name": "",
          "type": "address"
        }
      ],
      "stateMutability": "view",
      "type": "function"
    },
    {
      "inputs": [
        {
          "internalType": "uint256",
          "name": "trancheId",
          "type": "uint256"
        }
      ],
      "name": "trancheToken",
      "outputs": [
        {
          "internalType": "address",
          "name": "token",
          "type": "address"
        }
      ],
      "stateMutability": "view",
      "type": "function"
    },
    {
      "inputs": [
        {
          "internalType": "uint256",
          "name": "",
          "type": "uint256"
        }
      ],
      "name": "trancheTokenID",
      "outputs": [
        {
          "internalType": "uint256",
          "name": "",
          "type": "uint256"
        }
      ],
      "stateMutability": "pure",
      "type": "function"
    },
    {
      "inputs": [
        {
          "internalType": "uint256",
          "name": "role",
          "type": "uint256"
        }
      ],
      "name": "updateMainCharacterCache",
      "outputs": [],
      "stateMutability": "nonpayable",
      "type": "function"
    },
    {
      "inputs": [
        {
          "internalType": "uint256",
          "name": "role",
          "type": "uint256"
        },
        {
          "internalType": "address",
          "name": "contr",
          "type": "address"
        }
      ],
      "name": "updateRoleCache",
      "outputs": [],
      "stateMutability": "nonpayable",
      "type": "function"
    },
    {
      "inputs": [
        {
          "internalType": "address",
          "name": "token",
          "type": "address"
        }
      ],
      "name": "viewAPF",
      "outputs": [
        {
          "internalType": "uint256",
          "name": "",
          "type": "uint256"
        }
      ],
      "stateMutability": "view",
      "type": "function"
    },
    {
      "inputs": [],
      "name": "viewAllApprovedTokens",
      "outputs": [
        {
          "internalType": "address[]",
          "name": "",
          "type": "address[]"
        }
      ],
      "stateMutability": "view",
      "type": "function"
    },
    {
      "inputs": [],
      "name": "viewAllDisapprovedTokenStrategyMetadata",
      "outputs": [
        {
          "components": [
            {
              "internalType": "address",
              "name": "strategy",
              "type": "address"
            },
            {
              "internalType": "address",
              "name": "token",
              "type": "address"
            },
            {
              "internalType": "uint256",
              "name": "APF",
              "type": "uint256"
            },
            {
              "internalType": "uint256",
              "name": "totalCollateral",
              "type": "uint256"
            },
            {
              "internalType": "uint256",
              "name": "borrowablePer10k",
              "type": "uint256"
            },
            {
              "internalType": "uint256",
              "name": "valuePer1e18",
              "type": "uint256"
            },
            {
              "internalType": "bytes32",
              "name": "strategyName",
              "type": "bytes32"
            },
            {
              "internalType": "uint256",
              "name": "tvl",
              "type": "uint256"
            },
            {
              "internalType": "uint256",
              "name": "harvestBalance2Tally",
              "type": "uint256"
            },
            {
              "internalType": "enum IStrategy.YieldType",
              "name": "yieldType",
              "type": "uint8"
            },
            {
              "internalType": "uint256",
              "name": "stabilityFee",
              "type": "uint256"
            },
            {
              "internalType": "address",
              "name": "underlyingStrategy",
              "type": "address"
            }
          ],
          "internalType": "struct IStrategy.StrategyMetadata[]",
          "name": "",
          "type": "tuple[]"
        }
      ],
      "stateMutability": "view",
      "type": "function"
    },
    {
      "inputs": [],
      "name": "viewAllDisapprovedTokens",
      "outputs": [
        {
          "internalType": "address[]",
          "name": "",
          "type": "address[]"
        }
      ],
      "stateMutability": "view",
      "type": "function"
    },
    {
      "inputs": [],
      "name": "viewAllFeesEver",
      "outputs": [
        {
          "internalType": "uint256",
          "name": "balance",
          "type": "uint256"
        }
      ],
      "stateMutability": "view",
      "type": "function"
    },
    {
      "inputs": [],
      "name": "viewAllStrategyMetadata",
      "outputs": [
        {
          "components": [
            {
              "internalType": "address",
              "name": "strategy",
              "type": "address"
            },
            {
              "internalType": "address",
              "name": "token",
              "type": "address"
            },
            {
              "internalType": "uint256",
              "name": "APF",
              "type": "uint256"
            },
            {
              "internalType": "uint256",
              "name": "totalCollateral",
              "type": "uint256"
            },
            {
              "internalType": "uint256",
              "name": "borrowablePer10k",
              "type": "uint256"
            },
            {
              "internalType": "uint256",
              "name": "valuePer1e18",
              "type": "uint256"
            },
            {
              "internalType": "bytes32",
              "name": "strategyName",
              "type": "bytes32"
            },
            {
              "internalType": "uint256",
              "name": "tvl",
              "type": "uint256"
            },
            {
              "internalType": "uint256",
              "name": "harvestBalance2Tally",
              "type": "uint256"
            },
            {
              "internalType": "enum IStrategy.YieldType",
              "name": "yieldType",
              "type": "uint8"
            },
            {
              "internalType": "uint256",
              "name": "stabilityFee",
              "type": "uint256"
            },
            {
              "internalType": "address",
              "name": "underlyingStrategy",
              "type": "address"
            }
          ],
          "internalType": "struct IStrategy.StrategyMetadata[]",
          "name": "",
          "type": "tuple[]"
        }
      ],
      "stateMutability": "view",
      "type": "function"
    },
    {
      "inputs": [],
      "name": "viewAllTokensEver",
      "outputs": [
        {
          "internalType": "address[]",
          "name": "",
          "type": "address[]"
        }
      ],
      "stateMutability": "view",
      "type": "function"
    },
    {
      "inputs": [
        {
          "internalType": "uint256",
          "name": "trancheId",
          "type": "uint256"
        }
      ],
      "name": "viewBorrowable",
      "outputs": [
        {
          "internalType": "uint256",
          "name": "borrowablePer10k",
          "type": "uint256"
        }
      ],
      "stateMutability": "view",
      "type": "function"
    },
    {
      "inputs": [
        {
          "internalType": "address",
          "name": "token",
          "type": "address"
        }
      ],
      "name": "viewEstimatedHarvestable",
      "outputs": [
        {
          "internalType": "uint256",
          "name": "",
          "type": "uint256"
        }
      ],
      "stateMutability": "view",
      "type": "function"
    },
    {
      "inputs": [
        {
          "internalType": "address",
          "name": "",
          "type": "address"
        }
      ],
      "name": "viewHarvestBalance2Tally",
      "outputs": [
        {
          "internalType": "uint256",
          "name": "",
          "type": "uint256"
        }
      ],
      "stateMutability": "view",
      "type": "function"
    },
    {
      "inputs": [
        {
          "internalType": "address",
          "name": "token",
          "type": "address"
        }
      ],
      "name": "viewSourceHarvestable",
      "outputs": [
        {
          "internalType": "uint256",
          "name": "",
          "type": "uint256"
        }
      ],
      "stateMutability": "view",
      "type": "function"
    },
    {
      "inputs": [
        {
          "internalType": "address",
          "name": "token",
          "type": "address"
        }
      ],
      "name": "viewStrategyMetadata",
      "outputs": [
        {
          "components": [
            {
              "internalType": "address",
              "name": "strategy",
              "type": "address"
            },
            {
              "internalType": "address",
              "name": "token",
              "type": "address"
            },
            {
              "internalType": "uint256",
              "name": "APF",
              "type": "uint256"
            },
            {
              "internalType": "uint256",
              "name": "totalCollateral",
              "type": "uint256"
            },
            {
              "internalType": "uint256",
              "name": "borrowablePer10k",
              "type": "uint256"
            },
            {
              "internalType": "uint256",
              "name": "valuePer1e18",
              "type": "uint256"
            },
            {
              "internalType": "bytes32",
              "name": "strategyName",
              "type": "bytes32"
            },
            {
              "internalType": "uint256",
              "name": "tvl",
              "type": "uint256"
            },
            {
              "internalType": "uint256",
              "name": "harvestBalance2Tally",
              "type": "uint256"
            },
            {
              "internalType": "enum IStrategy.YieldType",
              "name": "yieldType",
              "type": "uint8"
            },
            {
              "internalType": "uint256",
              "name": "stabilityFee",
              "type": "uint256"
            },
            {
              "internalType": "address",
              "name": "underlyingStrategy",
              "type": "address"
            }
          ],
          "internalType": "struct IStrategy.StrategyMetadata",
          "name": "",
          "type": "tuple"
        }
      ],
      "stateMutability": "view",
      "type": "function"
    },
    {
      "inputs": [
        {
          "internalType": "uint256",
          "name": "trancheId",
          "type": "uint256"
        }
      ],
      "name": "viewTargetCollateralAmount",
      "outputs": [
        {
          "internalType": "uint256",
          "name": "",
          "type": "uint256"
        }
      ],
      "stateMutability": "view",
      "type": "function"
    },
    {
      "inputs": [
        {
          "internalType": "address",
          "name": "token",
          "type": "address"
        }
      ],
      "name": "viewUnderlyingStrategy",
      "outputs": [
        {
          "internalType": "address",
          "name": "",
          "type": "address"
        }
      ],
      "stateMutability": "view",
      "type": "function"
    },
    {
      "inputs": [
        {
          "internalType": "uint256",
          "name": "trancheId",
          "type": "uint256"
        },
        {
          "internalType": "address",
          "name": "valueCurrency",
          "type": "address"
        }
      ],
      "name": "viewValue",
      "outputs": [
        {
          "internalType": "uint256",
          "name": "value",
          "type": "uint256"
        }
      ],
      "stateMutability": "view",
      "type": "function"
    },
    {
      "inputs": [
        {
          "internalType": "uint256",
          "name": "trancheId",
          "type": "uint256"
        },
        {
          "internalType": "address",
          "name": "valueCurrency",
          "type": "address"
        }
      ],
      "name": "viewValueBorrowable",
      "outputs": [
        {
          "internalType": "uint256",
          "name": "value",
          "type": "uint256"
        },
        {
          "internalType": "uint256",
          "name": "borrowable",
          "type": "uint256"
        }
      ],
      "stateMutability": "view",
      "type": "function"
    },
    {
      "inputs": [
        {
          "internalType": "uint256",
          "name": "trancheId",
          "type": "uint256"
        },
        {
          "internalType": "address",
          "name": "currency",
          "type": "address"
        }
      ],
      "name": "viewYield",
      "outputs": [
        {
          "internalType": "uint256",
          "name": "",
          "type": "uint256"
        }
      ],
      "stateMutability": "view",
      "type": "function"
    },
    {
      "inputs": [
        {
          "internalType": "uint256",
          "name": "trancheId",
          "type": "uint256"
        },
        {
          "internalType": "address",
          "name": "_yieldCurrency",
          "type": "address"
        },
        {
          "internalType": "address",
          "name": "valueCurrency",
          "type": "address"
        }
      ],
      "name": "viewYieldValueBorrowable",
      "outputs": [
        {
          "internalType": "uint256",
          "name": "yield",
          "type": "uint256"
        },
        {
          "internalType": "uint256",
          "name": "value",
          "type": "uint256"
        },
        {
          "internalType": "uint256",
          "name": "borrowablePer10k",
          "type": "uint256"
        }
      ],
      "stateMutability": "view",
      "type": "function"
    },
    {
      "inputs": [
        {
          "internalType": "uint256",
          "name": "trancheId",
          "type": "uint256"
        },
        {
          "internalType": "uint256",
          "name": "amount",
          "type": "uint256"
        },
        {
          "internalType": "address",
          "name": "yieldToken",
          "type": "address"
        },
        {
          "internalType": "address",
          "name": "recipient",
          "type": "address"
        }
      ],
      "name": "withdraw",
      "outputs": [],
      "stateMutability": "nonpayable",
      "type": "function"
    },
    {
      "inputs": [],
      "name": "withdrawAllFees",
      "outputs": [],
      "stateMutability": "nonpayable",
      "type": "function"
    },
    {
      "inputs": [
        {
          "internalType": "address",
          "name": "token",
          "type": "address"
        }
      ],
      "name": "withdrawFees",
      "outputs": [],
      "stateMutability": "nonpayable",
      "type": "function"
    },
    {
      "inputs": [],
      "name": "withdrawnFees",
      "outputs": [
        {
          "internalType": "uint256",
          "name": "",
          "type": "uint256"
        }
      ],
      "stateMutability": "view",
      "type": "function"
    },
    {
      "inputs": [
        {
          "internalType": "address",
          "name": "",
          "type": "address"
        }
      ],
      "name": "yakStrategy",
      "outputs": [
        {
          "internalType": "address",
          "name": "",
          "type": "address"
        }
      ],
      "stateMutability": "view",
      "type": "function"
    },
    {
      "inputs": [],
      "name": "yieldCurrency",
      "outputs": [
        {
          "internalType": "address",
          "name": "",
          "type": "address"
        }
      ],
      "stateMutability": "view",
      "type": "function"
    },
    {
      "inputs": [],
      "name": "yieldType",
      "outputs": [
        {
          "internalType": "enum IStrategy.YieldType",
          "name": "",
          "type": "uint8"
        }
      ],
      "stateMutability": "pure",
      "type": "function"
    },
    {
      "stateMutability": "payable",
      "type": "receive"
    }
  ],
  "bytecode": "0x60e06040526009805460ff191660011790556113886011556103e86018553480156200002a57600080fd5b5060405162005227380380620052278339810160408190526200004d91620002dd565b7f5969656c6459616b20636f6d706f756e64696e6700000000000000000000000081806001600160a01b038116620000d65760405162461bcd60e51b815260206004820152602260248201527f506c656173652070726f766964652076616c696420726f6c6573206164647265604482015261737360f01b606482015260840160405180910390fd5b60601b6001600160601b0319166080526002805460018082018355606a600080516020620052078339815191529283015560058054808301825560047f036b6384b5eca791c62761152d0c79bb0604c104a5fb6f4eb0703f3154bb3db09182018190558554808501875560669086015582548085019093559101849055835480830185556068908401556003805480840182557fc2575a0e9e593c00f959f8c92f12db2869c3395a3b0502d05e2516446f71f85b908101829055815480850190925501829055835491820184556000939093526069910181905560405163b4ed0b6d60e01b8152918201526001600160a01b0382169063b4ed0b6d9060240160206040518083038186803b158015620001ee57600080fd5b505afa15801562000203573d6000803e3d6000fd5b505050506040513d601f19601f82011682018060405250810190620002299190620002dd565b6001600160a01b031663fae794e66040518163ffffffff1660e01b815260040160206040518083038186803b1580156200026257600080fd5b505afa15801562000277573d6000803e3d6000fd5b505050506040513d601f19601f820116820180604052508101906200029d91906200030d565b60a052506001600881905560c09190915260028054918201815560005260676000805160206200520783398151915290910155506101f460115562000326565b600060208284031215620002ef578081fd5b81516001600160a01b038116811462000306578182fd5b9392505050565b6000602082840312156200031f578081fd5b5051919050565b60805160601c60a05160c051614e7d6200038a60003960008181610b65015261124f0152600061244c0152600081816105e001528181610f640152818161188401528181612d0601528181612d990152818161310d0152613a320152614e7d6000f3fe60806040526004361061032f5760003560e01c806301c7b9f8146103385780630581f3b51461036b57806306b8ce991461038b578063071060a6146103a05780630a3017d9146103c05780630ccc5bd6146103e05780630d74962814610400578063110acb2314610415578063164e68de1461044257806318af4c9e146104625780631dc3a759146104825780631f7ea881146104a357806321fa0f1f146104c357806322f3e2d4146104e55780632642b6061461050f57806326473a8f1461055d57806328f3fc7314610578578063296b122814610598578063392f5f64146105ce5780633a3db435146106025780633ace96ec14610622578063447d52ba14610642578063459ba1271461066257806349d4f22e146106825780634a7a7f41146106a25780634d578359146106c45780634d9d01b2146106f25780634df87c09146107075780636caa9c11146107275780636e1da41d146107475780636fecdf241461077457806371b3177a146107d95780637268d1c0146107f95780637a1a04df146108195780637b2c9279146108545780637dad209b146108695780638496e8911461087e57806389f117b3146108b95780639470505f1461055d57806395494bf5146108d95780639b0f09ae146109065780639fffe06414610922578063a4d77f9014610942578063a50233c914610977578063a51c8fab14610997578063abcbc4fc146109b9578063ad89b794146109d9578063aeb38d8b146109ee578063af236af414610a0e578063b06ea8f014610a23578063b23d66c214610a39578063b832799314610a7e578063bf184ea414610a9e578063c5c72dc314610abe578063cfbc531f14610ade578063d0d9ab5914610af4578063d241c9c014610b09578063d9cb512c14610b29578063dc94cb7d14610b3e578063e173ad2514610b53578063e22d284514610b87578063e2e730f614610bf0578063e8ea4fae14610c10578063e9c3f77d14610c25578063ee3e7b1014610c5b578063f725ed1014610c88578063f8903fb714610ca8578063f8d6a05d14610cc8578063fa98a4ba14610ce8578063fabee7db14610d08578063fac82e8c14610d28578063fd80d0c314610d4857610336565b3661033657005b005b34801561034457600080fd5b506103586103533660046147eb565b610d68565b6040519081526020015b60405180910390f35b34801561037757600080fd5b506103586103863660046145a6565b610d8d565b34801561039757600080fd5b50610358610f3d565b3480156103ac57600080fd5b506103366103bb3660046147bb565b610f4e565b3480156103cc57600080fd5b506103586103db3660046145a6565b611014565b3480156103ec57600080fd5b506103366103fb3660046146c0565b611032565b34801561040c57600080fd5b506103586110bb565b34801561042157600080fd5b506104356104303660046145a6565b6111b2565b6040516103629190614d1a565b34801561044e57600080fd5b5061033661045d3660046145a6565b6112b2565b34801561046e57600080fd5b5061033661047d3660046147eb565b6113d4565b34801561048e57600080fd5b5061035861049d3660046147bb565b50600090565b3480156104af57600080fd5b506103366104be366004614616565b61147e565b3480156104cf57600080fd5b506104d8611536565b6040516103629190614add565b3480156104f157600080fd5b506009546104ff9060ff1681565b6040519015158152602001610362565b34801561051b57600080fd5b5061055061052a3660046145de565b60066020908152600092835260408084209091529082529020546001600160a01b031681565b6040516103629190614a26565b34801561056957600080fd5b5061035861049d3660046145a6565b34801561058457600080fd5b506103366105933660046145de565b611608565b3480156105a457600080fd5b506105506105b33660046145a6565b6013602052600090815260409020546001600160a01b031681565b3480156105da57600080fd5b506105507f000000000000000000000000000000000000000000000000000000000000000081565b34801561060e57600080fd5b5061033661061d3660046147bb565b6116fb565b34801561062e57600080fd5b5061033661063d366004614616565b6117a2565b34801561064e57600080fd5b5061033661065d3660046147eb565b61186d565b34801561066e57600080fd5b5061033661067d36600461488c565b611943565b34801561068e57600080fd5b5061033661069d3660046146c0565b6119bc565b3480156106ae57600080fd5b506106b7611a3f565b6040516103629190614b20565b3480156106d057600080fd5b506106e46106df3660046145de565b611a97565b604051610362929190614b58565b3480156106fe57600080fd5b50610358611acf565b34801561071357600080fd5b506104ff6107223660046145a6565b611adb565b34801561073357600080fd5b506103586107423660046147bb565b611aee565b34801561075357600080fd5b506103586107623660046145a6565b60156020526000908152604090205481565b34801561078057600080fd5b506107b961078f3660046145a6565b60126020526000908152604090206001810154600282015460038301546004909301549192909184565b604080519485526020850193909352918301526060820152608001610362565b3480156107e557600080fd5b506103366107f43660046148e8565b611b0f565b34801561080557600080fd5b506103586108143660046147bb565b611be8565b34801561082557600080fd5b506104ff610834366004614695565b600160209081526000928352604080842090915290825290205460ff1681565b34801561086057600080fd5b50610550611c0e565b34801561087557600080fd5b506106b7611c18565b34801561088a57600080fd5b5061089e610899366004614845565b611c6e565b60408051938452602084019290925290820152606001610362565b3480156108c557600080fd5b506103366108d43660046145a6565b611d89565b3480156108e557600080fd5b506103586108f43660046147bb565b60146020526000908152604090205481565b34801561091257600080fd5b5060016040516103629190614b73565b34801561092e57600080fd5b5061033661093d3660046145de565b611e15565b34801561094e57600080fd5b5061096261095d3660046147eb565b611f21565b60408051928352602083019190915201610362565b34801561098357600080fd5b50610336610992366004614752565b611f4a565b3480156109a357600080fd5b506109ac61200b565b6040516103629190614a90565b3480156109c557600080fd5b506103586109d43660046147bb565b612017565b3480156109e557600080fd5b506104d8612027565b3480156109fa57600080fd5b50610358610a093660046147bb565b6120f2565b348015610a1a57600080fd5b50610336612102565b348015610a2f57600080fd5b5061035860115481565b348015610a4557600080fd5b50610a59610a54366004614845565b612144565b604080516001600160a01b039094168452602084019290925290820152606001610362565b348015610a8a57600080fd5b50610336610a99366004614701565b612257565b348015610aaa57600080fd5b50610358610ab93660046147bb565b612310565b348015610aca57600080fd5b50610358610ad93660046147bb565b612320565b348015610aea57600080fd5b5061035860175481565b348015610b0057600080fd5b506109ac612438565b348015610b1557600080fd5b50610550610b243660046147bb565b612444565b348015610b3557600080fd5b506109ac61253e565b348015610b4a57600080fd5b506106b761254a565b348015610b5f57600080fd5b506103587f000000000000000000000000000000000000000000000000000000000000000081565b348015610b9357600080fd5b50610bcc610ba23660046147bb565b6010602052600090815260409020805460018201546002909201549091906001600160a01b031683565b6040805193845260208401929092526001600160a01b031690820152606001610362565b348015610bfc57600080fd5b50610358610c0b3660046145a6565b6125a0565b348015610c1c57600080fd5b506106b76126a7565b348015610c3157600080fd5b50610550610c403660046147bb565b6000602081905290815260409020546001600160a01b031681565b348015610c6757600080fd5b50610358610c763660046145a6565b60166020526000908152604090205481565b348015610c9457600080fd5b50610550610ca33660046145a6565b6126fd565b348015610cb457600080fd5b50610358610cc336600461480f565b61271b565b348015610cd457600080fd5b50610358610ce33660046145a6565b61280e565b348015610cf457600080fd5b5061089e610d0336600461480f565b612824565b348015610d1457600080fd5b50610550610d233660046147bb565b61285f565b348015610d3457600080fd5b50610336610d433660046145a6565b61287d565b348015610d5457600080fd5b50610358610d633660046147eb565b612a38565b6000610d85610d768461285f565b610d7f85612320565b84612a7c565b509392505050565b6001600160a01b038082166000908152601360209081526040808320548151630173caf760e71b81529151939416928492849263b9e57b809260048083019392829003018186803b158015610de157600080fd5b505afa158015610df5573d6000803e3d6000fd5b505050506040513d601f19601f82011682018060405250810190610e1991906147d3565b90506000826001600160a01b03166318160ddd6040518163ffffffff1660e01b815260040160206040518083038186803b158015610e5657600080fd5b505afa158015610e6a573d6000803e3d6000fd5b505050506040513d601f19601f82011682018060405250810190610e8e91906147d3565b6040516370a0823160e01b815283906001600160a01b038616906370a0823190610ebc903090600401614a26565b60206040518083038186803b158015610ed457600080fd5b505afa158015610ee8573d6000803e3d6000fd5b505050506040513d601f19601f82011682018060405250810190610f0c91906147d3565b610f169190614d55565b610f209190614d41565b9050610f348582610f2f611c0e565b612bc1565b95945050505050565b6000610f49600c612cf8565b905090565b60405163b4ed0b6d60e01b8152600481018290527f00000000000000000000000000000000000000000000000000000000000000006001600160a01b03169063b4ed0b6d9060240160206040518083038186803b158015610fae57600080fd5b505afa158015610fc2573d6000803e3d6000fd5b505050506040513d601f19601f82011682018060405250810190610fe691906145c2565b60009182526020829052604090912080546001600160a01b0319166001600160a01b03909216919091179055565b6001600160a01b031660009081526012602052604090206004015490565b3361103b612d02565b6001600160a01b0316148061105f575033611054612d95565b6001600160a01b0316145b6110845760405162461bcd60e51b815260040161107b90614b94565b60405180910390fd5b6001600160a01b0381166110aa5760405162461bcd60e51b815260040161107b90614c78565b6110b5818484612e06565b50505050565b6000805b806110ca600e612cf8565b11156111a45760006110dd600e83613041565b6001600160a01b0381811660009081526013602090815260408083205460169092529182902054915163755c4d2d60e11b81526004810192909252929350611184928492169063eab89a5a9060240160206040518083038186803b15801561114457600080fd5b505afa158015611158573d6000803e3d6000fd5b505050506040513d601f19601f8201168201806040525081019061117c91906147d3565b610f2f611c0e565b61118e9084614d29565b925050808061119c90614db7565b9150506110bf565b50601754610f499082614d29565b6111ba614511565b6000806111d784670de0b6b3a76400006111d261304d565b612a7c565b91509150604051806101800160405280306001600160a01b03168152602001856001600160a01b0316815260200161120e86611014565b815260200160126000876001600160a01b03166001600160a01b031681526020019081526020016000206002015481526020018281526020018381526020017f0000000000000000000000000000000000000000000000000000000000000000815260200161127c866125a0565b815260006020820152604001600181526020016000815260200161129f866126fd565b6001600160a01b03169052949350505050565b6001600160a01b03818116600090815260136020908152604080832054601690925280832054905163755c4d2d60e11b815260048101919091529192169063eab89a5a9060240160206040518083038186803b15801561131157600080fd5b505afa158015611325573d6000803e3d6000fd5b505050506040513d601f19601f8201168201806040525081019061134991906147d3565b9050611390611389606760009081526020527f682158d08466d11c566d5712d4396197fdd67e65be71d83c97ef719ec468867b546001600160a01b031690565b8383612e06565b506113a3828261139e611c0e565b613085565b601760008282546113b49190614d29565b9091555050506001600160a01b0316600090815260166020526040812055565b336113dd612d02565b6001600160a01b031614806114015750336113f6612d95565b6001600160a01b0316145b61141d5760405162461bcd60e51b815260040161107b90614b94565b6001600160a01b0381166114435760405162461bcd60e51b815260040161107b90614c78565b6040516001600160a01b0382169083156108fc029084906000818181858888f19350505050158015611479573d6000803e3d6000fd5b505050565b33611487612d02565b6001600160a01b031614806114ab5750336114a0612d95565b6001600160a01b0316145b806114ba57506114ba336130f3565b6115165760405162461bcd60e51b81526020600482015260396024820152600080516020614e28833981519152604482015278391037b91030baba3437b934bd32b21030b1ba34bb30ba37b960391b606482015260840161107b565b611521838383613196565b6110b583670de0b6b3a764000061139e61304d565b60606000611544600a612cf8565b90506000816001600160401b0381111561156e57634e487b7160e01b600052604160045260246000fd5b6040519080825280602002602001820160405280156115a757816020015b611594614511565b81526020019060019003908161158c5790505b50905060005b80831115611601576115c3610430600a83613041565b8282815181106115e357634e487b7160e01b600052603260045260246000fd5b602002602001018190525080806115f990614db7565b9150506115ad565b5091505090565b6001600160a01b038281166000908152600660209081526040808320858516845290915290205416156116f75761163d6133b8565b6001600160a01b0316635e73a03483836040518363ffffffff1660e01b815260040161166a929190614a3a565b60206040518083038186803b15801561168257600080fd5b505afa158015611696573d6000803e3d6000fd5b505050506040513d601f19601f820116820180604052508101906116ba91906145c2565b6001600160a01b0383811660009081526006602090815260408083208685168452909152902080546001600160a01b031916929091169190911790555b5050565b33611704612d02565b6001600160a01b0316148061172857503361171d612d95565b6001600160a01b0316145b6117445760405162461bcd60e51b815260040161107b90614b94565b601181905560408051818152600d818301526c61706620736d6f6f7468696e6760981b60608201526020810183905290517f3a64504f0bc0c335e2aecb78638a257e0351a3fe0370861fd54ee4190b9209339181900360800190a150565b336117ab612d02565b6001600160a01b031614806117cf5750336117c4612d95565b6001600160a01b0316145b6117eb5760405162461bcd60e51b815260040161107b90614b94565b6117f6600a846133f0565b50611802600c84613405565b5061180b61341a565b6001600160a01b03166311848c45306040518263ffffffff1660e01b81526004016118369190614a26565b600060405180830381600087803b15801561185057600080fd5b505af1158015611864573d6000803e3d6000fd5b50505050505050565b60405163f0723d9760e01b81526001600160a01b037f0000000000000000000000000000000000000000000000000000000000000000169063f0723d97906118bb9084908690600401614a54565b60206040518083038186803b1580156118d357600080fd5b505afa1580156118e7573d6000803e3d6000fd5b505050506040513d601f19601f8201168201806040525081019061190b919061479b565b6001600160a01b0391909116600090815260016020908152604080832094835293905291909120805460ff1916911515919091179055565b600260085414156119665760405162461bcd60e51b815260040161107b90614cac565b600260085561197485612444565b6001600160a01b0316336001600160a01b0316146119a45760405162461bcd60e51b815260040161107b90614c45565b6119b084868584613452565b50506001600855505050565b336119c5612d02565b6001600160a01b031614806119e95750336119de612d95565b6001600160a01b0316145b611a055760405162461bcd60e51b815260040161107b90614b94565b6001600160a01b038116611a2b5760405162461bcd60e51b815260040161107b90614c78565b6114796001600160a01b03841682846134a2565b60606003805480602002602001604051908101604052809291908181526020018280548015611a8d57602002820191906000526020600020905b815481526020019060010190808311611a79575b5050505050905090565b60006060611aa484611adb565b83604051602001611ab59190614a26565b604051602081830303815290604052915091509250929050565b6000610f49600a612cf8565b6000611ae8600a836134f8565b92915050565b60058181548110611afe57600080fd5b600091825260209091200154905081565b60095460ff16611b315760405162461bcd60e51b815260040161107b90614c15565b60026008541415611b545760405162461bcd60e51b815260040161107b90614cac565b6002600855611b623361350d565b611bab5760405162461bcd60e51b815260206004820152601a6024820152794e6f7420617574686f72697a656420746f20776974686472617760301b604482015260640161107b565b6001600160a01b038116611bd15760405162461bcd60e51b815260040161107b90614c78565b611bdd84848484613536565b505060016008555050565b6000611c07611bf68361285f565b611bff84612320565b6111d2611c0e565b9392505050565b6000610f4961304d565b60606004805480602002602001604051908101604052809291908181526020018280548015611a8d5760200282019190600052602060002090815481526020019060010190808311611a79575050505050905090565b600080600060026008541415611c965760405162461bcd60e51b815260040161107b90614cac565b6002600855611ca43361350d565b80611d305750611cb387612444565b6001600160a01b0316632972b0f033896040518363ffffffff1660e01b8152600401611ce0929190614a54565b60206040518083038186803b158015611cf857600080fd5b505afa158015611d0c573d6000803e3d6000fd5b505050506040513d601f19601f82011682018060405250810190611d30919061479b565b611d4c5760405162461bcd60e51b815260040161107b90614ce3565b611d578787866135fd565b9250611d74611d658861285f565b611d6e89612320565b87613852565b60016008559398909750929550919350505050565b60026008541415611dac5760405162461bcd60e51b815260040161107b90614cac565b60026008556001600160a01b03808216600090815260136020526040808220548151637edad01f60e11b8152915193169263fdb5a03e9260048084019391929182900301818387803b158015611e0157600080fd5b505af11580156119b0573d6000803e3d6000fd5b33611e1e612d02565b6001600160a01b03161480611e42575033611e37612d95565b6001600160a01b0316145b611e5e5760405162461bcd60e51b815260040161107b90614b94565b6001600160a01b038281166000908152601360205260409020541615611e965760405162461bcd60e51b815260040161107b90614bde565b6001600160a01b0382811660008181526013602090815260409182902080546001600160a01b031916948616949094179093558051818152600c918101919091526b79616b20737472617465677960a01b6060820152918201527fbd64fae90eab1019a6c354538cfa598ad3d642c5b1bc8a8613bcb716723fa2d79060800160405180910390a15050565b600080611f3f611f308561285f565b611f3986612320565b85612a7c565b915091509250929050565b60095460ff16611f6c5760405162461bcd60e51b815260040161107b90614c15565b60026008541415611f8f5760405162461bcd60e51b815260040161107b90614cac565b6002600855611f9d3361350d565b611ff75760405162461bcd60e51b815260206004820152602560248201527f4e6f7420617574686f72697a656420746f207472616e7366657220757365722060448201526466756e647360d81b606482015260840161107b565b611bdd848484612005611c0e565b856138c1565b6060610f49600a61395f565b60028181548110611afe57600080fd5b60606000612035600c612cf8565b90506000816001600160401b0381111561205f57634e487b7160e01b600052604160045260246000fd5b60405190808252806020026020018201604052801561209857816020015b612085614511565b81526020019060019003908161207d5790505b50905060005b80831115611601576120b4610430600c83613041565b8282815181106120d457634e487b7160e01b600052603260045260246000fd5b602002602001018190525080806120ea90614db7565b91505061209e565b60048181548110611afe57600080fd5b60005b80612110600e612cf8565b1115612141576000612123600e83613041565b905061212e816112b2565b508061213981614db7565b915050612105565b50565b6009546000908190819060ff1661216d5760405162461bcd60e51b815260040161107b90614c15565b61217687612444565b6001600160a01b0316336001600160a01b0316146121a65760405162461bcd60e51b815260040161107b90614c45565b60006121b18861285f565b905060006121be89612320565b90506121cb8988886135fd565b5060006121d9308484612e06565b90506121ef6001600160a01b0384168a8361396c565b6001600160a01b0383166000908152601260205260408120600201805483929061221a908490614d74565b90915550506000998a52601060205260408a208a8155600181018b905560020180546001600160a01b031916905591999197509095505050505050565b60095460ff166122795760405162461bcd60e51b815260040161107b90614c15565b6002600854141561229c5760405162461bcd60e51b815260040161107b90614cac565b60026008556122aa3361350d565b80156122c65750336122bb85612444565b6001600160a01b0316145b6123045760405162461bcd60e51b815260206004820152600f60248201526e496e76616c6964207472616e63686560881b604482015260640161107b565b6119b085858584613452565b60038181548110611afe57600080fd5b6000818152601060209081526040808320805460028201546001600160a01b0390811686526013855283862054878752601490955283862054935163755c4d2d60e11b8152929491938693929091169163eab89a5a916123869160040190815260200190565b60206040518083038186803b15801561239e57600080fd5b505afa1580156123b2573d6000803e3d6000fd5b505050506040513d601f19601f820116820180604052508101906123d691906147d3565b905060006018546127106123ea9190614d74565b90506127106123f98285614d55565b6124039190614d41565b6127106124108385614d55565b61241a9190614d41565b6124249085614d29565b61242e9190614d74565b9695505050505050565b6060610f49600c61395f565b6000806124717f000000000000000000000000000000000000000000000000000000000000000084614dd2565b6000818152600760205260409020549091506001600160a01b031680611c0757606960009081526020527f366a7b92acda364086cc991f618bf9f10b629ec0f7ae94543f96b691b69ec9925460405163043b4d2f60e51b8152600481018490526001600160a01b0390911690638769a5e09060240160206040518083038186803b1580156124fe57600080fd5b505afa158015612512573d6000803e3d6000fd5b505050506040513d601f19601f8201168201806040525081019061253691906145c2565b949350505050565b6060610f49600e61395f565b60606002805480602002602001604051908101604052809291908181526020018280548015611a8d5760200282019190600052602060002090815481526020019060010190808311611a79575050505050905090565b6001600160a01b038082166000908152601360205260408082205490516370a0823160e01b815291921690819063eab89a5a9082906370a08231906125e9903090600401614a26565b60206040518083038186803b15801561260157600080fd5b505afa158015612615573d6000803e3d6000fd5b505050506040513d601f19601f8201168201806040525081019061263991906147d3565b6040518263ffffffff1660e01b815260040161265791815260200190565b60206040518083038186803b15801561266f57600080fd5b505afa158015612683573d6000803e3d6000fd5b505050506040513d601f19601f82011682018060405250810190611c0791906147d3565b60606005805480602002602001604051908101604052809291908181526020018280548015611a8d5760200282019190600052602060002090815481526020019060010190808311611a79575050505050905090565b6001600160a01b039081166000908152601360205260409020541690565b6000600260085414156127405760405162461bcd60e51b815260040161107b90614cac565b600260085561274e3361350d565b806127da575061275d84612444565b6001600160a01b0316632972b0f033866040518363ffffffff1660e01b815260040161278a929190614a54565b60206040518083038186803b1580156127a257600080fd5b505afa1580156127b6573d6000803e3d6000fd5b505050506040513d601f19601f820116820180604052508101906127da919061479b565b6127f65760405162461bcd60e51b815260040161107b90614ce3565b6128018484846135fd565b6001600855949350505050565b600061281982610d8d565b611ae8906000614d29565b60008060006128338686612a38565b92506128506128418761285f565b61284a88612320565b86612a7c565b93979096509294509192505050565b6000908152601060205260409020600201546001600160a01b031690565b60095460ff1661289f5760405162461bcd60e51b815260040161107b90614c15565b336128a8612d02565b6001600160a01b031614806128cc5750336128c1612d95565b6001600160a01b0316145b806128e65750336128db613a18565b6001600160a01b0316145b6129415760405162461bcd60e51b81526020600482015260386024820152600080516020614e28833981519152604482015277391037b91030baba3437b934bd32b2103234b9b0b13632b960411b606482015260840161107b565b60005b8061294f600e612cf8565b1115612a2a576000612962600e83613041565b9050600061296f826125a0565b9050600061297b61341a565b9050612988818484612e06565b5061299e6001600160a01b038416826000613a7c565b6129b46001600160a01b03841682600019613a7c565b60405163269974d160e21b81526001600160a01b03821690639a65d344906129e29088908790600401614a3a565b600060405180830381600087803b1580156129fc57600080fd5b505af1158015612a10573d6000803e3d6000fd5b505050505050508080612a2290614db7565b915050612944565b50506009805460ff19169055565b600082815260106020526040812061253681601284612a568861285f565b6001600160a01b03166001600160a01b0316815260200190815260200160002085613b8e565b6001600160a01b0380841660009081526006602090815260408083208585168452909152812054909182911680612b3557612ab56133b8565b6001600160a01b0316635e73a03487866040518363ffffffff1660e01b8152600401612ae2929190614a3a565b60206040518083038186803b158015612afa57600080fd5b505afa158015612b0e573d6000803e3d6000fd5b505050506040513d601f19601f82011682018060405250810190612b3291906145c2565b90505b6040516313f3552960e21b81526001600160a01b03821690634fcd54a490612b6590899089908990600401614a6d565b604080518083038186803b158015612b7c57600080fd5b505afa158015612b90573d6000803e3d6000fd5b505050506040513d601f19601f82011682018060405250810190612bb491906148c5565b9097909650945050505050565b6001600160a01b038084166000908152600660209081526040808320858516845290915281205490911680612c7857612bf86133b8565b6001600160a01b0316635e73a03486856040518363ffffffff1660e01b8152600401612c25929190614a3a565b60206040518083038186803b158015612c3d57600080fd5b505afa158015612c51573d6000803e3d6000fd5b505050506040513d601f19601f82011682018060405250810190612c7591906145c2565b90505b6040516323aaad6360e21b81526001600160a01b03821690638eaab58c90612ca890889088908890600401614a6d565b60206040518083038186803b158015612cc057600080fd5b505afa158015612cd4573d6000803e3d6000fd5b505050506040513d601f19601f82011682018060405250810190610f3491906147d3565b6000611ae8825490565b60007f00000000000000000000000000000000000000000000000000000000000000006001600160a01b0316638da5cb5b6040518163ffffffff1660e01b815260040160206040518083038186803b158015612d5d57600080fd5b505afa158015612d71573d6000803e3d6000fd5b505050506040513d601f19601f82011682018060405250810190610f4991906145c2565b60007f00000000000000000000000000000000000000000000000000000000000000006001600160a01b031663c34c08e56040518163ffffffff1660e01b8152600401602060405180830381600087803b158015612df257600080fd5b505af1158015612d71573d6000803e3d6000fd5b60006001600160a01b038416612e2e5760405162461bcd60e51b815260040161107b90614c78565b6001600160a01b03838116600090815260136020526040808220549051636ec6726b60e11b815260048101869052921691829063dd8ce4d69060240160206040518083038186803b158015612e8257600080fd5b505afa158015612e96573d6000803e3d6000fd5b505050506040513d601f19601f82011682018060405250810190612eba91906147d3565b90506000856001600160a01b03166370a08231306040518263ffffffff1660e01b8152600401612eea9190614a26565b60206040518083038186803b158015612f0257600080fd5b505afa158015612f16573d6000803e3d6000fd5b505050506040513d601f19601f82011682018060405250810190612f3a91906147d3565b604051632e1a7d4d60e01b8152600481018490529091506001600160a01b03841690632e1a7d4d90602401600060405180830381600087803b158015612f7f57600080fd5b505af1158015612f93573d6000803e3d6000fd5b50505050600081876001600160a01b03166370a08231306040518263ffffffff1660e01b8152600401612fc69190614a26565b60206040518083038186803b158015612fde57600080fd5b505afa158015612ff2573d6000803e3d6000fd5b505050506040513d601f19601f8201168201806040525081019061301691906147d3565b6130209190614d74565b90506130366001600160a01b03881689836134a2565b979650505050505050565b6000611c078383613ca8565b606660009081526020527f422cccb7cea5c0e46f340bb7b21b81debac329f72e31669c20ff0f3a05cc2b5b546001600160a01b031690565b6000806130928584613ce0565b604051630576cbc360e41b81529091506001600160a01b0382169063576cbc30906130c590889088908890600401614a6d565b602060405180830381600087803b1580156130df57600080fd5b505af1158015612cd4573d6000803e3d6000fd5b60405163f0723d9760e01b81526000906001600160a01b037f0000000000000000000000000000000000000000000000000000000000000000169063f0723d97906131469085906103eb90600401614a54565b60206040518083038186803b15801561315e57600080fd5b505afa158015613172573d6000803e3d6000fd5b505050506040513d601f19601f82011682018060405250810190611ae8919061479b565b60006131a4828401846145a6565b9050836001600160a01b0316816001600160a01b031663c89039c56040518163ffffffff1660e01b815260040160206040518083038186803b1580156131e957600080fd5b505afa1580156131fd573d6000803e3d6000fd5b505050506040513d601f19601f8201168201806040525081019061322191906145c2565b6001600160a01b0316146132945760405162461bcd60e51b815260206004820152603460248201527f50726f76696465642079616b20737472617465677920646f6573206e6f742074604482015273185ad9481d1bdad95b88185cc819195c1bdcda5d60621b606482015260840161107b565b6001600160a01b038481166000908152601360205260409020541615806132d757506001600160a01b038481166000908152601360205260409020548116908216145b6132f35760405162461bcd60e51b815260040161107b90614bde565b6001600160a01b038481166000908152601360205260409081902080546001600160a01b03191692841692831790555163755c4d2d60e11b8152670de0b6b3a7640000600482015263eab89a5a9060240160206040518083038186803b15801561335c57600080fd5b505afa158015613370573d6000803e3d6000fd5b505050506040513d601f19601f8201168201806040525081019061339491906147d3565b6001600160a01b0385166000908152601560205260409020556110b5848484613d94565b606a60009081526020527ff3261457f4fd0b7c00a1511877ab27b74183ac470be8db3a7ecdc64335f6f979546001600160a01b031690565b6000611c07836001600160a01b038416613de7565b6000611c07836001600160a01b038416613f04565b606860009081526020527faa071f48f62aaaa1f6320aaa7bd2ad2d552d05160892c14d699d38c9920d5f99546001600160a01b031690565b6001600160a01b0382166000908152601260209081526040808320805487855260109093529220600101556134878484613f4e565b61349b858584613495611c0e565b896138c1565b5050505050565b6114798363a9059cbb60e01b84846040516024016134c1929190614a54565b60408051601f198184030181529190526020810180516001600160e01b03166001600160e01b031990931692909217909152613fce565b6000611c07836001600160a01b0384166140a0565b6001600160a01b0316600090815260016020818152604080842092845291905290205460ff1690565b60008481526010602052604081209061354e8661285f565b905061355b8685856135fd565b5061356e8561356988612320565b6140b8565b945061357b838287612e06565b50848260000160008282546135909190614d74565b90915550506001600160a01b0381166000908152601260205260408120600281018054919288926135c2908490614d74565b90915550506001830154815411156135ee57858160010160008282546135e89190614d74565b90915550505b611864878385600001546140d0565b60008381526010602052604081208054156138475760028101546001600160a01b031660008181526012602052604081209061363888612320565b84546001600160a01b03858116600090815260136020526040808220549051636ec6726b60e11b815260048101869052949550929390929091169063dd8ce4d69060240160206040518083038186803b15801561369457600080fd5b505afa1580156136a8573d6000803e3d6000fd5b505050506040513d601f19601f820116820180604052508101906136cc91906147d3565b60008b8152601460205260409020549091508181111561371e576136f08282614d74565b6001600160a01b03871660009081526016602052604081208054909190613718908490614d29565b90915550505b6001600160a01b0386811660009081526013602052604080822054905163755c4d2d60e11b8152670de0b6b3a764000060048201529192169063eab89a5a9060240160206040518083038186803b15801561377857600080fd5b505afa15801561378c573d6000803e3d6000fd5b505050506040513d601f19601f820116820180604052508101906137b091906147d3565b6001600160a01b0388166000908152601560205260409020549091506137ef88828410156137df5760016137e9565b6137e98385614d74565b83614188565b6001600160a01b03881660009081526015602052604090208290556002870154859061381c908890614d29565b6138269190614d74565b60029097019690965550509185555060008881526014602052604090205550505b506000949350505050565b60008060006138618685613ce0565b60405163442fd02b60e11b81529091506001600160a01b0382169063885fa0569061389490899089908990600401614a6d565b6040805180830381600087803b1580156138ad57600080fd5b505af1158015612b90573d6000803e3d6000fd5b60006138cc8561285f565b90506138d98584846135fd565b506138e5868286614289565b6000858152601060205260409020546138fe8582614d29565b6000878152601060209081526040808320939093556001600160a01b0385168252601290529081206002810180549192889261393b908490614d29565b90915550613955905087846139508986614d29565b6140d0565b5050505050505050565b60606000611c078361431d565b600081846001600160a01b031663dd62ed3e30866040518363ffffffff1660e01b815260040161399d929190614a3a565b60206040518083038186803b1580156139b557600080fd5b505afa1580156139c9573d6000803e3d6000fd5b505050506040513d601f19601f820116820180604052508101906139ed91906147d3565b6139f79190614d29565b90506110b58463095ea7b360e01b85846040516024016134c1929190614a54565b60405163b4ed0b6d60e01b81526103e960048201526000907f00000000000000000000000000000000000000000000000000000000000000006001600160a01b03169063b4ed0b6d9060240160206040518083038186803b158015612d5d57600080fd5b801580613b045750604051636eb1769f60e11b81526001600160a01b0384169063dd62ed3e90613ab29030908690600401614a3a565b60206040518083038186803b158015613aca57600080fd5b505afa158015613ade573d6000803e3d6000fd5b505050506040513d601f19601f82011682018060405250810190613b0291906147d3565b155b613b6f5760405162461bcd60e51b815260206004820152603660248201527f5361666545524332303a20617070726f76652066726f6d206e6f6e2d7a65726f60448201527520746f206e6f6e2d7a65726f20616c6c6f77616e636560501b606482015260840161107b565b6114798363095ea7b360e01b84846040516024016134c1929190614a54565b6000613b98611c0e565b6001600160a01b0316826001600160a01b031614613bef5760405162461bcd60e51b815260206004820152601460248201527357726f6e67207969656c642063757272656e637960601b604482015260640161107b565b6001840154835484911015613c9e57600081866001015481548110613c2457634e487b7160e01b600052603260045260246000fd5b90600052602060002001548260018480549050613c419190614d74565b81548110613c5f57634e487b7160e01b600052603260045260246000fd5b9060005260206000200154613c749190614d74565b9050600160401b818760000154613c8b9190614d55565b613c959190614d41565b92505050611c07565b6000915050611c07565b6000826000018281548110613ccd57634e487b7160e01b600052603260045260246000fd5b9060005260206000200154905092915050565b6001600160a01b03808316600090815260066020908152604080832085851684529091529020541680611ae857613d156133b8565b6001600160a01b0316631757616884846040518363ffffffff1660e01b8152600401613d42929190614a3a565b602060405180830381600087803b158015613d5c57600080fd5b505af1158015613d70573d6000803e3d6000fd5b505050506040513d601f19601f82011682018060405250810190611c0791906145c2565b613d9f600a84613405565b50613dab600c846133f0565b50613db7600e84613405565b506001600160a01b038316600090815260126020526040902061271060048201554260039091015561180b61341a565b60008181526001830160205260408120548015613efa576000613e0b600183614d74565b8554909150600090613e1f90600190614d74565b9050818114613ea0576000866000018281548110613e4d57634e487b7160e01b600052603260045260246000fd5b9060005260206000200154905080876000018481548110613e7e57634e487b7160e01b600052603260045260246000fd5b6000918252602080832090910192909255918252600188019052604090208390555b8554869080613ebf57634e487b7160e01b600052603160045260246000fd5b600190038181906000526020600020016000905590558560010160008681526020019081526020016000206000905560019350505050611ae8565b6000915050611ae8565b6000613f1083836140a0565b613f4657508154600181810184556000848152602080822090930184905584548482528286019093526040902091909155611ae8565b506000611ae8565b613f59600a826134f8565b613f9d5760405162461bcd60e51b81526020600482015260156024820152742737ba1030b71030b8383937bb32b2103a37b5b2b760591b604482015260640161107b565b60009182526010602052604090912060020180546001600160a01b0319166001600160a01b03909216919091179055565b6000614023826040518060400160405280602081526020017f5361666545524332303a206c6f772d6c6576656c2063616c6c206661696c6564815250856001600160a01b03166143799092919063ffffffff16565b8051909150156114795780806020019051810190614041919061479b565b6114795760405162461bcd60e51b815260206004820152602a60248201527f5361666545524332303a204552433230206f7065726174696f6e20646964206e6044820152691bdd081cdd58d8d9595960b21b606482015260840161107b565b60009081526001919091016020526040902054151590565b6000818311156140c9575080611ae8565b5081611ae8565b8015614175576001600160a01b0382811660009081526013602052604090819020549051636ec6726b60e11b81526004810184905291169063dd8ce4d69060240160206040518083038186803b15801561412957600080fd5b505afa15801561413d573d6000803e3d6000fd5b505050506040513d601f19601f8201168201806040525081019061416191906147d3565b600084815260146020526040902055611479565b5050600090815260146020526040812055565b6001600160a01b038316600090815260126020526040902082158015906141b25750428160030154105b156110b55760038101546000816141cc5762093a806141d6565b6141d68242614d74565b9050600081856141e68189614d29565b6141f290612710614d55565b614200906301e13380614d55565b61420a9190614d41565b6142149190614d41565b9050600080841161422657600061422a565b6011545b90506127106142398282614d74565b6142439084614d55565b61424d9190614d41565b6127108287600401546142609190614d55565b61426a9190614d41565b6142749190614d29565b60048601555050426003840155505050505050565b61429e6001600160a01b038316843084614388565b6001600160a01b03808316600081815260136020526040902054909116906142c790828461396c565b60405163b6b55f2560e01b8152600481018390526001600160a01b0382169063b6b55f2590602401600060405180830381600087803b15801561430957600080fd5b505af1158015613955573d6000803e3d6000fd5b60608160000180548060200260200160405190810160405280929190818152602001828054801561436d57602002820191906000526020600020905b815481526020019060010190808311614359575b50505050509050919050565b606061253684846000856143c0565b6040516001600160a01b03808516602483015283166044820152606481018290526110b59085906323b872dd60e01b906084016134c1565b6060824710156144215760405162461bcd60e51b815260206004820152602660248201527f416464726573733a20696e73756666696369656e742062616c616e636520666f6044820152651c8818d85b1b60d21b606482015260840161107b565b843b61446f5760405162461bcd60e51b815260206004820152601d60248201527f416464726573733a2063616c6c20746f206e6f6e2d636f6e7472616374000000604482015260640161107b565b600080866001600160a01b0316858760405161448b9190614a0a565b60006040518083038185875af1925050503d80600081146144c8576040519150601f19603f3d011682016040523d82523d6000602084013e6144cd565b606091505b5091509150613036828286606083156144e7575081611c07565b8251156144f75782518084602001fd5b8160405162461bcd60e51b815260040161107b9190614b81565b60405180610180016040528060006001600160a01b0316815260200160006001600160a01b03168152602001600081526020016000815260200160008152602001600081526020016000801916815260200160008152602001600081526020016000600281111561459257634e487b7160e01b600052602160045260246000fd5b815260006020820181905260409091015290565b6000602082840312156145b7578081fd5b8135611c0781614e12565b6000602082840312156145d3578081fd5b8151611c0781614e12565b600080604083850312156145f0578081fd5b82356145fb81614e12565b9150602083013561460b81614e12565b809150509250929050565b60008060006040848603121561462a578081fd5b833561463581614e12565b925060208401356001600160401b0380821115614650578283fd5b818601915086601f830112614663578283fd5b813581811115614671578384fd5b876020828501011115614682578384fd5b6020830194508093505050509250925092565b600080604083850312156146a7578182fd5b82356146b281614e12565b946020939093013593505050565b6000806000606084860312156146d4578283fd5b83356146df81614e12565b92506020840135915060408401356146f681614e12565b809150509250925092565b600080600080600060a08688031215614718578081fd5b853561472381614e12565b945060208601359350604086013561473a81614e12565b94979396509394606081013594506080013592915050565b60008060008060808587031215614767578384fd5b843561477281614e12565b93506020850135925060408501359150606085013561479081614e12565b939692955090935050565b6000602082840312156147ac578081fd5b81518015158114611c07578182fd5b6000602082840312156147cc578081fd5b5035919050565b6000602082840312156147e4578081fd5b5051919050565b600080604083850312156147fd578182fd5b82359150602083013561460b81614e12565b600080600060608486031215614823578283fd5b83359250602084013561483581614e12565b915060408401356146f681614e12565b6000806000806080858703121561485a578182fd5b84359350602085013561486c81614e12565b9250604085013561487c81614e12565b9150606085013561479081614e12565b600080600080600060a086880312156148a3578283fd5b8535945060208601356148b581614e12565b9350604086013561473a81614e12565b600080604083850312156148d7578182fd5b505080516020909101519092909150565b600080600080608085870312156148fd578182fd5b8435935060208501359250604085013561487c81614e12565b6001600160a01b03169052565b6000815180845261493b816020860160208601614d8b565b601f01601f19169290920160200192915050565b6003811061496d57634e487b7160e01b600052602160045260246000fd5b9052565b61497c828251614916565b602081015161498e6020840182614916565b5060408101516040830152606081015160608301526080810151608083015260a081015160a083015260c081015160c083015260e081015160e0830152610100808201518184015250610120808201516149ea8285018261494f565b50506101408181015190830152610160808201516110b582850182614916565b60008251614a1c818460208701614d8b565b9190910192915050565b6001600160a01b0391909116815260200190565b6001600160a01b0392831681529116602082015260400190565b6001600160a01b03929092168252602082015260400190565b6001600160a01b0393841681526020810192909252909116604082015260600190565b6020808252825182820181905260009190848201906040850190845b81811015614ad15783516001600160a01b031683529284019291840191600101614aac565b50909695505050505050565b6020808252825182820181905260009190848201906040850190845b81811015614ad157614b0c838551614971565b928401926101809290920191600101614af9565b6020808252825182820181905260009190848201906040850190845b81811015614ad157835183529284019291840191600101614b3c565b60008315158252604060208301526125366040830184614923565b60208101611ae8828461494f565b600060208252611c076020830184614923565b6020808252602a908201527f526f6c65733a2063616c6c6572206973206e6f7420746865206f776e6572206f604082015269391032bc32b1baba37b960b11b606082015260800190565b6020808252601d908201527f53747261746567792068617320616c7265616479206265656e20736574000000604082015260600190565b6020808252601690820152755374726174656779206973206e6f742061637469766560501b604082015260600190565b6020808252601990820152784e6f7420617574686f72697a656420746f206d69677261746560381b604082015260600190565b6020808252601a9082015279446f6e27742073656e6420746f207a65726f206164647265737360301b604082015260600190565b6020808252601f908201527f5265656e7472616e637947756172643a207265656e7472616e742063616c6c00604082015260600190565b6020808252601f908201527f4e6f7420617574686f72697a656420746f20636f6c6c656374207969656c6400604082015260600190565b6101808101611ae88284614971565b60008219821115614d3c57614d3c614de6565b500190565b600082614d5057614d50614dfc565b500490565b6000816000190483118215151615614d6f57614d6f614de6565b500290565b600082821015614d8657614d86614de6565b500390565b60005b83811015614da6578181015183820152602001614d8e565b838111156110b55750506000910152565b6000600019821415614dcb57614dcb614de6565b5060010190565b600082614de157614de1614dfc565b500690565b634e487b7160e01b600052601160045260246000fd5b634e487b7160e01b600052601260045260246000fd5b6001600160a01b038116811461214157600080fdfe43616c6c6572206973206e6f7420746865206f776e65722c206578656375746fa26469706673582212202e941ed69042fb0b94aa38a04c66f96c9955500495bc9bdb3d6419fce352d02f64736f6c63430008030033405787fa12a823e0f2b7631cc41b3ba8828b3321ca811111fa75cd3aa3bb5ace",
  "linkReferences": {},
  "deployedLinkReferences": {}
}