{
  "_format": "hh-sol-artifact-1",
  "contractName": "AMMYieldConverter",
  "sourceName": "contracts/strategies/AMMYieldConverter.sol",
  "abi": [
    {
      "inputs": [
        {
          "internalType": "address",
          "name": "_curveZap",
          "type": "address"
        },
        {
          "internalType": "address[]",
          "name": "_routers",
          "type": "address[]"
        },
        {
          "internalType": "address[]",
          "name": "_approvedTargetTokens",
          "type": "address[]"
        },
        {
          "internalType": "int128[]",
          "name": "_intermediaryIndices",
          "type": "int128[]"
        },
        {
          "internalType": "address",
          "name": "_roles",
          "type": "address"
        }
      ],
      "stateMutability": "nonpayable",
      "type": "constructor"
    },
    {
      "anonymous": false,
      "inputs": [
        {
          "indexed": false,
          "internalType": "string",
          "name": "param",
          "type": "string"
        },
        {
          "indexed": false,
          "internalType": "uint256",
          "name": "value",
          "type": "uint256"
        }
      ],
      "name": "ParameterUpdated",
      "type": "event"
    },
    {
      "anonymous": false,
      "inputs": [
        {
          "indexed": false,
          "internalType": "string",
          "name": "param",
          "type": "string"
        },
        {
          "indexed": false,
          "internalType": "address",
          "name": "subject",
          "type": "address"
        },
        {
          "indexed": false,
          "internalType": "uint256",
          "name": "value",
          "type": "uint256"
        }
      ],
      "name": "SubjectParameterUpdated",
      "type": "event"
    },
    {
      "anonymous": false,
      "inputs": [
        {
          "indexed": false,
          "internalType": "string",
          "name": "param",
          "type": "string"
        },
        {
          "indexed": false,
          "internalType": "address",
          "name": "subject",
          "type": "address"
        }
      ],
      "name": "SubjectUpdated",
      "type": "event"
    },
    {
      "inputs": [
        {
          "internalType": "uint256",
          "name": "",
          "type": "uint256"
        }
      ],
      "name": "_charactersPlayed",
      "outputs": [
        {
          "internalType": "uint256",
          "name": "",
          "type": "uint256"
        }
      ],
      "stateMutability": "view",
      "type": "function"
    },
    {
      "inputs": [
        {
          "internalType": "uint256",
          "name": "",
          "type": "uint256"
        }
      ],
      "name": "_dependsOnCharacters",
      "outputs": [
        {
          "internalType": "uint256",
          "name": "",
          "type": "uint256"
        }
      ],
      "stateMutability": "view",
      "type": "function"
    },
    {
      "inputs": [
        {
          "internalType": "uint256",
          "name": "",
          "type": "uint256"
        }
      ],
      "name": "_dependsOnRoles",
      "outputs": [
        {
          "internalType": "uint256",
          "name": "",
          "type": "uint256"
        }
      ],
      "stateMutability": "view",
      "type": "function"
    },
    {
      "inputs": [
        {
          "internalType": "address",
          "name": "",
          "type": "address"
        },
        {
          "internalType": "address",
          "name": "",
          "type": "address"
        }
      ],
      "name": "_oracleCache",
      "outputs": [
        {
          "internalType": "address",
          "name": "",
          "type": "address"
        }
      ],
      "stateMutability": "view",
      "type": "function"
    },
    {
      "inputs": [
        {
          "internalType": "uint256",
          "name": "",
          "type": "uint256"
        }
      ],
      "name": "_rolesPlayed",
      "outputs": [
        {
          "internalType": "uint256",
          "name": "",
          "type": "uint256"
        }
      ],
      "stateMutability": "view",
      "type": "function"
    },
    {
      "inputs": [
        {
          "internalType": "address",
          "name": "router",
          "type": "address"
        }
      ],
      "name": "addRouter",
      "outputs": [],
      "stateMutability": "nonpayable",
      "type": "function"
    },
    {
      "inputs": [
        {
          "internalType": "address",
          "name": "token",
          "type": "address"
        }
      ],
      "name": "approveTargetToken",
      "outputs": [],
      "stateMutability": "nonpayable",
      "type": "function"
    },
    {
      "inputs": [],
      "name": "charactersPlayed",
      "outputs": [
        {
          "internalType": "uint256[]",
          "name": "",
          "type": "uint256[]"
        }
      ],
      "stateMutability": "view",
      "type": "function"
    },
    {
      "inputs": [],
      "name": "curveZap",
      "outputs": [
        {
          "internalType": "contract ICurveZap",
          "name": "",
          "type": "address"
        }
      ],
      "stateMutability": "view",
      "type": "function"
    },
    {
      "inputs": [],
      "name": "dependsOnCharacters",
      "outputs": [
        {
          "internalType": "uint256[]",
          "name": "",
          "type": "uint256[]"
        }
      ],
      "stateMutability": "view",
      "type": "function"
    },
    {
      "inputs": [],
      "name": "dependsOnRoles",
      "outputs": [
        {
          "internalType": "uint256[]",
          "name": "",
          "type": "uint256[]"
        }
      ],
      "stateMutability": "view",
      "type": "function"
    },
    {
      "inputs": [
        {
          "internalType": "address payable",
          "name": "strategyAddress",
          "type": "address"
        },
        {
          "internalType": "address",
          "name": "yieldBearingToken",
          "type": "address"
        },
        {
          "internalType": "address",
          "name": "router",
          "type": "address"
        },
        {
          "internalType": "address[]",
          "name": "path",
          "type": "address[]"
        }
      ],
      "name": "harvest",
      "outputs": [],
      "stateMutability": "nonpayable",
      "type": "function"
    },
    {
      "inputs": [
        {
          "internalType": "address",
          "name": "",
          "type": "address"
        }
      ],
      "name": "intermediaryIndex",
      "outputs": [
        {
          "internalType": "int128",
          "name": "",
          "type": "int128"
        }
      ],
      "stateMutability": "view",
      "type": "function"
    },
    {
      "inputs": [
        {
          "internalType": "address payable",
          "name": "strategyAddress",
          "type": "address"
        },
        {
          "internalType": "address",
          "name": "router",
          "type": "address"
        },
        {
          "internalType": "address[]",
          "name": "path",
          "type": "address[]"
        }
      ],
      "name": "isHarvestable",
      "outputs": [
        {
          "internalType": "bool",
          "name": "harvestable",
          "type": "bool"
        },
        {
          "internalType": "uint256",
          "name": "expectedReward",
          "type": "uint256"
        }
      ],
      "stateMutability": "view",
      "type": "function"
    },
    {
      "inputs": [
        {
          "internalType": "uint256",
          "name": "",
          "type": "uint256"
        }
      ],
      "name": "mainCharacterCache",
      "outputs": [
        {
          "internalType": "address",
          "name": "",
          "type": "address"
        }
      ],
      "stateMutability": "view",
      "type": "function"
    },
    {
      "inputs": [
        {
          "internalType": "address",
          "name": "token",
          "type": "address"
        },
        {
          "internalType": "address",
          "name": "pegCurrency",
          "type": "address"
        }
      ],
      "name": "newCurrentOracle",
      "outputs": [],
      "stateMutability": "nonpayable",
      "type": "function"
    },
    {
      "inputs": [
        {
          "internalType": "address",
          "name": "router",
          "type": "address"
        }
      ],
      "name": "removeRouter",
      "outputs": [],
      "stateMutability": "nonpayable",
      "type": "function"
    },
    {
      "inputs": [
        {
          "internalType": "address",
          "name": "token",
          "type": "address"
        }
      ],
      "name": "removeTargetToken",
      "outputs": [],
      "stateMutability": "nonpayable",
      "type": "function"
    },
    {
      "inputs": [
        {
          "internalType": "address",
          "name": "token",
          "type": "address"
        },
        {
          "internalType": "uint256",
          "name": "amount",
          "type": "uint256"
        },
        {
          "internalType": "address",
          "name": "recipient",
          "type": "address"
        }
      ],
      "name": "rescueStrandedTokens",
      "outputs": [],
      "stateMutability": "nonpayable",
      "type": "function"
    },
    {
      "inputs": [
        {
          "internalType": "address",
          "name": "",
          "type": "address"
        },
        {
          "internalType": "uint256",
          "name": "",
          "type": "uint256"
        }
      ],
      "name": "roleCache",
      "outputs": [
        {
          "internalType": "bool",
          "name": "",
          "type": "bool"
        }
      ],
      "stateMutability": "view",
      "type": "function"
    },
    {
      "inputs": [],
      "name": "roles",
      "outputs": [
        {
          "internalType": "contract Roles",
          "name": "",
          "type": "address"
        }
      ],
      "stateMutability": "view",
      "type": "function"
    },
    {
      "inputs": [],
      "name": "rolesPlayed",
      "outputs": [
        {
          "internalType": "uint256[]",
          "name": "",
          "type": "uint256[]"
        }
      ],
      "stateMutability": "view",
      "type": "function"
    },
    {
      "inputs": [
        {
          "internalType": "uint256",
          "name": "role",
          "type": "uint256"
        }
      ],
      "name": "updateMainCharacterCache",
      "outputs": [],
      "stateMutability": "nonpayable",
      "type": "function"
    },
    {
      "inputs": [
        {
          "internalType": "uint256",
          "name": "role",
          "type": "uint256"
        },
        {
          "internalType": "address",
          "name": "contr",
          "type": "address"
        }
      ],
      "name": "updateRoleCache",
      "outputs": [],
      "stateMutability": "nonpayable",
      "type": "function"
    },
    {
      "inputs": [],
      "name": "viewApprovedTargetTokens",
      "outputs": [
        {
          "internalType": "address[]",
          "name": "",
          "type": "address[]"
        }
      ],
      "stateMutability": "view",
      "type": "function"
    },
    {
      "inputs": [],
      "name": "viewRouters",
      "outputs": [
        {
          "internalType": "address[]",
          "name": "",
          "type": "address[]"
        }
      ],
      "stateMutability": "view",
      "type": "function"
    }
  ],
  "bytecode": "0x60c06040523480156200001157600080fd5b506040516200340d3803806200340d8339810160408190526200003491620003d5565b600280546001810182556000919091526068600080516020620033ed83398151915290910155806001600160a01b038116620000c15760405162461bcd60e51b815260206004820152602260248201527f506c656173652070726f766964652076616c696420726f6c6573206164647265604482015261737360f01b606482015260840160405180910390fd5b60601b6001600160601b0319166080526002805460018082018355606a600080516020620033ed83398151915292830155600580548083019091556004600080516020620033cd83398151915290910155825480820184556000848152606691840191909155835480830185556067908401558354808301909455606d93909201929092556007919091555b8085511115620001b0576200019a8582815181106200017c57634e487b7160e01b600052603260045260246000fd5b60200260200101516008620002c660201b62001bde1790919060201c565b5080620001a78162000551565b9150506200014d565b5060005b808451111562000285576000848281518110620001e157634e487b7160e01b600052603260045260246000fd5b602002602001015190506200020681600a620002c660201b62001bde1790919060201c565b508382815181106200022857634e487b7160e01b600052603260045260246000fd5b6020908102919091018101516001600160a01b039092166000908152600c909152604090208054600f9290920b6001600160801b03166001600160801b0319909216919091179055806200027c8162000551565b915050620001b4565b5050600580546001810182556000919091526002600080516020620033cd8339815191529091015550505060601b6001600160601b03191660a0526200058f565b6000620002dd836001600160a01b038416620002e6565b90505b92915050565b60008181526001830160205260408120546200032f57508154600181810184556000848152602080822090930184905584548482528286019093526040902091909155620002e0565b506000620002e0565b80516001600160a01b03811681146200035057600080fd5b919050565b600082601f83011262000366578081fd5b815160206200037f62000379836200052b565b620004f8565b80838252828201915082860187848660051b89010111156200039f578586fd5b855b85811015620003c857620003b58262000338565b84529284019290840190600101620003a1565b5090979650505050505050565b600080600080600060a08688031215620003ed578081fd5b620003f88662000338565b602087810151919650906001600160401b038082111562000417578384fd5b620004258a838b0162000355565b965060408901519150808211156200043b578384fd5b620004498a838b0162000355565b955060608901519150808211156200045f578384fd5b508701601f8101891362000471578283fd5b80516200048262000379826200052b565b8082825284820191508484018c868560051b8701011115620004a2578687fd5b8694505b83851015620004d557805180600f0b8114620004c0578788fd5b835260019490940193918501918501620004a6565b508096505050505050620004ec6080870162000338565b90509295509295909350565b604051601f8201601f191681016001600160401b038111828210171562000523576200052362000579565b604052919050565b60006001600160401b0382111562000547576200054762000579565b5060051b60200190565b60006000198214156200057257634e487b7160e01b81526011600452602481fd5b5060010190565b634e487b7160e01b600052604160045260246000fd5b60805160601c60a05160601c612de1620005ec6000396000818161036901528181610c9f0152610d0e01526000818161023901528181611048015281816112d501528181611e0b01528181611e9e0152611f250152612de16000f3fe608060405234801561001057600080fd5b506004361061013d5760003560e01c80629b6a3914610142578063071060a6146101575780630d9a48281461016a57806324ca984e146101a557806324f0d784146101b85780632642b606146101cb57806328f3fc731461020c5780632cb535a31461021f578063392f5f6414610234578063447d52ba1461025b57806349d4f22e1461026e5780634a7a7f41146102815780636ae0b154146102965780636caa9c11146102a95780637a1a04df146102ca5780637dad209b14610308578063a9ec9fdc14610310578063abcbc4fc14610318578063aeb38d8b1461032b578063bf184ea41461033e578063c082fe5614610351578063d89281e814610364578063dc94cb7d1461038b578063e8ea4fae14610393578063e9c3f77d1461039b578063f5edd233146103c4575b600080fd5b610155610150366004612655565b6103ee565b005b61015561016536600461291a565b611032565b61018d61017836600461261d565b600c60205260009081526040902054600f0b81565b604051600f9190910b81526020015b60405180910390f35b6101556101b336600461261d565b6110f8565b6101556101c636600461261d565b611150565b6101ff6101d9366004612730565b60066020908152600092835260408084209091529082529020546001600160a01b031681565b60405161019c91906129d2565b61015561021a366004612730565b6111be565b6102276112ad565b60405161019c9190612a3c565b6101ff7f000000000000000000000000000000000000000000000000000000000000000081565b61015561026936600461294a565b6112be565b61015561027c366004612793565b611394565b610289611449565b60405161019c9190612a89565b6101556102a436600461261d565b6114a1565b6102bc6102b736600461291a565b61150f565b60405190815260200161019c565b6102f86102d8366004612768565b600160209081526000928352604080842090915290825290205460ff1681565b604051901515815260200161019c565b610289611530565b610227611586565b6102bc61032636600461291a565b611592565b6102bc61033936600461291a565b6115a2565b6102bc61034c36600461291a565b6115b2565b61015561035f36600461261d565b6115c2565b6101ff7f000000000000000000000000000000000000000000000000000000000000000081565b610289611616565b61028961166c565b6101ff6103a936600461291a565b6000602081905290815260409020546001600160a01b031681565b6103d76103d23660046126ce565b6116c2565b60408051921515835260208301919091520161019c565b600260075414156104465760405162461bcd60e51b815260206004820152601f60248201527f5265656e7472616e637947756172643a207265656e7472616e742063616c6c0060448201526064015b60405180910390fd5b6002600755606860009081526020527faa071f48f62aaaa1f6320aaa7bd2ad2d552d05160892c14d699d38c9920d5f995460405163b4d6975760e01b81526001600160a01b039091169063b4d69757906104a49088906004016129d2565b60206040518083038186803b1580156104bc57600080fd5b505afa1580156104d0573d6000803e3d6000fd5b505050506040513d601f19601f820116820180604052508101906104f491906128fa565b61053b5760405162461bcd60e51b81526020600482015260186024820152774e6f7420616e20617070726f76656420737472617465677960401b604482015260640161043d565b610546600884611bfc565b61058b5760405162461bcd60e51b81526020600482015260166024820152752737ba1030b71030b8383937bb32b2103937baba32b960511b604482015260640161043d565b6040516389f117b360e01b815285906001600160a01b038216906389f117b3906105b99088906004016129d2565b600060405180830381600087803b1580156105d357600080fd5b505af11580156105e7573d6000803e3d6000fd5b505050506000816001600160a01b031663c17dfa616040518163ffffffff1660e01b815260040160206040518083038186803b15801561062657600080fd5b505afa15801561063a573d6000803e3d6000fd5b505050506040513d601f19601f8201168201806040525081019061065e9190612932565b9050600061066a611c11565b905060006106e9846001600160a01b031663f7c618c16040518163ffffffff1660e01b815260040160206040518083038186803b1580156106aa57600080fd5b505afa1580156106be573d6000803e3d6000fd5b505050506040513d601f19601f820116820180604052508101906106e29190612639565b8484611c49565b90506000612710856001600160a01b031663d7fb7b316040518163ffffffff1660e01b815260040160206040518083038186803b15801561072957600080fd5b505afa15801561073d573d6000803e3d6000fd5b505050506040513d601f19601f820116820180604052508101906107619190612932565b61076b9084612cea565b6107759190612cca565b610780906002612cb2565b905060008787610791600182612d09565b8181106107ae57634e487b7160e01b600052603260045260246000fd5b90506020020160208101906107c3919061261d565b9050836001600160a01b0316816001600160a01b031614806107eb57506107eb600a82611bfc565b6108075760405162461bcd60e51b815260040161043d90612bc8565b816001600160a01b038281169086161461085357600061083083670de0b6b3a764000088611c49565b90508061084585670de0b6b3a7640000612cea565b61084f9190612cca565b9150505b60405163d06ca61f60e01b81526000906001600160a01b038c169063d06ca61f90610886908a908e908e90600401612bfe565b60006040518083038186803b15801561089e57600080fd5b505afa1580156108b2573d6000803e3d6000fd5b505050506040513d6000823e601f3d908101601f191682016040526108da9190810190612874565b90508181600183516108ec9190612d09565b8151811061090a57634e487b7160e01b600052603260045260246000fd5b602002602001015110156109605760405162461bcd60e51b815260206004820152601d60248201527f496e73756666696369656e74206f75747075742066726f6d2073776170000000604482015260640161043d565b6040516340c10f1960e01b81526001600160a01b038716906340c10f199061098e9030908890600401612a00565b600060405180830381600087803b1580156109a857600080fd5b505af11580156109bc573d6000803e3d6000fd5b5050604051631f6fc2df60e21b8152600481018a9052602481018790526001600160a01b038b169250637dbf0b7c9150604401600060405180830381600087803b158015610a0957600080fd5b505af1158015610a1d573d6000803e3d6000fd5b505050506000886001600160a01b031663a51c8fab6040518163ffffffff1660e01b815260040160006040518083038186803b158015610a5c57600080fd5b505afa158015610a70573d6000803e3d6000fd5b505050506040513d6000823e601f3d908101601f19168201604052610a9891908101906127d4565b905060005b8082511115610b5e57896001600160a01b0316638a31b98f838381518110610ad557634e487b7160e01b600052603260045260246000fd5b60200260200101516040518263ffffffff1660e01b8152600401610af991906129d2565b602060405180830381600087803b158015610b1357600080fd5b505af1158015610b27573d6000803e3d6000fd5b505050506040513d601f19601f82011682018060405250810190610b4b9190612932565b5080610b5681612d4c565b915050610a9d565b50610baa8c898d8d6000818110610b8557634e487b7160e01b600052603260045260246000fd5b9050602002016020810190610b9a919061261d565b6001600160a01b03169190611ce6565b6001600160a01b038c166338ed173989858e8e30610bc9426001612cb2565b6040518763ffffffff1660e01b8152600401610bea96959493929190612c21565b600060405180830381600087803b158015610c0457600080fd5b505af1158015610c18573d6000803e3d6000fd5b505050506040513d6000823e601f3d908101601f19168201604052610c409190810190612874565b50866001600160a01b0316846001600160a01b031614610e1d576001600160a01b0384166000908152600c6020526040812054600f90810b919082900b13610c9a5760405162461bcd60e51b815260040161043d90612b3e565b610d0c7f00000000000000000000000000000000000000000000000000000000000000008460018651610ccd9190612d09565b81518110610ceb57634e487b7160e01b600052603260045260246000fd5b6020026020010151876001600160a01b0316611ce69092919063ffffffff16565b7f00000000000000000000000000000000000000000000000000000000000000006001600160a01b031663a3220db8610d43611dcf565b8360008760018951610d559190612d09565b81518110610d7357634e487b7160e01b600052603260045260246000fd5b60209081029190910101516040516001600160e01b031960e087901b1681526001600160a01b039094166004850152600f92830b6024850152910b60448301526064820152608481018990523060a482015260c401602060405180830381600087803b158015610de257600080fd5b505af1158015610df6573d6000803e3d6000fd5b505050506040513d601f19601f82011682018060405250810190610e1a9190612932565b50505b6040516370a0823160e01b81526000906001600160a01b038916906370a0823190610e4c9030906004016129d2565b60206040518083038186803b158015610e6457600080fd5b505afa158015610e78573d6000803e3d6000fd5b505050506040513d601f19601f82011682018060405250810190610e9c9190612932565b905085811115610fbc5760006002610eb48884612d09565b610ebe9190612cca565b9050886001600160a01b03166340c10f19610f0a606760009081526020527f682158d08466d11c566d5712d4396197fdd67e65be71d83c97ef719ec468867b546001600160a01b031690565b836040518363ffffffff1660e01b8152600401610f28929190612a00565b600060405180830381600087803b158015610f4257600080fd5b505af1158015610f56573d6000803e3d6000fd5b50506040516340c10f1960e01b81526001600160a01b038c1692506340c10f199150610f889033908590600401612a00565b600060405180830381600087803b158015610fa257600080fd5b505af1158015610fb6573d6000803e3d6000fd5b50505050505b604051632770a7eb60e21b81526001600160a01b03891690639dc29fac90610fea9030908590600401612a00565b600060405180830381600087803b15801561100457600080fd5b505af1158015611018573d6000803e3d6000fd5b505060016007555050505050505050505050505050505050565b60405163b4ed0b6d60e01b8152600481018290527f00000000000000000000000000000000000000000000000000000000000000006001600160a01b03169063b4ed0b6d9060240160206040518083038186803b15801561109257600080fd5b505afa1580156110a6573d6000803e3d6000fd5b505050506040513d601f19601f820116820180604052508101906110ca9190612639565b60009182526020829052604090912080546001600160a01b0319166001600160a01b03909216919091179055565b33611101611e07565b6001600160a01b0316148061112557503361111a611e9a565b6001600160a01b0316145b6111415760405162461bcd60e51b815260040161043d90612af4565b61114c600882611bde565b5050565b33611159611e07565b6001600160a01b0316148061117d575033611172611e9a565b6001600160a01b0316145b8061119757503361118c611f0b565b6001600160a01b0316145b6111b35760405162461bcd60e51b815260040161043d90612b70565b61114c600a82611f6f565b6001600160a01b0382811660009081526006602090815260408083208585168452909152902054161561114c576111f3611f84565b6001600160a01b0316635e73a03483836040518363ffffffff1660e01b81526004016112209291906129e6565b60206040518083038186803b15801561123857600080fd5b505afa15801561124c573d6000803e3d6000fd5b505050506040513d601f19601f820116820180604052508101906112709190612639565b6001600160a01b03928316600090815260066020908152604080832094861683529390529190912080546001600160a01b03191691909216179055565b60606112b9600a611fbc565b905090565b60405163f0723d9760e01b81526001600160a01b037f0000000000000000000000000000000000000000000000000000000000000000169063f0723d979061130c9084908690600401612a00565b60206040518083038186803b15801561132457600080fd5b505afa158015611338573d6000803e3d6000fd5b505050506040513d601f19601f8201168201806040525081019061135c91906128fa565b6001600160a01b0391909116600090815260016020908152604080832094835293905291909120805460ff1916911515919091179055565b3361139d611e07565b6001600160a01b031614806113c15750336113b6611e9a565b6001600160a01b0316145b6113dd5760405162461bcd60e51b815260040161043d90612af4565b6001600160a01b0381166114305760405162461bcd60e51b815260206004820152601a602482015279446f6e27742073656e6420746f207a65726f206164647265737360301b604482015260640161043d565b6114446001600160a01b0384168284611fc9565b505050565b6060600380548060200260200160405190810160405280929190818152602001828054801561149757602002820191906000526020600020905b815481526020019060010190808311611483575b5050505050905090565b336114aa611e07565b6001600160a01b031614806114ce5750336114c3611e9a565b6001600160a01b0316145b806114e85750336114dd611f0b565b6001600160a01b0316145b6115045760405162461bcd60e51b815260040161043d90612b70565b61114c600882611f6f565b6005818154811061151f57600080fd5b600091825260209091200154905081565b606060048054806020026020016040519081016040528092919081815260200182805480156114975760200282019190600052602060002090815481526020019060010190808311611483575050505050905090565b60606112b96008611fbc565b6002818154811061151f57600080fd5b6004818154811061151f57600080fd5b6003818154811061151f57600080fd5b336115cb611e07565b6001600160a01b031614806115ef5750336115e4611e9a565b6001600160a01b0316145b61160b5760405162461bcd60e51b815260040161043d90612af4565b61114c600a82611bde565b606060028054806020026020016040519081016040528092919081815260200182805480156114975760200282019190600052602060002090815481526020019060010190808311611483575050505050905090565b606060058054806020026020016040519081016040528092919081815260200182805480156114975760200282019190600052602060002090815481526020019060010190808311611483575050505050905090565b60008060008690506000816001600160a01b031663c17dfa616040518163ffffffff1660e01b815260040160206040518083038186803b15801561170557600080fd5b505afa158015611719573d6000803e3d6000fd5b505050506040513d601f19601f8201168201806040525081019061173d9190612932565b905080670de0b6b3a7640000111561175a5750670de0b6b3a76400005b6000611764611c11565b905060006117e3846001600160a01b031663f7c618c16040518163ffffffff1660e01b815260040160206040518083038186803b1580156117a457600080fd5b505afa1580156117b8573d6000803e3d6000fd5b505050506040513d601f19601f820116820180604052508101906117dc9190612639565b8484611fe8565b90506000612710856001600160a01b031663d7fb7b316040518163ffffffff1660e01b815260040160206040518083038186803b15801561182357600080fd5b505afa158015611837573d6000803e3d6000fd5b505050506040513d601f19601f8201168201806040525081019061185b9190612932565b6118659084612cea565b61186f9190612cca565b61187a906002612cb2565b90506000898961188b600182612d09565b8181106118a857634e487b7160e01b600052603260045260246000fd5b90506020020160208101906118bd919061261d565b9050836001600160a01b0316816001600160a01b031614806118e557506118e5600a82611bfc565b6119015760405162461bcd60e51b815260040161043d90612bc8565b816001600160a01b038281169086161461194d57600061192a83670de0b6b3a764000088611fe8565b90508061193f85670de0b6b3a7640000612cea565b6119499190612cca565b9150505b60008c6001600160a01b031663d06ca61f888e8e6040518463ffffffff1660e01b815260040161197f93929190612bfe565b60006040518083038186803b15801561199757600080fd5b505afa1580156119ab573d6000803e3d6000fd5b505050506040513d6000823e601f3d908101601f191682016040526119d39190810190612874565b905080600182516119e49190612d09565b81518110611a0257634e487b7160e01b600052603260045260246000fd5b6020026020010151821115611a2557600080995099505050505050505050611bd5565b856001600160a01b0316836001600160a01b031614611b86576001600160a01b0383166000908152600c6020526040812054600f90810b919082900b13611a7e5760405162461bcd60e51b815260040161043d90612b3e565b6000611a88611dcf565b6001600160a01b03166307211ef78360008660018851611aa89190612d09565b81518110611ac657634e487b7160e01b600052603260045260246000fd5b60200260200101516040518463ffffffff1660e01b8152600401611b0593929190600f93840b81529190920b6020820152604081019190915260600190565b60206040518083038186803b158015611b1d57600080fd5b505afa158015611b31573d6000803e3d6000fd5b505050506040513d601f19601f82011682018060405250810190611b559190612932565b905085811015868211611b69576000611b73565b611b738783612d09565b9b509b5050505050505050505050611bd5565b6001828260018451611b989190612d09565b81518110611bb657634e487b7160e01b600052603260045260246000fd5b6020026020010151611bc89190612d09565b9950995050505050505050505b94509492505050565b6000611bf3836001600160a01b0384166120fb565b90505b92915050565b6000611bf3836001600160a01b038416612145565b606660009081526020527f422cccb7cea5c0e46f340bb7b21b81debac329f72e31669c20ff0f3a05cc2b5b546001600160a01b031690565b600080611c56858461215d565b604051630576cbc360e41b81529091506001600160a01b0382169063576cbc3090611c8990889088908890600401612a19565b602060405180830381600087803b158015611ca357600080fd5b505af1158015611cb7573d6000803e3d6000fd5b505050506040513d601f19601f82011682018060405250810190611cdb9190612932565b9150505b9392505050565b600081846001600160a01b031663dd62ed3e30866040518363ffffffff1660e01b8152600401611d179291906129e6565b60206040518083038186803b158015611d2f57600080fd5b505afa158015611d43573d6000803e3d6000fd5b505050506040513d601f19601f82011682018060405250810190611d679190612932565b611d719190612cb2565b9050611dc98463095ea7b360e01b8584604051602401611d92929190612a00565b60408051601f198184030181529190526020810180516001600160e01b03166001600160e01b031990931692909217909152612211565b50505050565b606d60009081526020527faa31d2a33b224bee3888830916f2f56f41bb5a40ed8a3273c6e72e6992d6223a546001600160a01b031690565b60007f00000000000000000000000000000000000000000000000000000000000000006001600160a01b0316638da5cb5b6040518163ffffffff1660e01b815260040160206040518083038186803b158015611e6257600080fd5b505afa158015611e76573d6000803e3d6000fd5b505050506040513d601f19601f820116820180604052508101906112b99190612639565b60007f00000000000000000000000000000000000000000000000000000000000000006001600160a01b031663c34c08e56040518163ffffffff1660e01b8152600401602060405180830381600087803b158015611ef757600080fd5b505af1158015611e76573d6000803e3d6000fd5b60405163b4ed0b6d60e01b81526103e960048201526000907f00000000000000000000000000000000000000000000000000000000000000006001600160a01b03169063b4ed0b6d9060240160206040518083038186803b158015611e6257600080fd5b6000611bf3836001600160a01b0384166122e3565b606a60009081526020527ff3261457f4fd0b7c00a1511877ab27b74183ac470be8db3a7ecdc64335f6f979546001600160a01b031690565b60606000611cdf83612400565b6114448363a9059cbb60e01b8484604051602401611d92929190612a00565b6001600160a01b03808416600090815260066020908152604080832085851684529091528120549091168061209f5761201f611f84565b6001600160a01b0316635e73a03486856040518363ffffffff1660e01b815260040161204c9291906129e6565b60206040518083038186803b15801561206457600080fd5b505afa158015612078573d6000803e3d6000fd5b505050506040513d601f19601f8201168201806040525081019061209c9190612639565b90505b6040516323aaad6360e21b81526001600160a01b03821690638eaab58c906120cf90889088908890600401612a19565b60206040518083038186803b1580156120e757600080fd5b505afa158015611cb7573d6000803e3d6000fd5b60006121078383612145565b61213d57508154600181810184556000848152602080822090930184905584548482528286019093526040902091909155611bf6565b506000611bf6565b60009081526001919091016020526040902054151590565b6001600160a01b03808316600090815260066020908152604080832085851684529091529020541680611bf657612192611f84565b6001600160a01b0316631757616884846040518363ffffffff1660e01b81526004016121bf9291906129e6565b602060405180830381600087803b1580156121d957600080fd5b505af11580156121ed573d6000803e3d6000fd5b505050506040513d601f19601f82011682018060405250810190611bf39190612639565b6000612266826040518060400160405280602081526020017f5361666545524332303a206c6f772d6c6576656c2063616c6c206661696c6564815250856001600160a01b031661245c9092919063ffffffff16565b805190915015611444578080602001905181019061228491906128fa565b6114445760405162461bcd60e51b815260206004820152602a60248201527f5361666545524332303a204552433230206f7065726174696f6e20646964206e6044820152691bdd081cdd58d8d9595960b21b606482015260840161043d565b600081815260018301602052604081205480156123f6576000612307600183612d09565b855490915060009061231b90600190612d09565b905081811461239c57600086600001828154811061234957634e487b7160e01b600052603260045260246000fd5b906000526020600020015490508087600001848154811061237a57634e487b7160e01b600052603260045260246000fd5b6000918252602080832090910192909255918252600188019052604090208390555b85548690806123bb57634e487b7160e01b600052603160045260246000fd5b600190038181906000526020600020016000905590558560010160008681526020019081526020016000206000905560019350505050611bf6565b6000915050611bf6565b60608160000180548060200260200160405190810160405280929190818152602001828054801561245057602002820191906000526020600020905b81548152602001906001019080831161243c575b50505050509050919050565b606061246b8484600085612473565b949350505050565b6060824710156124d45760405162461bcd60e51b815260206004820152602660248201527f416464726573733a20696e73756666696369656e742062616c616e636520666f6044820152651c8818d85b1b60d21b606482015260840161043d565b843b6125225760405162461bcd60e51b815260206004820152601d60248201527f416464726573733a2063616c6c20746f206e6f6e2d636f6e7472616374000000604482015260640161043d565b600080866001600160a01b0316858760405161253e91906129b6565b60006040518083038185875af1925050503d806000811461257b576040519150601f19603f3d011682016040523d82523d6000602084013e612580565b606091505b509150915061259082828661259b565b979650505050505050565b606083156125aa575081611cdf565b8251156125ba5782518084602001fd5b8160405162461bcd60e51b815260040161043d9190612ac1565b60008083601f8401126125e5578182fd5b5081356001600160401b038111156125fb578182fd5b6020830191508360208260051b850101111561261657600080fd5b9250929050565b60006020828403121561262e578081fd5b8135611cdf81612d93565b60006020828403121561264a578081fd5b8151611cdf81612d93565b60008060008060006080868803121561266c578081fd5b853561267781612d93565b9450602086013561268781612d93565b9350604086013561269781612d93565b925060608601356001600160401b038111156126b1578182fd5b6126bd888289016125d4565b969995985093965092949392505050565b600080600080606085870312156126e3578384fd5b84356126ee81612d93565b935060208501356126fe81612d93565b925060408501356001600160401b03811115612718578283fd5b612724878288016125d4565b95989497509550505050565b60008060408385031215612742578182fd5b823561274d81612d93565b9150602083013561275d81612d93565b809150509250929050565b6000806040838503121561277a578182fd5b823561278581612d93565b946020939093013593505050565b6000806000606084860312156127a7578283fd5b83356127b281612d93565b92506020840135915060408401356127c981612d93565b809150509250925092565b600060208083850312156127e6578182fd5b82516001600160401b038111156127fb578283fd5b8301601f8101851361280b578283fd5b805161281e61281982612c8f565b612c5f565b80828252848201915084840188868560051b870101111561283d578687fd5b8694505b8385101561286857805161285481612d93565b835260019490940193918501918501612841565b50979650505050505050565b60006020808385031215612886578182fd5b82516001600160401b0381111561289b578283fd5b8301601f810185136128ab578283fd5b80516128b961281982612c8f565b80828252848201915084840188868560051b87010111156128d8578687fd5b8694505b838510156128685780518352600194909401939185019185016128dc565b60006020828403121561290b578081fd5b81518015158114611cdf578182fd5b60006020828403121561292b578081fd5b5035919050565b600060208284031215612943578081fd5b5051919050565b6000806040838503121561295c578182fd5b82359150602083013561275d81612d93565b60008284526020808501945082825b858110156129ab57813561299081612d93565b6001600160a01b03168752958201959082019060010161297d565b509495945050505050565b600082516129c8818460208701612d20565b9190910192915050565b6001600160a01b0391909116815260200190565b6001600160a01b0392831681529116602082015260400190565b6001600160a01b03929092168252602082015260400190565b6001600160a01b0393841681526020810192909252909116604082015260600190565b6020808252825182820181905260009190848201906040850190845b81811015612a7d5783516001600160a01b031683529284019291840191600101612a58565b50909695505050505050565b6020808252825182820181905260009190848201906040850190845b81811015612a7d57835183529284019291840191600101612aa5565b6000602082528251806020840152612ae0816040850160208701612d20565b601f01601f19169190910160400192915050565b6020808252602a908201527f526f6c65733a2063616c6c6572206973206e6f7420746865206f776e6572206f604082015269391032bc32b1baba37b960b11b606082015260800190565b6020808252601890820152774e6f7420612076616c696420696e7465726d65646961727960401b604082015260600190565b60208082526038908201527f43616c6c6572206973206e6f7420746865206f776e65722c206578656375746f604082015277391037b91030baba3437b934bd32b2103234b9b0b13632b960411b606082015260800190565b6020808252601c908201527b2737ba1030b71030b8383937bb32b2103a30b933b2ba103a37b5b2b760211b604082015260600190565b600084825260406020830152612c1860408301848661296e565b95945050505050565b600087825286602083015260a06040830152612c4160a08301868861296e565b6001600160a01b039490941660608301525060800152949350505050565b604051601f8201601f191681016001600160401b0381118282101715612c8757612c87612d7d565b604052919050565b60006001600160401b03821115612ca857612ca8612d7d565b5060051b60200190565b60008219821115612cc557612cc5612d67565b500190565b600082612ce557634e487b7160e01b81526012600452602481fd5b500490565b6000816000190483118215151615612d0457612d04612d67565b500290565b600082821015612d1b57612d1b612d67565b500390565b60005b83811015612d3b578181015183820152602001612d23565b83811115611dc95750506000910152565b6000600019821415612d6057612d60612d67565b5060010190565b634e487b7160e01b600052601160045260246000fd5b634e487b7160e01b600052604160045260246000fd5b6001600160a01b0381168114612da857600080fd5b5056fea26469706673582212203db9be96889a44feec6b6973f67a2bdb2770ce84aebd231db1f5b716f491c7b964736f6c63430008030033036b6384b5eca791c62761152d0c79bb0604c104a5fb6f4eb0703f3154bb3db0405787fa12a823e0f2b7631cc41b3ba8828b3321ca811111fa75cd3aa3bb5ace",
  "linkReferences": {},
  "deployedLinkReferences": {}
}