{
  "_format": "hh-sol-artifact-1",
  "contractName": "Math",
  "sourceName": "contracts/governance/Math.sol",
  "abi": [
    {
      "inputs": [],
      "name": "WAD",
      "outputs": [
        {
          "internalType": "uint256",
          "name": "",
          "type": "uint256"
        }
      ],
      "stateMutability": "view",
      "type": "function"
    }
  ],
  "bytecode": "0x608e610038600b82828239805160001a607314602b57634e487b7160e01b600052600060045260246000fd5b30600052607381538281f3fe730000000000000000000000000000000000000000301460806040526004361060335760003560e01c80636a146024146038575b600080fd5b6046670de0b6b3a764000081565b60405190815260200160405180910390f3fea26469706673582212205d0a9c2832501c49675ea7a099c84e2c8242e9d49223c79e3c6e557cefbc6e4d64736f6c63430008030033",
  "linkReferences": {},
  "deployedLinkReferences": {}
}