{
  "_format": "hh-sol-artifact-1",
  "contractName": "VestingMoreToken",
  "sourceName": "contracts/governance/VestingMoreToken.sol",
  "abi": [
    {
      "inputs": [
        {
          "internalType": "address",
          "name": "vestingToken",
          "type": "address"
        }
      ],
      "stateMutability": "nonpayable",
      "type": "constructor"
    },
    {
      "anonymous": false,
      "inputs": [
        {
          "indexed": true,
          "internalType": "address",
          "name": "owner",
          "type": "address"
        },
        {
          "indexed": true,
          "internalType": "address",
          "name": "spender",
          "type": "address"
        },
        {
          "indexed": false,
          "internalType": "uint256",
          "name": "value",
          "type": "uint256"
        }
      ],
      "name": "Approval",
      "type": "event"
    },
    {
      "anonymous": false,
      "inputs": [
        {
          "indexed": true,
          "internalType": "address",
          "name": "previousOwner",
          "type": "address"
        },
        {
          "indexed": true,
          "internalType": "address",
          "name": "newOwner",
          "type": "address"
        }
      ],
      "name": "OwnershipTransferred",
      "type": "event"
    },
    {
      "anonymous": false,
      "inputs": [
        {
          "indexed": true,
          "internalType": "address",
          "name": "from",
          "type": "address"
        },
        {
          "indexed": true,
          "internalType": "address",
          "name": "to",
          "type": "address"
        },
        {
          "indexed": false,
          "internalType": "uint256",
          "name": "value",
          "type": "uint256"
        }
      ],
      "name": "Transfer",
      "type": "event"
    },
    {
      "inputs": [],
      "name": "DOMAIN_SEPARATOR",
      "outputs": [
        {
          "internalType": "bytes32",
          "name": "",
          "type": "bytes32"
        }
      ],
      "stateMutability": "view",
      "type": "function"
    },
    {
      "inputs": [
        {
          "internalType": "address",
          "name": "owner",
          "type": "address"
        },
        {
          "internalType": "address",
          "name": "spender",
          "type": "address"
        }
      ],
      "name": "allowance",
      "outputs": [
        {
          "internalType": "uint256",
          "name": "",
          "type": "uint256"
        }
      ],
      "stateMutability": "view",
      "type": "function"
    },
    {
      "inputs": [
        {
          "internalType": "address",
          "name": "spender",
          "type": "address"
        },
        {
          "internalType": "uint256",
          "name": "amount",
          "type": "uint256"
        }
      ],
      "name": "approve",
      "outputs": [
        {
          "internalType": "bool",
          "name": "",
          "type": "bool"
        }
      ],
      "stateMutability": "nonpayable",
      "type": "function"
    },
    {
      "inputs": [
        {
          "internalType": "address",
          "name": "account",
          "type": "address"
        }
      ],
      "name": "balanceOf",
      "outputs": [
        {
          "internalType": "uint256",
          "name": "",
          "type": "uint256"
        }
      ],
      "stateMutability": "view",
      "type": "function"
    },
    {
      "inputs": [
        {
          "internalType": "uint256",
          "name": "wrapperAmount",
          "type": "uint256"
        }
      ],
      "name": "burn",
      "outputs": [],
      "stateMutability": "nonpayable",
      "type": "function"
    },
    {
      "inputs": [
        {
          "internalType": "address",
          "name": "account",
          "type": "address"
        }
      ],
      "name": "burnableByAccount",
      "outputs": [
        {
          "internalType": "uint256",
          "name": "",
          "type": "uint256"
        }
      ],
      "stateMutability": "view",
      "type": "function"
    },
    {
      "inputs": [],
      "name": "decimals",
      "outputs": [
        {
          "internalType": "uint8",
          "name": "",
          "type": "uint8"
        }
      ],
      "stateMutability": "view",
      "type": "function"
    },
    {
      "inputs": [
        {
          "internalType": "address",
          "name": "spender",
          "type": "address"
        },
        {
          "internalType": "uint256",
          "name": "subtractedValue",
          "type": "uint256"
        }
      ],
      "name": "decreaseAllowance",
      "outputs": [
        {
          "internalType": "bool",
          "name": "",
          "type": "bool"
        }
      ],
      "stateMutability": "nonpayable",
      "type": "function"
    },
    {
      "inputs": [
        {
          "internalType": "address",
          "name": "spender",
          "type": "address"
        },
        {
          "internalType": "uint256",
          "name": "addedValue",
          "type": "uint256"
        }
      ],
      "name": "increaseAllowance",
      "outputs": [
        {
          "internalType": "bool",
          "name": "",
          "type": "bool"
        }
      ],
      "stateMutability": "nonpayable",
      "type": "function"
    },
    {
      "inputs": [
        {
          "internalType": "address[]",
          "name": "recipients",
          "type": "address[]"
        },
        {
          "internalType": "uint256[]",
          "name": "amounts",
          "type": "uint256[]"
        }
      ],
      "name": "mint",
      "outputs": [],
      "stateMutability": "nonpayable",
      "type": "function"
    },
    {
      "inputs": [
        {
          "internalType": "address",
          "name": "holder",
          "type": "address"
        },
        {
          "internalType": "uint256",
          "name": "amount",
          "type": "uint256"
        }
      ],
      "name": "mintProtocolOwned",
      "outputs": [],
      "stateMutability": "nonpayable",
      "type": "function"
    },
    {
      "inputs": [],
      "name": "name",
      "outputs": [
        {
          "internalType": "string",
          "name": "",
          "type": "string"
        }
      ],
      "stateMutability": "view",
      "type": "function"
    },
    {
      "inputs": [
        {
          "internalType": "address",
          "name": "owner",
          "type": "address"
        }
      ],
      "name": "nonces",
      "outputs": [
        {
          "internalType": "uint256",
          "name": "",
          "type": "uint256"
        }
      ],
      "stateMutability": "view",
      "type": "function"
    },
    {
      "inputs": [],
      "name": "owner",
      "outputs": [
        {
          "internalType": "address",
          "name": "",
          "type": "address"
        }
      ],
      "stateMutability": "view",
      "type": "function"
    },
    {
      "inputs": [
        {
          "internalType": "address",
          "name": "owner",
          "type": "address"
        },
        {
          "internalType": "address",
          "name": "spender",
          "type": "address"
        },
        {
          "internalType": "uint256",
          "name": "value",
          "type": "uint256"
        },
        {
          "internalType": "uint256",
          "name": "deadline",
          "type": "uint256"
        },
        {
          "internalType": "uint8",
          "name": "v",
          "type": "uint8"
        },
        {
          "internalType": "bytes32",
          "name": "r",
          "type": "bytes32"
        },
        {
          "internalType": "bytes32",
          "name": "s",
          "type": "bytes32"
        }
      ],
      "name": "permit",
      "outputs": [],
      "stateMutability": "nonpayable",
      "type": "function"
    },
    {
      "inputs": [],
      "name": "protOwnedDecayPer10k",
      "outputs": [
        {
          "internalType": "uint256",
          "name": "",
          "type": "uint256"
        }
      ],
      "stateMutability": "view",
      "type": "function"
    },
    {
      "inputs": [
        {
          "internalType": "address",
          "name": "holder",
          "type": "address"
        }
      ],
      "name": "protocolBurn",
      "outputs": [],
      "stateMutability": "nonpayable",
      "type": "function"
    },
    {
      "inputs": [
        {
          "internalType": "address",
          "name": "holder",
          "type": "address"
        }
      ],
      "name": "protocolBurnSync",
      "outputs": [],
      "stateMutability": "nonpayable",
      "type": "function"
    },
    {
      "inputs": [
        {
          "internalType": "address",
          "name": "holder",
          "type": "address"
        }
      ],
      "name": "removeProtocolOwned",
      "outputs": [],
      "stateMutability": "nonpayable",
      "type": "function"
    },
    {
      "inputs": [],
      "name": "renounceOwnership",
      "outputs": [],
      "stateMutability": "nonpayable",
      "type": "function"
    },
    {
      "inputs": [
        {
          "internalType": "address",
          "name": "token",
          "type": "address"
        },
        {
          "internalType": "address",
          "name": "recipient",
          "type": "address"
        },
        {
          "internalType": "uint256",
          "name": "amount",
          "type": "uint256"
        }
      ],
      "name": "rescueFunds",
      "outputs": [],
      "stateMutability": "nonpayable",
      "type": "function"
    },
    {
      "inputs": [
        {
          "internalType": "uint256",
          "name": "speedupPer10k",
          "type": "uint256"
        }
      ],
      "name": "setProtOwnedDecay",
      "outputs": [],
      "stateMutability": "nonpayable",
      "type": "function"
    },
    {
      "inputs": [
        {
          "internalType": "uint256",
          "name": "startTime",
          "type": "uint256"
        }
      ],
      "name": "setVestingStart",
      "outputs": [],
      "stateMutability": "nonpayable",
      "type": "function"
    },
    {
      "inputs": [
        {
          "internalType": "uint256",
          "name": "time",
          "type": "uint256"
        }
      ],
      "name": "setVestingTime",
      "outputs": [],
      "stateMutability": "nonpayable",
      "type": "function"
    },
    {
      "inputs": [],
      "name": "symbol",
      "outputs": [
        {
          "internalType": "string",
          "name": "",
          "type": "string"
        }
      ],
      "stateMutability": "view",
      "type": "function"
    },
    {
      "inputs": [],
      "name": "totalSupply",
      "outputs": [
        {
          "internalType": "uint256",
          "name": "",
          "type": "uint256"
        }
      ],
      "stateMutability": "view",
      "type": "function"
    },
    {
      "inputs": [
        {
          "internalType": "address",
          "name": "recipient",
          "type": "address"
        },
        {
          "internalType": "uint256",
          "name": "amount",
          "type": "uint256"
        }
      ],
      "name": "transfer",
      "outputs": [
        {
          "internalType": "bool",
          "name": "",
          "type": "bool"
        }
      ],
      "stateMutability": "nonpayable",
      "type": "function"
    },
    {
      "inputs": [
        {
          "internalType": "address",
          "name": "sender",
          "type": "address"
        },
        {
          "internalType": "address",
          "name": "recipient",
          "type": "address"
        },
        {
          "internalType": "uint256",
          "name": "amount",
          "type": "uint256"
        }
      ],
      "name": "transferFrom",
      "outputs": [
        {
          "internalType": "bool",
          "name": "",
          "type": "bool"
        }
      ],
      "stateMutability": "nonpayable",
      "type": "function"
    },
    {
      "inputs": [
        {
          "internalType": "address",
          "name": "newOwner",
          "type": "address"
        }
      ],
      "name": "transferOwnership",
      "outputs": [],
      "stateMutability": "nonpayable",
      "type": "function"
    },
    {
      "inputs": [
        {
          "internalType": "address",
          "name": "account",
          "type": "address"
        }
      ],
      "name": "vestedByAccount",
      "outputs": [
        {
          "internalType": "uint256",
          "name": "",
          "type": "uint256"
        }
      ],
      "stateMutability": "view",
      "type": "function"
    },
    {
      "inputs": [
        {
          "internalType": "uint256",
          "name": "vestingAmount",
          "type": "uint256"
        }
      ],
      "name": "vesting2wrapper",
      "outputs": [
        {
          "internalType": "uint256",
          "name": "",
          "type": "uint256"
        }
      ],
      "stateMutability": "view",
      "type": "function"
    },
    {
      "inputs": [],
      "name": "vestingStart",
      "outputs": [
        {
          "internalType": "uint256",
          "name": "",
          "type": "uint256"
        }
      ],
      "stateMutability": "view",
      "type": "function"
    },
    {
      "inputs": [],
      "name": "vestingTime",
      "outputs": [
        {
          "internalType": "uint256",
          "name": "",
          "type": "uint256"
        }
      ],
      "stateMutability": "view",
      "type": "function"
    },
    {
      "inputs": [],
      "name": "vestingToken",
      "outputs": [
        {
          "internalType": "contract IERC20",
          "name": "",
          "type": "address"
        }
      ],
      "stateMutability": "view",
      "type": "function"
    },
    {
      "inputs": [
        {
          "internalType": "address",
          "name": "",
          "type": "address"
        }
      ],
      "name": "withdrawn",
      "outputs": [
        {
          "internalType": "uint256",
          "name": "",
          "type": "uint256"
        }
      ],
      "stateMutability": "view",
      "type": "function"
    },
    {
      "inputs": [
        {
          "internalType": "address",
          "name": "account",
          "type": "address"
        }
      ],
      "name": "wrappedByAccount",
      "outputs": [
        {
          "internalType": "uint256",
          "name": "",
          "type": "uint256"
        }
      ],
      "stateMutability": "view",
      "type": "function"
    },
    {
      "inputs": [
        {
          "internalType": "uint256",
          "name": "wrapperAmount",
          "type": "uint256"
        }
      ],
      "name": "wrapper2vesting",
      "outputs": [
        {
          "internalType": "uint256",
          "name": "",
          "type": "uint256"
        }
      ],
      "stateMutability": "view",
      "type": "function"
    }
  ],
  "bytecode": "0x6101806040527f6e71edae12b1b97f4d1f60370fef10105fa2faae0126114a169c64845d6126c9610140526305a39a80600755620186a0600c553480156200004657600080fd5b5060405162002764380380620027648339810160408190526200006991620002d5565b6040518060400160405280600f81526020016e4d4f5245205468617420566573747360881b8152506040518060400160405280600381526020016226aa2b60e91b815250828180604051806040016040528060018152602001603160f81b81525085858160039080519060200190620000e49291906200022f565b508051620000fa9060049060208401906200022f565b5050825160208085019190912083518483012060e08290526101008190524660a0818152604080517f8b73c3c69bb8fe3d512ecc4cf759cc79239f7b179b0ffacaa9a75d522b39400f81880181905281830187905260608201869052608082019490945230818401528151808203909301835260c0019052805194019390932091935091906080523060601b60c0526101205250620001a99350620001a3925050620001d99050565b620001dd565b6001600160601b0319606082901b1661016052620001cb4262278d0062000305565b600855506200036792505050565b3390565b600680546001600160a01b038381166001600160a01b0319831681179093556040519116919082907f8be0079c531659141344cd1fd0a4f28419497f9722a3daafe3b4186f6b6457e090600090a35050565b8280546200023d906200032a565b90600052602060002090601f016020900481019282620002615760008555620002ac565b82601f106200027c57805160ff1916838001178555620002ac565b82800160010185558215620002ac579182015b82811115620002ac5782518255916020019190600101906200028f565b50620002ba929150620002be565b5090565b5b80821115620002ba5760008155600101620002bf565b600060208284031215620002e7578081fd5b81516001600160a01b0381168114620002fe578182fd5b9392505050565b600082198211156200032557634e487b7160e01b81526011600452602481fd5b500190565b600181811c908216806200033f57607f821691505b602082108114156200036157634e487b7160e01b600052602260045260246000fd5b50919050565b60805160a05160c05160601c60e0516101005161012051610140516101605160601c61237c620003e8600039600081816102290152818161085e0152818161097a0152610c3901526000610d1c01526000611397015260006113e6015260006113c101526000611318015260006113420152600061136c015261237c6000f3fe608060405234801561001057600080fd5b50600436106101b75760003560e01c806306fdde03146101bc578063095ea7b3146101da578063126f854d146101fd57806318160ddd1461021257806319d152fa146102245780631e6b37f11461025857806323b872dd1461026b578063254800d41461027e5780632912a933146102875780632c6424c91461029a578063313ce567146102ad5780633644e515146102bc57806339509351146102c45780633e54032c146102d757806342966c68146102ea5780636ccae054146102fd5780636ef610921461031057806370a0823114610330578063715018a6146103435780637ecebe001461034b578063802921601461035e5780638bf181c5146103715780638da5cb5b1461038457806395d89b411461038c578063a457c2d714610394578063a9059cbb146103a7578063af1b77c1146103ba578063b0b7df5a146103cd578063bee1df97146103e0578063c7dab436146103e9578063cc04823a146103f2578063d505accf14610405578063d9a80dbc14610418578063dd62ed3e1461042b578063de31a00414610464578063e467f7e014610477578063f2fde38b1461048a575b600080fd5b6101c461049d565b6040516101d191906121be565b60405180910390f35b6101ed6101e83660046120ad565b610530565b60405190151581526020016101d1565b61021061020b36600461215e565b610547565b005b6002545b6040519081526020016101d1565b61024b7f000000000000000000000000000000000000000000000000000000000000000081565b6040516101d191906121aa565b61021061026636600461215e565b610584565b6101ed610279366004612001565b6105b8565b61021660085481565b610216610295366004611fb5565b610664565b6102166102a8366004611fb5565b61070c565b604051601281526020016101d1565b61021661071a565b6101ed6102d23660046120ad565b610729565b6102106102e53660046120ad565b610765565b6102106102f836600461215e565b6107ae565b61021061030b366004612001565b610885565b61021661031e366004611fb5565b60096020526000908152604090205481565b61021661033e366004611fb5565b6108cd565b6102106108e8565b610216610359366004611fb5565b610923565b61021061036c36600461215e565b610941565b61021661037f36600461215e565b610975565b61024b610a53565b6101c4610a62565b6101ed6103a23660046120ad565b610a71565b6101ed6103b53660046120ad565b610b0a565b6102106103c8366004611fb5565b610b17565b6102106103db366004611fb5565b610bad565b610216600c5481565b61021660075481565b61021661040036600461215e565b610c0c565b61021061041336600461203c565b610cc8565b610216610426366004611fb5565b610e2c565b610216610439366004611fcf565b6001600160a01b03918216600090815260016020908152604080832093909416825291909152205490565b610210610472366004611fb5565b610e3a565b6102106104853660046120d6565b610e74565b610210610498366004611fb5565b610f67565b6060600380546104ac906122c0565b80601f01602080910402602001604051908101604052809291908181526020018280546104d8906122c0565b80156105255780601f106104fa57610100808354040283529160200191610525565b820191906000526020600020905b81548152906001019060200180831161050857829003601f168201915b505050505090505b90565b600061053d338484611007565b5060015b92915050565b33610550610a53565b6001600160a01b03161461057f5760405162461bcd60e51b8152600401610576906121f1565b60405180910390fd5b600855565b3361058d610a53565b6001600160a01b0316146105b35760405162461bcd60e51b8152600401610576906121f1565b600c55565b60006105c584848461112b565b6001600160a01b03841660009081526001602090815260408083203384529091529020548281101561064a5760405162461bcd60e51b815260206004820152602860248201527f45524332303a207472616e7366657220616d6f756e74206578636565647320616044820152676c6c6f77616e636560c01b6064820152608401610576565b6106578533858403611007565b60019150505b9392505050565b600060085442111561070357600061067b836108cd565b9050600061068882610c0c565b6001600160a01b0385166000908152600960205260408120549192506106ae8383612226565b90506000600854426106c0919061227d565b905060006106e68360075484866106d7919061225e565b6106e1919061223e565b6112f4565b90506106f6856106e1868461227d565b9650505050505050610707565b5060005b919050565b6000610541610400836108cd565b600061072461130b565b905090565b3360008181526001602090815260408083206001600160a01b0387168452909152812054909161053d918590610760908690612226565b611007565b3361076e610a53565b6001600160a01b0316146107945760405162461bcd60e51b8152600401610576906121f1565b61079f600a83611436565b506107aa828261144b565b5050565b60006107b982610c0c565b9050806107c533610664565b10156108225760405162461bcd60e51b815260206004820152602660248201527f5769746864726177696e67206d6f7265207468616e20766573746564206279206044820152651858dbdd5b9d60d21b6064820152608401610576565b3360009081526009602052604081208054839290610841908490612226565b9091555061085190503383611525565b6107aa6001600160a01b037f000000000000000000000000000000000000000000000000000000000000000016338361166d565b3361088e610a53565b6001600160a01b0316146108b45760405162461bcd60e51b8152600401610576906121f1565b6108c86001600160a01b038416838361166d565b505050565b6001600160a01b031660009081526020819052604090205490565b336108f1610a53565b6001600160a01b0316146109175760405162461bcd60e51b8152600401610576906121f1565b61092160006116bf565b565b6001600160a01b038116600090815260056020526040812054610541565b3361094a610a53565b6001600160a01b0316146109705760405162461bcd60e51b8152600401610576906121f1565b600755565b6000807f00000000000000000000000000000000000000000000000000000000000000006001600160a01b03166370a08231306040518263ffffffff1660e01b81526004016109c491906121aa565b60206040518083038186803b1580156109dc57600080fd5b505afa1580156109f0573d6000803e3d6000fd5b505050506040513d601f19601f82011682018060405250810190610a149190612176565b90508015610a43578083610a2760025490565b610a31919061225e565b610a3b919061223e565b915050610707565b6000915050610707565b50919050565b6006546001600160a01b031690565b6060600480546104ac906122c0565b3360009081526001602090815260408083206001600160a01b038616845290915281205482811015610af35760405162461bcd60e51b815260206004820152602560248201527f45524332303a2064656372656173656420616c6c6f77616e63652062656c6f77604482015264207a65726f60d81b6064820152608401610576565b610b003385858403611007565b5060019392505050565b600061053d33848461112b565b610b22600a82611711565b610b6d5760405162461bcd60e51b815260206004820152601c60248201527b139bdd0818481c1c9bdd1bd8dbdb081bdddb9959081858d8dbdd5b9d60221b6044820152606401610576565b6000610b7882610664565b90506000610ba1610b88846108cd565b612710610b9485610975565b600c546106d7919061225e565b90506108c88382611525565b610bb681610b17565b806001600160a01b031663fff6cae96040518163ffffffff1660e01b8152600401600060405180830381600087803b158015610bf157600080fd5b505af1158015610c05573d6000803e3d6000fd5b5050505050565b600080610c1860025490565b90508015610a43576040516370a0823160e01b815281906001600160a01b037f000000000000000000000000000000000000000000000000000000000000000016906370a0823190610c6e9030906004016121aa565b60206040518083038186803b158015610c8657600080fd5b505afa158015610c9a573d6000803e3d6000fd5b505050506040513d601f19601f82011682018060405250810190610cbe9190612176565b610a31908561225e565b83421115610d185760405162461bcd60e51b815260206004820152601d60248201527f45524332305065726d69743a206578706972656420646561646c696e650000006044820152606401610576565b60007f0000000000000000000000000000000000000000000000000000000000000000888888610d478c611726565b6040805160208101969096526001600160a01b0394851690860152929091166060840152608083015260a082015260c0810186905260e0016040516020818303038152906040528051906020012090506000610da28261174c565b90506000610db28287878761179a565b9050896001600160a01b0316816001600160a01b031614610e155760405162461bcd60e51b815260206004820152601e60248201527f45524332305065726d69743a20696e76616c6964207369676e617475726500006044820152606401610576565b610e208a8a8a611007565b50505050505050505050565b600061054161037f83610664565b33610e43610a53565b6001600160a01b031614610e695760405162461bcd60e51b8152600401610576906121f1565b6107aa600a826117c2565b33610e7d610a53565b6001600160a01b031614610ea35760405162461bcd60e51b8152600401610576906121f1565b828114610ee65760405162461bcd60e51b81526020600482015260116024820152704d69736d6174636865642061727261797360781b6044820152606401610576565b60005b80841115610c0557610f55858583818110610f1457634e487b7160e01b600052603260045260246000fd5b9050602002016020810190610f299190611fb5565b848484818110610f4957634e487b7160e01b600052603260045260246000fd5b9050602002013561144b565b80610f5f816122f5565b915050610ee9565b33610f70610a53565b6001600160a01b031614610f965760405162461bcd60e51b8152600401610576906121f1565b6001600160a01b038116610ffb5760405162461bcd60e51b815260206004820152602660248201527f4f776e61626c653a206e6577206f776e657220697320746865207a65726f206160448201526564647265737360d01b6064820152608401610576565b611004816116bf565b50565b6001600160a01b0383166110695760405162461bcd60e51b8152602060048201526024808201527f45524332303a20617070726f76652066726f6d20746865207a65726f206164646044820152637265737360e01b6064820152608401610576565b6001600160a01b0382166110ca5760405162461bcd60e51b815260206004820152602260248201527f45524332303a20617070726f766520746f20746865207a65726f206164647265604482015261737360f01b6064820152608401610576565b6001600160a01b0383811660008181526001602090815260408083209487168084529482529182902085905590518481527f8c5be1e5ebec7d5bd14f71427d1e84f3dd0314c0f7b2291e5b200ac8c7c3b925910160405180910390a3505050565b6001600160a01b03831661118f5760405162461bcd60e51b815260206004820152602560248201527f45524332303a207472616e736665722066726f6d20746865207a65726f206164604482015264647265737360d81b6064820152608401610576565b6001600160a01b0382166111f15760405162461bcd60e51b815260206004820152602360248201527f45524332303a207472616e7366657220746f20746865207a65726f206164647260448201526265737360e81b6064820152608401610576565b6111fc8383836117d7565b6001600160a01b038316600090815260208190526040902054818110156112745760405162461bcd60e51b815260206004820152602660248201527f45524332303a207472616e7366657220616d6f756e7420657863656564732062604482015265616c616e636560d01b6064820152608401610576565b6001600160a01b038085166000908152602081905260408082208585039055918516815290812080548492906112ab908490612226565b92505081905550826001600160a01b0316846001600160a01b0316600080516020612327833981519152846040516112e591815260200190565b60405180910390a35b50505050565b6000818310611304575080610541565b5081610541565b6000306001600160a01b037f00000000000000000000000000000000000000000000000000000000000000001614801561136457507f000000000000000000000000000000000000000000000000000000000000000046145b1561139057507f000000000000000000000000000000000000000000000000000000000000000061052d565b50604080517f00000000000000000000000000000000000000000000000000000000000000006020808301919091527f0000000000000000000000000000000000000000000000000000000000000000828401527f000000000000000000000000000000000000000000000000000000000000000060608301524660808301523060a0808401919091528351808403909101815260c0909201909252805191012061052d565b600061065d836001600160a01b0384166118ab565b6001600160a01b0382166114a15760405162461bcd60e51b815260206004820152601f60248201527f45524332303a206d696e7420746f20746865207a65726f2061646472657373006044820152606401610576565b6114ad600083836117d7565b80600260008282546114bf9190612226565b90915550506001600160a01b038216600090815260208190526040812080548392906114ec908490612226565b90915550506040518181526001600160a01b038316906000906000805160206123278339815191529060200160405180910390a36107aa565b6001600160a01b0382166115855760405162461bcd60e51b815260206004820152602160248201527f45524332303a206275726e2066726f6d20746865207a65726f206164647265736044820152607360f81b6064820152608401610576565b611591826000836117d7565b6001600160a01b038216600090815260208190526040902054818110156116055760405162461bcd60e51b815260206004820152602260248201527f45524332303a206275726e20616d6f756e7420657863656564732062616c616e604482015261636560f01b6064820152608401610576565b6001600160a01b038316600090815260208190526040812083830390556002805484929061163490849061227d565b90915550506040518281526000906001600160a01b038516906000805160206123278339815191529060200160405180910390a36108c8565b604080516001600160a01b038416602482015260448082018490528251808303909101815260649091019091526020810180516001600160e01b031663a9059cbb60e01b1790526108c89084906118f5565b600680546001600160a01b038381166001600160a01b0319831681179093556040519116919082907f8be0079c531659141344cd1fd0a4f28419497f9722a3daafe3b4186f6b6457e090600090a35050565b600061065d836001600160a01b0384166119c7565b6001600160a01b0381166000908152600560205260409020805460018101825590610a4d565b600061054161175961130b565b8360405161190160f01b6020820152602281018390526042810182905260009060620160405160208183030381529060405280519060200120905092915050565b60008060006117ab878787876119df565b915091506117b881611ac2565b5095945050505050565b600061065d836001600160a01b038416611cc0565b6000811180156117ef57506001600160a01b03831615155b801561180357506001600160a01b03821615155b156108c8576001600160a01b0383166000908152600960205260408120549061182b856108cd565b905060008161183a858561225e565b611844919061223e565b6001600160a01b03871660009081526009602052604081208054929350839290919061187190849061227d565b90915550506001600160a01b0385166000908152600960205260408120805483929061189e908490612226565b9091555050505050505050565b60006118b783836119c7565b6118ed57508154600181810184556000848152602080822090930184905584548482528286019093526040902091909155610541565b506000610541565b600061194a826040518060400160405280602081526020017f5361666545524332303a206c6f772d6c6576656c2063616c6c206661696c6564815250856001600160a01b0316611ddd9092919063ffffffff16565b8051909150156108c85780806020019051810190611968919061213e565b6108c85760405162461bcd60e51b815260206004820152602a60248201527f5361666545524332303a204552433230206f7065726174696f6e20646964206e6044820152691bdd081cdd58d8d9595960b21b6064820152608401610576565b60009081526001919091016020526040902054151590565b6000806fa2a8918ca85bafe22016d0b997e4df60600160ff1b03831115611a0c5750600090506003611ab9565b8460ff16601b14158015611a2457508460ff16601c14155b15611a355750600090506004611ab9565b6040805160008082526020820180845289905260ff881692820192909252606081018690526080810185905260019060a0016020604051602081039080840390855afa158015611a89573d6000803e3d6000fd5b5050604051601f1901519150506001600160a01b038116611ab257600060019250925050611ab9565b9150600090505b94509492505050565b6000816004811115611ae457634e487b7160e01b600052602160045260246000fd5b1415611aef57611004565b6001816004811115611b1157634e487b7160e01b600052602160045260246000fd5b1415611b5a5760405162461bcd60e51b815260206004820152601860248201527745434453413a20696e76616c6964207369676e617475726560401b6044820152606401610576565b6002816004811115611b7c57634e487b7160e01b600052602160045260246000fd5b1415611bca5760405162461bcd60e51b815260206004820152601f60248201527f45434453413a20696e76616c6964207369676e6174757265206c656e677468006044820152606401610576565b6003816004811115611bec57634e487b7160e01b600052602160045260246000fd5b1415611c455760405162461bcd60e51b815260206004820152602260248201527f45434453413a20696e76616c6964207369676e6174757265202773272076616c604482015261756560f01b6064820152608401610576565b6004816004811115611c6757634e487b7160e01b600052602160045260246000fd5b14156110045760405162461bcd60e51b815260206004820152602260248201527f45434453413a20696e76616c6964207369676e6174757265202776272076616c604482015261756560f01b6064820152608401610576565b60008181526001830160205260408120548015611dd3576000611ce460018361227d565b8554909150600090611cf89060019061227d565b9050818114611d79576000866000018281548110611d2657634e487b7160e01b600052603260045260246000fd5b9060005260206000200154905080876000018481548110611d5757634e487b7160e01b600052603260045260246000fd5b6000918252602080832090910192909255918252600188019052604090208390555b8554869080611d9857634e487b7160e01b600052603160045260246000fd5b600190038181906000526020600020016000905590558560010160008681526020019081526020016000206000905560019350505050610541565b6000915050610541565b6060611dec8484600085611df4565b949350505050565b606082471015611e555760405162461bcd60e51b815260206004820152602660248201527f416464726573733a20696e73756666696369656e742062616c616e636520666f6044820152651c8818d85b1b60d21b6064820152608401610576565b843b611ea35760405162461bcd60e51b815260206004820152601d60248201527f416464726573733a2063616c6c20746f206e6f6e2d636f6e74726163740000006044820152606401610576565b600080866001600160a01b03168587604051611ebf919061218e565b60006040518083038185875af1925050503d8060008114611efc576040519150601f19603f3d011682016040523d82523d6000602084013e611f01565b606091505b5091509150611f11828286611f1c565b979650505050505050565b60608315611f2b57508161065d565b825115611f3b5782518084602001fd5b8160405162461bcd60e51b815260040161057691906121be565b80356001600160a01b038116811461070757600080fd5b60008083601f840112611f7d578182fd5b5081356001600160401b03811115611f93578182fd5b6020830191508360208260051b8501011115611fae57600080fd5b9250929050565b600060208284031215611fc6578081fd5b61065d82611f55565b60008060408385031215611fe1578081fd5b611fea83611f55565b9150611ff860208401611f55565b90509250929050565b600080600060608486031215612015578081fd5b61201e84611f55565b925061202c60208501611f55565b9150604084013590509250925092565b600080600080600080600060e0888a031215612056578283fd5b61205f88611f55565b965061206d60208901611f55565b95506040880135945060608801359350608088013560ff81168114612090578384fd5b9699959850939692959460a0840135945060c09093013592915050565b600080604083850312156120bf578182fd5b6120c883611f55565b946020939093013593505050565b600080600080604085870312156120eb578384fd5b84356001600160401b0380821115612101578586fd5b61210d88838901611f6c565b90965094506020870135915080821115612125578384fd5b5061213287828801611f6c565b95989497509550505050565b60006020828403121561214f578081fd5b8151801515811461065d578182fd5b60006020828403121561216f578081fd5b5035919050565b600060208284031215612187578081fd5b5051919050565b600082516121a0818460208701612294565b9190910192915050565b6001600160a01b0391909116815260200190565b60006020825282518060208401526121dd816040850160208701612294565b601f01601f19169190910160400192915050565b6020808252818101527f4f776e61626c653a2063616c6c6572206973206e6f7420746865206f776e6572604082015260600190565b6000821982111561223957612239612310565b500190565b60008261225957634e487b7160e01b81526012600452602481fd5b500490565b600081600019048311821515161561227857612278612310565b500290565b60008282101561228f5761228f612310565b500390565b60005b838110156122af578181015183820152602001612297565b838111156112ee5750506000910152565b600181811c908216806122d457607f821691505b60208210811415610a4d57634e487b7160e01b600052602260045260246000fd5b600060001982141561230957612309612310565b5060010190565b634e487b7160e01b600052601160045260246000fdfeddf252ad1be2c89b69c2b068fc378daa952ba7f163c4a11628f55a4df523b3efa2646970667358221220bd8cff28d6f0505a1e903f27c0063e50d1f8f3a90ec351ace30324ac0f31a6e964736f6c63430008030033",
  "linkReferences": {},
  "deployedLinkReferences": {}
}