{
  "_format": "hh-sol-artifact-1",
  "contractName": "SafeOwnableUpgradeable",
  "sourceName": "contracts/governance/SafeOwnableUpgradeable.sol",
  "abi": [
    {
      "anonymous": false,
      "inputs": [
        {
          "indexed": true,
          "internalType": "address",
          "name": "previousOwner",
          "type": "address"
        },
        {
          "indexed": true,
          "internalType": "address",
          "name": "newOwner",
          "type": "address"
        }
      ],
      "name": "OwnershipTransferred",
      "type": "event"
    },
    {
      "inputs": [],
      "name": "acceptOwnership",
      "outputs": [],
      "stateMutability": "nonpayable",
      "type": "function"
    },
    {
      "inputs": [],
      "name": "owner",
      "outputs": [
        {
          "internalType": "address",
          "name": "",
          "type": "address"
        }
      ],
      "stateMutability": "view",
      "type": "function"
    },
    {
      "inputs": [],
      "name": "ownerCandidate",
      "outputs": [
        {
          "internalType": "address",
          "name": "",
          "type": "address"
        }
      ],
      "stateMutability": "view",
      "type": "function"
    },
    {
      "inputs": [
        {
          "internalType": "address",
          "name": "newOwner",
          "type": "address"
        }
      ],
      "name": "proposeOwner",
      "outputs": [],
      "stateMutability": "nonpayable",
      "type": "function"
    },
    {
      "inputs": [],
      "name": "renounceOwnership",
      "outputs": [],
      "stateMutability": "nonpayable",
      "type": "function"
    }
  ],
  "bytecode": "0x608060405234801561001057600080fd5b506102c0806100206000396000f3fe608060405234801561001057600080fd5b50600436106100575760003560e01c80635f504a821461005c578063715018a61461007c57806379ba5097146100865780638da5cb5b1461008e578063b5ed298a14610096575b600080fd5b6034545b6040516001600160a01b03909116815260200160405180910390f35b6100846100a9565b005b6100846100ed565b610060610145565b6100846100a4366004610227565b610154565b336100b2610145565b6001600160a01b0316146100e15760405162461bcd60e51b81526004016100d890610255565b60405180910390fd5b6100eb60006101d5565b565b336100f760345490565b6001600160a01b03161461013c5760405162461bcd60e51b815260206004820152600c60248201526b155b985d5d1a1bdc9a5e995960a21b60448201526064016100d8565b6100eb336101d5565b6033546001600160a01b031690565b3361015d610145565b6001600160a01b0316146101835760405162461bcd60e51b81526004016100d890610255565b6001600160a01b0381166101c75760405162461bcd60e51b815260206004820152600b60248201526a5a65726f4164647265737360a81b60448201526064016100d8565b6001600160a01b0316603455565b603380546001600160a01b038381166001600160a01b0319831681179093556040519116919082907f8be0079c531659141344cd1fd0a4f28419497f9722a3daafe3b4186f6b6457e090600090a35050565b600060208284031215610238578081fd5b81356001600160a01b038116811461024e578182fd5b9392505050565b6020808252818101527f4f776e61626c653a2063616c6c6572206973206e6f7420746865206f776e657260408201526060019056fea264697066735822122057fbe690f35d04fb16c9765db11d18955d8f56d80a54e15fa2fa843e68f300b164736f6c63430008030033",
  "linkReferences": {},
  "deployedLinkReferences": {}
}