{
  "_format": "hh-sol-artifact-1",
  "contractName": "TokenActivation",
  "sourceName": "contracts/controller-actions/TokenActivation.sol",
  "abi": [
    {
      "inputs": [
        {
          "internalType": "address[]",
          "name": "_tokens",
          "type": "address[]"
        },
        {
          "internalType": "uint256[]",
          "name": "_debtCeilings",
          "type": "uint256[]"
        },
        {
          "internalType": "uint256[]",
          "name": "_feesPer10k",
          "type": "uint256[]"
        },
        {
          "internalType": "uint256[]",
          "name": "_liquidationRewardPer10k",
          "type": "uint256[]"
        },
        {
          "internalType": "address",
          "name": "_liquidationContract",
          "type": "address"
        },
        {
          "internalType": "address",
          "name": "_liquidationContract2",
          "type": "address"
        },
        {
          "internalType": "address",
          "name": "_roles",
          "type": "address"
        }
      ],
      "stateMutability": "nonpayable",
      "type": "constructor"
    },
    {
      "anonymous": false,
      "inputs": [
        {
          "indexed": false,
          "internalType": "string",
          "name": "param",
          "type": "string"
        },
        {
          "indexed": false,
          "internalType": "uint256",
          "name": "value",
          "type": "uint256"
        }
      ],
      "name": "ParameterUpdated",
      "type": "event"
    },
    {
      "anonymous": false,
      "inputs": [
        {
          "indexed": false,
          "internalType": "string",
          "name": "param",
          "type": "string"
        },
        {
          "indexed": false,
          "internalType": "address",
          "name": "subject",
          "type": "address"
        },
        {
          "indexed": false,
          "internalType": "uint256",
          "name": "value",
          "type": "uint256"
        }
      ],
      "name": "SubjectParameterUpdated",
      "type": "event"
    },
    {
      "anonymous": false,
      "inputs": [
        {
          "indexed": false,
          "internalType": "string",
          "name": "param",
          "type": "string"
        },
        {
          "indexed": false,
          "internalType": "address",
          "name": "subject",
          "type": "address"
        }
      ],
      "name": "SubjectUpdated",
      "type": "event"
    },
    {
      "inputs": [
        {
          "internalType": "uint256",
          "name": "",
          "type": "uint256"
        }
      ],
      "name": "_charactersPlayed",
      "outputs": [
        {
          "internalType": "uint256",
          "name": "",
          "type": "uint256"
        }
      ],
      "stateMutability": "view",
      "type": "function"
    },
    {
      "inputs": [
        {
          "internalType": "uint256",
          "name": "",
          "type": "uint256"
        }
      ],
      "name": "_dependsOnCharacters",
      "outputs": [
        {
          "internalType": "uint256",
          "name": "",
          "type": "uint256"
        }
      ],
      "stateMutability": "view",
      "type": "function"
    },
    {
      "inputs": [
        {
          "internalType": "uint256",
          "name": "",
          "type": "uint256"
        }
      ],
      "name": "_dependsOnRoles",
      "outputs": [
        {
          "internalType": "uint256",
          "name": "",
          "type": "uint256"
        }
      ],
      "stateMutability": "view",
      "type": "function"
    },
    {
      "inputs": [
        {
          "internalType": "uint256",
          "name": "",
          "type": "uint256"
        }
      ],
      "name": "_rolesPlayed",
      "outputs": [
        {
          "internalType": "uint256",
          "name": "",
          "type": "uint256"
        }
      ],
      "stateMutability": "view",
      "type": "function"
    },
    {
      "inputs": [],
      "name": "charactersPlayed",
      "outputs": [
        {
          "internalType": "uint256[]",
          "name": "",
          "type": "uint256[]"
        }
      ],
      "stateMutability": "view",
      "type": "function"
    },
    {
      "inputs": [
        {
          "internalType": "uint256",
          "name": "",
          "type": "uint256"
        }
      ],
      "name": "debtCeilings",
      "outputs": [
        {
          "internalType": "uint256",
          "name": "",
          "type": "uint256"
        }
      ],
      "stateMutability": "view",
      "type": "function"
    },
    {
      "inputs": [],
      "name": "dependsOnCharacters",
      "outputs": [
        {
          "internalType": "uint256[]",
          "name": "",
          "type": "uint256[]"
        }
      ],
      "stateMutability": "view",
      "type": "function"
    },
    {
      "inputs": [],
      "name": "dependsOnRoles",
      "outputs": [
        {
          "internalType": "uint256[]",
          "name": "",
          "type": "uint256[]"
        }
      ],
      "stateMutability": "view",
      "type": "function"
    },
    {
      "inputs": [],
      "name": "execute",
      "outputs": [],
      "stateMutability": "nonpayable",
      "type": "function"
    },
    {
      "inputs": [
        {
          "internalType": "uint256",
          "name": "",
          "type": "uint256"
        }
      ],
      "name": "feesPer10k",
      "outputs": [
        {
          "internalType": "uint256",
          "name": "",
          "type": "uint256"
        }
      ],
      "stateMutability": "view",
      "type": "function"
    },
    {
      "inputs": [],
      "name": "liquidationContract",
      "outputs": [
        {
          "internalType": "address",
          "name": "",
          "type": "address"
        }
      ],
      "stateMutability": "view",
      "type": "function"
    },
    {
      "inputs": [],
      "name": "liquidationContract2",
      "outputs": [
        {
          "internalType": "address",
          "name": "",
          "type": "address"
        }
      ],
      "stateMutability": "view",
      "type": "function"
    },
    {
      "inputs": [
        {
          "internalType": "uint256",
          "name": "",
          "type": "uint256"
        }
      ],
      "name": "liquidationRewardPer10k",
      "outputs": [
        {
          "internalType": "uint256",
          "name": "",
          "type": "uint256"
        }
      ],
      "stateMutability": "view",
      "type": "function"
    },
    {
      "inputs": [
        {
          "internalType": "uint256",
          "name": "",
          "type": "uint256"
        }
      ],
      "name": "mainCharacterCache",
      "outputs": [
        {
          "internalType": "address",
          "name": "",
          "type": "address"
        }
      ],
      "stateMutability": "view",
      "type": "function"
    },
    {
      "inputs": [
        {
          "internalType": "address",
          "name": "",
          "type": "address"
        },
        {
          "internalType": "uint256",
          "name": "",
          "type": "uint256"
        }
      ],
      "name": "roleCache",
      "outputs": [
        {
          "internalType": "bool",
          "name": "",
          "type": "bool"
        }
      ],
      "stateMutability": "view",
      "type": "function"
    },
    {
      "inputs": [],
      "name": "roles",
      "outputs": [
        {
          "internalType": "contract Roles",
          "name": "",
          "type": "address"
        }
      ],
      "stateMutability": "view",
      "type": "function"
    },
    {
      "inputs": [],
      "name": "rolesPlayed",
      "outputs": [
        {
          "internalType": "uint256[]",
          "name": "",
          "type": "uint256[]"
        }
      ],
      "stateMutability": "view",
      "type": "function"
    },
    {
      "inputs": [
        {
          "internalType": "uint256",
          "name": "",
          "type": "uint256"
        }
      ],
      "name": "tokens",
      "outputs": [
        {
          "internalType": "address",
          "name": "",
          "type": "address"
        }
      ],
      "stateMutability": "view",
      "type": "function"
    },
    {
      "inputs": [
        {
          "internalType": "uint256",
          "name": "role",
          "type": "uint256"
        }
      ],
      "name": "updateMainCharacterCache",
      "outputs": [],
      "stateMutability": "nonpayable",
      "type": "function"
    },
    {
      "inputs": [
        {
          "internalType": "uint256",
          "name": "role",
          "type": "uint256"
        },
        {
          "internalType": "address",
          "name": "contr",
          "type": "address"
        }
      ],
      "name": "updateRoleCache",
      "outputs": [],
      "stateMutability": "nonpayable",
      "type": "function"
    }
  ],
  "bytecode": "0x60e06040523480156200001157600080fd5b5060405162001047380380620010478339810160408190526200003491620003a9565b806001600160a01b0381166200009c5760405162461bcd60e51b815260206004820152602260248201527f506c656173652070726f766964652076616c696420726f6c6573206164647265604482015261737360f01b60648201526084015b60405180910390fd5b60601b6001600160601b03191660805260028054600180820183556000839052606f7f405787fa12a823e0f2b7631cc41b3ba8828b3321ca811111fa75cd3aa3bb5ace92830155825480820184556077908301558254908101909255606a9101558651865181148015620001105750808651145b80156200011d5750808551145b6200016b5760405162461bcd60e51b815260206004820152601360248201527f4c656e6774687320646f6e2774206d6174636800000000000000000000000000604482015260640162000093565b8751620001809060069060208b0190620001e9565b508651620001969060079060208a019062000253565b508551620001ac90600890602089019062000253565b508451620001c290600990602088019062000253565b5050506001600160601b0319606092831b811660a052911b1660c052506200050492505050565b82805482825590600052602060002090810192821562000241579160200282015b828111156200024157825182546001600160a01b0319166001600160a01b039091161782556020909201916001909101906200020a565b506200024f92915062000291565b5090565b82805482825590600052602060002090810192821562000241579160200282015b828111156200024157825182559160200191906001019062000274565b5b808211156200024f576000815560010162000292565b80516001600160a01b0381168114620002c057600080fd5b919050565b600082601f830112620002d6578081fd5b81516020620002ef620002e983620004c8565b62000495565b80838252828201915082860187848660051b89010111156200030f578586fd5b855b8581101562000338576200032582620002a8565b8452928401929084019060010162000311565b5090979650505050505050565b600082601f83011262000356578081fd5b8151602062000369620002e983620004c8565b80838252828201915082860187848660051b890101111562000389578586fd5b855b8581101562000338578151845292840192908401906001016200038b565b600080600080600080600060e0888a031215620003c4578283fd5b87516001600160401b0380821115620003db578485fd5b620003e98b838c01620002c5565b985060208a0151915080821115620003ff578485fd5b6200040d8b838c0162000345565b975060408a015191508082111562000423578485fd5b620004318b838c0162000345565b965060608a015191508082111562000447578485fd5b50620004568a828b0162000345565b9450506200046760808901620002a8565b92506200047760a08901620002a8565b91506200048760c08901620002a8565b905092959891949750929550565b604051601f8201601f191681016001600160401b0381118282101715620004c057620004c0620004ee565b604052919050565b60006001600160401b03821115620004e457620004e4620004ee565b5060051b60200190565b634e487b7160e01b600052604160045260246000fd5b60805160601c60a05160601c60c05160601c610af562000552600039600081816102db0152610704015260006101e901526000818161016701528181610334015261041b0152610af56000f3fe608060405234801561001057600080fd5b50600436106100fc5760003560e01c806303c3f9c414610101578063071060a6146101275780630d9b5c701461013c5780633622126d1461014f578063392f5f6414610162578063447d52ba146101a15780634a7a7f41146101b45780634f64b2be146101c957806361461954146101dc57806364c872c2146101e45780636caa9c111461020b5780637a1a04df1461021e5780637dad209b1461025c578063abcbc4fc14610264578063aeb38d8b14610277578063bf184ea41461028a578063dc94cb7d1461029d578063e8ea4fae146102a5578063e9c3f77d146102ad578063f7ad0c94146102d6575b600080fd5b61011461010f3660046109df565b6102fd565b6040519081526020015b60405180910390f35b61013a6101353660046109df565b61031e565b005b61011461014a3660046109df565b6103e4565b61011461015d3660046109df565b6103f4565b6101897f000000000000000000000000000000000000000000000000000000000000000081565b6040516001600160a01b03909116815260200161011e565b61013a6101af3660046109f7565b610404565b6101bc6104da565b60405161011e9190610a3f565b6101896101d73660046109df565b610532565b61013a61055c565b6101897f000000000000000000000000000000000000000000000000000000000000000081565b6101146102193660046109df565b6107f5565b61024c61022c366004610994565b600160209081526000928352604080842090915290825290205460ff1681565b604051901515815260200161011e565b6101bc610805565b6101146102723660046109df565b61085b565b6101146102853660046109df565b61086b565b6101146102983660046109df565b61087b565b6101bc61088b565b6101bc6108e1565b6101896102bb3660046109df565b6000602081905290815260409020546001600160a01b031681565b6101897f000000000000000000000000000000000000000000000000000000000000000081565b6009818154811061030d57600080fd5b600091825260209091200154905081565b60405163b4ed0b6d60e01b8152600481018290527f00000000000000000000000000000000000000000000000000000000000000006001600160a01b03169063b4ed0b6d9060240160206040518083038186803b15801561037e57600080fd5b505afa158015610392573d6000803e3d6000fd5b505050506040513d601f19601f820116820180604052508101906103b69190610971565b60009182526020829052604090912080546001600160a01b0319166001600160a01b03909216919091179055565b6007818154811061030d57600080fd5b6008818154811061030d57600080fd5b60405163f0723d9760e01b81526001600160a01b037f0000000000000000000000000000000000000000000000000000000000000000169063f0723d97906104529084908690600401610a26565b60206040518083038186803b15801561046a57600080fd5b505afa15801561047e573d6000803e3d6000fd5b505050506040513d601f19601f820116820180604052508101906104a291906109bf565b6001600160a01b0391909116600090815260016020908152604080832094835293905291909120805460ff1916911515919091179055565b6060600380548060200260200160405190810160405280929190818152602001828054801561052857602002820191906000526020600020905b815481526020019060010190808311610514575b5050505050905090565b6006818154811061054257600080fd5b6000918252602090912001546001600160a01b0316905081565b600654600061059c607760009081526020527f0268ef3855c7ede1fa90865cb7be57f1e39b20db2aafdd81fc63c1af98b87bcb546001600160a01b031690565b905060005b808311156107c1576000600682815481106105cc57634e487b7160e01b600052603260045260246000fd5b9060005260206000200160009054906101000a90046001600160a01b03169050826001600160a01b031663a061ba5f826007858154811061061d57634e487b7160e01b600052603260045260246000fd5b90600052602060002001546040518363ffffffff1660e01b8152600401610645929190610a26565b600060405180830381600087803b15801561065f57600080fd5b505af1158015610673573d6000803e3d6000fd5b50505050826001600160a01b031663eab9209682600885815481106106a857634e487b7160e01b600052603260045260246000fd5b90600052602060002001546040518363ffffffff1660e01b81526004016106d0929190610a26565b600060405180830381600087803b1580156106ea57600080fd5b505af11580156106fe573d6000803e3d6000fd5b505050507f00000000000000000000000000000000000000000000000000000000000000006001600160a01b0316637ae3c7a6826009858154811061075357634e487b7160e01b600052603260045260246000fd5b90600052602060002001546040518363ffffffff1660e01b815260040161077b929190610a26565b600060405180830381600087803b15801561079557600080fd5b505af11580156107a9573d6000803e3d6000fd5b505050505080806107b990610a83565b9150506105a1565b506107ce60066000610937565b6107da60076000610937565b6107e660086000610937565b6107f260096000610937565b32ff5b6005818154811061030d57600080fd5b606060048054806020026020016040519081016040528092919081815260200182805480156105285760200282019190600052602060002090815481526020019060010190808311610514575050505050905090565b6002818154811061030d57600080fd5b6004818154811061030d57600080fd5b6003818154811061030d57600080fd5b606060028054806020026020016040519081016040528092919081815260200182805480156105285760200282019190600052602060002090815481526020019060010190808311610514575050505050905090565b606060058054806020026020016040519081016040528092919081815260200182805480156105285760200282019190600052602060002090815481526020019060010190808311610514575050505050905090565b50805460008255906000526020600020908101906109559190610958565b50565b5b8082111561096d5760008155600101610959565b5090565b600060208284031215610982578081fd5b815161098d81610aaa565b9392505050565b600080604083850312156109a6578081fd5b82356109b181610aaa565b946020939093013593505050565b6000602082840312156109d0578081fd5b8151801515811461098d578182fd5b6000602082840312156109f0578081fd5b5035919050565b60008060408385031215610a09578182fd5b823591506020830135610a1b81610aaa565b809150509250929050565b6001600160a01b03929092168252602082015260400190565b6020808252825182820181905260009190848201906040850190845b81811015610a7757835183529284019291840191600101610a5b565b50909695505050505050565b6000600019821415610aa357634e487b7160e01b81526011600452602481fd5b5060010190565b6001600160a01b038116811461095557600080fdfea2646970667358221220e7cc152dadc4c9afec14db1692fbf17f4596f395e6522e3869ea0e71b86c1c2f64736f6c63430008030033",
  "linkReferences": {},
  "deployedLinkReferences": {}
}