{
  "_format": "hh-sol-artifact-1",
  "contractName": "Redeemer",
  "sourceName": "contracts/Redeemer.sol",
  "abi": [
    {
      "inputs": [
        {
          "internalType": "address",
          "name": "_curveZap",
          "type": "address"
        },
        {
          "internalType": "address[]",
          "name": "_approvedTargetTokens",
          "type": "address[]"
        },
        {
          "internalType": "int128[]",
          "name": "_intermediaryIndices",
          "type": "int128[]"
        },
        {
          "internalType": "address",
          "name": "_roles",
          "type": "address"
        }
      ],
      "stateMutability": "nonpayable",
      "type": "constructor"
    },
    {
      "anonymous": false,
      "inputs": [
        {
          "indexed": false,
          "internalType": "string",
          "name": "param",
          "type": "string"
        },
        {
          "indexed": false,
          "internalType": "uint256",
          "name": "value",
          "type": "uint256"
        }
      ],
      "name": "ParameterUpdated",
      "type": "event"
    },
    {
      "anonymous": false,
      "inputs": [
        {
          "indexed": false,
          "internalType": "string",
          "name": "param",
          "type": "string"
        },
        {
          "indexed": false,
          "internalType": "address",
          "name": "subject",
          "type": "address"
        },
        {
          "indexed": false,
          "internalType": "uint256",
          "name": "value",
          "type": "uint256"
        }
      ],
      "name": "SubjectParameterUpdated",
      "type": "event"
    },
    {
      "anonymous": false,
      "inputs": [
        {
          "indexed": false,
          "internalType": "string",
          "name": "param",
          "type": "string"
        },
        {
          "indexed": false,
          "internalType": "address",
          "name": "subject",
          "type": "address"
        }
      ],
      "name": "SubjectUpdated",
      "type": "event"
    },
    {
      "inputs": [
        {
          "internalType": "uint256",
          "name": "",
          "type": "uint256"
        }
      ],
      "name": "_charactersPlayed",
      "outputs": [
        {
          "internalType": "uint256",
          "name": "",
          "type": "uint256"
        }
      ],
      "stateMutability": "view",
      "type": "function"
    },
    {
      "inputs": [
        {
          "internalType": "uint256",
          "name": "",
          "type": "uint256"
        }
      ],
      "name": "_dependsOnCharacters",
      "outputs": [
        {
          "internalType": "uint256",
          "name": "",
          "type": "uint256"
        }
      ],
      "stateMutability": "view",
      "type": "function"
    },
    {
      "inputs": [
        {
          "internalType": "uint256",
          "name": "",
          "type": "uint256"
        }
      ],
      "name": "_dependsOnRoles",
      "outputs": [
        {
          "internalType": "uint256",
          "name": "",
          "type": "uint256"
        }
      ],
      "stateMutability": "view",
      "type": "function"
    },
    {
      "inputs": [
        {
          "internalType": "address",
          "name": "",
          "type": "address"
        },
        {
          "internalType": "address",
          "name": "",
          "type": "address"
        }
      ],
      "name": "_oracleCache",
      "outputs": [
        {
          "internalType": "address",
          "name": "",
          "type": "address"
        }
      ],
      "stateMutability": "view",
      "type": "function"
    },
    {
      "inputs": [
        {
          "internalType": "uint256",
          "name": "",
          "type": "uint256"
        }
      ],
      "name": "_rolesPlayed",
      "outputs": [
        {
          "internalType": "uint256",
          "name": "",
          "type": "uint256"
        }
      ],
      "stateMutability": "view",
      "type": "function"
    },
    {
      "inputs": [],
      "name": "charactersPlayed",
      "outputs": [
        {
          "internalType": "uint256[]",
          "name": "",
          "type": "uint256[]"
        }
      ],
      "stateMutability": "view",
      "type": "function"
    },
    {
      "inputs": [],
      "name": "curveZap",
      "outputs": [
        {
          "internalType": "contract ICurveZap",
          "name": "",
          "type": "address"
        }
      ],
      "stateMutability": "view",
      "type": "function"
    },
    {
      "inputs": [],
      "name": "dependsOnCharacters",
      "outputs": [
        {
          "internalType": "uint256[]",
          "name": "",
          "type": "uint256[]"
        }
      ],
      "stateMutability": "view",
      "type": "function"
    },
    {
      "inputs": [],
      "name": "dependsOnRoles",
      "outputs": [
        {
          "internalType": "uint256[]",
          "name": "",
          "type": "uint256[]"
        }
      ],
      "stateMutability": "view",
      "type": "function"
    },
    {
      "inputs": [
        {
          "internalType": "address",
          "name": "",
          "type": "address"
        }
      ],
      "name": "intermediaryIndex",
      "outputs": [
        {
          "internalType": "int128",
          "name": "",
          "type": "int128"
        }
      ],
      "stateMutability": "view",
      "type": "function"
    },
    {
      "inputs": [
        {
          "internalType": "uint256",
          "name": "",
          "type": "uint256"
        }
      ],
      "name": "mainCharacterCache",
      "outputs": [
        {
          "internalType": "address",
          "name": "",
          "type": "address"
        }
      ],
      "stateMutability": "view",
      "type": "function"
    },
    {
      "inputs": [
        {
          "internalType": "address",
          "name": "token",
          "type": "address"
        },
        {
          "internalType": "address",
          "name": "pegCurrency",
          "type": "address"
        }
      ],
      "name": "newCurrentOracle",
      "outputs": [],
      "stateMutability": "nonpayable",
      "type": "function"
    },
    {
      "inputs": [
        {
          "internalType": "uint256",
          "name": "trancheId",
          "type": "uint256"
        },
        {
          "internalType": "uint256",
          "name": "percentage",
          "type": "uint256"
        }
      ],
      "name": "redeem",
      "outputs": [],
      "stateMutability": "nonpayable",
      "type": "function"
    },
    {
      "inputs": [
        {
          "internalType": "address",
          "name": "",
          "type": "address"
        },
        {
          "internalType": "uint256",
          "name": "",
          "type": "uint256"
        }
      ],
      "name": "roleCache",
      "outputs": [
        {
          "internalType": "bool",
          "name": "",
          "type": "bool"
        }
      ],
      "stateMutability": "view",
      "type": "function"
    },
    {
      "inputs": [],
      "name": "roles",
      "outputs": [
        {
          "internalType": "contract Roles",
          "name": "",
          "type": "address"
        }
      ],
      "stateMutability": "view",
      "type": "function"
    },
    {
      "inputs": [],
      "name": "rolesPlayed",
      "outputs": [
        {
          "internalType": "uint256[]",
          "name": "",
          "type": "uint256[]"
        }
      ],
      "stateMutability": "view",
      "type": "function"
    },
    {
      "inputs": [
        {
          "internalType": "uint256",
          "name": "role",
          "type": "uint256"
        }
      ],
      "name": "updateMainCharacterCache",
      "outputs": [],
      "stateMutability": "nonpayable",
      "type": "function"
    },
    {
      "inputs": [
        {
          "internalType": "uint256",
          "name": "role",
          "type": "uint256"
        },
        {
          "internalType": "address",
          "name": "contr",
          "type": "address"
        }
      ],
      "name": "updateRoleCache",
      "outputs": [],
      "stateMutability": "nonpayable",
      "type": "function"
    }
  ],
  "bytecode": "0x60c06040523480156200001157600080fd5b5060405162001d3638038062001d3683398101604081905262000034916200035a565b806001600160a01b0381166200009b5760405162461bcd60e51b815260206004820152602260248201527f506c656173652070726f766964652076616c696420726f6c6573206164647265604482015261737360f01b606482015260840160405180910390fd5b60601b6001600160601b031916608052600280546001808201835560697f405787fa12a823e0f2b7631cc41b3ba8828b3321ca811111fa75cd3aa3bb5ace9283015582548082018455606a9083015560058054808301825560047f036b6384b5eca791c62761152d0c79bb0604c104a5fb6f4eb0703f3154bb3db0918201558454808401865560669085015584548084018655606d94019390935580548083018255600082815290840182905581549283019091559101919091555b80845111156200023a5760008482815181106200018457634e487b7160e01b600052603260045260246000fd5b60200260200101519050620001a98160076200024560201b62000e3c1790919060201c565b50838281518110620001cb57634e487b7160e01b600052603260045260246000fd5b6020908102919091018101516001600160a01b0390921660009081526009909152604090208054600f9290920b6001600160801b03166001600160801b03199092169190911790556001600160601b0319606086901b1660a052806200023181620004ab565b91505062000157565b5050505050620004e9565b60006200025c836001600160a01b03841662000265565b90505b92915050565b6000818152600183016020526040812054620002ae575081546001818101845560008481526020808220909301849055845484825282860190935260409020919091556200025f565b5060006200025f565b80516001600160a01b0381168114620002cf57600080fd5b919050565b600082601f830112620002e5578081fd5b81516020620002fe620002f88362000485565b62000452565b80838252828201915082860187848660051b89010111156200031e578586fd5b855b858110156200034d57815180600f0b81146200033a578788fd5b8452928401929084019060010162000320565b5090979650505050505050565b6000806000806080858703121562000370578384fd5b6200037b85620002b7565b602086810151919550906001600160401b03808211156200039a578586fd5b818801915088601f830112620003ae578586fd5b8151620003bf620002f88262000485565b8082825285820191508585018c878560051b8801011115620003df57898afd5b8995505b838610156200040c57620003f781620002b7565b835260019590950194918601918601620003e3565b5060408b0151909850945050508083111562000426578485fd5b50506200043687828801620002d4565b9250506200044760608601620002b7565b905092959194509250565b604051601f8201601f191681016001600160401b03811182821017156200047d576200047d620004d3565b604052919050565b60006001600160401b03821115620004a157620004a1620004d3565b5060051b60200190565b6000600019821415620004cc57634e487b7160e01b81526011600452602481fd5b5060010190565b634e487b7160e01b600052604160045260246000fd5b60805160601c60a05160601c6117f0620005466000396000818161029601528181610adf0152610b0601526000818161019401528181610307015281816104c101528181610e9601528181610f2e0152610fb501526117f06000f3fe608060405234801561001057600080fd5b50600436106100e65760003560e01c8063071060a6146100eb5780630d9a4828146101005780632642b6061461013b57806328f3fc731461017c578063392f5f641461018f578063447d52ba146101b65780634a7a7f41146101c95780636caa9c11146101de5780637a1a04df146101ff5780637cbc23731461023d5780637dad209b14610250578063abcbc4fc14610258578063aeb38d8b1461026b578063bf184ea41461027e578063d89281e814610291578063dc94cb7d146102b8578063e8ea4fae146102c0578063e9c3f77d146102c8575b600080fd5b6100fe6100f93660046115ba565b6102f1565b005b61012361010e3660046114ff565b600960205260009081526040902054600f0b81565b604051600f9190910b81526020015b60405180910390f35b61016f610149366004611537565b60066020908152600092835260408084209091529082529020546001600160a01b031681565b604051610132919061164b565b6100fe61018a366004611537565b6103b7565b61016f7f000000000000000000000000000000000000000000000000000000000000000081565b6100fe6101c43660046115ea565b6104aa565b6101d1610580565b6040516101329190611692565b6101f16101ec3660046115ba565b6105d8565b604051908152602001610132565b61022d61020d36600461156f565b600160209081526000928352604080842090915290825290205460ff1681565b6040519015158152602001610132565b6100fe61024b36600461160e565b6105f9565b6101d1610d0a565b6101f16102663660046115ba565b610d60565b6101f16102793660046115ba565b610d70565b6101f161028c3660046115ba565b610d80565b61016f7f000000000000000000000000000000000000000000000000000000000000000081565b6101d1610d90565b6101d1610de6565b61016f6102d63660046115ba565b6000602081905290815260409020546001600160a01b031681565b60405163b4ed0b6d60e01b8152600481018290527f00000000000000000000000000000000000000000000000000000000000000006001600160a01b03169063b4ed0b6d9060240160206040518083038186803b15801561035157600080fd5b505afa158015610365573d6000803e3d6000fd5b505050506040513d601f19601f82011682018060405250810190610389919061151b565b60009182526020829052604090912080546001600160a01b0319166001600160a01b03909216919091179055565b6001600160a01b038281166000908152600660209081526040808320858516845290915290205416156104a6576103ec610e5a565b6001600160a01b0316635e73a03483836040518363ffffffff1660e01b815260040161041992919061165f565b60206040518083038186803b15801561043157600080fd5b505afa158015610445573d6000803e3d6000fd5b505050506040513d601f19601f82011682018060405250810190610469919061151b565b6001600160a01b0383811660009081526006602090815260408083208685168452909152902080546001600160a01b031916929091169190911790555b5050565b60405163f0723d9760e01b81526001600160a01b037f0000000000000000000000000000000000000000000000000000000000000000169063f0723d97906104f89084908690600401611679565b60206040518083038186803b15801561051057600080fd5b505afa158015610524573d6000803e3d6000fd5b505050506040513d601f19601f82011682018060405250810190610548919061159a565b6001600160a01b0391909116600090815260016020908152604080832094835293905291909120805460ff1916911515919091179055565b606060038054806020026020016040519081016040528092919081815260200182805480156105ce57602002820191906000526020600020905b8154815260200190600101908083116105ba575b5050505050905090565b600581815481106105e857600080fd5b600091825260209091200154905081565b33610602610e92565b6001600160a01b0316148061062657503361061b610f2a565b6001600160a01b0316145b80610640575033610635610f9b565b6001600160a01b0316145b6106b25760405162461bcd60e51b815260206004820152603860248201527f43616c6c6572206973206e6f7420746865206f776e65722c206578656375746f604482015277391037b91030baba3437b934bd32b2103234b9b0b13632b960411b60648201526084015b60405180910390fd5b60006106ef606960009081526020527f366a7b92acda364086cc991f618bf9f10b629ec0f7ae94543f96b691b69ec992546001600160a01b031690565b6001600160a01b0316636758bffe846040518263ffffffff1660e01b815260040161071c91815260200190565b60206040518083038186803b15801561073457600080fd5b505afa158015610748573d6000803e3d6000fd5b505050506040513d601f19601f8201168201806040525081019061076c919061151b565b60405163fabee7db60e01b8152600481018590529091506000906001600160a01b0383169063fabee7db9060240160206040518083038186803b1580156107b257600080fd5b505afa1580156107c6573d6000803e3d6000fd5b505050506040513d601f19601f820116820180604052508101906107ea919061151b565b90506000610829606660009081526020527f422cccb7cea5c0e46f340bb7b21b81debac329f72e31669c20ff0f3a05cc2b5b546001600160a01b031690565b905060006064846001600160a01b0316630d639044886040518263ffffffff1660e01b815260040161085d91815260200190565b60206040518083038186803b15801561087557600080fd5b505afa158015610889573d6000803e3d6000fd5b505050506040513d601f19601f820116820180604052508101906108ad91906115d2565b6108b79087611741565b6108c19190611721565b6040516340c10f1960e01b81529091506001600160a01b038316906340c10f19906108f29030908590600401611679565b600060405180830381600087803b15801561090c57600080fd5b505af1158015610920573d6000803e3d6000fd5b50505050600061093984670de0b6b3a764000085610fff565b905060006103e88261094d856103e3611741565b61095f90670de0b6b3a7640000611741565b6109699190611721565b6109739190611721565b604051633cde1f7d60e11b8152600481018a905260248101829052604481018590523060648201529091506001600160a01b038716906379bc3efa90608401600060405180830381600087803b1580156109cc57600080fd5b505af11580156109e0573d6000803e3d6000fd5b50506040516370a0823160e01b8152600092506001600160a01b03881691506370a0823190610a1390309060040161164b565b60206040518083038186803b158015610a2b57600080fd5b505afa158015610a3f573d6000803e3d6000fd5b505050506040513d601f19601f82011682018060405250810190610a6391906115d2565b6001600160a01b038716600090815260096020526040812054919250600f91820b9182900b13610ad05760405162461bcd60e51b81526020600482015260186024820152774e6f7420612076616c696420696e7465726d65646961727960401b60448201526064016106a9565b610b046001600160a01b0388167f0000000000000000000000000000000000000000000000000000000000000000846110a5565b7f00000000000000000000000000000000000000000000000000000000000000006001600160a01b031663a3220db8610b6e606d60009081526020527faa31d2a33b224bee3888830916f2f56f41bb5a40ed8a3273c6e72e6992d6223a546001600160a01b031690565b6040516001600160e01b031960e084901b1681526001600160a01b039091166004820152600f84900b60248201526000604482015260648101859052608481018890523060a482015260c401602060405180830381600087803b158015610bd457600080fd5b505af1158015610be8573d6000803e3d6000fd5b505050506040513d601f19601f82011682018060405250810190610c0c91906115d2565b50604051632770a7eb60e21b81526001600160a01b03871690639dc29fac90610c3b9030908990600401611679565b600060405180830381600087803b158015610c5557600080fd5b505af1158015610c69573d6000803e3d6000fd5b50505050610cfe33876001600160a01b03166370a08231306040518263ffffffff1660e01b8152600401610c9d919061164b565b60206040518083038186803b158015610cb557600080fd5b505afa158015610cc9573d6000803e3d6000fd5b505050506040513d601f19601f82011682018060405250810190610ced91906115d2565b6001600160a01b038916919061118e565b50505050505050505050565b606060048054806020026020016040519081016040528092919081815260200182805480156105ce57602002820191906000526020600020908154815260200190600101908083116105ba575050505050905090565b600281815481106105e857600080fd5b600481815481106105e857600080fd5b600381815481106105e857600080fd5b606060028054806020026020016040519081016040528092919081815260200182805480156105ce57602002820191906000526020600020908154815260200190600101908083116105ba575050505050905090565b606060058054806020026020016040519081016040528092919081815260200182805480156105ce57602002820191906000526020600020908154815260200190600101908083116105ba575050505050905090565b6000610e51836001600160a01b0384166111b2565b90505b92915050565b606a60009081526020527ff3261457f4fd0b7c00a1511877ab27b74183ac470be8db3a7ecdc64335f6f979546001600160a01b031690565b60007f00000000000000000000000000000000000000000000000000000000000000006001600160a01b0316638da5cb5b6040518163ffffffff1660e01b815260040160206040518083038186803b158015610eed57600080fd5b505afa158015610f01573d6000803e3d6000fd5b505050506040513d601f19601f82011682018060405250810190610f25919061151b565b905090565b60007f00000000000000000000000000000000000000000000000000000000000000006001600160a01b031663c34c08e56040518163ffffffff1660e01b8152600401602060405180830381600087803b158015610f8757600080fd5b505af1158015610f01573d6000803e3d6000fd5b60405163b4ed0b6d60e01b81526103e960048201526000907f00000000000000000000000000000000000000000000000000000000000000006001600160a01b03169063b4ed0b6d9060240160206040518083038186803b158015610eed57600080fd5b60008061100c8584611201565b604051630576cbc360e41b81526001600160a01b0387811660048301526024820187905285811660448301529192509082169063576cbc3090606401602060405180830381600087803b15801561106257600080fd5b505af1158015611076573d6000803e3d6000fd5b505050506040513d601f19601f8201168201806040525081019061109a91906115d2565b9150505b9392505050565b600081846001600160a01b031663dd62ed3e30866040518363ffffffff1660e01b81526004016110d692919061165f565b60206040518083038186803b1580156110ee57600080fd5b505afa158015611102573d6000803e3d6000fd5b505050506040513d601f19601f8201168201806040525081019061112691906115d2565b6111309190611709565b90506111888463095ea7b360e01b8584604051602401611151929190611679565b60408051601f198184030181529190526020810180516001600160e01b03166001600160e01b0319909316929092179091526112b5565b50505050565b6111ad8363a9059cbb60e01b8484604051602401611151929190611679565b505050565b60008181526001830160205260408120546111f957508154600181810184556000848152602080822090930184905584548482528286019093526040902091909155610e54565b506000610e54565b6001600160a01b03808316600090815260066020908152604080832085851684529091529020541680610e5457611236610e5a565b6001600160a01b0316631757616884846040518363ffffffff1660e01b815260040161126392919061165f565b602060405180830381600087803b15801561127d57600080fd5b505af1158015611291573d6000803e3d6000fd5b505050506040513d601f19601f82011682018060405250810190610e51919061151b565b600061130a826040518060400160405280602081526020017f5361666545524332303a206c6f772d6c6576656c2063616c6c206661696c6564815250856001600160a01b03166113879092919063ffffffff16565b8051909150156111ad5780806020019051810190611328919061159a565b6111ad5760405162461bcd60e51b815260206004820152602a60248201527f5361666545524332303a204552433230206f7065726174696f6e20646964206e6044820152691bdd081cdd58d8d9595960b21b60648201526084016106a9565b6060611396848460008561139e565b949350505050565b6060824710156113ff5760405162461bcd60e51b815260206004820152602660248201527f416464726573733a20696e73756666696369656e742062616c616e636520666f6044820152651c8818d85b1b60d21b60648201526084016106a9565b843b61144d5760405162461bcd60e51b815260206004820152601d60248201527f416464726573733a2063616c6c20746f206e6f6e2d636f6e747261637400000060448201526064016106a9565b600080866001600160a01b03168587604051611469919061162f565b60006040518083038185875af1925050503d80600081146114a6576040519150601f19603f3d011682016040523d82523d6000602084013e6114ab565b606091505b50915091506114bb8282866114c6565b979650505050505050565b606083156114d557508161109e565b8251156114e55782518084602001fd5b8160405162461bcd60e51b81526004016106a991906116d6565b600060208284031215611510578081fd5b813561109e816117a2565b60006020828403121561152c578081fd5b815161109e816117a2565b60008060408385031215611549578081fd5b8235611554816117a2565b91506020830135611564816117a2565b809150509250929050565b60008060408385031215611581578182fd5b823561158c816117a2565b946020939093013593505050565b6000602082840312156115ab578081fd5b8151801515811461109e578182fd5b6000602082840312156115cb578081fd5b5035919050565b6000602082840312156115e3578081fd5b5051919050565b600080604083850312156115fc578182fd5b823591506020830135611564816117a2565b60008060408385031215611620578182fd5b50508035926020909101359150565b60008251611641818460208701611760565b9190910192915050565b6001600160a01b0391909116815260200190565b6001600160a01b0392831681529116602082015260400190565b6001600160a01b03929092168252602082015260400190565b6020808252825182820181905260009190848201906040850190845b818110156116ca578351835292840192918401916001016116ae565b50909695505050505050565b60006020825282518060208401526116f5816040850160208701611760565b601f01601f19169190910160400192915050565b6000821982111561171c5761171c61178c565b500190565b60008261173c57634e487b7160e01b81526012600452602481fd5b500490565b600081600019048311821515161561175b5761175b61178c565b500290565b60005b8381101561177b578181015183820152602001611763565b838111156111885750506000910152565b634e487b7160e01b600052601160045260246000fd5b6001600160a01b03811681146117b757600080fd5b5056fea2646970667358221220aaeca6998e2549116bee1ccc5c02bf95c2aac40d35d4e668cba4d95c7c9f685464736f6c63430008030033",
  "linkReferences": {},
  "deployedLinkReferences": {}
}