{
  "_format": "hh-sol-artifact-1",
  "contractName": "ProxyOracle",
  "sourceName": "contracts/oracles/ProxyOracle.sol",
  "abi": [
    {
      "inputs": [
        {
          "internalType": "address",
          "name": "_roles",
          "type": "address"
        }
      ],
      "stateMutability": "nonpayable",
      "type": "constructor"
    },
    {
      "anonymous": false,
      "inputs": [
        {
          "indexed": false,
          "internalType": "string",
          "name": "param",
          "type": "string"
        },
        {
          "indexed": false,
          "internalType": "uint256",
          "name": "value",
          "type": "uint256"
        }
      ],
      "name": "ParameterUpdated",
      "type": "event"
    },
    {
      "anonymous": false,
      "inputs": [
        {
          "indexed": false,
          "internalType": "string",
          "name": "param",
          "type": "string"
        },
        {
          "indexed": false,
          "internalType": "address",
          "name": "subject",
          "type": "address"
        },
        {
          "indexed": false,
          "internalType": "uint256",
          "name": "value",
          "type": "uint256"
        }
      ],
      "name": "SubjectParameterUpdated",
      "type": "event"
    },
    {
      "anonymous": false,
      "inputs": [
        {
          "indexed": false,
          "internalType": "string",
          "name": "param",
          "type": "string"
        },
        {
          "indexed": false,
          "internalType": "address",
          "name": "subject",
          "type": "address"
        }
      ],
      "name": "SubjectUpdated",
      "type": "event"
    },
    {
      "inputs": [
        {
          "internalType": "uint256",
          "name": "",
          "type": "uint256"
        }
      ],
      "name": "_charactersPlayed",
      "outputs": [
        {
          "internalType": "uint256",
          "name": "",
          "type": "uint256"
        }
      ],
      "stateMutability": "view",
      "type": "function"
    },
    {
      "inputs": [
        {
          "internalType": "uint256",
          "name": "",
          "type": "uint256"
        }
      ],
      "name": "_dependsOnCharacters",
      "outputs": [
        {
          "internalType": "uint256",
          "name": "",
          "type": "uint256"
        }
      ],
      "stateMutability": "view",
      "type": "function"
    },
    {
      "inputs": [
        {
          "internalType": "uint256",
          "name": "",
          "type": "uint256"
        }
      ],
      "name": "_dependsOnRoles",
      "outputs": [
        {
          "internalType": "uint256",
          "name": "",
          "type": "uint256"
        }
      ],
      "stateMutability": "view",
      "type": "function"
    },
    {
      "inputs": [
        {
          "internalType": "address",
          "name": "",
          "type": "address"
        },
        {
          "internalType": "address",
          "name": "",
          "type": "address"
        }
      ],
      "name": "_oracleCache",
      "outputs": [
        {
          "internalType": "address",
          "name": "",
          "type": "address"
        }
      ],
      "stateMutability": "view",
      "type": "function"
    },
    {
      "inputs": [
        {
          "internalType": "uint256",
          "name": "",
          "type": "uint256"
        }
      ],
      "name": "_rolesPlayed",
      "outputs": [
        {
          "internalType": "uint256",
          "name": "",
          "type": "uint256"
        }
      ],
      "stateMutability": "view",
      "type": "function"
    },
    {
      "inputs": [],
      "name": "charactersPlayed",
      "outputs": [
        {
          "internalType": "uint256[]",
          "name": "",
          "type": "uint256[]"
        }
      ],
      "stateMutability": "view",
      "type": "function"
    },
    {
      "inputs": [],
      "name": "dependsOnCharacters",
      "outputs": [
        {
          "internalType": "uint256[]",
          "name": "",
          "type": "uint256[]"
        }
      ],
      "stateMutability": "view",
      "type": "function"
    },
    {
      "inputs": [],
      "name": "dependsOnRoles",
      "outputs": [
        {
          "internalType": "uint256[]",
          "name": "",
          "type": "uint256[]"
        }
      ],
      "stateMutability": "view",
      "type": "function"
    },
    {
      "inputs": [
        {
          "internalType": "address",
          "name": "tokenFrom",
          "type": "address"
        },
        {
          "internalType": "address",
          "name": "tokenTo",
          "type": "address"
        },
        {
          "internalType": "address",
          "name": "proxy",
          "type": "address"
        }
      ],
      "name": "encodeAndCheckOracleParams",
      "outputs": [
        {
          "internalType": "bool",
          "name": "",
          "type": "bool"
        },
        {
          "internalType": "bytes",
          "name": "",
          "type": "bytes"
        }
      ],
      "stateMutability": "view",
      "type": "function"
    },
    {
      "inputs": [
        {
          "internalType": "address",
          "name": "token",
          "type": "address"
        },
        {
          "internalType": "uint256",
          "name": "inAmount",
          "type": "uint256"
        },
        {
          "internalType": "address",
          "name": "pegCurrency",
          "type": "address"
        }
      ],
      "name": "getAmountInPeg",
      "outputs": [
        {
          "internalType": "uint256",
          "name": "",
          "type": "uint256"
        }
      ],
      "stateMutability": "nonpayable",
      "type": "function"
    },
    {
      "inputs": [
        {
          "internalType": "address",
          "name": "token",
          "type": "address"
        },
        {
          "internalType": "uint256",
          "name": "inAmount",
          "type": "uint256"
        },
        {
          "internalType": "address",
          "name": "pegCurrency",
          "type": "address"
        }
      ],
      "name": "getPegAmountAndBorrowable",
      "outputs": [
        {
          "internalType": "uint256",
          "name": "",
          "type": "uint256"
        },
        {
          "internalType": "uint256",
          "name": "",
          "type": "uint256"
        }
      ],
      "stateMutability": "nonpayable",
      "type": "function"
    },
    {
      "inputs": [
        {
          "internalType": "uint256",
          "name": "",
          "type": "uint256"
        }
      ],
      "name": "mainCharacterCache",
      "outputs": [
        {
          "internalType": "address",
          "name": "",
          "type": "address"
        }
      ],
      "stateMutability": "view",
      "type": "function"
    },
    {
      "inputs": [
        {
          "internalType": "address",
          "name": "token",
          "type": "address"
        },
        {
          "internalType": "address",
          "name": "pegCurrency",
          "type": "address"
        }
      ],
      "name": "newCurrentOracle",
      "outputs": [],
      "stateMutability": "nonpayable",
      "type": "function"
    },
    {
      "inputs": [
        {
          "internalType": "address",
          "name": "",
          "type": "address"
        },
        {
          "internalType": "uint256",
          "name": "",
          "type": "uint256"
        }
      ],
      "name": "roleCache",
      "outputs": [
        {
          "internalType": "bool",
          "name": "",
          "type": "bool"
        }
      ],
      "stateMutability": "view",
      "type": "function"
    },
    {
      "inputs": [],
      "name": "roles",
      "outputs": [
        {
          "internalType": "contract Roles",
          "name": "",
          "type": "address"
        }
      ],
      "stateMutability": "view",
      "type": "function"
    },
    {
      "inputs": [],
      "name": "rolesPlayed",
      "outputs": [
        {
          "internalType": "uint256[]",
          "name": "",
          "type": "uint256[]"
        }
      ],
      "stateMutability": "view",
      "type": "function"
    },
    {
      "inputs": [
        {
          "internalType": "address",
          "name": "token",
          "type": "address"
        },
        {
          "internalType": "address",
          "name": "pegCurrency",
          "type": "address"
        },
        {
          "internalType": "bytes",
          "name": "data",
          "type": "bytes"
        }
      ],
      "name": "setOracleParams",
      "outputs": [],
      "stateMutability": "nonpayable",
      "type": "function"
    },
    {
      "inputs": [
        {
          "internalType": "address",
          "name": "fromToken",
          "type": "address"
        },
        {
          "internalType": "address",
          "name": "toToken",
          "type": "address"
        },
        {
          "internalType": "address",
          "name": "proxy",
          "type": "address"
        }
      ],
      "name": "setOracleSpecificParams",
      "outputs": [],
      "stateMutability": "nonpayable",
      "type": "function"
    },
    {
      "inputs": [
        {
          "internalType": "uint256",
          "name": "role",
          "type": "uint256"
        }
      ],
      "name": "updateMainCharacterCache",
      "outputs": [],
      "stateMutability": "nonpayable",
      "type": "function"
    },
    {
      "inputs": [
        {
          "internalType": "uint256",
          "name": "role",
          "type": "uint256"
        },
        {
          "internalType": "address",
          "name": "contr",
          "type": "address"
        }
      ],
      "name": "updateRoleCache",
      "outputs": [],
      "stateMutability": "nonpayable",
      "type": "function"
    },
    {
      "inputs": [
        {
          "internalType": "address",
          "name": "",
          "type": "address"
        },
        {
          "internalType": "address",
          "name": "",
          "type": "address"
        }
      ],
      "name": "valueProxy",
      "outputs": [
        {
          "internalType": "address",
          "name": "",
          "type": "address"
        }
      ],
      "stateMutability": "view",
      "type": "function"
    },
    {
      "inputs": [
        {
          "internalType": "address",
          "name": "token",
          "type": "address"
        },
        {
          "internalType": "uint256",
          "name": "inAmount",
          "type": "uint256"
        },
        {
          "internalType": "address",
          "name": "pegCurrency",
          "type": "address"
        }
      ],
      "name": "viewAmountInPeg",
      "outputs": [
        {
          "internalType": "uint256",
          "name": "",
          "type": "uint256"
        }
      ],
      "stateMutability": "view",
      "type": "function"
    },
    {
      "inputs": [
        {
          "internalType": "address",
          "name": "token",
          "type": "address"
        },
        {
          "internalType": "uint256",
          "name": "inAmount",
          "type": "uint256"
        },
        {
          "internalType": "address",
          "name": "pegCurrency",
          "type": "address"
        }
      ],
      "name": "viewPegAmountAndBorrowable",
      "outputs": [
        {
          "internalType": "uint256",
          "name": "",
          "type": "uint256"
        },
        {
          "internalType": "uint256",
          "name": "",
          "type": "uint256"
        }
      ],
      "stateMutability": "view",
      "type": "function"
    }
  ],
  "bytecode": "0x60a060405234801561001057600080fd5b5060405161146638038061146683398101604081905261002f91610111565b806001600160a01b0381166100955760405162461bcd60e51b815260206004820152602260248201527f506c656173652070726f766964652076616c696420726f6c6573206164647265604482015261737360f01b606482015260840160405180910390fd5b60601b6001600160601b03191660805250600280546001808201909255606a7f405787fa12a823e0f2b7631cc41b3ba8828b3321ca811111fa75cd3aa3bb5ace9091015560058054918201815560005260047f036b6384b5eca791c62761152d0c79bb0604c104a5fb6f4eb0703f3154bb3db09091015561013f565b600060208284031215610122578081fd5b81516001600160a01b0381168114610138578182fd5b9392505050565b60805160601c6112ed610179600039600081816101ac015281816103ae0152818161066e01528181610dc50152610e5d01526112ed6000f3fe608060405234801561001057600080fd5b506004361061011d5760003560e01c8063071060a6146101225780632642b6061461013757806328f3fc731461018157806332f42fe614610194578063392f5f64146101a7578063447d52ba146101ce5780634a7a7f41146101e15780634fcd54a4146101f6578063576cbc301461021e5780636caa9c111461023f57806376f016d5146102525780637a1a04df146102865780637dad209b146102c4578063885fa056146102cc5780638eaab58c146102df578063a4870df2146102f2578063abcbc4fc14610313578063aeb38d8b14610326578063bf184ea414610339578063cb9aa4251461034c578063dc94cb7d1461035f578063e8ea4fae14610367578063e9c3f77d1461036f575b600080fd5b610135610130366004611139565b610398565b005b61016b610145366004610faa565b60066020908152600092835260408084209091529082529020546001600160a01b031681565b604051610178919061118d565b60405180910390f35b61013561018f366004610faa565b61045e565b6101356101a236600461102c565b610551565b61016b7f000000000000000000000000000000000000000000000000000000000000000081565b6101356101dc366004611169565b610648565b6101e9610720565b60405161017891906111de565b6102096102043660046110e3565b610778565b60408051928352602083019190915201610178565b61023161022c3660046110e3565b610815565b604051908152602001610178565b61023161024d366004611139565b610862565b61016b610260366004610faa565b60076020908152600092835260408084209091529082529020546001600160a01b031681565b6102b46102943660046110b8565b600160209081526000928352604080842090915290825290205460ff1681565b6040519015158152602001610178565b6101e9610883565b6102096102da3660046110e3565b6108d9565b6102316102ed3660046110e3565b6108e7565b610305610300366004610fe2565b61092a565b604051610178929190611222565b610231610321366004611139565b61098a565b610231610334366004611139565b61099a565b610231610347366004611139565b6109aa565b61013561035a366004610fe2565b6109ba565b6101e9610ad4565b6101e9610b2a565b61016b61037d366004611139565b6000602081905290815260409020546001600160a01b031681565b60405163b4ed0b6d60e01b8152600481018290527f00000000000000000000000000000000000000000000000000000000000000006001600160a01b03169063b4ed0b6d9060240160206040518083038186803b1580156103f857600080fd5b505afa15801561040c573d6000803e3d6000fd5b505050506040513d601f19601f820116820180604052508101906104309190610f87565b60009182526020829052604090912080546001600160a01b0319166001600160a01b03909216919091179055565b6001600160a01b0382811660009081526006602090815260408083208585168452909152902054161561054d57610493610b80565b6001600160a01b0316635e73a03483836040518363ffffffff1660e01b81526004016104c09291906111a1565b60206040518083038186803b1580156104d857600080fd5b505afa1580156104ec573d6000803e3d6000fd5b505050506040513d601f19601f820116820180604052508101906105109190610f87565b6001600160a01b0383811660009081526006602090815260408083208685168452909152902080546001600160a01b031916929091169190911790555b5050565b3361055a610b80565b6001600160a01b0316146105b55760405162461bcd60e51b815260206004820152601d60248201527f4e6f7420617574686f72697a656420746f20696e6974206f7261636c6500000060448201526064015b60405180910390fd5b6105f6848484848080601f016020809104026020016040519081016040528093929190818152602001838380828437600092019190915250610bb892505050565b60408051818152600d818301526c6f7261636c6520706172616d7360981b60608201526001600160a01b038616602082015290516000805160206112988339815191529181900360800190a150505050565b60405163f0723d9760e01b81526001600160a01b038281166004830152602482018490527f0000000000000000000000000000000000000000000000000000000000000000169063f0723d979060440160206040518083038186803b1580156106b057600080fd5b505afa1580156106c4573d6000803e3d6000fd5b505050506040513d601f19601f820116820180604052508101906106e89190611119565b6001600160a01b0391909116600090815260016020908152604080832094835293905291909120805460ff1916911515919091179055565b6060600380548060200260200160405190810160405280929190818152602001828054801561076e57602002820191906000526020600020905b81548152602001906001019080831161075a575b5050505050905090565b6000806107868585856108e7565b61078e610b80565b6001600160a01b03166315c2ba50876040518263ffffffff1660e01b81526004016107b9919061118d565b60206040518083038186803b1580156107d157600080fd5b505afa1580156107e5573d6000803e3d6000fd5b505050506040513d601f19601f820116820180604052508101906108099190611151565b91509150935093915050565b6001600160a01b03808416600090815260076020908152604080832085851684529091528120549091168161084b868684610c13565b9050610858828286610c13565b9695505050505050565b6005818154811061087257600080fd5b600091825260209091200154905081565b6060600480548060200260200160405190810160405280929190818152602001828054801561076e576020028201919060005260206000209081548152602001906001019080831161075a575050505050905090565b600080610786858585610815565b6001600160a01b03808416600090815260076020908152604080832085851684529091528120549091168161091d868684610cae565b9050610858828286610cae565b6001600160a01b0383811660009081526007602090815260408083208685168452825280832054905192936060939181169086161491829161096e9187910161118d565b6040516020818303038152906040529250925050935093915050565b6002818154811061087257600080fd5b6004818154811061087257600080fd5b6003818154811061087257600080fd5b336109c3610dc1565b6001600160a01b031614806109e75750336109dc610e59565b6001600160a01b0316145b610a465760405162461bcd60e51b815260206004820152602a60248201527f526f6c65733a2063616c6c6572206973206e6f7420746865206f776e6572206f604482015269391032bc32b1baba37b960b11b60648201526084016105ac565b6001600160a01b038381166000818152600760209081526040808320878616845282529182902080546001600160a01b031916948616949094179093558051818152601691810191909152756f7261636c6520737065636966696320706172616d7360501b6060820152918201526000805160206112988339815191529060800160405180910390a1505050565b6060600280548060200260200160405190810160405280929190818152602001828054801561076e576020028201919060005260206000209081548152602001906001019080831161075a575050505050905090565b6060600580548060200260200160405190810160405280929190818152602001828054801561076e576020028201919060005260206000209081548152602001906001019080831161075a575050505050905090565b606a60009081526020527ff3261457f4fd0b7c00a1511877ab27b74183ac470be8db3a7ecdc64335f6f979546001600160a01b031690565b610c0e838383806020019051810190610bd19190610f87565b6001600160a01b03928316600090815260076020908152604080832094861683529390529190912080546001600160a01b03191691909216179055565b505050565b600080610c208584610eca565b604051630576cbc360e41b81529091506001600160a01b0382169063576cbc3090610c53908890889088906004016111bb565b602060405180830381600087803b158015610c6d57600080fd5b505af1158015610c81573d6000803e3d6000fd5b505050506040513d601f19601f82011682018060405250810190610ca59190611151565b95945050505050565b6001600160a01b038084166000908152600660209081526040808320858516845290915281205490911680610d6557610ce5610b80565b6001600160a01b0316635e73a03486856040518363ffffffff1660e01b8152600401610d129291906111a1565b60206040518083038186803b158015610d2a57600080fd5b505afa158015610d3e573d6000803e3d6000fd5b505050506040513d601f19601f82011682018060405250810190610d629190610f87565b90505b6040516323aaad6360e21b81526001600160a01b03821690638eaab58c90610d95908890889088906004016111bb565b60206040518083038186803b158015610dad57600080fd5b505afa158015610c81573d6000803e3d6000fd5b60007f00000000000000000000000000000000000000000000000000000000000000006001600160a01b0316638da5cb5b6040518163ffffffff1660e01b815260040160206040518083038186803b158015610e1c57600080fd5b505afa158015610e30573d6000803e3d6000fd5b505050506040513d601f19601f82011682018060405250810190610e549190610f87565b905090565b60007f00000000000000000000000000000000000000000000000000000000000000006001600160a01b031663c34c08e56040518163ffffffff1660e01b8152600401602060405180830381600087803b158015610eb657600080fd5b505af1158015610e30573d6000803e3d6000fd5b6001600160a01b03808316600090815260066020908152604080832085851684529091529020541680610f8157610eff610b80565b6001600160a01b0316631757616884846040518363ffffffff1660e01b8152600401610f2c9291906111a1565b602060405180830381600087803b158015610f4657600080fd5b505af1158015610f5a573d6000803e3d6000fd5b505050506040513d601f19601f82011682018060405250810190610f7e9190610f87565b90505b92915050565b600060208284031215610f98578081fd5b8151610fa38161127f565b9392505050565b60008060408385031215610fbc578081fd5b8235610fc78161127f565b91506020830135610fd78161127f565b809150509250929050565b600080600060608486031215610ff6578081fd5b83356110018161127f565b925060208401356110118161127f565b915060408401356110218161127f565b809150509250925092565b60008060008060608587031215611041578081fd5b843561104c8161127f565b9350602085013561105c8161127f565b925060408501356001600160401b0380821115611077578283fd5b818701915087601f83011261108a578283fd5b813581811115611098578384fd5b8860208285010111156110a9578384fd5b95989497505060200194505050565b600080604083850312156110ca578182fd5b82356110d58161127f565b946020939093013593505050565b6000806000606084860312156110f7578283fd5b83356111028161127f565b92506020840135915060408401356110218161127f565b60006020828403121561112a578081fd5b81518015158114610fa3578182fd5b60006020828403121561114a578081fd5b5035919050565b600060208284031215611162578081fd5b5051919050565b6000806040838503121561117b578182fd5b823591506020830135610fd78161127f565b6001600160a01b0391909116815260200190565b6001600160a01b0392831681529116602082015260400190565b6001600160a01b0393841681526020810192909252909116604082015260600190565b6020808252825182820181905260009190848201906040850190845b81811015611216578351835292840192918401916001016111fa565b50909695505050505050565b6000831515825260206040818401528351806040850152825b818110156112575785810183015185820160600152820161123b565b818111156112685783606083870101525b50601f01601f191692909201606001949350505050565b6001600160a01b038116811461129457600080fd5b5056febd64fae90eab1019a6c354538cfa598ad3d642c5b1bc8a8613bcb716723fa2d7a26469706673582212200c9ea9c153ac3895ec1f14f19299aa024c707a740962134c771dd5a0d8f8e96b64736f6c63430008030033",
  "linkReferences": {},
  "deployedLinkReferences": {}
}