{
  "_format": "hh-sol-artifact-1",
  "contractName": "SimpleHoldingStrategy",
  "sourceName": "contracts/strategies/SimpleHoldingStrategy.sol",
  "abi": [
    {
      "inputs": [
        {
          "internalType": "address",
          "name": "_roles",
          "type": "address"
        }
      ],
      "stateMutability": "nonpayable",
      "type": "constructor"
    },
    {
      "anonymous": false,
      "inputs": [
        {
          "indexed": false,
          "internalType": "string",
          "name": "param",
          "type": "string"
        },
        {
          "indexed": false,
          "internalType": "uint256",
          "name": "value",
          "type": "uint256"
        }
      ],
      "name": "ParameterUpdated",
      "type": "event"
    },
    {
      "anonymous": false,
      "inputs": [
        {
          "indexed": false,
          "internalType": "string",
          "name": "param",
          "type": "string"
        },
        {
          "indexed": false,
          "internalType": "address",
          "name": "subject",
          "type": "address"
        },
        {
          "indexed": false,
          "internalType": "uint256",
          "name": "value",
          "type": "uint256"
        }
      ],
      "name": "SubjectParameterUpdated",
      "type": "event"
    },
    {
      "anonymous": false,
      "inputs": [
        {
          "indexed": false,
          "internalType": "string",
          "name": "param",
          "type": "string"
        },
        {
          "indexed": false,
          "internalType": "address",
          "name": "subject",
          "type": "address"
        }
      ],
      "name": "SubjectUpdated",
      "type": "event"
    },
    {
      "stateMutability": "payable",
      "type": "fallback"
    },
    {
      "inputs": [
        {
          "internalType": "uint256",
          "name": "",
          "type": "uint256"
        }
      ],
      "name": "_accounts",
      "outputs": [
        {
          "internalType": "uint256",
          "name": "collateral",
          "type": "uint256"
        },
        {
          "internalType": "uint256",
          "name": "yieldCheckptIdx",
          "type": "uint256"
        },
        {
          "internalType": "address",
          "name": "trancheToken",
          "type": "address"
        }
      ],
      "stateMutability": "view",
      "type": "function"
    },
    {
      "inputs": [
        {
          "internalType": "uint256",
          "name": "",
          "type": "uint256"
        }
      ],
      "name": "_charactersPlayed",
      "outputs": [
        {
          "internalType": "uint256",
          "name": "",
          "type": "uint256"
        }
      ],
      "stateMutability": "view",
      "type": "function"
    },
    {
      "inputs": [
        {
          "internalType": "uint256",
          "name": "",
          "type": "uint256"
        }
      ],
      "name": "_dependsOnCharacters",
      "outputs": [
        {
          "internalType": "uint256",
          "name": "",
          "type": "uint256"
        }
      ],
      "stateMutability": "view",
      "type": "function"
    },
    {
      "inputs": [
        {
          "internalType": "uint256",
          "name": "",
          "type": "uint256"
        }
      ],
      "name": "_dependsOnRoles",
      "outputs": [
        {
          "internalType": "uint256",
          "name": "",
          "type": "uint256"
        }
      ],
      "stateMutability": "view",
      "type": "function"
    },
    {
      "inputs": [
        {
          "internalType": "address",
          "name": "",
          "type": "address"
        },
        {
          "internalType": "address",
          "name": "",
          "type": "address"
        }
      ],
      "name": "_oracleCache",
      "outputs": [
        {
          "internalType": "address",
          "name": "",
          "type": "address"
        }
      ],
      "stateMutability": "view",
      "type": "function"
    },
    {
      "inputs": [
        {
          "internalType": "uint256",
          "name": "",
          "type": "uint256"
        }
      ],
      "name": "_rolesPlayed",
      "outputs": [
        {
          "internalType": "uint256",
          "name": "",
          "type": "uint256"
        }
      ],
      "stateMutability": "view",
      "type": "function"
    },
    {
      "inputs": [
        {
          "internalType": "address",
          "name": "token",
          "type": "address"
        }
      ],
      "name": "_viewTVL",
      "outputs": [
        {
          "internalType": "uint256",
          "name": "",
          "type": "uint256"
        }
      ],
      "stateMutability": "view",
      "type": "function"
    },
    {
      "inputs": [
        {
          "internalType": "uint256",
          "name": "trancheId",
          "type": "uint256"
        },
        {
          "internalType": "address",
          "name": "sourceStrategy",
          "type": "address"
        },
        {
          "internalType": "address",
          "name": "tokenContract",
          "type": "address"
        },
        {
          "internalType": "uint256",
          "name": "",
          "type": "uint256"
        },
        {
          "internalType": "uint256",
          "name": "amount",
          "type": "uint256"
        }
      ],
      "name": "acceptMigration",
      "outputs": [],
      "stateMutability": "nonpayable",
      "type": "function"
    },
    {
      "inputs": [],
      "name": "apfSmoothingPer10k",
      "outputs": [
        {
          "internalType": "uint256",
          "name": "",
          "type": "uint256"
        }
      ],
      "stateMutability": "view",
      "type": "function"
    },
    {
      "inputs": [
        {
          "internalType": "address",
          "name": "token",
          "type": "address"
        },
        {
          "internalType": "bytes",
          "name": "data",
          "type": "bytes"
        }
      ],
      "name": "approveToken",
      "outputs": [],
      "stateMutability": "nonpayable",
      "type": "function"
    },
    {
      "inputs": [
        {
          "internalType": "address",
          "name": "token",
          "type": "address"
        }
      ],
      "name": "approvedToken",
      "outputs": [
        {
          "internalType": "bool",
          "name": "",
          "type": "bool"
        }
      ],
      "stateMutability": "view",
      "type": "function"
    },
    {
      "inputs": [],
      "name": "approvedTokensCount",
      "outputs": [
        {
          "internalType": "uint256",
          "name": "",
          "type": "uint256"
        }
      ],
      "stateMutability": "view",
      "type": "function"
    },
    {
      "inputs": [],
      "name": "charactersPlayed",
      "outputs": [
        {
          "internalType": "uint256[]",
          "name": "",
          "type": "uint256[]"
        }
      ],
      "stateMutability": "view",
      "type": "function"
    },
    {
      "inputs": [
        {
          "internalType": "address",
          "name": "token",
          "type": "address"
        },
        {
          "internalType": "uint256",
          "name": "stabilityFee",
          "type": "uint256"
        }
      ],
      "name": "checkApprovedAndEncode",
      "outputs": [
        {
          "internalType": "bool",
          "name": "",
          "type": "bool"
        },
        {
          "internalType": "bytes",
          "name": "",
          "type": "bytes"
        }
      ],
      "stateMutability": "view",
      "type": "function"
    },
    {
      "inputs": [
        {
          "internalType": "uint256",
          "name": "trancheId",
          "type": "uint256"
        },
        {
          "internalType": "address",
          "name": "currency",
          "type": "address"
        },
        {
          "internalType": "address",
          "name": "recipient",
          "type": "address"
        }
      ],
      "name": "collectYield",
      "outputs": [
        {
          "internalType": "uint256",
          "name": "",
          "type": "uint256"
        }
      ],
      "stateMutability": "nonpayable",
      "type": "function"
    },
    {
      "inputs": [
        {
          "internalType": "uint256",
          "name": "trancheId",
          "type": "uint256"
        },
        {
          "internalType": "address",
          "name": "_yieldCurrency",
          "type": "address"
        },
        {
          "internalType": "address",
          "name": "valueCurrency",
          "type": "address"
        },
        {
          "internalType": "address",
          "name": "recipient",
          "type": "address"
        }
      ],
      "name": "collectYieldValueBorrowable",
      "outputs": [
        {
          "internalType": "uint256",
          "name": "yield",
          "type": "uint256"
        },
        {
          "internalType": "uint256",
          "name": "value",
          "type": "uint256"
        },
        {
          "internalType": "uint256",
          "name": "borrowablePer10k",
          "type": "uint256"
        }
      ],
      "stateMutability": "nonpayable",
      "type": "function"
    },
    {
      "inputs": [],
      "name": "dependsOnCharacters",
      "outputs": [
        {
          "internalType": "uint256[]",
          "name": "",
          "type": "uint256[]"
        }
      ],
      "stateMutability": "view",
      "type": "function"
    },
    {
      "inputs": [],
      "name": "dependsOnRoles",
      "outputs": [
        {
          "internalType": "uint256[]",
          "name": "",
          "type": "uint256[]"
        }
      ],
      "stateMutability": "view",
      "type": "function"
    },
    {
      "inputs": [
        {
          "internalType": "uint256",
          "name": "",
          "type": "uint256"
        }
      ],
      "name": "depositTime",
      "outputs": [
        {
          "internalType": "uint256",
          "name": "",
          "type": "uint256"
        }
      ],
      "stateMutability": "view",
      "type": "function"
    },
    {
      "inputs": [
        {
          "internalType": "address",
          "name": "token",
          "type": "address"
        },
        {
          "internalType": "bytes",
          "name": "",
          "type": "bytes"
        }
      ],
      "name": "disapproveToken",
      "outputs": [],
      "stateMutability": "nonpayable",
      "type": "function"
    },
    {
      "inputs": [],
      "name": "disapprovedTokensCount",
      "outputs": [
        {
          "internalType": "uint256",
          "name": "",
          "type": "uint256"
        }
      ],
      "stateMutability": "view",
      "type": "function"
    },
    {
      "inputs": [
        {
          "internalType": "address",
          "name": "token",
          "type": "address"
        }
      ],
      "name": "harvestPartially",
      "outputs": [],
      "stateMutability": "nonpayable",
      "type": "function"
    },
    {
      "inputs": [],
      "name": "isActive",
      "outputs": [
        {
          "internalType": "bool",
          "name": "",
          "type": "bool"
        }
      ],
      "stateMutability": "view",
      "type": "function"
    },
    {
      "inputs": [
        {
          "internalType": "uint256",
          "name": "",
          "type": "uint256"
        }
      ],
      "name": "mainCharacterCache",
      "outputs": [
        {
          "internalType": "address",
          "name": "",
          "type": "address"
        }
      ],
      "stateMutability": "view",
      "type": "function"
    },
    {
      "inputs": [
        {
          "internalType": "address",
          "name": "destination",
          "type": "address"
        }
      ],
      "name": "migrateAllTo",
      "outputs": [],
      "stateMutability": "nonpayable",
      "type": "function"
    },
    {
      "inputs": [
        {
          "internalType": "uint256",
          "name": "trancheId",
          "type": "uint256"
        },
        {
          "internalType": "address",
          "name": "targetStrategy",
          "type": "address"
        },
        {
          "internalType": "address",
          "name": "yieldToken",
          "type": "address"
        },
        {
          "internalType": "address",
          "name": "yieldRecipient",
          "type": "address"
        }
      ],
      "name": "migrateStrategy",
      "outputs": [
        {
          "internalType": "address",
          "name": "",
          "type": "address"
        },
        {
          "internalType": "uint256",
          "name": "",
          "type": "uint256"
        },
        {
          "internalType": "uint256",
          "name": "",
          "type": "uint256"
        }
      ],
      "stateMutability": "nonpayable",
      "type": "function"
    },
    {
      "inputs": [
        {
          "internalType": "address",
          "name": "token",
          "type": "address"
        },
        {
          "internalType": "address",
          "name": "pegCurrency",
          "type": "address"
        }
      ],
      "name": "newCurrentOracle",
      "outputs": [],
      "stateMutability": "nonpayable",
      "type": "function"
    },
    {
      "inputs": [
        {
          "internalType": "address",
          "name": "depositor",
          "type": "address"
        },
        {
          "internalType": "uint256",
          "name": "trancheId",
          "type": "uint256"
        },
        {
          "internalType": "uint256",
          "name": "amount",
          "type": "uint256"
        },
        {
          "internalType": "address",
          "name": "yieldRecipient",
          "type": "address"
        }
      ],
      "name": "registerDepositFor",
      "outputs": [],
      "stateMutability": "nonpayable",
      "type": "function"
    },
    {
      "inputs": [
        {
          "internalType": "address",
          "name": "minter",
          "type": "address"
        },
        {
          "internalType": "uint256",
          "name": "trancheId",
          "type": "uint256"
        },
        {
          "internalType": "address",
          "name": "assetToken",
          "type": "address"
        },
        {
          "internalType": "uint256",
          "name": "",
          "type": "uint256"
        },
        {
          "internalType": "uint256",
          "name": "assetAmount",
          "type": "uint256"
        }
      ],
      "name": "registerMintTranche",
      "outputs": [],
      "stateMutability": "nonpayable",
      "type": "function"
    },
    {
      "inputs": [
        {
          "internalType": "address",
          "name": "token",
          "type": "address"
        },
        {
          "internalType": "uint256",
          "name": "amount",
          "type": "uint256"
        },
        {
          "internalType": "address",
          "name": "recipient",
          "type": "address"
        }
      ],
      "name": "rescueCollateral",
      "outputs": [],
      "stateMutability": "nonpayable",
      "type": "function"
    },
    {
      "inputs": [
        {
          "internalType": "uint256",
          "name": "amount",
          "type": "uint256"
        },
        {
          "internalType": "address",
          "name": "recipient",
          "type": "address"
        }
      ],
      "name": "rescueNative",
      "outputs": [],
      "stateMutability": "nonpayable",
      "type": "function"
    },
    {
      "inputs": [
        {
          "internalType": "address",
          "name": "token",
          "type": "address"
        },
        {
          "internalType": "uint256",
          "name": "amount",
          "type": "uint256"
        },
        {
          "internalType": "address",
          "name": "recipient",
          "type": "address"
        }
      ],
      "name": "rescueStrandedTokens",
      "outputs": [],
      "stateMutability": "nonpayable",
      "type": "function"
    },
    {
      "inputs": [
        {
          "internalType": "address",
          "name": "",
          "type": "address"
        },
        {
          "internalType": "uint256",
          "name": "",
          "type": "uint256"
        }
      ],
      "name": "roleCache",
      "outputs": [
        {
          "internalType": "bool",
          "name": "",
          "type": "bool"
        }
      ],
      "stateMutability": "view",
      "type": "function"
    },
    {
      "inputs": [],
      "name": "roles",
      "outputs": [
        {
          "internalType": "contract Roles",
          "name": "",
          "type": "address"
        }
      ],
      "stateMutability": "view",
      "type": "function"
    },
    {
      "inputs": [],
      "name": "rolesPlayed",
      "outputs": [
        {
          "internalType": "uint256[]",
          "name": "",
          "type": "uint256[]"
        }
      ],
      "stateMutability": "view",
      "type": "function"
    },
    {
      "inputs": [
        {
          "internalType": "uint256",
          "name": "smoothing",
          "type": "uint256"
        }
      ],
      "name": "setApfSmoothingPer10k",
      "outputs": [],
      "stateMutability": "nonpayable",
      "type": "function"
    },
    {
      "inputs": [
        {
          "internalType": "address",
          "name": "token",
          "type": "address"
        },
        {
          "internalType": "uint256",
          "name": "yearlyFeePer10k",
          "type": "uint256"
        }
      ],
      "name": "setStabilityFeePer10k",
      "outputs": [],
      "stateMutability": "nonpayable",
      "type": "function"
    },
    {
      "inputs": [
        {
          "internalType": "address",
          "name": "token",
          "type": "address"
        }
      ],
      "name": "stabilityFeePer10k",
      "outputs": [
        {
          "internalType": "uint256",
          "name": "",
          "type": "uint256"
        }
      ],
      "stateMutability": "view",
      "type": "function"
    },
    {
      "inputs": [],
      "name": "strategyName",
      "outputs": [
        {
          "internalType": "bytes32",
          "name": "",
          "type": "bytes32"
        }
      ],
      "stateMutability": "view",
      "type": "function"
    },
    {
      "inputs": [
        {
          "internalType": "address",
          "name": "",
          "type": "address"
        }
      ],
      "name": "tokenMetadata",
      "outputs": [
        {
          "internalType": "uint256",
          "name": "totalCollateralThisPhase",
          "type": "uint256"
        },
        {
          "internalType": "uint256",
          "name": "totalCollateralNow",
          "type": "uint256"
        },
        {
          "internalType": "uint256",
          "name": "apfLastUpdated",
          "type": "uint256"
        },
        {
          "internalType": "uint256",
          "name": "apf",
          "type": "uint256"
        }
      ],
      "stateMutability": "view",
      "type": "function"
    },
    {
      "inputs": [
        {
          "internalType": "uint256",
          "name": "trancheId",
          "type": "uint256"
        }
      ],
      "name": "tranche",
      "outputs": [
        {
          "internalType": "address",
          "name": "",
          "type": "address"
        }
      ],
      "stateMutability": "view",
      "type": "function"
    },
    {
      "inputs": [
        {
          "internalType": "uint256",
          "name": "trancheId",
          "type": "uint256"
        }
      ],
      "name": "trancheToken",
      "outputs": [
        {
          "internalType": "address",
          "name": "token",
          "type": "address"
        }
      ],
      "stateMutability": "view",
      "type": "function"
    },
    {
      "inputs": [
        {
          "internalType": "uint256",
          "name": "",
          "type": "uint256"
        }
      ],
      "name": "trancheTokenID",
      "outputs": [
        {
          "internalType": "uint256",
          "name": "",
          "type": "uint256"
        }
      ],
      "stateMutability": "pure",
      "type": "function"
    },
    {
      "inputs": [
        {
          "internalType": "uint256",
          "name": "role",
          "type": "uint256"
        }
      ],
      "name": "updateMainCharacterCache",
      "outputs": [],
      "stateMutability": "nonpayable",
      "type": "function"
    },
    {
      "inputs": [
        {
          "internalType": "uint256",
          "name": "role",
          "type": "uint256"
        },
        {
          "internalType": "address",
          "name": "contr",
          "type": "address"
        }
      ],
      "name": "updateRoleCache",
      "outputs": [],
      "stateMutability": "nonpayable",
      "type": "function"
    },
    {
      "inputs": [
        {
          "internalType": "address",
          "name": "token",
          "type": "address"
        }
      ],
      "name": "viewAPF",
      "outputs": [
        {
          "internalType": "uint256",
          "name": "",
          "type": "uint256"
        }
      ],
      "stateMutability": "view",
      "type": "function"
    },
    {
      "inputs": [],
      "name": "viewAllApprovedTokens",
      "outputs": [
        {
          "internalType": "address[]",
          "name": "",
          "type": "address[]"
        }
      ],
      "stateMutability": "view",
      "type": "function"
    },
    {
      "inputs": [],
      "name": "viewAllDisapprovedTokenStrategyMetadata",
      "outputs": [
        {
          "components": [
            {
              "internalType": "address",
              "name": "strategy",
              "type": "address"
            },
            {
              "internalType": "address",
              "name": "token",
              "type": "address"
            },
            {
              "internalType": "uint256",
              "name": "APF",
              "type": "uint256"
            },
            {
              "internalType": "uint256",
              "name": "totalCollateral",
              "type": "uint256"
            },
            {
              "internalType": "uint256",
              "name": "borrowablePer10k",
              "type": "uint256"
            },
            {
              "internalType": "uint256",
              "name": "valuePer1e18",
              "type": "uint256"
            },
            {
              "internalType": "bytes32",
              "name": "strategyName",
              "type": "bytes32"
            },
            {
              "internalType": "uint256",
              "name": "tvl",
              "type": "uint256"
            },
            {
              "internalType": "uint256",
              "name": "harvestBalance2Tally",
              "type": "uint256"
            },
            {
              "internalType": "enum IStrategy.YieldType",
              "name": "yieldType",
              "type": "uint8"
            },
            {
              "internalType": "uint256",
              "name": "stabilityFee",
              "type": "uint256"
            },
            {
              "internalType": "address",
              "name": "underlyingStrategy",
              "type": "address"
            }
          ],
          "internalType": "struct IStrategy.StrategyMetadata[]",
          "name": "",
          "type": "tuple[]"
        }
      ],
      "stateMutability": "view",
      "type": "function"
    },
    {
      "inputs": [],
      "name": "viewAllDisapprovedTokens",
      "outputs": [
        {
          "internalType": "address[]",
          "name": "",
          "type": "address[]"
        }
      ],
      "stateMutability": "view",
      "type": "function"
    },
    {
      "inputs": [],
      "name": "viewAllFeesEver",
      "outputs": [
        {
          "internalType": "uint256",
          "name": "",
          "type": "uint256"
        }
      ],
      "stateMutability": "view",
      "type": "function"
    },
    {
      "inputs": [],
      "name": "viewAllStrategyMetadata",
      "outputs": [
        {
          "components": [
            {
              "internalType": "address",
              "name": "strategy",
              "type": "address"
            },
            {
              "internalType": "address",
              "name": "token",
              "type": "address"
            },
            {
              "internalType": "uint256",
              "name": "APF",
              "type": "uint256"
            },
            {
              "internalType": "uint256",
              "name": "totalCollateral",
              "type": "uint256"
            },
            {
              "internalType": "uint256",
              "name": "borrowablePer10k",
              "type": "uint256"
            },
            {
              "internalType": "uint256",
              "name": "valuePer1e18",
              "type": "uint256"
            },
            {
              "internalType": "bytes32",
              "name": "strategyName",
              "type": "bytes32"
            },
            {
              "internalType": "uint256",
              "name": "tvl",
              "type": "uint256"
            },
            {
              "internalType": "uint256",
              "name": "harvestBalance2Tally",
              "type": "uint256"
            },
            {
              "internalType": "enum IStrategy.YieldType",
              "name": "yieldType",
              "type": "uint8"
            },
            {
              "internalType": "uint256",
              "name": "stabilityFee",
              "type": "uint256"
            },
            {
              "internalType": "address",
              "name": "underlyingStrategy",
              "type": "address"
            }
          ],
          "internalType": "struct IStrategy.StrategyMetadata[]",
          "name": "",
          "type": "tuple[]"
        }
      ],
      "stateMutability": "view",
      "type": "function"
    },
    {
      "inputs": [],
      "name": "viewAllTokensEver",
      "outputs": [
        {
          "internalType": "address[]",
          "name": "",
          "type": "address[]"
        }
      ],
      "stateMutability": "view",
      "type": "function"
    },
    {
      "inputs": [
        {
          "internalType": "uint256",
          "name": "trancheId",
          "type": "uint256"
        }
      ],
      "name": "viewBorrowable",
      "outputs": [
        {
          "internalType": "uint256",
          "name": "borrowablePer10k",
          "type": "uint256"
        }
      ],
      "stateMutability": "view",
      "type": "function"
    },
    {
      "inputs": [
        {
          "internalType": "address",
          "name": "token",
          "type": "address"
        }
      ],
      "name": "viewEstimatedHarvestable",
      "outputs": [
        {
          "internalType": "uint256",
          "name": "",
          "type": "uint256"
        }
      ],
      "stateMutability": "view",
      "type": "function"
    },
    {
      "inputs": [
        {
          "internalType": "address",
          "name": "",
          "type": "address"
        }
      ],
      "name": "viewHarvestBalance2Tally",
      "outputs": [
        {
          "internalType": "uint256",
          "name": "",
          "type": "uint256"
        }
      ],
      "stateMutability": "view",
      "type": "function"
    },
    {
      "inputs": [
        {
          "internalType": "address",
          "name": "",
          "type": "address"
        }
      ],
      "name": "viewSourceHarvestable",
      "outputs": [
        {
          "internalType": "uint256",
          "name": "",
          "type": "uint256"
        }
      ],
      "stateMutability": "view",
      "type": "function"
    },
    {
      "inputs": [
        {
          "internalType": "address",
          "name": "token",
          "type": "address"
        }
      ],
      "name": "viewStrategyMetadata",
      "outputs": [
        {
          "components": [
            {
              "internalType": "address",
              "name": "strategy",
              "type": "address"
            },
            {
              "internalType": "address",
              "name": "token",
              "type": "address"
            },
            {
              "internalType": "uint256",
              "name": "APF",
              "type": "uint256"
            },
            {
              "internalType": "uint256",
              "name": "totalCollateral",
              "type": "uint256"
            },
            {
              "internalType": "uint256",
              "name": "borrowablePer10k",
              "type": "uint256"
            },
            {
              "internalType": "uint256",
              "name": "valuePer1e18",
              "type": "uint256"
            },
            {
              "internalType": "bytes32",
              "name": "strategyName",
              "type": "bytes32"
            },
            {
              "internalType": "uint256",
              "name": "tvl",
              "type": "uint256"
            },
            {
              "internalType": "uint256",
              "name": "harvestBalance2Tally",
              "type": "uint256"
            },
            {
              "internalType": "enum IStrategy.YieldType",
              "name": "yieldType",
              "type": "uint8"
            },
            {
              "internalType": "uint256",
              "name": "stabilityFee",
              "type": "uint256"
            },
            {
              "internalType": "address",
              "name": "underlyingStrategy",
              "type": "address"
            }
          ],
          "internalType": "struct IStrategy.StrategyMetadata",
          "name": "",
          "type": "tuple"
        }
      ],
      "stateMutability": "view",
      "type": "function"
    },
    {
      "inputs": [
        {
          "internalType": "uint256",
          "name": "trancheId",
          "type": "uint256"
        }
      ],
      "name": "viewTargetCollateralAmount",
      "outputs": [
        {
          "internalType": "uint256",
          "name": "",
          "type": "uint256"
        }
      ],
      "stateMutability": "view",
      "type": "function"
    },
    {
      "inputs": [
        {
          "internalType": "address",
          "name": "",
          "type": "address"
        }
      ],
      "name": "viewUnderlyingStrategy",
      "outputs": [
        {
          "internalType": "address",
          "name": "",
          "type": "address"
        }
      ],
      "stateMutability": "view",
      "type": "function"
    },
    {
      "inputs": [
        {
          "internalType": "uint256",
          "name": "trancheId",
          "type": "uint256"
        },
        {
          "internalType": "address",
          "name": "valueCurrency",
          "type": "address"
        }
      ],
      "name": "viewValue",
      "outputs": [
        {
          "internalType": "uint256",
          "name": "value",
          "type": "uint256"
        }
      ],
      "stateMutability": "view",
      "type": "function"
    },
    {
      "inputs": [
        {
          "internalType": "uint256",
          "name": "trancheId",
          "type": "uint256"
        },
        {
          "internalType": "address",
          "name": "valueCurrency",
          "type": "address"
        }
      ],
      "name": "viewValueBorrowable",
      "outputs": [
        {
          "internalType": "uint256",
          "name": "value",
          "type": "uint256"
        },
        {
          "internalType": "uint256",
          "name": "borrowable",
          "type": "uint256"
        }
      ],
      "stateMutability": "view",
      "type": "function"
    },
    {
      "inputs": [
        {
          "internalType": "uint256",
          "name": "trancheId",
          "type": "uint256"
        },
        {
          "internalType": "address",
          "name": "currency",
          "type": "address"
        }
      ],
      "name": "viewYield",
      "outputs": [
        {
          "internalType": "uint256",
          "name": "",
          "type": "uint256"
        }
      ],
      "stateMutability": "view",
      "type": "function"
    },
    {
      "inputs": [
        {
          "internalType": "uint256",
          "name": "trancheId",
          "type": "uint256"
        },
        {
          "internalType": "address",
          "name": "_yieldCurrency",
          "type": "address"
        },
        {
          "internalType": "address",
          "name": "valueCurrency",
          "type": "address"
        }
      ],
      "name": "viewYieldValueBorrowable",
      "outputs": [
        {
          "internalType": "uint256",
          "name": "yield",
          "type": "uint256"
        },
        {
          "internalType": "uint256",
          "name": "value",
          "type": "uint256"
        },
        {
          "internalType": "uint256",
          "name": "borrowablePer10k",
          "type": "uint256"
        }
      ],
      "stateMutability": "view",
      "type": "function"
    },
    {
      "inputs": [
        {
          "internalType": "uint256",
          "name": "trancheId",
          "type": "uint256"
        },
        {
          "internalType": "uint256",
          "name": "amount",
          "type": "uint256"
        },
        {
          "internalType": "address",
          "name": "yieldToken",
          "type": "address"
        },
        {
          "internalType": "address",
          "name": "recipient",
          "type": "address"
        }
      ],
      "name": "withdraw",
      "outputs": [],
      "stateMutability": "nonpayable",
      "type": "function"
    },
    {
      "inputs": [],
      "name": "yieldCurrency",
      "outputs": [
        {
          "internalType": "address",
          "name": "",
          "type": "address"
        }
      ],
      "stateMutability": "view",
      "type": "function"
    },
    {
      "inputs": [],
      "name": "yieldType",
      "outputs": [
        {
          "internalType": "enum IStrategy.YieldType",
          "name": "",
          "type": "uint8"
        }
      ],
      "stateMutability": "pure",
      "type": "function"
    },
    {
      "stateMutability": "payable",
      "type": "receive"
    }
  ],
  "bytecode": "0x60e06040526009805460ff191660011790556113886011553480156200002457600080fd5b506040516200420f3803806200420f8339810160408190526200004791620002c2565b6d53696d706c6520686f6c64696e6760901b81806001600160a01b038116620000c15760405162461bcd60e51b815260206004820152602260248201527f506c656173652070726f766964652076616c696420726f6c6573206164647265604482015261737360f01b606482015260840160405180910390fd5b60601b6001600160601b0319166080526002805460018082018355606a600080516020620041ef8339815191529283015560058054808301825560047f036b6384b5eca791c62761152d0c79bb0604c104a5fb6f4eb0703f3154bb3db09182018190558554808501875560669086015582548085019093559101849055835480830185556068908401556003805480840182557fc2575a0e9e593c00f959f8c92f12db2869c3395a3b0502d05e2516446f71f85b908101829055815480850190925501829055835491820184556000939093526069910181905560405163b4ed0b6d60e01b8152918201526001600160a01b0382169063b4ed0b6d9060240160206040518083038186803b158015620001d957600080fd5b505afa158015620001ee573d6000803e3d6000fd5b505050506040513d601f19601f82011682018060405250810190620002149190620002c2565b6001600160a01b031663fae794e66040518163ffffffff1660e01b815260040160206040518083038186803b1580156200024d57600080fd5b505afa15801562000262573d6000803e3d6000fd5b505050506040513d601f19601f82011682018060405250810190620002889190620002f2565b60a052506001600881905560c0919091526002805491820181556000526067600080516020620041ef83398151915290910155506200030b565b600060208284031215620002d4578081fd5b81516001600160a01b0381168114620002eb578182fd5b9392505050565b60006020828403121562000304578081fd5b5051919050565b60805160601c60a05160c051613e806200036f60003960008181610a730152610e9101526000611dfc01526000818161056801528181610c9d0152818161148a0152818161248001528181612513015281816126150152612c940152613e806000f3fe6080604052600436106102ed5760003560e01c806301c7b9f8146102f65780630581f3b51461032957806306b8ce9914610349578063071060a61461035e5780630a3017d91461037e5780630ccc5bd61461039e5780630d749628146103be578063110acb23146103d457806318af4c9e146104015780631c5eba2b146104215780631dc3a759146104415780631f7ea8811461045c57806321fa0f1f1461047c57806322f3e2d41461049e5780632642b606146104c857806326473a8f1461051657806328f3fc7314610536578063392f5f64146105565780633a3db4351461058a5780633ace96ec146105aa5780633ff2fa71146105ca578063447d52ba146105f7578063459ba1271461061757806349d4f22e146106375780634a7a7f41146106575780634d9d01b2146106795780634df87c091461068e5780635e8762f8146106ae5780636caa9c11146106dc5780636fecdf24146106fc57806371b3177a146107615780637268d1c0146107815780637a1a04df146107a15780637b2c9279146107dc5780637dad209b146107f15780638496e8911461080657806389f117b3146108415780639470505f146103295780639b0f09ae1461085f578063a4d77f901461087b578063a50233c9146108b0578063a51c8fab146108d0578063abcbc4fc146108f2578063ad89b79414610912578063aeb38d8b14610927578063b06ea8f014610947578063b23d66c21461095d578063b8327993146109a2578063bf184ea4146109c2578063c5c72dc3146109e2578063d0d9ab5914610a02578063d241c9c014610a17578063d9cb512c14610a37578063dc94cb7d14610a4c578063e173ad2514610a61578063e22d284514610a95578063e2e730f614610afe578063e8ea4fae14610b1e578063e9c3f77d14610b33578063f725ed1014610b69578063f8903fb714610b89578063f8d6a05d14610ba9578063fa98a4ba14610bc9578063fabee7db14610be9578063fac82e8c14610c09578063fd80d0c314610c29576102f4565b366102f457005b005b34801561030257600080fd5b50610316610311366004613825565b610c49565b6040519081526020015b60405180910390f35b34801561033557600080fd5b506103166103443660046135e0565b610c6e565b34801561035557600080fd5b50610316610c76565b34801561036a57600080fd5b506102f46103793660046137f5565b610c87565b34801561038a57600080fd5b506103166103993660046135e0565b610d4d565b3480156103aa57600080fd5b506102f46103b93660046136fa565b610d6b565b3480156103ca57600080fd5b5061031660155481565b3480156103e057600080fd5b506103f46103ef3660046135e0565b610df4565b6040516103209190613d1d565b34801561040d57600080fd5b506102f461041c366004613825565b610ef2565b34801561042d57600080fd5b506102f461043c3660046136cf565b610f9c565b34801561044d57600080fd5b506103166103443660046137f5565b34801561046857600080fd5b506102f4610477366004613650565b611064565b34801561048857600080fd5b50610491611121565b6040516103209190613b17565b3480156104aa57600080fd5b506009546104b89060ff1681565b6040519015158152602001610320565b3480156104d457600080fd5b506105096104e3366004613618565b60066020908152600092835260408084209091529082529020546001600160a01b031681565b6040516103209190613a60565b34801561052257600080fd5b506103166105313660046135e0565b6111f3565b34801561054257600080fd5b506102f4610551366004613618565b61120e565b34801561056257600080fd5b506105097f000000000000000000000000000000000000000000000000000000000000000081565b34801561059657600080fd5b506102f46105a53660046137f5565b611301565b3480156105b657600080fd5b506102f46105c5366004613650565b6113a8565b3480156105d657600080fd5b506103166105e53660046137f5565b60146020526000908152604090205481565b34801561060357600080fd5b506102f4610612366004613825565b611473565b34801561062357600080fd5b506102f46106323660046138c6565b611549565b34801561064357600080fd5b506102f46106523660046136fa565b6115c2565b34801561066357600080fd5b5061066c611645565b6040516103209190613b5a565b34801561068557600080fd5b5061031661169d565b34801561069a57600080fd5b506104b86106a93660046135e0565b6116a9565b3480156106ba57600080fd5b506106ce6106c93660046136cf565b6116bc565b604051610320929190613b92565b3480156106e857600080fd5b506103166106f73660046137f5565b6116ef565b34801561070857600080fd5b506107416107173660046135e0565b60126020526000908152604090206001810154600282015460038301546004909301549192909184565b604080519485526020850193909352918301526060820152608001610320565b34801561076d57600080fd5b506102f461077c366004613922565b611710565b34801561078d57600080fd5b5061031661079c3660046137f5565b6117e9565b3480156107ad57600080fd5b506104b86107bc3660046136cf565b600160209081526000928352604080842090915290825290205460ff1681565b3480156107e857600080fd5b5061050961180f565b3480156107fd57600080fd5b5061066c611819565b34801561081257600080fd5b5061082661082136600461387f565b61186f565b60408051938452602084019290925290820152606001610320565b34801561084d57600080fd5b506102f461085c3660046135e0565b50565b34801561086b57600080fd5b5060026040516103209190613bad565b34801561088757600080fd5b5061089b610896366004613825565b61198a565b60408051928352602083019190915201610320565b3480156108bc57600080fd5b506102f46108cb36600461378c565b6119b3565b3480156108dc57600080fd5b506108e5611a74565b6040516103209190613aca565b3480156108fe57600080fd5b5061031661090d3660046137f5565b611a80565b34801561091e57600080fd5b50610491611a90565b34801561093357600080fd5b506103166109423660046137f5565b611b5b565b34801561095357600080fd5b5061031660115481565b34801561096957600080fd5b5061097d61097836600461387f565b611b6b565b604080516001600160a01b039094168452602084019290925290820152606001610320565b3480156109ae57600080fd5b506102f46109bd36600461373b565b611c7e565b3480156109ce57600080fd5b506103166109dd3660046137f5565b611d37565b3480156109ee57600080fd5b506103166109fd3660046137f5565b611d47565b348015610a0e57600080fd5b506108e5611de8565b348015610a2357600080fd5b50610509610a323660046137f5565b611df4565b348015610a4357600080fd5b506108e5611eee565b348015610a5857600080fd5b5061066c611efa565b348015610a6d57600080fd5b506103167f000000000000000000000000000000000000000000000000000000000000000081565b348015610aa157600080fd5b50610ada610ab03660046137f5565b6010602052600090815260409020805460018201546002909201549091906001600160a01b031683565b6040805193845260208401929092526001600160a01b031690820152606001610320565b348015610b0a57600080fd5b50610316610b193660046135e0565b611f50565b348015610b2a57600080fd5b5061066c611f6e565b348015610b3f57600080fd5b50610509610b4e3660046137f5565b6000602081905290815260409020546001600160a01b031681565b348015610b7557600080fd5b50610509610b843660046135e0565b503090565b348015610b9557600080fd5b50610316610ba4366004613849565b611fc4565b348015610bb557600080fd5b50610316610bc43660046135e0565b6120b7565b348015610bd557600080fd5b50610826610be4366004613849565b6120d5565b348015610bf557600080fd5b50610509610c043660046137f5565b612110565b348015610c1557600080fd5b506102f4610c243660046135e0565b61212e565b348015610c3557600080fd5b50610316610c44366004613825565b6122e9565b6000610c66610c5784612110565b610c6085611d47565b8461232d565b509392505050565b60005b919050565b6000610c82600c612472565b905090565b60405163b4ed0b6d60e01b8152600481018290527f00000000000000000000000000000000000000000000000000000000000000006001600160a01b03169063b4ed0b6d9060240160206040518083038186803b158015610ce757600080fd5b505afa158015610cfb573d6000803e3d6000fd5b505050506040513d601f19601f82011682018060405250810190610d1f91906135fc565b60009182526020829052604090912080546001600160a01b0319166001600160a01b03909216919091179055565b6001600160a01b031660009081526012602052604090206004015490565b33610d7461247c565b6001600160a01b03161480610d98575033610d8d61250f565b6001600160a01b0316145b610dbd5760405162461bcd60e51b8152600401610db490613bce565b60405180910390fd5b6001600160a01b038116610de35760405162461bcd60e51b8152600401610db490613c7b565b610dee818484612580565b50505050565b610dfc61354b565b600080610e1984670de0b6b3a7640000610e146125c3565b61232d565b91509150604051806101800160405280306001600160a01b03168152602001856001600160a01b03168152602001610e5086610d4d565b815260200160126000876001600160a01b03166001600160a01b031681526020019081526020016000206002015481526020018281526020018381526020017f00000000000000000000000000000000000000000000000000000000000000008152602001610ebe86611f50565b8152602001610ecc86610c6e565b815260200160028152602001610ee1866111f3565b815230602090910152949350505050565b33610efb61247c565b6001600160a01b03161480610f1f575033610f1461250f565b6001600160a01b0316145b610f3b5760405162461bcd60e51b8152600401610db490613bce565b6001600160a01b038116610f615760405162461bcd60e51b8152600401610db490613c7b565b6040516001600160a01b0382169083156108fc029084906000818181858888f19350505050158015610f97573d6000803e3d6000fd5b505050565b33610fa561247c565b6001600160a01b03161480610fc9575033610fbe61250f565b6001600160a01b0316145b610fe55760405162461bcd60e51b8152600401610db490613bce565b6001600160a01b03821660008181526013602090815260409182902084905581516060808252600d908201526c73746162696c6974792066656560981b60808201529081019290925281018290527f2cc0b19d71980380c7a99113dc265ee16b9f7f394e2a42085ab6877482a7f8229060a00160405180910390a15050565b3361106d61247c565b6001600160a01b0316148061109157503361108661250f565b6001600160a01b0316145b806110a057506110a0336125fb565b6110fc5760405162461bcd60e51b81526020600482015260396024820152600080516020613e2b833981519152604482015278391037b91030baba3437b934bd32b21030b1ba34bb30ba37b960391b6064820152608401610db4565b61110783838361269e565b610dee83670de0b6b3a764000061111c6125c3565b6126d4565b6060600061112f600a612472565b90506000816001600160401b0381111561115957634e487b7160e01b600052604160045260246000fd5b60405190808252806020026020018201604052801561119257816020015b61117f61354b565b8152602001906001900390816111775790505b50905060005b808311156111ec576111ae6103ef600a8361276f565b8282815181106111ce57634e487b7160e01b600052603260045260246000fd5b602002602001018190525080806111e490613dba565b915050611198565b5091505090565b6001600160a01b031660009081526013602052604090205490565b6001600160a01b038281166000908152600660209081526040808320858516845290915290205416156112fd5761124361277b565b6001600160a01b0316635e73a03483836040518363ffffffff1660e01b8152600401611270929190613a74565b60206040518083038186803b15801561128857600080fd5b505afa15801561129c573d6000803e3d6000fd5b505050506040513d601f19601f820116820180604052508101906112c091906135fc565b6001600160a01b0383811660009081526006602090815260408083208685168452909152902080546001600160a01b031916929091169190911790555b5050565b3361130a61247c565b6001600160a01b0316148061132e57503361132361250f565b6001600160a01b0316145b61134a5760405162461bcd60e51b8152600401610db490613bce565b601181905560408051818152600d818301526c61706620736d6f6f7468696e6760981b60608201526020810183905290517f3a64504f0bc0c335e2aecb78638a257e0351a3fe0370861fd54ee4190b9209339181900360800190a150565b336113b161247c565b6001600160a01b031614806113d55750336113ca61250f565b6001600160a01b0316145b6113f15760405162461bcd60e51b8152600401610db490613bce565b6113fc600a846127b3565b50611408600c846127c8565b506114116127dd565b6001600160a01b03166311848c45306040518263ffffffff1660e01b815260040161143c9190613a60565b600060405180830381600087803b15801561145657600080fd5b505af115801561146a573d6000803e3d6000fd5b50505050505050565b60405163f0723d9760e01b81526001600160a01b037f0000000000000000000000000000000000000000000000000000000000000000169063f0723d97906114c19084908690600401613a8e565b60206040518083038186803b1580156114d957600080fd5b505afa1580156114ed573d6000803e3d6000fd5b505050506040513d601f19601f8201168201806040525081019061151191906137d5565b6001600160a01b0391909116600090815260016020908152604080832094835293905291909120805460ff1916911515919091179055565b6002600854141561156c5760405162461bcd60e51b8152600401610db490613caf565b600260085561157a85611df4565b6001600160a01b0316336001600160a01b0316146115aa5760405162461bcd60e51b8152600401610db490613c48565b6115b684868584612815565b50506001600855505050565b336115cb61247c565b6001600160a01b031614806115ef5750336115e461250f565b6001600160a01b0316145b61160b5760405162461bcd60e51b8152600401610db490613bce565b6001600160a01b0381166116315760405162461bcd60e51b8152600401610db490613c7b565b610f976001600160a01b0384168284612865565b6060600380548060200260200160405190810160405280929190818152602001828054801561169357602002820191906000526020600020905b81548152602001906001019080831161167f575b5050505050905090565b6000610c82600a612472565b60006116b6600a836128bb565b92915050565b600060606116c9846116a9565b604080516020810186905201604051602081830303815290604052915091509250929050565b600581815481106116ff57600080fd5b600091825260209091200154905081565b60095460ff166117325760405162461bcd60e51b8152600401610db490613c18565b600260085414156117555760405162461bcd60e51b8152600401610db490613caf565b6002600855611763336128d0565b6117ac5760405162461bcd60e51b815260206004820152601a6024820152794e6f7420617574686f72697a656420746f20776974686472617760301b6044820152606401610db4565b6001600160a01b0381166117d25760405162461bcd60e51b8152600401610db490613c7b565b6117de848484846128f9565b505060016008555050565b60006118086117f783612110565b61180084611d47565b610e1461180f565b9392505050565b6000610c826125c3565b60606004805480602002602001604051908101604052809291908181526020018280548015611693576020028201919060005260206000209081548152602001906001019080831161167f575050505050905090565b6000806000600260085414156118975760405162461bcd60e51b8152600401610db490613caf565b60026008556118a5336128d0565b8061193157506118b487611df4565b6001600160a01b0316632972b0f033896040518363ffffffff1660e01b81526004016118e1929190613a8e565b60206040518083038186803b1580156118f957600080fd5b505afa15801561190d573d6000803e3d6000fd5b505050506040513d601f19601f8201168201806040525081019061193191906137d5565b61194d5760405162461bcd60e51b8152600401610db490613ce6565b6119588787866129b6565b925061197561196688612110565b61196f89611d47565b87612ab9565b60016008559398909750929550919350505050565b6000806119a861199985612110565b6119a286611d47565b8561232d565b915091509250929050565b60095460ff166119d55760405162461bcd60e51b8152600401610db490613c18565b600260085414156119f85760405162461bcd60e51b8152600401610db490613caf565b6002600855611a06336128d0565b611a605760405162461bcd60e51b815260206004820152602560248201527f4e6f7420617574686f72697a656420746f207472616e7366657220757365722060448201526466756e647360d81b6064820152608401610db4565b6117de848484611a6e61180f565b85612b28565b6060610c82600a612bc1565b600281815481106116ff57600080fd5b60606000611a9e600c612472565b90506000816001600160401b03811115611ac857634e487b7160e01b600052604160045260246000fd5b604051908082528060200260200182016040528015611b0157816020015b611aee61354b565b815260200190600190039081611ae65790505b50905060005b808311156111ec57611b1d6103ef600c8361276f565b828281518110611b3d57634e487b7160e01b600052603260045260246000fd5b60200260200101819052508080611b5390613dba565b915050611b07565b600481815481106116ff57600080fd5b6009546000908190819060ff16611b945760405162461bcd60e51b8152600401610db490613c18565b611b9d87611df4565b6001600160a01b0316336001600160a01b031614611bcd5760405162461bcd60e51b8152600401610db490613c48565b6000611bd888612110565b90506000611be589611d47565b9050611bf28988886129b6565b506000611c00308484612580565b9050611c166001600160a01b0384168a83612bce565b6001600160a01b03831660009081526012602052604081206002018054839290611c41908490613d77565b90915550506000998a52601060205260408a208a8155600181018b905560020180546001600160a01b031916905591999197509095505050505050565b60095460ff16611ca05760405162461bcd60e51b8152600401610db490613c18565b60026008541415611cc35760405162461bcd60e51b8152600401610db490613caf565b6002600855611cd1336128d0565b8015611ced575033611ce285611df4565b6001600160a01b0316145b611d2b5760405162461bcd60e51b815260206004820152600f60248201526e496e76616c6964207472616e63686560881b6044820152606401610db4565b6115b685858584612815565b600381815481106116ff57600080fd5b6000818152601060209081526040808320805460028201546001600160a01b03168552601384528285205486865260149094529184205490928491612710916301e1338091611d969042613d77565b611da09086613d58565b611daa9190613d58565b611db49190613d44565b611dbe9190613d44565b905080821115611ddc57611dd28183613d77565b9350505050610c71565b60009350505050610c71565b6060610c82600c612bc1565b600080611e217f000000000000000000000000000000000000000000000000000000000000000084613dd5565b6000818152600760205260409020549091506001600160a01b03168061180857606960009081526020527f366a7b92acda364086cc991f618bf9f10b629ec0f7ae94543f96b691b69ec9925460405163043b4d2f60e51b8152600481018490526001600160a01b0390911690638769a5e09060240160206040518083038186803b158015611eae57600080fd5b505afa158015611ec2573d6000803e3d6000fd5b505050506040513d601f19601f82011682018060405250810190611ee691906135fc565b949350505050565b6060610c82600e612bc1565b60606002805480602002602001604051908101604052809291908181526020018280548015611693576020028201919060005260206000209081548152602001906001019080831161167f575050505050905090565b6001600160a01b031660009081526012602052604090206002015490565b60606005805480602002602001604051908101604052809291908181526020018280548015611693576020028201919060005260206000209081548152602001906001019080831161167f575050505050905090565b600060026008541415611fe95760405162461bcd60e51b8152600401610db490613caf565b6002600855611ff7336128d0565b80612083575061200684611df4565b6001600160a01b0316632972b0f033866040518363ffffffff1660e01b8152600401612033929190613a8e565b60206040518083038186803b15801561204b57600080fd5b505afa15801561205f573d6000803e3d6000fd5b505050506040513d601f19601f8201168201806040525081019061208391906137d5565b61209f5760405162461bcd60e51b8152600401610db490613ce6565b6120aa8484846129b6565b6001600855949350505050565b60006120c282610c6e565b6120cb83610c6e565b6116b69190613d2c565b60008060006120e486866122e9565b92506121016120f287612110565b6120fb88611d47565b8661232d565b93979096509294509192505050565b6000908152601060205260409020600201546001600160a01b031690565b60095460ff166121505760405162461bcd60e51b8152600401610db490613c18565b3361215961247c565b6001600160a01b0316148061217d57503361217261250f565b6001600160a01b0316145b8061219757503361218c612c7a565b6001600160a01b0316145b6121f25760405162461bcd60e51b81526020600482015260386024820152600080516020613e2b833981519152604482015277391037b91030baba3437b934bd32b2103234b9b0b13632b960411b6064820152608401610db4565b60005b80612200600e612472565b11156122db576000612213600e8361276f565b9050600061222082611f50565b9050600061222c6127dd565b9050612239818484612580565b5061224f6001600160a01b038416826000612cde565b6122656001600160a01b03841682600019612cde565b60405163269974d160e21b81526001600160a01b03821690639a65d344906122939088908790600401613a74565b600060405180830381600087803b1580156122ad57600080fd5b505af11580156122c1573d6000803e3d6000fd5b5050505050505080806122d390613dba565b9150506121f5565b50506009805460ff19169055565b6000828152601060205260408120611ee68160128461230788612110565b6001600160a01b03166001600160a01b0316815260200190815260200160002085612df0565b6001600160a01b03808416600090815260066020908152604080832085851684529091528120549091829116806123e65761236661277b565b6001600160a01b0316635e73a03487866040518363ffffffff1660e01b8152600401612393929190613a74565b60206040518083038186803b1580156123ab57600080fd5b505afa1580156123bf573d6000803e3d6000fd5b505050506040513d601f19601f820116820180604052508101906123e391906135fc565b90505b6040516313f3552960e21b81526001600160a01b03821690634fcd54a49061241690899089908990600401613aa7565b604080518083038186803b15801561242d57600080fd5b505afa158015612441573d6000803e3d6000fd5b505050506040513d601f19601f8201168201806040525081019061246591906138ff565b9097909650945050505050565b60006116b6825490565b60007f00000000000000000000000000000000000000000000000000000000000000006001600160a01b0316638da5cb5b6040518163ffffffff1660e01b815260040160206040518083038186803b1580156124d757600080fd5b505afa1580156124eb573d6000803e3d6000fd5b505050506040513d601f19601f82011682018060405250810190610c8291906135fc565b60007f00000000000000000000000000000000000000000000000000000000000000006001600160a01b031663c34c08e56040518163ffffffff1660e01b8152600401602060405180830381600087803b15801561256c57600080fd5b505af11580156124eb573d6000803e3d6000fd5b60006001600160a01b0384166125a85760405162461bcd60e51b8152600401610db490613c7b565b6125bc6001600160a01b0384168584612865565b5092915050565b606660009081526020527f422cccb7cea5c0e46f340bb7b21b81debac329f72e31669c20ff0f3a05cc2b5b546001600160a01b031690565b60405163f0723d9760e01b81526000906001600160a01b037f0000000000000000000000000000000000000000000000000000000000000000169063f0723d979061264e9085906103eb90600401613a8e565b60206040518083038186803b15801561266657600080fd5b505afa15801561267a573d6000803e3d6000fd5b505050506040513d601f19601f820116820180604052508101906116b691906137d5565b60006126ac828401846137f5565b6001600160a01b03851660009081526013602052604090208190559050610dee848484612f0a565b6000806126e18584612f5d565b604051630576cbc360e41b81529091506001600160a01b0382169063576cbc309061271490889088908890600401613aa7565b602060405180830381600087803b15801561272e57600080fd5b505af1158015612742573d6000803e3d6000fd5b505050506040513d601f19601f82011682018060405250810190612766919061380d565b95945050505050565b60006118088383613011565b606a60009081526020527ff3261457f4fd0b7c00a1511877ab27b74183ac470be8db3a7ecdc64335f6f979546001600160a01b031690565b6000611808836001600160a01b038416613049565b6000611808836001600160a01b038416613166565b606860009081526020527faa071f48f62aaaa1f6320aaa7bd2ad2d552d05160892c14d699d38c9920d5f99546001600160a01b031690565b6001600160a01b03821660009081526012602090815260408083208054878552601090935292206001015561284a84846131b0565b61285e85858461285861180f565b89612b28565b5050505050565b610f978363a9059cbb60e01b8484604051602401612884929190613a8e565b60408051601f198184030181529190526020810180516001600160e01b03166001600160e01b031990931692909217909152613230565b6000611808836001600160a01b038416613302565b6001600160a01b0316600090815260016020818152604080842092845291905290205460ff1690565b60008481526010602052604081209061291186612110565b905061291e8685856129b6565b506129318561292c88611d47565b61331a565b945061293e838287612580565b50848260000160008282546129539190613d77565b90915550506001600160a01b038116600090815260126020526040812060028101805491928892612985908490613d77565b90915550506001830154815411156129b157858160010160008282546129ab9190613d77565b90915550505b61146a565b6000838152601060205260408120805415612aa15760028101546001600160a01b03166000818152601260205260408120906129f188611d47565b845490915081811115612a9b57612a4c612a3c606760009081526020527f682158d08466d11c566d5712d4396197fdd67e65be71d83c97ef719ec468867b546001600160a01b031690565b85612a478585613d77565b612580565b50612a6384612a5b8484613d77565b61111c61180f565b60156000828254612a749190613d2c565b909155505060028301548190612a8b908490613d2c565b612a959190613d77565b60028401555b50835550505b50505060009182525060146020526040812042905590565b6000806000612ac88685612f5d565b60405163442fd02b60e11b81529091506001600160a01b0382169063885fa05690612afb90899089908990600401613aa7565b6040805180830381600087803b158015612b1457600080fd5b505af1158015612441573d6000803e3d6000fd5b6000612b3385612110565b9050612b408584846129b6565b50612b4c868286613332565b600085815260106020526040902054612b658582613d2c565b6000878152601060209081526040808320939093556001600160a01b03851682526012905290812060028101805491928892612ba2908490613d2c565b90915550612bb790508784610f978986613d2c565b5050505050505050565b6060600061180883613347565b600081846001600160a01b031663dd62ed3e30866040518363ffffffff1660e01b8152600401612bff929190613a74565b60206040518083038186803b158015612c1757600080fd5b505afa158015612c2b573d6000803e3d6000fd5b505050506040513d601f19601f82011682018060405250810190612c4f919061380d565b612c599190613d2c565b9050610dee8463095ea7b360e01b8584604051602401612884929190613a8e565b60405163b4ed0b6d60e01b81526103e960048201526000907f00000000000000000000000000000000000000000000000000000000000000006001600160a01b03169063b4ed0b6d9060240160206040518083038186803b1580156124d757600080fd5b801580612d665750604051636eb1769f60e11b81526001600160a01b0384169063dd62ed3e90612d149030908690600401613a74565b60206040518083038186803b158015612d2c57600080fd5b505afa158015612d40573d6000803e3d6000fd5b505050506040513d601f19601f82011682018060405250810190612d64919061380d565b155b612dd15760405162461bcd60e51b815260206004820152603660248201527f5361666545524332303a20617070726f76652066726f6d206e6f6e2d7a65726f60448201527520746f206e6f6e2d7a65726f20616c6c6f77616e636560501b6064820152608401610db4565b610f978363095ea7b360e01b8484604051602401612884929190613a8e565b6000612dfa61180f565b6001600160a01b0316826001600160a01b031614612e515760405162461bcd60e51b815260206004820152601460248201527357726f6e67207969656c642063757272656e637960601b6044820152606401610db4565b6001840154835484911015612f0057600081866001015481548110612e8657634e487b7160e01b600052603260045260246000fd5b90600052602060002001548260018480549050612ea39190613d77565b81548110612ec157634e487b7160e01b600052603260045260246000fd5b9060005260206000200154612ed69190613d77565b9050600160401b818760000154612eed9190613d58565b612ef79190613d44565b92505050611808565b6000915050611808565b612f15600a846127c8565b50612f21600c846127b3565b50612f2d600e846127c8565b506001600160a01b03831660009081526012602052604090206127106004820155426003909101556114116127dd565b6001600160a01b038083166000908152600660209081526040808320858516845290915290205416806116b657612f9261277b565b6001600160a01b0316631757616884846040518363ffffffff1660e01b8152600401612fbf929190613a74565b602060405180830381600087803b158015612fd957600080fd5b505af1158015612fed573d6000803e3d6000fd5b505050506040513d601f19601f8201168201806040525081019061180891906135fc565b600082600001828154811061303657634e487b7160e01b600052603260045260246000fd5b9060005260206000200154905092915050565b6000818152600183016020526040812054801561315c57600061306d600183613d77565b855490915060009061308190600190613d77565b90508181146131025760008660000182815481106130af57634e487b7160e01b600052603260045260246000fd5b90600052602060002001549050808760000184815481106130e057634e487b7160e01b600052603260045260246000fd5b6000918252602080832090910192909255918252600188019052604090208390555b855486908061312157634e487b7160e01b600052603160045260246000fd5b6001900381819060005260206000200160009055905585600101600086815260200190815260200160002060009055600193505050506116b6565b60009150506116b6565b60006131728383613302565b6131a8575081546001818101845560008481526020808220909301849055845484825282860190935260409020919091556116b6565b5060006116b6565b6131bb600a826128bb565b6131ff5760405162461bcd60e51b81526020600482015260156024820152742737ba1030b71030b8383937bb32b2103a37b5b2b760591b6044820152606401610db4565b60009182526010602052604090912060020180546001600160a01b0319166001600160a01b03909216919091179055565b6000613285826040518060400160405280602081526020017f5361666545524332303a206c6f772d6c6576656c2063616c6c206661696c6564815250856001600160a01b03166133a39092919063ffffffff16565b805190915015610f9757808060200190518101906132a391906137d5565b610f975760405162461bcd60e51b815260206004820152602a60248201527f5361666545524332303a204552433230206f7065726174696f6e20646964206e6044820152691bdd081cdd58d8d9595960b21b6064820152608401610db4565b60009081526001919091016020526040902054151590565b60008183111561332b5750806116b6565b50816116b6565b610f976001600160a01b0383168430846133b2565b60608160000180548060200260200160405190810160405280929190818152602001828054801561339757602002820191906000526020600020905b815481526020019060010190808311613383575b50505050509050919050565b6060611ee684846000856133ea565b6040516001600160a01b0380851660248301528316604482015260648101829052610dee9085906323b872dd60e01b90608401612884565b60608247101561344b5760405162461bcd60e51b815260206004820152602660248201527f416464726573733a20696e73756666696369656e742062616c616e636520666f6044820152651c8818d85b1b60d21b6064820152608401610db4565b843b6134995760405162461bcd60e51b815260206004820152601d60248201527f416464726573733a2063616c6c20746f206e6f6e2d636f6e74726163740000006044820152606401610db4565b600080866001600160a01b031685876040516134b59190613a44565b60006040518083038185875af1925050503d80600081146134f2576040519150601f19603f3d011682016040523d82523d6000602084013e6134f7565b606091505b5091509150613507828286613512565b979650505050505050565b60608315613521575081611808565b8251156135315782518084602001fd5b8160405162461bcd60e51b8152600401610db49190613bbb565b60405180610180016040528060006001600160a01b0316815260200160006001600160a01b0316815260200160008152602001600081526020016000815260200160008152602001600080191681526020016000815260200160008152602001600060028111156135cc57634e487b7160e01b600052602160045260246000fd5b815260006020820181905260409091015290565b6000602082840312156135f1578081fd5b813561180881613e15565b60006020828403121561360d578081fd5b815161180881613e15565b6000806040838503121561362a578081fd5b823561363581613e15565b9150602083013561364581613e15565b809150509250929050565b600080600060408486031215613664578081fd5b833561366f81613e15565b925060208401356001600160401b038082111561368a578283fd5b818601915086601f83011261369d578283fd5b8135818111156136ab578384fd5b8760208285010111156136bc578384fd5b6020830194508093505050509250925092565b600080604083850312156136e1578182fd5b82356136ec81613e15565b946020939093013593505050565b60008060006060848603121561370e578283fd5b833561371981613e15565b925060208401359150604084013561373081613e15565b809150509250925092565b600080600080600060a08688031215613752578081fd5b853561375d81613e15565b945060208601359350604086013561377481613e15565b94979396509394606081013594506080013592915050565b600080600080608085870312156137a1578384fd5b84356137ac81613e15565b9350602085013592506040850135915060608501356137ca81613e15565b939692955090935050565b6000602082840312156137e6578081fd5b81518015158114611808578182fd5b600060208284031215613806578081fd5b5035919050565b60006020828403121561381e578081fd5b5051919050565b60008060408385031215613837578182fd5b82359150602083013561364581613e15565b60008060006060848603121561385d578283fd5b83359250602084013561386f81613e15565b9150604084013561373081613e15565b60008060008060808587031215613894578384fd5b8435935060208501356138a681613e15565b925060408501356138b681613e15565b915060608501356137ca81613e15565b600080600080600060a086880312156138dd578283fd5b8535945060208601356138ef81613e15565b9350604086013561377481613e15565b60008060408385031215613911578182fd5b505080516020909101519092909150565b60008060008060808587031215613937578182fd5b843593506020850135925060408501356138b681613e15565b6001600160a01b03169052565b60008151808452613975816020860160208601613d8e565b601f01601f19169290920160200192915050565b600381106139a757634e487b7160e01b600052602160045260246000fd5b9052565b6139b6828251613950565b60208101516139c86020840182613950565b5060408101516040830152606081015160608301526080810151608083015260a081015160a083015260c081015160c083015260e081015160e083015261010080820151818401525061012080820151613a2482850182613989565b5050610140818101519083015261016080820151610dee82850182613950565b60008251613a56818460208701613d8e565b9190910192915050565b6001600160a01b0391909116815260200190565b6001600160a01b0392831681529116602082015260400190565b6001600160a01b03929092168252602082015260400190565b6001600160a01b0393841681526020810192909252909116604082015260600190565b6020808252825182820181905260009190848201906040850190845b81811015613b0b5783516001600160a01b031683529284019291840191600101613ae6565b50909695505050505050565b6020808252825182820181905260009190848201906040850190845b81811015613b0b57613b468385516139ab565b928401926101809290920191600101613b33565b6020808252825182820181905260009190848201906040850190845b81811015613b0b57835183529284019291840191600101613b76565b6000831515825260406020830152611ee6604083018461395d565b602081016116b68284613989565b600060208252611808602083018461395d565b6020808252602a908201527f526f6c65733a2063616c6c6572206973206e6f7420746865206f776e6572206f604082015269391032bc32b1baba37b960b11b606082015260800190565b6020808252601690820152755374726174656779206973206e6f742061637469766560501b604082015260600190565b6020808252601990820152784e6f7420617574686f72697a656420746f206d69677261746560381b604082015260600190565b6020808252601a9082015279446f6e27742073656e6420746f207a65726f206164647265737360301b604082015260600190565b6020808252601f908201527f5265656e7472616e637947756172643a207265656e7472616e742063616c6c00604082015260600190565b6020808252601f908201527f4e6f7420617574686f72697a656420746f20636f6c6c656374207969656c6400604082015260600190565b61018081016116b682846139ab565b60008219821115613d3f57613d3f613de9565b500190565b600082613d5357613d53613dff565b500490565b6000816000190483118215151615613d7257613d72613de9565b500290565b600082821015613d8957613d89613de9565b500390565b60005b83811015613da9578181015183820152602001613d91565b83811115610dee5750506000910152565b6000600019821415613dce57613dce613de9565b5060010190565b600082613de457613de4613dff565b500690565b634e487b7160e01b600052601160045260246000fd5b634e487b7160e01b600052601260045260246000fd5b6001600160a01b038116811461085c57600080fdfe43616c6c6572206973206e6f7420746865206f776e65722c206578656375746fa26469706673582212203f608121d57d7d93b65dc951385c1f0139c818a9ce8887a8c29fc5602701b09a64736f6c63430008030033405787fa12a823e0f2b7631cc41b3ba8828b3321ca811111fa75cd3aa3bb5ace",
  "linkReferences": {},
  "deployedLinkReferences": {}
}