{
  "_format": "hh-sol-artifact-1",
  "contractName": "CurvePoolSL2",
  "sourceName": "contracts/smart-liquidity/CurvePoolSL2.sol",
  "abi": [
    {
      "inputs": [
        {
          "internalType": "address",
          "name": "_roles",
          "type": "address"
        }
      ],
      "stateMutability": "nonpayable",
      "type": "constructor"
    },
    {
      "anonymous": false,
      "inputs": [
        {
          "indexed": false,
          "internalType": "string",
          "name": "param",
          "type": "string"
        },
        {
          "indexed": false,
          "internalType": "uint256",
          "name": "value",
          "type": "uint256"
        }
      ],
      "name": "ParameterUpdated",
      "type": "event"
    },
    {
      "anonymous": false,
      "inputs": [
        {
          "indexed": false,
          "internalType": "string",
          "name": "param",
          "type": "string"
        },
        {
          "indexed": false,
          "internalType": "address",
          "name": "subject",
          "type": "address"
        },
        {
          "indexed": false,
          "internalType": "uint256",
          "name": "value",
          "type": "uint256"
        }
      ],
      "name": "SubjectParameterUpdated",
      "type": "event"
    },
    {
      "anonymous": false,
      "inputs": [
        {
          "indexed": false,
          "internalType": "string",
          "name": "param",
          "type": "string"
        },
        {
          "indexed": false,
          "internalType": "address",
          "name": "subject",
          "type": "address"
        }
      ],
      "name": "SubjectUpdated",
      "type": "event"
    },
    {
      "inputs": [
        {
          "internalType": "uint256",
          "name": "",
          "type": "uint256"
        }
      ],
      "name": "_charactersPlayed",
      "outputs": [
        {
          "internalType": "uint256",
          "name": "",
          "type": "uint256"
        }
      ],
      "stateMutability": "view",
      "type": "function"
    },
    {
      "inputs": [
        {
          "internalType": "uint256",
          "name": "",
          "type": "uint256"
        }
      ],
      "name": "_dependsOnCharacters",
      "outputs": [
        {
          "internalType": "uint256",
          "name": "",
          "type": "uint256"
        }
      ],
      "stateMutability": "view",
      "type": "function"
    },
    {
      "inputs": [
        {
          "internalType": "uint256",
          "name": "",
          "type": "uint256"
        }
      ],
      "name": "_dependsOnRoles",
      "outputs": [
        {
          "internalType": "uint256",
          "name": "",
          "type": "uint256"
        }
      ],
      "stateMutability": "view",
      "type": "function"
    },
    {
      "inputs": [
        {
          "internalType": "uint256",
          "name": "",
          "type": "uint256"
        }
      ],
      "name": "_rolesPlayed",
      "outputs": [
        {
          "internalType": "uint256",
          "name": "",
          "type": "uint256"
        }
      ],
      "stateMutability": "view",
      "type": "function"
    },
    {
      "inputs": [
        {
          "internalType": "address",
          "name": "caller",
          "type": "address"
        }
      ],
      "name": "add2Whitelist",
      "outputs": [],
      "stateMutability": "nonpayable",
      "type": "function"
    },
    {
      "inputs": [],
      "name": "charactersPlayed",
      "outputs": [
        {
          "internalType": "uint256[]",
          "name": "",
          "type": "uint256[]"
        }
      ],
      "stateMutability": "view",
      "type": "function"
    },
    {
      "inputs": [],
      "name": "dependsOnCharacters",
      "outputs": [
        {
          "internalType": "uint256[]",
          "name": "",
          "type": "uint256[]"
        }
      ],
      "stateMutability": "view",
      "type": "function"
    },
    {
      "inputs": [],
      "name": "dependsOnRoles",
      "outputs": [
        {
          "internalType": "uint256[]",
          "name": "",
          "type": "uint256[]"
        }
      ],
      "stateMutability": "view",
      "type": "function"
    },
    {
      "inputs": [
        {
          "internalType": "address",
          "name": "caller",
          "type": "address"
        }
      ],
      "name": "isWhitelisted",
      "outputs": [
        {
          "internalType": "bool",
          "name": "",
          "type": "bool"
        }
      ],
      "stateMutability": "nonpayable",
      "type": "function"
    },
    {
      "inputs": [
        {
          "internalType": "uint256",
          "name": "",
          "type": "uint256"
        }
      ],
      "name": "mainCharacterCache",
      "outputs": [
        {
          "internalType": "address",
          "name": "",
          "type": "address"
        }
      ],
      "stateMutability": "view",
      "type": "function"
    },
    {
      "inputs": [],
      "name": "rebalance",
      "outputs": [],
      "stateMutability": "nonpayable",
      "type": "function"
    },
    {
      "inputs": [
        {
          "internalType": "address",
          "name": "caller",
          "type": "address"
        }
      ],
      "name": "removeFromWhitelist",
      "outputs": [],
      "stateMutability": "nonpayable",
      "type": "function"
    },
    {
      "inputs": [
        {
          "internalType": "address",
          "name": "token",
          "type": "address"
        },
        {
          "internalType": "address",
          "name": "recipient",
          "type": "address"
        },
        {
          "internalType": "uint256",
          "name": "amount",
          "type": "uint256"
        }
      ],
      "name": "rescueFunds",
      "outputs": [],
      "stateMutability": "nonpayable",
      "type": "function"
    },
    {
      "inputs": [
        {
          "internalType": "address",
          "name": "",
          "type": "address"
        },
        {
          "internalType": "uint256",
          "name": "",
          "type": "uint256"
        }
      ],
      "name": "roleCache",
      "outputs": [
        {
          "internalType": "bool",
          "name": "",
          "type": "bool"
        }
      ],
      "stateMutability": "view",
      "type": "function"
    },
    {
      "inputs": [],
      "name": "roles",
      "outputs": [
        {
          "internalType": "contract Roles",
          "name": "",
          "type": "address"
        }
      ],
      "stateMutability": "view",
      "type": "function"
    },
    {
      "inputs": [],
      "name": "rolesPlayed",
      "outputs": [
        {
          "internalType": "uint256[]",
          "name": "",
          "type": "uint256[]"
        }
      ],
      "stateMutability": "view",
      "type": "function"
    },
    {
      "inputs": [
        {
          "internalType": "uint256",
          "name": "role",
          "type": "uint256"
        }
      ],
      "name": "updateMainCharacterCache",
      "outputs": [],
      "stateMutability": "nonpayable",
      "type": "function"
    },
    {
      "inputs": [
        {
          "internalType": "uint256",
          "name": "role",
          "type": "uint256"
        },
        {
          "internalType": "address",
          "name": "contr",
          "type": "address"
        }
      ],
      "name": "updateRoleCache",
      "outputs": [],
      "stateMutability": "nonpayable",
      "type": "function"
    },
    {
      "inputs": [],
      "name": "withdrawFees",
      "outputs": [],
      "stateMutability": "nonpayable",
      "type": "function"
    }
  ],
  "bytecode": "0x60a0604052600780546001600160a01b031916735b5cfe992adac0c9d48e05854b2d91c73a0038581790553480156200003757600080fd5b5060405162002182380380620021828339810160408190526200005a91620002f4565b6002805460018181018355600083905260667f405787fa12a823e0f2b7631cc41b3ba8828b3321ca811111fa75cd3aa3bb5ace9283015582548082018455606d9083015582549081019092556067910155806001600160a01b038116620001125760405162461bcd60e51b815260206004820152602260248201527f506c656173652070726f766964652076616c696420726f6c6573206164647265604482015261737360f01b606482015260840160405180910390fd5b60601b6001600160601b0319166080526005805460018101825560009190915260027f036b6384b5eca791c62761152d0c79bb0604c104a5fb6f4eb0703f3154bb3db09091015560405163b4ed0b6d60e01b8152606660048201526001600160a01b0382169063b4ed0b6d9060240160206040518083038186803b1580156200019a57600080fd5b505afa158015620001af573d6000803e3d6000fd5b505050506040513d601f19601f82011682018060405250810190620001d59190620002f4565b6001600160a01b031663095ea7b3826001600160a01b031663b4ed0b6d606d6040518263ffffffff1660e01b81526004016200021391815260200190565b60206040518083038186803b1580156200022c57600080fd5b505afa15801562000241573d6000803e3d6000fd5b505050506040513d601f19601f82011682018060405250810190620002679190620002f4565b6040516001600160e01b031960e084901b1681526001600160a01b0390911660048201526000196024820152604401602060405180830381600087803b158015620002b157600080fd5b505af1158015620002c6573d6000803e3d6000fd5b505050506040513d601f19601f82011682018060405250810190620002ec919062000324565b505062000346565b60006020828403121562000306578081fd5b81516001600160a01b03811681146200031d578182fd5b9392505050565b60006020828403121562000336578081fd5b815180151581146200031d578182fd5b60805160601c611dfa6200038860003960008181610123015281816102bb0152818161045e015281816113c50152818161145d01526115000152611dfa6000f3fe608060405234801561001057600080fd5b50600436106100f15760003560e01c8063071060a6146100f657806337e5e6fb1461010b578063392f5f641461011e5780633af32abf1461015b578063447d52ba1461017e578063476343ee146101915780634a7a7f41146101995780636caa9c11146101ae5780636ccae054146101cf5780637a1a04df146101e25780637d7c2a1c146102105780637dad209b146102185780638ab1d68114610220578063abcbc4fc14610233578063aeb38d8b14610246578063bf184ea414610259578063dc94cb7d1461026c578063e8ea4fae14610274578063e9c3f77d1461027c575b600080fd5b610109610104366004611b15565b6102a5565b005b610109610119366004611a52565b61036b565b6101457f000000000000000000000000000000000000000000000000000000000000000081565b6040516101529190611b90565b60405180910390f35b61016e610169366004611a52565b6103cc565b6040519015158152602001610152565b61010961018c366004611b45565b610447565b61010961051d565b6101a161099b565b6040516101529190611bf5565b6101c16101bc366004611b15565b6109f3565b604051908152602001610152565b6101096101dd366004611a8a565b610a14565b61016e6101f0366004611aca565b600160209081526000928352604080842090915290825290205460ff1681565b610109610a76565b6101a161123b565b61010961022e366004611a52565b611291565b6101c1610241366004611b15565b6112e5565b6101c1610254366004611b15565b6112f5565b6101c1610267366004611b15565b611305565b6101a1611315565b6101a161136b565b61014561028a366004611b15565b6000602081905290815260409020546001600160a01b031681565b60405163b4ed0b6d60e01b8152600481018290527f00000000000000000000000000000000000000000000000000000000000000006001600160a01b03169063b4ed0b6d9060240160206040518083038186803b15801561030557600080fd5b505afa158015610319573d6000803e3d6000fd5b505050506040513d601f19601f8201168201806040525081019061033d9190611a6e565b60009182526020829052604090912080546001600160a01b0319166001600160a01b03909216919091179055565b336103746113c1565b6001600160a01b0316148061039857503361038d611459565b6001600160a01b0316145b6103bd5760405162461bcd60e51b81526004016103b490611c6c565b60405180910390fd5b6103c86008826114ca565b5050565b60006103d66113c1565b6001600160a01b0316826001600160a01b0316148061040d57506103f8611459565b6001600160a01b0316826001600160a01b0316145b80610430575061041b6114e6565b6001600160a01b0316826001600160a01b0316145b80610441575061044160088361154a565b92915050565b60405163f0723d9760e01b81526001600160a01b037f0000000000000000000000000000000000000000000000000000000000000000169063f0723d97906104959084908690600401611ba4565b60206040518083038186803b1580156104ad57600080fd5b505afa1580156104c1573d6000803e3d6000fd5b505050506040513d601f19601f820116820180604052508101906104e59190611af5565b6001600160a01b0391909116600090815260016020908152604080832094835293905291909120805460ff1916911515919091179055565b610526336103cc565b6105425760405162461bcd60e51b81526004016103b490611cb6565b600061054c61155f565b90506000610558611597565b6040516370a0823160e01b815290915081906000906001600160a01b038316906370a082319061058c903090600401611b90565b60206040518083038186803b1580156105a457600080fd5b505afa1580156105b8573d6000803e3d6000fd5b505050506040513d601f19601f820116820180604052508101906105dc9190611b2d565b90506000836001600160a01b03166318160ddd6040518163ffffffff1660e01b815260040160206040518083038186803b15801561061957600080fd5b505afa15801561062d573d6000803e3d6000fd5b505050506040513d601f19601f820116820180604052508101906106519190611b2d565b90506000856001600160a01b03166370a08231866040518263ffffffff1660e01b81526004016106819190611b90565b60206040518083038186803b15801561069957600080fd5b505afa1580156106ad573d6000803e3d6000fd5b505050506040513d601f19601f820116820180604052508101906106d19190611b2d565b6007546040516370a0823160e01b81529192506000916001600160a01b03909116906370a0823190610707908990600401611b90565b60206040518083038186803b15801561071f57600080fd5b505afa158015610733573d6000803e3d6000fd5b505050506040513d601f19601f820116820180604052508101906107579190611b2d565b9050600060065484838561076b9190611cf8565b6107759088611d30565b61077f9190611d10565b6107899190611d4f565b905060006107978385611cf8565b6107a18684611d30565b6107ab9190611d10565b90506001600160a01b038716631a4d01d2826000600a6107cc876009611d30565b6107d69190611d10565b6040518463ffffffff1660e01b81526004016107f493929190611cdf565b602060405180830381600087803b15801561080e57600080fd5b505af1158015610822573d6000803e3d6000fd5b505050506040513d601f19601f820116820180604052508101906108469190611b2d565b506040516370a0823160e01b81526000906001600160a01b038b16906370a0823190610876903090600401611b90565b60206040518083038186803b15801561088e57600080fd5b505afa1580156108a2573d6000803e3d6000fd5b505050506040513d601f19601f820116820180604052508101906108c69190611b2d565b9050896001600160a01b03166340c10f196108df6115cf565b836040518363ffffffff1660e01b81526004016108fd929190611ba4565b600060405180830381600087803b15801561091757600080fd5b505af115801561092b573d6000803e3d6000fd5b5050604051632770a7eb60e21b81526001600160a01b038d169250639dc29fac915061095d9030908590600401611ba4565b600060405180830381600087803b15801561097757600080fd5b505af115801561098b573d6000803e3d6000fd5b5050505050505050505050505050565b606060038054806020026020016040519081016040528092919081815260200182805480156109e957602002820191906000526020600020905b8154815260200190600101908083116109d5575b5050505050905090565b60058181548110610a0357600080fd5b600091825260209091200154905081565b33610a1d6113c1565b6001600160a01b03161480610a41575033610a36611459565b6001600160a01b0316145b610a5d5760405162461bcd60e51b81526004016103b490611c6c565b610a716001600160a01b0384168383611607565b505050565b610a7f336103cc565b610a9b5760405162461bcd60e51b81526004016103b490611cb6565b6000610aa561155f565b90506000610ab1611597565b6040516370a0823160e01b815290915081906000906001600160a01b038516906370a0823190610ae5908590600401611b90565b60206040518083038186803b158015610afd57600080fd5b505afa158015610b11573d6000803e3d6000fd5b505050506040513d601f19601f82011682018060405250810190610b359190611b2d565b6007546040516370a0823160e01b81529192506000916001600160a01b03909116906370a0823190610b6b908790600401611b90565b60206040518083038186803b158015610b8357600080fd5b505afa158015610b97573d6000803e3d6000fd5b505050506040513d601f19601f82011682018060405250810190610bbb9190611b2d565b90506000846001600160a01b03166318160ddd6040518163ffffffff1660e01b815260040160206040518083038186803b158015610bf857600080fd5b505afa158015610c0c573d6000803e3d6000fd5b505050506040513d601f19601f82011682018060405250810190610c309190611b2d565b9050610c3d826065611d30565b610c48846064611d30565b1115610f49576000610c5a8385611d4f565b90506000866001600160a01b03166370a08231306040518263ffffffff1660e01b8152600401610c8a9190611b90565b60206040518083038186803b158015610ca257600080fd5b505afa158015610cb6573d6000803e3d6000fd5b505050506040513d601f19601f82011682018060405250810190610cda9190611b2d565b90506000610d0582610cec8789611cf8565b610cf68787611d30565b610d009190611d10565b61165d565b90506001600160a01b038716631a4d01d2826000606488610d268b8d611cf8565b610d31886060611d30565b610d3b9190611d30565b610d459190611d10565b610d4f9190611d10565b6040518463ffffffff1660e01b8152600401610d6d93929190611cdf565b602060405180830381600087803b158015610d8757600080fd5b505af1158015610d9b573d6000803e3d6000fd5b505050506040513d601f19601f82011682018060405250810190610dbf9190611b2d565b506040516370a0823160e01b81526000906001600160a01b038b16906370a0823190610def903090600401611b90565b60206040518083038186803b158015610e0757600080fd5b505afa158015610e1b573d6000803e3d6000fd5b505050506040513d601f19601f82011682018060405250810190610e3f9190611b2d565b90508060065410610e67578060066000828254610e5c9190611d4f565b90915550610ee09050565b896001600160a01b03166340c10f19610e7e6115cf565b600654610e8b9085611d4f565b6040518363ffffffff1660e01b8152600401610ea8929190611ba4565b600060405180830381600087803b158015610ec257600080fd5b505af1158015610ed6573d6000803e3d6000fd5b5050600060065550505b604051632770a7eb60e21b81526001600160a01b038b1690639dc29fac90610f0e9030908590600401611ba4565b600060405180830381600087803b158015610f2857600080fd5b505af1158015610f3c573d6000803e3d6000fd5b50505050505050506111b9565b828211156111b9576000610f5d8484611d4f565b90506000876001600160a01b03166318160ddd6040518163ffffffff1660e01b815260040160206040518083038186803b158015610f9a57600080fd5b505afa158015610fae573d6000803e3d6000fd5b505050506040513d601f19601f82011682018060405250810190610fd29190611b2d565b886001600160a01b0316632efcc8666040518163ffffffff1660e01b815260040160206040518083038186803b15801561100b57600080fd5b505afa15801561101f573d6000803e3d6000fd5b505050506040513d601f19601f820116820180604052508101906110439190611b2d565b61104d9190611d4f565b905080821115611071576003611064826002611d30565b61106e9190611d10565b91505b6040516340c10f1960e01b81526001600160a01b038916906340c10f199061109f9030908690600401611ba4565b600060405180830381600087803b1580156110b957600080fd5b505af11580156110cd573d6000803e3d6000fd5b505050506000606485876110e19190611cf8565b6110eb8686611d30565b6110f6906060611d30565b6111009190611d10565b61110a9190611d10565b604080518082018252858152600060208201529051630b4c7e4d60e01b81529192506001600160a01b03891691630b4c7e4d9161114b918590600401611bbd565b602060405180830381600087803b15801561116557600080fd5b505af1158015611179573d6000803e3d6000fd5b505050506040513d601f19601f8201168201806040525081019061119d9190611b2d565b5082600660008282546111b09190611cf8565b90915550505050505b856001600160a01b031663d35f063e86600360065460026111da9190611d30565b6111e49190611d10565b6040518363ffffffff1660e01b8152600401611201929190611ba4565b600060405180830381600087803b15801561121b57600080fd5b505af115801561122f573d6000803e3d6000fd5b50505050505050505050565b606060048054806020026020016040519081016040528092919081815260200182805480156109e957602002820191906000526020600020908154815260200190600101908083116109d5575050505050905090565b3361129a6113c1565b6001600160a01b031614806112be5750336112b3611459565b6001600160a01b0316145b6112da5760405162461bcd60e51b81526004016103b490611c6c565b6103c8600882611674565b60028181548110610a0357600080fd5b60048181548110610a0357600080fd5b60038181548110610a0357600080fd5b606060028054806020026020016040519081016040528092919081815260200182805480156109e957602002820191906000526020600020908154815260200190600101908083116109d5575050505050905090565b606060058054806020026020016040519081016040528092919081815260200182805480156109e957602002820191906000526020600020908154815260200190600101908083116109d5575050505050905090565b60007f00000000000000000000000000000000000000000000000000000000000000006001600160a01b0316638da5cb5b6040518163ffffffff1660e01b815260040160206040518083038186803b15801561141c57600080fd5b505afa158015611430573d6000803e3d6000fd5b505050506040513d601f19601f820116820180604052508101906114549190611a6e565b905090565b60007f00000000000000000000000000000000000000000000000000000000000000006001600160a01b031663c34c08e56040518163ffffffff1660e01b8152600401602060405180830381600087803b1580156114b657600080fd5b505af1158015611430573d6000803e3d6000fd5b60006114df836001600160a01b038416611689565b9392505050565b60405163b4ed0b6d60e01b81526103e960048201526000907f00000000000000000000000000000000000000000000000000000000000000006001600160a01b03169063b4ed0b6d9060240160206040518083038186803b15801561141c57600080fd5b60006114df836001600160a01b0384166116d3565b606660009081526020527f422cccb7cea5c0e46f340bb7b21b81debac329f72e31669c20ff0f3a05cc2b5b546001600160a01b031690565b606d60009081526020527faa31d2a33b224bee3888830916f2f56f41bb5a40ed8a3273c6e72e6992d6223a546001600160a01b031690565b606760009081526020527f682158d08466d11c566d5712d4396197fdd67e65be71d83c97ef719ec468867b546001600160a01b031690565b610a718363a9059cbb60e01b8484604051602401611626929190611ba4565b60408051601f198184030181529190526020810180516001600160e01b03166001600160e01b0319909316929092179091526116eb565b600081831061166d575080610441565b5081610441565b60006114df836001600160a01b0384166117bd565b600061169583836116d3565b6116cb57508154600181810184556000848152602080822090930184905584548482528286019093526040902091909155610441565b506000610441565b60009081526001919091016020526040902054151590565b6000611740826040518060400160405280602081526020017f5361666545524332303a206c6f772d6c6576656c2063616c6c206661696c6564815250856001600160a01b03166118da9092919063ffffffff16565b805190915015610a71578080602001905181019061175e9190611af5565b610a715760405162461bcd60e51b815260206004820152602a60248201527f5361666545524332303a204552433230206f7065726174696f6e20646964206e6044820152691bdd081cdd58d8d9595960b21b60648201526084016103b4565b600081815260018301602052604081205480156118d05760006117e1600183611d4f565b85549091506000906117f590600190611d4f565b905081811461187657600086600001828154811061182357634e487b7160e01b600052603260045260246000fd5b906000526020600020015490508087600001848154811061185457634e487b7160e01b600052603260045260246000fd5b6000918252602080832090910192909255918252600188019052604090208390555b855486908061189557634e487b7160e01b600052603160045260246000fd5b600190038181906000526020600020016000905590558560010160008681526020019081526020016000206000905560019350505050610441565b6000915050610441565b60606118e984846000856118f1565b949350505050565b6060824710156119525760405162461bcd60e51b815260206004820152602660248201527f416464726573733a20696e73756666696369656e742062616c616e636520666f6044820152651c8818d85b1b60d21b60648201526084016103b4565b843b6119a05760405162461bcd60e51b815260206004820152601d60248201527f416464726573733a2063616c6c20746f206e6f6e2d636f6e747261637400000060448201526064016103b4565b600080866001600160a01b031685876040516119bc9190611b74565b60006040518083038185875af1925050503d80600081146119f9576040519150601f19603f3d011682016040523d82523d6000602084013e6119fe565b606091505b5091509150611a0e828286611a19565b979650505050505050565b60608315611a285750816114df565b825115611a385782518084602001fd5b8160405162461bcd60e51b81526004016103b49190611c39565b600060208284031215611a63578081fd5b81356114df81611dac565b600060208284031215611a7f578081fd5b81516114df81611dac565b600080600060608486031215611a9e578182fd5b8335611aa981611dac565b92506020840135611ab981611dac565b929592945050506040919091013590565b60008060408385031215611adc578182fd5b8235611ae781611dac565b946020939093013593505050565b600060208284031215611b06578081fd5b815180151581146114df578182fd5b600060208284031215611b26578081fd5b5035919050565b600060208284031215611b3e578081fd5b5051919050565b60008060408385031215611b57578182fd5b823591506020830135611b6981611dac565b809150509250929050565b60008251611b86818460208701611d66565b9190910192915050565b6001600160a01b0391909116815260200190565b6001600160a01b03929092168252602082015260400190565b60608101818460005b6002811015611be5578151835260209283019290910190600101611bc6565b5050508260408301529392505050565b6020808252825182820181905260009190848201906040850190845b81811015611c2d57835183529284019291840191600101611c11565b50909695505050505050565b6000602082528251806020840152611c58816040850160208701611d66565b601f01601f19169190910160400192915050565b6020808252602a908201527f526f6c65733a2063616c6c6572206973206e6f7420746865206f776e6572206f604082015269391032bc32b1baba37b960b11b606082015260800190565b6020808252600f908201526e139bdd081dda1a5d195b1a5cdd1959608a1b604082015260600190565b928352600f9190910b6020830152604082015260600190565b60008219821115611d0b57611d0b611d96565b500190565b600082611d2b57634e487b7160e01b81526012600452602481fd5b500490565b6000816000190483118215151615611d4a57611d4a611d96565b500290565b600082821015611d6157611d61611d96565b500390565b60005b83811015611d81578181015183820152602001611d69565b83811115611d90576000848401525b50505050565b634e487b7160e01b600052601160045260246000fd5b6001600160a01b0381168114611dc157600080fd5b5056fea2646970667358221220b043af85b0a7aeb37af74734571257b8fbb99c15b9302174a7824ac07a9fef6c64736f6c63430008030033",
  "linkReferences": {},
  "deployedLinkReferences": {}
}