{
  "_format": "hh-sol-artifact-1",
  "contractName": "SafeOwnableUpgradeable",
  "sourceName": "contracts/rewards/SafeOwnableUpgradeable.sol",
  "abi": [
    {
      "anonymous": false,
      "inputs": [
        {
          "indexed": true,
          "internalType": "address",
          "name": "previousOwner",
          "type": "address"
        },
        {
          "indexed": true,
          "internalType": "address",
          "name": "newOwner",
          "type": "address"
        }
      ],
      "name": "OwnershipTransferred",
      "type": "event"
    },
    {
      "inputs": [],
      "name": "acceptOwnership",
      "outputs": [],
      "stateMutability": "nonpayable",
      "type": "function"
    },
    {
      "inputs": [],
      "name": "owner",
      "outputs": [
        {
          "internalType": "address",
          "name": "",
          "type": "address"
        }
      ],
      "stateMutability": "view",
      "type": "function"
    },
    {
      "inputs": [],
      "name": "ownerCandidate",
      "outputs": [
        {
          "internalType": "address",
          "name": "",
          "type": "address"
        }
      ],
      "stateMutability": "view",
      "type": "function"
    },
    {
      "inputs": [
        {
          "internalType": "address",
          "name": "newOwner",
          "type": "address"
        }
      ],
      "name": "proposeOwner",
      "outputs": [],
      "stateMutability": "nonpayable",
      "type": "function"
    },
    {
      "inputs": [],
      "name": "renounceOwnership",
      "outputs": [],
      "stateMutability": "nonpayable",
      "type": "function"
    }
  ],
  "bytecode": "0x608060405234801561001057600080fd5b50610362806100206000396000f3fe608060405234801561001057600080fd5b50600436106100575760003560e01c80635f504a821461005c578063715018a61461007657806379ba5097146100805780638da5cb5b14610088578063b5ed298a14610090575b600080fd5b6034545b60405161006d91906102e3565b60405180910390f35b61007e6100a3565b005b61007e610100565b610060610158565b61007e61009e3660046102b5565b610167565b6100b36100ae610158565b6101fc565b6100bc336101fc565b336100c5610158565b6001600160a01b0316146100f45760405162461bcd60e51b81526004016100eb906102f7565b60405180910390fd5b6100fe6000610242565b565b3361010a60345490565b6001600160a01b03161461014f5760405162461bcd60e51b815260206004820152600c60248201526b155b985d5d1a1bdc9a5e995960a21b60448201526064016100eb565b6100fe33610242565b6033546001600160a01b031690565b6101726100ae610158565b61017b336101fc565b33610184610158565b6001600160a01b0316146101aa5760405162461bcd60e51b81526004016100eb906102f7565b6001600160a01b0381166101ee5760405162461bcd60e51b815260206004820152600b60248201526a5a65726f4164647265737360a81b60448201526064016100eb565b6001600160a01b0316603455565b61023f8160405160240161021091906102e3565b60408051601f198184030181529190526020810180516001600160e01b031663161765e160e11b179052610294565b50565b603380546001600160a01b038381166001600160a01b0319831681179093556040519116919082907f8be0079c531659141344cd1fd0a4f28419497f9722a3daafe3b4186f6b6457e090600090a35050565b80516a636f6e736f6c652e6c6f67602083016000808483855afa5050505050565b6000602082840312156102c6578081fd5b81356001600160a01b03811681146102dc578182fd5b9392505050565b6001600160a01b0391909116815260200190565b6020808252818101527f4f776e61626c653a2063616c6c6572206973206e6f7420746865206f776e657260408201526060019056fea2646970667358221220c6025818d9693b66358887cfe2c0e018b785a55c563737fd4bbe054568755ae464736f6c63430008030033",
  "linkReferences": {},
  "deployedLinkReferences": {}
}