{
  "_format": "hh-sol-artifact-1",
  "contractName": "StableLending2InterestForwarder",
  "sourceName": "contracts/rewards/StableLending2InterestForwarder.sol",
  "abi": [
    {
      "inputs": [
        {
          "internalType": "address",
          "name": "_iMoney",
          "type": "address"
        },
        {
          "internalType": "address",
          "name": "_roles",
          "type": "address"
        }
      ],
      "stateMutability": "nonpayable",
      "type": "constructor"
    },
    {
      "anonymous": false,
      "inputs": [
        {
          "indexed": false,
          "internalType": "string",
          "name": "param",
          "type": "string"
        },
        {
          "indexed": false,
          "internalType": "uint256",
          "name": "value",
          "type": "uint256"
        }
      ],
      "name": "ParameterUpdated",
      "type": "event"
    },
    {
      "anonymous": false,
      "inputs": [
        {
          "indexed": false,
          "internalType": "string",
          "name": "param",
          "type": "string"
        },
        {
          "indexed": false,
          "internalType": "address",
          "name": "subject",
          "type": "address"
        },
        {
          "indexed": false,
          "internalType": "uint256",
          "name": "value",
          "type": "uint256"
        }
      ],
      "name": "SubjectParameterUpdated",
      "type": "event"
    },
    {
      "anonymous": false,
      "inputs": [
        {
          "indexed": false,
          "internalType": "string",
          "name": "param",
          "type": "string"
        },
        {
          "indexed": false,
          "internalType": "address",
          "name": "subject",
          "type": "address"
        }
      ],
      "name": "SubjectUpdated",
      "type": "event"
    },
    {
      "inputs": [
        {
          "internalType": "uint256",
          "name": "",
          "type": "uint256"
        }
      ],
      "name": "_charactersPlayed",
      "outputs": [
        {
          "internalType": "uint256",
          "name": "",
          "type": "uint256"
        }
      ],
      "stateMutability": "view",
      "type": "function"
    },
    {
      "inputs": [
        {
          "internalType": "uint256",
          "name": "",
          "type": "uint256"
        }
      ],
      "name": "_dependsOnCharacters",
      "outputs": [
        {
          "internalType": "uint256",
          "name": "",
          "type": "uint256"
        }
      ],
      "stateMutability": "view",
      "type": "function"
    },
    {
      "inputs": [
        {
          "internalType": "uint256",
          "name": "",
          "type": "uint256"
        }
      ],
      "name": "_dependsOnRoles",
      "outputs": [
        {
          "internalType": "uint256",
          "name": "",
          "type": "uint256"
        }
      ],
      "stateMutability": "view",
      "type": "function"
    },
    {
      "inputs": [
        {
          "internalType": "uint256",
          "name": "",
          "type": "uint256"
        }
      ],
      "name": "_rolesPlayed",
      "outputs": [
        {
          "internalType": "uint256",
          "name": "",
          "type": "uint256"
        }
      ],
      "stateMutability": "view",
      "type": "function"
    },
    {
      "inputs": [
        {
          "internalType": "address",
          "name": "user",
          "type": "address"
        }
      ],
      "name": "balanceOf",
      "outputs": [
        {
          "internalType": "uint256",
          "name": "",
          "type": "uint256"
        }
      ],
      "stateMutability": "view",
      "type": "function"
    },
    {
      "inputs": [],
      "name": "charactersPlayed",
      "outputs": [
        {
          "internalType": "uint256[]",
          "name": "",
          "type": "uint256[]"
        }
      ],
      "stateMutability": "view",
      "type": "function"
    },
    {
      "inputs": [],
      "name": "claimableInterest",
      "outputs": [
        {
          "internalType": "uint256",
          "name": "",
          "type": "uint256"
        }
      ],
      "stateMutability": "view",
      "type": "function"
    },
    {
      "inputs": [],
      "name": "dependsOnCharacters",
      "outputs": [
        {
          "internalType": "uint256[]",
          "name": "",
          "type": "uint256[]"
        }
      ],
      "stateMutability": "view",
      "type": "function"
    },
    {
      "inputs": [],
      "name": "dependsOnRoles",
      "outputs": [
        {
          "internalType": "uint256[]",
          "name": "",
          "type": "uint256[]"
        }
      ],
      "stateMutability": "view",
      "type": "function"
    },
    {
      "inputs": [
        {
          "internalType": "uint256",
          "name": "amount",
          "type": "uint256"
        }
      ],
      "name": "deposit",
      "outputs": [],
      "stateMutability": "nonpayable",
      "type": "function"
    },
    {
      "inputs": [],
      "name": "forwardAndRegisterInterest",
      "outputs": [],
      "stateMutability": "nonpayable",
      "type": "function"
    },
    {
      "inputs": [],
      "name": "forwardInterest",
      "outputs": [],
      "stateMutability": "nonpayable",
      "type": "function"
    },
    {
      "inputs": [],
      "name": "interestLastForwarded",
      "outputs": [
        {
          "internalType": "uint256",
          "name": "",
          "type": "uint256"
        }
      ],
      "stateMutability": "view",
      "type": "function"
    },
    {
      "inputs": [
        {
          "internalType": "uint256",
          "name": "",
          "type": "uint256"
        }
      ],
      "name": "mainCharacterCache",
      "outputs": [
        {
          "internalType": "address",
          "name": "",
          "type": "address"
        }
      ],
      "stateMutability": "view",
      "type": "function"
    },
    {
      "inputs": [
        {
          "internalType": "address",
          "name": "",
          "type": "address"
        },
        {
          "internalType": "uint256",
          "name": "",
          "type": "uint256"
        }
      ],
      "name": "roleCache",
      "outputs": [
        {
          "internalType": "bool",
          "name": "",
          "type": "bool"
        }
      ],
      "stateMutability": "view",
      "type": "function"
    },
    {
      "inputs": [],
      "name": "roles",
      "outputs": [
        {
          "internalType": "contract Roles",
          "name": "",
          "type": "address"
        }
      ],
      "stateMutability": "view",
      "type": "function"
    },
    {
      "inputs": [],
      "name": "rolesPlayed",
      "outputs": [
        {
          "internalType": "uint256[]",
          "name": "",
          "type": "uint256[]"
        }
      ],
      "stateMutability": "view",
      "type": "function"
    },
    {
      "inputs": [
        {
          "internalType": "address",
          "name": "t",
          "type": "address"
        }
      ],
      "name": "setTreasury",
      "outputs": [],
      "stateMutability": "nonpayable",
      "type": "function"
    },
    {
      "inputs": [
        {
          "internalType": "uint256",
          "name": "share",
          "type": "uint256"
        }
      ],
      "name": "setTreasurySharePer10k",
      "outputs": [],
      "stateMutability": "nonpayable",
      "type": "function"
    },
    {
      "inputs": [],
      "name": "treasury",
      "outputs": [
        {
          "internalType": "address",
          "name": "",
          "type": "address"
        }
      ],
      "stateMutability": "view",
      "type": "function"
    },
    {
      "inputs": [],
      "name": "treasurySharePer10k",
      "outputs": [
        {
          "internalType": "uint256",
          "name": "",
          "type": "uint256"
        }
      ],
      "stateMutability": "view",
      "type": "function"
    },
    {
      "inputs": [
        {
          "internalType": "uint256",
          "name": "role",
          "type": "uint256"
        }
      ],
      "name": "updateMainCharacterCache",
      "outputs": [],
      "stateMutability": "nonpayable",
      "type": "function"
    },
    {
      "inputs": [
        {
          "internalType": "uint256",
          "name": "role",
          "type": "uint256"
        },
        {
          "internalType": "address",
          "name": "contr",
          "type": "address"
        }
      ],
      "name": "updateRoleCache",
      "outputs": [],
      "stateMutability": "nonpayable",
      "type": "function"
    },
    {
      "inputs": [
        {
          "internalType": "address",
          "name": "user",
          "type": "address"
        }
      ],
      "name": "viewPendingReward",
      "outputs": [
        {
          "internalType": "uint256",
          "name": "",
          "type": "uint256"
        }
      ],
      "stateMutability": "view",
      "type": "function"
    },
    {
      "inputs": [
        {
          "internalType": "uint256",
          "name": "amount",
          "type": "uint256"
        }
      ],
      "name": "withdraw",
      "outputs": [],
      "stateMutability": "nonpayable",
      "type": "function"
    }
  ],
  "bytecode": "0x60c0604052611388600855600980546001600160a01b03191673c44a49eb7e0db812382be975e96ac5c03d3080021790553480156200003d57600080fd5b50604051620014b5380380620014b583398101604081905262000060916200031c565b806001600160a01b038116620000c85760405162461bcd60e51b815260206004820152602260248201527f506c656173652070726f766964652076616c696420726f6c6573206164647265604482015261737360f01b60648201526084015b60405180910390fd5b60601b6001600160601b0319166080526002805460018082018355600083905260777f405787fa12a823e0f2b7631cc41b3ba8828b3321ca811111fa75cd3aa3bb5ace92830181905583548083019094556066939092019290925560069190915560405163b4ed0b6d60e01b815260048101919091526001600160a01b0382169063b4ed0b6d9060240160206040518083038186803b1580156200016b57600080fd5b505afa15801562000180573d6000803e3d6000fd5b505050506040513d601f19601f82011682018060405250810190620001a69190620002f8565b6001600160a01b031663cc2b1d476040518163ffffffff1660e01b815260040160206040518083038186803b158015620001df57600080fd5b505afa158015620001f4573d6000803e3d6000fd5b505050506040513d601f19601f820116820180604052508101906200021a919062000353565b6007819055620002825760405162461bcd60e51b815260206004820152602c60248201527f696e7465726573744c617374466f72776172646564206d75737420626520677260448201526b06561746572207468616e20360a41b6064820152608401620000bf565b5060601b6001600160601b03191660a0526005805460018082018355600083905260027f036b6384b5eca791c62761152d0c79bb0604c104a5fb6f4eb0703f3154bb3db09283015582548082019093559101556200036c565b80516001600160a01b0381168114620002f357600080fd5b919050565b6000602082840312156200030a578081fd5b6200031582620002db565b9392505050565b600080604083850312156200032f578081fd5b6200033a83620002db565b91506200034a60208401620002db565b90509250929050565b60006020828403121562000365578081fd5b5051919050565b60805160601c60a05160601c6110de620003d7600039600081816104a501528181610537015281816107820152818161084d015281816109710152610aee01526000818161018001528181610350015281816105ba01528181610d300152610dc301526110de6000f3fe608060405234801561001057600080fd5b50600436106101335760003560e01c8063071060a61461013857806311c50c581461014d5780632b86ac72146101605780632e1a7d4d14610168578063392f5f641461017b5780633c55fd90146101b8578063447d52ba146101cf5780634a7a7f41146101e2578063551b03ff146101f757806361d027b3146101ff5780636caa9c11146102125780636dff4ac41461022557806370a08231146102385780637a1a04df1461024b5780637dad209b1461028957806384d83ce614610291578063abcbc4fc1461029a578063aeb38d8b146102ad578063b6b55f25146102c0578063bf184ea4146102d3578063c385c810146102e6578063dc94cb7d146102ee578063e8ea4fae146102f6578063e9c3f77d146102fe578063f0f4426014610327575b600080fd5b61014b610146366004610ef2565b61033a565b005b61014b61015b366004610ef2565b610400565b61014b61049b565b61014b610176366004610ef2565b610518565b6101a27f000000000000000000000000000000000000000000000000000000000000000081565b6040516101af9190610f51565b60405180910390f35b6101c160075481565b6040519081526020016101af565b61014b6101dd366004610f22565b6105a3565b6101ea610679565b6040516101af9190610f7e565b6101c16106d1565b6009546101a2906001600160a01b031681565b6101c1610220366004610ef2565b61075d565b6101c1610233366004610e68565b61077e565b6101c1610246366004610e68565b61082b565b610279610259366004610ea7565b600160209081526000928352604080842090915290825290205460ff1681565b60405190151581526020016101af565b6101ea6108dc565b6101c160085481565b6101c16102a8366004610ef2565b610932565b6101c16102bb366004610ef2565b610942565b61014b6102ce366004610ef2565b610952565b6101c16102e1366004610ef2565b6109a8565b61014b6109b8565b6101ea610c15565b6101ea610c6b565b6101a261030c366004610ef2565b6000602081905290815260409020546001600160a01b031681565b61014b610335366004610e68565b610cc1565b60405163b4ed0b6d60e01b8152600481018290527f00000000000000000000000000000000000000000000000000000000000000006001600160a01b03169063b4ed0b6d9060240160206040518083038186803b15801561039a57600080fd5b505afa1580156103ae573d6000803e3d6000fd5b505050506040513d601f19601f820116820180604052508101906103d29190610e8b565b60009182526020829052604090912080546001600160a01b0319166001600160a01b03909216919091179055565b33610409610d2c565b6001600160a01b0316148061042d575033610422610dbf565b6001600160a01b0316145b6104525760405162461bcd60e51b815260040161044990610fc2565b60405180910390fd5b8061271010156104965760405162461bcd60e51b815260206004820152600f60248201526e65786365737369766520736861726560881b6044820152606401610449565b600855565b6104a36109b8565b7f00000000000000000000000000000000000000000000000000000000000000006001600160a01b031663ec58744c6040518163ffffffff1660e01b8152600401600060405180830381600087803b1580156104fe57600080fd5b505af1158015610512573d6000803e3d6000fd5b50505050565b6105206109b8565b604051636da8c6d960e11b81526001600160a01b037f0000000000000000000000000000000000000000000000000000000000000000169063db518db29061056e9033908590600401610f65565b600060405180830381600087803b15801561058857600080fd5b505af115801561059c573d6000803e3d6000fd5b5050505050565b60405163f0723d9760e01b81526001600160a01b037f0000000000000000000000000000000000000000000000000000000000000000169063f0723d97906105f19084908690600401610f65565b60206040518083038186803b15801561060957600080fd5b505afa15801561061d573d6000803e3d6000fd5b505050506040513d601f19601f820116820180604052508101906106419190610ed2565b6001600160a01b0391909116600090815260016020908152604080832094835293905291909120805460ff1916911515919091179055565b606060038054806020026020016040519081016040528092919081815260200182805480156106c757602002820191906000526020600020905b8154815260200190600101908083116106b3575b5050505050905090565b60006007546106de610e30565b6001600160a01b031663cc2b1d476040518163ffffffff1660e01b815260040160206040518083038186803b15801561071657600080fd5b505afa15801561072a573d6000803e3d6000fd5b505050506040513d601f19601f8201168201806040525081019061074e9190610f0a565b6107589190611063565b905090565b6005818154811061076d57600080fd5b600091825260209091200154905081565b60007f00000000000000000000000000000000000000000000000000000000000000006001600160a01b031663d98b3f9b836107b86106d1565b6040518363ffffffff1660e01b81526004016107d5929190610f65565b60206040518083038186803b1580156107ed57600080fd5b505afa158015610801573d6000803e3d6000fd5b505050506040513d601f19601f820116820180604052508101906108259190610f0a565b92915050565b60006108368261077e565b6040516370a0823160e01b81526001600160a01b037f000000000000000000000000000000000000000000000000000000000000000016906370a0823190610882908690600401610f51565b60206040518083038186803b15801561089a57600080fd5b505afa1580156108ae573d6000803e3d6000fd5b505050506040513d601f19601f820116820180604052508101906108d29190610f0a565b610825919061100c565b606060048054806020026020016040519081016040528092919081815260200182805480156106c757602002820191906000526020600020908154815260200190600101908083116106b3575050505050905090565b6002818154811061076d57600080fd5b6004818154811061076d57600080fd5b61095a6109b8565b6040516317a790f160e11b81526001600160a01b037f00000000000000000000000000000000000000000000000000000000000000001690632f4f21e29061056e9033908590600401610f65565b6003818154811061076d57600080fd5b60026006541415610a0b5760405162461bcd60e51b815260206004820152601f60248201527f5265656e7472616e637947756172643a207265656e7472616e742063616c6c006044820152606401610449565b60026006556000610a1a610e30565b6001600160a01b031663cc2b1d476040518163ffffffff1660e01b815260040160206040518083038186803b158015610a5257600080fd5b505afa158015610a66573d6000803e3d6000fd5b505050506040513d601f19601f82011682018060405250810190610a8a9190610f0a565b9050600060075482610a9c9190611063565b90506000610adb606660009081526020527f422cccb7cea5c0e46f340bb7b21b81debac329f72e31669c20ff0f3a05cc2b5b546001600160a01b031690565b9050806001600160a01b03166340c10f197f0000000000000000000000000000000000000000000000000000000000000000612710600854612710610b209190611063565b610b2a9087611044565b610b349190611024565b6040518363ffffffff1660e01b8152600401610b51929190610f65565b600060405180830381600087803b158015610b6b57600080fd5b505af1158015610b7f573d6000803e3d6000fd5b50506009546008546001600160a01b0385811694506340c10f1993509091169061271090610bad9087611044565b610bb79190611024565b6040518363ffffffff1660e01b8152600401610bd4929190610f65565b600060405180830381600087803b158015610bee57600080fd5b505af1158015610c02573d6000803e3d6000fd5b5050506007939093555050600160065550565b606060028054806020026020016040519081016040528092919081815260200182805480156106c757602002820191906000526020600020908154815260200190600101908083116106b3575050505050905090565b606060058054806020026020016040519081016040528092919081815260200182805480156106c757602002820191906000526020600020908154815260200190600101908083116106b3575050505050905090565b33610cca610d2c565b6001600160a01b03161480610cee575033610ce3610dbf565b6001600160a01b0316145b610d0a5760405162461bcd60e51b815260040161044990610fc2565b600980546001600160a01b0319166001600160a01b0392909216919091179055565b60007f00000000000000000000000000000000000000000000000000000000000000006001600160a01b0316638da5cb5b6040518163ffffffff1660e01b815260040160206040518083038186803b158015610d8757600080fd5b505afa158015610d9b573d6000803e3d6000fd5b505050506040513d601f19601f820116820180604052508101906107589190610e8b565b60007f00000000000000000000000000000000000000000000000000000000000000006001600160a01b031663c34c08e56040518163ffffffff1660e01b8152600401602060405180830381600087803b158015610e1c57600080fd5b505af1158015610d9b573d6000803e3d6000fd5b607760009081526020527f0268ef3855c7ede1fa90865cb7be57f1e39b20db2aafdd81fc63c1af98b87bcb546001600160a01b031690565b600060208284031215610e79578081fd5b8135610e8481611090565b9392505050565b600060208284031215610e9c578081fd5b8151610e8481611090565b60008060408385031215610eb9578081fd5b8235610ec481611090565b946020939093013593505050565b600060208284031215610ee3578081fd5b81518015158114610e84578182fd5b600060208284031215610f03578081fd5b5035919050565b600060208284031215610f1b578081fd5b5051919050565b60008060408385031215610f34578182fd5b823591506020830135610f4681611090565b809150509250929050565b6001600160a01b0391909116815260200190565b6001600160a01b03929092168252602082015260400190565b6020808252825182820181905260009190848201906040850190845b81811015610fb657835183529284019291840191600101610f9a565b50909695505050505050565b6020808252602a908201527f526f6c65733a2063616c6c6572206973206e6f7420746865206f776e6572206f604082015269391032bc32b1baba37b960b11b606082015260800190565b6000821982111561101f5761101f61107a565b500190565b60008261103f57634e487b7160e01b81526012600452602481fd5b500490565b600081600019048311821515161561105e5761105e61107a565b500290565b6000828210156110755761107561107a565b500390565b634e487b7160e01b600052601160045260246000fd5b6001600160a01b03811681146110a557600080fd5b5056fea2646970667358221220bf96a646ea27e8ebedc9599691a63827b7f4fe8a22ea2a92e6047630e8d7afc864736f6c63430008030033",
  "linkReferences": {},
  "deployedLinkReferences": {}
}