{
  "_format": "hh-sol-artifact-1",
  "contractName": "MasterMore",
  "sourceName": "contracts/rewards/MasterMore.sol",
  "abi": [
    {
      "anonymous": false,
      "inputs": [
        {
          "indexed": true,
          "internalType": "uint256",
          "name": "pid",
          "type": "uint256"
        },
        {
          "indexed": false,
          "internalType": "uint256",
          "name": "allocPoint",
          "type": "uint256"
        },
        {
          "indexed": true,
          "internalType": "contract IERC20",
          "name": "lpToken",
          "type": "address"
        },
        {
          "indexed": true,
          "internalType": "contract IRewarder",
          "name": "rewarder",
          "type": "address"
        }
      ],
      "name": "Add",
      "type": "event"
    },
    {
      "anonymous": false,
      "inputs": [
        {
          "indexed": true,
          "internalType": "address",
          "name": "user",
          "type": "address"
        },
        {
          "indexed": true,
          "internalType": "uint256",
          "name": "pid",
          "type": "uint256"
        },
        {
          "indexed": false,
          "internalType": "uint256",
          "name": "amount",
          "type": "uint256"
        }
      ],
      "name": "Deposit",
      "type": "event"
    },
    {
      "anonymous": false,
      "inputs": [
        {
          "indexed": true,
          "internalType": "address",
          "name": "user",
          "type": "address"
        },
        {
          "indexed": true,
          "internalType": "uint256",
          "name": "pid",
          "type": "uint256"
        },
        {
          "indexed": false,
          "internalType": "uint256",
          "name": "amount",
          "type": "uint256"
        }
      ],
      "name": "DepositFor",
      "type": "event"
    },
    {
      "anonymous": false,
      "inputs": [
        {
          "indexed": true,
          "internalType": "address",
          "name": "user",
          "type": "address"
        },
        {
          "indexed": true,
          "internalType": "uint256",
          "name": "pid",
          "type": "uint256"
        },
        {
          "indexed": false,
          "internalType": "uint256",
          "name": "amount",
          "type": "uint256"
        }
      ],
      "name": "EmergencyWithdraw",
      "type": "event"
    },
    {
      "anonymous": false,
      "inputs": [
        {
          "indexed": true,
          "internalType": "address",
          "name": "user",
          "type": "address"
        },
        {
          "indexed": true,
          "internalType": "uint256",
          "name": "pid",
          "type": "uint256"
        },
        {
          "indexed": false,
          "internalType": "uint256",
          "name": "amount",
          "type": "uint256"
        }
      ],
      "name": "Harvest",
      "type": "event"
    },
    {
      "anonymous": false,
      "inputs": [
        {
          "indexed": true,
          "internalType": "address",
          "name": "previousOwner",
          "type": "address"
        },
        {
          "indexed": true,
          "internalType": "address",
          "name": "newOwner",
          "type": "address"
        }
      ],
      "name": "OwnershipTransferred",
      "type": "event"
    },
    {
      "anonymous": false,
      "inputs": [
        {
          "indexed": false,
          "internalType": "address",
          "name": "account",
          "type": "address"
        }
      ],
      "name": "Paused",
      "type": "event"
    },
    {
      "anonymous": false,
      "inputs": [
        {
          "indexed": true,
          "internalType": "uint256",
          "name": "pid",
          "type": "uint256"
        },
        {
          "indexed": false,
          "internalType": "uint256",
          "name": "allocPoint",
          "type": "uint256"
        },
        {
          "indexed": true,
          "internalType": "contract IRewarder",
          "name": "rewarder",
          "type": "address"
        },
        {
          "indexed": false,
          "internalType": "bool",
          "name": "overwrite",
          "type": "bool"
        }
      ],
      "name": "Set",
      "type": "event"
    },
    {
      "anonymous": false,
      "inputs": [
        {
          "indexed": false,
          "internalType": "address",
          "name": "account",
          "type": "address"
        }
      ],
      "name": "Unpaused",
      "type": "event"
    },
    {
      "anonymous": false,
      "inputs": [
        {
          "indexed": true,
          "internalType": "address",
          "name": "user",
          "type": "address"
        },
        {
          "indexed": false,
          "internalType": "uint256",
          "name": "morePerSec",
          "type": "uint256"
        }
      ],
      "name": "UpdateEmissionRate",
      "type": "event"
    },
    {
      "anonymous": false,
      "inputs": [
        {
          "indexed": true,
          "internalType": "address",
          "name": "user",
          "type": "address"
        },
        {
          "indexed": false,
          "internalType": "uint256",
          "name": "dilutingRepartition",
          "type": "uint256"
        },
        {
          "indexed": false,
          "internalType": "uint256",
          "name": "nonDilutingRepartition",
          "type": "uint256"
        }
      ],
      "name": "UpdateEmissionRepartition",
      "type": "event"
    },
    {
      "anonymous": false,
      "inputs": [
        {
          "indexed": true,
          "internalType": "uint256",
          "name": "pid",
          "type": "uint256"
        },
        {
          "indexed": false,
          "internalType": "uint256",
          "name": "lastRewardTimestamp",
          "type": "uint256"
        },
        {
          "indexed": false,
          "internalType": "uint256",
          "name": "lpSupply",
          "type": "uint256"
        },
        {
          "indexed": false,
          "internalType": "uint256",
          "name": "accMorePerShare",
          "type": "uint256"
        }
      ],
      "name": "UpdatePool",
      "type": "event"
    },
    {
      "anonymous": false,
      "inputs": [
        {
          "indexed": true,
          "internalType": "address",
          "name": "user",
          "type": "address"
        },
        {
          "indexed": false,
          "internalType": "address",
          "name": "oldVeMORE",
          "type": "address"
        },
        {
          "indexed": false,
          "internalType": "address",
          "name": "newVeMORE",
          "type": "address"
        }
      ],
      "name": "UpdateVeMORE",
      "type": "event"
    },
    {
      "anonymous": false,
      "inputs": [
        {
          "indexed": true,
          "internalType": "address",
          "name": "user",
          "type": "address"
        },
        {
          "indexed": true,
          "internalType": "uint256",
          "name": "pid",
          "type": "uint256"
        },
        {
          "indexed": false,
          "internalType": "uint256",
          "name": "amount",
          "type": "uint256"
        }
      ],
      "name": "Withdraw",
      "type": "event"
    },
    {
      "inputs": [],
      "name": "acceptOwnership",
      "outputs": [],
      "stateMutability": "nonpayable",
      "type": "function"
    },
    {
      "inputs": [
        {
          "internalType": "uint256",
          "name": "_allocPoint",
          "type": "uint256"
        },
        {
          "internalType": "contract IERC20",
          "name": "_lpToken",
          "type": "address"
        },
        {
          "internalType": "contract IRewarder",
          "name": "_rewarder",
          "type": "address"
        }
      ],
      "name": "add",
      "outputs": [],
      "stateMutability": "nonpayable",
      "type": "function"
    },
    {
      "inputs": [
        {
          "internalType": "uint256",
          "name": "",
          "type": "uint256"
        },
        {
          "internalType": "address",
          "name": "",
          "type": "address"
        }
      ],
      "name": "claimableMore",
      "outputs": [
        {
          "internalType": "uint256",
          "name": "",
          "type": "uint256"
        }
      ],
      "stateMutability": "view",
      "type": "function"
    },
    {
      "inputs": [
        {
          "internalType": "uint256",
          "name": "_pid",
          "type": "uint256"
        },
        {
          "internalType": "uint256",
          "name": "_amount",
          "type": "uint256"
        }
      ],
      "name": "deposit",
      "outputs": [
        {
          "internalType": "uint256",
          "name": "",
          "type": "uint256"
        },
        {
          "internalType": "uint256",
          "name": "",
          "type": "uint256"
        }
      ],
      "stateMutability": "nonpayable",
      "type": "function"
    },
    {
      "inputs": [
        {
          "internalType": "uint256",
          "name": "_pid",
          "type": "uint256"
        },
        {
          "internalType": "uint256",
          "name": "_amount",
          "type": "uint256"
        },
        {
          "internalType": "address",
          "name": "_user",
          "type": "address"
        }
      ],
      "name": "depositFor",
      "outputs": [],
      "stateMutability": "nonpayable",
      "type": "function"
    },
    {
      "inputs": [],
      "name": "dilutingRepartition",
      "outputs": [
        {
          "internalType": "uint256",
          "name": "",
          "type": "uint256"
        }
      ],
      "stateMutability": "view",
      "type": "function"
    },
    {
      "inputs": [],
      "name": "emergencyMoreWithdraw",
      "outputs": [],
      "stateMutability": "nonpayable",
      "type": "function"
    },
    {
      "inputs": [
        {
          "internalType": "uint256",
          "name": "_pid",
          "type": "uint256"
        }
      ],
      "name": "emergencyWithdraw",
      "outputs": [],
      "stateMutability": "nonpayable",
      "type": "function"
    },
    {
      "inputs": [
        {
          "internalType": "contract IERC20",
          "name": "_more",
          "type": "address"
        },
        {
          "internalType": "contract IVeMore",
          "name": "_veMore",
          "type": "address"
        },
        {
          "internalType": "uint256",
          "name": "_morePerSec",
          "type": "uint256"
        },
        {
          "internalType": "uint256",
          "name": "_dilutingRepartition",
          "type": "uint256"
        },
        {
          "internalType": "uint256",
          "name": "_startTimestamp",
          "type": "uint256"
        }
      ],
      "name": "initialize",
      "outputs": [],
      "stateMutability": "nonpayable",
      "type": "function"
    },
    {
      "inputs": [],
      "name": "massUpdatePools",
      "outputs": [],
      "stateMutability": "nonpayable",
      "type": "function"
    },
    {
      "inputs": [],
      "name": "maxPoolLength",
      "outputs": [
        {
          "internalType": "uint256",
          "name": "",
          "type": "uint256"
        }
      ],
      "stateMutability": "view",
      "type": "function"
    },
    {
      "inputs": [
        {
          "internalType": "uint256[]",
          "name": "_pids",
          "type": "uint256[]"
        }
      ],
      "name": "migrate",
      "outputs": [],
      "stateMutability": "nonpayable",
      "type": "function"
    },
    {
      "inputs": [],
      "name": "more",
      "outputs": [
        {
          "internalType": "contract IERC20",
          "name": "",
          "type": "address"
        }
      ],
      "stateMutability": "view",
      "type": "function"
    },
    {
      "inputs": [],
      "name": "morePerSec",
      "outputs": [
        {
          "internalType": "uint256",
          "name": "",
          "type": "uint256"
        }
      ],
      "stateMutability": "view",
      "type": "function"
    },
    {
      "inputs": [
        {
          "internalType": "uint256[]",
          "name": "_pids",
          "type": "uint256[]"
        }
      ],
      "name": "multiClaim",
      "outputs": [
        {
          "internalType": "uint256",
          "name": "",
          "type": "uint256"
        },
        {
          "internalType": "uint256[]",
          "name": "",
          "type": "uint256[]"
        },
        {
          "internalType": "uint256[]",
          "name": "",
          "type": "uint256[]"
        }
      ],
      "stateMutability": "nonpayable",
      "type": "function"
    },
    {
      "inputs": [],
      "name": "newMasterMore",
      "outputs": [
        {
          "internalType": "contract IMasterMore",
          "name": "",
          "type": "address"
        }
      ],
      "stateMutability": "view",
      "type": "function"
    },
    {
      "inputs": [],
      "name": "nonDilutingRepartition",
      "outputs": [
        {
          "internalType": "uint256",
          "name": "",
          "type": "uint256"
        }
      ],
      "stateMutability": "view",
      "type": "function"
    },
    {
      "inputs": [],
      "name": "owner",
      "outputs": [
        {
          "internalType": "address",
          "name": "",
          "type": "address"
        }
      ],
      "stateMutability": "view",
      "type": "function"
    },
    {
      "inputs": [],
      "name": "ownerCandidate",
      "outputs": [
        {
          "internalType": "address",
          "name": "",
          "type": "address"
        }
      ],
      "stateMutability": "view",
      "type": "function"
    },
    {
      "inputs": [],
      "name": "pause",
      "outputs": [],
      "stateMutability": "nonpayable",
      "type": "function"
    },
    {
      "inputs": [],
      "name": "paused",
      "outputs": [
        {
          "internalType": "bool",
          "name": "",
          "type": "bool"
        }
      ],
      "stateMutability": "view",
      "type": "function"
    },
    {
      "inputs": [
        {
          "internalType": "uint256",
          "name": "_pid",
          "type": "uint256"
        },
        {
          "internalType": "address",
          "name": "_user",
          "type": "address"
        }
      ],
      "name": "pendingTokens",
      "outputs": [
        {
          "internalType": "uint256",
          "name": "pendingMore",
          "type": "uint256"
        },
        {
          "internalType": "address",
          "name": "bonusTokenAddress",
          "type": "address"
        },
        {
          "internalType": "string",
          "name": "bonusTokenSymbol",
          "type": "string"
        },
        {
          "internalType": "uint256",
          "name": "pendingBonusToken",
          "type": "uint256"
        }
      ],
      "stateMutability": "view",
      "type": "function"
    },
    {
      "inputs": [
        {
          "internalType": "uint256",
          "name": "",
          "type": "uint256"
        }
      ],
      "name": "poolInfo",
      "outputs": [
        {
          "internalType": "contract IERC20",
          "name": "lpToken",
          "type": "address"
        },
        {
          "internalType": "uint256",
          "name": "allocPoint",
          "type": "uint256"
        },
        {
          "internalType": "uint256",
          "name": "lastRewardTimestamp",
          "type": "uint256"
        },
        {
          "internalType": "uint256",
          "name": "accMorePerShare",
          "type": "uint256"
        },
        {
          "internalType": "contract IRewarder",
          "name": "rewarder",
          "type": "address"
        },
        {
          "internalType": "uint256",
          "name": "sumOfFactors",
          "type": "uint256"
        },
        {
          "internalType": "uint256",
          "name": "accMorePerFactorShare",
          "type": "uint256"
        }
      ],
      "stateMutability": "view",
      "type": "function"
    },
    {
      "inputs": [],
      "name": "poolLength",
      "outputs": [
        {
          "internalType": "uint256",
          "name": "",
          "type": "uint256"
        }
      ],
      "stateMutability": "view",
      "type": "function"
    },
    {
      "inputs": [
        {
          "internalType": "address",
          "name": "newOwner",
          "type": "address"
        }
      ],
      "name": "proposeOwner",
      "outputs": [],
      "stateMutability": "nonpayable",
      "type": "function"
    },
    {
      "inputs": [],
      "name": "renounceOwnership",
      "outputs": [],
      "stateMutability": "nonpayable",
      "type": "function"
    },
    {
      "inputs": [
        {
          "internalType": "uint256",
          "name": "_pid",
          "type": "uint256"
        }
      ],
      "name": "rewarderBonusTokenInfo",
      "outputs": [
        {
          "internalType": "address",
          "name": "bonusTokenAddress",
          "type": "address"
        },
        {
          "internalType": "string",
          "name": "bonusTokenSymbol",
          "type": "string"
        }
      ],
      "stateMutability": "view",
      "type": "function"
    },
    {
      "inputs": [
        {
          "internalType": "uint256",
          "name": "_pid",
          "type": "uint256"
        },
        {
          "internalType": "uint256",
          "name": "_allocPoint",
          "type": "uint256"
        },
        {
          "internalType": "contract IRewarder",
          "name": "_rewarder",
          "type": "address"
        },
        {
          "internalType": "bool",
          "name": "overwrite",
          "type": "bool"
        }
      ],
      "name": "set",
      "outputs": [],
      "stateMutability": "nonpayable",
      "type": "function"
    },
    {
      "inputs": [
        {
          "internalType": "uint256",
          "name": "_maxPoolLength",
          "type": "uint256"
        }
      ],
      "name": "setMaxPoolLength",
      "outputs": [],
      "stateMutability": "nonpayable",
      "type": "function"
    },
    {
      "inputs": [
        {
          "internalType": "contract IMasterMore",
          "name": "_newMasterMore",
          "type": "address"
        }
      ],
      "name": "setNewMasterMore",
      "outputs": [],
      "stateMutability": "nonpayable",
      "type": "function"
    },
    {
      "inputs": [
        {
          "internalType": "contract IVeMore",
          "name": "_newVeMore",
          "type": "address"
        }
      ],
      "name": "setVeMore",
      "outputs": [],
      "stateMutability": "nonpayable",
      "type": "function"
    },
    {
      "inputs": [],
      "name": "startTimestamp",
      "outputs": [
        {
          "internalType": "uint256",
          "name": "",
          "type": "uint256"
        }
      ],
      "stateMutability": "view",
      "type": "function"
    },
    {
      "inputs": [],
      "name": "totalAllocPoint",
      "outputs": [
        {
          "internalType": "uint256",
          "name": "",
          "type": "uint256"
        }
      ],
      "stateMutability": "view",
      "type": "function"
    },
    {
      "inputs": [],
      "name": "unpause",
      "outputs": [],
      "stateMutability": "nonpayable",
      "type": "function"
    },
    {
      "inputs": [
        {
          "internalType": "uint256",
          "name": "_morePerSec",
          "type": "uint256"
        }
      ],
      "name": "updateEmissionRate",
      "outputs": [],
      "stateMutability": "nonpayable",
      "type": "function"
    },
    {
      "inputs": [
        {
          "internalType": "uint256",
          "name": "_dilutingRepartition",
          "type": "uint256"
        }
      ],
      "name": "updateEmissionRepartition",
      "outputs": [],
      "stateMutability": "nonpayable",
      "type": "function"
    },
    {
      "inputs": [
        {
          "internalType": "address",
          "name": "_user",
          "type": "address"
        },
        {
          "internalType": "uint256",
          "name": "_newVeMoreBalance",
          "type": "uint256"
        }
      ],
      "name": "updateFactor",
      "outputs": [],
      "stateMutability": "nonpayable",
      "type": "function"
    },
    {
      "inputs": [
        {
          "internalType": "uint256",
          "name": "_pid",
          "type": "uint256"
        }
      ],
      "name": "updatePool",
      "outputs": [],
      "stateMutability": "nonpayable",
      "type": "function"
    },
    {
      "inputs": [
        {
          "internalType": "uint256",
          "name": "",
          "type": "uint256"
        },
        {
          "internalType": "address",
          "name": "",
          "type": "address"
        }
      ],
      "name": "userInfo",
      "outputs": [
        {
          "internalType": "uint256",
          "name": "amount",
          "type": "uint256"
        },
        {
          "internalType": "uint256",
          "name": "rewardDebt",
          "type": "uint256"
        },
        {
          "internalType": "uint256",
          "name": "factor",
          "type": "uint256"
        }
      ],
      "stateMutability": "view",
      "type": "function"
    },
    {
      "inputs": [],
      "name": "veMore",
      "outputs": [
        {
          "internalType": "contract IVeMore",
          "name": "",
          "type": "address"
        }
      ],
      "stateMutability": "view",
      "type": "function"
    },
    {
      "inputs": [
        {
          "internalType": "uint256",
          "name": "_pid",
          "type": "uint256"
        },
        {
          "internalType": "uint256",
          "name": "_amount",
          "type": "uint256"
        }
      ],
      "name": "withdraw",
      "outputs": [
        {
          "internalType": "uint256",
          "name": "",
          "type": "uint256"
        },
        {
          "internalType": "uint256",
          "name": "",
          "type": "uint256"
        }
      ],
      "stateMutability": "nonpayable",
      "type": "function"
    }
  ],
  "bytecode": "0x608060405234801561001057600080fd5b50614180806100206000396000f3fe608060405234801561001057600080fd5b50600436106101e35760003560e01c806304e3682a146101e8578063081e3eda146102045780630ba84cd21461020c5780631526fe271461022157806315e722701461027b57806317caf6f11461029b5780632ee98ff0146102a45780633f43fa33146102b75780633f4ba83a146102ca578063428f39a0146102d2578063441a3e70146102e55780634ed73d281461030d5780634f00a93e1461032f57806351eb05a6146103425780635312ea8e1461035557806353c5eb44146103685780635c975abb1461037b5780635f504a8214610391578063630b5ba114610399578063715018a6146103a1578063772dcfc8146103a957806379ba5097146103b15780637b62a738146103b95780638456cb59146103c257806388bba42f146103ca5780638da5cb5b146103dd57806390210d7e146103e557806393f1a40b146103f85780639ef3c2d714610441578063a5c758ac14610454578063ab7de0981461045d578063b5ed298a14610470578063bc70fdbc14610483578063c2108e4a146104a4578063d13f90b4146104cf578063d93bf4fe146104e2578063e0a4ed43146104f5578063e2bbb15814610508578063e6fd48bc1461051b578063f57347a814610524578063ffcd42631461052d575b600080fd5b6101f160ce5481565b6040519081526020015b60405180910390f35b60d1546101f1565b61021f61021a366004613c24565b610550565b005b61023461022f366004613c24565b6105e7565b604080516001600160a01b03988916815260208101979097528601949094526060850192909252909316608083015260a082019290925260c081019190915260e0016101fb565b60c95461028e906001600160a01b031681565b6040516101fb9190613ddd565b6101f160cf5481565b61021f6102b23660046139b0565b610642565b60cb5461028e906001600160a01b031681565b61021f6106a7565b61021f6102e03660046139b0565b6106f4565b6102f86102f3366004613cc4565b6107b5565b604080519283526020830191909152016101fb565b61032061031b366004613a66565b610bb1565b6040516101fb93929190613fab565b61021f61033d3660046139cc565b610c1c565b61021f610350366004613c24565b610e0e565b61021f610363366004613c24565b610e1a565b61021f610376366004613c24565b610f1a565b60975460ff1660405190151581526020016101fb565b60345461028e565b61021f610f71565b61021f610f9c565b61021f610fe9565b61021f6110c5565b6101f160d65481565b61021f61111d565b61021f6103d8366004613d12565b611168565b61028e611311565b61021f6103f3366004613ce5565b611320565b610432610406366004613c54565b60d460209081526000928352604080842090915290825290208054600182015460029092015490919083565b6040516101fb93929190613fe0565b60ca5461028e906001600160a01b031681565b6101f160cc5481565b61021f61046b366004613c83565b6116fe565b61021f61047e3660046139b0565b611ac6565b610496610491366004613c24565b611b5b565b6040516101fb929190613e0a565b6101f16104b2366004613c54565b60d560209081526000928352604080842090915290825290205481565b61021f6104dd366004613b45565b611d2b565b61021f6104f03660046139f7565b611f6a565b61021f610503366004613c24565b612200565b6102f8610516366004613cc4565b6122b2565b6101f160d05481565b6101f160cd5481565b61054061053b366004613c54565b612601565b6040516101fb9493929190613f70565b61056061055b611311565b6128fa565b610569336128fa565b33610572611311565b6001600160a01b0316146105a15760405162461bcd60e51b815260040161059890613eb9565b60405180910390fd5b6105a9610f71565b60cc81905560405181815233907fe2492e003bbe8afa53088b406f0c1cb5d9e280370fc72a74cf116ffd343c4053906020015b60405180910390a250565b60d181815481106105f757600080fd5b600091825260209091206007909102018054600182015460028301546003840154600485015460058601546006909601546001600160a01b0395861697509395929491939116919087565b61064d61055b611311565b610656336128fa565b3361065f611311565b6001600160a01b0316146106855760405162461bcd60e51b815260040161059890613eb9565b60cb80546001600160a01b0319166001600160a01b0392909216919091179055565b6106b261055b611311565b6106bb336128fa565b336106c4611311565b6001600160a01b0316146106ea5760405162461bcd60e51b815260040161059890613eb9565b6106f261293d565b565b6106ff61055b611311565b610708336128fa565b33610711611311565b6001600160a01b0316146107375760405162461bcd60e51b815260040161059890613eb9565b6001600160a01b03811661074a57600080fd5b610752610f71565b60ca80546001600160a01b038381166001600160a01b0319831681179093556040805191909216808252602082019390935233917f43da9254164f43010ac82d304ce937b4f4adcc3c527f81e997ddb34efd8cde92910160405180910390a25050565b600080600260655414156107db5760405162461bcd60e51b815260040161059890613f39565b600260655560975460ff16156108035760405162461bcd60e51b815260040161059890613e41565b600060d1858154811061082657634e487b7160e01b600052603260045260246000fd5b6000918252602080832088845260d48252604080852033865290925292208054600790920290920192508511156108945760405162461bcd60e51b81526020600482015260126024820152711dda5d1a191c985dce881b9bdd0819dbdbd960721b6044820152606401610598565b61089d866129ca565b6001810154600087815260d5602090815260408083203384529091528120546006850154600285015492939264e8d4a51000916108d99161405e565b600387015486546108ea919061405e565b6108f49190614026565b6108fe919061403e565b6109089190614026565b610912919061407d565b600088815260d56020908152604080832033808552925282209190915590915061093c9082612bdd565b905086336001600160a01b031660008051602061412b8339815191528360405161096891815260200190565b60405180910390a36002820154825461098290889061407d565b835560ca546040516370a0823160e01b8152610a17916001600160a01b0316906370a08231906109b6903390600401613ddd565b60206040518083038186803b1580156109ce57600080fd5b505afa1580156109e2573d6000803e3d6000fd5b505050506040513d601f19601f82011682018060405250810190610a069190613c3c565b8454610a12919061405e565b612dd2565b6002840181905560058501548291610a2e91614026565b610a38919061407d565b60058501556006840154600284015464e8d4a5100091610a579161405e565b60038601548554610a68919061405e565b610a729190614026565b610a7c919061403e565b8360010181905550600060d18981548110610aa757634e487b7160e01b600052603260045260246000fd5b600091825260208220600460079092020101546001600160a01b031691508115610b4e5784546040516358cae9b160e01b81526001600160a01b038416916358cae9b191610af9913391600401613df1565b602060405180830381600087803b158015610b1357600080fd5b505af1158015610b27573d6000803e3d6000fd5b505050506040513d601f19601f82011682018060405250810190610b4b9190613c3c565b90505b8554610b64906001600160a01b0316338b612e42565b6040518981528a9033907ff279e6a1f5e320cca91135676d9cb6e44ca8a08c0b88342bcdb1144f6511b568906020015b60405180910390a360016065559299929850919650505050505050565b600060608060026065541415610bd95760405162461bcd60e51b815260040161059890613f39565b600260655560975460ff1615610c015760405162461bcd60e51b815260040161059890613e41565b610c0a84612e9d565b92509250925060016065559193909250565b60ca546001600160a01b03163314610c685760405162461bcd60e51b815260206004820152600f60248201526e6e6f7456654d6f72653a207775743f60881b6044820152606401610598565b60d15460005b81811015610e0857600081815260d4602090815260408083206001600160a01b038816845290915290208054610ca45750610df8565b600060d18381548110610cc757634e487b7160e01b600052603260045260246000fd5b90600052602060002090600702019050610ce0836129ca565b6000826001015464e8d4a5100083600601548560020154610d01919061405e565b60038501548654610d12919061405e565b610d1c9190614026565b610d26919061403e565b610d30919061407d565b600085815260d5602090815260408083206001600160a01b038c168452909152812080549293508392909190610d67908490614026565b909155505060028301548354600090610d8490610a12908a61405e565b60028601819055600685015490915064e8d4a5100090610da4908361405e565b60038601548754610db5919061405e565b610dbf9190614026565b610dc9919061403e565b600186015560058401548290610de0908390614026565b610dea919061407d565b846005018190555050505050505b610e01816140c0565b9050610c6e565b50505050565b610e17816129ca565b50565b60026065541415610e3d5760405162461bcd60e51b815260040161059890613f39565b6002606581905550600060d18281548110610e6857634e487b7160e01b600052603260045260246000fd5b6000918252602080832085845260d482526040808520338087529352909320805460079093029093018054909450610ead926001600160a01b03919091169190612e42565b80600201548260050154610ec1919061407d565b600583015560006002820181905580825560018201819055604051908152839033907fbb757047c2b5f3974fe26b7c10f732e7bce710b0952a71082702781e62ae05959060200160405180910390a35050600160655550565b610f2561055b611311565b610f2e336128fa565b33610f37611311565b6001600160a01b031614610f5d5760405162461bcd60e51b815260040161059890613eb9565b60d154811015610f6c57600080fd5b60d655565b60d15460005b81811015610f9857610f88816129ca565b610f91816140c0565b9050610f77565b5050565b610fa761055b611311565b610fb0336128fa565b33610fb9611311565b6001600160a01b031614610fdf5760405162461bcd60e51b815260040161059890613eb9565b6106f26000613461565b610ff461055b611311565b610ffd336128fa565b33611006611311565b6001600160a01b03161461102c5760405162461bcd60e51b815260040161059890613eb9565b60c9546040516370a0823160e01b81526106f29133916001600160a01b03909116906370a0823190611062903090600401613ddd565b60206040518083038186803b15801561107a57600080fd5b505afa15801561108e573d6000803e3d6000fd5b505050506040513d601f19601f820116820180604052508101906110b29190613c3c565b60c9546001600160a01b03169190612e42565b336110cf60345490565b6001600160a01b0316146111145760405162461bcd60e51b815260206004820152600c60248201526b155b985d5d1a1bdc9a5e995960a21b6044820152606401610598565b6106f233613461565b61112861055b611311565b611131336128fa565b3361113a611311565b6001600160a01b0316146111605760405162461bcd60e51b815260040161059890613eb9565b6106f26134b3565b61117361055b611311565b61117c336128fa565b33611185611311565b6001600160a01b0316146111ab5760405162461bcd60e51b815260040161059890613eb9565b813b1515806111c157506001600160a01b038216155b61121c5760405162461bcd60e51b815260206004820152602660248201527f7365743a207265776172646572206d75737420626520636f6e7472616374206f60448201526572207a65726f60d01b6064820152608401610598565b611224610f71565b600060d1858154811061124757634e487b7160e01b600052603260045260246000fd5b9060005260206000209060070201905083816001015460cf5461126a919061407d565b6112749190614026565b60cf556001810184905581156112a2576004810180546001600160a01b0319166001600160a01b0385161790555b816112ba5760048101546001600160a01b03166112bc565b825b6001600160a01b0316857fa54644aae5c48c5971516f334e4fe8ecbc7930e23f34877d4203c6551e67ffaa86856040516113029291909182521515602082015260400190565b60405180910390a35050505050565b6033546001600160a01b031690565b600260655414156113435760405162461bcd60e51b815260040161059890613f39565b600260655560975460ff161561136b5760405162461bcd60e51b815260040161059890613e41565b600060d1848154811061138e57634e487b7160e01b600052603260045260246000fd5b6000918252602080832087845260d4825260408085206001600160a01b03881686529092529220600790910290910191506113c8856129ca565b8054156114b2576001810154600086815260d5602090815260408083206001600160a01b03881684529091528120546006850154600285015492939264e8d4a51000916114149161405e565b60038701548654611425919061405e565b61142f9190614026565b611439919061403e565b6114439190614026565b61144d919061407d565b600087815260d5602090815260408083206001600160a01b0389168452909152812055905061147c8482612bdd565b905085846001600160a01b031660008051602061412b833981519152836040516114a891815260200190565b60405180910390a3505b838160000160008282546114c69190614026565b9091555050600281015460ca546040516370a0823160e01b815261155e916001600160a01b0316906370a0823190611502908890600401613ddd565b60206040518083038186803b15801561151a57600080fd5b505afa15801561152e573d6000803e3d6000fd5b505050506040513d601f19601f820116820180604052508101906115529190613c3c565b8354610a12919061405e565b600283018190556005840154829161157591614026565b61157f919061407d565b60058401556006830154600283015464e8d4a510009161159e9161405e565b600385015484546115af919061405e565b6115b99190614026565b6115c3919061403e565b8260010181905550600060d187815481106115ee57634e487b7160e01b600052603260045260246000fd5b60009182526020909120600460079092020101546001600160a01b0316905080156116955782546040516358cae9b160e01b81526001600160a01b038316916358cae9b191611641918991600401613df1565b602060405180830381600087803b15801561165b57600080fd5b505af115801561166f573d6000803e3d6000fd5b505050506040513d601f19601f820116820180604052508101906116939190613c3c565b505b83546116ac906001600160a01b031633308961350b565b86856001600160a01b03167f16f3fbfd4bcc50a5cecb2e53e398a1ad77d89f63288ef540d862b264ed57eb1f886040516116e891815260200190565b60405180910390a3505060016065555050505050565b61170961055b611311565b611712336128fa565b3361171b611311565b6001600160a01b0316146117415760405162461bcd60e51b815260040161059890613eb9565b813b61179e5760405162461bcd60e51b815260206004820152602660248201527f6164643a204c5020746f6b656e206d75737420626520612076616c696420636f6044820152651b9d1c9858dd60d21b6064820152608401610598565b803b1515806117b457506001600160a01b038116155b61180f5760405162461bcd60e51b815260206004820152602660248201527f6164643a207265776172646572206d75737420626520636f6e7472616374206f60448201526572207a65726f60d01b6064820152608401610598565b61181a60d283613543565b1561185f5760405162461bcd60e51b81526020600482015260156024820152741859190e88131408185b1c9958591e481859191959605a1b6044820152606401610598565b60d65460d154106118a95760405162461bcd60e51b81526020600482015260146024820152731859190e88195e18d95959081b585e081c1bdbdb60621b6044820152606401610598565b6118b1610f71565b600060d05442116118c45760d0546118c6565b425b90508360cf60008282546118da9190614026565b90915550506040805160e0810182526001600160a01b038086168252602082018781529282018481526000606084018181528784166080860190815260a0860183815260c0870184815260d180546001810182559552965160079094027f695fb3134ad82c3b8022bc5464edd0bcc9424ef672b52245dcb6ab2374327ce3810180549588166001600160a01b031996871617905597517f695fb3134ad82c3b8022bc5464edd0bcc9424ef672b52245dcb6ab2374327ce489015593517f695fb3134ad82c3b8022bc5464edd0bcc9424ef672b52245dcb6ab2374327ce588015590517f695fb3134ad82c3b8022bc5464edd0bcc9424ef672b52245dcb6ab2374327ce6870155517f695fb3134ad82c3b8022bc5464edd0bcc9424ef672b52245dcb6ab2374327ce78601805491909416911617909155517f695fb3134ad82c3b8022bc5464edd0bcc9424ef672b52245dcb6ab2374327ce8830155517f695fb3134ad82c3b8022bc5464edd0bcc9424ef672b52245dcb6ab2374327ce990910155611a6660d28461355f565b50816001600160a01b0316836001600160a01b0316600160d180549050611a8d919061407d565b6040518781527f4b16bd2431ad24dc020ab0e1de7fcb6563dead6a24fb10089d6c23e97a70381f9060200160405180910390a450505050565b611ad161055b611311565b611ada336128fa565b33611ae3611311565b6001600160a01b031614611b095760405162461bcd60e51b815260040161059890613eb9565b6001600160a01b038116611b4d5760405162461bcd60e51b815260206004820152600b60248201526a5a65726f4164647265737360a81b6044820152606401610598565b6001600160a01b0316603455565b60006060600060d18481548110611b8257634e487b7160e01b600052603260045260246000fd5b6000918252602090912060079091020160048101549091506001600160a01b031615611d25576004808201546040805163f7c618c160e01b815290516001600160a01b039092169263f7c618c1928282019260209290829003018186803b158015611bec57600080fd5b505afa158015611c00573d6000803e3d6000fd5b505050506040513d601f19601f82011682018060405250810190611c249190613b29565b92508060040160009054906101000a90046001600160a01b03166001600160a01b031663f7c618c16040518163ffffffff1660e01b815260040160206040518083038186803b158015611c7657600080fd5b505afa158015611c8a573d6000803e3d6000fd5b505050506040513d601f19601f82011682018060405250810190611cae9190613b29565b6001600160a01b03166395d89b416040518163ffffffff1660e01b815260040160006040518083038186803b158015611ce657600080fd5b505afa158015611cfa573d6000803e3d6000fd5b505050506040513d6000823e601f3d908101601f19168201604052611d229190810190613b95565b91505b50915091565b600054610100900460ff16611d465760005460ff1615611d4a565b303b155b611d665760405162461bcd60e51b815260040161059890613e6b565b600054610100900460ff16158015611d88576000805461ffff19166101011790555b6001600160a01b038616611ddc5760405162461bcd60e51b815260206004820152601b60248201527a6d6f726520616464726573732063616e6e6f74206265207a65726f60281b6044820152606401610598565b6001600160a01b038516611e325760405162461bcd60e51b815260206004820152601d60248201527f76654d6f726520616464726573732063616e6e6f74206265207a65726f0000006044820152606401610598565b83611e7d5760405162461bcd60e51b815260206004820152601b60248201527a6d6f726520706572207365632063616e6e6f74206265207a65726f60281b6044820152606401610598565b6103e8831115611ee55760405162461bcd60e51b815260206004820152602d60248201527f64696c7574696e67207265706172746974696f6e206d75737420626520696e2060448201526c072616e676520302c203130303609c1b6064820152608401610598565b611eed613574565b611ef56135f5565b611efd613623565b60c980546001600160a01b038089166001600160a01b03199283161790925560ca80549288169290911691909117905560cc84905560cd839055611f43836103e861407d565b60ce5560d0829055603260d6558015611f62576000805461ff00191690555b505050505050565b60026065541415611f8d5760405162461bcd60e51b815260040161059890613f39565b600260655560cb546001600160a01b0316611fd65760405162461bcd60e51b8152602060048201526009602482015268746f2077686572653f60b81b6044820152606401610598565b612012828280806020026020016040519081016040528093929190818152602001838360200280828437600092019190915250612e9d92505050565b50505060005b818110156121f657600083838381811061204257634e487b7160e01b600052603260045260246000fd5b60209081029290920135600081815260d484526040808220338352909452929092208054929350911590506121e357600060d1838154811061209457634e487b7160e01b600052603260045260246000fd5b60009182526020909120600790910201805460cb54845460405163095ea7b360e01b81529394506001600160a01b039283169363095ea7b3936120dc93169190600401613df1565b602060405180830381600087803b1580156120f657600080fd5b505af115801561210a573d6000803e3d6000fd5b505050506040513d601f19601f8201168201806040525081019061212e9190613b0d565b5060cb54825460405163481086bf60e11b81526004810186905260248101919091523360448201526001600160a01b03909116906390210d7e90606401600060405180830381600087803b15801561218557600080fd5b505af1158015612199573d6000803e3d6000fd5b5050505081600201548160050160008282546121b5919061407d565b909155505050600082815260d460209081526040808320338452909152812081815560018101829055600201555b5050806121ef906140c0565b9050612018565b5050600160655550565b61220b61055b611311565b612214336128fa565b3361221d611311565b6001600160a01b0316146122435760405162461bcd60e51b815260040161059890613eb9565b6103e881111561225257600080fd5b61225a610f71565b60cd81905561226b816103e861407d565b60ce55337fb24c3afbe477581b073ec4a6f19df34024e917cee6bb519129629defa718f6308261229d816103e861407d565b604080519283526020830191909152016105dc565b600080600260655414156122d85760405162461bcd60e51b815260040161059890613f39565b600260655560975460ff16156123005760405162461bcd60e51b815260040161059890613e41565b600060d1858154811061232357634e487b7160e01b600052603260045260246000fd5b6000918252602080832088845260d482526040808520338652909252922060079091029091019150612354866129ca565b80546000901561242f576001820154600088815260d5602090815260408083203384529091529020546006850154600285015464e8d4a51000916123979161405e565b600387015486546123a8919061405e565b6123b29190614026565b6123bc919061403e565b6123c69190614026565b6123d0919061407d565b600088815260d5602090815260408083203380855292528220919091559091506123fa9082612bdd565b905086336001600160a01b031660008051602061412b8339815191528360405161242691815260200190565b60405180910390a35b858260000160008282546124439190614026565b9091555050600282015460ca546040516370a0823160e01b815261247f916001600160a01b0316906370a08231906109b6903390600401613ddd565b600284018190556005850154829161249691614026565b6124a0919061407d565b60058501556006840154600284015464e8d4a51000916124bf9161405e565b600386015485546124d0919061405e565b6124da9190614026565b6124e4919061403e565b8360010181905550600060d1898154811061250f57634e487b7160e01b600052603260045260246000fd5b600091825260208220600460079092020101546001600160a01b0316915081156125b65784546040516358cae9b160e01b81526001600160a01b038416916358cae9b191612561913391600401613df1565b602060405180830381600087803b15801561257b57600080fd5b505af115801561258f573d6000803e3d6000fd5b505050506040513d601f19601f820116820180604052508101906125b39190613c3c565b90505b85546125cd906001600160a01b031633308c61350b565b6040518981528a9033907f90890809c654f11d6e72a28fa60149770a0d11ec6c92319d6ceb2bb0a4ea1a1590602001610b94565b600080606060008060d1878154811061262a57634e487b7160e01b600052603260045260246000fd5b600091825260208083208a845260d4825260408085206001600160a01b038c81168752935280852060079490940290910160038101546006820154825493516370a0823160e01b81529297509495909493909216906370a0823190612693903090600401613ddd565b60206040518083038186803b1580156126ab57600080fd5b505afa1580156126bf573d6000803e3d6000fd5b505050506040513d601f19601f820116820180604052508101906126e39190613c3c565b90508460020154421180156126f757508015155b156127cf57600085600201544261270e919061407d565b9050600060cf54876001015460cc5484612728919061405e565b612732919061405e565b61273c919061403e565b905061274a836103e861405e565b60cd5461275c8364e8d4a5100061405e565b612766919061405e565b612770919061403e565b61277a9086614026565b945086600501546000146127cc576005870154612799906103e861405e565b60ce546127ab8364e8d4a5100061405e565b6127b5919061405e565b6127bf919061403e565b6127c99085614026565b93505b50505b600184015460008c815260d5602090815260408083206001600160a01b038f168452909152902054600286015464e8d4a510009061280e90869061405e565b875461281b90889061405e565b6128259190614026565b61282f919061403e565b6128399190614026565b612843919061407d565b60048601549099506001600160a01b0316156128ec576128628b611b5b565b60048088015460405163c031a66f60e01b8152939b509199506001600160a01b039091169163c031a66f91612899918e9101613ddd565b60206040518083038186803b1580156128b157600080fd5b505afa1580156128c5573d6000803e3d6000fd5b505050506040513d601f19601f820116820180604052508101906128e99190613c3c565b95505b505050505092959194509250565b610e178160405160240161290e9190613ddd565b60408051601f198184030181529190526020810180516001600160e01b031663161765e160e11b179052613656565b60975460ff166129865760405162461bcd60e51b815260206004820152601460248201527314185d5cd8589b194e881b9bdd081c185d5cd95960621b6044820152606401610598565b6097805460ff191690557f5db9ee0a495bf2e6ff9c91a7834c1ba4fdd244a5e8aa4e537bd38aeae4b073aa335b6040516129c09190613ddd565b60405180910390a1565b600060d182815481106129ed57634e487b7160e01b600052603260045260246000fd5b906000526020600020906007020190508060020154421115610f985780546040516370a0823160e01b81526000916001600160a01b0316906370a0823190612a39903090600401613ddd565b60206040518083038186803b158015612a5157600080fd5b505afa158015612a65573d6000803e3d6000fd5b505050506040513d601f19601f82011682018060405250810190612a899190613c3c565b905080612a9d575042600290910155610e17565b6000826002015442612aaf919061407d565b9050600060cf54846001015460cc5484612ac9919061405e565b612ad3919061405e565b612add919061403e565b9050612aeb836103e861405e565b60cd54612afd8364e8d4a5100061405e565b612b07919061405e565b612b11919061403e565b846003016000828254612b249190614026565b90915550506005840154612b3e5760006006850155612b8e565b6005840154612b4f906103e861405e565b60ce54612b618364e8d4a5100061405e565b612b6b919061405e565b612b75919061403e565b846006016000828254612b889190614026565b90915550505b4260028501819055600385015460405187927f3be3541fc42237d611b30329040bfa4569541d156560acdbbae57640d20b8f4692612bce92889190613fe0565b60405180910390a25050505050565b60c9546040516370a0823160e01b815260009182916001600160a01b03909116906370a0823190612c12903090600401613ddd565b60206040518083038186803b158015612c2a57600080fd5b505afa158015612c3e573d6000803e3d6000fd5b505050506040513d601f19601f82011682018060405250810190612c629190613c3c565b905060008111612cae5760405162461bcd60e51b81526020600482015260176024820152764e6f20746f6b656e7320746f206469737472696275746560481b6044820152606401610598565b80831115612d425760c95460405163a9059cbb60e01b81526001600160a01b039091169063a9059cbb90612ce89087908590600401613df1565b602060405180830381600087803b158015612d0257600080fd5b505af1158015612d16573d6000803e3d6000fd5b505050506040513d601f19601f82011682018060405250810190612d3a9190613b0d565b509050612dcc565b60c95460405163a9059cbb60e01b81526001600160a01b039091169063a9059cbb90612d749087908790600401613df1565b602060405180830381600087803b158015612d8e57600080fd5b505af1158015612da2573d6000803e3d6000fd5b505050506040513d601f19601f82011682018060405250810190612dc69190613b0d565b50829150505b92915050565b60006003821115612e335750806000612dec60028361403e565b612df7906001614026565b90505b81811015612e2d57905080600281612e12818661403e565b612e1c9190614026565b612e26919061403e565b9050612dfa565b50612e3d565b8115612e3d575060015b919050565b612e988363a9059cbb60e01b8484604051602401612e61929190613df1565b60408051601f198184030181529190526020810180516001600160e01b03166001600160e01b031990931692909217909152613677565b505050565b600060608060008085516001600160401b03811115612ecc57634e487b7160e01b600052604160045260246000fd5b604051908082528060200260200182016040528015612ef5578160200160208202803683370190505b509050600086516001600160401b03811115612f2157634e487b7160e01b600052604160045260246000fd5b604051908082528060200260200182016040528015612f4a578160200160208202803683370190505b50905060005b875181101561329557612f89888281518110612f7c57634e487b7160e01b600052603260045260246000fd5b60200260200101516129ca565b600060d1898381518110612fad57634e487b7160e01b600052603260045260246000fd5b602002602001015181548110612fd357634e487b7160e01b600052603260045260246000fd5b90600052602060002090600702019050600060d460008b858151811061300957634e487b7160e01b600052603260045260246000fd5b602090810291909101810151825281810192909252604090810160009081203382529092529020805490915015613282576000816001015460d560008d878151811061306557634e487b7160e01b600052603260045260246000fd5b602002602001015181526020019081526020016000206000336001600160a01b03166001600160a01b031681526020019081526020016000205464e8d4a51000856006015485600201546130b9919061405e565b600387015486546130ca919061405e565b6130d49190614026565b6130de919061403e565b6130e89190614026565b6130f2919061407d565b9050600060d560008d878151811061311a57634e487b7160e01b600052603260045260246000fd5b602090810291909101810151825281810192909252604090810160009081203382529092529020556006830154600283015464e8d4a510009161315c9161405e565b6003850154845461316d919061405e565b6131779190614026565b613181919061403e565b60018301556131908188614026565b9650808685815181106131b357634e487b7160e01b600052603260045260246000fd5b602090810291909101015260048301546001600160a01b0316801561327f5782546040516358cae9b160e01b81526001600160a01b038316916358cae9b191613200913391600401613df1565b602060405180830381600087803b15801561321a57600080fd5b505af115801561322e573d6000803e3d6000fd5b505050506040513d601f19601f820116820180604052508101906132529190613c3c565b86868151811061327257634e487b7160e01b600052603260045260246000fd5b6020026020010181815250505b50505b50508061328e906140c0565b9050612f50565b5060006132a23385612bdd565b90508381146133b75760005b88518110156133b157848482815181106132d857634e487b7160e01b600052603260045260246000fd5b6020026020010151836132eb919061405e565b6132f5919061403e565b84828151811061331557634e487b7160e01b600052603260045260246000fd5b60200260200101818152505088818151811061334157634e487b7160e01b600052603260045260246000fd5b6020026020010151336001600160a01b031660008051602061412b83398151915286848151811061338257634e487b7160e01b600052603260045260246000fd5b602002602001015160405161339991815260200190565b60405180910390a36133aa816140c0565b90506132ae565b50613455565b60005b8851811015613453578881815181106133e357634e487b7160e01b600052603260045260246000fd5b6020026020010151336001600160a01b031660008051602061412b83398151915286848151811061342457634e487b7160e01b600052603260045260246000fd5b602002602001015160405161343b91815260200190565b60405180910390a361344c816140c0565b90506133ba565b505b97919650945092505050565b603380546001600160a01b038381166001600160a01b0319831681179093556040519116919082907f8be0079c531659141344cd1fd0a4f28419497f9722a3daafe3b4186f6b6457e090600090a35050565b60975460ff16156134d65760405162461bcd60e51b815260040161059890613e41565b6097805460ff191660011790557f62e78cea01bee320cd4e420270b5ea74000d11b0c9f74754ebdbfc544b05a2586129b33390565b6040516001600160a01b0380851660248301528316604482015260648101829052610e089085906323b872dd60e01b90608401612e61565b6000613558836001600160a01b038416613749565b9392505050565b6000613558836001600160a01b038416613761565b600054610100900460ff1661358f5760005460ff1615613593565b303b155b6135af5760405162461bcd60e51b815260040161059890613e6b565b600054610100900460ff161580156135d1576000805461ffff19166101011790555b6135d96137ab565b6135e16137d2565b8015610e17576000805461ff001916905550565b600054610100900460ff1661361c5760405162461bcd60e51b815260040161059890613eee565b6001606555565b600054610100900460ff1661364a5760405162461bcd60e51b815260040161059890613eee565b6097805460ff19169055565b80516a636f6e736f6c652e6c6f67602083016000808483855afa5050505050565b60006136cc826040518060400160405280602081526020017f5361666545524332303a206c6f772d6c6576656c2063616c6c206661696c6564815250856001600160a01b03166138389092919063ffffffff16565b805190915015612e9857808060200190518101906136ea9190613b0d565b612e985760405162461bcd60e51b815260206004820152602a60248201527f5361666545524332303a204552433230206f7065726174696f6e20646964206e6044820152691bdd081cdd58d8d9595960b21b6064820152608401610598565b60009081526001919091016020526040902054151590565b600061376d8383613749565b6137a357508154600181810184556000848152602080822090930184905584548482528286019093526040902091909155612dcc565b506000612dcc565b600054610100900460ff166106f25760405162461bcd60e51b815260040161059890613eee565b600054610100900460ff166137ed5760005460ff16156137f1565b303b155b61380d5760405162461bcd60e51b815260040161059890613e6b565b600054610100900460ff1615801561382f576000805461ffff19166101011790555b6135e133613461565b6060613847848460008561384f565b949350505050565b6060824710156138b05760405162461bcd60e51b815260206004820152602660248201527f416464726573733a20696e73756666696369656e742062616c616e636520666f6044820152651c8818d85b1b60d21b6064820152608401610598565b843b6138fe5760405162461bcd60e51b815260206004820152601d60248201527f416464726573733a2063616c6c20746f206e6f6e2d636f6e74726163740000006044820152606401610598565b600080866001600160a01b0316858760405161391a9190613dc1565b60006040518083038185875af1925050503d8060008114613957576040519150601f19603f3d011682016040523d82523d6000602084013e61395c565b606091505b509150915061396c828286613977565b979650505050505050565b60608315613986575081613558565b8251156139965782518084602001fd5b8160405162461bcd60e51b81526004016105989190613e2e565b6000602082840312156139c1578081fd5b813561355881614107565b600080604083850312156139de578081fd5b82356139e981614107565b946020939093013593505050565b60008060208385031215613a09578182fd5b82356001600160401b0380821115613a1f578384fd5b818501915085601f830112613a32578384fd5b813581811115613a40578485fd5b8660208260051b8501011115613a54578485fd5b60209290920196919550909350505050565b60006020808385031215613a78578182fd5b82356001600160401b0380821115613a8e578384fd5b818501915085601f830112613aa1578384fd5b813581811115613ab357613ab36140f1565b8060051b9150613ac4848301613ff6565b8181528481019084860184860187018a1015613ade578788fd5b8795505b83861015613b00578035835260019590950194918601918601613ae2565b5098975050505050505050565b600060208284031215613b1e578081fd5b81516135588161411c565b600060208284031215613b3a578081fd5b815161355881614107565b600080600080600060a08688031215613b5c578081fd5b8535613b6781614107565b94506020860135613b7781614107565b94979496505050506040830135926060810135926080909101359150565b600060208284031215613ba6578081fd5b81516001600160401b0380821115613bbc578283fd5b818401915084601f830112613bcf578283fd5b815181811115613be157613be16140f1565b613bf4601f8201601f1916602001613ff6565b9150808252856020828501011115613c0a578384fd5b613c1b816020840160208601614094565b50949350505050565b600060208284031215613c35578081fd5b5035919050565b600060208284031215613c4d578081fd5b5051919050565b60008060408385031215613c66578182fd5b823591506020830135613c7881614107565b809150509250929050565b600080600060608486031215613c97578081fd5b833592506020840135613ca981614107565b91506040840135613cb981614107565b809150509250925092565b60008060408385031215613cd6578182fd5b50508035926020909101359150565b600080600060608486031215613cf9578081fd5b83359250602084013591506040840135613cb981614107565b60008060008060808587031215613d27578182fd5b84359350602085013592506040850135613d4081614107565b91506060850135613d508161411c565b939692955090935050565b6000815180845260208085019450808401835b83811015613d8a57815187529582019590820190600101613d6e565b509495945050505050565b60008151808452613dad816020860160208601614094565b601f01601f19169290920160200192915050565b60008251613dd3818460208701614094565b9190910192915050565b6001600160a01b0391909116815260200190565b6001600160a01b03929092168252602082015260400190565b6001600160a01b038316815260406020820181905260009061384790830184613d95565b6000602082526135586020830184613d95565b60208082526010908201526f14185d5cd8589b194e881c185d5cd95960821b604082015260600190565b6020808252602e908201527f496e697469616c697a61626c653a20636f6e747261637420697320616c72656160408201526d191e481a5b9a5d1a585b1a5e995960921b606082015260800190565b6020808252818101527f4f776e61626c653a2063616c6c6572206973206e6f7420746865206f776e6572604082015260600190565b6020808252602b908201527f496e697469616c697a61626c653a20636f6e7472616374206973206e6f74206960408201526a6e697469616c697a696e6760a81b606082015260800190565b6020808252601f908201527f5265656e7472616e637947756172643a207265656e7472616e742063616c6c00604082015260600190565b8481526001600160a01b0384166020820152608060408201819052600090613f9a90830185613d95565b905082606083015295945050505050565b600084825260606020830152613fc46060830185613d5b565b8281036040840152613fd68185613d5b565b9695505050505050565b9283526020830191909152604082015260600190565b604051601f8201601f191681016001600160401b038111828210171561401e5761401e6140f1565b604052919050565b60008219821115614039576140396140db565b500190565b60008261405957634e487b7160e01b81526012600452602481fd5b500490565b6000816000190483118215151615614078576140786140db565b500290565b60008282101561408f5761408f6140db565b500390565b60005b838110156140af578181015183820152602001614097565b83811115610e085750506000910152565b60006000198214156140d4576140d46140db565b5060010190565b634e487b7160e01b600052601160045260246000fd5b634e487b7160e01b600052604160045260246000fd5b6001600160a01b0381168114610e1757600080fd5b8015158114610e1757600080fdfe71bab65ced2e5750775a0613be067df48ef06cf92a496ebf7663ae0660924954a264697066735822122060e11ba1abc110f76d4cd39aba87dad3b3ac08aa1b76de1b6ea48177638d78c164736f6c63430008030033",
  "linkReferences": {},
  "deployedLinkReferences": {}
}