{
  "_format": "hh-sol-artifact-1",
  "contractName": "AltYieldYakAVAXStrategy2",
  "sourceName": "contracts/strategies/AltYieldYakAVAXStrategy2.sol",
  "abi": [
    {
      "inputs": [
        {
          "internalType": "address",
          "name": "_wrappedNative",
          "type": "address"
        },
        {
          "internalType": "address",
          "name": "_roles",
          "type": "address"
        }
      ],
      "stateMutability": "nonpayable",
      "type": "constructor"
    },
    {
      "anonymous": false,
      "inputs": [
        {
          "indexed": false,
          "internalType": "string",
          "name": "param",
          "type": "string"
        },
        {
          "indexed": false,
          "internalType": "uint256",
          "name": "value",
          "type": "uint256"
        }
      ],
      "name": "ParameterUpdated",
      "type": "event"
    },
    {
      "anonymous": false,
      "inputs": [
        {
          "indexed": false,
          "internalType": "string",
          "name": "param",
          "type": "string"
        },
        {
          "indexed": false,
          "internalType": "address",
          "name": "subject",
          "type": "address"
        },
        {
          "indexed": false,
          "internalType": "uint256",
          "name": "value",
          "type": "uint256"
        }
      ],
      "name": "SubjectParameterUpdated",
      "type": "event"
    },
    {
      "anonymous": false,
      "inputs": [
        {
          "indexed": false,
          "internalType": "string",
          "name": "param",
          "type": "string"
        },
        {
          "indexed": false,
          "internalType": "address",
          "name": "subject",
          "type": "address"
        }
      ],
      "name": "SubjectUpdated",
      "type": "event"
    },
    {
      "stateMutability": "payable",
      "type": "fallback"
    },
    {
      "inputs": [
        {
          "internalType": "uint256",
          "name": "",
          "type": "uint256"
        }
      ],
      "name": "_accounts",
      "outputs": [
        {
          "internalType": "uint256",
          "name": "collateral",
          "type": "uint256"
        },
        {
          "internalType": "uint256",
          "name": "yieldCheckptIdx",
          "type": "uint256"
        },
        {
          "internalType": "address",
          "name": "trancheToken",
          "type": "address"
        }
      ],
      "stateMutability": "view",
      "type": "function"
    },
    {
      "inputs": [
        {
          "internalType": "uint256",
          "name": "",
          "type": "uint256"
        }
      ],
      "name": "_charactersPlayed",
      "outputs": [
        {
          "internalType": "uint256",
          "name": "",
          "type": "uint256"
        }
      ],
      "stateMutability": "view",
      "type": "function"
    },
    {
      "inputs": [
        {
          "internalType": "uint256",
          "name": "",
          "type": "uint256"
        }
      ],
      "name": "_dependsOnCharacters",
      "outputs": [
        {
          "internalType": "uint256",
          "name": "",
          "type": "uint256"
        }
      ],
      "stateMutability": "view",
      "type": "function"
    },
    {
      "inputs": [
        {
          "internalType": "uint256",
          "name": "",
          "type": "uint256"
        }
      ],
      "name": "_dependsOnRoles",
      "outputs": [
        {
          "internalType": "uint256",
          "name": "",
          "type": "uint256"
        }
      ],
      "stateMutability": "view",
      "type": "function"
    },
    {
      "inputs": [
        {
          "internalType": "address",
          "name": "",
          "type": "address"
        },
        {
          "internalType": "address",
          "name": "",
          "type": "address"
        }
      ],
      "name": "_oracleCache",
      "outputs": [
        {
          "internalType": "address",
          "name": "",
          "type": "address"
        }
      ],
      "stateMutability": "view",
      "type": "function"
    },
    {
      "inputs": [
        {
          "internalType": "uint256",
          "name": "",
          "type": "uint256"
        }
      ],
      "name": "_rolesPlayed",
      "outputs": [
        {
          "internalType": "uint256",
          "name": "",
          "type": "uint256"
        }
      ],
      "stateMutability": "view",
      "type": "function"
    },
    {
      "inputs": [
        {
          "internalType": "address",
          "name": "token",
          "type": "address"
        }
      ],
      "name": "_viewTVL",
      "outputs": [
        {
          "internalType": "uint256",
          "name": "",
          "type": "uint256"
        }
      ],
      "stateMutability": "view",
      "type": "function"
    },
    {
      "inputs": [
        {
          "internalType": "uint256",
          "name": "trancheId",
          "type": "uint256"
        },
        {
          "internalType": "address",
          "name": "sourceStrategy",
          "type": "address"
        },
        {
          "internalType": "address",
          "name": "tokenContract",
          "type": "address"
        },
        {
          "internalType": "uint256",
          "name": "",
          "type": "uint256"
        },
        {
          "internalType": "uint256",
          "name": "amount",
          "type": "uint256"
        }
      ],
      "name": "acceptMigration",
      "outputs": [],
      "stateMutability": "nonpayable",
      "type": "function"
    },
    {
      "inputs": [],
      "name": "apfSmoothingPer10k",
      "outputs": [
        {
          "internalType": "uint256",
          "name": "",
          "type": "uint256"
        }
      ],
      "stateMutability": "view",
      "type": "function"
    },
    {
      "inputs": [
        {
          "internalType": "address",
          "name": "token",
          "type": "address"
        },
        {
          "internalType": "bytes",
          "name": "data",
          "type": "bytes"
        }
      ],
      "name": "approveToken",
      "outputs": [],
      "stateMutability": "nonpayable",
      "type": "function"
    },
    {
      "inputs": [
        {
          "internalType": "address",
          "name": "token",
          "type": "address"
        }
      ],
      "name": "approvedToken",
      "outputs": [
        {
          "internalType": "bool",
          "name": "",
          "type": "bool"
        }
      ],
      "stateMutability": "view",
      "type": "function"
    },
    {
      "inputs": [],
      "name": "approvedTokensCount",
      "outputs": [
        {
          "internalType": "uint256",
          "name": "",
          "type": "uint256"
        }
      ],
      "stateMutability": "view",
      "type": "function"
    },
    {
      "inputs": [],
      "name": "charactersPlayed",
      "outputs": [
        {
          "internalType": "uint256[]",
          "name": "",
          "type": "uint256[]"
        }
      ],
      "stateMutability": "view",
      "type": "function"
    },
    {
      "inputs": [
        {
          "internalType": "address",
          "name": "token",
          "type": "address"
        },
        {
          "internalType": "address",
          "name": "strategy",
          "type": "address"
        }
      ],
      "name": "checkApprovedAndEncode",
      "outputs": [
        {
          "internalType": "bool",
          "name": "",
          "type": "bool"
        },
        {
          "internalType": "bytes",
          "name": "",
          "type": "bytes"
        }
      ],
      "stateMutability": "view",
      "type": "function"
    },
    {
      "inputs": [
        {
          "internalType": "uint256",
          "name": "trancheId",
          "type": "uint256"
        },
        {
          "internalType": "address",
          "name": "currency",
          "type": "address"
        },
        {
          "internalType": "address",
          "name": "recipient",
          "type": "address"
        }
      ],
      "name": "collectYield",
      "outputs": [
        {
          "internalType": "uint256",
          "name": "",
          "type": "uint256"
        }
      ],
      "stateMutability": "nonpayable",
      "type": "function"
    },
    {
      "inputs": [
        {
          "internalType": "uint256",
          "name": "trancheId",
          "type": "uint256"
        },
        {
          "internalType": "address",
          "name": "_yieldCurrency",
          "type": "address"
        },
        {
          "internalType": "address",
          "name": "valueCurrency",
          "type": "address"
        },
        {
          "internalType": "address",
          "name": "recipient",
          "type": "address"
        }
      ],
      "name": "collectYieldValueBorrowable",
      "outputs": [
        {
          "internalType": "uint256",
          "name": "yield",
          "type": "uint256"
        },
        {
          "internalType": "uint256",
          "name": "value",
          "type": "uint256"
        },
        {
          "internalType": "uint256",
          "name": "borrowablePer10k",
          "type": "uint256"
        }
      ],
      "stateMutability": "nonpayable",
      "type": "function"
    },
    {
      "inputs": [
        {
          "internalType": "address",
          "name": "token",
          "type": "address"
        }
      ],
      "name": "currentMultiple",
      "outputs": [
        {
          "internalType": "uint256",
          "name": "",
          "type": "uint256"
        }
      ],
      "stateMutability": "view",
      "type": "function"
    },
    {
      "inputs": [],
      "name": "dependsOnCharacters",
      "outputs": [
        {
          "internalType": "uint256[]",
          "name": "",
          "type": "uint256[]"
        }
      ],
      "stateMutability": "view",
      "type": "function"
    },
    {
      "inputs": [],
      "name": "dependsOnRoles",
      "outputs": [
        {
          "internalType": "uint256[]",
          "name": "",
          "type": "uint256[]"
        }
      ],
      "stateMutability": "view",
      "type": "function"
    },
    {
      "inputs": [
        {
          "internalType": "uint256",
          "name": "",
          "type": "uint256"
        }
      ],
      "name": "depositedMultiple",
      "outputs": [
        {
          "internalType": "uint256",
          "name": "",
          "type": "uint256"
        }
      ],
      "stateMutability": "view",
      "type": "function"
    },
    {
      "inputs": [
        {
          "internalType": "uint256",
          "name": "trancheId",
          "type": "uint256"
        }
      ],
      "name": "depositedShares",
      "outputs": [
        {
          "internalType": "uint256",
          "name": "",
          "type": "uint256"
        }
      ],
      "stateMutability": "view",
      "type": "function"
    },
    {
      "inputs": [
        {
          "internalType": "address",
          "name": "token",
          "type": "address"
        },
        {
          "internalType": "bytes",
          "name": "",
          "type": "bytes"
        }
      ],
      "name": "disapproveToken",
      "outputs": [],
      "stateMutability": "nonpayable",
      "type": "function"
    },
    {
      "inputs": [],
      "name": "disapprovedTokensCount",
      "outputs": [
        {
          "internalType": "uint256",
          "name": "",
          "type": "uint256"
        }
      ],
      "stateMutability": "view",
      "type": "function"
    },
    {
      "inputs": [
        {
          "internalType": "address",
          "name": "",
          "type": "address"
        }
      ],
      "name": "feeBase",
      "outputs": [
        {
          "internalType": "uint256",
          "name": "",
          "type": "uint256"
        }
      ],
      "stateMutability": "view",
      "type": "function"
    },
    {
      "inputs": [
        {
          "internalType": "address",
          "name": "",
          "type": "address"
        }
      ],
      "name": "feeMultiple",
      "outputs": [
        {
          "internalType": "uint256",
          "name": "",
          "type": "uint256"
        }
      ],
      "stateMutability": "view",
      "type": "function"
    },
    {
      "inputs": [
        {
          "internalType": "address",
          "name": "token",
          "type": "address"
        }
      ],
      "name": "harvestPartially",
      "outputs": [],
      "stateMutability": "nonpayable",
      "type": "function"
    },
    {
      "inputs": [],
      "name": "isActive",
      "outputs": [
        {
          "internalType": "bool",
          "name": "",
          "type": "bool"
        }
      ],
      "stateMutability": "view",
      "type": "function"
    },
    {
      "inputs": [
        {
          "internalType": "uint256",
          "name": "",
          "type": "uint256"
        }
      ],
      "name": "mainCharacterCache",
      "outputs": [
        {
          "internalType": "address",
          "name": "",
          "type": "address"
        }
      ],
      "stateMutability": "view",
      "type": "function"
    },
    {
      "inputs": [
        {
          "internalType": "address",
          "name": "destination",
          "type": "address"
        }
      ],
      "name": "migrateAllTo",
      "outputs": [],
      "stateMutability": "nonpayable",
      "type": "function"
    },
    {
      "inputs": [
        {
          "internalType": "uint256",
          "name": "trancheId",
          "type": "uint256"
        },
        {
          "internalType": "address",
          "name": "targetStrategy",
          "type": "address"
        },
        {
          "internalType": "address",
          "name": "yieldToken",
          "type": "address"
        },
        {
          "internalType": "address",
          "name": "yieldRecipient",
          "type": "address"
        }
      ],
      "name": "migrateStrategy",
      "outputs": [
        {
          "internalType": "address",
          "name": "",
          "type": "address"
        },
        {
          "internalType": "uint256",
          "name": "",
          "type": "uint256"
        },
        {
          "internalType": "uint256",
          "name": "",
          "type": "uint256"
        }
      ],
      "stateMutability": "nonpayable",
      "type": "function"
    },
    {
      "inputs": [
        {
          "internalType": "address",
          "name": "token",
          "type": "address"
        },
        {
          "internalType": "address",
          "name": "pegCurrency",
          "type": "address"
        }
      ],
      "name": "newCurrentOracle",
      "outputs": [],
      "stateMutability": "nonpayable",
      "type": "function"
    },
    {
      "inputs": [
        {
          "internalType": "address",
          "name": "depositor",
          "type": "address"
        },
        {
          "internalType": "uint256",
          "name": "trancheId",
          "type": "uint256"
        },
        {
          "internalType": "uint256",
          "name": "amount",
          "type": "uint256"
        },
        {
          "internalType": "address",
          "name": "yieldRecipient",
          "type": "address"
        }
      ],
      "name": "registerDepositFor",
      "outputs": [],
      "stateMutability": "nonpayable",
      "type": "function"
    },
    {
      "inputs": [
        {
          "internalType": "address",
          "name": "minter",
          "type": "address"
        },
        {
          "internalType": "uint256",
          "name": "trancheId",
          "type": "uint256"
        },
        {
          "internalType": "address",
          "name": "assetToken",
          "type": "address"
        },
        {
          "internalType": "uint256",
          "name": "",
          "type": "uint256"
        },
        {
          "internalType": "uint256",
          "name": "assetAmount",
          "type": "uint256"
        }
      ],
      "name": "registerMintTranche",
      "outputs": [],
      "stateMutability": "nonpayable",
      "type": "function"
    },
    {
      "inputs": [
        {
          "internalType": "address",
          "name": "token",
          "type": "address"
        },
        {
          "internalType": "uint256",
          "name": "amount",
          "type": "uint256"
        },
        {
          "internalType": "address",
          "name": "recipient",
          "type": "address"
        }
      ],
      "name": "rescueCollateral",
      "outputs": [],
      "stateMutability": "nonpayable",
      "type": "function"
    },
    {
      "inputs": [
        {
          "internalType": "uint256",
          "name": "amount",
          "type": "uint256"
        },
        {
          "internalType": "address",
          "name": "recipient",
          "type": "address"
        }
      ],
      "name": "rescueNative",
      "outputs": [],
      "stateMutability": "nonpayable",
      "type": "function"
    },
    {
      "inputs": [
        {
          "internalType": "address",
          "name": "token",
          "type": "address"
        },
        {
          "internalType": "uint256",
          "name": "amount",
          "type": "uint256"
        },
        {
          "internalType": "address",
          "name": "recipient",
          "type": "address"
        }
      ],
      "name": "rescueStrandedTokens",
      "outputs": [],
      "stateMutability": "nonpayable",
      "type": "function"
    },
    {
      "inputs": [
        {
          "internalType": "address",
          "name": "",
          "type": "address"
        },
        {
          "internalType": "uint256",
          "name": "",
          "type": "uint256"
        }
      ],
      "name": "roleCache",
      "outputs": [
        {
          "internalType": "bool",
          "name": "",
          "type": "bool"
        }
      ],
      "stateMutability": "view",
      "type": "function"
    },
    {
      "inputs": [],
      "name": "roles",
      "outputs": [
        {
          "internalType": "contract Roles",
          "name": "",
          "type": "address"
        }
      ],
      "stateMutability": "view",
      "type": "function"
    },
    {
      "inputs": [],
      "name": "rolesPlayed",
      "outputs": [
        {
          "internalType": "uint256[]",
          "name": "",
          "type": "uint256[]"
        }
      ],
      "stateMutability": "view",
      "type": "function"
    },
    {
      "inputs": [
        {
          "internalType": "uint256",
          "name": "smoothing",
          "type": "uint256"
        }
      ],
      "name": "setApfSmoothingPer10k",
      "outputs": [],
      "stateMutability": "nonpayable",
      "type": "function"
    },
    {
      "inputs": [
        {
          "internalType": "uint256",
          "name": "fee",
          "type": "uint256"
        }
      ],
      "name": "setFeePer10k",
      "outputs": [],
      "stateMutability": "nonpayable",
      "type": "function"
    },
    {
      "inputs": [
        {
          "internalType": "address",
          "name": "token",
          "type": "address"
        },
        {
          "internalType": "address",
          "name": "strategy",
          "type": "address"
        }
      ],
      "name": "setYakStrategy",
      "outputs": [],
      "stateMutability": "nonpayable",
      "type": "function"
    },
    {
      "inputs": [
        {
          "internalType": "address",
          "name": "",
          "type": "address"
        }
      ],
      "name": "stabilityFeePer10k",
      "outputs": [
        {
          "internalType": "uint256",
          "name": "",
          "type": "uint256"
        }
      ],
      "stateMutability": "view",
      "type": "function"
    },
    {
      "inputs": [
        {
          "internalType": "address",
          "name": "",
          "type": "address"
        }
      ],
      "name": "startingTokensPerShare",
      "outputs": [
        {
          "internalType": "uint256",
          "name": "",
          "type": "uint256"
        }
      ],
      "stateMutability": "view",
      "type": "function"
    },
    {
      "inputs": [],
      "name": "strategyName",
      "outputs": [
        {
          "internalType": "bytes32",
          "name": "",
          "type": "bytes32"
        }
      ],
      "stateMutability": "view",
      "type": "function"
    },
    {
      "inputs": [
        {
          "internalType": "address",
          "name": "",
          "type": "address"
        }
      ],
      "name": "tokenMetadata",
      "outputs": [
        {
          "internalType": "uint256",
          "name": "totalCollateralThisPhase",
          "type": "uint256"
        },
        {
          "internalType": "uint256",
          "name": "totalCollateralNow",
          "type": "uint256"
        },
        {
          "internalType": "uint256",
          "name": "apfLastUpdated",
          "type": "uint256"
        },
        {
          "internalType": "uint256",
          "name": "apf",
          "type": "uint256"
        }
      ],
      "stateMutability": "view",
      "type": "function"
    },
    {
      "inputs": [
        {
          "internalType": "uint256",
          "name": "trancheId",
          "type": "uint256"
        }
      ],
      "name": "tranche",
      "outputs": [
        {
          "internalType": "address",
          "name": "",
          "type": "address"
        }
      ],
      "stateMutability": "view",
      "type": "function"
    },
    {
      "inputs": [
        {
          "internalType": "uint256",
          "name": "trancheId",
          "type": "uint256"
        }
      ],
      "name": "trancheToken",
      "outputs": [
        {
          "internalType": "address",
          "name": "token",
          "type": "address"
        }
      ],
      "stateMutability": "view",
      "type": "function"
    },
    {
      "inputs": [
        {
          "internalType": "uint256",
          "name": "",
          "type": "uint256"
        }
      ],
      "name": "trancheTokenID",
      "outputs": [
        {
          "internalType": "uint256",
          "name": "",
          "type": "uint256"
        }
      ],
      "stateMutability": "pure",
      "type": "function"
    },
    {
      "inputs": [
        {
          "internalType": "uint256",
          "name": "role",
          "type": "uint256"
        }
      ],
      "name": "updateMainCharacterCache",
      "outputs": [],
      "stateMutability": "nonpayable",
      "type": "function"
    },
    {
      "inputs": [
        {
          "internalType": "uint256",
          "name": "role",
          "type": "uint256"
        },
        {
          "internalType": "address",
          "name": "contr",
          "type": "address"
        }
      ],
      "name": "updateRoleCache",
      "outputs": [],
      "stateMutability": "nonpayable",
      "type": "function"
    },
    {
      "inputs": [
        {
          "internalType": "address",
          "name": "token",
          "type": "address"
        }
      ],
      "name": "viewAPF",
      "outputs": [
        {
          "internalType": "uint256",
          "name": "",
          "type": "uint256"
        }
      ],
      "stateMutability": "view",
      "type": "function"
    },
    {
      "inputs": [],
      "name": "viewAllApprovedTokens",
      "outputs": [
        {
          "internalType": "address[]",
          "name": "",
          "type": "address[]"
        }
      ],
      "stateMutability": "view",
      "type": "function"
    },
    {
      "inputs": [],
      "name": "viewAllDisapprovedTokenStrategyMetadata",
      "outputs": [
        {
          "components": [
            {
              "internalType": "address",
              "name": "strategy",
              "type": "address"
            },
            {
              "internalType": "address",
              "name": "token",
              "type": "address"
            },
            {
              "internalType": "uint256",
              "name": "APF",
              "type": "uint256"
            },
            {
              "internalType": "uint256",
              "name": "totalCollateral",
              "type": "uint256"
            },
            {
              "internalType": "uint256",
              "name": "borrowablePer10k",
              "type": "uint256"
            },
            {
              "internalType": "uint256",
              "name": "valuePer1e18",
              "type": "uint256"
            },
            {
              "internalType": "bytes32",
              "name": "strategyName",
              "type": "bytes32"
            },
            {
              "internalType": "uint256",
              "name": "tvl",
              "type": "uint256"
            },
            {
              "internalType": "uint256",
              "name": "harvestBalance2Tally",
              "type": "uint256"
            },
            {
              "internalType": "enum IStrategy.YieldType",
              "name": "yieldType",
              "type": "uint8"
            },
            {
              "internalType": "uint256",
              "name": "stabilityFee",
              "type": "uint256"
            },
            {
              "internalType": "address",
              "name": "underlyingStrategy",
              "type": "address"
            }
          ],
          "internalType": "struct IStrategy.StrategyMetadata[]",
          "name": "",
          "type": "tuple[]"
        }
      ],
      "stateMutability": "view",
      "type": "function"
    },
    {
      "inputs": [],
      "name": "viewAllDisapprovedTokens",
      "outputs": [
        {
          "internalType": "address[]",
          "name": "",
          "type": "address[]"
        }
      ],
      "stateMutability": "view",
      "type": "function"
    },
    {
      "inputs": [],
      "name": "viewAllFeesEver",
      "outputs": [
        {
          "internalType": "uint256",
          "name": "balance",
          "type": "uint256"
        }
      ],
      "stateMutability": "view",
      "type": "function"
    },
    {
      "inputs": [],
      "name": "viewAllStrategyMetadata",
      "outputs": [
        {
          "components": [
            {
              "internalType": "address",
              "name": "strategy",
              "type": "address"
            },
            {
              "internalType": "address",
              "name": "token",
              "type": "address"
            },
            {
              "internalType": "uint256",
              "name": "APF",
              "type": "uint256"
            },
            {
              "internalType": "uint256",
              "name": "totalCollateral",
              "type": "uint256"
            },
            {
              "internalType": "uint256",
              "name": "borrowablePer10k",
              "type": "uint256"
            },
            {
              "internalType": "uint256",
              "name": "valuePer1e18",
              "type": "uint256"
            },
            {
              "internalType": "bytes32",
              "name": "strategyName",
              "type": "bytes32"
            },
            {
              "internalType": "uint256",
              "name": "tvl",
              "type": "uint256"
            },
            {
              "internalType": "uint256",
              "name": "harvestBalance2Tally",
              "type": "uint256"
            },
            {
              "internalType": "enum IStrategy.YieldType",
              "name": "yieldType",
              "type": "uint8"
            },
            {
              "internalType": "uint256",
              "name": "stabilityFee",
              "type": "uint256"
            },
            {
              "internalType": "address",
              "name": "underlyingStrategy",
              "type": "address"
            }
          ],
          "internalType": "struct IStrategy.StrategyMetadata[]",
          "name": "",
          "type": "tuple[]"
        }
      ],
      "stateMutability": "view",
      "type": "function"
    },
    {
      "inputs": [],
      "name": "viewAllTokensEver",
      "outputs": [
        {
          "internalType": "address[]",
          "name": "",
          "type": "address[]"
        }
      ],
      "stateMutability": "view",
      "type": "function"
    },
    {
      "inputs": [
        {
          "internalType": "uint256",
          "name": "trancheId",
          "type": "uint256"
        }
      ],
      "name": "viewBorrowable",
      "outputs": [
        {
          "internalType": "uint256",
          "name": "borrowablePer10k",
          "type": "uint256"
        }
      ],
      "stateMutability": "view",
      "type": "function"
    },
    {
      "inputs": [
        {
          "internalType": "address",
          "name": "token",
          "type": "address"
        }
      ],
      "name": "viewEstimatedHarvestable",
      "outputs": [
        {
          "internalType": "uint256",
          "name": "",
          "type": "uint256"
        }
      ],
      "stateMutability": "view",
      "type": "function"
    },
    {
      "inputs": [
        {
          "internalType": "address",
          "name": "",
          "type": "address"
        }
      ],
      "name": "viewHarvestBalance2Tally",
      "outputs": [
        {
          "internalType": "uint256",
          "name": "",
          "type": "uint256"
        }
      ],
      "stateMutability": "view",
      "type": "function"
    },
    {
      "inputs": [
        {
          "internalType": "address",
          "name": "token",
          "type": "address"
        }
      ],
      "name": "viewSourceHarvestable",
      "outputs": [
        {
          "internalType": "uint256",
          "name": "",
          "type": "uint256"
        }
      ],
      "stateMutability": "view",
      "type": "function"
    },
    {
      "inputs": [
        {
          "internalType": "address",
          "name": "token",
          "type": "address"
        }
      ],
      "name": "viewStrategyMetadata",
      "outputs": [
        {
          "components": [
            {
              "internalType": "address",
              "name": "strategy",
              "type": "address"
            },
            {
              "internalType": "address",
              "name": "token",
              "type": "address"
            },
            {
              "internalType": "uint256",
              "name": "APF",
              "type": "uint256"
            },
            {
              "internalType": "uint256",
              "name": "totalCollateral",
              "type": "uint256"
            },
            {
              "internalType": "uint256",
              "name": "borrowablePer10k",
              "type": "uint256"
            },
            {
              "internalType": "uint256",
              "name": "valuePer1e18",
              "type": "uint256"
            },
            {
              "internalType": "bytes32",
              "name": "strategyName",
              "type": "bytes32"
            },
            {
              "internalType": "uint256",
              "name": "tvl",
              "type": "uint256"
            },
            {
              "internalType": "uint256",
              "name": "harvestBalance2Tally",
              "type": "uint256"
            },
            {
              "internalType": "enum IStrategy.YieldType",
              "name": "yieldType",
              "type": "uint8"
            },
            {
              "internalType": "uint256",
              "name": "stabilityFee",
              "type": "uint256"
            },
            {
              "internalType": "address",
              "name": "underlyingStrategy",
              "type": "address"
            }
          ],
          "internalType": "struct IStrategy.StrategyMetadata",
          "name": "",
          "type": "tuple"
        }
      ],
      "stateMutability": "view",
      "type": "function"
    },
    {
      "inputs": [
        {
          "internalType": "uint256",
          "name": "trancheId",
          "type": "uint256"
        }
      ],
      "name": "viewTargetCollateralAmount",
      "outputs": [
        {
          "internalType": "uint256",
          "name": "",
          "type": "uint256"
        }
      ],
      "stateMutability": "view",
      "type": "function"
    },
    {
      "inputs": [
        {
          "internalType": "address",
          "name": "token",
          "type": "address"
        }
      ],
      "name": "viewUnderlyingStrategy",
      "outputs": [
        {
          "internalType": "address",
          "name": "",
          "type": "address"
        }
      ],
      "stateMutability": "view",
      "type": "function"
    },
    {
      "inputs": [
        {
          "internalType": "uint256",
          "name": "trancheId",
          "type": "uint256"
        },
        {
          "internalType": "address",
          "name": "valueCurrency",
          "type": "address"
        }
      ],
      "name": "viewValue",
      "outputs": [
        {
          "internalType": "uint256",
          "name": "value",
          "type": "uint256"
        }
      ],
      "stateMutability": "view",
      "type": "function"
    },
    {
      "inputs": [
        {
          "internalType": "uint256",
          "name": "trancheId",
          "type": "uint256"
        },
        {
          "internalType": "address",
          "name": "valueCurrency",
          "type": "address"
        }
      ],
      "name": "viewValueBorrowable",
      "outputs": [
        {
          "internalType": "uint256",
          "name": "value",
          "type": "uint256"
        },
        {
          "internalType": "uint256",
          "name": "borrowable",
          "type": "uint256"
        }
      ],
      "stateMutability": "view",
      "type": "function"
    },
    {
      "inputs": [
        {
          "internalType": "uint256",
          "name": "trancheId",
          "type": "uint256"
        },
        {
          "internalType": "address",
          "name": "currency",
          "type": "address"
        }
      ],
      "name": "viewYield",
      "outputs": [
        {
          "internalType": "uint256",
          "name": "",
          "type": "uint256"
        }
      ],
      "stateMutability": "view",
      "type": "function"
    },
    {
      "inputs": [
        {
          "internalType": "uint256",
          "name": "trancheId",
          "type": "uint256"
        },
        {
          "internalType": "address",
          "name": "_yieldCurrency",
          "type": "address"
        },
        {
          "internalType": "address",
          "name": "valueCurrency",
          "type": "address"
        }
      ],
      "name": "viewYieldValueBorrowable",
      "outputs": [
        {
          "internalType": "uint256",
          "name": "yield",
          "type": "uint256"
        },
        {
          "internalType": "uint256",
          "name": "value",
          "type": "uint256"
        },
        {
          "internalType": "uint256",
          "name": "borrowablePer10k",
          "type": "uint256"
        }
      ],
      "stateMutability": "view",
      "type": "function"
    },
    {
      "inputs": [
        {
          "internalType": "uint256",
          "name": "trancheId",
          "type": "uint256"
        },
        {
          "internalType": "uint256",
          "name": "amount",
          "type": "uint256"
        },
        {
          "internalType": "address",
          "name": "yieldToken",
          "type": "address"
        },
        {
          "internalType": "address",
          "name": "recipient",
          "type": "address"
        }
      ],
      "name": "withdraw",
      "outputs": [],
      "stateMutability": "nonpayable",
      "type": "function"
    },
    {
      "inputs": [],
      "name": "withdrawAllFees",
      "outputs": [],
      "stateMutability": "nonpayable",
      "type": "function"
    },
    {
      "inputs": [
        {
          "internalType": "address",
          "name": "token",
          "type": "address"
        }
      ],
      "name": "withdrawFees",
      "outputs": [],
      "stateMutability": "nonpayable",
      "type": "function"
    },
    {
      "inputs": [],
      "name": "withdrawnFees",
      "outputs": [
        {
          "internalType": "uint256",
          "name": "",
          "type": "uint256"
        }
      ],
      "stateMutability": "view",
      "type": "function"
    },
    {
      "inputs": [],
      "name": "wrappedNative",
      "outputs": [
        {
          "internalType": "contract IWETH",
          "name": "",
          "type": "address"
        }
      ],
      "stateMutability": "view",
      "type": "function"
    },
    {
      "inputs": [
        {
          "internalType": "address",
          "name": "",
          "type": "address"
        }
      ],
      "name": "yakStrategy",
      "outputs": [
        {
          "internalType": "address",
          "name": "",
          "type": "address"
        }
      ],
      "stateMutability": "view",
      "type": "function"
    },
    {
      "inputs": [],
      "name": "yieldCurrency",
      "outputs": [
        {
          "internalType": "address",
          "name": "",
          "type": "address"
        }
      ],
      "stateMutability": "view",
      "type": "function"
    },
    {
      "inputs": [],
      "name": "yieldType",
      "outputs": [
        {
          "internalType": "enum IStrategy.YieldType",
          "name": "",
          "type": "uint8"
        }
      ],
      "stateMutability": "pure",
      "type": "function"
    },
    {
      "stateMutability": "payable",
      "type": "receive"
    }
  ],
  "bytecode": "0x6101006040526009805460ff191660011790556113886011556103e86019553480156200002b57600080fd5b50604051620055ab380380620055ab8339810160408190526200004e9162000330565b8181807f5969656c6459616b20636f6d706f756e64696e6700000000000000000000000081806001600160a01b038116620000da5760405162461bcd60e51b815260206004820152602260248201527f506c656173652070726f766964652076616c696420726f6c6573206164647265604482015261737360f01b606482015260840160405180910390fd5b60601b6001600160601b0319166080526002805460018082018355606a6000805160206200558b8339815191529283015560058054808301825560047f036b6384b5eca791c62761152d0c79bb0604c104a5fb6f4eb0703f3154bb3db09182018190558554808501875560669086015582548085019093559101849055835480830185556068908401556003805480840182557fc2575a0e9e593c00f959f8c92f12db2869c3395a3b0502d05e2516446f71f85b908101829055815480850190925501829055835491820184556000939093526069910181905560405163b4ed0b6d60e01b8152918201526001600160a01b0382169063b4ed0b6d9060240160206040518083038186803b158015620001f257600080fd5b505afa15801562000207573d6000803e3d6000fd5b505050506040513d601f19601f820116820180604052508101906200022d91906200030c565b6001600160a01b031663fae794e66040518163ffffffff1660e01b815260040160206040518083038186803b1580156200026657600080fd5b505afa1580156200027b573d6000803e3d6000fd5b505050506040513d601f19601f82011682018060405250810190620002a1919062000367565b60a052506001600881905560c09190915260028054918201815560005260676000805160206200558b83398151915290910155505060601b6001600160601b03191660e05250620003809050565b80516001600160a01b03811681146200030757600080fd5b919050565b6000602082840312156200031e578081fd5b6200032982620002ef565b9392505050565b6000806040838503121562000343578081fd5b6200034e83620002ef565b91506200035e60208401620002ef565b90509250929050565b60006020828403121562000379578081fd5b5051919050565b60805160601c60a05160c05160e05160601c6151776200041460003960008181610d1e01528181612e9801528181612fe4015281816131ef0152818161435a01526143d4015260008181610be901526112c40152600061241c0152600081816106640152818161103e0152818161197a01528181612d6e01528181612e01015281816131640152613c9801526151776000f3fe6080604052600436106103665760003560e01c806301c7b9f81461036f5780630581f3b5146103a257806306b8ce99146103c2578063071060a6146103d75780630a3017d9146103f75780630b504430146104175780630ccc5bd6146104445780630d74962814610464578063110acb2314610479578063164e68de146104a657806316a6b54a146104c657806318af4c9e146104e65780631dc3a759146105065780631f7ea8811461052757806321fa0f1f1461054757806322f3e2d4146105695780632642b6061461059357806326473a8f146105e157806328f3fc73146105fc578063296b12281461061c578063392f5f64146106525780633a3db435146106865780633ace96ec146106a6578063447d52ba146106c6578063459ba127146106e657806349d4f22e146107065780634a7a7f41146107265780634d578359146107485780634d9d01b2146107765780634df87c091461078b5780636caa9c11146107ab5780636fecdf24146107cb57806371b3177a146108305780637268d1c0146108505780637a1a04df146108705780637b2c9279146108ab5780637dad209b146108c05780638496e891146108d557806389f117b3146109105780639470505f146105e157806395494bf5146105065780639b0f09ae146109305780639dc3a9f51461094c5780639fffe06414610979578063a4d77f9014610999578063a50233c9146109ce578063a51c8fab146109ee578063abcbc4fc14610a10578063ad89b79414610a30578063aeb38d8b14610a45578063af236af414610a65578063b06ea8f014610a7a578063b23d66c214610a90578063b832799314610ad5578063bf184ea414610af5578063c5c72dc314610b15578063cfbc531f14610b35578063d0d9ab5914610b4b578063d241c9c014610b60578063d9cb512c14610b80578063dc94cb7d14610b95578063e10ac23a14610baa578063e173ad2514610bd7578063e22d284514610c0b578063e2e730f614610c74578063e8ea4fae14610c94578063e9c3f77d14610ca9578063ea7bade314610cdf578063eb6d3a1114610d0c578063f725ed1014610d40578063f8903fb714610d60578063f8d6a05d14610d80578063fa98a4ba14610da0578063fabee7db14610dc0578063fac82e8c14610de0578063fd80d0c314610e00578063fe65a5b414610e205761036d565b3661036d57005b005b34801561037b57600080fd5b5061038f61038a366004614af4565b610e40565b6040519081526020015b60405180910390f35b3480156103ae57600080fd5b5061038f6103bd3660046148af565b610e65565b3480156103ce57600080fd5b5061038f611017565b3480156103e357600080fd5b5061036d6103f2366004614ac4565b611028565b34801561040357600080fd5b5061038f6104123660046148af565b6110ee565b34801561042357600080fd5b5061038f6104323660046148af565b60176020526000908152604090205481565b34801561045057600080fd5b5061036d61045f3660046149c9565b61110c565b34801561047057600080fd5b5061038f611195565b34801561048557600080fd5b506104996104943660046148af565b611227565b6040516103999190615014565b3480156104b257600080fd5b5061036d6104c13660046148af565b611327565b3480156104d257600080fd5b5061038f6104e13660046148af565b611408565b3480156104f257600080fd5b5061036d610501366004614af4565b6114ca565b34801561051257600080fd5b5061038f610521366004614ac4565b50600090565b34801561053357600080fd5b5061036d61054236600461491f565b611574565b34801561055357600080fd5b5061055c61162c565b6040516103999190614de6565b34801561057557600080fd5b506009546105839060ff1681565b6040519015158152602001610399565b34801561059f57600080fd5b506105d46105ae3660046148e7565b60066020908152600092835260408084209091529082529020546001600160a01b031681565b6040516103999190614d2f565b3480156105ed57600080fd5b5061038f6105213660046148af565b34801561060857600080fd5b5061036d6106173660046148e7565b6116fe565b34801561062857600080fd5b506105d46106373660046148af565b6013602052600090815260409020546001600160a01b031681565b34801561065e57600080fd5b506105d47f000000000000000000000000000000000000000000000000000000000000000081565b34801561069257600080fd5b5061036d6106a1366004614ac4565b6117f1565b3480156106b257600080fd5b5061036d6106c136600461491f565b611898565b3480156106d257600080fd5b5061036d6106e1366004614af4565b611963565b3480156106f257600080fd5b5061036d610701366004614b95565b611a39565b34801561071257600080fd5b5061036d6107213660046149c9565b611ab2565b34801561073257600080fd5b5061073b611b35565b6040516103999190614e29565b34801561075457600080fd5b506107686107633660046148e7565b611b8d565b604051610399929190614e61565b34801561078257600080fd5b5061038f611bc5565b34801561079757600080fd5b506105836107a63660046148af565b611bd1565b3480156107b757600080fd5b5061038f6107c6366004614ac4565b611bde565b3480156107d757600080fd5b506108106107e63660046148af565b60126020526000908152604090206001810154600282015460038301546004909301549192909184565b604080519485526020850193909352918301526060820152608001610399565b34801561083c57600080fd5b5061036d61084b366004614bf1565b611bff565b34801561085c57600080fd5b5061038f61086b366004614ac4565b611cd8565b34801561087c57600080fd5b5061058361088b36600461499e565b600160209081526000928352604080842090915290825290205460ff1681565b3480156108b757600080fd5b506105d4611cfe565b3480156108cc57600080fd5b5061073b611d08565b3480156108e157600080fd5b506108f56108f0366004614b4e565b611d5e565b60408051938452602084019290925290820152606001610399565b34801561091c57600080fd5b5061036d61092b3660046148af565b611e79565b34801561093c57600080fd5b5060016040516103999190614e7c565b34801561095857600080fd5b5061038f6109673660046148af565b60156020526000908152604090205481565b34801561098557600080fd5b5061036d6109943660046148e7565b611f05565b3480156109a557600080fd5b506109b96109b4366004614af4565b611f58565b60408051928352602083019190915201610399565b3480156109da57600080fd5b5061036d6109e9366004614a5b565b611f81565b3480156109fa57600080fd5b50610a03612042565b6040516103999190614d99565b348015610a1c57600080fd5b5061038f610a2b366004614ac4565b61204e565b348015610a3c57600080fd5b5061055c61205e565b348015610a5157600080fd5b5061038f610a60366004614ac4565b612129565b348015610a7157600080fd5b5061036d612139565b348015610a8657600080fd5b5061038f60115481565b348015610a9c57600080fd5b50610ab0610aab366004614b4e565b61217b565b604080516001600160a01b039094168452602084019290925290820152606001610399565b348015610ae157600080fd5b5061036d610af0366004614a0a565b61228e565b348015610b0157600080fd5b5061038f610b10366004614ac4565b612347565b348015610b2157600080fd5b5061038f610b30366004614ac4565b612357565b348015610b4157600080fd5b5061038f60185481565b348015610b5757600080fd5b50610a03612408565b348015610b6c57600080fd5b506105d4610b7b366004614ac4565b612414565b348015610b8c57600080fd5b50610a0361250e565b348015610ba157600080fd5b5061073b61251a565b348015610bb657600080fd5b5061038f610bc53660046148af565b60166020526000908152604090205481565b348015610be357600080fd5b5061038f7f000000000000000000000000000000000000000000000000000000000000000081565b348015610c1757600080fd5b50610c50610c26366004614ac4565b6010602052600090815260409020805460018201546002909201549091906001600160a01b031683565b6040805193845260208401929092526001600160a01b031690820152606001610399565b348015610c8057600080fd5b5061038f610c8f3660046148af565b612570565b348015610ca057600080fd5b5061073b612677565b348015610cb557600080fd5b506105d4610cc4366004614ac4565b6000602081905290815260409020546001600160a01b031681565b348015610ceb57600080fd5b5061038f610cfa366004614ac4565b60146020526000908152604090205481565b348015610d1857600080fd5b506105d47f000000000000000000000000000000000000000000000000000000000000000081565b348015610d4c57600080fd5b506105d4610d5b3660046148af565b6126cd565b348015610d6c57600080fd5b5061038f610d7b366004614b18565b6126eb565b348015610d8c57600080fd5b5061038f610d9b3660046148af565b6127de565b348015610dac57600080fd5b506108f5610dbb366004614b18565b6127f4565b348015610dcc57600080fd5b506105d4610ddb366004614ac4565b61282f565b348015610dec57600080fd5b5061036d610dfb3660046148af565b61284d565b348015610e0c57600080fd5b5061038f610e1b366004614af4565b612a08565b348015610e2c57600080fd5b5061036d610e3b366004614ac4565b612a4c565b6000610e5d610e4e8461282f565b610e5785612357565b84612adb565b509392505050565b6001600160a01b038082166000908152601360209081526040808320548151630173caf760e71b81529151939416928492849263b9e57b809260048083019392829003018186803b158015610eb957600080fd5b505afa158015610ecd573d6000803e3d6000fd5b505050506040513d601f19601f82011682018060405250810190610ef19190614adc565b90506000826001600160a01b03166318160ddd6040518163ffffffff1660e01b815260040160206040518083038186803b158015610f2e57600080fd5b505afa158015610f42573d6000803e3d6000fd5b505050506040513d601f19601f82011682018060405250810190610f669190614adc565b6040516370a0823160e01b815283906001600160a01b038616906370a0823190610f94903090600401614d2f565b60206040518083038186803b158015610fac57600080fd5b505afa158015610fc0573d6000803e3d6000fd5b505050506040513d601f19601f82011682018060405250810190610fe49190614adc565b610fee919061504f565b610ff8919061503b565b905061100c8582611007611cfe565b612c20565b93505050505b919050565b6000611023600c612d60565b905090565b60405163b4ed0b6d60e01b8152600481018290527f00000000000000000000000000000000000000000000000000000000000000006001600160a01b03169063b4ed0b6d9060240160206040518083038186803b15801561108857600080fd5b505afa15801561109c573d6000803e3d6000fd5b505050506040513d601f19601f820116820180604052508101906110c091906148cb565b60009182526020829052604090912080546001600160a01b0319166001600160a01b03909216919091179055565b6001600160a01b031660009081526012602052604090206004015490565b33611115612d6a565b6001600160a01b0316148061113957503361112e612dfd565b6001600160a01b0316145b61115e5760405162461bcd60e51b815260040161115590614e9d565b60405180910390fd5b6001600160a01b0381166111845760405162461bcd60e51b815260040161115590614f4a565b61118f818484612e6e565b50505050565b6000805b806111a4600e612d60565b11156112195760006111b7600e83613077565b6001600160a01b0381166000908152601660209081526040808320546015909252909120549192506111f99183916111f191839190613083565b611007611cfe565b6112039084615023565b9250508080611211906150b1565b915050611199565b506018546110239082615023565b61122f61481a565b60008061124c84670de0b6b3a76400006112476130a4565b612adb565b91509150604051806101800160405280306001600160a01b03168152602001856001600160a01b03168152602001611283866110ee565b815260200160126000876001600160a01b03166001600160a01b031681526020019081526020016000206002015481526020018281526020018381526020017f000000000000000000000000000000000000000000000000000000000000000081526020016112f186612570565b8152600060208201526040016001815260200160008152602001611314866126cd565b6001600160a01b03169052949350505050565b6001600160a01b0381166000908152601660209081526040808320546015909252822054611356918491613083565b905061139d611396606760009081526020527f682158d08466d11c566d5712d4396197fdd67e65be71d83c97ef719ec468867b546001600160a01b031690565b8383612e6e565b506113b082826113ab611cfe565b6130dc565b601860008282546113c19190615023565b90915550506001600160a01b0382166000908152601660205260408120556113e882611408565b6001600160a01b0390921660009081526015602052604090209190915550565b6001600160a01b03818116600090815260176020908152604080832054601390925280832054905163755c4d2d60e11b8152670de0b6b3a764000060048201529293919291169063eab89a5a9060240160206040518083038186803b15801561147057600080fd5b505afa158015611484573d6000803e3d6000fd5b505050506040513d601f19601f820116820180604052508101906114a89190614adc565b6114ba90670de0b6b3a764000061504f565b6114c4919061503b565b92915050565b336114d3612d6a565b6001600160a01b031614806114f75750336114ec612dfd565b6001600160a01b0316145b6115135760405162461bcd60e51b815260040161115590614e9d565b6001600160a01b0381166115395760405162461bcd60e51b815260040161115590614f4a565b6040516001600160a01b0382169083156108fc029084906000818181858888f1935050505015801561156f573d6000803e3d6000fd5b505050565b3361157d612d6a565b6001600160a01b031614806115a1575033611596612dfd565b6001600160a01b0316145b806115b057506115b03361314a565b61160c5760405162461bcd60e51b81526020600482015260396024820152600080516020615122833981519152604482015278391037b91030baba3437b934bd32b21030b1ba34bb30ba37b960391b6064820152608401611155565b6116178383836131ed565b61118f83670de0b6b3a76400006113ab6130a4565b6060600061163a600a612d60565b90506000816001600160401b0381111561166457634e487b7160e01b600052604160045260246000fd5b60405190808252806020026020018201604052801561169d57816020015b61168a61481a565b8152602001906001900390816116825790505b50905060005b808311156116f7576116b9610494600a83613077565b8282815181106116d957634e487b7160e01b600052603260045260246000fd5b602002602001018190525080806116ef906150b1565b9150506116a3565b5091505090565b6001600160a01b038281166000908152600660209081526040808320858516845290915290205416156117ed5761173361325e565b6001600160a01b0316635e73a03483836040518363ffffffff1660e01b8152600401611760929190614d43565b60206040518083038186803b15801561177857600080fd5b505afa15801561178c573d6000803e3d6000fd5b505050506040513d601f19601f820116820180604052508101906117b091906148cb565b6001600160a01b0383811660009081526006602090815260408083208685168452909152902080546001600160a01b031916929091169190911790555b5050565b336117fa612d6a565b6001600160a01b0316148061181e575033611813612dfd565b6001600160a01b0316145b61183a5760405162461bcd60e51b815260040161115590614e9d565b601181905560408051818152600d818301526c61706620736d6f6f7468696e6760981b60608201526020810183905290517f3a64504f0bc0c335e2aecb78638a257e0351a3fe0370861fd54ee4190b9209339181900360800190a150565b336118a1612d6a565b6001600160a01b031614806118c55750336118ba612dfd565b6001600160a01b0316145b6118e15760405162461bcd60e51b815260040161115590614e9d565b6118ec600a84613296565b506118f8600c846132ab565b506119016132c0565b6001600160a01b03166311848c45306040518263ffffffff1660e01b815260040161192c9190614d2f565b600060405180830381600087803b15801561194657600080fd5b505af115801561195a573d6000803e3d6000fd5b50505050505050565b60405163f0723d9760e01b81526001600160a01b037f0000000000000000000000000000000000000000000000000000000000000000169063f0723d97906119b19084908690600401614d5d565b60206040518083038186803b1580156119c957600080fd5b505afa1580156119dd573d6000803e3d6000fd5b505050506040513d601f19601f82011682018060405250810190611a019190614aa4565b6001600160a01b0391909116600090815260016020908152604080832094835293905291909120805460ff1916911515919091179055565b60026008541415611a5c5760405162461bcd60e51b815260040161115590614f7e565b6002600855611a6a85612414565b6001600160a01b0316336001600160a01b031614611a9a5760405162461bcd60e51b815260040161115590614f17565b611aa6848685846132f8565b50506001600855505050565b33611abb612d6a565b6001600160a01b03161480611adf575033611ad4612dfd565b6001600160a01b0316145b611afb5760405162461bcd60e51b815260040161115590614e9d565b6001600160a01b038116611b215760405162461bcd60e51b815260040161115590614f4a565b61156f6001600160a01b0384168284613348565b60606003805480602002602001604051908101604052809291908181526020018280548015611b8357602002820191906000526020600020905b815481526020019060010190808311611b6f575b5050505050905090565b60006060611b9a84611bd1565b83604051602001611bab9190614d2f565b604051602081830303815290604052915091509250929050565b6000611023600a612d60565b60006114c4600a8361339e565b60058181548110611bee57600080fd5b600091825260209091200154905081565b60095460ff16611c215760405162461bcd60e51b815260040161115590614ee7565b60026008541415611c445760405162461bcd60e51b815260040161115590614f7e565b6002600855611c52336133b3565b611c9b5760405162461bcd60e51b815260206004820152601a6024820152794e6f7420617574686f72697a656420746f20776974686472617760301b6044820152606401611155565b6001600160a01b038116611cc15760405162461bcd60e51b815260040161115590614f4a565b611ccd848484846133dc565b505060016008555050565b6000611cf7611ce68361282f565b611cef84612357565b611247611cfe565b9392505050565b60006110236130a4565b60606004805480602002602001604051908101604052809291908181526020018280548015611b835760200282019190600052602060002090815481526020019060010190808311611b6f575050505050905090565b600080600060026008541415611d865760405162461bcd60e51b815260040161115590614f7e565b6002600855611d94336133b3565b80611e205750611da387612414565b6001600160a01b0316632972b0f033896040518363ffffffff1660e01b8152600401611dd0929190614d5d565b60206040518083038186803b158015611de857600080fd5b505afa158015611dfc573d6000803e3d6000fd5b505050506040513d601f19601f82011682018060405250810190611e209190614aa4565b611e3c5760405162461bcd60e51b815260040161115590614fdd565b611e478787866134a3565b9250611e64611e558861282f565b611e5e89612357565b876135e6565b60016008559398909750929550919350505050565b60026008541415611e9c5760405162461bcd60e51b815260040161115590614f7e565b60026008556001600160a01b03808216600090815260136020526040808220548151637edad01f60e11b8152915193169263fdb5a03e9260048084019391929182900301818387803b158015611ef157600080fd5b505af1158015611aa6573d6000803e3d6000fd5b33611f0e612d6a565b6001600160a01b03161480611f32575033611f27612dfd565b6001600160a01b0316145b611f4e5760405162461bcd60e51b815260040161115590614e9d565b6117ed8282613655565b600080611f76611f678561282f565b611f7086612357565b85612adb565b915091509250929050565b60095460ff16611fa35760405162461bcd60e51b815260040161115590614ee7565b60026008541415611fc65760405162461bcd60e51b815260040161115590614f7e565b6002600855611fd4336133b3565b61202e5760405162461bcd60e51b815260206004820152602560248201527f4e6f7420617574686f72697a656420746f207472616e7366657220757365722060448201526466756e647360d81b6064820152608401611155565b611ccd84848461203c611cfe565b85613b24565b6060611023600a613bc5565b60028181548110611bee57600080fd5b6060600061206c600c612d60565b90506000816001600160401b0381111561209657634e487b7160e01b600052604160045260246000fd5b6040519080825280602002602001820160405280156120cf57816020015b6120bc61481a565b8152602001906001900390816120b45790505b50905060005b808311156116f7576120eb610494600c83613077565b82828151811061210b57634e487b7160e01b600052603260045260246000fd5b60200260200101819052508080612121906150b1565b9150506120d5565b60048181548110611bee57600080fd5b60005b80612147600e612d60565b111561217857600061215a600e83613077565b905061216581611327565b5080612170816150b1565b91505061213c565b50565b6009546000908190819060ff166121a45760405162461bcd60e51b815260040161115590614ee7565b6121ad87612414565b6001600160a01b0316336001600160a01b0316146121dd5760405162461bcd60e51b815260040161115590614f17565b60006121e88861282f565b905060006121f589612357565b90506122028988886134a3565b506000612210308484612e6e565b90506122266001600160a01b0384168a83613bd2565b6001600160a01b0383166000908152601260205260408120600201805483929061225190849061506e565b90915550506000998a52601060205260408a208a8155600181018b905560020180546001600160a01b031916905591999197509095505050505050565b60095460ff166122b05760405162461bcd60e51b815260040161115590614ee7565b600260085414156122d35760405162461bcd60e51b815260040161115590614f7e565b60026008556122e1336133b3565b80156122fd5750336122f285612414565b6001600160a01b0316145b61233b5760405162461bcd60e51b815260206004820152600f60248201526e496e76616c6964207472616e63686560881b6044820152606401611155565b611aa6858585846132f8565b60038181548110611bee57600080fd5b6000818152601060205260408120805460195483906123789061271061506e565b60028401548454600088815260146020526040812054939450926123a6926001600160a01b03169190613083565b9050828111156123fd576127106123bd838561504f565b6123c7919061503b565b6127106123d4848461504f565b6123de919061503b565b6123e89085615023565b6123f2919061506e565b945050505050611012565b935061101292505050565b6060611023600c613bc5565b6000806124417f0000000000000000000000000000000000000000000000000000000000000000846150cc565b6000818152600760205260409020549091506001600160a01b031680611cf757606960009081526020527f366a7b92acda364086cc991f618bf9f10b629ec0f7ae94543f96b691b69ec9925460405163043b4d2f60e51b8152600481018490526001600160a01b0390911690638769a5e09060240160206040518083038186803b1580156124ce57600080fd5b505afa1580156124e2573d6000803e3d6000fd5b505050506040513d601f19601f8201168201806040525081019061250691906148cb565b949350505050565b6060611023600e613bc5565b60606002805480602002602001604051908101604052809291908181526020018280548015611b835760200282019190600052602060002090815481526020019060010190808311611b6f575050505050905090565b6001600160a01b038082166000908152601360205260408082205490516370a0823160e01b815291921690819063eab89a5a9082906370a08231906125b9903090600401614d2f565b60206040518083038186803b1580156125d157600080fd5b505afa1580156125e5573d6000803e3d6000fd5b505050506040513d601f19601f820116820180604052508101906126099190614adc565b6040518263ffffffff1660e01b815260040161262791815260200190565b60206040518083038186803b15801561263f57600080fd5b505afa158015612653573d6000803e3d6000fd5b505050506040513d601f19601f82011682018060405250810190611cf79190614adc565b60606005805480602002602001604051908101604052809291908181526020018280548015611b835760200282019190600052602060002090815481526020019060010190808311611b6f575050505050905090565b6001600160a01b039081166000908152601360205260409020541690565b6000600260085414156127105760405162461bcd60e51b815260040161115590614f7e565b600260085561271e336133b3565b806127aa575061272d84612414565b6001600160a01b0316632972b0f033866040518363ffffffff1660e01b815260040161275a929190614d5d565b60206040518083038186803b15801561277257600080fd5b505afa158015612786573d6000803e3d6000fd5b505050506040513d601f19601f820116820180604052508101906127aa9190614aa4565b6127c65760405162461bcd60e51b815260040161115590614fdd565b6127d18484846134a3565b6001600855949350505050565b60006127e982610e65565b6114c4906000615023565b60008060006128038686612a08565b92506128206128118761282f565b61281a88612357565b86612adb565b93979096509294509192505050565b6000908152601060205260409020600201546001600160a01b031690565b60095460ff1661286f5760405162461bcd60e51b815260040161115590614ee7565b33612878612d6a565b6001600160a01b0316148061289c575033612891612dfd565b6001600160a01b0316145b806128b65750336128ab613c7e565b6001600160a01b0316145b6129115760405162461bcd60e51b81526020600482015260386024820152600080516020615122833981519152604482015277391037b91030baba3437b934bd32b2103234b9b0b13632b960411b6064820152608401611155565b60005b8061291f600e612d60565b11156129fa576000612932600e83613077565b9050600061293f82612570565b9050600061294b6132c0565b9050612958818484612e6e565b5061296e6001600160a01b038416826000613ce2565b6129846001600160a01b03841682600019613ce2565b60405163269974d160e21b81526001600160a01b03821690639a65d344906129b29088908790600401614d43565b600060405180830381600087803b1580156129cc57600080fd5b505af11580156129e0573d6000803e3d6000fd5b5050505050505080806129f2906150b1565b915050612914565b50506009805460ff19169055565b600082815260106020526040812061250681601284612a268861282f565b6001600160a01b03166001600160a01b0316815260200190815260200160002085613df4565b33612a55612d6a565b6001600160a01b03161480612a79575033612a6e612dfd565b6001600160a01b0316145b612a955760405162461bcd60e51b815260040161115590614e9d565b806127101015612ad65760405162461bcd60e51b815260206004820152600c60248201526b08ccaca40e8dede40d0d2ced60a31b6044820152606401611155565b601955565b6001600160a01b0380841660009081526006602090815260408083208585168452909152812054909182911680612b9457612b1461325e565b6001600160a01b0316635e73a03487866040518363ffffffff1660e01b8152600401612b41929190614d43565b60206040518083038186803b158015612b5957600080fd5b505afa158015612b6d573d6000803e3d6000fd5b505050506040513d601f19601f82011682018060405250810190612b9191906148cb565b90505b6040516313f3552960e21b81526001600160a01b03821690634fcd54a490612bc490899089908990600401614d76565b604080518083038186803b158015612bdb57600080fd5b505afa158015612bef573d6000803e3d6000fd5b505050506040513d601f19601f82011682018060405250810190612c139190614bce565b9097909650945050505050565b6001600160a01b038084166000908152600660209081526040808320858516845290915281205490911680612cd757612c5761325e565b6001600160a01b0316635e73a03486856040518363ffffffff1660e01b8152600401612c84929190614d43565b60206040518083038186803b158015612c9c57600080fd5b505afa158015612cb0573d6000803e3d6000fd5b505050506040513d601f19601f82011682018060405250810190612cd491906148cb565b90505b6040516323aaad6360e21b81526001600160a01b03821690638eaab58c90612d0790889088908890600401614d76565b60206040518083038186803b158015612d1f57600080fd5b505afa158015612d33573d6000803e3d6000fd5b505050506040513d601f19601f82011682018060405250810190612d579190614adc565b95945050505050565b60006114c4825490565b60007f00000000000000000000000000000000000000000000000000000000000000006001600160a01b0316638da5cb5b6040518163ffffffff1660e01b815260040160206040518083038186803b158015612dc557600080fd5b505afa158015612dd9573d6000803e3d6000fd5b505050506040513d601f19601f8201168201806040525081019061102391906148cb565b60007f00000000000000000000000000000000000000000000000000000000000000006001600160a01b031663c34c08e56040518163ffffffff1660e01b8152600401602060405180830381600087803b158015612e5a57600080fd5b505af1158015612dd9573d6000803e3d6000fd5b60006001600160a01b038416612e965760405162461bcd60e51b815260040161115590614f4a565b7f00000000000000000000000000000000000000000000000000000000000000006001600160a01b0316836001600160a01b031614612ee75760405162461bcd60e51b815260040161115590614fb5565b6001600160a01b03838116600090815260136020526040808220549051636ec6726b60e11b815260048101869052921691829063dd8ce4d69060240160206040518083038186803b158015612f3b57600080fd5b505afa158015612f4f573d6000803e3d6000fd5b505050506040513d601f19601f82011682018060405250810190612f739190614adc565b604051632e1a7d4d60e01b81526004810182905290915047906001600160a01b03841690632e1a7d4d90602401600060405180830381600087803b158015612fba57600080fd5b505af1158015612fce573d6000803e3d6000fd5b5050505060008147612fe0919061506e565b90507f00000000000000000000000000000000000000000000000000000000000000006001600160a01b031663d0e30db0826040518263ffffffff1660e01b81526004016000604051808303818588803b15801561303d57600080fd5b505af1158015613051573d6000803e3d6000fd5b5061306c935050506001600160a01b03891690508983613348565b979650505050505050565b6000611cf78383613f0e565b6000818361309086611408565b61309a919061504f565b612506919061503b565b606660009081526020527f422cccb7cea5c0e46f340bb7b21b81debac329f72e31669c20ff0f3a05cc2b5b546001600160a01b031690565b6000806130e98584613f46565b604051630576cbc360e41b81529091506001600160a01b0382169063576cbc309061311c90889088908890600401614d76565b602060405180830381600087803b15801561313657600080fd5b505af1158015612d33573d6000803e3d6000fd5b60405163f0723d9760e01b81526000906001600160a01b037f0000000000000000000000000000000000000000000000000000000000000000169063f0723d979061319d9085906103eb90600401614d5d565b60206040518083038186803b1580156131b557600080fd5b505afa1580156131c9573d6000803e3d6000fd5b505050506040513d601f19601f820116820180604052508101906114c49190614aa4565b7f00000000000000000000000000000000000000000000000000000000000000006001600160a01b0316836001600160a01b03161461323e5760405162461bcd60e51b815260040161115590614fb5565b6132538361324e838501856148af565b613655565b61156f838383613ffa565b606a60009081526020527ff3261457f4fd0b7c00a1511877ab27b74183ac470be8db3a7ecdc64335f6f979546001600160a01b031690565b6000611cf7836001600160a01b03841661404d565b6000611cf7836001600160a01b03841661416a565b606860009081526020527faa071f48f62aaaa1f6320aaa7bd2ad2d552d05160892c14d699d38c9920d5f99546001600160a01b031690565b6001600160a01b03821660009081526012602090815260408083208054878552601090935292206001015561332d84846141b4565b61334185858461333b611cfe565b89613b24565b5050505050565b61156f8363a9059cbb60e01b8484604051602401613367929190614d5d565b60408051601f198184030181529190526020810180516001600160e01b03166001600160e01b031990931692909217909152614234565b6000611cf7836001600160a01b038416614306565b6001600160a01b0316600090815260016020818152604080842092845291905290205460ff1690565b6000848152601060205260408120906133f48661282f565b90506134018685856134a3565b506134148561340f88612357565b61431e565b9450613421838287612e6e565b5084826000016000828254613436919061506e565b90915550506001600160a01b03811660009081526012602052604081206002810180549192889261346890849061506e565b9091555050600183015481541115613494578581600101600082825461348e919061506e565b90915550505b61195a87838560000154614336565b60008381526010602052604081208054156135db5760028101546001600160a01b03166000818152601260205260408120906134de88612357565b845460008a81526014602052604081205492935090916135019086908490613083565b9050600083821161351357600061351d565b61351d848361506e565b6001600160a01b03871660009081526016602090815260408083205460159092529091205491925061355191889190613083565b61355b9082615023565b6001600160a01b03871660009081526016602052604081209190915561358087611408565b6001600160a01b03881660009081526015602090815260408083208490558f835260149091529020819055600287015490915084906135c0908790615023565b6135ca919061506e565b600290960195909555505050835550505b506000949350505050565b60008060006135f58685613f46565b60405163442fd02b60e11b81529091506001600160a01b0382169063885fa0569061362890899089908990600401614d76565b6040805180830381600087803b15801561364157600080fd5b505af1158015612bef573d6000803e3d6000fd5b6001600160a01b038083166000908152601360205260409020541680156139fa576040516370a0823160e01b81526000906001600160a01b038516906370a08231906136a5903090600401614d2f565b60206040518083038186803b1580156136bd57600080fd5b505afa1580156136d1573d6000803e3d6000fd5b505050506040513d601f19601f820116820180604052508101906136f59190614adc565b6040516370a0823160e01b81529091506001600160a01b03831690632e1a7d4d9082906370a082319061372c903090600401614d2f565b60206040518083038186803b15801561374457600080fd5b505afa158015613758573d6000803e3d6000fd5b505050506040513d601f19601f8201168201806040525081019061377c9190614adc565b6040518263ffffffff1660e01b815260040161379a91815260200190565b600060405180830381600087803b1580156137b457600080fd5b505af11580156137c8573d6000803e3d6000fd5b50505050600081856001600160a01b03166370a08231306040518263ffffffff1660e01b81526004016137fb9190614d2f565b60206040518083038186803b15801561381357600080fd5b505afa158015613827573d6000803e3d6000fd5b505050506040513d601f19601f8201168201806040525081019061384b9190614adc565b613855919061506e565b60405163b6b55f2560e01b8152600481018290529091506001600160a01b0385169063b6b55f2590602401600060405180830381600087803b15801561389a57600080fd5b505af11580156138ae573d6000803e3d6000fd5b505060405163755c4d2d60e11b8152670de0b6b3a764000060048201526001600160a01b038616925063eab89a5a915060240160206040518083038186803b1580156138f957600080fd5b505afa15801561390d573d6000803e3d6000fd5b505050506040513d601f19601f820116820180604052508101906139319190614adc565b6001600160a01b038681166000908152601760205260409081902054905163755c4d2d60e11b8152670de0b6b3a76400006004820152909187169063eab89a5a9060240160206040518083038186803b15801561398d57600080fd5b505afa1580156139a1573d6000803e3d6000fd5b505050506040513d601f19601f820116820180604052508101906139c59190614adc565b6139cf919061504f565b6139d9919061503b565b6001600160a01b03861660009081526017602052604090205550613ac29050565b6001600160a01b038381166000908152601360205260409081902080546001600160a01b03191692851692831790555163755c4d2d60e11b8152670de0b6b3a7640000600482015263eab89a5a9060240160206040518083038186803b158015613a6357600080fd5b505afa158015613a77573d6000803e3d6000fd5b505050506040513d601f19601f82011682018060405250810190613a9b9190614adc565b6001600160a01b038416600090815260176020908152604080832084905560159091529020555b60408051818152600c818301526b79616b20737472617465677960a01b60608201526001600160a01b038516602082015290517fbd64fae90eab1019a6c354538cfa598ad3d642c5b1bc8a8613bcb716723fa2d79181900360800190a1505050565b6000613b2f8561282f565b9050613b3c8584846134a3565b50613b48868286614356565b600086815260106020526040902054909450613b648582615023565b6000878152601060209081526040808320939093556001600160a01b03851682526012905290812060028101805491928892613ba1908490615023565b90915550613bbb90508784613bb68986615023565b614336565b5050505050505050565b60606000611cf783614626565b600081846001600160a01b031663dd62ed3e30866040518363ffffffff1660e01b8152600401613c03929190614d43565b60206040518083038186803b158015613c1b57600080fd5b505afa158015613c2f573d6000803e3d6000fd5b505050506040513d601f19601f82011682018060405250810190613c539190614adc565b613c5d9190615023565b905061118f8463095ea7b360e01b8584604051602401613367929190614d5d565b60405163b4ed0b6d60e01b81526103e960048201526000907f00000000000000000000000000000000000000000000000000000000000000006001600160a01b03169063b4ed0b6d9060240160206040518083038186803b158015612dc557600080fd5b801580613d6a5750604051636eb1769f60e11b81526001600160a01b0384169063dd62ed3e90613d189030908690600401614d43565b60206040518083038186803b158015613d3057600080fd5b505afa158015613d44573d6000803e3d6000fd5b505050506040513d601f19601f82011682018060405250810190613d689190614adc565b155b613dd55760405162461bcd60e51b815260206004820152603660248201527f5361666545524332303a20617070726f76652066726f6d206e6f6e2d7a65726f60448201527520746f206e6f6e2d7a65726f20616c6c6f77616e636560501b6064820152608401611155565b61156f8363095ea7b360e01b8484604051602401613367929190614d5d565b6000613dfe611cfe565b6001600160a01b0316826001600160a01b031614613e555760405162461bcd60e51b815260206004820152601460248201527357726f6e67207969656c642063757272656e637960601b6044820152606401611155565b6001840154835484911015613f0457600081866001015481548110613e8a57634e487b7160e01b600052603260045260246000fd5b90600052602060002001548260018480549050613ea7919061506e565b81548110613ec557634e487b7160e01b600052603260045260246000fd5b9060005260206000200154613eda919061506e565b9050600160401b818760000154613ef1919061504f565b613efb919061503b565b92505050611cf7565b6000915050611cf7565b6000826000018281548110613f3357634e487b7160e01b600052603260045260246000fd5b9060005260206000200154905092915050565b6001600160a01b038083166000908152600660209081526040808320858516845290915290205416806114c457613f7b61325e565b6001600160a01b0316631757616884846040518363ffffffff1660e01b8152600401613fa8929190614d43565b602060405180830381600087803b158015613fc257600080fd5b505af1158015613fd6573d6000803e3d6000fd5b505050506040513d601f19601f82011682018060405250810190611cf791906148cb565b614005600a846132ab565b50614011600c84613296565b5061401d600e846132ab565b506001600160a01b03831660009081526012602052604090206127106004820155426003909101556119016132c0565b6000818152600183016020526040812054801561416057600061407160018361506e565b85549091506000906140859060019061506e565b90508181146141065760008660000182815481106140b357634e487b7160e01b600052603260045260246000fd5b90600052602060002001549050808760000184815481106140e457634e487b7160e01b600052603260045260246000fd5b6000918252602080832090910192909255918252600188019052604090208390555b855486908061412557634e487b7160e01b600052603160045260246000fd5b6001900381819060005260206000200160009055905585600101600086815260200190815260200160002060009055600193505050506114c4565b60009150506114c4565b60006141768383614306565b6141ac575081546001818101845560008481526020808220909301849055845484825282860190935260409020919091556114c4565b5060006114c4565b6141bf600a8261339e565b6142035760405162461bcd60e51b81526020600482015260156024820152742737ba1030b71030b8383937bb32b2103a37b5b2b760591b6044820152606401611155565b60009182526010602052604090912060020180546001600160a01b0319166001600160a01b03909216919091179055565b6000614289826040518060400160405280602081526020017f5361666545524332303a206c6f772d6c6576656c2063616c6c206661696c6564815250856001600160a01b03166146829092919063ffffffff16565b80519091501561156f57808060200190518101906142a79190614aa4565b61156f5760405162461bcd60e51b815260206004820152602a60248201527f5361666545524332303a204552433230206f7065726174696f6e20646964206e6044820152691bdd081cdd58d8d9595960b21b6064820152608401611155565b60009081526001919091016020526040902054151590565b60008183111561432f5750806114c4565b50816114c4565b61433f82611408565b600093845260146020526040909320929092555050565b60007f00000000000000000000000000000000000000000000000000000000000000006001600160a01b0316836001600160a01b0316146143a95760405162461bcd60e51b815260040161115590614fb5565b6143be6001600160a01b038416853085614691565b604051632e1a7d4d60e01b8152600481018390527f00000000000000000000000000000000000000000000000000000000000000006001600160a01b031690632e1a7d4d90602401600060405180830381600087803b15801561442057600080fd5b505af1158015614434573d6000803e3d6000fd5b505050506001600160a01b038381166000908152601360205260408082205490516370a0823160e01b815292169182906370a0823190614478903090600401614d2f565b60206040518083038186803b15801561449057600080fd5b505afa1580156144a4573d6000803e3d6000fd5b505050506040513d601f19601f820116820180604052508101906144c89190614adc565b9050816001600160a01b031663d0e30db0856040518263ffffffff1660e01b81526004016000604051808303818588803b15801561450557600080fd5b505af1158015614519573d6000803e3d6000fd5b50506040516370a0823160e01b81526001600160a01b038616935063eab89a5a925084915083906370a0823190614554903090600401614d2f565b60206040518083038186803b15801561456c57600080fd5b505afa158015614580573d6000803e3d6000fd5b505050506040513d601f19601f820116820180604052508101906145a49190614adc565b6145ae919061506e565b6040518263ffffffff1660e01b81526004016145cc91815260200190565b60206040518083038186803b1580156145e457600080fd5b505afa1580156145f8573d6000803e3d6000fd5b505050506040513d601f19601f8201168201806040525081019061461c9190614adc565b9695505050505050565b60608160000180548060200260200160405190810160405280929190818152602001828054801561467657602002820191906000526020600020905b815481526020019060010190808311614662575b50505050509050919050565b606061250684846000856146c9565b6040516001600160a01b038085166024830152831660448201526064810182905261118f9085906323b872dd60e01b90608401613367565b60608247101561472a5760405162461bcd60e51b815260206004820152602660248201527f416464726573733a20696e73756666696369656e742062616c616e636520666f6044820152651c8818d85b1b60d21b6064820152608401611155565b843b6147785760405162461bcd60e51b815260206004820152601d60248201527f416464726573733a2063616c6c20746f206e6f6e2d636f6e74726163740000006044820152606401611155565b600080866001600160a01b031685876040516147949190614d13565b60006040518083038185875af1925050503d80600081146147d1576040519150601f19603f3d011682016040523d82523d6000602084013e6147d6565b606091505b509150915061306c828286606083156147f0575081611cf7565b8251156148005782518084602001fd5b8160405162461bcd60e51b81526004016111559190614e8a565b60405180610180016040528060006001600160a01b0316815260200160006001600160a01b03168152602001600081526020016000815260200160008152602001600081526020016000801916815260200160008152602001600081526020016000600281111561489b57634e487b7160e01b600052602160045260246000fd5b815260006020820181905260409091015290565b6000602082840312156148c0578081fd5b8135611cf78161510c565b6000602082840312156148dc578081fd5b8151611cf78161510c565b600080604083850312156148f9578081fd5b82356149048161510c565b915060208301356149148161510c565b809150509250929050565b600080600060408486031215614933578081fd5b833561493e8161510c565b925060208401356001600160401b0380821115614959578283fd5b818601915086601f83011261496c578283fd5b81358181111561497a578384fd5b87602082850101111561498b578384fd5b6020830194508093505050509250925092565b600080604083850312156149b0578182fd5b82356149bb8161510c565b946020939093013593505050565b6000806000606084860312156149dd578283fd5b83356149e88161510c565b92506020840135915060408401356149ff8161510c565b809150509250925092565b600080600080600060a08688031215614a21578081fd5b8535614a2c8161510c565b9450602086013593506040860135614a438161510c565b94979396509394606081013594506080013592915050565b60008060008060808587031215614a70578384fd5b8435614a7b8161510c565b935060208501359250604085013591506060850135614a998161510c565b939692955090935050565b600060208284031215614ab5578081fd5b81518015158114611cf7578182fd5b600060208284031215614ad5578081fd5b5035919050565b600060208284031215614aed578081fd5b5051919050565b60008060408385031215614b06578182fd5b8235915060208301356149148161510c565b600080600060608486031215614b2c578283fd5b833592506020840135614b3e8161510c565b915060408401356149ff8161510c565b60008060008060808587031215614b63578182fd5b843593506020850135614b758161510c565b92506040850135614b858161510c565b91506060850135614a998161510c565b600080600080600060a08688031215614bac578283fd5b853594506020860135614bbe8161510c565b93506040860135614a438161510c565b60008060408385031215614be0578182fd5b505080516020909101519092909150565b60008060008060808587031215614c06578182fd5b84359350602085013592506040850135614b858161510c565b6001600160a01b03169052565b60008151808452614c44816020860160208601615085565b601f01601f19169290920160200192915050565b60038110614c7657634e487b7160e01b600052602160045260246000fd5b9052565b614c85828251614c1f565b6020810151614c976020840182614c1f565b5060408101516040830152606081015160608301526080810151608083015260a081015160a083015260c081015160c083015260e081015160e083015261010080820151818401525061012080820151614cf382850182614c58565b505061014081810151908301526101608082015161118f82850182614c1f565b60008251614d25818460208701615085565b9190910192915050565b6001600160a01b0391909116815260200190565b6001600160a01b0392831681529116602082015260400190565b6001600160a01b03929092168252602082015260400190565b6001600160a01b0393841681526020810192909252909116604082015260600190565b6020808252825182820181905260009190848201906040850190845b81811015614dda5783516001600160a01b031683529284019291840191600101614db5565b50909695505050505050565b6020808252825182820181905260009190848201906040850190845b81811015614dda57614e15838551614c7a565b928401926101809290920191600101614e02565b6020808252825182820181905260009190848201906040850190845b81811015614dda57835183529284019291840191600101614e45565b60008315158252604060208301526125066040830184614c2c565b602081016114c48284614c58565b600060208252611cf76020830184614c2c565b6020808252602a908201527f526f6c65733a2063616c6c6572206973206e6f7420746865206f776e6572206f604082015269391032bc32b1baba37b960b11b606082015260800190565b6020808252601690820152755374726174656779206973206e6f742061637469766560501b604082015260600190565b6020808252601990820152784e6f7420617574686f72697a656420746f206d69677261746560381b604082015260600190565b6020808252601a9082015279446f6e27742073656e6420746f207a65726f206164647265737360301b604082015260600190565b6020808252601f908201527f5265656e7472616e637947756172643a207265656e7472616e742063616c6c00604082015260600190565b6020808252600e908201526d09edcd8f240ccdee440ae82ac82b60931b604082015260600190565b6020808252601f908201527f4e6f7420617574686f72697a656420746f20636f6c6c656374207969656c6400604082015260600190565b61018081016114c48284614c7a565b60008219821115615036576150366150e0565b500190565b60008261504a5761504a6150f6565b500490565b6000816000190483118215151615615069576150696150e0565b500290565b600082821015615080576150806150e0565b500390565b60005b838110156150a0578181015183820152602001615088565b8381111561118f5750506000910152565b60006000198214156150c5576150c56150e0565b5060010190565b6000826150db576150db6150f6565b500690565b634e487b7160e01b600052601160045260246000fd5b634e487b7160e01b600052601260045260246000fd5b6001600160a01b038116811461217857600080fdfe43616c6c6572206973206e6f7420746865206f776e65722c206578656375746fa2646970667358221220dbb83d37c20598de5c1b7ef1968c92e189be89ebf33c2f4cba89776fc7b762ee64736f6c63430008030033405787fa12a823e0f2b7631cc41b3ba8828b3321ca811111fa75cd3aa3bb5ace",
  "linkReferences": {},
  "deployedLinkReferences": {}
}