{
  "_format": "hh-sol-artifact-1",
  "contractName": "Roles",
  "sourceName": "contracts/roles/Roles.sol",
  "abi": [
    {
      "inputs": [
        {
          "internalType": "address",
          "name": "targetOwner",
          "type": "address"
        }
      ],
      "stateMutability": "nonpayable",
      "type": "constructor"
    },
    {
      "anonymous": false,
      "inputs": [
        {
          "indexed": true,
          "internalType": "uint256",
          "name": "character",
          "type": "uint256"
        },
        {
          "indexed": false,
          "internalType": "address",
          "name": "playerBefore",
          "type": "address"
        },
        {
          "indexed": false,
          "internalType": "address",
          "name": "playerNew",
          "type": "address"
        }
      ],
      "name": "CharacterAssigned",
      "type": "event"
    },
    {
      "anonymous": false,
      "inputs": [
        {
          "indexed": true,
          "internalType": "address",
          "name": "previousOwner",
          "type": "address"
        },
        {
          "indexed": true,
          "internalType": "address",
          "name": "newOwner",
          "type": "address"
        }
      ],
      "name": "OwnershipTransferred",
      "type": "event"
    },
    {
      "anonymous": false,
      "inputs": [
        {
          "indexed": true,
          "internalType": "uint256",
          "name": "role",
          "type": "uint256"
        },
        {
          "indexed": false,
          "internalType": "address",
          "name": "player",
          "type": "address"
        }
      ],
      "name": "RoleGiven",
      "type": "event"
    },
    {
      "anonymous": false,
      "inputs": [
        {
          "indexed": true,
          "internalType": "uint256",
          "name": "role",
          "type": "uint256"
        },
        {
          "indexed": false,
          "internalType": "address",
          "name": "player",
          "type": "address"
        }
      ],
      "name": "RoleRemoved",
      "type": "event"
    },
    {
      "inputs": [],
      "name": "executor",
      "outputs": [
        {
          "internalType": "address",
          "name": "exec",
          "type": "address"
        }
      ],
      "stateMutability": "nonpayable",
      "type": "function"
    },
    {
      "inputs": [
        {
          "internalType": "uint256",
          "name": "role",
          "type": "uint256"
        },
        {
          "internalType": "address",
          "name": "actor",
          "type": "address"
        }
      ],
      "name": "giveRole",
      "outputs": [],
      "stateMutability": "nonpayable",
      "type": "function"
    },
    {
      "inputs": [
        {
          "internalType": "uint256",
          "name": "",
          "type": "uint256"
        }
      ],
      "name": "mainCharacters",
      "outputs": [
        {
          "internalType": "address",
          "name": "",
          "type": "address"
        }
      ],
      "stateMutability": "view",
      "type": "function"
    },
    {
      "inputs": [],
      "name": "owner",
      "outputs": [
        {
          "internalType": "address",
          "name": "",
          "type": "address"
        }
      ],
      "stateMutability": "view",
      "type": "function"
    },
    {
      "inputs": [
        {
          "internalType": "uint256",
          "name": "role",
          "type": "uint256"
        },
        {
          "internalType": "address",
          "name": "actor",
          "type": "address"
        }
      ],
      "name": "removeRole",
      "outputs": [],
      "stateMutability": "nonpayable",
      "type": "function"
    },
    {
      "inputs": [],
      "name": "renounceOwnership",
      "outputs": [],
      "stateMutability": "nonpayable",
      "type": "function"
    },
    {
      "inputs": [
        {
          "internalType": "address",
          "name": "",
          "type": "address"
        },
        {
          "internalType": "uint256",
          "name": "",
          "type": "uint256"
        }
      ],
      "name": "roles",
      "outputs": [
        {
          "internalType": "bool",
          "name": "",
          "type": "bool"
        }
      ],
      "stateMutability": "view",
      "type": "function"
    },
    {
      "inputs": [
        {
          "internalType": "uint256",
          "name": "role",
          "type": "uint256"
        },
        {
          "internalType": "address",
          "name": "actor",
          "type": "address"
        }
      ],
      "name": "setMainCharacter",
      "outputs": [],
      "stateMutability": "nonpayable",
      "type": "function"
    },
    {
      "inputs": [
        {
          "internalType": "address",
          "name": "newOwner",
          "type": "address"
        }
      ],
      "name": "transferOwnership",
      "outputs": [],
      "stateMutability": "nonpayable",
      "type": "function"
    }
  ],
  "bytecode": "0x608060405234801561001057600080fd5b5060405161094838038061094883398101604081905261002f91610167565b61003833610047565b61004181610097565b50610195565b600080546001600160a01b038381166001600160a01b0319831681178455604051919092169283917f8be0079c531659141344cd1fd0a4f28419497f9722a3daafe3b4186f6b6457e09190a35050565b6000546001600160a01b031633146100f65760405162461bcd60e51b815260206004820181905260248201527f4f776e61626c653a2063616c6c6572206973206e6f7420746865206f776e657260448201526064015b60405180910390fd5b6001600160a01b03811661015b5760405162461bcd60e51b815260206004820152602660248201527f4f776e61626c653a206e6577206f776e657220697320746865207a65726f206160448201526564647265737360d01b60648201526084016100ed565b61016481610047565b50565b600060208284031215610178578081fd5b81516001600160a01b038116811461018e578182fd5b9392505050565b6107a4806101a46000396000f3fe608060405234801561001057600080fd5b50600436106100835760003560e01c806325398f83146100885780633238405b1461009d5780634d537769146100b0578063715018a6146100c35780638da5cb5b146100cb578063b4ed0b6d146100e9578063c34c08e514610112578063f0723d971461011a578063f2fde38b14610158575b600080fd5b61009b61009636600461068a565b61016b565b005b61009b6100ab36600461068a565b610252565b61009b6100be36600461068a565b61032b565b61009b610428565b6100d3610463565b6040516100e091906106b9565b60405180910390f35b6100d36100f7366004610672565b6002602052600090815260409020546001600160a01b031681565b6100d3610472565b610148610128366004610647565b600160209081526000928352604080842090915290825290205460ff1681565b60405190151581526020016100e0565b61009b610166366004610608565b610518565b33610174610463565b6001600160a01b0316148061019857503361018d610472565b6001600160a01b0316145b806101c557506103ea600052600260205260008051602061074f833981519152546001600160a01b031633145b6101ea5760405162461bcd60e51b81526004016101e190610702565b60405180910390fd5b817f6732a18397198a65db77f7fcdd9fac767f967948e84624b713ba25b2e6193b118260405161021a91906106b9565b60405180910390a26001600160a01b03166000908152600160208181526040808420948452939052919020805460ff19169091179055565b3361025b610463565b6001600160a01b0316148061027f575033610274610472565b6001600160a01b0316145b806102ac57506103ea600052600260205260008051602061074f833981519152546001600160a01b031633145b6102c85760405162461bcd60e51b81526004016101e190610702565b817f25d2876b58af8bf9f5061353680efd3429247d680d369d544446de4b3a686781826040516102f891906106b9565b60405180910390a26001600160a01b0316600090815260016020908152604080832093835292905220805460ff19169055565b33610334610463565b6001600160a01b0316148061035857503361034d610472565b6001600160a01b0316145b8061038557506103ea600052600260205260008051602061074f833981519152546001600160a01b031633145b6103a15760405162461bcd60e51b81526004016101e190610702565b6000828152600260209081526040918290205482516001600160a01b0391821681529084169181019190915283917f81a5078d0eebd72bf0df7b39859ebfc8795fb69fc69b48138005ab3f2ba3630c910160405180910390a260009182526002602052604090912080546001600160a01b0319166001600160a01b03909216919091179055565b33610431610463565b6001600160a01b0316146104575760405162461bcd60e51b81526004016101e1906106cd565b61046160006105b8565b565b6000546001600160a01b031690565b6103ea6000908152600260205260008051602061074f833981519152546001600160a01b0316801561051457806001600160a01b0316636b60a09b6040518163ffffffff1660e01b8152600401602060405180830381600087803b1580156104d957600080fd5b505af11580156104ed573d6000803e3d6000fd5b505050506040513d601f19601f82011682018060405250810190610511919061062b565b91505b5090565b33610521610463565b6001600160a01b0316146105475760405162461bcd60e51b81526004016101e1906106cd565b6001600160a01b0381166105ac5760405162461bcd60e51b815260206004820152602660248201527f4f776e61626c653a206e6577206f776e657220697320746865207a65726f206160448201526564647265737360d01b60648201526084016101e1565b6105b5816105b8565b50565b600080546001600160a01b038381166001600160a01b0319831681178455604051919092169283917f8be0079c531659141344cd1fd0a4f28419497f9722a3daafe3b4186f6b6457e09190a35050565b600060208284031215610619578081fd5b813561062481610739565b9392505050565b60006020828403121561063c578081fd5b815161062481610739565b60008060408385031215610659578081fd5b823561066481610739565b946020939093013593505050565b600060208284031215610683578081fd5b5035919050565b6000806040838503121561069c578182fd5b8235915060208301356106ae81610739565b809150509250929050565b6001600160a01b0391909116815260200190565b6020808252818101527f4f776e61626c653a2063616c6c6572206973206e6f7420746865206f776e6572604082015260600190565b6020808252601e908201527f526f6c65733a2063616c6c6572206973206e6f7420746865206f776e65720000604082015260600190565b6001600160a01b03811681146105b557600080fdfedbe5cd5858d8b8ba8ddaf6817490b63aa346482dc8fac5b92758c8d2c1b98153a26469706673582212200ca1beb72af14517176820e217d95b5ec6967a4c9288aa382fc2c6213661326a64736f6c63430008030033",
  "linkReferences": {},
  "deployedLinkReferences": {}
}