{
  "_format": "hh-sol-artifact-1",
  "contractName": "DependencyCleaner",
  "sourceName": "contracts/controller-actions/DependencyCleaner.sol",
  "abi": [
    {
      "inputs": [
        {
          "internalType": "address[]",
          "name": "_contracts",
          "type": "address[]"
        },
        {
          "internalType": "uint256[]",
          "name": "_roles2nix",
          "type": "uint256[]"
        },
        {
          "internalType": "address",
          "name": "_roles",
          "type": "address"
        }
      ],
      "stateMutability": "nonpayable",
      "type": "constructor"
    },
    {
      "anonymous": false,
      "inputs": [
        {
          "indexed": false,
          "internalType": "string",
          "name": "param",
          "type": "string"
        },
        {
          "indexed": false,
          "internalType": "uint256",
          "name": "value",
          "type": "uint256"
        }
      ],
      "name": "ParameterUpdated",
      "type": "event"
    },
    {
      "anonymous": false,
      "inputs": [
        {
          "indexed": false,
          "internalType": "string",
          "name": "param",
          "type": "string"
        },
        {
          "indexed": false,
          "internalType": "address",
          "name": "subject",
          "type": "address"
        },
        {
          "indexed": false,
          "internalType": "uint256",
          "name": "value",
          "type": "uint256"
        }
      ],
      "name": "SubjectParameterUpdated",
      "type": "event"
    },
    {
      "anonymous": false,
      "inputs": [
        {
          "indexed": false,
          "internalType": "string",
          "name": "param",
          "type": "string"
        },
        {
          "indexed": false,
          "internalType": "address",
          "name": "subject",
          "type": "address"
        }
      ],
      "name": "SubjectUpdated",
      "type": "event"
    },
    {
      "inputs": [
        {
          "internalType": "uint256",
          "name": "",
          "type": "uint256"
        }
      ],
      "name": "_charactersPlayed",
      "outputs": [
        {
          "internalType": "uint256",
          "name": "",
          "type": "uint256"
        }
      ],
      "stateMutability": "view",
      "type": "function"
    },
    {
      "inputs": [
        {
          "internalType": "uint256",
          "name": "",
          "type": "uint256"
        }
      ],
      "name": "_dependsOnCharacters",
      "outputs": [
        {
          "internalType": "uint256",
          "name": "",
          "type": "uint256"
        }
      ],
      "stateMutability": "view",
      "type": "function"
    },
    {
      "inputs": [
        {
          "internalType": "uint256",
          "name": "",
          "type": "uint256"
        }
      ],
      "name": "_dependsOnRoles",
      "outputs": [
        {
          "internalType": "uint256",
          "name": "",
          "type": "uint256"
        }
      ],
      "stateMutability": "view",
      "type": "function"
    },
    {
      "inputs": [
        {
          "internalType": "uint256",
          "name": "",
          "type": "uint256"
        }
      ],
      "name": "_rolesPlayed",
      "outputs": [
        {
          "internalType": "uint256",
          "name": "",
          "type": "uint256"
        }
      ],
      "stateMutability": "view",
      "type": "function"
    },
    {
      "inputs": [],
      "name": "charactersPlayed",
      "outputs": [
        {
          "internalType": "uint256[]",
          "name": "",
          "type": "uint256[]"
        }
      ],
      "stateMutability": "view",
      "type": "function"
    },
    {
      "inputs": [],
      "name": "dependsOnCharacters",
      "outputs": [
        {
          "internalType": "uint256[]",
          "name": "",
          "type": "uint256[]"
        }
      ],
      "stateMutability": "view",
      "type": "function"
    },
    {
      "inputs": [],
      "name": "dependsOnRoles",
      "outputs": [
        {
          "internalType": "uint256[]",
          "name": "",
          "type": "uint256[]"
        }
      ],
      "stateMutability": "view",
      "type": "function"
    },
    {
      "inputs": [],
      "name": "execute",
      "outputs": [],
      "stateMutability": "nonpayable",
      "type": "function"
    },
    {
      "inputs": [
        {
          "internalType": "uint256",
          "name": "",
          "type": "uint256"
        }
      ],
      "name": "mainCharacterCache",
      "outputs": [
        {
          "internalType": "address",
          "name": "",
          "type": "address"
        }
      ],
      "stateMutability": "view",
      "type": "function"
    },
    {
      "inputs": [
        {
          "internalType": "address",
          "name": "",
          "type": "address"
        },
        {
          "internalType": "uint256",
          "name": "",
          "type": "uint256"
        }
      ],
      "name": "roleCache",
      "outputs": [
        {
          "internalType": "bool",
          "name": "",
          "type": "bool"
        }
      ],
      "stateMutability": "view",
      "type": "function"
    },
    {
      "inputs": [],
      "name": "roles",
      "outputs": [
        {
          "internalType": "contract Roles",
          "name": "",
          "type": "address"
        }
      ],
      "stateMutability": "view",
      "type": "function"
    },
    {
      "inputs": [],
      "name": "rolesPlayed",
      "outputs": [
        {
          "internalType": "uint256[]",
          "name": "",
          "type": "uint256[]"
        }
      ],
      "stateMutability": "view",
      "type": "function"
    },
    {
      "inputs": [
        {
          "internalType": "uint256",
          "name": "role",
          "type": "uint256"
        }
      ],
      "name": "updateMainCharacterCache",
      "outputs": [],
      "stateMutability": "nonpayable",
      "type": "function"
    },
    {
      "inputs": [
        {
          "internalType": "uint256",
          "name": "role",
          "type": "uint256"
        },
        {
          "internalType": "address",
          "name": "contr",
          "type": "address"
        }
      ],
      "name": "updateRoleCache",
      "outputs": [],
      "stateMutability": "nonpayable",
      "type": "function"
    }
  ],
  "bytecode": "0x60a06040523480156200001157600080fd5b5060405162000c1838038062000c18833981016040819052620000349162000287565b806001600160a01b0381166200009c5760405162461bcd60e51b815260206004820152602260248201527f506c656173652070726f766964652076616c696420726f6c6573206164647265604482015261737360f01b60648201526084015b60405180910390fd5b60601b6001600160601b0319166080528151835114620000ff5760405162461bcd60e51b815260206004820152601360248201527f4c656e6774687320646f6e2774206d6174636800000000000000000000000000604482015260640162000093565b82516200011490600690602086019062000134565b5081516200012a9060079060208501906200019e565b50505050620003d9565b8280548282559060005260206000209081019282156200018c579160200282015b828111156200018c57825182546001600160a01b0319166001600160a01b0390911617825560209092019160019091019062000155565b506200019a929150620001dc565b5090565b8280548282559060005260206000209081019282156200018c579160200282015b828111156200018c578251825591602001919060010190620001bf565b5b808211156200019a5760008155600101620001dd565b80516001600160a01b03811681146200020b57600080fd5b919050565b600082601f83011262000221578081fd5b815160206200023a62000234836200039d565b6200036a565b80838252828201915082860187848660051b89010111156200025a578586fd5b855b858110156200027a578151845292840192908401906001016200025c565b5090979650505050505050565b6000806000606084860312156200029c578283fd5b83516001600160401b0380821115620002b3578485fd5b818601915086601f830112620002c7578485fd5b81516020620002da62000234836200039d565b8083825282820191508286018b848660051b8901011115620002fa57898afd5b8996505b8487101562000327576200031281620001f3565b835260019690960195918301918301620002fe565b509189015191975090935050508082111562000341578384fd5b50620003508682870162000210565b9250506200036160408501620001f3565b90509250925092565b604051601f8201601f191681016001600160401b0381118282101715620003955762000395620003c3565b604052919050565b60006001600160401b03821115620003b957620003b9620003c3565b5060051b60200190565b634e487b7160e01b600052604160045260246000fd5b60805160601c610813620004056000396000818160d901528181610237015261030d01526108136000f3fe608060405234801561001057600080fd5b50600436106100ba5760003560e01c8063071060a6146100bf578063392f5f64146100d4578063447d52ba146101185780634a7a7f411461012b57806361461954146101405780636caa9c11146101485780637a1a04df146101695780637dad209b146101a7578063abcbc4fc146101af578063aeb38d8b146101c2578063bf184ea4146101d5578063dc94cb7d146101e8578063e8ea4fae146101f0578063e9c3f77d146101f8575b600080fd5b6100d26100cd366004610716565b610221565b005b6100fb7f000000000000000000000000000000000000000000000000000000000000000081565b6040516001600160a01b0390911681526020015b60405180910390f35b6100d261012636600461072e565b6102e7565b6101336103bf565b60405161010f919061075d565b6100d2610417565b61015b610156366004610716565b61051b565b60405190815260200161010f565b6101976101773660046106cb565b600160209081526000928352604080842090915290825290205460ff1681565b604051901515815260200161010f565b61013361053c565b61015b6101bd366004610716565b610592565b61015b6101d0366004610716565b6105a2565b61015b6101e3366004610716565b6105b2565b6101336105c2565b610133610618565b6100fb610206366004610716565b6000602081905290815260409020546001600160a01b031681565b60405163b4ed0b6d60e01b8152600481018290527f00000000000000000000000000000000000000000000000000000000000000006001600160a01b03169063b4ed0b6d9060240160206040518083038186803b15801561028157600080fd5b505afa158015610295573d6000803e3d6000fd5b505050506040513d601f19601f820116820180604052508101906102b991906106a8565b60009182526020829052604090912080546001600160a01b0319166001600160a01b03909216919091179055565b60405163f0723d9760e01b81526001600160a01b038281166004830152602482018490527f0000000000000000000000000000000000000000000000000000000000000000169063f0723d979060440160206040518083038186803b15801561034f57600080fd5b505afa158015610363573d6000803e3d6000fd5b505050506040513d601f19601f8201168201806040525081019061038791906106f6565b6001600160a01b0391909116600090815260016020908152604080832094835293905291909120805460ff1916911515919091179055565b6060600380548060200260200160405190810160405280929190818152602001828054801561040d57602002820191906000526020600020905b8154815260200190600101908083116103f9575b5050505050905090565b3360005b6006548110156104ff57816001600160a01b0316633238405b6007838154811061045557634e487b7160e01b600052603260045260246000fd5b90600052602060002001546006848154811061048157634e487b7160e01b600052603260045260246000fd5b60009182526020909120015460405160e084901b6001600160e01b031916815260048101929092526001600160a01b03166024820152604401600060405180830381600087803b1580156104d457600080fd5b505af11580156104e8573d6000803e3d6000fd5b5050505080806104f7906107a1565b91505061041b565b5061050c6006600061066e565b6105186007600061066e565b32ff5b6005818154811061052b57600080fd5b600091825260209091200154905081565b6060600480548060200260200160405190810160405280929190818152602001828054801561040d57602002820191906000526020600020908154815260200190600101908083116103f9575050505050905090565b6002818154811061052b57600080fd5b6004818154811061052b57600080fd5b6003818154811061052b57600080fd5b6060600280548060200260200160405190810160405280929190818152602001828054801561040d57602002820191906000526020600020908154815260200190600101908083116103f9575050505050905090565b6060600580548060200260200160405190810160405280929190818152602001828054801561040d57602002820191906000526020600020908154815260200190600101908083116103f9575050505050905090565b508054600082559060005260206000209081019061068c919061068f565b50565b5b808211156106a45760008155600101610690565b5090565b6000602082840312156106b9578081fd5b81516106c4816107c8565b9392505050565b600080604083850312156106dd578081fd5b82356106e8816107c8565b946020939093013593505050565b600060208284031215610707578081fd5b815180151581146106c4578182fd5b600060208284031215610727578081fd5b5035919050565b60008060408385031215610740578182fd5b823591506020830135610752816107c8565b809150509250929050565b6020808252825182820181905260009190848201906040850190845b8181101561079557835183529284019291840191600101610779565b50909695505050505050565b60006000198214156107c157634e487b7160e01b81526011600452602481fd5b5060010190565b6001600160a01b038116811461068c57600080fdfea2646970667358221220b4a94f9d904668f4e1c6451dc891caffac048bc5e244ea1fa2ecf4c6148b7b2564736f6c63430008030033",
  "linkReferences": {},
  "deployedLinkReferences": {}
}