{
  "_format": "hh-sol-artifact-1",
  "contractName": "Migrate",
  "sourceName": "contracts/Migrate.sol",
  "abi": [
    {
      "inputs": [
        {
          "internalType": "address",
          "name": "roles",
          "type": "address"
        }
      ],
      "stateMutability": "nonpayable",
      "type": "constructor"
    },
    {
      "anonymous": false,
      "inputs": [
        {
          "indexed": false,
          "internalType": "string",
          "name": "param",
          "type": "string"
        },
        {
          "indexed": false,
          "internalType": "uint256",
          "name": "value",
          "type": "uint256"
        }
      ],
      "name": "ParameterUpdated",
      "type": "event"
    },
    {
      "anonymous": false,
      "inputs": [
        {
          "indexed": false,
          "internalType": "string",
          "name": "param",
          "type": "string"
        },
        {
          "indexed": false,
          "internalType": "address",
          "name": "subject",
          "type": "address"
        },
        {
          "indexed": false,
          "internalType": "uint256",
          "name": "value",
          "type": "uint256"
        }
      ],
      "name": "SubjectParameterUpdated",
      "type": "event"
    },
    {
      "anonymous": false,
      "inputs": [
        {
          "indexed": false,
          "internalType": "string",
          "name": "param",
          "type": "string"
        },
        {
          "indexed": false,
          "internalType": "address",
          "name": "subject",
          "type": "address"
        }
      ],
      "name": "SubjectUpdated",
      "type": "event"
    },
    {
      "inputs": [
        {
          "internalType": "uint256",
          "name": "",
          "type": "uint256"
        }
      ],
      "name": "_charactersPlayed",
      "outputs": [
        {
          "internalType": "uint256",
          "name": "",
          "type": "uint256"
        }
      ],
      "stateMutability": "view",
      "type": "function"
    },
    {
      "inputs": [
        {
          "internalType": "uint256",
          "name": "",
          "type": "uint256"
        }
      ],
      "name": "_dependsOnCharacters",
      "outputs": [
        {
          "internalType": "uint256",
          "name": "",
          "type": "uint256"
        }
      ],
      "stateMutability": "view",
      "type": "function"
    },
    {
      "inputs": [
        {
          "internalType": "uint256",
          "name": "",
          "type": "uint256"
        }
      ],
      "name": "_dependsOnRoles",
      "outputs": [
        {
          "internalType": "uint256",
          "name": "",
          "type": "uint256"
        }
      ],
      "stateMutability": "view",
      "type": "function"
    },
    {
      "inputs": [
        {
          "internalType": "uint256",
          "name": "",
          "type": "uint256"
        }
      ],
      "name": "_rolesPlayed",
      "outputs": [
        {
          "internalType": "uint256",
          "name": "",
          "type": "uint256"
        }
      ],
      "stateMutability": "view",
      "type": "function"
    },
    {
      "inputs": [],
      "name": "charactersPlayed",
      "outputs": [
        {
          "internalType": "uint256[]",
          "name": "",
          "type": "uint256[]"
        }
      ],
      "stateMutability": "view",
      "type": "function"
    },
    {
      "inputs": [],
      "name": "dependsOnCharacters",
      "outputs": [
        {
          "internalType": "uint256[]",
          "name": "",
          "type": "uint256[]"
        }
      ],
      "stateMutability": "view",
      "type": "function"
    },
    {
      "inputs": [],
      "name": "dependsOnRoles",
      "outputs": [
        {
          "internalType": "uint256[]",
          "name": "",
          "type": "uint256[]"
        }
      ],
      "stateMutability": "view",
      "type": "function"
    },
    {
      "inputs": [
        {
          "internalType": "uint256",
          "name": "",
          "type": "uint256"
        }
      ],
      "name": "mainCharacterCache",
      "outputs": [
        {
          "internalType": "address",
          "name": "",
          "type": "address"
        }
      ],
      "stateMutability": "view",
      "type": "function"
    },
    {
      "inputs": [
        {
          "internalType": "uint256",
          "name": "trancheId",
          "type": "uint256"
        },
        {
          "internalType": "address",
          "name": "targetStrategy",
          "type": "address"
        }
      ],
      "name": "migratePosition",
      "outputs": [],
      "stateMutability": "nonpayable",
      "type": "function"
    },
    {
      "inputs": [
        {
          "internalType": "address",
          "name": "",
          "type": "address"
        },
        {
          "internalType": "address",
          "name": "",
          "type": "address"
        },
        {
          "internalType": "uint256",
          "name": "",
          "type": "uint256"
        },
        {
          "internalType": "bytes",
          "name": "",
          "type": "bytes"
        }
      ],
      "name": "onERC721Received",
      "outputs": [
        {
          "internalType": "bytes4",
          "name": "",
          "type": "bytes4"
        }
      ],
      "stateMutability": "nonpayable",
      "type": "function"
    },
    {
      "inputs": [
        {
          "internalType": "address",
          "name": "",
          "type": "address"
        },
        {
          "internalType": "uint256",
          "name": "",
          "type": "uint256"
        }
      ],
      "name": "roleCache",
      "outputs": [
        {
          "internalType": "bool",
          "name": "",
          "type": "bool"
        }
      ],
      "stateMutability": "view",
      "type": "function"
    },
    {
      "inputs": [],
      "name": "roles",
      "outputs": [
        {
          "internalType": "contract Roles",
          "name": "",
          "type": "address"
        }
      ],
      "stateMutability": "view",
      "type": "function"
    },
    {
      "inputs": [],
      "name": "rolesPlayed",
      "outputs": [
        {
          "internalType": "uint256[]",
          "name": "",
          "type": "uint256[]"
        }
      ],
      "stateMutability": "view",
      "type": "function"
    },
    {
      "inputs": [
        {
          "internalType": "uint256",
          "name": "role",
          "type": "uint256"
        }
      ],
      "name": "updateMainCharacterCache",
      "outputs": [],
      "stateMutability": "nonpayable",
      "type": "function"
    },
    {
      "inputs": [
        {
          "internalType": "uint256",
          "name": "role",
          "type": "uint256"
        },
        {
          "internalType": "address",
          "name": "contr",
          "type": "address"
        }
      ],
      "name": "updateRoleCache",
      "outputs": [],
      "stateMutability": "nonpayable",
      "type": "function"
    }
  ],
  "bytecode": "0x60a060405234801561001057600080fd5b5060405161160038038061160083398101604081905261002f9161015a565b6002805460018181018355600083905260697f405787fa12a823e0f2b7631cc41b3ba8828b3321ca811111fa75cd3aa3bb5ace9283015582548082018455606b9083015582548082018455606f908301558254808201845560779083015582549081019092556066910155806001600160a01b0381166101005760405162461bcd60e51b815260206004820152602260248201527f506c656173652070726f766964652076616c696420726f6c6573206164647265604482015261737360f01b606482015260840160405180910390fd5b60601b6001600160601b03191660805250600580546001808201835560008390527f036b6384b5eca791c62761152d0c79bb0604c104a5fb6f4eb0703f3154bb3db091820183905582549081019092556002910155610188565b60006020828403121561016b578081fd5b81516001600160a01b0381168114610181578182fd5b9392505050565b60805160601c61144c6101b460003960008181610120015281816102790152610340015261144c6000f3fe608060405234801561001057600080fd5b50600436106100c55760003560e01c8063071060a6146100ca578063150b7a02146100df578063392f5f641461011b578063447d52ba1461014f5780634a7a7f41146101625780636caa9c11146101775780637a1a04df146101985780637dad209b146101d6578063abcbc4fc146101de578063aeb38d8b146101f1578063bf184ea414610204578063ca29a13b14610217578063dc94cb7d1461022a578063e8ea4fae14610232578063e9c3f77d1461023a575b600080fd5b6100dd6100d83660046111e9565b610263565b005b6100fd6100ed366004611054565b630a85bd0160e11b949350505050565b6040516001600160e01b031990911681526020015b60405180910390f35b6101427f000000000000000000000000000000000000000000000000000000000000000081565b6040516101129190611264565b6100dd61015d366004611219565b610329565b61016a6103ff565b6040516101129190611291565b61018a6101853660046111e9565b610457565b604051908152602001610112565b6101c66101a636600461110f565b600160209081526000928352604080842090915290825290205460ff1681565b6040519015158152602001610112565b61016a610478565b61018a6101ec3660046111e9565b6104ce565b61018a6101ff3660046111e9565b6104de565b61018a6102123660046111e9565b6104ee565b6100dd610225366004611219565b6104fe565b61016a610c33565b61016a610c89565b6101426102483660046111e9565b6000602081905290815260409020546001600160a01b031681565b60405163b4ed0b6d60e01b8152600481018290527f00000000000000000000000000000000000000000000000000000000000000006001600160a01b03169063b4ed0b6d9060240160206040518083038186803b1580156102c357600080fd5b505afa1580156102d7573d6000803e3d6000fd5b505050506040513d601f19601f820116820180604052508101906102fb9190611038565b60009182526020829052604090912080546001600160a01b0319166001600160a01b03909216919091179055565b60405163f0723d9760e01b81526001600160a01b037f0000000000000000000000000000000000000000000000000000000000000000169063f0723d97906103779084908690600401611278565b60206040518083038186803b15801561038f57600080fd5b505afa1580156103a3573d6000803e3d6000fd5b505050506040513d601f19601f820116820180604052508101906103c7919061113a565b6001600160a01b0391909116600090815260016020908152604080832094835293905291909120805460ff1916911515919091179055565b6060600380548060200260200160405190810160405280929190818152602001828054801561044d57602002820191906000526020600020905b815481526020019060010190808311610439575b5050505050905090565b6005818154811061046757600080fd5b600091825260209091200154905081565b6060600480548060200260200160405190810160405280929190818152602001828054801561044d5760200282019190600052602060002090815481526020019060010190808311610439575050505050905090565b6002818154811061046757600080fd5b6004818154811061046757600080fd5b6003818154811061046757600080fd5b600061053b606960009081526020527f366a7b92acda364086cc991f618bf9f10b629ec0f7ae94543f96b691b69ec992546001600160a01b031690565b9050600061057a606660009081526020527f422cccb7cea5c0e46f340bb7b21b81debac329f72e31669c20ff0f3a05cc2b5b546001600160a01b031690565b6040516333ac5fff60e11b8152600481018690529091506000906001600160a01b03841690636758bffe9060240160206040518083038186803b1580156105c057600080fd5b505afa1580156105d4573d6000803e3d6000fd5b505050506040513d601f19601f820116820180604052508101906105f89190611038565b9050610635606b60009081526020527f2dc7a963308417ad45132da282495eb244f38a7db03940a4d808be607669c622546001600160a01b031690565b6001600160a01b0316816001600160a01b0316148061068a5750606f60009081526020527fd4a194d790fcc0f5af64ad0623a90db8616ce232c92824f4b3df27138fd65b44546001600160a01b038281169116145b6106d75760405162461bcd60e51b8152602060048201526019602482015278139bdd0818481b5a59dc985d18589b194818dbdb9d1c9858dd603a1b60448201526064015b60405180910390fd5b60405163291e486f60e01b81526004810186905281906000906001600160a01b0383169063291e486f906024016101206040518083038186803b15801561071d57600080fd5b505afa158015610731573d6000803e3d6000fd5b505050506040513d601f19601f82011682018060405250810190610755919061115a565b60608101516040516340c10f1960e01b81529192506001600160a01b038616916340c10f199161078a91309190600401611278565b600060405180830381600087803b1580156107a457600080fd5b505af11580156107b8573d6000803e3d6000fd5b5050505060c08101516060820151604051633cde1f7d60e11b8152600481018a9052602481019290925260448201523060648201526001600160a01b038316906379bc3efa90608401600060405180830381600087803b15801561081b57600080fd5b505af115801561082f573d6000803e3d6000fd5b5050505060808101516040516370a0823160e01b81526000906001600160a01b038316906370a0823190610867903090600401611264565b60206040518083038186803b15801561087f57600080fd5b505afa158015610893573d6000803e3d6000fd5b505050506040513d601f19601f820116820180604052508101906108b79190611201565b90506108cd6001600160a01b0383168983610cdf565b600061090a607760009081526020527f0268ef3855c7ede1fa90865cb7be57f1e39b20db2aafdd81fc63c1af98b87bcb546001600160a01b031690565b90506000816001600160a01b03166304c7e76786608001518c866103e88d6001600160a01b03166370a08231306040518263ffffffff1660e01b81526004016109539190611264565b60206040518083038186803b15801561096b57600080fd5b505afa15801561097f573d6000803e3d6000fd5b505050506040513d601f19601f820116820180604052508101906109a39190611201565b8b606001516109b2919061138f565b6109be906103e3611370565b6109c89190611350565b6040516001600160e01b031960e087901b1681526001600160a01b0394851660048201529390921660248401526044830152606482015230608482015260a401602060405180830381600087803b158015610a2257600080fd5b505af1158015610a36573d6000803e3d6000fd5b505050506040513d601f19601f82011682018060405250810190610a5a9190611201565b9050816001600160a01b03166342842e0e30886001600160a01b0316636352211e8f6040518263ffffffff1660e01b8152600401610a9a91815260200190565b60206040518083038186803b158015610ab257600080fd5b505afa158015610ac6573d6000803e3d6000fd5b505050506040513d601f19601f82011682018060405250810190610aea9190611038565b6040516001600160e01b031960e085901b1681526001600160a01b0392831660048201529116602482015260448101849052606401600060405180830381600087803b158015610b3957600080fd5b505af1158015610b4d573d6000803e3d6000fd5b50506040516370a0823160e01b81526001600160a01b038b169250639dc29fac9150309083906370a0823190610b87908490600401611264565b60206040518083038186803b158015610b9f57600080fd5b505afa158015610bb3573d6000803e3d6000fd5b505050506040513d601f19601f82011682018060405250810190610bd79190611201565b6040518363ffffffff1660e01b8152600401610bf4929190611278565b600060405180830381600087803b158015610c0e57600080fd5b505af1158015610c22573d6000803e3d6000fd5b505050505050505050505050505050565b6060600280548060200260200160405190810160405280929190818152602001828054801561044d5760200282019190600052602060002090815481526020019060010190808311610439575050505050905090565b6060600580548060200260200160405190810160405280929190818152602001828054801561044d5760200282019190600052602060002090815481526020019060010190808311610439575050505050905090565b604051636eb1769f60e11b81523060048201526001600160a01b038381166024830152600091839186169063dd62ed3e9060440160206040518083038186803b158015610d2b57600080fd5b505afa158015610d3f573d6000803e3d6000fd5b505050506040513d601f19601f82011682018060405250810190610d639190611201565b610d6d9190611338565b9050610dc58463095ea7b360e01b8584604051602401610d8e929190611278565b60408051601f198184030181529190526020810180516001600160e01b03166001600160e01b031990931692909217909152610dcb565b50505050565b6000610e20826040518060400160405280602081526020017f5361666545524332303a206c6f772d6c6576656c2063616c6c206661696c6564815250856001600160a01b0316610ea29092919063ffffffff16565b805190915015610e9d5780806020019051810190610e3e919061113a565b610e9d5760405162461bcd60e51b815260206004820152602a60248201527f5361666545524332303a204552433230206f7065726174696f6e20646964206e6044820152691bdd081cdd58d8d9595960b21b60648201526084016106ce565b505050565b6060610eb18484600085610ebb565b90505b9392505050565b606082471015610f1c5760405162461bcd60e51b815260206004820152602660248201527f416464726573733a20696e73756666696369656e742062616c616e636520666f6044820152651c8818d85b1b60d21b60648201526084016106ce565b610f2585610fea565b610f715760405162461bcd60e51b815260206004820152601d60248201527f416464726573733a2063616c6c20746f206e6f6e2d636f6e747261637400000060448201526064016106ce565b600080866001600160a01b03168587604051610f8d9190611248565b60006040518083038185875af1925050503d8060008114610fca576040519150601f19603f3d011682016040523d82523d6000602084013e610fcf565b606091505b5091509150610fdf828286610ff4565b979650505050505050565b803b15155b919050565b60608315611003575081610eb4565b8251156110135782518084602001fd5b8160405162461bcd60e51b81526004016106ce91906112d5565b8051610fef816113fe565b600060208284031215611049578081fd5b8151610eb4816113fe565b60008060008060808587031215611069578283fd5b8435611074816113fe565b9350602085810135611085816113fe565b93506040860135925060608601356001600160401b03808211156110a7578384fd5b818801915088601f8301126110ba578384fd5b8135818111156110cc576110cc6113e8565b6110de601f8201601f19168501611308565b915080825289848285010111156110f3578485fd5b8084840185840137810190920192909252939692955090935050565b60008060408385031215611121578182fd5b823561112c816113fe565b946020939093013593505050565b60006020828403121561114b578081fd5b81518015158114610eb4578182fd5b600061012080838503121561116d578182fd5b61117681611308565b9050825181526111886020840161102d565b602082015260408301516040820152606083015160608201526111ad6080840161102d565b608082015260a083015160a082015260c083015160c082015260e083015160e08201526101006111de81850161102d565b908201529392505050565b6000602082840312156111fa578081fd5b5035919050565b600060208284031215611212578081fd5b5051919050565b6000806040838503121561122b578182fd5b82359150602083013561123d816113fe565b809150509250929050565b6000825161125a8184602087016113a6565b9190910192915050565b6001600160a01b0391909116815260200190565b6001600160a01b03929092168252602082015260400190565b6020808252825182820181905260009190848201906040850190845b818110156112c9578351835292840192918401916001016112ad565b50909695505050505050565b60006020825282518060208401526112f48160408501602087016113a6565b601f01601f19169190910160400192915050565b604051601f8201601f191681016001600160401b0381118282101715611330576113306113e8565b604052919050565b6000821982111561134b5761134b6113d2565b500190565b60008261136b57634e487b7160e01b81526012600452602481fd5b500490565b600081600019048311821515161561138a5761138a6113d2565b500290565b6000828210156113a1576113a16113d2565b500390565b60005b838110156113c15781810151838201526020016113a9565b83811115610dc55750506000910152565b634e487b7160e01b600052601160045260246000fd5b634e487b7160e01b600052604160045260246000fd5b6001600160a01b038116811461141357600080fd5b5056fea264697066735822122052d9cbb663dc8a4d550b86ac45adfcea5f4f518fb4d0c5316f80184a3761243564736f6c63430008030033",
  "linkReferences": {},
  "deployedLinkReferences": {}
}