{
  "_format": "hh-sol-artifact-1",
  "contractName": "Tranche",
  "sourceName": "contracts/Tranche.sol",
  "abi": [
    {
      "inputs": [
        {
          "internalType": "string",
          "name": "_name",
          "type": "string"
        },
        {
          "internalType": "string",
          "name": "_symbol",
          "type": "string"
        },
        {
          "internalType": "address",
          "name": "_roles",
          "type": "address"
        }
      ],
      "stateMutability": "nonpayable",
      "type": "constructor"
    },
    {
      "anonymous": false,
      "inputs": [
        {
          "indexed": true,
          "internalType": "address",
          "name": "owner",
          "type": "address"
        },
        {
          "indexed": true,
          "internalType": "address",
          "name": "approved",
          "type": "address"
        },
        {
          "indexed": true,
          "internalType": "uint256",
          "name": "tokenId",
          "type": "uint256"
        }
      ],
      "name": "Approval",
      "type": "event"
    },
    {
      "anonymous": false,
      "inputs": [
        {
          "indexed": true,
          "internalType": "address",
          "name": "owner",
          "type": "address"
        },
        {
          "indexed": true,
          "internalType": "address",
          "name": "operator",
          "type": "address"
        },
        {
          "indexed": false,
          "internalType": "bool",
          "name": "approved",
          "type": "bool"
        }
      ],
      "name": "ApprovalForAll",
      "type": "event"
    },
    {
      "anonymous": false,
      "inputs": [
        {
          "indexed": false,
          "internalType": "string",
          "name": "param",
          "type": "string"
        },
        {
          "indexed": false,
          "internalType": "uint256",
          "name": "value",
          "type": "uint256"
        }
      ],
      "name": "ParameterUpdated",
      "type": "event"
    },
    {
      "anonymous": false,
      "inputs": [
        {
          "indexed": false,
          "internalType": "string",
          "name": "param",
          "type": "string"
        },
        {
          "indexed": false,
          "internalType": "address",
          "name": "subject",
          "type": "address"
        },
        {
          "indexed": false,
          "internalType": "uint256",
          "name": "value",
          "type": "uint256"
        }
      ],
      "name": "SubjectParameterUpdated",
      "type": "event"
    },
    {
      "anonymous": false,
      "inputs": [
        {
          "indexed": false,
          "internalType": "string",
          "name": "param",
          "type": "string"
        },
        {
          "indexed": false,
          "internalType": "address",
          "name": "subject",
          "type": "address"
        }
      ],
      "name": "SubjectUpdated",
      "type": "event"
    },
    {
      "anonymous": false,
      "inputs": [
        {
          "indexed": true,
          "internalType": "uint256",
          "name": "trancheId",
          "type": "uint256"
        }
      ],
      "name": "TrancheUpdated",
      "type": "event"
    },
    {
      "anonymous": false,
      "inputs": [
        {
          "indexed": true,
          "internalType": "address",
          "name": "from",
          "type": "address"
        },
        {
          "indexed": true,
          "internalType": "address",
          "name": "to",
          "type": "address"
        },
        {
          "indexed": true,
          "internalType": "uint256",
          "name": "tokenId",
          "type": "uint256"
        }
      ],
      "name": "Transfer",
      "type": "event"
    },
    {
      "inputs": [
        {
          "internalType": "uint256",
          "name": "",
          "type": "uint256"
        }
      ],
      "name": "_charactersPlayed",
      "outputs": [
        {
          "internalType": "uint256",
          "name": "",
          "type": "uint256"
        }
      ],
      "stateMutability": "view",
      "type": "function"
    },
    {
      "inputs": [
        {
          "internalType": "uint256",
          "name": "",
          "type": "uint256"
        }
      ],
      "name": "_containedIn",
      "outputs": [
        {
          "internalType": "uint256",
          "name": "",
          "type": "uint256"
        }
      ],
      "stateMutability": "view",
      "type": "function"
    },
    {
      "inputs": [
        {
          "internalType": "uint256",
          "name": "",
          "type": "uint256"
        }
      ],
      "name": "_dependsOnCharacters",
      "outputs": [
        {
          "internalType": "uint256",
          "name": "",
          "type": "uint256"
        }
      ],
      "stateMutability": "view",
      "type": "function"
    },
    {
      "inputs": [
        {
          "internalType": "uint256",
          "name": "",
          "type": "uint256"
        }
      ],
      "name": "_dependsOnRoles",
      "outputs": [
        {
          "internalType": "uint256",
          "name": "",
          "type": "uint256"
        }
      ],
      "stateMutability": "view",
      "type": "function"
    },
    {
      "inputs": [
        {
          "internalType": "uint256",
          "name": "",
          "type": "uint256"
        }
      ],
      "name": "_holdingStrategies",
      "outputs": [
        {
          "internalType": "address",
          "name": "",
          "type": "address"
        }
      ],
      "stateMutability": "view",
      "type": "function"
    },
    {
      "inputs": [
        {
          "internalType": "uint256",
          "name": "",
          "type": "uint256"
        }
      ],
      "name": "_rolesPlayed",
      "outputs": [
        {
          "internalType": "uint256",
          "name": "",
          "type": "uint256"
        }
      ],
      "stateMutability": "view",
      "type": "function"
    },
    {
      "inputs": [
        {
          "internalType": "address",
          "name": "to",
          "type": "address"
        },
        {
          "internalType": "uint256",
          "name": "tokenId",
          "type": "uint256"
        }
      ],
      "name": "approve",
      "outputs": [],
      "stateMutability": "nonpayable",
      "type": "function"
    },
    {
      "inputs": [
        {
          "internalType": "address",
          "name": "owner",
          "type": "address"
        }
      ],
      "name": "balanceOf",
      "outputs": [
        {
          "internalType": "uint256",
          "name": "",
          "type": "uint256"
        }
      ],
      "stateMutability": "view",
      "type": "function"
    },
    {
      "inputs": [
        {
          "internalType": "uint256[]",
          "name": "trancheIds",
          "type": "uint256[]"
        },
        {
          "internalType": "address",
          "name": "currency",
          "type": "address"
        },
        {
          "internalType": "address",
          "name": "recipient",
          "type": "address"
        }
      ],
      "name": "batchCollectYield",
      "outputs": [
        {
          "internalType": "uint256",
          "name": "",
          "type": "uint256"
        }
      ],
      "stateMutability": "nonpayable",
      "type": "function"
    },
    {
      "inputs": [
        {
          "internalType": "uint256[]",
          "name": "trancheIds",
          "type": "uint256[]"
        },
        {
          "internalType": "address",
          "name": "yieldCurrency",
          "type": "address"
        },
        {
          "internalType": "address",
          "name": "valueCurrency",
          "type": "address"
        },
        {
          "internalType": "address",
          "name": "recipient",
          "type": "address"
        }
      ],
      "name": "batchCollectYieldValueBorrowable",
      "outputs": [
        {
          "internalType": "uint256",
          "name": "yield",
          "type": "uint256"
        },
        {
          "internalType": "uint256",
          "name": "value",
          "type": "uint256"
        },
        {
          "internalType": "uint256",
          "name": "borrowablePer10k",
          "type": "uint256"
        }
      ],
      "stateMutability": "nonpayable",
      "type": "function"
    },
    {
      "inputs": [
        {
          "internalType": "uint256[]",
          "name": "trancheIds",
          "type": "uint256[]"
        },
        {
          "internalType": "address",
          "name": "currency",
          "type": "address"
        }
      ],
      "name": "batchViewValueBorrowable",
      "outputs": [
        {
          "internalType": "uint256",
          "name": "",
          "type": "uint256"
        },
        {
          "internalType": "uint256",
          "name": "",
          "type": "uint256"
        }
      ],
      "stateMutability": "view",
      "type": "function"
    },
    {
      "inputs": [
        {
          "internalType": "uint256[]",
          "name": "trancheIds",
          "type": "uint256[]"
        },
        {
          "internalType": "address",
          "name": "currency",
          "type": "address"
        }
      ],
      "name": "batchViewYield",
      "outputs": [
        {
          "internalType": "uint256",
          "name": "",
          "type": "uint256"
        }
      ],
      "stateMutability": "view",
      "type": "function"
    },
    {
      "inputs": [],
      "name": "charactersPlayed",
      "outputs": [
        {
          "internalType": "uint256[]",
          "name": "",
          "type": "uint256[]"
        }
      ],
      "stateMutability": "view",
      "type": "function"
    },
    {
      "inputs": [
        {
          "internalType": "uint256",
          "name": "trancheId",
          "type": "uint256"
        },
        {
          "internalType": "address",
          "name": "currency",
          "type": "address"
        },
        {
          "internalType": "address",
          "name": "recipient",
          "type": "address"
        }
      ],
      "name": "collectYield",
      "outputs": [
        {
          "internalType": "uint256",
          "name": "",
          "type": "uint256"
        }
      ],
      "stateMutability": "nonpayable",
      "type": "function"
    },
    {
      "inputs": [
        {
          "internalType": "uint256",
          "name": "trancheId",
          "type": "uint256"
        },
        {
          "internalType": "address",
          "name": "yieldCurrency",
          "type": "address"
        },
        {
          "internalType": "address",
          "name": "valueCurrency",
          "type": "address"
        },
        {
          "internalType": "address",
          "name": "recipient",
          "type": "address"
        }
      ],
      "name": "collectYieldValueBorrowable",
      "outputs": [
        {
          "internalType": "uint256",
          "name": "",
          "type": "uint256"
        },
        {
          "internalType": "uint256",
          "name": "",
          "type": "uint256"
        },
        {
          "internalType": "uint256",
          "name": "",
          "type": "uint256"
        }
      ],
      "stateMutability": "nonpayable",
      "type": "function"
    },
    {
      "inputs": [
        {
          "internalType": "uint256",
          "name": "tokenId",
          "type": "uint256"
        }
      ],
      "name": "containedIn",
      "outputs": [
        {
          "internalType": "address",
          "name": "owner",
          "type": "address"
        },
        {
          "internalType": "uint256",
          "name": "containerId",
          "type": "uint256"
        }
      ],
      "stateMutability": "view",
      "type": "function"
    },
    {
      "inputs": [],
      "name": "dependsOnCharacters",
      "outputs": [
        {
          "internalType": "uint256[]",
          "name": "",
          "type": "uint256[]"
        }
      ],
      "stateMutability": "view",
      "type": "function"
    },
    {
      "inputs": [],
      "name": "dependsOnRoles",
      "outputs": [
        {
          "internalType": "uint256[]",
          "name": "",
          "type": "uint256[]"
        }
      ],
      "stateMutability": "view",
      "type": "function"
    },
    {
      "inputs": [
        {
          "internalType": "uint256",
          "name": "trancheId",
          "type": "uint256"
        },
        {
          "internalType": "uint256",
          "name": "tokenAmount",
          "type": "uint256"
        }
      ],
      "name": "deposit",
      "outputs": [],
      "stateMutability": "nonpayable",
      "type": "function"
    },
    {
      "inputs": [
        {
          "internalType": "uint256",
          "name": "tokenId",
          "type": "uint256"
        }
      ],
      "name": "getApproved",
      "outputs": [
        {
          "internalType": "address",
          "name": "",
          "type": "address"
        }
      ],
      "stateMutability": "view",
      "type": "function"
    },
    {
      "inputs": [
        {
          "internalType": "uint256",
          "name": "trancheId",
          "type": "uint256"
        }
      ],
      "name": "getCurrentHoldingStrategy",
      "outputs": [
        {
          "internalType": "address",
          "name": "",
          "type": "address"
        }
      ],
      "stateMutability": "nonpayable",
      "type": "function"
    },
    {
      "inputs": [
        {
          "internalType": "address",
          "name": "owner",
          "type": "address"
        },
        {
          "internalType": "address",
          "name": "operator",
          "type": "address"
        }
      ],
      "name": "isApprovedForAll",
      "outputs": [
        {
          "internalType": "bool",
          "name": "",
          "type": "bool"
        }
      ],
      "stateMutability": "view",
      "type": "function"
    },
    {
      "inputs": [
        {
          "internalType": "address",
          "name": "spender",
          "type": "address"
        },
        {
          "internalType": "uint256",
          "name": "tokenId",
          "type": "uint256"
        }
      ],
      "name": "isAuthorized",
      "outputs": [
        {
          "internalType": "bool",
          "name": "",
          "type": "bool"
        }
      ],
      "stateMutability": "view",
      "type": "function"
    },
    {
      "inputs": [
        {
          "internalType": "uint256",
          "name": "trancheId",
          "type": "uint256"
        }
      ],
      "name": "isViable",
      "outputs": [
        {
          "internalType": "bool",
          "name": "",
          "type": "bool"
        }
      ],
      "stateMutability": "view",
      "type": "function"
    },
    {
      "inputs": [
        {
          "internalType": "uint256",
          "name": "",
          "type": "uint256"
        }
      ],
      "name": "mainCharacterCache",
      "outputs": [
        {
          "internalType": "address",
          "name": "",
          "type": "address"
        }
      ],
      "stateMutability": "view",
      "type": "function"
    },
    {
      "inputs": [
        {
          "internalType": "uint256",
          "name": "trancheId",
          "type": "uint256"
        },
        {
          "internalType": "address",
          "name": "destination",
          "type": "address"
        },
        {
          "internalType": "address",
          "name": "yieldToken",
          "type": "address"
        },
        {
          "internalType": "address",
          "name": "yieldRecipient",
          "type": "address"
        }
      ],
      "name": "migrateStrategy",
      "outputs": [
        {
          "internalType": "address",
          "name": "token",
          "type": "address"
        },
        {
          "internalType": "uint256",
          "name": "tokenId",
          "type": "uint256"
        },
        {
          "internalType": "uint256",
          "name": "targetAmount",
          "type": "uint256"
        }
      ],
      "stateMutability": "nonpayable",
      "type": "function"
    },
    {
      "inputs": [
        {
          "internalType": "uint256",
          "name": "vaultId",
          "type": "uint256"
        },
        {
          "internalType": "address",
          "name": "strategy",
          "type": "address"
        },
        {
          "internalType": "address",
          "name": "assetToken",
          "type": "address"
        },
        {
          "internalType": "uint256",
          "name": "assetTokenId",
          "type": "uint256"
        },
        {
          "internalType": "uint256",
          "name": "assetAmount",
          "type": "uint256"
        }
      ],
      "name": "mintTranche",
      "outputs": [
        {
          "internalType": "uint256",
          "name": "trancheId",
          "type": "uint256"
        }
      ],
      "stateMutability": "nonpayable",
      "type": "function"
    },
    {
      "inputs": [],
      "name": "name",
      "outputs": [
        {
          "internalType": "string",
          "name": "",
          "type": "string"
        }
      ],
      "stateMutability": "view",
      "type": "function"
    },
    {
      "inputs": [
        {
          "internalType": "uint256",
          "name": "tokenId",
          "type": "uint256"
        }
      ],
      "name": "ownerOf",
      "outputs": [
        {
          "internalType": "address",
          "name": "",
          "type": "address"
        }
      ],
      "stateMutability": "view",
      "type": "function"
    },
    {
      "inputs": [
        {
          "internalType": "address",
          "name": "depositor",
          "type": "address"
        },
        {
          "internalType": "uint256",
          "name": "trancheId",
          "type": "uint256"
        },
        {
          "internalType": "uint256",
          "name": "tokenAmount",
          "type": "uint256"
        }
      ],
      "name": "registerDepositFor",
      "outputs": [],
      "stateMutability": "nonpayable",
      "type": "function"
    },
    {
      "inputs": [
        {
          "internalType": "address",
          "name": "",
          "type": "address"
        },
        {
          "internalType": "uint256",
          "name": "",
          "type": "uint256"
        }
      ],
      "name": "roleCache",
      "outputs": [
        {
          "internalType": "bool",
          "name": "",
          "type": "bool"
        }
      ],
      "stateMutability": "view",
      "type": "function"
    },
    {
      "inputs": [],
      "name": "roles",
      "outputs": [
        {
          "internalType": "contract Roles",
          "name": "",
          "type": "address"
        }
      ],
      "stateMutability": "view",
      "type": "function"
    },
    {
      "inputs": [],
      "name": "rolesPlayed",
      "outputs": [
        {
          "internalType": "uint256[]",
          "name": "",
          "type": "uint256[]"
        }
      ],
      "stateMutability": "view",
      "type": "function"
    },
    {
      "inputs": [
        {
          "internalType": "address",
          "name": "from",
          "type": "address"
        },
        {
          "internalType": "address",
          "name": "to",
          "type": "address"
        },
        {
          "internalType": "uint256",
          "name": "tokenId",
          "type": "uint256"
        }
      ],
      "name": "safeTransferFrom",
      "outputs": [],
      "stateMutability": "nonpayable",
      "type": "function"
    },
    {
      "inputs": [
        {
          "internalType": "address",
          "name": "from",
          "type": "address"
        },
        {
          "internalType": "address",
          "name": "to",
          "type": "address"
        },
        {
          "internalType": "uint256",
          "name": "tokenId",
          "type": "uint256"
        },
        {
          "internalType": "bytes",
          "name": "_data",
          "type": "bytes"
        }
      ],
      "name": "safeTransferFrom",
      "outputs": [],
      "stateMutability": "nonpayable",
      "type": "function"
    },
    {
      "inputs": [
        {
          "internalType": "address",
          "name": "operator",
          "type": "address"
        },
        {
          "internalType": "bool",
          "name": "approved",
          "type": "bool"
        }
      ],
      "name": "setApprovalForAll",
      "outputs": [],
      "stateMutability": "nonpayable",
      "type": "function"
    },
    {
      "inputs": [
        {
          "internalType": "uint256",
          "name": "period",
          "type": "uint256"
        }
      ],
      "name": "setUpdateTrackingPeriod",
      "outputs": [],
      "stateMutability": "nonpayable",
      "type": "function"
    },
    {
      "inputs": [],
      "name": "setupTrancheSlot",
      "outputs": [],
      "stateMutability": "nonpayable",
      "type": "function"
    },
    {
      "inputs": [
        {
          "internalType": "bytes4",
          "name": "interfaceId",
          "type": "bytes4"
        }
      ],
      "name": "supportsInterface",
      "outputs": [
        {
          "internalType": "bool",
          "name": "",
          "type": "bool"
        }
      ],
      "stateMutability": "view",
      "type": "function"
    },
    {
      "inputs": [],
      "name": "symbol",
      "outputs": [
        {
          "internalType": "string",
          "name": "",
          "type": "string"
        }
      ],
      "stateMutability": "view",
      "type": "function"
    },
    {
      "inputs": [
        {
          "internalType": "uint256",
          "name": "index",
          "type": "uint256"
        }
      ],
      "name": "tokenByIndex",
      "outputs": [
        {
          "internalType": "uint256",
          "name": "",
          "type": "uint256"
        }
      ],
      "stateMutability": "view",
      "type": "function"
    },
    {
      "inputs": [
        {
          "internalType": "address",
          "name": "owner",
          "type": "address"
        },
        {
          "internalType": "uint256",
          "name": "index",
          "type": "uint256"
        }
      ],
      "name": "tokenOfOwnerByIndex",
      "outputs": [
        {
          "internalType": "uint256",
          "name": "",
          "type": "uint256"
        }
      ],
      "stateMutability": "view",
      "type": "function"
    },
    {
      "inputs": [
        {
          "internalType": "uint256",
          "name": "tokenId",
          "type": "uint256"
        }
      ],
      "name": "tokenURI",
      "outputs": [
        {
          "internalType": "string",
          "name": "",
          "type": "string"
        }
      ],
      "stateMutability": "view",
      "type": "function"
    },
    {
      "inputs": [],
      "name": "totalSupply",
      "outputs": [
        {
          "internalType": "uint256",
          "name": "",
          "type": "uint256"
        }
      ],
      "stateMutability": "view",
      "type": "function"
    },
    {
      "inputs": [
        {
          "internalType": "uint256",
          "name": "trancheId",
          "type": "uint256"
        }
      ],
      "name": "trancheToken",
      "outputs": [
        {
          "internalType": "address",
          "name": "",
          "type": "address"
        }
      ],
      "stateMutability": "view",
      "type": "function"
    },
    {
      "inputs": [
        {
          "internalType": "address",
          "name": "from",
          "type": "address"
        },
        {
          "internalType": "address",
          "name": "to",
          "type": "address"
        },
        {
          "internalType": "uint256",
          "name": "tokenId",
          "type": "uint256"
        }
      ],
      "name": "transferFrom",
      "outputs": [],
      "stateMutability": "nonpayable",
      "type": "function"
    },
    {
      "inputs": [
        {
          "internalType": "uint256",
          "name": "role",
          "type": "uint256"
        }
      ],
      "name": "updateMainCharacterCache",
      "outputs": [],
      "stateMutability": "nonpayable",
      "type": "function"
    },
    {
      "inputs": [
        {
          "internalType": "uint256",
          "name": "role",
          "type": "uint256"
        },
        {
          "internalType": "address",
          "name": "contr",
          "type": "address"
        }
      ],
      "name": "updateRoleCache",
      "outputs": [],
      "stateMutability": "nonpayable",
      "type": "function"
    },
    {
      "inputs": [],
      "name": "updateTrackingPeriod",
      "outputs": [
        {
          "internalType": "uint256",
          "name": "",
          "type": "uint256"
        }
      ],
      "stateMutability": "view",
      "type": "function"
    },
    {
      "inputs": [
        {
          "internalType": "uint256",
          "name": "trancheId",
          "type": "uint256"
        }
      ],
      "name": "viewBorrowable",
      "outputs": [
        {
          "internalType": "uint256",
          "name": "",
          "type": "uint256"
        }
      ],
      "stateMutability": "view",
      "type": "function"
    },
    {
      "inputs": [
        {
          "internalType": "uint256",
          "name": "trancheId",
          "type": "uint256"
        }
      ],
      "name": "viewCurrentHoldingStrategy",
      "outputs": [
        {
          "internalType": "address",
          "name": "",
          "type": "address"
        }
      ],
      "stateMutability": "view",
      "type": "function"
    },
    {
      "inputs": [
        {
          "internalType": "address",
          "name": "owner",
          "type": "address"
        }
      ],
      "name": "viewTranchesByOwner",
      "outputs": [
        {
          "internalType": "uint256[]",
          "name": "",
          "type": "uint256[]"
        }
      ],
      "stateMutability": "view",
      "type": "function"
    },
    {
      "inputs": [
        {
          "internalType": "uint256",
          "name": "trancheId",
          "type": "uint256"
        },
        {
          "internalType": "address",
          "name": "currency",
          "type": "address"
        }
      ],
      "name": "viewYield",
      "outputs": [
        {
          "internalType": "uint256",
          "name": "",
          "type": "uint256"
        }
      ],
      "stateMutability": "view",
      "type": "function"
    },
    {
      "inputs": [
        {
          "internalType": "uint256",
          "name": "trancheId",
          "type": "uint256"
        },
        {
          "internalType": "address",
          "name": "yieldCurrency",
          "type": "address"
        },
        {
          "internalType": "address",
          "name": "valueCurrency",
          "type": "address"
        }
      ],
      "name": "viewYieldValueBorrowable",
      "outputs": [
        {
          "internalType": "uint256",
          "name": "",
          "type": "uint256"
        },
        {
          "internalType": "uint256",
          "name": "",
          "type": "uint256"
        },
        {
          "internalType": "uint256",
          "name": "",
          "type": "uint256"
        }
      ],
      "stateMutability": "view",
      "type": "function"
    },
    {
      "inputs": [
        {
          "internalType": "uint256",
          "name": "trancheId",
          "type": "uint256"
        },
        {
          "internalType": "uint256",
          "name": "tokenAmount",
          "type": "uint256"
        },
        {
          "internalType": "address",
          "name": "yieldCurrency",
          "type": "address"
        },
        {
          "internalType": "address",
          "name": "recipient",
          "type": "address"
        }
      ],
      "name": "withdraw",
      "outputs": [],
      "stateMutability": "nonpayable",
      "type": "function"
    }
  ],
  "bytecode": "0x60a060405262093a806014553480156200001857600080fd5b5060405162004252380380620042528339810160408190526200003b9162000300565b808383816000908051906020019062000056929190620001a7565b5080516200006c906001906020840190620001a7565b5050600d80546001818101835560057fd7b6990105719101dabeb77144f2a3385c8033acd3af97e9423a695e81ad1eb592830155600c8054808301825560697fdf6966c971051c3d54ec59162606531493a51404a002842f56009d7e5cf4a8c7918201558154808401909255606891015582548082018455600093909352910155506001600160a01b038116620001545760405162461bcd60e51b815260206004820152602260248201527f506c656173652070726f766964652076616c696420726f6c6573206164647265604482015261737360f01b606482015260840160405180910390fd5b60601b6001600160601b031916608052505060016011819055600f8054918201815560005260037f8d1108e10bcb7c27dddfc02ed9d693a074039d026cf4ea4240b40f7d581ac8029091015550620003dc565b828054620001b59062000389565b90600052602060002090601f016020900481019282620001d9576000855562000224565b82601f10620001f457805160ff191683800117855562000224565b8280016001018555821562000224579182015b828111156200022457825182559160200191906001019062000207565b506200023292915062000236565b5090565b5b8082111562000232576000815560010162000237565b600082601f8301126200025e578081fd5b81516001600160401b03808211156200027b576200027b620003c6565b604051601f8301601f19908116603f01168101908282118183101715620002a657620002a6620003c6565b81604052838152602092508683858801011115620002c2578485fd5b8491505b83821015620002e55785820183015181830184015290820190620002c6565b83821115620002f657848385830101525b9695505050505050565b60008060006060848603121562000315578283fd5b83516001600160401b03808211156200032c578485fd5b6200033a878388016200024d565b9450602086015191508082111562000350578384fd5b506200035f868287016200024d565b604086015190935090506001600160a01b03811681146200037e578182fd5b809150509250925092565b600181811c908216806200039e57607f821691505b60208210811415620003c057634e487b7160e01b600052602260045260246000fd5b50919050565b634e487b7160e01b600052604160045260246000fd5b60805160601c613e3b62000417600039600081816103f6015281816108dd01528181610e92015281816129de0152612a760152613e3b6000f3fe608060405234801561001057600080fd5b506004361061027c5760003560e01c80620a5ccf1461028157806301ffc9a7146102aa57806306fdde03146102cd578063071060a6146102e2578063081812fc146102f757806308754a7314610317578063095ea7b314610338578063136f9cef1461034b57806318160ddd1461037357806323b872dd146103855780632972b0f0146103985780632f745c59146103ab57806332935f44146103be57806335b176ab146103d1578063392f5f64146103f157806342842e0e14610418578063447d52ba1461042b5780634a7a7f411461043e5780634f6ccce7146104465780634f7dcffc1461045957806361b9fea9146104625780636352211e146104755780636caa9c111461048857806370a082311461049b57806371b3177a146104ae5780637268d1c0146104c157806375161891146104d45780637a1a04df146105025780637dad209b146105305780638496e8911461053857806393856b161461054b57806395d89b411461055e578063983b42f714610566578063a22cb46514610579578063a2fb54ff1461058c578063abcbc4fc1461059f578063aeb38d8b146105b2578063b23d66c2146105c5578063b25e25f4146105fd578063b88d4fde14610610578063bf184ea414610623578063c87b56dd14610636578063dc94cb7d14610649578063e2bbb15814610651578063e670309c14610664578063e8ea4fae1461066c578063e985e9c514610674578063e9c3f77d14610687578063e9d07fe8146106b0578063f12ba381146106c3578063f8903fb7146106d6578063f9ed4cc0146106e9578063fa98a4ba14610712578063fabee7db14610725578063fd80d0c314610738575b600080fd5b61029461028f3660046133f4565b61074b565b6040516102a19190613a57565b60405180910390f35b6102bd6102b8366004613770565b61080a565b60405190151581526020016102a1565b6102d5610835565b6040516102a19190613a9b565b6102f56102f03660046137db565b6108c7565b005b61030a6103053660046137db565b61098d565b6040516102a191906139f7565b61032a6103253660046137db565b610a1a565b6040516102a1929190613a3e565b6102f561034636600461358c565b610a3d565b61035e610359366004613621565b610b4e565b604080519283526020830191909152016102a1565b6008545b6040519081526020016102a1565b6102f5610393366004613464565b610c67565b6102bd6103a636600461358c565b610c98565b6103776103b936600461358c565b610d5e565b6103776103cc366004613621565b610df4565b6103776103df3660046137db565b60106020526000908152604090205481565b61030a7f000000000000000000000000000000000000000000000000000000000000000081565b6102f5610426366004613464565b610e60565b6102f561043936600461380b565b610e7b565b610294610f51565b6103776104543660046137db565b610fa8565b61037760145481565b61030a6104703660046137db565b611049565b61030a6104833660046137db565b61127e565b6103776104963660046137db565b6112f5565b6103776104a93660046133f4565b611316565b6102f56104bc366004613941565b61139d565b6103776104cf3660046137db565b611445565b6104e76104e23660046136da565b6114d6565b604080519384526020840192909252908201526060016102a1565b6102bd61051036600461358c565b600b60209081526000928352604080842090915290825290205460ff1681565b610294611585565b6104e7610546366004613865565b6115db565b6103776105593660046138ac565b61165e565b6102d56116a5565b610377610574366004613675565b6116b4565b6102f561058736600461355f565b611775565b6102f561059a3660046137db565b611784565b6103776105ad3660046137db565b6118b4565b6103776105c03660046137db565b6118c4565b6105d86105d3366004613865565b6118d4565b604080516001600160a01b0390941684526020840192909252908201526060016102a1565b6102bd61060b3660046137db565b611ab5565b6102f561061e3660046134a4565b611b7c565b6103776106313660046137db565b611bb4565b6102d56106443660046137db565b611bc4565b610294611c9c565b6102f561065f3660046138fd565b611cf2565b6102f5611d2e565b610294611daa565b6102bd61068236600461342c565b611e00565b61030a6106953660046137db565b600a602052600090815260409020546001600160a01b031681565b61030a6106be3660046137db565b611e2e565b6102f56106d13660046135b7565b611ec6565b6103776106e436600461382f565b611f23565b61030a6106f73660046137db565b6012602052600090815260409020546001600160a01b031681565b6104e761072036600461382f565b611fbb565b61030a6107333660046137db565b612061565b61037761074636600461380b565b612099565b6060600061075883611316565b90506000816001600160401b0381111561078257634e487b7160e01b600052604160045260246000fd5b6040519080825280602002602001820160405280156107ab578160200160208202803683370190505b50905060005b80831115610800576107c38582610d5e565b8282815181106107e357634e487b7160e01b600052603260045260246000fd5b6020908102919091010152806107f881613d3b565b9150506107b1565b509150505b919050565b60006001600160e01b0319821663780e9d6360e01b148061082f575061082f82612129565b92915050565b60606000805461084490613d06565b80601f016020809104026020016040519081016040528092919081815260200182805461087090613d06565b80156108bd5780601f10610892576101008083540402835291602001916108bd565b820191906000526020600020905b8154815290600101906020018083116108a057829003601f168201915b5050505050905090565b60405163b4ed0b6d60e01b8152600481018290527f00000000000000000000000000000000000000000000000000000000000000006001600160a01b03169063b4ed0b6d9060240160206040518083038186803b15801561092757600080fd5b505afa15801561093b573d6000803e3d6000fd5b505050506040513d601f19601f8201168201806040525081019061095f9190613410565b6000918252600a602052604090912080546001600160a01b0319166001600160a01b03909216919091179055565b600061099882612179565b6109fe5760405162461bcd60e51b815260206004820152602c60248201527f4552433732313a20617070726f76656420717565727920666f72206e6f6e657860448201526b34b9ba32b73a103a37b5b2b760a11b60648201526084015b60405180910390fd5b506000908152600460205260409020546001600160a01b031690565b600080610a268361127e565b600093845260106020526040909320549293915050565b6000610a488261127e565b9050806001600160a01b0316836001600160a01b03161415610ab65760405162461bcd60e51b815260206004820152602160248201527f4552433732313a20617070726f76616c20746f2063757272656e74206f776e656044820152603960f91b60648201526084016109f5565b336001600160a01b0382161480610ad25750610ad28133610682565b610b3f5760405162461bcd60e51b815260206004820152603860248201527f4552433732313a20617070726f76652063616c6c6572206973206e6f74206f776044820152771b995c881b9bdc88185c1c1c9bdd995908199bdc88185b1b60421b60648201526084016109f5565b610b498383612196565b505050565b60008060008060005b80871115610c4d576000888883818110610b8157634e487b7160e01b600052603260045260246000fd5b60209081029290920135600081815260129093526040808420549051630a4d77f960e41b81529194508392506001600160a01b03169063a4d77f9090610bcd9086908d90600401613beb565b604080518083038186803b158015610be457600080fd5b505afa158015610bf8573d6000803e3d6000fd5b505050506040513d601f19601f82011682018060405250810190610c1c919061391e565b9092509050610c2b8183613ca4565b610c359086613c78565b94505050508080610c4590613d3b565b915050610b57565b5081610c598183613c90565b935093505050935093915050565b610c713382612204565b610c8d5760405162461bcd60e51b81526004016109f590613b34565b610b4983838361223c565b600080610ca48361127e565b9050610cb08484612204565b80610d5657506001600160a01b0381163b15158015610d565750600083815260106020526040908190205490516302972b0f60e41b81526001600160a01b03831691632972b0f091610d06918891600401613a3e565b60206040518083038186803b158015610d1e57600080fd5b505afa158015610d32573d6000803e3d6000fd5b505050506040513d601f19601f82011682018060405250810190610d569190613754565b949350505050565b6000610d6983611316565b8210610dcb5760405162461bcd60e51b815260206004820152602b60248201527f455243373231456e756d657261626c653a206f776e657220696e646578206f7560448201526a74206f6620626f756e647360a81b60648201526084016109f5565b506001600160a01b03919091166000908152600660209081526040808320938352929052205490565b60008060005b80851115610e57576000868683818110610e2457634e487b7160e01b600052603260045260246000fd5b905060200201359050610e378186612099565b610e419084613c78565b9250508080610e4f90613d3b565b915050610dfa565b50949350505050565b610b4983838360405180602001604052806000815250611b7c565b60405163f0723d9760e01b81526001600160a01b037f0000000000000000000000000000000000000000000000000000000000000000169063f0723d9790610ec99084908690600401613a3e565b60206040518083038186803b158015610ee157600080fd5b505afa158015610ef5573d6000803e3d6000fd5b505050506040513d601f19601f82011682018060405250810190610f199190613754565b6001600160a01b03919091166000908152600b6020908152604080832094835293905291909120805460ff1916911515919091179055565b6060600d8054806020026020016040519081016040528092919081815260200182805480156108bd57602002820191906000526020600020905b815481526020019060010190808311610f8b575050505050905090565b6000610fb360085490565b82106110165760405162461bcd60e51b815260206004820152602c60248201527f455243373231456e756d657261626c653a20676c6f62616c20696e646578206f60448201526b7574206f6620626f756e647360a01b60648201526084016109f5565b6008828154811061103757634e487b7160e01b600052603260045260246000fd5b90600052602060002001549050919050565b6000818152601260205260408120546001600160a01b03168161106a6123d5565b90506000816001600160a01b03166316a665e1846040518263ffffffff1660e01b815260040161109a91906139f7565b60206040518083038186803b1580156110b257600080fd5b505afa1580156110c6573d6000803e3d6000fd5b505050506040513d601f19601f820116820180604052508101906110ea9190613410565b9050806001600160a01b0316836001600160a01b031614610d5657610d56858383866001600160a01b031663fabee7db8a6040518263ffffffff1660e01b815260040161113991815260200190565b60206040518083038186803b15801561115157600080fd5b505afa158015611165573d6000803e3d6000fd5b505050506040513d601f19601f820116820180604052508101906111899190613410565b604051631dc3a75960e01b8152600481018b90526001600160a01b03891690631dc3a7599060240160206040518083038186803b1580156111c957600080fd5b505afa1580156111dd573d6000803e3d6000fd5b505050506040513d601f19601f8201168201806040525081019061120191906137f3565b60405163c5c72dc360e01b8152600481018c90526001600160a01b038a169063c5c72dc39060240160206040518083038186803b15801561124157600080fd5b505afa158015611255573d6000803e3d6000fd5b505050506040513d601f19601f8201168201806040525081019061127991906137f3565b61240d565b6000818152600260205260408120546001600160a01b03168061082f5760405162461bcd60e51b815260206004820152602960248201527f4552433732313a206f776e657220717565727920666f72206e6f6e657869737460448201526832b73a103a37b5b2b760b91b60648201526084016109f5565b600f818154811061130557600080fd5b600091825260209091200154905081565b60006001600160a01b0382166113815760405162461bcd60e51b815260206004820152602a60248201527f4552433732313a2062616c616e636520717565727920666f7220746865207a65604482015269726f206164647265737360b01b60648201526084016109f5565b506001600160a01b031660009081526003602052604090205490565b600260115414156113c05760405162461bcd60e51b81526004016109f590613bb4565b60026011556113cf3385610c98565b6113eb5760405162461bcd60e51b81526004016109f590613b00565b6001600160a01b03811661142e5760405162461bcd60e51b815260206004820152600a6024820152692237b713ba10313ab93760b11b60448201526064016109f5565b61143a848484846124b8565b505060016011555050565b6000818152601260205260408082205490516301c9a34760e61b8152600481018490526001600160a01b03909116908190637268d1c09060240160206040518083038186803b15801561149757600080fd5b505afa1580156114ab573d6000803e3d6000fd5b505050506040513d601f19601f820116820180604052508101906114cf91906137f3565b9392505050565b6000806000805b8088111561156d57600089898381811061150757634e487b7160e01b600052603260045260246000fd5b9050602002013590506000806000611521848c8c8c6115db565b919450925090506115328389613c78565b975061153e8288613c78565b965061154a8282613ca4565b6115549087613c78565b955050505050808061156590613d3b565b9150506114dd565b506115788282613c90565b9050955095509592505050565b6060600e8054806020026020016040519081016040528092919081815260200182805480156108bd5760200282019190600052602060002090815481526020019060010190808311610f8b575050505050905090565b6000806000600260115414156116035760405162461bcd60e51b81526004016109f590613bb4565b60026011556116123388610c98565b80611621575061162133612590565b61163d5760405162461bcd60e51b81526004016109f590613b00565b611649878787876125ba565b60016011559199909850909650945050505050565b6000600260115414156116835760405162461bcd60e51b81526004016109f590613bb4565b6002601155611696338787878787612661565b60016011559695505050505050565b60606001805461084490613d06565b6000600260115414156116d95760405162461bcd60e51b81526004016109f590613bb4565b60026011556000805b8086111561176657600087878381811061170c57634e487b7160e01b600052603260045260246000fd5b90506020020135905061171f3382610c98565b61173b5760405162461bcd60e51b81526004016109f590613b00565b611746818787612869565b6117509084613c78565b925050808061175e90613d3b565b9150506116e2565b50600160115595945050505050565b61178033838361290f565b5050565b3361178d6129da565b6001600160a01b031614806117b15750336117a6612a72565b6001600160a01b0316145b6118105760405162461bcd60e51b815260206004820152602a60248201527f526f6c65733a2063616c6c6572206973206e6f7420746865206f776e6572206f604482015269391032bc32b1baba37b960b11b60648201526084016109f5565b806118545760405162461bcd60e51b8152602060048201526014602482015273506572696f642063616e2774206265207a65726f60601b60448201526064016109f5565b601481905560408051818152600f818301526e1d1c9858dada5b99c81c195c9a5bd9608a1b60608201526020810183905290517f3a64504f0bc0c335e2aecb78638a257e0351a3fe0370861fd54ee4190b9209339181900360800190a150565b600c818154811061130557600080fd5b600e818154811061130557600080fd5b6000806000600260115414156118fc5760405162461bcd60e51b81526004016109f590613bb4565b600260115561190b3388610c98565b6119535760405162461bcd60e51b81526020600482015260196024820152786e6f7420617574686f72697a656420746f206d69677261746560381b60448201526064016109f5565b61195b6123d5565b6001600160a01b031663b4d69757876040518263ffffffff1660e01b815260040161198691906139f7565b60206040518083038186803b15801561199e57600080fd5b505afa1580156119b2573d6000803e3d6000fd5b505050506040513d601f19601f820116820180604052508101906119d69190613754565b6119f25760405162461bcd60e51b81526004016109f590613b85565b60006119fd88611049565b60405163591eb36160e11b81529091506001600160a01b0382169063b23d66c290611a32908b908b908b908b90600401613c21565b606060405180830381600087803b158015611a4c57600080fd5b505af1158015611a60573d6000803e3d6000fd5b505050506040513d601f19601f82011682018060405250810190611a8491906135eb565b91955093509150611a9988828987878761240d565b611aa288612ae3565b5060016011819055509450945094915050565b600080611ac18361127e565b90506001600160a01b0381163b15611b6c5760008381526010602052604090819020549051632c97897d60e21b815282916001600160a01b0383169163b25e25f491611b139160040190815260200190565b60206040518083038186803b158015611b2b57600080fd5b505afa158015611b3f573d6000803e3d6000fd5b505050506040513d601f19601f82011682018060405250810190611b639190613754565b92505050610805565b6001915050610805565b50919050565b611b863383612204565b611ba25760405162461bcd60e51b81526004016109f590613b34565b611bae84848484612b44565b50505050565b600d818154811061130557600080fd5b6060611bcf82612179565b611c335760405162461bcd60e51b815260206004820152602f60248201527f4552433732314d657461646174613a2055524920717565727920666f72206e6f60448201526e3732bc34b9ba32b73a103a37b5b2b760891b60648201526084016109f5565b6000611c4a60408051602081019091526000815290565b90506000815111611c6a57604051806020016040528060008152506114cf565b80611c7484612b84565b604051602001611c859291906139c8565b604051602081830303815290604052915050919050565b6060600c8054806020026020016040519081016040528092919081815260200182805480156108bd5760200282019190600052602060002090815481526020019060010190808311610f8b575050505050905090565b60026011541415611d155760405162461bcd60e51b81526004016109f590613bb4565b6002601155611d25338383612c9e565b50506001601155565b611d36612d40565b6001600160a01b031663e670309c6040518163ffffffff1660e01b81526004016040805180830381600087803b158015611d6f57600080fd5b505af1158015611d83573d6000803e3d6000fd5b505050506040513d601f19601f82011682018060405250810190611da791906137a8565b50565b6060600f8054806020026020016040519081016040528092919081815260200182805480156108bd5760200282019190600052602060002090815481526020019060010190808311610f8b575050505050905090565b6001600160a01b03918216600090815260056020908152604080832093909416825291909152205460ff1690565b6000611e386123d5565b600083815260126020526040908190205490516316a665e160e01b81526001600160a01b03928316926316a665e192611e76929116906004016139f7565b60206040518083038186803b158015611e8e57600080fd5b505afa158015611ea2573d6000803e3d6000fd5b505050506040513d601f19601f8201168201806040525081019061082f9190613410565b611ecf33612590565b611f185760405162461bcd60e51b815260206004820152601a6024820152792ab730baba3437b934bd32b210333ab732103a3930b739b332b960311b60448201526064016109f5565b610b49838383612c9e565b600060026011541415611f485760405162461bcd60e51b81526004016109f590613bb4565b6002601155611f573385610c98565b611fa35760405162461bcd60e51b815260206004820181905260248201527f6e6f7420617574686f72697a656420746f207769746864726177207969656c6460448201526064016109f5565b611fae848484612869565b6001601155949350505050565b600083815260126020526040808220549051637d4c525d60e11b8152829182916001600160a01b0390911690819063fa98a4ba90612001908a908a908a90600401613c02565b60606040518083038186803b15801561201957600080fd5b505afa15801561202d573d6000803e3d6000fd5b505050506040513d601f19601f82011682018060405250810190612051919061396f565b9350935093505093509350939050565b600061206c82611e2e565b6001600160a01b031663fabee7db836040518263ffffffff1660e01b8152600401611e7691815260200190565b60008281526012602052604080822054905163fd80d0c360e01b81526001600160a01b0390911690819063fd80d0c3906120d99087908790600401613beb565b60206040518083038186803b1580156120f157600080fd5b505afa158015612105573d6000803e3d6000fd5b505050506040513d601f19601f82011682018060405250810190610d5691906137f3565b60006001600160e01b031982166380ac58cd60e01b148061215a57506001600160e01b03198216635b5e139f60e01b145b8061082f57506301ffc9a760e01b6001600160e01b031983161461082f565b6000908152600260205260409020546001600160a01b0316151590565b600081815260046020526040902080546001600160a01b0319166001600160a01b03841690811790915581906121cb8261127e565b6001600160a01b03167f8c5be1e5ebec7d5bd14f71427d1e84f3dd0314c0f7b2291e5b200ac8c7c3b92560405160405180910390a45050565b6001600160a01b0382166000908152600b602090815260408083206005845290915281205460ff16806114cf57506114cf8383612d78565b826001600160a01b031661224f8261127e565b6001600160a01b0316146122b75760405162461bcd60e51b815260206004820152602960248201527f4552433732313a207472616e73666572206f6620746f6b656e2074686174206960448201526839903737ba1037bbb760b91b60648201526084016109f5565b6001600160a01b0382166123195760405162461bcd60e51b8152602060048201526024808201527f4552433732313a207472616e7366657220746f20746865207a65726f206164646044820152637265737360e01b60648201526084016109f5565b612324838383612e3a565b61232f600082612196565b6001600160a01b0383166000908152600360205260408120805460019290612358908490613cc3565b90915550506001600160a01b0382166000908152600360205260408120805460019290612386908490613c78565b909155505060008181526002602052604080822080546001600160a01b0319166001600160a01b038681169182179092559151849391871691600080516020613de683398151915291a4505050565b6068600052600a6020527f66b303669408d9c94249bd0aec443a05560d12df25504863342dfebd1199324c546001600160a01b031690565b60405163459ba12760e01b8152600481018790526001600160a01b0386811660248301528481166044830152606482018490526084820183905285169063459ba1279060a401600060405180830381600087803b15801561246d57600080fd5b505af1158015612481573d6000803e3d6000fd5b5050506000968752505060126020525050604090922080546001600160a01b0319166001600160a01b039093169290921790915550565b60006124c385611049565b6040516338d98bbd60e11b815260048101879052602481018690526001600160a01b0385811660448301528481166064830152919250908216906371b3177a90608401600060405180830381600087803b15801561252057600080fd5b505af1158015612534573d6000803e3d6000fd5b5050505061254185611ab5565b6125805760405162461bcd60e51b815260206004820152601060248201526f5472616e63686520756e766961626c6560801b60448201526064016109f5565b61258985612ae3565b5050505050565b6001600160a01b03166000908152600b602090815260408083206001845290915290205460ff1690565b6000806000806125c988611049565b604051638496e89160e01b81529091506001600160a01b03821690638496e891906125fe908b908b908b908b90600401613c21565b606060405180830381600087803b15801561261857600080fd5b505af115801561262c573d6000803e3d6000fd5b505050506040513d601f19601f82011682018060405250810190612650919061396f565b935093509350509450945094915050565b600061266b6123d5565b6001600160a01b031663b4d69757866040518263ffffffff1660e01b815260040161269691906139f7565b60206040518083038186803b1580156126ae57600080fd5b505afa1580156126c2573d6000803e3d6000fd5b505050506040513d601f19601f820116820180604052508101906126e69190613754565b6127025760405162461bcd60e51b81526004016109f590613b85565b61270a612d40565b6001600160a01b031663ff1883486040518163ffffffff1660e01b8152600401602060405180830381600087803b15801561274457600080fd5b505af1158015612758573d6000803e3d6000fd5b505050506040513d601f19601f8201168201806040525081019061277c91906137f3565b600081815260126020908152604080832080546001600160a01b0319166001600160a01b038b161790556010909152902087905590506127de8782886040516020016127ca91815260200190565b604051602081830303815290604052612ef7565b60405163b832799360e01b81526001600160a01b038881166004830152602482018390528581166044830152606482018590526084820184905286169063b83279939060a401600060405180830381600087803b15801561283e57600080fd5b505af1158015612852573d6000803e3d6000fd5b5050505061285f81612ae3565b9695505050505050565b60008061287585611049565b90506000816001600160a01b031663f8903fb78787876040518463ffffffff1660e01b81526004016128a993929190613c02565b602060405180830381600087803b1580156128c357600080fd5b505af11580156128d7573d6000803e3d6000fd5b505050506040513d601f19601f820116820180604052508101906128fb91906137f3565b905061290686612ae3565b95945050505050565b816001600160a01b0316836001600160a01b0316141561296d5760405162461bcd60e51b815260206004820152601960248201527822a9219b99189d1030b8383937bb32903a379031b0b63632b960391b60448201526064016109f5565b6001600160a01b03838116600081815260056020908152604080832094871680845294825291829020805460ff191686151590811790915591519182527f17307eab39ab6107e8899845ad3d59bd9653f200f220920489ca2b5937696c31910160405180910390a3505050565b60007f00000000000000000000000000000000000000000000000000000000000000006001600160a01b0316638da5cb5b6040518163ffffffff1660e01b815260040160206040518083038186803b158015612a3557600080fd5b505afa158015612a49573d6000803e3d6000fd5b505050506040513d601f19601f82011682018060405250810190612a6d9190613410565b905090565b60007f00000000000000000000000000000000000000000000000000000000000000006001600160a01b031663c34c08e56040518163ffffffff1660e01b8152600401602060405180830381600087803b158015612acf57600080fd5b505af1158015612a49573d6000803e3d6000fd5b612b15816013600060145442612af99190613c90565b8152602001908152602001600020612f2a90919063ffffffff16565b5060405181907f416412a7d0788b77945ea2e2702f6edbb3fc8eabc407ed7b4132ab948a6962c190600090a250565b612b5084848484612f36565b805115612b7b5780806020019051810190612b6b91906137f3565b6000838152601060205260409020555b611bae82612ae3565b606081612ba957506040805180820190915260018152600360fc1b6020820152610805565b8160005b8115612bd35780612bbd81613d3b565b9150612bcc9050600a83613c90565b9150612bad565b6000816001600160401b03811115612bfb57634e487b7160e01b600052604160045260246000fd5b6040519080825280601f01601f191660200182016040528015612c25576020820181803683370190505b5090505b8415610d5657612c3a600183613cc3565b9150612c47600a86613d56565b612c52906030613c78565b60f81b818381518110612c7557634e487b7160e01b600052603260045260246000fd5b60200101906001600160f81b031916908160001a905350612c97600a86613c90565b9450612c29565b6000612ca983611049565b9050806001600160a01b031663a50233c9858585612cc68861127e565b60405160e086901b6001600160e01b03191681526001600160a01b039485166004820152602481019390935260448301919091529091166064820152608401600060405180830381600087803b158015612d1f57600080fd5b505af1158015612d33573d6000803e3d6000fd5b50505050611bae83612ae3565b6069600052600a6020527fe4e9675aa3466ea9ab37f11eba586a16aaf52d4293b57ad72d46715c0e7a4575546001600160a01b031690565b6000612d8382612179565b612de45760405162461bcd60e51b815260206004820152602c60248201527f4552433732313a206f70657261746f7220717565727920666f72206e6f6e657860448201526b34b9ba32b73a103a37b5b2b760a11b60648201526084016109f5565b6000612def8361127e565b9050806001600160a01b0316846001600160a01b03161480612e2a5750836001600160a01b0316612e1f8461098d565b6001600160a01b0316145b80610d565750610d568185611e00565b6001600160a01b038316612e9557612e9081600880546000838152600960205260408120829055600182018355919091527ff3f7a9fe364faab93b216da50a3214154f22a0a2b415b23a84c8169e8b636ee30155565b612eb8565b816001600160a01b0316836001600160a01b031614612eb857612eb88382612f69565b6001600160a01b038216612ed457612ecf81613006565b610b49565b826001600160a01b0316826001600160a01b031614610b4957610b4982826130df565b612f018383613123565b612f0e600084848461324f565b610b495760405162461bcd60e51b81526004016109f590613aae565b60006114cf838361335c565b612f4184848461223c565b612f4d8484848461324f565b611bae5760405162461bcd60e51b81526004016109f590613aae565b60006001612f7684611316565b612f809190613cc3565b600083815260076020526040902054909150808214612fd3576001600160a01b03841660009081526006602090815260408083208584528252808320548484528184208190558352600790915290208190555b5060009182526007602090815260408084208490556001600160a01b039094168352600681528383209183525290812055565b60085460009061301890600190613cc3565b6000838152600960205260408120546008805493945090928490811061304e57634e487b7160e01b600052603260045260246000fd5b90600052602060002001549050806008838154811061307d57634e487b7160e01b600052603260045260246000fd5b60009182526020808320909101929092558281526009909152604080822084905585825281205560088054806130c357634e487b7160e01b600052603160045260246000fd5b6001900381819060005260206000200160009055905550505050565b60006130ea83611316565b6001600160a01b039093166000908152600660209081526040808320868452825280832085905593825260079052919091209190915550565b6001600160a01b0382166131795760405162461bcd60e51b815260206004820181905260248201527f4552433732313a206d696e7420746f20746865207a65726f206164647265737360448201526064016109f5565b61318281612179565b156131ce5760405162461bcd60e51b815260206004820152601c60248201527b115490cdcc8c4e881d1bdad95b88185b1c9958591e481b5a5b9d195960221b60448201526064016109f5565b6131da60008383612e3a565b6001600160a01b0382166000908152600360205260408120805460019290613203908490613c78565b909155505060008181526002602052604080822080546001600160a01b0319166001600160a01b0386169081179091559051839290600080516020613de6833981519152908290a45050565b60006001600160a01b0384163b1561335157604051630a85bd0160e11b81526001600160a01b0385169063150b7a0290613293903390899088908890600401613a0b565b602060405180830381600087803b1580156132ad57600080fd5b505af19250505080156132dd575060408051601f3d908101601f191682019092526132da9181019061378c565b60015b613337573d80801561330b576040519150601f19603f3d011682016040523d82523d6000602084013e613310565b606091505b50805161332f5760405162461bcd60e51b81526004016109f590613aae565b805181602001fd5b6001600160e01b031916630a85bd0160e11b149050610d56565b506001949350505050565b60008181526001830160205260408120546133a35750815460018181018455600084815260208082209093018490558454848252828601909352604090209190915561082f565b50600061082f565b60008083601f8401126133bc578081fd5b5081356001600160401b038111156133d2578182fd5b6020830191508360208260051b85010111156133ed57600080fd5b9250929050565b600060208284031215613405578081fd5b81356114cf81613dac565b600060208284031215613421578081fd5b81516114cf81613dac565b6000806040838503121561343e578081fd5b823561344981613dac565b9150602083013561345981613dac565b809150509250929050565b600080600060608486031215613478578081fd5b833561348381613dac565b9250602084013561349381613dac565b929592945050506040919091013590565b600080600080608085870312156134b9578081fd5b84356134c481613dac565b93506020858101356134d581613dac565b93506040860135925060608601356001600160401b03808211156134f7578384fd5b818801915088601f83011261350a578384fd5b81358181111561351c5761351c613d96565b61352e601f8201601f19168501613c48565b91508082528984828501011115613543578485fd5b8084840185840137810190920192909252939692955090935050565b60008060408385031215613571578182fd5b823561357c81613dac565b9150602083013561345981613dc1565b6000806040838503121561359e578182fd5b82356135a981613dac565b946020939093013593505050565b6000806000606084860312156135cb578283fd5b83356135d681613dac565b95602085013595506040909401359392505050565b6000806000606084860312156135ff578283fd5b835161360a81613dac565b602085015160409095015190969495509392505050565b600080600060408486031215613635578283fd5b83356001600160401b0381111561364a578384fd5b613656868287016133ab565b909450925050602084013561366a81613dac565b809150509250925092565b6000806000806060858703121561368a578182fd5b84356001600160401b0381111561369f578283fd5b6136ab878288016133ab565b90955093505060208501356136bf81613dac565b915060408501356136cf81613dac565b939692955090935050565b6000806000806000608086880312156136f1578283fd5b85356001600160401b03811115613706578384fd5b613712888289016133ab565b909650945050602086013561372681613dac565b9250604086013561373681613dac565b9150606086013561374681613dac565b809150509295509295909350565b600060208284031215613765578081fd5b81516114cf81613dc1565b600060208284031215613781578081fd5b81356114cf81613dcf565b60006020828403121561379d578081fd5b81516114cf81613dcf565b6000604082840312156137b9578081fd5b6137c36040613c48565b82518152602083015160208201528091505092915050565b6000602082840312156137ec578081fd5b5035919050565b600060208284031215613804578081fd5b5051919050565b6000806040838503121561381d578182fd5b82359150602083013561345981613dac565b600080600060608486031215613843578081fd5b83359250602084013561385581613dac565b9150604084013561366a81613dac565b6000806000806080858703121561387a578182fd5b84359350602085013561388c81613dac565b9250604085013561389c81613dac565b915060608501356136cf81613dac565b600080600080600060a086880312156138c3578283fd5b8535945060208601356138d581613dac565b935060408601356138e581613dac565b94979396509394606081013594506080013592915050565b6000806040838503121561390f578182fd5b50508035926020909101359150565b60008060408385031215613930578182fd5b505080516020909101519092909150565b60008060008060808587031215613956578182fd5b8435935060208501359250604085013561389c81613dac565b600080600060608486031215613983578081fd5b8351925060208401519150604084015190509250925092565b600081518084526139b4816020860160208601613cda565b601f01601f19169290920160200192915050565b600083516139da818460208801613cda565b8351908301906139ee818360208801613cda565b01949350505050565b6001600160a01b0391909116815260200190565b6001600160a01b038581168252841660208201526040810183905260806060820181905260009061285f9083018461399c565b6001600160a01b03929092168252602082015260400190565b6020808252825182820181905260009190848201906040850190845b81811015613a8f57835183529284019291840191600101613a73565b50909695505050505050565b6000602082526114cf602083018461399c565b60208082526032908201527f4552433732313a207472616e7366657220746f206e6f6e20455243373231526560408201527131b2b4bb32b91034b6b83632b6b2b73a32b960711b606082015260800190565b6020808252601a90820152796e6f7420617574686f72697a656420746f20776974686472617760301b604082015260600190565b60208082526031908201527f4552433732313a207472616e736665722063616c6c6572206973206e6f74206f6040820152701ddb995c881b9bdc88185c1c1c9bdd9959607a1b606082015260800190565b60208082526015908201527414dd1c985d1959de481b9bdd08185c1c1c9bdd9959605a1b604082015260600190565b6020808252601f908201527f5265656e7472616e637947756172643a207265656e7472616e742063616c6c00604082015260600190565b9182526001600160a01b0316602082015260400190565b9283526001600160a01b03918216602084015216604082015260600190565b9384526001600160a01b039283166020850152908216604084015216606082015260800190565b604051601f8201601f191681016001600160401b0381118282101715613c7057613c70613d96565b604052919050565b60008219821115613c8b57613c8b613d6a565b500190565b600082613c9f57613c9f613d80565b500490565b6000816000190483118215151615613cbe57613cbe613d6a565b500290565b600082821015613cd557613cd5613d6a565b500390565b60005b83811015613cf5578181015183820152602001613cdd565b83811115611bae5750506000910152565b600181811c90821680613d1a57607f821691505b60208210811415611b7657634e487b7160e01b600052602260045260246000fd5b6000600019821415613d4f57613d4f613d6a565b5060010190565b600082613d6557613d65613d80565b500690565b634e487b7160e01b600052601160045260246000fd5b634e487b7160e01b600052601260045260246000fd5b634e487b7160e01b600052604160045260246000fd5b6001600160a01b0381168114611da757600080fd5b8015158114611da757600080fd5b6001600160e01b031981168114611da757600080fdfeddf252ad1be2c89b69c2b068fc378daa952ba7f163c4a11628f55a4df523b3efa2646970667358221220402c0cc5d9760e09ed0ab685b3618180d35d49cc4719b127da7ca8867b74bbad64736f6c63430008030033",
  "linkReferences": {},
  "deployedLinkReferences": {}
}