{
  "_format": "hh-sol-artifact-1",
  "contractName": "LaunchSL",
  "sourceName": "contracts/smart-liquidity/LaunchSL.sol",
  "abi": [
    {
      "inputs": [
        {
          "internalType": "address",
          "name": "_roles",
          "type": "address"
        }
      ],
      "stateMutability": "nonpayable",
      "type": "constructor"
    },
    {
      "anonymous": false,
      "inputs": [
        {
          "indexed": false,
          "internalType": "string",
          "name": "param",
          "type": "string"
        },
        {
          "indexed": false,
          "internalType": "uint256",
          "name": "value",
          "type": "uint256"
        }
      ],
      "name": "ParameterUpdated",
      "type": "event"
    },
    {
      "anonymous": false,
      "inputs": [
        {
          "indexed": false,
          "internalType": "string",
          "name": "param",
          "type": "string"
        },
        {
          "indexed": false,
          "internalType": "address",
          "name": "subject",
          "type": "address"
        },
        {
          "indexed": false,
          "internalType": "uint256",
          "name": "value",
          "type": "uint256"
        }
      ],
      "name": "SubjectParameterUpdated",
      "type": "event"
    },
    {
      "anonymous": false,
      "inputs": [
        {
          "indexed": false,
          "internalType": "string",
          "name": "param",
          "type": "string"
        },
        {
          "indexed": false,
          "internalType": "address",
          "name": "subject",
          "type": "address"
        }
      ],
      "name": "SubjectUpdated",
      "type": "event"
    },
    {
      "inputs": [
        {
          "internalType": "uint256",
          "name": "",
          "type": "uint256"
        }
      ],
      "name": "_charactersPlayed",
      "outputs": [
        {
          "internalType": "uint256",
          "name": "",
          "type": "uint256"
        }
      ],
      "stateMutability": "view",
      "type": "function"
    },
    {
      "inputs": [
        {
          "internalType": "uint256",
          "name": "",
          "type": "uint256"
        }
      ],
      "name": "_dependsOnCharacters",
      "outputs": [
        {
          "internalType": "uint256",
          "name": "",
          "type": "uint256"
        }
      ],
      "stateMutability": "view",
      "type": "function"
    },
    {
      "inputs": [
        {
          "internalType": "uint256",
          "name": "",
          "type": "uint256"
        }
      ],
      "name": "_dependsOnRoles",
      "outputs": [
        {
          "internalType": "uint256",
          "name": "",
          "type": "uint256"
        }
      ],
      "stateMutability": "view",
      "type": "function"
    },
    {
      "inputs": [
        {
          "internalType": "address",
          "name": "",
          "type": "address"
        },
        {
          "internalType": "address",
          "name": "",
          "type": "address"
        }
      ],
      "name": "_oracleCache",
      "outputs": [
        {
          "internalType": "address",
          "name": "",
          "type": "address"
        }
      ],
      "stateMutability": "view",
      "type": "function"
    },
    {
      "inputs": [
        {
          "internalType": "uint256",
          "name": "",
          "type": "uint256"
        }
      ],
      "name": "_rolesPlayed",
      "outputs": [
        {
          "internalType": "uint256",
          "name": "",
          "type": "uint256"
        }
      ],
      "stateMutability": "view",
      "type": "function"
    },
    {
      "inputs": [
        {
          "internalType": "contract IUniswapV2Pair",
          "name": "pair",
          "type": "address"
        },
        {
          "internalType": "string",
          "name": "poolName",
          "type": "string"
        },
        {
          "internalType": "string",
          "name": "poolSymbol",
          "type": "string"
        }
      ],
      "name": "addLiqPool",
      "outputs": [],
      "stateMutability": "nonpayable",
      "type": "function"
    },
    {
      "inputs": [
        {
          "internalType": "uint256",
          "name": "poolID",
          "type": "uint256"
        },
        {
          "internalType": "uint256",
          "name": "amount",
          "type": "uint256"
        },
        {
          "internalType": "uint256",
          "name": "minLPOut",
          "type": "uint256"
        },
        {
          "internalType": "address",
          "name": "recipient",
          "type": "address"
        }
      ],
      "name": "addMoney",
      "outputs": [],
      "stateMutability": "nonpayable",
      "type": "function"
    },
    {
      "inputs": [],
      "name": "charactersPlayed",
      "outputs": [
        {
          "internalType": "uint256[]",
          "name": "",
          "type": "uint256[]"
        }
      ],
      "stateMutability": "view",
      "type": "function"
    },
    {
      "inputs": [],
      "name": "dependsOnCharacters",
      "outputs": [
        {
          "internalType": "uint256[]",
          "name": "",
          "type": "uint256[]"
        }
      ],
      "stateMutability": "view",
      "type": "function"
    },
    {
      "inputs": [],
      "name": "dependsOnRoles",
      "outputs": [
        {
          "internalType": "uint256[]",
          "name": "",
          "type": "uint256[]"
        }
      ],
      "stateMutability": "view",
      "type": "function"
    },
    {
      "inputs": [
        {
          "internalType": "uint256",
          "name": "",
          "type": "uint256"
        }
      ],
      "name": "liqPools",
      "outputs": [
        {
          "internalType": "contract AuxLPT",
          "name": "stableLPT",
          "type": "address"
        },
        {
          "internalType": "contract AuxLPT",
          "name": "counterLPT",
          "type": "address"
        },
        {
          "internalType": "contract IERC20",
          "name": "counterPartyToken",
          "type": "address"
        },
        {
          "internalType": "contract IUniswapV2Pair",
          "name": "pair",
          "type": "address"
        },
        {
          "internalType": "uint256",
          "name": "debt",
          "type": "uint256"
        },
        {
          "internalType": "uint256",
          "name": "stableLTVPer10k",
          "type": "uint256"
        },
        {
          "internalType": "uint256",
          "name": "feeLPT",
          "type": "uint256"
        },
        {
          "internalType": "uint256",
          "name": "lastKRoot",
          "type": "uint256"
        }
      ],
      "stateMutability": "view",
      "type": "function"
    },
    {
      "inputs": [
        {
          "internalType": "uint256",
          "name": "",
          "type": "uint256"
        }
      ],
      "name": "mainCharacterCache",
      "outputs": [
        {
          "internalType": "address",
          "name": "",
          "type": "address"
        }
      ],
      "stateMutability": "view",
      "type": "function"
    },
    {
      "inputs": [
        {
          "internalType": "address",
          "name": "token",
          "type": "address"
        },
        {
          "internalType": "address",
          "name": "pegCurrency",
          "type": "address"
        }
      ],
      "name": "newCurrentOracle",
      "outputs": [],
      "stateMutability": "nonpayable",
      "type": "function"
    },
    {
      "inputs": [
        {
          "internalType": "uint256",
          "name": "liqPoolId",
          "type": "uint256"
        }
      ],
      "name": "rebalance",
      "outputs": [
        {
          "internalType": "bool",
          "name": "",
          "type": "bool"
        }
      ],
      "stateMutability": "nonpayable",
      "type": "function"
    },
    {
      "inputs": [
        {
          "internalType": "address",
          "name": "",
          "type": "address"
        },
        {
          "internalType": "uint256",
          "name": "",
          "type": "uint256"
        }
      ],
      "name": "roleCache",
      "outputs": [
        {
          "internalType": "bool",
          "name": "",
          "type": "bool"
        }
      ],
      "stateMutability": "view",
      "type": "function"
    },
    {
      "inputs": [],
      "name": "roles",
      "outputs": [
        {
          "internalType": "contract Roles",
          "name": "",
          "type": "address"
        }
      ],
      "stateMutability": "view",
      "type": "function"
    },
    {
      "inputs": [],
      "name": "rolesPlayed",
      "outputs": [
        {
          "internalType": "uint256[]",
          "name": "",
          "type": "uint256[]"
        }
      ],
      "stateMutability": "view",
      "type": "function"
    },
    {
      "inputs": [
        {
          "internalType": "uint256",
          "name": "reserveWindow",
          "type": "uint256"
        }
      ],
      "name": "setReserveWindowPer10k",
      "outputs": [],
      "stateMutability": "nonpayable",
      "type": "function"
    },
    {
      "inputs": [
        {
          "internalType": "uint256",
          "name": "liqPoolId",
          "type": "uint256"
        },
        {
          "internalType": "uint256",
          "name": "ltv",
          "type": "uint256"
        }
      ],
      "name": "setStableLTVPer10k",
      "outputs": [],
      "stateMutability": "nonpayable",
      "type": "function"
    },
    {
      "inputs": [
        {
          "internalType": "uint256",
          "name": "role",
          "type": "uint256"
        }
      ],
      "name": "updateMainCharacterCache",
      "outputs": [],
      "stateMutability": "nonpayable",
      "type": "function"
    },
    {
      "inputs": [
        {
          "internalType": "uint256",
          "name": "role",
          "type": "uint256"
        },
        {
          "internalType": "address",
          "name": "contr",
          "type": "address"
        }
      ],
      "name": "updateRoleCache",
      "outputs": [],
      "stateMutability": "nonpayable",
      "type": "function"
    },
    {
      "inputs": [],
      "name": "viewAllLiqPools",
      "outputs": [
        {
          "components": [
            {
              "internalType": "contract AuxLPT",
              "name": "stableLPT",
              "type": "address"
            },
            {
              "internalType": "contract AuxLPT",
              "name": "counterLPT",
              "type": "address"
            },
            {
              "internalType": "contract IERC20",
              "name": "counterPartyToken",
              "type": "address"
            },
            {
              "internalType": "contract IUniswapV2Pair",
              "name": "pair",
              "type": "address"
            },
            {
              "internalType": "uint256",
              "name": "debt",
              "type": "uint256"
            },
            {
              "internalType": "uint256",
              "name": "stableLTVPer10k",
              "type": "uint256"
            },
            {
              "internalType": "uint256",
              "name": "feeLPT",
              "type": "uint256"
            },
            {
              "internalType": "uint256",
              "name": "lastKRoot",
              "type": "uint256"
            }
          ],
          "internalType": "struct Rebalancer.SmartLiqPool[]",
          "name": "",
          "type": "tuple[]"
        }
      ],
      "stateMutability": "view",
      "type": "function"
    },
    {
      "inputs": [
        {
          "internalType": "address",
          "name": "uniPool",
          "type": "address"
        },
        {
          "internalType": "address",
          "name": "counterPartyToken",
          "type": "address"
        }
      ],
      "name": "viewCounterReserves",
      "outputs": [
        {
          "internalType": "uint256",
          "name": "",
          "type": "uint256"
        }
      ],
      "stateMutability": "view",
      "type": "function"
    },
    {
      "inputs": [
        {
          "internalType": "address",
          "name": "uniPool",
          "type": "address"
        },
        {
          "internalType": "address",
          "name": "counterPartyToken",
          "type": "address"
        }
      ],
      "name": "viewStableReserves",
      "outputs": [
        {
          "internalType": "uint256",
          "name": "",
          "type": "uint256"
        }
      ],
      "stateMutability": "view",
      "type": "function"
    }
  ],
  "bytecode": "0x60a0604052602860085568056bc75e2d63100000600955617530600a553480156200002957600080fd5b50604051620034fa380380620034fa8339810160408190526200004c9162000166565b80806001600160a01b038116620000b45760405162461bcd60e51b815260206004820152602260248201527f506c656173652070726f766964652076616c696420726f6c6573206164647265604482015261737360f01b606482015260840160405180910390fd5b60601b6001600160601b0319166080525050600280546001808201835560667f405787fa12a823e0f2b7631cc41b3ba8828b3321ca811111fa75cd3aa3bb5ace9283015582548082018455606a9083015560058054808301825560047f036b6384b5eca791c62761152d0c79bb0604c104a5fb6f4eb0703f3154bb3db0918201558154808401835581018590558154808401909255600891015582549081018355600092909252607191015562000196565b60006020828403121562000178578081fd5b81516001600160a01b03811681146200018f578182fd5b9392505050565b60805160601c613322620001d8600039600081816101b7015281816103d90152818161086b015281816115b60152818161164e01526116d501526133226000f3fe608060405234801561001057600080fd5b50600436106101285760003560e01c8063071060a61461012d578063128516cc146101425780632642b6061461015557806328f3fc731461019f578063392f5f64146101b2578063413e7fde146101d9578063447d52ba146101fa5780634a7a7f411461020d57806362632ea6146102225780636caa9c11146102355780637a1a04df146102485780637dad209b14610286578063996432be1461028e578063aae95ec9146102a1578063abcbc4fc146102b4578063ae0fd903146102c7578063ae15ecb5146102dc578063aeb38d8b146102ef578063bf184ea414610302578063d788b9fa14610315578063dc94cb7d14610377578063e8ea4fae1461037f578063e9c3f77d14610387578063f4993018146103b0575b600080fd5b61014061013b366004612f50565b6103c3565b005b610140610150366004612fa4565b610489565b610189610163366004612dd2565b60066020908152600092835260408084209091529082529020546001600160a01b031681565b604051610196919061306e565b60405180910390f35b6101406101ad366004612dd2565b61057d565b6101897f000000000000000000000000000000000000000000000000000000000000000081565b6101ec6101e7366004612dd2565b610670565b604051908152602001610196565b610140610208366004612f80565b610854565b61021561092a565b6040516101969190613186565b610140610230366004612fe8565b610982565b6101ec610243366004612f50565b610c68565b610276610256366004612e38565b600160209081526000928352604080842090915290825290205460ff1681565b6040519015158152602001610196565b610215610c89565b61014061029c366004612f50565b610cdf565b6101ec6102af366004612dd2565b610e1a565b6101ec6102c2366004612f50565b610fd8565b6102cf610fe8565b60405161019691906130d9565b6101406102ea366004612e83565b6110a2565b6101ec6102fd366004612f50565b611440565b6101ec610310366004612f50565b611450565b610328610323366004612f50565b611460565b604080516001600160a01b03998a168152978916602089015295881695870195909552959092166060850152608084015260a083015260c082019290925260e081019190915261010001610196565b6102156114c5565b61021561151b565b610189610395366004612f50565b6000602081905290815260409020546001600160a01b031681565b6102766103be366004612f50565b611571565b60405163b4ed0b6d60e01b8152600481018290527f00000000000000000000000000000000000000000000000000000000000000006001600160a01b03169063b4ed0b6d9060240160206040518083038186803b15801561042357600080fd5b505afa158015610437573d6000803e3d6000fd5b505050506040513d601f19601f8201168201806040525081019061045b9190612db6565b60009182526020829052604090912080546001600160a01b0319166001600160a01b03909216919091179055565b336104926115b2565b6001600160a01b031614806104b65750336104ab61164a565b6001600160a01b0316145b806104d05750336104c56116bb565b6001600160a01b0316145b6105425760405162461bcd60e51b815260206004820152603860248201527f43616c6c6572206973206e6f7420746865206f776e65722c206578656375746f604482015277391037b91030baba3437b934bd32b2103234b9b0b13632b960411b60648201526084015b60405180910390fd5b806007838154811061056457634e487b7160e01b600052603260045260246000fd5b9060005260206000209060080201600501819055505050565b6001600160a01b0382811660009081526006602090815260408083208585168452909152902054161561066c576105b261171f565b6001600160a01b0316635e73a03483836040518363ffffffff1660e01b81526004016105df929190613082565b60206040518083038186803b1580156105f757600080fd5b505afa15801561060b573d6000803e3d6000fd5b505050506040513d601f19601f8201168201806040525081019061062f9190612db6565b6001600160a01b0383811660009081526006602090815260408083208685168452909152902080546001600160a01b031916929091169190911790555b5050565b60008061067b611757565b90506000610689828561178f565b5090506000856001600160a01b03166370a08231306040518263ffffffff1660e01b81526004016106ba919061306e565b60206040518083038186803b1580156106d257600080fd5b505afa1580156106e6573d6000803e3d6000fd5b505050506040513d601f19601f8201168201806040525081019061070a9190612f68565b90506000866001600160a01b03166318160ddd6040518163ffffffff1660e01b815260040160206040518083038186803b15801561074757600080fd5b505afa15801561075b573d6000803e3d6000fd5b505050506040513d601f19601f8201168201806040525081019061077f9190612f68565b9050600080886001600160a01b0316630902f1ac6040518163ffffffff1660e01b815260040160606040518083038186803b1580156107bd57600080fd5b505afa1580156107d1573d6000803e3d6000fd5b505050506040513d601f19601f820116820180604052508101906107f59190612f02565b506001600160701b031691506001600160701b03169150600083876001600160a01b0316876001600160a01b03161461082e5782610830565b835b61083a908761325c565b610844919061323c565b9750505050505050505b92915050565b60405163f0723d9760e01b81526001600160a01b037f0000000000000000000000000000000000000000000000000000000000000000169063f0723d97906108a290849086906004016130c0565b60206040518083038186803b1580156108ba57600080fd5b505afa1580156108ce573d6000803e3d6000fd5b505050506040513d601f19601f820116820180604052508101906108f29190612e63565b6001600160a01b0391909116600090815260016020908152604080832094835293905291909120805460ff1916911515919091179055565b6060600380548060200260200160405190810160405280929190818152602001828054801561097857602002820191906000526020600020905b815481526020019060010190808311610964575b5050505050905090565b6000600785815481106109a557634e487b7160e01b600052603260045260246000fd5b6000918252602090912060089091020160038101549091506001600160a01b0316610a085760405162461bcd60e51b8152602060048201526013602482015272139bdd0818481d985b1a59081c1bdbdb081251606a1b6044820152606401610539565b610a118161185e565b15610c61576000610a20611757565b90506000670de0b6b3a7640000610a37828861325c565b610a41919061323c565b905084811015610a8f5760405162461bcd60e51b8152602060048201526019602482015278125b9cdd59999a58da595b9d08131415081c995d1d5c9b9959603a1b6044820152606401610539565b604051632770a7eb60e21b81526001600160a01b03831690639dc29fac90610abd9033908a906004016130c0565b600060405180830381600087803b158015610ad757600080fd5b505af1158015610aeb573d6000803e3d6000fd5b505084546040516340c10f1960e01b81526001600160a01b0380871694506340c10f199350610b209216908a906004016130c0565b600060405180830381600087803b158015610b3a57600080fd5b505af1158015610b4e573d6000803e3d6000fd5b50508454604080516318160ddd60e01b81529051600094506001600160a01b0390921692506318160ddd916004808301926020929190829003018186803b158015610b9857600080fd5b505afa158015610bac573d6000803e3d6000fd5b505050506040513d601f19601f82011682018060405250810190610bd09190612f68565b9050600381610be084606461325c565b610bea919061323c565b10610bfa57610bf88461185e565b505b83546040516340c10f1960e01b81526001600160a01b03909116906340c10f1990610c2b90889086906004016130c0565b600060405180830381600087803b158015610c4557600080fd5b505af1158015610c59573d6000803e3d6000fd5b505050505050505b5050505050565b60058181548110610c7857600080fd5b600091825260209091200154905081565b606060048054806020026020016040519081016040528092919081815260200182805480156109785760200282019190600052602060002090815481526020019060010190808311610964575050505050905090565b33610ce86115b2565b6001600160a01b03161480610d0c575033610d0161164a565b6001600160a01b0316145b610d6b5760405162461bcd60e51b815260206004820152602a60248201527f526f6c65733a2063616c6c6572206973206e6f7420746865206f776e6572206f604482015269391032bc32b1baba37b960b11b6064820152608401610539565b806127101015610db35760405162461bcd60e51b815260206004820152601360248201527257696e646f77206e6f7420696e2072616e676560681b6044820152606401610539565b60088190556040805181815260168183015275526573657276652077696e646f77207065722031306b60501b60608201526020810183905290517f3a64504f0bc0c335e2aecb78638a257e0351a3fe0370861fd54ee4190b9209339181900360800190a150565b600080610e25611757565b90506000610e33828561178f565b5090506000856001600160a01b03166370a08231306040518263ffffffff1660e01b8152600401610e64919061306e565b60206040518083038186803b158015610e7c57600080fd5b505afa158015610e90573d6000803e3d6000fd5b505050506040513d601f19601f82011682018060405250810190610eb49190612f68565b90506000866001600160a01b03166318160ddd6040518163ffffffff1660e01b815260040160206040518083038186803b158015610ef157600080fd5b505afa158015610f05573d6000803e3d6000fd5b505050506040513d601f19601f82011682018060405250810190610f299190612f68565b9050600080886001600160a01b0316630902f1ac6040518163ffffffff1660e01b815260040160606040518083038186803b158015610f6757600080fd5b505afa158015610f7b573d6000803e3d6000fd5b505050506040513d601f19601f82011682018060405250810190610f9f9190612f02565b506001600160701b031691506001600160701b03169150600083896001600160a01b0316876001600160a01b03161461082e5782610830565b60028181548110610c7857600080fd5b60606007805480602002602001604051908101604052809291908181526020016000905b8282101561109957600084815260209081902060408051610100810182526008860290920180546001600160a01b0390811684526001808301548216858701526002830154821693850193909352600382015416606084015260048101546080840152600581015460a0840152600681015460c08401526007015460e0830152908352909201910161100c565b50505050905090565b6000856001600160a01b0316630dfe16816040518163ffffffff1660e01b815260040160206040518083038186803b1580156110dd57600080fd5b505afa1580156110f1573d6000803e3d6000fd5b505050506040513d601f19601f820116820180604052508101906111159190612db6565b90506000866001600160a01b031663d21220a76040518163ffffffff1660e01b815260040160206040518083038186803b15801561115257600080fd5b505afa158015611166573d6000803e3d6000fd5b505050506040513d601f19601f8201168201806040525081019061118a9190612db6565b90506000611196611757565b9050826001600160a01b0316816001600160a01b031614806111c95750816001600160a01b0316816001600160a01b0316145b61120e5760405162461bcd60e51b81526020600482015260166024820152752737ba1030903b30b634b21026a7a722ac903830b4b960511b6044820152606401610539565b6000816001600160a01b0316846001600160a01b03161461122f5783611231565b825b9050600080611271607160009081526020527fa58e64716096e1e13583668e642bb90b4cbafc88ab1bb05b08a75fc65d12c990546001600160a01b031690565b6001600160a01b0316633f83dbb98b8b8b8b6040518563ffffffff1660e01b81526004016112a294939291906131ca565b6040805180830381600087803b1580156112bb57600080fd5b505af11580156112cf573d6000803e3d6000fd5b505050506040513d601f19601f820116820180604052508101906112f39190612e0a565b915091506113068282858e600a54612407565b50604051630c9fcec960e01b81526001600160a01b03831690630c9fcec99061133990309088906000199060040161309c565b600060405180830381600087803b15801561135357600080fd5b505af1158015611367573d6000803e3d6000fd5b5050604051630c9fcec960e01b81526001600160a01b0384169250630c9fcec9915061139d9030908f906000199060040161309c565b600060405180830381600087803b1580156113b757600080fd5b505af11580156113cb573d6000803e3d6000fd5b5050604051630c9fcec960e01b81526001600160a01b0384169250630c9fcec9915061140190309087906000199060040161309c565b600060405180830381600087803b15801561141b57600080fd5b505af115801561142f573d6000803e3d6000fd5b505050505050505050505050505050565b60048181548110610c7857600080fd5b60038181548110610c7857600080fd5b6007818154811061147057600080fd5b6000918252602090912060089091020180546001820154600283015460038401546004850154600586015460068701546007909701546001600160a01b03968716985094861696938616959092169390929088565b606060028054806020026020016040519081016040528092919081815260200182805480156109785760200282019190600052602060002090815481526020019060010190808311610964575050505050905090565b606060058054806020026020016040519081016040528092919081815260200182805480156109785760200282019190600052602060002090815481526020019060010190808311610964575050505050905090565b60006115aa6007838154811061159757634e487b7160e01b600052603260045260246000fd5b906000526020600020906008020161185e565b90505b919050565b60007f00000000000000000000000000000000000000000000000000000000000000006001600160a01b0316638da5cb5b6040518163ffffffff1660e01b815260040160206040518083038186803b15801561160d57600080fd5b505afa158015611621573d6000803e3d6000fd5b505050506040513d601f19601f820116820180604052508101906116459190612db6565b905090565b60007f00000000000000000000000000000000000000000000000000000000000000006001600160a01b031663c34c08e56040518163ffffffff1660e01b8152600401602060405180830381600087803b1580156116a757600080fd5b505af1158015611621573d6000803e3d6000fd5b60405163b4ed0b6d60e01b81526103e960048201526000907f00000000000000000000000000000000000000000000000000000000000000006001600160a01b03169063b4ed0b6d9060240160206040518083038186803b15801561160d57600080fd5b606a60009081526020527ff3261457f4fd0b7c00a1511877ab27b74183ac470be8db3a7ecdc64335f6f979546001600160a01b031690565b606660009081526020527f422cccb7cea5c0e46f340bb7b21b81debac329f72e31669c20ff0f3a05cc2b5b546001600160a01b031690565b600080826001600160a01b0316846001600160a01b031614156117e95760405162461bcd60e51b81526020600482015260126024820152714964656e746963616c20616464726573732160701b6044820152606401610539565b826001600160a01b0316846001600160a01b03161061180957828461180c565b83835b90925090506001600160a01b0382166118575760405162461bcd60e51b815260206004820152600d60248201526c5a65726f20616464726573732160981b6044820152606401610539565b9250929050565b600080611869611757565b83546040516370a0823160e01b81526001600160a01b03928316926370a08231926118999291169060040161306e565b60206040518083038186803b1580156118b157600080fd5b505afa1580156118c5573d6000803e3d6000fd5b505050506040513d601f19601f820116820180604052508101906118e99190612f68565b600284015460048086015460018701546040516370a0823160e01b81529495506001600160a01b0393841694919360009386936370a082319361192e9316910161306e565b60206040518083038186803b15801561194657600080fd5b505afa15801561195a573d6000803e3d6000fd5b505050506040513d601f19601f8201168201806040525081019061197e9190612f68565b600387015490915060009061199c906001600160a01b031685610670565b60038801549091506000906119ba906001600160a01b031686610e1a565b600389015460018a01546040516370a0823160e01b81529293506000926001600160a01b03928316926370a08231926119f89291169060040161306e565b60206040518083038186803b158015611a1057600080fd5b505afa158015611a24573d6000803e3d6000fd5b505050506040513d601f19601f82011682018060405250810190611a489190612f68565b90506000611adc8a60030160009054906101000a90046001600160a01b03166001600160a01b0316637464fc3d6040518163ffffffff1660e01b815260040160206040518083038186803b158015611a9f57600080fd5b505afa158015611ab3573d6000803e3d6000fd5b505050506040513d601f19601f82011682018060405250810190611ad79190612f68565b61255d565b90508960070154811115611b1c57808a6007015482611afb919061327b565b611b05908461325c565b611b0f919061323c565b60068b015560078a018190555b50611b28868484612742565b156123f7578615611c9c57600082611b40898261325c565b611b4a919061323c565b90506000611b5882876127b0565b9050600082611b678b8461325c565b611b71919061323c565b8c5460038e0154919250611ba6916001600160a01b03918216911683611b95611757565b6001600160a01b03169291906127c7565b60018c015460038d0154611bcb916001600160a01b038c8116929181169116856127c7565b60038c015460018d01546040516335313c2160e11b81526001600160a01b0392831692636a62784292611c039291169060040161306e565b602060405180830381600087803b158015611c1d57600080fd5b505af1158015611c31573d6000803e3d6000fd5b505050506040513d601f19601f82011682018060405250810190611c559190612f68565b50611c60828861327b565b60038d0154909750611c7b906001600160a01b03168a610670565b60038d0154909650611c96906001600160a01b03168a610e1a565b94505050505b600589015483611cae8761271061325c565b611cb8919061323c565b11156121cd5760008960050154612710611cd2919061327b565b60058b0154611ce1888761327b565b611ceb919061325c565b611cf5919061323c565b90506000611d218386611d08858b61327b565b611d12908761325c565b611d1c919061323c565b6127b0565b60038c0154909150611d45906001600160a01b0316611d40848a61327b565b612825565b60018b015460038c0154611d67916001600160a01b03918216911681846127c7565b5060038a015460018b015460405163226bf2d160e21b81526001600160a01b03928316926389afcb4492611da09291169060040161306e565b6040805180830381600087803b158015611db957600080fd5b505af1158015611dcd573d6000803e3d6000fd5b505050506040513d601f19601f82011682018060405250810190611df19190612fc5565b50506000611dfd611757565b60018c01546040516370a0823160e01b81526001600160a01b03928316926370a0823192611e309291169060040161306e565b60206040518083038186803b158015611e4857600080fd5b505afa158015611e5c573d6000803e3d6000fd5b505050506040513d601f19601f82011682018060405250810190611e809190612f68565b9050611e8c828861327b565b8b6004016000828254611e9f919061327b565b90915550611eaf9050828861327b565b611eb9908861327b565b60018c01546040516370a0823160e01b81529198506000916001600160a01b038b8116926370a0823192611ef3929091169060040161306e565b60206040518083038186803b158015611f0b57600080fd5b505afa158015611f1f573d6000803e3d6000fd5b505050506040513d601f19601f82011682018060405250810190611f439190612f68565b9050611f4d611757565b60018d0154604051632770a7eb60e21b81526001600160a01b0392831692639dc29fac92611f829291169086906004016130c0565b600060405180830381600087803b158015611f9c57600080fd5b505af1158015611fb0573d6000803e3d6000fd5b505050508288611fc0919061327b565b82111561204c57611fcf611757565b8c546001600160a01b03918216916340c10f199116611fee868c61327b565b611ff8908661327b565b6040518363ffffffff1660e01b81526004016120159291906130c0565b600060405180830381600087803b15801561202f57600080fd5b505af1158015612043573d6000803e3d6000fd5b505050506121c3565b81612057848a61327b565b11156121c35760008261206a858b61327b565b612074919061327b565b905061207e611757565b60038e0154604051632770a7eb60e21b81526001600160a01b0392831692639dc29fac926120b39291169085906004016130c0565b600060405180830381600087803b1580156120cd57600080fd5b505af11580156120e1573d6000803e3d6000fd5b5050505060006120f88389848a611d12919061325c565b90506121488e60010160009054906101000a90046001600160a01b03168f60030160009054906101000a90046001600160a01b0316838e6001600160a01b03166127c7909392919063ffffffff16565b8d60030160009054906101000a90046001600160a01b03166001600160a01b031663fff6cae96040518163ffffffff1660e01b8152600401600060405180830381600087803b15801561219a57600080fd5b505af11580156121ae573d6000803e3d6000fd5b5050505080836121be919061327b565b925050505b95506123e7915050565b826121da8661290461325c565b6121e4919061323c565b89600501541180156121f65750600084115b156123e7576000896005015461271061220f919061327b565b612219878661327b565b8b60050154612228919061325c565b612232919061323c565b90506000612240878361327b565b905060008561224f838761325c565b612259919061323c565b9050600061226782896127b0565b9050600082612276858461325c565b612280919061323c565b905081156123e15760018e015460038f01546122ad916001600160a01b038e8116929181169116856127c7565b6122b5611757565b60038f01546040516340c10f1960e01b81526001600160a01b03928316926340c10f19926122ea9291169085906004016130c0565b600060405180830381600087803b15801561230457600080fd5b505af1158015612318573d6000803e3d6000fd5b50505050808e60040160008282546123309190613224565b909155506123409050818b613224565b60038f0154909a5061235b906001600160a01b03168261292f565b60038e01546040516335313c2160e11b81526001600160a01b0390911690636a6278429061238d90309060040161306e565b602060405180830381600087803b1580156123a757600080fd5b505af11580156123bb573d6000803e3d6000fd5b505050506040513d601f19601f820116820180604052508101906123df9190612f68565b505b50505050505b60019750505050505050506115ad565b60009750505050505050506115ad565b60006007604051806101000160405280886001600160a01b03168152602001876001600160a01b03168152602001866001600160a01b03168152602001856001600160a01b0316815260200160008152602001848152602001600081526020016124a3866001600160a01b0316637464fc3d6040518163ffffffff1660e01b815260040160206040518083038186803b158015611a9f57600080fd5b90528154600180820184556000938452602093849020835160089093020180546001600160a01b03199081166001600160a01b0394851617825594840151818301805487169185169190911790556040840151600282018054871691851691909117905560608401516003820180549096169316929092179093556080820151600482015560a0820151600582015560c0820151600682015560e09091015160079182015554612553919061327b565b9695505050505050565b60008161256c575060006115ad565b50600181600160801b81106125865760409190911b9060801c5b600160401b811061259c5760209190911b9060401c5b600160201b81106125b25760109190911b9060201c5b6201000081106125c75760089190911b9060101c5b61010081106125db5760049190911b9060081c5b601081106125ee5760029190911b9060041c5b600881106125fe57600182901b91505b600182848161261d57634e487b7160e01b600052601260045260246000fd5b048301901c9150600182848161264357634e487b7160e01b600052601260045260246000fd5b048301901c9150600182848161266957634e487b7160e01b600052601260045260246000fd5b048301901c9150600182848161268f57634e487b7160e01b600052601260045260246000fd5b048301901c915060018284816126b557634e487b7160e01b600052601260045260246000fd5b048301901c915060018284816126db57634e487b7160e01b600052601260045260246000fd5b048301901c9150600182848161270157634e487b7160e01b600052601260045260246000fd5b048301901c9150600082848161272757634e487b7160e01b600052601260045260246000fd5b04905080831015612738578261273a565b805b949350505050565b6000806127578584612752611757565b612a26565b905083811115612794578060095461271060085487612776919061325c565b612780919061323c565b61278a9190613224565b10159150506127a9565b8360095461271060085484612776919061325c565b9392505050565b60008183106127c057508061084e565b508161084e565b61281f846323b872dd60e01b8585856040516024016127e89392919061309c565b60408051601f198184030181529190526020810180516001600160e01b03166001600160e01b031990931692909217909152612aca565b50505050565b600061282f611757565b90506000816001600160a01b031663df8279b0856040518263ffffffff1660e01b815260040161285f919061306e565b60206040518083038186803b15801561287757600080fd5b505afa15801561288b573d6000803e3d6000fd5b505050506040513d601f19601f820116820180604052508101906128af9190612f68565b9050816001600160a01b031663d35f063e85858410156128d05760006128da565b6128da868561327b565b6040518363ffffffff1660e01b81526004016128f79291906130c0565b600060405180830381600087803b15801561291157600080fd5b505af1158015612925573d6000803e3d6000fd5b5050505050505050565b6000612939611757565b9050806001600160a01b031663d35f063e8484846001600160a01b031663df8279b0886040518263ffffffff1660e01b8152600401612978919061306e565b60206040518083038186803b15801561299057600080fd5b505afa1580156129a4573d6000803e3d6000fd5b505050506040513d601f19601f820116820180604052508101906129c89190612f68565b6129d29190613224565b6040518363ffffffff1660e01b81526004016129ef9291906130c0565b600060405180830381600087803b158015612a0957600080fd5b505af1158015612a1d573d6000803e3d6000fd5b50505050505050565b600080612a338584612ba1565b604051630576cbc360e41b81526001600160a01b0387811660048301526024820187905285811660448301529192509082169063576cbc3090606401602060405180830381600087803b158015612a8957600080fd5b505af1158015612a9d573d6000803e3d6000fd5b505050506040513d601f19601f82011682018060405250810190612ac19190612f68565b95945050505050565b6000612b1f826040518060400160405280602081526020017f5361666545524332303a206c6f772d6c6576656c2063616c6c206661696c6564815250856001600160a01b0316612c559092919063ffffffff16565b805190915015612b9c5780806020019051810190612b3d9190612e63565b612b9c5760405162461bcd60e51b815260206004820152602a60248201527f5361666545524332303a204552433230206f7065726174696f6e20646964206e6044820152691bdd081cdd58d8d9595960b21b6064820152608401610539565b505050565b6001600160a01b0380831660009081526006602090815260408083208585168452909152902054168061084e57612bd661171f565b6001600160a01b0316631757616884846040518363ffffffff1660e01b8152600401612c03929190613082565b602060405180830381600087803b158015612c1d57600080fd5b505af1158015612c31573d6000803e3d6000fd5b505050506040513d601f19601f820116820180604052508101906127a99190612db6565b606061273a848460008585843b612cae5760405162461bcd60e51b815260206004820152601d60248201527f416464726573733a2063616c6c20746f206e6f6e2d636f6e74726163740000006044820152606401610539565b600080866001600160a01b03168587604051612cca9190613052565b60006040518083038185875af1925050503d8060008114612d07576040519150601f19603f3d011682016040523d82523d6000602084013e612d0c565b606091505b5091509150612d1c828286612d27565b979650505050505050565b60608315612d365750816127a9565b825115612d465782518084602001fd5b8160405162461bcd60e51b815260040161053991906131f1565b60008083601f840112612d71578182fd5b5081356001600160401b03811115612d87578182fd5b60208301915083602082850101111561185757600080fd5b80516001600160701b03811681146115ad57600080fd5b600060208284031215612dc7578081fd5b81516127a9816132d4565b60008060408385031215612de4578081fd5b8235612def816132d4565b91506020830135612dff816132d4565b809150509250929050565b60008060408385031215612e1c578182fd5b8251612e27816132d4565b6020840151909250612dff816132d4565b60008060408385031215612e4a578182fd5b8235612e55816132d4565b946020939093013593505050565b600060208284031215612e74578081fd5b815180151581146127a9578182fd5b600080600080600060608688031215612e9a578081fd5b8535612ea5816132d4565b945060208601356001600160401b0380821115612ec0578283fd5b612ecc89838a01612d60565b90965094506040880135915080821115612ee4578283fd5b50612ef188828901612d60565b969995985093965092949392505050565b600080600060608486031215612f16578283fd5b612f1f84612d9f565b9250612f2d60208501612d9f565b9150604084015163ffffffff81168114612f45578182fd5b809150509250925092565b600060208284031215612f61578081fd5b5035919050565b600060208284031215612f79578081fd5b5051919050565b60008060408385031215612f92578182fd5b823591506020830135612dff816132d4565b60008060408385031215612fb6578182fd5b50508035926020909101359150565b60008060408385031215612fd7578182fd5b505080516020909101519092909150565b60008060008060808587031215612ffd578384fd5b843593506020850135925060408501359150606085013561301d816132d4565b939692955090935050565b60008284528282602086013780602084860101526020601f19601f85011685010190509392505050565b60008251613064818460208701613292565b9190910192915050565b6001600160a01b0391909116815260200190565b6001600160a01b0392831681529116602082015260400190565b6001600160a01b039384168152919092166020820152604081019190915260600190565b6001600160a01b03929092168252602082015260400190565b602080825282518282018190526000919060409081850190868401855b8281101561317957815180516001600160a01b0390811686528782015181168887015286820151168686015260608082015161313c828801826001600160a01b03169052565b50506080818101519086015260a0808201519086015260c0808201519086015260e0908101519085015261010090930192908501906001016130f6565b5091979650505050505050565b6020808252825182820181905260009190848201906040850190845b818110156131be578351835292840192918401916001016131a2565b50909695505050505050565b6000604082526131de604083018688613028565b8281036020840152612d1c818587613028565b6000602082528251806020840152613210816040850160208701613292565b601f01601f19169190910160400192915050565b60008219821115613237576132376132be565b500190565b60008261325757634e487b7160e01b81526012600452602481fd5b500490565b6000816000190483118215151615613276576132766132be565b500290565b60008282101561328d5761328d6132be565b500390565b60005b838110156132ad578181015183820152602001613295565b8381111561281f5750506000910152565b634e487b7160e01b600052601160045260246000fd5b6001600160a01b03811681146132e957600080fd5b5056fea264697066735822122023ea8149abe9ae91153cf60688870f7dedb10fcf024f9d9b17009362cd5b5c7064736f6c63430008030033",
  "linkReferences": {},
  "deployedLinkReferences": {}
}