{
  "_format": "hh-sol-artifact-1",
  "contractName": "SLFactory",
  "sourceName": "contracts/smart-liquidity/SLFactory.sol",
  "abi": [
    {
      "inputs": [
        {
          "internalType": "address",
          "name": "_roles",
          "type": "address"
        }
      ],
      "stateMutability": "nonpayable",
      "type": "constructor"
    },
    {
      "anonymous": false,
      "inputs": [
        {
          "indexed": false,
          "internalType": "string",
          "name": "param",
          "type": "string"
        },
        {
          "indexed": false,
          "internalType": "uint256",
          "name": "value",
          "type": "uint256"
        }
      ],
      "name": "ParameterUpdated",
      "type": "event"
    },
    {
      "anonymous": false,
      "inputs": [
        {
          "indexed": false,
          "internalType": "string",
          "name": "param",
          "type": "string"
        },
        {
          "indexed": false,
          "internalType": "address",
          "name": "subject",
          "type": "address"
        },
        {
          "indexed": false,
          "internalType": "uint256",
          "name": "value",
          "type": "uint256"
        }
      ],
      "name": "SubjectParameterUpdated",
      "type": "event"
    },
    {
      "anonymous": false,
      "inputs": [
        {
          "indexed": false,
          "internalType": "string",
          "name": "param",
          "type": "string"
        },
        {
          "indexed": false,
          "internalType": "address",
          "name": "subject",
          "type": "address"
        }
      ],
      "name": "SubjectUpdated",
      "type": "event"
    },
    {
      "inputs": [
        {
          "internalType": "uint256",
          "name": "",
          "type": "uint256"
        }
      ],
      "name": "_charactersPlayed",
      "outputs": [
        {
          "internalType": "uint256",
          "name": "",
          "type": "uint256"
        }
      ],
      "stateMutability": "view",
      "type": "function"
    },
    {
      "inputs": [
        {
          "internalType": "uint256",
          "name": "",
          "type": "uint256"
        }
      ],
      "name": "_dependsOnCharacters",
      "outputs": [
        {
          "internalType": "uint256",
          "name": "",
          "type": "uint256"
        }
      ],
      "stateMutability": "view",
      "type": "function"
    },
    {
      "inputs": [
        {
          "internalType": "uint256",
          "name": "",
          "type": "uint256"
        }
      ],
      "name": "_dependsOnRoles",
      "outputs": [
        {
          "internalType": "uint256",
          "name": "",
          "type": "uint256"
        }
      ],
      "stateMutability": "view",
      "type": "function"
    },
    {
      "inputs": [
        {
          "internalType": "uint256",
          "name": "",
          "type": "uint256"
        }
      ],
      "name": "_rolesPlayed",
      "outputs": [
        {
          "internalType": "uint256",
          "name": "",
          "type": "uint256"
        }
      ],
      "stateMutability": "view",
      "type": "function"
    },
    {
      "inputs": [],
      "name": "charactersPlayed",
      "outputs": [
        {
          "internalType": "uint256[]",
          "name": "",
          "type": "uint256[]"
        }
      ],
      "stateMutability": "view",
      "type": "function"
    },
    {
      "inputs": [],
      "name": "dependsOnCharacters",
      "outputs": [
        {
          "internalType": "uint256[]",
          "name": "",
          "type": "uint256[]"
        }
      ],
      "stateMutability": "view",
      "type": "function"
    },
    {
      "inputs": [],
      "name": "dependsOnRoles",
      "outputs": [
        {
          "internalType": "uint256[]",
          "name": "",
          "type": "uint256[]"
        }
      ],
      "stateMutability": "view",
      "type": "function"
    },
    {
      "inputs": [
        {
          "internalType": "string",
          "name": "poolName",
          "type": "string"
        },
        {
          "internalType": "string",
          "name": "poolSymbol",
          "type": "string"
        }
      ],
      "name": "initPool",
      "outputs": [
        {
          "internalType": "address",
          "name": "",
          "type": "address"
        },
        {
          "internalType": "address",
          "name": "",
          "type": "address"
        }
      ],
      "stateMutability": "nonpayable",
      "type": "function"
    },
    {
      "inputs": [
        {
          "internalType": "uint256",
          "name": "",
          "type": "uint256"
        }
      ],
      "name": "mainCharacterCache",
      "outputs": [
        {
          "internalType": "address",
          "name": "",
          "type": "address"
        }
      ],
      "stateMutability": "view",
      "type": "function"
    },
    {
      "inputs": [
        {
          "internalType": "address",
          "name": "",
          "type": "address"
        },
        {
          "internalType": "uint256",
          "name": "",
          "type": "uint256"
        }
      ],
      "name": "roleCache",
      "outputs": [
        {
          "internalType": "bool",
          "name": "",
          "type": "bool"
        }
      ],
      "stateMutability": "view",
      "type": "function"
    },
    {
      "inputs": [],
      "name": "roles",
      "outputs": [
        {
          "internalType": "contract Roles",
          "name": "",
          "type": "address"
        }
      ],
      "stateMutability": "view",
      "type": "function"
    },
    {
      "inputs": [],
      "name": "rolesPlayed",
      "outputs": [
        {
          "internalType": "uint256[]",
          "name": "",
          "type": "uint256[]"
        }
      ],
      "stateMutability": "view",
      "type": "function"
    },
    {
      "inputs": [
        {
          "internalType": "uint256",
          "name": "role",
          "type": "uint256"
        }
      ],
      "name": "updateMainCharacterCache",
      "outputs": [],
      "stateMutability": "nonpayable",
      "type": "function"
    },
    {
      "inputs": [
        {
          "internalType": "uint256",
          "name": "role",
          "type": "uint256"
        },
        {
          "internalType": "address",
          "name": "contr",
          "type": "address"
        }
      ],
      "name": "updateRoleCache",
      "outputs": [],
      "stateMutability": "nonpayable",
      "type": "function"
    }
  ],
  "bytecode": "0x60a060405234801561001057600080fd5b5060405161358a38038061358a83398101604081905261002f916100ab565b806001600160a01b0381166100955760405162461bcd60e51b815260206004820152602260248201527f506c656173652070726f766964652076616c696420726f6c6573206164647265604482015261737360f01b606482015260840160405180910390fd5b60601b6001600160601b031916608052506100d9565b6000602082840312156100bc578081fd5b81516001600160a01b03811681146100d2578182fd5b9392505050565b60805160601c6134786101126000396000818160ee015281816102a201528181610401015281816104a7015261053401526134786000f3fe60806040523480156200001157600080fd5b5060043610620000ca5760003560e01c8063071060a614620000cf578063392f5f6414620000e85780633f83dbb9146200012d578063447d52ba14620001655780634a7a7f41146200017c5780636caa9c1114620001955780637a1a04df14620001bb5780637dad209b14620001fd578063abcbc4fc1462000207578063aeb38d8b146200021e578063bf184ea41462000235578063dc94cb7d146200024c578063e8ea4fae1462000256578063e9c3f77d1462000260575b600080fd5b620000e6620000e036600462000950565b6200028c565b005b620001107f000000000000000000000000000000000000000000000000000000000000000081565b6040516001600160a01b0390911681526020015b60405180910390f35b620001446200013e366004620008e1565b62000356565b604080516001600160a01b0393841681529290911660208301520162000124565b620000e66200017636600462000969565b6200050e565b62000186620005ea565b60405162000124919062000a75565b620001ac620001a636600462000950565b62000644565b60405190815260200162000124565b620001ec620001cc36600462000891565b600160209081526000928352604080842090915290825290205460ff1681565b604051901515815260200162000124565b6200018662000666565b620001ac6200021836600462000950565b620006be565b620001ac6200022f36600462000950565b620006cf565b620001ac6200024636600462000950565b620006e0565b62000186620006f1565b6200018662000749565b620001106200027136600462000950565b6000602081905290815260409020546001600160a01b031681565b60405163b4ed0b6d60e01b8152600481018290527f00000000000000000000000000000000000000000000000000000000000000006001600160a01b03169063b4ed0b6d9060240160206040518083038186803b158015620002ed57600080fd5b505afa15801562000302573d6000803e3d6000fd5b505050506040513d601f19601f820116820180604052508101906200032891906200086b565b60009182526020829052604090912080546001600160a01b0319166001600160a01b03909216919091179055565b6000806200036433620007a1565b620003b55760405162461bcd60e51b815260206004820152601d60248201527f4e6f7420617574686f72697a656420746f20696e6974206120706f6f6c000000604482015260640160405180910390fd5b60088686604051602001620003cc929190620009e9565b6040516020818303038152906040528585604051602001620003f092919062000a33565b6040516020818303038152906040527f00000000000000000000000000000000000000000000000000000000000000006040516200042e9062000814565b6200043d949392919062000abb565b604051809103906000f0801580156200045a573d6000803e3d6000fd5b50600887876040516020016200047292919062000a0d565b60405160208183030381529060405286866040516020016200049692919062000a54565b6040516020818303038152906040527f0000000000000000000000000000000000000000000000000000000000000000604051620004d49062000814565b620004e3949392919062000abb565b604051809103906000f08015801562000500573d6000803e3d6000fd5b509150915094509492505050565b60405163f0723d9760e01b81526001600160a01b038281166004830152602482018490527f0000000000000000000000000000000000000000000000000000000000000000169063f0723d979060440160206040518083038186803b1580156200057757600080fd5b505afa1580156200058c573d6000803e3d6000fd5b505050506040513d601f19601f82011682018060405250810190620005b29190620008bf565b6001600160a01b0391909116600090815260016020908152604080832094835293905291909120805460ff1916911515919091179055565b606060038054806020026020016040519081016040528092919081815260200182805480156200063a57602002820191906000526020600020905b81548152602001906001019080831162000625575b5050505050905090565b600581815481106200065557600080fd5b600091825260209091200154905081565b606060048054806020026020016040519081016040528092919081815260200182805480156200063a576020028201919060005260206000209081548152602001906001019080831162000625575050505050905090565b600281815481106200065557600080fd5b600481815481106200065557600080fd5b600381815481106200065557600080fd5b606060028054806020026020016040519081016040528092919081815260200182805480156200063a576020028201919060005260206000209081548152602001906001019080831162000625575050505050905090565b606060058054806020026020016040519081016040528092919081815260200182805480156200063a576020028201919060005260206000209081548152602001906001019080831162000625575050505050905090565b6001600160a01b03811660009081526001602090815260408083206008845290915281205460ff1615620007d8575060016200080f565b620007e56008836200050e565b506001600160a01b03811660009081526001602090815260408083206008845290915290205460ff165b919050565b6129258062000b1e83390190565b60008083601f84011262000834578182fd5b5081356001600160401b038111156200084b578182fd5b6020830191508360208285010111156200086457600080fd5b9250929050565b6000602082840312156200087d578081fd5b81516200088a8162000b04565b9392505050565b60008060408385031215620008a4578081fd5b8235620008b18162000b04565b946020939093013593505050565b600060208284031215620008d1578081fd5b815180151581146200088a578182fd5b60008060008060408587031215620008f7578182fd5b84356001600160401b03808211156200090e578384fd5b6200091c8883890162000822565b9096509450602087013591508082111562000935578384fd5b50620009448782880162000822565b95989497509550505050565b60006020828403121562000962578081fd5b5035919050565b600080604083850312156200097c578182fd5b823591506020830135620009908162000b04565b809150509250929050565b60008151808452815b81811015620009c257602081850181015186830182015201620009a4565b81811115620009d45782602083870101525b50601f01601f19169290920160200192915050565b600067026a7a722ac9016960c51b8252828460088401379101600801908152919050565b600069021a7aaa72a22a91016960b51b82528284600a8401379101600a01908152919050565b6000644d4c50542d60d81b8252828460058401379101600501908152919050565b600064434c50542d60d81b8252828460058401379101600501908152919050565b6020808252825182820181905260009190848201906040850190845b8181101562000aaf5783518352928401929184019160010162000a91565b50909695505050505050565b60008582526080602083015262000ad660808301866200099b565b828103604084015262000aea81866200099b565b91505060018060a01b038316606083015295945050505050565b6001600160a01b038116811462000b1a57600080fd5b5056fe6101a06040527f6e71edae12b1b97f4d1f60370fef10105fa2faae0126114a169c64845d6126c9610140523480156200003757600080fd5b5060405162002925380380620029258339810160408190526200005a9162000404565b828260001983808380604051806040016040528060018152602001603160f81b8152508787600160008190555081600490805190602001906200009f92919062000282565b508051620000b590600590602084019062000282565b5050825160208085019190912083518483012060e08290526101008190524660a0818152604080517f8b73c3c69bb8fe3d512ecc4cf759cc79239f7b179b0ffacaa9a75d522b39400f81880181905281830187905260608201869052608082019490945230818401528151808203909301835260c0019052805194019390932091935091906080523060601b60c0526101205250505050506001600160a01b038116620001b35760405162461bcd60e51b815260206004820152602260248201527f506c656173652070726f766964652076616c696420726f6c6573206164647265604482015261737360f01b606482015260840160405180910390fd5b60601b6001600160601b0319166101605250600d55505060405163f0723d9760e01b8152336004820152602481018590526001600160a01b0382169063f0723d979060440160206040518083038186803b1580156200021157600080fd5b505afa15801562000226573d6000803e3d6000fd5b505050506040513d601f19601f820116820180604052508101906200024c9190620003db565b3360009081526008602090815260408083208884529091529020805460ff191691151591909117905550505061018052620004e9565b828054620002909062000496565b90600052602060002090601f016020900481019282620002b45760008555620002ff565b82601f10620002cf57805160ff1916838001178555620002ff565b82800160010185558215620002ff579182015b82811115620002ff578251825591602001919060010190620002e2565b506200030d92915062000311565b5090565b5b808211156200030d576000815560010162000312565b600082601f83011262000339578081fd5b81516001600160401b0380821115620003565762000356620004d3565b604051601f8301601f19908116603f01168101908282118183101715620003815762000381620004d3565b816040528381526020925086838588010111156200039d578485fd5b8491505b83821015620003c05785820183015181830184015290820190620003a1565b83821115620003d157848385830101525b9695505050505050565b600060208284031215620003ed578081fd5b81518015158114620003fd578182fd5b9392505050565b600080600080608085870312156200041a578283fd5b845160208601519094506001600160401b038082111562000439578485fd5b620004478883890162000328565b945060408701519150808211156200045d578384fd5b506200046c8782880162000328565b606087015190935090506001600160a01b03811681146200048b578182fd5b939692955090935050565b600181811c90821680620004ab57607f821691505b60208210811415620004cd57634e487b7160e01b600052602260045260246000fd5b50919050565b634e487b7160e01b600052604160045260246000fd5b60805160a05160c05160601c60e0516101005161012051610140516101605160601c6101805161239462000591600039600081816102f90152818161111e0152818161115a015261119d01526000818161026e0152818161058301528181610a29015281816111d0015261126301526000610e210152600061168d015260006116dc015260006116b70152600061160e015260006116380152600061166201526123946000f3fe608060405234801561001057600080fd5b50600436106101ac5760003560e01c806306fdde03146101b1578063071060a6146101cf578063095ea7b3146101e45780630c9fcec9146102075780631501bf031461021a57806318160ddd1461022d57806323b872dd1461023f578063313ce567146102525780633644e51514610261578063392f5f641461026957806339509351146102a85780633a57e898146102bb57806340c10f19146102ce578063447d52ba146102e157806346f4e3ba146102f45780634a7a7f411461031b5780636caa9c111461033057806370a08231146103435780637a1a04df146103565780637dad209b146103845780637ecebe001461038c57806395d89b411461039f5780639dc29fac146103a7578063a457c2d7146103ba578063a9059cbb146103cd578063abcbc4fc146103e0578063aeb38d8b146103f3578063bf184ea414610406578063d35f063e14610419578063d505accf1461042c578063dc94cb7d1461043f578063dd62ed3e14610447578063df8279b014610480578063e8ea4fae146104a0578063e9c3f77d146104a8578063eeabb525146104d1575b600080fd5b6101b96104da565b6040516101c691906121d4565b60405180910390f35b6101e26101dd366004612107565b61056d565b005b6101f76101f23660046120a8565b610633565b60405190151581526020016101c6565b6101e2610215366004611ff3565b610649565b6101e26102283660046120f3565b61072f565b6003545b6040519081526020016101c6565b6101f761024d366004611ff3565b61079c565b604051601281526020016101c6565b610231610848565b6102907f000000000000000000000000000000000000000000000000000000000000000081565b6040516001600160a01b0390911681526020016101c6565b6101f76102b63660046120a8565b610857565b6101e26102c9366004612107565b610893565b6101e26102dc3660046120a8565b610924565b6101e26102ef366004612137565b610a12565b6102317f000000000000000000000000000000000000000000000000000000000000000081565b610323610ae8565b6040516101c69190612190565b61023161033e366004612107565b610b3f565b610231610351366004611f83565b610b60565b6101f76103643660046120a8565b600860209081526000928352604080842090915290825290205460ff1681565b610323610b7f565b61023161039a366004611f83565b610bd5565b6101b9610bf5565b6101e26103b53660046120a8565b610c04565b6101f76103c83660046120a8565b610c86565b6101f76103db3660046120a8565b610d1f565b6102316103ee366004612107565b610d2c565b610231610401366004612107565b610d3c565b610231610414366004612107565b610d4c565b6101e26104273660046120a8565b610d5c565b6101e261043a366004612033565b610dcd565b610323610f31565b610231610455366004611fbb565b6001600160a01b03918216600090815260026020908152604080832093909416825291909152205490565b61023161048e366004611f83565b600e6020526000908152604090205481565b610323610f87565b6102906104b6366004612107565b6007602052600090815260409020546001600160a01b031681565b610231600d5481565b6060600480546104e9906122de565b80601f0160208091040260200160405190810160405280929190818152602001828054610515906122de565b80156105625780601f1061053757610100808354040283529160200191610562565b820191906000526020600020905b81548152906001019060200180831161054557829003601f168201915b505050505090505b90565b60405163b4ed0b6d60e01b8152600481018290527f00000000000000000000000000000000000000000000000000000000000000006001600160a01b03169063b4ed0b6d9060240160206040518083038186803b1580156105cd57600080fd5b505afa1580156105e1573d6000803e3d6000fd5b505050506040513d601f19601f820116820180604052508101906106059190611f9f565b60009182526007602052604090912080546001600160a01b0319166001600160a01b03909216919091179055565b6000610640338484610fdd565b50600192915050565b61065233611101565b8061066c5750336106616111cc565b6001600160a01b0316145b8061068657503361067b61125f565b6001600160a01b0316145b6106ab5760405162461bcd60e51b81526004016106a290612207565b60405180910390fd5b6106b483611101565b6107165760405162461bcd60e51b815260206004820152602d60248201527f417070726f766565206973206e6f7420616e20617574686f72697a6564206d6960448201526c373a32b9101790313ab93732b960991b60648201526084016106a2565b61072a6001600160a01b03831684836112d0565b505050565b61073833611101565b806107525750336107476111cc565b6001600160a01b0316145b8061076c57503361076161125f565b6001600160a01b0316145b6107885760405162461bcd60e51b81526004016106a290612207565b61072a6001600160a01b038416838361141a565b60006107a9848484611439565b6001600160a01b03841660009081526002602090815260408083203384529091529020548281101561082e5760405162461bcd60e51b815260206004820152602860248201527f45524332303a207472616e7366657220616d6f756e74206578636565647320616044820152676c6c6f77616e636560c01b60648201526084016106a2565b61083b8533858403610fdd565b60019150505b9392505050565b6000610852611601565b905090565b3360008181526002602090815260408083206001600160a01b0387168452909152812054909161064091859061088e908690612283565b610fdd565b3361089c6111cc565b6001600160a01b031614806108c05750336108b561125f565b6001600160a01b0316145b61091f5760405162461bcd60e51b815260206004820152602a60248201527f526f6c65733a2063616c6c6572206973206e6f7420746865206f776e6572206f604482015269391032bc32b1baba37b960b11b60648201526084016106a2565b600d55565b600260005414156109475760405162461bcd60e51b81526004016106a29061224c565b600260005561095533611101565b61099b5760405162461bcd60e51b81526020600482015260176024820152762737ba1030b71030baba37b934bd32b21036b4b73a32b960491b60448201526064016106a2565b6109a5828261172c565b600354600d5411610a095760405162461bcd60e51b815260206004820152602860248201527f546f74616c20737570706c79206578636565647320676c6f62616c2064656274604482015267206365696c696e6760c01b60648201526084016106a2565b50506001600055565b60405163f0723d9760e01b81526001600160a01b037f0000000000000000000000000000000000000000000000000000000000000000169063f0723d9790610a609084908690600401612177565b60206040518083038186803b158015610a7857600080fd5b505afa158015610a8c573d6000803e3d6000fd5b505050506040513d601f19601f82011682018060405250810190610ab091906120d3565b6001600160a01b0391909116600090815260086020908152604080832094835293905291909120805460ff1916911515919091179055565b6060600a80548060200260200160405190810160405280929190818152602001828054801561056257602002820191906000526020600020905b815481526020019060010190808311610b22575050505050905090565b600c8181548110610b4f57600080fd5b600091825260209091200154905081565b6001600160a01b0381166000908152600160205260409020545b919050565b6060600b8054806020026020016040519081016040528092919081815260200182805480156105625760200282019190600052602060002090815481526020019060010190808311610b22575050505050905090565b6001600160a01b0381166000908152600660205260408120545b92915050565b6060600580546104e9906122de565b60026000541415610c275760405162461bcd60e51b81526004016106a29061224c565b6002600055610c3533611101565b610c7c5760405162461bcd60e51b81526020600482015260186024820152772737ba1030b71030baba3437b934bd32b210313ab93732b960411b60448201526064016106a2565b610a098282611805565b3360009081526002602090815260408083206001600160a01b038616845290915281205482811015610d085760405162461bcd60e51b815260206004820152602560248201527f45524332303a2064656372656173656420616c6c6f77616e63652062656c6f77604482015264207a65726f60d81b60648201526084016106a2565b610d153385858403610fdd565b5060019392505050565b6000610640338484611439565b60098181548110610b4f57600080fd5b600b8181548110610b4f57600080fd5b600a8181548110610b4f57600080fd5b610d6533611101565b610db15760405162461bcd60e51b815260206004820152601f60248201527f4e6f7420616e20617574686f72697a6564206d696e7465722f6275726e65720060448201526064016106a2565b6001600160a01b039091166000908152600e6020526040902055565b83421115610e1d5760405162461bcd60e51b815260206004820152601d60248201527f45524332305065726d69743a206578706972656420646561646c696e6500000060448201526064016106a2565b60007f0000000000000000000000000000000000000000000000000000000000000000888888610e4c8c611948565b6040805160208101969096526001600160a01b0394851690860152929091166060840152608083015260a082015260c0810186905260e0016040516020818303038152906040528051906020012090506000610ea782611970565b90506000610eb7828787876119be565b9050896001600160a01b0316816001600160a01b031614610f1a5760405162461bcd60e51b815260206004820152601e60248201527f45524332305065726d69743a20696e76616c6964207369676e6174757265000060448201526064016106a2565b610f258a8a8a610fdd565b50505050505050505050565b606060098054806020026020016040519081016040528092919081815260200182805480156105625760200282019190600052602060002090815481526020019060010190808311610b22575050505050905090565b6060600c8054806020026020016040519081016040528092919081815260200182805480156105625760200282019190600052602060002090815481526020019060010190808311610b22575050505050905090565b6001600160a01b03831661103f5760405162461bcd60e51b8152602060048201526024808201527f45524332303a20617070726f76652066726f6d20746865207a65726f206164646044820152637265737360e01b60648201526084016106a2565b6001600160a01b0382166110a05760405162461bcd60e51b815260206004820152602260248201527f45524332303a20617070726f766520746f20746865207a65726f206164647265604482015261737360f01b60648201526084016106a2565b6001600160a01b0383811660008181526002602090815260408083209487168084529482529182902085905590518481527f8c5be1e5ebec7d5bd14f71427d1e84f3dd0314c0f7b2291e5b200ac8c7c3b925910160405180910390a3505050565b6001600160a01b03811660009081526008602090815260408083207f0000000000000000000000000000000000000000000000000000000000000000845290915281205460ff161561115557506001610b7a565b61117f7f000000000000000000000000000000000000000000000000000000000000000083610a12565b506001600160a01b03811660009081526008602090815260408083207f0000000000000000000000000000000000000000000000000000000000000000845290915290205460ff16610b7a565b60007f00000000000000000000000000000000000000000000000000000000000000006001600160a01b0316638da5cb5b6040518163ffffffff1660e01b815260040160206040518083038186803b15801561122757600080fd5b505afa15801561123b573d6000803e3d6000fd5b505050506040513d601f19601f820116820180604052508101906108529190611f9f565b60007f00000000000000000000000000000000000000000000000000000000000000006001600160a01b031663c34c08e56040518163ffffffff1660e01b8152600401602060405180830381600087803b1580156112bc57600080fd5b505af115801561123b573d6000803e3d6000fd5b8015806113595750604051636eb1769f60e11b81523060048201526001600160a01b03838116602483015284169063dd62ed3e9060440160206040518083038186803b15801561131f57600080fd5b505afa158015611333573d6000803e3d6000fd5b505050506040513d601f19601f82011682018060405250810190611357919061211f565b155b6113c45760405162461bcd60e51b815260206004820152603660248201527f5361666545524332303a20617070726f76652066726f6d206e6f6e2d7a65726f60448201527520746f206e6f6e2d7a65726f20616c6c6f77616e636560501b60648201526084016106a2565b61072a8363095ea7b360e01b84846040516024016113e3929190612177565b60408051601f198184030181529190526020810180516001600160e01b03166001600160e01b0319909316929092179091526119e6565b61072a8363a9059cbb60e01b84846040516024016113e3929190612177565b6001600160a01b03831661149d5760405162461bcd60e51b815260206004820152602560248201527f45524332303a207472616e736665722066726f6d20746865207a65726f206164604482015264647265737360d81b60648201526084016106a2565b6001600160a01b0382166114ff5760405162461bcd60e51b815260206004820152602360248201527f45524332303a207472616e7366657220746f20746865207a65726f206164647260448201526265737360e81b60648201526084016106a2565b6001600160a01b038316600090815260016020526040902054818110156115775760405162461bcd60e51b815260206004820152602660248201527f45524332303a207472616e7366657220616d6f756e7420657863656564732062604482015265616c616e636560d01b60648201526084016106a2565b6001600160a01b038085166000908152600160205260408082208585039055918516815290812080548492906115ae908490612283565b92505081905550826001600160a01b0316846001600160a01b031660008051602061233f833981519152846040516115e891815260200190565b60405180910390a36115fb848484611ab8565b50505050565b6000306001600160a01b037f00000000000000000000000000000000000000000000000000000000000000001614801561165a57507f000000000000000000000000000000000000000000000000000000000000000046145b1561168657507f000000000000000000000000000000000000000000000000000000000000000061056a565b50604080517f00000000000000000000000000000000000000000000000000000000000000006020808301919091527f0000000000000000000000000000000000000000000000000000000000000000828401527f000000000000000000000000000000000000000000000000000000000000000060608301524660808301523060a0808401919091528351808403909101815260c0909201909252805191012061056a565b6001600160a01b0382166117825760405162461bcd60e51b815260206004820152601f60248201527f45524332303a206d696e7420746f20746865207a65726f20616464726573730060448201526064016106a2565b80600360008282546117949190612283565b90915550506001600160a01b038216600090815260016020526040812080548392906117c1908490612283565b90915550506040518181526001600160a01b0383169060009060008051602061233f8339815191529060200160405180910390a361180160008383611ab8565b5050565b6001600160a01b0382166118655760405162461bcd60e51b815260206004820152602160248201527f45524332303a206275726e2066726f6d20746865207a65726f206164647265736044820152607360f81b60648201526084016106a2565b6001600160a01b038216600090815260016020526040902054818110156118d95760405162461bcd60e51b815260206004820152602260248201527f45524332303a206275726e20616d6f756e7420657863656564732062616c616e604482015261636560f01b60648201526084016106a2565b6001600160a01b038316600090815260016020526040812083830390556003805484929061190890849061229b565b90915550506040518281526000906001600160a01b0385169060008051602061233f8339815191529060200160405180910390a361072a83600084611ab8565b6001600160a01b03811660009081526006602052604090208054600181018255905b50919050565b6000610bef61197d611601565b8360405161190160f01b6020820152602281018390526042810182905260009060620160405160208183030381529060405280519060200120905092915050565b60008060006119cf87878787611b27565b915091506119dc81611c0a565b5095945050505050565b6000611a3b826040518060400160405280602081526020017f5361666545524332303a206c6f772d6c6576656c2063616c6c206661696c6564815250856001600160a01b0316611e0b9092919063ffffffff16565b80519091501561072a5780806020019051810190611a5991906120d3565b61072a5760405162461bcd60e51b815260206004820152602a60248201527f5361666545524332303a204552433230206f7065726174696f6e20646964206e6044820152691bdd081cdd58d8d9595960b21b60648201526084016106a2565b6001600160a01b0383166000908152600e6020526040902054611ada84610b60565b101561072a5760405162461bcd60e51b815260206004820152601c60248201527b4d6f72654d6f6e65793a2062656c6f77206d696e2062616c616e636560201b60448201526064016106a2565b6000806fa2a8918ca85bafe22016d0b997e4df60600160ff1b03831115611b545750600090506003611c01565b8460ff16601b14158015611b6c57508460ff16601c14155b15611b7d5750600090506004611c01565b6040805160008082526020820180845289905260ff881692820192909252606081018690526080810185905260019060a0016020604051602081039080840390855afa158015611bd1573d6000803e3d6000fd5b5050604051601f1901519150506001600160a01b038116611bfa57600060019250925050611c01565b9150600090505b94509492505050565b6000816004811115611c2c57634e487b7160e01b600052602160045260246000fd5b1415611c3757611e08565b6001816004811115611c5957634e487b7160e01b600052602160045260246000fd5b1415611ca25760405162461bcd60e51b815260206004820152601860248201527745434453413a20696e76616c6964207369676e617475726560401b60448201526064016106a2565b6002816004811115611cc457634e487b7160e01b600052602160045260246000fd5b1415611d125760405162461bcd60e51b815260206004820152601f60248201527f45434453413a20696e76616c6964207369676e6174757265206c656e6774680060448201526064016106a2565b6003816004811115611d3457634e487b7160e01b600052602160045260246000fd5b1415611d8d5760405162461bcd60e51b815260206004820152602260248201527f45434453413a20696e76616c6964207369676e6174757265202773272076616c604482015261756560f01b60648201526084016106a2565b6004816004811115611daf57634e487b7160e01b600052602160045260246000fd5b1415611e085760405162461bcd60e51b815260206004820152602260248201527f45434453413a20696e76616c6964207369676e6174757265202776272076616c604482015261756560f01b60648201526084016106a2565b50565b6060611e1a8484600085611e22565b949350505050565b606082471015611e835760405162461bcd60e51b815260206004820152602660248201527f416464726573733a20696e73756666696369656e742062616c616e636520666f6044820152651c8818d85b1b60d21b60648201526084016106a2565b843b611ed15760405162461bcd60e51b815260206004820152601d60248201527f416464726573733a2063616c6c20746f206e6f6e2d636f6e747261637400000060448201526064016106a2565b600080866001600160a01b03168587604051611eed919061215b565b60006040518083038185875af1925050503d8060008114611f2a576040519150601f19603f3d011682016040523d82523d6000602084013e611f2f565b606091505b5091509150611f3f828286611f4a565b979650505050505050565b60608315611f59575081610841565b825115611f695782518084602001fd5b8160405162461bcd60e51b81526004016106a291906121d4565b600060208284031215611f94578081fd5b813561084181612329565b600060208284031215611fb0578081fd5b815161084181612329565b60008060408385031215611fcd578081fd5b8235611fd881612329565b91506020830135611fe881612329565b809150509250929050565b600080600060608486031215612007578081fd5b833561201281612329565b9250602084013561202281612329565b929592945050506040919091013590565b600080600080600080600060e0888a03121561204d578283fd5b873561205881612329565b9650602088013561206881612329565b95506040880135945060608801359350608088013560ff8116811461208b578384fd5b9699959850939692959460a0840135945060c09093013592915050565b600080604083850312156120ba578182fd5b82356120c581612329565b946020939093013593505050565b6000602082840312156120e4578081fd5b81518015158114610841578182fd5b600080600060608486031215612007578283fd5b600060208284031215612118578081fd5b5035919050565b600060208284031215612130578081fd5b5051919050565b60008060408385031215612149578182fd5b823591506020830135611fe881612329565b6000825161216d8184602087016122b2565b9190910192915050565b6001600160a01b03929092168252602082015260400190565b6020808252825182820181905260009190848201906040850190845b818110156121c8578351835292840192918401916001016121ac565b50909695505050505050565b60006020825282518060208401526121f38160408501602087016122b2565b601f01601f19169190910160400192915050565b60208082526025908201527f43616c6c6572206e6f7420617574686f72697a656420746f20736574206170706040820152641c9bdd985b60da1b606082015260800190565b6020808252601f908201527f5265656e7472616e637947756172643a207265656e7472616e742063616c6c00604082015260600190565b6000821982111561229657612296612313565b500190565b6000828210156122ad576122ad612313565b500390565b60005b838110156122cd5781810151838201526020016122b5565b838111156115fb5750506000910152565b600181811c908216806122f257607f821691505b6020821081141561196a57634e487b7160e01b600052602260045260246000fd5b634e487b7160e01b600052601160045260246000fd5b6001600160a01b0381168114611e0857600080fdfeddf252ad1be2c89b69c2b068fc378daa952ba7f163c4a11628f55a4df523b3efa2646970667358221220bce8c294dc54a753d1dd42f6c60437079973ed2404105a566194143b920046a364736f6c63430008030033a2646970667358221220d504137ee3de02cbbcddf079ad0b443796fdbfdc42a6e0d2ec21fc2bda02e05c64736f6c63430008030033",
  "linkReferences": {},
  "deployedLinkReferences": {}
}