{
  "_format": "hh-sol-artifact-1",
  "contractName": "IsolatedLendingLiquidation",
  "sourceName": "contracts/IsolatedLendingLiquidation.sol",
  "abi": [
    {
      "inputs": [
        {
          "internalType": "address",
          "name": "_roles",
          "type": "address"
        }
      ],
      "stateMutability": "nonpayable",
      "type": "constructor"
    },
    {
      "anonymous": false,
      "inputs": [
        {
          "indexed": false,
          "internalType": "string",
          "name": "param",
          "type": "string"
        },
        {
          "indexed": false,
          "internalType": "uint256",
          "name": "value",
          "type": "uint256"
        }
      ],
      "name": "ParameterUpdated",
      "type": "event"
    },
    {
      "anonymous": false,
      "inputs": [
        {
          "indexed": false,
          "internalType": "string",
          "name": "param",
          "type": "string"
        },
        {
          "indexed": false,
          "internalType": "address",
          "name": "subject",
          "type": "address"
        },
        {
          "indexed": false,
          "internalType": "uint256",
          "name": "value",
          "type": "uint256"
        }
      ],
      "name": "SubjectParameterUpdated",
      "type": "event"
    },
    {
      "anonymous": false,
      "inputs": [
        {
          "indexed": false,
          "internalType": "string",
          "name": "param",
          "type": "string"
        },
        {
          "indexed": false,
          "internalType": "address",
          "name": "subject",
          "type": "address"
        }
      ],
      "name": "SubjectUpdated",
      "type": "event"
    },
    {
      "inputs": [
        {
          "internalType": "uint256",
          "name": "",
          "type": "uint256"
        }
      ],
      "name": "_charactersPlayed",
      "outputs": [
        {
          "internalType": "uint256",
          "name": "",
          "type": "uint256"
        }
      ],
      "stateMutability": "view",
      "type": "function"
    },
    {
      "inputs": [
        {
          "internalType": "uint256",
          "name": "",
          "type": "uint256"
        }
      ],
      "name": "_dependsOnCharacters",
      "outputs": [
        {
          "internalType": "uint256",
          "name": "",
          "type": "uint256"
        }
      ],
      "stateMutability": "view",
      "type": "function"
    },
    {
      "inputs": [
        {
          "internalType": "uint256",
          "name": "",
          "type": "uint256"
        }
      ],
      "name": "_dependsOnRoles",
      "outputs": [
        {
          "internalType": "uint256",
          "name": "",
          "type": "uint256"
        }
      ],
      "stateMutability": "view",
      "type": "function"
    },
    {
      "inputs": [
        {
          "internalType": "uint256",
          "name": "",
          "type": "uint256"
        }
      ],
      "name": "_rolesPlayed",
      "outputs": [
        {
          "internalType": "uint256",
          "name": "",
          "type": "uint256"
        }
      ],
      "stateMutability": "view",
      "type": "function"
    },
    {
      "inputs": [],
      "name": "charactersPlayed",
      "outputs": [
        {
          "internalType": "uint256[]",
          "name": "",
          "type": "uint256[]"
        }
      ],
      "stateMutability": "view",
      "type": "function"
    },
    {
      "inputs": [],
      "name": "defaultLiquidationRewardPer10k",
      "outputs": [
        {
          "internalType": "uint256",
          "name": "",
          "type": "uint256"
        }
      ],
      "stateMutability": "view",
      "type": "function"
    },
    {
      "inputs": [],
      "name": "defaultProtocolFeePer10k",
      "outputs": [
        {
          "internalType": "uint256",
          "name": "",
          "type": "uint256"
        }
      ],
      "stateMutability": "view",
      "type": "function"
    },
    {
      "inputs": [],
      "name": "dependsOnCharacters",
      "outputs": [
        {
          "internalType": "uint256[]",
          "name": "",
          "type": "uint256[]"
        }
      ],
      "stateMutability": "view",
      "type": "function"
    },
    {
      "inputs": [],
      "name": "dependsOnRoles",
      "outputs": [
        {
          "internalType": "uint256[]",
          "name": "",
          "type": "uint256[]"
        }
      ],
      "stateMutability": "view",
      "type": "function"
    },
    {
      "inputs": [
        {
          "internalType": "uint256",
          "name": "trancheId",
          "type": "uint256"
        },
        {
          "internalType": "uint256",
          "name": "collateralRequested",
          "type": "uint256"
        },
        {
          "internalType": "uint256",
          "name": "rebalancingBid",
          "type": "uint256"
        },
        {
          "internalType": "address",
          "name": "recipient",
          "type": "address"
        },
        {
          "internalType": "bytes",
          "name": "_data",
          "type": "bytes"
        }
      ],
      "name": "liquidate",
      "outputs": [],
      "stateMutability": "nonpayable",
      "type": "function"
    },
    {
      "inputs": [
        {
          "internalType": "uint256",
          "name": "trancheId",
          "type": "uint256"
        },
        {
          "internalType": "address",
          "name": "recipient",
          "type": "address"
        },
        {
          "internalType": "bytes",
          "name": "_data",
          "type": "bytes"
        }
      ],
      "name": "liquidateUnderwater",
      "outputs": [],
      "stateMutability": "nonpayable",
      "type": "function"
    },
    {
      "inputs": [
        {
          "internalType": "address",
          "name": "",
          "type": "address"
        }
      ],
      "name": "liquidationRewardPer10k",
      "outputs": [
        {
          "internalType": "uint256",
          "name": "",
          "type": "uint256"
        }
      ],
      "stateMutability": "view",
      "type": "function"
    },
    {
      "inputs": [
        {
          "internalType": "uint256",
          "name": "",
          "type": "uint256"
        }
      ],
      "name": "liquidationTstamp",
      "outputs": [
        {
          "internalType": "uint256",
          "name": "",
          "type": "uint256"
        }
      ],
      "stateMutability": "view",
      "type": "function"
    },
    {
      "inputs": [
        {
          "internalType": "uint256",
          "name": "",
          "type": "uint256"
        }
      ],
      "name": "mainCharacterCache",
      "outputs": [
        {
          "internalType": "address",
          "name": "",
          "type": "address"
        }
      ],
      "stateMutability": "view",
      "type": "function"
    },
    {
      "inputs": [
        {
          "internalType": "address",
          "name": "",
          "type": "address"
        },
        {
          "internalType": "address",
          "name": "",
          "type": "address"
        },
        {
          "internalType": "uint256",
          "name": "",
          "type": "uint256"
        },
        {
          "internalType": "bytes",
          "name": "",
          "type": "bytes"
        }
      ],
      "name": "onERC721Received",
      "outputs": [
        {
          "internalType": "bytes4",
          "name": "",
          "type": "bytes4"
        }
      ],
      "stateMutability": "nonpayable",
      "type": "function"
    },
    {
      "inputs": [
        {
          "internalType": "address",
          "name": "",
          "type": "address"
        }
      ],
      "name": "protocolFeePer10k",
      "outputs": [
        {
          "internalType": "uint256",
          "name": "",
          "type": "uint256"
        }
      ],
      "stateMutability": "view",
      "type": "function"
    },
    {
      "inputs": [
        {
          "internalType": "uint256",
          "name": "amount",
          "type": "uint256"
        },
        {
          "internalType": "address",
          "name": "recipient",
          "type": "address"
        }
      ],
      "name": "rescueNative",
      "outputs": [],
      "stateMutability": "nonpayable",
      "type": "function"
    },
    {
      "inputs": [
        {
          "internalType": "address",
          "name": "token",
          "type": "address"
        },
        {
          "internalType": "uint256",
          "name": "amount",
          "type": "uint256"
        },
        {
          "internalType": "address",
          "name": "recipient",
          "type": "address"
        }
      ],
      "name": "rescueStrandedTokens",
      "outputs": [],
      "stateMutability": "nonpayable",
      "type": "function"
    },
    {
      "inputs": [
        {
          "internalType": "address",
          "name": "",
          "type": "address"
        },
        {
          "internalType": "uint256",
          "name": "",
          "type": "uint256"
        }
      ],
      "name": "roleCache",
      "outputs": [
        {
          "internalType": "bool",
          "name": "",
          "type": "bool"
        }
      ],
      "stateMutability": "view",
      "type": "function"
    },
    {
      "inputs": [],
      "name": "roles",
      "outputs": [
        {
          "internalType": "contract Roles",
          "name": "",
          "type": "address"
        }
      ],
      "stateMutability": "view",
      "type": "function"
    },
    {
      "inputs": [],
      "name": "rolesPlayed",
      "outputs": [
        {
          "internalType": "uint256[]",
          "name": "",
          "type": "uint256[]"
        }
      ],
      "stateMutability": "view",
      "type": "function"
    },
    {
      "inputs": [
        {
          "internalType": "uint256",
          "name": "liqSharePer10k",
          "type": "uint256"
        }
      ],
      "name": "setDefaultLiquidationRewardPer10k",
      "outputs": [],
      "stateMutability": "nonpayable",
      "type": "function"
    },
    {
      "inputs": [
        {
          "internalType": "address",
          "name": "token",
          "type": "address"
        },
        {
          "internalType": "uint256",
          "name": "liqSharePer10k",
          "type": "uint256"
        }
      ],
      "name": "setLiquidationRewardPer10k",
      "outputs": [],
      "stateMutability": "nonpayable",
      "type": "function"
    },
    {
      "inputs": [
        {
          "internalType": "address",
          "name": "token",
          "type": "address"
        },
        {
          "internalType": "uint256",
          "name": "protFeePer10k",
          "type": "uint256"
        }
      ],
      "name": "setProtcolFeePer10k",
      "outputs": [],
      "stateMutability": "nonpayable",
      "type": "function"
    },
    {
      "inputs": [
        {
          "internalType": "uint256",
          "name": "protFeePer10k",
          "type": "uint256"
        }
      ],
      "name": "setProtocolFeePer10k",
      "outputs": [],
      "stateMutability": "nonpayable",
      "type": "function"
    },
    {
      "inputs": [
        {
          "internalType": "uint256",
          "name": "role",
          "type": "uint256"
        }
      ],
      "name": "updateMainCharacterCache",
      "outputs": [],
      "stateMutability": "nonpayable",
      "type": "function"
    },
    {
      "inputs": [
        {
          "internalType": "uint256",
          "name": "role",
          "type": "uint256"
        },
        {
          "internalType": "address",
          "name": "contr",
          "type": "address"
        }
      ],
      "name": "updateRoleCache",
      "outputs": [],
      "stateMutability": "nonpayable",
      "type": "function"
    },
    {
      "inputs": [],
      "name": "viewAllFeesEver",
      "outputs": [
        {
          "internalType": "uint256",
          "name": "",
          "type": "uint256"
        }
      ],
      "stateMutability": "view",
      "type": "function"
    },
    {
      "inputs": [
        {
          "internalType": "uint256",
          "name": "trancheId",
          "type": "uint256"
        },
        {
          "internalType": "uint256",
          "name": "collateralRequested",
          "type": "uint256"
        }
      ],
      "name": "viewBidTargetAndProtocolCut",
      "outputs": [
        {
          "internalType": "uint256",
          "name": "",
          "type": "uint256"
        },
        {
          "internalType": "uint256",
          "name": "",
          "type": "uint256"
        }
      ],
      "stateMutability": "view",
      "type": "function"
    },
    {
      "inputs": [
        {
          "internalType": "address",
          "name": "token",
          "type": "address"
        }
      ],
      "name": "viewLiqSharePer10k",
      "outputs": [
        {
          "internalType": "uint256",
          "name": "liqShare",
          "type": "uint256"
        }
      ],
      "stateMutability": "view",
      "type": "function"
    },
    {
      "inputs": [
        {
          "internalType": "address",
          "name": "token",
          "type": "address"
        }
      ],
      "name": "viewLiquidationFeePer10k",
      "outputs": [
        {
          "internalType": "uint256",
          "name": "",
          "type": "uint256"
        }
      ],
      "stateMutability": "view",
      "type": "function"
    },
    {
      "inputs": [
        {
          "internalType": "address",
          "name": "token",
          "type": "address"
        }
      ],
      "name": "viewProtocolSharePer10k",
      "outputs": [
        {
          "internalType": "uint256",
          "name": "protocolShare",
          "type": "uint256"
        }
      ],
      "stateMutability": "view",
      "type": "function"
    }
  ],
  "bytecode": "0x60a06040526103e860085560966009553480156200001c57600080fd5b50604051620026f7380380620026f78339810160408190526200003f916200019f565b806001600160a01b038116620000a65760405162461bcd60e51b815260206004820152602260248201527f506c656173652070726f766964652076616c696420726f6c6573206164647265604482015261737360f01b606482015260840160405180910390fd5b60601b6001600160601b03191660805250600280546001808201835560667f405787fa12a823e0f2b7631cc41b3ba8828b3321ca811111fa75cd3aa3bb5ace9283015582548082018455606b908301558254808201845560679083015560038054808301825560067fc2575a0e9e593c00f959f8c92f12db2869c3395a3b0502d05e2516446f71f85b9182018190558554808501909655606a95909401949094558054808301909155600793019290925581905560058054808301825560008290527f036b6384b5eca791c62761152d0c79bb0604c104a5fb6f4eb0703f3154bb3db090810182905581548084019092550155620001cf565b600060208284031215620001b1578081fd5b81516001600160a01b0381168114620001c8578182fd5b9392505050565b60805160601c6124e662000211600039600081816102730152818161099501528181610f2701528181611a1201528181611aaa0152611b3101526124e66000f3fe608060405234801561001057600080fd5b50600436106101805760003560e01c80630380b4ed1461018557806304a75a2a1461019a57806306398a5e146101ad578063071060a6146101e05780630d749628146101f3578063150b7a02146101fc57806318af4c9e146102335780633915c19f14610246578063392f5f641461026e578063420612de146102ad578063447d52ba146102c05780634524029f146102d357806349d4f22e146102dc5780634a7a7f41146102ef5780634ab5a0471461030457806354b471761461030d5780636caa9c1114610320578063717d6ef814610333578063776140671461034657806379ac442e146103595780637a1a04df1461036c5780637ae3c7a6146103aa5780637dad209b146103bd578063a1f4e93c146103c5578063abcbc4fc146103e5578063aeb38d8b146103f8578063bf184ea41461040b578063dc94cb7d1461041e578063e42f0c9514610426578063e8ea4fae14610446578063e9c3f77d1461044e578063eaa7a80b14610477575b600080fd5b610198610193366004611fef565b61048a565b005b6101986101a83660046120da565b610575565b6101cd6101bb366004611edf565b600a6020526000908152604090205481565b6040519081526020015b60405180910390f35b6101986101ee36600461207b565b61097f565b6101cd600c5481565b61021a61020a366004611f17565b630a85bd0160e11b949350505050565b6040516001600160e01b031990911681526020016101d7565b6101986102413660046120ab565b610a45565b610259610254366004612133565b610aef565b604080519283526020830191909152016101d7565b6102957f000000000000000000000000000000000000000000000000000000000000000081565b6040516001600160a01b0390911681526020016101d7565b6101986102bb36600461207b565b610e5f565b6101986102ce3660046120ab565b610f10565b6101cd60085481565b6101986102ea36600461201a565b610fe6565b6102f7611069565b6040516101d7919061224a565b6101cd60095481565b6101cd61031b366004611edf565b6110c1565b6101cd61032e36600461207b565b6110e9565b6101cd610341366004611edf565b61110a565b6101cd610354366004611edf565b61112e565b61019861036736600461207b565b611154565b61039a61037a366004611fef565b600160209081526000928352604080842090915290825290205460ff1681565b60405190151581526020016101d7565b6101986103b8366004611fef565b611200565b6102f76112d8565b6101cd6103d336600461207b565b600b6020526000908152604090205481565b6101cd6103f336600461207b565b61132e565b6101cd61040636600461207b565b61133e565b6101cd61041936600461207b565b61134e565b6102f761135e565b6101cd610434366004611edf565b60076020526000908152604090205481565b6102f76113b4565b61029561045c36600461207b565b6000602081905290815260409020546001600160a01b031681565b610198610485366004612154565b61140a565b33610493611a0e565b6001600160a01b031614806104b75750336104ac611aa6565b6001600160a01b0316145b806104d15750336104c6611b17565b6001600160a01b0316145b6104f65760405162461bcd60e51b81526004016104ed9061233f565b60405180910390fd5b6001600160a01b0382166000818152600a602090815260409182902084905581516060808252600c908201526b70726f746f636f6c2066656560a01b60808201529081019290925281018290527f2cc0b19d71980380c7a99113dc265ee16b9f7f394e2a42085ab6877482a7f8229060a0015b60405180910390a15050565b600260065414156105985760405162461bcd60e51b81526004016104ed90612397565b60026006908155336000908152600160209081526040808320938352929052205460ff16806105d65750336105cb611b17565b6001600160a01b0316145b806105f05750336105e5611a0e565b6001600160a01b0316145b8061060a5750336105ff611aa6565b6001600160a01b0316145b61066c5760405162461bcd60e51b815260206004820152602d60248201527f43616c6c6572206e6f7420617574686f72697a656420746f206c69717569646160448201526c3a32903ab73232b93bb0ba32b960991b60648201526084016104ed565b6000610676611b7b565b604051630358e41160e21b8152600481018790529091506000906001600160a01b03831690630d6390449060240160206040518083038186803b1580156106bc57600080fd5b505afa1580156106d0573d6000803e3d6000fd5b505050506040513d601f19601f820116820180604052508101906106f49190612093565b60405163f6ee21bd60e01b8152600481018890529091506000906001600160a01b0384169063f6ee21bd9060240160206040518083038186803b15801561073a57600080fd5b505afa15801561074e573d6000803e3d6000fd5b505050506040513d601f19601f820116820180604052508101906107729190612093565b604051632c97897d60e21b8152600481018990529091506001600160a01b0384169063b25e25f49060240160206040518083038186803b1580156107b557600080fd5b505afa1580156107c9573d6000803e3d6000fd5b505050506040513d601f19601f820116820180604052508101906107ed919061205b565b156108385760405162461bcd60e51b815260206004820152601b60248201527a5472616e636865206973206e6f74206c6971756964617461626c6560281b60448201526064016104ed565b8082116108805760405162461bcd60e51b81526020600482015260166024820152752a3930b731b432903737ba103ab73232b93bb0ba32b960511b60448201526064016104ed565b610888611b7b565b6001600160a01b031663b88d4fde61089e611b7b565b6001600160a01b0316636352211e8a6040518263ffffffff1660e01b81526004016108cb91815260200190565b60206040518083038186803b1580156108e357600080fd5b505afa1580156108f7573d6000803e3d6000fd5b505050506040513d601f19601f8201168201806040525081019061091b9190611efb565b888a89896040518663ffffffff1660e01b815260040161093f9594939291906121e0565b600060405180830381600087803b15801561095957600080fd5b505af115801561096d573d6000803e3d6000fd5b50506001600655505050505050505050565b60405163b4ed0b6d60e01b8152600481018290527f00000000000000000000000000000000000000000000000000000000000000006001600160a01b03169063b4ed0b6d9060240160206040518083038186803b1580156109df57600080fd5b505afa1580156109f3573d6000803e3d6000fd5b505050506040513d601f19601f82011682018060405250810190610a179190611efb565b60009182526020829052604090912080546001600160a01b0319166001600160a01b03909216919091179055565b33610a4e611a0e565b6001600160a01b03161480610a72575033610a67611aa6565b6001600160a01b0316145b610a8e5760405162461bcd60e51b81526004016104ed906122c1565b6001600160a01b038116610ab45760405162461bcd60e51b81526004016104ed9061230b565b6040516001600160a01b0382169083156108fc029084906000818181858888f19350505050158015610aea573d6000803e3d6000fd5b505050565b6000806000610afc611b7b565b90506000816001600160a01b0316639897fc2687610b18611bb3565b6040516001600160e01b031960e085901b16815260048101929092526001600160a01b0316602482015260440160206040518083038186803b158015610b5d57600080fd5b505afa158015610b71573d6000803e3d6000fd5b505050506040513d601f19601f82011682018060405250810190610b959190612093565b60405163c5c72dc360e01b8152600481018890529091506000906001600160a01b0384169063c5c72dc39060240160206040518083038186803b158015610bdb57600080fd5b505afa158015610bef573d6000803e3d6000fd5b505050506040513d601f19601f82011682018060405250810190610c139190612093565b610c1d8388612406565b610c2791906123e6565b9050600061271082610cb0866001600160a01b031663fabee7db8c6040518263ffffffff1660e01b8152600401610c6091815260200190565b60206040518083038186803b158015610c7857600080fd5b505afa158015610c8c573d6000803e3d6000fd5b505050506040513d601f19601f8201168201806040525081019061031b9190611efb565b610cbc90612710612425565b610cc69190612406565b610cd091906123e6565b604051630358e41160e21b8152600481018a90529091506000906001600160a01b03861690630d6390449060240160206040518083038186803b158015610d1657600080fd5b505afa158015610d2a573d6000803e3d6000fd5b505050506040513d601f19601f82011682018060405250810190610d4e9190612093565b90506000610dd3866001600160a01b031663fabee7db8c6040518263ffffffff1660e01b8152600401610d8391815260200190565b60206040518083038186803b158015610d9b57600080fd5b505afa158015610daf573d6000803e3d6000fd5b505050506040513d601f19601f820116820180604052508101906103549190611efb565b90506000610e4b612710610de78785612406565b610df191906123e6565b610dfb8686612425565b610e05888a612425565b11610e11576000610e46565b6064610e1d8787612425565b610e27898b612425565b610e319190612425565b610e3c906028612406565b610e4691906123e6565b611beb565b9398509296505050505050505b9250929050565b33610e68611a0e565b6001600160a01b03161480610e8c575033610e81611aa6565b6001600160a01b0316145b610ea85760405162461bcd60e51b81526004016104ed906122c1565b60088190556040805181815260129181019190915271191959985d5b1d081b1a5c481c995dd85c9960721b6060820152602081018290527f3a64504f0bc0c335e2aecb78638a257e0351a3fe0370861fd54ee4190b920933906080015b60405180910390a150565b60405163f0723d9760e01b81526001600160a01b037f0000000000000000000000000000000000000000000000000000000000000000169063f0723d9790610f5e9084908690600401612231565b60206040518083038186803b158015610f7657600080fd5b505afa158015610f8a573d6000803e3d6000fd5b505050506040513d601f19601f82011682018060405250810190610fae919061205b565b6001600160a01b0391909116600090815260016020908152604080832094835293905291909120805460ff1916911515919091179055565b33610fef611a0e565b6001600160a01b03161480611013575033611008611aa6565b6001600160a01b0316145b61102f5760405162461bcd60e51b81526004016104ed906122c1565b6001600160a01b0381166110555760405162461bcd60e51b81526004016104ed9061230b565b610aea6001600160a01b0384168284611c03565b606060038054806020026020016040519081016040528092919081815260200182805480156110b757602002820191906000526020600020905b8154815260200190600101908083116110a3575b5050505050905090565b6001600160a01b038116600090815260076020526040902054806110e457506008545b919050565b600581815481106110f957600080fd5b600091825260209091200154905081565b6000611115826110c1565b61111e8361112e565b61112891906123ce565b92915050565b6001600160a01b0381166000908152600a6020526040902054806110e457505060095490565b3361115d611a0e565b6001600160a01b03161480611181575033611176611aa6565b6001600160a01b0316145b61119d5760405162461bcd60e51b81526004016104ed906122c1565b6009819055604080518181526014918101919091527364656661756c742070726f746f636f6c2066656560601b6060820152602081018290527f3a64504f0bc0c335e2aecb78638a257e0351a3fe0370861fd54ee4190b92093390608001610f05565b33611209611a0e565b6001600160a01b0316148061122d575033611222611aa6565b6001600160a01b0316145b8061124757503361123c611b17565b6001600160a01b0316145b6112635760405162461bcd60e51b81526004016104ed9061233f565b6001600160a01b03821660008181526007602090815260409182902084905581516060808252600a90820152691b1a5c481c995dd85c9960b21b60808201529081019290925281018290527f2cc0b19d71980380c7a99113dc265ee16b9f7f394e2a42085ab6877482a7f8229060a001610569565b606060048054806020026020016040519081016040528092919081815260200182805480156110b757602002820191906000526020600020908154815260200190600101908083116110a3575050505050905090565b600281815481106110f957600080fd5b600481815481106110f957600080fd5b600381815481106110f957600080fd5b606060028054806020026020016040519081016040528092919081815260200182805480156110b757602002820191906000526020600020908154815260200190600101908083116110a3575050505050905090565b606060058054806020026020016040519081016040528092919081815260200182805480156110b757602002820191906000526020600020908154815260200190600101908083116110a3575050505050905090565b6002600654141561142d5760405162461bcd60e51b81526004016104ed90612397565b60026006556001600160a01b0383166114585760405162461bcd60e51b81526004016104ed9061230b565b6000611462611b7b565b9050600061146e611bb3565b6040516331a9108f60e11b8152600481018a90529091506000906001600160a01b03841690636352211e9060240160206040518083038186803b1580156114b457600080fd5b505afa1580156114c8573d6000803e3d6000fd5b505050506040513d601f19601f820116820180604052508101906114ec9190611efb565b905061151c816001600160a01b031660009081526001602090815260408083206007845290915290205460ff1690565b156115695760405162461bcd60e51b815260206004820152601e60248201527f4f776e6572206973206c69717569646174696f6e2070726f746563746564000060448201526064016104ed565b604051632142170760e11b81526001600160a01b038281166004830152306024830152604482018b90528416906342842e0e90606401600060405180830381600087803b1580156115b957600080fd5b505af11580156115cd573d6000803e3d6000fd5b505060405163f8903fb760e01b8152600481018c90526001600160a01b03858116602483015284811660448301528616925063f8903fb79150606401602060405180830381600087803b15801561162357600080fd5b505af1158015611637573d6000803e3d6000fd5b505050506040513d601f19601f8201168201806040525081019061165b9190612093565b50604051632c97897d60e21b8152600481018a90526001600160a01b0384169063b25e25f49060240160206040518083038186803b15801561169c57600080fd5b505afa1580156116b0573d6000803e3d6000fd5b505050506040513d601f19601f820116820180604052508101906116d4919061205b565b1561171c5760405162461bcd60e51b81526020600482015260186024820152775472616e636865206e6f74206c6971756964617461626c6560401b60448201526064016104ed565b6000806117298b8b610aef565b915091508189101561177d5760405162461bcd60e51b815260206004820181905260248201527f496e737566696369656e74206465627420726562616c616e63696e672062696460448201526064016104ed565b604051632770a7eb60e21b81526001600160a01b03851690639dc29fac906117ab9033908d90600401612231565b600060405180830381600087803b1580156117c557600080fd5b505af11580156117d9573d6000803e3d6000fd5b50505050836001600160a01b03166340c10f1930838c6117f99190612425565b6040518363ffffffff1660e01b8152600401611816929190612231565b600060405180830381600087803b15801561183057600080fd5b505af1158015611844573d6000803e3d6000fd5b50505050846001600160a01b03166379bc3efa8c8c848d6118659190612425565b6040516001600160e01b031960e086901b1681526004810193909352602483019190915260448201526001600160a01b038b166064820152608401600060405180830381600087803b1580156118ba57600080fd5b505af11580156118ce573d6000803e3d6000fd5b50505050836001600160a01b03166340c10f1961191c606760009081526020527f682158d08466d11c566d5712d4396197fdd67e65be71d83c97ef719ec468867b546001600160a01b031690565b836040518363ffffffff1660e01b815260040161193a929190612231565b600060405180830381600087803b15801561195457600080fd5b505af1158015611968573d6000803e3d6000fd5b5050505080600c600082825461197e91906123ce565b92505081905550846001600160a01b031663b88d4fde30858e8b8b6040518663ffffffff1660e01b81526004016119b99594939291906121e0565b600060405180830381600087803b1580156119d357600080fd5b505af11580156119e7573d6000803e3d6000fd5b50505060009b8c525050600b60205250506040909720429055505060016006555050505050565b60007f00000000000000000000000000000000000000000000000000000000000000006001600160a01b0316638da5cb5b6040518163ffffffff1660e01b815260040160206040518083038186803b158015611a6957600080fd5b505afa158015611a7d573d6000803e3d6000fd5b505050506040513d601f19601f82011682018060405250810190611aa19190611efb565b905090565b60007f00000000000000000000000000000000000000000000000000000000000000006001600160a01b031663c34c08e56040518163ffffffff1660e01b8152600401602060405180830381600087803b158015611b0357600080fd5b505af1158015611a7d573d6000803e3d6000fd5b60405163b4ed0b6d60e01b81526103e960048201526000907f00000000000000000000000000000000000000000000000000000000000000006001600160a01b03169063b4ed0b6d9060240160206040518083038186803b158015611a6957600080fd5b606b60009081526020527f2dc7a963308417ad45132da282495eb244f38a7db03940a4d808be607669c622546001600160a01b031690565b606660009081526020527f422cccb7cea5c0e46f340bb7b21b81debac329f72e31669c20ff0f3a05cc2b5b546001600160a01b031690565b600081831115611bfc575080611128565b5090919050565b610aea8363a9059cbb60e01b8484604051602401611c22929190612231565b60408051601f198184030181529190526020810180516001600160e01b03166001600160e01b0319909316929092179091526000611ca9826040518060400160405280602081526020017f5361666545524332303a206c6f772d6c6576656c2063616c6c206661696c6564815250856001600160a01b0316611d269092919063ffffffff16565b805190915015610aea5780806020019051810190611cc7919061205b565b610aea5760405162461bcd60e51b815260206004820152602a60248201527f5361666545524332303a204552433230206f7065726174696f6e20646964206e6044820152691bdd081cdd58d8d9595960b21b60648201526084016104ed565b6060611d358484600085611d3f565b90505b9392505050565b606082471015611da05760405162461bcd60e51b815260206004820152602660248201527f416464726573733a20696e73756666696369656e742062616c616e636520666f6044820152651c8818d85b1b60d21b60648201526084016104ed565b843b611dee5760405162461bcd60e51b815260206004820152601d60248201527f416464726573733a2063616c6c20746f206e6f6e2d636f6e747261637400000060448201526064016104ed565b600080866001600160a01b03168587604051611e0a91906121c4565b60006040518083038185875af1925050503d8060008114611e47576040519150601f19603f3d011682016040523d82523d6000602084013e611e4c565b606091505b5091509150611e5c828286611e67565b979650505050505050565b60608315611e76575081611d38565b825115611e865782518084602001fd5b8160405162461bcd60e51b81526004016104ed919061228e565b60008083601f840112611eb1578182fd5b5081356001600160401b03811115611ec7578182fd5b602083019150836020828501011115610e5857600080fd5b600060208284031215611ef0578081fd5b8135611d3881612498565b600060208284031215611f0c578081fd5b8151611d3881612498565b60008060008060808587031215611f2c578283fd5b8435611f3781612498565b93506020850135611f4781612498565b92506040850135915060608501356001600160401b0380821115611f69578283fd5b818701915087601f830112611f7c578283fd5b813581811115611f8e57611f8e612482565b604051601f8201601f19908116603f01168101908382118183101715611fb657611fb6612482565b816040528281528a6020848701011115611fce578586fd5b82602086016020830137918201602001949094529598949750929550505050565b60008060408385031215612001578182fd5b823561200c81612498565b946020939093013593505050565b60008060006060848603121561202e578283fd5b833561203981612498565b925060208401359150604084013561205081612498565b809150509250925092565b60006020828403121561206c578081fd5b81518015158114611d38578182fd5b60006020828403121561208c578081fd5b5035919050565b6000602082840312156120a4578081fd5b5051919050565b600080604083850312156120bd578182fd5b8235915060208301356120cf81612498565b809150509250929050565b600080600080606085870312156120ef578384fd5b84359350602085013561210181612498565b925060408501356001600160401b0381111561211b578283fd5b61212787828801611ea0565b95989497509550505050565b60008060408385031215612145578182fd5b50508035926020909101359150565b60008060008060008060a0878903121561216c578182fd5b863595506020870135945060408701359350606087013561218c81612498565b925060808701356001600160401b038111156121a6578283fd5b6121b289828a01611ea0565b979a9699509497509295939492505050565b600082516121d681846020870161243c565b9190910192915050565b6001600160a01b038681168252851660208201526040810184905260806060820181905281018290526000828460a084013781830160a090810191909152601f909201601f19160101949350505050565b6001600160a01b03929092168252602082015260400190565b6020808252825182820181905260009190848201906040850190845b8181101561228257835183529284019291840191600101612266565b50909695505050505050565b60006020825282518060208401526122ad81604085016020870161243c565b601f01601f19169190910160400192915050565b6020808252602a908201527f526f6c65733a2063616c6c6572206973206e6f7420746865206f776e6572206f604082015269391032bc32b1baba37b960b11b606082015260800190565b6020808252601a9082015279446f6e27742073656e6420746f207a65726f206164647265737360301b604082015260600190565b60208082526038908201527f43616c6c6572206973206e6f7420746865206f776e65722c206578656375746f604082015277391037b91030baba3437b934bd32b2103234b9b0b13632b960411b606082015260800190565b6020808252601f908201527f5265656e7472616e637947756172643a207265656e7472616e742063616c6c00604082015260600190565b600082198211156123e1576123e161246c565b500190565b60008261240157634e487b7160e01b81526012600452602481fd5b500490565b60008160001904831182151516156124205761242061246c565b500290565b6000828210156124375761243761246c565b500390565b60005b8381101561245757818101518382015260200161243f565b83811115612466576000848401525b50505050565b634e487b7160e01b600052601160045260246000fd5b634e487b7160e01b600052604160045260246000fd5b6001600160a01b03811681146124ad57600080fd5b5056fea26469706673582212209d9959bac64c170915b2f8df379be477dca703e4c740e67956d5219badab6c8c64736f6c63430008030033",
  "linkReferences": {},
  "deployedLinkReferences": {}
}